ARM GAS  C:\Users\mjphi\AppData\Local\Temp\ccX0K9FN.s 			page 1


   1              		.syntax unified
   2              		.cpu cortex-m3
   3              		.fpu softvfp
   4              		.eabi_attribute 20, 1
   5              		.eabi_attribute 21, 1
   6              		.eabi_attribute 23, 3
   7              		.eabi_attribute 24, 1
   8              		.eabi_attribute 25, 1
   9              		.eabi_attribute 26, 1
  10              		.eabi_attribute 30, 4
  11              		.eabi_attribute 34, 1
  12              		.eabi_attribute 18, 4
  13              		.thumb
  14              		.file	"port.c"
  15              		.text
  16              	.Ltext0:
  17              		.cfi_sections	.debug_frame
  18              		.section	.text.prvPortStartFirstTask,"ax",%progbits
  19              		.align	1
  20              		.thumb
  21              		.thumb_func
  22              		.type	prvPortStartFirstTask, %function
  23              	prvPortStartFirstTask:
  24              	.LFB67:
  25              		.file 1 ".\\port.c"
   1:.\port.c      **** /*
   2:.\port.c      ****     FreeRTOS V8.2.1 - Copyright (C) 2015 Real Time Engineers Ltd.
   3:.\port.c      ****     All rights reserved
   4:.\port.c      **** 
   5:.\port.c      ****     VISIT http://www.FreeRTOS.org TO ENSURE YOU ARE USING THE LATEST VERSION.
   6:.\port.c      **** 
   7:.\port.c      ****     This file is part of the FreeRTOS distribution.
   8:.\port.c      **** 
   9:.\port.c      ****     FreeRTOS is free software; you can redistribute it and/or modify it under
  10:.\port.c      ****     the terms of the GNU General Public License (version 2) as published by the
  11:.\port.c      ****     Free Software Foundation >>!AND MODIFIED BY!<< the FreeRTOS exception.
  12:.\port.c      **** 
  13:.\port.c      ****     ***************************************************************************
  14:.\port.c      ****     >>!   NOTE: The modification to the GPL is included to allow you to     !<<
  15:.\port.c      ****     >>!   distribute a combined work that includes FreeRTOS without being   !<<
  16:.\port.c      ****     >>!   obliged to provide the source code for proprietary components     !<<
  17:.\port.c      ****     >>!   outside of the FreeRTOS kernel.                                   !<<
  18:.\port.c      ****     ***************************************************************************
  19:.\port.c      **** 
  20:.\port.c      ****     FreeRTOS is distributed in the hope that it will be useful, but WITHOUT ANY
  21:.\port.c      ****     WARRANTY; without even the implied warranty of MERCHANTABILITY or FITNESS
  22:.\port.c      ****     FOR A PARTICULAR PURPOSE.  Full license text is available on the following
  23:.\port.c      ****     link: http://www.freertos.org/a00114.html
  24:.\port.c      **** 
  25:.\port.c      ****     ***************************************************************************
  26:.\port.c      ****      *                                                                       *
  27:.\port.c      ****      *    FreeRTOS provides completely free yet professionally developed,    *
  28:.\port.c      ****      *    robust, strictly quality controlled, supported, and cross          *
  29:.\port.c      ****      *    platform software that is more than just the market leader, it     *
  30:.\port.c      ****      *    is the industry's de facto standard.                               *
  31:.\port.c      ****      *                                                                       *
  32:.\port.c      ****      *    Help yourself get started quickly while simultaneously helping     *
ARM GAS  C:\Users\mjphi\AppData\Local\Temp\ccX0K9FN.s 			page 2


  33:.\port.c      ****      *    to support the FreeRTOS project by purchasing a FreeRTOS           *
  34:.\port.c      ****      *    tutorial book, reference manual, or both:                          *
  35:.\port.c      ****      *    http://www.FreeRTOS.org/Documentation                              *
  36:.\port.c      ****      *                                                                       *
  37:.\port.c      ****     ***************************************************************************
  38:.\port.c      **** 
  39:.\port.c      ****     http://www.FreeRTOS.org/FAQHelp.html - Having a problem?  Start by reading
  40:.\port.c      ****     the FAQ page "My application does not run, what could be wrong?".  Have you
  41:.\port.c      ****     defined configASSERT()?
  42:.\port.c      **** 
  43:.\port.c      ****     http://www.FreeRTOS.org/support - In return for receiving this top quality
  44:.\port.c      ****     embedded software for free we request you assist our global community by
  45:.\port.c      ****     participating in the support forum.
  46:.\port.c      **** 
  47:.\port.c      ****     http://www.FreeRTOS.org/training - Investing in training allows your team to
  48:.\port.c      ****     be as productive as possible as early as possible.  Now you can receive
  49:.\port.c      ****     FreeRTOS training directly from Richard Barry, CEO of Real Time Engineers
  50:.\port.c      ****     Ltd, and the world's leading authority on the world's leading RTOS.
  51:.\port.c      **** 
  52:.\port.c      ****     http://www.FreeRTOS.org/plus - A selection of FreeRTOS ecosystem products,
  53:.\port.c      ****     including FreeRTOS+Trace - an indispensable productivity tool, a DOS
  54:.\port.c      ****     compatible FAT file system, and our tiny thread aware UDP/IP stack.
  55:.\port.c      **** 
  56:.\port.c      ****     http://www.FreeRTOS.org/labs - Where new FreeRTOS products go to incubate.
  57:.\port.c      ****     Come and try FreeRTOS+TCP, our new open source TCP/IP stack for FreeRTOS.
  58:.\port.c      **** 
  59:.\port.c      ****     http://www.OpenRTOS.com - Real Time Engineers ltd. license FreeRTOS to High
  60:.\port.c      ****     Integrity Systems ltd. to sell under the OpenRTOS brand.  Low cost OpenRTOS
  61:.\port.c      ****     licenses offer ticketed support, indemnification and commercial middleware.
  62:.\port.c      **** 
  63:.\port.c      ****     http://www.SafeRTOS.com - High Integrity Systems also provide a safety
  64:.\port.c      ****     engineered and independently SIL3 certified version for use in safety and
  65:.\port.c      ****     mission critical applications that require provable dependability.
  66:.\port.c      **** 
  67:.\port.c      ****     1 tab == 4 spaces!
  68:.\port.c      **** */
  69:.\port.c      **** 
  70:.\port.c      **** /*-----------------------------------------------------------
  71:.\port.c      ****  * Implementation of functions defined in portable.h for the ARM CM3 port.
  72:.\port.c      ****  *----------------------------------------------------------*/
  73:.\port.c      **** 
  74:.\port.c      **** /* Scheduler includes. */
  75:.\port.c      **** #include "FreeRTOS.h"
  76:.\port.c      **** #include "task.h"
  77:.\port.c      **** 
  78:.\port.c      **** /* For backward compatibility, ensure configKERNEL_INTERRUPT_PRIORITY is
  79:.\port.c      **** defined.  The value should also ensure backward compatibility.
  80:.\port.c      **** FreeRTOS.org versions prior to V4.4.0 did not include this definition. */
  81:.\port.c      **** #ifndef configKERNEL_INTERRUPT_PRIORITY
  82:.\port.c      **** 	#define configKERNEL_INTERRUPT_PRIORITY 255
  83:.\port.c      **** #endif
  84:.\port.c      **** 
  85:.\port.c      **** #ifndef configSYSTICK_CLOCK_HZ
  86:.\port.c      **** 	#define configSYSTICK_CLOCK_HZ configCPU_CLOCK_HZ
  87:.\port.c      **** 	/* Ensure the SysTick is clocked at the same frequency as the core. */
  88:.\port.c      **** 	#define portNVIC_SYSTICK_CLK_BIT	( 1UL << 2UL )
  89:.\port.c      **** #else
ARM GAS  C:\Users\mjphi\AppData\Local\Temp\ccX0K9FN.s 			page 3


  90:.\port.c      **** 	/* The way the SysTick is clocked is not modified in case it is not the same
  91:.\port.c      **** 	as the core. */
  92:.\port.c      **** 	#define portNVIC_SYSTICK_CLK_BIT	( 0 )
  93:.\port.c      **** #endif
  94:.\port.c      **** 
  95:.\port.c      **** /* Constants required to manipulate the core.  Registers first... */
  96:.\port.c      **** #define portNVIC_SYSTICK_CTRL_REG			( * ( ( volatile uint32_t * ) 0xe000e010 ) )
  97:.\port.c      **** #define portNVIC_SYSTICK_LOAD_REG			( * ( ( volatile uint32_t * ) 0xe000e014 ) )
  98:.\port.c      **** #define portNVIC_SYSTICK_CURRENT_VALUE_REG	( * ( ( volatile uint32_t * ) 0xe000e018 ) )
  99:.\port.c      **** #define portNVIC_SYSPRI2_REG				( * ( ( volatile uint32_t * ) 0xe000ed20 ) )
 100:.\port.c      **** /* ...then bits in the registers. */
 101:.\port.c      **** #define portNVIC_SYSTICK_INT_BIT			( 1UL << 1UL )
 102:.\port.c      **** #define portNVIC_SYSTICK_ENABLE_BIT			( 1UL << 0UL )
 103:.\port.c      **** #define portNVIC_SYSTICK_COUNT_FLAG_BIT		( 1UL << 16UL )
 104:.\port.c      **** #define portNVIC_PENDSVCLEAR_BIT 			( 1UL << 27UL )
 105:.\port.c      **** #define portNVIC_PEND_SYSTICK_CLEAR_BIT		( 1UL << 25UL )
 106:.\port.c      **** 
 107:.\port.c      **** #define portNVIC_PENDSV_PRI					( ( ( uint32_t ) configKERNEL_INTERRUPT_PRIORITY ) << 16UL )
 108:.\port.c      **** #define portNVIC_SYSTICK_PRI				( ( ( uint32_t ) configKERNEL_INTERRUPT_PRIORITY ) << 24UL )
 109:.\port.c      **** 
 110:.\port.c      **** /* Constants required to check the validity of an interrupt priority. */
 111:.\port.c      **** #define portFIRST_USER_INTERRUPT_NUMBER		( 16 )
 112:.\port.c      **** #define portNVIC_IP_REGISTERS_OFFSET_16 	( 0xE000E3F0 )
 113:.\port.c      **** #define portAIRCR_REG						( * ( ( volatile uint32_t * ) 0xE000ED0C ) )
 114:.\port.c      **** #define portMAX_8_BIT_VALUE					( ( uint8_t ) 0xff )
 115:.\port.c      **** #define portTOP_BIT_OF_BYTE					( ( uint8_t ) 0x80 )
 116:.\port.c      **** #define portMAX_PRIGROUP_BITS				( ( uint8_t ) 7 )
 117:.\port.c      **** #define portPRIORITY_GROUP_MASK				( 0x07UL << 8UL )
 118:.\port.c      **** #define portPRIGROUP_SHIFT					( 8UL )
 119:.\port.c      **** 
 120:.\port.c      **** /* Masks off all bits but the VECTACTIVE bits in the ICSR register. */
 121:.\port.c      **** #define portVECTACTIVE_MASK					( 0xFFUL )
 122:.\port.c      **** 
 123:.\port.c      **** /* Constants required to set up the initial stack. */
 124:.\port.c      **** #define portINITIAL_XPSR					( 0x01000000UL )
 125:.\port.c      **** 
 126:.\port.c      **** /* The systick is a 24-bit counter. */
 127:.\port.c      **** #define portMAX_24_BIT_NUMBER				( 0xffffffUL )
 128:.\port.c      **** 
 129:.\port.c      **** /* A fiddle factor to estimate the number of SysTick counts that would have
 130:.\port.c      **** occurred while the SysTick counter is stopped during tickless idle
 131:.\port.c      **** calculations. */
 132:.\port.c      **** #define portMISSED_COUNTS_FACTOR			( 45UL )
 133:.\port.c      **** 
 134:.\port.c      **** /* Let the user override the pre-loading of the initial LR with the address of
 135:.\port.c      **** prvTaskExitError() in case is messes up unwinding of the stack in the
 136:.\port.c      **** debugger. */
 137:.\port.c      **** #ifdef configTASK_RETURN_ADDRESS
 138:.\port.c      **** 	#define portTASK_RETURN_ADDRESS	configTASK_RETURN_ADDRESS
 139:.\port.c      **** #else
 140:.\port.c      **** 	#define portTASK_RETURN_ADDRESS	prvTaskExitError
 141:.\port.c      **** #endif
 142:.\port.c      **** 
 143:.\port.c      **** /* Each task maintains its own interrupt status in the critical nesting
 144:.\port.c      **** variable. */
 145:.\port.c      **** static UBaseType_t uxCriticalNesting = 0xaaaaaaaa;
 146:.\port.c      **** 
ARM GAS  C:\Users\mjphi\AppData\Local\Temp\ccX0K9FN.s 			page 4


 147:.\port.c      **** /*
 148:.\port.c      ****  * Setup the timer to generate the tick interrupts.  The implementation in this
 149:.\port.c      ****  * file is weak to allow application writers to change the timer used to
 150:.\port.c      ****  * generate the tick interrupt.
 151:.\port.c      ****  */
 152:.\port.c      **** void vPortSetupTimerInterrupt( void );
 153:.\port.c      **** 
 154:.\port.c      **** /*
 155:.\port.c      ****  * Exception handlers.
 156:.\port.c      ****  */
 157:.\port.c      **** void xPortPendSVHandler( void ) __attribute__ (( naked ));
 158:.\port.c      **** void xPortSysTickHandler( void );
 159:.\port.c      **** void vPortSVCHandler( void ) __attribute__ (( naked ));
 160:.\port.c      **** 
 161:.\port.c      **** /*
 162:.\port.c      ****  * Start first task is a separate function so it can be tested in isolation.
 163:.\port.c      ****  */
 164:.\port.c      **** static void prvPortStartFirstTask( void ) __attribute__ (( naked ));
 165:.\port.c      **** 
 166:.\port.c      **** /*
 167:.\port.c      ****  * Used to catch tasks that attempt to return from their implementing function.
 168:.\port.c      ****  */
 169:.\port.c      **** static void prvTaskExitError( void );
 170:.\port.c      **** 
 171:.\port.c      **** /*-----------------------------------------------------------*/
 172:.\port.c      **** 
 173:.\port.c      **** /*
 174:.\port.c      ****  * The number of SysTick increments that make up one tick period.
 175:.\port.c      ****  */
 176:.\port.c      **** #if configUSE_TICKLESS_IDLE == 1
 177:.\port.c      **** 	static uint32_t ulTimerCountsForOneTick = 0;
 178:.\port.c      **** #endif /* configUSE_TICKLESS_IDLE */
 179:.\port.c      **** 
 180:.\port.c      **** /*
 181:.\port.c      ****  * The maximum number of tick periods that can be suppressed is limited by the
 182:.\port.c      ****  * 24 bit resolution of the SysTick timer.
 183:.\port.c      ****  */
 184:.\port.c      **** #if configUSE_TICKLESS_IDLE == 1
 185:.\port.c      **** 	static uint32_t xMaximumPossibleSuppressedTicks = 0;
 186:.\port.c      **** #endif /* configUSE_TICKLESS_IDLE */
 187:.\port.c      **** 
 188:.\port.c      **** /*
 189:.\port.c      ****  * Compensate for the CPU cycles that pass while the SysTick is stopped (low
 190:.\port.c      ****  * power functionality only.
 191:.\port.c      ****  */
 192:.\port.c      **** #if configUSE_TICKLESS_IDLE == 1
 193:.\port.c      **** 	static uint32_t ulStoppedTimerCompensation = 0;
 194:.\port.c      **** #endif /* configUSE_TICKLESS_IDLE */
 195:.\port.c      **** 
 196:.\port.c      **** /*
 197:.\port.c      ****  * Used by the portASSERT_IF_INTERRUPT_PRIORITY_INVALID() macro to ensure
 198:.\port.c      ****  * FreeRTOS API functions are not called from interrupts that have been assigned
 199:.\port.c      ****  * a priority above configMAX_SYSCALL_INTERRUPT_PRIORITY.
 200:.\port.c      ****  */
 201:.\port.c      **** #if ( configASSERT_DEFINED == 1 )
 202:.\port.c      **** 	 static uint8_t ucMaxSysCallPriority = 0;
 203:.\port.c      **** 	 static uint32_t ulMaxPRIGROUPValue = 0;
ARM GAS  C:\Users\mjphi\AppData\Local\Temp\ccX0K9FN.s 			page 5


 204:.\port.c      **** 	 static const volatile uint8_t * const pcInterruptPriorityRegisters = ( const volatile uint8_t * c
 205:.\port.c      **** #endif /* configASSERT_DEFINED */
 206:.\port.c      **** 
 207:.\port.c      **** /*-----------------------------------------------------------*/
 208:.\port.c      **** 
 209:.\port.c      **** /*
 210:.\port.c      ****  * See header file for description.
 211:.\port.c      ****  */
 212:.\port.c      **** StackType_t *pxPortInitialiseStack( StackType_t *pxTopOfStack, TaskFunction_t pxCode, void *pvParam
 213:.\port.c      **** {
 214:.\port.c      **** 	/* Simulate the stack frame as it would be created by a context switch
 215:.\port.c      **** 	interrupt. */
 216:.\port.c      **** 	pxTopOfStack--; /* Offset added to account for the way the MCU uses the stack on entry/exit of int
 217:.\port.c      **** 	*pxTopOfStack = portINITIAL_XPSR;	/* xPSR */
 218:.\port.c      **** 	pxTopOfStack--;
 219:.\port.c      **** 	*pxTopOfStack = ( StackType_t ) pxCode;	/* PC */
 220:.\port.c      **** 	pxTopOfStack--;
 221:.\port.c      **** 	*pxTopOfStack = ( StackType_t ) portTASK_RETURN_ADDRESS;	/* LR */
 222:.\port.c      **** 	pxTopOfStack -= 5;	/* R12, R3, R2 and R1. */
 223:.\port.c      **** 	*pxTopOfStack = ( StackType_t ) pvParameters;	/* R0 */
 224:.\port.c      **** 	pxTopOfStack -= 8;	/* R11, R10, R9, R8, R7, R6, R5 and R4. */
 225:.\port.c      **** 
 226:.\port.c      **** 	return pxTopOfStack;
 227:.\port.c      **** }
 228:.\port.c      **** /*-----------------------------------------------------------*/
 229:.\port.c      **** 
 230:.\port.c      **** static void prvTaskExitError( void )
 231:.\port.c      **** {
 232:.\port.c      **** 	/* A function that implements a task must not exit or attempt to return to
 233:.\port.c      **** 	its caller as there is nothing to return to.  If a task wants to exit it
 234:.\port.c      **** 	should instead call vTaskDelete( NULL ).
 235:.\port.c      **** 
 236:.\port.c      **** 	Artificially force an assert() to be triggered if configASSERT() is
 237:.\port.c      **** 	defined, then stop here so application writers can catch the error. */
 238:.\port.c      **** 	configASSERT( uxCriticalNesting == ~0UL );
 239:.\port.c      **** 	portDISABLE_INTERRUPTS();
 240:.\port.c      **** 	for( ;; );
 241:.\port.c      **** }
 242:.\port.c      **** /*-----------------------------------------------------------*/
 243:.\port.c      **** 
 244:.\port.c      **** void vPortSVCHandler( void )
 245:.\port.c      **** {
 246:.\port.c      **** 	__asm volatile (
 247:.\port.c      **** 					"	ldr	r3, pxCurrentTCBConst2		\n" /* Restore the context. */
 248:.\port.c      **** 					"	ldr r1, [r3]					\n" /* Use pxCurrentTCBConst to get the pxCurrentTCB address. */
 249:.\port.c      **** 					"	ldr r0, [r1]					\n" /* The first item in pxCurrentTCB is the task top of stack. */
 250:.\port.c      **** 					"	ldmia r0!, {r4-r11}				\n" /* Pop the registers that are not automatically saved on exceptio
 251:.\port.c      **** 					"	msr psp, r0						\n" /* Restore the task stack pointer. */
 252:.\port.c      **** 					"	isb								\n"
 253:.\port.c      **** 					"	mov r0, #0 						\n"
 254:.\port.c      **** 					"	msr	basepri, r0					\n"
 255:.\port.c      **** 					"	orr r14, #0xd					\n"
 256:.\port.c      **** 					"	bx r14							\n"
 257:.\port.c      **** 					"									\n"
 258:.\port.c      **** 					"	.align 2						\n"
 259:.\port.c      **** 					"pxCurrentTCBConst2: .word pxCurrentTCB				\n"
 260:.\port.c      **** 				);
ARM GAS  C:\Users\mjphi\AppData\Local\Temp\ccX0K9FN.s 			page 6


 261:.\port.c      **** }
 262:.\port.c      **** /*-----------------------------------------------------------*/
 263:.\port.c      **** 
 264:.\port.c      **** static void prvPortStartFirstTask( void )
 265:.\port.c      **** {
  26              		.loc 1 265 0
  27              		.cfi_startproc
  28              		@ Naked Function: prologue and epilogue provided by programmer.
  29              		@ args = 0, pretend = 0, frame = 0
  30              		@ frame_needed = 0, uses_anonymous_args = 0
 266:.\port.c      **** 	__asm volatile(
  31              		.loc 1 266 0
  32              	@ 266 ".\port.c" 1
  33 0000 0648     		 ldr r0, =0xE000ED08 	
  34 0002 0068     	 ldr r0, [r0] 			
  35 0004 0068     	 ldr r0, [r0] 			
  36 0006 80F30888 	 msr msp, r0			
  37 000a 62B6     	 cpsie i				
  38 000c 61B6     	 cpsie f				
  39 000e BFF34F8F 	 dsb					
  40 0012 BFF36F8F 	 isb					
  41 0016 00DF     	 svc 0					
  42 0018 00BF     	 nop					
  43              	
  44              	@ 0 "" 2
 267:.\port.c      **** 					" ldr r0, =0xE000ED08 	\n" /* Use the NVIC offset register to locate the stack. */
 268:.\port.c      **** 					" ldr r0, [r0] 			\n"
 269:.\port.c      **** 					" ldr r0, [r0] 			\n"
 270:.\port.c      **** 					" msr msp, r0			\n" /* Set the msp back to the start of the stack. */
 271:.\port.c      **** 					" cpsie i				\n" /* Globally enable interrupts. */
 272:.\port.c      **** 					" cpsie f				\n"
 273:.\port.c      **** 					" dsb					\n"
 274:.\port.c      **** 					" isb					\n"
 275:.\port.c      **** 					" svc 0					\n" /* System call to start first task. */
 276:.\port.c      **** 					" nop					\n"
 277:.\port.c      **** 				);
 278:.\port.c      **** }
  45              		.loc 1 278 0
  46              		.thumb
  47              		.cfi_endproc
  48              	.LFE67:
  49              		.size	prvPortStartFirstTask, .-prvPortStartFirstTask
  50 001a 0000     		.section	.text.pxPortInitialiseStack,"ax",%progbits
  51              		.align	1
  52              		.global	pxPortInitialiseStack
  53              		.thumb
  54              		.thumb_func
  55              		.type	pxPortInitialiseStack, %function
  56              	pxPortInitialiseStack:
  57              	.LFB64:
 213:.\port.c      **** 	/* Simulate the stack frame as it would be created by a context switch
  58              		.loc 1 213 0
  59              		.cfi_startproc
  60              		@ args = 0, pretend = 0, frame = 0
  61              		@ frame_needed = 0, uses_anonymous_args = 0
  62              		@ link register save eliminated.
  63              	.LVL0:
ARM GAS  C:\Users\mjphi\AppData\Local\Temp\ccX0K9FN.s 			page 7


 217:.\port.c      **** 	pxTopOfStack--;
  64              		.loc 1 217 0
  65 0000 4FF08073 		mov	r3, #16777216
 219:.\port.c      **** 	pxTopOfStack--;
  66              		.loc 1 219 0
  67 0004 00E90A00 		stmdb	r0, {r1, r3}
  68              	.LVL1:
 221:.\port.c      **** 	pxTopOfStack -= 5;	/* R12, R3, R2 and R1. */
  69              		.loc 1 221 0
  70 0008 034B     		ldr	r3, .L3
 223:.\port.c      **** 	pxTopOfStack -= 8;	/* R11, R10, R9, R8, R7, R6, R5 and R4. */
  71              		.loc 1 223 0
  72 000a 40F8202C 		str	r2, [r0, #-32]
 221:.\port.c      **** 	pxTopOfStack -= 5;	/* R12, R3, R2 and R1. */
  73              		.loc 1 221 0
  74 000e 40F80C3C 		str	r3, [r0, #-12]
  75              	.LVL2:
 227:.\port.c      **** /*-----------------------------------------------------------*/
  76              		.loc 1 227 0
  77 0012 4038     		subs	r0, r0, #64
  78              	.LVL3:
  79 0014 7047     		bx	lr
  80              	.L4:
  81 0016 00BF     		.align	2
  82              	.L3:
  83 0018 00000000 		.word	prvTaskExitError
  84              		.cfi_endproc
  85              	.LFE64:
  86              		.size	pxPortInitialiseStack, .-pxPortInitialiseStack
  87              		.section	.text.vPortSVCHandler,"ax",%progbits
  88              		.align	1
  89              		.global	vPortSVCHandler
  90              		.thumb
  91              		.thumb_func
  92              		.type	vPortSVCHandler, %function
  93              	vPortSVCHandler:
  94              	.LFB66:
 245:.\port.c      **** 	__asm volatile (
  95              		.loc 1 245 0
  96              		.cfi_startproc
  97              		@ Naked Function: prologue and epilogue provided by programmer.
  98              		@ args = 0, pretend = 0, frame = 0
  99              		@ frame_needed = 0, uses_anonymous_args = 0
 246:.\port.c      **** 					"	ldr	r3, pxCurrentTCBConst2		\n" /* Restore the context. */
 100              		.loc 1 246 0
 101              	@ 246 ".\port.c" 1
 102 0000 074B     			ldr	r3, pxCurrentTCBConst2		
 103 0002 1968     		ldr r1, [r3]					
 104 0004 0868     		ldr r0, [r1]					
 105 0006 B0E8F00F 		ldmia r0!, {r4-r11}				
 106 000a 80F30988 		msr psp, r0						
 107 000e BFF36F8F 		isb								
 108 0012 4FF00000 		mov r0, #0 						
 109 0016 80F31188 		msr	basepri, r0					
 110 001a 4EF00D0E 		orr r14, #0xd					
 111 001e 7047     		bx r14							
 112              										
ARM GAS  C:\Users\mjphi\AppData\Local\Temp\ccX0K9FN.s 			page 8


 113              		.align 2						
 114 0020 00000000 	pxCurrentTCBConst2: .word pxCurrentTCB				
 115              	
 116              	@ 0 "" 2
 261:.\port.c      **** /*-----------------------------------------------------------*/
 117              		.loc 1 261 0
 118              		.thumb
 119              		.cfi_endproc
 120              	.LFE66:
 121              		.size	vPortSVCHandler, .-vPortSVCHandler
 122              		.section	.text.vPortEndScheduler,"ax",%progbits
 123              		.align	1
 124              		.global	vPortEndScheduler
 125              		.thumb
 126              		.thumb_func
 127              		.type	vPortEndScheduler, %function
 128              	vPortEndScheduler:
 129              	.LFB69:
 279:.\port.c      **** /*-----------------------------------------------------------*/
 280:.\port.c      **** 
 281:.\port.c      **** /*
 282:.\port.c      ****  * See header file for description.
 283:.\port.c      ****  */
 284:.\port.c      **** BaseType_t xPortStartScheduler( void )
 285:.\port.c      **** {
 286:.\port.c      **** 	/* configMAX_SYSCALL_INTERRUPT_PRIORITY must not be set to 0.
 287:.\port.c      **** 	See http://www.FreeRTOS.org/RTOS-Cortex-M3-M4.html */
 288:.\port.c      **** 	configASSERT( configMAX_SYSCALL_INTERRUPT_PRIORITY );
 289:.\port.c      **** 
 290:.\port.c      **** 	#if( configASSERT_DEFINED == 1 )
 291:.\port.c      **** 	{
 292:.\port.c      **** 		volatile uint32_t ulOriginalPriority;
 293:.\port.c      **** 		volatile uint8_t * const pucFirstUserPriorityRegister = ( volatile uint8_t * const ) ( portNVIC_I
 294:.\port.c      **** 		volatile uint8_t ucMaxPriorityValue;
 295:.\port.c      **** 
 296:.\port.c      **** 		/* Determine the maximum priority from which ISR safe FreeRTOS API
 297:.\port.c      **** 		functions can be called.  ISR safe functions are those that end in
 298:.\port.c      **** 		"FromISR".  FreeRTOS maintains separate thread and ISR API functions to
 299:.\port.c      **** 		ensure interrupt entry is as fast and simple as possible.
 300:.\port.c      **** 
 301:.\port.c      **** 		Save the interrupt priority value that is about to be clobbered. */
 302:.\port.c      **** 		ulOriginalPriority = *pucFirstUserPriorityRegister;
 303:.\port.c      **** 
 304:.\port.c      **** 		/* Determine the number of priority bits available.  First write to all
 305:.\port.c      **** 		possible bits. */
 306:.\port.c      **** 		*pucFirstUserPriorityRegister = portMAX_8_BIT_VALUE;
 307:.\port.c      **** 
 308:.\port.c      **** 		/* Read the value back to see how many bits stuck. */
 309:.\port.c      **** 		ucMaxPriorityValue = *pucFirstUserPriorityRegister;
 310:.\port.c      **** 
 311:.\port.c      **** 		/* Use the same mask on the maximum system call priority. */
 312:.\port.c      **** 		ucMaxSysCallPriority = configMAX_SYSCALL_INTERRUPT_PRIORITY & ucMaxPriorityValue;
 313:.\port.c      **** 
 314:.\port.c      **** 		/* Calculate the maximum acceptable priority group value for the number
 315:.\port.c      **** 		of bits read back. */
 316:.\port.c      **** 		ulMaxPRIGROUPValue = portMAX_PRIGROUP_BITS;
 317:.\port.c      **** 		while( ( ucMaxPriorityValue & portTOP_BIT_OF_BYTE ) == portTOP_BIT_OF_BYTE )
ARM GAS  C:\Users\mjphi\AppData\Local\Temp\ccX0K9FN.s 			page 9


 318:.\port.c      **** 		{
 319:.\port.c      **** 			ulMaxPRIGROUPValue--;
 320:.\port.c      **** 			ucMaxPriorityValue <<= ( uint8_t ) 0x01;
 321:.\port.c      **** 		}
 322:.\port.c      **** 
 323:.\port.c      **** 		/* Shift the priority group value back to its position within the AIRCR
 324:.\port.c      **** 		register. */
 325:.\port.c      **** 		ulMaxPRIGROUPValue <<= portPRIGROUP_SHIFT;
 326:.\port.c      **** 		ulMaxPRIGROUPValue &= portPRIORITY_GROUP_MASK;
 327:.\port.c      **** 
 328:.\port.c      **** 		/* Restore the clobbered interrupt priority register to its original
 329:.\port.c      **** 		value. */
 330:.\port.c      **** 		*pucFirstUserPriorityRegister = ulOriginalPriority;
 331:.\port.c      **** 	}
 332:.\port.c      **** 	#endif /* conifgASSERT_DEFINED */
 333:.\port.c      **** 
 334:.\port.c      **** 	/* Make PendSV and SysTick the lowest priority interrupts. */
 335:.\port.c      **** 	portNVIC_SYSPRI2_REG |= portNVIC_PENDSV_PRI;
 336:.\port.c      **** 	portNVIC_SYSPRI2_REG |= portNVIC_SYSTICK_PRI;
 337:.\port.c      **** 
 338:.\port.c      **** 	/* Start the timer that generates the tick ISR.  Interrupts are disabled
 339:.\port.c      **** 	here already. */
 340:.\port.c      **** 	vPortSetupTimerInterrupt();
 341:.\port.c      **** 
 342:.\port.c      **** 	/* Initialise the critical nesting count ready for the first task. */
 343:.\port.c      **** 	uxCriticalNesting = 0;
 344:.\port.c      **** 
 345:.\port.c      **** 	/* Start the first task. */
 346:.\port.c      **** 	prvPortStartFirstTask();
 347:.\port.c      **** 
 348:.\port.c      **** 	/* Should never get here as the tasks will now be executing!  Call the task
 349:.\port.c      **** 	exit error function to prevent compiler warnings about a static function
 350:.\port.c      **** 	not being called in the case that the application writer overrides this
 351:.\port.c      **** 	functionality by defining configTASK_RETURN_ADDRESS. */
 352:.\port.c      **** 	prvTaskExitError();
 353:.\port.c      **** 
 354:.\port.c      **** 	/* Should not get here! */
 355:.\port.c      **** 	return 0;
 356:.\port.c      **** }
 357:.\port.c      **** /*-----------------------------------------------------------*/
 358:.\port.c      **** 
 359:.\port.c      **** void vPortEndScheduler( void )
 360:.\port.c      **** {
 130              		.loc 1 360 0
 131              		.cfi_startproc
 132              		@ args = 0, pretend = 0, frame = 0
 133              		@ frame_needed = 0, uses_anonymous_args = 0
 134              		@ link register save eliminated.
 135 0000 7047     		bx	lr
 136              		.cfi_endproc
 137              	.LFE69:
 138              		.size	vPortEndScheduler, .-vPortEndScheduler
 139              		.section	.text.vPortYield,"ax",%progbits
 140              		.align	1
 141              		.global	vPortYield
 142              		.thumb
 143              		.thumb_func
ARM GAS  C:\Users\mjphi\AppData\Local\Temp\ccX0K9FN.s 			page 10


 144              		.type	vPortYield, %function
 145              	vPortYield:
 146              	.LFB70:
 361:.\port.c      **** 	/* Not implemented in ports where there is nothing to return to.
 362:.\port.c      **** 	Artificially force an assert. */
 363:.\port.c      **** 	configASSERT( uxCriticalNesting == 1000UL );
 364:.\port.c      **** }
 365:.\port.c      **** /*-----------------------------------------------------------*/
 366:.\port.c      **** 
 367:.\port.c      **** void vPortYield( void )
 368:.\port.c      **** {
 147              		.loc 1 368 0
 148              		.cfi_startproc
 149              		@ args = 0, pretend = 0, frame = 0
 150              		@ frame_needed = 0, uses_anonymous_args = 0
 151              		@ link register save eliminated.
 369:.\port.c      **** 	/* Set a PendSV to request a context switch. */
 370:.\port.c      **** 	portNVIC_INT_CTRL_REG = portNVIC_PENDSVSET_BIT;
 152              		.loc 1 370 0
 153 0000 044B     		ldr	r3, .L8
 154 0002 4FF08052 		mov	r2, #268435456
 155 0006 1A60     		str	r2, [r3]
 371:.\port.c      **** 
 372:.\port.c      **** 	/* Barriers are normally not required but do ensure the code is completely
 373:.\port.c      **** 	within the specified behaviour for the architecture. */
 374:.\port.c      **** 	__asm volatile( "dsb" );
 156              		.loc 1 374 0
 157              	@ 374 ".\port.c" 1
 158 0008 BFF34F8F 		dsb
 159              	@ 0 "" 2
 375:.\port.c      **** 	__asm volatile( "isb" );
 160              		.loc 1 375 0
 161              	@ 375 ".\port.c" 1
 162 000c BFF36F8F 		isb
 163              	@ 0 "" 2
 164              		.thumb
 165 0010 7047     		bx	lr
 166              	.L9:
 167 0012 00BF     		.align	2
 168              	.L8:
 169 0014 04ED00E0 		.word	-536810236
 170              		.cfi_endproc
 171              	.LFE70:
 172              		.size	vPortYield, .-vPortYield
 173              		.section	.text.ulPortSetInterruptMask,"ax",%progbits
 174              		.align	1
 175              		.global	ulPortSetInterruptMask
 176              		.thumb
 177              		.thumb_func
 178              		.type	ulPortSetInterruptMask, %function
 179              	ulPortSetInterruptMask:
 180              	.LFB73:
 376:.\port.c      **** }
 377:.\port.c      **** /*-----------------------------------------------------------*/
 378:.\port.c      **** 
 379:.\port.c      **** void vPortEnterCritical( void )
 380:.\port.c      **** {
ARM GAS  C:\Users\mjphi\AppData\Local\Temp\ccX0K9FN.s 			page 11


 381:.\port.c      **** 	portDISABLE_INTERRUPTS();
 382:.\port.c      **** 	uxCriticalNesting++;
 383:.\port.c      **** 	__asm volatile( "dsb" );
 384:.\port.c      **** 	__asm volatile( "isb" );
 385:.\port.c      **** 	
 386:.\port.c      **** 	/* This is not the interrupt safe version of the enter critical function so
 387:.\port.c      **** 	assert() if it is being called from an interrupt context.  Only API 
 388:.\port.c      **** 	functions that end in "FromISR" can be used in an interrupt.  Only assert if
 389:.\port.c      **** 	the critical nesting count is 1 to protect against recursive calls if the
 390:.\port.c      **** 	assert function also uses a critical section. */
 391:.\port.c      **** 	if( uxCriticalNesting == 1 )
 392:.\port.c      **** 	{
 393:.\port.c      **** 		configASSERT( ( portNVIC_INT_CTRL_REG & portVECTACTIVE_MASK ) == 0 );
 394:.\port.c      **** 	}
 395:.\port.c      **** }
 396:.\port.c      **** /*-----------------------------------------------------------*/
 397:.\port.c      **** 
 398:.\port.c      **** void vPortExitCritical( void )
 399:.\port.c      **** {
 400:.\port.c      **** 	configASSERT( uxCriticalNesting );
 401:.\port.c      **** 	uxCriticalNesting--;
 402:.\port.c      **** 	if( uxCriticalNesting == 0 )
 403:.\port.c      **** 	{
 404:.\port.c      **** 		portENABLE_INTERRUPTS();
 405:.\port.c      **** 	}
 406:.\port.c      **** }
 407:.\port.c      **** /*-----------------------------------------------------------*/
 408:.\port.c      **** 
 409:.\port.c      **** __attribute__(( naked )) uint32_t ulPortSetInterruptMask( void )
 410:.\port.c      **** {
 181              		.loc 1 410 0
 182              		.cfi_startproc
 183              		@ Naked Function: prologue and epilogue provided by programmer.
 184              		@ args = 0, pretend = 0, frame = 0
 185              		@ frame_needed = 0, uses_anonymous_args = 0
 411:.\port.c      **** 	__asm volatile														\
 186              		.loc 1 411 0
 187              	@ 411 ".\port.c" 1
 188 0000 EFF31180 			mrs r0, basepri											
 189 0004 4FF0A001 		mov r1, #160												
 190 0008 81F31188 		msr basepri, r1											
 191 000c 7047     		bx lr													
 192              	
 193              	@ 0 "" 2
 412:.\port.c      **** 	(																	\
 413:.\port.c      **** 		"	mrs r0, basepri											\n" \
 414:.\port.c      **** 		"	mov r1, %0												\n"	\
 415:.\port.c      **** 		"	msr basepri, r1											\n" \
 416:.\port.c      **** 		"	bx lr													\n" \
 417:.\port.c      **** 		:: "i" ( configMAX_SYSCALL_INTERRUPT_PRIORITY ) : "r0", "r1"	\
 418:.\port.c      **** 	);
 419:.\port.c      **** 
 420:.\port.c      **** 	/* This return will not be reached but is necessary to prevent compiler
 421:.\port.c      **** 	warnings. */
 422:.\port.c      **** 	return 0;
 423:.\port.c      **** }
 194              		.loc 1 423 0
ARM GAS  C:\Users\mjphi\AppData\Local\Temp\ccX0K9FN.s 			page 12


 195              		.thumb
 196 000e 0020     		movs	r0, #0
 197              		.cfi_endproc
 198              	.LFE73:
 199              		.size	ulPortSetInterruptMask, .-ulPortSetInterruptMask
 200              		.section	.text.prvTaskExitError,"ax",%progbits
 201              		.align	1
 202              		.thumb
 203              		.thumb_func
 204              		.type	prvTaskExitError, %function
 205              	prvTaskExitError:
 206              	.LFB65:
 231:.\port.c      **** 	/* A function that implements a task must not exit or attempt to return to
 207              		.loc 1 231 0
 208              		.cfi_startproc
 209              		@ Volatile: function does not return.
 210              		@ args = 0, pretend = 0, frame = 0
 211              		@ frame_needed = 0, uses_anonymous_args = 0
 212 0000 08B5     		push	{r3, lr}
 213              		.cfi_def_cfa_offset 8
 214              		.cfi_offset 3, -8
 215              		.cfi_offset 14, -4
 239:.\port.c      **** 	for( ;; );
 216              		.loc 1 239 0
 217 0002 FFF7FEFF 		bl	ulPortSetInterruptMask
 218              	.LVL4:
 219              	.L12:
 240:.\port.c      **** }
 220              		.loc 1 240 0 discriminator 1
 221 0006 FEE7     		b	.L12
 222              		.cfi_endproc
 223              	.LFE65:
 224              		.size	prvTaskExitError, .-prvTaskExitError
 225              		.section	.text.vPortEnterCritical,"ax",%progbits
 226              		.align	1
 227              		.global	vPortEnterCritical
 228              		.thumb
 229              		.thumb_func
 230              		.type	vPortEnterCritical, %function
 231              	vPortEnterCritical:
 232              	.LFB71:
 380:.\port.c      **** 	portDISABLE_INTERRUPTS();
 233              		.loc 1 380 0
 234              		.cfi_startproc
 235              		@ args = 0, pretend = 0, frame = 0
 236              		@ frame_needed = 0, uses_anonymous_args = 0
 237 0000 08B5     		push	{r3, lr}
 238              		.cfi_def_cfa_offset 8
 239              		.cfi_offset 3, -8
 240              		.cfi_offset 14, -4
 381:.\port.c      **** 	uxCriticalNesting++;
 241              		.loc 1 381 0
 242 0002 FFF7FEFF 		bl	ulPortSetInterruptMask
 243              	.LVL5:
 382:.\port.c      **** 	__asm volatile( "dsb" );
 244              		.loc 1 382 0
 245 0006 044A     		ldr	r2, .L15
ARM GAS  C:\Users\mjphi\AppData\Local\Temp\ccX0K9FN.s 			page 13


 246 0008 1368     		ldr	r3, [r2]
 247 000a 0133     		adds	r3, r3, #1
 248 000c 1360     		str	r3, [r2]
 383:.\port.c      **** 	__asm volatile( "isb" );
 249              		.loc 1 383 0
 250              	@ 383 ".\port.c" 1
 251 000e BFF34F8F 		dsb
 252              	@ 0 "" 2
 384:.\port.c      **** 	
 253              		.loc 1 384 0
 254              	@ 384 ".\port.c" 1
 255 0012 BFF36F8F 		isb
 256              	@ 0 "" 2
 257              		.thumb
 258 0016 08BD     		pop	{r3, pc}
 259              	.L16:
 260              		.align	2
 261              	.L15:
 262 0018 00000000 		.word	.LANCHOR0
 263              		.cfi_endproc
 264              	.LFE71:
 265              		.size	vPortEnterCritical, .-vPortEnterCritical
 266              		.section	.text.vPortClearInterruptMask,"ax",%progbits
 267              		.align	1
 268              		.global	vPortClearInterruptMask
 269              		.thumb
 270              		.thumb_func
 271              		.type	vPortClearInterruptMask, %function
 272              	vPortClearInterruptMask:
 273              	.LFB74:
 424:.\port.c      **** /*-----------------------------------------------------------*/
 425:.\port.c      **** 
 426:.\port.c      **** __attribute__(( naked )) void vPortClearInterruptMask( uint32_t ulNewMaskValue )
 427:.\port.c      **** {
 274              		.loc 1 427 0
 275              		.cfi_startproc
 276              		@ Naked Function: prologue and epilogue provided by programmer.
 277              		@ args = 0, pretend = 0, frame = 0
 278              		@ frame_needed = 0, uses_anonymous_args = 0
 279              	.LVL6:
 428:.\port.c      **** 	__asm volatile													\
 280              		.loc 1 428 0
 281              	@ 428 ".\port.c" 1
 282 0000 80F31188 			msr basepri, r0										
 283 0004 7047     		bx lr												
 284              	
 285              	@ 0 "" 2
 286              	.LVL7:
 429:.\port.c      **** 	(																\
 430:.\port.c      **** 		"	msr basepri, r0										\n"	\
 431:.\port.c      **** 		"	bx lr												\n" \
 432:.\port.c      **** 		:::"r0"														\
 433:.\port.c      **** 	);
 434:.\port.c      **** 
 435:.\port.c      **** 	/* Just to avoid compiler warnings. */
 436:.\port.c      **** 	( void ) ulNewMaskValue;
 437:.\port.c      **** }
ARM GAS  C:\Users\mjphi\AppData\Local\Temp\ccX0K9FN.s 			page 14


 287              		.loc 1 437 0
 288              		.thumb
 289              		.cfi_endproc
 290              	.LFE74:
 291              		.size	vPortClearInterruptMask, .-vPortClearInterruptMask
 292              		.section	.text.vPortExitCritical,"ax",%progbits
 293              		.align	1
 294              		.global	vPortExitCritical
 295              		.thumb
 296              		.thumb_func
 297              		.type	vPortExitCritical, %function
 298              	vPortExitCritical:
 299              	.LFB72:
 399:.\port.c      **** 	configASSERT( uxCriticalNesting );
 300              		.loc 1 399 0
 301              		.cfi_startproc
 302              		@ args = 0, pretend = 0, frame = 0
 303              		@ frame_needed = 0, uses_anonymous_args = 0
 304              		@ link register save eliminated.
 401:.\port.c      **** 	if( uxCriticalNesting == 0 )
 305              		.loc 1 401 0
 306 0000 034B     		ldr	r3, .L20
 307 0002 1868     		ldr	r0, [r3]
 308 0004 0138     		subs	r0, r0, #1
 309 0006 1860     		str	r0, [r3]
 402:.\port.c      **** 	{
 310              		.loc 1 402 0
 311 0008 08B9     		cbnz	r0, .L18
 404:.\port.c      **** 	}
 312              		.loc 1 404 0
 313 000a FFF7FEBF 		b	vPortClearInterruptMask
 314              	.LVL8:
 315              	.L18:
 316 000e 7047     		bx	lr
 317              	.L21:
 318              		.align	2
 319              	.L20:
 320 0010 00000000 		.word	.LANCHOR0
 321              		.cfi_endproc
 322              	.LFE72:
 323              		.size	vPortExitCritical, .-vPortExitCritical
 324              		.section	.text.xPortPendSVHandler,"ax",%progbits
 325              		.align	1
 326              		.global	xPortPendSVHandler
 327              		.thumb
 328              		.thumb_func
 329              		.type	xPortPendSVHandler, %function
 330              	xPortPendSVHandler:
 331              	.LFB75:
 438:.\port.c      **** /*-----------------------------------------------------------*/
 439:.\port.c      **** 
 440:.\port.c      **** void xPortPendSVHandler( void )
 441:.\port.c      **** {
 332              		.loc 1 441 0
 333              		.cfi_startproc
 334              		@ Naked Function: prologue and epilogue provided by programmer.
 335              		@ args = 0, pretend = 0, frame = 0
ARM GAS  C:\Users\mjphi\AppData\Local\Temp\ccX0K9FN.s 			page 15


 336              		@ frame_needed = 0, uses_anonymous_args = 0
 442:.\port.c      **** 	/* This is a naked function. */
 443:.\port.c      **** 
 444:.\port.c      **** 	__asm volatile
 337              		.loc 1 444 0
 338              	@ 444 ".\port.c" 1
 339 0000 EFF30980 			mrs r0, psp							
 340 0004 BFF36F8F 		isb									
 341              											
 342 0008 0D4B     		ldr	r3, pxCurrentTCBConst			
 343 000a 1A68     		ldr	r2, [r3]						
 344              											
 345 000c 20E9F00F 		stmdb r0!, {r4-r11}					
 346 0010 1060     		str r0, [r2]						
 347              											
 348 0012 2DE90840 		stmdb sp!, {r3, r14}				
 349 0016 4FF0A000 		mov r0, #160							
 350 001a 80F31188 		msr basepri, r0						
 351 001e FFF7FEFF 		bl vTaskSwitchContext				
 352 0022 4FF00000 		mov r0, #0							
 353 0026 80F31188 		msr basepri, r0						
 354 002a BDE80840 		ldmia sp!, {r3, r14}				
 355              											
 356 002e 1968     		ldr r1, [r3]						
 357 0030 0868     		ldr r0, [r1]						
 358 0032 B0E8F00F 		ldmia r0!, {r4-r11}					
 359 0036 80F30988 		msr psp, r0							
 360 003a BFF36F8F 		isb									
 361 003e 7047     		bx r14								
 362              											
 363              		.align 2							
 364 0040 00000000 	pxCurrentTCBConst: .word pxCurrentTCB	
 365              	
 366              	@ 0 "" 2
 445:.\port.c      **** 	(
 446:.\port.c      **** 	"	mrs r0, psp							\n"
 447:.\port.c      **** 	"	isb									\n"
 448:.\port.c      **** 	"										\n"
 449:.\port.c      **** 	"	ldr	r3, pxCurrentTCBConst			\n" /* Get the location of the current TCB. */
 450:.\port.c      **** 	"	ldr	r2, [r3]						\n"
 451:.\port.c      **** 	"										\n"
 452:.\port.c      **** 	"	stmdb r0!, {r4-r11}					\n" /* Save the remaining registers. */
 453:.\port.c      **** 	"	str r0, [r2]						\n" /* Save the new top of stack into the first member of the TCB. */
 454:.\port.c      **** 	"										\n"
 455:.\port.c      **** 	"	stmdb sp!, {r3, r14}				\n"
 456:.\port.c      **** 	"	mov r0, %0							\n"
 457:.\port.c      **** 	"	msr basepri, r0						\n"
 458:.\port.c      **** 	"	bl vTaskSwitchContext				\n"
 459:.\port.c      **** 	"	mov r0, #0							\n"
 460:.\port.c      **** 	"	msr basepri, r0						\n"
 461:.\port.c      **** 	"	ldmia sp!, {r3, r14}				\n"
 462:.\port.c      **** 	"										\n"	/* Restore the context, including the critical nesting count. */
 463:.\port.c      **** 	"	ldr r1, [r3]						\n"
 464:.\port.c      **** 	"	ldr r0, [r1]						\n" /* The first item in pxCurrentTCB is the task top of stack. */
 465:.\port.c      **** 	"	ldmia r0!, {r4-r11}					\n" /* Pop the registers. */
 466:.\port.c      **** 	"	msr psp, r0							\n"
 467:.\port.c      **** 	"	isb									\n"
ARM GAS  C:\Users\mjphi\AppData\Local\Temp\ccX0K9FN.s 			page 16


 468:.\port.c      **** 	"	bx r14								\n"
 469:.\port.c      **** 	"										\n"
 470:.\port.c      **** 	"	.align 2							\n"
 471:.\port.c      **** 	"pxCurrentTCBConst: .word pxCurrentTCB	\n"
 472:.\port.c      **** 	::"i"(configMAX_SYSCALL_INTERRUPT_PRIORITY)
 473:.\port.c      **** 	);
 474:.\port.c      **** }
 367              		.loc 1 474 0
 368              		.thumb
 369              		.cfi_endproc
 370              	.LFE75:
 371              		.size	xPortPendSVHandler, .-xPortPendSVHandler
 372              		.section	.text.xPortSysTickHandler,"ax",%progbits
 373              		.align	1
 374              		.global	xPortSysTickHandler
 375              		.thumb
 376              		.thumb_func
 377              		.type	xPortSysTickHandler, %function
 378              	xPortSysTickHandler:
 379              	.LFB76:
 475:.\port.c      **** /*-----------------------------------------------------------*/
 476:.\port.c      **** 
 477:.\port.c      **** void xPortSysTickHandler( void )
 478:.\port.c      **** {
 380              		.loc 1 478 0
 381              		.cfi_startproc
 382              		@ args = 0, pretend = 0, frame = 0
 383              		@ frame_needed = 0, uses_anonymous_args = 0
 384 0000 08B5     		push	{r3, lr}
 385              		.cfi_def_cfa_offset 8
 386              		.cfi_offset 3, -8
 387              		.cfi_offset 14, -4
 479:.\port.c      **** 	/* The SysTick runs at the lowest interrupt priority, so when this interrupt
 480:.\port.c      **** 	executes all interrupts must be unmasked.  There is therefore no need to
 481:.\port.c      **** 	save and then restore the interrupt mask value as its value is already
 482:.\port.c      **** 	known. */
 483:.\port.c      **** 	( void ) portSET_INTERRUPT_MASK_FROM_ISR();
 388              		.loc 1 483 0
 389 0002 FFF7FEFF 		bl	ulPortSetInterruptMask
 390              	.LVL9:
 484:.\port.c      **** 	{
 485:.\port.c      **** 		/* Increment the RTOS tick. */
 486:.\port.c      **** 		if( xTaskIncrementTick() != pdFALSE )
 391              		.loc 1 486 0
 392 0006 FFF7FEFF 		bl	xTaskIncrementTick
 393              	.LVL10:
 394 000a 18B1     		cbz	r0, .L24
 487:.\port.c      **** 		{
 488:.\port.c      **** 			/* A context switch is required.  Context switching is performed in
 489:.\port.c      **** 			the PendSV interrupt.  Pend the PendSV interrupt. */
 490:.\port.c      **** 			portNVIC_INT_CTRL_REG = portNVIC_PENDSVSET_BIT;
 395              		.loc 1 490 0
 396 000c 044B     		ldr	r3, .L28
 397 000e 4FF08052 		mov	r2, #268435456
 398 0012 1A60     		str	r2, [r3]
 399              	.L24:
 491:.\port.c      **** 		}
ARM GAS  C:\Users\mjphi\AppData\Local\Temp\ccX0K9FN.s 			page 17


 492:.\port.c      **** 	}
 493:.\port.c      **** 	portCLEAR_INTERRUPT_MASK_FROM_ISR( 0 );
 400              		.loc 1 493 0
 401 0014 0020     		movs	r0, #0
 494:.\port.c      **** }
 402              		.loc 1 494 0
 403 0016 BDE80840 		pop	{r3, lr}
 404              		.cfi_restore 14
 405              		.cfi_restore 3
 406              		.cfi_def_cfa_offset 0
 493:.\port.c      **** }
 407              		.loc 1 493 0
 408 001a FFF7FEBF 		b	vPortClearInterruptMask
 409              	.LVL11:
 410              	.L29:
 411 001e 00BF     		.align	2
 412              	.L28:
 413 0020 04ED00E0 		.word	-536810236
 414              		.cfi_endproc
 415              	.LFE76:
 416              		.size	xPortSysTickHandler, .-xPortSysTickHandler
 417              		.section	.text.vPortSetupTimerInterrupt,"ax",%progbits
 418              		.align	1
 419              		.weak	vPortSetupTimerInterrupt
 420              		.thumb
 421              		.thumb_func
 422              		.type	vPortSetupTimerInterrupt, %function
 423              	vPortSetupTimerInterrupt:
 424              	.LFB77:
 495:.\port.c      **** /*-----------------------------------------------------------*/
 496:.\port.c      **** 
 497:.\port.c      **** #if configUSE_TICKLESS_IDLE == 1
 498:.\port.c      **** 
 499:.\port.c      **** 	__attribute__((weak)) void vPortSuppressTicksAndSleep( TickType_t xExpectedIdleTime )
 500:.\port.c      **** 	{
 501:.\port.c      **** 	uint32_t ulReloadValue, ulCompleteTickPeriods, ulCompletedSysTickDecrements, ulSysTickCTRL;
 502:.\port.c      **** 	TickType_t xModifiableIdleTime;
 503:.\port.c      **** 
 504:.\port.c      **** 		/* Make sure the SysTick reload value does not overflow the counter. */
 505:.\port.c      **** 		if( xExpectedIdleTime > xMaximumPossibleSuppressedTicks )
 506:.\port.c      **** 		{
 507:.\port.c      **** 			xExpectedIdleTime = xMaximumPossibleSuppressedTicks;
 508:.\port.c      **** 		}
 509:.\port.c      **** 
 510:.\port.c      **** 		/* Stop the SysTick momentarily.  The time the SysTick is stopped for
 511:.\port.c      **** 		is accounted for as best it can be, but using the tickless mode will
 512:.\port.c      **** 		inevitably result in some tiny drift of the time maintained by the
 513:.\port.c      **** 		kernel with respect to calendar time. */
 514:.\port.c      **** 		portNVIC_SYSTICK_CTRL_REG &= ~portNVIC_SYSTICK_ENABLE_BIT;
 515:.\port.c      **** 
 516:.\port.c      **** 		/* Calculate the reload value required to wait xExpectedIdleTime
 517:.\port.c      **** 		tick periods.  -1 is used because this code will execute part way
 518:.\port.c      **** 		through one of the tick periods. */
 519:.\port.c      **** 		ulReloadValue = portNVIC_SYSTICK_CURRENT_VALUE_REG + ( ulTimerCountsForOneTick * ( xExpectedIdleT
 520:.\port.c      **** 		if( ulReloadValue > ulStoppedTimerCompensation )
 521:.\port.c      **** 		{
 522:.\port.c      **** 			ulReloadValue -= ulStoppedTimerCompensation;
ARM GAS  C:\Users\mjphi\AppData\Local\Temp\ccX0K9FN.s 			page 18


 523:.\port.c      **** 		}
 524:.\port.c      **** 
 525:.\port.c      **** 		/* Enter a critical section but don't use the taskENTER_CRITICAL()
 526:.\port.c      **** 		method as that will mask interrupts that should exit sleep mode. */
 527:.\port.c      **** 		__asm volatile( "cpsid i" );
 528:.\port.c      **** 
 529:.\port.c      **** 		/* If a context switch is pending or a task is waiting for the scheduler
 530:.\port.c      **** 		to be unsuspended then abandon the low power entry. */
 531:.\port.c      **** 		if( eTaskConfirmSleepModeStatus() == eAbortSleep )
 532:.\port.c      **** 		{
 533:.\port.c      **** 			/* Restart from whatever is left in the count register to complete
 534:.\port.c      **** 			this tick period. */
 535:.\port.c      **** 			portNVIC_SYSTICK_LOAD_REG = portNVIC_SYSTICK_CURRENT_VALUE_REG;
 536:.\port.c      **** 
 537:.\port.c      **** 			/* Restart SysTick. */
 538:.\port.c      **** 			portNVIC_SYSTICK_CTRL_REG |= portNVIC_SYSTICK_ENABLE_BIT;
 539:.\port.c      **** 
 540:.\port.c      **** 			/* Reset the reload register to the value required for normal tick
 541:.\port.c      **** 			periods. */
 542:.\port.c      **** 			portNVIC_SYSTICK_LOAD_REG = ulTimerCountsForOneTick - 1UL;
 543:.\port.c      **** 
 544:.\port.c      **** 			/* Re-enable interrupts - see comments above the cpsid instruction()
 545:.\port.c      **** 			above. */
 546:.\port.c      **** 			__asm volatile( "cpsie i" );
 547:.\port.c      **** 		}
 548:.\port.c      **** 		else
 549:.\port.c      **** 		{
 550:.\port.c      **** 			/* Set the new reload value. */
 551:.\port.c      **** 			portNVIC_SYSTICK_LOAD_REG = ulReloadValue;
 552:.\port.c      **** 
 553:.\port.c      **** 			/* Clear the SysTick count flag and set the count value back to
 554:.\port.c      **** 			zero. */
 555:.\port.c      **** 			portNVIC_SYSTICK_CURRENT_VALUE_REG = 0UL;
 556:.\port.c      **** 
 557:.\port.c      **** 			/* Restart SysTick. */
 558:.\port.c      **** 			portNVIC_SYSTICK_CTRL_REG |= portNVIC_SYSTICK_ENABLE_BIT;
 559:.\port.c      **** 
 560:.\port.c      **** 			/* Sleep until something happens.  configPRE_SLEEP_PROCESSING() can
 561:.\port.c      **** 			set its parameter to 0 to indicate that its implementation contains
 562:.\port.c      **** 			its own wait for interrupt or wait for event instruction, and so wfi
 563:.\port.c      **** 			should not be executed again.  However, the original expected idle
 564:.\port.c      **** 			time variable must remain unmodified, so a copy is taken. */
 565:.\port.c      **** 			xModifiableIdleTime = xExpectedIdleTime;
 566:.\port.c      **** 			configPRE_SLEEP_PROCESSING( xModifiableIdleTime );
 567:.\port.c      **** 			if( xModifiableIdleTime > 0 )
 568:.\port.c      **** 			{
 569:.\port.c      **** 				__asm volatile( "dsb" );
 570:.\port.c      **** 				__asm volatile( "wfi" );
 571:.\port.c      **** 				__asm volatile( "isb" );
 572:.\port.c      **** 			}
 573:.\port.c      **** 			configPOST_SLEEP_PROCESSING( xExpectedIdleTime );
 574:.\port.c      **** 
 575:.\port.c      **** 			/* Stop SysTick.  Again, the time the SysTick is stopped for is
 576:.\port.c      **** 			accounted for as best it can be, but using the tickless mode will
 577:.\port.c      **** 			inevitably result in some tiny drift of the time maintained by the
 578:.\port.c      **** 			kernel with respect to calendar time. */
 579:.\port.c      **** 			ulSysTickCTRL = portNVIC_SYSTICK_CTRL_REG;
ARM GAS  C:\Users\mjphi\AppData\Local\Temp\ccX0K9FN.s 			page 19


 580:.\port.c      **** 			portNVIC_SYSTICK_CTRL_REG = ( ulSysTickCTRL & ~portNVIC_SYSTICK_ENABLE_BIT );
 581:.\port.c      **** 
 582:.\port.c      **** 			/* Re-enable interrupts - see comments above the cpsid instruction()
 583:.\port.c      **** 			above. */
 584:.\port.c      **** 			__asm volatile( "cpsie i" );
 585:.\port.c      **** 
 586:.\port.c      **** 			if( ( ulSysTickCTRL & portNVIC_SYSTICK_COUNT_FLAG_BIT ) != 0 )
 587:.\port.c      **** 			{
 588:.\port.c      **** 				uint32_t ulCalculatedLoadValue;
 589:.\port.c      **** 
 590:.\port.c      **** 				/* The tick interrupt has already executed, and the SysTick
 591:.\port.c      **** 				count reloaded with ulReloadValue.  Reset the
 592:.\port.c      **** 				portNVIC_SYSTICK_LOAD_REG with whatever remains of this tick
 593:.\port.c      **** 				period. */
 594:.\port.c      **** 				ulCalculatedLoadValue = ( ulTimerCountsForOneTick - 1UL ) - ( ulReloadValue - portNVIC_SYSTICK_
 595:.\port.c      **** 
 596:.\port.c      **** 				/* Don't allow a tiny value, or values that have somehow
 597:.\port.c      **** 				underflowed because the post sleep hook did something
 598:.\port.c      **** 				that took too long. */
 599:.\port.c      **** 				if( ( ulCalculatedLoadValue < ulStoppedTimerCompensation ) || ( ulCalculatedLoadValue > ulTimer
 600:.\port.c      **** 				{
 601:.\port.c      **** 					ulCalculatedLoadValue = ( ulTimerCountsForOneTick - 1UL );
 602:.\port.c      **** 				}
 603:.\port.c      **** 
 604:.\port.c      **** 				portNVIC_SYSTICK_LOAD_REG = ulCalculatedLoadValue;
 605:.\port.c      **** 
 606:.\port.c      **** 				/* The tick interrupt handler will already have pended the tick
 607:.\port.c      **** 				processing in the kernel.  As the pending tick will be
 608:.\port.c      **** 				processed as soon as this function exits, the tick value
 609:.\port.c      **** 				maintained by the tick is stepped forward by one less than the
 610:.\port.c      **** 				time spent waiting. */
 611:.\port.c      **** 				ulCompleteTickPeriods = xExpectedIdleTime - 1UL;
 612:.\port.c      **** 			}
 613:.\port.c      **** 			else
 614:.\port.c      **** 			{
 615:.\port.c      **** 				/* Something other than the tick interrupt ended the sleep.
 616:.\port.c      **** 				Work out how long the sleep lasted rounded to complete tick
 617:.\port.c      **** 				periods (not the ulReload value which accounted for part
 618:.\port.c      **** 				ticks). */
 619:.\port.c      **** 				ulCompletedSysTickDecrements = ( xExpectedIdleTime * ulTimerCountsForOneTick ) - portNVIC_SYSTI
 620:.\port.c      **** 
 621:.\port.c      **** 				/* How many complete tick periods passed while the processor
 622:.\port.c      **** 				was waiting? */
 623:.\port.c      **** 				ulCompleteTickPeriods = ulCompletedSysTickDecrements / ulTimerCountsForOneTick;
 624:.\port.c      **** 
 625:.\port.c      **** 				/* The reload value is set to whatever fraction of a single tick
 626:.\port.c      **** 				period remains. */
 627:.\port.c      **** 				portNVIC_SYSTICK_LOAD_REG = ( ( ulCompleteTickPeriods + 1 ) * ulTimerCountsForOneTick ) - ulCom
 628:.\port.c      **** 			}
 629:.\port.c      **** 
 630:.\port.c      **** 			/* Restart SysTick so it runs from portNVIC_SYSTICK_LOAD_REG
 631:.\port.c      **** 			again, then set portNVIC_SYSTICK_LOAD_REG back to its standard
 632:.\port.c      **** 			value.  The critical section is used to ensure the tick interrupt
 633:.\port.c      **** 			can only execute once in the case that the reload register is near
 634:.\port.c      **** 			zero. */
 635:.\port.c      **** 			portNVIC_SYSTICK_CURRENT_VALUE_REG = 0UL;
 636:.\port.c      **** 			portENTER_CRITICAL();
ARM GAS  C:\Users\mjphi\AppData\Local\Temp\ccX0K9FN.s 			page 20


 637:.\port.c      **** 			{
 638:.\port.c      **** 				portNVIC_SYSTICK_CTRL_REG |= portNVIC_SYSTICK_ENABLE_BIT;
 639:.\port.c      **** 				vTaskStepTick( ulCompleteTickPeriods );
 640:.\port.c      **** 				portNVIC_SYSTICK_LOAD_REG = ulTimerCountsForOneTick - 1UL;
 641:.\port.c      **** 			}
 642:.\port.c      **** 			portEXIT_CRITICAL();
 643:.\port.c      **** 		}
 644:.\port.c      **** 	}
 645:.\port.c      **** 
 646:.\port.c      **** #endif /* #if configUSE_TICKLESS_IDLE */
 647:.\port.c      **** /*-----------------------------------------------------------*/
 648:.\port.c      **** 
 649:.\port.c      **** /*
 650:.\port.c      ****  * Setup the systick timer to generate the tick interrupts at the required
 651:.\port.c      ****  * frequency.
 652:.\port.c      ****  */
 653:.\port.c      **** __attribute__(( weak )) void vPortSetupTimerInterrupt( void )
 654:.\port.c      **** {
 425              		.loc 1 654 0
 426              		.cfi_startproc
 427              		@ args = 0, pretend = 0, frame = 0
 428              		@ frame_needed = 0, uses_anonymous_args = 0
 429              		@ link register save eliminated.
 655:.\port.c      **** 	/* Calculate the constants required to configure the tick interrupt. */
 656:.\port.c      **** 	#if configUSE_TICKLESS_IDLE == 1
 657:.\port.c      **** 	{
 658:.\port.c      **** 		ulTimerCountsForOneTick = ( configSYSTICK_CLOCK_HZ / configTICK_RATE_HZ );
 659:.\port.c      **** 		xMaximumPossibleSuppressedTicks = portMAX_24_BIT_NUMBER / ulTimerCountsForOneTick;
 660:.\port.c      **** 		ulStoppedTimerCompensation = portMISSED_COUNTS_FACTOR / ( configCPU_CLOCK_HZ / configSYSTICK_CLOC
 661:.\port.c      **** 	}
 662:.\port.c      **** 	#endif /* configUSE_TICKLESS_IDLE */
 663:.\port.c      **** 
 664:.\port.c      **** 	/* Configure SysTick to interrupt at the requested rate. */
 665:.\port.c      **** 	portNVIC_SYSTICK_LOAD_REG = ( configSYSTICK_CLOCK_HZ / configTICK_RATE_HZ ) - 1UL;
 430              		.loc 1 665 0
 431 0000 45F6BF52 		movw	r2, #23999
 432 0004 024B     		ldr	r3, .L31
 433 0006 1A60     		str	r2, [r3]
 666:.\port.c      **** 	portNVIC_SYSTICK_CTRL_REG = ( portNVIC_SYSTICK_CLK_BIT | portNVIC_SYSTICK_INT_BIT | portNVIC_SYSTI
 434              		.loc 1 666 0
 435 0008 0722     		movs	r2, #7
 436 000a 43F8042C 		str	r2, [r3, #-4]
 437 000e 7047     		bx	lr
 438              	.L32:
 439              		.align	2
 440              	.L31:
 441 0010 14E000E0 		.word	-536813548
 442              		.cfi_endproc
 443              	.LFE77:
 444              		.size	vPortSetupTimerInterrupt, .-vPortSetupTimerInterrupt
 445              		.section	.text.xPortStartScheduler,"ax",%progbits
 446              		.align	1
 447              		.global	xPortStartScheduler
 448              		.thumb
 449              		.thumb_func
 450              		.type	xPortStartScheduler, %function
 451              	xPortStartScheduler:
ARM GAS  C:\Users\mjphi\AppData\Local\Temp\ccX0K9FN.s 			page 21


 452              	.LFB68:
 285:.\port.c      **** 	/* configMAX_SYSCALL_INTERRUPT_PRIORITY must not be set to 0.
 453              		.loc 1 285 0
 454              		.cfi_startproc
 455              		@ Volatile: function does not return.
 456              		@ args = 0, pretend = 0, frame = 0
 457              		@ frame_needed = 0, uses_anonymous_args = 0
 458 0000 08B5     		push	{r3, lr}
 459              		.cfi_def_cfa_offset 8
 460              		.cfi_offset 3, -8
 461              		.cfi_offset 14, -4
 335:.\port.c      **** 	portNVIC_SYSPRI2_REG |= portNVIC_SYSTICK_PRI;
 462              		.loc 1 335 0
 463 0002 094B     		ldr	r3, .L35
 464 0004 1A68     		ldr	r2, [r3]
 465 0006 42F46002 		orr	r2, r2, #14680064
 466 000a 1A60     		str	r2, [r3]
 336:.\port.c      **** 
 467              		.loc 1 336 0
 468 000c 1A68     		ldr	r2, [r3]
 469 000e 42F06042 		orr	r2, r2, #-536870912
 470 0012 1A60     		str	r2, [r3]
 340:.\port.c      **** 
 471              		.loc 1 340 0
 472 0014 FFF7FEFF 		bl	vPortSetupTimerInterrupt
 473              	.LVL12:
 343:.\port.c      **** 
 474              		.loc 1 343 0
 475 0018 044B     		ldr	r3, .L35+4
 476 001a 0022     		movs	r2, #0
 477 001c 1A60     		str	r2, [r3]
 346:.\port.c      **** 
 478              		.loc 1 346 0
 479 001e FFF7FEFF 		bl	prvPortStartFirstTask
 480              	.LVL13:
 481              	.LBB4:
 482              	.LBB5:
 239:.\port.c      **** 	for( ;; );
 483              		.loc 1 239 0
 484 0022 FFF7FEFF 		bl	ulPortSetInterruptMask
 485              	.LVL14:
 486              	.L34:
 487 0026 FEE7     		b	.L34
 488              	.L36:
 489              		.align	2
 490              	.L35:
 491 0028 20ED00E0 		.word	-536810208
 492 002c 00000000 		.word	.LANCHOR0
 493              	.LBE5:
 494              	.LBE4:
 495              		.cfi_endproc
 496              	.LFE68:
 497              		.size	xPortStartScheduler, .-xPortStartScheduler
 498              		.data
 499              		.align	2
 500              		.set	.LANCHOR0,. + 0
 501              		.type	uxCriticalNesting, %object
ARM GAS  C:\Users\mjphi\AppData\Local\Temp\ccX0K9FN.s 			page 22


 502              		.size	uxCriticalNesting, 4
 503              	uxCriticalNesting:
 504 0000 AAAAAAAA 		.word	-1431655766
 505              		.text
 506              	.Letext0:
 507              		.file 2 "c:\\program files (x86)\\cypress\\psoc creator\\3.3\\psoc creator\\import\\gnu\\arm\\4.9.
 508              		.file 3 "c:\\program files (x86)\\cypress\\psoc creator\\3.3\\psoc creator\\import\\gnu\\arm\\4.9.
 509              		.file 4 ".\\projdefs.h"
 510              		.file 5 ".\\portmacro.h"
 511              		.file 6 "Generated_Source\\PSoC5/core_cm3.h"
 512              		.file 7 ".\\task.h"
