ARM GAS  C:\Users\mjphi\AppData\Local\Temp\ccvER7eg.s 			page 1


   1              		.syntax unified
   2              		.cpu cortex-m3
   3              		.fpu softvfp
   4              		.eabi_attribute 20, 1
   5              		.eabi_attribute 21, 1
   6              		.eabi_attribute 23, 3
   7              		.eabi_attribute 24, 1
   8              		.eabi_attribute 25, 1
   9              		.eabi_attribute 26, 1
  10              		.eabi_attribute 30, 4
  11              		.eabi_attribute 34, 1
  12              		.eabi_attribute 18, 4
  13              		.thumb
  14              		.file	"cyfitter_cfg.c"
  15              		.text
  16              	.Ltext0:
  17              		.cfi_sections	.debug_frame
  18              		.section	.text.SetAnalogRoutingPumps,"ax",%progbits
  19              		.align	1
  20              		.global	SetAnalogRoutingPumps
  21              		.thumb
  22              		.thumb_func
  23              		.type	SetAnalogRoutingPumps, %function
  24              	SetAnalogRoutingPumps:
  25              	.LFB7:
  26              		.file 1 ".\\Generated_Source\\PSoC5\\cyfitter_cfg.c"
   1:.\Generated_Source\PSoC5/cyfitter_cfg.c **** /*******************************************************************************
   2:.\Generated_Source\PSoC5/cyfitter_cfg.c **** * File Name: cyfitter_cfg.c
   3:.\Generated_Source\PSoC5/cyfitter_cfg.c **** * 
   4:.\Generated_Source\PSoC5/cyfitter_cfg.c **** * PSoC Creator  3.3 CP1
   5:.\Generated_Source\PSoC5/cyfitter_cfg.c **** *
   6:.\Generated_Source\PSoC5/cyfitter_cfg.c **** * Description:
   7:.\Generated_Source\PSoC5/cyfitter_cfg.c **** * This file contains device initialization code.
   8:.\Generated_Source\PSoC5/cyfitter_cfg.c **** * Except for the user defined sections in CyClockStartupError(), this file should not be modified.
   9:.\Generated_Source\PSoC5/cyfitter_cfg.c **** * This file is automatically generated by PSoC Creator.
  10:.\Generated_Source\PSoC5/cyfitter_cfg.c **** *
  11:.\Generated_Source\PSoC5/cyfitter_cfg.c **** ********************************************************************************
  12:.\Generated_Source\PSoC5/cyfitter_cfg.c **** * Copyright (c) 2007-2015 Cypress Semiconductor.  All rights reserved.
  13:.\Generated_Source\PSoC5/cyfitter_cfg.c **** * You may use this file only in accordance with the license, terms, conditions, 
  14:.\Generated_Source\PSoC5/cyfitter_cfg.c **** * disclaimers, and limitations in the end user license agreement accompanying 
  15:.\Generated_Source\PSoC5/cyfitter_cfg.c **** * the software package with which this file was provided.
  16:.\Generated_Source\PSoC5/cyfitter_cfg.c **** ********************************************************************************/
  17:.\Generated_Source\PSoC5/cyfitter_cfg.c **** 
  18:.\Generated_Source\PSoC5/cyfitter_cfg.c **** #include <string.h>
  19:.\Generated_Source\PSoC5/cyfitter_cfg.c **** #include "cytypes.h"
  20:.\Generated_Source\PSoC5/cyfitter_cfg.c **** #include "cydevice_trm.h"
  21:.\Generated_Source\PSoC5/cyfitter_cfg.c **** #include "cyfitter.h"
  22:.\Generated_Source\PSoC5/cyfitter_cfg.c **** #include "CyLib.h"
  23:.\Generated_Source\PSoC5/cyfitter_cfg.c **** #include "cyfitter_cfg.h"
  24:.\Generated_Source\PSoC5/cyfitter_cfg.c **** 
  25:.\Generated_Source\PSoC5/cyfitter_cfg.c **** #define CY_NEED_CYCLOCKSTARTUPERROR 1
  26:.\Generated_Source\PSoC5/cyfitter_cfg.c **** 
  27:.\Generated_Source\PSoC5/cyfitter_cfg.c **** 
  28:.\Generated_Source\PSoC5/cyfitter_cfg.c **** #if defined(__GNUC__) || defined(__ARMCC_VERSION)
  29:.\Generated_Source\PSoC5/cyfitter_cfg.c ****     #define CYPACKED 
  30:.\Generated_Source\PSoC5/cyfitter_cfg.c ****     #define CYPACKED_ATTR __attribute__ ((packed))
  31:.\Generated_Source\PSoC5/cyfitter_cfg.c ****     #define CYALIGNED __attribute__ ((aligned))
ARM GAS  C:\Users\mjphi\AppData\Local\Temp\ccvER7eg.s 			page 2


  32:.\Generated_Source\PSoC5/cyfitter_cfg.c ****     #define CY_CFG_UNUSED __attribute__ ((unused))
  33:.\Generated_Source\PSoC5/cyfitter_cfg.c ****     #define CY_CFG_SECTION __attribute__ ((section(".psocinit")))
  34:.\Generated_Source\PSoC5/cyfitter_cfg.c ****     
  35:.\Generated_Source\PSoC5/cyfitter_cfg.c ****     #if defined(__ARMCC_VERSION)
  36:.\Generated_Source\PSoC5/cyfitter_cfg.c ****         #define CY_CFG_MEMORY_BARRIER() __memory_changed()
  37:.\Generated_Source\PSoC5/cyfitter_cfg.c ****     #else
  38:.\Generated_Source\PSoC5/cyfitter_cfg.c ****         #define CY_CFG_MEMORY_BARRIER() __sync_synchronize()
  39:.\Generated_Source\PSoC5/cyfitter_cfg.c ****     #endif
  40:.\Generated_Source\PSoC5/cyfitter_cfg.c ****     
  41:.\Generated_Source\PSoC5/cyfitter_cfg.c **** #elif defined(__ICCARM__)
  42:.\Generated_Source\PSoC5/cyfitter_cfg.c ****     #include <intrinsics.h>
  43:.\Generated_Source\PSoC5/cyfitter_cfg.c **** 
  44:.\Generated_Source\PSoC5/cyfitter_cfg.c ****     #define CYPACKED __packed
  45:.\Generated_Source\PSoC5/cyfitter_cfg.c ****     #define CYPACKED_ATTR 
  46:.\Generated_Source\PSoC5/cyfitter_cfg.c ****     #define CYALIGNED _Pragma("data_alignment=4")
  47:.\Generated_Source\PSoC5/cyfitter_cfg.c ****     #define CY_CFG_UNUSED _Pragma("diag_suppress=Pe177")
  48:.\Generated_Source\PSoC5/cyfitter_cfg.c ****     #define CY_CFG_SECTION _Pragma("location=\".psocinit\"")
  49:.\Generated_Source\PSoC5/cyfitter_cfg.c ****     
  50:.\Generated_Source\PSoC5/cyfitter_cfg.c ****     #define CY_CFG_MEMORY_BARRIER() __DMB()
  51:.\Generated_Source\PSoC5/cyfitter_cfg.c ****     
  52:.\Generated_Source\PSoC5/cyfitter_cfg.c **** #else
  53:.\Generated_Source\PSoC5/cyfitter_cfg.c ****     #error Unsupported toolchain
  54:.\Generated_Source\PSoC5/cyfitter_cfg.c **** #endif
  55:.\Generated_Source\PSoC5/cyfitter_cfg.c **** 
  56:.\Generated_Source\PSoC5/cyfitter_cfg.c **** 
  57:.\Generated_Source\PSoC5/cyfitter_cfg.c **** CY_CFG_UNUSED
  58:.\Generated_Source\PSoC5/cyfitter_cfg.c **** static void CYMEMZERO(void *s, size_t n);
  59:.\Generated_Source\PSoC5/cyfitter_cfg.c **** CY_CFG_UNUSED
  60:.\Generated_Source\PSoC5/cyfitter_cfg.c **** static void CYMEMZERO(void *s, size_t n)
  61:.\Generated_Source\PSoC5/cyfitter_cfg.c **** {
  62:.\Generated_Source\PSoC5/cyfitter_cfg.c **** 	(void)memset(s, 0, n);
  63:.\Generated_Source\PSoC5/cyfitter_cfg.c **** }
  64:.\Generated_Source\PSoC5/cyfitter_cfg.c **** CY_CFG_UNUSED
  65:.\Generated_Source\PSoC5/cyfitter_cfg.c **** static void CYCONFIGCPY(void *dest, const void *src, size_t n);
  66:.\Generated_Source\PSoC5/cyfitter_cfg.c **** CY_CFG_UNUSED
  67:.\Generated_Source\PSoC5/cyfitter_cfg.c **** static void CYCONFIGCPY(void *dest, const void *src, size_t n)
  68:.\Generated_Source\PSoC5/cyfitter_cfg.c **** {
  69:.\Generated_Source\PSoC5/cyfitter_cfg.c **** 	(void)memcpy(dest, src, n);
  70:.\Generated_Source\PSoC5/cyfitter_cfg.c **** }
  71:.\Generated_Source\PSoC5/cyfitter_cfg.c **** CY_CFG_UNUSED
  72:.\Generated_Source\PSoC5/cyfitter_cfg.c **** static void CYCONFIGCPYCODE(void *dest, const void *src, size_t n);
  73:.\Generated_Source\PSoC5/cyfitter_cfg.c **** CY_CFG_UNUSED
  74:.\Generated_Source\PSoC5/cyfitter_cfg.c **** static void CYCONFIGCPYCODE(void *dest, const void *src, size_t n)
  75:.\Generated_Source\PSoC5/cyfitter_cfg.c **** {
  76:.\Generated_Source\PSoC5/cyfitter_cfg.c **** 	(void)memcpy(dest, src, n);
  77:.\Generated_Source\PSoC5/cyfitter_cfg.c **** }
  78:.\Generated_Source\PSoC5/cyfitter_cfg.c **** 
  79:.\Generated_Source\PSoC5/cyfitter_cfg.c **** 
  80:.\Generated_Source\PSoC5/cyfitter_cfg.c **** 
  81:.\Generated_Source\PSoC5/cyfitter_cfg.c **** /* Clock startup error codes                                                   */
  82:.\Generated_Source\PSoC5/cyfitter_cfg.c **** #define CYCLOCKSTART_NO_ERROR    0u
  83:.\Generated_Source\PSoC5/cyfitter_cfg.c **** #define CYCLOCKSTART_XTAL_ERROR  1u
  84:.\Generated_Source\PSoC5/cyfitter_cfg.c **** #define CYCLOCKSTART_32KHZ_ERROR 2u
  85:.\Generated_Source\PSoC5/cyfitter_cfg.c **** #define CYCLOCKSTART_PLL_ERROR   3u
  86:.\Generated_Source\PSoC5/cyfitter_cfg.c **** 
  87:.\Generated_Source\PSoC5/cyfitter_cfg.c **** #ifdef CY_NEED_CYCLOCKSTARTUPERROR
  88:.\Generated_Source\PSoC5/cyfitter_cfg.c **** /*******************************************************************************
ARM GAS  C:\Users\mjphi\AppData\Local\Temp\ccvER7eg.s 			page 3


  89:.\Generated_Source\PSoC5/cyfitter_cfg.c **** * Function Name: CyClockStartupError
  90:.\Generated_Source\PSoC5/cyfitter_cfg.c **** ********************************************************************************
  91:.\Generated_Source\PSoC5/cyfitter_cfg.c **** * Summary:
  92:.\Generated_Source\PSoC5/cyfitter_cfg.c **** *  If an error is encountered during clock configuration (crystal startup error,
  93:.\Generated_Source\PSoC5/cyfitter_cfg.c **** *  PLL lock error, etc.), the system will end up here.  Unless reimplemented by
  94:.\Generated_Source\PSoC5/cyfitter_cfg.c **** *  the customer, this function will stop in an infinite loop.
  95:.\Generated_Source\PSoC5/cyfitter_cfg.c **** *
  96:.\Generated_Source\PSoC5/cyfitter_cfg.c **** * Parameters:
  97:.\Generated_Source\PSoC5/cyfitter_cfg.c **** *   void
  98:.\Generated_Source\PSoC5/cyfitter_cfg.c **** *
  99:.\Generated_Source\PSoC5/cyfitter_cfg.c **** * Return:
 100:.\Generated_Source\PSoC5/cyfitter_cfg.c **** *   void
 101:.\Generated_Source\PSoC5/cyfitter_cfg.c **** *
 102:.\Generated_Source\PSoC5/cyfitter_cfg.c **** *******************************************************************************/
 103:.\Generated_Source\PSoC5/cyfitter_cfg.c **** CY_CFG_UNUSED
 104:.\Generated_Source\PSoC5/cyfitter_cfg.c **** static void CyClockStartupError(uint8 errorCode);
 105:.\Generated_Source\PSoC5/cyfitter_cfg.c **** CY_CFG_UNUSED
 106:.\Generated_Source\PSoC5/cyfitter_cfg.c **** static void CyClockStartupError(uint8 errorCode)
 107:.\Generated_Source\PSoC5/cyfitter_cfg.c **** {
 108:.\Generated_Source\PSoC5/cyfitter_cfg.c ****     /* To remove the compiler warning if errorCode not used.                */
 109:.\Generated_Source\PSoC5/cyfitter_cfg.c ****     errorCode = errorCode;
 110:.\Generated_Source\PSoC5/cyfitter_cfg.c **** 
 111:.\Generated_Source\PSoC5/cyfitter_cfg.c ****     /* `#START CyClockStartupError` */
 112:.\Generated_Source\PSoC5/cyfitter_cfg.c **** 
 113:.\Generated_Source\PSoC5/cyfitter_cfg.c ****     /* If we have a clock startup error (bad MHz crystal, PLL lock, etc.),  */
 114:.\Generated_Source\PSoC5/cyfitter_cfg.c ****     /* we will end up here to allow the customer to implement something to  */
 115:.\Generated_Source\PSoC5/cyfitter_cfg.c ****     /* deal with the clock condition.                                       */
 116:.\Generated_Source\PSoC5/cyfitter_cfg.c **** 
 117:.\Generated_Source\PSoC5/cyfitter_cfg.c ****     /* `#END` */
 118:.\Generated_Source\PSoC5/cyfitter_cfg.c **** 
 119:.\Generated_Source\PSoC5/cyfitter_cfg.c ****     /* If nothing else, stop here since the clocks have not started         */
 120:.\Generated_Source\PSoC5/cyfitter_cfg.c ****     /* correctly.                                                           */
 121:.\Generated_Source\PSoC5/cyfitter_cfg.c ****     while(1) {}
 122:.\Generated_Source\PSoC5/cyfitter_cfg.c **** }
 123:.\Generated_Source\PSoC5/cyfitter_cfg.c **** #endif
 124:.\Generated_Source\PSoC5/cyfitter_cfg.c **** 
 125:.\Generated_Source\PSoC5/cyfitter_cfg.c **** #define CY_CFG_BASE_ADDR_COUNT 1u
 126:.\Generated_Source\PSoC5/cyfitter_cfg.c **** CYPACKED typedef struct
 127:.\Generated_Source\PSoC5/cyfitter_cfg.c **** {
 128:.\Generated_Source\PSoC5/cyfitter_cfg.c **** 	uint8 offset;
 129:.\Generated_Source\PSoC5/cyfitter_cfg.c **** 	uint8 value;
 130:.\Generated_Source\PSoC5/cyfitter_cfg.c **** } CYPACKED_ATTR cy_cfg_addrvalue_t;
 131:.\Generated_Source\PSoC5/cyfitter_cfg.c **** 
 132:.\Generated_Source\PSoC5/cyfitter_cfg.c **** #define cy_cfg_addr_table ((const uint32 CYFAR *)0x48000000u)
 133:.\Generated_Source\PSoC5/cyfitter_cfg.c **** #define cy_cfg_data_table ((const cy_cfg_addrvalue_t CYFAR *)0x48000004u)
 134:.\Generated_Source\PSoC5/cyfitter_cfg.c **** 
 135:.\Generated_Source\PSoC5/cyfitter_cfg.c **** /* IOPINS0_7 Address: CYREG_PRT12_DR Size (bytes): 10 */
 136:.\Generated_Source\PSoC5/cyfitter_cfg.c **** #define BS_IOPINS0_7_VAL ((const uint8 CYFAR *)0x48000008u)
 137:.\Generated_Source\PSoC5/cyfitter_cfg.c **** 
 138:.\Generated_Source\PSoC5/cyfitter_cfg.c **** /* IOPINS0_2 Address: CYREG_PRT2_DM0 Size (bytes): 8 */
 139:.\Generated_Source\PSoC5/cyfitter_cfg.c **** #define BS_IOPINS0_2_VAL ((const uint8 CYFAR *)0x48000014u)
 140:.\Generated_Source\PSoC5/cyfitter_cfg.c **** 
 141:.\Generated_Source\PSoC5/cyfitter_cfg.c **** /* IOPINS0_6 Address: CYREG_PRT6_DR Size (bytes): 10 */
 142:.\Generated_Source\PSoC5/cyfitter_cfg.c **** #define BS_IOPINS0_6_VAL ((const uint8 CYFAR *)0x4800001Cu)
 143:.\Generated_Source\PSoC5/cyfitter_cfg.c **** 
 144:.\Generated_Source\PSoC5/cyfitter_cfg.c **** 
 145:.\Generated_Source\PSoC5/cyfitter_cfg.c **** /*******************************************************************************
ARM GAS  C:\Users\mjphi\AppData\Local\Temp\ccvER7eg.s 			page 4


 146:.\Generated_Source\PSoC5/cyfitter_cfg.c **** * Function Name: cfg_write_bytes32
 147:.\Generated_Source\PSoC5/cyfitter_cfg.c **** ********************************************************************************
 148:.\Generated_Source\PSoC5/cyfitter_cfg.c **** * Summary:
 149:.\Generated_Source\PSoC5/cyfitter_cfg.c **** *  This function is used for setting up the chip configuration areas that
 150:.\Generated_Source\PSoC5/cyfitter_cfg.c **** *  contain relatively sparse data.
 151:.\Generated_Source\PSoC5/cyfitter_cfg.c **** *
 152:.\Generated_Source\PSoC5/cyfitter_cfg.c **** * Parameters:
 153:.\Generated_Source\PSoC5/cyfitter_cfg.c **** *   void
 154:.\Generated_Source\PSoC5/cyfitter_cfg.c **** *
 155:.\Generated_Source\PSoC5/cyfitter_cfg.c **** * Return:
 156:.\Generated_Source\PSoC5/cyfitter_cfg.c **** *   void
 157:.\Generated_Source\PSoC5/cyfitter_cfg.c **** *
 158:.\Generated_Source\PSoC5/cyfitter_cfg.c **** *******************************************************************************/
 159:.\Generated_Source\PSoC5/cyfitter_cfg.c **** static void cfg_write_bytes32(const uint32 addr_table[], const cy_cfg_addrvalue_t data_table[]);
 160:.\Generated_Source\PSoC5/cyfitter_cfg.c **** static void cfg_write_bytes32(const uint32 addr_table[], const cy_cfg_addrvalue_t data_table[])
 161:.\Generated_Source\PSoC5/cyfitter_cfg.c **** {
 162:.\Generated_Source\PSoC5/cyfitter_cfg.c **** 	/* For 32-bit little-endian architectures */
 163:.\Generated_Source\PSoC5/cyfitter_cfg.c **** 	uint32 i, j = 0u;
 164:.\Generated_Source\PSoC5/cyfitter_cfg.c **** 	for (i = 0u; i < CY_CFG_BASE_ADDR_COUNT; i++)
 165:.\Generated_Source\PSoC5/cyfitter_cfg.c **** 	{
 166:.\Generated_Source\PSoC5/cyfitter_cfg.c **** 		uint32 baseAddr = addr_table[i];
 167:.\Generated_Source\PSoC5/cyfitter_cfg.c **** 		uint8 count = (uint8)baseAddr;
 168:.\Generated_Source\PSoC5/cyfitter_cfg.c **** 		baseAddr &= 0xFFFFFF00u;
 169:.\Generated_Source\PSoC5/cyfitter_cfg.c **** 		while (count != 0u)
 170:.\Generated_Source\PSoC5/cyfitter_cfg.c **** 		{
 171:.\Generated_Source\PSoC5/cyfitter_cfg.c **** 			CY_SET_XTND_REG8((void CYFAR *)(baseAddr + data_table[j].offset), data_table[j].value);
 172:.\Generated_Source\PSoC5/cyfitter_cfg.c **** 			j++;
 173:.\Generated_Source\PSoC5/cyfitter_cfg.c **** 			count--;
 174:.\Generated_Source\PSoC5/cyfitter_cfg.c **** 		}
 175:.\Generated_Source\PSoC5/cyfitter_cfg.c **** 	}
 176:.\Generated_Source\PSoC5/cyfitter_cfg.c **** }
 177:.\Generated_Source\PSoC5/cyfitter_cfg.c **** 
 178:.\Generated_Source\PSoC5/cyfitter_cfg.c **** /*******************************************************************************
 179:.\Generated_Source\PSoC5/cyfitter_cfg.c **** * Function Name: ClockSetup
 180:.\Generated_Source\PSoC5/cyfitter_cfg.c **** ********************************************************************************
 181:.\Generated_Source\PSoC5/cyfitter_cfg.c **** *
 182:.\Generated_Source\PSoC5/cyfitter_cfg.c **** * Summary:
 183:.\Generated_Source\PSoC5/cyfitter_cfg.c **** *  Performs the initialization of all of the clocks in the device based on the
 184:.\Generated_Source\PSoC5/cyfitter_cfg.c **** *  settings in the Clock tab of the DWR.  This includes enabling the requested
 185:.\Generated_Source\PSoC5/cyfitter_cfg.c **** *  clocks and setting the necessary dividers to produce the desired frequency. 
 186:.\Generated_Source\PSoC5/cyfitter_cfg.c **** *
 187:.\Generated_Source\PSoC5/cyfitter_cfg.c **** * Parameters:
 188:.\Generated_Source\PSoC5/cyfitter_cfg.c **** *  void
 189:.\Generated_Source\PSoC5/cyfitter_cfg.c **** *
 190:.\Generated_Source\PSoC5/cyfitter_cfg.c **** * Return:
 191:.\Generated_Source\PSoC5/cyfitter_cfg.c **** *  void
 192:.\Generated_Source\PSoC5/cyfitter_cfg.c **** *
 193:.\Generated_Source\PSoC5/cyfitter_cfg.c **** *******************************************************************************/
 194:.\Generated_Source\PSoC5/cyfitter_cfg.c **** static void ClockSetup(void);
 195:.\Generated_Source\PSoC5/cyfitter_cfg.c **** static void ClockSetup(void)
 196:.\Generated_Source\PSoC5/cyfitter_cfg.c **** {
 197:.\Generated_Source\PSoC5/cyfitter_cfg.c **** 	uint32 timeout;
 198:.\Generated_Source\PSoC5/cyfitter_cfg.c **** 	uint8 pllLock;
 199:.\Generated_Source\PSoC5/cyfitter_cfg.c **** 
 200:.\Generated_Source\PSoC5/cyfitter_cfg.c **** 
 201:.\Generated_Source\PSoC5/cyfitter_cfg.c **** 	/* Configure ILO based on settings from Clock DWR */
 202:.\Generated_Source\PSoC5/cyfitter_cfg.c **** 	CY_SET_XTND_REG8((void CYFAR *)(CYREG_SLOWCLK_ILO_CR0), 0x02u);
ARM GAS  C:\Users\mjphi\AppData\Local\Temp\ccvER7eg.s 			page 5


 203:.\Generated_Source\PSoC5/cyfitter_cfg.c **** 	CY_SET_XTND_REG8((void CYFAR *)(CYREG_CLKDIST_CR), 0x08u);
 204:.\Generated_Source\PSoC5/cyfitter_cfg.c **** 
 205:.\Generated_Source\PSoC5/cyfitter_cfg.c **** 	/* Configure IMO based on settings from Clock DWR */
 206:.\Generated_Source\PSoC5/cyfitter_cfg.c **** 	CY_SET_XTND_REG8((void CYFAR *)(CYREG_FASTCLK_IMO_CR), 0x03u);
 207:.\Generated_Source\PSoC5/cyfitter_cfg.c **** 	CY_SET_XTND_REG8((void CYFAR *)(CYREG_IMO_TR1), (CY_GET_XTND_REG8((void CYFAR *)CYREG_FLSHID_CUST_
 208:.\Generated_Source\PSoC5/cyfitter_cfg.c **** 
 209:.\Generated_Source\PSoC5/cyfitter_cfg.c **** 	/* Configure PLL based on settings from Clock DWR */
 210:.\Generated_Source\PSoC5/cyfitter_cfg.c **** 	CY_SET_XTND_REG16((void CYFAR *)(CYREG_FASTCLK_PLL_P), 0x0008u);
 211:.\Generated_Source\PSoC5/cyfitter_cfg.c **** 	CY_SET_XTND_REG16((void CYFAR *)(CYREG_FASTCLK_PLL_CFG0), 0x1251u);
 212:.\Generated_Source\PSoC5/cyfitter_cfg.c **** 	/* Wait up to 250us for the PLL to lock */
 213:.\Generated_Source\PSoC5/cyfitter_cfg.c **** 	pllLock = 0u;
 214:.\Generated_Source\PSoC5/cyfitter_cfg.c **** 	for (timeout = 250u / 10u; (timeout > 0u) && (pllLock != 0x03u); timeout--)
 215:.\Generated_Source\PSoC5/cyfitter_cfg.c **** 	{ 
 216:.\Generated_Source\PSoC5/cyfitter_cfg.c **** 		pllLock = 0x03u & ((uint8)((uint8)pllLock << 1) | ((CY_GET_XTND_REG8((void CYFAR *)CYREG_FASTCLK_
 217:.\Generated_Source\PSoC5/cyfitter_cfg.c **** 		CyDelayCycles(10u * 48u); /* Delay 10us based on 48MHz clock */
 218:.\Generated_Source\PSoC5/cyfitter_cfg.c **** 	}
 219:.\Generated_Source\PSoC5/cyfitter_cfg.c **** 	/* If we ran out of time the PLL didn't lock so go to the error function */
 220:.\Generated_Source\PSoC5/cyfitter_cfg.c **** 	if (timeout == 0u)
 221:.\Generated_Source\PSoC5/cyfitter_cfg.c **** 	{
 222:.\Generated_Source\PSoC5/cyfitter_cfg.c **** 		CyClockStartupError(CYCLOCKSTART_PLL_ERROR);
 223:.\Generated_Source\PSoC5/cyfitter_cfg.c **** 	}
 224:.\Generated_Source\PSoC5/cyfitter_cfg.c **** 
 225:.\Generated_Source\PSoC5/cyfitter_cfg.c **** 	/* Configure Bus/Master Clock based on settings from Clock DWR */
 226:.\Generated_Source\PSoC5/cyfitter_cfg.c **** 	CY_SET_XTND_REG16((void CYFAR *)(CYREG_CLKDIST_MSTR0), 0x0100u);
 227:.\Generated_Source\PSoC5/cyfitter_cfg.c **** 	CY_SET_XTND_REG8((void CYFAR *)(CYREG_CLKDIST_MSTR0), 0x07u);
 228:.\Generated_Source\PSoC5/cyfitter_cfg.c **** 	CY_SET_XTND_REG8((void CYFAR *)(CYREG_CLKDIST_BCFG0), 0x00u);
 229:.\Generated_Source\PSoC5/cyfitter_cfg.c **** 	CY_SET_XTND_REG8((void CYFAR *)(CYREG_CLKDIST_BCFG2), 0x48u);
 230:.\Generated_Source\PSoC5/cyfitter_cfg.c **** 	CY_SET_XTND_REG8((void CYFAR *)(CYREG_CLKDIST_MSTR0), 0x00u);
 231:.\Generated_Source\PSoC5/cyfitter_cfg.c **** 	CY_SET_XTND_REG8((void CYFAR *)(CYREG_CLKDIST_LD), 0x02u);
 232:.\Generated_Source\PSoC5/cyfitter_cfg.c **** }
 233:.\Generated_Source\PSoC5/cyfitter_cfg.c **** 
 234:.\Generated_Source\PSoC5/cyfitter_cfg.c **** 
 235:.\Generated_Source\PSoC5/cyfitter_cfg.c **** /* Analog API Functions */
 236:.\Generated_Source\PSoC5/cyfitter_cfg.c **** 
 237:.\Generated_Source\PSoC5/cyfitter_cfg.c **** 
 238:.\Generated_Source\PSoC5/cyfitter_cfg.c **** /*******************************************************************************
 239:.\Generated_Source\PSoC5/cyfitter_cfg.c **** * Function Name: AnalogSetDefault
 240:.\Generated_Source\PSoC5/cyfitter_cfg.c **** ********************************************************************************
 241:.\Generated_Source\PSoC5/cyfitter_cfg.c **** *
 242:.\Generated_Source\PSoC5/cyfitter_cfg.c **** * Summary:
 243:.\Generated_Source\PSoC5/cyfitter_cfg.c **** *  Sets up the analog portions of the chip to default values based on chip
 244:.\Generated_Source\PSoC5/cyfitter_cfg.c **** *  configuration options from the project.
 245:.\Generated_Source\PSoC5/cyfitter_cfg.c **** *
 246:.\Generated_Source\PSoC5/cyfitter_cfg.c **** * Parameters:
 247:.\Generated_Source\PSoC5/cyfitter_cfg.c **** *  void
 248:.\Generated_Source\PSoC5/cyfitter_cfg.c **** *
 249:.\Generated_Source\PSoC5/cyfitter_cfg.c **** * Return:
 250:.\Generated_Source\PSoC5/cyfitter_cfg.c **** *  void
 251:.\Generated_Source\PSoC5/cyfitter_cfg.c **** *
 252:.\Generated_Source\PSoC5/cyfitter_cfg.c **** *******************************************************************************/
 253:.\Generated_Source\PSoC5/cyfitter_cfg.c **** static void AnalogSetDefault(void);
 254:.\Generated_Source\PSoC5/cyfitter_cfg.c **** static void AnalogSetDefault(void)
 255:.\Generated_Source\PSoC5/cyfitter_cfg.c **** {
 256:.\Generated_Source\PSoC5/cyfitter_cfg.c **** 	uint8 bg_xover_inl_trim = CY_GET_XTND_REG8((void CYFAR *)(CYREG_FLSHID_MFG_CFG_BG_XOVER_INL_TRIM +
 257:.\Generated_Source\PSoC5/cyfitter_cfg.c **** 	CY_SET_XTND_REG8((void CYFAR *)(CYREG_BG_DFT0), (bg_xover_inl_trim & 0x07u));
 258:.\Generated_Source\PSoC5/cyfitter_cfg.c **** 	CY_SET_XTND_REG8((void CYFAR *)(CYREG_BG_DFT1), ((bg_xover_inl_trim >> 4) & 0x0Fu));
 259:.\Generated_Source\PSoC5/cyfitter_cfg.c **** 	CY_SET_XTND_REG8((void CYFAR *)CYREG_PUMP_CR0, 0x44u);
ARM GAS  C:\Users\mjphi\AppData\Local\Temp\ccvER7eg.s 			page 6


 260:.\Generated_Source\PSoC5/cyfitter_cfg.c **** }
 261:.\Generated_Source\PSoC5/cyfitter_cfg.c **** 
 262:.\Generated_Source\PSoC5/cyfitter_cfg.c **** 
 263:.\Generated_Source\PSoC5/cyfitter_cfg.c **** /*******************************************************************************
 264:.\Generated_Source\PSoC5/cyfitter_cfg.c **** * Function Name: SetAnalogRoutingPumps
 265:.\Generated_Source\PSoC5/cyfitter_cfg.c **** ********************************************************************************
 266:.\Generated_Source\PSoC5/cyfitter_cfg.c **** *
 267:.\Generated_Source\PSoC5/cyfitter_cfg.c **** * Summary:
 268:.\Generated_Source\PSoC5/cyfitter_cfg.c **** * Enables or disables the analog pumps feeding analog routing switches.
 269:.\Generated_Source\PSoC5/cyfitter_cfg.c **** * Intended to be called at startup, based on the Vdda system configuration;
 270:.\Generated_Source\PSoC5/cyfitter_cfg.c **** * may be called during operation when the user informs us that the Vdda voltage
 271:.\Generated_Source\PSoC5/cyfitter_cfg.c **** * crossed the pump threshold.
 272:.\Generated_Source\PSoC5/cyfitter_cfg.c **** *
 273:.\Generated_Source\PSoC5/cyfitter_cfg.c **** * Parameters:
 274:.\Generated_Source\PSoC5/cyfitter_cfg.c **** *  enabled - 1 to enable the pumps, 0 to disable the pumps
 275:.\Generated_Source\PSoC5/cyfitter_cfg.c **** *
 276:.\Generated_Source\PSoC5/cyfitter_cfg.c **** * Return:
 277:.\Generated_Source\PSoC5/cyfitter_cfg.c **** *  void
 278:.\Generated_Source\PSoC5/cyfitter_cfg.c **** *
 279:.\Generated_Source\PSoC5/cyfitter_cfg.c **** *******************************************************************************/
 280:.\Generated_Source\PSoC5/cyfitter_cfg.c **** void SetAnalogRoutingPumps(uint8 enabled)
 281:.\Generated_Source\PSoC5/cyfitter_cfg.c **** {
  27              		.loc 1 281 0
  28              		.cfi_startproc
  29              		@ args = 0, pretend = 0, frame = 0
  30              		@ frame_needed = 0, uses_anonymous_args = 0
  31              		@ link register save eliminated.
  32              	.LVL0:
 282:.\Generated_Source\PSoC5/cyfitter_cfg.c **** 	uint8 regValue = CY_GET_XTND_REG8((void CYFAR *)CYREG_PUMP_CR0);
  33              		.loc 1 282 0
  34 0000 024A     		ldr	r2, .L2
  35 0002 1378     		ldrb	r3, [r2]	@ zero_extendqisi2
  36 0004 DBB2     		uxtb	r3, r3
  37              	.LVL1:
 283:.\Generated_Source\PSoC5/cyfitter_cfg.c **** 	if (enabled != 0u)
 284:.\Generated_Source\PSoC5/cyfitter_cfg.c **** 	{
 285:.\Generated_Source\PSoC5/cyfitter_cfg.c **** 		regValue |= 0x00u;
 286:.\Generated_Source\PSoC5/cyfitter_cfg.c **** 	}
 287:.\Generated_Source\PSoC5/cyfitter_cfg.c **** 	else
 288:.\Generated_Source\PSoC5/cyfitter_cfg.c **** 	{
 289:.\Generated_Source\PSoC5/cyfitter_cfg.c **** 		regValue &= (uint8)~0x00u;
 290:.\Generated_Source\PSoC5/cyfitter_cfg.c **** 	}
 291:.\Generated_Source\PSoC5/cyfitter_cfg.c **** 	CY_SET_XTND_REG8((void CYFAR *)CYREG_PUMP_CR0, regValue);
  38              		.loc 1 291 0
  39 0006 1370     		strb	r3, [r2]
  40 0008 7047     		bx	lr
  41              	.L3:
  42 000a 00BF     		.align	2
  43              	.L2:
  44 000c 76580040 		.word	1073764470
  45              		.cfi_endproc
  46              	.LFE7:
  47              		.size	SetAnalogRoutingPumps, .-SetAnalogRoutingPumps
  48              		.section	.text.cyfitter_cfg,"ax",%progbits
  49              		.align	1
  50              		.global	cyfitter_cfg
  51              		.thumb
ARM GAS  C:\Users\mjphi\AppData\Local\Temp\ccvER7eg.s 			page 7


  52              		.thumb_func
  53              		.type	cyfitter_cfg, %function
  54              	cyfitter_cfg:
  55              	.LFB8:
 292:.\Generated_Source\PSoC5/cyfitter_cfg.c **** }
 293:.\Generated_Source\PSoC5/cyfitter_cfg.c **** 
 294:.\Generated_Source\PSoC5/cyfitter_cfg.c **** #define CY_AMUX_UNUSED CYREG_BOOST_SR
 295:.\Generated_Source\PSoC5/cyfitter_cfg.c **** 
 296:.\Generated_Source\PSoC5/cyfitter_cfg.c **** 
 297:.\Generated_Source\PSoC5/cyfitter_cfg.c **** /*******************************************************************************
 298:.\Generated_Source\PSoC5/cyfitter_cfg.c **** * Function Name: cyfitter_cfg
 299:.\Generated_Source\PSoC5/cyfitter_cfg.c **** ********************************************************************************
 300:.\Generated_Source\PSoC5/cyfitter_cfg.c **** * Summary:
 301:.\Generated_Source\PSoC5/cyfitter_cfg.c **** *  This function is called by the start-up code for the selected device. It
 302:.\Generated_Source\PSoC5/cyfitter_cfg.c **** *  performs all of the necessary device configuration based on the design
 303:.\Generated_Source\PSoC5/cyfitter_cfg.c **** *  settings.  This includes settings from the Design Wide Resources (DWR) such
 304:.\Generated_Source\PSoC5/cyfitter_cfg.c **** *  as Clocks and Pins as well as any component configuration that is necessary.
 305:.\Generated_Source\PSoC5/cyfitter_cfg.c **** *
 306:.\Generated_Source\PSoC5/cyfitter_cfg.c **** * Parameters:  
 307:.\Generated_Source\PSoC5/cyfitter_cfg.c **** *   void
 308:.\Generated_Source\PSoC5/cyfitter_cfg.c **** *
 309:.\Generated_Source\PSoC5/cyfitter_cfg.c **** * Return:
 310:.\Generated_Source\PSoC5/cyfitter_cfg.c **** *   void
 311:.\Generated_Source\PSoC5/cyfitter_cfg.c **** *
 312:.\Generated_Source\PSoC5/cyfitter_cfg.c **** *******************************************************************************/
 313:.\Generated_Source\PSoC5/cyfitter_cfg.c **** 
 314:.\Generated_Source\PSoC5/cyfitter_cfg.c **** void cyfitter_cfg(void)
 315:.\Generated_Source\PSoC5/cyfitter_cfg.c **** {
  56              		.loc 1 315 0
  57              		.cfi_startproc
  58              		@ args = 0, pretend = 0, frame = 0
  59              		@ frame_needed = 0, uses_anonymous_args = 0
  60 0000 70B5     		push	{r4, r5, r6, lr}
  61              		.cfi_def_cfa_offset 16
  62              		.cfi_offset 4, -16
  63              		.cfi_offset 5, -12
  64              		.cfi_offset 6, -8
  65              		.cfi_offset 14, -4
 316:.\Generated_Source\PSoC5/cyfitter_cfg.c **** #ifdef CYGlobalIntDisable
 317:.\Generated_Source\PSoC5/cyfitter_cfg.c **** 	/* Disable interrupts by default. Let user enable if/when they want. */
 318:.\Generated_Source\PSoC5/cyfitter_cfg.c **** 	CYGlobalIntDisable
  66              		.loc 1 318 0
  67              	@ 318 ".\Generated_Source\PSoC5\cyfitter_cfg.c" 1
  68 0002 72B6     		CPSID   i
  69              	@ 0 "" 2
 319:.\Generated_Source\PSoC5/cyfitter_cfg.c **** #endif
 320:.\Generated_Source\PSoC5/cyfitter_cfg.c **** 
 321:.\Generated_Source\PSoC5/cyfitter_cfg.c **** 	/* Enable/Disable Debug functionality based on settings from System DWR */
 322:.\Generated_Source\PSoC5/cyfitter_cfg.c **** 	CY_SET_XTND_REG8((void CYFAR *)CYREG_MLOGIC_DEBUG, (CY_GET_XTND_REG8((void CYFAR *)CYREG_MLOGIC_DE
  70              		.loc 1 322 0
  71              		.thumb
  72 0004 514A     		ldr	r2, .L21
  73 0006 0024     		movs	r4, #0
  74 0008 1378     		ldrb	r3, [r2]	@ zero_extendqisi2
  75 000a 43F00403 		orr	r3, r3, #4
  76 000e 1370     		strb	r3, [r2]
  77              	.LVL2:
ARM GAS  C:\Users\mjphi\AppData\Local\Temp\ccvER7eg.s 			page 8


  78              	.L5:
  79              	.LBB34:
  80              	.LBB35:
 323:.\Generated_Source\PSoC5/cyfitter_cfg.c **** 
 324:.\Generated_Source\PSoC5/cyfitter_cfg.c **** 	{
 325:.\Generated_Source\PSoC5/cyfitter_cfg.c **** 
 326:.\Generated_Source\PSoC5/cyfitter_cfg.c **** 		CYPACKED typedef struct {
 327:.\Generated_Source\PSoC5/cyfitter_cfg.c **** 			void CYFAR *address;
 328:.\Generated_Source\PSoC5/cyfitter_cfg.c **** 			uint16 size;
 329:.\Generated_Source\PSoC5/cyfitter_cfg.c **** 		} CYPACKED_ATTR cfg_memset_t;
 330:.\Generated_Source\PSoC5/cyfitter_cfg.c **** 
 331:.\Generated_Source\PSoC5/cyfitter_cfg.c **** 		static const cfg_memset_t CYCODE cfg_memset_list [] = {
 332:.\Generated_Source\PSoC5/cyfitter_cfg.c **** 			/* address, size */
 333:.\Generated_Source\PSoC5/cyfitter_cfg.c **** 			{(void CYFAR *)(CYREG_PRT0_DR), 32u},
 334:.\Generated_Source\PSoC5/cyfitter_cfg.c **** 			{(void CYFAR *)(CYREG_PRT3_DR), 48u},
 335:.\Generated_Source\PSoC5/cyfitter_cfg.c **** 			{(void CYFAR *)(CYREG_PRT15_DR), 16u},
 336:.\Generated_Source\PSoC5/cyfitter_cfg.c **** 			{(void CYFAR *)(CYDEV_UCFG_B0_P0_U0_BASE), 4096u},
 337:.\Generated_Source\PSoC5/cyfitter_cfg.c **** 			{(void CYFAR *)(CYDEV_UCFG_B1_P2_U0_BASE), 2048u},
 338:.\Generated_Source\PSoC5/cyfitter_cfg.c **** 			{(void CYFAR *)(CYDEV_UCFG_DSI0_BASE), 2560u},
 339:.\Generated_Source\PSoC5/cyfitter_cfg.c **** 			{(void CYFAR *)(CYDEV_UCFG_DSI12_BASE), 512u},
 340:.\Generated_Source\PSoC5/cyfitter_cfg.c **** 			{(void CYFAR *)(CYREG_BCTL0_MDCLK_EN), 32u},
 341:.\Generated_Source\PSoC5/cyfitter_cfg.c **** 		};
 342:.\Generated_Source\PSoC5/cyfitter_cfg.c **** 
 343:.\Generated_Source\PSoC5/cyfitter_cfg.c **** 		uint8 CYDATA i;
 344:.\Generated_Source\PSoC5/cyfitter_cfg.c **** 
 345:.\Generated_Source\PSoC5/cyfitter_cfg.c **** 		/* Zero out critical memory blocks before beginning configuration */
 346:.\Generated_Source\PSoC5/cyfitter_cfg.c **** 		for (i = 0u; i < (sizeof(cfg_memset_list)/sizeof(cfg_memset_list[0])); i++)
 347:.\Generated_Source\PSoC5/cyfitter_cfg.c **** 		{
 348:.\Generated_Source\PSoC5/cyfitter_cfg.c **** 			const cfg_memset_t CYCODE * CYDATA ms = &cfg_memset_list[i];
 349:.\Generated_Source\PSoC5/cyfitter_cfg.c **** 			CYMEMZERO(ms->address, (size_t)(uint32)(ms->size));
  81              		.loc 1 349 0 discriminator 3
  82 0010 4F4A     		ldr	r2, .L21+4
  83 0012 0623     		movs	r3, #6
  84 0014 03FB0423 		mla	r3, r3, r4, r2
  85              	.LBB36:
  86              	.LBB37:
  62:.\Generated_Source\PSoC5/cyfitter_cfg.c **** }
  87              		.loc 1 62 0 discriminator 3
  88 0018 0021     		movs	r1, #0
  89 001a 1868     		ldr	r0, [r3]	@ unaligned
  90 001c 9A88     		ldrh	r2, [r3, #4]	@ unaligned
  91 001e 0134     		adds	r4, r4, #1
  92              	.LVL3:
  93 0020 FFF7FEFF 		bl	memset
  94              	.LVL4:
  95              	.LBE37:
  96              	.LBE36:
  97              	.LBE35:
 346:.\Generated_Source\PSoC5/cyfitter_cfg.c **** 		{
  98              		.loc 1 346 0 discriminator 3
  99 0024 082C     		cmp	r4, #8
 100 0026 F3D1     		bne	.L5
 101              	.LVL5:
 102              	.LBB38:
 103              	.LBB39:
 104              	.LBB40:
 166:.\Generated_Source\PSoC5/cyfitter_cfg.c **** 		uint8 count = (uint8)baseAddr;
ARM GAS  C:\Users\mjphi\AppData\Local\Temp\ccvER7eg.s 			page 9


 105              		.loc 1 166 0
 106 0028 4FF09043 		mov	r3, #1207959552
 107 002c 1B68     		ldr	r3, [r3]
 108              	.LVL6:
 168:.\Generated_Source\PSoC5/cyfitter_cfg.c **** 		while (count != 0u)
 109              		.loc 1 168 0
 110 002e 494A     		ldr	r2, .L21+8
 111 0030 23F0FF01 		bic	r1, r3, #255
 112              	.LVL7:
 113 0034 DBB2     		uxtb	r3, r3
 114 0036 03F11053 		add	r3, r3, #603979776
 115              	.LVL8:
 116 003a 0333     		adds	r3, r3, #3
 117              	.LVL9:
 118 003c 5B00     		lsls	r3, r3, #1
 119              	.LVL10:
 120              	.L11:
 121 003e 0232     		adds	r2, r2, #2
 169:.\Generated_Source\PSoC5/cyfitter_cfg.c **** 		{
 122              		.loc 1 169 0
 123 0040 9A42     		cmp	r2, r3
 124 0042 05D0     		beq	.L20
 171:.\Generated_Source\PSoC5/cyfitter_cfg.c **** 			j++;
 125              		.loc 1 171 0
 126 0044 12F8020C 		ldrb	r0, [r2, #-2]	@ zero_extendqisi2
 127 0048 12F8014C 		ldrb	r4, [r2, #-1]	@ zero_extendqisi2
 128 004c 4454     		strb	r4, [r0, r1]
 129 004e F6E7     		b	.L11
 130              	.L20:
 131              	.LVL11:
 132              	.LBE40:
 133              	.LBE39:
 134              	.LBE38:
 350:.\Generated_Source\PSoC5/cyfitter_cfg.c **** 		}
 351:.\Generated_Source\PSoC5/cyfitter_cfg.c **** 
 352:.\Generated_Source\PSoC5/cyfitter_cfg.c **** 		cfg_write_bytes32(cy_cfg_addr_table, cy_cfg_data_table);
 353:.\Generated_Source\PSoC5/cyfitter_cfg.c **** 
 354:.\Generated_Source\PSoC5/cyfitter_cfg.c **** 		/* Enable digital routing */
 355:.\Generated_Source\PSoC5/cyfitter_cfg.c **** 		CY_SET_XTND_REG8((void CYFAR *)CYREG_BCTL0_BANK_CTL, CY_GET_XTND_REG8((void CYFAR *)CYREG_BCTL0_B
 135              		.loc 1 355 0
 136 0050 414A     		ldr	r2, .L21+12
 356:.\Generated_Source\PSoC5/cyfitter_cfg.c **** 		CY_SET_XTND_REG8((void CYFAR *)CYREG_BCTL1_BANK_CTL, CY_GET_XTND_REG8((void CYFAR *)CYREG_BCTL1_B
 357:.\Generated_Source\PSoC5/cyfitter_cfg.c **** 
 358:.\Generated_Source\PSoC5/cyfitter_cfg.c **** 		/* Enable UDB array */
 359:.\Generated_Source\PSoC5/cyfitter_cfg.c **** 		CY_SET_XTND_REG8((void CYFAR *)CYREG_PM_ACT_CFG0, CY_GET_XTND_REG8((void CYFAR *)CYREG_PM_ACT_CFG
 137              		.loc 1 359 0
 138 0052 424D     		ldr	r5, .L21+16
 355:.\Generated_Source\PSoC5/cyfitter_cfg.c **** 		CY_SET_XTND_REG8((void CYFAR *)CYREG_BCTL1_BANK_CTL, CY_GET_XTND_REG8((void CYFAR *)CYREG_BCTL1_B
 139              		.loc 1 355 0
 140 0054 1378     		ldrb	r3, [r2]	@ zero_extendqisi2
 141              	.LBE34:
 142              	.LBB41:
 143              	.LBB42:
  69:.\Generated_Source\PSoC5/cyfitter_cfg.c **** }
 144              		.loc 1 69 0
 145 0056 424C     		ldr	r4, .L21+20
 146              	.LBE42:
ARM GAS  C:\Users\mjphi\AppData\Local\Temp\ccvER7eg.s 			page 10


 147              	.LBE41:
 148              	.LBB44:
 355:.\Generated_Source\PSoC5/cyfitter_cfg.c **** 		CY_SET_XTND_REG8((void CYFAR *)CYREG_BCTL1_BANK_CTL, CY_GET_XTND_REG8((void CYFAR *)CYREG_BCTL1_B
 149              		.loc 1 355 0
 150 0058 43F00203 		orr	r3, r3, #2
 151 005c 1370     		strb	r3, [r2]
 356:.\Generated_Source\PSoC5/cyfitter_cfg.c **** 		CY_SET_XTND_REG8((void CYFAR *)CYREG_BCTL1_BANK_CTL, CY_GET_XTND_REG8((void CYFAR *)CYREG_BCTL1_B
 152              		.loc 1 356 0
 153 005e 137C     		ldrb	r3, [r2, #16]	@ zero_extendqisi2
 154              	.LBE44:
 155              	.LBB45:
 156              	.LBB46:
 211:.\Generated_Source\PSoC5/cyfitter_cfg.c **** 	/* Wait up to 250us for the PLL to lock */
 157              		.loc 1 211 0
 158 0060 1926     		movs	r6, #25
 159              	.LBE46:
 160              	.LBE45:
 161              	.LBB50:
 356:.\Generated_Source\PSoC5/cyfitter_cfg.c **** 
 162              		.loc 1 356 0
 163 0062 43F00203 		orr	r3, r3, #2
 164 0066 1374     		strb	r3, [r2, #16]
 165              		.loc 1 359 0
 166 0068 2B78     		ldrb	r3, [r5]	@ zero_extendqisi2
 360:.\Generated_Source\PSoC5/cyfitter_cfg.c **** 		CY_SET_XTND_REG8((void CYFAR *)CYREG_PM_AVAIL_CR2, CY_GET_XTND_REG8((void CYFAR *)CYREG_PM_AVAIL_
 167              		.loc 1 360 0
 168 006a A2F58632 		sub	r2, r2, #68608
 359:.\Generated_Source\PSoC5/cyfitter_cfg.c **** 		CY_SET_XTND_REG8((void CYFAR *)CYREG_PM_AVAIL_CR2, CY_GET_XTND_REG8((void CYFAR *)CYREG_PM_AVAIL_
 169              		.loc 1 359 0
 170 006e 43F04003 		orr	r3, r3, #64
 171 0072 2B70     		strb	r3, [r5]
 172              		.loc 1 360 0
 173 0074 413A     		subs	r2, r2, #65
 174 0076 1378     		ldrb	r3, [r2]	@ zero_extendqisi2
 175 0078 43F01003 		orr	r3, r3, #16
 176 007c 1370     		strb	r3, [r2]
 177              	.LVL12:
 178              	.LBE50:
 179              	.LBB51:
 180              	.LBB52:
  69:.\Generated_Source\PSoC5/cyfitter_cfg.c **** }
 181              		.loc 1 69 0
 182 007e 394A     		ldr	r2, .L21+24
 183 0080 394B     		ldr	r3, .L21+28
 184 0082 07CA     		ldmia	r2, {r0, r1, r2}
 185              	.LVL13:
 186 0084 03C3     		stmia	r3!, {r0, r1}
 187 0086 1A80     		strh	r2, [r3]	@ movhi
 188              	.LVL14:
 189              	.LBE52:
 190              	.LBE51:
 191              	.LBB53:
 192              	.LBB54:
 193 0088 384A     		ldr	r2, .L21+32
 194 008a 394B     		ldr	r3, .L21+36
 195 008c 03CB     		ldmia	r3!, {r0, r1}
 196 008e 1060     		str	r0, [r2]	@ unaligned
ARM GAS  C:\Users\mjphi\AppData\Local\Temp\ccvER7eg.s 			page 11


 197 0090 5160     		str	r1, [r2, #4]	@ unaligned
 198              	.LVL15:
 199              	.LBE54:
 200              	.LBE53:
 201              	.LBB55:
 202              	.LBB43:
 203 0092 93E80700 		ldmia	r3, {r0, r1, r2}
 204 0096 03C4     		stmia	r4!, {r0, r1}
 205 0098 2280     		strh	r2, [r4]	@ movhi
 206              	.LBE43:
 207              	.LBE55:
 361:.\Generated_Source\PSoC5/cyfitter_cfg.c **** 	}
 362:.\Generated_Source\PSoC5/cyfitter_cfg.c **** 
 363:.\Generated_Source\PSoC5/cyfitter_cfg.c **** 
 364:.\Generated_Source\PSoC5/cyfitter_cfg.c **** 	/* Perform second pass device configuration. These items must be configured in specific order afte
 365:.\Generated_Source\PSoC5/cyfitter_cfg.c **** 	CYCONFIGCPY((void CYFAR *)(CYREG_PRT12_DR), (const void CYFAR *)(BS_IOPINS0_7_VAL), 10u);
 366:.\Generated_Source\PSoC5/cyfitter_cfg.c **** 	CYCONFIGCPY((void CYFAR *)(CYREG_PRT2_DM0), (const void CYFAR *)(BS_IOPINS0_2_VAL), 8u);
 367:.\Generated_Source\PSoC5/cyfitter_cfg.c **** 	CYCONFIGCPY((void CYFAR *)(CYREG_PRT6_DR), (const void CYFAR *)(BS_IOPINS0_6_VAL), 10u);
 368:.\Generated_Source\PSoC5/cyfitter_cfg.c **** 	/* Switch Boost to the precision bandgap reference from its internal reference */
 369:.\Generated_Source\PSoC5/cyfitter_cfg.c **** 	CY_SET_REG8((void CYXDATA *)CYREG_BOOST_CR2, (CY_GET_REG8((void CYXDATA *)CYREG_BOOST_CR2) | 0x08u
 208              		.loc 1 369 0
 209 009a 364A     		ldr	r2, .L21+40
 210              	.LBB56:
 211              	.LBB47:
 206:.\Generated_Source\PSoC5/cyfitter_cfg.c **** 	CY_SET_XTND_REG8((void CYFAR *)(CYREG_IMO_TR1), (CY_GET_XTND_REG8((void CYFAR *)CYREG_FLSHID_CUST_
 212              		.loc 1 206 0
 213 009c 0321     		movs	r1, #3
 214              	.LBE47:
 215              	.LBE56:
 216              		.loc 1 369 0
 217 009e 1378     		ldrb	r3, [r2]	@ zero_extendqisi2
 218              	.LBB57:
 219              	.LBB48:
 213:.\Generated_Source\PSoC5/cyfitter_cfg.c **** 	for (timeout = 250u / 10u; (timeout > 0u) && (pllLock != 0x03u); timeout--)
 220              		.loc 1 213 0
 221 00a0 0024     		movs	r4, #0
 222              	.LBE48:
 223              	.LBE57:
 224              		.loc 1 369 0
 225 00a2 43F00803 		orr	r3, r3, #8
 226 00a6 1370     		strb	r3, [r2]
 370:.\Generated_Source\PSoC5/cyfitter_cfg.c **** 
 371:.\Generated_Source\PSoC5/cyfitter_cfg.c **** 	/* Set Flash Cycles based on max possible frequency in case a glitch occurs during ClockSetup(). *
 372:.\Generated_Source\PSoC5/cyfitter_cfg.c **** 	CY_SET_XTND_REG8((void CYFAR *)(CYREG_CACHE_CC_CTL), (((CYDEV_INSTRUCT_CACHE_ENABLED) != 0) ? 0x61
 227              		.loc 1 372 0
 228 00a8 334B     		ldr	r3, .L21+44
 229 00aa 6122     		movs	r2, #97
 230 00ac 1A70     		strb	r2, [r3]
 231              	.LBB58:
 232              	.LBB49:
 202:.\Generated_Source\PSoC5/cyfitter_cfg.c **** 	CY_SET_XTND_REG8((void CYFAR *)(CYREG_CLKDIST_CR), 0x08u);
 233              		.loc 1 202 0
 234 00ae 0222     		movs	r2, #2
 235 00b0 A3F5A063 		sub	r3, r3, #1280
 236 00b4 1A70     		strb	r2, [r3]
 203:.\Generated_Source\PSoC5/cyfitter_cfg.c **** 
 237              		.loc 1 203 0
ARM GAS  C:\Users\mjphi\AppData\Local\Temp\ccvER7eg.s 			page 12


 238 00b6 0822     		movs	r2, #8
 239 00b8 4FF04023 		mov	r3, #1073758208
 240 00bc 1A70     		strb	r2, [r3]
 206:.\Generated_Source\PSoC5/cyfitter_cfg.c **** 	CY_SET_XTND_REG8((void CYFAR *)(CYREG_IMO_TR1), (CY_GET_XTND_REG8((void CYFAR *)CYREG_FLSHID_CUST_
 241              		.loc 1 206 0
 242 00be 83F80012 		strb	r1, [r3, #512]
 207:.\Generated_Source\PSoC5/cyfitter_cfg.c **** 
 243              		.loc 1 207 0
 244 00c2 2E4B     		ldr	r3, .L21+48
 245 00c4 2E49     		ldr	r1, .L21+52
 246 00c6 1B78     		ldrb	r3, [r3]	@ zero_extendqisi2
 247 00c8 DBB2     		uxtb	r3, r3
 248 00ca 0B70     		strb	r3, [r1]
 210:.\Generated_Source\PSoC5/cyfitter_cfg.c **** 	CY_SET_XTND_REG16((void CYFAR *)(CYREG_FASTCLK_PLL_CFG0), 0x1251u);
 249              		.loc 1 210 0
 250 00cc 2D4B     		ldr	r3, .L21+56
 251 00ce 1A80     		strh	r2, [r3]	@ movhi
 211:.\Generated_Source\PSoC5/cyfitter_cfg.c **** 	/* Wait up to 250us for the PLL to lock */
 252              		.loc 1 211 0
 253 00d0 41F25122 		movw	r2, #4689
 254 00d4 23F8022C 		strh	r2, [r3, #-2]	@ movhi
 255              	.LVL16:
 256              	.L9:
 216:.\Generated_Source\PSoC5/cyfitter_cfg.c **** 		CyDelayCycles(10u * 48u); /* Delay 10us based on 48MHz clock */
 257              		.loc 1 216 0
 258 00d8 2B4B     		ldr	r3, .L21+60
 217:.\Generated_Source\PSoC5/cyfitter_cfg.c **** 	}
 259              		.loc 1 217 0
 260 00da 4FF4F070 		mov	r0, #480
 216:.\Generated_Source\PSoC5/cyfitter_cfg.c **** 		CyDelayCycles(10u * 48u); /* Delay 10us based on 48MHz clock */
 261              		.loc 1 216 0
 262 00de 1B78     		ldrb	r3, [r3]	@ zero_extendqisi2
 263 00e0 03F00103 		and	r3, r3, #1
 264 00e4 43EA4404 		orr	r4, r3, r4, lsl #1
 265              	.LVL17:
 217:.\Generated_Source\PSoC5/cyfitter_cfg.c **** 	}
 266              		.loc 1 217 0
 267 00e8 FFF7FEFF 		bl	CyDelayCycles
 268              	.LVL18:
 214:.\Generated_Source\PSoC5/cyfitter_cfg.c **** 	{ 
 269              		.loc 1 214 0
 270 00ec 013E     		subs	r6, r6, #1
 271              	.LVL19:
 216:.\Generated_Source\PSoC5/cyfitter_cfg.c **** 		CyDelayCycles(10u * 48u); /* Delay 10us based on 48MHz clock */
 272              		.loc 1 216 0
 273 00ee 04F00304 		and	r4, r4, #3
 274              	.LVL20:
 214:.\Generated_Source\PSoC5/cyfitter_cfg.c **** 	{ 
 275              		.loc 1 214 0
 276 00f2 29D0     		beq	.L8
 277              	.LVL21:
 278 00f4 032C     		cmp	r4, #3
 279 00f6 EFD1     		bne	.L9
 226:.\Generated_Source\PSoC5/cyfitter_cfg.c **** 	CY_SET_XTND_REG8((void CYFAR *)(CYREG_CLKDIST_MSTR0), 0x07u);
 280              		.loc 1 226 0
 281 00f8 244B     		ldr	r3, .L21+64
 282 00fa 4FF48072 		mov	r2, #256
ARM GAS  C:\Users\mjphi\AppData\Local\Temp\ccvER7eg.s 			page 13


 283 00fe 1A80     		strh	r2, [r3]	@ movhi
 228:.\Generated_Source\PSoC5/cyfitter_cfg.c **** 	CY_SET_XTND_REG8((void CYFAR *)(CYREG_CLKDIST_BCFG2), 0x48u);
 284              		.loc 1 228 0
 285 0100 2349     		ldr	r1, .L21+68
 227:.\Generated_Source\PSoC5/cyfitter_cfg.c **** 	CY_SET_XTND_REG8((void CYFAR *)(CYREG_CLKDIST_BCFG0), 0x00u);
 286              		.loc 1 227 0
 287 0102 0722     		movs	r2, #7
 288 0104 1A70     		strb	r2, [r3]
 229:.\Generated_Source\PSoC5/cyfitter_cfg.c **** 	CY_SET_XTND_REG8((void CYFAR *)(CYREG_CLKDIST_MSTR0), 0x00u);
 289              		.loc 1 229 0
 290 0106 4820     		movs	r0, #72
 228:.\Generated_Source\PSoC5/cyfitter_cfg.c **** 	CY_SET_XTND_REG8((void CYFAR *)(CYREG_CLKDIST_BCFG2), 0x48u);
 291              		.loc 1 228 0
 292 0108 0022     		movs	r2, #0
 293 010a 0A70     		strb	r2, [r1]
 229:.\Generated_Source\PSoC5/cyfitter_cfg.c **** 	CY_SET_XTND_REG8((void CYFAR *)(CYREG_CLKDIST_MSTR0), 0x00u);
 294              		.loc 1 229 0
 295 010c 8870     		strb	r0, [r1, #2]
 230:.\Generated_Source\PSoC5/cyfitter_cfg.c **** 	CY_SET_XTND_REG8((void CYFAR *)(CYREG_CLKDIST_LD), 0x02u);
 296              		.loc 1 230 0
 297 010e 1A70     		strb	r2, [r3]
 231:.\Generated_Source\PSoC5/cyfitter_cfg.c **** }
 298              		.loc 1 231 0
 299 0110 0222     		movs	r2, #2
 300 0112 03F8032C 		strb	r2, [r3, #-3]
 301              	.LBE49:
 302              	.LBE58:
 373:.\Generated_Source\PSoC5/cyfitter_cfg.c **** 	/* Setup clocks based on selections from Clock DWR */
 374:.\Generated_Source\PSoC5/cyfitter_cfg.c **** 	ClockSetup();
 375:.\Generated_Source\PSoC5/cyfitter_cfg.c **** 	/* Set Flash Cycles based on newly configured 24.00MHz Bus Clock. */
 376:.\Generated_Source\PSoC5/cyfitter_cfg.c **** 	CY_SET_XTND_REG8((void CYFAR *)(CYREG_CACHE_CC_CTL), (((CYDEV_INSTRUCT_CACHE_ENABLED) != 0) ? 0x81
 303              		.loc 1 376 0
 304 0116 8122     		movs	r2, #129
 305 0118 83F8FC27 		strb	r2, [r3, #2044]
 377:.\Generated_Source\PSoC5/cyfitter_cfg.c **** 	CY_SET_XTND_REG8((void CYFAR *)(CYREG_PANTHER_WAITPIPE), 0x01u);
 306              		.loc 1 377 0
 307 011c 0122     		movs	r2, #1
 308 011e 03F5F823 		add	r3, r3, #507904
 309 0122 1A70     		strb	r2, [r3]
 310              	.LBB59:
 311              	.LBB60:
 256:.\Generated_Source\PSoC5/cyfitter_cfg.c **** 	CY_SET_XTND_REG8((void CYFAR *)(CYREG_BG_DFT0), (bg_xover_inl_trim & 0x07u));
 312              		.loc 1 256 0
 313 0124 1B4B     		ldr	r3, .L21+72
 257:.\Generated_Source\PSoC5/cyfitter_cfg.c **** 	CY_SET_XTND_REG8((void CYFAR *)(CYREG_BG_DFT1), ((bg_xover_inl_trim >> 4) & 0x0Fu));
 314              		.loc 1 257 0
 315 0126 1C4A     		ldr	r2, .L21+76
 256:.\Generated_Source\PSoC5/cyfitter_cfg.c **** 	CY_SET_XTND_REG8((void CYFAR *)(CYREG_BG_DFT0), (bg_xover_inl_trim & 0x07u));
 316              		.loc 1 256 0
 317 0128 1B78     		ldrb	r3, [r3]	@ zero_extendqisi2
 318              	.LBE60:
 319              	.LBE59:
 320              	.LBB62:
 321              	.LBB63:
  69:.\Generated_Source\PSoC5/cyfitter_cfg.c **** }
 322              		.loc 1 69 0
 323 012a 1C4C     		ldr	r4, .L21+80
ARM GAS  C:\Users\mjphi\AppData\Local\Temp\ccvER7eg.s 			page 14


 324              	.LVL22:
 325              	.LBE63:
 326              	.LBE62:
 327              	.LBB65:
 328              	.LBB61:
 256:.\Generated_Source\PSoC5/cyfitter_cfg.c **** 	CY_SET_XTND_REG8((void CYFAR *)(CYREG_BG_DFT0), (bg_xover_inl_trim & 0x07u));
 329              		.loc 1 256 0
 330 012c DBB2     		uxtb	r3, r3
 331              	.LVL23:
 257:.\Generated_Source\PSoC5/cyfitter_cfg.c **** 	CY_SET_XTND_REG8((void CYFAR *)(CYREG_BG_DFT1), ((bg_xover_inl_trim >> 4) & 0x0Fu));
 332              		.loc 1 257 0
 333 012e 03F00701 		and	r1, r3, #7
 258:.\Generated_Source\PSoC5/cyfitter_cfg.c **** 	CY_SET_XTND_REG8((void CYFAR *)CYREG_PUMP_CR0, 0x44u);
 334              		.loc 1 258 0
 335 0132 1B09     		lsrs	r3, r3, #4
 336              	.LVL24:
 257:.\Generated_Source\PSoC5/cyfitter_cfg.c **** 	CY_SET_XTND_REG8((void CYFAR *)(CYREG_BG_DFT1), ((bg_xover_inl_trim >> 4) & 0x0Fu));
 337              		.loc 1 257 0
 338 0134 1170     		strb	r1, [r2]
 258:.\Generated_Source\PSoC5/cyfitter_cfg.c **** 	CY_SET_XTND_REG8((void CYFAR *)CYREG_PUMP_CR0, 0x44u);
 339              		.loc 1 258 0
 340 0136 5370     		strb	r3, [r2, #1]
 259:.\Generated_Source\PSoC5/cyfitter_cfg.c **** }
 341              		.loc 1 259 0
 342 0138 194B     		ldr	r3, .L21+84
 343 013a 4422     		movs	r2, #68
 344 013c 1A70     		strb	r2, [r3]
 345              	.LVL25:
 346              	.LBE61:
 347              	.LBE65:
 348              	.LBB66:
 349              	.LBB64:
  69:.\Generated_Source\PSoC5/cyfitter_cfg.c **** }
 350              		.loc 1 69 0
 351 013e 95E80F00 		ldmia	r5, {r0, r1, r2, r3}
 352 0142 07C4     		stmia	r4!, {r0, r1, r2}
 353 0144 2380     		strh	r3, [r4]	@ movhi
 354 0146 70BD     		pop	{r4, r5, r6, pc}
 355              	.LVL26:
 356              	.L8:
 357 0148 FEE7     		b	.L8
 358              	.L22:
 359 014a 00BF     		.align	2
 360              	.L21:
 361 014c E8460040 		.word	1073759976
 362 0150 00000000 		.word	.LANCHOR0
 363 0154 04000048 		.word	1207959556
 364 0158 03500140 		.word	1073827843
 365 015c A0430040 		.word	1073759136
 366 0160 60510040 		.word	1073762656
 367 0164 08000048 		.word	1207959560
 368 0168 C0510040 		.word	1073762752
 369 016c 22510040 		.word	1073762594
 370 0170 14000048 		.word	1207959572
 371 0174 22430040 		.word	1073759010
 372 0178 00480040 		.word	1073760256
 373 017c 08010049 		.word	1224737032
ARM GAS  C:\Users\mjphi\AppData\Local\Temp\ccvER7eg.s 			page 15


 374 0180 A1460040 		.word	1073759905
 375 0184 22420040 		.word	1073758754
 376 0188 25420040 		.word	1073758757
 377 018c 04400040 		.word	1073758212
 378 0190 06400040 		.word	1073758214
 379 0194 CF010049 		.word	1224737231
 380 0198 6E580040 		.word	1073764462
 381 019c B0430040 		.word	1073759152
 382 01a0 76580040 		.word	1073764470
 383              	.LBE64:
 384              	.LBE66:
 385              		.cfi_endproc
 386              	.LFE8:
 387              		.size	cyfitter_cfg, .-cyfitter_cfg
 388              		.section	.rodata
 389              		.set	.LANCHOR0,. + 0
 390              		.type	cfg_memset_list.4880, %object
 391              		.size	cfg_memset_list.4880, 48
 392              	cfg_memset_list.4880:
 393 0000 00510040 		.4byte	1073762560
 394 0004 2000     		.2byte	32
 395 0006 30510040 		.4byte	1073762608
 396 000a 3000     		.2byte	48
 397 000c F0510040 		.4byte	1073762800
 398 0010 1000     		.2byte	16
 399 0012 00000140 		.4byte	1073807360
 400 0016 0010     		.2byte	4096
 401 0018 00140140 		.4byte	1073812480
 402 001c 0008     		.2byte	2048
 403 001e 00400140 		.4byte	1073823744
 404 0022 000A     		.2byte	2560
 405 0024 004C0140 		.4byte	1073826816
 406 0028 0002     		.2byte	512
 407 002a 00500140 		.4byte	1073827840
 408 002e 2000     		.2byte	32
 409              		.text
 410              	.Letext0:
 411              		.file 2 "c:\\program files (x86)\\cypress\\psoc creator\\3.3\\psoc creator\\import\\gnu\\arm\\4.9.
 412              		.file 3 ".\\Generated_Source\\PSoC5\\cytypes.h"
 413              		.file 4 ".\\Generated_Source\\PSoC5\\CyLib.h"
