ARM GAS  C:\Users\mjphi\AppData\Local\Temp\ccpTIsgp.s 			page 1


   1              		.syntax unified
   2              		.cpu cortex-m3
   3              		.fpu softvfp
   4              		.eabi_attribute 20, 1
   5              		.eabi_attribute 21, 1
   6              		.eabi_attribute 23, 3
   7              		.eabi_attribute 24, 1
   8              		.eabi_attribute 25, 1
   9              		.eabi_attribute 26, 1
  10              		.eabi_attribute 30, 4
  11              		.eabi_attribute 34, 1
  12              		.eabi_attribute 18, 4
  13              		.thumb
  14              		.file	"cymetadata.c"
  15              		.text
  16              	.Ltext0:
  17              		.cfi_sections	.debug_frame
  18              		.global	cy_metadata
  19              		.global	cy_meta_flashprotect
  20              		.global	cy_meta_wonvl
  21              		.global	cy_meta_custnvl
  22              		.global	cy_meta_configecc
  23              		.section	.cyconfigecc,"a",%progbits
  24              		.type	cy_meta_configecc, %object
  25              		.size	cy_meta_configecc, 40
  26              	cy_meta_configecc:
  27 0000 02       		.byte	2
  28 0001 52       		.byte	82
  29 0002 00       		.byte	0
  30 0003 40       		.byte	64
  31 0004 34       		.byte	52
  32 0005 30       		.byte	48
  33 0006 64       		.byte	100
  34 0007 20       		.byte	32
  35 0008 20       		.byte	32
  36 0009 00       		.byte	0
  37 000a 00       		.byte	0
  38 000b 20       		.byte	32
  39 000c 00       		.byte	0
  40 000d 00       		.byte	0
  41 000e 00       		.byte	0
  42 000f 00       		.byte	0
  43 0010 00       		.byte	0
  44 0011 00       		.byte	0
  45 0012 00       		.byte	0
  46 0013 00       		.byte	0
  47 0014 00       		.byte	0
  48 0015 7C       		.byte	124
  49 0016 7C       		.byte	124
  50 0017 00       		.byte	0
  51 0018 00       		.byte	0
  52 0019 00       		.byte	0
  53 001a 00       		.byte	0
  54 001b 00       		.byte	0
  55 001c 30       		.byte	48
  56 001d 00       		.byte	0
  57 001e 00       		.byte	0
ARM GAS  C:\Users\mjphi\AppData\Local\Temp\ccpTIsgp.s 			page 2


  58 001f 30       		.byte	48
  59 0020 00       		.byte	0
  60 0021 00       		.byte	0
  61 0022 00       		.byte	0
  62 0023 00       		.byte	0
  63 0024 00       		.byte	0
  64 0025 00       		.byte	0
  65 0026 00       		.byte	0
  66 0027 00       		.byte	0
  67              		.section	.cywolatch,"a",%progbits
  68              		.type	cy_meta_wonvl, %object
  69              		.size	cy_meta_wonvl, 4
  70              	cy_meta_wonvl:
  71 0000 BC       		.byte	-68
  72 0001 90       		.byte	-112
  73 0002 AC       		.byte	-84
  74 0003 AF       		.byte	-81
  75              		.section	.cycustnvl,"a",%progbits
  76              		.type	cy_meta_custnvl, %object
  77              		.size	cy_meta_custnvl, 4
  78              	cy_meta_custnvl:
  79 0000 00       		.byte	0
  80 0001 00       		.byte	0
  81 0002 40       		.byte	64
  82 0003 05       		.byte	5
  83              		.section	.cymeta,"a",%progbits
  84              		.type	cy_metadata, %object
  85              		.size	cy_metadata, 12
  86              	cy_metadata:
  87 0000 00       		.byte	0
  88 0001 01       		.byte	1
  89 0002 2E       		.byte	46
  90 0003 16       		.byte	22
  91 0004 00       		.byte	0
  92 0005 69       		.byte	105
  93 0006 00       		.byte	0
  94 0007 01       		.byte	1
  95 0008 00       		.byte	0
  96 0009 00       		.byte	0
  97 000a 00       		.byte	0
  98 000b 00       		.byte	0
  99              		.section	.cyflashprotect,"a",%progbits
 100              		.type	cy_meta_flashprotect, %object
 101              		.size	cy_meta_flashprotect, 256
 102              	cy_meta_flashprotect:
 103 0000 00000000 		.space	256
 103      00000000 
 103      00000000 
 103      00000000 
 103      00000000 
 104              		.text
 105              	.Letext0:
 106              		.file 1 ".\\Generated_Source\\PSoC5\\cymetadata.c"
 107              		.file 2 ".\\Generated_Source\\PSoC5\\cytypes.h"
