ARM GAS  C:\Users\mjphi\AppData\Local\Temp\ccWjpNxZ.s 			page 1


   1              		.syntax unified
   2              		.cpu cortex-m3
   3              		.fpu softvfp
   4              		.eabi_attribute 20, 1
   5              		.eabi_attribute 21, 1
   6              		.eabi_attribute 23, 3
   7              		.eabi_attribute 24, 1
   8              		.eabi_attribute 25, 1
   9              		.eabi_attribute 26, 1
  10              		.eabi_attribute 30, 4
  11              		.eabi_attribute 34, 1
  12              		.eabi_attribute 18, 4
  13              		.thumb
  14              		.file	"cyPm.c"
  15              		.text
  16              	.Ltext0:
  17              		.cfi_sections	.debug_frame
  18              		.section	.text.CyPmHibSlpSaveSet,"ax",%progbits
  19              		.align	1
  20              		.thumb
  21              		.thumb_func
  22              		.type	CyPmHibSlpSaveSet, %function
  23              	CyPmHibSlpSaveSet:
  24              	.LFB12:
  25              		.file 1 ".\\Generated_Source\\PSoC5\\cyPm.c"
   1:.\Generated_Source\PSoC5/cyPm.c **** /*******************************************************************************
   2:.\Generated_Source\PSoC5/cyPm.c **** * File Name: cyPm.c
   3:.\Generated_Source\PSoC5/cyPm.c **** * Version 5.20
   4:.\Generated_Source\PSoC5/cyPm.c **** *
   5:.\Generated_Source\PSoC5/cyPm.c **** * Description:
   6:.\Generated_Source\PSoC5/cyPm.c **** *  Provides an API for the power management.
   7:.\Generated_Source\PSoC5/cyPm.c **** *
   8:.\Generated_Source\PSoC5/cyPm.c **** * Note:
   9:.\Generated_Source\PSoC5/cyPm.c **** *  Documentation of the API's in this file is located in the
  10:.\Generated_Source\PSoC5/cyPm.c **** *  System Reference Guide provided with PSoC Creator.
  11:.\Generated_Source\PSoC5/cyPm.c **** *
  12:.\Generated_Source\PSoC5/cyPm.c **** ********************************************************************************
  13:.\Generated_Source\PSoC5/cyPm.c **** * Copyright 2008-2015, Cypress Semiconductor Corporation.  All rights reserved.
  14:.\Generated_Source\PSoC5/cyPm.c **** * You may use this file only in accordance with the license, terms, conditions,
  15:.\Generated_Source\PSoC5/cyPm.c **** * disclaimers, and limitations in the end user license agreement accompanying
  16:.\Generated_Source\PSoC5/cyPm.c **** * the software package with which this file was provided.
  17:.\Generated_Source\PSoC5/cyPm.c **** *******************************************************************************/
  18:.\Generated_Source\PSoC5/cyPm.c **** 
  19:.\Generated_Source\PSoC5/cyPm.c **** #include "cyPm.h"
  20:.\Generated_Source\PSoC5/cyPm.c **** 
  21:.\Generated_Source\PSoC5/cyPm.c **** 
  22:.\Generated_Source\PSoC5/cyPm.c **** 
  23:.\Generated_Source\PSoC5/cyPm.c **** /*******************************************************************
  24:.\Generated_Source\PSoC5/cyPm.c **** * Place your includes, defines, and code here. Do not use the merge
  25:.\Generated_Source\PSoC5/cyPm.c **** * region below unless any component datasheet suggests doing so.
  26:.\Generated_Source\PSoC5/cyPm.c **** *******************************************************************/
  27:.\Generated_Source\PSoC5/cyPm.c **** /* `#START CY_PM_HEADER_INCLUDE` */
  28:.\Generated_Source\PSoC5/cyPm.c **** 
  29:.\Generated_Source\PSoC5/cyPm.c **** /* `#END` */
  30:.\Generated_Source\PSoC5/cyPm.c **** 
  31:.\Generated_Source\PSoC5/cyPm.c **** 
  32:.\Generated_Source\PSoC5/cyPm.c **** static CY_PM_BACKUP_STRUCT          cyPmBackup;
ARM GAS  C:\Users\mjphi\AppData\Local\Temp\ccWjpNxZ.s 			page 2


  33:.\Generated_Source\PSoC5/cyPm.c **** static CY_PM_CLOCK_BACKUP_STRUCT    cyPmClockBackup;
  34:.\Generated_Source\PSoC5/cyPm.c **** 
  35:.\Generated_Source\PSoC5/cyPm.c **** /* Convertion table between register's values and frequency in MHz  */
  36:.\Generated_Source\PSoC5/cyPm.c **** static const uint8 CYCODE cyPmImoFreqReg2Mhz[7u] = {12u, 6u, 24u, 3u, 48u, 62u, 74u};
  37:.\Generated_Source\PSoC5/cyPm.c **** 
  38:.\Generated_Source\PSoC5/cyPm.c **** /* Function Prototypes */
  39:.\Generated_Source\PSoC5/cyPm.c **** static void CyPmHibSaveSet(void);
  40:.\Generated_Source\PSoC5/cyPm.c **** static void CyPmHibRestore(void) ;
  41:.\Generated_Source\PSoC5/cyPm.c **** 
  42:.\Generated_Source\PSoC5/cyPm.c **** static void CyPmHibSlpSaveSet(void) ;
  43:.\Generated_Source\PSoC5/cyPm.c **** static void CyPmHibSlpRestore(void) ;
  44:.\Generated_Source\PSoC5/cyPm.c **** 
  45:.\Generated_Source\PSoC5/cyPm.c **** static void CyPmHviLviSaveDisable(void) ;
  46:.\Generated_Source\PSoC5/cyPm.c **** static void CyPmHviLviRestore(void) ;
  47:.\Generated_Source\PSoC5/cyPm.c **** 
  48:.\Generated_Source\PSoC5/cyPm.c **** 
  49:.\Generated_Source\PSoC5/cyPm.c **** /*******************************************************************************
  50:.\Generated_Source\PSoC5/cyPm.c **** * Function Name: CyPmSaveClocks
  51:.\Generated_Source\PSoC5/cyPm.c **** ********************************************************************************
  52:.\Generated_Source\PSoC5/cyPm.c **** *
  53:.\Generated_Source\PSoC5/cyPm.c **** * Summary:
  54:.\Generated_Source\PSoC5/cyPm.c **** *  This function is called in preparation for entering sleep or hibernate low
  55:.\Generated_Source\PSoC5/cyPm.c **** *  power modes. Saves all the states of the clocking system that do not persist
  56:.\Generated_Source\PSoC5/cyPm.c **** *  during sleep/hibernate or that need to be altered in preparation for
  57:.\Generated_Source\PSoC5/cyPm.c **** *  sleep/hibernate. Shutdowns all the digital and analog clock dividers for the
  58:.\Generated_Source\PSoC5/cyPm.c **** *  active power mode configuration.
  59:.\Generated_Source\PSoC5/cyPm.c **** *
  60:.\Generated_Source\PSoC5/cyPm.c **** *  Switches the master clock over to the IMO and shuts down the PLL and MHz
  61:.\Generated_Source\PSoC5/cyPm.c **** *  Crystal. The IMO frequency is set to either 12 MHz or 48 MHz to match the
  62:.\Generated_Source\PSoC5/cyPm.c **** *  Design-Wide Resources System Editor "Enable Fast IMO During Startup" setting.
  63:.\Generated_Source\PSoC5/cyPm.c **** *  The ILO and 32 KHz oscillators are not impacted. The current Flash wait state
  64:.\Generated_Source\PSoC5/cyPm.c **** *  setting is saved and the Flash wait state setting is set for the current IMO
  65:.\Generated_Source\PSoC5/cyPm.c **** *  speed.
  66:.\Generated_Source\PSoC5/cyPm.c **** *
  67:.\Generated_Source\PSoC5/cyPm.c **** *  Note If the Master Clock source is routed through the DSI inputs, then it
  68:.\Generated_Source\PSoC5/cyPm.c **** *  must be set manually to another source before using the
  69:.\Generated_Source\PSoC5/cyPm.c **** *  CyPmSaveClocks()/CyPmRestoreClocks() functions.
  70:.\Generated_Source\PSoC5/cyPm.c **** *
  71:.\Generated_Source\PSoC5/cyPm.c **** * Parameters:
  72:.\Generated_Source\PSoC5/cyPm.c **** *  None
  73:.\Generated_Source\PSoC5/cyPm.c **** *
  74:.\Generated_Source\PSoC5/cyPm.c **** * Return:
  75:.\Generated_Source\PSoC5/cyPm.c **** *  None
  76:.\Generated_Source\PSoC5/cyPm.c **** *
  77:.\Generated_Source\PSoC5/cyPm.c **** * Side Effects:
  78:.\Generated_Source\PSoC5/cyPm.c **** *  All peripheral clocks are going to be off after this API method call.
  79:.\Generated_Source\PSoC5/cyPm.c **** *
  80:.\Generated_Source\PSoC5/cyPm.c **** *******************************************************************************/
  81:.\Generated_Source\PSoC5/cyPm.c **** void CyPmSaveClocks(void) 
  82:.\Generated_Source\PSoC5/cyPm.c **** {
  83:.\Generated_Source\PSoC5/cyPm.c ****     /* Digital and analog clocks - save enable state and disable them all */
  84:.\Generated_Source\PSoC5/cyPm.c ****     cyPmClockBackup.enClkA = CY_PM_ACT_CFG1_REG & CY_PM_ACT_EN_CLK_A_MASK;
  85:.\Generated_Source\PSoC5/cyPm.c ****     cyPmClockBackup.enClkD = CY_PM_ACT_CFG2_REG;
  86:.\Generated_Source\PSoC5/cyPm.c ****     CY_PM_ACT_CFG1_REG &= ((uint8)(~CY_PM_ACT_EN_CLK_A_MASK));
  87:.\Generated_Source\PSoC5/cyPm.c ****     CY_PM_ACT_CFG2_REG &= ((uint8)(~CY_PM_ACT_EN_CLK_D_MASK));
  88:.\Generated_Source\PSoC5/cyPm.c **** 
  89:.\Generated_Source\PSoC5/cyPm.c ****     /* Save current flash wait cycles and set the maximum value */
ARM GAS  C:\Users\mjphi\AppData\Local\Temp\ccWjpNxZ.s 			page 3


  90:.\Generated_Source\PSoC5/cyPm.c ****     cyPmClockBackup.flashWaitCycles = CY_PM_CACHE_CR_CYCLES_MASK & CY_PM_CACHE_CR_REG;
  91:.\Generated_Source\PSoC5/cyPm.c ****     CyFlash_SetWaitCycles(CY_PM_MAX_FLASH_WAIT_CYCLES);
  92:.\Generated_Source\PSoC5/cyPm.c **** 
  93:.\Generated_Source\PSoC5/cyPm.c ****     /* IMO - save current IMO MHz OSC frequency and USB mode is on bit */
  94:.\Generated_Source\PSoC5/cyPm.c ****     cyPmClockBackup.imoFreq = CY_PM_FASTCLK_IMO_CR_REG & CY_PM_FASTCLK_IMO_CR_FREQ_MASK;
  95:.\Generated_Source\PSoC5/cyPm.c ****     cyPmClockBackup.imoUsbClk = CY_PM_FASTCLK_IMO_CR_REG & CY_PM_FASTCLK_IMO_CR_USB;
  96:.\Generated_Source\PSoC5/cyPm.c **** 
  97:.\Generated_Source\PSoC5/cyPm.c ****     /* IMO doubler - save enable state */
  98:.\Generated_Source\PSoC5/cyPm.c ****     if(0u != (CY_PM_FASTCLK_IMO_CR_REG & CY_PM_FASTCLK_IMO_CR_F2XON))
  99:.\Generated_Source\PSoC5/cyPm.c ****     {
 100:.\Generated_Source\PSoC5/cyPm.c ****         /* IMO doubler enabled - save and disable */
 101:.\Generated_Source\PSoC5/cyPm.c ****         cyPmClockBackup.imo2x = CY_PM_ENABLED;
 102:.\Generated_Source\PSoC5/cyPm.c ****     }
 103:.\Generated_Source\PSoC5/cyPm.c ****     else
 104:.\Generated_Source\PSoC5/cyPm.c ****     {
 105:.\Generated_Source\PSoC5/cyPm.c ****         /* IMO doubler disabled */
 106:.\Generated_Source\PSoC5/cyPm.c ****         cyPmClockBackup.imo2x = CY_PM_DISABLED;
 107:.\Generated_Source\PSoC5/cyPm.c ****     }
 108:.\Generated_Source\PSoC5/cyPm.c **** 
 109:.\Generated_Source\PSoC5/cyPm.c ****     /* Master clock - save source */
 110:.\Generated_Source\PSoC5/cyPm.c ****     cyPmClockBackup.masterClkSrc = CY_PM_CLKDIST_MSTR1_REG & CY_PM_MASTER_CLK_SRC_MASK;
 111:.\Generated_Source\PSoC5/cyPm.c **** 
 112:.\Generated_Source\PSoC5/cyPm.c ****     /* Switch Master clock's source from PLL's output to PLL's source */
 113:.\Generated_Source\PSoC5/cyPm.c ****     if(CY_MASTER_SOURCE_PLL == cyPmClockBackup.masterClkSrc)
 114:.\Generated_Source\PSoC5/cyPm.c ****     {
 115:.\Generated_Source\PSoC5/cyPm.c ****         switch (CY_PM_CLKDIST_CR_REG & CY_PM_CLKDIST_PLL_SRC_MASK)
 116:.\Generated_Source\PSoC5/cyPm.c ****         {
 117:.\Generated_Source\PSoC5/cyPm.c ****         case CY_PM_CLKDIST_PLL_SRC_IMO:
 118:.\Generated_Source\PSoC5/cyPm.c ****             CyMasterClk_SetSource(CY_MASTER_SOURCE_IMO);
 119:.\Generated_Source\PSoC5/cyPm.c ****             break;
 120:.\Generated_Source\PSoC5/cyPm.c **** 
 121:.\Generated_Source\PSoC5/cyPm.c ****         case CY_PM_CLKDIST_PLL_SRC_XTAL:
 122:.\Generated_Source\PSoC5/cyPm.c ****             CyMasterClk_SetSource(CY_MASTER_SOURCE_XTAL);
 123:.\Generated_Source\PSoC5/cyPm.c ****             break;
 124:.\Generated_Source\PSoC5/cyPm.c **** 
 125:.\Generated_Source\PSoC5/cyPm.c ****         case CY_PM_CLKDIST_PLL_SRC_DSI:
 126:.\Generated_Source\PSoC5/cyPm.c ****             CyMasterClk_SetSource(CY_MASTER_SOURCE_DSI);
 127:.\Generated_Source\PSoC5/cyPm.c ****             break;
 128:.\Generated_Source\PSoC5/cyPm.c **** 
 129:.\Generated_Source\PSoC5/cyPm.c ****         default:
 130:.\Generated_Source\PSoC5/cyPm.c ****             CYASSERT(0u != 0u);
 131:.\Generated_Source\PSoC5/cyPm.c ****             break;
 132:.\Generated_Source\PSoC5/cyPm.c ****         }
 133:.\Generated_Source\PSoC5/cyPm.c ****     }
 134:.\Generated_Source\PSoC5/cyPm.c **** 
 135:.\Generated_Source\PSoC5/cyPm.c ****     /* PLL - check enable state, disable if needed */
 136:.\Generated_Source\PSoC5/cyPm.c ****     if(0u != (CY_PM_FASTCLK_PLL_CFG0_REG & CY_PM_PLL_CFG0_ENABLE))
 137:.\Generated_Source\PSoC5/cyPm.c ****     {
 138:.\Generated_Source\PSoC5/cyPm.c ****         /* PLL is enabled - save state and disable */
 139:.\Generated_Source\PSoC5/cyPm.c ****         cyPmClockBackup.pllEnableState = CY_PM_ENABLED;
 140:.\Generated_Source\PSoC5/cyPm.c ****         CyPLL_OUT_Stop();
 141:.\Generated_Source\PSoC5/cyPm.c ****     }
 142:.\Generated_Source\PSoC5/cyPm.c ****     else
 143:.\Generated_Source\PSoC5/cyPm.c ****     {
 144:.\Generated_Source\PSoC5/cyPm.c ****         /* PLL is disabled - save state */
 145:.\Generated_Source\PSoC5/cyPm.c ****         cyPmClockBackup.pllEnableState = CY_PM_DISABLED;
 146:.\Generated_Source\PSoC5/cyPm.c ****     }
ARM GAS  C:\Users\mjphi\AppData\Local\Temp\ccWjpNxZ.s 			page 4


 147:.\Generated_Source\PSoC5/cyPm.c **** 
 148:.\Generated_Source\PSoC5/cyPm.c ****     /* IMO - set appropriate frequency for LPM */
 149:.\Generated_Source\PSoC5/cyPm.c ****     CyIMO_SetFreq(CY_PM_IMO_FREQ_LPM);
 150:.\Generated_Source\PSoC5/cyPm.c **** 
 151:.\Generated_Source\PSoC5/cyPm.c ****     /* IMO - save enable state and enable without wait to settle */
 152:.\Generated_Source\PSoC5/cyPm.c ****     if(0u != (CY_PM_ACT_CFG0_IMO & CY_PM_ACT_CFG0_REG))
 153:.\Generated_Source\PSoC5/cyPm.c ****     {
 154:.\Generated_Source\PSoC5/cyPm.c ****         /* IMO - save enabled state */
 155:.\Generated_Source\PSoC5/cyPm.c ****         cyPmClockBackup.imoEnable = CY_PM_ENABLED;
 156:.\Generated_Source\PSoC5/cyPm.c ****     }
 157:.\Generated_Source\PSoC5/cyPm.c ****     else
 158:.\Generated_Source\PSoC5/cyPm.c ****     {
 159:.\Generated_Source\PSoC5/cyPm.c ****         /* IMO - save disabled state */
 160:.\Generated_Source\PSoC5/cyPm.c ****         cyPmClockBackup.imoEnable = CY_PM_DISABLED;
 161:.\Generated_Source\PSoC5/cyPm.c **** 
 162:.\Generated_Source\PSoC5/cyPm.c ****         /* Enable the IMO. Use software delay instead of the FTW-based inside */
 163:.\Generated_Source\PSoC5/cyPm.c ****         CyIMO_Start(CY_PM_IMO_NO_WAIT_TO_SETTLE);
 164:.\Generated_Source\PSoC5/cyPm.c **** 
 165:.\Generated_Source\PSoC5/cyPm.c ****         /* Settling time of the IMO is of the order of less than 6us */
 166:.\Generated_Source\PSoC5/cyPm.c ****         CyDelayUs(6u);
 167:.\Generated_Source\PSoC5/cyPm.c ****     }
 168:.\Generated_Source\PSoC5/cyPm.c **** 
 169:.\Generated_Source\PSoC5/cyPm.c ****     /* IMO - save the current IMOCLK source and set to IMO if not yet */
 170:.\Generated_Source\PSoC5/cyPm.c ****     if(0u != (CY_PM_FASTCLK_IMO_CR_REG & CY_PM_FASTCLK_IMO_CR_XCLKEN))
 171:.\Generated_Source\PSoC5/cyPm.c ****     {
 172:.\Generated_Source\PSoC5/cyPm.c ****         /* DSI or XTAL CLK */
 173:.\Generated_Source\PSoC5/cyPm.c ****         cyPmClockBackup.imoClkSrc =
 174:.\Generated_Source\PSoC5/cyPm.c ****             (0u == (CY_PM_CLKDIST_CR_REG & CY_PM_CLKDIST_IMO2X_SRC)) ? CY_IMO_SOURCE_DSI : CY_IMO_S
 175:.\Generated_Source\PSoC5/cyPm.c **** 
 176:.\Generated_Source\PSoC5/cyPm.c ****         /* IMO -  set IMOCLK source to IMO */
 177:.\Generated_Source\PSoC5/cyPm.c ****         CyIMO_SetSource(CY_IMO_SOURCE_IMO);
 178:.\Generated_Source\PSoC5/cyPm.c ****     }
 179:.\Generated_Source\PSoC5/cyPm.c ****     else
 180:.\Generated_Source\PSoC5/cyPm.c ****     {
 181:.\Generated_Source\PSoC5/cyPm.c ****         /* IMO */
 182:.\Generated_Source\PSoC5/cyPm.c ****         cyPmClockBackup.imoClkSrc = CY_IMO_SOURCE_IMO;
 183:.\Generated_Source\PSoC5/cyPm.c ****     }
 184:.\Generated_Source\PSoC5/cyPm.c **** 
 185:.\Generated_Source\PSoC5/cyPm.c ****     /* Save clk_imo source */
 186:.\Generated_Source\PSoC5/cyPm.c ****     cyPmClockBackup.clkImoSrc = CY_PM_CLKDIST_CR_REG & CY_PM_CLKDIST_IMO_OUT_MASK;
 187:.\Generated_Source\PSoC5/cyPm.c **** 
 188:.\Generated_Source\PSoC5/cyPm.c ****     /* If IMOCLK2X or SPC OSC is source for clk_imo, set it to IMOCLK */
 189:.\Generated_Source\PSoC5/cyPm.c ****     if(CY_PM_CLKDIST_IMO_OUT_IMO != cyPmClockBackup.clkImoSrc)
 190:.\Generated_Source\PSoC5/cyPm.c ****     {
 191:.\Generated_Source\PSoC5/cyPm.c ****         /* Set IMOCLK to source for clk_imo */
 192:.\Generated_Source\PSoC5/cyPm.c ****         CY_PM_CLKDIST_CR_REG = (CY_PM_CLKDIST_CR_REG & ((uint8)(~CY_PM_CLKDIST_IMO_OUT_MASK))) |
 193:.\Generated_Source\PSoC5/cyPm.c ****                                 CY_PM_CLKDIST_IMO_OUT_IMO;
 194:.\Generated_Source\PSoC5/cyPm.c ****     }    /* Need to change nothing if IMOCLK is source clk_imo */
 195:.\Generated_Source\PSoC5/cyPm.c **** 
 196:.\Generated_Source\PSoC5/cyPm.c ****     /* IMO doubler - disable it (saved above) */
 197:.\Generated_Source\PSoC5/cyPm.c ****     if(0u != (CY_PM_FASTCLK_IMO_CR_REG & CY_PM_FASTCLK_IMO_CR_F2XON))
 198:.\Generated_Source\PSoC5/cyPm.c ****     {
 199:.\Generated_Source\PSoC5/cyPm.c ****         CyIMO_DisableDoubler();
 200:.\Generated_Source\PSoC5/cyPm.c ****     }
 201:.\Generated_Source\PSoC5/cyPm.c **** 
 202:.\Generated_Source\PSoC5/cyPm.c ****     /* Master clock - save divider and set it to divide-by-one (if no yet) */
 203:.\Generated_Source\PSoC5/cyPm.c ****     cyPmClockBackup.clkSyncDiv = CY_PM_CLKDIST_MSTR0_REG;
ARM GAS  C:\Users\mjphi\AppData\Local\Temp\ccWjpNxZ.s 			page 5


 204:.\Generated_Source\PSoC5/cyPm.c ****     if(CY_PM_DIV_BY_ONE != cyPmClockBackup.clkSyncDiv)
 205:.\Generated_Source\PSoC5/cyPm.c ****     {
 206:.\Generated_Source\PSoC5/cyPm.c ****         CyMasterClk_SetDivider(CY_PM_DIV_BY_ONE);
 207:.\Generated_Source\PSoC5/cyPm.c ****     }    /* No change if master clock divider is 1 */
 208:.\Generated_Source\PSoC5/cyPm.c **** 
 209:.\Generated_Source\PSoC5/cyPm.c ****     /* Master clock source - set it to IMO if not yet. */
 210:.\Generated_Source\PSoC5/cyPm.c ****     if(CY_MASTER_SOURCE_IMO != cyPmClockBackup.masterClkSrc)
 211:.\Generated_Source\PSoC5/cyPm.c ****     {
 212:.\Generated_Source\PSoC5/cyPm.c ****         CyMasterClk_SetSource(CY_MASTER_SOURCE_IMO);
 213:.\Generated_Source\PSoC5/cyPm.c ****     }    /* No change if master clock source is IMO */
 214:.\Generated_Source\PSoC5/cyPm.c **** 
 215:.\Generated_Source\PSoC5/cyPm.c ****     /* Bus clock - save divider and set it, if needed, to divide-by-one */
 216:.\Generated_Source\PSoC5/cyPm.c ****     cyPmClockBackup.clkBusDiv = (uint16) ((uint16) CY_PM_CLK_BUS_MSB_DIV_REG << 8u);
 217:.\Generated_Source\PSoC5/cyPm.c ****     cyPmClockBackup.clkBusDiv |= CY_PM_CLK_BUS_LSB_DIV_REG;
 218:.\Generated_Source\PSoC5/cyPm.c ****     if(CY_PM_BUS_CLK_DIV_BY_ONE != cyPmClockBackup.clkBusDiv)
 219:.\Generated_Source\PSoC5/cyPm.c ****     {
 220:.\Generated_Source\PSoC5/cyPm.c ****         CyBusClk_SetDivider(CY_PM_BUS_CLK_DIV_BY_ONE);
 221:.\Generated_Source\PSoC5/cyPm.c ****     }    /* Do nothing if saved and actual values are equal */
 222:.\Generated_Source\PSoC5/cyPm.c **** 
 223:.\Generated_Source\PSoC5/cyPm.c ****     /* Set number of wait cycles for flash according to CPU frequency in MHz */
 224:.\Generated_Source\PSoC5/cyPm.c ****     CyFlash_SetWaitCycles((uint8)CY_PM_GET_CPU_FREQ_MHZ);
 225:.\Generated_Source\PSoC5/cyPm.c **** 
 226:.\Generated_Source\PSoC5/cyPm.c ****     /* MHz ECO - check enable state and disable if needed */
 227:.\Generated_Source\PSoC5/cyPm.c ****     if(0u != (CY_PM_FASTCLK_XMHZ_CSR_REG & CY_PM_XMHZ_CSR_ENABLE))
 228:.\Generated_Source\PSoC5/cyPm.c ****     {
 229:.\Generated_Source\PSoC5/cyPm.c ****         /* MHz ECO is enabled - save state and disable */
 230:.\Generated_Source\PSoC5/cyPm.c ****         cyPmClockBackup.xmhzEnableState = CY_PM_ENABLED;
 231:.\Generated_Source\PSoC5/cyPm.c ****         CyXTAL_Stop();
 232:.\Generated_Source\PSoC5/cyPm.c ****     }
 233:.\Generated_Source\PSoC5/cyPm.c ****     else
 234:.\Generated_Source\PSoC5/cyPm.c ****     {
 235:.\Generated_Source\PSoC5/cyPm.c ****         /* MHz ECO is disabled - save state */
 236:.\Generated_Source\PSoC5/cyPm.c ****         cyPmClockBackup.xmhzEnableState = CY_PM_DISABLED;
 237:.\Generated_Source\PSoC5/cyPm.c ****     }
 238:.\Generated_Source\PSoC5/cyPm.c **** 
 239:.\Generated_Source\PSoC5/cyPm.c **** 
 240:.\Generated_Source\PSoC5/cyPm.c ****     /***************************************************************************
 241:.\Generated_Source\PSoC5/cyPm.c ****     * Save the enable state of delay between the system bus clock and each of the
 242:.\Generated_Source\PSoC5/cyPm.c ****     * 4 individual analog clocks. This bit non-retention and its value should
 243:.\Generated_Source\PSoC5/cyPm.c ****     * be restored on wakeup.
 244:.\Generated_Source\PSoC5/cyPm.c ****     ***************************************************************************/
 245:.\Generated_Source\PSoC5/cyPm.c ****     if(0u != (CY_PM_CLKDIST_DELAY_REG & CY_PM_CLKDIST_DELAY_EN))
 246:.\Generated_Source\PSoC5/cyPm.c ****     {
 247:.\Generated_Source\PSoC5/cyPm.c ****         cyPmClockBackup.clkDistDelay = CY_PM_ENABLED;
 248:.\Generated_Source\PSoC5/cyPm.c ****     }
 249:.\Generated_Source\PSoC5/cyPm.c ****     else
 250:.\Generated_Source\PSoC5/cyPm.c ****     {
 251:.\Generated_Source\PSoC5/cyPm.c ****         cyPmClockBackup.clkDistDelay = CY_PM_DISABLED;
 252:.\Generated_Source\PSoC5/cyPm.c ****     }
 253:.\Generated_Source\PSoC5/cyPm.c **** }
 254:.\Generated_Source\PSoC5/cyPm.c **** 
 255:.\Generated_Source\PSoC5/cyPm.c **** 
 256:.\Generated_Source\PSoC5/cyPm.c **** /*******************************************************************************
 257:.\Generated_Source\PSoC5/cyPm.c **** * Function Name: CyPmRestoreClocks
 258:.\Generated_Source\PSoC5/cyPm.c **** ********************************************************************************
 259:.\Generated_Source\PSoC5/cyPm.c **** *
 260:.\Generated_Source\PSoC5/cyPm.c **** * Summary:
ARM GAS  C:\Users\mjphi\AppData\Local\Temp\ccWjpNxZ.s 			page 6


 261:.\Generated_Source\PSoC5/cyPm.c **** *  Restores any state that was preserved by the last call to CyPmSaveClocks().
 262:.\Generated_Source\PSoC5/cyPm.c **** *  The Flash wait state setting is also restored.
 263:.\Generated_Source\PSoC5/cyPm.c **** *
 264:.\Generated_Source\PSoC5/cyPm.c **** *  Note If the Master Clock source is routed through the DSI inputs, then it
 265:.\Generated_Source\PSoC5/cyPm.c **** *  must be set manually to another source before using the
 266:.\Generated_Source\PSoC5/cyPm.c **** *  CyPmSaveClocks()/CyPmRestoreClocks() functions.
 267:.\Generated_Source\PSoC5/cyPm.c **** *
 268:.\Generated_Source\PSoC5/cyPm.c **** *  PSoC 3 and PSoC 5LP:
 269:.\Generated_Source\PSoC5/cyPm.c **** *  The merge region could be used to process state when the megahertz crystal is
 270:.\Generated_Source\PSoC5/cyPm.c **** *  not ready after a hold-off timeout.
 271:.\Generated_Source\PSoC5/cyPm.c **** *
 272:.\Generated_Source\PSoC5/cyPm.c **** *  PSoC 5:
 273:.\Generated_Source\PSoC5/cyPm.c **** *  The 130 ms is given for the megahertz crystal to stabilize. Its readiness is
 274:.\Generated_Source\PSoC5/cyPm.c **** *  not verified after a hold-off timeout.
 275:.\Generated_Source\PSoC5/cyPm.c **** *
 276:.\Generated_Source\PSoC5/cyPm.c **** * Parameters:
 277:.\Generated_Source\PSoC5/cyPm.c **** *  None
 278:.\Generated_Source\PSoC5/cyPm.c **** *
 279:.\Generated_Source\PSoC5/cyPm.c **** * Return:
 280:.\Generated_Source\PSoC5/cyPm.c **** *  None
 281:.\Generated_Source\PSoC5/cyPm.c **** *
 282:.\Generated_Source\PSoC5/cyPm.c **** *******************************************************************************/
 283:.\Generated_Source\PSoC5/cyPm.c **** void CyPmRestoreClocks(void) 
 284:.\Generated_Source\PSoC5/cyPm.c **** {
 285:.\Generated_Source\PSoC5/cyPm.c ****     cystatus status = CYRET_TIMEOUT;
 286:.\Generated_Source\PSoC5/cyPm.c ****     uint16 i;
 287:.\Generated_Source\PSoC5/cyPm.c ****     uint16 clkBusDivTmp;
 288:.\Generated_Source\PSoC5/cyPm.c **** 
 289:.\Generated_Source\PSoC5/cyPm.c **** 
 290:.\Generated_Source\PSoC5/cyPm.c ****     /* Convertion table between CyIMO_SetFreq() parameters and register's value */
 291:.\Generated_Source\PSoC5/cyPm.c ****     const uint8 CYCODE cyPmImoFreqMhz2Reg[7u] = {
 292:.\Generated_Source\PSoC5/cyPm.c ****         CY_IMO_FREQ_12MHZ, CY_IMO_FREQ_6MHZ,  CY_IMO_FREQ_24MHZ, CY_IMO_FREQ_3MHZ,
 293:.\Generated_Source\PSoC5/cyPm.c ****         CY_IMO_FREQ_48MHZ, 5u, 6u};
 294:.\Generated_Source\PSoC5/cyPm.c **** 
 295:.\Generated_Source\PSoC5/cyPm.c ****     /* Restore enable state of delay between system bus clock and ACLKs. */
 296:.\Generated_Source\PSoC5/cyPm.c ****     if(CY_PM_ENABLED == cyPmClockBackup.clkDistDelay)
 297:.\Generated_Source\PSoC5/cyPm.c ****     {
 298:.\Generated_Source\PSoC5/cyPm.c ****         /* Delay for both bandgap and delay line to settle out */
 299:.\Generated_Source\PSoC5/cyPm.c ****         CyDelayCycles((uint32)(CY_PM_CLK_DELAY_BANDGAP_SETTLE_US + CY_PM_CLK_DELAY_BIAS_SETTLE_US) 
 300:.\Generated_Source\PSoC5/cyPm.c ****                         CY_PM_GET_CPU_FREQ_MHZ);
 301:.\Generated_Source\PSoC5/cyPm.c **** 
 302:.\Generated_Source\PSoC5/cyPm.c ****         CY_PM_CLKDIST_DELAY_REG |= CY_PM_CLKDIST_DELAY_EN;
 303:.\Generated_Source\PSoC5/cyPm.c ****     }
 304:.\Generated_Source\PSoC5/cyPm.c **** 
 305:.\Generated_Source\PSoC5/cyPm.c ****     /* MHz ECO restore state */
 306:.\Generated_Source\PSoC5/cyPm.c ****     if(CY_PM_ENABLED == cyPmClockBackup.xmhzEnableState)
 307:.\Generated_Source\PSoC5/cyPm.c ****     {
 308:.\Generated_Source\PSoC5/cyPm.c ****         /***********************************************************************
 309:.\Generated_Source\PSoC5/cyPm.c ****         * Enabling XMHZ XTAL. The actual CyXTAL_Start() with a non zero wait
 310:.\Generated_Source\PSoC5/cyPm.c ****         * period uses FTW for period measurement. This could cause a problem
 311:.\Generated_Source\PSoC5/cyPm.c ****         * if CTW/FTW is used as a wake up time in the low power modes APIs.
 312:.\Generated_Source\PSoC5/cyPm.c ****         * So, the XTAL wait procedure is implemented with a software delay.
 313:.\Generated_Source\PSoC5/cyPm.c ****         ***********************************************************************/
 314:.\Generated_Source\PSoC5/cyPm.c **** 
 315:.\Generated_Source\PSoC5/cyPm.c ****         /* Enable XMHZ XTAL with no wait */
 316:.\Generated_Source\PSoC5/cyPm.c ****         (void) CyXTAL_Start(CY_PM_XTAL_MHZ_NO_WAIT);
 317:.\Generated_Source\PSoC5/cyPm.c **** 
ARM GAS  C:\Users\mjphi\AppData\Local\Temp\ccWjpNxZ.s 			page 7


 318:.\Generated_Source\PSoC5/cyPm.c ****         /* Read XERR bit to clear it */
 319:.\Generated_Source\PSoC5/cyPm.c ****         (void) CY_PM_FASTCLK_XMHZ_CSR_REG;
 320:.\Generated_Source\PSoC5/cyPm.c **** 
 321:.\Generated_Source\PSoC5/cyPm.c ****         /* Wait */
 322:.\Generated_Source\PSoC5/cyPm.c ****         for(i = CY_PM_MHZ_XTAL_WAIT_NUM_OF_200_US; i > 0u; i--)
 323:.\Generated_Source\PSoC5/cyPm.c ****         {
 324:.\Generated_Source\PSoC5/cyPm.c ****             /* Make a 200 microseconds delay */
 325:.\Generated_Source\PSoC5/cyPm.c ****             CyDelayCycles((uint32)CY_PM_WAIT_200_US * CY_PM_GET_CPU_FREQ_MHZ);
 326:.\Generated_Source\PSoC5/cyPm.c **** 
 327:.\Generated_Source\PSoC5/cyPm.c ****             /* High output indicates oscillator failure */
 328:.\Generated_Source\PSoC5/cyPm.c ****             if(0u == (CY_PM_FASTCLK_XMHZ_CSR_REG & CY_PM_XMHZ_CSR_XERR))
 329:.\Generated_Source\PSoC5/cyPm.c ****             {
 330:.\Generated_Source\PSoC5/cyPm.c ****                 status = CYRET_SUCCESS;
 331:.\Generated_Source\PSoC5/cyPm.c ****                 break;
 332:.\Generated_Source\PSoC5/cyPm.c ****             }
 333:.\Generated_Source\PSoC5/cyPm.c ****         }
 334:.\Generated_Source\PSoC5/cyPm.c **** 
 335:.\Generated_Source\PSoC5/cyPm.c ****         if(CYRET_TIMEOUT == status)
 336:.\Generated_Source\PSoC5/cyPm.c ****         {
 337:.\Generated_Source\PSoC5/cyPm.c ****             /*******************************************************************
 338:.\Generated_Source\PSoC5/cyPm.c ****             * Process the situation when megahertz crystal is not ready.
 339:.\Generated_Source\PSoC5/cyPm.c ****             * Time to stabilize the value is crystal specific.
 340:.\Generated_Source\PSoC5/cyPm.c ****             *******************************************************************/
 341:.\Generated_Source\PSoC5/cyPm.c ****            /* `#START_MHZ_ECO_TIMEOUT` */
 342:.\Generated_Source\PSoC5/cyPm.c **** 
 343:.\Generated_Source\PSoC5/cyPm.c ****            /* `#END` */
 344:.\Generated_Source\PSoC5/cyPm.c **** 
 345:.\Generated_Source\PSoC5/cyPm.c ****         #ifdef CY_BOOT_CY_PM_RESTORE_CLOCKS_ECO_TIMEOUT_CALLBACK
 346:.\Generated_Source\PSoC5/cyPm.c ****             CyBoot_CyPmRestoreClocks_EcoTimeout_Callback();
 347:.\Generated_Source\PSoC5/cyPm.c ****         #endif /* CY_BOOT_CY_PM_RESTORE_CLOCKS_ECO_TIMEOUT_CALLBACK */
 348:.\Generated_Source\PSoC5/cyPm.c ****         }
 349:.\Generated_Source\PSoC5/cyPm.c ****     }   /* (CY_PM_ENABLED == cyPmClockBackup.xmhzEnableState) */
 350:.\Generated_Source\PSoC5/cyPm.c **** 
 351:.\Generated_Source\PSoC5/cyPm.c **** 
 352:.\Generated_Source\PSoC5/cyPm.c ****     /* Temporary set maximum flash wait cycles */
 353:.\Generated_Source\PSoC5/cyPm.c ****     CyFlash_SetWaitCycles(CY_PM_MAX_FLASH_WAIT_CYCLES);
 354:.\Generated_Source\PSoC5/cyPm.c **** 
 355:.\Generated_Source\PSoC5/cyPm.c ****     /* XTAL and DSI clocks are ready to be source for Master clock. */
 356:.\Generated_Source\PSoC5/cyPm.c ****     if((CY_PM_MASTER_CLK_SRC_XTAL == cyPmClockBackup.masterClkSrc) ||
 357:.\Generated_Source\PSoC5/cyPm.c ****        (CY_PM_MASTER_CLK_SRC_DSI  == cyPmClockBackup.masterClkSrc))
 358:.\Generated_Source\PSoC5/cyPm.c ****     {
 359:.\Generated_Source\PSoC5/cyPm.c ****         /* Restore Master clock's divider */
 360:.\Generated_Source\PSoC5/cyPm.c ****         if(CY_PM_CLKDIST_MSTR0_REG != cyPmClockBackup.clkSyncDiv)
 361:.\Generated_Source\PSoC5/cyPm.c ****         {
 362:.\Generated_Source\PSoC5/cyPm.c ****             /* Restore Master clock divider */
 363:.\Generated_Source\PSoC5/cyPm.c ****             CyMasterClk_SetDivider(cyPmClockBackup.clkSyncDiv);
 364:.\Generated_Source\PSoC5/cyPm.c ****         }
 365:.\Generated_Source\PSoC5/cyPm.c **** 
 366:.\Generated_Source\PSoC5/cyPm.c ****         /* Restore Master clock source */
 367:.\Generated_Source\PSoC5/cyPm.c ****         CyMasterClk_SetSource(cyPmClockBackup.masterClkSrc);
 368:.\Generated_Source\PSoC5/cyPm.c ****     }
 369:.\Generated_Source\PSoC5/cyPm.c **** 
 370:.\Generated_Source\PSoC5/cyPm.c ****     /* IMO - restore IMO frequency */
 371:.\Generated_Source\PSoC5/cyPm.c ****     if((0u != (cyPmClockBackup.imoUsbClk & CY_PM_FASTCLK_IMO_CR_USB)) &&
 372:.\Generated_Source\PSoC5/cyPm.c ****         (CY_IMO_FREQ_24MHZ == cyPmImoFreqMhz2Reg[cyPmClockBackup.imoFreq]))
 373:.\Generated_Source\PSoC5/cyPm.c ****     {
 374:.\Generated_Source\PSoC5/cyPm.c ****         /* Restore IMO frequency (24 MHz) and trim it for USB */
ARM GAS  C:\Users\mjphi\AppData\Local\Temp\ccWjpNxZ.s 			page 8


 375:.\Generated_Source\PSoC5/cyPm.c ****         CyIMO_SetFreq(CY_IMO_FREQ_USB);
 376:.\Generated_Source\PSoC5/cyPm.c ****     }
 377:.\Generated_Source\PSoC5/cyPm.c ****     else
 378:.\Generated_Source\PSoC5/cyPm.c ****     {
 379:.\Generated_Source\PSoC5/cyPm.c ****         /* Restore IMO frequency */
 380:.\Generated_Source\PSoC5/cyPm.c ****         CyIMO_SetFreq(cyPmImoFreqMhz2Reg[cyPmClockBackup.imoFreq]);
 381:.\Generated_Source\PSoC5/cyPm.c **** 
 382:.\Generated_Source\PSoC5/cyPm.c ****         if(0u != (cyPmClockBackup.imoUsbClk & CY_PM_FASTCLK_IMO_CR_USB))
 383:.\Generated_Source\PSoC5/cyPm.c ****         {
 384:.\Generated_Source\PSoC5/cyPm.c ****             CY_PM_FASTCLK_IMO_CR_REG |= CY_PM_FASTCLK_IMO_CR_USB;
 385:.\Generated_Source\PSoC5/cyPm.c ****         }
 386:.\Generated_Source\PSoC5/cyPm.c ****         else
 387:.\Generated_Source\PSoC5/cyPm.c ****         {
 388:.\Generated_Source\PSoC5/cyPm.c ****             CY_PM_FASTCLK_IMO_CR_REG &= ((uint8)(~CY_PM_FASTCLK_IMO_CR_USB));
 389:.\Generated_Source\PSoC5/cyPm.c ****         }
 390:.\Generated_Source\PSoC5/cyPm.c ****     }
 391:.\Generated_Source\PSoC5/cyPm.c **** 
 392:.\Generated_Source\PSoC5/cyPm.c ****     /* IMO - restore enable state if needed */
 393:.\Generated_Source\PSoC5/cyPm.c ****     if((CY_PM_ENABLED == cyPmClockBackup.imoEnable) &&
 394:.\Generated_Source\PSoC5/cyPm.c ****        (0u == (CY_PM_ACT_CFG0_IMO & CY_PM_ACT_CFG0_REG)))
 395:.\Generated_Source\PSoC5/cyPm.c ****     {
 396:.\Generated_Source\PSoC5/cyPm.c ****         /* IMO - restore enabled state */
 397:.\Generated_Source\PSoC5/cyPm.c ****         CyIMO_Start(CY_PM_IMO_NO_WAIT_TO_SETTLE);
 398:.\Generated_Source\PSoC5/cyPm.c ****     }
 399:.\Generated_Source\PSoC5/cyPm.c **** 
 400:.\Generated_Source\PSoC5/cyPm.c ****     /* IMO - restore IMOCLK source */
 401:.\Generated_Source\PSoC5/cyPm.c ****     CyIMO_SetSource(cyPmClockBackup.imoClkSrc);
 402:.\Generated_Source\PSoC5/cyPm.c **** 
 403:.\Generated_Source\PSoC5/cyPm.c ****     /* Restore IMO doubler enable state (turned off by CyPmSaveClocks()) */
 404:.\Generated_Source\PSoC5/cyPm.c ****     if(CY_PM_ENABLED == cyPmClockBackup.imo2x)
 405:.\Generated_Source\PSoC5/cyPm.c ****     {
 406:.\Generated_Source\PSoC5/cyPm.c ****         CyIMO_EnableDoubler();
 407:.\Generated_Source\PSoC5/cyPm.c ****     }
 408:.\Generated_Source\PSoC5/cyPm.c **** 
 409:.\Generated_Source\PSoC5/cyPm.c ****     /* IMO - restore clk_imo source, if needed */
 410:.\Generated_Source\PSoC5/cyPm.c ****     if(cyPmClockBackup.clkImoSrc != (CY_PM_CLKDIST_CR_REG & CY_PM_CLKDIST_IMO_OUT_MASK))
 411:.\Generated_Source\PSoC5/cyPm.c ****     {
 412:.\Generated_Source\PSoC5/cyPm.c ****         CY_PM_CLKDIST_CR_REG = (CY_PM_CLKDIST_CR_REG & ((uint8)(~CY_PM_CLKDIST_IMO_OUT_MASK))) |
 413:.\Generated_Source\PSoC5/cyPm.c ****                                 cyPmClockBackup.clkImoSrc;
 414:.\Generated_Source\PSoC5/cyPm.c ****     }
 415:.\Generated_Source\PSoC5/cyPm.c **** 
 416:.\Generated_Source\PSoC5/cyPm.c **** 
 417:.\Generated_Source\PSoC5/cyPm.c ****     /* PLL restore state */
 418:.\Generated_Source\PSoC5/cyPm.c ****     if(CY_PM_ENABLED == cyPmClockBackup.pllEnableState)
 419:.\Generated_Source\PSoC5/cyPm.c ****     {
 420:.\Generated_Source\PSoC5/cyPm.c ****         /***********************************************************************
 421:.\Generated_Source\PSoC5/cyPm.c ****         * Enable PLL. The actual CyPLL_OUT_Start() without wait period uses FTW
 422:.\Generated_Source\PSoC5/cyPm.c ****         * for period measurement. This could cause a problem if CTW/FTW is used
 423:.\Generated_Source\PSoC5/cyPm.c ****         * as a wakeup time in the low power modes APIs. To omit this issue PLL
 424:.\Generated_Source\PSoC5/cyPm.c ****         * wait procedure is implemented with a software delay.
 425:.\Generated_Source\PSoC5/cyPm.c ****         ***********************************************************************/
 426:.\Generated_Source\PSoC5/cyPm.c ****         status = CYRET_TIMEOUT;
 427:.\Generated_Source\PSoC5/cyPm.c **** 
 428:.\Generated_Source\PSoC5/cyPm.c ****         /* Enable PLL */
 429:.\Generated_Source\PSoC5/cyPm.c ****         (void) CyPLL_OUT_Start(CY_PM_PLL_OUT_NO_WAIT);
 430:.\Generated_Source\PSoC5/cyPm.c **** 
 431:.\Generated_Source\PSoC5/cyPm.c ****         /* Read to clear lock status after delay */
ARM GAS  C:\Users\mjphi\AppData\Local\Temp\ccWjpNxZ.s 			page 9


 432:.\Generated_Source\PSoC5/cyPm.c ****         CyDelayUs((uint32)80u);
 433:.\Generated_Source\PSoC5/cyPm.c ****         (void) CY_PM_FASTCLK_PLL_SR_REG;
 434:.\Generated_Source\PSoC5/cyPm.c **** 
 435:.\Generated_Source\PSoC5/cyPm.c ****         /* It should take 250 us lock: 251-80 = 171 */
 436:.\Generated_Source\PSoC5/cyPm.c ****         for(i = 171u; i > 0u; i--)
 437:.\Generated_Source\PSoC5/cyPm.c ****         {
 438:.\Generated_Source\PSoC5/cyPm.c ****             CyDelayUs((uint32)1u);
 439:.\Generated_Source\PSoC5/cyPm.c **** 
 440:.\Generated_Source\PSoC5/cyPm.c ****             /* Accept PLL is OK after two consecutive polls indicate PLL lock */
 441:.\Generated_Source\PSoC5/cyPm.c ****             if((0u != (CY_PM_FASTCLK_PLL_SR_REG & CY_PM_FASTCLK_PLL_LOCKED)) &&
 442:.\Generated_Source\PSoC5/cyPm.c ****                (0u != (CY_PM_FASTCLK_PLL_SR_REG & CY_PM_FASTCLK_PLL_LOCKED)))
 443:.\Generated_Source\PSoC5/cyPm.c ****             {
 444:.\Generated_Source\PSoC5/cyPm.c ****                 status = CYRET_SUCCESS;
 445:.\Generated_Source\PSoC5/cyPm.c ****                 break;
 446:.\Generated_Source\PSoC5/cyPm.c ****             }
 447:.\Generated_Source\PSoC5/cyPm.c ****         }
 448:.\Generated_Source\PSoC5/cyPm.c **** 
 449:.\Generated_Source\PSoC5/cyPm.c ****         if(CYRET_TIMEOUT == status)
 450:.\Generated_Source\PSoC5/cyPm.c ****         {
 451:.\Generated_Source\PSoC5/cyPm.c ****             /*******************************************************************
 452:.\Generated_Source\PSoC5/cyPm.c ****             * Process the situation when PLL is not ready.
 453:.\Generated_Source\PSoC5/cyPm.c ****             *******************************************************************/
 454:.\Generated_Source\PSoC5/cyPm.c ****            /* `#START_PLL_TIMEOUT` */
 455:.\Generated_Source\PSoC5/cyPm.c **** 
 456:.\Generated_Source\PSoC5/cyPm.c ****            /* `#END` */
 457:.\Generated_Source\PSoC5/cyPm.c **** 
 458:.\Generated_Source\PSoC5/cyPm.c ****         #ifdef CY_BOOT_CY_PM_RESTORE_CLOCKS_PLL_TIMEOUT_CALLBACK
 459:.\Generated_Source\PSoC5/cyPm.c ****             CyBoot_CyPmRestoreClocks_PllTimeout_Callback();
 460:.\Generated_Source\PSoC5/cyPm.c ****         #endif /* CY_BOOT_CY_PM_RESTORE_CLOCKS_PLL_TIMEOUT_CALLBACK */
 461:.\Generated_Source\PSoC5/cyPm.c ****         }
 462:.\Generated_Source\PSoC5/cyPm.c ****     }   /* (CY_PM_ENABLED == cyPmClockBackup.pllEnableState) */
 463:.\Generated_Source\PSoC5/cyPm.c **** 
 464:.\Generated_Source\PSoC5/cyPm.c **** 
 465:.\Generated_Source\PSoC5/cyPm.c ****     /* PLL and IMO is ready to be source for Master clock */
 466:.\Generated_Source\PSoC5/cyPm.c ****     if((CY_PM_MASTER_CLK_SRC_IMO == cyPmClockBackup.masterClkSrc) ||
 467:.\Generated_Source\PSoC5/cyPm.c ****        (CY_PM_MASTER_CLK_SRC_PLL == cyPmClockBackup.masterClkSrc))
 468:.\Generated_Source\PSoC5/cyPm.c ****     {
 469:.\Generated_Source\PSoC5/cyPm.c ****         /* Restore Master clock divider */
 470:.\Generated_Source\PSoC5/cyPm.c ****         if(CY_PM_CLKDIST_MSTR0_REG != cyPmClockBackup.clkSyncDiv)
 471:.\Generated_Source\PSoC5/cyPm.c ****         {
 472:.\Generated_Source\PSoC5/cyPm.c ****             CyMasterClk_SetDivider(cyPmClockBackup.clkSyncDiv);
 473:.\Generated_Source\PSoC5/cyPm.c ****         }
 474:.\Generated_Source\PSoC5/cyPm.c **** 
 475:.\Generated_Source\PSoC5/cyPm.c ****         /* Restore Master clock source */
 476:.\Generated_Source\PSoC5/cyPm.c ****         CyMasterClk_SetSource(cyPmClockBackup.masterClkSrc);
 477:.\Generated_Source\PSoC5/cyPm.c ****     }
 478:.\Generated_Source\PSoC5/cyPm.c **** 
 479:.\Generated_Source\PSoC5/cyPm.c ****     /* IMO - disable if it was originally disabled */
 480:.\Generated_Source\PSoC5/cyPm.c ****     if((CY_PM_DISABLED == cyPmClockBackup.imoEnable) &&
 481:.\Generated_Source\PSoC5/cyPm.c ****        (0u != (CY_PM_ACT_CFG0_IMO & CY_PM_ACT_CFG0_REG)))
 482:.\Generated_Source\PSoC5/cyPm.c ****     {
 483:.\Generated_Source\PSoC5/cyPm.c ****         CyIMO_Stop();
 484:.\Generated_Source\PSoC5/cyPm.c ****     }
 485:.\Generated_Source\PSoC5/cyPm.c **** 
 486:.\Generated_Source\PSoC5/cyPm.c ****     /* Bus clock - restore divider, if needed */
 487:.\Generated_Source\PSoC5/cyPm.c ****     clkBusDivTmp = (uint16) ((uint16)CY_PM_CLK_BUS_MSB_DIV_REG << 8u);
 488:.\Generated_Source\PSoC5/cyPm.c ****     clkBusDivTmp |= CY_PM_CLK_BUS_LSB_DIV_REG;
ARM GAS  C:\Users\mjphi\AppData\Local\Temp\ccWjpNxZ.s 			page 10


 489:.\Generated_Source\PSoC5/cyPm.c ****     if(cyPmClockBackup.clkBusDiv != clkBusDivTmp)
 490:.\Generated_Source\PSoC5/cyPm.c ****     {
 491:.\Generated_Source\PSoC5/cyPm.c ****         CyBusClk_SetDivider(cyPmClockBackup.clkBusDiv);
 492:.\Generated_Source\PSoC5/cyPm.c ****     }
 493:.\Generated_Source\PSoC5/cyPm.c **** 
 494:.\Generated_Source\PSoC5/cyPm.c ****     /* Restore flash wait cycles */
 495:.\Generated_Source\PSoC5/cyPm.c ****     CY_PM_CACHE_CR_REG = ((CY_PM_CACHE_CR_REG & ((uint8)(~CY_PM_CACHE_CR_CYCLES_MASK))) |
 496:.\Generated_Source\PSoC5/cyPm.c ****                            cyPmClockBackup.flashWaitCycles);
 497:.\Generated_Source\PSoC5/cyPm.c **** 
 498:.\Generated_Source\PSoC5/cyPm.c ****     /* Digital and analog clocks - restore state */
 499:.\Generated_Source\PSoC5/cyPm.c ****     CY_PM_ACT_CFG1_REG = cyPmClockBackup.enClkA;
 500:.\Generated_Source\PSoC5/cyPm.c ****     CY_PM_ACT_CFG2_REG = cyPmClockBackup.enClkD;
 501:.\Generated_Source\PSoC5/cyPm.c **** }
 502:.\Generated_Source\PSoC5/cyPm.c **** 
 503:.\Generated_Source\PSoC5/cyPm.c **** 
 504:.\Generated_Source\PSoC5/cyPm.c **** /*******************************************************************************
 505:.\Generated_Source\PSoC5/cyPm.c **** * Function Name: CyPmAltAct
 506:.\Generated_Source\PSoC5/cyPm.c **** ********************************************************************************
 507:.\Generated_Source\PSoC5/cyPm.c **** *
 508:.\Generated_Source\PSoC5/cyPm.c **** * Summary:
 509:.\Generated_Source\PSoC5/cyPm.c **** *  Puts the part into the Alternate Active (Standby) state. The Alternate Active
 510:.\Generated_Source\PSoC5/cyPm.c **** *  state can allow for any of the capabilities of the device to be active, but
 511:.\Generated_Source\PSoC5/cyPm.c **** *  the operation of this function is dependent on the CPU being disabled during
 512:.\Generated_Source\PSoC5/cyPm.c **** *  the Alternate Active state. The configuration code and the component APIs
 513:.\Generated_Source\PSoC5/cyPm.c **** *  will configure the template for the Alternate Active state to be the same as
 514:.\Generated_Source\PSoC5/cyPm.c **** *  the Active state with the exception that the CPU will be disabled during
 515:.\Generated_Source\PSoC5/cyPm.c **** *  Alternate Active.
 516:.\Generated_Source\PSoC5/cyPm.c **** *
 517:.\Generated_Source\PSoC5/cyPm.c **** *  Note Before calling this function, you must manually configure the power mode
 518:.\Generated_Source\PSoC5/cyPm.c **** *  of the source clocks for the timer that is used as the wakeup timer.
 519:.\Generated_Source\PSoC5/cyPm.c **** *
 520:.\Generated_Source\PSoC5/cyPm.c **** *  PSoC 3:
 521:.\Generated_Source\PSoC5/cyPm.c **** *  Before switching to Alternate Active, if a wakeupTime other than NONE is
 522:.\Generated_Source\PSoC5/cyPm.c **** *  specified, then the appropriate timer state is configured as specified with
 523:.\Generated_Source\PSoC5/cyPm.c **** *  the interrupt for that timer disabled.  The wakeup source will be the
 524:.\Generated_Source\PSoC5/cyPm.c **** *  combination of the values specified in the wakeupSource and any timer
 525:.\Generated_Source\PSoC5/cyPm.c **** *  specified in the wakeupTime argument.  Once the wakeup condition is
 526:.\Generated_Source\PSoC5/cyPm.c **** *  satisfied, then all saved state is restored and the function returns in the
 527:.\Generated_Source\PSoC5/cyPm.c **** *  Active state.
 528:.\Generated_Source\PSoC5/cyPm.c **** *
 529:.\Generated_Source\PSoC5/cyPm.c **** *  Note that if the wakeupTime is made with a different value, the period before
 530:.\Generated_Source\PSoC5/cyPm.c **** *  the wakeup occurs can be significantly shorter than the specified time.  If
 531:.\Generated_Source\PSoC5/cyPm.c **** *  the next call is made with the same wakeupTime value, then the wakeup will
 532:.\Generated_Source\PSoC5/cyPm.c **** *  occur the specified period after the previous wakeup occurred.
 533:.\Generated_Source\PSoC5/cyPm.c **** *
 534:.\Generated_Source\PSoC5/cyPm.c **** *  If a wakeupTime other than NONE is specified, then upon exit the state of the
 535:.\Generated_Source\PSoC5/cyPm.c **** *  specified timer will be left as specified by wakeupTime with the timer
 536:.\Generated_Source\PSoC5/cyPm.c **** *  enabled and the interrupt disabled.  If the CTW, FTW or One PPS is already
 537:.\Generated_Source\PSoC5/cyPm.c **** *  configured for wakeup, for example with the SleepTimer or RTC components,
 538:.\Generated_Source\PSoC5/cyPm.c **** *  then specify NONE for the wakeupTime and include the appropriate source for
 539:.\Generated_Source\PSoC5/cyPm.c **** *  wakeupSource.
 540:.\Generated_Source\PSoC5/cyPm.c **** *
 541:.\Generated_Source\PSoC5/cyPm.c **** *  PSoC 5LP:
 542:.\Generated_Source\PSoC5/cyPm.c **** *  This function is used to both enter the Alternate Active mode and halt the
 543:.\Generated_Source\PSoC5/cyPm.c **** *  processor.  For PSoC 3 these two actions must be paired together.  With PSoC
 544:.\Generated_Source\PSoC5/cyPm.c **** *  5LP the processor can be halted independently with the __WFI() function from
 545:.\Generated_Source\PSoC5/cyPm.c **** *  the CMSIS library that is included in Creator.  This function should be used
ARM GAS  C:\Users\mjphi\AppData\Local\Temp\ccWjpNxZ.s 			page 11


 546:.\Generated_Source\PSoC5/cyPm.c **** *  instead when the action required is just to halt the processor until an
 547:.\Generated_Source\PSoC5/cyPm.c **** *  enabled interrupt occurs.
 548:.\Generated_Source\PSoC5/cyPm.c **** *
 549:.\Generated_Source\PSoC5/cyPm.c **** *  The wakeupTime parameter is not used for this device. It must be set to zero
 550:.\Generated_Source\PSoC5/cyPm.c **** *  (PM_ALT_ACT_TIME_NONE). The wake up time configuration can be done by a
 551:.\Generated_Source\PSoC5/cyPm.c **** *  separate component: the CTW wakeup interval should be configured with the
 552:.\Generated_Source\PSoC5/cyPm.c **** *  Sleep Timer component and one second interval should be configured with the
 553:.\Generated_Source\PSoC5/cyPm.c **** *  RTC component.
 554:.\Generated_Source\PSoC5/cyPm.c **** *
 555:.\Generated_Source\PSoC5/cyPm.c **** *  The wakeup behavior depends on the wakeupSource parameter in the following
 556:.\Generated_Source\PSoC5/cyPm.c **** *  manner: upon function execution the device will be switched from Active to
 557:.\Generated_Source\PSoC5/cyPm.c **** *  Alternate Active mode and then the CPU will be halted. When an enabled wakeup
 558:.\Generated_Source\PSoC5/cyPm.c **** *  event occurs the device will return to Active mode.  Similarly when an
 559:.\Generated_Source\PSoC5/cyPm.c **** *  enabled interrupt occurs the CPU will be started. These two actions will
 560:.\Generated_Source\PSoC5/cyPm.c **** *  occur together provided that the event that occurs is an enabled wakeup
 561:.\Generated_Source\PSoC5/cyPm.c **** *  source and also generates an interrupt. If just the wakeup event occurs then
 562:.\Generated_Source\PSoC5/cyPm.c **** *  the device will be in Active mode, but the CPU will remain halted waiting for
 563:.\Generated_Source\PSoC5/cyPm.c **** *  an interrupt. If an interrupt occurs from something other than a wakeup
 564:.\Generated_Source\PSoC5/cyPm.c **** *  source, then the CPU will restart with the device in Alternate Active mode
 565:.\Generated_Source\PSoC5/cyPm.c **** *  until a wakeup event occurs.
 566:.\Generated_Source\PSoC5/cyPm.c **** *
 567:.\Generated_Source\PSoC5/cyPm.c **** *  For example, if CyPmAltAct(PM_ALT_ACT_TIME_NONE, PM_ALT_ACT_SRC_PICU) is
 568:.\Generated_Source\PSoC5/cyPm.c **** *  called and PICU interrupt occurs, the CPU will be started and device will be
 569:.\Generated_Source\PSoC5/cyPm.c **** *  switched into Active mode. And if CyPmAltAct(PM_ALT_ACT_TIME_NONE,
 570:.\Generated_Source\PSoC5/cyPm.c **** *  PM_ALT_ACT_SRC_NONE) is called and PICU interrupt occurs, the CPU will be
 571:.\Generated_Source\PSoC5/cyPm.c **** *  started while device remains in Alternate Active mode.
 572:.\Generated_Source\PSoC5/cyPm.c **** *
 573:.\Generated_Source\PSoC5/cyPm.c **** * Parameters:
 574:.\Generated_Source\PSoC5/cyPm.c **** *  wakeupTime: Specifies a timer wakeup source and the frequency of that
 575:.\Generated_Source\PSoC5/cyPm.c **** *              source. For PSoC 5LP this parameter is ignored.
 576:.\Generated_Source\PSoC5/cyPm.c **** *
 577:.\Generated_Source\PSoC5/cyPm.c **** *           Define                      Time
 578:.\Generated_Source\PSoC5/cyPm.c **** *  PM_ALT_ACT_TIME_NONE             None
 579:.\Generated_Source\PSoC5/cyPm.c **** *  PM_ALT_ACT_TIME_ONE_PPS          One PPS: 1 second
 580:.\Generated_Source\PSoC5/cyPm.c **** *  PM_ALT_ACT_TIME_CTW_2MS          CTW: 2 ms
 581:.\Generated_Source\PSoC5/cyPm.c **** *  PM_ALT_ACT_TIME_CTW_4MS          CTW: 4 ms
 582:.\Generated_Source\PSoC5/cyPm.c **** *  PM_ALT_ACT_TIME_CTW_8MS          CTW: 8 ms
 583:.\Generated_Source\PSoC5/cyPm.c **** *  PM_ALT_ACT_TIME_CTW_16MS         CTW: 16 ms
 584:.\Generated_Source\PSoC5/cyPm.c **** *  PM_ALT_ACT_TIME_CTW_32MS         CTW: 32 ms
 585:.\Generated_Source\PSoC5/cyPm.c **** *  PM_ALT_ACT_TIME_CTW_64MS         CTW: 64 ms
 586:.\Generated_Source\PSoC5/cyPm.c **** *  PM_ALT_ACT_TIME_CTW_128MS        CTW: 128 ms
 587:.\Generated_Source\PSoC5/cyPm.c **** *  PM_ALT_ACT_TIME_CTW_256MS        CTW: 256 ms
 588:.\Generated_Source\PSoC5/cyPm.c **** *  PM_ALT_ACT_TIME_CTW_512MS        CTW: 512 ms
 589:.\Generated_Source\PSoC5/cyPm.c **** *  PM_ALT_ACT_TIME_CTW_1024MS       CTW: 1024 ms
 590:.\Generated_Source\PSoC5/cyPm.c **** *  PM_ALT_ACT_TIME_CTW_2048MS       CTW: 2048 ms
 591:.\Generated_Source\PSoC5/cyPm.c **** *  PM_ALT_ACT_TIME_CTW_4096MS       CTW: 4096 ms
 592:.\Generated_Source\PSoC5/cyPm.c **** *  PM_ALT_ACT_TIME_FTW(1-256)*       FTW: 10us to 2.56 ms
 593:.\Generated_Source\PSoC5/cyPm.c **** *
 594:.\Generated_Source\PSoC5/cyPm.c **** *  *Note:   PM_ALT_ACT_TIME_FTW() is a macro that takes an argument that
 595:.\Generated_Source\PSoC5/cyPm.c **** *           specifies how many increments of 10 us to delay.
 596:.\Generated_Source\PSoC5/cyPm.c ****             For PSoC 3 silicon the valid range of  values is 1 to 256.
 597:.\Generated_Source\PSoC5/cyPm.c **** *
 598:.\Generated_Source\PSoC5/cyPm.c **** *  wakeUpSource:    Specifies a bitwise mask of wakeup sources. In addition, if
 599:.\Generated_Source\PSoC5/cyPm.c **** *                   a wakeupTime has been specified, the associated timer will
 600:.\Generated_Source\PSoC5/cyPm.c **** *                   be included as a wakeup source.
 601:.\Generated_Source\PSoC5/cyPm.c **** *
 602:.\Generated_Source\PSoC5/cyPm.c **** *           Define                      Source
ARM GAS  C:\Users\mjphi\AppData\Local\Temp\ccWjpNxZ.s 			page 12


 603:.\Generated_Source\PSoC5/cyPm.c **** *  PM_ALT_ACT_SRC_NONE              None
 604:.\Generated_Source\PSoC5/cyPm.c **** *  PM_ALT_ACT_SRC_COMPARATOR0       Comparator 0
 605:.\Generated_Source\PSoC5/cyPm.c **** *  PM_ALT_ACT_SRC_COMPARATOR1       Comparator 1
 606:.\Generated_Source\PSoC5/cyPm.c **** *  PM_ALT_ACT_SRC_COMPARATOR2       Comparator 2
 607:.\Generated_Source\PSoC5/cyPm.c **** *  PM_ALT_ACT_SRC_COMPARATOR3       Comparator 3
 608:.\Generated_Source\PSoC5/cyPm.c **** *  PM_ALT_ACT_SRC_INTERRUPT         Interrupt
 609:.\Generated_Source\PSoC5/cyPm.c **** *  PM_ALT_ACT_SRC_PICU              PICU
 610:.\Generated_Source\PSoC5/cyPm.c **** *  PM_ALT_ACT_SRC_I2C               I2C
 611:.\Generated_Source\PSoC5/cyPm.c **** *  PM_ALT_ACT_SRC_BOOSTCONVERTER    Boost Converter
 612:.\Generated_Source\PSoC5/cyPm.c **** *  PM_ALT_ACT_SRC_FTW               Fast Timewheel*
 613:.\Generated_Source\PSoC5/cyPm.c **** *  PM_ALT_ACT_SRC_VD                High and Low Voltage Detection (HVI, LVI)*
 614:.\Generated_Source\PSoC5/cyPm.c **** *  PM_ALT_ACT_SRC_CTW               Central Timewheel**
 615:.\Generated_Source\PSoC5/cyPm.c **** *  PM_ALT_ACT_SRC_ONE_PPS           One PPS**
 616:.\Generated_Source\PSoC5/cyPm.c **** *  PM_ALT_ACT_SRC_LCD               LCD
 617:.\Generated_Source\PSoC5/cyPm.c **** *
 618:.\Generated_Source\PSoC5/cyPm.c **** *  *Note : FTW and HVI/LVI wakeup signals are in the same mask bit.
 619:.\Generated_Source\PSoC5/cyPm.c **** *  **Note: CTW and One PPS wakeup signals are in the same mask bit.
 620:.\Generated_Source\PSoC5/cyPm.c **** *
 621:.\Generated_Source\PSoC5/cyPm.c **** *  When specifying a Comparator as the wakeupSource, an instance specific define
 622:.\Generated_Source\PSoC5/cyPm.c **** *  that will track with the specific comparator that the instance
 623:.\Generated_Source\PSoC5/cyPm.c **** *  is placed into should be used. As an example, for a Comparator instance named
 624:.\Generated_Source\PSoC5/cyPm.c **** *  MyComp the value to OR into the mask is: MyComp_ctComp__CMP_MASK.
 625:.\Generated_Source\PSoC5/cyPm.c **** *
 626:.\Generated_Source\PSoC5/cyPm.c **** *  When CTW, FTW or One PPS is used as a wakeup source, the CyPmReadStatus()
 627:.\Generated_Source\PSoC5/cyPm.c **** *  function must be called upon wakeup with a corresponding parameter. Please
 628:.\Generated_Source\PSoC5/cyPm.c **** *  refer to the CyPmReadStatus() API in the System Reference Guide for more
 629:.\Generated_Source\PSoC5/cyPm.c **** *  information.
 630:.\Generated_Source\PSoC5/cyPm.c **** *
 631:.\Generated_Source\PSoC5/cyPm.c **** * Return:
 632:.\Generated_Source\PSoC5/cyPm.c **** *  None
 633:.\Generated_Source\PSoC5/cyPm.c **** *
 634:.\Generated_Source\PSoC5/cyPm.c **** * Reentrant:
 635:.\Generated_Source\PSoC5/cyPm.c **** *  No
 636:.\Generated_Source\PSoC5/cyPm.c **** *
 637:.\Generated_Source\PSoC5/cyPm.c **** * Side Effects:
 638:.\Generated_Source\PSoC5/cyPm.c **** *  If a wakeupTime other than NONE is specified, then upon exit the state of the
 639:.\Generated_Source\PSoC5/cyPm.c **** *  specified timer will be left as specified by wakeupTime with the timer
 640:.\Generated_Source\PSoC5/cyPm.c **** *  enabled and the interrupt disabled.  Also, the ILO 1 KHz (if CTW timer is
 641:.\Generated_Source\PSoC5/cyPm.c **** *  used as wakeup time) or ILO 100 KHz (if the FTW timer is used as wakeup time)
 642:.\Generated_Source\PSoC5/cyPm.c **** *  will be left started.
 643:.\Generated_Source\PSoC5/cyPm.c **** *
 644:.\Generated_Source\PSoC5/cyPm.c **** *******************************************************************************/
 645:.\Generated_Source\PSoC5/cyPm.c **** void CyPmAltAct(uint16 wakeupTime, uint16 wakeupSource) 
 646:.\Generated_Source\PSoC5/cyPm.c **** {
 647:.\Generated_Source\PSoC5/cyPm.c ****     #if(CY_PSOC5)
 648:.\Generated_Source\PSoC5/cyPm.c **** 
 649:.\Generated_Source\PSoC5/cyPm.c ****         /* Arguments expected to be 0 */
 650:.\Generated_Source\PSoC5/cyPm.c ****         CYASSERT(PM_ALT_ACT_TIME_NONE == wakeupTime);
 651:.\Generated_Source\PSoC5/cyPm.c **** 
 652:.\Generated_Source\PSoC5/cyPm.c ****         if(0u != wakeupTime)
 653:.\Generated_Source\PSoC5/cyPm.c ****         {
 654:.\Generated_Source\PSoC5/cyPm.c ****             /* To remove unreferenced local variable warning */
 655:.\Generated_Source\PSoC5/cyPm.c ****         }
 656:.\Generated_Source\PSoC5/cyPm.c **** 
 657:.\Generated_Source\PSoC5/cyPm.c ****     #endif /* (CY_PSOC5) */
 658:.\Generated_Source\PSoC5/cyPm.c **** 
 659:.\Generated_Source\PSoC5/cyPm.c **** 
ARM GAS  C:\Users\mjphi\AppData\Local\Temp\ccWjpNxZ.s 			page 13


 660:.\Generated_Source\PSoC5/cyPm.c ****     #if(CY_PSOC3)
 661:.\Generated_Source\PSoC5/cyPm.c **** 
 662:.\Generated_Source\PSoC5/cyPm.c ****         /* FTW - save current and set new configuration */
 663:.\Generated_Source\PSoC5/cyPm.c ****         if((wakeupTime >= PM_ALT_ACT_TIME_FTW(1u)) && (wakeupTime <= PM_ALT_ACT_TIME_FTW(256u)))
 664:.\Generated_Source\PSoC5/cyPm.c ****         {
 665:.\Generated_Source\PSoC5/cyPm.c ****             CyPmFtwSetInterval(PM_ALT_ACT_FTW_INTERVAL(wakeupTime));
 666:.\Generated_Source\PSoC5/cyPm.c **** 
 667:.\Generated_Source\PSoC5/cyPm.c ****             /* Include associated timer to wakeupSource */
 668:.\Generated_Source\PSoC5/cyPm.c ****             wakeupSource |= PM_ALT_ACT_SRC_FTW;
 669:.\Generated_Source\PSoC5/cyPm.c ****         }
 670:.\Generated_Source\PSoC5/cyPm.c **** 
 671:.\Generated_Source\PSoC5/cyPm.c ****         /* CTW - save current and set new configuration */
 672:.\Generated_Source\PSoC5/cyPm.c ****         if((wakeupTime >= PM_ALT_ACT_TIME_CTW_2MS) && (wakeupTime <= PM_ALT_ACT_TIME_CTW_4096MS))
 673:.\Generated_Source\PSoC5/cyPm.c ****         {
 674:.\Generated_Source\PSoC5/cyPm.c ****             /* Save current CTW configuration and set new one */
 675:.\Generated_Source\PSoC5/cyPm.c ****             CyPmCtwSetInterval((uint8)(wakeupTime - 1u));
 676:.\Generated_Source\PSoC5/cyPm.c **** 
 677:.\Generated_Source\PSoC5/cyPm.c ****             /* Include associated timer to wakeupSource */
 678:.\Generated_Source\PSoC5/cyPm.c ****             wakeupSource |= PM_ALT_ACT_SRC_CTW;
 679:.\Generated_Source\PSoC5/cyPm.c ****         }
 680:.\Generated_Source\PSoC5/cyPm.c **** 
 681:.\Generated_Source\PSoC5/cyPm.c ****         /* 1PPS - save current and set new configuration */
 682:.\Generated_Source\PSoC5/cyPm.c ****         if(PM_ALT_ACT_TIME_ONE_PPS == wakeupTime)
 683:.\Generated_Source\PSoC5/cyPm.c ****         {
 684:.\Generated_Source\PSoC5/cyPm.c ****             /* Save current 1PPS configuration and set new one */
 685:.\Generated_Source\PSoC5/cyPm.c ****             CyPmOppsSet();
 686:.\Generated_Source\PSoC5/cyPm.c **** 
 687:.\Generated_Source\PSoC5/cyPm.c ****             /* Include associated timer to wakeupSource */
 688:.\Generated_Source\PSoC5/cyPm.c ****             wakeupSource |= PM_ALT_ACT_SRC_ONE_PPS;
 689:.\Generated_Source\PSoC5/cyPm.c ****         }
 690:.\Generated_Source\PSoC5/cyPm.c **** 
 691:.\Generated_Source\PSoC5/cyPm.c ****     #endif /* (CY_PSOC3) */
 692:.\Generated_Source\PSoC5/cyPm.c **** 
 693:.\Generated_Source\PSoC5/cyPm.c **** 
 694:.\Generated_Source\PSoC5/cyPm.c ****     /* Save and set new wake up configuration */
 695:.\Generated_Source\PSoC5/cyPm.c **** 
 696:.\Generated_Source\PSoC5/cyPm.c ****     /* Interrupt, PICU, I2C, Boost converter, CTW/1PPS */
 697:.\Generated_Source\PSoC5/cyPm.c ****     cyPmBackup.wakeupCfg0 = CY_PM_WAKEUP_CFG0_REG;
 698:.\Generated_Source\PSoC5/cyPm.c ****     CY_PM_WAKEUP_CFG0_REG = (uint8) (wakeupSource >> 4u);
 699:.\Generated_Source\PSoC5/cyPm.c **** 
 700:.\Generated_Source\PSoC5/cyPm.c ****     /* Comparators */
 701:.\Generated_Source\PSoC5/cyPm.c ****     cyPmBackup.wakeupCfg1 = CY_PM_WAKEUP_CFG1_REG;
 702:.\Generated_Source\PSoC5/cyPm.c ****     CY_PM_WAKEUP_CFG1_REG = (((uint8) wakeupSource) & CY_PM_WAKEUP_SRC_CMPS_MASK);
 703:.\Generated_Source\PSoC5/cyPm.c **** 
 704:.\Generated_Source\PSoC5/cyPm.c ****     /* LCD */
 705:.\Generated_Source\PSoC5/cyPm.c ****     cyPmBackup.wakeupCfg2 = CY_PM_WAKEUP_CFG2_REG;
 706:.\Generated_Source\PSoC5/cyPm.c ****     CY_PM_WAKEUP_CFG2_REG = ((uint8) ((wakeupSource >> 12u) & 0x01u));
 707:.\Generated_Source\PSoC5/cyPm.c **** 
 708:.\Generated_Source\PSoC5/cyPm.c **** 
 709:.\Generated_Source\PSoC5/cyPm.c ****     /* Switch to the Alternate Active mode */
 710:.\Generated_Source\PSoC5/cyPm.c ****     CY_PM_MODE_CSR_REG = ((CY_PM_MODE_CSR_REG & ((uint8)(~CY_PM_MODE_CSR_MASK))) | CY_PM_MODE_CSR_A
 711:.\Generated_Source\PSoC5/cyPm.c **** 
 712:.\Generated_Source\PSoC5/cyPm.c ****     /* Recommended readback. */
 713:.\Generated_Source\PSoC5/cyPm.c ****     (void) CY_PM_MODE_CSR_REG;
 714:.\Generated_Source\PSoC5/cyPm.c **** 
 715:.\Generated_Source\PSoC5/cyPm.c ****     /* Two recommended NOPs to get into the mode. */
 716:.\Generated_Source\PSoC5/cyPm.c ****     CY_NOP;
ARM GAS  C:\Users\mjphi\AppData\Local\Temp\ccWjpNxZ.s 			page 14


 717:.\Generated_Source\PSoC5/cyPm.c ****     CY_NOP;
 718:.\Generated_Source\PSoC5/cyPm.c **** 
 719:.\Generated_Source\PSoC5/cyPm.c ****     /* Execute WFI instruction (for ARM-based devices only) */
 720:.\Generated_Source\PSoC5/cyPm.c ****     CY_PM_WFI;
 721:.\Generated_Source\PSoC5/cyPm.c **** 
 722:.\Generated_Source\PSoC5/cyPm.c ****     /* Point of return from Alternate Active Mode */
 723:.\Generated_Source\PSoC5/cyPm.c **** 
 724:.\Generated_Source\PSoC5/cyPm.c ****     /* Restore wake up configuration */
 725:.\Generated_Source\PSoC5/cyPm.c ****     CY_PM_WAKEUP_CFG0_REG = cyPmBackup.wakeupCfg0;
 726:.\Generated_Source\PSoC5/cyPm.c ****     CY_PM_WAKEUP_CFG1_REG = cyPmBackup.wakeupCfg1;
 727:.\Generated_Source\PSoC5/cyPm.c ****     CY_PM_WAKEUP_CFG2_REG = cyPmBackup.wakeupCfg2;
 728:.\Generated_Source\PSoC5/cyPm.c **** }
 729:.\Generated_Source\PSoC5/cyPm.c **** 
 730:.\Generated_Source\PSoC5/cyPm.c **** 
 731:.\Generated_Source\PSoC5/cyPm.c **** /*******************************************************************************
 732:.\Generated_Source\PSoC5/cyPm.c **** * Function Name: CyPmSleep
 733:.\Generated_Source\PSoC5/cyPm.c **** ********************************************************************************
 734:.\Generated_Source\PSoC5/cyPm.c **** *
 735:.\Generated_Source\PSoC5/cyPm.c **** * Summary:
 736:.\Generated_Source\PSoC5/cyPm.c **** *  Puts the part into the Sleep state.
 737:.\Generated_Source\PSoC5/cyPm.c **** *
 738:.\Generated_Source\PSoC5/cyPm.c **** *  Note Before calling this function, you must manually configure the power
 739:.\Generated_Source\PSoC5/cyPm.c **** *  mode of the source clocks for the timer that is used as the wakeup timer.
 740:.\Generated_Source\PSoC5/cyPm.c **** *
 741:.\Generated_Source\PSoC5/cyPm.c **** *  Note Before calling this function, you must prepare clock tree configuration
 742:.\Generated_Source\PSoC5/cyPm.c **** *  for the low power mode by calling CyPmSaveClocks(). And restore clock
 743:.\Generated_Source\PSoC5/cyPm.c **** *  configuration after CyPmSleep() execution by calling CyPmRestoreClocks(). See
 744:.\Generated_Source\PSoC5/cyPm.c **** *  Power Management section, Clock Configuration subsection of the System
 745:.\Generated_Source\PSoC5/cyPm.c **** *  Reference Guide for more information.
 746:.\Generated_Source\PSoC5/cyPm.c **** *
 747:.\Generated_Source\PSoC5/cyPm.c **** *  PSoC 3:
 748:.\Generated_Source\PSoC5/cyPm.c **** *  Before switching to Sleep, if a wakeupTime other than NONE is specified,
 749:.\Generated_Source\PSoC5/cyPm.c **** *  then the appropriate timer state is configured as specified with the
 750:.\Generated_Source\PSoC5/cyPm.c **** *  interrupt for that timer disabled.  The wakeup source will be a combination
 751:.\Generated_Source\PSoC5/cyPm.c **** *  of the values specified in the wakeupSource and any timer specified in the
 752:.\Generated_Source\PSoC5/cyPm.c **** *  wakeupTime argument.  Once the wakeup condition is satisfied, then all saved
 753:.\Generated_Source\PSoC5/cyPm.c **** *  state is restored and the function returns in the Active state.
 754:.\Generated_Source\PSoC5/cyPm.c **** *
 755:.\Generated_Source\PSoC5/cyPm.c **** *  Note that if the wakeupTime is made with a different value, the period before
 756:.\Generated_Source\PSoC5/cyPm.c **** *  the wakeup occurs can be significantly shorter than the specified time.  If
 757:.\Generated_Source\PSoC5/cyPm.c **** *  the next call is made with the same wakeupTime value, then the wakeup will
 758:.\Generated_Source\PSoC5/cyPm.c **** *  occur the specified period after the previous wakeup occurred.
 759:.\Generated_Source\PSoC5/cyPm.c **** *
 760:.\Generated_Source\PSoC5/cyPm.c **** *  If a wakeupTime other than NONE is specified, then upon exit the state of the
 761:.\Generated_Source\PSoC5/cyPm.c **** *  specified timer will be left as specified by wakeupTime with the timer
 762:.\Generated_Source\PSoC5/cyPm.c **** *  enabled and the interrupt disabled.  If the CTW or One PPS is already
 763:.\Generated_Source\PSoC5/cyPm.c **** *  configured for wakeup, for example with the SleepTimer or RTC components,
 764:.\Generated_Source\PSoC5/cyPm.c **** *  then specify NONE for the wakeupTime and include the appropriate source for
 765:.\Generated_Source\PSoC5/cyPm.c **** *  wakeupSource.
 766:.\Generated_Source\PSoC5/cyPm.c **** *
 767:.\Generated_Source\PSoC5/cyPm.c **** *  PSoC 5LP:
 768:.\Generated_Source\PSoC5/cyPm.c **** *  The wakeupTime parameter is not used and the only NONE can be specified.
 769:.\Generated_Source\PSoC5/cyPm.c **** *  The wakeup time must be configured with the component, SleepTimer for CTW
 770:.\Generated_Source\PSoC5/cyPm.c **** *  intervals and RTC for 1PPS interval. The component must be configured to
 771:.\Generated_Source\PSoC5/cyPm.c **** *  generate interrupt.
 772:.\Generated_Source\PSoC5/cyPm.c **** *
 773:.\Generated_Source\PSoC5/cyPm.c **** * Parameters:
ARM GAS  C:\Users\mjphi\AppData\Local\Temp\ccWjpNxZ.s 			page 15


 774:.\Generated_Source\PSoC5/cyPm.c **** *  wakeupTime:      Specifies a timer wakeup source and the frequency of that
 775:.\Generated_Source\PSoC5/cyPm.c **** *                   source. For PSoC 5LP, this parameter is ignored.
 776:.\Generated_Source\PSoC5/cyPm.c **** *
 777:.\Generated_Source\PSoC5/cyPm.c **** *           Define                      Time
 778:.\Generated_Source\PSoC5/cyPm.c **** *  PM_SLEEP_TIME_NONE               None
 779:.\Generated_Source\PSoC5/cyPm.c **** *  PM_SLEEP_TIME_ONE_PPS            One PPS: 1 second
 780:.\Generated_Source\PSoC5/cyPm.c **** *  PM_SLEEP_TIME_CTW_2MS            CTW: 2 ms
 781:.\Generated_Source\PSoC5/cyPm.c **** *  PM_SLEEP_TIME_CTW_4MS            CTW: 4 ms
 782:.\Generated_Source\PSoC5/cyPm.c **** *  PM_SLEEP_TIME_CTW_8MS            CTW: 8 ms
 783:.\Generated_Source\PSoC5/cyPm.c **** *  PM_SLEEP_TIME_CTW_16MS           CTW: 16 ms
 784:.\Generated_Source\PSoC5/cyPm.c **** *  PM_SLEEP_TIME_CTW_32MS           CTW: 32 ms
 785:.\Generated_Source\PSoC5/cyPm.c **** *  PM_SLEEP_TIME_CTW_64MS           CTW: 64 ms
 786:.\Generated_Source\PSoC5/cyPm.c **** *  PM_SLEEP_TIME_CTW_128MS          CTW: 128 ms
 787:.\Generated_Source\PSoC5/cyPm.c **** *  PM_SLEEP_TIME_CTW_256MS          CTW: 256 ms
 788:.\Generated_Source\PSoC5/cyPm.c **** *  PM_SLEEP_TIME_CTW_512MS          CTW: 512 ms
 789:.\Generated_Source\PSoC5/cyPm.c **** *  PM_SLEEP_TIME_CTW_1024MS         CTW: 1024 ms
 790:.\Generated_Source\PSoC5/cyPm.c **** *  PM_SLEEP_TIME_CTW_2048MS         CTW: 2048 ms
 791:.\Generated_Source\PSoC5/cyPm.c **** *  PM_SLEEP_TIME_CTW_4096MS         CTW: 4096 ms
 792:.\Generated_Source\PSoC5/cyPm.c **** *
 793:.\Generated_Source\PSoC5/cyPm.c **** *  wakeUpSource:    Specifies a bitwise mask of wakeup sources. In addition, if
 794:.\Generated_Source\PSoC5/cyPm.c **** *                   a wakeupTime has been specified the associated timer will be
 795:.\Generated_Source\PSoC5/cyPm.c **** *                   included as a wakeup source.
 796:.\Generated_Source\PSoC5/cyPm.c **** *
 797:.\Generated_Source\PSoC5/cyPm.c **** *           Define                      Source
 798:.\Generated_Source\PSoC5/cyPm.c **** *  PM_SLEEP_SRC_NONE                None
 799:.\Generated_Source\PSoC5/cyPm.c **** *  PM_SLEEP_SRC_COMPARATOR0         Comparator 0
 800:.\Generated_Source\PSoC5/cyPm.c **** *  PM_SLEEP_SRC_COMPARATOR1         Comparator 1
 801:.\Generated_Source\PSoC5/cyPm.c **** *  PM_SLEEP_SRC_COMPARATOR2         Comparator 2
 802:.\Generated_Source\PSoC5/cyPm.c **** *  PM_SLEEP_SRC_COMPARATOR3         Comparator 3
 803:.\Generated_Source\PSoC5/cyPm.c **** *  PM_SLEEP_SRC_PICU                PICU
 804:.\Generated_Source\PSoC5/cyPm.c **** *  PM_SLEEP_SRC_I2C                 I2C
 805:.\Generated_Source\PSoC5/cyPm.c **** *  PM_SLEEP_SRC_BOOSTCONVERTER      Boost Converter
 806:.\Generated_Source\PSoC5/cyPm.c **** *  PM_SLEEP_SRC_VD                  High and Low Voltage Detection (HVI, LVI)
 807:.\Generated_Source\PSoC5/cyPm.c **** *  PM_SLEEP_SRC_CTW                 Central Timewheel*
 808:.\Generated_Source\PSoC5/cyPm.c **** *  PM_SLEEP_SRC_ONE_PPS             One PPS*
 809:.\Generated_Source\PSoC5/cyPm.c **** *  PM_SLEEP_SRC_LCD                 LCD
 810:.\Generated_Source\PSoC5/cyPm.c **** *
 811:.\Generated_Source\PSoC5/cyPm.c **** *  *Note:   CTW and One PPS wakeup signals are in the same mask bit.
 812:.\Generated_Source\PSoC5/cyPm.c **** *
 813:.\Generated_Source\PSoC5/cyPm.c **** *  When specifying a Comparator as the wakeupSource an instance specific define
 814:.\Generated_Source\PSoC5/cyPm.c **** *  should be used that will track with the specific comparator that the instance
 815:.\Generated_Source\PSoC5/cyPm.c **** *  is placed into. As an example for a Comparator instance named MyComp the
 816:.\Generated_Source\PSoC5/cyPm.c **** *  value to OR into the mask is: MyComp_ctComp__CMP_MASK.
 817:.\Generated_Source\PSoC5/cyPm.c **** *
 818:.\Generated_Source\PSoC5/cyPm.c **** *  When CTW or One PPS is used as a wakeup source, the CyPmReadStatus()
 819:.\Generated_Source\PSoC5/cyPm.c **** *  function must be called upon wakeup with corresponding parameter. Please
 820:.\Generated_Source\PSoC5/cyPm.c **** *  refer to the CyPmReadStatus() API in the System Reference Guide for more
 821:.\Generated_Source\PSoC5/cyPm.c **** *  information.
 822:.\Generated_Source\PSoC5/cyPm.c **** *
 823:.\Generated_Source\PSoC5/cyPm.c **** * Return:
 824:.\Generated_Source\PSoC5/cyPm.c **** *  None
 825:.\Generated_Source\PSoC5/cyPm.c **** *
 826:.\Generated_Source\PSoC5/cyPm.c **** * Reentrant:
 827:.\Generated_Source\PSoC5/cyPm.c **** *  No
 828:.\Generated_Source\PSoC5/cyPm.c **** *
 829:.\Generated_Source\PSoC5/cyPm.c **** * Side Effects and Restrictions:
 830:.\Generated_Source\PSoC5/cyPm.c **** *  If a wakeupTime other than NONE is specified, then upon exit the state of the
ARM GAS  C:\Users\mjphi\AppData\Local\Temp\ccWjpNxZ.s 			page 16


 831:.\Generated_Source\PSoC5/cyPm.c **** *  specified timer will be left as specified by wakeupTime with the timer
 832:.\Generated_Source\PSoC5/cyPm.c **** *  enabled and the interrupt disabled. Also, the ILO 1 KHz (if CTW timer is
 833:.\Generated_Source\PSoC5/cyPm.c **** *  used as wake up time) will be left started.
 834:.\Generated_Source\PSoC5/cyPm.c **** *
 835:.\Generated_Source\PSoC5/cyPm.c **** *  The 1 kHz ILO clock is expected to be enabled for PSoC 3 and PSoC 5LP to
 836:.\Generated_Source\PSoC5/cyPm.c **** *  measure Hibernate/Sleep regulator settling time after a reset. The holdoff
 837:.\Generated_Source\PSoC5/cyPm.c **** *  delay is measured using rising edges of the 1 kHz ILO.
 838:.\Generated_Source\PSoC5/cyPm.c **** *
 839:.\Generated_Source\PSoC5/cyPm.c **** *  For PSoC 3 silicon hardware buzz should be disabled before entering a sleep
 840:.\Generated_Source\PSoC5/cyPm.c **** *  power mode. It is disabled by PSoC Creator during startup.
 841:.\Generated_Source\PSoC5/cyPm.c **** *  If a Low Voltage Interrupt (LVI), High Voltage Interrupt (HVI) or Brown Out
 842:.\Generated_Source\PSoC5/cyPm.c **** *  detect (power supply supervising capabilities) are required in a design
 843:.\Generated_Source\PSoC5/cyPm.c **** *  during sleep, use the Central Time Wheel (CTW) to periodically wake the
 844:.\Generated_Source\PSoC5/cyPm.c **** *  device, perform software buzz, and refresh the supervisory services. If LVI,
 845:.\Generated_Source\PSoC5/cyPm.c **** *  HVI, or Brown Out is not required, then CTW is not required.
 846:.\Generated_Source\PSoC5/cyPm.c **** *  Refer to the device errata for more information.
 847:.\Generated_Source\PSoC5/cyPm.c **** *
 848:.\Generated_Source\PSoC5/cyPm.c **** *******************************************************************************/
 849:.\Generated_Source\PSoC5/cyPm.c **** void CyPmSleep(uint8 wakeupTime, uint16 wakeupSource) 
 850:.\Generated_Source\PSoC5/cyPm.c **** {
 851:.\Generated_Source\PSoC5/cyPm.c ****     uint8 interruptState;
 852:.\Generated_Source\PSoC5/cyPm.c **** 
 853:.\Generated_Source\PSoC5/cyPm.c ****     /* Save current global interrupt enable and disable it */
 854:.\Generated_Source\PSoC5/cyPm.c ****     interruptState = CyEnterCriticalSection();
 855:.\Generated_Source\PSoC5/cyPm.c **** 
 856:.\Generated_Source\PSoC5/cyPm.c **** 
 857:.\Generated_Source\PSoC5/cyPm.c ****     /***********************************************************************
 858:.\Generated_Source\PSoC5/cyPm.c ****     * The Hibernate/Sleep regulator has a settling time after a reset.
 859:.\Generated_Source\PSoC5/cyPm.c ****     * During this time, the system ignores requests to enter Sleep and
 860:.\Generated_Source\PSoC5/cyPm.c ****     * Hibernate modes. The holdoff delay is measured using rising edges of
 861:.\Generated_Source\PSoC5/cyPm.c ****     * the 1 kHz ILO.
 862:.\Generated_Source\PSoC5/cyPm.c ****     ***********************************************************************/
 863:.\Generated_Source\PSoC5/cyPm.c ****     if(0u == (CY_PM_MODE_CSR_REG & CY_PM_MODE_CSR_PWRUP_PULSE_Q))
 864:.\Generated_Source\PSoC5/cyPm.c ****     {
 865:.\Generated_Source\PSoC5/cyPm.c ****         /* Disable hold off - no action on restore */
 866:.\Generated_Source\PSoC5/cyPm.c ****         CY_PM_PWRSYS_SLP_TR_REG &= CY_PM_PWRSYS_SLP_TR_HIBSLP_HOLDOFF_MASK;
 867:.\Generated_Source\PSoC5/cyPm.c ****     }
 868:.\Generated_Source\PSoC5/cyPm.c ****     else
 869:.\Generated_Source\PSoC5/cyPm.c ****     {
 870:.\Generated_Source\PSoC5/cyPm.c ****         /* Abort, device is not ready for low power mode entry */
 871:.\Generated_Source\PSoC5/cyPm.c **** 
 872:.\Generated_Source\PSoC5/cyPm.c ****         /* Restore global interrupt enable state */
 873:.\Generated_Source\PSoC5/cyPm.c ****         CyExitCriticalSection(interruptState);
 874:.\Generated_Source\PSoC5/cyPm.c **** 
 875:.\Generated_Source\PSoC5/cyPm.c ****         return;
 876:.\Generated_Source\PSoC5/cyPm.c ****     }
 877:.\Generated_Source\PSoC5/cyPm.c **** 
 878:.\Generated_Source\PSoC5/cyPm.c **** 
 879:.\Generated_Source\PSoC5/cyPm.c ****     /***********************************************************************
 880:.\Generated_Source\PSoC5/cyPm.c ****     * PSoC3 < TO6:
 881:.\Generated_Source\PSoC5/cyPm.c ****     * - Hardware buzz must be disabled before the sleep mode entry.
 882:.\Generated_Source\PSoC5/cyPm.c ****     * - Voltage supervision (HVI/LVI) requires hardware buzz, so they must
 883:.\Generated_Source\PSoC5/cyPm.c ****     *   be also disabled.
 884:.\Generated_Source\PSoC5/cyPm.c ****     *
 885:.\Generated_Source\PSoC5/cyPm.c ****     * PSoC3 >= TO6:
 886:.\Generated_Source\PSoC5/cyPm.c ****     * - Voltage supervision (HVI/LVI) requires hardware buzz, so hardware
 887:.\Generated_Source\PSoC5/cyPm.c ****     *   buzz must be enabled before the sleep mode entry and restored on
ARM GAS  C:\Users\mjphi\AppData\Local\Temp\ccWjpNxZ.s 			page 17


 888:.\Generated_Source\PSoC5/cyPm.c ****     *   the wakeup.
 889:.\Generated_Source\PSoC5/cyPm.c ****     ***********************************************************************/
 890:.\Generated_Source\PSoC5/cyPm.c ****     #if(CY_PSOC3)
 891:.\Generated_Source\PSoC5/cyPm.c **** 
 892:.\Generated_Source\PSoC5/cyPm.c ****         /* Silicon Revision ID is below TO6 */
 893:.\Generated_Source\PSoC5/cyPm.c ****         if(CYDEV_CHIP_REV_ACTUAL < 5u)
 894:.\Generated_Source\PSoC5/cyPm.c ****         {
 895:.\Generated_Source\PSoC5/cyPm.c ****             /* Hardware buzz expected to be disabled in Sleep mode */
 896:.\Generated_Source\PSoC5/cyPm.c ****             CYASSERT(0u == (CY_PM_PWRSYS_WAKE_TR2_REG & CY_PM_PWRSYS_WAKE_TR2_EN_BUZZ));
 897:.\Generated_Source\PSoC5/cyPm.c ****         }
 898:.\Generated_Source\PSoC5/cyPm.c **** 
 899:.\Generated_Source\PSoC5/cyPm.c **** 
 900:.\Generated_Source\PSoC5/cyPm.c ****         if(0u != (CY_PM_RESET_CR1_REG & (CY_PM_RESET_CR1_HVIA_EN |
 901:.\Generated_Source\PSoC5/cyPm.c ****             CY_PM_RESET_CR1_LVIA_EN | CY_PM_RESET_CR1_LVID_EN)))
 902:.\Generated_Source\PSoC5/cyPm.c ****         {
 903:.\Generated_Source\PSoC5/cyPm.c ****             if(CYDEV_CHIP_REV_ACTUAL < 5u)
 904:.\Generated_Source\PSoC5/cyPm.c ****             {
 905:.\Generated_Source\PSoC5/cyPm.c ****                 /* LVI/HVI requires hardware buzz to be enabled */
 906:.\Generated_Source\PSoC5/cyPm.c ****                 CYASSERT(0u != 0u);
 907:.\Generated_Source\PSoC5/cyPm.c ****             }
 908:.\Generated_Source\PSoC5/cyPm.c ****             else
 909:.\Generated_Source\PSoC5/cyPm.c ****             {
 910:.\Generated_Source\PSoC5/cyPm.c ****                 if (0u == (CY_PM_PWRSYS_WAKE_TR2_REG & CY_PM_PWRSYS_WAKE_TR2_EN_BUZZ))
 911:.\Generated_Source\PSoC5/cyPm.c ****                 {
 912:.\Generated_Source\PSoC5/cyPm.c ****                     cyPmBackup.hardwareBuzz = CY_PM_DISABLED;
 913:.\Generated_Source\PSoC5/cyPm.c ****                     CY_PM_PWRSYS_WAKE_TR2_REG |= CY_PM_PWRSYS_WAKE_TR2_EN_BUZZ;
 914:.\Generated_Source\PSoC5/cyPm.c ****                 }
 915:.\Generated_Source\PSoC5/cyPm.c ****                 else
 916:.\Generated_Source\PSoC5/cyPm.c ****                 {
 917:.\Generated_Source\PSoC5/cyPm.c ****                     cyPmBackup.hardwareBuzz = CY_PM_ENABLED;
 918:.\Generated_Source\PSoC5/cyPm.c ****                 }
 919:.\Generated_Source\PSoC5/cyPm.c ****             }
 920:.\Generated_Source\PSoC5/cyPm.c ****         }
 921:.\Generated_Source\PSoC5/cyPm.c **** 
 922:.\Generated_Source\PSoC5/cyPm.c ****     #endif /* (CY_PSOC3) */
 923:.\Generated_Source\PSoC5/cyPm.c **** 
 924:.\Generated_Source\PSoC5/cyPm.c **** 
 925:.\Generated_Source\PSoC5/cyPm.c ****     /*******************************************************************************
 926:.\Generated_Source\PSoC5/cyPm.c ****     * For ARM-based devices,interrupt is required for the CPU to wake up. The
 927:.\Generated_Source\PSoC5/cyPm.c ****     * Power Management implementation assumes that wakeup time is configured with a
 928:.\Generated_Source\PSoC5/cyPm.c ****     * separate component (component-based wakeup time configuration) for
 929:.\Generated_Source\PSoC5/cyPm.c ****     * interrupt to be issued on terminal count. For more information, refer to the
 930:.\Generated_Source\PSoC5/cyPm.c ****     * Wakeup Time Configuration section of System Reference Guide.
 931:.\Generated_Source\PSoC5/cyPm.c ****     *******************************************************************************/
 932:.\Generated_Source\PSoC5/cyPm.c ****     #if(CY_PSOC5)
 933:.\Generated_Source\PSoC5/cyPm.c **** 
 934:.\Generated_Source\PSoC5/cyPm.c ****         /* Arguments expected to be 0 */
 935:.\Generated_Source\PSoC5/cyPm.c ****         CYASSERT(PM_SLEEP_TIME_NONE == wakeupTime);
 936:.\Generated_Source\PSoC5/cyPm.c **** 
 937:.\Generated_Source\PSoC5/cyPm.c ****         if(0u != wakeupTime)
 938:.\Generated_Source\PSoC5/cyPm.c ****         {
 939:.\Generated_Source\PSoC5/cyPm.c ****             /* To remove unreferenced local variable warning */
 940:.\Generated_Source\PSoC5/cyPm.c ****         }
 941:.\Generated_Source\PSoC5/cyPm.c **** 
 942:.\Generated_Source\PSoC5/cyPm.c ****     #endif /* (CY_PSOC5) */
 943:.\Generated_Source\PSoC5/cyPm.c **** 
 944:.\Generated_Source\PSoC5/cyPm.c **** 
ARM GAS  C:\Users\mjphi\AppData\Local\Temp\ccWjpNxZ.s 			page 18


 945:.\Generated_Source\PSoC5/cyPm.c ****     CyPmHibSlpSaveSet();
 946:.\Generated_Source\PSoC5/cyPm.c **** 
 947:.\Generated_Source\PSoC5/cyPm.c **** 
 948:.\Generated_Source\PSoC5/cyPm.c ****     #if(CY_PSOC3)
 949:.\Generated_Source\PSoC5/cyPm.c **** 
 950:.\Generated_Source\PSoC5/cyPm.c ****         /* CTW - save current and set new configuration */
 951:.\Generated_Source\PSoC5/cyPm.c ****         if((wakeupTime >= PM_SLEEP_TIME_CTW_2MS) && (wakeupTime <= PM_SLEEP_TIME_CTW_4096MS))
 952:.\Generated_Source\PSoC5/cyPm.c ****         {
 953:.\Generated_Source\PSoC5/cyPm.c ****             /* Save current and set new configuration of CTW */
 954:.\Generated_Source\PSoC5/cyPm.c ****             CyPmCtwSetInterval((uint8)(wakeupTime - 1u));
 955:.\Generated_Source\PSoC5/cyPm.c **** 
 956:.\Generated_Source\PSoC5/cyPm.c ****             /* Include associated timer to wakeupSource */
 957:.\Generated_Source\PSoC5/cyPm.c ****             wakeupSource |= PM_SLEEP_SRC_CTW;
 958:.\Generated_Source\PSoC5/cyPm.c ****         }
 959:.\Generated_Source\PSoC5/cyPm.c **** 
 960:.\Generated_Source\PSoC5/cyPm.c ****         /* 1PPS - save current and set new configuration */
 961:.\Generated_Source\PSoC5/cyPm.c ****         if(PM_SLEEP_TIME_ONE_PPS == wakeupTime)
 962:.\Generated_Source\PSoC5/cyPm.c ****         {
 963:.\Generated_Source\PSoC5/cyPm.c ****             /* Save current and set new configuration of the 1PPS */
 964:.\Generated_Source\PSoC5/cyPm.c ****             CyPmOppsSet();
 965:.\Generated_Source\PSoC5/cyPm.c **** 
 966:.\Generated_Source\PSoC5/cyPm.c ****             /* Include associated timer to wakeupSource */
 967:.\Generated_Source\PSoC5/cyPm.c ****             wakeupSource |= PM_SLEEP_SRC_ONE_PPS;
 968:.\Generated_Source\PSoC5/cyPm.c ****         }
 969:.\Generated_Source\PSoC5/cyPm.c **** 
 970:.\Generated_Source\PSoC5/cyPm.c ****     #endif /* (CY_PSOC3) */
 971:.\Generated_Source\PSoC5/cyPm.c **** 
 972:.\Generated_Source\PSoC5/cyPm.c **** 
 973:.\Generated_Source\PSoC5/cyPm.c ****     /* Save and set new wake up configuration */
 974:.\Generated_Source\PSoC5/cyPm.c **** 
 975:.\Generated_Source\PSoC5/cyPm.c ****     /* Interrupt, PICU, I2C, Boost converter, CTW/1PPS */
 976:.\Generated_Source\PSoC5/cyPm.c ****     cyPmBackup.wakeupCfg0 = CY_PM_WAKEUP_CFG0_REG;
 977:.\Generated_Source\PSoC5/cyPm.c ****     CY_PM_WAKEUP_CFG0_REG = (uint8) (wakeupSource >> 4u);
 978:.\Generated_Source\PSoC5/cyPm.c **** 
 979:.\Generated_Source\PSoC5/cyPm.c ****     /* Comparators */
 980:.\Generated_Source\PSoC5/cyPm.c ****     cyPmBackup.wakeupCfg1 = CY_PM_WAKEUP_CFG1_REG;
 981:.\Generated_Source\PSoC5/cyPm.c ****     CY_PM_WAKEUP_CFG1_REG = (((uint8) wakeupSource) & CY_PM_WAKEUP_SRC_CMPS_MASK);
 982:.\Generated_Source\PSoC5/cyPm.c **** 
 983:.\Generated_Source\PSoC5/cyPm.c ****     /* LCD */
 984:.\Generated_Source\PSoC5/cyPm.c ****     cyPmBackup.wakeupCfg2 = CY_PM_WAKEUP_CFG2_REG;
 985:.\Generated_Source\PSoC5/cyPm.c ****     CY_PM_WAKEUP_CFG2_REG = ((uint8) ((wakeupSource >> 12u) & 0x01u));
 986:.\Generated_Source\PSoC5/cyPm.c **** 
 987:.\Generated_Source\PSoC5/cyPm.c **** 
 988:.\Generated_Source\PSoC5/cyPm.c ****     /*******************************************************************
 989:.\Generated_Source\PSoC5/cyPm.c ****     * Do not use the merge region below unless any component datasheet
 990:.\Generated_Source\PSoC5/cyPm.c ****     * suggests doing so.
 991:.\Generated_Source\PSoC5/cyPm.c ****     *******************************************************************/
 992:.\Generated_Source\PSoC5/cyPm.c ****     /* `#START CY_PM_JUST_BEFORE_SLEEP` */
 993:.\Generated_Source\PSoC5/cyPm.c **** 
 994:.\Generated_Source\PSoC5/cyPm.c ****     /* `#END` */
 995:.\Generated_Source\PSoC5/cyPm.c **** 
 996:.\Generated_Source\PSoC5/cyPm.c ****     #ifdef CY_BOOT_CY_PM_SLEEP_BEFORE_SLEEP_CALLBACK
 997:.\Generated_Source\PSoC5/cyPm.c ****         CyBoot_CyPmSleep_BeforeSleep_Callback();
 998:.\Generated_Source\PSoC5/cyPm.c ****     #endif /* CY_BOOT_CY_PM_SLEEP_BEFORE_SLEEP_CALLBACK */
 999:.\Generated_Source\PSoC5/cyPm.c **** 
1000:.\Generated_Source\PSoC5/cyPm.c ****     /* Last moment IMO frequency change */
1001:.\Generated_Source\PSoC5/cyPm.c ****     if(0u == (CY_PM_FASTCLK_IMO_CR_REG & CY_PM_FASTCLK_IMO_CR_FREQ_MASK))
ARM GAS  C:\Users\mjphi\AppData\Local\Temp\ccWjpNxZ.s 			page 19


1002:.\Generated_Source\PSoC5/cyPm.c ****     {
1003:.\Generated_Source\PSoC5/cyPm.c ****         /* IMO frequency is 12 MHz */
1004:.\Generated_Source\PSoC5/cyPm.c ****         cyPmBackup.imoActFreq12Mhz = CY_PM_ENABLED;
1005:.\Generated_Source\PSoC5/cyPm.c ****     }
1006:.\Generated_Source\PSoC5/cyPm.c ****     else
1007:.\Generated_Source\PSoC5/cyPm.c ****     {
1008:.\Generated_Source\PSoC5/cyPm.c ****         /* IMO frequency is not 12 MHz */
1009:.\Generated_Source\PSoC5/cyPm.c ****         cyPmBackup.imoActFreq12Mhz = CY_PM_DISABLED;
1010:.\Generated_Source\PSoC5/cyPm.c **** 
1011:.\Generated_Source\PSoC5/cyPm.c ****         /* Save IMO frequency */
1012:.\Generated_Source\PSoC5/cyPm.c ****         cyPmBackup.imoActFreq = CY_PM_FASTCLK_IMO_CR_REG & CY_PM_FASTCLK_IMO_CR_FREQ_MASK;
1013:.\Generated_Source\PSoC5/cyPm.c **** 
1014:.\Generated_Source\PSoC5/cyPm.c ****         /* Set IMO frequency to 12 MHz */
1015:.\Generated_Source\PSoC5/cyPm.c ****         CY_PM_FASTCLK_IMO_CR_REG &= ((uint8) (~CY_PM_FASTCLK_IMO_CR_FREQ_MASK));
1016:.\Generated_Source\PSoC5/cyPm.c ****     }
1017:.\Generated_Source\PSoC5/cyPm.c **** 
1018:.\Generated_Source\PSoC5/cyPm.c ****     /* Switch to Sleep mode */
1019:.\Generated_Source\PSoC5/cyPm.c ****     CY_PM_MODE_CSR_REG = ((CY_PM_MODE_CSR_REG & ((uint8)(~CY_PM_MODE_CSR_MASK))) | CY_PM_MODE_CSR_S
1020:.\Generated_Source\PSoC5/cyPm.c **** 
1021:.\Generated_Source\PSoC5/cyPm.c ****     /* Recommended readback. */
1022:.\Generated_Source\PSoC5/cyPm.c ****     (void) CY_PM_MODE_CSR_REG;
1023:.\Generated_Source\PSoC5/cyPm.c **** 
1024:.\Generated_Source\PSoC5/cyPm.c ****     /* Two recommended NOPs to get into mode. */
1025:.\Generated_Source\PSoC5/cyPm.c ****     CY_NOP;
1026:.\Generated_Source\PSoC5/cyPm.c ****     CY_NOP;
1027:.\Generated_Source\PSoC5/cyPm.c **** 
1028:.\Generated_Source\PSoC5/cyPm.c ****     /* Execute WFI instruction (for ARM-based devices only) */
1029:.\Generated_Source\PSoC5/cyPm.c ****     CY_PM_WFI;
1030:.\Generated_Source\PSoC5/cyPm.c **** 
1031:.\Generated_Source\PSoC5/cyPm.c ****     /* Point of return from Sleep Mode */
1032:.\Generated_Source\PSoC5/cyPm.c **** 
1033:.\Generated_Source\PSoC5/cyPm.c ****     /* Restore last moment IMO frequency change */
1034:.\Generated_Source\PSoC5/cyPm.c ****     if(CY_PM_ENABLED != cyPmBackup.imoActFreq12Mhz)
1035:.\Generated_Source\PSoC5/cyPm.c ****     {
1036:.\Generated_Source\PSoC5/cyPm.c ****         CY_PM_FASTCLK_IMO_CR_REG  = (CY_PM_FASTCLK_IMO_CR_REG & ((uint8)(~CY_PM_FASTCLK_IMO_CR_FREQ
1037:.\Generated_Source\PSoC5/cyPm.c ****                                     cyPmBackup.imoActFreq;
1038:.\Generated_Source\PSoC5/cyPm.c ****     }
1039:.\Generated_Source\PSoC5/cyPm.c **** 
1040:.\Generated_Source\PSoC5/cyPm.c **** 
1041:.\Generated_Source\PSoC5/cyPm.c ****     /*******************************************************************
1042:.\Generated_Source\PSoC5/cyPm.c ****     * Do not use merge region below unless any component datasheet
1043:.\Generated_Source\PSoC5/cyPm.c ****     * suggest to do so.
1044:.\Generated_Source\PSoC5/cyPm.c ****     *******************************************************************/
1045:.\Generated_Source\PSoC5/cyPm.c ****     /* `#START CY_PM_JUST_AFTER_WAKEUP_FROM_SLEEP` */
1046:.\Generated_Source\PSoC5/cyPm.c **** 
1047:.\Generated_Source\PSoC5/cyPm.c ****     /* `#END` */
1048:.\Generated_Source\PSoC5/cyPm.c **** 
1049:.\Generated_Source\PSoC5/cyPm.c ****     #ifdef CY_BOOT_CY_PM_SLEEP_AFTER_SLEEP_CALLBACK
1050:.\Generated_Source\PSoC5/cyPm.c ****         CyBoot_CyPmSleep_AfterSleep_Callback();
1051:.\Generated_Source\PSoC5/cyPm.c ****     #endif /* CY_BOOT_CY_PM_SLEEP_AFTER_SLEEP_CALLBACK */
1052:.\Generated_Source\PSoC5/cyPm.c **** 
1053:.\Generated_Source\PSoC5/cyPm.c ****     /* Restore hardware configuration */
1054:.\Generated_Source\PSoC5/cyPm.c ****     CyPmHibSlpRestore();
1055:.\Generated_Source\PSoC5/cyPm.c **** 
1056:.\Generated_Source\PSoC5/cyPm.c **** 
1057:.\Generated_Source\PSoC5/cyPm.c ****     /* Disable hardware buzz, if it was previously enabled */
1058:.\Generated_Source\PSoC5/cyPm.c ****     #if(CY_PSOC3)
ARM GAS  C:\Users\mjphi\AppData\Local\Temp\ccWjpNxZ.s 			page 20


1059:.\Generated_Source\PSoC5/cyPm.c **** 
1060:.\Generated_Source\PSoC5/cyPm.c ****         if(0u != (CY_PM_RESET_CR1_REG & (CY_PM_RESET_CR1_HVIA_EN |
1061:.\Generated_Source\PSoC5/cyPm.c ****             CY_PM_RESET_CR1_LVIA_EN | CY_PM_RESET_CR1_LVID_EN)))
1062:.\Generated_Source\PSoC5/cyPm.c ****         {
1063:.\Generated_Source\PSoC5/cyPm.c ****             if(CYDEV_CHIP_REV_ACTUAL >= 5u)
1064:.\Generated_Source\PSoC5/cyPm.c ****             {
1065:.\Generated_Source\PSoC5/cyPm.c ****                 if (CY_PM_DISABLED == cyPmBackup.hardwareBuzz)
1066:.\Generated_Source\PSoC5/cyPm.c ****                 {
1067:.\Generated_Source\PSoC5/cyPm.c ****                     CY_PM_PWRSYS_WAKE_TR2_REG &= (uint8)(~CY_PM_PWRSYS_WAKE_TR2_EN_BUZZ);
1068:.\Generated_Source\PSoC5/cyPm.c ****                 }
1069:.\Generated_Source\PSoC5/cyPm.c ****             }
1070:.\Generated_Source\PSoC5/cyPm.c ****         }
1071:.\Generated_Source\PSoC5/cyPm.c **** 
1072:.\Generated_Source\PSoC5/cyPm.c ****     #endif /* (CY_PSOC3) */
1073:.\Generated_Source\PSoC5/cyPm.c **** 
1074:.\Generated_Source\PSoC5/cyPm.c **** 
1075:.\Generated_Source\PSoC5/cyPm.c ****     /* Restore current wake up configuration */
1076:.\Generated_Source\PSoC5/cyPm.c ****     CY_PM_WAKEUP_CFG0_REG = cyPmBackup.wakeupCfg0;
1077:.\Generated_Source\PSoC5/cyPm.c ****     CY_PM_WAKEUP_CFG1_REG = cyPmBackup.wakeupCfg1;
1078:.\Generated_Source\PSoC5/cyPm.c ****     CY_PM_WAKEUP_CFG2_REG = cyPmBackup.wakeupCfg2;
1079:.\Generated_Source\PSoC5/cyPm.c **** 
1080:.\Generated_Source\PSoC5/cyPm.c ****     /* Restore global interrupt enable state */
1081:.\Generated_Source\PSoC5/cyPm.c ****     CyExitCriticalSection(interruptState);
1082:.\Generated_Source\PSoC5/cyPm.c **** }
1083:.\Generated_Source\PSoC5/cyPm.c **** 
1084:.\Generated_Source\PSoC5/cyPm.c **** 
1085:.\Generated_Source\PSoC5/cyPm.c **** /*******************************************************************************
1086:.\Generated_Source\PSoC5/cyPm.c **** * Function Name: CyPmHibernate
1087:.\Generated_Source\PSoC5/cyPm.c **** ********************************************************************************
1088:.\Generated_Source\PSoC5/cyPm.c **** *
1089:.\Generated_Source\PSoC5/cyPm.c **** * Summary:
1090:.\Generated_Source\PSoC5/cyPm.c **** *  Puts the part into the Hibernate state.
1091:.\Generated_Source\PSoC5/cyPm.c **** *
1092:.\Generated_Source\PSoC5/cyPm.c **** *  Before switching to Hibernate, the current status of the PICU wakeup source
1093:.\Generated_Source\PSoC5/cyPm.c **** *  bit is saved and then set. This configures the device to wake up from the
1094:.\Generated_Source\PSoC5/cyPm.c **** *  PICU. Make sure you have at least one pin configured to generate PICU
1095:.\Generated_Source\PSoC5/cyPm.c **** *  interrupt. For pin Px.y, the register "PICU_INTTYPE_PICUx_INTTYPEy" controls
1096:.\Generated_Source\PSoC5/cyPm.c **** *  the PICU behavior. In the TRM, this register is "PICU[0..15]_INTTYPE[0..7]."
1097:.\Generated_Source\PSoC5/cyPm.c **** *  In the Pins component datasheet, this register is referred to as the IRQ
1098:.\Generated_Source\PSoC5/cyPm.c **** *  option. Once the wakeup occurs, the PICU wakeup source bit is restored and
1099:.\Generated_Source\PSoC5/cyPm.c **** *  the PSoC returns to the Active state.
1100:.\Generated_Source\PSoC5/cyPm.c **** *
1101:.\Generated_Source\PSoC5/cyPm.c **** * Parameters:
1102:.\Generated_Source\PSoC5/cyPm.c **** *  None
1103:.\Generated_Source\PSoC5/cyPm.c **** *
1104:.\Generated_Source\PSoC5/cyPm.c **** * Return:
1105:.\Generated_Source\PSoC5/cyPm.c **** *  None
1106:.\Generated_Source\PSoC5/cyPm.c **** *
1107:.\Generated_Source\PSoC5/cyPm.c **** * Reentrant:
1108:.\Generated_Source\PSoC5/cyPm.c **** *  No
1109:.\Generated_Source\PSoC5/cyPm.c **** *
1110:.\Generated_Source\PSoC5/cyPm.c **** * Side Effects:
1111:.\Generated_Source\PSoC5/cyPm.c **** *  Applications must wait 20 us before re-entering hibernate or sleep after
1112:.\Generated_Source\PSoC5/cyPm.c **** *  waking up from hibernate. The 20 us allows the sleep regulator time to
1113:.\Generated_Source\PSoC5/cyPm.c **** *  stabilize before the next hibernate / sleep event occurs. The 20 us
1114:.\Generated_Source\PSoC5/cyPm.c **** *  requirement begins when the device wakes up. There is no hardware check that
1115:.\Generated_Source\PSoC5/cyPm.c **** *  this requirement is met. The specified delay should be done on ISR entry.
ARM GAS  C:\Users\mjphi\AppData\Local\Temp\ccWjpNxZ.s 			page 21


1116:.\Generated_Source\PSoC5/cyPm.c **** *
1117:.\Generated_Source\PSoC5/cyPm.c **** *  After the wakeup PICU interrupt occurs, the Pin_ClearInterrupt() (where Pin
1118:.\Generated_Source\PSoC5/cyPm.c **** *  is instance name of the Pins component) function must be called to clear the
1119:.\Generated_Source\PSoC5/cyPm.c **** *  latched pin events to allow the proper Hibernate mode entry and to enable
1120:.\Generated_Source\PSoC5/cyPm.c **** *  detection of future events.
1121:.\Generated_Source\PSoC5/cyPm.c **** *
1122:.\Generated_Source\PSoC5/cyPm.c **** *  The 1 kHz ILO clock is expected to be enabled for PSoC 3 and PSoC 5LP to
1123:.\Generated_Source\PSoC5/cyPm.c **** *  measure Hibernate/Sleep regulator settling time after a reset. The holdoff
1124:.\Generated_Source\PSoC5/cyPm.c **** *  delay is measured using the rising edges of the 1 kHz ILO.
1125:.\Generated_Source\PSoC5/cyPm.c **** *
1126:.\Generated_Source\PSoC5/cyPm.c **** *******************************************************************************/
1127:.\Generated_Source\PSoC5/cyPm.c **** void CyPmHibernate(void) 
1128:.\Generated_Source\PSoC5/cyPm.c **** {
1129:.\Generated_Source\PSoC5/cyPm.c ****     CyPmHibernateEx(CY_PM_HIB_SRC_PICU);
1130:.\Generated_Source\PSoC5/cyPm.c **** }
1131:.\Generated_Source\PSoC5/cyPm.c **** 
1132:.\Generated_Source\PSoC5/cyPm.c **** 
1133:.\Generated_Source\PSoC5/cyPm.c **** /*******************************************************************************
1134:.\Generated_Source\PSoC5/cyPm.c **** * Function Name: CyPmHibernateEx
1135:.\Generated_Source\PSoC5/cyPm.c **** ********************************************************************************
1136:.\Generated_Source\PSoC5/cyPm.c **** *
1137:.\Generated_Source\PSoC5/cyPm.c **** * Summary:
1138:.\Generated_Source\PSoC5/cyPm.c **** *  Puts the part into the Hibernate state.
1139:.\Generated_Source\PSoC5/cyPm.c **** *
1140:.\Generated_Source\PSoC5/cyPm.c **** *  The following wake up sources can be configured: PICU interrupt, Comparator0,
1141:.\Generated_Source\PSoC5/cyPm.c **** *  Comparator1, Comparator2, and Comparator3 output.
1142:.\Generated_Source\PSoC5/cyPm.c **** *
1143:.\Generated_Source\PSoC5/cyPm.c **** *  Before switching to Hibernate, the current status of the PICU wakeup source
1144:.\Generated_Source\PSoC5/cyPm.c **** *  bit is saved and then set.
1145:.\Generated_Source\PSoC5/cyPm.c **** *
1146:.\Generated_Source\PSoC5/cyPm.c **** *  If using PICU as the wake up source, make sure you have at least one pin
1147:.\Generated_Source\PSoC5/cyPm.c **** *  configured to generate a PICU interrupt. For pin Px.y, the register
1148:.\Generated_Source\PSoC5/cyPm.c **** *  "PICU_INTTYPE_PICUx_INTTYPEy" controls  the PICU behavior. In the TRM, this
1149:.\Generated_Source\PSoC5/cyPm.c **** *  register is "PICU[0..15]_INTTYPE[0..7]." In the Pins component datasheet,
1150:.\Generated_Source\PSoC5/cyPm.c **** *  this register is referred to as the IRQ option. Once the wakeup occurs, the
1151:.\Generated_Source\PSoC5/cyPm.c **** *  PICU wakeup source bit is restored and the PSoC returns to the Active state.
1152:.\Generated_Source\PSoC5/cyPm.c **** *
1153:.\Generated_Source\PSoC5/cyPm.c **** *  If using a comparator as the wake up source, make sure you call this function
1154:.\Generated_Source\PSoC5/cyPm.c **** *  with the 'wakeupSource' parameter set to the appropriate comparator. The part
1155:.\Generated_Source\PSoC5/cyPm.c **** *  is configured for the requested wakeup source by setting the corresponding
1156:.\Generated_Source\PSoC5/cyPm.c **** *  bits in PM_WAKEUP_CFG1 register.
1157:.\Generated_Source\PSoC5/cyPm.c **** *
1158:.\Generated_Source\PSoC5/cyPm.c **** *  Function call CyPmHibernateEx(CY_PM_HIB_SRC_PICU) will act in the same way as
1159:.\Generated_Source\PSoC5/cyPm.c **** *  CyPmHibernate().
1160:.\Generated_Source\PSoC5/cyPm.c **** *
1161:.\Generated_Source\PSoC5/cyPm.c **** * Parameters:
1162:.\Generated_Source\PSoC5/cyPm.c **** *  wakeupSource:
1163:.\Generated_Source\PSoC5/cyPm.c **** *           Parameter Value             Description
1164:.\Generated_Source\PSoC5/cyPm.c **** *       CY_PM_HIB_SRC_PICU          PICU interrupt is set as the wake up source.
1165:.\Generated_Source\PSoC5/cyPm.c **** *       CY_PM_HIB_SRC_COMPARATOR0   Comparator 0 is set as the wake up source.
1166:.\Generated_Source\PSoC5/cyPm.c **** *       CY_PM_HIB_SRC_COMPARATOR1   Comparator 1 is set as the wake up source.
1167:.\Generated_Source\PSoC5/cyPm.c **** *       CY_PM_HIB_SRC_COMPARATOR2   Comparator 2 is set as the wake up source.
1168:.\Generated_Source\PSoC5/cyPm.c **** *       CY_PM_HIB_SRC_COMPARATOR3   Comparator 3 is set as the wake up source.
1169:.\Generated_Source\PSoC5/cyPm.c **** *
1170:.\Generated_Source\PSoC5/cyPm.c **** * Return:
1171:.\Generated_Source\PSoC5/cyPm.c **** *  None
1172:.\Generated_Source\PSoC5/cyPm.c **** *
ARM GAS  C:\Users\mjphi\AppData\Local\Temp\ccWjpNxZ.s 			page 22


1173:.\Generated_Source\PSoC5/cyPm.c **** * Reentrant:
1174:.\Generated_Source\PSoC5/cyPm.c **** *  No
1175:.\Generated_Source\PSoC5/cyPm.c **** *
1176:.\Generated_Source\PSoC5/cyPm.c **** * Side Effects:
1177:.\Generated_Source\PSoC5/cyPm.c **** *  Applications must wait 20 us before re-entering hibernate or sleep after
1178:.\Generated_Source\PSoC5/cyPm.c **** *  waking up from hibernate. The 20 us allows the sleep regulator time to
1179:.\Generated_Source\PSoC5/cyPm.c **** *  stabilize before the next hibernate / sleep event occurs. The 20 us
1180:.\Generated_Source\PSoC5/cyPm.c **** *  requirement begins when the device wakes up. There is no hardware check that
1181:.\Generated_Source\PSoC5/cyPm.c **** *  this requirement is met. The specified delay should be done on ISR entry.
1182:.\Generated_Source\PSoC5/cyPm.c **** *
1183:.\Generated_Source\PSoC5/cyPm.c **** *  After the wakeup PICU interrupt occurs, the Pin_ClearInterrupt() (where Pin
1184:.\Generated_Source\PSoC5/cyPm.c **** *  is instance name of the Pins component) function must be called to clear the
1185:.\Generated_Source\PSoC5/cyPm.c **** *  latched pin events to allow the proper Hibernate mode entry and to enable
1186:.\Generated_Source\PSoC5/cyPm.c **** *  detection of future events.
1187:.\Generated_Source\PSoC5/cyPm.c **** *
1188:.\Generated_Source\PSoC5/cyPm.c **** *  The 1 kHz ILO clock is expected to be enabled for PSoC 3 and PSoC 5LP to
1189:.\Generated_Source\PSoC5/cyPm.c **** *  measure Hibernate/Sleep regulator settling time after a reset. The holdoff
1190:.\Generated_Source\PSoC5/cyPm.c **** *  delay is measured using the rising edges of the 1 kHz ILO.
1191:.\Generated_Source\PSoC5/cyPm.c **** *
1192:.\Generated_Source\PSoC5/cyPm.c **** *******************************************************************************/
1193:.\Generated_Source\PSoC5/cyPm.c **** void CyPmHibernateEx(uint16 wakeupSource) 
1194:.\Generated_Source\PSoC5/cyPm.c **** {
1195:.\Generated_Source\PSoC5/cyPm.c ****     uint8 interruptState;
1196:.\Generated_Source\PSoC5/cyPm.c **** 
1197:.\Generated_Source\PSoC5/cyPm.c ****     /* Save current global interrupt enable and disable it */
1198:.\Generated_Source\PSoC5/cyPm.c ****     interruptState = CyEnterCriticalSection();
1199:.\Generated_Source\PSoC5/cyPm.c **** 
1200:.\Generated_Source\PSoC5/cyPm.c ****         /***********************************************************************
1201:.\Generated_Source\PSoC5/cyPm.c ****         * The Hibernate/Sleep regulator has a settling time after a reset.
1202:.\Generated_Source\PSoC5/cyPm.c ****         * During this time, the system ignores requests to enter the Sleep and
1203:.\Generated_Source\PSoC5/cyPm.c ****         * Hibernate modes. The holdoff delay is measured using the rising edges of
1204:.\Generated_Source\PSoC5/cyPm.c ****         * the 1 kHz ILO.
1205:.\Generated_Source\PSoC5/cyPm.c ****         ***********************************************************************/
1206:.\Generated_Source\PSoC5/cyPm.c ****         if(0u == (CY_PM_MODE_CSR_REG & CY_PM_MODE_CSR_PWRUP_PULSE_Q))
1207:.\Generated_Source\PSoC5/cyPm.c ****         {
1208:.\Generated_Source\PSoC5/cyPm.c ****             /* Disable hold off - no action on restore */
1209:.\Generated_Source\PSoC5/cyPm.c ****             CY_PM_PWRSYS_SLP_TR_REG &= CY_PM_PWRSYS_SLP_TR_HIBSLP_HOLDOFF_MASK;
1210:.\Generated_Source\PSoC5/cyPm.c ****         }
1211:.\Generated_Source\PSoC5/cyPm.c ****         else
1212:.\Generated_Source\PSoC5/cyPm.c ****         {
1213:.\Generated_Source\PSoC5/cyPm.c ****             /* Abort, device is not ready for low power mode entry */
1214:.\Generated_Source\PSoC5/cyPm.c **** 
1215:.\Generated_Source\PSoC5/cyPm.c ****             /* Restore global interrupt enable state */
1216:.\Generated_Source\PSoC5/cyPm.c ****             CyExitCriticalSection(interruptState);
1217:.\Generated_Source\PSoC5/cyPm.c **** 
1218:.\Generated_Source\PSoC5/cyPm.c ****             return;
1219:.\Generated_Source\PSoC5/cyPm.c ****         }
1220:.\Generated_Source\PSoC5/cyPm.c **** 
1221:.\Generated_Source\PSoC5/cyPm.c ****     CyPmHibSaveSet();
1222:.\Generated_Source\PSoC5/cyPm.c **** 
1223:.\Generated_Source\PSoC5/cyPm.c **** 
1224:.\Generated_Source\PSoC5/cyPm.c ****     /* Save and set new wake up configuration */
1225:.\Generated_Source\PSoC5/cyPm.c **** 
1226:.\Generated_Source\PSoC5/cyPm.c ****     /* Save and enable only wakeup on PICU */
1227:.\Generated_Source\PSoC5/cyPm.c ****     cyPmBackup.wakeupCfg0 = CY_PM_WAKEUP_CFG0_REG;
1228:.\Generated_Source\PSoC5/cyPm.c ****     CY_PM_WAKEUP_CFG0_REG = ((uint8) (wakeupSource >> 4u) & CY_PM_WAKEUP_PICU);
1229:.\Generated_Source\PSoC5/cyPm.c **** 
ARM GAS  C:\Users\mjphi\AppData\Local\Temp\ccWjpNxZ.s 			page 23


1230:.\Generated_Source\PSoC5/cyPm.c ****     /* Comparators */
1231:.\Generated_Source\PSoC5/cyPm.c ****     cyPmBackup.wakeupCfg1 = CY_PM_WAKEUP_CFG1_REG;
1232:.\Generated_Source\PSoC5/cyPm.c ****     CY_PM_WAKEUP_CFG1_REG = (((uint8) wakeupSource) & CY_PM_WAKEUP_SRC_CMPS_MASK);
1233:.\Generated_Source\PSoC5/cyPm.c **** 
1234:.\Generated_Source\PSoC5/cyPm.c ****     cyPmBackup.wakeupCfg2 = CY_PM_WAKEUP_CFG2_REG;
1235:.\Generated_Source\PSoC5/cyPm.c ****     CY_PM_WAKEUP_CFG2_REG = 0x00u;
1236:.\Generated_Source\PSoC5/cyPm.c **** 
1237:.\Generated_Source\PSoC5/cyPm.c **** 
1238:.\Generated_Source\PSoC5/cyPm.c ****     /* Last moment IMO frequency change */
1239:.\Generated_Source\PSoC5/cyPm.c ****     if(0u == (CY_PM_FASTCLK_IMO_CR_REG & CY_PM_FASTCLK_IMO_CR_FREQ_MASK))
1240:.\Generated_Source\PSoC5/cyPm.c ****     {
1241:.\Generated_Source\PSoC5/cyPm.c ****         /* IMO frequency is 12 MHz */
1242:.\Generated_Source\PSoC5/cyPm.c ****         cyPmBackup.imoActFreq12Mhz = CY_PM_ENABLED;
1243:.\Generated_Source\PSoC5/cyPm.c ****     }
1244:.\Generated_Source\PSoC5/cyPm.c ****     else
1245:.\Generated_Source\PSoC5/cyPm.c ****     {
1246:.\Generated_Source\PSoC5/cyPm.c ****         /* IMO frequency is not 12 MHz */
1247:.\Generated_Source\PSoC5/cyPm.c ****         cyPmBackup.imoActFreq12Mhz = CY_PM_DISABLED;
1248:.\Generated_Source\PSoC5/cyPm.c **** 
1249:.\Generated_Source\PSoC5/cyPm.c ****         /* Save IMO frequency */
1250:.\Generated_Source\PSoC5/cyPm.c ****         cyPmBackup.imoActFreq = CY_PM_FASTCLK_IMO_CR_REG & CY_PM_FASTCLK_IMO_CR_FREQ_MASK;
1251:.\Generated_Source\PSoC5/cyPm.c **** 
1252:.\Generated_Source\PSoC5/cyPm.c ****         /* Set IMO frequency to 12 MHz */
1253:.\Generated_Source\PSoC5/cyPm.c ****         CY_PM_FASTCLK_IMO_CR_REG &= ((uint8) (~CY_PM_FASTCLK_IMO_CR_FREQ_MASK));
1254:.\Generated_Source\PSoC5/cyPm.c ****     }
1255:.\Generated_Source\PSoC5/cyPm.c **** 
1256:.\Generated_Source\PSoC5/cyPm.c **** 
1257:.\Generated_Source\PSoC5/cyPm.c ****     /* Switch to Hibernate Mode */
1258:.\Generated_Source\PSoC5/cyPm.c ****     CY_PM_MODE_CSR_REG = (CY_PM_MODE_CSR_REG & ((uint8) (~CY_PM_MODE_CSR_MASK))) | CY_PM_MODE_CSR_H
1259:.\Generated_Source\PSoC5/cyPm.c **** 
1260:.\Generated_Source\PSoC5/cyPm.c ****     /* Recommended readback. */
1261:.\Generated_Source\PSoC5/cyPm.c ****     (void) CY_PM_MODE_CSR_REG;
1262:.\Generated_Source\PSoC5/cyPm.c **** 
1263:.\Generated_Source\PSoC5/cyPm.c ****     /* Two recommended NOPs to get into mode. */
1264:.\Generated_Source\PSoC5/cyPm.c ****     CY_NOP;
1265:.\Generated_Source\PSoC5/cyPm.c ****     CY_NOP;
1266:.\Generated_Source\PSoC5/cyPm.c **** 
1267:.\Generated_Source\PSoC5/cyPm.c ****     /* Execute WFI instruction (for ARM-based devices only) */
1268:.\Generated_Source\PSoC5/cyPm.c ****     CY_PM_WFI;
1269:.\Generated_Source\PSoC5/cyPm.c **** 
1270:.\Generated_Source\PSoC5/cyPm.c **** 
1271:.\Generated_Source\PSoC5/cyPm.c ****     /* Point of return from Hibernate mode */
1272:.\Generated_Source\PSoC5/cyPm.c **** 
1273:.\Generated_Source\PSoC5/cyPm.c **** 
1274:.\Generated_Source\PSoC5/cyPm.c ****     /* Restore last moment IMO frequency change */
1275:.\Generated_Source\PSoC5/cyPm.c ****     if(CY_PM_ENABLED != cyPmBackup.imoActFreq12Mhz)
1276:.\Generated_Source\PSoC5/cyPm.c ****     {
1277:.\Generated_Source\PSoC5/cyPm.c ****         CY_PM_FASTCLK_IMO_CR_REG  = (CY_PM_FASTCLK_IMO_CR_REG & ((uint8)(~CY_PM_FASTCLK_IMO_CR_FREQ
1278:.\Generated_Source\PSoC5/cyPm.c ****                                     cyPmBackup.imoActFreq;
1279:.\Generated_Source\PSoC5/cyPm.c ****     }
1280:.\Generated_Source\PSoC5/cyPm.c **** 
1281:.\Generated_Source\PSoC5/cyPm.c **** 
1282:.\Generated_Source\PSoC5/cyPm.c ****     /* Restore device for proper Hibernate mode exit*/
1283:.\Generated_Source\PSoC5/cyPm.c ****     CyPmHibRestore();
1284:.\Generated_Source\PSoC5/cyPm.c **** 
1285:.\Generated_Source\PSoC5/cyPm.c ****     /* Restore current wake up configuration */
1286:.\Generated_Source\PSoC5/cyPm.c ****     CY_PM_WAKEUP_CFG0_REG = cyPmBackup.wakeupCfg0;
ARM GAS  C:\Users\mjphi\AppData\Local\Temp\ccWjpNxZ.s 			page 24


1287:.\Generated_Source\PSoC5/cyPm.c ****     CY_PM_WAKEUP_CFG1_REG = cyPmBackup.wakeupCfg1;
1288:.\Generated_Source\PSoC5/cyPm.c ****     CY_PM_WAKEUP_CFG2_REG = cyPmBackup.wakeupCfg2;
1289:.\Generated_Source\PSoC5/cyPm.c **** 
1290:.\Generated_Source\PSoC5/cyPm.c ****     /* Restore global interrupt enable state */
1291:.\Generated_Source\PSoC5/cyPm.c ****     CyExitCriticalSection(interruptState);
1292:.\Generated_Source\PSoC5/cyPm.c **** }
1293:.\Generated_Source\PSoC5/cyPm.c **** 
1294:.\Generated_Source\PSoC5/cyPm.c **** 
1295:.\Generated_Source\PSoC5/cyPm.c **** /*******************************************************************************
1296:.\Generated_Source\PSoC5/cyPm.c **** * Function Name: CyPmReadStatus
1297:.\Generated_Source\PSoC5/cyPm.c **** ********************************************************************************
1298:.\Generated_Source\PSoC5/cyPm.c **** *
1299:.\Generated_Source\PSoC5/cyPm.c **** * Summary:
1300:.\Generated_Source\PSoC5/cyPm.c **** *  Manages the Power Manager Interrupt Status Register.  This register has the
1301:.\Generated_Source\PSoC5/cyPm.c **** *  interrupt status for the one pulse per second, central timewheel and fast
1302:.\Generated_Source\PSoC5/cyPm.c **** *  timewheel timers.  This hardware register clears on read.  To allow for only
1303:.\Generated_Source\PSoC5/cyPm.c **** *  clearing the bits of interest and preserving the other bits, this function
1304:.\Generated_Source\PSoC5/cyPm.c **** *  uses a shadow register that retains the state.  This function reads the
1305:.\Generated_Source\PSoC5/cyPm.c **** *  status register and ORs that value with the shadow register.  That is the
1306:.\Generated_Source\PSoC5/cyPm.c **** *  value that is returned.  Then the bits in the mask that are set are cleared
1307:.\Generated_Source\PSoC5/cyPm.c **** *  from this value and written back to the shadow register.
1308:.\Generated_Source\PSoC5/cyPm.c **** *
1309:.\Generated_Source\PSoC5/cyPm.c **** *  Note You must call this function within 1 ms (1 clock cycle of the ILO)
1310:.\Generated_Source\PSoC5/cyPm.c **** *  after a CTW event has occurred.
1311:.\Generated_Source\PSoC5/cyPm.c **** *
1312:.\Generated_Source\PSoC5/cyPm.c **** * Parameters:
1313:.\Generated_Source\PSoC5/cyPm.c **** *  mask: Bits in the shadow register to clear.
1314:.\Generated_Source\PSoC5/cyPm.c **** *
1315:.\Generated_Source\PSoC5/cyPm.c **** *       Define                      Source
1316:.\Generated_Source\PSoC5/cyPm.c **** *  CY_PM_FTW_INT                Fast Timewheel
1317:.\Generated_Source\PSoC5/cyPm.c **** *  CY_PM_CTW_INT                Central Timewheel
1318:.\Generated_Source\PSoC5/cyPm.c **** *  CY_PM_ONEPPS_INT             One Pulse Per Second
1319:.\Generated_Source\PSoC5/cyPm.c **** *
1320:.\Generated_Source\PSoC5/cyPm.c **** * Return:
1321:.\Generated_Source\PSoC5/cyPm.c **** *  Status.  Same bits values as the mask parameter.
1322:.\Generated_Source\PSoC5/cyPm.c **** *
1323:.\Generated_Source\PSoC5/cyPm.c **** *******************************************************************************/
1324:.\Generated_Source\PSoC5/cyPm.c **** uint8 CyPmReadStatus(uint8 mask) 
1325:.\Generated_Source\PSoC5/cyPm.c **** {
1326:.\Generated_Source\PSoC5/cyPm.c ****     static uint8 interruptStatus;
1327:.\Generated_Source\PSoC5/cyPm.c ****     uint8 interruptState;
1328:.\Generated_Source\PSoC5/cyPm.c ****     uint8 tmpStatus;
1329:.\Generated_Source\PSoC5/cyPm.c **** 
1330:.\Generated_Source\PSoC5/cyPm.c ****     /* Enter critical section */
1331:.\Generated_Source\PSoC5/cyPm.c ****     interruptState = CyEnterCriticalSection();
1332:.\Generated_Source\PSoC5/cyPm.c **** 
1333:.\Generated_Source\PSoC5/cyPm.c ****     /* Save value of register, copy it and clear desired bit */
1334:.\Generated_Source\PSoC5/cyPm.c ****     interruptStatus |= CY_PM_INT_SR_REG;
1335:.\Generated_Source\PSoC5/cyPm.c ****     tmpStatus = interruptStatus & (CY_PM_FTW_INT | CY_PM_CTW_INT | CY_PM_ONEPPS_INT);
1336:.\Generated_Source\PSoC5/cyPm.c ****     interruptStatus &= ((uint8)(~mask));
1337:.\Generated_Source\PSoC5/cyPm.c **** 
1338:.\Generated_Source\PSoC5/cyPm.c ****     /* Exit critical section */
1339:.\Generated_Source\PSoC5/cyPm.c ****     CyExitCriticalSection(interruptState);
1340:.\Generated_Source\PSoC5/cyPm.c **** 
1341:.\Generated_Source\PSoC5/cyPm.c ****     return(tmpStatus);
1342:.\Generated_Source\PSoC5/cyPm.c **** }
1343:.\Generated_Source\PSoC5/cyPm.c **** 
ARM GAS  C:\Users\mjphi\AppData\Local\Temp\ccWjpNxZ.s 			page 25


1344:.\Generated_Source\PSoC5/cyPm.c **** 
1345:.\Generated_Source\PSoC5/cyPm.c **** /*******************************************************************************
1346:.\Generated_Source\PSoC5/cyPm.c **** * Function Name: CyPmHibSaveSet
1347:.\Generated_Source\PSoC5/cyPm.c **** ********************************************************************************
1348:.\Generated_Source\PSoC5/cyPm.c **** *
1349:.\Generated_Source\PSoC5/cyPm.c **** * Summary:
1350:.\Generated_Source\PSoC5/cyPm.c **** *  Prepare device for proper Hibernate low power mode entry:
1351:.\Generated_Source\PSoC5/cyPm.c **** *  - Disables I2C backup regulator
1352:.\Generated_Source\PSoC5/cyPm.c **** *  - Saves ILO power down mode state and enable it
1353:.\Generated_Source\PSoC5/cyPm.c **** *  - Saves state of 1 kHz and 100 kHz ILO and disable them
1354:.\Generated_Source\PSoC5/cyPm.c **** *  - Disables sleep regulator and shorts vccd to vpwrsleep
1355:.\Generated_Source\PSoC5/cyPm.c **** *  - Save LVI/HVI configuration and disable them - CyPmHviLviSaveDisable()
1356:.\Generated_Source\PSoC5/cyPm.c **** *  - CyPmHibSlpSaveSet() function is called
1357:.\Generated_Source\PSoC5/cyPm.c **** *
1358:.\Generated_Source\PSoC5/cyPm.c **** * Parameters:
1359:.\Generated_Source\PSoC5/cyPm.c **** *  None
1360:.\Generated_Source\PSoC5/cyPm.c **** *
1361:.\Generated_Source\PSoC5/cyPm.c **** * Return:
1362:.\Generated_Source\PSoC5/cyPm.c **** *  None
1363:.\Generated_Source\PSoC5/cyPm.c **** *
1364:.\Generated_Source\PSoC5/cyPm.c **** * Reentrant:
1365:.\Generated_Source\PSoC5/cyPm.c **** *  No
1366:.\Generated_Source\PSoC5/cyPm.c **** *
1367:.\Generated_Source\PSoC5/cyPm.c **** *******************************************************************************/
1368:.\Generated_Source\PSoC5/cyPm.c **** static void CyPmHibSaveSet(void) 
1369:.\Generated_Source\PSoC5/cyPm.c **** {
1370:.\Generated_Source\PSoC5/cyPm.c ****     /* I2C backup reg must be off when the sleep regulator is unavailable */
1371:.\Generated_Source\PSoC5/cyPm.c ****     if(0u != (CY_PM_PWRSYS_CR1_REG & CY_PM_PWRSYS_CR1_I2CREG_BACKUP))
1372:.\Generated_Source\PSoC5/cyPm.c ****     {
1373:.\Generated_Source\PSoC5/cyPm.c ****         /***********************************************************************
1374:.\Generated_Source\PSoC5/cyPm.c ****         * If the I2C backup regulator is enabled, all the fixed-function registers
1375:.\Generated_Source\PSoC5/cyPm.c ****         * store their values while the device is in the low power mode, otherwise their
1376:.\Generated_Source\PSoC5/cyPm.c ****         * configuration is lost. The I2C API makes a decision to restore or not
1377:.\Generated_Source\PSoC5/cyPm.c ****         * to restore I2C registers based on this. If this regulator will be
1378:.\Generated_Source\PSoC5/cyPm.c ****         * disabled and then enabled, I2C API will suppose that the I2C block
1379:.\Generated_Source\PSoC5/cyPm.c ****         * registers preserved their values, while this is not true. So, the
1380:.\Generated_Source\PSoC5/cyPm.c ****         * backup regulator is disabled. The I2C sleep APIs is responsible for
1381:.\Generated_Source\PSoC5/cyPm.c ****         * restoration.
1382:.\Generated_Source\PSoC5/cyPm.c ****         ***********************************************************************/
1383:.\Generated_Source\PSoC5/cyPm.c **** 
1384:.\Generated_Source\PSoC5/cyPm.c ****         /* Disable I2C backup register */
1385:.\Generated_Source\PSoC5/cyPm.c ****         CY_PM_PWRSYS_CR1_REG &= ((uint8)(~CY_PM_PWRSYS_CR1_I2CREG_BACKUP));
1386:.\Generated_Source\PSoC5/cyPm.c ****     }
1387:.\Generated_Source\PSoC5/cyPm.c **** 
1388:.\Generated_Source\PSoC5/cyPm.c **** 
1389:.\Generated_Source\PSoC5/cyPm.c ****     /* Save current ILO power mode and ensure low power mode */
1390:.\Generated_Source\PSoC5/cyPm.c ****     cyPmBackup.iloPowerMode = CyILO_SetPowerMode(CY_PM_POWERDOWN_MODE);
1391:.\Generated_Source\PSoC5/cyPm.c **** 
1392:.\Generated_Source\PSoC5/cyPm.c ****     /* Save current 1kHz ILO enable state. Disabled automatically. */
1393:.\Generated_Source\PSoC5/cyPm.c ****     cyPmBackup.ilo1kEnable = (0u == (CY_PM_SLOWCLK_ILO_CR0_REG & CY_PM_ILO_CR0_EN_1K)) ?
1394:.\Generated_Source\PSoC5/cyPm.c ****                                 CY_PM_DISABLED : CY_PM_ENABLED;
1395:.\Generated_Source\PSoC5/cyPm.c **** 
1396:.\Generated_Source\PSoC5/cyPm.c ****     /* Save current 100kHz ILO enable state. Disabled automatically. */
1397:.\Generated_Source\PSoC5/cyPm.c ****     cyPmBackup.ilo100kEnable = (0u == (CY_PM_SLOWCLK_ILO_CR0_REG & CY_PM_ILO_CR0_EN_100K)) ?
1398:.\Generated_Source\PSoC5/cyPm.c ****                                 CY_PM_DISABLED : CY_PM_ENABLED;
1399:.\Generated_Source\PSoC5/cyPm.c **** 
1400:.\Generated_Source\PSoC5/cyPm.c **** 
ARM GAS  C:\Users\mjphi\AppData\Local\Temp\ccWjpNxZ.s 			page 26


1401:.\Generated_Source\PSoC5/cyPm.c ****     /* Disable the sleep regulator and shorts vccd to vpwrsleep */
1402:.\Generated_Source\PSoC5/cyPm.c ****     if(0u == (CY_PM_PWRSYS_SLP_TR_REG & CY_PM_PWRSYS_SLP_TR_BYPASS))
1403:.\Generated_Source\PSoC5/cyPm.c ****     {
1404:.\Generated_Source\PSoC5/cyPm.c ****         /* Save current bypass state */
1405:.\Generated_Source\PSoC5/cyPm.c ****         cyPmBackup.slpTrBypass = CY_PM_DISABLED;
1406:.\Generated_Source\PSoC5/cyPm.c ****         CY_PM_PWRSYS_SLP_TR_REG |= CY_PM_PWRSYS_SLP_TR_BYPASS;
1407:.\Generated_Source\PSoC5/cyPm.c ****     }
1408:.\Generated_Source\PSoC5/cyPm.c ****     else
1409:.\Generated_Source\PSoC5/cyPm.c ****     {
1410:.\Generated_Source\PSoC5/cyPm.c ****         cyPmBackup.slpTrBypass = CY_PM_ENABLED;
1411:.\Generated_Source\PSoC5/cyPm.c ****     }
1412:.\Generated_Source\PSoC5/cyPm.c **** 
1413:.\Generated_Source\PSoC5/cyPm.c ****     /* LPCOMPs are always enabled (even when BOTH ext_vccd=1 and ext_vcca=1)*/
1414:.\Generated_Source\PSoC5/cyPm.c **** 
1415:.\Generated_Source\PSoC5/cyPm.c **** 
1416:.\Generated_Source\PSoC5/cyPm.c ****     /***************************************************************************
1417:.\Generated_Source\PSoC5/cyPm.c ****     * LVI/HVI must be disabled in Hibernate
1418:.\Generated_Source\PSoC5/cyPm.c ****     ***************************************************************************/
1419:.\Generated_Source\PSoC5/cyPm.c **** 
1420:.\Generated_Source\PSoC5/cyPm.c ****     /* Save LVI/HVI configuration and disable them */
1421:.\Generated_Source\PSoC5/cyPm.c ****     CyPmHviLviSaveDisable();
1422:.\Generated_Source\PSoC5/cyPm.c **** 
1423:.\Generated_Source\PSoC5/cyPm.c **** 
1424:.\Generated_Source\PSoC5/cyPm.c ****     /* Make the same preparations for Hibernate and Sleep modes */
1425:.\Generated_Source\PSoC5/cyPm.c ****     CyPmHibSlpSaveSet();
1426:.\Generated_Source\PSoC5/cyPm.c **** 
1427:.\Generated_Source\PSoC5/cyPm.c **** 
1428:.\Generated_Source\PSoC5/cyPm.c ****     /***************************************************************************
1429:.\Generated_Source\PSoC5/cyPm.c ****     * Save and set the power mode wakeup trim registers
1430:.\Generated_Source\PSoC5/cyPm.c ****     ***************************************************************************/
1431:.\Generated_Source\PSoC5/cyPm.c ****     cyPmBackup.wakeupTrim0 = CY_PM_PWRSYS_WAKE_TR0_REG;
1432:.\Generated_Source\PSoC5/cyPm.c ****     cyPmBackup.wakeupTrim1 = CY_PM_PWRSYS_WAKE_TR1_REG;
1433:.\Generated_Source\PSoC5/cyPm.c **** 
1434:.\Generated_Source\PSoC5/cyPm.c ****     CY_PM_PWRSYS_WAKE_TR0_REG = CY_PM_PWRSYS_WAKE_TR0;
1435:.\Generated_Source\PSoC5/cyPm.c ****     CY_PM_PWRSYS_WAKE_TR1_REG = CY_PM_PWRSYS_WAKE_TR1;
1436:.\Generated_Source\PSoC5/cyPm.c **** }
1437:.\Generated_Source\PSoC5/cyPm.c **** 
1438:.\Generated_Source\PSoC5/cyPm.c **** 
1439:.\Generated_Source\PSoC5/cyPm.c **** /*******************************************************************************
1440:.\Generated_Source\PSoC5/cyPm.c **** * Function Name: CyPmHibRestore
1441:.\Generated_Source\PSoC5/cyPm.c **** ********************************************************************************
1442:.\Generated_Source\PSoC5/cyPm.c **** *
1443:.\Generated_Source\PSoC5/cyPm.c **** * Summary:
1444:.\Generated_Source\PSoC5/cyPm.c **** *  Restores the device for the proper Hibernate mode exit:
1445:.\Generated_Source\PSoC5/cyPm.c **** *  - Restores LVI/HVI configuration - calsl CyPmHviLviRestore()
1446:.\Generated_Source\PSoC5/cyPm.c **** *  - CyPmHibSlpSaveRestore() function is called
1447:.\Generated_Source\PSoC5/cyPm.c **** *  - Restores ILO power down mode state and enables it
1448:.\Generated_Source\PSoC5/cyPm.c **** *  - Restores the state of 1 kHz and 100 kHz ILO and disables them
1449:.\Generated_Source\PSoC5/cyPm.c **** *  - Restores the sleep regulator settings
1450:.\Generated_Source\PSoC5/cyPm.c **** *
1451:.\Generated_Source\PSoC5/cyPm.c **** * Parameters:
1452:.\Generated_Source\PSoC5/cyPm.c **** *  None
1453:.\Generated_Source\PSoC5/cyPm.c **** *
1454:.\Generated_Source\PSoC5/cyPm.c **** * Return:
1455:.\Generated_Source\PSoC5/cyPm.c **** *  None
1456:.\Generated_Source\PSoC5/cyPm.c **** *
1457:.\Generated_Source\PSoC5/cyPm.c **** *******************************************************************************/
ARM GAS  C:\Users\mjphi\AppData\Local\Temp\ccWjpNxZ.s 			page 27


1458:.\Generated_Source\PSoC5/cyPm.c **** static void CyPmHibRestore(void) 
1459:.\Generated_Source\PSoC5/cyPm.c **** {
1460:.\Generated_Source\PSoC5/cyPm.c ****     /* Restore LVI/HVI configuration */
1461:.\Generated_Source\PSoC5/cyPm.c ****     CyPmHviLviRestore();
1462:.\Generated_Source\PSoC5/cyPm.c **** 
1463:.\Generated_Source\PSoC5/cyPm.c ****     /* Restore the same configuration for Hibernate and Sleep modes */
1464:.\Generated_Source\PSoC5/cyPm.c ****     CyPmHibSlpRestore();
1465:.\Generated_Source\PSoC5/cyPm.c **** 
1466:.\Generated_Source\PSoC5/cyPm.c ****     /* Restore 1kHz ILO enable state */
1467:.\Generated_Source\PSoC5/cyPm.c ****     if(CY_PM_ENABLED == cyPmBackup.ilo1kEnable)
1468:.\Generated_Source\PSoC5/cyPm.c ****     {
1469:.\Generated_Source\PSoC5/cyPm.c ****         /* Enable 1kHz ILO */
1470:.\Generated_Source\PSoC5/cyPm.c ****         CyILO_Start1K();
1471:.\Generated_Source\PSoC5/cyPm.c ****     }
1472:.\Generated_Source\PSoC5/cyPm.c **** 
1473:.\Generated_Source\PSoC5/cyPm.c ****     /* Restore 100kHz ILO enable state */
1474:.\Generated_Source\PSoC5/cyPm.c ****     if(CY_PM_ENABLED == cyPmBackup.ilo100kEnable)
1475:.\Generated_Source\PSoC5/cyPm.c ****     {
1476:.\Generated_Source\PSoC5/cyPm.c ****         /* Enable 100kHz ILO */
1477:.\Generated_Source\PSoC5/cyPm.c ****         CyILO_Start100K();
1478:.\Generated_Source\PSoC5/cyPm.c ****     }
1479:.\Generated_Source\PSoC5/cyPm.c **** 
1480:.\Generated_Source\PSoC5/cyPm.c ****     /* Restore ILO power mode */
1481:.\Generated_Source\PSoC5/cyPm.c ****     (void) CyILO_SetPowerMode(cyPmBackup.iloPowerMode);
1482:.\Generated_Source\PSoC5/cyPm.c **** 
1483:.\Generated_Source\PSoC5/cyPm.c **** 
1484:.\Generated_Source\PSoC5/cyPm.c ****     if(CY_PM_DISABLED == cyPmBackup.slpTrBypass)
1485:.\Generated_Source\PSoC5/cyPm.c ****     {
1486:.\Generated_Source\PSoC5/cyPm.c ****         /* Enable the sleep regulator */
1487:.\Generated_Source\PSoC5/cyPm.c ****         CY_PM_PWRSYS_SLP_TR_REG &= ((uint8)(~CY_PM_PWRSYS_SLP_TR_BYPASS));
1488:.\Generated_Source\PSoC5/cyPm.c ****     }
1489:.\Generated_Source\PSoC5/cyPm.c **** 
1490:.\Generated_Source\PSoC5/cyPm.c **** 
1491:.\Generated_Source\PSoC5/cyPm.c ****     /***************************************************************************
1492:.\Generated_Source\PSoC5/cyPm.c ****     * Restore the power mode wakeup trim registers
1493:.\Generated_Source\PSoC5/cyPm.c ****     ***************************************************************************/
1494:.\Generated_Source\PSoC5/cyPm.c ****     CY_PM_PWRSYS_WAKE_TR0_REG = cyPmBackup.wakeupTrim0;
1495:.\Generated_Source\PSoC5/cyPm.c ****     CY_PM_PWRSYS_WAKE_TR1_REG = cyPmBackup.wakeupTrim1;
1496:.\Generated_Source\PSoC5/cyPm.c **** }
1497:.\Generated_Source\PSoC5/cyPm.c **** 
1498:.\Generated_Source\PSoC5/cyPm.c **** 
1499:.\Generated_Source\PSoC5/cyPm.c **** /*******************************************************************************
1500:.\Generated_Source\PSoC5/cyPm.c **** * Function Name: CyPmCtwSetInterval
1501:.\Generated_Source\PSoC5/cyPm.c **** ********************************************************************************
1502:.\Generated_Source\PSoC5/cyPm.c **** *
1503:.\Generated_Source\PSoC5/cyPm.c **** * Summary:
1504:.\Generated_Source\PSoC5/cyPm.c **** *  Performs the CTW configuration:
1505:.\Generated_Source\PSoC5/cyPm.c **** *  - Disables the CTW interrupt
1506:.\Generated_Source\PSoC5/cyPm.c **** *  - Enables 1 kHz ILO
1507:.\Generated_Source\PSoC5/cyPm.c **** *  - Sets a new CTW interval
1508:.\Generated_Source\PSoC5/cyPm.c **** *
1509:.\Generated_Source\PSoC5/cyPm.c **** * Parameters:
1510:.\Generated_Source\PSoC5/cyPm.c **** *  ctwInterval: the CTW interval to be set.
1511:.\Generated_Source\PSoC5/cyPm.c **** *
1512:.\Generated_Source\PSoC5/cyPm.c **** * Return:
1513:.\Generated_Source\PSoC5/cyPm.c **** *  None
1514:.\Generated_Source\PSoC5/cyPm.c **** *
ARM GAS  C:\Users\mjphi\AppData\Local\Temp\ccWjpNxZ.s 			page 28


1515:.\Generated_Source\PSoC5/cyPm.c **** * Side Effects:
1516:.\Generated_Source\PSoC5/cyPm.c **** *  Enables ILO 1 KHz clock and leaves it enabled.
1517:.\Generated_Source\PSoC5/cyPm.c **** *
1518:.\Generated_Source\PSoC5/cyPm.c **** *******************************************************************************/
1519:.\Generated_Source\PSoC5/cyPm.c **** void CyPmCtwSetInterval(uint8 ctwInterval) 
1520:.\Generated_Source\PSoC5/cyPm.c **** {
1521:.\Generated_Source\PSoC5/cyPm.c ****     /* Disable CTW interrupt enable */
1522:.\Generated_Source\PSoC5/cyPm.c ****     CY_PM_TW_CFG2_REG &= ((uint8)(~CY_PM_CTW_IE));
1523:.\Generated_Source\PSoC5/cyPm.c **** 
1524:.\Generated_Source\PSoC5/cyPm.c ****     /* Enable 1kHz ILO (required for CTW operation) */
1525:.\Generated_Source\PSoC5/cyPm.c ****     CyILO_Start1K();
1526:.\Generated_Source\PSoC5/cyPm.c **** 
1527:.\Generated_Source\PSoC5/cyPm.c ****     /* Interval could be set only while CTW is disabled */
1528:.\Generated_Source\PSoC5/cyPm.c ****     if(0u != (CY_PM_TW_CFG2_REG & CY_PM_CTW_EN))
1529:.\Generated_Source\PSoC5/cyPm.c ****     {
1530:.\Generated_Source\PSoC5/cyPm.c ****         /* Set CTW interval if needed */
1531:.\Generated_Source\PSoC5/cyPm.c ****         if(CY_PM_TW_CFG1_REG != ctwInterval)
1532:.\Generated_Source\PSoC5/cyPm.c ****         {
1533:.\Generated_Source\PSoC5/cyPm.c ****             /* Disable the CTW, set new CTW interval and enable it again */
1534:.\Generated_Source\PSoC5/cyPm.c ****             CY_PM_TW_CFG2_REG &= ((uint8)(~CY_PM_CTW_EN));
1535:.\Generated_Source\PSoC5/cyPm.c ****             CY_PM_TW_CFG1_REG = ctwInterval;
1536:.\Generated_Source\PSoC5/cyPm.c ****             CY_PM_TW_CFG2_REG |= CY_PM_CTW_EN;
1537:.\Generated_Source\PSoC5/cyPm.c ****         }   /* Required interval is already set */
1538:.\Generated_Source\PSoC5/cyPm.c ****     }
1539:.\Generated_Source\PSoC5/cyPm.c ****     else
1540:.\Generated_Source\PSoC5/cyPm.c ****     {
1541:.\Generated_Source\PSoC5/cyPm.c ****         /* Set CTW interval if needed */
1542:.\Generated_Source\PSoC5/cyPm.c ****         if(CY_PM_TW_CFG1_REG != ctwInterval)
1543:.\Generated_Source\PSoC5/cyPm.c ****         {
1544:.\Generated_Source\PSoC5/cyPm.c ****             /* Set new CTW interval. Could be changed if CTW is disabled */
1545:.\Generated_Source\PSoC5/cyPm.c ****             CY_PM_TW_CFG1_REG = ctwInterval;
1546:.\Generated_Source\PSoC5/cyPm.c ****         }   /* Required interval is already set */
1547:.\Generated_Source\PSoC5/cyPm.c **** 
1548:.\Generated_Source\PSoC5/cyPm.c ****         /* Enable CTW */
1549:.\Generated_Source\PSoC5/cyPm.c ****         CY_PM_TW_CFG2_REG |= CY_PM_CTW_EN;
1550:.\Generated_Source\PSoC5/cyPm.c ****     }
1551:.\Generated_Source\PSoC5/cyPm.c **** }
1552:.\Generated_Source\PSoC5/cyPm.c **** 
1553:.\Generated_Source\PSoC5/cyPm.c **** 
1554:.\Generated_Source\PSoC5/cyPm.c **** /*******************************************************************************
1555:.\Generated_Source\PSoC5/cyPm.c **** * Function Name: CyPmOppsSet
1556:.\Generated_Source\PSoC5/cyPm.c **** ********************************************************************************
1557:.\Generated_Source\PSoC5/cyPm.c **** *
1558:.\Generated_Source\PSoC5/cyPm.c **** * Summary:
1559:.\Generated_Source\PSoC5/cyPm.c **** *  Performs 1PPS configuration:
1560:.\Generated_Source\PSoC5/cyPm.c **** *  - Starts 32 KHz XTAL
1561:.\Generated_Source\PSoC5/cyPm.c **** *  - Disables 1PPS interrupts
1562:.\Generated_Source\PSoC5/cyPm.c **** *  - Enables 1PPS
1563:.\Generated_Source\PSoC5/cyPm.c **** *
1564:.\Generated_Source\PSoC5/cyPm.c **** * Parameters:
1565:.\Generated_Source\PSoC5/cyPm.c **** *  None
1566:.\Generated_Source\PSoC5/cyPm.c **** *
1567:.\Generated_Source\PSoC5/cyPm.c **** * Return:
1568:.\Generated_Source\PSoC5/cyPm.c **** *  None
1569:.\Generated_Source\PSoC5/cyPm.c **** *
1570:.\Generated_Source\PSoC5/cyPm.c **** *******************************************************************************/
1571:.\Generated_Source\PSoC5/cyPm.c **** void CyPmOppsSet(void) 
ARM GAS  C:\Users\mjphi\AppData\Local\Temp\ccWjpNxZ.s 			page 29


1572:.\Generated_Source\PSoC5/cyPm.c **** {
1573:.\Generated_Source\PSoC5/cyPm.c ****     /* Enable 32kHz XTAL if needed */
1574:.\Generated_Source\PSoC5/cyPm.c ****     if(0u == (CY_PM_SLOWCLK_X32_CR_REG & CY_PM_X32_CR_X32EN))
1575:.\Generated_Source\PSoC5/cyPm.c ****     {
1576:.\Generated_Source\PSoC5/cyPm.c ****         /* Enable 32kHz XTAL */
1577:.\Generated_Source\PSoC5/cyPm.c ****         CyXTAL_32KHZ_Start();
1578:.\Generated_Source\PSoC5/cyPm.c ****     }
1579:.\Generated_Source\PSoC5/cyPm.c **** 
1580:.\Generated_Source\PSoC5/cyPm.c ****     /* Disable 1PPS interrupt enable */
1581:.\Generated_Source\PSoC5/cyPm.c ****     CY_PM_TW_CFG2_REG &= ((uint8)(~CY_PM_1PPS_IE));
1582:.\Generated_Source\PSoC5/cyPm.c **** 
1583:.\Generated_Source\PSoC5/cyPm.c ****     /* Enable 1PPS operation */
1584:.\Generated_Source\PSoC5/cyPm.c ****     CY_PM_TW_CFG2_REG |= CY_PM_1PPS_EN;
1585:.\Generated_Source\PSoC5/cyPm.c **** }
1586:.\Generated_Source\PSoC5/cyPm.c **** 
1587:.\Generated_Source\PSoC5/cyPm.c **** 
1588:.\Generated_Source\PSoC5/cyPm.c **** /*******************************************************************************
1589:.\Generated_Source\PSoC5/cyPm.c **** * Function Name: CyPmFtwSetInterval
1590:.\Generated_Source\PSoC5/cyPm.c **** ********************************************************************************
1591:.\Generated_Source\PSoC5/cyPm.c **** *
1592:.\Generated_Source\PSoC5/cyPm.c **** * Summary:
1593:.\Generated_Source\PSoC5/cyPm.c **** *  Performs the FTW configuration:
1594:.\Generated_Source\PSoC5/cyPm.c **** *  - Disables the FTW interrupt
1595:.\Generated_Source\PSoC5/cyPm.c **** *  - Enables 100 kHz ILO
1596:.\Generated_Source\PSoC5/cyPm.c **** *  - Sets a new FTW interval.
1597:.\Generated_Source\PSoC5/cyPm.c **** *
1598:.\Generated_Source\PSoC5/cyPm.c **** * Parameters:
1599:.\Generated_Source\PSoC5/cyPm.c **** *  ftwInterval - FTW counter interval.
1600:.\Generated_Source\PSoC5/cyPm.c **** *
1601:.\Generated_Source\PSoC5/cyPm.c **** * Return:
1602:.\Generated_Source\PSoC5/cyPm.c **** *  None
1603:.\Generated_Source\PSoC5/cyPm.c **** *
1604:.\Generated_Source\PSoC5/cyPm.c **** * Side Effects:
1605:.\Generated_Source\PSoC5/cyPm.c **** *  Enables the ILO 100 KHz clock and leaves it enabled.
1606:.\Generated_Source\PSoC5/cyPm.c **** *
1607:.\Generated_Source\PSoC5/cyPm.c **** *******************************************************************************/
1608:.\Generated_Source\PSoC5/cyPm.c **** void CyPmFtwSetInterval(uint8 ftwInterval) 
1609:.\Generated_Source\PSoC5/cyPm.c **** {
1610:.\Generated_Source\PSoC5/cyPm.c ****     /* Disable FTW interrupt enable */
1611:.\Generated_Source\PSoC5/cyPm.c ****     CY_PM_TW_CFG2_REG &= ((uint8)(~CY_PM_FTW_IE));
1612:.\Generated_Source\PSoC5/cyPm.c **** 
1613:.\Generated_Source\PSoC5/cyPm.c ****     /* Enable 100kHz ILO */
1614:.\Generated_Source\PSoC5/cyPm.c ****     CyILO_Start100K();
1615:.\Generated_Source\PSoC5/cyPm.c **** 
1616:.\Generated_Source\PSoC5/cyPm.c ****     /* Interval could be set only while FTW is disabled */
1617:.\Generated_Source\PSoC5/cyPm.c ****     if(0u != (CY_PM_TW_CFG2_REG & CY_PM_FTW_EN))
1618:.\Generated_Source\PSoC5/cyPm.c ****     {
1619:.\Generated_Source\PSoC5/cyPm.c ****         /* Disable FTW, set new FTW interval if needed and enable it again */
1620:.\Generated_Source\PSoC5/cyPm.c ****         if(CY_PM_TW_CFG0_REG != ftwInterval)
1621:.\Generated_Source\PSoC5/cyPm.c ****         {
1622:.\Generated_Source\PSoC5/cyPm.c ****             /* Disable CTW, set new CTW interval and enable it again */
1623:.\Generated_Source\PSoC5/cyPm.c ****             CY_PM_TW_CFG2_REG &= ((uint8)(~CY_PM_FTW_EN));
1624:.\Generated_Source\PSoC5/cyPm.c ****             CY_PM_TW_CFG0_REG = ftwInterval;
1625:.\Generated_Source\PSoC5/cyPm.c ****             CY_PM_TW_CFG2_REG |= CY_PM_FTW_EN;
1626:.\Generated_Source\PSoC5/cyPm.c ****         }   /* Required interval is already set */
1627:.\Generated_Source\PSoC5/cyPm.c ****     }
1628:.\Generated_Source\PSoC5/cyPm.c ****     else
ARM GAS  C:\Users\mjphi\AppData\Local\Temp\ccWjpNxZ.s 			page 30


1629:.\Generated_Source\PSoC5/cyPm.c ****     {
1630:.\Generated_Source\PSoC5/cyPm.c ****         /* Set new FTW counter interval if needed. FTW is disabled. */
1631:.\Generated_Source\PSoC5/cyPm.c ****         if(CY_PM_TW_CFG0_REG != ftwInterval)
1632:.\Generated_Source\PSoC5/cyPm.c ****         {
1633:.\Generated_Source\PSoC5/cyPm.c ****             /* Set new CTW interval. Could be changed if CTW is disabled */
1634:.\Generated_Source\PSoC5/cyPm.c ****             CY_PM_TW_CFG0_REG = ftwInterval;
1635:.\Generated_Source\PSoC5/cyPm.c ****         }   /* Required interval is already set */
1636:.\Generated_Source\PSoC5/cyPm.c **** 
1637:.\Generated_Source\PSoC5/cyPm.c ****         /* Enable FTW */
1638:.\Generated_Source\PSoC5/cyPm.c ****         CY_PM_TW_CFG2_REG |= CY_PM_FTW_EN;
1639:.\Generated_Source\PSoC5/cyPm.c ****     }
1640:.\Generated_Source\PSoC5/cyPm.c **** }
1641:.\Generated_Source\PSoC5/cyPm.c **** 
1642:.\Generated_Source\PSoC5/cyPm.c **** 
1643:.\Generated_Source\PSoC5/cyPm.c **** /*******************************************************************************
1644:.\Generated_Source\PSoC5/cyPm.c **** * Function Name: CyPmHibSlpSaveSet
1645:.\Generated_Source\PSoC5/cyPm.c **** ********************************************************************************
1646:.\Generated_Source\PSoC5/cyPm.c **** *
1647:.\Generated_Source\PSoC5/cyPm.c **** * Summary:
1648:.\Generated_Source\PSoC5/cyPm.c **** *  This API is used for preparing the device for the Sleep and Hibernate low
1649:.\Generated_Source\PSoC5/cyPm.c **** *  power modes entry:
1650:.\Generated_Source\PSoC5/cyPm.c **** *  - Saves the COMP, VIDAC, DSM, and SAR routing connections (PSoC 5)
1651:.\Generated_Source\PSoC5/cyPm.c **** *  - Saves the SC/CT routing connections (PSoC 3/5/5LP)
1652:.\Generated_Source\PSoC5/cyPm.c **** *  - Disables the Serial Wire Viewer (SWV) (PSoC 3)
1653:.\Generated_Source\PSoC5/cyPm.c **** *  - Saves the boost reference selection and sets it to internal
1654:.\Generated_Source\PSoC5/cyPm.c **** *
1655:.\Generated_Source\PSoC5/cyPm.c **** * Parameters:
1656:.\Generated_Source\PSoC5/cyPm.c **** *  None
1657:.\Generated_Source\PSoC5/cyPm.c **** *
1658:.\Generated_Source\PSoC5/cyPm.c **** * Return:
1659:.\Generated_Source\PSoC5/cyPm.c **** *  None
1660:.\Generated_Source\PSoC5/cyPm.c **** *
1661:.\Generated_Source\PSoC5/cyPm.c **** * Reentrant:
1662:.\Generated_Source\PSoC5/cyPm.c **** *  No
1663:.\Generated_Source\PSoC5/cyPm.c **** *
1664:.\Generated_Source\PSoC5/cyPm.c **** *******************************************************************************/
1665:.\Generated_Source\PSoC5/cyPm.c **** static void CyPmHibSlpSaveSet(void) 
1666:.\Generated_Source\PSoC5/cyPm.c **** {
  26              		.loc 1 1666 0
  27              		.cfi_startproc
  28              		@ args = 0, pretend = 0, frame = 0
  29              		@ frame_needed = 0, uses_anonymous_args = 0
  30 0000 2DE9F04F 		push	{r4, r5, r6, r7, r8, r9, r10, fp, lr}
  31              		.cfi_def_cfa_offset 36
  32              		.cfi_offset 4, -36
  33              		.cfi_offset 5, -32
  34              		.cfi_offset 6, -28
  35              		.cfi_offset 7, -24
  36              		.cfi_offset 8, -20
  37              		.cfi_offset 9, -16
  38              		.cfi_offset 10, -12
  39              		.cfi_offset 11, -8
  40              		.cfi_offset 14, -4
1667:.\Generated_Source\PSoC5/cyPm.c ****     /* Save SC/CT routing registers */
1668:.\Generated_Source\PSoC5/cyPm.c ****     cyPmBackup.scctData[0u]   = CY_GET_REG8(CYREG_SC0_SW0 );
  41              		.loc 1 1668 0
  42 0004 DFF8A0B1 		ldr	fp, .L5+92
ARM GAS  C:\Users\mjphi\AppData\Local\Temp\ccWjpNxZ.s 			page 31


  43 0008 504B     		ldr	r3, .L5
  44 000a 9BF80020 		ldrb	r2, [fp]	@ zero_extendqisi2
1669:.\Generated_Source\PSoC5/cyPm.c ****     cyPmBackup.scctData[1u]   = CY_GET_REG8(CYREG_SC0_SW2 );
  45              		.loc 1 1669 0
  46 000e DFF89CA1 		ldr	r10, .L5+96
1668:.\Generated_Source\PSoC5/cyPm.c ****     cyPmBackup.scctData[1u]   = CY_GET_REG8(CYREG_SC0_SW2 );
  47              		.loc 1 1668 0
  48 0012 5A72     		strb	r2, [r3, #9]
  49              		.loc 1 1669 0
  50 0014 9AF80020 		ldrb	r2, [r10]	@ zero_extendqisi2
1670:.\Generated_Source\PSoC5/cyPm.c ****     cyPmBackup.scctData[2u]   = CY_GET_REG8(CYREG_SC0_SW3 );
1671:.\Generated_Source\PSoC5/cyPm.c ****     cyPmBackup.scctData[3u]   = CY_GET_REG8(CYREG_SC0_SW4 );
1672:.\Generated_Source\PSoC5/cyPm.c ****     cyPmBackup.scctData[4u]   = CY_GET_REG8(CYREG_SC0_SW6 );
1673:.\Generated_Source\PSoC5/cyPm.c ****     cyPmBackup.scctData[5u]   = CY_GET_REG8(CYREG_SC0_SW8 );
1674:.\Generated_Source\PSoC5/cyPm.c ****     cyPmBackup.scctData[6u]   = CY_GET_REG8(CYREG_SC0_SW10);
1675:.\Generated_Source\PSoC5/cyPm.c **** 
1676:.\Generated_Source\PSoC5/cyPm.c ****     cyPmBackup.scctData[7u]   = CY_GET_REG8(CYREG_SC1_SW0 );
1677:.\Generated_Source\PSoC5/cyPm.c ****     cyPmBackup.scctData[8u]   = CY_GET_REG8(CYREG_SC1_SW2 );
1678:.\Generated_Source\PSoC5/cyPm.c ****     cyPmBackup.scctData[9u]   = CY_GET_REG8(CYREG_SC1_SW3 );
1679:.\Generated_Source\PSoC5/cyPm.c ****     cyPmBackup.scctData[10u]  = CY_GET_REG8(CYREG_SC1_SW4 );
1680:.\Generated_Source\PSoC5/cyPm.c ****     cyPmBackup.scctData[11u]  = CY_GET_REG8(CYREG_SC1_SW6 );
1681:.\Generated_Source\PSoC5/cyPm.c ****     cyPmBackup.scctData[12u]  = CY_GET_REG8(CYREG_SC1_SW8 );
1682:.\Generated_Source\PSoC5/cyPm.c ****     cyPmBackup.scctData[13u]  = CY_GET_REG8(CYREG_SC1_SW10);
1683:.\Generated_Source\PSoC5/cyPm.c **** 
1684:.\Generated_Source\PSoC5/cyPm.c ****     cyPmBackup.scctData[14u]  = CY_GET_REG8(CYREG_SC2_SW0 );
1685:.\Generated_Source\PSoC5/cyPm.c ****     cyPmBackup.scctData[15u]  = CY_GET_REG8(CYREG_SC2_SW2 );
1686:.\Generated_Source\PSoC5/cyPm.c ****     cyPmBackup.scctData[16u]  = CY_GET_REG8(CYREG_SC2_SW3 );
1687:.\Generated_Source\PSoC5/cyPm.c ****     cyPmBackup.scctData[17u]  = CY_GET_REG8(CYREG_SC2_SW4 );
1688:.\Generated_Source\PSoC5/cyPm.c ****     cyPmBackup.scctData[18u]  = CY_GET_REG8(CYREG_SC2_SW6 );
  51              		.loc 1 1688 0
  52 0018 DFF89491 		ldr	r9, .L5+100
1669:.\Generated_Source\PSoC5/cyPm.c ****     cyPmBackup.scctData[2u]   = CY_GET_REG8(CYREG_SC0_SW3 );
  53              		.loc 1 1669 0
  54 001c 9A72     		strb	r2, [r3, #10]
1670:.\Generated_Source\PSoC5/cyPm.c ****     cyPmBackup.scctData[2u]   = CY_GET_REG8(CYREG_SC0_SW3 );
  55              		.loc 1 1670 0
  56 001e 4C4A     		ldr	r2, .L5+4
1689:.\Generated_Source\PSoC5/cyPm.c ****     cyPmBackup.scctData[19u]  = CY_GET_REG8(CYREG_SC2_SW8 );
  57              		.loc 1 1689 0
  58 0020 DFF89081 		ldr	r8, .L5+104
1670:.\Generated_Source\PSoC5/cyPm.c ****     cyPmBackup.scctData[2u]   = CY_GET_REG8(CYREG_SC0_SW3 );
  59              		.loc 1 1670 0
  60 0024 1278     		ldrb	r2, [r2]	@ zero_extendqisi2
1690:.\Generated_Source\PSoC5/cyPm.c ****     cyPmBackup.scctData[20u]  = CY_GET_REG8(CYREG_SC2_SW10);
  61              		.loc 1 1690 0
  62 0026 DFF890C1 		ldr	ip, .L5+108
1670:.\Generated_Source\PSoC5/cyPm.c ****     cyPmBackup.scctData[3u]   = CY_GET_REG8(CYREG_SC0_SW4 );
  63              		.loc 1 1670 0
  64 002a DA72     		strb	r2, [r3, #11]
1671:.\Generated_Source\PSoC5/cyPm.c ****     cyPmBackup.scctData[4u]   = CY_GET_REG8(CYREG_SC0_SW6 );
  65              		.loc 1 1671 0
  66 002c 494A     		ldr	r2, .L5+8
1691:.\Generated_Source\PSoC5/cyPm.c **** 
1692:.\Generated_Source\PSoC5/cyPm.c ****     cyPmBackup.scctData[21u]  = CY_GET_REG8(CYREG_SC3_SW0 );
  67              		.loc 1 1692 0
  68 002e DFF88CE1 		ldr	lr, .L5+112
1671:.\Generated_Source\PSoC5/cyPm.c ****     cyPmBackup.scctData[4u]   = CY_GET_REG8(CYREG_SC0_SW6 );
ARM GAS  C:\Users\mjphi\AppData\Local\Temp\ccWjpNxZ.s 			page 32


  69              		.loc 1 1671 0
  70 0032 1278     		ldrb	r2, [r2]	@ zero_extendqisi2
1693:.\Generated_Source\PSoC5/cyPm.c ****     cyPmBackup.scctData[22u]  = CY_GET_REG8(CYREG_SC3_SW2 );
  71              		.loc 1 1693 0
  72 0034 484F     		ldr	r7, .L5+12
1671:.\Generated_Source\PSoC5/cyPm.c ****     cyPmBackup.scctData[4u]   = CY_GET_REG8(CYREG_SC0_SW6 );
  73              		.loc 1 1671 0
  74 0036 1A73     		strb	r2, [r3, #12]
1672:.\Generated_Source\PSoC5/cyPm.c ****     cyPmBackup.scctData[5u]   = CY_GET_REG8(CYREG_SC0_SW8 );
  75              		.loc 1 1672 0
  76 0038 484A     		ldr	r2, .L5+16
1694:.\Generated_Source\PSoC5/cyPm.c ****     cyPmBackup.scctData[23u]  = CY_GET_REG8(CYREG_SC3_SW3 );
  77              		.loc 1 1694 0
  78 003a 494E     		ldr	r6, .L5+20
1672:.\Generated_Source\PSoC5/cyPm.c ****     cyPmBackup.scctData[5u]   = CY_GET_REG8(CYREG_SC0_SW8 );
  79              		.loc 1 1672 0
  80 003c 1278     		ldrb	r2, [r2]	@ zero_extendqisi2
1695:.\Generated_Source\PSoC5/cyPm.c ****     cyPmBackup.scctData[24u]  = CY_GET_REG8(CYREG_SC3_SW4 );
  81              		.loc 1 1695 0
  82 003e 494D     		ldr	r5, .L5+24
1672:.\Generated_Source\PSoC5/cyPm.c ****     cyPmBackup.scctData[5u]   = CY_GET_REG8(CYREG_SC0_SW8 );
  83              		.loc 1 1672 0
  84 0040 5A73     		strb	r2, [r3, #13]
1673:.\Generated_Source\PSoC5/cyPm.c ****     cyPmBackup.scctData[6u]   = CY_GET_REG8(CYREG_SC0_SW10);
  85              		.loc 1 1673 0
  86 0042 494A     		ldr	r2, .L5+28
1696:.\Generated_Source\PSoC5/cyPm.c ****     cyPmBackup.scctData[25u]  = CY_GET_REG8(CYREG_SC3_SW6 );
  87              		.loc 1 1696 0
  88 0044 494C     		ldr	r4, .L5+32
1673:.\Generated_Source\PSoC5/cyPm.c ****     cyPmBackup.scctData[6u]   = CY_GET_REG8(CYREG_SC0_SW10);
  89              		.loc 1 1673 0
  90 0046 1278     		ldrb	r2, [r2]	@ zero_extendqisi2
1697:.\Generated_Source\PSoC5/cyPm.c ****     cyPmBackup.scctData[26u]  = CY_GET_REG8(CYREG_SC3_SW8 );
  91              		.loc 1 1697 0
  92 0048 4948     		ldr	r0, .L5+36
1673:.\Generated_Source\PSoC5/cyPm.c ****     cyPmBackup.scctData[6u]   = CY_GET_REG8(CYREG_SC0_SW10);
  93              		.loc 1 1673 0
  94 004a 9A73     		strb	r2, [r3, #14]
1674:.\Generated_Source\PSoC5/cyPm.c **** 
  95              		.loc 1 1674 0
  96 004c 494A     		ldr	r2, .L5+40
1698:.\Generated_Source\PSoC5/cyPm.c ****     cyPmBackup.scctData[27u]  = CY_GET_REG8(CYREG_SC3_SW10);
1699:.\Generated_Source\PSoC5/cyPm.c **** 
1700:.\Generated_Source\PSoC5/cyPm.c ****     CY_SET_REG8(CYREG_SC0_SW0 , 0u);
1701:.\Generated_Source\PSoC5/cyPm.c ****     CY_SET_REG8(CYREG_SC0_SW2 , 0u);
1702:.\Generated_Source\PSoC5/cyPm.c ****     CY_SET_REG8(CYREG_SC0_SW3 , 0u);
  97              		.loc 1 1702 0
  98 004e 4049     		ldr	r1, .L5+4
1674:.\Generated_Source\PSoC5/cyPm.c **** 
  99              		.loc 1 1674 0
 100 0050 1278     		ldrb	r2, [r2]	@ zero_extendqisi2
1703:.\Generated_Source\PSoC5/cyPm.c ****     CY_SET_REG8(CYREG_SC0_SW4 , 0u);
 101              		.loc 1 1703 0
 102 0052 0131     		adds	r1, r1, #1
1674:.\Generated_Source\PSoC5/cyPm.c **** 
 103              		.loc 1 1674 0
 104 0054 DA73     		strb	r2, [r3, #15]
ARM GAS  C:\Users\mjphi\AppData\Local\Temp\ccWjpNxZ.s 			page 33


1676:.\Generated_Source\PSoC5/cyPm.c ****     cyPmBackup.scctData[8u]   = CY_GET_REG8(CYREG_SC1_SW2 );
 105              		.loc 1 1676 0
 106 0056 484A     		ldr	r2, .L5+44
 107 0058 1278     		ldrb	r2, [r2]	@ zero_extendqisi2
 108 005a 1A74     		strb	r2, [r3, #16]
1677:.\Generated_Source\PSoC5/cyPm.c ****     cyPmBackup.scctData[9u]   = CY_GET_REG8(CYREG_SC1_SW3 );
 109              		.loc 1 1677 0
 110 005c 474A     		ldr	r2, .L5+48
 111 005e 1278     		ldrb	r2, [r2]	@ zero_extendqisi2
 112 0060 5A74     		strb	r2, [r3, #17]
1678:.\Generated_Source\PSoC5/cyPm.c ****     cyPmBackup.scctData[10u]  = CY_GET_REG8(CYREG_SC1_SW4 );
 113              		.loc 1 1678 0
 114 0062 474A     		ldr	r2, .L5+52
 115 0064 1278     		ldrb	r2, [r2]	@ zero_extendqisi2
 116 0066 9A74     		strb	r2, [r3, #18]
1679:.\Generated_Source\PSoC5/cyPm.c ****     cyPmBackup.scctData[11u]  = CY_GET_REG8(CYREG_SC1_SW6 );
 117              		.loc 1 1679 0
 118 0068 464A     		ldr	r2, .L5+56
 119 006a 1278     		ldrb	r2, [r2]	@ zero_extendqisi2
 120 006c DA74     		strb	r2, [r3, #19]
1680:.\Generated_Source\PSoC5/cyPm.c ****     cyPmBackup.scctData[12u]  = CY_GET_REG8(CYREG_SC1_SW8 );
 121              		.loc 1 1680 0
 122 006e 464A     		ldr	r2, .L5+60
 123 0070 1278     		ldrb	r2, [r2]	@ zero_extendqisi2
 124 0072 1A75     		strb	r2, [r3, #20]
1681:.\Generated_Source\PSoC5/cyPm.c ****     cyPmBackup.scctData[13u]  = CY_GET_REG8(CYREG_SC1_SW10);
 125              		.loc 1 1681 0
 126 0074 454A     		ldr	r2, .L5+64
 127 0076 1278     		ldrb	r2, [r2]	@ zero_extendqisi2
 128 0078 5A75     		strb	r2, [r3, #21]
1682:.\Generated_Source\PSoC5/cyPm.c **** 
 129              		.loc 1 1682 0
 130 007a 454A     		ldr	r2, .L5+68
 131 007c 1278     		ldrb	r2, [r2]	@ zero_extendqisi2
 132 007e 9A75     		strb	r2, [r3, #22]
1684:.\Generated_Source\PSoC5/cyPm.c ****     cyPmBackup.scctData[15u]  = CY_GET_REG8(CYREG_SC2_SW2 );
 133              		.loc 1 1684 0
 134 0080 444A     		ldr	r2, .L5+72
 135 0082 1278     		ldrb	r2, [r2]	@ zero_extendqisi2
 136 0084 DA75     		strb	r2, [r3, #23]
1685:.\Generated_Source\PSoC5/cyPm.c ****     cyPmBackup.scctData[16u]  = CY_GET_REG8(CYREG_SC2_SW3 );
 137              		.loc 1 1685 0
 138 0086 444A     		ldr	r2, .L5+76
 139 0088 1278     		ldrb	r2, [r2]	@ zero_extendqisi2
 140 008a 1A76     		strb	r2, [r3, #24]
1686:.\Generated_Source\PSoC5/cyPm.c ****     cyPmBackup.scctData[17u]  = CY_GET_REG8(CYREG_SC2_SW4 );
 141              		.loc 1 1686 0
 142 008c 434A     		ldr	r2, .L5+80
 143 008e 1278     		ldrb	r2, [r2]	@ zero_extendqisi2
 144 0090 5A76     		strb	r2, [r3, #25]
1687:.\Generated_Source\PSoC5/cyPm.c ****     cyPmBackup.scctData[18u]  = CY_GET_REG8(CYREG_SC2_SW6 );
 145              		.loc 1 1687 0
 146 0092 434A     		ldr	r2, .L5+84
 147 0094 1278     		ldrb	r2, [r2]	@ zero_extendqisi2
 148 0096 9A76     		strb	r2, [r3, #26]
1688:.\Generated_Source\PSoC5/cyPm.c ****     cyPmBackup.scctData[19u]  = CY_GET_REG8(CYREG_SC2_SW8 );
 149              		.loc 1 1688 0
ARM GAS  C:\Users\mjphi\AppData\Local\Temp\ccWjpNxZ.s 			page 34


 150 0098 99F80020 		ldrb	r2, [r9]	@ zero_extendqisi2
 151 009c DA76     		strb	r2, [r3, #27]
1689:.\Generated_Source\PSoC5/cyPm.c ****     cyPmBackup.scctData[20u]  = CY_GET_REG8(CYREG_SC2_SW10);
 152              		.loc 1 1689 0
 153 009e 98F80020 		ldrb	r2, [r8]	@ zero_extendqisi2
 154 00a2 1A77     		strb	r2, [r3, #28]
1690:.\Generated_Source\PSoC5/cyPm.c **** 
 155              		.loc 1 1690 0
 156 00a4 9CF80020 		ldrb	r2, [ip]	@ zero_extendqisi2
 157 00a8 5A77     		strb	r2, [r3, #29]
1692:.\Generated_Source\PSoC5/cyPm.c ****     cyPmBackup.scctData[22u]  = CY_GET_REG8(CYREG_SC3_SW2 );
 158              		.loc 1 1692 0
 159 00aa 9EF80020 		ldrb	r2, [lr]	@ zero_extendqisi2
 160 00ae 9A77     		strb	r2, [r3, #30]
1693:.\Generated_Source\PSoC5/cyPm.c ****     cyPmBackup.scctData[23u]  = CY_GET_REG8(CYREG_SC3_SW3 );
 161              		.loc 1 1693 0
 162 00b0 3A78     		ldrb	r2, [r7]	@ zero_extendqisi2
 163 00b2 DA77     		strb	r2, [r3, #31]
1694:.\Generated_Source\PSoC5/cyPm.c ****     cyPmBackup.scctData[24u]  = CY_GET_REG8(CYREG_SC3_SW4 );
 164              		.loc 1 1694 0
 165 00b4 3278     		ldrb	r2, [r6]	@ zero_extendqisi2
 166 00b6 83F82020 		strb	r2, [r3, #32]
1695:.\Generated_Source\PSoC5/cyPm.c ****     cyPmBackup.scctData[25u]  = CY_GET_REG8(CYREG_SC3_SW6 );
 167              		.loc 1 1695 0
 168 00ba 2A78     		ldrb	r2, [r5]	@ zero_extendqisi2
 169 00bc 83F82120 		strb	r2, [r3, #33]
1696:.\Generated_Source\PSoC5/cyPm.c ****     cyPmBackup.scctData[26u]  = CY_GET_REG8(CYREG_SC3_SW8 );
 170              		.loc 1 1696 0
 171 00c0 2278     		ldrb	r2, [r4]	@ zero_extendqisi2
 172 00c2 83F82220 		strb	r2, [r3, #34]
1697:.\Generated_Source\PSoC5/cyPm.c ****     cyPmBackup.scctData[27u]  = CY_GET_REG8(CYREG_SC3_SW10);
 173              		.loc 1 1697 0
 174 00c6 0278     		ldrb	r2, [r0]	@ zero_extendqisi2
 175 00c8 83F82320 		strb	r2, [r3, #35]
1698:.\Generated_Source\PSoC5/cyPm.c **** 
 176              		.loc 1 1698 0
 177 00cc 354A     		ldr	r2, .L5+88
 178 00ce 1278     		ldrb	r2, [r2]	@ zero_extendqisi2
 179 00d0 83F82420 		strb	r2, [r3, #36]
1700:.\Generated_Source\PSoC5/cyPm.c ****     CY_SET_REG8(CYREG_SC0_SW2 , 0u);
 180              		.loc 1 1700 0
 181 00d4 0022     		movs	r2, #0
 182 00d6 8BF80020 		strb	r2, [fp]
1701:.\Generated_Source\PSoC5/cyPm.c ****     CY_SET_REG8(CYREG_SC0_SW3 , 0u);
 183              		.loc 1 1701 0
 184 00da 8AF80020 		strb	r2, [r10]
1702:.\Generated_Source\PSoC5/cyPm.c ****     CY_SET_REG8(CYREG_SC0_SW4 , 0u);
 185              		.loc 1 1702 0
 186 00de 01F8012C 		strb	r2, [r1, #-1]
 187              		.loc 1 1703 0
 188 00e2 0A70     		strb	r2, [r1]
1704:.\Generated_Source\PSoC5/cyPm.c ****     CY_SET_REG8(CYREG_SC0_SW6 , 0u);
 189              		.loc 1 1704 0
 190 00e4 8A70     		strb	r2, [r1, #2]
1705:.\Generated_Source\PSoC5/cyPm.c ****     CY_SET_REG8(CYREG_SC0_SW8 , 0u);
 191              		.loc 1 1705 0
 192 00e6 0A71     		strb	r2, [r1, #4]
ARM GAS  C:\Users\mjphi\AppData\Local\Temp\ccWjpNxZ.s 			page 35


1706:.\Generated_Source\PSoC5/cyPm.c ****     CY_SET_REG8(CYREG_SC0_SW10, 0u);
 193              		.loc 1 1706 0
 194 00e8 8A71     		strb	r2, [r1, #6]
1707:.\Generated_Source\PSoC5/cyPm.c **** 
1708:.\Generated_Source\PSoC5/cyPm.c ****     CY_SET_REG8(CYREG_SC1_SW0 , 0u);
 195              		.loc 1 1708 0
 196 00ea 0A73     		strb	r2, [r1, #12]
1709:.\Generated_Source\PSoC5/cyPm.c ****     CY_SET_REG8(CYREG_SC1_SW2 , 0u);
 197              		.loc 1 1709 0
 198 00ec 8A73     		strb	r2, [r1, #14]
1710:.\Generated_Source\PSoC5/cyPm.c ****     CY_SET_REG8(CYREG_SC1_SW3 , 0u);
 199              		.loc 1 1710 0
 200 00ee CA73     		strb	r2, [r1, #15]
1711:.\Generated_Source\PSoC5/cyPm.c ****     CY_SET_REG8(CYREG_SC1_SW4 , 0u);
 201              		.loc 1 1711 0
 202 00f0 0A74     		strb	r2, [r1, #16]
1712:.\Generated_Source\PSoC5/cyPm.c ****     CY_SET_REG8(CYREG_SC1_SW6 , 0u);
 203              		.loc 1 1712 0
 204 00f2 8A74     		strb	r2, [r1, #18]
1713:.\Generated_Source\PSoC5/cyPm.c ****     CY_SET_REG8(CYREG_SC1_SW8 , 0u);
 205              		.loc 1 1713 0
 206 00f4 0A75     		strb	r2, [r1, #20]
1714:.\Generated_Source\PSoC5/cyPm.c ****     CY_SET_REG8(CYREG_SC1_SW10, 0u);
 207              		.loc 1 1714 0
 208 00f6 8A75     		strb	r2, [r1, #22]
1715:.\Generated_Source\PSoC5/cyPm.c **** 
1716:.\Generated_Source\PSoC5/cyPm.c ****     CY_SET_REG8(CYREG_SC2_SW0 , 0u);
 209              		.loc 1 1716 0
 210 00f8 0A77     		strb	r2, [r1, #28]
1717:.\Generated_Source\PSoC5/cyPm.c ****     CY_SET_REG8(CYREG_SC2_SW2 , 0u);
 211              		.loc 1 1717 0
 212 00fa 8A77     		strb	r2, [r1, #30]
1718:.\Generated_Source\PSoC5/cyPm.c ****     CY_SET_REG8(CYREG_SC2_SW3 , 0u);
 213              		.loc 1 1718 0
 214 00fc CA77     		strb	r2, [r1, #31]
1719:.\Generated_Source\PSoC5/cyPm.c ****     CY_SET_REG8(CYREG_SC2_SW4 , 0u);
 215              		.loc 1 1719 0
 216 00fe 81F82020 		strb	r2, [r1, #32]
1720:.\Generated_Source\PSoC5/cyPm.c ****     CY_SET_REG8(CYREG_SC2_SW6 , 0u);
 217              		.loc 1 1720 0
 218 0102 89F80020 		strb	r2, [r9]
1721:.\Generated_Source\PSoC5/cyPm.c ****     CY_SET_REG8(CYREG_SC2_SW8 , 0u);
 219              		.loc 1 1721 0
 220 0106 88F80020 		strb	r2, [r8]
1722:.\Generated_Source\PSoC5/cyPm.c ****     CY_SET_REG8(CYREG_SC2_SW10, 0u);
 221              		.loc 1 1722 0
 222 010a 8CF80020 		strb	r2, [ip]
1723:.\Generated_Source\PSoC5/cyPm.c **** 
1724:.\Generated_Source\PSoC5/cyPm.c ****     CY_SET_REG8(CYREG_SC3_SW0 , 0u);
 223              		.loc 1 1724 0
 224 010e 8EF80020 		strb	r2, [lr]
1725:.\Generated_Source\PSoC5/cyPm.c ****     CY_SET_REG8(CYREG_SC3_SW2 , 0u);
 225              		.loc 1 1725 0
 226 0112 3A70     		strb	r2, [r7]
1726:.\Generated_Source\PSoC5/cyPm.c ****     CY_SET_REG8(CYREG_SC3_SW3 , 0u);
 227              		.loc 1 1726 0
 228 0114 3270     		strb	r2, [r6]
ARM GAS  C:\Users\mjphi\AppData\Local\Temp\ccWjpNxZ.s 			page 36


1727:.\Generated_Source\PSoC5/cyPm.c ****     CY_SET_REG8(CYREG_SC3_SW4 , 0u);
 229              		.loc 1 1727 0
 230 0116 2A70     		strb	r2, [r5]
1728:.\Generated_Source\PSoC5/cyPm.c ****     CY_SET_REG8(CYREG_SC3_SW6 , 0u);
 231              		.loc 1 1728 0
 232 0118 2270     		strb	r2, [r4]
1729:.\Generated_Source\PSoC5/cyPm.c ****     CY_SET_REG8(CYREG_SC3_SW8 , 0u);
 233              		.loc 1 1729 0
 234 011a 0270     		strb	r2, [r0]
1730:.\Generated_Source\PSoC5/cyPm.c ****     CY_SET_REG8(CYREG_SC3_SW10, 0u);
 235              		.loc 1 1730 0
 236 011c 81F83620 		strb	r2, [r1, #54]
1717:.\Generated_Source\PSoC5/cyPm.c ****     CY_SET_REG8(CYREG_SC2_SW3 , 0u);
 237              		.loc 1 1717 0
 238 0120 1E31     		adds	r1, r1, #30
1731:.\Generated_Source\PSoC5/cyPm.c **** 
1732:.\Generated_Source\PSoC5/cyPm.c **** 
1733:.\Generated_Source\PSoC5/cyPm.c ****     #if(CY_PSOC3)
1734:.\Generated_Source\PSoC5/cyPm.c **** 
1735:.\Generated_Source\PSoC5/cyPm.c ****         /* Serial Wire Viewer (SWV) workaround */
1736:.\Generated_Source\PSoC5/cyPm.c **** 
1737:.\Generated_Source\PSoC5/cyPm.c ****         /* Disable SWV before entering low power mode */
1738:.\Generated_Source\PSoC5/cyPm.c ****         if(0u != (CY_PM_MLOGIC_DBG_REG & CY_PM_MLOGIC_DBG_SWV_CLK_EN))
1739:.\Generated_Source\PSoC5/cyPm.c ****         {
1740:.\Generated_Source\PSoC5/cyPm.c ****             /* Save SWV clock enabled state */
1741:.\Generated_Source\PSoC5/cyPm.c ****             cyPmBackup.swvClkEnabled = CY_PM_ENABLED;
1742:.\Generated_Source\PSoC5/cyPm.c **** 
1743:.\Generated_Source\PSoC5/cyPm.c ****             /* Save current ports drive mode settings */
1744:.\Generated_Source\PSoC5/cyPm.c ****             cyPmBackup.prt1Dm = CY_PM_PRT1_PC3_REG & ((uint8)(~CY_PM_PRT1_PC3_DM_MASK));
1745:.\Generated_Source\PSoC5/cyPm.c **** 
1746:.\Generated_Source\PSoC5/cyPm.c ****             /* Set drive mode to strong output */
1747:.\Generated_Source\PSoC5/cyPm.c ****             CY_PM_PRT1_PC3_REG = (CY_PM_PRT1_PC3_REG & CY_PM_PRT1_PC3_DM_MASK) |
1748:.\Generated_Source\PSoC5/cyPm.c ****                                 CY_PM_PRT1_PC3_DM_STRONG;
1749:.\Generated_Source\PSoC5/cyPm.c **** 
1750:.\Generated_Source\PSoC5/cyPm.c ****             /* Disable SWV clocks */
1751:.\Generated_Source\PSoC5/cyPm.c ****             CY_PM_MLOGIC_DBG_REG &= ((uint8)(~CY_PM_MLOGIC_DBG_SWV_CLK_EN));
1752:.\Generated_Source\PSoC5/cyPm.c ****         }
1753:.\Generated_Source\PSoC5/cyPm.c ****         else
1754:.\Generated_Source\PSoC5/cyPm.c ****         {
1755:.\Generated_Source\PSoC5/cyPm.c ****             /* Save SWV clock disabled state */
1756:.\Generated_Source\PSoC5/cyPm.c ****             cyPmBackup.swvClkEnabled = CY_PM_DISABLED;
1757:.\Generated_Source\PSoC5/cyPm.c ****         }
1758:.\Generated_Source\PSoC5/cyPm.c **** 
1759:.\Generated_Source\PSoC5/cyPm.c ****     #endif  /* (CY_PSOC3) */
1760:.\Generated_Source\PSoC5/cyPm.c **** 
1761:.\Generated_Source\PSoC5/cyPm.c **** 
1762:.\Generated_Source\PSoC5/cyPm.c ****     /***************************************************************************
1763:.\Generated_Source\PSoC5/cyPm.c ****     * Save boost reference and set it to boost's internal by clearing the bit.
1764:.\Generated_Source\PSoC5/cyPm.c ****     * External (chip bandgap) reference is not available in Sleep and Hibernate.
1765:.\Generated_Source\PSoC5/cyPm.c ****     ***************************************************************************/
1766:.\Generated_Source\PSoC5/cyPm.c ****     if(0u != (CY_PM_BOOST_CR2_REG & CY_PM_BOOST_CR2_EREFSEL_EXT))
 239              		.loc 1 1766 0
 240 0122 A1F5B851 		sub	r1, r1, #5888
 241 0126 0A78     		ldrb	r2, [r1]	@ zero_extendqisi2
 242 0128 02F00802 		and	r2, r2, #8
 243 012c 02F0FF00 		and	r0, r2, #255
 244 0130 42B1     		cbz	r2, .L2
ARM GAS  C:\Users\mjphi\AppData\Local\Temp\ccWjpNxZ.s 			page 37


1767:.\Generated_Source\PSoC5/cyPm.c ****     {
1768:.\Generated_Source\PSoC5/cyPm.c ****         cyPmBackup.boostRefExt = CY_PM_ENABLED;
 245              		.loc 1 1768 0
 246 0132 0122     		movs	r2, #1
 247 0134 83F82E20 		strb	r2, [r3, #46]
1769:.\Generated_Source\PSoC5/cyPm.c ****         CY_PM_BOOST_CR2_REG &= ((uint8)(~CY_PM_BOOST_CR2_EREFSEL_EXT));
 248              		.loc 1 1769 0
 249 0138 0B78     		ldrb	r3, [r1]	@ zero_extendqisi2
 250 013a 03F0F703 		and	r3, r3, #247
 251 013e 0B70     		strb	r3, [r1]
 252 0140 BDE8F08F 		pop	{r4, r5, r6, r7, r8, r9, r10, fp, pc}
 253              	.L2:
1770:.\Generated_Source\PSoC5/cyPm.c ****     }
1771:.\Generated_Source\PSoC5/cyPm.c ****     else
1772:.\Generated_Source\PSoC5/cyPm.c ****     {
1773:.\Generated_Source\PSoC5/cyPm.c ****         cyPmBackup.boostRefExt = CY_PM_DISABLED;
 254              		.loc 1 1773 0
 255 0144 83F82E00 		strb	r0, [r3, #46]
 256 0148 BDE8F08F 		pop	{r4, r5, r6, r7, r8, r9, r10, fp, pc}
 257              	.L6:
 258              		.align	2
 259              	.L5:
 260 014c 00000000 		.word	.LANCHOR0
 261 0150 035A0040 		.word	1073764867
 262 0154 045A0040 		.word	1073764868
 263 0158 325A0040 		.word	1073764914
 264 015c 065A0040 		.word	1073764870
 265 0160 335A0040 		.word	1073764915
 266 0164 345A0040 		.word	1073764916
 267 0168 085A0040 		.word	1073764872
 268 016c 365A0040 		.word	1073764918
 269 0170 385A0040 		.word	1073764920
 270 0174 0A5A0040 		.word	1073764874
 271 0178 105A0040 		.word	1073764880
 272 017c 125A0040 		.word	1073764882
 273 0180 135A0040 		.word	1073764883
 274 0184 145A0040 		.word	1073764884
 275 0188 165A0040 		.word	1073764886
 276 018c 185A0040 		.word	1073764888
 277 0190 1A5A0040 		.word	1073764890
 278 0194 205A0040 		.word	1073764896
 279 0198 225A0040 		.word	1073764898
 280 019c 235A0040 		.word	1073764899
 281 01a0 245A0040 		.word	1073764900
 282 01a4 3A5A0040 		.word	1073764922
 283 01a8 005A0040 		.word	1073764864
 284 01ac 025A0040 		.word	1073764866
 285 01b0 265A0040 		.word	1073764902
 286 01b4 285A0040 		.word	1073764904
 287 01b8 2A5A0040 		.word	1073764906
 288 01bc 305A0040 		.word	1073764912
 289              		.cfi_endproc
 290              	.LFE12:
 291              		.size	CyPmHibSlpSaveSet, .-CyPmHibSlpSaveSet
 292              		.section	.text.CyPmHibSlpRestore,"ax",%progbits
 293              		.align	1
 294              		.thumb
ARM GAS  C:\Users\mjphi\AppData\Local\Temp\ccWjpNxZ.s 			page 38


 295              		.thumb_func
 296              		.type	CyPmHibSlpRestore, %function
 297              	CyPmHibSlpRestore:
 298              	.LFB13:
1774:.\Generated_Source\PSoC5/cyPm.c ****     }
1775:.\Generated_Source\PSoC5/cyPm.c **** }
1776:.\Generated_Source\PSoC5/cyPm.c **** 
1777:.\Generated_Source\PSoC5/cyPm.c **** 
1778:.\Generated_Source\PSoC5/cyPm.c **** /*******************************************************************************
1779:.\Generated_Source\PSoC5/cyPm.c **** * Function Name: CyPmHibSlpRestore
1780:.\Generated_Source\PSoC5/cyPm.c **** ********************************************************************************
1781:.\Generated_Source\PSoC5/cyPm.c **** *
1782:.\Generated_Source\PSoC5/cyPm.c **** * Summary:
1783:.\Generated_Source\PSoC5/cyPm.c **** *  This API is used for restoring the device configurations after wakeup from
1784:.\Generated_Source\PSoC5/cyPm.c **** *  the Sleep and Hibernate low power modes:
1785:.\Generated_Source\PSoC5/cyPm.c **** *  - Restores the SC/CT routing connections
1786:.\Generated_Source\PSoC5/cyPm.c **** *  - Restores the enable state of the Serial Wire Viewer (SWV) (PSoC 3)
1787:.\Generated_Source\PSoC5/cyPm.c **** *  - Restores the  boost reference selection
1788:.\Generated_Source\PSoC5/cyPm.c **** *
1789:.\Generated_Source\PSoC5/cyPm.c **** * Parameters:
1790:.\Generated_Source\PSoC5/cyPm.c **** *  None
1791:.\Generated_Source\PSoC5/cyPm.c **** *
1792:.\Generated_Source\PSoC5/cyPm.c **** * Return:
1793:.\Generated_Source\PSoC5/cyPm.c **** *  None
1794:.\Generated_Source\PSoC5/cyPm.c **** *
1795:.\Generated_Source\PSoC5/cyPm.c **** *******************************************************************************/
1796:.\Generated_Source\PSoC5/cyPm.c **** static void CyPmHibSlpRestore(void) 
1797:.\Generated_Source\PSoC5/cyPm.c **** {
 299              		.loc 1 1797 0
 300              		.cfi_startproc
 301              		@ args = 0, pretend = 0, frame = 0
 302              		@ frame_needed = 0, uses_anonymous_args = 0
 303              		@ link register save eliminated.
1798:.\Generated_Source\PSoC5/cyPm.c ****     /* Restore SC/CT routing registers */
1799:.\Generated_Source\PSoC5/cyPm.c ****     CY_SET_REG8(CYREG_SC0_SW0 , cyPmBackup.scctData[0u] );
 304              		.loc 1 1799 0
 305 0000 2D4B     		ldr	r3, .L9
 306 0002 2E4A     		ldr	r2, .L9+4
 307 0004 597A     		ldrb	r1, [r3, #9]	@ zero_extendqisi2
1800:.\Generated_Source\PSoC5/cyPm.c ****     CY_SET_REG8(CYREG_SC0_SW2 , cyPmBackup.scctData[1u] );
1801:.\Generated_Source\PSoC5/cyPm.c ****     CY_SET_REG8(CYREG_SC0_SW3 , cyPmBackup.scctData[2u] );
1802:.\Generated_Source\PSoC5/cyPm.c ****     CY_SET_REG8(CYREG_SC0_SW4 , cyPmBackup.scctData[3u] );
1803:.\Generated_Source\PSoC5/cyPm.c ****     CY_SET_REG8(CYREG_SC0_SW6 , cyPmBackup.scctData[4u] );
1804:.\Generated_Source\PSoC5/cyPm.c ****     CY_SET_REG8(CYREG_SC0_SW8 , cyPmBackup.scctData[5u] );
1805:.\Generated_Source\PSoC5/cyPm.c ****     CY_SET_REG8(CYREG_SC0_SW10, cyPmBackup.scctData[6u] );
1806:.\Generated_Source\PSoC5/cyPm.c **** 
1807:.\Generated_Source\PSoC5/cyPm.c ****     CY_SET_REG8(CYREG_SC1_SW0 , cyPmBackup.scctData[7u] );
1808:.\Generated_Source\PSoC5/cyPm.c ****     CY_SET_REG8(CYREG_SC1_SW2 , cyPmBackup.scctData[8u] );
1809:.\Generated_Source\PSoC5/cyPm.c ****     CY_SET_REG8(CYREG_SC1_SW3 , cyPmBackup.scctData[9u] );
1810:.\Generated_Source\PSoC5/cyPm.c ****     CY_SET_REG8(CYREG_SC1_SW4 , cyPmBackup.scctData[10u]);
1811:.\Generated_Source\PSoC5/cyPm.c ****     CY_SET_REG8(CYREG_SC1_SW6 , cyPmBackup.scctData[11u]);
1812:.\Generated_Source\PSoC5/cyPm.c ****     CY_SET_REG8(CYREG_SC1_SW8 , cyPmBackup.scctData[12u]);
 308              		.loc 1 1812 0
 309 0006 1832     		adds	r2, r2, #24
1799:.\Generated_Source\PSoC5/cyPm.c ****     CY_SET_REG8(CYREG_SC0_SW2 , cyPmBackup.scctData[1u] );
 310              		.loc 1 1799 0
 311 0008 02F8181C 		strb	r1, [r2, #-24]
ARM GAS  C:\Users\mjphi\AppData\Local\Temp\ccWjpNxZ.s 			page 39


1800:.\Generated_Source\PSoC5/cyPm.c ****     CY_SET_REG8(CYREG_SC0_SW2 , cyPmBackup.scctData[1u] );
 312              		.loc 1 1800 0
 313 000c 997A     		ldrb	r1, [r3, #10]	@ zero_extendqisi2
 314 000e 02F8161C 		strb	r1, [r2, #-22]
1801:.\Generated_Source\PSoC5/cyPm.c ****     CY_SET_REG8(CYREG_SC0_SW4 , cyPmBackup.scctData[3u] );
 315              		.loc 1 1801 0
 316 0012 D97A     		ldrb	r1, [r3, #11]	@ zero_extendqisi2
 317 0014 02F8151C 		strb	r1, [r2, #-21]
1802:.\Generated_Source\PSoC5/cyPm.c ****     CY_SET_REG8(CYREG_SC0_SW6 , cyPmBackup.scctData[4u] );
 318              		.loc 1 1802 0
 319 0018 197B     		ldrb	r1, [r3, #12]	@ zero_extendqisi2
 320 001a 02F8141C 		strb	r1, [r2, #-20]
1803:.\Generated_Source\PSoC5/cyPm.c ****     CY_SET_REG8(CYREG_SC0_SW8 , cyPmBackup.scctData[5u] );
 321              		.loc 1 1803 0
 322 001e 597B     		ldrb	r1, [r3, #13]	@ zero_extendqisi2
 323 0020 02F8121C 		strb	r1, [r2, #-18]
1804:.\Generated_Source\PSoC5/cyPm.c ****     CY_SET_REG8(CYREG_SC0_SW10, cyPmBackup.scctData[6u] );
 324              		.loc 1 1804 0
 325 0024 997B     		ldrb	r1, [r3, #14]	@ zero_extendqisi2
 326 0026 02F8101C 		strb	r1, [r2, #-16]
1805:.\Generated_Source\PSoC5/cyPm.c **** 
 327              		.loc 1 1805 0
 328 002a D97B     		ldrb	r1, [r3, #15]	@ zero_extendqisi2
 329 002c 02F80E1C 		strb	r1, [r2, #-14]
1807:.\Generated_Source\PSoC5/cyPm.c ****     CY_SET_REG8(CYREG_SC1_SW2 , cyPmBackup.scctData[8u] );
 330              		.loc 1 1807 0
 331 0030 197C     		ldrb	r1, [r3, #16]	@ zero_extendqisi2
 332 0032 02F8081C 		strb	r1, [r2, #-8]
1808:.\Generated_Source\PSoC5/cyPm.c ****     CY_SET_REG8(CYREG_SC1_SW3 , cyPmBackup.scctData[9u] );
 333              		.loc 1 1808 0
 334 0036 597C     		ldrb	r1, [r3, #17]	@ zero_extendqisi2
 335 0038 02F8061C 		strb	r1, [r2, #-6]
1809:.\Generated_Source\PSoC5/cyPm.c ****     CY_SET_REG8(CYREG_SC1_SW4 , cyPmBackup.scctData[10u]);
 336              		.loc 1 1809 0
 337 003c 997C     		ldrb	r1, [r3, #18]	@ zero_extendqisi2
 338 003e 02F8051C 		strb	r1, [r2, #-5]
1810:.\Generated_Source\PSoC5/cyPm.c ****     CY_SET_REG8(CYREG_SC1_SW6 , cyPmBackup.scctData[11u]);
 339              		.loc 1 1810 0
 340 0042 D97C     		ldrb	r1, [r3, #19]	@ zero_extendqisi2
 341 0044 02F8041C 		strb	r1, [r2, #-4]
1811:.\Generated_Source\PSoC5/cyPm.c ****     CY_SET_REG8(CYREG_SC1_SW8 , cyPmBackup.scctData[12u]);
 342              		.loc 1 1811 0
 343 0048 197D     		ldrb	r1, [r3, #20]	@ zero_extendqisi2
 344 004a 02F8021C 		strb	r1, [r2, #-2]
 345              		.loc 1 1812 0
 346 004e 597D     		ldrb	r1, [r3, #21]	@ zero_extendqisi2
 347 0050 1170     		strb	r1, [r2]
1813:.\Generated_Source\PSoC5/cyPm.c ****     CY_SET_REG8(CYREG_SC1_SW10, cyPmBackup.scctData[13u]);
 348              		.loc 1 1813 0
 349 0052 997D     		ldrb	r1, [r3, #22]	@ zero_extendqisi2
 350 0054 9170     		strb	r1, [r2, #2]
1814:.\Generated_Source\PSoC5/cyPm.c **** 
1815:.\Generated_Source\PSoC5/cyPm.c ****     CY_SET_REG8(CYREG_SC2_SW0 , cyPmBackup.scctData[14u]);
 351              		.loc 1 1815 0
 352 0056 D97D     		ldrb	r1, [r3, #23]	@ zero_extendqisi2
 353 0058 1172     		strb	r1, [r2, #8]
1816:.\Generated_Source\PSoC5/cyPm.c ****     CY_SET_REG8(CYREG_SC2_SW2 , cyPmBackup.scctData[15u]);
ARM GAS  C:\Users\mjphi\AppData\Local\Temp\ccWjpNxZ.s 			page 40


 354              		.loc 1 1816 0
 355 005a 197E     		ldrb	r1, [r3, #24]	@ zero_extendqisi2
 356 005c 9172     		strb	r1, [r2, #10]
1817:.\Generated_Source\PSoC5/cyPm.c ****     CY_SET_REG8(CYREG_SC2_SW3 , cyPmBackup.scctData[16u]);
 357              		.loc 1 1817 0
 358 005e 597E     		ldrb	r1, [r3, #25]	@ zero_extendqisi2
 359 0060 D172     		strb	r1, [r2, #11]
1818:.\Generated_Source\PSoC5/cyPm.c ****     CY_SET_REG8(CYREG_SC2_SW4 , cyPmBackup.scctData[17u]);
 360              		.loc 1 1818 0
 361 0062 997E     		ldrb	r1, [r3, #26]	@ zero_extendqisi2
 362 0064 1173     		strb	r1, [r2, #12]
1819:.\Generated_Source\PSoC5/cyPm.c ****     CY_SET_REG8(CYREG_SC2_SW6 , cyPmBackup.scctData[18u]);
 363              		.loc 1 1819 0
 364 0066 D97E     		ldrb	r1, [r3, #27]	@ zero_extendqisi2
 365 0068 9173     		strb	r1, [r2, #14]
1820:.\Generated_Source\PSoC5/cyPm.c ****     CY_SET_REG8(CYREG_SC2_SW8 , cyPmBackup.scctData[19u]);
 366              		.loc 1 1820 0
 367 006a 197F     		ldrb	r1, [r3, #28]	@ zero_extendqisi2
 368 006c 1174     		strb	r1, [r2, #16]
1821:.\Generated_Source\PSoC5/cyPm.c ****     CY_SET_REG8(CYREG_SC2_SW10, cyPmBackup.scctData[20u]);
 369              		.loc 1 1821 0
 370 006e 597F     		ldrb	r1, [r3, #29]	@ zero_extendqisi2
 371 0070 9174     		strb	r1, [r2, #18]
1822:.\Generated_Source\PSoC5/cyPm.c **** 
1823:.\Generated_Source\PSoC5/cyPm.c ****     CY_SET_REG8(CYREG_SC3_SW0 , cyPmBackup.scctData[21u]);
 372              		.loc 1 1823 0
 373 0072 997F     		ldrb	r1, [r3, #30]	@ zero_extendqisi2
 374 0074 1176     		strb	r1, [r2, #24]
1824:.\Generated_Source\PSoC5/cyPm.c ****     CY_SET_REG8(CYREG_SC3_SW2 , cyPmBackup.scctData[22u]);
 375              		.loc 1 1824 0
 376 0076 D97F     		ldrb	r1, [r3, #31]	@ zero_extendqisi2
 377 0078 9176     		strb	r1, [r2, #26]
1825:.\Generated_Source\PSoC5/cyPm.c ****     CY_SET_REG8(CYREG_SC3_SW3 , cyPmBackup.scctData[23u]);
 378              		.loc 1 1825 0
 379 007a 93F82010 		ldrb	r1, [r3, #32]	@ zero_extendqisi2
 380 007e D176     		strb	r1, [r2, #27]
1826:.\Generated_Source\PSoC5/cyPm.c ****     CY_SET_REG8(CYREG_SC3_SW4 , cyPmBackup.scctData[24u]);
 381              		.loc 1 1826 0
 382 0080 93F82110 		ldrb	r1, [r3, #33]	@ zero_extendqisi2
 383 0084 1177     		strb	r1, [r2, #28]
1827:.\Generated_Source\PSoC5/cyPm.c ****     CY_SET_REG8(CYREG_SC3_SW6 , cyPmBackup.scctData[25u]);
 384              		.loc 1 1827 0
 385 0086 93F82210 		ldrb	r1, [r3, #34]	@ zero_extendqisi2
 386 008a 9177     		strb	r1, [r2, #30]
1828:.\Generated_Source\PSoC5/cyPm.c ****     CY_SET_REG8(CYREG_SC3_SW8 , cyPmBackup.scctData[26u]);
 387              		.loc 1 1828 0
 388 008c 93F82310 		ldrb	r1, [r3, #35]	@ zero_extendqisi2
 389 0090 82F82010 		strb	r1, [r2, #32]
1829:.\Generated_Source\PSoC5/cyPm.c ****     CY_SET_REG8(CYREG_SC3_SW10, cyPmBackup.scctData[27u]);
 390              		.loc 1 1829 0
 391 0094 93F82410 		ldrb	r1, [r3, #36]	@ zero_extendqisi2
 392 0098 82F82210 		strb	r1, [r2, #34]
1830:.\Generated_Source\PSoC5/cyPm.c **** 
1831:.\Generated_Source\PSoC5/cyPm.c **** 
1832:.\Generated_Source\PSoC5/cyPm.c ****     #if(CY_PSOC3)
1833:.\Generated_Source\PSoC5/cyPm.c **** 
1834:.\Generated_Source\PSoC5/cyPm.c ****         /* Serial Wire Viewer (SWV) workaround */
ARM GAS  C:\Users\mjphi\AppData\Local\Temp\ccWjpNxZ.s 			page 41


1835:.\Generated_Source\PSoC5/cyPm.c ****         if(CY_PM_ENABLED == cyPmBackup.swvClkEnabled)
1836:.\Generated_Source\PSoC5/cyPm.c ****         {
1837:.\Generated_Source\PSoC5/cyPm.c ****             /* Restore ports drive mode */
1838:.\Generated_Source\PSoC5/cyPm.c ****             CY_PM_PRT1_PC3_REG = (CY_PM_PRT1_PC3_REG & CY_PM_PRT1_PC3_DM_MASK) |
1839:.\Generated_Source\PSoC5/cyPm.c ****                                     cyPmBackup.prt1Dm;
1840:.\Generated_Source\PSoC5/cyPm.c **** 
1841:.\Generated_Source\PSoC5/cyPm.c ****             /* Enable SWV clocks */
1842:.\Generated_Source\PSoC5/cyPm.c ****             CY_PM_MLOGIC_DBG_REG |= CY_PM_MLOGIC_DBG_SWV_CLK_EN;
1843:.\Generated_Source\PSoC5/cyPm.c ****         }
1844:.\Generated_Source\PSoC5/cyPm.c **** 
1845:.\Generated_Source\PSoC5/cyPm.c ****     #endif /* (CY_PSOC3) */
1846:.\Generated_Source\PSoC5/cyPm.c **** 
1847:.\Generated_Source\PSoC5/cyPm.c **** 
1848:.\Generated_Source\PSoC5/cyPm.c ****     /* Restore boost reference */
1849:.\Generated_Source\PSoC5/cyPm.c ****     if(CY_PM_ENABLED == cyPmBackup.boostRefExt)
 393              		.loc 1 1849 0
 394 009c 93F82E30 		ldrb	r3, [r3, #46]	@ zero_extendqisi2
1829:.\Generated_Source\PSoC5/cyPm.c ****     CY_SET_REG8(CYREG_SC3_SW10, cyPmBackup.scctData[27u]);
 395              		.loc 1 1829 0
 396 00a0 2232     		adds	r2, r2, #34
 397              		.loc 1 1849 0
 398 00a2 012B     		cmp	r3, #1
1850:.\Generated_Source\PSoC5/cyPm.c ****     {
1851:.\Generated_Source\PSoC5/cyPm.c ****         CY_PM_BOOST_CR2_REG |= CY_PM_BOOST_CR2_EREFSEL_EXT;
 399              		.loc 1 1851 0
 400 00a4 01BF     		itttt	eq
 401 00a6 A2F5B852 		subeq	r2, r2, #5888
 402 00aa 183A     		subeq	r2, r2, #24
 403 00ac 1378     		ldrbeq	r3, [r2]	@ zero_extendqisi2
 404 00ae 43F00803 		orreq	r3, r3, #8
 405 00b2 08BF     		it	eq
 406 00b4 1370     		strbeq	r3, [r2]
 407 00b6 7047     		bx	lr
 408              	.L10:
 409              		.align	2
 410              	.L9:
 411 00b8 00000000 		.word	.LANCHOR0
 412 00bc 005A0040 		.word	1073764864
 413              		.cfi_endproc
 414              	.LFE13:
 415              		.size	CyPmHibSlpRestore, .-CyPmHibSlpRestore
 416              		.section	.text.CyPmSaveClocks,"ax",%progbits
 417              		.align	1
 418              		.global	CyPmSaveClocks
 419              		.thumb
 420              		.thumb_func
 421              		.type	CyPmSaveClocks, %function
 422              	CyPmSaveClocks:
 423              	.LFB0:
  82:.\Generated_Source\PSoC5/cyPm.c ****     /* Digital and analog clocks - save enable state and disable them all */
 424              		.loc 1 82 0
 425              		.cfi_startproc
 426              		@ args = 0, pretend = 0, frame = 0
 427              		@ frame_needed = 0, uses_anonymous_args = 0
 428 0000 10B5     		push	{r4, lr}
 429              		.cfi_def_cfa_offset 8
 430              		.cfi_offset 4, -8
ARM GAS  C:\Users\mjphi\AppData\Local\Temp\ccWjpNxZ.s 			page 42


 431              		.cfi_offset 14, -4
  84:.\Generated_Source\PSoC5/cyPm.c ****     cyPmClockBackup.enClkD = CY_PM_ACT_CFG2_REG;
 432              		.loc 1 84 0
 433 0002 6A4A     		ldr	r2, .L51
 434 0004 6A4C     		ldr	r4, .L51+4
 435 0006 1378     		ldrb	r3, [r2]	@ zero_extendqisi2
  91:.\Generated_Source\PSoC5/cyPm.c **** 
 436              		.loc 1 91 0
 437 0008 3720     		movs	r0, #55
  84:.\Generated_Source\PSoC5/cyPm.c ****     cyPmClockBackup.enClkD = CY_PM_ACT_CFG2_REG;
 438              		.loc 1 84 0
 439 000a 03F00F03 		and	r3, r3, #15
 440 000e 84F83030 		strb	r3, [r4, #48]
  85:.\Generated_Source\PSoC5/cyPm.c ****     CY_PM_ACT_CFG1_REG &= ((uint8)(~CY_PM_ACT_EN_CLK_A_MASK));
 441              		.loc 1 85 0
 442 0012 684B     		ldr	r3, .L51+8
 443 0014 1978     		ldrb	r1, [r3]	@ zero_extendqisi2
 444 0016 84F83110 		strb	r1, [r4, #49]
  86:.\Generated_Source\PSoC5/cyPm.c ****     CY_PM_ACT_CFG2_REG &= ((uint8)(~CY_PM_ACT_EN_CLK_D_MASK));
 445              		.loc 1 86 0
 446 001a 1178     		ldrb	r1, [r2]	@ zero_extendqisi2
 447 001c 01F0F001 		and	r1, r1, #240
 448 0020 1170     		strb	r1, [r2]
  87:.\Generated_Source\PSoC5/cyPm.c **** 
 449              		.loc 1 87 0
 450 0022 1A78     		ldrb	r2, [r3]	@ zero_extendqisi2
 451 0024 0022     		movs	r2, #0
 452 0026 1A70     		strb	r2, [r3]
  90:.\Generated_Source\PSoC5/cyPm.c ****     CyFlash_SetWaitCycles(CY_PM_MAX_FLASH_WAIT_CYCLES);
 453              		.loc 1 90 0
 454 0028 03F25E43 		addw	r3, r3, #1118
 455 002c 1B78     		ldrb	r3, [r3]	@ zero_extendqisi2
 456 002e 03F0C003 		and	r3, r3, #192
 457 0032 84F83530 		strb	r3, [r4, #53]
  91:.\Generated_Source\PSoC5/cyPm.c **** 
 458              		.loc 1 91 0
 459 0036 FFF7FEFF 		bl	CyFlash_SetWaitCycles
 460              	.LVL0:
  94:.\Generated_Source\PSoC5/cyPm.c ****     cyPmClockBackup.imoUsbClk = CY_PM_FASTCLK_IMO_CR_REG & CY_PM_FASTCLK_IMO_CR_USB;
 461              		.loc 1 94 0
 462 003a 5F4B     		ldr	r3, .L51+12
 463 003c 1A78     		ldrb	r2, [r3]	@ zero_extendqisi2
 464 003e 02F00702 		and	r2, r2, #7
 465 0042 84F83320 		strb	r2, [r4, #51]
  95:.\Generated_Source\PSoC5/cyPm.c **** 
 466              		.loc 1 95 0
 467 0046 1A78     		ldrb	r2, [r3]	@ zero_extendqisi2
 468 0048 02F04002 		and	r2, r2, #64
 469 004c 84F83420 		strb	r2, [r4, #52]
  98:.\Generated_Source\PSoC5/cyPm.c ****     {
 470              		.loc 1 98 0
 471 0050 1B78     		ldrb	r3, [r3]	@ zero_extendqisi2
 472 0052 03F01003 		and	r3, r3, #16
 473 0056 03F0FF02 		and	r2, r3, #255
 474 005a 1BB1     		cbz	r3, .L12
 101:.\Generated_Source\PSoC5/cyPm.c ****     }
 475              		.loc 1 101 0
ARM GAS  C:\Users\mjphi\AppData\Local\Temp\ccWjpNxZ.s 			page 43


 476 005c 0123     		movs	r3, #1
 477 005e 84F83930 		strb	r3, [r4, #57]
 478 0062 01E0     		b	.L13
 479              	.L12:
 106:.\Generated_Source\PSoC5/cyPm.c ****     }
 480              		.loc 1 106 0
 481 0064 84F83920 		strb	r2, [r4, #57]
 482              	.L13:
 110:.\Generated_Source\PSoC5/cyPm.c **** 
 483              		.loc 1 110 0
 484 0068 544B     		ldr	r3, .L51+16
 485 006a 1B78     		ldrb	r3, [r3]	@ zero_extendqisi2
 486 006c 03F00303 		and	r3, r3, #3
 113:.\Generated_Source\PSoC5/cyPm.c ****     {
 487              		.loc 1 113 0
 488 0070 012B     		cmp	r3, #1
 110:.\Generated_Source\PSoC5/cyPm.c **** 
 489              		.loc 1 110 0
 490 0072 84F83230 		strb	r3, [r4, #50]
 113:.\Generated_Source\PSoC5/cyPm.c ****     {
 491              		.loc 1 113 0
 492 0076 10D1     		bne	.L14
 115:.\Generated_Source\PSoC5/cyPm.c ****         {
 493              		.loc 1 115 0
 494 0078 4FF04023 		mov	r3, #1073758208
 495 007c 1B78     		ldrb	r3, [r3]	@ zero_extendqisi2
 496 007e 03F00303 		and	r3, r3, #3
 497 0082 012B     		cmp	r3, #1
 498 0084 06D0     		beq	.L15
 499 0086 03D3     		bcc	.L16
 500 0088 022B     		cmp	r3, #2
 501 008a 06D1     		bne	.L14
 126:.\Generated_Source\PSoC5/cyPm.c ****             break;
 502              		.loc 1 126 0
 503 008c 0320     		movs	r0, #3
 504 008e 02E0     		b	.L50
 505              	.L16:
 118:.\Generated_Source\PSoC5/cyPm.c ****             break;
 506              		.loc 1 118 0
 507 0090 0020     		movs	r0, #0
 508 0092 00E0     		b	.L50
 509              	.L15:
 122:.\Generated_Source\PSoC5/cyPm.c ****             break;
 510              		.loc 1 122 0
 511 0094 0220     		movs	r0, #2
 512              	.L50:
 126:.\Generated_Source\PSoC5/cyPm.c ****             break;
 513              		.loc 1 126 0
 514 0096 FFF7FEFF 		bl	CyMasterClk_SetSource
 515              	.LVL1:
 516              	.L14:
 136:.\Generated_Source\PSoC5/cyPm.c ****     {
 517              		.loc 1 136 0
 518 009a 494B     		ldr	r3, .L51+20
 519 009c 1B78     		ldrb	r3, [r3]	@ zero_extendqisi2
 520 009e 13F00103 		ands	r3, r3, #1
 521 00a2 05D0     		beq	.L18
ARM GAS  C:\Users\mjphi\AppData\Local\Temp\ccWjpNxZ.s 			page 44


 139:.\Generated_Source\PSoC5/cyPm.c ****         CyPLL_OUT_Stop();
 522              		.loc 1 139 0
 523 00a4 0123     		movs	r3, #1
 524 00a6 84F83E30 		strb	r3, [r4, #62]
 140:.\Generated_Source\PSoC5/cyPm.c ****     }
 525              		.loc 1 140 0
 526 00aa FFF7FEFF 		bl	CyPLL_OUT_Stop
 527              	.LVL2:
 528 00ae 01E0     		b	.L19
 529              	.L18:
 145:.\Generated_Source\PSoC5/cyPm.c ****     }
 530              		.loc 1 145 0
 531 00b0 84F83E30 		strb	r3, [r4, #62]
 532              	.L19:
 149:.\Generated_Source\PSoC5/cyPm.c **** 
 533              		.loc 1 149 0
 534 00b4 0420     		movs	r0, #4
 535 00b6 FFF7FEFF 		bl	CyIMO_SetFreq
 536              	.LVL3:
 152:.\Generated_Source\PSoC5/cyPm.c ****     {
 537              		.loc 1 152 0
 538 00ba 424B     		ldr	r3, .L51+24
 539 00bc 1B78     		ldrb	r3, [r3]	@ zero_extendqisi2
 540 00be 03F01003 		and	r3, r3, #16
 541 00c2 03F0FF00 		and	r0, r3, #255
 542 00c6 1BB1     		cbz	r3, .L20
 155:.\Generated_Source\PSoC5/cyPm.c ****     }
 543              		.loc 1 155 0
 544 00c8 0123     		movs	r3, #1
 545 00ca 84F83630 		strb	r3, [r4, #54]
 546 00ce 06E0     		b	.L21
 547              	.L20:
 160:.\Generated_Source\PSoC5/cyPm.c **** 
 548              		.loc 1 160 0
 549 00d0 84F83600 		strb	r0, [r4, #54]
 163:.\Generated_Source\PSoC5/cyPm.c **** 
 550              		.loc 1 163 0
 551 00d4 FFF7FEFF 		bl	CyIMO_Start
 552              	.LVL4:
 166:.\Generated_Source\PSoC5/cyPm.c ****     }
 553              		.loc 1 166 0
 554 00d8 0620     		movs	r0, #6
 555 00da FFF7FEFF 		bl	CyDelayUs
 556              	.LVL5:
 557              	.L21:
 170:.\Generated_Source\PSoC5/cyPm.c ****     {
 558              		.loc 1 170 0
 559 00de 364B     		ldr	r3, .L51+12
 560 00e0 1B78     		ldrb	r3, [r3]	@ zero_extendqisi2
 561 00e2 03F02003 		and	r3, r3, #32
 562 00e6 03F0FF02 		and	r2, r3, #255
 563 00ea 6BB1     		cbz	r3, .L22
 174:.\Generated_Source\PSoC5/cyPm.c **** 
 564              		.loc 1 174 0
 565 00ec 4FF04023 		mov	r3, #1073758208
 566 00f0 1B78     		ldrb	r3, [r3]	@ zero_extendqisi2
 177:.\Generated_Source\PSoC5/cyPm.c ****     }
ARM GAS  C:\Users\mjphi\AppData\Local\Temp\ccWjpNxZ.s 			page 45


 567              		.loc 1 177 0
 568 00f2 0020     		movs	r0, #0
 173:.\Generated_Source\PSoC5/cyPm.c ****             (0u == (CY_PM_CLKDIST_CR_REG & CY_PM_CLKDIST_IMO2X_SRC)) ? CY_IMO_SOURCE_DSI : CY_IMO_S
 569              		.loc 1 173 0
 570 00f4 13F0400F 		tst	r3, #64
 571 00f8 0CBF     		ite	eq
 572 00fa 0223     		moveq	r3, #2
 573 00fc 0123     		movne	r3, #1
 574 00fe 84F83730 		strb	r3, [r4, #55]
 177:.\Generated_Source\PSoC5/cyPm.c ****     }
 575              		.loc 1 177 0
 576 0102 FFF7FEFF 		bl	CyIMO_SetSource
 577              	.LVL6:
 578 0106 01E0     		b	.L24
 579              	.L22:
 182:.\Generated_Source\PSoC5/cyPm.c ****     }
 580              		.loc 1 182 0
 581 0108 84F83720 		strb	r2, [r4, #55]
 582              	.L24:
 186:.\Generated_Source\PSoC5/cyPm.c **** 
 583              		.loc 1 186 0
 584 010c 4FF04022 		mov	r2, #1073758208
 585 0110 1378     		ldrb	r3, [r2]	@ zero_extendqisi2
 586 0112 03F03003 		and	r3, r3, #48
 587 0116 84F83830 		strb	r3, [r4, #56]
 189:.\Generated_Source\PSoC5/cyPm.c ****     {
 588              		.loc 1 189 0
 589 011a 1BB1     		cbz	r3, .L25
 192:.\Generated_Source\PSoC5/cyPm.c ****                                 CY_PM_CLKDIST_IMO_OUT_IMO;
 590              		.loc 1 192 0
 591 011c 1378     		ldrb	r3, [r2]	@ zero_extendqisi2
 592 011e 03F0CF03 		and	r3, r3, #207
 593 0122 1370     		strb	r3, [r2]
 594              	.L25:
 197:.\Generated_Source\PSoC5/cyPm.c ****     {
 595              		.loc 1 197 0
 596 0124 244B     		ldr	r3, .L51+12
 597 0126 1B78     		ldrb	r3, [r3]	@ zero_extendqisi2
 598 0128 DB06     		lsls	r3, r3, #27
 599 012a 01D5     		bpl	.L26
 199:.\Generated_Source\PSoC5/cyPm.c ****     }
 600              		.loc 1 199 0
 601 012c FFF7FEFF 		bl	CyIMO_DisableDoubler
 602              	.LVL7:
 603              	.L26:
 203:.\Generated_Source\PSoC5/cyPm.c ****     if(CY_PM_DIV_BY_ONE != cyPmClockBackup.clkSyncDiv)
 604              		.loc 1 203 0
 605 0130 254B     		ldr	r3, .L51+28
 606 0132 1B78     		ldrb	r3, [r3]	@ zero_extendqisi2
 607 0134 DBB2     		uxtb	r3, r3
 608 0136 84F83A30 		strb	r3, [r4, #58]
 204:.\Generated_Source\PSoC5/cyPm.c ****     {
 609              		.loc 1 204 0
 610 013a 13B1     		cbz	r3, .L27
 206:.\Generated_Source\PSoC5/cyPm.c ****     }    /* No change if master clock divider is 1 */
 611              		.loc 1 206 0
 612 013c 0020     		movs	r0, #0
ARM GAS  C:\Users\mjphi\AppData\Local\Temp\ccWjpNxZ.s 			page 46


 613 013e FFF7FEFF 		bl	CyMasterClk_SetDivider
 614              	.LVL8:
 615              	.L27:
 210:.\Generated_Source\PSoC5/cyPm.c ****     {
 616              		.loc 1 210 0
 617 0142 94F83230 		ldrb	r3, [r4, #50]	@ zero_extendqisi2
 618 0146 13B1     		cbz	r3, .L28
 212:.\Generated_Source\PSoC5/cyPm.c ****     }    /* No change if master clock source is IMO */
 619              		.loc 1 212 0
 620 0148 0020     		movs	r0, #0
 621 014a FFF7FEFF 		bl	CyMasterClk_SetSource
 622              	.LVL9:
 623              	.L28:
 216:.\Generated_Source\PSoC5/cyPm.c ****     cyPmClockBackup.clkBusDiv |= CY_PM_CLK_BUS_LSB_DIV_REG;
 624              		.loc 1 216 0
 625 014e 1F4B     		ldr	r3, .L51+32
 626 0150 1B78     		ldrb	r3, [r3]	@ zero_extendqisi2
 627 0152 1A02     		lsls	r2, r3, #8
 217:.\Generated_Source\PSoC5/cyPm.c ****     if(CY_PM_BUS_CLK_DIV_BY_ONE != cyPmClockBackup.clkBusDiv)
 628              		.loc 1 217 0
 629 0154 1E4B     		ldr	r3, .L51+36
 216:.\Generated_Source\PSoC5/cyPm.c ****     cyPmClockBackup.clkBusDiv |= CY_PM_CLK_BUS_LSB_DIV_REG;
 630              		.loc 1 216 0
 631 0156 A287     		strh	r2, [r4, #60]	@ movhi
 217:.\Generated_Source\PSoC5/cyPm.c ****     if(CY_PM_BUS_CLK_DIV_BY_ONE != cyPmClockBackup.clkBusDiv)
 632              		.loc 1 217 0
 633 0158 1B78     		ldrb	r3, [r3]	@ zero_extendqisi2
 634 015a 1343     		orrs	r3, r3, r2
 635 015c A387     		strh	r3, [r4, #60]	@ movhi
 218:.\Generated_Source\PSoC5/cyPm.c ****     {
 636              		.loc 1 218 0
 637 015e 13B1     		cbz	r3, .L29
 220:.\Generated_Source\PSoC5/cyPm.c ****     }    /* Do nothing if saved and actual values are equal */
 638              		.loc 1 220 0
 639 0160 0020     		movs	r0, #0
 640 0162 FFF7FEFF 		bl	CyBusClk_SetDivider
 641              	.LVL10:
 642              	.L29:
 224:.\Generated_Source\PSoC5/cyPm.c **** 
 643              		.loc 1 224 0
 644 0166 144B     		ldr	r3, .L51+12
 645 0168 1A4A     		ldr	r2, .L51+40
 646 016a 1B78     		ldrb	r3, [r3]	@ zero_extendqisi2
 647 016c 03F00703 		and	r3, r3, #7
 648 0170 D05C     		ldrb	r0, [r2, r3]	@ zero_extendqisi2
 649 0172 FFF7FEFF 		bl	CyFlash_SetWaitCycles
 650              	.LVL11:
 227:.\Generated_Source\PSoC5/cyPm.c ****     {
 651              		.loc 1 227 0
 652 0176 184B     		ldr	r3, .L51+44
 653 0178 1B78     		ldrb	r3, [r3]	@ zero_extendqisi2
 654 017a 13F00103 		ands	r3, r3, #1
 655 017e 05D0     		beq	.L30
 230:.\Generated_Source\PSoC5/cyPm.c ****         CyXTAL_Stop();
 656              		.loc 1 230 0
 657 0180 0123     		movs	r3, #1
 658 0182 84F83F30 		strb	r3, [r4, #63]
ARM GAS  C:\Users\mjphi\AppData\Local\Temp\ccWjpNxZ.s 			page 47


 231:.\Generated_Source\PSoC5/cyPm.c ****     }
 659              		.loc 1 231 0
 660 0186 FFF7FEFF 		bl	CyXTAL_Stop
 661              	.LVL12:
 662 018a 01E0     		b	.L31
 663              	.L30:
 236:.\Generated_Source\PSoC5/cyPm.c ****     }
 664              		.loc 1 236 0
 665 018c 84F83F30 		strb	r3, [r4, #63]
 666              	.L31:
 245:.\Generated_Source\PSoC5/cyPm.c ****     {
 667              		.loc 1 245 0
 668 0190 124B     		ldr	r3, .L51+48
 669 0192 1B78     		ldrb	r3, [r3]	@ zero_extendqisi2
 670 0194 03F00403 		and	r3, r3, #4
 671 0198 03F0FF02 		and	r2, r3, #255
 672 019c 1BB1     		cbz	r3, .L32
 247:.\Generated_Source\PSoC5/cyPm.c ****     }
 673              		.loc 1 247 0
 674 019e 0123     		movs	r3, #1
 675 01a0 84F84030 		strb	r3, [r4, #64]
 676 01a4 10BD     		pop	{r4, pc}
 677              	.L32:
 251:.\Generated_Source\PSoC5/cyPm.c ****     }
 678              		.loc 1 251 0
 679 01a6 84F84020 		strb	r2, [r4, #64]
 680 01aa 10BD     		pop	{r4, pc}
 681              	.L52:
 682              		.align	2
 683              	.L51:
 684 01ac A1430040 		.word	1073759137
 685 01b0 00000000 		.word	.LANCHOR0
 686 01b4 A2430040 		.word	1073759138
 687 01b8 00420040 		.word	1073758720
 688 01bc 05400040 		.word	1073758213
 689 01c0 20420040 		.word	1073758752
 690 01c4 A0430040 		.word	1073759136
 691 01c8 04400040 		.word	1073758212
 692 01cc 07400040 		.word	1073758215
 693 01d0 06400040 		.word	1073758214
 694 01d4 00000000 		.word	.LANCHOR1
 695 01d8 10420040 		.word	1073758736
 696 01dc 0B400040 		.word	1073758219
 697              		.cfi_endproc
 698              	.LFE0:
 699              		.size	CyPmSaveClocks, .-CyPmSaveClocks
 700              		.section	.text.CyPmRestoreClocks,"ax",%progbits
 701              		.align	1
 702              		.global	CyPmRestoreClocks
 703              		.thumb
 704              		.thumb_func
 705              		.type	CyPmRestoreClocks, %function
 706              	CyPmRestoreClocks:
 707              	.LFB1:
 284:.\Generated_Source\PSoC5/cyPm.c ****     cystatus status = CYRET_TIMEOUT;
 708              		.loc 1 284 0
 709              		.cfi_startproc
ARM GAS  C:\Users\mjphi\AppData\Local\Temp\ccWjpNxZ.s 			page 48


 710              		@ args = 0, pretend = 0, frame = 8
 711              		@ frame_needed = 0, uses_anonymous_args = 0
 712              	.LVL13:
 713 0000 F7B5     		push	{r0, r1, r2, r4, r5, r6, r7, lr}
 714              		.cfi_def_cfa_offset 32
 715              		.cfi_offset 4, -20
 716              		.cfi_offset 5, -16
 717              		.cfi_offset 6, -12
 718              		.cfi_offset 7, -8
 719              		.cfi_offset 14, -4
 291:.\Generated_Source\PSoC5/cyPm.c ****         CY_IMO_FREQ_12MHZ, CY_IMO_FREQ_6MHZ,  CY_IMO_FREQ_24MHZ, CY_IMO_FREQ_3MHZ,
 720              		.loc 1 291 0
 721 0002 774E     		ldr	r6, .L90
 296:.\Generated_Source\PSoC5/cyPm.c ****     {
 722              		.loc 1 296 0
 723 0004 774C     		ldr	r4, .L90+4
 291:.\Generated_Source\PSoC5/cyPm.c ****         CY_IMO_FREQ_12MHZ, CY_IMO_FREQ_6MHZ,  CY_IMO_FREQ_24MHZ, CY_IMO_FREQ_3MHZ,
 724              		.loc 1 291 0
 725 0006 3346     		mov	r3, r6
 726 0008 53F8070F 		ldr	r0, [r3, #7]!	@ unaligned
 727 000c 9A88     		ldrh	r2, [r3, #4]	@ unaligned
 728 000e 9B79     		ldrb	r3, [r3, #6]	@ zero_extendqisi2
 729 0010 0090     		str	r0, [sp]	@ unaligned
 730 0012 8DF80630 		strb	r3, [sp, #6]
 296:.\Generated_Source\PSoC5/cyPm.c ****     {
 731              		.loc 1 296 0
 732 0016 94F84030 		ldrb	r3, [r4, #64]	@ zero_extendqisi2
 291:.\Generated_Source\PSoC5/cyPm.c ****         CY_IMO_FREQ_12MHZ, CY_IMO_FREQ_6MHZ,  CY_IMO_FREQ_24MHZ, CY_IMO_FREQ_3MHZ,
 733              		.loc 1 291 0
 734 001a ADF80420 		strh	r2, [sp, #4]	@ unaligned
 296:.\Generated_Source\PSoC5/cyPm.c ****     {
 735              		.loc 1 296 0
 736 001e 012B     		cmp	r3, #1
 737 0020 0DD1     		bne	.L54
 300:.\Generated_Source\PSoC5/cyPm.c **** 
 738              		.loc 1 300 0
 739 0022 714B     		ldr	r3, .L90+8
 299:.\Generated_Source\PSoC5/cyPm.c ****                         CY_PM_GET_CPU_FREQ_MHZ);
 740              		.loc 1 299 0
 741 0024 4B20     		movs	r0, #75
 300:.\Generated_Source\PSoC5/cyPm.c **** 
 742              		.loc 1 300 0
 743 0026 1B78     		ldrb	r3, [r3]	@ zero_extendqisi2
 744 0028 03F00703 		and	r3, r3, #7
 299:.\Generated_Source\PSoC5/cyPm.c ****                         CY_PM_GET_CPU_FREQ_MHZ);
 745              		.loc 1 299 0
 746 002c F35C     		ldrb	r3, [r6, r3]	@ zero_extendqisi2
 747 002e 5843     		muls	r0, r3, r0
 748 0030 FFF7FEFF 		bl	CyDelayCycles
 749              	.LVL14:
 302:.\Generated_Source\PSoC5/cyPm.c ****     }
 750              		.loc 1 302 0
 751 0034 6D4A     		ldr	r2, .L90+12
 752 0036 1378     		ldrb	r3, [r2]	@ zero_extendqisi2
 753 0038 43F00403 		orr	r3, r3, #4
 754 003c 1370     		strb	r3, [r2]
 755              	.L54:
ARM GAS  C:\Users\mjphi\AppData\Local\Temp\ccWjpNxZ.s 			page 49


 306:.\Generated_Source\PSoC5/cyPm.c ****     {
 756              		.loc 1 306 0
 757 003e 94F83F30 		ldrb	r3, [r4, #63]	@ zero_extendqisi2
 758 0042 012B     		cmp	r3, #1
 759 0044 08D0     		beq	.L55
 760              	.L58:
 353:.\Generated_Source\PSoC5/cyPm.c **** 
 761              		.loc 1 353 0
 762 0046 3720     		movs	r0, #55
 763 0048 FFF7FEFF 		bl	CyFlash_SetWaitCycles
 764              	.LVL15:
 356:.\Generated_Source\PSoC5/cyPm.c ****        (CY_PM_MASTER_CLK_SRC_DSI  == cyPmClockBackup.masterClkSrc))
 765              		.loc 1 356 0
 766 004c 94F83230 		ldrb	r3, [r4, #50]	@ zero_extendqisi2
 767 0050 023B     		subs	r3, r3, #2
 768 0052 012B     		cmp	r3, #1
 769 0054 25D8     		bhi	.L57
 770 0056 17E0     		b	.L88
 771              	.L55:
 316:.\Generated_Source\PSoC5/cyPm.c **** 
 772              		.loc 1 316 0
 773 0058 0020     		movs	r0, #0
 774 005a FFF7FEFF 		bl	CyXTAL_Start
 775              	.LVL16:
 319:.\Generated_Source\PSoC5/cyPm.c **** 
 776              		.loc 1 319 0
 777 005e 644B     		ldr	r3, .L90+16
 778 0060 0525     		movs	r5, #5
 779 0062 1F46     		mov	r7, r3
 780 0064 1A78     		ldrb	r2, [r3]	@ zero_extendqisi2
 781              	.LVL17:
 782              	.L59:
 325:.\Generated_Source\PSoC5/cyPm.c **** 
 783              		.loc 1 325 0
 784 0066 604B     		ldr	r3, .L90+8
 785 0068 C820     		movs	r0, #200
 786 006a 1B78     		ldrb	r3, [r3]	@ zero_extendqisi2
 787 006c 03F00703 		and	r3, r3, #7
 788 0070 F35C     		ldrb	r3, [r6, r3]	@ zero_extendqisi2
 789 0072 5843     		muls	r0, r3, r0
 790 0074 FFF7FEFF 		bl	CyDelayCycles
 791              	.LVL18:
 328:.\Generated_Source\PSoC5/cyPm.c ****             {
 792              		.loc 1 328 0
 793 0078 3B78     		ldrb	r3, [r7]	@ zero_extendqisi2
 794 007a 1B06     		lsls	r3, r3, #24
 795 007c E3D5     		bpl	.L58
 796              	.LVL19:
 797 007e 013D     		subs	r5, r5, #1
 798              	.LVL20:
 799 0080 ADB2     		uxth	r5, r5
 322:.\Generated_Source\PSoC5/cyPm.c ****         {
 800              		.loc 1 322 0 discriminator 2
 801 0082 002D     		cmp	r5, #0
 802 0084 EFD1     		bne	.L59
 803 0086 DEE7     		b	.L58
 804              	.L88:
ARM GAS  C:\Users\mjphi\AppData\Local\Temp\ccWjpNxZ.s 			page 50


 360:.\Generated_Source\PSoC5/cyPm.c ****         {
 805              		.loc 1 360 0
 806 0088 5A4B     		ldr	r3, .L90+20
 807 008a 564A     		ldr	r2, .L90+4
 808 008c 1B78     		ldrb	r3, [r3]	@ zero_extendqisi2
 809 008e 92F83A00 		ldrb	r0, [r2, #58]	@ zero_extendqisi2
 810 0092 8342     		cmp	r3, r0
 811 0094 01D0     		beq	.L60
 363:.\Generated_Source\PSoC5/cyPm.c ****         }
 812              		.loc 1 363 0
 813 0096 FFF7FEFF 		bl	CyMasterClk_SetDivider
 814              	.LVL21:
 815              	.L60:
 367:.\Generated_Source\PSoC5/cyPm.c ****     }
 816              		.loc 1 367 0
 817 009a 94F83200 		ldrb	r0, [r4, #50]	@ zero_extendqisi2
 818 009e FFF7FEFF 		bl	CyMasterClk_SetSource
 819              	.LVL22:
 820              	.L57:
 371:.\Generated_Source\PSoC5/cyPm.c ****         (CY_IMO_FREQ_24MHZ == cyPmImoFreqMhz2Reg[cyPmClockBackup.imoFreq]))
 821              		.loc 1 371 0
 822 00a2 94F83430 		ldrb	r3, [r4, #52]	@ zero_extendqisi2
 823 00a6 5806     		lsls	r0, r3, #25
 824 00a8 0CD5     		bpl	.L61
 372:.\Generated_Source\PSoC5/cyPm.c ****     {
 825              		.loc 1 372 0 discriminator 1
 826 00aa 4E4B     		ldr	r3, .L90+4
 827 00ac 02AA     		add	r2, sp, #8
 828 00ae 93F83330 		ldrb	r3, [r3, #51]	@ zero_extendqisi2
 829 00b2 1344     		add	r3, r3, r2
 371:.\Generated_Source\PSoC5/cyPm.c ****         (CY_IMO_FREQ_24MHZ == cyPmImoFreqMhz2Reg[cyPmClockBackup.imoFreq]))
 830              		.loc 1 371 0 discriminator 1
 831 00b4 13F8083C 		ldrb	r3, [r3, #-8]	@ zero_extendqisi2
 832 00b8 032B     		cmp	r3, #3
 833 00ba 03D1     		bne	.L61
 375:.\Generated_Source\PSoC5/cyPm.c ****     }
 834              		.loc 1 375 0
 835 00bc 0820     		movs	r0, #8
 836 00be FFF7FEFF 		bl	CyIMO_SetFreq
 837              	.LVL23:
 838 00c2 13E0     		b	.L62
 839              	.L61:
 380:.\Generated_Source\PSoC5/cyPm.c **** 
 840              		.loc 1 380 0
 841 00c4 94F83330 		ldrb	r3, [r4, #51]	@ zero_extendqisi2
 842 00c8 02AA     		add	r2, sp, #8
 843 00ca 1344     		add	r3, r3, r2
 844 00cc 13F8080C 		ldrb	r0, [r3, #-8]	@ zero_extendqisi2
 845 00d0 FFF7FEFF 		bl	CyIMO_SetFreq
 846              	.LVL24:
 382:.\Generated_Source\PSoC5/cyPm.c ****         {
 847              		.loc 1 382 0
 848 00d4 94F83430 		ldrb	r3, [r4, #52]	@ zero_extendqisi2
 849 00d8 13F0400F 		tst	r3, #64
 850 00dc 424B     		ldr	r3, .L90+8
 384:.\Generated_Source\PSoC5/cyPm.c ****         }
 851              		.loc 1 384 0
ARM GAS  C:\Users\mjphi\AppData\Local\Temp\ccWjpNxZ.s 			page 51


 852 00de 1A78     		ldrb	r2, [r3]	@ zero_extendqisi2
 853 00e0 14BF     		ite	ne
 854 00e2 42F04002 		orrne	r2, r2, #64
 388:.\Generated_Source\PSoC5/cyPm.c ****         }
 855              		.loc 1 388 0
 856 00e6 02F0BF02 		andeq	r2, r2, #191
 857 00ea 1A70     		strb	r2, [r3]
 858              	.L62:
 393:.\Generated_Source\PSoC5/cyPm.c ****        (0u == (CY_PM_ACT_CFG0_IMO & CY_PM_ACT_CFG0_REG)))
 859              		.loc 1 393 0
 860 00ec 94F83630 		ldrb	r3, [r4, #54]	@ zero_extendqisi2
 861 00f0 012B     		cmp	r3, #1
 862 00f2 08D1     		bne	.L64
 394:.\Generated_Source\PSoC5/cyPm.c ****     {
 863              		.loc 1 394 0 discriminator 1
 864 00f4 404B     		ldr	r3, .L90+24
 865 00f6 1B78     		ldrb	r3, [r3]	@ zero_extendqisi2
 866 00f8 03F01003 		and	r3, r3, #16
 393:.\Generated_Source\PSoC5/cyPm.c ****        (0u == (CY_PM_ACT_CFG0_IMO & CY_PM_ACT_CFG0_REG)))
 867              		.loc 1 393 0 discriminator 1
 868 00fc 03F0FF00 		and	r0, r3, #255
 869 0100 0BB9     		cbnz	r3, .L64
 397:.\Generated_Source\PSoC5/cyPm.c ****     }
 870              		.loc 1 397 0
 871 0102 FFF7FEFF 		bl	CyIMO_Start
 872              	.LVL25:
 873              	.L64:
 401:.\Generated_Source\PSoC5/cyPm.c **** 
 874              		.loc 1 401 0
 875 0106 94F83700 		ldrb	r0, [r4, #55]	@ zero_extendqisi2
 876 010a FFF7FEFF 		bl	CyIMO_SetSource
 877              	.LVL26:
 404:.\Generated_Source\PSoC5/cyPm.c ****     {
 878              		.loc 1 404 0
 879 010e 94F83930 		ldrb	r3, [r4, #57]	@ zero_extendqisi2
 880 0112 012B     		cmp	r3, #1
 881 0114 01D1     		bne	.L65
 406:.\Generated_Source\PSoC5/cyPm.c ****     }
 882              		.loc 1 406 0
 883 0116 FFF7FEFF 		bl	CyIMO_EnableDoubler
 884              	.LVL27:
 885              	.L65:
 410:.\Generated_Source\PSoC5/cyPm.c ****     {
 886              		.loc 1 410 0
 887 011a 4FF04022 		mov	r2, #1073758208
 888 011e 1178     		ldrb	r1, [r2]	@ zero_extendqisi2
 889 0120 94F83830 		ldrb	r3, [r4, #56]	@ zero_extendqisi2
 890 0124 01F03001 		and	r1, r1, #48
 891 0128 8B42     		cmp	r3, r1
 412:.\Generated_Source\PSoC5/cyPm.c ****                                 cyPmClockBackup.clkImoSrc;
 892              		.loc 1 412 0
 893 012a 1FBF     		itttt	ne
 894 012c 1178     		ldrbne	r1, [r2]	@ zero_extendqisi2
 895 012e 01F0CF01 		andne	r1, r1, #207
 896 0132 0B43     		orrne	r3, r3, r1
 897 0134 1370     		strbne	r3, [r2]
 418:.\Generated_Source\PSoC5/cyPm.c ****     {
ARM GAS  C:\Users\mjphi\AppData\Local\Temp\ccWjpNxZ.s 			page 52


 898              		.loc 1 418 0
 899 0136 94F83E30 		ldrb	r3, [r4, #62]	@ zero_extendqisi2
 900 013a 012B     		cmp	r3, #1
 901 013c 04D0     		beq	.L67
 902              	.L71:
 466:.\Generated_Source\PSoC5/cyPm.c ****        (CY_PM_MASTER_CLK_SRC_PLL == cyPmClockBackup.masterClkSrc))
 903              		.loc 1 466 0
 904 013e 94F83230 		ldrb	r3, [r4, #50]	@ zero_extendqisi2
 905 0142 012B     		cmp	r3, #1
 906 0144 26D8     		bhi	.L69
 907 0146 18E0     		b	.L89
 908              	.L67:
 429:.\Generated_Source\PSoC5/cyPm.c **** 
 909              		.loc 1 429 0
 910 0148 0020     		movs	r0, #0
 911 014a FFF7FEFF 		bl	CyPLL_OUT_Start
 912              	.LVL28:
 432:.\Generated_Source\PSoC5/cyPm.c ****         (void) CY_PM_FASTCLK_PLL_SR_REG;
 913              		.loc 1 432 0
 914 014e 5020     		movs	r0, #80
 915 0150 FFF7FEFF 		bl	CyDelayUs
 916              	.LVL29:
 433:.\Generated_Source\PSoC5/cyPm.c **** 
 917              		.loc 1 433 0
 918 0154 294B     		ldr	r3, .L90+28
 919 0156 AB25     		movs	r5, #171
 920 0158 1E46     		mov	r6, r3
 921 015a 1A78     		ldrb	r2, [r3]	@ zero_extendqisi2
 922              	.LVL30:
 923              	.L72:
 438:.\Generated_Source\PSoC5/cyPm.c **** 
 924              		.loc 1 438 0
 925 015c 0120     		movs	r0, #1
 926 015e FFF7FEFF 		bl	CyDelayUs
 927              	.LVL31:
 441:.\Generated_Source\PSoC5/cyPm.c ****                (0u != (CY_PM_FASTCLK_PLL_SR_REG & CY_PM_FASTCLK_PLL_LOCKED)))
 928              		.loc 1 441 0
 929 0162 3378     		ldrb	r3, [r6]	@ zero_extendqisi2
 930 0164 D907     		lsls	r1, r3, #31
 931 0166 03D5     		bpl	.L70
 442:.\Generated_Source\PSoC5/cyPm.c ****             {
 932              		.loc 1 442 0 discriminator 1
 933 0168 244B     		ldr	r3, .L90+28
 934 016a 1B78     		ldrb	r3, [r3]	@ zero_extendqisi2
 441:.\Generated_Source\PSoC5/cyPm.c ****                (0u != (CY_PM_FASTCLK_PLL_SR_REG & CY_PM_FASTCLK_PLL_LOCKED)))
 935              		.loc 1 441 0 discriminator 1
 936 016c DA07     		lsls	r2, r3, #31
 937 016e E6D4     		bmi	.L71
 938              	.L70:
 939              	.LVL32:
 940 0170 013D     		subs	r5, r5, #1
 941              	.LVL33:
 942 0172 ADB2     		uxth	r5, r5
 436:.\Generated_Source\PSoC5/cyPm.c ****         {
 943              		.loc 1 436 0 discriminator 2
 944 0174 002D     		cmp	r5, #0
 945 0176 F1D1     		bne	.L72
ARM GAS  C:\Users\mjphi\AppData\Local\Temp\ccWjpNxZ.s 			page 53


 946 0178 E1E7     		b	.L71
 947              	.L89:
 470:.\Generated_Source\PSoC5/cyPm.c ****         {
 948              		.loc 1 470 0
 949 017a 1E4B     		ldr	r3, .L90+20
 950 017c 194A     		ldr	r2, .L90+4
 951 017e 1B78     		ldrb	r3, [r3]	@ zero_extendqisi2
 952 0180 92F83A00 		ldrb	r0, [r2, #58]	@ zero_extendqisi2
 953 0184 8342     		cmp	r3, r0
 954 0186 01D0     		beq	.L73
 472:.\Generated_Source\PSoC5/cyPm.c ****         }
 955              		.loc 1 472 0
 956 0188 FFF7FEFF 		bl	CyMasterClk_SetDivider
 957              	.LVL34:
 958              	.L73:
 476:.\Generated_Source\PSoC5/cyPm.c ****     }
 959              		.loc 1 476 0
 960 018c 94F83200 		ldrb	r0, [r4, #50]	@ zero_extendqisi2
 961 0190 FFF7FEFF 		bl	CyMasterClk_SetSource
 962              	.LVL35:
 963              	.L69:
 480:.\Generated_Source\PSoC5/cyPm.c ****        (0u != (CY_PM_ACT_CFG0_IMO & CY_PM_ACT_CFG0_REG)))
 964              		.loc 1 480 0
 965 0194 94F83630 		ldrb	r3, [r4, #54]	@ zero_extendqisi2
 966 0198 2BB9     		cbnz	r3, .L74
 481:.\Generated_Source\PSoC5/cyPm.c ****     {
