ARM GAS  C:\Users\mjphi\AppData\Local\Temp\ccTzczbK.s 			page 1


   1              		.syntax unified
   2              		.cpu cortex-m3
   3              		.fpu softvfp
   4              		.eabi_attribute 20, 1
   5              		.eabi_attribute 21, 1
   6              		.eabi_attribute 23, 3
   7              		.eabi_attribute 24, 1
   8              		.eabi_attribute 25, 1
   9              		.eabi_attribute 26, 1
  10              		.eabi_attribute 30, 4
  11              		.eabi_attribute 34, 1
  12              		.eabi_attribute 18, 4
  13              		.thumb
  14              		.file	"queue.c"
  15              		.text
  16              	.Ltext0:
  17              		.cfi_sections	.debug_frame
  18              		.section	.text.prvCopyDataToQueue,"ax",%progbits
  19              		.align	1
  20              		.thumb
  21              		.thumb_func
  22              		.type	prvCopyDataToQueue, %function
  23              	prvCopyDataToQueue:
  24              	.LFB80:
  25              		.file 1 ".\\queue.c"
   1:.\queue.c     **** /*
   2:.\queue.c     ****     FreeRTOS V8.2.1 - Copyright (C) 2015 Real Time Engineers Ltd.
   3:.\queue.c     ****     All rights reserved
   4:.\queue.c     **** 
   5:.\queue.c     ****     VISIT http://www.FreeRTOS.org TO ENSURE YOU ARE USING THE LATEST VERSION.
   6:.\queue.c     **** 
   7:.\queue.c     ****     This file is part of the FreeRTOS distribution.
   8:.\queue.c     **** 
   9:.\queue.c     ****     FreeRTOS is free software; you can redistribute it and/or modify it under
  10:.\queue.c     ****     the terms of the GNU General Public License (version 2) as published by the
  11:.\queue.c     ****     Free Software Foundation >>!AND MODIFIED BY!<< the FreeRTOS exception.
  12:.\queue.c     **** 
  13:.\queue.c     ****     ***************************************************************************
  14:.\queue.c     ****     >>!   NOTE: The modification to the GPL is included to allow you to     !<<
  15:.\queue.c     ****     >>!   distribute a combined work that includes FreeRTOS without being   !<<
  16:.\queue.c     ****     >>!   obliged to provide the source code for proprietary components     !<<
  17:.\queue.c     ****     >>!   outside of the FreeRTOS kernel.                                   !<<
  18:.\queue.c     ****     ***************************************************************************
  19:.\queue.c     **** 
  20:.\queue.c     ****     FreeRTOS is distributed in the hope that it will be useful, but WITHOUT ANY
  21:.\queue.c     ****     WARRANTY; without even the implied warranty of MERCHANTABILITY or FITNESS
  22:.\queue.c     ****     FOR A PARTICULAR PURPOSE.  Full license text is available on the following
  23:.\queue.c     ****     link: http://www.freertos.org/a00114.html
  24:.\queue.c     **** 
  25:.\queue.c     ****     ***************************************************************************
  26:.\queue.c     ****      *                                                                       *
  27:.\queue.c     ****      *    FreeRTOS provides completely free yet professionally developed,    *
  28:.\queue.c     ****      *    robust, strictly quality controlled, supported, and cross          *
  29:.\queue.c     ****      *    platform software that is more than just the market leader, it     *
  30:.\queue.c     ****      *    is the industry's de facto standard.                               *
  31:.\queue.c     ****      *                                                                       *
  32:.\queue.c     ****      *    Help yourself get started quickly while simultaneously helping     *
ARM GAS  C:\Users\mjphi\AppData\Local\Temp\ccTzczbK.s 			page 2


  33:.\queue.c     ****      *    to support the FreeRTOS project by purchasing a FreeRTOS           *
  34:.\queue.c     ****      *    tutorial book, reference manual, or both:                          *
  35:.\queue.c     ****      *    http://www.FreeRTOS.org/Documentation                              *
  36:.\queue.c     ****      *                                                                       *
  37:.\queue.c     ****     ***************************************************************************
  38:.\queue.c     **** 
  39:.\queue.c     ****     http://www.FreeRTOS.org/FAQHelp.html - Having a problem?  Start by reading
  40:.\queue.c     ****     the FAQ page "My application does not run, what could be wrong?".  Have you
  41:.\queue.c     ****     defined configASSERT()?
  42:.\queue.c     **** 
  43:.\queue.c     ****     http://www.FreeRTOS.org/support - In return for receiving this top quality
  44:.\queue.c     ****     embedded software for free we request you assist our global community by
  45:.\queue.c     ****     participating in the support forum.
  46:.\queue.c     **** 
  47:.\queue.c     ****     http://www.FreeRTOS.org/training - Investing in training allows your team to
  48:.\queue.c     ****     be as productive as possible as early as possible.  Now you can receive
  49:.\queue.c     ****     FreeRTOS training directly from Richard Barry, CEO of Real Time Engineers
  50:.\queue.c     ****     Ltd, and the world's leading authority on the world's leading RTOS.
  51:.\queue.c     **** 
  52:.\queue.c     ****     http://www.FreeRTOS.org/plus - A selection of FreeRTOS ecosystem products,
  53:.\queue.c     ****     including FreeRTOS+Trace - an indispensable productivity tool, a DOS
  54:.\queue.c     ****     compatible FAT file system, and our tiny thread aware UDP/IP stack.
  55:.\queue.c     **** 
  56:.\queue.c     ****     http://www.FreeRTOS.org/labs - Where new FreeRTOS products go to incubate.
  57:.\queue.c     ****     Come and try FreeRTOS+TCP, our new open source TCP/IP stack for FreeRTOS.
  58:.\queue.c     **** 
  59:.\queue.c     ****     http://www.OpenRTOS.com - Real Time Engineers ltd. license FreeRTOS to High
  60:.\queue.c     ****     Integrity Systems ltd. to sell under the OpenRTOS brand.  Low cost OpenRTOS
  61:.\queue.c     ****     licenses offer ticketed support, indemnification and commercial middleware.
  62:.\queue.c     **** 
  63:.\queue.c     ****     http://www.SafeRTOS.com - High Integrity Systems also provide a safety
  64:.\queue.c     ****     engineered and independently SIL3 certified version for use in safety and
  65:.\queue.c     ****     mission critical applications that require provable dependability.
  66:.\queue.c     **** 
  67:.\queue.c     ****     1 tab == 4 spaces!
  68:.\queue.c     **** */
  69:.\queue.c     **** 
  70:.\queue.c     **** #include <stdlib.h>
  71:.\queue.c     **** #include <string.h>
  72:.\queue.c     **** 
  73:.\queue.c     **** /* Defining MPU_WRAPPERS_INCLUDED_FROM_API_FILE prevents task.h from redefining
  74:.\queue.c     **** all the API functions to use the MPU wrappers.  That should only be done when
  75:.\queue.c     **** task.h is included from an application file. */
  76:.\queue.c     **** #define MPU_WRAPPERS_INCLUDED_FROM_API_FILE
  77:.\queue.c     **** 
  78:.\queue.c     **** #include "FreeRTOS.h"
  79:.\queue.c     **** #include "task.h"
  80:.\queue.c     **** #include "queue.h"
  81:.\queue.c     **** 
  82:.\queue.c     **** #if ( configUSE_CO_ROUTINES == 1 )
  83:.\queue.c     **** 	#include "croutine.h"
  84:.\queue.c     **** #endif
  85:.\queue.c     **** 
  86:.\queue.c     **** /* Lint e961 and e750 are suppressed as a MISRA exception justified because the
  87:.\queue.c     **** MPU ports require MPU_WRAPPERS_INCLUDED_FROM_API_FILE to be defined for the
  88:.\queue.c     **** header files above, but not in this file, in order to generate the correct
  89:.\queue.c     **** privileged Vs unprivileged linkage and placement. */
ARM GAS  C:\Users\mjphi\AppData\Local\Temp\ccTzczbK.s 			page 3


  90:.\queue.c     **** #undef MPU_WRAPPERS_INCLUDED_FROM_API_FILE /*lint !e961 !e750. */
  91:.\queue.c     **** 
  92:.\queue.c     **** 
  93:.\queue.c     **** /* Constants used with the xRxLock and xTxLock structure members. */
  94:.\queue.c     **** #define queueUNLOCKED					( ( BaseType_t ) -1 )
  95:.\queue.c     **** #define queueLOCKED_UNMODIFIED			( ( BaseType_t ) 0 )
  96:.\queue.c     **** 
  97:.\queue.c     **** /* When the Queue_t structure is used to represent a base queue its pcHead and
  98:.\queue.c     **** pcTail members are used as pointers into the queue storage area.  When the
  99:.\queue.c     **** Queue_t structure is used to represent a mutex pcHead and pcTail pointers are
 100:.\queue.c     **** not necessary, and the pcHead pointer is set to NULL to indicate that the
 101:.\queue.c     **** pcTail pointer actually points to the mutex holder (if any).  Map alternative
 102:.\queue.c     **** names to the pcHead and pcTail structure members to ensure the readability of
 103:.\queue.c     **** the code is maintained despite this dual use of two structure members.  An
 104:.\queue.c     **** alternative implementation would be to use a union, but use of a union is
 105:.\queue.c     **** against the coding standard (although an exception to the standard has been
 106:.\queue.c     **** permitted where the dual use also significantly changes the type of the
 107:.\queue.c     **** structure member). */
 108:.\queue.c     **** #define pxMutexHolder					pcTail
 109:.\queue.c     **** #define uxQueueType						pcHead
 110:.\queue.c     **** #define queueQUEUE_IS_MUTEX				NULL
 111:.\queue.c     **** 
 112:.\queue.c     **** /* Semaphores do not actually store or copy data, so have an item size of
 113:.\queue.c     **** zero. */
 114:.\queue.c     **** #define queueSEMAPHORE_QUEUE_ITEM_LENGTH ( ( UBaseType_t ) 0 )
 115:.\queue.c     **** #define queueMUTEX_GIVE_BLOCK_TIME		 ( ( TickType_t ) 0U )
 116:.\queue.c     **** 
 117:.\queue.c     **** #if( configUSE_PREEMPTION == 0 )
 118:.\queue.c     **** 	/* If the cooperative scheduler is being used then a yield should not be
 119:.\queue.c     **** 	performed just because a higher priority task has been woken. */
 120:.\queue.c     **** 	#define queueYIELD_IF_USING_PREEMPTION()
 121:.\queue.c     **** #else
 122:.\queue.c     **** 	#define queueYIELD_IF_USING_PREEMPTION() portYIELD_WITHIN_API()
 123:.\queue.c     **** #endif
 124:.\queue.c     **** 
 125:.\queue.c     **** /*
 126:.\queue.c     ****  * Definition of the queue used by the scheduler.
 127:.\queue.c     ****  * Items are queued by copy, not reference.  See the following link for the
 128:.\queue.c     ****  * rationale: http://www.freertos.org/Embedded-RTOS-Queues.html
 129:.\queue.c     ****  */
 130:.\queue.c     **** typedef struct QueueDefinition
 131:.\queue.c     **** {
 132:.\queue.c     **** 	int8_t *pcHead;					/*< Points to the beginning of the queue storage area. */
 133:.\queue.c     **** 	int8_t *pcTail;					/*< Points to the byte at the end of the queue storage area.  Once more byte i
 134:.\queue.c     **** 	int8_t *pcWriteTo;				/*< Points to the free next place in the storage area. */
 135:.\queue.c     **** 
 136:.\queue.c     **** 	union							/* Use of a union is an exception to the coding standard to ensure two mutually exclus
 137:.\queue.c     **** 	{
 138:.\queue.c     **** 		int8_t *pcReadFrom;			/*< Points to the last place that a queued item was read from when the stru
 139:.\queue.c     **** 		UBaseType_t uxRecursiveCallCount;/*< Maintains a count of the number of times a recursive mutex h
 140:.\queue.c     **** 	} u;
 141:.\queue.c     **** 
 142:.\queue.c     **** 	List_t xTasksWaitingToSend;		/*< List of tasks that are blocked waiting to post onto this queue.  
 143:.\queue.c     **** 	List_t xTasksWaitingToReceive;	/*< List of tasks that are blocked waiting to read from this queue.
 144:.\queue.c     **** 
 145:.\queue.c     **** 	volatile UBaseType_t uxMessagesWaiting;/*< The number of items currently in the queue. */
 146:.\queue.c     **** 	UBaseType_t uxLength;			/*< The length of the queue defined as the number of items it will hold, n
ARM GAS  C:\Users\mjphi\AppData\Local\Temp\ccTzczbK.s 			page 4


 147:.\queue.c     **** 	UBaseType_t uxItemSize;			/*< The size of each items that the queue will hold. */
 148:.\queue.c     **** 
 149:.\queue.c     **** 	volatile BaseType_t xRxLock;	/*< Stores the number of items received from the queue (removed from 
 150:.\queue.c     **** 	volatile BaseType_t xTxLock;	/*< Stores the number of items transmitted to the queue (added to the
 151:.\queue.c     **** 
 152:.\queue.c     **** 	#if ( configUSE_TRACE_FACILITY == 1 )
 153:.\queue.c     **** 		UBaseType_t uxQueueNumber;
 154:.\queue.c     **** 		uint8_t ucQueueType;
 155:.\queue.c     **** 	#endif
 156:.\queue.c     **** 
 157:.\queue.c     **** 	#if ( configUSE_QUEUE_SETS == 1 )
 158:.\queue.c     **** 		struct QueueDefinition *pxQueueSetContainer;
 159:.\queue.c     **** 	#endif
 160:.\queue.c     **** 
 161:.\queue.c     **** } xQUEUE;
 162:.\queue.c     **** 
 163:.\queue.c     **** /* The old xQUEUE name is maintained above then typedefed to the new Queue_t
 164:.\queue.c     **** name below to enable the use of older kernel aware debuggers. */
 165:.\queue.c     **** typedef xQUEUE Queue_t;
 166:.\queue.c     **** 
 167:.\queue.c     **** /*-----------------------------------------------------------*/
 168:.\queue.c     **** 
 169:.\queue.c     **** /*
 170:.\queue.c     ****  * The queue registry is just a means for kernel aware debuggers to locate
 171:.\queue.c     ****  * queue structures.  It has no other purpose so is an optional component.
 172:.\queue.c     ****  */
 173:.\queue.c     **** #if ( configQUEUE_REGISTRY_SIZE > 0 )
 174:.\queue.c     **** 
 175:.\queue.c     **** 	/* The type stored within the queue registry array.  This allows a name
 176:.\queue.c     **** 	to be assigned to each queue making kernel aware debugging a little
 177:.\queue.c     **** 	more user friendly. */
 178:.\queue.c     **** 	typedef struct QUEUE_REGISTRY_ITEM
 179:.\queue.c     **** 	{
 180:.\queue.c     **** 		const char *pcQueueName; /*lint !e971 Unqualified char types are allowed for strings and single c
 181:.\queue.c     **** 		QueueHandle_t xHandle;
 182:.\queue.c     **** 	} xQueueRegistryItem;
 183:.\queue.c     **** 
 184:.\queue.c     **** 	/* The old xQueueRegistryItem name is maintained above then typedefed to the
 185:.\queue.c     **** 	new xQueueRegistryItem name below to enable the use of older kernel aware
 186:.\queue.c     **** 	debuggers. */
 187:.\queue.c     **** 	typedef xQueueRegistryItem QueueRegistryItem_t;
 188:.\queue.c     **** 
 189:.\queue.c     **** 	/* The queue registry is simply an array of QueueRegistryItem_t structures.
 190:.\queue.c     **** 	The pcQueueName member of a structure being NULL is indicative of the
 191:.\queue.c     **** 	array position being vacant. */
 192:.\queue.c     **** 	PRIVILEGED_DATA QueueRegistryItem_t xQueueRegistry[ configQUEUE_REGISTRY_SIZE ];
 193:.\queue.c     **** 
 194:.\queue.c     **** #endif /* configQUEUE_REGISTRY_SIZE */
 195:.\queue.c     **** 
 196:.\queue.c     **** /*
 197:.\queue.c     ****  * Unlocks a queue locked by a call to prvLockQueue.  Locking a queue does not
 198:.\queue.c     ****  * prevent an ISR from adding or removing items to the queue, but does prevent
 199:.\queue.c     ****  * an ISR from removing tasks from the queue event lists.  If an ISR finds a
 200:.\queue.c     ****  * queue is locked it will instead increment the appropriate queue lock count
 201:.\queue.c     ****  * to indicate that a task may require unblocking.  When the queue in unlocked
 202:.\queue.c     ****  * these lock counts are inspected, and the appropriate action taken.
 203:.\queue.c     ****  */
ARM GAS  C:\Users\mjphi\AppData\Local\Temp\ccTzczbK.s 			page 5


 204:.\queue.c     **** static void prvUnlockQueue( Queue_t * const pxQueue ) PRIVILEGED_FUNCTION;
 205:.\queue.c     **** 
 206:.\queue.c     **** /*
 207:.\queue.c     ****  * Uses a critical section to determine if there is any data in a queue.
 208:.\queue.c     ****  *
 209:.\queue.c     ****  * @return pdTRUE if the queue contains no items, otherwise pdFALSE.
 210:.\queue.c     ****  */
 211:.\queue.c     **** static BaseType_t prvIsQueueEmpty( const Queue_t *pxQueue ) PRIVILEGED_FUNCTION;
 212:.\queue.c     **** 
 213:.\queue.c     **** /*
 214:.\queue.c     ****  * Uses a critical section to determine if there is any space in a queue.
 215:.\queue.c     ****  *
 216:.\queue.c     ****  * @return pdTRUE if there is no space, otherwise pdFALSE;
 217:.\queue.c     ****  */
 218:.\queue.c     **** static BaseType_t prvIsQueueFull( const Queue_t *pxQueue ) PRIVILEGED_FUNCTION;
 219:.\queue.c     **** 
 220:.\queue.c     **** /*
 221:.\queue.c     ****  * Copies an item into the queue, either at the front of the queue or the
 222:.\queue.c     ****  * back of the queue.
 223:.\queue.c     ****  */
 224:.\queue.c     **** static BaseType_t prvCopyDataToQueue( Queue_t * const pxQueue, const void *pvItemToQueue, const Bas
 225:.\queue.c     **** 
 226:.\queue.c     **** /*
 227:.\queue.c     ****  * Copies an item out of a queue.
 228:.\queue.c     ****  */
 229:.\queue.c     **** static void prvCopyDataFromQueue( Queue_t * const pxQueue, void * const pvBuffer ) PRIVILEGED_FUNCT
 230:.\queue.c     **** 
 231:.\queue.c     **** #if ( configUSE_QUEUE_SETS == 1 )
 232:.\queue.c     **** 	/*
 233:.\queue.c     **** 	 * Checks to see if a queue is a member of a queue set, and if so, notifies
 234:.\queue.c     **** 	 * the queue set that the queue contains data.
 235:.\queue.c     **** 	 */
 236:.\queue.c     **** 	static BaseType_t prvNotifyQueueSetContainer( const Queue_t * const pxQueue, const BaseType_t xCop
 237:.\queue.c     **** #endif
 238:.\queue.c     **** 
 239:.\queue.c     **** /*-----------------------------------------------------------*/
 240:.\queue.c     **** 
 241:.\queue.c     **** /*
 242:.\queue.c     ****  * Macro to mark a queue as locked.  Locking a queue prevents an ISR from
 243:.\queue.c     ****  * accessing the queue event lists.
 244:.\queue.c     ****  */
 245:.\queue.c     **** #define prvLockQueue( pxQueue )								\
 246:.\queue.c     **** 	taskENTER_CRITICAL();									\
 247:.\queue.c     **** 	{														\
 248:.\queue.c     **** 		if( ( pxQueue )->xRxLock == queueUNLOCKED )			\
 249:.\queue.c     **** 		{													\
 250:.\queue.c     **** 			( pxQueue )->xRxLock = queueLOCKED_UNMODIFIED;	\
 251:.\queue.c     **** 		}													\
 252:.\queue.c     **** 		if( ( pxQueue )->xTxLock == queueUNLOCKED )			\
 253:.\queue.c     **** 		{													\
 254:.\queue.c     **** 			( pxQueue )->xTxLock = queueLOCKED_UNMODIFIED;	\
 255:.\queue.c     **** 		}													\
 256:.\queue.c     **** 	}														\
 257:.\queue.c     **** 	taskEXIT_CRITICAL()
 258:.\queue.c     **** /*-----------------------------------------------------------*/
 259:.\queue.c     **** 
 260:.\queue.c     **** BaseType_t xQueueGenericReset( QueueHandle_t xQueue, BaseType_t xNewQueue )
ARM GAS  C:\Users\mjphi\AppData\Local\Temp\ccTzczbK.s 			page 6


 261:.\queue.c     **** {
 262:.\queue.c     **** Queue_t * const pxQueue = ( Queue_t * ) xQueue;
 263:.\queue.c     **** 
 264:.\queue.c     **** 	configASSERT( pxQueue );
 265:.\queue.c     **** 
 266:.\queue.c     **** 	taskENTER_CRITICAL();
 267:.\queue.c     **** 	{
 268:.\queue.c     **** 		pxQueue->pcTail = pxQueue->pcHead + ( pxQueue->uxLength * pxQueue->uxItemSize );
 269:.\queue.c     **** 		pxQueue->uxMessagesWaiting = ( UBaseType_t ) 0U;
 270:.\queue.c     **** 		pxQueue->pcWriteTo = pxQueue->pcHead;
 271:.\queue.c     **** 		pxQueue->u.pcReadFrom = pxQueue->pcHead + ( ( pxQueue->uxLength - ( UBaseType_t ) 1U ) * pxQueue-
 272:.\queue.c     **** 		pxQueue->xRxLock = queueUNLOCKED;
 273:.\queue.c     **** 		pxQueue->xTxLock = queueUNLOCKED;
 274:.\queue.c     **** 
 275:.\queue.c     **** 		if( xNewQueue == pdFALSE )
 276:.\queue.c     **** 		{
 277:.\queue.c     **** 			/* If there are tasks blocked waiting to read from the queue, then
 278:.\queue.c     **** 			the tasks will remain blocked as after this function exits the queue
 279:.\queue.c     **** 			will still be empty.  If there are tasks blocked waiting to write to
 280:.\queue.c     **** 			the queue, then one should be unblocked as after this function exits
 281:.\queue.c     **** 			it will be possible to write to it. */
 282:.\queue.c     **** 			if( listLIST_IS_EMPTY( &( pxQueue->xTasksWaitingToSend ) ) == pdFALSE )
 283:.\queue.c     **** 			{
 284:.\queue.c     **** 				if( xTaskRemoveFromEventList( &( pxQueue->xTasksWaitingToSend ) ) == pdTRUE )
 285:.\queue.c     **** 				{
 286:.\queue.c     **** 					queueYIELD_IF_USING_PREEMPTION();
 287:.\queue.c     **** 				}
 288:.\queue.c     **** 				else
 289:.\queue.c     **** 				{
 290:.\queue.c     **** 					mtCOVERAGE_TEST_MARKER();
 291:.\queue.c     **** 				}
 292:.\queue.c     **** 			}
 293:.\queue.c     **** 			else
 294:.\queue.c     **** 			{
 295:.\queue.c     **** 				mtCOVERAGE_TEST_MARKER();
 296:.\queue.c     **** 			}
 297:.\queue.c     **** 		}
 298:.\queue.c     **** 		else
 299:.\queue.c     **** 		{
 300:.\queue.c     **** 			/* Ensure the event queues start in the correct state. */
 301:.\queue.c     **** 			vListInitialise( &( pxQueue->xTasksWaitingToSend ) );
 302:.\queue.c     **** 			vListInitialise( &( pxQueue->xTasksWaitingToReceive ) );
 303:.\queue.c     **** 		}
 304:.\queue.c     **** 	}
 305:.\queue.c     **** 	taskEXIT_CRITICAL();
 306:.\queue.c     **** 
 307:.\queue.c     **** 	/* A value is returned for calling semantic consistency with previous
 308:.\queue.c     **** 	versions. */
 309:.\queue.c     **** 	return pdPASS;
 310:.\queue.c     **** }
 311:.\queue.c     **** /*-----------------------------------------------------------*/
 312:.\queue.c     **** 
 313:.\queue.c     **** QueueHandle_t xQueueGenericCreate( const UBaseType_t uxQueueLength, const UBaseType_t uxItemSize, c
 314:.\queue.c     **** {
 315:.\queue.c     **** Queue_t *pxNewQueue;
 316:.\queue.c     **** size_t xQueueSizeInBytes;
 317:.\queue.c     **** QueueHandle_t xReturn = NULL;
ARM GAS  C:\Users\mjphi\AppData\Local\Temp\ccTzczbK.s 			page 7


 318:.\queue.c     **** int8_t *pcAllocatedBuffer;
 319:.\queue.c     **** 
 320:.\queue.c     **** 	/* Remove compiler warnings about unused parameters should
 321:.\queue.c     **** 	configUSE_TRACE_FACILITY not be set to 1. */
 322:.\queue.c     **** 	( void ) ucQueueType;
 323:.\queue.c     **** 
 324:.\queue.c     **** 	configASSERT( uxQueueLength > ( UBaseType_t ) 0 );
 325:.\queue.c     **** 
 326:.\queue.c     **** 	if( uxItemSize == ( UBaseType_t ) 0 )
 327:.\queue.c     **** 	{
 328:.\queue.c     **** 		/* There is not going to be a queue storage area. */
 329:.\queue.c     **** 		xQueueSizeInBytes = ( size_t ) 0;
 330:.\queue.c     **** 	}
 331:.\queue.c     **** 	else
 332:.\queue.c     **** 	{
 333:.\queue.c     **** 		/* The queue is one byte longer than asked for to make wrap checking
 334:.\queue.c     **** 		easier/faster. */
 335:.\queue.c     **** 		xQueueSizeInBytes = ( size_t ) ( uxQueueLength * uxItemSize ) + ( size_t ) 1; /*lint !e961 MISRA 
 336:.\queue.c     **** 	}
 337:.\queue.c     **** 
 338:.\queue.c     **** 	/* Allocate the new queue structure and storage area. */
 339:.\queue.c     **** 	pcAllocatedBuffer = ( int8_t * ) pvPortMalloc( sizeof( Queue_t ) + xQueueSizeInBytes );
 340:.\queue.c     **** 
 341:.\queue.c     **** 	if( pcAllocatedBuffer != NULL )
 342:.\queue.c     **** 	{
 343:.\queue.c     **** 		pxNewQueue = ( Queue_t * ) pcAllocatedBuffer; /*lint !e826 MISRA The buffer cannot be too small b
 344:.\queue.c     **** 
 345:.\queue.c     **** 		if( uxItemSize == ( UBaseType_t ) 0 )
 346:.\queue.c     **** 		{
 347:.\queue.c     **** 			/* No RAM was allocated for the queue storage area, but PC head
 348:.\queue.c     **** 			cannot be set to NULL because NULL is used as a key to say the queue
 349:.\queue.c     **** 			is used as a mutex.  Therefore just set pcHead to point to the queue
 350:.\queue.c     **** 			as a benign value that is known to be within the memory map. */
 351:.\queue.c     **** 			pxNewQueue->pcHead = ( int8_t * ) pxNewQueue;
 352:.\queue.c     **** 		}
 353:.\queue.c     **** 		else
 354:.\queue.c     **** 		{
 355:.\queue.c     **** 			/* Jump past the queue structure to find the location of the queue
 356:.\queue.c     **** 			storage area - adding the padding bytes to get a better alignment. */
 357:.\queue.c     **** 			pxNewQueue->pcHead = pcAllocatedBuffer + sizeof( Queue_t );
 358:.\queue.c     **** 		}
 359:.\queue.c     **** 
 360:.\queue.c     **** 		/* Initialise the queue members as described above where the queue type
 361:.\queue.c     **** 		is defined. */
 362:.\queue.c     **** 		pxNewQueue->uxLength = uxQueueLength;
 363:.\queue.c     **** 		pxNewQueue->uxItemSize = uxItemSize;
 364:.\queue.c     **** 		( void ) xQueueGenericReset( pxNewQueue, pdTRUE );
 365:.\queue.c     **** 
 366:.\queue.c     **** 		#if ( configUSE_TRACE_FACILITY == 1 )
 367:.\queue.c     **** 		{
 368:.\queue.c     **** 			pxNewQueue->ucQueueType = ucQueueType;
 369:.\queue.c     **** 		}
 370:.\queue.c     **** 		#endif /* configUSE_TRACE_FACILITY */
 371:.\queue.c     **** 
 372:.\queue.c     **** 		#if( configUSE_QUEUE_SETS == 1 )
 373:.\queue.c     **** 		{
 374:.\queue.c     **** 			pxNewQueue->pxQueueSetContainer = NULL;
ARM GAS  C:\Users\mjphi\AppData\Local\Temp\ccTzczbK.s 			page 8


 375:.\queue.c     **** 		}
 376:.\queue.c     **** 		#endif /* configUSE_QUEUE_SETS */
 377:.\queue.c     **** 
 378:.\queue.c     **** 		traceQUEUE_CREATE( pxNewQueue );
 379:.\queue.c     **** 		xReturn = pxNewQueue;
 380:.\queue.c     **** 	}
 381:.\queue.c     **** 	else
 382:.\queue.c     **** 	{
 383:.\queue.c     **** 		mtCOVERAGE_TEST_MARKER();
 384:.\queue.c     **** 	}
 385:.\queue.c     **** 
 386:.\queue.c     **** 	configASSERT( xReturn );
 387:.\queue.c     **** 
 388:.\queue.c     **** 	return xReturn;
 389:.\queue.c     **** }
 390:.\queue.c     **** /*-----------------------------------------------------------*/
 391:.\queue.c     **** 
 392:.\queue.c     **** #if ( configUSE_MUTEXES == 1 )
 393:.\queue.c     **** 
 394:.\queue.c     **** 	QueueHandle_t xQueueCreateMutex( const uint8_t ucQueueType )
 395:.\queue.c     **** 	{
 396:.\queue.c     **** 	Queue_t *pxNewQueue;
 397:.\queue.c     **** 
 398:.\queue.c     **** 		/* Prevent compiler warnings about unused parameters if
 399:.\queue.c     **** 		configUSE_TRACE_FACILITY does not equal 1. */
 400:.\queue.c     **** 		( void ) ucQueueType;
 401:.\queue.c     **** 
 402:.\queue.c     **** 		/* Allocate the new queue structure. */
 403:.\queue.c     **** 		pxNewQueue = ( Queue_t * ) pvPortMalloc( sizeof( Queue_t ) );
 404:.\queue.c     **** 		if( pxNewQueue != NULL )
 405:.\queue.c     **** 		{
 406:.\queue.c     **** 			/* Information required for priority inheritance. */
 407:.\queue.c     **** 			pxNewQueue->pxMutexHolder = NULL;
 408:.\queue.c     **** 			pxNewQueue->uxQueueType = queueQUEUE_IS_MUTEX;
 409:.\queue.c     **** 
 410:.\queue.c     **** 			/* Queues used as a mutex no data is actually copied into or out
 411:.\queue.c     **** 			of the queue. */
 412:.\queue.c     **** 			pxNewQueue->pcWriteTo = NULL;
 413:.\queue.c     **** 			pxNewQueue->u.pcReadFrom = NULL;
 414:.\queue.c     **** 
 415:.\queue.c     **** 			/* Each mutex has a length of 1 (like a binary semaphore) and
 416:.\queue.c     **** 			an item size of 0 as nothing is actually copied into or out
 417:.\queue.c     **** 			of the mutex. */
 418:.\queue.c     **** 			pxNewQueue->uxMessagesWaiting = ( UBaseType_t ) 0U;
 419:.\queue.c     **** 			pxNewQueue->uxLength = ( UBaseType_t ) 1U;
 420:.\queue.c     **** 			pxNewQueue->uxItemSize = ( UBaseType_t ) 0U;
 421:.\queue.c     **** 			pxNewQueue->xRxLock = queueUNLOCKED;
 422:.\queue.c     **** 			pxNewQueue->xTxLock = queueUNLOCKED;
 423:.\queue.c     **** 
 424:.\queue.c     **** 			#if ( configUSE_TRACE_FACILITY == 1 )
 425:.\queue.c     **** 			{
 426:.\queue.c     **** 				pxNewQueue->ucQueueType = ucQueueType;
 427:.\queue.c     **** 			}
 428:.\queue.c     **** 			#endif
 429:.\queue.c     **** 
 430:.\queue.c     **** 			#if ( configUSE_QUEUE_SETS == 1 )
 431:.\queue.c     **** 			{
ARM GAS  C:\Users\mjphi\AppData\Local\Temp\ccTzczbK.s 			page 9


 432:.\queue.c     **** 				pxNewQueue->pxQueueSetContainer = NULL;
 433:.\queue.c     **** 			}
 434:.\queue.c     **** 			#endif
 435:.\queue.c     **** 
 436:.\queue.c     **** 			/* Ensure the event queues start with the correct state. */
 437:.\queue.c     **** 			vListInitialise( &( pxNewQueue->xTasksWaitingToSend ) );
 438:.\queue.c     **** 			vListInitialise( &( pxNewQueue->xTasksWaitingToReceive ) );
 439:.\queue.c     **** 
 440:.\queue.c     **** 			traceCREATE_MUTEX( pxNewQueue );
 441:.\queue.c     **** 
 442:.\queue.c     **** 			/* Start with the semaphore in the expected state. */
 443:.\queue.c     **** 			( void ) xQueueGenericSend( pxNewQueue, NULL, ( TickType_t ) 0U, queueSEND_TO_BACK );
 444:.\queue.c     **** 		}
 445:.\queue.c     **** 		else
 446:.\queue.c     **** 		{
 447:.\queue.c     **** 			traceCREATE_MUTEX_FAILED();
 448:.\queue.c     **** 		}
 449:.\queue.c     **** 
 450:.\queue.c     **** 		configASSERT( pxNewQueue );
 451:.\queue.c     **** 		return pxNewQueue;
 452:.\queue.c     **** 	}
 453:.\queue.c     **** 
 454:.\queue.c     **** #endif /* configUSE_MUTEXES */
 455:.\queue.c     **** /*-----------------------------------------------------------*/
 456:.\queue.c     **** 
 457:.\queue.c     **** #if ( ( configUSE_MUTEXES == 1 ) && ( INCLUDE_xSemaphoreGetMutexHolder == 1 ) )
 458:.\queue.c     **** 
 459:.\queue.c     **** 	void* xQueueGetMutexHolder( QueueHandle_t xSemaphore )
 460:.\queue.c     **** 	{
 461:.\queue.c     **** 	void *pxReturn;
 462:.\queue.c     **** 
 463:.\queue.c     **** 		/* This function is called by xSemaphoreGetMutexHolder(), and should not
 464:.\queue.c     **** 		be called directly.  Note:  This is a good way of determining if the
 465:.\queue.c     **** 		calling task is the mutex holder, but not a good way of determining the
 466:.\queue.c     **** 		identity of the mutex holder, as the holder may change between the
 467:.\queue.c     **** 		following critical section exiting and the function returning. */
 468:.\queue.c     **** 		taskENTER_CRITICAL();
 469:.\queue.c     **** 		{
 470:.\queue.c     **** 			if( ( ( Queue_t * ) xSemaphore )->uxQueueType == queueQUEUE_IS_MUTEX )
 471:.\queue.c     **** 			{
 472:.\queue.c     **** 				pxReturn = ( void * ) ( ( Queue_t * ) xSemaphore )->pxMutexHolder;
 473:.\queue.c     **** 			}
 474:.\queue.c     **** 			else
 475:.\queue.c     **** 			{
 476:.\queue.c     **** 				pxReturn = NULL;
 477:.\queue.c     **** 			}
 478:.\queue.c     **** 		}
 479:.\queue.c     **** 		taskEXIT_CRITICAL();
 480:.\queue.c     **** 
 481:.\queue.c     **** 		return pxReturn;
 482:.\queue.c     **** 	} /*lint !e818 xSemaphore cannot be a pointer to const because it is a typedef. */
 483:.\queue.c     **** 
 484:.\queue.c     **** #endif
 485:.\queue.c     **** /*-----------------------------------------------------------*/
 486:.\queue.c     **** 
 487:.\queue.c     **** #if ( configUSE_RECURSIVE_MUTEXES == 1 )
 488:.\queue.c     **** 
ARM GAS  C:\Users\mjphi\AppData\Local\Temp\ccTzczbK.s 			page 10


 489:.\queue.c     **** 	BaseType_t xQueueGiveMutexRecursive( QueueHandle_t xMutex )
 490:.\queue.c     **** 	{
 491:.\queue.c     **** 	BaseType_t xReturn;
 492:.\queue.c     **** 	Queue_t * const pxMutex = ( Queue_t * ) xMutex;
 493:.\queue.c     **** 
 494:.\queue.c     **** 		configASSERT( pxMutex );
 495:.\queue.c     **** 
 496:.\queue.c     **** 		/* If this is the task that holds the mutex then pxMutexHolder will not
 497:.\queue.c     **** 		change outside of this task.  If this task does not hold the mutex then
 498:.\queue.c     **** 		pxMutexHolder can never coincidentally equal the tasks handle, and as
 499:.\queue.c     **** 		this is the only condition we are interested in it does not matter if
 500:.\queue.c     **** 		pxMutexHolder is accessed simultaneously by another task.  Therefore no
 501:.\queue.c     **** 		mutual exclusion is required to test the pxMutexHolder variable. */
 502:.\queue.c     **** 		if( pxMutex->pxMutexHolder == ( void * ) xTaskGetCurrentTaskHandle() ) /*lint !e961 Not a redunda
 503:.\queue.c     **** 		{
 504:.\queue.c     **** 			traceGIVE_MUTEX_RECURSIVE( pxMutex );
 505:.\queue.c     **** 
 506:.\queue.c     **** 			/* uxRecursiveCallCount cannot be zero if pxMutexHolder is equal to
 507:.\queue.c     **** 			the task handle, therefore no underflow check is required.  Also,
 508:.\queue.c     **** 			uxRecursiveCallCount is only modified by the mutex holder, and as
 509:.\queue.c     **** 			there can only be one, no mutual exclusion is required to modify the
 510:.\queue.c     **** 			uxRecursiveCallCount member. */
 511:.\queue.c     **** 			( pxMutex->u.uxRecursiveCallCount )--;
 512:.\queue.c     **** 
 513:.\queue.c     **** 			/* Have we unwound the call count? */
 514:.\queue.c     **** 			if( pxMutex->u.uxRecursiveCallCount == ( UBaseType_t ) 0 )
 515:.\queue.c     **** 			{
 516:.\queue.c     **** 				/* Return the mutex.  This will automatically unblock any other
 517:.\queue.c     **** 				task that might be waiting to access the mutex. */
 518:.\queue.c     **** 				( void ) xQueueGenericSend( pxMutex, NULL, queueMUTEX_GIVE_BLOCK_TIME, queueSEND_TO_BACK );
 519:.\queue.c     **** 			}
 520:.\queue.c     **** 			else
 521:.\queue.c     **** 			{
 522:.\queue.c     **** 				mtCOVERAGE_TEST_MARKER();
 523:.\queue.c     **** 			}
 524:.\queue.c     **** 
 525:.\queue.c     **** 			xReturn = pdPASS;
 526:.\queue.c     **** 		}
 527:.\queue.c     **** 		else
 528:.\queue.c     **** 		{
 529:.\queue.c     **** 			/* The mutex cannot be given because the calling task is not the
 530:.\queue.c     **** 			holder. */
 531:.\queue.c     **** 			xReturn = pdFAIL;
 532:.\queue.c     **** 
 533:.\queue.c     **** 			traceGIVE_MUTEX_RECURSIVE_FAILED( pxMutex );
 534:.\queue.c     **** 		}
 535:.\queue.c     **** 
 536:.\queue.c     **** 		return xReturn;
 537:.\queue.c     **** 	}
 538:.\queue.c     **** 
 539:.\queue.c     **** #endif /* configUSE_RECURSIVE_MUTEXES */
 540:.\queue.c     **** /*-----------------------------------------------------------*/
 541:.\queue.c     **** 
 542:.\queue.c     **** #if ( configUSE_RECURSIVE_MUTEXES == 1 )
 543:.\queue.c     **** 
 544:.\queue.c     **** 	BaseType_t xQueueTakeMutexRecursive( QueueHandle_t xMutex, TickType_t xTicksToWait )
 545:.\queue.c     **** 	{
ARM GAS  C:\Users\mjphi\AppData\Local\Temp\ccTzczbK.s 			page 11


 546:.\queue.c     **** 	BaseType_t xReturn;
 547:.\queue.c     **** 	Queue_t * const pxMutex = ( Queue_t * ) xMutex;
 548:.\queue.c     **** 
 549:.\queue.c     **** 		configASSERT( pxMutex );
 550:.\queue.c     **** 
 551:.\queue.c     **** 		/* Comments regarding mutual exclusion as per those within
 552:.\queue.c     **** 		xQueueGiveMutexRecursive(). */
 553:.\queue.c     **** 
 554:.\queue.c     **** 		traceTAKE_MUTEX_RECURSIVE( pxMutex );
 555:.\queue.c     **** 
 556:.\queue.c     **** 		if( pxMutex->pxMutexHolder == ( void * ) xTaskGetCurrentTaskHandle() ) /*lint !e961 Cast is not r
 557:.\queue.c     **** 		{
 558:.\queue.c     **** 			( pxMutex->u.uxRecursiveCallCount )++;
 559:.\queue.c     **** 			xReturn = pdPASS;
 560:.\queue.c     **** 		}
 561:.\queue.c     **** 		else
 562:.\queue.c     **** 		{
 563:.\queue.c     **** 			xReturn = xQueueGenericReceive( pxMutex, NULL, xTicksToWait, pdFALSE );
 564:.\queue.c     **** 
 565:.\queue.c     **** 			/* pdPASS will only be returned if the mutex was successfully
 566:.\queue.c     **** 			obtained.  The calling task may have entered the Blocked state
 567:.\queue.c     **** 			before reaching here. */
 568:.\queue.c     **** 			if( xReturn == pdPASS )
 569:.\queue.c     **** 			{
 570:.\queue.c     **** 				( pxMutex->u.uxRecursiveCallCount )++;
 571:.\queue.c     **** 			}
 572:.\queue.c     **** 			else
 573:.\queue.c     **** 			{
 574:.\queue.c     **** 				traceTAKE_MUTEX_RECURSIVE_FAILED( pxMutex );
 575:.\queue.c     **** 			}
 576:.\queue.c     **** 		}
 577:.\queue.c     **** 
 578:.\queue.c     **** 		return xReturn;
 579:.\queue.c     **** 	}
 580:.\queue.c     **** 
 581:.\queue.c     **** #endif /* configUSE_RECURSIVE_MUTEXES */
 582:.\queue.c     **** /*-----------------------------------------------------------*/
 583:.\queue.c     **** 
 584:.\queue.c     **** #if ( configUSE_COUNTING_SEMAPHORES == 1 )
 585:.\queue.c     **** 
 586:.\queue.c     **** 	QueueHandle_t xQueueCreateCountingSemaphore( const UBaseType_t uxMaxCount, const UBaseType_t uxIni
 587:.\queue.c     **** 	{
 588:.\queue.c     **** 	QueueHandle_t xHandle;
 589:.\queue.c     **** 
 590:.\queue.c     **** 		configASSERT( uxMaxCount != 0 );
 591:.\queue.c     **** 		configASSERT( uxInitialCount <= uxMaxCount );
 592:.\queue.c     **** 
 593:.\queue.c     **** 		xHandle = xQueueGenericCreate( uxMaxCount, queueSEMAPHORE_QUEUE_ITEM_LENGTH, queueQUEUE_TYPE_COUN
 594:.\queue.c     **** 
 595:.\queue.c     **** 		if( xHandle != NULL )
 596:.\queue.c     **** 		{
 597:.\queue.c     **** 			( ( Queue_t * ) xHandle )->uxMessagesWaiting = uxInitialCount;
 598:.\queue.c     **** 
 599:.\queue.c     **** 			traceCREATE_COUNTING_SEMAPHORE();
 600:.\queue.c     **** 		}
 601:.\queue.c     **** 		else
 602:.\queue.c     **** 		{
ARM GAS  C:\Users\mjphi\AppData\Local\Temp\ccTzczbK.s 			page 12


 603:.\queue.c     **** 			traceCREATE_COUNTING_SEMAPHORE_FAILED();
 604:.\queue.c     **** 		}
 605:.\queue.c     **** 
 606:.\queue.c     **** 		configASSERT( xHandle );
 607:.\queue.c     **** 		return xHandle;
 608:.\queue.c     **** 	}
 609:.\queue.c     **** 
 610:.\queue.c     **** #endif /* configUSE_COUNTING_SEMAPHORES */
 611:.\queue.c     **** /*-----------------------------------------------------------*/
 612:.\queue.c     **** 
 613:.\queue.c     **** BaseType_t xQueueGenericSend( QueueHandle_t xQueue, const void * const pvItemToQueue, TickType_t xT
 614:.\queue.c     **** {
 615:.\queue.c     **** BaseType_t xEntryTimeSet = pdFALSE, xYieldRequired;
 616:.\queue.c     **** TimeOut_t xTimeOut;
 617:.\queue.c     **** Queue_t * const pxQueue = ( Queue_t * ) xQueue;
 618:.\queue.c     **** 
 619:.\queue.c     **** 	configASSERT( pxQueue );
 620:.\queue.c     **** 	configASSERT( !( ( pvItemToQueue == NULL ) && ( pxQueue->uxItemSize != ( UBaseType_t ) 0U ) ) );
 621:.\queue.c     **** 	configASSERT( !( ( xCopyPosition == queueOVERWRITE ) && ( pxQueue->uxLength != 1 ) ) );
 622:.\queue.c     **** 	#if ( ( INCLUDE_xTaskGetSchedulerState == 1 ) || ( configUSE_TIMERS == 1 ) )
 623:.\queue.c     **** 	{
 624:.\queue.c     **** 		configASSERT( !( ( xTaskGetSchedulerState() == taskSCHEDULER_SUSPENDED ) && ( xTicksToWait != 0 )
 625:.\queue.c     **** 	}
 626:.\queue.c     **** 	#endif
 627:.\queue.c     **** 
 628:.\queue.c     **** 
 629:.\queue.c     **** 	/* This function relaxes the coding standard somewhat to allow return
 630:.\queue.c     **** 	statements within the function itself.  This is done in the interest
 631:.\queue.c     **** 	of execution time efficiency. */
 632:.\queue.c     **** 	for( ;; )
 633:.\queue.c     **** 	{
 634:.\queue.c     **** 		taskENTER_CRITICAL();
 635:.\queue.c     **** 		{
 636:.\queue.c     **** 			/* Is there room on the queue now?  The running task must be the
 637:.\queue.c     **** 			highest priority task wanting to access the queue.  If the head item
 638:.\queue.c     **** 			in the queue is to be overwritten then it does not matter if the
 639:.\queue.c     **** 			queue is full. */
 640:.\queue.c     **** 			if( ( pxQueue->uxMessagesWaiting < pxQueue->uxLength ) || ( xCopyPosition == queueOVERWRITE ) )
 641:.\queue.c     **** 			{
 642:.\queue.c     **** 				traceQUEUE_SEND( pxQueue );
 643:.\queue.c     **** 				xYieldRequired = prvCopyDataToQueue( pxQueue, pvItemToQueue, xCopyPosition );
 644:.\queue.c     **** 
 645:.\queue.c     **** 				#if ( configUSE_QUEUE_SETS == 1 )
 646:.\queue.c     **** 				{
 647:.\queue.c     **** 					if( pxQueue->pxQueueSetContainer != NULL )
 648:.\queue.c     **** 					{
 649:.\queue.c     **** 						if( prvNotifyQueueSetContainer( pxQueue, xCopyPosition ) == pdTRUE )
 650:.\queue.c     **** 						{
 651:.\queue.c     **** 							/* The queue is a member of a queue set, and posting
 652:.\queue.c     **** 							to the queue set caused a higher priority task to
 653:.\queue.c     **** 							unblock. A context switch is required. */
 654:.\queue.c     **** 							queueYIELD_IF_USING_PREEMPTION();
 655:.\queue.c     **** 						}
 656:.\queue.c     **** 						else
 657:.\queue.c     **** 						{
 658:.\queue.c     **** 							mtCOVERAGE_TEST_MARKER();
 659:.\queue.c     **** 						}
ARM GAS  C:\Users\mjphi\AppData\Local\Temp\ccTzczbK.s 			page 13


 660:.\queue.c     **** 					}
 661:.\queue.c     **** 					else
 662:.\queue.c     **** 					{
 663:.\queue.c     **** 						/* If there was a task waiting for data to arrive on the
 664:.\queue.c     **** 						queue then unblock it now. */
 665:.\queue.c     **** 						if( listLIST_IS_EMPTY( &( pxQueue->xTasksWaitingToReceive ) ) == pdFALSE )
 666:.\queue.c     **** 						{
 667:.\queue.c     **** 							if( xTaskRemoveFromEventList( &( pxQueue->xTasksWaitingToReceive ) ) == pdTRUE )
 668:.\queue.c     **** 							{
 669:.\queue.c     **** 								/* The unblocked task has a priority higher than
 670:.\queue.c     **** 								our own so yield immediately.  Yes it is ok to
 671:.\queue.c     **** 								do this from within the critical section - the
 672:.\queue.c     **** 								kernel takes care of that. */
 673:.\queue.c     **** 								queueYIELD_IF_USING_PREEMPTION();
 674:.\queue.c     **** 							}
 675:.\queue.c     **** 							else
 676:.\queue.c     **** 							{
 677:.\queue.c     **** 								mtCOVERAGE_TEST_MARKER();
 678:.\queue.c     **** 							}
 679:.\queue.c     **** 						}
 680:.\queue.c     **** 						else if( xYieldRequired != pdFALSE )
 681:.\queue.c     **** 						{
 682:.\queue.c     **** 							/* This path is a special case that will only get
 683:.\queue.c     **** 							executed if the task was holding multiple mutexes
 684:.\queue.c     **** 							and the mutexes were given back in an order that is
 685:.\queue.c     **** 							different to that in which they were taken. */
 686:.\queue.c     **** 							queueYIELD_IF_USING_PREEMPTION();
 687:.\queue.c     **** 						}
 688:.\queue.c     **** 						else
 689:.\queue.c     **** 						{
 690:.\queue.c     **** 							mtCOVERAGE_TEST_MARKER();
 691:.\queue.c     **** 						}
 692:.\queue.c     **** 					}
 693:.\queue.c     **** 				}
 694:.\queue.c     **** 				#else /* configUSE_QUEUE_SETS */
 695:.\queue.c     **** 				{
 696:.\queue.c     **** 					/* If there was a task waiting for data to arrive on the
 697:.\queue.c     **** 					queue then unblock it now. */
 698:.\queue.c     **** 					if( listLIST_IS_EMPTY( &( pxQueue->xTasksWaitingToReceive ) ) == pdFALSE )
 699:.\queue.c     **** 					{
 700:.\queue.c     **** 						if( xTaskRemoveFromEventList( &( pxQueue->xTasksWaitingToReceive ) ) == pdTRUE )
 701:.\queue.c     **** 						{
 702:.\queue.c     **** 							/* The unblocked task has a priority higher than
 703:.\queue.c     **** 							our own so yield immediately.  Yes it is ok to do
 704:.\queue.c     **** 							this from within the critical section - the kernel
 705:.\queue.c     **** 							takes care of that. */
 706:.\queue.c     **** 							queueYIELD_IF_USING_PREEMPTION();
 707:.\queue.c     **** 						}
 708:.\queue.c     **** 						else
 709:.\queue.c     **** 						{
 710:.\queue.c     **** 							mtCOVERAGE_TEST_MARKER();
 711:.\queue.c     **** 						}
 712:.\queue.c     **** 					}
 713:.\queue.c     **** 					else if( xYieldRequired != pdFALSE )
 714:.\queue.c     **** 					{
 715:.\queue.c     **** 						/* This path is a special case that will only get
 716:.\queue.c     **** 						executed if the task was holding multiple mutexes and
ARM GAS  C:\Users\mjphi\AppData\Local\Temp\ccTzczbK.s 			page 14


 717:.\queue.c     **** 						the mutexes were given back in an order that is
 718:.\queue.c     **** 						different to that in which they were taken. */
 719:.\queue.c     **** 						queueYIELD_IF_USING_PREEMPTION();
 720:.\queue.c     **** 					}
 721:.\queue.c     **** 					else
 722:.\queue.c     **** 					{
 723:.\queue.c     **** 						mtCOVERAGE_TEST_MARKER();
 724:.\queue.c     **** 					}
 725:.\queue.c     **** 				}
 726:.\queue.c     **** 				#endif /* configUSE_QUEUE_SETS */
 727:.\queue.c     **** 
 728:.\queue.c     **** 				taskEXIT_CRITICAL();
 729:.\queue.c     **** 				return pdPASS;
 730:.\queue.c     **** 			}
 731:.\queue.c     **** 			else
 732:.\queue.c     **** 			{
 733:.\queue.c     **** 				if( xTicksToWait == ( TickType_t ) 0 )
 734:.\queue.c     **** 				{
 735:.\queue.c     **** 					/* The queue was full and no block time is specified (or
 736:.\queue.c     **** 					the block time has expired) so leave now. */
 737:.\queue.c     **** 					taskEXIT_CRITICAL();
 738:.\queue.c     **** 
 739:.\queue.c     **** 					/* Return to the original privilege level before exiting
 740:.\queue.c     **** 					the function. */
 741:.\queue.c     **** 					traceQUEUE_SEND_FAILED( pxQueue );
 742:.\queue.c     **** 					return errQUEUE_FULL;
 743:.\queue.c     **** 				}
 744:.\queue.c     **** 				else if( xEntryTimeSet == pdFALSE )
 745:.\queue.c     **** 				{
 746:.\queue.c     **** 					/* The queue was full and a block time was specified so
 747:.\queue.c     **** 					configure the timeout structure. */
 748:.\queue.c     **** 					vTaskSetTimeOutState( &xTimeOut );
 749:.\queue.c     **** 					xEntryTimeSet = pdTRUE;
 750:.\queue.c     **** 				}
 751:.\queue.c     **** 				else
 752:.\queue.c     **** 				{
 753:.\queue.c     **** 					/* Entry time was already set. */
 754:.\queue.c     **** 					mtCOVERAGE_TEST_MARKER();
 755:.\queue.c     **** 				}
 756:.\queue.c     **** 			}
 757:.\queue.c     **** 		}
 758:.\queue.c     **** 		taskEXIT_CRITICAL();
 759:.\queue.c     **** 
 760:.\queue.c     **** 		/* Interrupts and other tasks can send to and receive from the queue
 761:.\queue.c     **** 		now the critical section has been exited. */
 762:.\queue.c     **** 
 763:.\queue.c     **** 		vTaskSuspendAll();
 764:.\queue.c     **** 		prvLockQueue( pxQueue );
 765:.\queue.c     **** 
 766:.\queue.c     **** 		/* Update the timeout state to see if it has expired yet. */
 767:.\queue.c     **** 		if( xTaskCheckForTimeOut( &xTimeOut, &xTicksToWait ) == pdFALSE )
 768:.\queue.c     **** 		{
 769:.\queue.c     **** 			if( prvIsQueueFull( pxQueue ) != pdFALSE )
 770:.\queue.c     **** 			{
 771:.\queue.c     **** 				traceBLOCKING_ON_QUEUE_SEND( pxQueue );
 772:.\queue.c     **** 				vTaskPlaceOnEventList( &( pxQueue->xTasksWaitingToSend ), xTicksToWait );
 773:.\queue.c     **** 
ARM GAS  C:\Users\mjphi\AppData\Local\Temp\ccTzczbK.s 			page 15


 774:.\queue.c     **** 				/* Unlocking the queue means queue events can effect the
 775:.\queue.c     **** 				event list.  It is possible	that interrupts occurring now
 776:.\queue.c     **** 				remove this task from the event	list again - but as the
 777:.\queue.c     **** 				scheduler is suspended the task will go onto the pending
 778:.\queue.c     **** 				ready last instead of the actual ready list. */
 779:.\queue.c     **** 				prvUnlockQueue( pxQueue );
 780:.\queue.c     **** 
 781:.\queue.c     **** 				/* Resuming the scheduler will move tasks from the pending
 782:.\queue.c     **** 				ready list into the ready list - so it is feasible that this
 783:.\queue.c     **** 				task is already in a ready list before it yields - in which
 784:.\queue.c     **** 				case the yield will not cause a context switch unless there
 785:.\queue.c     **** 				is also a higher priority task in the pending ready list. */
 786:.\queue.c     **** 				if( xTaskResumeAll() == pdFALSE )
 787:.\queue.c     **** 				{
 788:.\queue.c     **** 					portYIELD_WITHIN_API();
 789:.\queue.c     **** 				}
 790:.\queue.c     **** 			}
 791:.\queue.c     **** 			else
 792:.\queue.c     **** 			{
 793:.\queue.c     **** 				/* Try again. */
 794:.\queue.c     **** 				prvUnlockQueue( pxQueue );
 795:.\queue.c     **** 				( void ) xTaskResumeAll();
 796:.\queue.c     **** 			}
 797:.\queue.c     **** 		}
 798:.\queue.c     **** 		else
 799:.\queue.c     **** 		{
 800:.\queue.c     **** 			/* The timeout has expired. */
 801:.\queue.c     **** 			prvUnlockQueue( pxQueue );
 802:.\queue.c     **** 			( void ) xTaskResumeAll();
 803:.\queue.c     **** 
 804:.\queue.c     **** 			/* Return to the original privilege level before exiting the
 805:.\queue.c     **** 			function. */
 806:.\queue.c     **** 			traceQUEUE_SEND_FAILED( pxQueue );
 807:.\queue.c     **** 			return errQUEUE_FULL;
 808:.\queue.c     **** 		}
 809:.\queue.c     **** 	}
 810:.\queue.c     **** }
 811:.\queue.c     **** /*-----------------------------------------------------------*/
 812:.\queue.c     **** 
 813:.\queue.c     **** #if ( configUSE_ALTERNATIVE_API == 1 )
 814:.\queue.c     **** 
 815:.\queue.c     **** 	BaseType_t xQueueAltGenericSend( QueueHandle_t xQueue, const void * const pvItemToQueue, TickType_
 816:.\queue.c     **** 	{
 817:.\queue.c     **** 	BaseType_t xEntryTimeSet = pdFALSE;
 818:.\queue.c     **** 	TimeOut_t xTimeOut;
 819:.\queue.c     **** 	Queue_t * const pxQueue = ( Queue_t * ) xQueue;
 820:.\queue.c     **** 
 821:.\queue.c     **** 		configASSERT( pxQueue );
 822:.\queue.c     **** 		configASSERT( !( ( pvItemToQueue == NULL ) && ( pxQueue->uxItemSize != ( UBaseType_t ) 0U ) ) );
 823:.\queue.c     **** 
 824:.\queue.c     **** 		for( ;; )
 825:.\queue.c     **** 		{
 826:.\queue.c     **** 			taskENTER_CRITICAL();
 827:.\queue.c     **** 			{
 828:.\queue.c     **** 				/* Is there room on the queue now?  To be running we must be
 829:.\queue.c     **** 				the highest priority task wanting to access the queue. */
 830:.\queue.c     **** 				if( pxQueue->uxMessagesWaiting < pxQueue->uxLength )
ARM GAS  C:\Users\mjphi\AppData\Local\Temp\ccTzczbK.s 			page 16


 831:.\queue.c     **** 				{
 832:.\queue.c     **** 					traceQUEUE_SEND( pxQueue );
 833:.\queue.c     **** 					prvCopyDataToQueue( pxQueue, pvItemToQueue, xCopyPosition );
 834:.\queue.c     **** 
 835:.\queue.c     **** 					/* If there was a task waiting for data to arrive on the
 836:.\queue.c     **** 					queue then unblock it now. */
 837:.\queue.c     **** 					if( listLIST_IS_EMPTY( &( pxQueue->xTasksWaitingToReceive ) ) == pdFALSE )
 838:.\queue.c     **** 					{
 839:.\queue.c     **** 						if( xTaskRemoveFromEventList( &( pxQueue->xTasksWaitingToReceive ) ) == pdTRUE )
 840:.\queue.c     **** 						{
 841:.\queue.c     **** 							/* The unblocked task has a priority higher than
 842:.\queue.c     **** 							our own so yield immediately. */
 843:.\queue.c     **** 							portYIELD_WITHIN_API();
 844:.\queue.c     **** 						}
 845:.\queue.c     **** 						else
 846:.\queue.c     **** 						{
 847:.\queue.c     **** 							mtCOVERAGE_TEST_MARKER();
 848:.\queue.c     **** 						}
 849:.\queue.c     **** 					}
 850:.\queue.c     **** 					else
 851:.\queue.c     **** 					{
 852:.\queue.c     **** 						mtCOVERAGE_TEST_MARKER();
 853:.\queue.c     **** 					}
 854:.\queue.c     **** 
 855:.\queue.c     **** 					taskEXIT_CRITICAL();
 856:.\queue.c     **** 					return pdPASS;
 857:.\queue.c     **** 				}
 858:.\queue.c     **** 				else
 859:.\queue.c     **** 				{
 860:.\queue.c     **** 					if( xTicksToWait == ( TickType_t ) 0 )
 861:.\queue.c     **** 					{
 862:.\queue.c     **** 						taskEXIT_CRITICAL();
 863:.\queue.c     **** 						return errQUEUE_FULL;
 864:.\queue.c     **** 					}
 865:.\queue.c     **** 					else if( xEntryTimeSet == pdFALSE )
 866:.\queue.c     **** 					{
 867:.\queue.c     **** 						vTaskSetTimeOutState( &xTimeOut );
 868:.\queue.c     **** 						xEntryTimeSet = pdTRUE;
 869:.\queue.c     **** 					}
 870:.\queue.c     **** 				}
 871:.\queue.c     **** 			}
 872:.\queue.c     **** 			taskEXIT_CRITICAL();
 873:.\queue.c     **** 
 874:.\queue.c     **** 			taskENTER_CRITICAL();
 875:.\queue.c     **** 			{
 876:.\queue.c     **** 				if( xTaskCheckForTimeOut( &xTimeOut, &xTicksToWait ) == pdFALSE )
 877:.\queue.c     **** 				{
 878:.\queue.c     **** 					if( prvIsQueueFull( pxQueue ) != pdFALSE )
 879:.\queue.c     **** 					{
 880:.\queue.c     **** 						traceBLOCKING_ON_QUEUE_SEND( pxQueue );
 881:.\queue.c     **** 						vTaskPlaceOnEventList( &( pxQueue->xTasksWaitingToSend ), xTicksToWait );
 882:.\queue.c     **** 						portYIELD_WITHIN_API();
 883:.\queue.c     **** 					}
 884:.\queue.c     **** 					else
 885:.\queue.c     **** 					{
 886:.\queue.c     **** 						mtCOVERAGE_TEST_MARKER();
 887:.\queue.c     **** 					}
ARM GAS  C:\Users\mjphi\AppData\Local\Temp\ccTzczbK.s 			page 17


 888:.\queue.c     **** 				}
 889:.\queue.c     **** 				else
 890:.\queue.c     **** 				{
 891:.\queue.c     **** 					taskEXIT_CRITICAL();
 892:.\queue.c     **** 					traceQUEUE_SEND_FAILED( pxQueue );
 893:.\queue.c     **** 					return errQUEUE_FULL;
 894:.\queue.c     **** 				}
 895:.\queue.c     **** 			}
 896:.\queue.c     **** 			taskEXIT_CRITICAL();
 897:.\queue.c     **** 		}
 898:.\queue.c     **** 	}
 899:.\queue.c     **** 
 900:.\queue.c     **** #endif /* configUSE_ALTERNATIVE_API */
 901:.\queue.c     **** /*-----------------------------------------------------------*/
 902:.\queue.c     **** 
 903:.\queue.c     **** #if ( configUSE_ALTERNATIVE_API == 1 )
 904:.\queue.c     **** 
 905:.\queue.c     **** 	BaseType_t xQueueAltGenericReceive( QueueHandle_t xQueue, void * const pvBuffer, TickType_t xTicks
 906:.\queue.c     **** 	{
 907:.\queue.c     **** 	BaseType_t xEntryTimeSet = pdFALSE;
 908:.\queue.c     **** 	TimeOut_t xTimeOut;
 909:.\queue.c     **** 	int8_t *pcOriginalReadPosition;
 910:.\queue.c     **** 	Queue_t * const pxQueue = ( Queue_t * ) xQueue;
 911:.\queue.c     **** 
 912:.\queue.c     **** 		configASSERT( pxQueue );
 913:.\queue.c     **** 		configASSERT( !( ( pvBuffer == NULL ) && ( pxQueue->uxItemSize != ( UBaseType_t ) 0U ) ) );
 914:.\queue.c     **** 
 915:.\queue.c     **** 		for( ;; )
 916:.\queue.c     **** 		{
 917:.\queue.c     **** 			taskENTER_CRITICAL();
 918:.\queue.c     **** 			{
 919:.\queue.c     **** 				if( pxQueue->uxMessagesWaiting > ( UBaseType_t ) 0 )
 920:.\queue.c     **** 				{
 921:.\queue.c     **** 					/* Remember our read position in case we are just peeking. */
 922:.\queue.c     **** 					pcOriginalReadPosition = pxQueue->u.pcReadFrom;
 923:.\queue.c     **** 
 924:.\queue.c     **** 					prvCopyDataFromQueue( pxQueue, pvBuffer );
 925:.\queue.c     **** 
 926:.\queue.c     **** 					if( xJustPeeking == pdFALSE )
 927:.\queue.c     **** 					{
 928:.\queue.c     **** 						traceQUEUE_RECEIVE( pxQueue );
 929:.\queue.c     **** 
 930:.\queue.c     **** 						/* Data is actually being removed (not just peeked). */
 931:.\queue.c     **** 						--( pxQueue->uxMessagesWaiting );
 932:.\queue.c     **** 
 933:.\queue.c     **** 						#if ( configUSE_MUTEXES == 1 )
 934:.\queue.c     **** 						{
 935:.\queue.c     **** 							if( pxQueue->uxQueueType == queueQUEUE_IS_MUTEX )
 936:.\queue.c     **** 							{
 937:.\queue.c     **** 								/* Record the information required to implement
 938:.\queue.c     **** 								priority inheritance should it become necessary. */
 939:.\queue.c     **** 								pxQueue->pxMutexHolder = ( int8_t * ) xTaskGetCurrentTaskHandle();
 940:.\queue.c     **** 							}
 941:.\queue.c     **** 							else
 942:.\queue.c     **** 							{
 943:.\queue.c     **** 								mtCOVERAGE_TEST_MARKER();
 944:.\queue.c     **** 							}
ARM GAS  C:\Users\mjphi\AppData\Local\Temp\ccTzczbK.s 			page 18


 945:.\queue.c     **** 						}
 946:.\queue.c     **** 						#endif
 947:.\queue.c     **** 
 948:.\queue.c     **** 						if( listLIST_IS_EMPTY( &( pxQueue->xTasksWaitingToSend ) ) == pdFALSE )
 949:.\queue.c     **** 						{
 950:.\queue.c     **** 							if( xTaskRemoveFromEventList( &( pxQueue->xTasksWaitingToSend ) ) == pdTRUE )
 951:.\queue.c     **** 							{
 952:.\queue.c     **** 								portYIELD_WITHIN_API();
 953:.\queue.c     **** 							}
 954:.\queue.c     **** 							else
 955:.\queue.c     **** 							{
 956:.\queue.c     **** 								mtCOVERAGE_TEST_MARKER();
 957:.\queue.c     **** 							}
 958:.\queue.c     **** 						}
 959:.\queue.c     **** 					}
 960:.\queue.c     **** 					else
 961:.\queue.c     **** 					{
 962:.\queue.c     **** 						traceQUEUE_PEEK( pxQueue );
 963:.\queue.c     **** 
 964:.\queue.c     **** 						/* The data is not being removed, so reset our read
 965:.\queue.c     **** 						pointer. */
 966:.\queue.c     **** 						pxQueue->u.pcReadFrom = pcOriginalReadPosition;
 967:.\queue.c     **** 
 968:.\queue.c     **** 						/* The data is being left in the queue, so see if there are
 969:.\queue.c     **** 						any other tasks waiting for the data. */
 970:.\queue.c     **** 						if( listLIST_IS_EMPTY( &( pxQueue->xTasksWaitingToReceive ) ) == pdFALSE )
 971:.\queue.c     **** 						{
 972:.\queue.c     **** 							/* Tasks that are removed from the event list will get added to
 973:.\queue.c     **** 							the pending ready list as the scheduler is still suspended. */
 974:.\queue.c     **** 							if( xTaskRemoveFromEventList( &( pxQueue->xTasksWaitingToReceive ) ) != pdFALSE )
 975:.\queue.c     **** 							{
 976:.\queue.c     **** 								/* The task waiting has a higher priority than this task. */
 977:.\queue.c     **** 								portYIELD_WITHIN_API();
 978:.\queue.c     **** 							}
 979:.\queue.c     **** 							else
 980:.\queue.c     **** 							{
 981:.\queue.c     **** 								mtCOVERAGE_TEST_MARKER();
 982:.\queue.c     **** 							}
 983:.\queue.c     **** 						}
 984:.\queue.c     **** 						else
 985:.\queue.c     **** 						{
 986:.\queue.c     **** 							mtCOVERAGE_TEST_MARKER();
 987:.\queue.c     **** 						}
 988:.\queue.c     **** 					}
 989:.\queue.c     **** 
 990:.\queue.c     **** 					taskEXIT_CRITICAL();
 991:.\queue.c     **** 					return pdPASS;
 992:.\queue.c     **** 				}
 993:.\queue.c     **** 				else
 994:.\queue.c     **** 				{
 995:.\queue.c     **** 					if( xTicksToWait == ( TickType_t ) 0 )
 996:.\queue.c     **** 					{
 997:.\queue.c     **** 						taskEXIT_CRITICAL();
 998:.\queue.c     **** 						traceQUEUE_RECEIVE_FAILED( pxQueue );
 999:.\queue.c     **** 						return errQUEUE_EMPTY;
1000:.\queue.c     **** 					}
1001:.\queue.c     **** 					else if( xEntryTimeSet == pdFALSE )
ARM GAS  C:\Users\mjphi\AppData\Local\Temp\ccTzczbK.s 			page 19


1002:.\queue.c     **** 					{
1003:.\queue.c     **** 						vTaskSetTimeOutState( &xTimeOut );
1004:.\queue.c     **** 						xEntryTimeSet = pdTRUE;
1005:.\queue.c     **** 					}
1006:.\queue.c     **** 				}
1007:.\queue.c     **** 			}
1008:.\queue.c     **** 			taskEXIT_CRITICAL();
1009:.\queue.c     **** 
1010:.\queue.c     **** 			taskENTER_CRITICAL();
1011:.\queue.c     **** 			{
1012:.\queue.c     **** 				if( xTaskCheckForTimeOut( &xTimeOut, &xTicksToWait ) == pdFALSE )
1013:.\queue.c     **** 				{
1014:.\queue.c     **** 					if( prvIsQueueEmpty( pxQueue ) != pdFALSE )
1015:.\queue.c     **** 					{
1016:.\queue.c     **** 						traceBLOCKING_ON_QUEUE_RECEIVE( pxQueue );
1017:.\queue.c     **** 
1018:.\queue.c     **** 						#if ( configUSE_MUTEXES == 1 )
1019:.\queue.c     **** 						{
1020:.\queue.c     **** 							if( pxQueue->uxQueueType == queueQUEUE_IS_MUTEX )
1021:.\queue.c     **** 							{
1022:.\queue.c     **** 								taskENTER_CRITICAL();
1023:.\queue.c     **** 								{
1024:.\queue.c     **** 									vTaskPriorityInherit( ( void * ) pxQueue->pxMutexHolder );
1025:.\queue.c     **** 								}
1026:.\queue.c     **** 								taskEXIT_CRITICAL();
1027:.\queue.c     **** 							}
1028:.\queue.c     **** 							else
1029:.\queue.c     **** 							{
1030:.\queue.c     **** 								mtCOVERAGE_TEST_MARKER();
1031:.\queue.c     **** 							}
1032:.\queue.c     **** 						}
1033:.\queue.c     **** 						#endif
1034:.\queue.c     **** 
1035:.\queue.c     **** 						vTaskPlaceOnEventList( &( pxQueue->xTasksWaitingToReceive ), xTicksToWait );
1036:.\queue.c     **** 						portYIELD_WITHIN_API();
1037:.\queue.c     **** 					}
1038:.\queue.c     **** 					else
1039:.\queue.c     **** 					{
1040:.\queue.c     **** 						mtCOVERAGE_TEST_MARKER();
1041:.\queue.c     **** 					}
1042:.\queue.c     **** 				}
1043:.\queue.c     **** 				else
1044:.\queue.c     **** 				{
1045:.\queue.c     **** 					taskEXIT_CRITICAL();
1046:.\queue.c     **** 					traceQUEUE_RECEIVE_FAILED( pxQueue );
1047:.\queue.c     **** 					return errQUEUE_EMPTY;
1048:.\queue.c     **** 				}
1049:.\queue.c     **** 			}
1050:.\queue.c     **** 			taskEXIT_CRITICAL();
1051:.\queue.c     **** 		}
1052:.\queue.c     **** 	}
1053:.\queue.c     **** 
1054:.\queue.c     **** 
1055:.\queue.c     **** #endif /* configUSE_ALTERNATIVE_API */
1056:.\queue.c     **** /*-----------------------------------------------------------*/
1057:.\queue.c     **** 
1058:.\queue.c     **** BaseType_t xQueueGenericSendFromISR( QueueHandle_t xQueue, const void * const pvItemToQueue, BaseTy
ARM GAS  C:\Users\mjphi\AppData\Local\Temp\ccTzczbK.s 			page 20


1059:.\queue.c     **** {
1060:.\queue.c     **** BaseType_t xReturn;
1061:.\queue.c     **** UBaseType_t uxSavedInterruptStatus;
1062:.\queue.c     **** Queue_t * const pxQueue = ( Queue_t * ) xQueue;
1063:.\queue.c     **** 
1064:.\queue.c     **** 	configASSERT( pxQueue );
1065:.\queue.c     **** 	configASSERT( !( ( pvItemToQueue == NULL ) && ( pxQueue->uxItemSize != ( UBaseType_t ) 0U ) ) );
1066:.\queue.c     **** 	configASSERT( !( ( xCopyPosition == queueOVERWRITE ) && ( pxQueue->uxLength != 1 ) ) );
1067:.\queue.c     **** 
1068:.\queue.c     **** 	/* RTOS ports that support interrupt nesting have the concept of a maximum
1069:.\queue.c     **** 	system call (or maximum API call) interrupt priority.  Interrupts that are
1070:.\queue.c     **** 	above the maximum system call priority are kept permanently enabled, even
1071:.\queue.c     **** 	when the RTOS kernel is in a critical section, but cannot make any calls to
1072:.\queue.c     **** 	FreeRTOS API functions.  If configASSERT() is defined in FreeRTOSConfig.h
1073:.\queue.c     **** 	then portASSERT_IF_INTERRUPT_PRIORITY_INVALID() will result in an assertion
1074:.\queue.c     **** 	failure if a FreeRTOS API function is called from an interrupt that has been
1075:.\queue.c     **** 	assigned a priority above the configured maximum system call priority.
1076:.\queue.c     **** 	Only FreeRTOS functions that end in FromISR can be called from interrupts
1077:.\queue.c     **** 	that have been assigned a priority at or (logically) below the maximum
1078:.\queue.c     **** 	system call	interrupt priority.  FreeRTOS maintains a separate interrupt
1079:.\queue.c     **** 	safe API to ensure interrupt entry is as fast and as simple as possible.
1080:.\queue.c     **** 	More information (albeit Cortex-M specific) is provided on the following
1081:.\queue.c     **** 	link: http://www.freertos.org/RTOS-Cortex-M3-M4.html */
1082:.\queue.c     **** 	portASSERT_IF_INTERRUPT_PRIORITY_INVALID();
1083:.\queue.c     **** 
1084:.\queue.c     **** 	/* Similar to xQueueGenericSend, except without blocking if there is no room
1085:.\queue.c     **** 	in the queue.  Also don't directly wake a task that was blocked on a queue
1086:.\queue.c     **** 	read, instead return a flag to say whether a context switch is required or
1087:.\queue.c     **** 	not (i.e. has a task with a higher priority than us been woken by this
1088:.\queue.c     **** 	post). */
1089:.\queue.c     **** 	uxSavedInterruptStatus = portSET_INTERRUPT_MASK_FROM_ISR();
1090:.\queue.c     **** 	{
1091:.\queue.c     **** 		if( ( pxQueue->uxMessagesWaiting < pxQueue->uxLength ) || ( xCopyPosition == queueOVERWRITE ) )
1092:.\queue.c     **** 		{
1093:.\queue.c     **** 			traceQUEUE_SEND_FROM_ISR( pxQueue );
1094:.\queue.c     **** 
1095:.\queue.c     **** 			/* Semaphores use xQueueGiveFromISR(), so pxQueue will not be a
1096:.\queue.c     **** 			semaphore or mutex.  That means prvCopyDataToQueue() cannot result
1097:.\queue.c     **** 			in a task disinheriting a priority and prvCopyDataToQueue() can be
1098:.\queue.c     **** 			called here even though the disinherit function does not check if
1099:.\queue.c     **** 			the scheduler is suspended before accessing the ready lists. */
1100:.\queue.c     **** 			( void ) prvCopyDataToQueue( pxQueue, pvItemToQueue, xCopyPosition );
1101:.\queue.c     **** 
1102:.\queue.c     **** 			/* The event list is not altered if the queue is locked.  This will
1103:.\queue.c     **** 			be done when the queue is unlocked later. */
1104:.\queue.c     **** 			if( pxQueue->xTxLock == queueUNLOCKED )
1105:.\queue.c     **** 			{
1106:.\queue.c     **** 				#if ( configUSE_QUEUE_SETS == 1 )
1107:.\queue.c     **** 				{
1108:.\queue.c     **** 					if( pxQueue->pxQueueSetContainer != NULL )
1109:.\queue.c     **** 					{
1110:.\queue.c     **** 						if( prvNotifyQueueSetContainer( pxQueue, xCopyPosition ) == pdTRUE )
1111:.\queue.c     **** 						{
1112:.\queue.c     **** 							/* The queue is a member of a queue set, and posting
1113:.\queue.c     **** 							to the queue set caused a higher priority task to
1114:.\queue.c     **** 							unblock.  A context switch is required. */
1115:.\queue.c     **** 							if( pxHigherPriorityTaskWoken != NULL )
ARM GAS  C:\Users\mjphi\AppData\Local\Temp\ccTzczbK.s 			page 21


1116:.\queue.c     **** 							{
1117:.\queue.c     **** 								*pxHigherPriorityTaskWoken = pdTRUE;
1118:.\queue.c     **** 							}
1119:.\queue.c     **** 							else
1120:.\queue.c     **** 							{
1121:.\queue.c     **** 								mtCOVERAGE_TEST_MARKER();
1122:.\queue.c     **** 							}
1123:.\queue.c     **** 						}
1124:.\queue.c     **** 						else
1125:.\queue.c     **** 						{
1126:.\queue.c     **** 							mtCOVERAGE_TEST_MARKER();
1127:.\queue.c     **** 						}
1128:.\queue.c     **** 					}
1129:.\queue.c     **** 					else
1130:.\queue.c     **** 					{
1131:.\queue.c     **** 						if( listLIST_IS_EMPTY( &( pxQueue->xTasksWaitingToReceive ) ) == pdFALSE )
1132:.\queue.c     **** 						{
1133:.\queue.c     **** 							if( xTaskRemoveFromEventList( &( pxQueue->xTasksWaitingToReceive ) ) != pdFALSE )
1134:.\queue.c     **** 							{
1135:.\queue.c     **** 								/* The task waiting has a higher priority so
1136:.\queue.c     **** 								record that a context switch is required. */
1137:.\queue.c     **** 								if( pxHigherPriorityTaskWoken != NULL )
1138:.\queue.c     **** 								{
1139:.\queue.c     **** 									*pxHigherPriorityTaskWoken = pdTRUE;
1140:.\queue.c     **** 								}
1141:.\queue.c     **** 								else
1142:.\queue.c     **** 								{
1143:.\queue.c     **** 									mtCOVERAGE_TEST_MARKER();
1144:.\queue.c     **** 								}
1145:.\queue.c     **** 							}
1146:.\queue.c     **** 							else
1147:.\queue.c     **** 							{
1148:.\queue.c     **** 								mtCOVERAGE_TEST_MARKER();
1149:.\queue.c     **** 							}
1150:.\queue.c     **** 						}
1151:.\queue.c     **** 						else
1152:.\queue.c     **** 						{
1153:.\queue.c     **** 							mtCOVERAGE_TEST_MARKER();
1154:.\queue.c     **** 						}
1155:.\queue.c     **** 					}
1156:.\queue.c     **** 				}
1157:.\queue.c     **** 				#else /* configUSE_QUEUE_SETS */
1158:.\queue.c     **** 				{
1159:.\queue.c     **** 					if( listLIST_IS_EMPTY( &( pxQueue->xTasksWaitingToReceive ) ) == pdFALSE )
1160:.\queue.c     **** 					{
1161:.\queue.c     **** 						if( xTaskRemoveFromEventList( &( pxQueue->xTasksWaitingToReceive ) ) != pdFALSE )
1162:.\queue.c     **** 						{
1163:.\queue.c     **** 							/* The task waiting has a higher priority so record that a
1164:.\queue.c     **** 							context	switch is required. */
1165:.\queue.c     **** 							if( pxHigherPriorityTaskWoken != NULL )
1166:.\queue.c     **** 							{
1167:.\queue.c     **** 								*pxHigherPriorityTaskWoken = pdTRUE;
1168:.\queue.c     **** 							}
1169:.\queue.c     **** 							else
1170:.\queue.c     **** 							{
1171:.\queue.c     **** 								mtCOVERAGE_TEST_MARKER();
1172:.\queue.c     **** 							}
ARM GAS  C:\Users\mjphi\AppData\Local\Temp\ccTzczbK.s 			page 22


1173:.\queue.c     **** 						}
1174:.\queue.c     **** 						else
1175:.\queue.c     **** 						{
1176:.\queue.c     **** 							mtCOVERAGE_TEST_MARKER();
1177:.\queue.c     **** 						}
1178:.\queue.c     **** 					}
1179:.\queue.c     **** 					else
1180:.\queue.c     **** 					{
1181:.\queue.c     **** 						mtCOVERAGE_TEST_MARKER();
1182:.\queue.c     **** 					}
1183:.\queue.c     **** 				}
1184:.\queue.c     **** 				#endif /* configUSE_QUEUE_SETS */
1185:.\queue.c     **** 			}
1186:.\queue.c     **** 			else
1187:.\queue.c     **** 			{
1188:.\queue.c     **** 				/* Increment the lock count so the task that unlocks the queue
1189:.\queue.c     **** 				knows that data was posted while it was locked. */
1190:.\queue.c     **** 				++( pxQueue->xTxLock );
1191:.\queue.c     **** 			}
1192:.\queue.c     **** 
1193:.\queue.c     **** 			xReturn = pdPASS;
1194:.\queue.c     **** 		}
1195:.\queue.c     **** 		else
1196:.\queue.c     **** 		{
1197:.\queue.c     **** 			traceQUEUE_SEND_FROM_ISR_FAILED( pxQueue );
1198:.\queue.c     **** 			xReturn = errQUEUE_FULL;
1199:.\queue.c     **** 		}
1200:.\queue.c     **** 	}
1201:.\queue.c     **** 	portCLEAR_INTERRUPT_MASK_FROM_ISR( uxSavedInterruptStatus );
1202:.\queue.c     **** 
1203:.\queue.c     **** 	return xReturn;
1204:.\queue.c     **** }
1205:.\queue.c     **** /*-----------------------------------------------------------*/
1206:.\queue.c     **** 
1207:.\queue.c     **** BaseType_t xQueueGiveFromISR( QueueHandle_t xQueue, BaseType_t * const pxHigherPriorityTaskWoken )
1208:.\queue.c     **** {
1209:.\queue.c     **** BaseType_t xReturn;
1210:.\queue.c     **** UBaseType_t uxSavedInterruptStatus;
1211:.\queue.c     **** Queue_t * const pxQueue = ( Queue_t * ) xQueue;
1212:.\queue.c     **** 
1213:.\queue.c     **** 	/* Similar to xQueueGenericSendFromISR() but used with semaphores where the
1214:.\queue.c     **** 	item size is 0.  Don't directly wake a task that was blocked on a queue
1215:.\queue.c     **** 	read, instead return a flag to say whether a context switch is required or
1216:.\queue.c     **** 	not (i.e. has a task with a higher priority than us been woken by this
1217:.\queue.c     **** 	post). */
1218:.\queue.c     **** 
1219:.\queue.c     **** 	configASSERT( pxQueue );
1220:.\queue.c     **** 
1221:.\queue.c     **** 	/* xQueueGenericSendFromISR() should be used instead of xQueueGiveFromISR()
1222:.\queue.c     **** 	if the item size is not 0. */
1223:.\queue.c     **** 	configASSERT( pxQueue->uxItemSize == 0 );
1224:.\queue.c     **** 
1225:.\queue.c     **** 	/* Normally a mutex would not be given from an interrupt, and doing so is
1226:.\queue.c     **** 	definitely wrong if there is a mutex holder as priority inheritance makes no
1227:.\queue.c     **** 	sense for an interrupts, only tasks. */
1228:.\queue.c     **** 	configASSERT( !( ( pxQueue->uxQueueType == queueQUEUE_IS_MUTEX ) && ( pxQueue->pxMutexHolder != NU
1229:.\queue.c     **** 
ARM GAS  C:\Users\mjphi\AppData\Local\Temp\ccTzczbK.s 			page 23


1230:.\queue.c     **** 	/* RTOS ports that support interrupt nesting have the concept of a maximum
1231:.\queue.c     **** 	system call (or maximum API call) interrupt priority.  Interrupts that are
1232:.\queue.c     **** 	above the maximum system call priority are kept permanently enabled, even
1233:.\queue.c     **** 	when the RTOS kernel is in a critical section, but cannot make any calls to
1234:.\queue.c     **** 	FreeRTOS API functions.  If configASSERT() is defined in FreeRTOSConfig.h
1235:.\queue.c     **** 	then portASSERT_IF_INTERRUPT_PRIORITY_INVALID() will result in an assertion
1236:.\queue.c     **** 	failure if a FreeRTOS API function is called from an interrupt that has been
1237:.\queue.c     **** 	assigned a priority above the configured maximum system call priority.
1238:.\queue.c     **** 	Only FreeRTOS functions that end in FromISR can be called from interrupts
1239:.\queue.c     **** 	that have been assigned a priority at or (logically) below the maximum
1240:.\queue.c     **** 	system call	interrupt priority.  FreeRTOS maintains a separate interrupt
1241:.\queue.c     **** 	safe API to ensure interrupt entry is as fast and as simple as possible.
1242:.\queue.c     **** 	More information (albeit Cortex-M specific) is provided on the following
1243:.\queue.c     **** 	link: http://www.freertos.org/RTOS-Cortex-M3-M4.html */
1244:.\queue.c     **** 	portASSERT_IF_INTERRUPT_PRIORITY_INVALID();
1245:.\queue.c     **** 
1246:.\queue.c     **** 	uxSavedInterruptStatus = portSET_INTERRUPT_MASK_FROM_ISR();
1247:.\queue.c     **** 	{
1248:.\queue.c     **** 		/* When the queue is used to implement a semaphore no data is ever
1249:.\queue.c     **** 		moved through the queue but it is still valid to see if the queue 'has
1250:.\queue.c     **** 		space'. */
1251:.\queue.c     **** 		if( pxQueue->uxMessagesWaiting < pxQueue->uxLength )
1252:.\queue.c     **** 		{
1253:.\queue.c     **** 			traceQUEUE_SEND_FROM_ISR( pxQueue );
1254:.\queue.c     **** 
1255:.\queue.c     **** 			/* A task can only have an inherited priority if it is a mutex
1256:.\queue.c     **** 			holder - and if there is a mutex holder then the mutex cannot be
1257:.\queue.c     **** 			given from an ISR.  As this is the ISR version of the function it
1258:.\queue.c     **** 			can be assumed there is no mutex holder and no need to determine if
1259:.\queue.c     **** 			priority disinheritance is needed.  Simply increase the count of
1260:.\queue.c     **** 			messages (semaphores) available. */
1261:.\queue.c     **** 			++( pxQueue->uxMessagesWaiting );
1262:.\queue.c     **** 
1263:.\queue.c     **** 			/* The event list is not altered if the queue is locked.  This will
1264:.\queue.c     **** 			be done when the queue is unlocked later. */
1265:.\queue.c     **** 			if( pxQueue->xTxLock == queueUNLOCKED )
1266:.\queue.c     **** 			{
1267:.\queue.c     **** 				#if ( configUSE_QUEUE_SETS == 1 )
1268:.\queue.c     **** 				{
1269:.\queue.c     **** 					if( pxQueue->pxQueueSetContainer != NULL )
1270:.\queue.c     **** 					{
1271:.\queue.c     **** 						if( prvNotifyQueueSetContainer( pxQueue, queueSEND_TO_BACK ) == pdTRUE )
1272:.\queue.c     **** 						{
1273:.\queue.c     **** 							/* The semaphore is a member of a queue set, and
1274:.\queue.c     **** 							posting	to the queue set caused a higher priority
1275:.\queue.c     **** 							task to	unblock.  A context switch is required. */
1276:.\queue.c     **** 							if( pxHigherPriorityTaskWoken != NULL )
1277:.\queue.c     **** 							{
1278:.\queue.c     **** 								*pxHigherPriorityTaskWoken = pdTRUE;
1279:.\queue.c     **** 							}
1280:.\queue.c     **** 							else
1281:.\queue.c     **** 							{
1282:.\queue.c     **** 								mtCOVERAGE_TEST_MARKER();
1283:.\queue.c     **** 							}
1284:.\queue.c     **** 						}
1285:.\queue.c     **** 						else
1286:.\queue.c     **** 						{
ARM GAS  C:\Users\mjphi\AppData\Local\Temp\ccTzczbK.s 			page 24


1287:.\queue.c     **** 							mtCOVERAGE_TEST_MARKER();
1288:.\queue.c     **** 						}
1289:.\queue.c     **** 					}
1290:.\queue.c     **** 					else
1291:.\queue.c     **** 					{
1292:.\queue.c     **** 						if( listLIST_IS_EMPTY( &( pxQueue->xTasksWaitingToReceive ) ) == pdFALSE )
1293:.\queue.c     **** 						{
1294:.\queue.c     **** 							if( xTaskRemoveFromEventList( &( pxQueue->xTasksWaitingToReceive ) ) != pdFALSE )
1295:.\queue.c     **** 							{
1296:.\queue.c     **** 								/* The task waiting has a higher priority so
1297:.\queue.c     **** 								record that a context switch is required. */
1298:.\queue.c     **** 								if( pxHigherPriorityTaskWoken != NULL )
1299:.\queue.c     **** 								{
1300:.\queue.c     **** 									*pxHigherPriorityTaskWoken = pdTRUE;
1301:.\queue.c     **** 								}
1302:.\queue.c     **** 								else
1303:.\queue.c     **** 								{
1304:.\queue.c     **** 									mtCOVERAGE_TEST_MARKER();
1305:.\queue.c     **** 								}
1306:.\queue.c     **** 							}
1307:.\queue.c     **** 							else
1308:.\queue.c     **** 							{
1309:.\queue.c     **** 								mtCOVERAGE_TEST_MARKER();
1310:.\queue.c     **** 							}
1311:.\queue.c     **** 						}
1312:.\queue.c     **** 						else
1313:.\queue.c     **** 						{
1314:.\queue.c     **** 							mtCOVERAGE_TEST_MARKER();
1315:.\queue.c     **** 						}
1316:.\queue.c     **** 					}
1317:.\queue.c     **** 				}
1318:.\queue.c     **** 				#else /* configUSE_QUEUE_SETS */
1319:.\queue.c     **** 				{
1320:.\queue.c     **** 					if( listLIST_IS_EMPTY( &( pxQueue->xTasksWaitingToReceive ) ) == pdFALSE )
1321:.\queue.c     **** 					{
1322:.\queue.c     **** 						if( xTaskRemoveFromEventList( &( pxQueue->xTasksWaitingToReceive ) ) != pdFALSE )
1323:.\queue.c     **** 						{
1324:.\queue.c     **** 							/* The task waiting has a higher priority so record that a
1325:.\queue.c     **** 							context	switch is required. */
1326:.\queue.c     **** 							if( pxHigherPriorityTaskWoken != NULL )
1327:.\queue.c     **** 							{
1328:.\queue.c     **** 								*pxHigherPriorityTaskWoken = pdTRUE;
1329:.\queue.c     **** 							}
1330:.\queue.c     **** 							else
1331:.\queue.c     **** 							{
1332:.\queue.c     **** 								mtCOVERAGE_TEST_MARKER();
1333:.\queue.c     **** 							}
1334:.\queue.c     **** 						}
1335:.\queue.c     **** 						else
1336:.\queue.c     **** 						{
1337:.\queue.c     **** 							mtCOVERAGE_TEST_MARKER();
1338:.\queue.c     **** 						}
1339:.\queue.c     **** 					}
1340:.\queue.c     **** 					else
1341:.\queue.c     **** 					{
1342:.\queue.c     **** 						mtCOVERAGE_TEST_MARKER();
1343:.\queue.c     **** 					}
ARM GAS  C:\Users\mjphi\AppData\Local\Temp\ccTzczbK.s 			page 25


1344:.\queue.c     **** 				}
1345:.\queue.c     **** 				#endif /* configUSE_QUEUE_SETS */
1346:.\queue.c     **** 			}
1347:.\queue.c     **** 			else
1348:.\queue.c     **** 			{
1349:.\queue.c     **** 				/* Increment the lock count so the task that unlocks the queue
1350:.\queue.c     **** 				knows that data was posted while it was locked. */
1351:.\queue.c     **** 				++( pxQueue->xTxLock );
1352:.\queue.c     **** 			}
1353:.\queue.c     **** 
1354:.\queue.c     **** 			xReturn = pdPASS;
1355:.\queue.c     **** 		}
1356:.\queue.c     **** 		else
1357:.\queue.c     **** 		{
1358:.\queue.c     **** 			traceQUEUE_SEND_FROM_ISR_FAILED( pxQueue );
1359:.\queue.c     **** 			xReturn = errQUEUE_FULL;
1360:.\queue.c     **** 		}
1361:.\queue.c     **** 	}
1362:.\queue.c     **** 	portCLEAR_INTERRUPT_MASK_FROM_ISR( uxSavedInterruptStatus );
1363:.\queue.c     **** 
1364:.\queue.c     **** 	return xReturn;
1365:.\queue.c     **** }
1366:.\queue.c     **** /*-----------------------------------------------------------*/
1367:.\queue.c     **** 
1368:.\queue.c     **** BaseType_t xQueueGenericReceive( QueueHandle_t xQueue, void * const pvBuffer, TickType_t xTicksToWa
1369:.\queue.c     **** {
1370:.\queue.c     **** BaseType_t xEntryTimeSet = pdFALSE;
1371:.\queue.c     **** TimeOut_t xTimeOut;
1372:.\queue.c     **** int8_t *pcOriginalReadPosition;
1373:.\queue.c     **** Queue_t * const pxQueue = ( Queue_t * ) xQueue;
1374:.\queue.c     **** 
1375:.\queue.c     **** 	configASSERT( pxQueue );
1376:.\queue.c     **** 	configASSERT( !( ( pvBuffer == NULL ) && ( pxQueue->uxItemSize != ( UBaseType_t ) 0U ) ) );
1377:.\queue.c     **** 	#if ( ( INCLUDE_xTaskGetSchedulerState == 1 ) || ( configUSE_TIMERS == 1 ) )
1378:.\queue.c     **** 	{
1379:.\queue.c     **** 		configASSERT( !( ( xTaskGetSchedulerState() == taskSCHEDULER_SUSPENDED ) && ( xTicksToWait != 0 )
1380:.\queue.c     **** 	}
1381:.\queue.c     **** 	#endif
1382:.\queue.c     **** 
1383:.\queue.c     **** 	/* This function relaxes the coding standard somewhat to allow return
1384:.\queue.c     **** 	statements within the function itself.  This is done in the interest
1385:.\queue.c     **** 	of execution time efficiency. */
1386:.\queue.c     **** 
1387:.\queue.c     **** 	for( ;; )
1388:.\queue.c     **** 	{
1389:.\queue.c     **** 		taskENTER_CRITICAL();
1390:.\queue.c     **** 		{
1391:.\queue.c     **** 			/* Is there data in the queue now?  To be running the calling task
1392:.\queue.c     **** 			must be	the highest priority task wanting to access the queue. */
1393:.\queue.c     **** 			if( pxQueue->uxMessagesWaiting > ( UBaseType_t ) 0 )
1394:.\queue.c     **** 			{
1395:.\queue.c     **** 				/* Remember the read position in case the queue is only being
1396:.\queue.c     **** 				peeked. */
1397:.\queue.c     **** 				pcOriginalReadPosition = pxQueue->u.pcReadFrom;
1398:.\queue.c     **** 
1399:.\queue.c     **** 				prvCopyDataFromQueue( pxQueue, pvBuffer );
1400:.\queue.c     **** 
ARM GAS  C:\Users\mjphi\AppData\Local\Temp\ccTzczbK.s 			page 26


1401:.\queue.c     **** 				if( xJustPeeking == pdFALSE )
1402:.\queue.c     **** 				{
1403:.\queue.c     **** 					traceQUEUE_RECEIVE( pxQueue );
1404:.\queue.c     **** 
1405:.\queue.c     **** 					/* Actually removing data, not just peeking. */
1406:.\queue.c     **** 					--( pxQueue->uxMessagesWaiting );
1407:.\queue.c     **** 
1408:.\queue.c     **** 					#if ( configUSE_MUTEXES == 1 )
1409:.\queue.c     **** 					{
1410:.\queue.c     **** 						if( pxQueue->uxQueueType == queueQUEUE_IS_MUTEX )
1411:.\queue.c     **** 						{
1412:.\queue.c     **** 							/* Record the information required to implement
1413:.\queue.c     **** 							priority inheritance should it become necessary. */
1414:.\queue.c     **** 							pxQueue->pxMutexHolder = ( int8_t * ) pvTaskIncrementMutexHeldCount(); /*lint !e961 Cast is 
1415:.\queue.c     **** 						}
1416:.\queue.c     **** 						else
1417:.\queue.c     **** 						{
1418:.\queue.c     **** 							mtCOVERAGE_TEST_MARKER();
1419:.\queue.c     **** 						}
1420:.\queue.c     **** 					}
1421:.\queue.c     **** 					#endif /* configUSE_MUTEXES */
1422:.\queue.c     **** 
1423:.\queue.c     **** 					if( listLIST_IS_EMPTY( &( pxQueue->xTasksWaitingToSend ) ) == pdFALSE )
1424:.\queue.c     **** 					{
1425:.\queue.c     **** 						if( xTaskRemoveFromEventList( &( pxQueue->xTasksWaitingToSend ) ) == pdTRUE )
1426:.\queue.c     **** 						{
1427:.\queue.c     **** 							queueYIELD_IF_USING_PREEMPTION();
1428:.\queue.c     **** 						}
1429:.\queue.c     **** 						else
1430:.\queue.c     **** 						{
1431:.\queue.c     **** 							mtCOVERAGE_TEST_MARKER();
1432:.\queue.c     **** 						}
1433:.\queue.c     **** 					}
1434:.\queue.c     **** 					else
1435:.\queue.c     **** 					{
1436:.\queue.c     **** 						mtCOVERAGE_TEST_MARKER();
1437:.\queue.c     **** 					}
1438:.\queue.c     **** 				}
1439:.\queue.c     **** 				else
1440:.\queue.c     **** 				{
1441:.\queue.c     **** 					traceQUEUE_PEEK( pxQueue );
1442:.\queue.c     **** 
1443:.\queue.c     **** 					/* The data is not being removed, so reset the read
1444:.\queue.c     **** 					pointer. */
1445:.\queue.c     **** 					pxQueue->u.pcReadFrom = pcOriginalReadPosition;
1446:.\queue.c     **** 
1447:.\queue.c     **** 					/* The data is being left in the queue, so see if there are
1448:.\queue.c     **** 					any other tasks waiting for the data. */
1449:.\queue.c     **** 					if( listLIST_IS_EMPTY( &( pxQueue->xTasksWaitingToReceive ) ) == pdFALSE )
1450:.\queue.c     **** 					{
1451:.\queue.c     **** 						if( xTaskRemoveFromEventList( &( pxQueue->xTasksWaitingToReceive ) ) != pdFALSE )
1452:.\queue.c     **** 						{
1453:.\queue.c     **** 							/* The task waiting has a higher priority than this task. */
1454:.\queue.c     **** 							queueYIELD_IF_USING_PREEMPTION();
1455:.\queue.c     **** 						}
1456:.\queue.c     **** 						else
1457:.\queue.c     **** 						{
ARM GAS  C:\Users\mjphi\AppData\Local\Temp\ccTzczbK.s 			page 27


1458:.\queue.c     **** 							mtCOVERAGE_TEST_MARKER();
1459:.\queue.c     **** 						}
1460:.\queue.c     **** 					}
1461:.\queue.c     **** 					else
1462:.\queue.c     **** 					{
1463:.\queue.c     **** 						mtCOVERAGE_TEST_MARKER();
1464:.\queue.c     **** 					}
1465:.\queue.c     **** 				}
1466:.\queue.c     **** 
1467:.\queue.c     **** 				taskEXIT_CRITICAL();
1468:.\queue.c     **** 				return pdPASS;
1469:.\queue.c     **** 			}
1470:.\queue.c     **** 			else
1471:.\queue.c     **** 			{
1472:.\queue.c     **** 				if( xTicksToWait == ( TickType_t ) 0 )
1473:.\queue.c     **** 				{
1474:.\queue.c     **** 					/* The queue was empty and no block time is specified (or
1475:.\queue.c     **** 					the block time has expired) so leave now. */
1476:.\queue.c     **** 					taskEXIT_CRITICAL();
1477:.\queue.c     **** 					traceQUEUE_RECEIVE_FAILED( pxQueue );
1478:.\queue.c     **** 					return errQUEUE_EMPTY;
1479:.\queue.c     **** 				}
1480:.\queue.c     **** 				else if( xEntryTimeSet == pdFALSE )
1481:.\queue.c     **** 				{
1482:.\queue.c     **** 					/* The queue was empty and a block time was specified so
1483:.\queue.c     **** 					configure the timeout structure. */
1484:.\queue.c     **** 					vTaskSetTimeOutState( &xTimeOut );
1485:.\queue.c     **** 					xEntryTimeSet = pdTRUE;
1486:.\queue.c     **** 				}
1487:.\queue.c     **** 				else
1488:.\queue.c     **** 				{
1489:.\queue.c     **** 					/* Entry time was already set. */
1490:.\queue.c     **** 					mtCOVERAGE_TEST_MARKER();
1491:.\queue.c     **** 				}
1492:.\queue.c     **** 			}
1493:.\queue.c     **** 		}
1494:.\queue.c     **** 		taskEXIT_CRITICAL();
1495:.\queue.c     **** 
1496:.\queue.c     **** 		/* Interrupts and other tasks can send to and receive from the queue
1497:.\queue.c     **** 		now the critical section has been exited. */
1498:.\queue.c     **** 
1499:.\queue.c     **** 		vTaskSuspendAll();
1500:.\queue.c     **** 		prvLockQueue( pxQueue );
1501:.\queue.c     **** 
1502:.\queue.c     **** 		/* Update the timeout state to see if it has expired yet. */
1503:.\queue.c     **** 		if( xTaskCheckForTimeOut( &xTimeOut, &xTicksToWait ) == pdFALSE )
1504:.\queue.c     **** 		{
1505:.\queue.c     **** 			if( prvIsQueueEmpty( pxQueue ) != pdFALSE )
1506:.\queue.c     **** 			{
1507:.\queue.c     **** 				traceBLOCKING_ON_QUEUE_RECEIVE( pxQueue );
1508:.\queue.c     **** 
1509:.\queue.c     **** 				#if ( configUSE_MUTEXES == 1 )
1510:.\queue.c     **** 				{
1511:.\queue.c     **** 					if( pxQueue->uxQueueType == queueQUEUE_IS_MUTEX )
1512:.\queue.c     **** 					{
1513:.\queue.c     **** 						taskENTER_CRITICAL();
1514:.\queue.c     **** 						{
ARM GAS  C:\Users\mjphi\AppData\Local\Temp\ccTzczbK.s 			page 28


1515:.\queue.c     **** 							vTaskPriorityInherit( ( void * ) pxQueue->pxMutexHolder );
1516:.\queue.c     **** 						}
1517:.\queue.c     **** 						taskEXIT_CRITICAL();
1518:.\queue.c     **** 					}
1519:.\queue.c     **** 					else
1520:.\queue.c     **** 					{
1521:.\queue.c     **** 						mtCOVERAGE_TEST_MARKER();
1522:.\queue.c     **** 					}
1523:.\queue.c     **** 				}
1524:.\queue.c     **** 				#endif
1525:.\queue.c     **** 
1526:.\queue.c     **** 				vTaskPlaceOnEventList( &( pxQueue->xTasksWaitingToReceive ), xTicksToWait );
1527:.\queue.c     **** 				prvUnlockQueue( pxQueue );
1528:.\queue.c     **** 				if( xTaskResumeAll() == pdFALSE )
1529:.\queue.c     **** 				{
1530:.\queue.c     **** 					portYIELD_WITHIN_API();
1531:.\queue.c     **** 				}
1532:.\queue.c     **** 				else
1533:.\queue.c     **** 				{
1534:.\queue.c     **** 					mtCOVERAGE_TEST_MARKER();
1535:.\queue.c     **** 				}
1536:.\queue.c     **** 			}
1537:.\queue.c     **** 			else
1538:.\queue.c     **** 			{
1539:.\queue.c     **** 				/* Try again. */
1540:.\queue.c     **** 				prvUnlockQueue( pxQueue );
1541:.\queue.c     **** 				( void ) xTaskResumeAll();
1542:.\queue.c     **** 			}
1543:.\queue.c     **** 		}
1544:.\queue.c     **** 		else
1545:.\queue.c     **** 		{
1546:.\queue.c     **** 			prvUnlockQueue( pxQueue );
1547:.\queue.c     **** 			( void ) xTaskResumeAll();
1548:.\queue.c     **** 			traceQUEUE_RECEIVE_FAILED( pxQueue );
1549:.\queue.c     **** 			return errQUEUE_EMPTY;
1550:.\queue.c     **** 		}
1551:.\queue.c     **** 	}
1552:.\queue.c     **** }
1553:.\queue.c     **** /*-----------------------------------------------------------*/
1554:.\queue.c     **** 
1555:.\queue.c     **** BaseType_t xQueueReceiveFromISR( QueueHandle_t xQueue, void * const pvBuffer, BaseType_t * const px
1556:.\queue.c     **** {
1557:.\queue.c     **** BaseType_t xReturn;
1558:.\queue.c     **** UBaseType_t uxSavedInterruptStatus;
1559:.\queue.c     **** Queue_t * const pxQueue = ( Queue_t * ) xQueue;
1560:.\queue.c     **** 
1561:.\queue.c     **** 	configASSERT( pxQueue );
1562:.\queue.c     **** 	configASSERT( !( ( pvBuffer == NULL ) && ( pxQueue->uxItemSize != ( UBaseType_t ) 0U ) ) );
1563:.\queue.c     **** 
1564:.\queue.c     **** 	/* RTOS ports that support interrupt nesting have the concept of a maximum
1565:.\queue.c     **** 	system call (or maximum API call) interrupt priority.  Interrupts that are
1566:.\queue.c     **** 	above the maximum system call priority are kept permanently enabled, even
1567:.\queue.c     **** 	when the RTOS kernel is in a critical section, but cannot make any calls to
1568:.\queue.c     **** 	FreeRTOS API functions.  If configASSERT() is defined in FreeRTOSConfig.h
1569:.\queue.c     **** 	then portASSERT_IF_INTERRUPT_PRIORITY_INVALID() will result in an assertion
1570:.\queue.c     **** 	failure if a FreeRTOS API function is called from an interrupt that has been
1571:.\queue.c     **** 	assigned a priority above the configured maximum system call priority.
ARM GAS  C:\Users\mjphi\AppData\Local\Temp\ccTzczbK.s 			page 29


1572:.\queue.c     **** 	Only FreeRTOS functions that end in FromISR can be called from interrupts
1573:.\queue.c     **** 	that have been assigned a priority at or (logically) below the maximum
1574:.\queue.c     **** 	system call	interrupt priority.  FreeRTOS maintains a separate interrupt
1575:.\queue.c     **** 	safe API to ensure interrupt entry is as fast and as simple as possible.
1576:.\queue.c     **** 	More information (albeit Cortex-M specific) is provided on the following
1577:.\queue.c     **** 	link: http://www.freertos.org/RTOS-Cortex-M3-M4.html */
1578:.\queue.c     **** 	portASSERT_IF_INTERRUPT_PRIORITY_INVALID();
1579:.\queue.c     **** 
1580:.\queue.c     **** 	uxSavedInterruptStatus = portSET_INTERRUPT_MASK_FROM_ISR();
1581:.\queue.c     **** 	{
1582:.\queue.c     **** 		/* Cannot block in an ISR, so check there is data available. */
1583:.\queue.c     **** 		if( pxQueue->uxMessagesWaiting > ( UBaseType_t ) 0 )
1584:.\queue.c     **** 		{
1585:.\queue.c     **** 			traceQUEUE_RECEIVE_FROM_ISR( pxQueue );
1586:.\queue.c     **** 
1587:.\queue.c     **** 			prvCopyDataFromQueue( pxQueue, pvBuffer );
1588:.\queue.c     **** 			--( pxQueue->uxMessagesWaiting );
1589:.\queue.c     **** 
1590:.\queue.c     **** 			/* If the queue is locked the event list will not be modified.
1591:.\queue.c     **** 			Instead update the lock count so the task that unlocks the queue
1592:.\queue.c     **** 			will know that an ISR has removed data while the queue was
1593:.\queue.c     **** 			locked. */
1594:.\queue.c     **** 			if( pxQueue->xRxLock == queueUNLOCKED )
1595:.\queue.c     **** 			{
1596:.\queue.c     **** 				if( listLIST_IS_EMPTY( &( pxQueue->xTasksWaitingToSend ) ) == pdFALSE )
1597:.\queue.c     **** 				{
1598:.\queue.c     **** 					if( xTaskRemoveFromEventList( &( pxQueue->xTasksWaitingToSend ) ) != pdFALSE )
1599:.\queue.c     **** 					{
1600:.\queue.c     **** 						/* The task waiting has a higher priority than us so
1601:.\queue.c     **** 						force a context switch. */
1602:.\queue.c     **** 						if( pxHigherPriorityTaskWoken != NULL )
1603:.\queue.c     **** 						{
1604:.\queue.c     **** 							*pxHigherPriorityTaskWoken = pdTRUE;
1605:.\queue.c     **** 						}
1606:.\queue.c     **** 						else
1607:.\queue.c     **** 						{
1608:.\queue.c     **** 							mtCOVERAGE_TEST_MARKER();
1609:.\queue.c     **** 						}
1610:.\queue.c     **** 					}
1611:.\queue.c     **** 					else
1612:.\queue.c     **** 					{
1613:.\queue.c     **** 						mtCOVERAGE_TEST_MARKER();
1614:.\queue.c     **** 					}
1615:.\queue.c     **** 				}
1616:.\queue.c     **** 				else
1617:.\queue.c     **** 				{
1618:.\queue.c     **** 					mtCOVERAGE_TEST_MARKER();
1619:.\queue.c     **** 				}
1620:.\queue.c     **** 			}
1621:.\queue.c     **** 			else
1622:.\queue.c     **** 			{
1623:.\queue.c     **** 				/* Increment the lock count so the task that unlocks the queue
1624:.\queue.c     **** 				knows that data was removed while it was locked. */
1625:.\queue.c     **** 				++( pxQueue->xRxLock );
1626:.\queue.c     **** 			}
1627:.\queue.c     **** 
1628:.\queue.c     **** 			xReturn = pdPASS;
ARM GAS  C:\Users\mjphi\AppData\Local\Temp\ccTzczbK.s 			page 30


1629:.\queue.c     **** 		}
1630:.\queue.c     **** 		else
1631:.\queue.c     **** 		{
1632:.\queue.c     **** 			xReturn = pdFAIL;
1633:.\queue.c     **** 			traceQUEUE_RECEIVE_FROM_ISR_FAILED( pxQueue );
1634:.\queue.c     **** 		}
1635:.\queue.c     **** 	}
1636:.\queue.c     **** 	portCLEAR_INTERRUPT_MASK_FROM_ISR( uxSavedInterruptStatus );
1637:.\queue.c     **** 
1638:.\queue.c     **** 	return xReturn;
1639:.\queue.c     **** }
1640:.\queue.c     **** /*-----------------------------------------------------------*/
1641:.\queue.c     **** 
1642:.\queue.c     **** BaseType_t xQueuePeekFromISR( QueueHandle_t xQueue,  void * const pvBuffer )
1643:.\queue.c     **** {
1644:.\queue.c     **** BaseType_t xReturn;
1645:.\queue.c     **** UBaseType_t uxSavedInterruptStatus;
1646:.\queue.c     **** int8_t *pcOriginalReadPosition;
1647:.\queue.c     **** Queue_t * const pxQueue = ( Queue_t * ) xQueue;
1648:.\queue.c     **** 
1649:.\queue.c     **** 	configASSERT( pxQueue );
1650:.\queue.c     **** 	configASSERT( !( ( pvBuffer == NULL ) && ( pxQueue->uxItemSize != ( UBaseType_t ) 0U ) ) );
1651:.\queue.c     **** 	configASSERT( pxQueue->uxItemSize != 0 ); /* Can't peek a semaphore. */
1652:.\queue.c     **** 
1653:.\queue.c     **** 	/* RTOS ports that support interrupt nesting have the concept of a maximum
1654:.\queue.c     **** 	system call (or maximum API call) interrupt priority.  Interrupts that are
1655:.\queue.c     **** 	above the maximum system call priority are kept permanently enabled, even
1656:.\queue.c     **** 	when the RTOS kernel is in a critical section, but cannot make any calls to
1657:.\queue.c     **** 	FreeRTOS API functions.  If configASSERT() is defined in FreeRTOSConfig.h
1658:.\queue.c     **** 	then portASSERT_IF_INTERRUPT_PRIORITY_INVALID() will result in an assertion
1659:.\queue.c     **** 	failure if a FreeRTOS API function is called from an interrupt that has been
1660:.\queue.c     **** 	assigned a priority above the configured maximum system call priority.
1661:.\queue.c     **** 	Only FreeRTOS functions that end in FromISR can be called from interrupts
1662:.\queue.c     **** 	that have been assigned a priority at or (logically) below the maximum
1663:.\queue.c     **** 	system call	interrupt priority.  FreeRTOS maintains a separate interrupt
1664:.\queue.c     **** 	safe API to ensure interrupt entry is as fast and as simple as possible.
1665:.\queue.c     **** 	More information (albeit Cortex-M specific) is provided on the following
1666:.\queue.c     **** 	link: http://www.freertos.org/RTOS-Cortex-M3-M4.html */
1667:.\queue.c     **** 	portASSERT_IF_INTERRUPT_PRIORITY_INVALID();
1668:.\queue.c     **** 
1669:.\queue.c     **** 	uxSavedInterruptStatus = portSET_INTERRUPT_MASK_FROM_ISR();
1670:.\queue.c     **** 	{
1671:.\queue.c     **** 		/* Cannot block in an ISR, so check there is data available. */
1672:.\queue.c     **** 		if( pxQueue->uxMessagesWaiting > ( UBaseType_t ) 0 )
1673:.\queue.c     **** 		{
1674:.\queue.c     **** 			traceQUEUE_PEEK_FROM_ISR( pxQueue );
1675:.\queue.c     **** 
1676:.\queue.c     **** 			/* Remember the read position so it can be reset as nothing is
1677:.\queue.c     **** 			actually being removed from the queue. */
1678:.\queue.c     **** 			pcOriginalReadPosition = pxQueue->u.pcReadFrom;
1679:.\queue.c     **** 			prvCopyDataFromQueue( pxQueue, pvBuffer );
1680:.\queue.c     **** 			pxQueue->u.pcReadFrom = pcOriginalReadPosition;
1681:.\queue.c     **** 
1682:.\queue.c     **** 			xReturn = pdPASS;
1683:.\queue.c     **** 		}
1684:.\queue.c     **** 		else
1685:.\queue.c     **** 		{
ARM GAS  C:\Users\mjphi\AppData\Local\Temp\ccTzczbK.s 			page 31


1686:.\queue.c     **** 			xReturn = pdFAIL;
1687:.\queue.c     **** 			traceQUEUE_PEEK_FROM_ISR_FAILED( pxQueue );
1688:.\queue.c     **** 		}
1689:.\queue.c     **** 	}
1690:.\queue.c     **** 	portCLEAR_INTERRUPT_MASK_FROM_ISR( uxSavedInterruptStatus );
1691:.\queue.c     **** 
1692:.\queue.c     **** 	return xReturn;
1693:.\queue.c     **** }
1694:.\queue.c     **** /*-----------------------------------------------------------*/
1695:.\queue.c     **** 
1696:.\queue.c     **** UBaseType_t uxQueueMessagesWaiting( const QueueHandle_t xQueue )
1697:.\queue.c     **** {
1698:.\queue.c     **** UBaseType_t uxReturn;
1699:.\queue.c     **** 
1700:.\queue.c     **** 	configASSERT( xQueue );
1701:.\queue.c     **** 
1702:.\queue.c     **** 	taskENTER_CRITICAL();
1703:.\queue.c     **** 	{
1704:.\queue.c     **** 		uxReturn = ( ( Queue_t * ) xQueue )->uxMessagesWaiting;
1705:.\queue.c     **** 	}
1706:.\queue.c     **** 	taskEXIT_CRITICAL();
1707:.\queue.c     **** 
1708:.\queue.c     **** 	return uxReturn;
1709:.\queue.c     **** } /*lint !e818 Pointer cannot be declared const as xQueue is a typedef not pointer. */
1710:.\queue.c     **** /*-----------------------------------------------------------*/
1711:.\queue.c     **** 
1712:.\queue.c     **** UBaseType_t uxQueueSpacesAvailable( const QueueHandle_t xQueue )
1713:.\queue.c     **** {
1714:.\queue.c     **** UBaseType_t uxReturn;
1715:.\queue.c     **** Queue_t *pxQueue;
1716:.\queue.c     **** 
1717:.\queue.c     **** 	pxQueue = ( Queue_t * ) xQueue;
1718:.\queue.c     **** 	configASSERT( pxQueue );
1719:.\queue.c     **** 
1720:.\queue.c     **** 	taskENTER_CRITICAL();
1721:.\queue.c     **** 	{
1722:.\queue.c     **** 		uxReturn = pxQueue->uxLength - pxQueue->uxMessagesWaiting;
1723:.\queue.c     **** 	}
1724:.\queue.c     **** 	taskEXIT_CRITICAL();
1725:.\queue.c     **** 
1726:.\queue.c     **** 	return uxReturn;
1727:.\queue.c     **** } /*lint !e818 Pointer cannot be declared const as xQueue is a typedef not pointer. */
1728:.\queue.c     **** /*-----------------------------------------------------------*/
1729:.\queue.c     **** 
1730:.\queue.c     **** UBaseType_t uxQueueMessagesWaitingFromISR( const QueueHandle_t xQueue )
1731:.\queue.c     **** {
1732:.\queue.c     **** UBaseType_t uxReturn;
1733:.\queue.c     **** 
1734:.\queue.c     **** 	configASSERT( xQueue );
1735:.\queue.c     **** 
1736:.\queue.c     **** 	uxReturn = ( ( Queue_t * ) xQueue )->uxMessagesWaiting;
1737:.\queue.c     **** 
1738:.\queue.c     **** 	return uxReturn;
1739:.\queue.c     **** } /*lint !e818 Pointer cannot be declared const as xQueue is a typedef not pointer. */
1740:.\queue.c     **** /*-----------------------------------------------------------*/
1741:.\queue.c     **** 
1742:.\queue.c     **** void vQueueDelete( QueueHandle_t xQueue )
ARM GAS  C:\Users\mjphi\AppData\Local\Temp\ccTzczbK.s 			page 32


1743:.\queue.c     **** {
1744:.\queue.c     **** Queue_t * const pxQueue = ( Queue_t * ) xQueue;
1745:.\queue.c     **** 
1746:.\queue.c     **** 	configASSERT( pxQueue );
1747:.\queue.c     **** 
1748:.\queue.c     **** 	traceQUEUE_DELETE( pxQueue );
1749:.\queue.c     **** 	#if ( configQUEUE_REGISTRY_SIZE > 0 )
1750:.\queue.c     **** 	{
1751:.\queue.c     **** 		vQueueUnregisterQueue( pxQueue );
1752:.\queue.c     **** 	}
1753:.\queue.c     **** 	#endif
1754:.\queue.c     **** 	vPortFree( pxQueue );
1755:.\queue.c     **** }
1756:.\queue.c     **** /*-----------------------------------------------------------*/
1757:.\queue.c     **** 
1758:.\queue.c     **** #if ( configUSE_TRACE_FACILITY == 1 )
1759:.\queue.c     **** 
1760:.\queue.c     **** 	UBaseType_t uxQueueGetQueueNumber( QueueHandle_t xQueue )
1761:.\queue.c     **** 	{
1762:.\queue.c     **** 		return ( ( Queue_t * ) xQueue )->uxQueueNumber;
1763:.\queue.c     **** 	}
1764:.\queue.c     **** 
1765:.\queue.c     **** #endif /* configUSE_TRACE_FACILITY */
1766:.\queue.c     **** /*-----------------------------------------------------------*/
1767:.\queue.c     **** 
1768:.\queue.c     **** #if ( configUSE_TRACE_FACILITY == 1 )
1769:.\queue.c     **** 
1770:.\queue.c     **** 	void vQueueSetQueueNumber( QueueHandle_t xQueue, UBaseType_t uxQueueNumber )
1771:.\queue.c     **** 	{
1772:.\queue.c     **** 		( ( Queue_t * ) xQueue )->uxQueueNumber = uxQueueNumber;
1773:.\queue.c     **** 	}
1774:.\queue.c     **** 
1775:.\queue.c     **** #endif /* configUSE_TRACE_FACILITY */
1776:.\queue.c     **** /*-----------------------------------------------------------*/
1777:.\queue.c     **** 
1778:.\queue.c     **** #if ( configUSE_TRACE_FACILITY == 1 )
1779:.\queue.c     **** 
1780:.\queue.c     **** 	uint8_t ucQueueGetQueueType( QueueHandle_t xQueue )
1781:.\queue.c     **** 	{
1782:.\queue.c     **** 		return ( ( Queue_t * ) xQueue )->ucQueueType;
1783:.\queue.c     **** 	}
1784:.\queue.c     **** 
1785:.\queue.c     **** #endif /* configUSE_TRACE_FACILITY */
1786:.\queue.c     **** /*-----------------------------------------------------------*/
1787:.\queue.c     **** 
1788:.\queue.c     **** static BaseType_t prvCopyDataToQueue( Queue_t * const pxQueue, const void *pvItemToQueue, const Bas
1789:.\queue.c     **** {
  26              		.loc 1 1789 0
  27              		.cfi_startproc
  28              		@ args = 0, pretend = 0, frame = 0
  29              		@ frame_needed = 0, uses_anonymous_args = 0
  30              	.LVL0:
  31 0000 38B5     		push	{r3, r4, r5, lr}
  32              		.cfi_def_cfa_offset 16
  33              		.cfi_offset 3, -16
  34              		.cfi_offset 4, -12
  35              		.cfi_offset 5, -8
ARM GAS  C:\Users\mjphi\AppData\Local\Temp\ccTzczbK.s 			page 33


  36              		.cfi_offset 14, -4
  37              		.loc 1 1789 0
  38 0002 1546     		mov	r5, r2
1790:.\queue.c     **** BaseType_t xReturn = pdFALSE;
1791:.\queue.c     **** 
1792:.\queue.c     **** 	if( pxQueue->uxItemSize == ( UBaseType_t ) 0 )
  39              		.loc 1 1792 0
  40 0004 026C     		ldr	r2, [r0, #64]
  41              	.LVL1:
1789:.\queue.c     **** BaseType_t xReturn = pdFALSE;
  42              		.loc 1 1789 0
  43 0006 0446     		mov	r4, r0
  44              		.loc 1 1792 0
  45 0008 32B9     		cbnz	r2, .L2
1793:.\queue.c     **** 	{
1794:.\queue.c     **** 		#if ( configUSE_MUTEXES == 1 )
1795:.\queue.c     **** 		{
1796:.\queue.c     **** 			if( pxQueue->uxQueueType == queueQUEUE_IS_MUTEX )
  46              		.loc 1 1796 0
  47 000a 0568     		ldr	r5, [r0]
  48              	.LVL2:
  49 000c 45BB     		cbnz	r5, .L11
1797:.\queue.c     **** 			{
1798:.\queue.c     **** 				/* The mutex is no longer being held. */
1799:.\queue.c     **** 				xReturn = xTaskPriorityDisinherit( ( void * ) pxQueue->pxMutexHolder );
  50              		.loc 1 1799 0
  51 000e 4068     		ldr	r0, [r0, #4]
  52              	.LVL3:
  53 0010 FFF7FEFF 		bl	xTaskPriorityDisinherit
  54              	.LVL4:
1800:.\queue.c     **** 				pxQueue->pxMutexHolder = NULL;
  55              		.loc 1 1800 0
  56 0014 6560     		str	r5, [r4, #4]
  57 0016 24E0     		b	.L4
  58              	.LVL5:
  59              	.L2:
1801:.\queue.c     **** 			}
1802:.\queue.c     **** 			else
1803:.\queue.c     **** 			{
1804:.\queue.c     **** 				mtCOVERAGE_TEST_MARKER();
1805:.\queue.c     **** 			}
1806:.\queue.c     **** 		}
1807:.\queue.c     **** 		#endif /* configUSE_MUTEXES */
1808:.\queue.c     **** 	}
1809:.\queue.c     **** 	else if( xPosition == queueSEND_TO_BACK )
  60              		.loc 1 1809 0
  61 0018 6DB9     		cbnz	r5, .L5
1810:.\queue.c     **** 	{
1811:.\queue.c     **** 		( void ) memcpy( ( void * ) pxQueue->pcWriteTo, pvItemToQueue, ( size_t ) pxQueue->uxItemSize ); 
  62              		.loc 1 1811 0
  63 001a 8068     		ldr	r0, [r0, #8]
  64              	.LVL6:
  65 001c FFF7FEFF 		bl	memcpy
  66              	.LVL7:
1812:.\queue.c     **** 		pxQueue->pcWriteTo += pxQueue->uxItemSize;
  67              		.loc 1 1812 0
  68 0020 A268     		ldr	r2, [r4, #8]
ARM GAS  C:\Users\mjphi\AppData\Local\Temp\ccTzczbK.s 			page 34


  69 0022 236C     		ldr	r3, [r4, #64]
  70 0024 1344     		add	r3, r3, r2
1813:.\queue.c     **** 		if( pxQueue->pcWriteTo >= pxQueue->pcTail ) /*lint !e946 MISRA exception justified as comparison 
  71              		.loc 1 1813 0
  72 0026 6268     		ldr	r2, [r4, #4]
1812:.\queue.c     **** 		pxQueue->pcWriteTo += pxQueue->uxItemSize;
  73              		.loc 1 1812 0
  74 0028 A360     		str	r3, [r4, #8]
  75              		.loc 1 1813 0
  76 002a 9342     		cmp	r3, r2
  77 002c 18D3     		bcc	.L11
1814:.\queue.c     **** 		{
1815:.\queue.c     **** 			pxQueue->pcWriteTo = pxQueue->pcHead;
  78              		.loc 1 1815 0
  79 002e 2368     		ldr	r3, [r4]
1790:.\queue.c     **** 
  80              		.loc 1 1790 0
  81 0030 2846     		mov	r0, r5
  82              		.loc 1 1815 0
  83 0032 A360     		str	r3, [r4, #8]
  84 0034 15E0     		b	.L4
  85              	.LVL8:
  86              	.L5:
1816:.\queue.c     **** 		}
1817:.\queue.c     **** 		else
1818:.\queue.c     **** 		{
1819:.\queue.c     **** 			mtCOVERAGE_TEST_MARKER();
1820:.\queue.c     **** 		}
1821:.\queue.c     **** 	}
1822:.\queue.c     **** 	else
1823:.\queue.c     **** 	{
1824:.\queue.c     **** 		( void ) memcpy( ( void * ) pxQueue->u.pcReadFrom, pvItemToQueue, ( size_t ) pxQueue->uxItemSize 
  87              		.loc 1 1824 0
  88 0036 C068     		ldr	r0, [r0, #12]
  89              	.LVL9:
  90 0038 FFF7FEFF 		bl	memcpy
  91              	.LVL10:
1825:.\queue.c     **** 		pxQueue->u.pcReadFrom -= pxQueue->uxItemSize;
  92              		.loc 1 1825 0
  93 003c 236C     		ldr	r3, [r4, #64]
  94 003e E268     		ldr	r2, [r4, #12]
  95 0040 5B42     		negs	r3, r3
1826:.\queue.c     **** 		if( pxQueue->u.pcReadFrom < pxQueue->pcHead ) /*lint !e946 MISRA exception justified as compariso
  96              		.loc 1 1826 0
  97 0042 2168     		ldr	r1, [r4]
1825:.\queue.c     **** 		pxQueue->u.pcReadFrom -= pxQueue->uxItemSize;
  98              		.loc 1 1825 0
  99 0044 1A44     		add	r2, r2, r3
 100              		.loc 1 1826 0
 101 0046 8A42     		cmp	r2, r1
1825:.\queue.c     **** 		pxQueue->u.pcReadFrom -= pxQueue->uxItemSize;
 102              		.loc 1 1825 0
 103 0048 E260     		str	r2, [r4, #12]
1827:.\queue.c     **** 		{
1828:.\queue.c     **** 			pxQueue->u.pcReadFrom = ( pxQueue->pcTail - pxQueue->uxItemSize );
 104              		.loc 1 1828 0
 105 004a 3EBF     		ittt	cc
ARM GAS  C:\Users\mjphi\AppData\Local\Temp\ccTzczbK.s 			page 35


 106 004c 6268     		ldrcc	r2, [r4, #4]
 107 004e 9B18     		addcc	r3, r3, r2
 108 0050 E360     		strcc	r3, [r4, #12]
1829:.\queue.c     **** 		}
1830:.\queue.c     **** 		else
1831:.\queue.c     **** 		{
1832:.\queue.c     **** 			mtCOVERAGE_TEST_MARKER();
1833:.\queue.c     **** 		}
1834:.\queue.c     **** 
1835:.\queue.c     **** 		if( xPosition == queueOVERWRITE )
 109              		.loc 1 1835 0
 110 0052 022D     		cmp	r5, #2
 111 0054 04D1     		bne	.L11
1836:.\queue.c     **** 		{
1837:.\queue.c     **** 			if( pxQueue->uxMessagesWaiting > ( UBaseType_t ) 0 )
 112              		.loc 1 1837 0
 113 0056 A36B     		ldr	r3, [r4, #56]
 114 0058 13B1     		cbz	r3, .L11
1838:.\queue.c     **** 			{
1839:.\queue.c     **** 				/* An item is not being added but overwritten, so subtract
1840:.\queue.c     **** 				one from the recorded number of items in the queue so when
1841:.\queue.c     **** 				one is added again below the number of recorded items remains
1842:.\queue.c     **** 				correct. */
1843:.\queue.c     **** 				--( pxQueue->uxMessagesWaiting );
 115              		.loc 1 1843 0
 116 005a A36B     		ldr	r3, [r4, #56]
 117 005c 013B     		subs	r3, r3, #1
 118 005e A363     		str	r3, [r4, #56]
 119              	.LVL11:
 120              	.L11:
1790:.\queue.c     **** 
 121              		.loc 1 1790 0
 122 0060 0020     		movs	r0, #0
 123              	.LVL12:
 124              	.L4:
1844:.\queue.c     **** 			}
1845:.\queue.c     **** 			else
1846:.\queue.c     **** 			{
1847:.\queue.c     **** 				mtCOVERAGE_TEST_MARKER();
1848:.\queue.c     **** 			}
1849:.\queue.c     **** 		}
1850:.\queue.c     **** 		else
1851:.\queue.c     **** 		{
1852:.\queue.c     **** 			mtCOVERAGE_TEST_MARKER();
1853:.\queue.c     **** 		}
1854:.\queue.c     **** 	}
1855:.\queue.c     **** 
1856:.\queue.c     **** 	++( pxQueue->uxMessagesWaiting );
 125              		.loc 1 1856 0
 126 0062 A36B     		ldr	r3, [r4, #56]
 127 0064 0133     		adds	r3, r3, #1
 128 0066 A363     		str	r3, [r4, #56]
1857:.\queue.c     **** 
1858:.\queue.c     **** 	return xReturn;
1859:.\queue.c     **** }
 129              		.loc 1 1859 0
 130 0068 38BD     		pop	{r3, r4, r5, pc}
ARM GAS  C:\Users\mjphi\AppData\Local\Temp\ccTzczbK.s 			page 36


 131              		.cfi_endproc
 132              	.LFE80:
 133              		.size	prvCopyDataToQueue, .-prvCopyDataToQueue
 134              		.section	.text.prvCopyDataFromQueue,"ax",%progbits
 135              		.align	1
 136              		.thumb
 137              		.thumb_func
 138              		.type	prvCopyDataFromQueue, %function
 139              	prvCopyDataFromQueue:
 140              	.LFB81:
1860:.\queue.c     **** /*-----------------------------------------------------------*/
1861:.\queue.c     **** 
1862:.\queue.c     **** static void prvCopyDataFromQueue( Queue_t * const pxQueue, void * const pvBuffer )
1863:.\queue.c     **** {
 141              		.loc 1 1863 0
 142              		.cfi_startproc
 143              		@ args = 0, pretend = 0, frame = 0
 144              		@ frame_needed = 0, uses_anonymous_args = 0
 145              	.LVL13:
1864:.\queue.c     **** 	if( pxQueue->uxItemSize != ( UBaseType_t ) 0 )
 146              		.loc 1 1864 0
 147 0000 026C     		ldr	r2, [r0, #64]
1863:.\queue.c     **** 	if( pxQueue->uxItemSize != ( UBaseType_t ) 0 )
 148              		.loc 1 1863 0
 149 0002 10B5     		push	{r4, lr}
 150              		.cfi_def_cfa_offset 8
 151              		.cfi_offset 4, -8
 152              		.cfi_offset 14, -4
1863:.\queue.c     **** 	if( pxQueue->uxItemSize != ( UBaseType_t ) 0 )
 153              		.loc 1 1863 0
 154 0004 0346     		mov	r3, r0
 155              		.loc 1 1864 0
 156 0006 72B1     		cbz	r2, .L13
1865:.\queue.c     **** 	{
1866:.\queue.c     **** 		pxQueue->u.pcReadFrom += pxQueue->uxItemSize;
 157              		.loc 1 1866 0
 158 0008 C468     		ldr	r4, [r0, #12]
 159 000a 1444     		add	r4, r4, r2
 160 000c C460     		str	r4, [r0, #12]
1867:.\queue.c     **** 		if( pxQueue->u.pcReadFrom >= pxQueue->pcTail ) /*lint !e946 MISRA exception justified as use of t
 161              		.loc 1 1867 0
 162 000e 4068     		ldr	r0, [r0, #4]
 163              	.LVL14:
 164 0010 8442     		cmp	r4, r0
1868:.\queue.c     **** 		{
1869:.\queue.c     **** 			pxQueue->u.pcReadFrom = pxQueue->pcHead;
 165              		.loc 1 1869 0
 166 0012 28BF     		it	cs
 167 0014 1868     		ldrcs	r0, [r3]
1870:.\queue.c     **** 		}
1871:.\queue.c     **** 		else
1872:.\queue.c     **** 		{
1873:.\queue.c     **** 			mtCOVERAGE_TEST_MARKER();
1874:.\queue.c     **** 		}
1875:.\queue.c     **** 		( void ) memcpy( ( void * ) pvBuffer, ( void * ) pxQueue->u.pcReadFrom, ( size_t ) pxQueue->uxIte
1876:.\queue.c     **** 	}
1877:.\queue.c     **** }
ARM GAS  C:\Users\mjphi\AppData\Local\Temp\ccTzczbK.s 			page 37


 168              		.loc 1 1877 0
 169 0016 BDE81040 		pop	{r4, lr}
 170              		.cfi_remember_state
 171              		.cfi_restore 14
 172              		.cfi_restore 4
 173              		.cfi_def_cfa_offset 0
1869:.\queue.c     **** 		}
 174              		.loc 1 1869 0
 175 001a 28BF     		it	cs
 176 001c D860     		strcs	r0, [r3, #12]
1875:.\queue.c     **** 	}
 177              		.loc 1 1875 0
 178 001e 0846     		mov	r0, r1
 179 0020 D968     		ldr	r1, [r3, #12]
 180              	.LVL15:
 181 0022 FFF7FEBF 		b	memcpy
 182              	.LVL16:
 183              	.L13:
 184              		.cfi_restore_state
 185 0026 10BD     		pop	{r4, pc}
 186              		.cfi_endproc
 187              	.LFE81:
 188              		.size	prvCopyDataFromQueue, .-prvCopyDataFromQueue
 189              		.section	.text.prvUnlockQueue,"ax",%progbits
 190              		.align	1
 191              		.thumb
 192              		.thumb_func
 193              		.type	prvUnlockQueue, %function
 194              	prvUnlockQueue:
 195              	.LFB82:
1878:.\queue.c     **** /*-----------------------------------------------------------*/
1879:.\queue.c     **** 
1880:.\queue.c     **** static void prvUnlockQueue( Queue_t * const pxQueue )
1881:.\queue.c     **** {
 196              		.loc 1 1881 0
 197              		.cfi_startproc
 198              		@ args = 0, pretend = 0, frame = 0
 199              		@ frame_needed = 0, uses_anonymous_args = 0
 200              	.LVL17:
 201 0000 10B5     		push	{r4, lr}
 202              		.cfi_def_cfa_offset 8
 203              		.cfi_offset 4, -8
 204              		.cfi_offset 14, -4
 205              		.loc 1 1881 0
 206 0002 0446     		mov	r4, r0
1882:.\queue.c     **** 	/* THIS FUNCTION MUST BE CALLED WITH THE SCHEDULER SUSPENDED. */
1883:.\queue.c     **** 
1884:.\queue.c     **** 	/* The lock counts contains the number of extra data items placed or
1885:.\queue.c     **** 	removed from the queue while the queue was locked.  When a queue is
1886:.\queue.c     **** 	locked items can be added or removed, but the event lists cannot be
1887:.\queue.c     **** 	updated. */
1888:.\queue.c     **** 	taskENTER_CRITICAL();
 207              		.loc 1 1888 0
 208 0004 FFF7FEFF 		bl	vPortEnterCritical
 209              	.LVL18:
 210              	.L17:
1889:.\queue.c     **** 	{
ARM GAS  C:\Users\mjphi\AppData\Local\Temp\ccTzczbK.s 			page 38


1890:.\queue.c     **** 		/* See if data was added to the queue while it was locked. */
1891:.\queue.c     **** 		while( pxQueue->xTxLock > queueLOCKED_UNMODIFIED )
 211              		.loc 1 1891 0
 212 0008 A36C     		ldr	r3, [r4, #72]
 213 000a 002B     		cmp	r3, #0
 214 000c 0CDD     		ble	.L18
1892:.\queue.c     **** 		{
1893:.\queue.c     **** 			/* Data was posted while the queue was locked.  Are any tasks
1894:.\queue.c     **** 			blocked waiting for data to become available? */
1895:.\queue.c     **** 			#if ( configUSE_QUEUE_SETS == 1 )
1896:.\queue.c     **** 			{
1897:.\queue.c     **** 				if( pxQueue->pxQueueSetContainer != NULL )
1898:.\queue.c     **** 				{
1899:.\queue.c     **** 					if( prvNotifyQueueSetContainer( pxQueue, queueSEND_TO_BACK ) == pdTRUE )
1900:.\queue.c     **** 					{
1901:.\queue.c     **** 						/* The queue is a member of a queue set, and posting to
1902:.\queue.c     **** 						the queue set caused a higher priority task to unblock.
1903:.\queue.c     **** 						A context switch is required. */
1904:.\queue.c     **** 						vTaskMissedYield();
1905:.\queue.c     **** 					}
1906:.\queue.c     **** 					else
1907:.\queue.c     **** 					{
1908:.\queue.c     **** 						mtCOVERAGE_TEST_MARKER();
1909:.\queue.c     **** 					}
1910:.\queue.c     **** 				}
1911:.\queue.c     **** 				else
1912:.\queue.c     **** 				{
1913:.\queue.c     **** 					/* Tasks that are removed from the event list will get added to
1914:.\queue.c     **** 					the pending ready list as the scheduler is still suspended. */
1915:.\queue.c     **** 					if( listLIST_IS_EMPTY( &( pxQueue->xTasksWaitingToReceive ) ) == pdFALSE )
1916:.\queue.c     **** 					{
1917:.\queue.c     **** 						if( xTaskRemoveFromEventList( &( pxQueue->xTasksWaitingToReceive ) ) != pdFALSE )
1918:.\queue.c     **** 						{
1919:.\queue.c     **** 							/* The task waiting has a higher priority so record that a
1920:.\queue.c     **** 							context	switch is required. */
1921:.\queue.c     **** 							vTaskMissedYield();
1922:.\queue.c     **** 						}
1923:.\queue.c     **** 						else
1924:.\queue.c     **** 						{
1925:.\queue.c     **** 							mtCOVERAGE_TEST_MARKER();
1926:.\queue.c     **** 						}
1927:.\queue.c     **** 					}
1928:.\queue.c     **** 					else
1929:.\queue.c     **** 					{
1930:.\queue.c     **** 						break;
1931:.\queue.c     **** 					}
1932:.\queue.c     **** 				}
1933:.\queue.c     **** 			}
1934:.\queue.c     **** 			#else /* configUSE_QUEUE_SETS */
1935:.\queue.c     **** 			{
1936:.\queue.c     **** 				/* Tasks that are removed from the event list will get added to
1937:.\queue.c     **** 				the pending ready list as the scheduler is still suspended. */
1938:.\queue.c     **** 				if( listLIST_IS_EMPTY( &( pxQueue->xTasksWaitingToReceive ) ) == pdFALSE )
 215              		.loc 1 1938 0
 216 000e 636A     		ldr	r3, [r4, #36]
 217 0010 53B1     		cbz	r3, .L18
1939:.\queue.c     **** 				{
ARM GAS  C:\Users\mjphi\AppData\Local\Temp\ccTzczbK.s 			page 39


1940:.\queue.c     **** 					if( xTaskRemoveFromEventList( &( pxQueue->xTasksWaitingToReceive ) ) != pdFALSE )
 218              		.loc 1 1940 0
 219 0012 04F12400 		add	r0, r4, #36
 220 0016 FFF7FEFF 		bl	xTaskRemoveFromEventList
 221              	.LVL19:
 222 001a 08B1     		cbz	r0, .L19
1941:.\queue.c     **** 					{
1942:.\queue.c     **** 						/* The task waiting has a higher priority so record that a
1943:.\queue.c     **** 						context	switch is required. */
1944:.\queue.c     **** 						vTaskMissedYield();
 223              		.loc 1 1944 0
 224 001c FFF7FEFF 		bl	vTaskMissedYield
 225              	.LVL20:
 226              	.L19:
1945:.\queue.c     **** 					}
1946:.\queue.c     **** 					else
1947:.\queue.c     **** 					{
1948:.\queue.c     **** 						mtCOVERAGE_TEST_MARKER();
1949:.\queue.c     **** 					}
1950:.\queue.c     **** 				}
1951:.\queue.c     **** 				else
1952:.\queue.c     **** 				{
1953:.\queue.c     **** 					break;
1954:.\queue.c     **** 				}
1955:.\queue.c     **** 			}
1956:.\queue.c     **** 			#endif /* configUSE_QUEUE_SETS */
1957:.\queue.c     **** 
1958:.\queue.c     **** 			--( pxQueue->xTxLock );
 227              		.loc 1 1958 0
 228 0020 A36C     		ldr	r3, [r4, #72]
 229 0022 013B     		subs	r3, r3, #1
 230 0024 A364     		str	r3, [r4, #72]
 231 0026 EFE7     		b	.L17
 232              	.L18:
1959:.\queue.c     **** 		}
1960:.\queue.c     **** 
1961:.\queue.c     **** 		pxQueue->xTxLock = queueUNLOCKED;
 233              		.loc 1 1961 0
 234 0028 4FF0FF33 		mov	r3, #-1
 235 002c A364     		str	r3, [r4, #72]
1962:.\queue.c     **** 	}
1963:.\queue.c     **** 	taskEXIT_CRITICAL();
 236              		.loc 1 1963 0
 237 002e FFF7FEFF 		bl	vPortExitCritical
 238              	.LVL21:
1964:.\queue.c     **** 
1965:.\queue.c     **** 	/* Do the same for the Rx lock. */
1966:.\queue.c     **** 	taskENTER_CRITICAL();
 239              		.loc 1 1966 0
 240 0032 FFF7FEFF 		bl	vPortEnterCritical
 241              	.LVL22:
 242              	.L21:
1967:.\queue.c     **** 	{
1968:.\queue.c     **** 		while( pxQueue->xRxLock > queueLOCKED_UNMODIFIED )
 243              		.loc 1 1968 0
 244 0036 636C     		ldr	r3, [r4, #68]
 245 0038 002B     		cmp	r3, #0
ARM GAS  C:\Users\mjphi\AppData\Local\Temp\ccTzczbK.s 			page 40


 246 003a 0CDD     		ble	.L22
1969:.\queue.c     **** 		{
1970:.\queue.c     **** 			if( listLIST_IS_EMPTY( &( pxQueue->xTasksWaitingToSend ) ) == pdFALSE )
 247              		.loc 1 1970 0
 248 003c 2369     		ldr	r3, [r4, #16]
 249 003e 53B1     		cbz	r3, .L22
1971:.\queue.c     **** 			{
1972:.\queue.c     **** 				if( xTaskRemoveFromEventList( &( pxQueue->xTasksWaitingToSend ) ) != pdFALSE )
 250              		.loc 1 1972 0
 251 0040 04F11000 		add	r0, r4, #16
 252 0044 FFF7FEFF 		bl	xTaskRemoveFromEventList
 253              	.LVL23:
 254 0048 08B1     		cbz	r0, .L23
1973:.\queue.c     **** 				{
1974:.\queue.c     **** 					vTaskMissedYield();
 255              		.loc 1 1974 0
 256 004a FFF7FEFF 		bl	vTaskMissedYield
 257              	.LVL24:
 258              	.L23:
1975:.\queue.c     **** 				}
1976:.\queue.c     **** 				else
1977:.\queue.c     **** 				{
1978:.\queue.c     **** 					mtCOVERAGE_TEST_MARKER();
1979:.\queue.c     **** 				}
1980:.\queue.c     **** 
1981:.\queue.c     **** 				--( pxQueue->xRxLock );
 259              		.loc 1 1981 0
 260 004e 636C     		ldr	r3, [r4, #68]
 261 0050 013B     		subs	r3, r3, #1
 262 0052 6364     		str	r3, [r4, #68]
 263 0054 EFE7     		b	.L21
 264              	.L22:
1982:.\queue.c     **** 			}
1983:.\queue.c     **** 			else
1984:.\queue.c     **** 			{
1985:.\queue.c     **** 				break;
1986:.\queue.c     **** 			}
1987:.\queue.c     **** 		}
1988:.\queue.c     **** 
1989:.\queue.c     **** 		pxQueue->xRxLock = queueUNLOCKED;
 265              		.loc 1 1989 0
 266 0056 4FF0FF33 		mov	r3, #-1
 267 005a 6364     		str	r3, [r4, #68]
1990:.\queue.c     **** 	}
1991:.\queue.c     **** 	taskEXIT_CRITICAL();
1992:.\queue.c     **** }
 268              		.loc 1 1992 0
 269 005c BDE81040 		pop	{r4, lr}
 270              		.cfi_restore 14
 271              		.cfi_restore 4
 272              		.cfi_def_cfa_offset 0
 273              	.LVL25:
1991:.\queue.c     **** }
 274              		.loc 1 1991 0
 275 0060 FFF7FEBF 		b	vPortExitCritical
 276              	.LVL26:
 277              		.cfi_endproc
ARM GAS  C:\Users\mjphi\AppData\Local\Temp\ccTzczbK.s 			page 41


 278              	.LFE82:
 279              		.size	prvUnlockQueue, .-prvUnlockQueue
 280              		.section	.text.xQueueGenericReset,"ax",%progbits
 281              		.align	1
 282              		.global	xQueueGenericReset
 283              		.thumb
 284              		.thumb_func
 285              		.type	xQueueGenericReset, %function
 286              	xQueueGenericReset:
 287              	.LFB64:
 261:.\queue.c     **** Queue_t * const pxQueue = ( Queue_t * ) xQueue;
 288              		.loc 1 261 0
 289              		.cfi_startproc
 290              		@ args = 0, pretend = 0, frame = 0
 291              		@ frame_needed = 0, uses_anonymous_args = 0
 292              	.LVL27:
 293 0000 38B5     		push	{r3, r4, r5, lr}
 294              		.cfi_def_cfa_offset 16
 295              		.cfi_offset 3, -16
 296              		.cfi_offset 4, -12
 297              		.cfi_offset 5, -8
 298              		.cfi_offset 14, -4
 261:.\queue.c     **** Queue_t * const pxQueue = ( Queue_t * ) xQueue;
 299              		.loc 1 261 0
 300 0002 0446     		mov	r4, r0
 301              	.LVL28:
 302 0004 0D46     		mov	r5, r1
 266:.\queue.c     **** 	{
 303              		.loc 1 266 0
 304 0006 FFF7FEFF 		bl	vPortEnterCritical
 305              	.LVL29:
 268:.\queue.c     **** 		pxQueue->uxMessagesWaiting = ( UBaseType_t ) 0U;
 306              		.loc 1 268 0
 307 000a 206C     		ldr	r0, [r4, #64]
 308 000c E36B     		ldr	r3, [r4, #60]
 309 000e 2268     		ldr	r2, [r4]
 310 0010 4343     		muls	r3, r0, r3
 311 0012 D118     		adds	r1, r2, r3
 271:.\queue.c     **** 		pxQueue->xRxLock = queueUNLOCKED;
 312              		.loc 1 271 0
 313 0014 1B1A     		subs	r3, r3, r0
 314 0016 1344     		add	r3, r3, r2
 268:.\queue.c     **** 		pxQueue->uxMessagesWaiting = ( UBaseType_t ) 0U;
 315              		.loc 1 268 0
 316 0018 6160     		str	r1, [r4, #4]
 271:.\queue.c     **** 		pxQueue->xRxLock = queueUNLOCKED;
 317              		.loc 1 271 0
 318 001a E360     		str	r3, [r4, #12]
 269:.\queue.c     **** 		pxQueue->pcWriteTo = pxQueue->pcHead;
 319              		.loc 1 269 0
 320 001c 0021     		movs	r1, #0
 272:.\queue.c     **** 		pxQueue->xTxLock = queueUNLOCKED;
 321              		.loc 1 272 0
 322 001e 4FF0FF33 		mov	r3, #-1
 269:.\queue.c     **** 		pxQueue->pcWriteTo = pxQueue->pcHead;
 323              		.loc 1 269 0
 324 0022 A163     		str	r1, [r4, #56]
ARM GAS  C:\Users\mjphi\AppData\Local\Temp\ccTzczbK.s 			page 42


 270:.\queue.c     **** 		pxQueue->u.pcReadFrom = pxQueue->pcHead + ( ( pxQueue->uxLength - ( UBaseType_t ) 1U ) * pxQueue-
 325              		.loc 1 270 0
 326 0024 A260     		str	r2, [r4, #8]
 272:.\queue.c     **** 		pxQueue->xTxLock = queueUNLOCKED;
 327              		.loc 1 272 0
 328 0026 6364     		str	r3, [r4, #68]
 273:.\queue.c     **** 
 329              		.loc 1 273 0
 330 0028 A364     		str	r3, [r4, #72]
 275:.\queue.c     **** 		{
 331              		.loc 1 275 0
 332 002a 55B9     		cbnz	r5, .L38
 282:.\queue.c     **** 			{
 333              		.loc 1 282 0
 334 002c 2369     		ldr	r3, [r4, #16]
 335 002e 83B1     		cbz	r3, .L40
 284:.\queue.c     **** 				{
 336              		.loc 1 284 0
 337 0030 04F11000 		add	r0, r4, #16
 338 0034 FFF7FEFF 		bl	xTaskRemoveFromEventList
 339              	.LVL30:
 340 0038 0128     		cmp	r0, #1
 341 003a 0AD1     		bne	.L40
 286:.\queue.c     **** 				}
 342              		.loc 1 286 0
 343 003c FFF7FEFF 		bl	vPortYield
 344              	.LVL31:
 345 0040 07E0     		b	.L40
 346              	.L38:
 301:.\queue.c     **** 			vListInitialise( &( pxQueue->xTasksWaitingToReceive ) );
 347              		.loc 1 301 0
 348 0042 04F11000 		add	r0, r4, #16
 349 0046 FFF7FEFF 		bl	vListInitialise
 350              	.LVL32:
 302:.\queue.c     **** 		}
 351              		.loc 1 302 0
 352 004a 04F12400 		add	r0, r4, #36
 353 004e FFF7FEFF 		bl	vListInitialise
 354              	.LVL33:
 355              	.L40:
 305:.\queue.c     **** 
 356              		.loc 1 305 0
 357 0052 FFF7FEFF 		bl	vPortExitCritical
 358              	.LVL34:
 310:.\queue.c     **** /*-----------------------------------------------------------*/
 359              		.loc 1 310 0
 360 0056 0120     		movs	r0, #1
 361 0058 38BD     		pop	{r3, r4, r5, pc}
 362              		.cfi_endproc
 363              	.LFE64:
 364              		.size	xQueueGenericReset, .-xQueueGenericReset
 365              		.section	.text.xQueueGenericCreate,"ax",%progbits
 366              		.align	1
 367              		.global	xQueueGenericCreate
 368              		.thumb
 369              		.thumb_func
 370              		.type	xQueueGenericCreate, %function
ARM GAS  C:\Users\mjphi\AppData\Local\Temp\ccTzczbK.s 			page 43


 371              	xQueueGenericCreate:
 372              	.LFB65:
 314:.\queue.c     **** Queue_t *pxNewQueue;
 373              		.loc 1 314 0
 374              		.cfi_startproc
 375              		@ args = 0, pretend = 0, frame = 0
 376              		@ frame_needed = 0, uses_anonymous_args = 0
 377              	.LVL35:
 378 0000 70B5     		push	{r4, r5, r6, lr}
 379              		.cfi_def_cfa_offset 16
 380              		.cfi_offset 4, -16
 381              		.cfi_offset 5, -12
 382              		.cfi_offset 6, -8
 383              		.cfi_offset 14, -4
 314:.\queue.c     **** Queue_t *pxNewQueue;
 384              		.loc 1 314 0
 385 0002 0646     		mov	r6, r0
 326:.\queue.c     **** 	{
 386              		.loc 1 326 0
 387 0004 0D46     		mov	r5, r1
 388 0006 11B1     		cbz	r1, .L47
 335:.\queue.c     **** 	}
 389              		.loc 1 335 0
 390 0008 4843     		muls	r0, r1, r0
 391              	.LVL36:
 392 000a 0130     		adds	r0, r0, #1
 393              	.LVL37:
 394 000c 00E0     		b	.L43
 395              	.LVL38:
 396              	.L47:
 329:.\queue.c     **** 	}
 397              		.loc 1 329 0
 398 000e 0846     		mov	r0, r1
 399              	.LVL39:
 400              	.L43:
 339:.\queue.c     **** 
 401              		.loc 1 339 0
 402 0010 4C30     		adds	r0, r0, #76
 403              	.LVL40:
 404 0012 FFF7FEFF 		bl	pvPortMalloc
 405              	.LVL41:
 341:.\queue.c     **** 	{
 406              		.loc 1 341 0
 407 0016 0446     		mov	r4, r0
 408 0018 58B1     		cbz	r0, .L44
 409              	.LVL42:
 345:.\queue.c     **** 		{
 410              		.loc 1 345 0
 411 001a 0DB9     		cbnz	r5, .L45
 351:.\queue.c     **** 		}
 412              		.loc 1 351 0
 413 001c 2060     		str	r0, [r4]
 414 001e 02E0     		b	.L46
 415              	.L45:
 357:.\queue.c     **** 		}
 416              		.loc 1 357 0
 417 0020 00F14C03 		add	r3, r0, #76
ARM GAS  C:\Users\mjphi\AppData\Local\Temp\ccTzczbK.s 			page 44


 418 0024 0360     		str	r3, [r0]
 419              	.L46:
 362:.\queue.c     **** 		pxNewQueue->uxItemSize = uxItemSize;
 420              		.loc 1 362 0
 421 0026 E663     		str	r6, [r4, #60]
 363:.\queue.c     **** 		( void ) xQueueGenericReset( pxNewQueue, pdTRUE );
 422              		.loc 1 363 0
 423 0028 2564     		str	r5, [r4, #64]
 364:.\queue.c     **** 
 424              		.loc 1 364 0
 425 002a 2046     		mov	r0, r4
 426              	.LVL43:
 427 002c 0121     		movs	r1, #1
 428 002e FFF7FEFF 		bl	xQueueGenericReset
 429              	.LVL44:
 430              	.L44:
 389:.\queue.c     **** /*-----------------------------------------------------------*/
 431              		.loc 1 389 0
 432 0032 2046     		mov	r0, r4
 433 0034 70BD     		pop	{r4, r5, r6, pc}
 434              		.cfi_endproc
 435              	.LFE65:
 436              		.size	xQueueGenericCreate, .-xQueueGenericCreate
 437              		.section	.text.xQueueCreateCountingSemaphore,"ax",%progbits
 438              		.align	1
 439              		.global	xQueueCreateCountingSemaphore
 440              		.thumb
 441              		.thumb_func
 442              		.type	xQueueCreateCountingSemaphore, %function
 443              	xQueueCreateCountingSemaphore:
 444              	.LFB69:
 587:.\queue.c     **** 	QueueHandle_t xHandle;
 445              		.loc 1 587 0
 446              		.cfi_startproc
 447              		@ args = 0, pretend = 0, frame = 0
 448              		@ frame_needed = 0, uses_anonymous_args = 0
 449              	.LVL45:
 450 0000 10B5     		push	{r4, lr}
 451              		.cfi_def_cfa_offset 8
 452              		.cfi_offset 4, -8
 453              		.cfi_offset 14, -4
 593:.\queue.c     **** 
 454              		.loc 1 593 0
 455 0002 0222     		movs	r2, #2
 587:.\queue.c     **** 	QueueHandle_t xHandle;
 456              		.loc 1 587 0
 457 0004 0C46     		mov	r4, r1
 593:.\queue.c     **** 
 458              		.loc 1 593 0
 459 0006 0021     		movs	r1, #0
 460              	.LVL46:
 461 0008 FFF7FEFF 		bl	xQueueGenericCreate
 462              	.LVL47:
 595:.\queue.c     **** 		{
 463              		.loc 1 595 0
 464 000c 00B1     		cbz	r0, .L52
 597:.\queue.c     **** 
ARM GAS  C:\Users\mjphi\AppData\Local\Temp\ccTzczbK.s 			page 45


 465              		.loc 1 597 0
 466 000e 8463     		str	r4, [r0, #56]
 467              	.L52:
 608:.\queue.c     **** 
 468              		.loc 1 608 0
 469 0010 10BD     		pop	{r4, pc}
 470              		.cfi_endproc
 471              	.LFE69:
 472              		.size	xQueueCreateCountingSemaphore, .-xQueueCreateCountingSemaphore
 473              		.section	.text.xQueueGenericSend,"ax",%progbits
 474              		.align	1
 475              		.global	xQueueGenericSend
 476              		.thumb
 477              		.thumb_func
 478              		.type	xQueueGenericSend, %function
 479              	xQueueGenericSend:
 480              	.LFB70:
 614:.\queue.c     **** BaseType_t xEntryTimeSet = pdFALSE, xYieldRequired;
 481              		.loc 1 614 0
 482              		.cfi_startproc
 483              		@ args = 0, pretend = 0, frame = 16
 484              		@ frame_needed = 0, uses_anonymous_args = 0
 485              	.LVL48:
 486 0000 2DE9FF41 		push	{r0, r1, r2, r3, r4, r5, r6, r7, r8, lr}
 487              		.cfi_def_cfa_offset 40
 488              		.cfi_offset 4, -24
 489              		.cfi_offset 5, -20
 490              		.cfi_offset 6, -16
 491              		.cfi_offset 7, -12
 492              		.cfi_offset 8, -8
 493              		.cfi_offset 14, -4
 614:.\queue.c     **** BaseType_t xEntryTimeSet = pdFALSE, xYieldRequired;
 494              		.loc 1 614 0
 495 0004 0446     		mov	r4, r0
 496              	.LVL49:
 497 0006 8846     		mov	r8, r1
 498 0008 1E46     		mov	r6, r3
 499 000a 0192     		str	r2, [sp, #4]
 615:.\queue.c     **** TimeOut_t xTimeOut;
 500              		.loc 1 615 0
 501 000c 0027     		movs	r7, #0
 502              	.LVL50:
 503              	.L57:
 634:.\queue.c     **** 		{
 504              		.loc 1 634 0
 505 000e FFF7FEFF 		bl	vPortEnterCritical
 506              	.LVL51:
 640:.\queue.c     **** 			{
 507              		.loc 1 640 0
 508 0012 A26B     		ldr	r2, [r4, #56]
 509 0014 E36B     		ldr	r3, [r4, #60]
 510 0016 9A42     		cmp	r2, r3
 511 0018 01D3     		bcc	.L58
 640:.\queue.c     **** 			{
 512              		.loc 1 640 0 is_stmt 0 discriminator 1
 513 001a 022E     		cmp	r6, #2
 514 001c 15D1     		bne	.L59
ARM GAS  C:\Users\mjphi\AppData\Local\Temp\ccTzczbK.s 			page 46


 515              	.L58:
 643:.\queue.c     **** 
 516              		.loc 1 643 0 is_stmt 1
 517 001e 2046     		mov	r0, r4
 518 0020 4146     		mov	r1, r8
 519 0022 3246     		mov	r2, r6
 520 0024 FFF7FEFF 		bl	prvCopyDataToQueue
 521              	.LVL52:
 698:.\queue.c     **** 					{
 522              		.loc 1 698 0
 523 0028 636A     		ldr	r3, [r4, #36]
 524 002a 43B1     		cbz	r3, .L60
 700:.\queue.c     **** 						{
 525              		.loc 1 700 0
 526 002c 04F12400 		add	r0, r4, #36
 527              	.LVL53:
 528 0030 FFF7FEFF 		bl	xTaskRemoveFromEventList
 529              	.LVL54:
 530 0034 0128     		cmp	r0, #1
 531 0036 04D1     		bne	.L62
 532              	.L61:
 706:.\queue.c     **** 						}
 533              		.loc 1 706 0
 534 0038 FFF7FEFF 		bl	vPortYield
 535              	.LVL55:
 536 003c 01E0     		b	.L62
 537              	.LVL56:
 538              	.L60:
 713:.\queue.c     **** 					{
 539              		.loc 1 713 0
 540 003e 0028     		cmp	r0, #0
 541 0040 FAD1     		bne	.L61
 542              	.LVL57:
 543              	.L62:
 728:.\queue.c     **** 				return pdPASS;
 544              		.loc 1 728 0
 545 0042 FFF7FEFF 		bl	vPortExitCritical
 546              	.LVL58:
 729:.\queue.c     **** 			}
 547              		.loc 1 729 0
 548 0046 0120     		movs	r0, #1
 549 0048 43E0     		b	.L64
 550              	.L59:
 733:.\queue.c     **** 				{
 551              		.loc 1 733 0
 552 004a 019D     		ldr	r5, [sp, #4]
 553 004c 15B9     		cbnz	r5, .L65
 737:.\queue.c     **** 
 554              		.loc 1 737 0
 555 004e FFF7FEFF 		bl	vPortExitCritical
 556              	.LVL59:
 557 0052 3DE0     		b	.L75
 558              	.L65:
 744:.\queue.c     **** 				{
 559              		.loc 1 744 0
 560 0054 17B9     		cbnz	r7, .L66
 748:.\queue.c     **** 					xEntryTimeSet = pdTRUE;
ARM GAS  C:\Users\mjphi\AppData\Local\Temp\ccTzczbK.s 			page 47


 561              		.loc 1 748 0
 562 0056 02A8     		add	r0, sp, #8
 563 0058 FFF7FEFF 		bl	vTaskSetTimeOutState
 564              	.LVL60:
 565              	.L66:
 758:.\queue.c     **** 
 566              		.loc 1 758 0
 567 005c FFF7FEFF 		bl	vPortExitCritical
 568              	.LVL61:
 763:.\queue.c     **** 		prvLockQueue( pxQueue );
 569              		.loc 1 763 0
 570 0060 FFF7FEFF 		bl	vTaskSuspendAll
 571              	.LVL62:
 764:.\queue.c     **** 
 572              		.loc 1 764 0
 573 0064 FFF7FEFF 		bl	vPortEnterCritical
 574              	.LVL63:
 575 0068 636C     		ldr	r3, [r4, #68]
 576 006a 0133     		adds	r3, r3, #1
 577 006c 04BF     		itt	eq
 578 006e 0023     		moveq	r3, #0
 579 0070 6364     		streq	r3, [r4, #68]
 580 0072 A36C     		ldr	r3, [r4, #72]
 581 0074 0133     		adds	r3, r3, #1
 582 0076 04BF     		itt	eq
 583 0078 0023     		moveq	r3, #0
 584 007a A364     		streq	r3, [r4, #72]
 585 007c FFF7FEFF 		bl	vPortExitCritical
 586              	.LVL64:
 767:.\queue.c     **** 		{
 587              		.loc 1 767 0
 588 0080 02A8     		add	r0, sp, #8
 589 0082 01A9     		add	r1, sp, #4
 590              	.LVL65:
 591 0084 FFF7FEFF 		bl	xTaskCheckForTimeOut
 592              	.LVL66:
 593 0088 E8B9     		cbnz	r0, .L69
 594              	.LVL67:
 595              	.LBB4:
 596              	.LBB5:
1993:.\queue.c     **** /*-----------------------------------------------------------*/
1994:.\queue.c     **** 
1995:.\queue.c     **** static BaseType_t prvIsQueueEmpty( const Queue_t *pxQueue )
1996:.\queue.c     **** {
1997:.\queue.c     **** BaseType_t xReturn;
1998:.\queue.c     **** 
1999:.\queue.c     **** 	taskENTER_CRITICAL();
2000:.\queue.c     **** 	{
2001:.\queue.c     **** 		if( pxQueue->uxMessagesWaiting == ( UBaseType_t )  0 )
2002:.\queue.c     **** 		{
2003:.\queue.c     **** 			xReturn = pdTRUE;
2004:.\queue.c     **** 		}
2005:.\queue.c     **** 		else
2006:.\queue.c     **** 		{
2007:.\queue.c     **** 			xReturn = pdFALSE;
2008:.\queue.c     **** 		}
2009:.\queue.c     **** 	}
ARM GAS  C:\Users\mjphi\AppData\Local\Temp\ccTzczbK.s 			page 48


2010:.\queue.c     **** 	taskEXIT_CRITICAL();
2011:.\queue.c     **** 
2012:.\queue.c     **** 	return xReturn;
2013:.\queue.c     **** }
2014:.\queue.c     **** /*-----------------------------------------------------------*/
2015:.\queue.c     **** 
2016:.\queue.c     **** BaseType_t xQueueIsQueueEmptyFromISR( const QueueHandle_t xQueue )
2017:.\queue.c     **** {
2018:.\queue.c     **** BaseType_t xReturn;
2019:.\queue.c     **** 
2020:.\queue.c     **** 	configASSERT( xQueue );
2021:.\queue.c     **** 	if( ( ( Queue_t * ) xQueue )->uxMessagesWaiting == ( UBaseType_t ) 0 )
2022:.\queue.c     **** 	{
2023:.\queue.c     **** 		xReturn = pdTRUE;
2024:.\queue.c     **** 	}
2025:.\queue.c     **** 	else
2026:.\queue.c     **** 	{
2027:.\queue.c     **** 		xReturn = pdFALSE;
2028:.\queue.c     **** 	}
2029:.\queue.c     **** 
2030:.\queue.c     **** 	return xReturn;
2031:.\queue.c     **** } /*lint !e818 xQueue could not be pointer to const because it is a typedef. */
2032:.\queue.c     **** /*-----------------------------------------------------------*/
2033:.\queue.c     **** 
2034:.\queue.c     **** static BaseType_t prvIsQueueFull( const Queue_t *pxQueue )
2035:.\queue.c     **** {
2036:.\queue.c     **** BaseType_t xReturn;
2037:.\queue.c     **** 
2038:.\queue.c     **** 	taskENTER_CRITICAL();
 597              		.loc 1 2038 0
 598 008a FFF7FEFF 		bl	vPortEnterCritical
 599              	.LVL68:
2039:.\queue.c     **** 	{
2040:.\queue.c     **** 		if( pxQueue->uxMessagesWaiting == pxQueue->uxLength )
 600              		.loc 1 2040 0
 601 008e A76B     		ldr	r7, [r4, #56]
 602 0090 E56B     		ldr	r5, [r4, #60]
 603              	.LVL69:
2041:.\queue.c     **** 		{
2042:.\queue.c     **** 			xReturn = pdTRUE;
2043:.\queue.c     **** 		}
2044:.\queue.c     **** 		else
2045:.\queue.c     **** 		{
2046:.\queue.c     **** 			xReturn = pdFALSE;
2047:.\queue.c     **** 		}
2048:.\queue.c     **** 	}
2049:.\queue.c     **** 	taskEXIT_CRITICAL();
 604              		.loc 1 2049 0
 605 0092 FFF7FEFF 		bl	vPortExitCritical
 606              	.LVL70:
 607              	.LBE5:
 608              	.LBE4:
 769:.\queue.c     **** 			{
 609              		.loc 1 769 0
 610 0096 AF42     		cmp	r7, r5
 611 0098 0FD1     		bne	.L70
 772:.\queue.c     **** 
ARM GAS  C:\Users\mjphi\AppData\Local\Temp\ccTzczbK.s 			page 49


 612              		.loc 1 772 0
 613 009a 04F11000 		add	r0, r4, #16
 614 009e 0199     		ldr	r1, [sp, #4]
 615 00a0 FFF7FEFF 		bl	vTaskPlaceOnEventList
 616              	.LVL71:
 779:.\queue.c     **** 
 617              		.loc 1 779 0
 618 00a4 2046     		mov	r0, r4
 619 00a6 FFF7FEFF 		bl	prvUnlockQueue
 620              	.LVL72:
 786:.\queue.c     **** 				{
 621              		.loc 1 786 0
 622 00aa FFF7FEFF 		bl	xTaskResumeAll
 623              	.LVL73:
 624 00ae 08B1     		cbz	r0, .L76
 625              	.LVL74:
 626              	.L71:
 627 00b0 0127     		movs	r7, #1
 628 00b2 ACE7     		b	.L57
 629              	.LVL75:
 630              	.L76:
 788:.\queue.c     **** 				}
 631              		.loc 1 788 0
 632 00b4 FFF7FEFF 		bl	vPortYield
 633              	.LVL76:
 634 00b8 FAE7     		b	.L71
 635              	.L70:
 636              	.LVL77:
 794:.\queue.c     **** 				( void ) xTaskResumeAll();
 637              		.loc 1 794 0
 638 00ba 2046     		mov	r0, r4
 639 00bc FFF7FEFF 		bl	prvUnlockQueue
 640              	.LVL78:
 795:.\queue.c     **** 			}
 641              		.loc 1 795 0
 642 00c0 FFF7FEFF 		bl	xTaskResumeAll
 643              	.LVL79:
 644 00c4 F4E7     		b	.L71
 645              	.LVL80:
 646              	.L69:
 801:.\queue.c     **** 			( void ) xTaskResumeAll();
 647              		.loc 1 801 0
 648 00c6 2046     		mov	r0, r4
 649 00c8 FFF7FEFF 		bl	prvUnlockQueue
 650              	.LVL81:
 802:.\queue.c     **** 
 651              		.loc 1 802 0
 652 00cc FFF7FEFF 		bl	xTaskResumeAll
 653              	.LVL82:
 654              	.L75:
 807:.\queue.c     **** 		}
 655              		.loc 1 807 0
 656 00d0 0020     		movs	r0, #0
 657              	.L64:
 810:.\queue.c     **** /*-----------------------------------------------------------*/
 658              		.loc 1 810 0
 659 00d2 04B0     		add	sp, sp, #16
ARM GAS  C:\Users\mjphi\AppData\Local\Temp\ccTzczbK.s 			page 50


 660              		.cfi_def_cfa_offset 24
 661              		@ sp needed
 662 00d4 BDE8F081 		pop	{r4, r5, r6, r7, r8, pc}
 663              		.cfi_endproc
 664              	.LFE70:
 665              		.size	xQueueGenericSend, .-xQueueGenericSend
 666              		.section	.text.xQueueCreateMutex,"ax",%progbits
 667              		.align	1
 668              		.global	xQueueCreateMutex
 669              		.thumb
 670              		.thumb_func
 671              		.type	xQueueCreateMutex, %function
 672              	xQueueCreateMutex:
 673              	.LFB66:
 395:.\queue.c     **** 	Queue_t *pxNewQueue;
 674              		.loc 1 395 0
 675              		.cfi_startproc
 676              		@ args = 0, pretend = 0, frame = 0
 677              		@ frame_needed = 0, uses_anonymous_args = 0
 678              	.LVL83:
 679 0000 38B5     		push	{r3, r4, r5, lr}
 680              		.cfi_def_cfa_offset 16
 681              		.cfi_offset 3, -16
 682              		.cfi_offset 4, -12
 683              		.cfi_offset 5, -8
 684              		.cfi_offset 14, -4
 403:.\queue.c     **** 		if( pxNewQueue != NULL )
 685              		.loc 1 403 0
 686 0002 4C20     		movs	r0, #76
 687              	.LVL84:
 688 0004 FFF7FEFF 		bl	pvPortMalloc
 689              	.LVL85:
 404:.\queue.c     **** 		{
 690              		.loc 1 404 0
 691 0008 0446     		mov	r4, r0
 692 000a C8B1     		cbz	r0, .L78
 419:.\queue.c     **** 			pxNewQueue->uxItemSize = ( UBaseType_t ) 0U;
 693              		.loc 1 419 0
 694 000c 0123     		movs	r3, #1
 407:.\queue.c     **** 			pxNewQueue->uxQueueType = queueQUEUE_IS_MUTEX;
 695              		.loc 1 407 0
 696 000e 0025     		movs	r5, #0
 419:.\queue.c     **** 			pxNewQueue->uxItemSize = ( UBaseType_t ) 0U;
 697              		.loc 1 419 0
 698 0010 C363     		str	r3, [r0, #60]
 421:.\queue.c     **** 			pxNewQueue->xTxLock = queueUNLOCKED;
 699              		.loc 1 421 0
 700 0012 4FF0FF33 		mov	r3, #-1
 418:.\queue.c     **** 			pxNewQueue->uxLength = ( UBaseType_t ) 1U;
 701              		.loc 1 418 0
 702 0016 8563     		str	r5, [r0, #56]
 407:.\queue.c     **** 			pxNewQueue->uxQueueType = queueQUEUE_IS_MUTEX;
 703              		.loc 1 407 0
 704 0018 4560     		str	r5, [r0, #4]
 421:.\queue.c     **** 			pxNewQueue->xTxLock = queueUNLOCKED;
 705              		.loc 1 421 0
 706 001a 4364     		str	r3, [r0, #68]
ARM GAS  C:\Users\mjphi\AppData\Local\Temp\ccTzczbK.s 			page 51


 408:.\queue.c     **** 
 707              		.loc 1 408 0
 708 001c 0560     		str	r5, [r0]
 422:.\queue.c     **** 
 709              		.loc 1 422 0
 710 001e 8364     		str	r3, [r0, #72]
 412:.\queue.c     **** 			pxNewQueue->u.pcReadFrom = NULL;
 711              		.loc 1 412 0
 712 0020 8560     		str	r5, [r0, #8]
 413:.\queue.c     **** 
 713              		.loc 1 413 0
 714 0022 C560     		str	r5, [r0, #12]
 420:.\queue.c     **** 			pxNewQueue->xRxLock = queueUNLOCKED;
 715              		.loc 1 420 0
 716 0024 0564     		str	r5, [r0, #64]
 437:.\queue.c     **** 			vListInitialise( &( pxNewQueue->xTasksWaitingToReceive ) );
 717              		.loc 1 437 0
 718 0026 1030     		adds	r0, r0, #16
 719              	.LVL86:
 720 0028 FFF7FEFF 		bl	vListInitialise
 721              	.LVL87:
 438:.\queue.c     **** 
 722              		.loc 1 438 0
 723 002c 04F12400 		add	r0, r4, #36
 724 0030 FFF7FEFF 		bl	vListInitialise
 725              	.LVL88:
 443:.\queue.c     **** 		}
 726              		.loc 1 443 0
 727 0034 2046     		mov	r0, r4
 728 0036 2946     		mov	r1, r5
 729 0038 2A46     		mov	r2, r5
 730 003a 2B46     		mov	r3, r5
 731 003c FFF7FEFF 		bl	xQueueGenericSend
 732              	.LVL89:
 733              	.L78:
 452:.\queue.c     **** 
 734              		.loc 1 452 0
 735 0040 2046     		mov	r0, r4
 736 0042 38BD     		pop	{r3, r4, r5, pc}
 737              		.cfi_endproc
 738              	.LFE66:
 739              		.size	xQueueCreateMutex, .-xQueueCreateMutex
 740              		.section	.text.xQueueGiveMutexRecursive,"ax",%progbits
 741              		.align	1
 742              		.global	xQueueGiveMutexRecursive
 743              		.thumb
 744              		.thumb_func
 745              		.type	xQueueGiveMutexRecursive, %function
 746              	xQueueGiveMutexRecursive:
 747              	.LFB67:
 490:.\queue.c     **** 	BaseType_t xReturn;
 748              		.loc 1 490 0
 749              		.cfi_startproc
 750              		@ args = 0, pretend = 0, frame = 0
 751              		@ frame_needed = 0, uses_anonymous_args = 0
 752              	.LVL90:
 753 0000 38B5     		push	{r3, r4, r5, lr}
ARM GAS  C:\Users\mjphi\AppData\Local\Temp\ccTzczbK.s 			page 52


 754              		.cfi_def_cfa_offset 16
 755              		.cfi_offset 3, -16
 756              		.cfi_offset 4, -12
 757              		.cfi_offset 5, -8
 758              		.cfi_offset 14, -4
 502:.\queue.c     **** 		{
 759              		.loc 1 502 0
 760 0002 4568     		ldr	r5, [r0, #4]
 490:.\queue.c     **** 	BaseType_t xReturn;
 761              		.loc 1 490 0
 762 0004 0446     		mov	r4, r0
 502:.\queue.c     **** 		{
 763              		.loc 1 502 0
 764 0006 FFF7FEFF 		bl	xTaskGetCurrentTaskHandle
 765              	.LVL91:
 766 000a 8542     		cmp	r5, r0
 767 000c 09D1     		bne	.L84
 511:.\queue.c     **** 
 768              		.loc 1 511 0
 769 000e E168     		ldr	r1, [r4, #12]
 770 0010 0139     		subs	r1, r1, #1
 771 0012 E160     		str	r1, [r4, #12]
 514:.\queue.c     **** 			{
 772              		.loc 1 514 0
 773 0014 39B9     		cbnz	r1, .L85
 518:.\queue.c     **** 			}
 774              		.loc 1 518 0
 775 0016 2046     		mov	r0, r4
 776 0018 0A46     		mov	r2, r1
 777 001a 0B46     		mov	r3, r1
 778 001c FFF7FEFF 		bl	xQueueGenericSend
 779              	.LVL92:
 780 0020 01E0     		b	.L85
 781              	.L84:
 531:.\queue.c     **** 
 782              		.loc 1 531 0
 783 0022 0020     		movs	r0, #0
 784 0024 38BD     		pop	{r3, r4, r5, pc}
 785              	.LVL93:
 786              	.L85:
 525:.\queue.c     **** 		}
 787              		.loc 1 525 0
 788 0026 0120     		movs	r0, #1
 789              	.LVL94:
 537:.\queue.c     **** 
 790              		.loc 1 537 0
 791 0028 38BD     		pop	{r3, r4, r5, pc}
 792              		.cfi_endproc
 793              	.LFE67:
 794              		.size	xQueueGiveMutexRecursive, .-xQueueGiveMutexRecursive
 795              		.section	.text.xQueueGenericSendFromISR,"ax",%progbits
 796              		.align	1
 797              		.global	xQueueGenericSendFromISR
 798              		.thumb
 799              		.thumb_func
 800              		.type	xQueueGenericSendFromISR, %function
 801              	xQueueGenericSendFromISR:
ARM GAS  C:\Users\mjphi\AppData\Local\Temp\ccTzczbK.s 			page 53


 802              	.LFB71:
1059:.\queue.c     **** BaseType_t xReturn;
 803              		.loc 1 1059 0
 804              		.cfi_startproc
 805              		@ args = 0, pretend = 0, frame = 0
 806              		@ frame_needed = 0, uses_anonymous_args = 0
 807              	.LVL95:
 808 0000 2DE9F041 		push	{r4, r5, r6, r7, r8, lr}
 809              		.cfi_def_cfa_offset 24
 810              		.cfi_offset 4, -24
 811              		.cfi_offset 5, -20
 812              		.cfi_offset 6, -16
 813              		.cfi_offset 7, -12
 814              		.cfi_offset 8, -8
 815              		.cfi_offset 14, -4
1059:.\queue.c     **** BaseType_t xReturn;
 816              		.loc 1 1059 0
 817 0004 0446     		mov	r4, r0
 818              	.LVL96:
 819 0006 1546     		mov	r5, r2
 820 0008 1E46     		mov	r6, r3
 821 000a 8846     		mov	r8, r1
1089:.\queue.c     **** 	{
 822              		.loc 1 1089 0
 823 000c FFF7FEFF 		bl	ulPortSetInterruptMask
 824              	.LVL97:
1091:.\queue.c     **** 		{
 825              		.loc 1 1091 0
 826 0010 A26B     		ldr	r2, [r4, #56]
 827 0012 E36B     		ldr	r3, [r4, #60]
1089:.\queue.c     **** 	{
 828              		.loc 1 1089 0
 829 0014 0746     		mov	r7, r0
 830              	.LVL98:
1091:.\queue.c     **** 		{
 831              		.loc 1 1091 0
 832 0016 9A42     		cmp	r2, r3
 833 0018 01D3     		bcc	.L87
1091:.\queue.c     **** 		{
 834              		.loc 1 1091 0 is_stmt 0 discriminator 1
 835 001a 022E     		cmp	r6, #2
 836 001c 17D1     		bne	.L92
 837              	.L87:
1100:.\queue.c     **** 
 838              		.loc 1 1100 0 is_stmt 1
 839 001e 2046     		mov	r0, r4
 840              	.LVL99:
 841 0020 4146     		mov	r1, r8
 842 0022 3246     		mov	r2, r6
 843 0024 FFF7FEFF 		bl	prvCopyDataToQueue
 844              	.LVL100:
1104:.\queue.c     **** 			{
 845              		.loc 1 1104 0
 846 0028 A36C     		ldr	r3, [r4, #72]
 847 002a 0133     		adds	r3, r3, #1
 848 002c 0AD1     		bne	.L89
1159:.\queue.c     **** 					{
ARM GAS  C:\Users\mjphi\AppData\Local\Temp\ccTzczbK.s 			page 54


 849              		.loc 1 1159 0
 850 002e 636A     		ldr	r3, [r4, #36]
 851 0030 5BB1     		cbz	r3, .L99
1161:.\queue.c     **** 						{
 852              		.loc 1 1161 0
 853 0032 04F12400 		add	r0, r4, #36
 854 0036 FFF7FEFF 		bl	xTaskRemoveFromEventList
 855              	.LVL101:
 856 003a 30B1     		cbz	r0, .L99
1165:.\queue.c     **** 							{
 857              		.loc 1 1165 0
 858 003c 2DB1     		cbz	r5, .L99
1167:.\queue.c     **** 							}
 859              		.loc 1 1167 0
 860 003e 0124     		movs	r4, #1
 861              	.LVL102:
 862 0040 2C60     		str	r4, [r5]
 863 0042 05E0     		b	.L88
 864              	.LVL103:
 865              	.L89:
1190:.\queue.c     **** 			}
 866              		.loc 1 1190 0
 867 0044 A36C     		ldr	r3, [r4, #72]
 868 0046 0133     		adds	r3, r3, #1
 869 0048 A364     		str	r3, [r4, #72]
 870              	.L99:
1193:.\queue.c     **** 		}
 871              		.loc 1 1193 0
 872 004a 0124     		movs	r4, #1
 873              	.LVL104:
 874 004c 00E0     		b	.L88
 875              	.LVL105:
 876              	.L92:
1198:.\queue.c     **** 		}
 877              		.loc 1 1198 0
 878 004e 0024     		movs	r4, #0
 879              	.LVL106:
 880              	.L88:
1201:.\queue.c     **** 
 881              		.loc 1 1201 0
 882 0050 3846     		mov	r0, r7
 883 0052 FFF7FEFF 		bl	vPortClearInterruptMask
 884              	.LVL107:
1204:.\queue.c     **** /*-----------------------------------------------------------*/
 885              		.loc 1 1204 0
 886 0056 2046     		mov	r0, r4
 887 0058 BDE8F081 		pop	{r4, r5, r6, r7, r8, pc}
 888              		.cfi_endproc
 889              	.LFE71:
 890              		.size	xQueueGenericSendFromISR, .-xQueueGenericSendFromISR
 891              		.section	.text.xQueueGiveFromISR,"ax",%progbits
 892              		.align	1
 893              		.global	xQueueGiveFromISR
 894              		.thumb
 895              		.thumb_func
 896              		.type	xQueueGiveFromISR, %function
 897              	xQueueGiveFromISR:
ARM GAS  C:\Users\mjphi\AppData\Local\Temp\ccTzczbK.s 			page 55


 898              	.LFB72:
1208:.\queue.c     **** BaseType_t xReturn;
 899              		.loc 1 1208 0
 900              		.cfi_startproc
 901              		@ args = 0, pretend = 0, frame = 0
 902              		@ frame_needed = 0, uses_anonymous_args = 0
 903              	.LVL108:
 904 0000 70B5     		push	{r4, r5, r6, lr}
 905              		.cfi_def_cfa_offset 16
 906              		.cfi_offset 4, -16
 907              		.cfi_offset 5, -12
 908              		.cfi_offset 6, -8
 909              		.cfi_offset 14, -4
1208:.\queue.c     **** BaseType_t xReturn;
 910              		.loc 1 1208 0
 911 0002 0446     		mov	r4, r0
 912              	.LVL109:
 913 0004 0D46     		mov	r5, r1
1246:.\queue.c     **** 	{
 914              		.loc 1 1246 0
 915 0006 FFF7FEFF 		bl	ulPortSetInterruptMask
 916              	.LVL110:
1251:.\queue.c     **** 		{
 917              		.loc 1 1251 0
 918 000a A26B     		ldr	r2, [r4, #56]
 919 000c E36B     		ldr	r3, [r4, #60]
1246:.\queue.c     **** 	{
 920              		.loc 1 1246 0
 921 000e 0646     		mov	r6, r0
 922              	.LVL111:
1251:.\queue.c     **** 		{
 923              		.loc 1 1251 0
 924 0010 9A42     		cmp	r2, r3
 925 0012 15D2     		bcs	.L105
1261:.\queue.c     **** 
 926              		.loc 1 1261 0
 927 0014 A36B     		ldr	r3, [r4, #56]
 928 0016 0133     		adds	r3, r3, #1
 929 0018 A363     		str	r3, [r4, #56]
1265:.\queue.c     **** 			{
 930              		.loc 1 1265 0
 931 001a A36C     		ldr	r3, [r4, #72]
 932 001c 0133     		adds	r3, r3, #1
 933 001e 0AD1     		bne	.L102
1320:.\queue.c     **** 					{
 934              		.loc 1 1320 0
 935 0020 636A     		ldr	r3, [r4, #36]
 936 0022 5BB1     		cbz	r3, .L112
1322:.\queue.c     **** 						{
 937              		.loc 1 1322 0
 938 0024 04F12400 		add	r0, r4, #36
 939              	.LVL112:
 940 0028 FFF7FEFF 		bl	xTaskRemoveFromEventList
 941              	.LVL113:
 942 002c 30B1     		cbz	r0, .L112
1326:.\queue.c     **** 							{
 943              		.loc 1 1326 0
ARM GAS  C:\Users\mjphi\AppData\Local\Temp\ccTzczbK.s 			page 56


 944 002e 2DB1     		cbz	r5, .L112
1328:.\queue.c     **** 							}
 945              		.loc 1 1328 0
 946 0030 0124     		movs	r4, #1
 947              	.LVL114:
 948 0032 2C60     		str	r4, [r5]
 949 0034 05E0     		b	.L101
 950              	.LVL115:
 951              	.L102:
1351:.\queue.c     **** 			}
 952              		.loc 1 1351 0
 953 0036 A36C     		ldr	r3, [r4, #72]
 954 0038 0133     		adds	r3, r3, #1
 955 003a A364     		str	r3, [r4, #72]
 956              	.LVL116:
 957              	.L112:
1354:.\queue.c     **** 		}
 958              		.loc 1 1354 0
 959 003c 0124     		movs	r4, #1
 960              	.LVL117:
 961 003e 00E0     		b	.L101
 962              	.LVL118:
 963              	.L105:
1359:.\queue.c     **** 		}
 964              		.loc 1 1359 0
 965 0040 0024     		movs	r4, #0
 966              	.LVL119:
 967              	.L101:
1362:.\queue.c     **** 
 968              		.loc 1 1362 0
 969 0042 3046     		mov	r0, r6
 970 0044 FFF7FEFF 		bl	vPortClearInterruptMask
 971              	.LVL120:
1365:.\queue.c     **** /*-----------------------------------------------------------*/
 972              		.loc 1 1365 0
 973 0048 2046     		mov	r0, r4
 974 004a 70BD     		pop	{r4, r5, r6, pc}
 975              		.cfi_endproc
 976              	.LFE72:
 977              		.size	xQueueGiveFromISR, .-xQueueGiveFromISR
 978              		.section	.text.xQueueGenericReceive,"ax",%progbits
 979              		.align	1
 980              		.global	xQueueGenericReceive
 981              		.thumb
 982              		.thumb_func
 983              		.type	xQueueGenericReceive, %function
 984              	xQueueGenericReceive:
 985              	.LFB73:
1369:.\queue.c     **** BaseType_t xEntryTimeSet = pdFALSE;
 986              		.loc 1 1369 0
 987              		.cfi_startproc
 988              		@ args = 0, pretend = 0, frame = 16
 989              		@ frame_needed = 0, uses_anonymous_args = 0
 990              	.LVL121:
 991 0000 2DE9FF41 		push	{r0, r1, r2, r3, r4, r5, r6, r7, r8, lr}
 992              		.cfi_def_cfa_offset 40
 993              		.cfi_offset 4, -24
ARM GAS  C:\Users\mjphi\AppData\Local\Temp\ccTzczbK.s 			page 57


 994              		.cfi_offset 5, -20
 995              		.cfi_offset 6, -16
 996              		.cfi_offset 7, -12
 997              		.cfi_offset 8, -8
 998              		.cfi_offset 14, -4
1369:.\queue.c     **** BaseType_t xEntryTimeSet = pdFALSE;
 999              		.loc 1 1369 0
 1000 0004 0446     		mov	r4, r0
 1001              	.LVL122:
 1002 0006 0F46     		mov	r7, r1
 1003 0008 9846     		mov	r8, r3
 1004 000a 0192     		str	r2, [sp, #4]
1370:.\queue.c     **** TimeOut_t xTimeOut;
 1005              		.loc 1 1370 0
 1006 000c 0026     		movs	r6, #0
 1007              	.LVL123:
 1008              	.L114:
1389:.\queue.c     **** 		{
 1009              		.loc 1 1389 0
 1010 000e FFF7FEFF 		bl	vPortEnterCritical
 1011              	.LVL124:
1393:.\queue.c     **** 			{
 1012              		.loc 1 1393 0
 1013 0012 A36B     		ldr	r3, [r4, #56]
 1014 0014 3BB3     		cbz	r3, .L115
1399:.\queue.c     **** 
 1015              		.loc 1 1399 0
 1016 0016 2046     		mov	r0, r4
 1017 0018 3946     		mov	r1, r7
1397:.\queue.c     **** 
 1018              		.loc 1 1397 0
 1019 001a E568     		ldr	r5, [r4, #12]
 1020              	.LVL125:
1399:.\queue.c     **** 
 1021              		.loc 1 1399 0
 1022 001c FFF7FEFF 		bl	prvCopyDataFromQueue
 1023              	.LVL126:
1401:.\queue.c     **** 				{
 1024              		.loc 1 1401 0
 1025 0020 B8F1000F 		cmp	r8, #0
 1026 0024 12D1     		bne	.L116
1406:.\queue.c     **** 
 1027              		.loc 1 1406 0
 1028 0026 A36B     		ldr	r3, [r4, #56]
 1029 0028 013B     		subs	r3, r3, #1
 1030 002a A363     		str	r3, [r4, #56]
1410:.\queue.c     **** 						{
 1031              		.loc 1 1410 0
 1032 002c 2368     		ldr	r3, [r4]
 1033 002e 13B9     		cbnz	r3, .L117
1414:.\queue.c     **** 						}
 1034              		.loc 1 1414 0
 1035 0030 FFF7FEFF 		bl	pvTaskIncrementMutexHeldCount
 1036              	.LVL127:
 1037 0034 6060     		str	r0, [r4, #4]
 1038              	.L117:
1423:.\queue.c     **** 					{
ARM GAS  C:\Users\mjphi\AppData\Local\Temp\ccTzczbK.s 			page 58


 1039              		.loc 1 1423 0
 1040 0036 2369     		ldr	r3, [r4, #16]
 1041 0038 8BB1     		cbz	r3, .L119
1425:.\queue.c     **** 						{
 1042              		.loc 1 1425 0
 1043 003a 04F11000 		add	r0, r4, #16
 1044 003e FFF7FEFF 		bl	xTaskRemoveFromEventList
 1045              	.LVL128:
 1046 0042 0128     		cmp	r0, #1
 1047 0044 0BD1     		bne	.L119
 1048              	.L121:
1427:.\queue.c     **** 						}
 1049              		.loc 1 1427 0
 1050 0046 FFF7FEFF 		bl	vPortYield
 1051              	.LVL129:
 1052 004a 08E0     		b	.L119
 1053              	.L116:
1449:.\queue.c     **** 					{
 1054              		.loc 1 1449 0
 1055 004c 636A     		ldr	r3, [r4, #36]
1445:.\queue.c     **** 
 1056              		.loc 1 1445 0
 1057 004e E560     		str	r5, [r4, #12]
1449:.\queue.c     **** 					{
 1058              		.loc 1 1449 0
 1059 0050 2BB1     		cbz	r3, .L119
1451:.\queue.c     **** 						{
 1060              		.loc 1 1451 0
 1061 0052 04F12400 		add	r0, r4, #36
 1062 0056 FFF7FEFF 		bl	xTaskRemoveFromEventList
 1063              	.LVL130:
 1064 005a 0028     		cmp	r0, #0
 1065 005c F3D1     		bne	.L121
 1066              	.L119:
1467:.\queue.c     **** 				return pdPASS;
 1067              		.loc 1 1467 0
 1068 005e FFF7FEFF 		bl	vPortExitCritical
 1069              	.LVL131:
1468:.\queue.c     **** 			}
 1070              		.loc 1 1468 0
 1071 0062 0120     		movs	r0, #1
 1072 0064 4AE0     		b	.L122
 1073              	.LVL132:
 1074              	.L115:
1472:.\queue.c     **** 				{
 1075              		.loc 1 1472 0
 1076 0066 019D     		ldr	r5, [sp, #4]
 1077 0068 15B9     		cbnz	r5, .L123
1476:.\queue.c     **** 					traceQUEUE_RECEIVE_FAILED( pxQueue );
 1078              		.loc 1 1476 0
 1079 006a FFF7FEFF 		bl	vPortExitCritical
 1080              	.LVL133:
 1081 006e 44E0     		b	.L134
 1082              	.L123:
1480:.\queue.c     **** 				{
 1083              		.loc 1 1480 0
 1084 0070 16B9     		cbnz	r6, .L124
ARM GAS  C:\Users\mjphi\AppData\Local\Temp\ccTzczbK.s 			page 59


1484:.\queue.c     **** 					xEntryTimeSet = pdTRUE;
 1085              		.loc 1 1484 0
 1086 0072 02A8     		add	r0, sp, #8
 1087 0074 FFF7FEFF 		bl	vTaskSetTimeOutState
 1088              	.LVL134:
 1089              	.L124:
1494:.\queue.c     **** 
 1090              		.loc 1 1494 0
 1091 0078 FFF7FEFF 		bl	vPortExitCritical
 1092              	.LVL135:
1499:.\queue.c     **** 		prvLockQueue( pxQueue );
 1093              		.loc 1 1499 0
 1094 007c FFF7FEFF 		bl	vTaskSuspendAll
 1095              	.LVL136:
1500:.\queue.c     **** 
 1096              		.loc 1 1500 0
 1097 0080 FFF7FEFF 		bl	vPortEnterCritical
 1098              	.LVL137:
 1099 0084 636C     		ldr	r3, [r4, #68]
 1100 0086 0133     		adds	r3, r3, #1
 1101 0088 04BF     		itt	eq
 1102 008a 0023     		moveq	r3, #0
 1103 008c 6364     		streq	r3, [r4, #68]
 1104 008e A36C     		ldr	r3, [r4, #72]
 1105 0090 0133     		adds	r3, r3, #1
 1106 0092 04BF     		itt	eq
 1107 0094 0023     		moveq	r3, #0
 1108 0096 A364     		streq	r3, [r4, #72]
 1109 0098 FFF7FEFF 		bl	vPortExitCritical
 1110              	.LVL138:
1503:.\queue.c     **** 		{
 1111              		.loc 1 1503 0
 1112 009c 02A8     		add	r0, sp, #8
 1113 009e 01A9     		add	r1, sp, #4
 1114              	.LVL139:
 1115 00a0 FFF7FEFF 		bl	xTaskCheckForTimeOut
 1116              	.LVL140:
 1117 00a4 20BB     		cbnz	r0, .L127
 1118              	.LVL141:
 1119              	.LBB8:
 1120              	.LBB9:
1999:.\queue.c     **** 	{
 1121              		.loc 1 1999 0
 1122 00a6 FFF7FEFF 		bl	vPortEnterCritical
 1123              	.LVL142:
2001:.\queue.c     **** 		{
 1124              		.loc 1 2001 0
 1125 00aa A56B     		ldr	r5, [r4, #56]
 1126              	.LVL143:
2010:.\queue.c     **** 
 1127              		.loc 1 2010 0
 1128 00ac FFF7FEFF 		bl	vPortExitCritical
 1129              	.LVL144:
 1130              	.LBE9:
 1131              	.LBE8:
1505:.\queue.c     **** 			{
 1132              		.loc 1 1505 0
ARM GAS  C:\Users\mjphi\AppData\Local\Temp\ccTzczbK.s 			page 60


 1133 00b0 C5B9     		cbnz	r5, .L128
1511:.\queue.c     **** 					{
 1134              		.loc 1 1511 0
 1135 00b2 2368     		ldr	r3, [r4]
 1136 00b4 33B9     		cbnz	r3, .L129
1513:.\queue.c     **** 						{
 1137              		.loc 1 1513 0
 1138 00b6 FFF7FEFF 		bl	vPortEnterCritical
 1139              	.LVL145:
1515:.\queue.c     **** 						}
 1140              		.loc 1 1515 0
 1141 00ba 6068     		ldr	r0, [r4, #4]
 1142 00bc FFF7FEFF 		bl	vTaskPriorityInherit
 1143              	.LVL146:
1517:.\queue.c     **** 					}
 1144              		.loc 1 1517 0
 1145 00c0 FFF7FEFF 		bl	vPortExitCritical
 1146              	.LVL147:
 1147              	.L129:
1526:.\queue.c     **** 				prvUnlockQueue( pxQueue );
 1148              		.loc 1 1526 0
 1149 00c4 04F12400 		add	r0, r4, #36
 1150 00c8 0199     		ldr	r1, [sp, #4]
 1151 00ca FFF7FEFF 		bl	vTaskPlaceOnEventList
 1152              	.LVL148:
1527:.\queue.c     **** 				if( xTaskResumeAll() == pdFALSE )
 1153              		.loc 1 1527 0
 1154 00ce 2046     		mov	r0, r4
 1155 00d0 FFF7FEFF 		bl	prvUnlockQueue
 1156              	.LVL149:
1528:.\queue.c     **** 				{
 1157              		.loc 1 1528 0
 1158 00d4 FFF7FEFF 		bl	xTaskResumeAll
 1159              	.LVL150:
 1160 00d8 08B1     		cbz	r0, .L135
 1161              	.LVL151:
 1162              	.L130:
 1163 00da 0126     		movs	r6, #1
 1164 00dc 97E7     		b	.L114
 1165              	.LVL152:
 1166              	.L135:
1530:.\queue.c     **** 				}
 1167              		.loc 1 1530 0
 1168 00de FFF7FEFF 		bl	vPortYield
 1169              	.LVL153:
 1170 00e2 FAE7     		b	.L130
 1171              	.L128:
 1172              	.LVL154:
1540:.\queue.c     **** 				( void ) xTaskResumeAll();
 1173              		.loc 1 1540 0
 1174 00e4 2046     		mov	r0, r4
 1175 00e6 FFF7FEFF 		bl	prvUnlockQueue
 1176              	.LVL155:
1541:.\queue.c     **** 			}
 1177              		.loc 1 1541 0
 1178 00ea FFF7FEFF 		bl	xTaskResumeAll
 1179              	.LVL156:
ARM GAS  C:\Users\mjphi\AppData\Local\Temp\ccTzczbK.s 			page 61


 1180 00ee F4E7     		b	.L130
 1181              	.LVL157:
 1182              	.L127:
1546:.\queue.c     **** 			( void ) xTaskResumeAll();
 1183              		.loc 1 1546 0
 1184 00f0 2046     		mov	r0, r4
 1185 00f2 FFF7FEFF 		bl	prvUnlockQueue
 1186              	.LVL158:
1547:.\queue.c     **** 			traceQUEUE_RECEIVE_FAILED( pxQueue );
 1187              		.loc 1 1547 0
 1188 00f6 FFF7FEFF 		bl	xTaskResumeAll
 1189              	.LVL159:
 1190              	.L134:
1549:.\queue.c     **** 		}
 1191              		.loc 1 1549 0
 1192 00fa 0020     		movs	r0, #0
 1193              	.L122:
1552:.\queue.c     **** /*-----------------------------------------------------------*/
 1194              		.loc 1 1552 0
 1195 00fc 04B0     		add	sp, sp, #16
 1196              		.cfi_def_cfa_offset 24
 1197              		@ sp needed
 1198 00fe BDE8F081 		pop	{r4, r5, r6, r7, r8, pc}
 1199              		.cfi_endproc
 1200              	.LFE73:
 1201              		.size	xQueueGenericReceive, .-xQueueGenericReceive
 1202              		.section	.text.xQueueTakeMutexRecursive,"ax",%progbits
 1203              		.align	1
 1204              		.global	xQueueTakeMutexRecursive
 1205              		.thumb
 1206              		.thumb_func
 1207              		.type	xQueueTakeMutexRecursive, %function
 1208              	xQueueTakeMutexRecursive:
 1209              	.LFB68:
 545:.\queue.c     **** 	BaseType_t xReturn;
 1210              		.loc 1 545 0
 1211              		.cfi_startproc
 1212              		@ args = 0, pretend = 0, frame = 0
 1213              		@ frame_needed = 0, uses_anonymous_args = 0
 1214              	.LVL160:
 1215 0000 70B5     		push	{r4, r5, r6, lr}
 1216              		.cfi_def_cfa_offset 16
 1217              		.cfi_offset 4, -16
 1218              		.cfi_offset 5, -12
 1219              		.cfi_offset 6, -8
 1220              		.cfi_offset 14, -4
 556:.\queue.c     **** 		{
 1221              		.loc 1 556 0
 1222 0002 4668     		ldr	r6, [r0, #4]
 545:.\queue.c     **** 	BaseType_t xReturn;
 1223              		.loc 1 545 0
 1224 0004 0446     		mov	r4, r0
 1225 0006 0D46     		mov	r5, r1
 556:.\queue.c     **** 		{
 1226              		.loc 1 556 0
 1227 0008 FFF7FEFF 		bl	xTaskGetCurrentTaskHandle
 1228              	.LVL161:
ARM GAS  C:\Users\mjphi\AppData\Local\Temp\ccTzczbK.s 			page 62


 1229 000c 8642     		cmp	r6, r0
 1230 000e 04D1     		bne	.L137
 558:.\queue.c     **** 			xReturn = pdPASS;
 1231              		.loc 1 558 0
 1232 0010 E368     		ldr	r3, [r4, #12]
 559:.\queue.c     **** 		}
 1233              		.loc 1 559 0
 1234 0012 0120     		movs	r0, #1
 558:.\queue.c     **** 			xReturn = pdPASS;
 1235              		.loc 1 558 0
 1236 0014 0133     		adds	r3, r3, #1
 1237 0016 E360     		str	r3, [r4, #12]
 1238              	.LVL162:
 1239 0018 70BD     		pop	{r4, r5, r6, pc}
 1240              	.LVL163:
 1241              	.L137:
 563:.\queue.c     **** 
 1242              		.loc 1 563 0
 1243 001a 0021     		movs	r1, #0
 1244 001c 0B46     		mov	r3, r1
 1245 001e 2046     		mov	r0, r4
 1246 0020 2A46     		mov	r2, r5
 1247 0022 FFF7FEFF 		bl	xQueueGenericReceive
 1248              	.LVL164:
 568:.\queue.c     **** 			{
 1249              		.loc 1 568 0
 1250 0026 0128     		cmp	r0, #1
 570:.\queue.c     **** 			}
 1251              		.loc 1 570 0
 1252 0028 02BF     		ittt	eq
 1253 002a E368     		ldreq	r3, [r4, #12]
 1254 002c 0133     		addeq	r3, r3, #1
 1255 002e E360     		streq	r3, [r4, #12]
 579:.\queue.c     **** 
 1256              		.loc 1 579 0
 1257 0030 70BD     		pop	{r4, r5, r6, pc}
 1258              		.cfi_endproc
 1259              	.LFE68:
 1260              		.size	xQueueTakeMutexRecursive, .-xQueueTakeMutexRecursive
 1261              		.section	.text.xQueueReceiveFromISR,"ax",%progbits
 1262              		.align	1
 1263              		.global	xQueueReceiveFromISR
 1264              		.thumb
 1265              		.thumb_func
 1266              		.type	xQueueReceiveFromISR, %function
 1267              	xQueueReceiveFromISR:
 1268              	.LFB74:
1556:.\queue.c     **** BaseType_t xReturn;
 1269              		.loc 1 1556 0
 1270              		.cfi_startproc
 1271              		@ args = 0, pretend = 0, frame = 0
 1272              		@ frame_needed = 0, uses_anonymous_args = 0
 1273              	.LVL165:
 1274 0000 2DE9F041 		push	{r4, r5, r6, r7, r8, lr}
 1275              		.cfi_def_cfa_offset 24
 1276              		.cfi_offset 4, -24
 1277              		.cfi_offset 5, -20
ARM GAS  C:\Users\mjphi\AppData\Local\Temp\ccTzczbK.s 			page 63


 1278              		.cfi_offset 6, -16
 1279              		.cfi_offset 7, -12
 1280              		.cfi_offset 8, -8
 1281              		.cfi_offset 14, -4
1556:.\queue.c     **** BaseType_t xReturn;
 1282              		.loc 1 1556 0
 1283 0004 0546     		mov	r5, r0
 1284              	.LVL166:
 1285 0006 8846     		mov	r8, r1
 1286 0008 1746     		mov	r7, r2
1580:.\queue.c     **** 	{
 1287              		.loc 1 1580 0
 1288 000a FFF7FEFF 		bl	ulPortSetInterruptMask
 1289              	.LVL167:
1583:.\queue.c     **** 		{
 1290              		.loc 1 1583 0
 1291 000e AC6B     		ldr	r4, [r5, #56]
1580:.\queue.c     **** 	{
 1292              		.loc 1 1580 0
 1293 0010 0646     		mov	r6, r0
 1294              	.LVL168:
1583:.\queue.c     **** 		{
 1295              		.loc 1 1583 0
 1296 0012 C4B1     		cbz	r4, .L140
1587:.\queue.c     **** 			--( pxQueue->uxMessagesWaiting );
 1297              		.loc 1 1587 0
 1298 0014 2846     		mov	r0, r5
 1299              	.LVL169:
 1300 0016 4146     		mov	r1, r8
 1301 0018 FFF7FEFF 		bl	prvCopyDataFromQueue
 1302              	.LVL170:
1588:.\queue.c     **** 
 1303              		.loc 1 1588 0
 1304 001c AB6B     		ldr	r3, [r5, #56]
 1305 001e 013B     		subs	r3, r3, #1
 1306 0020 AB63     		str	r3, [r5, #56]
1594:.\queue.c     **** 			{
 1307              		.loc 1 1594 0
 1308 0022 6B6C     		ldr	r3, [r5, #68]
 1309 0024 0133     		adds	r3, r3, #1
 1310 0026 0AD1     		bne	.L141
1596:.\queue.c     **** 				{
 1311              		.loc 1 1596 0
 1312 0028 2B69     		ldr	r3, [r5, #16]
 1313 002a 5BB1     		cbz	r3, .L151
1598:.\queue.c     **** 					{
 1314              		.loc 1 1598 0
 1315 002c 05F11000 		add	r0, r5, #16
 1316 0030 FFF7FEFF 		bl	xTaskRemoveFromEventList
 1317              	.LVL171:
 1318 0034 30B1     		cbz	r0, .L151
1602:.\queue.c     **** 						{
 1319              		.loc 1 1602 0
 1320 0036 2FB1     		cbz	r7, .L151
1604:.\queue.c     **** 						}
 1321              		.loc 1 1604 0
 1322 0038 0124     		movs	r4, #1
ARM GAS  C:\Users\mjphi\AppData\Local\Temp\ccTzczbK.s 			page 64


 1323 003a 3C60     		str	r4, [r7]
 1324 003c 03E0     		b	.L140
 1325              	.L141:
1625:.\queue.c     **** 			}
 1326              		.loc 1 1625 0
 1327 003e 6B6C     		ldr	r3, [r5, #68]
 1328 0040 0133     		adds	r3, r3, #1
 1329 0042 6B64     		str	r3, [r5, #68]
 1330              	.L151:
1628:.\queue.c     **** 		}
 1331              		.loc 1 1628 0
 1332 0044 0124     		movs	r4, #1
 1333              	.L140:
 1334              	.LVL172:
1636:.\queue.c     **** 
 1335              		.loc 1 1636 0
 1336 0046 3046     		mov	r0, r6
 1337 0048 FFF7FEFF 		bl	vPortClearInterruptMask
 1338              	.LVL173:
1639:.\queue.c     **** /*-----------------------------------------------------------*/
 1339              		.loc 1 1639 0
 1340 004c 2046     		mov	r0, r4
 1341 004e BDE8F081 		pop	{r4, r5, r6, r7, r8, pc}
 1342              		.cfi_endproc
 1343              	.LFE74:
 1344              		.size	xQueueReceiveFromISR, .-xQueueReceiveFromISR
 1345              		.section	.text.xQueuePeekFromISR,"ax",%progbits
 1346              		.align	1
 1347              		.global	xQueuePeekFromISR
 1348              		.thumb
 1349              		.thumb_func
 1350              		.type	xQueuePeekFromISR, %function
 1351              	xQueuePeekFromISR:
 1352              	.LFB75:
1643:.\queue.c     **** BaseType_t xReturn;
 1353              		.loc 1 1643 0
 1354              		.cfi_startproc
 1355              		@ args = 0, pretend = 0, frame = 0
 1356              		@ frame_needed = 0, uses_anonymous_args = 0
 1357              	.LVL174:
 1358 0000 F8B5     		push	{r3, r4, r5, r6, r7, lr}
 1359              		.cfi_def_cfa_offset 24
 1360              		.cfi_offset 3, -24
 1361              		.cfi_offset 4, -20
 1362              		.cfi_offset 5, -16
 1363              		.cfi_offset 6, -12
 1364              		.cfi_offset 7, -8
 1365              		.cfi_offset 14, -4
1643:.\queue.c     **** BaseType_t xReturn;
 1366              		.loc 1 1643 0
 1367 0002 0546     		mov	r5, r0
 1368              	.LVL175:
 1369 0004 0F46     		mov	r7, r1
1669:.\queue.c     **** 	{
 1370              		.loc 1 1669 0
 1371 0006 FFF7FEFF 		bl	ulPortSetInterruptMask
 1372              	.LVL176:
ARM GAS  C:\Users\mjphi\AppData\Local\Temp\ccTzczbK.s 			page 65


1672:.\queue.c     **** 		{
 1373              		.loc 1 1672 0
 1374 000a AC6B     		ldr	r4, [r5, #56]
1669:.\queue.c     **** 	{
 1375              		.loc 1 1669 0
 1376 000c 0646     		mov	r6, r0
 1377              	.LVL177:
1672:.\queue.c     **** 		{
 1378              		.loc 1 1672 0
 1379 000e 34B1     		cbz	r4, .L153
1678:.\queue.c     **** 			prvCopyDataFromQueue( pxQueue, pvBuffer );
 1380              		.loc 1 1678 0
 1381 0010 EC68     		ldr	r4, [r5, #12]
 1382              	.LVL178:
1679:.\queue.c     **** 			pxQueue->u.pcReadFrom = pcOriginalReadPosition;
 1383              		.loc 1 1679 0
 1384 0012 2846     		mov	r0, r5
 1385              	.LVL179:
 1386 0014 3946     		mov	r1, r7
 1387 0016 FFF7FEFF 		bl	prvCopyDataFromQueue
 1388              	.LVL180:
1680:.\queue.c     **** 
 1389              		.loc 1 1680 0
 1390 001a EC60     		str	r4, [r5, #12]
 1391              	.LVL181:
1682:.\queue.c     **** 		}
 1392              		.loc 1 1682 0
 1393 001c 0124     		movs	r4, #1
 1394              	.LVL182:
 1395              	.L153:
1690:.\queue.c     **** 
 1396              		.loc 1 1690 0
 1397 001e 3046     		mov	r0, r6
 1398 0020 FFF7FEFF 		bl	vPortClearInterruptMask
 1399              	.LVL183:
1693:.\queue.c     **** /*-----------------------------------------------------------*/
 1400              		.loc 1 1693 0
 1401 0024 2046     		mov	r0, r4
 1402 0026 F8BD     		pop	{r3, r4, r5, r6, r7, pc}
 1403              		.cfi_endproc
 1404              	.LFE75:
 1405              		.size	xQueuePeekFromISR, .-xQueuePeekFromISR
 1406              		.section	.text.uxQueueMessagesWaiting,"ax",%progbits
 1407              		.align	1
 1408              		.global	uxQueueMessagesWaiting
 1409              		.thumb
 1410              		.thumb_func
 1411              		.type	uxQueueMessagesWaiting, %function
 1412              	uxQueueMessagesWaiting:
 1413              	.LFB76:
1697:.\queue.c     **** UBaseType_t uxReturn;
 1414              		.loc 1 1697 0
 1415              		.cfi_startproc
 1416              		@ args = 0, pretend = 0, frame = 0
 1417              		@ frame_needed = 0, uses_anonymous_args = 0
 1418              	.LVL184:
 1419 0000 10B5     		push	{r4, lr}
ARM GAS  C:\Users\mjphi\AppData\Local\Temp\ccTzczbK.s 			page 66


 1420              		.cfi_def_cfa_offset 8
 1421              		.cfi_offset 4, -8
 1422              		.cfi_offset 14, -4
1697:.\queue.c     **** UBaseType_t uxReturn;
 1423              		.loc 1 1697 0
 1424 0002 0446     		mov	r4, r0
1702:.\queue.c     **** 	{
 1425              		.loc 1 1702 0
 1426 0004 FFF7FEFF 		bl	vPortEnterCritical
 1427              	.LVL185:
1704:.\queue.c     **** 	}
 1428              		.loc 1 1704 0
 1429 0008 A46B     		ldr	r4, [r4, #56]
 1430              	.LVL186:
1706:.\queue.c     **** 
 1431              		.loc 1 1706 0
 1432 000a FFF7FEFF 		bl	vPortExitCritical
 1433              	.LVL187:
1709:.\queue.c     **** /*-----------------------------------------------------------*/
 1434              		.loc 1 1709 0
 1435 000e 2046     		mov	r0, r4
 1436 0010 10BD     		pop	{r4, pc}
 1437              		.cfi_endproc
 1438              	.LFE76:
 1439              		.size	uxQueueMessagesWaiting, .-uxQueueMessagesWaiting
 1440              		.section	.text.uxQueueSpacesAvailable,"ax",%progbits
 1441              		.align	1
 1442              		.global	uxQueueSpacesAvailable
 1443              		.thumb
 1444              		.thumb_func
 1445              		.type	uxQueueSpacesAvailable, %function
 1446              	uxQueueSpacesAvailable:
 1447              	.LFB77:
1713:.\queue.c     **** UBaseType_t uxReturn;
 1448              		.loc 1 1713 0
 1449              		.cfi_startproc
 1450              		@ args = 0, pretend = 0, frame = 0
 1451              		@ frame_needed = 0, uses_anonymous_args = 0
 1452              	.LVL188:
 1453 0000 38B5     		push	{r3, r4, r5, lr}
 1454              		.cfi_def_cfa_offset 16
 1455              		.cfi_offset 3, -16
 1456              		.cfi_offset 4, -12
 1457              		.cfi_offset 5, -8
 1458              		.cfi_offset 14, -4
1713:.\queue.c     **** UBaseType_t uxReturn;
 1459              		.loc 1 1713 0
 1460 0002 0546     		mov	r5, r0
 1461              	.LVL189:
1720:.\queue.c     **** 	{
 1462              		.loc 1 1720 0
 1463 0004 FFF7FEFF 		bl	vPortEnterCritical
 1464              	.LVL190:
1722:.\queue.c     **** 	}
 1465              		.loc 1 1722 0
 1466 0008 AC6B     		ldr	r4, [r5, #56]
 1467 000a EB6B     		ldr	r3, [r5, #60]
ARM GAS  C:\Users\mjphi\AppData\Local\Temp\ccTzczbK.s 			page 67


 1468 000c 1C1B     		subs	r4, r3, r4
 1469              	.LVL191:
1724:.\queue.c     **** 
 1470              		.loc 1 1724 0
 1471 000e FFF7FEFF 		bl	vPortExitCritical
 1472              	.LVL192:
1727:.\queue.c     **** /*-----------------------------------------------------------*/
 1473              		.loc 1 1727 0
 1474 0012 2046     		mov	r0, r4
 1475 0014 38BD     		pop	{r3, r4, r5, pc}
 1476              		.cfi_endproc
 1477              	.LFE77:
 1478              		.size	uxQueueSpacesAvailable, .-uxQueueSpacesAvailable
 1479              		.section	.text.uxQueueMessagesWaitingFromISR,"ax",%progbits
 1480              		.align	1
 1481              		.global	uxQueueMessagesWaitingFromISR
 1482              		.thumb
 1483              		.thumb_func
 1484              		.type	uxQueueMessagesWaitingFromISR, %function
 1485              	uxQueueMessagesWaitingFromISR:
 1486              	.LFB78:
1731:.\queue.c     **** UBaseType_t uxReturn;
 1487              		.loc 1 1731 0
 1488              		.cfi_startproc
 1489              		@ args = 0, pretend = 0, frame = 0
 1490              		@ frame_needed = 0, uses_anonymous_args = 0
 1491              		@ link register save eliminated.
 1492              	.LVL193:
1736:.\queue.c     **** 
 1493              		.loc 1 1736 0
 1494 0000 806B     		ldr	r0, [r0, #56]
 1495              	.LVL194:
1739:.\queue.c     **** /*-----------------------------------------------------------*/
 1496              		.loc 1 1739 0
 1497 0002 7047     		bx	lr
 1498              		.cfi_endproc
 1499              	.LFE78:
 1500              		.size	uxQueueMessagesWaitingFromISR, .-uxQueueMessagesWaitingFromISR
 1501              		.section	.text.xQueueIsQueueEmptyFromISR,"ax",%progbits
 1502              		.align	1
 1503              		.global	xQueueIsQueueEmptyFromISR
 1504              		.thumb
 1505              		.thumb_func
 1506              		.type	xQueueIsQueueEmptyFromISR, %function
 1507              	xQueueIsQueueEmptyFromISR:
 1508              	.LFB84:
2017:.\queue.c     **** BaseType_t xReturn;
 1509              		.loc 1 2017 0
 1510              		.cfi_startproc
 1511              		@ args = 0, pretend = 0, frame = 0
 1512              		@ frame_needed = 0, uses_anonymous_args = 0
 1513              		@ link register save eliminated.
 1514              	.LVL195:
2021:.\queue.c     **** 	{
 1515              		.loc 1 2021 0
 1516 0000 806B     		ldr	r0, [r0, #56]
 1517              	.LVL196:
ARM GAS  C:\Users\mjphi\AppData\Local\Temp\ccTzczbK.s 			page 68


2031:.\queue.c     **** /*-----------------------------------------------------------*/
 1518              		.loc 1 2031 0
 1519 0002 B0FA80F0 		clz	r0, r0
 1520              	.LVL197:
 1521 0006 4009     		lsrs	r0, r0, #5
 1522 0008 7047     		bx	lr
 1523              		.cfi_endproc
 1524              	.LFE84:
 1525              		.size	xQueueIsQueueEmptyFromISR, .-xQueueIsQueueEmptyFromISR
 1526              		.section	.text.xQueueIsQueueFullFromISR,"ax",%progbits
 1527              		.align	1
 1528              		.global	xQueueIsQueueFullFromISR
 1529              		.thumb
 1530              		.thumb_func
 1531              		.type	xQueueIsQueueFullFromISR, %function
 1532              	xQueueIsQueueFullFromISR:
 1533              	.LFB86:
2050:.\queue.c     **** 
2051:.\queue.c     **** 	return xReturn;
2052:.\queue.c     **** }
2053:.\queue.c     **** /*-----------------------------------------------------------*/
2054:.\queue.c     **** 
2055:.\queue.c     **** BaseType_t xQueueIsQueueFullFromISR( const QueueHandle_t xQueue )
2056:.\queue.c     **** {
 1534              		.loc 1 2056 0
 1535              		.cfi_startproc
 1536              		@ args = 0, pretend = 0, frame = 0
 1537              		@ frame_needed = 0, uses_anonymous_args = 0
 1538              		@ link register save eliminated.
 1539              	.LVL198:
2057:.\queue.c     **** BaseType_t xReturn;
2058:.\queue.c     **** 
2059:.\queue.c     **** 	configASSERT( xQueue );
2060:.\queue.c     **** 	if( ( ( Queue_t * ) xQueue )->uxMessagesWaiting == ( ( Queue_t * ) xQueue )->uxLength )
 1540              		.loc 1 2060 0
 1541 0000 826B     		ldr	r2, [r0, #56]
 1542              	.LVL199:
 1543 0002 C06B     		ldr	r0, [r0, #60]
 1544              	.LVL200:
2061:.\queue.c     **** 	{
2062:.\queue.c     **** 		xReturn = pdTRUE;
2063:.\queue.c     **** 	}
2064:.\queue.c     **** 	else
2065:.\queue.c     **** 	{
2066:.\queue.c     **** 		xReturn = pdFALSE;
2067:.\queue.c     **** 	}
2068:.\queue.c     **** 
2069:.\queue.c     **** 	return xReturn;
2070:.\queue.c     **** } /*lint !e818 xQueue could not be pointer to const because it is a typedef. */
 1545              		.loc 1 2070 0
 1546 0004 131A     		subs	r3, r2, r0
 1547 0006 5842     		rsbs	r0, r3, #0
 1548              	.LVL201:
 1549 0008 5841     		adcs	r0, r0, r3
 1550 000a 7047     		bx	lr
 1551              		.cfi_endproc
 1552              	.LFE86:
ARM GAS  C:\Users\mjphi\AppData\Local\Temp\ccTzczbK.s 			page 69


 1553              		.size	xQueueIsQueueFullFromISR, .-xQueueIsQueueFullFromISR
 1554              		.section	.text.vQueueAddToRegistry,"ax",%progbits
 1555              		.align	1
 1556              		.global	vQueueAddToRegistry
 1557              		.thumb
 1558              		.thumb_func
 1559              		.type	vQueueAddToRegistry, %function
 1560              	vQueueAddToRegistry:
 1561              	.LFB87:
2071:.\queue.c     **** /*-----------------------------------------------------------*/
2072:.\queue.c     **** 
2073:.\queue.c     **** #if ( configUSE_CO_ROUTINES == 1 )
2074:.\queue.c     **** 
2075:.\queue.c     **** 	BaseType_t xQueueCRSend( QueueHandle_t xQueue, const void *pvItemToQueue, TickType_t xTicksToWait 
2076:.\queue.c     **** 	{
2077:.\queue.c     **** 	BaseType_t xReturn;
2078:.\queue.c     **** 	Queue_t * const pxQueue = ( Queue_t * ) xQueue;
2079:.\queue.c     **** 
2080:.\queue.c     **** 		/* If the queue is already full we may have to block.  A critical section
2081:.\queue.c     **** 		is required to prevent an interrupt removing something from the queue
2082:.\queue.c     **** 		between the check to see if the queue is full and blocking on the queue. */
2083:.\queue.c     **** 		portDISABLE_INTERRUPTS();
2084:.\queue.c     **** 		{
2085:.\queue.c     **** 			if( prvIsQueueFull( pxQueue ) != pdFALSE )
2086:.\queue.c     **** 			{
2087:.\queue.c     **** 				/* The queue is full - do we want to block or just leave without
2088:.\queue.c     **** 				posting? */
2089:.\queue.c     **** 				if( xTicksToWait > ( TickType_t ) 0 )
2090:.\queue.c     **** 				{
2091:.\queue.c     **** 					/* As this is called from a coroutine we cannot block directly, but
2092:.\queue.c     **** 					return indicating that we need to block. */
2093:.\queue.c     **** 					vCoRoutineAddToDelayedList( xTicksToWait, &( pxQueue->xTasksWaitingToSend ) );
2094:.\queue.c     **** 					portENABLE_INTERRUPTS();
2095:.\queue.c     **** 					return errQUEUE_BLOCKED;
2096:.\queue.c     **** 				}
2097:.\queue.c     **** 				else
2098:.\queue.c     **** 				{
2099:.\queue.c     **** 					portENABLE_INTERRUPTS();
2100:.\queue.c     **** 					return errQUEUE_FULL;
2101:.\queue.c     **** 				}
2102:.\queue.c     **** 			}
2103:.\queue.c     **** 		}
2104:.\queue.c     **** 		portENABLE_INTERRUPTS();
2105:.\queue.c     **** 
2106:.\queue.c     **** 		portDISABLE_INTERRUPTS();
2107:.\queue.c     **** 		{
2108:.\queue.c     **** 			if( pxQueue->uxMessagesWaiting < pxQueue->uxLength )
2109:.\queue.c     **** 			{
2110:.\queue.c     **** 				/* There is room in the queue, copy the data into the queue. */
2111:.\queue.c     **** 				prvCopyDataToQueue( pxQueue, pvItemToQueue, queueSEND_TO_BACK );
2112:.\queue.c     **** 				xReturn = pdPASS;
2113:.\queue.c     **** 
2114:.\queue.c     **** 				/* Were any co-routines waiting for data to become available? */
2115:.\queue.c     **** 				if( listLIST_IS_EMPTY( &( pxQueue->xTasksWaitingToReceive ) ) == pdFALSE )
2116:.\queue.c     **** 				{
2117:.\queue.c     **** 					/* In this instance the co-routine could be placed directly
2118:.\queue.c     **** 					into the ready list as we are within a critical section.
ARM GAS  C:\Users\mjphi\AppData\Local\Temp\ccTzczbK.s 			page 70


2119:.\queue.c     **** 					Instead the same pending ready list mechanism is used as if
2120:.\queue.c     **** 					the event were caused from within an interrupt. */
2121:.\queue.c     **** 					if( xCoRoutineRemoveFromEventList( &( pxQueue->xTasksWaitingToReceive ) ) != pdFALSE )
2122:.\queue.c     **** 					{
2123:.\queue.c     **** 						/* The co-routine waiting has a higher priority so record
2124:.\queue.c     **** 						that a yield might be appropriate. */
2125:.\queue.c     **** 						xReturn = errQUEUE_YIELD;
2126:.\queue.c     **** 					}
2127:.\queue.c     **** 					else
2128:.\queue.c     **** 					{
2129:.\queue.c     **** 						mtCOVERAGE_TEST_MARKER();
2130:.\queue.c     **** 					}
2131:.\queue.c     **** 				}
2132:.\queue.c     **** 				else
2133:.\queue.c     **** 				{
2134:.\queue.c     **** 					mtCOVERAGE_TEST_MARKER();
2135:.\queue.c     **** 				}
2136:.\queue.c     **** 			}
2137:.\queue.c     **** 			else
2138:.\queue.c     **** 			{
2139:.\queue.c     **** 				xReturn = errQUEUE_FULL;
2140:.\queue.c     **** 			}
2141:.\queue.c     **** 		}
2142:.\queue.c     **** 		portENABLE_INTERRUPTS();
2143:.\queue.c     **** 
2144:.\queue.c     **** 		return xReturn;
2145:.\queue.c     **** 	}
2146:.\queue.c     **** 
2147:.\queue.c     **** #endif /* configUSE_CO_ROUTINES */
2148:.\queue.c     **** /*-----------------------------------------------------------*/
2149:.\queue.c     **** 
2150:.\queue.c     **** #if ( configUSE_CO_ROUTINES == 1 )
2151:.\queue.c     **** 
2152:.\queue.c     **** 	BaseType_t xQueueCRReceive( QueueHandle_t xQueue, void *pvBuffer, TickType_t xTicksToWait )
2153:.\queue.c     **** 	{
2154:.\queue.c     **** 	BaseType_t xReturn;
2155:.\queue.c     **** 	Queue_t * const pxQueue = ( Queue_t * ) xQueue;
2156:.\queue.c     **** 
2157:.\queue.c     **** 		/* If the queue is already empty we may have to block.  A critical section
2158:.\queue.c     **** 		is required to prevent an interrupt adding something to the queue
2159:.\queue.c     **** 		between the check to see if the queue is empty and blocking on the queue. */
2160:.\queue.c     **** 		portDISABLE_INTERRUPTS();
2161:.\queue.c     **** 		{
2162:.\queue.c     **** 			if( pxQueue->uxMessagesWaiting == ( UBaseType_t ) 0 )
2163:.\queue.c     **** 			{
2164:.\queue.c     **** 				/* There are no messages in the queue, do we want to block or just
2165:.\queue.c     **** 				leave with nothing? */
2166:.\queue.c     **** 				if( xTicksToWait > ( TickType_t ) 0 )
2167:.\queue.c     **** 				{
2168:.\queue.c     **** 					/* As this is a co-routine we cannot block directly, but return
2169:.\queue.c     **** 					indicating that we need to block. */
2170:.\queue.c     **** 					vCoRoutineAddToDelayedList( xTicksToWait, &( pxQueue->xTasksWaitingToReceive ) );
2171:.\queue.c     **** 					portENABLE_INTERRUPTS();
2172:.\queue.c     **** 					return errQUEUE_BLOCKED;
2173:.\queue.c     **** 				}
2174:.\queue.c     **** 				else
2175:.\queue.c     **** 				{
ARM GAS  C:\Users\mjphi\AppData\Local\Temp\ccTzczbK.s 			page 71


2176:.\queue.c     **** 					portENABLE_INTERRUPTS();
2177:.\queue.c     **** 					return errQUEUE_FULL;
2178:.\queue.c     **** 				}
2179:.\queue.c     **** 			}
2180:.\queue.c     **** 			else
2181:.\queue.c     **** 			{
2182:.\queue.c     **** 				mtCOVERAGE_TEST_MARKER();
2183:.\queue.c     **** 			}
2184:.\queue.c     **** 		}
2185:.\queue.c     **** 		portENABLE_INTERRUPTS();
2186:.\queue.c     **** 
2187:.\queue.c     **** 		portDISABLE_INTERRUPTS();
2188:.\queue.c     **** 		{
2189:.\queue.c     **** 			if( pxQueue->uxMessagesWaiting > ( UBaseType_t ) 0 )
2190:.\queue.c     **** 			{
2191:.\queue.c     **** 				/* Data is available from the queue. */
2192:.\queue.c     **** 				pxQueue->u.pcReadFrom += pxQueue->uxItemSize;
2193:.\queue.c     **** 				if( pxQueue->u.pcReadFrom >= pxQueue->pcTail )
2194:.\queue.c     **** 				{
2195:.\queue.c     **** 					pxQueue->u.pcReadFrom = pxQueue->pcHead;
2196:.\queue.c     **** 				}
2197:.\queue.c     **** 				else
2198:.\queue.c     **** 				{
2199:.\queue.c     **** 					mtCOVERAGE_TEST_MARKER();
2200:.\queue.c     **** 				}
2201:.\queue.c     **** 				--( pxQueue->uxMessagesWaiting );
2202:.\queue.c     **** 				( void ) memcpy( ( void * ) pvBuffer, ( void * ) pxQueue->u.pcReadFrom, ( unsigned ) pxQueue->u
2203:.\queue.c     **** 
2204:.\queue.c     **** 				xReturn = pdPASS;
2205:.\queue.c     **** 
2206:.\queue.c     **** 				/* Were any co-routines waiting for space to become available? */
2207:.\queue.c     **** 				if( listLIST_IS_EMPTY( &( pxQueue->xTasksWaitingToSend ) ) == pdFALSE )
2208:.\queue.c     **** 				{
2209:.\queue.c     **** 					/* In this instance the co-routine could be placed directly
2210:.\queue.c     **** 					into the ready list as we are within a critical section.
2211:.\queue.c     **** 					Instead the same pending ready list mechanism is used as if
2212:.\queue.c     **** 					the event were caused from within an interrupt. */
2213:.\queue.c     **** 					if( xCoRoutineRemoveFromEventList( &( pxQueue->xTasksWaitingToSend ) ) != pdFALSE )
2214:.\queue.c     **** 					{
2215:.\queue.c     **** 						xReturn = errQUEUE_YIELD;
2216:.\queue.c     **** 					}
2217:.\queue.c     **** 					else
2218:.\queue.c     **** 					{
2219:.\queue.c     **** 						mtCOVERAGE_TEST_MARKER();
2220:.\queue.c     **** 					}
2221:.\queue.c     **** 				}
2222:.\queue.c     **** 				else
2223:.\queue.c     **** 				{
2224:.\queue.c     **** 					mtCOVERAGE_TEST_MARKER();
2225:.\queue.c     **** 				}
2226:.\queue.c     **** 			}
2227:.\queue.c     **** 			else
2228:.\queue.c     **** 			{
2229:.\queue.c     **** 				xReturn = pdFAIL;
2230:.\queue.c     **** 			}
2231:.\queue.c     **** 		}
2232:.\queue.c     **** 		portENABLE_INTERRUPTS();
ARM GAS  C:\Users\mjphi\AppData\Local\Temp\ccTzczbK.s 			page 72


2233:.\queue.c     **** 
2234:.\queue.c     **** 		return xReturn;
2235:.\queue.c     **** 	}
2236:.\queue.c     **** 
2237:.\queue.c     **** #endif /* configUSE_CO_ROUTINES */
2238:.\queue.c     **** /*-----------------------------------------------------------*/
2239:.\queue.c     **** 
2240:.\queue.c     **** #if ( configUSE_CO_ROUTINES == 1 )
2241:.\queue.c     **** 
2242:.\queue.c     **** 	BaseType_t xQueueCRSendFromISR( QueueHandle_t xQueue, const void *pvItemToQueue, BaseType_t xCoRou
2243:.\queue.c     **** 	{
2244:.\queue.c     **** 	Queue_t * const pxQueue = ( Queue_t * ) xQueue;
2245:.\queue.c     **** 
2246:.\queue.c     **** 		/* Cannot block within an ISR so if there is no space on the queue then
2247:.\queue.c     **** 		exit without doing anything. */
2248:.\queue.c     **** 		if( pxQueue->uxMessagesWaiting < pxQueue->uxLength )
2249:.\queue.c     **** 		{
2250:.\queue.c     **** 			prvCopyDataToQueue( pxQueue, pvItemToQueue, queueSEND_TO_BACK );
2251:.\queue.c     **** 
2252:.\queue.c     **** 			/* We only want to wake one co-routine per ISR, so check that a
2253:.\queue.c     **** 			co-routine has not already been woken. */
2254:.\queue.c     **** 			if( xCoRoutinePreviouslyWoken == pdFALSE )
2255:.\queue.c     **** 			{
2256:.\queue.c     **** 				if( listLIST_IS_EMPTY( &( pxQueue->xTasksWaitingToReceive ) ) == pdFALSE )
2257:.\queue.c     **** 				{
2258:.\queue.c     **** 					if( xCoRoutineRemoveFromEventList( &( pxQueue->xTasksWaitingToReceive ) ) != pdFALSE )
2259:.\queue.c     **** 					{
2260:.\queue.c     **** 						return pdTRUE;
2261:.\queue.c     **** 					}
2262:.\queue.c     **** 					else
2263:.\queue.c     **** 					{
2264:.\queue.c     **** 						mtCOVERAGE_TEST_MARKER();
2265:.\queue.c     **** 					}
2266:.\queue.c     **** 				}
2267:.\queue.c     **** 				else
2268:.\queue.c     **** 				{
2269:.\queue.c     **** 					mtCOVERAGE_TEST_MARKER();
2270:.\queue.c     **** 				}
2271:.\queue.c     **** 			}
2272:.\queue.c     **** 			else
2273:.\queue.c     **** 			{
2274:.\queue.c     **** 				mtCOVERAGE_TEST_MARKER();
2275:.\queue.c     **** 			}
2276:.\queue.c     **** 		}
2277:.\queue.c     **** 		else
2278:.\queue.c     **** 		{
2279:.\queue.c     **** 			mtCOVERAGE_TEST_MARKER();
2280:.\queue.c     **** 		}
2281:.\queue.c     **** 
2282:.\queue.c     **** 		return xCoRoutinePreviouslyWoken;
2283:.\queue.c     **** 	}
2284:.\queue.c     **** 
2285:.\queue.c     **** #endif /* configUSE_CO_ROUTINES */
2286:.\queue.c     **** /*-----------------------------------------------------------*/
2287:.\queue.c     **** 
2288:.\queue.c     **** #if ( configUSE_CO_ROUTINES == 1 )
2289:.\queue.c     **** 
ARM GAS  C:\Users\mjphi\AppData\Local\Temp\ccTzczbK.s 			page 73


2290:.\queue.c     **** 	BaseType_t xQueueCRReceiveFromISR( QueueHandle_t xQueue, void *pvBuffer, BaseType_t *pxCoRoutineWo
2291:.\queue.c     **** 	{
2292:.\queue.c     **** 	BaseType_t xReturn;
2293:.\queue.c     **** 	Queue_t * const pxQueue = ( Queue_t * ) xQueue;
2294:.\queue.c     **** 
2295:.\queue.c     **** 		/* We cannot block from an ISR, so check there is data available. If
2296:.\queue.c     **** 		not then just leave without doing anything. */
2297:.\queue.c     **** 		if( pxQueue->uxMessagesWaiting > ( UBaseType_t ) 0 )
2298:.\queue.c     **** 		{
2299:.\queue.c     **** 			/* Copy the data from the queue. */
2300:.\queue.c     **** 			pxQueue->u.pcReadFrom += pxQueue->uxItemSize;
2301:.\queue.c     **** 			if( pxQueue->u.pcReadFrom >= pxQueue->pcTail )
2302:.\queue.c     **** 			{
2303:.\queue.c     **** 				pxQueue->u.pcReadFrom = pxQueue->pcHead;
2304:.\queue.c     **** 			}
2305:.\queue.c     **** 			else
2306:.\queue.c     **** 			{
2307:.\queue.c     **** 				mtCOVERAGE_TEST_MARKER();
2308:.\queue.c     **** 			}
2309:.\queue.c     **** 			--( pxQueue->uxMessagesWaiting );
2310:.\queue.c     **** 			( void ) memcpy( ( void * ) pvBuffer, ( void * ) pxQueue->u.pcReadFrom, ( unsigned ) pxQueue->ux
2311:.\queue.c     **** 
2312:.\queue.c     **** 			if( ( *pxCoRoutineWoken ) == pdFALSE )
2313:.\queue.c     **** 			{
2314:.\queue.c     **** 				if( listLIST_IS_EMPTY( &( pxQueue->xTasksWaitingToSend ) ) == pdFALSE )
2315:.\queue.c     **** 				{
2316:.\queue.c     **** 					if( xCoRoutineRemoveFromEventList( &( pxQueue->xTasksWaitingToSend ) ) != pdFALSE )
2317:.\queue.c     **** 					{
2318:.\queue.c     **** 						*pxCoRoutineWoken = pdTRUE;
2319:.\queue.c     **** 					}
2320:.\queue.c     **** 					else
2321:.\queue.c     **** 					{
2322:.\queue.c     **** 						mtCOVERAGE_TEST_MARKER();
2323:.\queue.c     **** 					}
2324:.\queue.c     **** 				}
2325:.\queue.c     **** 				else
2326:.\queue.c     **** 				{
2327:.\queue.c     **** 					mtCOVERAGE_TEST_MARKER();
2328:.\queue.c     **** 				}
2329:.\queue.c     **** 			}
2330:.\queue.c     **** 			else
2331:.\queue.c     **** 			{
2332:.\queue.c     **** 				mtCOVERAGE_TEST_MARKER();
2333:.\queue.c     **** 			}
2334:.\queue.c     **** 
2335:.\queue.c     **** 			xReturn = pdPASS;
2336:.\queue.c     **** 		}
2337:.\queue.c     **** 		else
2338:.\queue.c     **** 		{
2339:.\queue.c     **** 			xReturn = pdFAIL;
2340:.\queue.c     **** 		}
2341:.\queue.c     **** 
2342:.\queue.c     **** 		return xReturn;
2343:.\queue.c     **** 	}
2344:.\queue.c     **** 
2345:.\queue.c     **** #endif /* configUSE_CO_ROUTINES */
2346:.\queue.c     **** /*-----------------------------------------------------------*/
ARM GAS  C:\Users\mjphi\AppData\Local\Temp\ccTzczbK.s 			page 74


2347:.\queue.c     **** 
2348:.\queue.c     **** #if ( configQUEUE_REGISTRY_SIZE > 0 )
2349:.\queue.c     **** 
2350:.\queue.c     **** 	void vQueueAddToRegistry( QueueHandle_t xQueue, const char *pcQueueName ) /*lint !e971 Unqualified
2351:.\queue.c     **** 	{
 1562              		.loc 1 2351 0
 1563              		.cfi_startproc
 1564              		@ args = 0, pretend = 0, frame = 0
 1565              		@ frame_needed = 0, uses_anonymous_args = 0
 1566              	.LVL202:
 1567 0000 30B5     		push	{r4, r5, lr}
 1568              		.cfi_def_cfa_offset 12
 1569              		.cfi_offset 4, -12
 1570              		.cfi_offset 5, -8
 1571              		.cfi_offset 14, -4
2352:.\queue.c     **** 	UBaseType_t ux;
2353:.\queue.c     **** 
2354:.\queue.c     **** 		/* See if there is an empty space in the registry.  A NULL name denotes
