ARM GAS  C:\Users\mjphi\AppData\Local\Temp\ccQ4lVkA.s 			page 1


   1              		.syntax unified
   2              		.cpu cortex-m3
   3              		.fpu softvfp
   4              		.eabi_attribute 20, 1
   5              		.eabi_attribute 21, 1
   6              		.eabi_attribute 23, 3
   7              		.eabi_attribute 24, 1
   8              		.eabi_attribute 25, 1
   9              		.eabi_attribute 26, 1
  10              		.eabi_attribute 30, 4
  11              		.eabi_attribute 34, 1
  12              		.eabi_attribute 18, 4
  13              		.thumb
  14              		.file	"CyDmac.c"
  15              		.text
  16              	.Ltext0:
  17              		.cfi_sections	.debug_frame
  18              		.section	.text.CyDmacConfigure,"ax",%progbits
  19              		.align	1
  20              		.global	CyDmacConfigure
  21              		.thumb
  22              		.thumb_func
  23              		.type	CyDmacConfigure, %function
  24              	CyDmacConfigure:
  25              	.LFB0:
  26              		.file 1 ".\\Generated_Source\\PSoC5\\CyDmac.c"
   1:.\Generated_Source\PSoC5/CyDmac.c **** /*******************************************************************************
   2:.\Generated_Source\PSoC5/CyDmac.c **** * File Name: CyDmac.c
   3:.\Generated_Source\PSoC5/CyDmac.c **** * Version 5.0
   4:.\Generated_Source\PSoC5/CyDmac.c **** *
   5:.\Generated_Source\PSoC5/CyDmac.c **** * Description:
   6:.\Generated_Source\PSoC5/CyDmac.c **** *  Provides an API for the DMAC component. The API includes functions for the
   7:.\Generated_Source\PSoC5/CyDmac.c **** *  DMA controller, DMA channels and Transfer Descriptors.
   8:.\Generated_Source\PSoC5/CyDmac.c **** *
   9:.\Generated_Source\PSoC5/CyDmac.c **** *  This API is the library version not the auto generated code that gets
  10:.\Generated_Source\PSoC5/CyDmac.c **** *  generated when the user places a DMA component on the schematic.
  11:.\Generated_Source\PSoC5/CyDmac.c **** *
  12:.\Generated_Source\PSoC5/CyDmac.c **** *  The auto generated code would use the APi's in this module.
  13:.\Generated_Source\PSoC5/CyDmac.c **** *
  14:.\Generated_Source\PSoC5/CyDmac.c **** * Note:
  15:.\Generated_Source\PSoC5/CyDmac.c **** *  This code is endian agnostic.
  16:.\Generated_Source\PSoC5/CyDmac.c **** *
  17:.\Generated_Source\PSoC5/CyDmac.c **** *  The Transfer Descriptor memory can be used as regular memory if the TD's are
  18:.\Generated_Source\PSoC5/CyDmac.c **** *  not being used.
  19:.\Generated_Source\PSoC5/CyDmac.c **** *
  20:.\Generated_Source\PSoC5/CyDmac.c **** *  This code uses the first byte of each TD to manage the free list of TD's.
  21:.\Generated_Source\PSoC5/CyDmac.c **** *  The user can overwrite this once the TD is allocated.
  22:.\Generated_Source\PSoC5/CyDmac.c **** *
  23:.\Generated_Source\PSoC5/CyDmac.c **** ********************************************************************************
  24:.\Generated_Source\PSoC5/CyDmac.c **** * Copyright 2008-2015, Cypress Semiconductor Corporation.  All rights reserved.
  25:.\Generated_Source\PSoC5/CyDmac.c **** * You may use this file only in accordance with the license, terms, conditions,
  26:.\Generated_Source\PSoC5/CyDmac.c **** * disclaimers, and limitations in the end user license agreement accompanying
  27:.\Generated_Source\PSoC5/CyDmac.c **** * the software package with which this file was provided.
  28:.\Generated_Source\PSoC5/CyDmac.c **** *******************************************************************************/
  29:.\Generated_Source\PSoC5/CyDmac.c **** 
  30:.\Generated_Source\PSoC5/CyDmac.c **** #include "CyDmac.h"
  31:.\Generated_Source\PSoC5/CyDmac.c **** 
ARM GAS  C:\Users\mjphi\AppData\Local\Temp\ccQ4lVkA.s 			page 2


  32:.\Generated_Source\PSoC5/CyDmac.c **** 
  33:.\Generated_Source\PSoC5/CyDmac.c **** /*******************************************************************************
  34:.\Generated_Source\PSoC5/CyDmac.c **** * The following variables are initialized from CyDmacConfigure() function that
  35:.\Generated_Source\PSoC5/CyDmac.c **** * is executed from initialize_psoc() at the early initialization stage.
  36:.\Generated_Source\PSoC5/CyDmac.c **** * In case of IAR EW IDE, initialize_psoc() is executed before the data sections
  37:.\Generated_Source\PSoC5/CyDmac.c **** * are initialized. To avoid zeroing, these variables should be initialized
  38:.\Generated_Source\PSoC5/CyDmac.c **** * properly during segments initialization as well.
  39:.\Generated_Source\PSoC5/CyDmac.c **** *******************************************************************************/
  40:.\Generated_Source\PSoC5/CyDmac.c **** static uint8  CyDmaTdCurrentNumber = CY_DMA_NUMBEROF_TDS;           /* Current Number of free eleme
  41:.\Generated_Source\PSoC5/CyDmac.c **** static uint8  CyDmaTdFreeIndex = (uint8)(CY_DMA_NUMBEROF_TDS - 1u); /* Index of first available TD 
  42:.\Generated_Source\PSoC5/CyDmac.c **** static uint32 CyDmaChannels = DMA_CHANNELS_USED__MASK0;              /* Bit map of DMA channel owne
  43:.\Generated_Source\PSoC5/CyDmac.c **** 
  44:.\Generated_Source\PSoC5/CyDmac.c **** 
  45:.\Generated_Source\PSoC5/CyDmac.c **** /*******************************************************************************
  46:.\Generated_Source\PSoC5/CyDmac.c **** * Function Name: CyDmacConfigure
  47:.\Generated_Source\PSoC5/CyDmac.c **** ********************************************************************************
  48:.\Generated_Source\PSoC5/CyDmac.c **** *
  49:.\Generated_Source\PSoC5/CyDmac.c **** * Summary:
  50:.\Generated_Source\PSoC5/CyDmac.c **** *  Creates a linked list of all the TDs to be allocated. This function is called
  51:.\Generated_Source\PSoC5/CyDmac.c **** *  by the startup code; you do not normally need to call it. You can call this
  52:.\Generated_Source\PSoC5/CyDmac.c **** *  function if all of the DMA channels are inactive.
  53:.\Generated_Source\PSoC5/CyDmac.c **** *
  54:.\Generated_Source\PSoC5/CyDmac.c **** * Parameters:
  55:.\Generated_Source\PSoC5/CyDmac.c **** *  None
  56:.\Generated_Source\PSoC5/CyDmac.c **** *
  57:.\Generated_Source\PSoC5/CyDmac.c **** * Return:
  58:.\Generated_Source\PSoC5/CyDmac.c **** *  None
  59:.\Generated_Source\PSoC5/CyDmac.c **** *
  60:.\Generated_Source\PSoC5/CyDmac.c **** *******************************************************************************/
  61:.\Generated_Source\PSoC5/CyDmac.c **** void CyDmacConfigure(void) 
  62:.\Generated_Source\PSoC5/CyDmac.c **** {
  27              		.loc 1 62 0
  28              		.cfi_startproc
  29              		@ args = 0, pretend = 0, frame = 0
  30              		@ frame_needed = 0, uses_anonymous_args = 0
  31              		@ link register save eliminated.
  63:.\Generated_Source\PSoC5/CyDmac.c ****     uint8 dmaIndex;
  64:.\Generated_Source\PSoC5/CyDmac.c **** 
  65:.\Generated_Source\PSoC5/CyDmac.c ****     /* Set TD list variables. */
  66:.\Generated_Source\PSoC5/CyDmac.c ****     CyDmaTdFreeIndex     = (uint8)(CY_DMA_NUMBEROF_TDS - 1u);
  32              		.loc 1 66 0
  33 0000 074A     		ldr	r2, .L5
  34 0002 7F23     		movs	r3, #127
  67:.\Generated_Source\PSoC5/CyDmac.c ****     CyDmaTdCurrentNumber = CY_DMA_NUMBEROF_TDS;
  35              		.loc 1 67 0
  36 0004 8021     		movs	r1, #128
  66:.\Generated_Source\PSoC5/CyDmac.c ****     CyDmaTdCurrentNumber = CY_DMA_NUMBEROF_TDS;
  37              		.loc 1 66 0
  38 0006 1370     		strb	r3, [r2]
  39              		.loc 1 67 0
  40 0008 5170     		strb	r1, [r2, #1]
  41              	.LVL0:
  42 000a 064A     		ldr	r2, .L5+4
  43              	.LVL1:
  44              	.L2:
  68:.\Generated_Source\PSoC5/CyDmac.c **** 
  69:.\Generated_Source\PSoC5/CyDmac.c ****     /* Make TD free list. */
ARM GAS  C:\Users\mjphi\AppData\Local\Temp\ccQ4lVkA.s 			page 3


  70:.\Generated_Source\PSoC5/CyDmac.c ****     for(dmaIndex = (uint8)(CY_DMA_NUMBEROF_TDS - 1u); dmaIndex != 0u; dmaIndex--)
  71:.\Generated_Source\PSoC5/CyDmac.c ****     {
  72:.\Generated_Source\PSoC5/CyDmac.c ****         CY_DMA_TDMEM_STRUCT_PTR[dmaIndex].TD0[0u] = (uint8)(dmaIndex - 1u);
  45              		.loc 1 72 0 discriminator 3
  46 000c 013B     		subs	r3, r3, #1
  47              	.LVL2:
  48 000e DBB2     		uxtb	r3, r3
  49 0010 02F80839 		strb	r3, [r2], #-8
  50              	.LVL3:
  70:.\Generated_Source\PSoC5/CyDmac.c ****     {
  51              		.loc 1 70 0 discriminator 3
  52 0014 002B     		cmp	r3, #0
  53 0016 F9D1     		bne	.L2
  73:.\Generated_Source\PSoC5/CyDmac.c ****     }
  74:.\Generated_Source\PSoC5/CyDmac.c **** 
  75:.\Generated_Source\PSoC5/CyDmac.c ****     /* Make last one point to zero. */
  76:.\Generated_Source\PSoC5/CyDmac.c ****     CY_DMA_TDMEM_STRUCT_PTR[dmaIndex].TD0[0u] = 0u;
  54              		.loc 1 76 0
  55 0018 034A     		ldr	r2, .L5+8
  56 001a 1370     		strb	r3, [r2]
  57 001c 7047     		bx	lr
  58              	.L6:
  59 001e 00BF     		.align	2
  60              	.L5:
  61 0020 00000000 		.word	.LANCHOR0
  62 0024 F87B0040 		.word	1073773560
  63 0028 00780040 		.word	1073772544
  64              		.cfi_endproc
  65              	.LFE0:
  66              		.size	CyDmacConfigure, .-CyDmacConfigure
  67              		.section	.text.CyDmacError,"ax",%progbits
  68              		.align	1
  69              		.global	CyDmacError
  70              		.thumb
  71              		.thumb_func
  72              		.type	CyDmacError, %function
  73              	CyDmacError:
  74              	.LFB1:
  77:.\Generated_Source\PSoC5/CyDmac.c **** }
  78:.\Generated_Source\PSoC5/CyDmac.c **** 
  79:.\Generated_Source\PSoC5/CyDmac.c **** 
  80:.\Generated_Source\PSoC5/CyDmac.c **** /*******************************************************************************
  81:.\Generated_Source\PSoC5/CyDmac.c **** * Function Name: CyDmacError
  82:.\Generated_Source\PSoC5/CyDmac.c **** ********************************************************************************
  83:.\Generated_Source\PSoC5/CyDmac.c **** *
  84:.\Generated_Source\PSoC5/CyDmac.c **** * Summary:
  85:.\Generated_Source\PSoC5/CyDmac.c **** *  Returns errors of the last failed DMA transaction.
  86:.\Generated_Source\PSoC5/CyDmac.c **** *
  87:.\Generated_Source\PSoC5/CyDmac.c **** * Parameters:
  88:.\Generated_Source\PSoC5/CyDmac.c **** *  None
  89:.\Generated_Source\PSoC5/CyDmac.c **** *
  90:.\Generated_Source\PSoC5/CyDmac.c **** * Return:
  91:.\Generated_Source\PSoC5/CyDmac.c **** *  Errors of the last failed DMA transaction.
  92:.\Generated_Source\PSoC5/CyDmac.c **** *
  93:.\Generated_Source\PSoC5/CyDmac.c **** *  DMAC_PERIPH_ERR:
  94:.\Generated_Source\PSoC5/CyDmac.c **** *   Set to 1 when a peripheral responds to a bus transaction with an error
  95:.\Generated_Source\PSoC5/CyDmac.c **** *   response.
ARM GAS  C:\Users\mjphi\AppData\Local\Temp\ccQ4lVkA.s 			page 4


  96:.\Generated_Source\PSoC5/CyDmac.c **** *
  97:.\Generated_Source\PSoC5/CyDmac.c **** *  DMAC_UNPOP_ACC:
  98:.\Generated_Source\PSoC5/CyDmac.c **** *   Set to 1 when an access is attempted to an invalid address.
  99:.\Generated_Source\PSoC5/CyDmac.c **** *
 100:.\Generated_Source\PSoC5/CyDmac.c **** *  DMAC_BUS_TIMEOUT:
 101:.\Generated_Source\PSoC5/CyDmac.c **** *   Set to 1 when a bus timeout occurs. Cleared by writing a 1. Timeout values
 102:.\Generated_Source\PSoC5/CyDmac.c **** *   are determined by the BUS_TIMEOUT field in the PHUBCFG register.
 103:.\Generated_Source\PSoC5/CyDmac.c **** *
 104:.\Generated_Source\PSoC5/CyDmac.c **** * Theory:
 105:.\Generated_Source\PSoC5/CyDmac.c **** *  Once an error occurs the error bits are sticky and are only cleared by
 106:.\Generated_Source\PSoC5/CyDmac.c **** *  writing 1 to the error register.
 107:.\Generated_Source\PSoC5/CyDmac.c **** *
 108:.\Generated_Source\PSoC5/CyDmac.c **** *******************************************************************************/
 109:.\Generated_Source\PSoC5/CyDmac.c **** uint8 CyDmacError(void) 
 110:.\Generated_Source\PSoC5/CyDmac.c **** {
  75              		.loc 1 110 0
  76              		.cfi_startproc
  77              		@ args = 0, pretend = 0, frame = 0
  78              		@ frame_needed = 0, uses_anonymous_args = 0
  79              		@ link register save eliminated.
 111:.\Generated_Source\PSoC5/CyDmac.c ****     return((uint8)(((uint32) 0x0Eu) & *CY_DMA_ERR_PTR));
  80              		.loc 1 111 0
  81 0000 024B     		ldr	r3, .L8
  82 0002 1868     		ldr	r0, [r3]
 112:.\Generated_Source\PSoC5/CyDmac.c **** }
  83              		.loc 1 112 0
  84 0004 00F00E00 		and	r0, r0, #14
  85 0008 7047     		bx	lr
  86              	.L9:
  87 000a 00BF     		.align	2
  88              	.L8:
  89 000c 04700040 		.word	1073770500
  90              		.cfi_endproc
  91              	.LFE1:
  92              		.size	CyDmacError, .-CyDmacError
  93              		.section	.text.CyDmacClearError,"ax",%progbits
  94              		.align	1
  95              		.global	CyDmacClearError
  96              		.thumb
  97              		.thumb_func
  98              		.type	CyDmacClearError, %function
  99              	CyDmacClearError:
 100              	.LFB2:
 113:.\Generated_Source\PSoC5/CyDmac.c **** 
 114:.\Generated_Source\PSoC5/CyDmac.c **** 
 115:.\Generated_Source\PSoC5/CyDmac.c **** /*******************************************************************************
 116:.\Generated_Source\PSoC5/CyDmac.c **** * Function Name: CyDmacClearError
 117:.\Generated_Source\PSoC5/CyDmac.c **** ********************************************************************************
 118:.\Generated_Source\PSoC5/CyDmac.c **** *
 119:.\Generated_Source\PSoC5/CyDmac.c **** * Summary:
 120:.\Generated_Source\PSoC5/CyDmac.c **** *  Clears the error bits in the error register of the DMAC.
 121:.\Generated_Source\PSoC5/CyDmac.c **** *
 122:.\Generated_Source\PSoC5/CyDmac.c **** * Parameters:
 123:.\Generated_Source\PSoC5/CyDmac.c **** * error:
 124:.\Generated_Source\PSoC5/CyDmac.c **** *   Clears the error bits in the DMAC error register.
 125:.\Generated_Source\PSoC5/CyDmac.c **** *
 126:.\Generated_Source\PSoC5/CyDmac.c **** *  DMAC_PERIPH_ERR:
ARM GAS  C:\Users\mjphi\AppData\Local\Temp\ccQ4lVkA.s 			page 5


 127:.\Generated_Source\PSoC5/CyDmac.c **** *   Set to 1 when a peripheral responds to a bus transaction with an error
 128:.\Generated_Source\PSoC5/CyDmac.c **** *   response.
 129:.\Generated_Source\PSoC5/CyDmac.c **** *
 130:.\Generated_Source\PSoC5/CyDmac.c **** *  DMAC_UNPOP_ACC:
 131:.\Generated_Source\PSoC5/CyDmac.c **** *   Set to 1 when an access is attempted to an invalid address.
 132:.\Generated_Source\PSoC5/CyDmac.c **** *
 133:.\Generated_Source\PSoC5/CyDmac.c **** *  DMAC_BUS_TIMEOUT:
 134:.\Generated_Source\PSoC5/CyDmac.c **** *   Set to 1 when a bus timeout occurs. Cleared by writing 1. Timeout values
 135:.\Generated_Source\PSoC5/CyDmac.c **** *   are determined by the BUS_TIMEOUT field in the PHUBCFG register.
 136:.\Generated_Source\PSoC5/CyDmac.c **** *
 137:.\Generated_Source\PSoC5/CyDmac.c **** * Return:
 138:.\Generated_Source\PSoC5/CyDmac.c **** *  None
 139:.\Generated_Source\PSoC5/CyDmac.c **** *
 140:.\Generated_Source\PSoC5/CyDmac.c **** * Theory:
 141:.\Generated_Source\PSoC5/CyDmac.c **** *  Once an error occurs the error bits are sticky and are only cleared by
 142:.\Generated_Source\PSoC5/CyDmac.c **** *  writing 1 to the error register.
 143:.\Generated_Source\PSoC5/CyDmac.c **** *
 144:.\Generated_Source\PSoC5/CyDmac.c **** *******************************************************************************/
 145:.\Generated_Source\PSoC5/CyDmac.c **** void CyDmacClearError(uint8 error) 
 146:.\Generated_Source\PSoC5/CyDmac.c **** {
 101              		.loc 1 146 0
 102              		.cfi_startproc
 103              		@ args = 0, pretend = 0, frame = 0
 104              		@ frame_needed = 0, uses_anonymous_args = 0
 105              		@ link register save eliminated.
 106              	.LVL4:
 147:.\Generated_Source\PSoC5/CyDmac.c ****     *CY_DMA_ERR_PTR = (((uint32)0x0Fu) & ((uint32)error));
 107              		.loc 1 147 0
 108 0000 024B     		ldr	r3, .L11
 109 0002 00F00F00 		and	r0, r0, #15
 110              	.LVL5:
 111 0006 1860     		str	r0, [r3]
 112 0008 7047     		bx	lr
 113              	.L12:
 114 000a 00BF     		.align	2
 115              	.L11:
 116 000c 04700040 		.word	1073770500
 117              		.cfi_endproc
 118              	.LFE2:
 119              		.size	CyDmacClearError, .-CyDmacClearError
 120              		.section	.text.CyDmacErrorAddress,"ax",%progbits
 121              		.align	1
 122              		.global	CyDmacErrorAddress
 123              		.thumb
 124              		.thumb_func
 125              		.type	CyDmacErrorAddress, %function
 126              	CyDmacErrorAddress:
 127              	.LFB3:
 148:.\Generated_Source\PSoC5/CyDmac.c **** }
 149:.\Generated_Source\PSoC5/CyDmac.c **** 
 150:.\Generated_Source\PSoC5/CyDmac.c **** 
 151:.\Generated_Source\PSoC5/CyDmac.c **** /*******************************************************************************
 152:.\Generated_Source\PSoC5/CyDmac.c **** * Function Name: CyDmacErrorAddress
 153:.\Generated_Source\PSoC5/CyDmac.c **** ********************************************************************************
 154:.\Generated_Source\PSoC5/CyDmac.c **** *
 155:.\Generated_Source\PSoC5/CyDmac.c **** * Summary:
 156:.\Generated_Source\PSoC5/CyDmac.c **** *  When DMAC_BUS_TIMEOUT, DMAC_UNPOP_ACC, and DMAC_PERIPH_ERR occur the
ARM GAS  C:\Users\mjphi\AppData\Local\Temp\ccQ4lVkA.s 			page 6


 157:.\Generated_Source\PSoC5/CyDmac.c **** *  address of the error is written to the error address register and can be read
 158:.\Generated_Source\PSoC5/CyDmac.c **** *  with this function.
 159:.\Generated_Source\PSoC5/CyDmac.c **** *
 160:.\Generated_Source\PSoC5/CyDmac.c **** *  If there are multiple errors, only the address of the first is saved.
 161:.\Generated_Source\PSoC5/CyDmac.c **** *
 162:.\Generated_Source\PSoC5/CyDmac.c **** * Parameters:
 163:.\Generated_Source\PSoC5/CyDmac.c **** *  None
 164:.\Generated_Source\PSoC5/CyDmac.c **** *
 165:.\Generated_Source\PSoC5/CyDmac.c **** * Return:
 166:.\Generated_Source\PSoC5/CyDmac.c **** *  The address that caused the error.
 167:.\Generated_Source\PSoC5/CyDmac.c **** *
 168:.\Generated_Source\PSoC5/CyDmac.c **** *******************************************************************************/
 169:.\Generated_Source\PSoC5/CyDmac.c **** uint32 CyDmacErrorAddress(void) 
 170:.\Generated_Source\PSoC5/CyDmac.c **** {
 128              		.loc 1 170 0
 129              		.cfi_startproc
 130              		@ args = 0, pretend = 0, frame = 0
 131              		@ frame_needed = 0, uses_anonymous_args = 0
 132              		@ link register save eliminated.
 171:.\Generated_Source\PSoC5/CyDmac.c ****     return(CY_GET_REG32(CY_DMA_ERR_ADR_PTR));
 133              		.loc 1 171 0
 134 0000 014B     		ldr	r3, .L14
 135 0002 1868     		ldr	r0, [r3]
 172:.\Generated_Source\PSoC5/CyDmac.c **** }
 136              		.loc 1 172 0
 137 0004 7047     		bx	lr
 138              	.L15:
 139 0006 00BF     		.align	2
 140              	.L14:
 141 0008 08700040 		.word	1073770504
 142              		.cfi_endproc
 143              	.LFE3:
 144              		.size	CyDmacErrorAddress, .-CyDmacErrorAddress
 145              		.section	.text.CyDmaChAlloc,"ax",%progbits
 146              		.align	1
 147              		.global	CyDmaChAlloc
 148              		.thumb
 149              		.thumb_func
 150              		.type	CyDmaChAlloc, %function
 151              	CyDmaChAlloc:
 152              	.LFB4:
 173:.\Generated_Source\PSoC5/CyDmac.c **** 
 174:.\Generated_Source\PSoC5/CyDmac.c **** 
 175:.\Generated_Source\PSoC5/CyDmac.c **** /*******************************************************************************
 176:.\Generated_Source\PSoC5/CyDmac.c **** * Function Name: CyDmaChAlloc
 177:.\Generated_Source\PSoC5/CyDmac.c **** ********************************************************************************
 178:.\Generated_Source\PSoC5/CyDmac.c **** *
 179:.\Generated_Source\PSoC5/CyDmac.c **** * Summary:
 180:.\Generated_Source\PSoC5/CyDmac.c **** *  Allocates a channel from the DMAC to be used in all functions that require a
 181:.\Generated_Source\PSoC5/CyDmac.c **** *  channel handle.
 182:.\Generated_Source\PSoC5/CyDmac.c **** *
 183:.\Generated_Source\PSoC5/CyDmac.c **** * Parameters:
 184:.\Generated_Source\PSoC5/CyDmac.c **** *  None
 185:.\Generated_Source\PSoC5/CyDmac.c **** *
 186:.\Generated_Source\PSoC5/CyDmac.c **** * Return:
 187:.\Generated_Source\PSoC5/CyDmac.c **** *  The allocated channel number. Zero is a valid channel number.
 188:.\Generated_Source\PSoC5/CyDmac.c **** *  DMA_INVALID_CHANNEL is returned if there are no channels available.
ARM GAS  C:\Users\mjphi\AppData\Local\Temp\ccQ4lVkA.s 			page 7


 189:.\Generated_Source\PSoC5/CyDmac.c **** *
 190:.\Generated_Source\PSoC5/CyDmac.c **** *******************************************************************************/
 191:.\Generated_Source\PSoC5/CyDmac.c **** uint8 CyDmaChAlloc(void) 
 192:.\Generated_Source\PSoC5/CyDmac.c **** {
 153              		.loc 1 192 0
 154              		.cfi_startproc
 155              		@ args = 0, pretend = 0, frame = 0
 156              		@ frame_needed = 0, uses_anonymous_args = 0
 157              	.LVL6:
 158 0000 38B5     		push	{r3, r4, r5, lr}
 159              		.cfi_def_cfa_offset 16
 160              		.cfi_offset 3, -16
 161              		.cfi_offset 4, -12
 162              		.cfi_offset 5, -8
 163              		.cfi_offset 14, -4
 193:.\Generated_Source\PSoC5/CyDmac.c ****     uint8 interruptState;
 194:.\Generated_Source\PSoC5/CyDmac.c ****     uint8 dmaIndex;
 195:.\Generated_Source\PSoC5/CyDmac.c ****     uint32 channel = 1u;
 196:.\Generated_Source\PSoC5/CyDmac.c **** 
 197:.\Generated_Source\PSoC5/CyDmac.c **** 
 198:.\Generated_Source\PSoC5/CyDmac.c ****     /* Enter critical section! */
 199:.\Generated_Source\PSoC5/CyDmac.c ****     interruptState = CyEnterCriticalSection();
 164              		.loc 1 199 0
 165 0002 FFF7FEFF 		bl	CyEnterCriticalSection
 166              	.LVL7:
 200:.\Generated_Source\PSoC5/CyDmac.c **** 
 201:.\Generated_Source\PSoC5/CyDmac.c ****     /* Look for free channel. */
 202:.\Generated_Source\PSoC5/CyDmac.c ****     for(dmaIndex = 0u; dmaIndex < CY_DMA_NUMBEROF_CHANNELS; dmaIndex++)
 203:.\Generated_Source\PSoC5/CyDmac.c ****     {
 204:.\Generated_Source\PSoC5/CyDmac.c ****         if(0uL == (CyDmaChannels & channel))
 167              		.loc 1 204 0
 168 0006 0A49     		ldr	r1, .L21
 169 0008 0022     		movs	r2, #0
 170 000a 0D68     		ldr	r5, [r1]
 195:.\Generated_Source\PSoC5/CyDmac.c **** 
 171              		.loc 1 195 0
 172 000c 0123     		movs	r3, #1
 173              	.LVL8:
 174              	.L19:
 175              		.loc 1 204 0
 176 000e 2B42     		tst	r3, r5
 177 0010 D4B2     		uxtb	r4, r2
 178              	.LVL9:
 179 0012 02D1     		bne	.L17
 205:.\Generated_Source\PSoC5/CyDmac.c ****         {
 206:.\Generated_Source\PSoC5/CyDmac.c ****             /* Mark channel as used. */
 207:.\Generated_Source\PSoC5/CyDmac.c ****             CyDmaChannels |= channel;
 180              		.loc 1 207 0
 181 0014 2B43     		orrs	r3, r3, r5
 182              	.LVL10:
 183 0016 0B60     		str	r3, [r1]
 184 0018 05E0     		b	.L18
 185              	.LVL11:
 186              	.L17:
 187 001a 0132     		adds	r2, r2, #1
 202:.\Generated_Source\PSoC5/CyDmac.c ****     {
 188              		.loc 1 202 0 discriminator 2
ARM GAS  C:\Users\mjphi\AppData\Local\Temp\ccQ4lVkA.s 			page 8


 189 001c 182A     		cmp	r2, #24
 208:.\Generated_Source\PSoC5/CyDmac.c ****             break;
 209:.\Generated_Source\PSoC5/CyDmac.c ****         }
 210:.\Generated_Source\PSoC5/CyDmac.c **** 
 211:.\Generated_Source\PSoC5/CyDmac.c ****         channel <<= 1u;
 190              		.loc 1 211 0 discriminator 2
 191 001e 4FEA4303 		lsl	r3, r3, #1
 192              	.LVL12:
 202:.\Generated_Source\PSoC5/CyDmac.c ****     {
 193              		.loc 1 202 0 discriminator 2
 194 0022 F4D1     		bne	.L19
 212:.\Generated_Source\PSoC5/CyDmac.c ****     }
 213:.\Generated_Source\PSoC5/CyDmac.c **** 
 214:.\Generated_Source\PSoC5/CyDmac.c ****     if(dmaIndex >= CY_DMA_NUMBEROF_CHANNELS)
 215:.\Generated_Source\PSoC5/CyDmac.c ****     {
 216:.\Generated_Source\PSoC5/CyDmac.c ****         dmaIndex = CY_DMA_INVALID_CHANNEL;
 195              		.loc 1 216 0
 196 0024 FF24     		movs	r4, #255
 197              	.LVL13:
 198              	.L18:
 217:.\Generated_Source\PSoC5/CyDmac.c ****     }
 218:.\Generated_Source\PSoC5/CyDmac.c **** 
 219:.\Generated_Source\PSoC5/CyDmac.c ****     /* Exit critical section! */
 220:.\Generated_Source\PSoC5/CyDmac.c ****     CyExitCriticalSection(interruptState);
 199              		.loc 1 220 0
 200 0026 FFF7FEFF 		bl	CyExitCriticalSection
 201              	.LVL14:
 221:.\Generated_Source\PSoC5/CyDmac.c **** 
 222:.\Generated_Source\PSoC5/CyDmac.c ****     return(dmaIndex);
 223:.\Generated_Source\PSoC5/CyDmac.c **** }
 202              		.loc 1 223 0
 203 002a 2046     		mov	r0, r4
 204 002c 38BD     		pop	{r3, r4, r5, pc}
 205              	.LVL15:
 206              	.L22:
 207 002e 00BF     		.align	2
 208              	.L21:
 209 0030 00000000 		.word	.LANCHOR1
 210              		.cfi_endproc
 211              	.LFE4:
 212              		.size	CyDmaChAlloc, .-CyDmaChAlloc
 213              		.section	.text.CyDmaChFree,"ax",%progbits
 214              		.align	1
 215              		.global	CyDmaChFree
 216              		.thumb
 217              		.thumb_func
 218              		.type	CyDmaChFree, %function
 219              	CyDmaChFree:
 220              	.LFB5:
 224:.\Generated_Source\PSoC5/CyDmac.c **** 
 225:.\Generated_Source\PSoC5/CyDmac.c **** 
 226:.\Generated_Source\PSoC5/CyDmac.c **** /*******************************************************************************
 227:.\Generated_Source\PSoC5/CyDmac.c **** * Function Name: CyDmaChFree
 228:.\Generated_Source\PSoC5/CyDmac.c **** ********************************************************************************
 229:.\Generated_Source\PSoC5/CyDmac.c **** *
 230:.\Generated_Source\PSoC5/CyDmac.c **** * Summary:
 231:.\Generated_Source\PSoC5/CyDmac.c **** *  Frees a channel allocated by DmaChAlloc().
ARM GAS  C:\Users\mjphi\AppData\Local\Temp\ccQ4lVkA.s 			page 9


 232:.\Generated_Source\PSoC5/CyDmac.c **** *
 233:.\Generated_Source\PSoC5/CyDmac.c **** * Parameters:
 234:.\Generated_Source\PSoC5/CyDmac.c **** *  uint8 chHandle:
 235:.\Generated_Source\PSoC5/CyDmac.c **** *   The handle previously returned by CyDmaChAlloc() or DMA_DmaInitalize().
 236:.\Generated_Source\PSoC5/CyDmac.c **** *
 237:.\Generated_Source\PSoC5/CyDmac.c **** * Return:
 238:.\Generated_Source\PSoC5/CyDmac.c **** *  CYRET_SUCCESS if successful.
 239:.\Generated_Source\PSoC5/CyDmac.c **** *  CYRET_BAD_PARAM if chHandle is invalid.
 240:.\Generated_Source\PSoC5/CyDmac.c **** *
 241:.\Generated_Source\PSoC5/CyDmac.c **** *******************************************************************************/
 242:.\Generated_Source\PSoC5/CyDmac.c **** cystatus CyDmaChFree(uint8 chHandle) 
 243:.\Generated_Source\PSoC5/CyDmac.c **** {
 221              		.loc 1 243 0
 222              		.cfi_startproc
 223              		@ args = 0, pretend = 0, frame = 0
 224              		@ frame_needed = 0, uses_anonymous_args = 0
 225              	.LVL16:
 244:.\Generated_Source\PSoC5/CyDmac.c ****     cystatus status = CYRET_BAD_PARAM;
 245:.\Generated_Source\PSoC5/CyDmac.c ****     uint8 interruptState;
 246:.\Generated_Source\PSoC5/CyDmac.c **** 
 247:.\Generated_Source\PSoC5/CyDmac.c ****     if(chHandle < CY_DMA_NUMBEROF_CHANNELS)
 226              		.loc 1 247 0
 227 0000 1728     		cmp	r0, #23
 243:.\Generated_Source\PSoC5/CyDmac.c ****     cystatus status = CYRET_BAD_PARAM;
 228              		.loc 1 243 0
 229 0002 38B5     		push	{r3, r4, r5, lr}
 230              		.cfi_def_cfa_offset 16
 231              		.cfi_offset 3, -16
 232              		.cfi_offset 4, -12
 233              		.cfi_offset 5, -8
 234              		.cfi_offset 14, -4
 243:.\Generated_Source\PSoC5/CyDmac.c ****     cystatus status = CYRET_BAD_PARAM;
 235              		.loc 1 243 0
 236 0004 0546     		mov	r5, r0
 237 0006 4FF00104 		mov	r4, #1
 238              		.loc 1 247 0
 239 000a 0BD8     		bhi	.L25
 248:.\Generated_Source\PSoC5/CyDmac.c ****     {
 249:.\Generated_Source\PSoC5/CyDmac.c ****         /* Enter critical section */
 250:.\Generated_Source\PSoC5/CyDmac.c ****         interruptState = CyEnterCriticalSection();
 240              		.loc 1 250 0
 241 000c FFF7FEFF 		bl	CyEnterCriticalSection
 242              	.LVL17:
 251:.\Generated_Source\PSoC5/CyDmac.c **** 
 252:.\Generated_Source\PSoC5/CyDmac.c ****         /* Clear bit mask that keeps track of ownership. */
 253:.\Generated_Source\PSoC5/CyDmac.c ****         CyDmaChannels &= ~(((uint32) 1u) << chHandle);
 243              		.loc 1 253 0
 244 0010 054A     		ldr	r2, .L26
 245 0012 AC40     		lsls	r4, r4, r5
 246 0014 1368     		ldr	r3, [r2]
 247 0016 23EA0404 		bic	r4, r3, r4
 248 001a 1460     		str	r4, [r2]
 254:.\Generated_Source\PSoC5/CyDmac.c **** 
 255:.\Generated_Source\PSoC5/CyDmac.c ****         /* Exit critical section */
 256:.\Generated_Source\PSoC5/CyDmac.c ****         CyExitCriticalSection(interruptState);
 249              		.loc 1 256 0
 250 001c FFF7FEFF 		bl	CyExitCriticalSection
ARM GAS  C:\Users\mjphi\AppData\Local\Temp\ccQ4lVkA.s 			page 10


 251              	.LVL18:
 257:.\Generated_Source\PSoC5/CyDmac.c ****         status = CYRET_SUCCESS;
 252              		.loc 1 257 0
 253 0020 0020     		movs	r0, #0
 254 0022 38BD     		pop	{r3, r4, r5, pc}
 255              	.LVL19:
 256              	.L25:
 244:.\Generated_Source\PSoC5/CyDmac.c ****     uint8 interruptState;
 257              		.loc 1 244 0
 258 0024 2046     		mov	r0, r4
 259              	.LVL20:
 258:.\Generated_Source\PSoC5/CyDmac.c ****     }
 259:.\Generated_Source\PSoC5/CyDmac.c **** 
 260:.\Generated_Source\PSoC5/CyDmac.c ****     return(status);
 261:.\Generated_Source\PSoC5/CyDmac.c **** }
 260              		.loc 1 261 0
 261 0026 38BD     		pop	{r3, r4, r5, pc}
 262              	.L27:
 263              		.align	2
 264              	.L26:
 265 0028 00000000 		.word	.LANCHOR1
 266              		.cfi_endproc
 267              	.LFE5:
 268              		.size	CyDmaChFree, .-CyDmaChFree
 269              		.section	.text.CyDmaChEnable,"ax",%progbits
 270              		.align	1
 271              		.global	CyDmaChEnable
 272              		.thumb
 273              		.thumb_func
 274              		.type	CyDmaChEnable, %function
 275              	CyDmaChEnable:
 276              	.LFB6:
 262:.\Generated_Source\PSoC5/CyDmac.c **** 
 263:.\Generated_Source\PSoC5/CyDmac.c **** 
 264:.\Generated_Source\PSoC5/CyDmac.c **** /*******************************************************************************
 265:.\Generated_Source\PSoC5/CyDmac.c **** * Function Name: CyDmaChEnable
 266:.\Generated_Source\PSoC5/CyDmac.c **** ********************************************************************************
 267:.\Generated_Source\PSoC5/CyDmac.c **** *
 268:.\Generated_Source\PSoC5/CyDmac.c **** * Summary:
 269:.\Generated_Source\PSoC5/CyDmac.c **** *  Enables the DMA channel. A software or hardware request still must happen
 270:.\Generated_Source\PSoC5/CyDmac.c **** *  before the channel is executed.
 271:.\Generated_Source\PSoC5/CyDmac.c **** *
 272:.\Generated_Source\PSoC5/CyDmac.c **** * Parameters:
 273:.\Generated_Source\PSoC5/CyDmac.c **** *  uint8 chHandle:
 274:.\Generated_Source\PSoC5/CyDmac.c **** *   A handle previously returned by CyDmaChAlloc() or DMA_DmaInitalize().
 275:.\Generated_Source\PSoC5/CyDmac.c **** *
 276:.\Generated_Source\PSoC5/CyDmac.c **** *  uint8 preserveTds:
 277:.\Generated_Source\PSoC5/CyDmac.c **** *   Preserves the original TD state when the TD has completed. This parameter
 278:.\Generated_Source\PSoC5/CyDmac.c **** *   applies to all TDs in the channel.
 279:.\Generated_Source\PSoC5/CyDmac.c **** *
 280:.\Generated_Source\PSoC5/CyDmac.c **** *   0 - When TD is completed, the DMAC leaves the TD configuration values in
 281:.\Generated_Source\PSoC5/CyDmac.c **** *   their current state, and does not restore them to their original state.
 282:.\Generated_Source\PSoC5/CyDmac.c **** *
 283:.\Generated_Source\PSoC5/CyDmac.c **** *   1 - When TD is completed, the DMAC restores the original configuration
 284:.\Generated_Source\PSoC5/CyDmac.c **** *   values of the TD.
 285:.\Generated_Source\PSoC5/CyDmac.c **** *
 286:.\Generated_Source\PSoC5/CyDmac.c **** *  When preserveTds is set, the TD slot that equals the channel number becomes
ARM GAS  C:\Users\mjphi\AppData\Local\Temp\ccQ4lVkA.s 			page 11


 287:.\Generated_Source\PSoC5/CyDmac.c **** *  RESERVED and that becomes where the working registers exist. So, for example,
 288:.\Generated_Source\PSoC5/CyDmac.c **** *  if you are using CH06 and preserveTds is set, you are not allowed to use TD
 289:.\Generated_Source\PSoC5/CyDmac.c **** *  slot 6. That is reclaimed by the DMA engine for its private use.
 290:.\Generated_Source\PSoC5/CyDmac.c **** *
 291:.\Generated_Source\PSoC5/CyDmac.c **** *  Note Do not chain back to a completed TD if the preserveTds for the channel
 292:.\Generated_Source\PSoC5/CyDmac.c **** *  is set to 0. When a TD has completed preserveTds for the channel set to 0,
 293:.\Generated_Source\PSoC5/CyDmac.c **** *  the transfer count will be at 0. If a TD with a transfer count of 0 is
 294:.\Generated_Source\PSoC5/CyDmac.c **** *  started, the TD will transfer an indefinite amount of data.
 295:.\Generated_Source\PSoC5/CyDmac.c **** *
 296:.\Generated_Source\PSoC5/CyDmac.c **** *  Take extra precautions when using the hardware request (DRQ) option when the
 297:.\Generated_Source\PSoC5/CyDmac.c **** *  preserveTds is set to 0, as you might be requesting the wrong data.
 298:.\Generated_Source\PSoC5/CyDmac.c **** *
 299:.\Generated_Source\PSoC5/CyDmac.c **** * Return:
 300:.\Generated_Source\PSoC5/CyDmac.c **** *  CYRET_SUCCESS if successful.
 301:.\Generated_Source\PSoC5/CyDmac.c **** *  CYRET_BAD_PARAM if chHandle is invalid.
 302:.\Generated_Source\PSoC5/CyDmac.c **** *
 303:.\Generated_Source\PSoC5/CyDmac.c **** *******************************************************************************/
 304:.\Generated_Source\PSoC5/CyDmac.c **** cystatus CyDmaChEnable(uint8 chHandle, uint8 preserveTds) 
 305:.\Generated_Source\PSoC5/CyDmac.c **** {
 277              		.loc 1 305 0
 278              		.cfi_startproc
 279              		@ args = 0, pretend = 0, frame = 0
 280              		@ frame_needed = 0, uses_anonymous_args = 0
 281              		@ link register save eliminated.
 282              	.LVL21:
 306:.\Generated_Source\PSoC5/CyDmac.c ****     cystatus status = CYRET_BAD_PARAM;
 307:.\Generated_Source\PSoC5/CyDmac.c **** 
 308:.\Generated_Source\PSoC5/CyDmac.c ****     if(chHandle < CY_DMA_NUMBEROF_CHANNELS)
 283              		.loc 1 308 0
 284 0000 1728     		cmp	r0, #23
 285 0002 0FD8     		bhi	.L32
 286 0004 084B     		ldr	r3, .L34
 287 0006 0001     		lsls	r0, r0, #4
 288              	.LVL22:
 309:.\Generated_Source\PSoC5/CyDmac.c ****     {
 310:.\Generated_Source\PSoC5/CyDmac.c ****         if (0u != preserveTds)
 311:.\Generated_Source\PSoC5/CyDmac.c ****         {
 312:.\Generated_Source\PSoC5/CyDmac.c ****             /* Store intermediate TD states separately in CHn_SEP_TD0/1 to
 313:.\Generated_Source\PSoC5/CyDmac.c ****             *  preserve original TD chain
 314:.\Generated_Source\PSoC5/CyDmac.c ****             */
 315:.\Generated_Source\PSoC5/CyDmac.c ****             CY_DMA_CH_STRUCT_PTR[chHandle].basic_cfg[0u] |= CY_DMA_CH_BASIC_CFG_WORK_SEP;
 289              		.loc 1 315 0
 290 0008 C25C     		ldrb	r2, [r0, r3]	@ zero_extendqisi2
 310:.\Generated_Source\PSoC5/CyDmac.c ****         {
 291              		.loc 1 310 0
 292 000a 11B1     		cbz	r1, .L30
 293              		.loc 1 315 0
 294 000c 42F02002 		orr	r2, r2, #32
 295 0010 01E0     		b	.L33
 296              	.L30:
 316:.\Generated_Source\PSoC5/CyDmac.c ****         }
 317:.\Generated_Source\PSoC5/CyDmac.c ****         else
 318:.\Generated_Source\PSoC5/CyDmac.c ****         {
 319:.\Generated_Source\PSoC5/CyDmac.c ****             /* Store intermediate and final TD states on top of original TD chain */
 320:.\Generated_Source\PSoC5/CyDmac.c ****             CY_DMA_CH_STRUCT_PTR[chHandle].basic_cfg[0u] &= (uint8)(~CY_DMA_CH_BASIC_CFG_WORK_SEP);
 297              		.loc 1 320 0
 298 0012 02F0DF02 		and	r2, r2, #223
ARM GAS  C:\Users\mjphi\AppData\Local\Temp\ccQ4lVkA.s 			page 12


 299              	.L33:
 300 0016 C254     		strb	r2, [r0, r3]
 321:.\Generated_Source\PSoC5/CyDmac.c ****         }
 322:.\Generated_Source\PSoC5/CyDmac.c **** 
 323:.\Generated_Source\PSoC5/CyDmac.c ****         /* Enable channel */
 324:.\Generated_Source\PSoC5/CyDmac.c ****         CY_DMA_CH_STRUCT_PTR[chHandle].basic_cfg[0u] |= CY_DMA_CH_BASIC_CFG_EN;
 301              		.loc 1 324 0
 302 0018 C25C     		ldrb	r2, [r0, r3]	@ zero_extendqisi2
 303 001a 42F00102 		orr	r2, r2, #1
 304 001e C254     		strb	r2, [r0, r3]
 305              	.LVL23:
 325:.\Generated_Source\PSoC5/CyDmac.c **** 
 326:.\Generated_Source\PSoC5/CyDmac.c ****         status = CYRET_SUCCESS;
 306              		.loc 1 326 0
 307 0020 0020     		movs	r0, #0
 308 0022 7047     		bx	lr
 309              	.LVL24:
 310              	.L32:
 306:.\Generated_Source\PSoC5/CyDmac.c **** 
 311              		.loc 1 306 0
 312 0024 0120     		movs	r0, #1
 313              	.LVL25:
 327:.\Generated_Source\PSoC5/CyDmac.c ****     }
 328:.\Generated_Source\PSoC5/CyDmac.c **** 
 329:.\Generated_Source\PSoC5/CyDmac.c ****     return(status);
 330:.\Generated_Source\PSoC5/CyDmac.c **** }
 314              		.loc 1 330 0
 315 0026 7047     		bx	lr
 316              	.L35:
 317              		.align	2
 318              	.L34:
 319 0028 10700040 		.word	1073770512
 320              		.cfi_endproc
 321              	.LFE6:
 322              		.size	CyDmaChEnable, .-CyDmaChEnable
 323              		.section	.text.CyDmaChDisable,"ax",%progbits
 324              		.align	1
 325              		.global	CyDmaChDisable
 326              		.thumb
 327              		.thumb_func
 328              		.type	CyDmaChDisable, %function
 329              	CyDmaChDisable:
 330              	.LFB7:
 331:.\Generated_Source\PSoC5/CyDmac.c **** 
 332:.\Generated_Source\PSoC5/CyDmac.c **** 
 333:.\Generated_Source\PSoC5/CyDmac.c **** /*******************************************************************************
 334:.\Generated_Source\PSoC5/CyDmac.c **** * Function Name: CyDmaChDisable
 335:.\Generated_Source\PSoC5/CyDmac.c **** ********************************************************************************
 336:.\Generated_Source\PSoC5/CyDmac.c **** *
 337:.\Generated_Source\PSoC5/CyDmac.c **** * Summary:
 338:.\Generated_Source\PSoC5/CyDmac.c **** *  Disables the DMA channel. Once this function is called, CyDmaChStatus() may
 339:.\Generated_Source\PSoC5/CyDmac.c **** *  be called to determine when the channel is disabled and which TDs were being
 340:.\Generated_Source\PSoC5/CyDmac.c **** *  executed.
 341:.\Generated_Source\PSoC5/CyDmac.c **** *
 342:.\Generated_Source\PSoC5/CyDmac.c **** *  If it is currently executing it will allow the current burst to finish
 343:.\Generated_Source\PSoC5/CyDmac.c **** *  naturally.
 344:.\Generated_Source\PSoC5/CyDmac.c **** *
ARM GAS  C:\Users\mjphi\AppData\Local\Temp\ccQ4lVkA.s 			page 13


 345:.\Generated_Source\PSoC5/CyDmac.c **** * Parameters:
 346:.\Generated_Source\PSoC5/CyDmac.c **** *  uint8 chHandle:
 347:.\Generated_Source\PSoC5/CyDmac.c **** *   A handle previously returned by CyDmaChAlloc() or DMA_DmaInitalize().
 348:.\Generated_Source\PSoC5/CyDmac.c **** *
 349:.\Generated_Source\PSoC5/CyDmac.c **** * Return:
 350:.\Generated_Source\PSoC5/CyDmac.c **** *  CYRET_SUCCESS if successful.
 351:.\Generated_Source\PSoC5/CyDmac.c **** *  CYRET_BAD_PARAM if chHandle is invalid.
 352:.\Generated_Source\PSoC5/CyDmac.c **** *
 353:.\Generated_Source\PSoC5/CyDmac.c **** *******************************************************************************/
 354:.\Generated_Source\PSoC5/CyDmac.c **** cystatus CyDmaChDisable(uint8 chHandle) 
 355:.\Generated_Source\PSoC5/CyDmac.c **** {
 331              		.loc 1 355 0
 332              		.cfi_startproc
 333              		@ args = 0, pretend = 0, frame = 0
 334              		@ frame_needed = 0, uses_anonymous_args = 0
 335              		@ link register save eliminated.
 336              	.LVL26:
 356:.\Generated_Source\PSoC5/CyDmac.c ****     cystatus status = CYRET_BAD_PARAM;
 357:.\Generated_Source\PSoC5/CyDmac.c **** 
 358:.\Generated_Source\PSoC5/CyDmac.c ****     if(chHandle < CY_DMA_NUMBEROF_CHANNELS)
 337              		.loc 1 358 0
 338 0000 1728     		cmp	r0, #23
 359:.\Generated_Source\PSoC5/CyDmac.c ****     {
 360:.\Generated_Source\PSoC5/CyDmac.c ****         /***********************************************************************
 361:.\Generated_Source\PSoC5/CyDmac.c ****         * Should not change configuration information of a DMA channel when it
 362:.\Generated_Source\PSoC5/CyDmac.c ****         * is active (or vulnerable to becoming active).
 363:.\Generated_Source\PSoC5/CyDmac.c ****         ***********************************************************************/
 364:.\Generated_Source\PSoC5/CyDmac.c **** 
 365:.\Generated_Source\PSoC5/CyDmac.c ****         /* Disable channel */
 366:.\Generated_Source\PSoC5/CyDmac.c ****         CY_DMA_CH_STRUCT_PTR[chHandle].basic_cfg[0] &= ((uint8) (~CY_DMA_CH_BASIC_CFG_EN));
 339              		.loc 1 366 0
 340 0002 9FBF     		itttt	ls
 341 0004 074B     		ldrls	r3, .L39
 342 0006 0001     		lslls	r0, r0, #4
 343              	.LVL27:
 344 0008 C25C     		ldrbls	r2, [r0, r3]	@ zero_extendqisi2
 345 000a 02F0FE02 		andls	r2, r2, #254
 346 000e 9FBF     		itttt	ls
 347 0010 C254     		strbls	r2, [r0, r3]
 367:.\Generated_Source\PSoC5/CyDmac.c **** 
 368:.\Generated_Source\PSoC5/CyDmac.c ****         /* Store intermediate and final TD states on top of original TD chain */
 369:.\Generated_Source\PSoC5/CyDmac.c ****         CY_DMA_CH_STRUCT_PTR[chHandle].basic_cfg[0] &= ((uint8) (~CY_DMA_CH_BASIC_CFG_WORK_SEP));
 348              		.loc 1 369 0
 349 0012 C25C     		ldrbls	r2, [r0, r3]	@ zero_extendqisi2
 350 0014 02F0DF02 		andls	r2, r2, #223
 351 0018 C254     		strbls	r2, [r0, r3]
 352              	.LVL28:
 370:.\Generated_Source\PSoC5/CyDmac.c ****         status = CYRET_SUCCESS;
 353              		.loc 1 370 0
 354 001a 94BF     		ite	ls
 355 001c 0020     		movls	r0, #0
 356:.\Generated_Source\PSoC5/CyDmac.c **** 
 356              		.loc 1 356 0
 357 001e 0120     		movhi	r0, #1
 358              	.LVL29:
 371:.\Generated_Source\PSoC5/CyDmac.c ****     }
 372:.\Generated_Source\PSoC5/CyDmac.c **** 
ARM GAS  C:\Users\mjphi\AppData\Local\Temp\ccQ4lVkA.s 			page 14


 373:.\Generated_Source\PSoC5/CyDmac.c ****     return(status);
 374:.\Generated_Source\PSoC5/CyDmac.c **** }
 359              		.loc 1 374 0
 360 0020 7047     		bx	lr
 361              	.L40:
 362 0022 00BF     		.align	2
 363              	.L39:
 364 0024 10700040 		.word	1073770512
 365              		.cfi_endproc
 366              	.LFE7:
 367              		.size	CyDmaChDisable, .-CyDmaChDisable
 368              		.section	.text.CyDmaClearPendingDrq,"ax",%progbits
 369              		.align	1
 370              		.global	CyDmaClearPendingDrq
 371              		.thumb
 372              		.thumb_func
 373              		.type	CyDmaClearPendingDrq, %function
 374              	CyDmaClearPendingDrq:
 375              	.LFB8:
 375:.\Generated_Source\PSoC5/CyDmac.c **** 
 376:.\Generated_Source\PSoC5/CyDmac.c **** 
 377:.\Generated_Source\PSoC5/CyDmac.c **** /*******************************************************************************
 378:.\Generated_Source\PSoC5/CyDmac.c **** * Function Name: CyDmaClearPendingDrq
 379:.\Generated_Source\PSoC5/CyDmac.c **** ********************************************************************************
 380:.\Generated_Source\PSoC5/CyDmac.c **** *
 381:.\Generated_Source\PSoC5/CyDmac.c **** * Summary:
 382:.\Generated_Source\PSoC5/CyDmac.c **** *  Clears pending the DMA data request.
 383:.\Generated_Source\PSoC5/CyDmac.c **** *
 384:.\Generated_Source\PSoC5/CyDmac.c **** * Parameters:
 385:.\Generated_Source\PSoC5/CyDmac.c **** *  uint8 chHandle:
 386:.\Generated_Source\PSoC5/CyDmac.c **** *   Handle to the dma channel.
 387:.\Generated_Source\PSoC5/CyDmac.c **** *
 388:.\Generated_Source\PSoC5/CyDmac.c **** * Return:
 389:.\Generated_Source\PSoC5/CyDmac.c **** *  CYRET_SUCCESS if successful.
 390:.\Generated_Source\PSoC5/CyDmac.c **** *  CYRET_BAD_PARAM if chHandle is invalid.
 391:.\Generated_Source\PSoC5/CyDmac.c **** *
 392:.\Generated_Source\PSoC5/CyDmac.c **** *******************************************************************************/
 393:.\Generated_Source\PSoC5/CyDmac.c **** cystatus CyDmaClearPendingDrq(uint8 chHandle) 
 394:.\Generated_Source\PSoC5/CyDmac.c **** {
 376              		.loc 1 394 0
 377              		.cfi_startproc
 378              		@ args = 0, pretend = 0, frame = 0
 379              		@ frame_needed = 0, uses_anonymous_args = 0
 380              		@ link register save eliminated.
 381              	.LVL30:
 395:.\Generated_Source\PSoC5/CyDmac.c ****     cystatus status = CYRET_BAD_PARAM;
 396:.\Generated_Source\PSoC5/CyDmac.c **** 
 397:.\Generated_Source\PSoC5/CyDmac.c ****     if(chHandle < CY_DMA_NUMBEROF_CHANNELS)
 382              		.loc 1 397 0
 383 0000 1728     		cmp	r0, #23
 398:.\Generated_Source\PSoC5/CyDmac.c ****     {
 399:.\Generated_Source\PSoC5/CyDmac.c ****         CY_DMA_CH_STRUCT_PTR[chHandle].action[0] |= CY_DMA_CPU_TERM_CHAIN;
 384              		.loc 1 399 0
 385 0002 9FBF     		itttt	ls
 386 0004 0849     		ldrls	r1, .L44
 387 0006 0001     		lslls	r0, r0, #4
 388              	.LVL31:
ARM GAS  C:\Users\mjphi\AppData\Local\Temp\ccQ4lVkA.s 			page 15


 389 0008 0B46     		movls	r3, r1
 390 000a 1B18     		addls	r3, r3, r0
 391 000c 9FBF     		itttt	ls
 392 000e 1A79     		ldrbls	r2, [r3, #4]	@ zero_extendqisi2
 393 0010 42F00402 		orrls	r2, r2, #4
 394 0014 1A71     		strbls	r2, [r3, #4]
 400:.\Generated_Source\PSoC5/CyDmac.c ****         CY_DMA_CH_STRUCT_PTR[chHandle].basic_cfg[0] |= 0x01u;
 395              		.loc 1 400 0
 396 0016 435C     		ldrbls	r3, [r0, r1]	@ zero_extendqisi2
 397 0018 9DBF     		ittte	ls
 398 001a 43F00103 		orrls	r3, r3, #1
 399 001e 4354     		strbls	r3, [r0, r1]
 400              	.LVL32:
 401:.\Generated_Source\PSoC5/CyDmac.c ****         status = CYRET_SUCCESS;
 401              		.loc 1 401 0
 402 0020 0020     		movls	r0, #0
 395:.\Generated_Source\PSoC5/CyDmac.c **** 
 403              		.loc 1 395 0
 404 0022 0120     		movhi	r0, #1
 405              	.LVL33:
 402:.\Generated_Source\PSoC5/CyDmac.c ****     }
 403:.\Generated_Source\PSoC5/CyDmac.c **** 
 404:.\Generated_Source\PSoC5/CyDmac.c ****     return(status);
 405:.\Generated_Source\PSoC5/CyDmac.c **** }
 406              		.loc 1 405 0
 407 0024 7047     		bx	lr
 408              	.L45:
 409 0026 00BF     		.align	2
 410              	.L44:
 411 0028 10700040 		.word	1073770512
 412              		.cfi_endproc
 413              	.LFE8:
 414              		.size	CyDmaClearPendingDrq, .-CyDmaClearPendingDrq
 415              		.section	.text.CyDmaChPriority,"ax",%progbits
 416              		.align	1
 417              		.global	CyDmaChPriority
 418              		.thumb
 419              		.thumb_func
 420              		.type	CyDmaChPriority, %function
 421              	CyDmaChPriority:
 422              	.LFB9:
 406:.\Generated_Source\PSoC5/CyDmac.c **** 
 407:.\Generated_Source\PSoC5/CyDmac.c **** 
 408:.\Generated_Source\PSoC5/CyDmac.c **** /*******************************************************************************
 409:.\Generated_Source\PSoC5/CyDmac.c **** * Function Name: CyDmaChPriority
 410:.\Generated_Source\PSoC5/CyDmac.c **** ********************************************************************************
 411:.\Generated_Source\PSoC5/CyDmac.c **** *
 412:.\Generated_Source\PSoC5/CyDmac.c **** * Summary:
 413:.\Generated_Source\PSoC5/CyDmac.c **** *  Sets the priority of a DMA channel. You can use this function when you want
 414:.\Generated_Source\PSoC5/CyDmac.c **** *  to change the priority at run time. If the priority remains the same for a
 415:.\Generated_Source\PSoC5/CyDmac.c **** *  DMA channel, then you can configure the priority in the .cydwr file.
 416:.\Generated_Source\PSoC5/CyDmac.c **** *
 417:.\Generated_Source\PSoC5/CyDmac.c **** * Parameters:
 418:.\Generated_Source\PSoC5/CyDmac.c **** *  uint8 chHandle:
 419:.\Generated_Source\PSoC5/CyDmac.c **** *   A handle previously returned by CyDmaChAlloc() or DMA_DmaInitalize().
 420:.\Generated_Source\PSoC5/CyDmac.c **** *
 421:.\Generated_Source\PSoC5/CyDmac.c **** *  uint8 priority:
ARM GAS  C:\Users\mjphi\AppData\Local\Temp\ccQ4lVkA.s 			page 16


 422:.\Generated_Source\PSoC5/CyDmac.c **** *   Priority to set the channel to, 0 - 7.
 423:.\Generated_Source\PSoC5/CyDmac.c **** *
 424:.\Generated_Source\PSoC5/CyDmac.c **** * Return:
 425:.\Generated_Source\PSoC5/CyDmac.c **** *  CYRET_SUCCESS if successful.
 426:.\Generated_Source\PSoC5/CyDmac.c **** *  CYRET_BAD_PARAM if chHandle is invalid.
 427:.\Generated_Source\PSoC5/CyDmac.c **** *
 428:.\Generated_Source\PSoC5/CyDmac.c **** *******************************************************************************/
 429:.\Generated_Source\PSoC5/CyDmac.c **** cystatus CyDmaChPriority(uint8 chHandle, uint8 priority) 
 430:.\Generated_Source\PSoC5/CyDmac.c **** {
 423              		.loc 1 430 0
 424              		.cfi_startproc
 425              		@ args = 0, pretend = 0, frame = 0
 426              		@ frame_needed = 0, uses_anonymous_args = 0
 427              		@ link register save eliminated.
 428              	.LVL34:
 431:.\Generated_Source\PSoC5/CyDmac.c ****     uint8 value;
 432:.\Generated_Source\PSoC5/CyDmac.c ****     cystatus status = CYRET_BAD_PARAM;
 433:.\Generated_Source\PSoC5/CyDmac.c **** 
 434:.\Generated_Source\PSoC5/CyDmac.c ****     if(chHandle < CY_DMA_NUMBEROF_CHANNELS)
 429              		.loc 1 434 0
 430 0000 1728     		cmp	r0, #23
 435:.\Generated_Source\PSoC5/CyDmac.c ****     {
 436:.\Generated_Source\PSoC5/CyDmac.c ****         value = CY_DMA_CH_STRUCT_PTR[chHandle].basic_cfg[0u] & ((uint8)(~(0x0Eu)));
 431              		.loc 1 436 0
 432 0002 9FBF     		itttt	ls
 433 0004 074A     		ldrls	r2, .L49
 434 0006 0001     		lslls	r0, r0, #4
 435              	.LVL35:
 436 0008 835C     		ldrbls	r3, [r0, r2]	@ zero_extendqisi2
 437              	.LVL36:
 437:.\Generated_Source\PSoC5/CyDmac.c **** 
 438:.\Generated_Source\PSoC5/CyDmac.c ****         CY_DMA_CH_STRUCT_PTR[chHandle].basic_cfg[0u] = value | ((uint8) ((priority & 0x7u) << 0x01u
 438              		.loc 1 438 0
 439 000a 01F00701 		andls	r1, r1, #7
 440              	.LVL37:
 436:.\Generated_Source\PSoC5/CyDmac.c **** 
 441              		.loc 1 436 0
 442 000e 9FBF     		itttt	ls
 443 0010 03F0F103 		andls	r3, r3, #241
 444              	.LVL38:
 445              		.loc 1 438 0
 446 0014 43EA4101 		orrls	r1, r3, r1, lsl #1
 447 0018 8154     		strbls	r1, [r0, r2]
 448              	.LVL39:
 439:.\Generated_Source\PSoC5/CyDmac.c **** 
 440:.\Generated_Source\PSoC5/CyDmac.c ****         status = CYRET_SUCCESS;
 449              		.loc 1 440 0
 450 001a 0020     		movls	r0, #0
 432:.\Generated_Source\PSoC5/CyDmac.c **** 
 451              		.loc 1 432 0
 452 001c 88BF     		it	hi
 453 001e 0120     		movhi	r0, #1
 454              	.LVL40:
 441:.\Generated_Source\PSoC5/CyDmac.c ****     }
 442:.\Generated_Source\PSoC5/CyDmac.c **** 
 443:.\Generated_Source\PSoC5/CyDmac.c ****     return(status);
 444:.\Generated_Source\PSoC5/CyDmac.c **** }
ARM GAS  C:\Users\mjphi\AppData\Local\Temp\ccQ4lVkA.s 			page 17


 455              		.loc 1 444 0
 456 0020 7047     		bx	lr
 457              	.L50:
 458 0022 00BF     		.align	2
 459              	.L49:
 460 0024 10700040 		.word	1073770512
 461              		.cfi_endproc
 462              	.LFE9:
 463              		.size	CyDmaChPriority, .-CyDmaChPriority
 464              		.section	.text.CyDmaChSetExtendedAddress,"ax",%progbits
 465              		.align	1
 466              		.global	CyDmaChSetExtendedAddress
 467              		.thumb
 468              		.thumb_func
 469              		.type	CyDmaChSetExtendedAddress, %function
 470              	CyDmaChSetExtendedAddress:
 471              	.LFB10:
 445:.\Generated_Source\PSoC5/CyDmac.c **** 
 446:.\Generated_Source\PSoC5/CyDmac.c **** 
 447:.\Generated_Source\PSoC5/CyDmac.c **** /*******************************************************************************
 448:.\Generated_Source\PSoC5/CyDmac.c **** * Function Name: CyDmaChSetExtendedAddress
 449:.\Generated_Source\PSoC5/CyDmac.c **** ********************************************************************************
 450:.\Generated_Source\PSoC5/CyDmac.c **** *
 451:.\Generated_Source\PSoC5/CyDmac.c **** * Summary:
 452:.\Generated_Source\PSoC5/CyDmac.c **** *  Sets the high 16 bits of the source and destination addresses for the DMA
 453:.\Generated_Source\PSoC5/CyDmac.c **** *  channel (valid for all TDs in the chain).
 454:.\Generated_Source\PSoC5/CyDmac.c **** *
 455:.\Generated_Source\PSoC5/CyDmac.c **** * Parameters:
 456:.\Generated_Source\PSoC5/CyDmac.c **** *  uint8 chHandle:
 457:.\Generated_Source\PSoC5/CyDmac.c **** *   A handle previously returned by CyDmaChAlloc() or DMA_DmaInitalize().
 458:.\Generated_Source\PSoC5/CyDmac.c **** *
 459:.\Generated_Source\PSoC5/CyDmac.c **** *  uint16 source:
 460:.\Generated_Source\PSoC5/CyDmac.c **** *   Upper 16 bit address of the DMA transfer source.
 461:.\Generated_Source\PSoC5/CyDmac.c **** *
 462:.\Generated_Source\PSoC5/CyDmac.c **** *  uint16 destination:
 463:.\Generated_Source\PSoC5/CyDmac.c **** *   Upper 16 bit address of the DMA transfer destination.
 464:.\Generated_Source\PSoC5/CyDmac.c **** *
 465:.\Generated_Source\PSoC5/CyDmac.c **** * Return:
 466:.\Generated_Source\PSoC5/CyDmac.c **** *  CYRET_SUCCESS if successful.
 467:.\Generated_Source\PSoC5/CyDmac.c **** *  CYRET_BAD_PARAM if chHandle is invalid.
 468:.\Generated_Source\PSoC5/CyDmac.c **** *
 469:.\Generated_Source\PSoC5/CyDmac.c **** *******************************************************************************/
 470:.\Generated_Source\PSoC5/CyDmac.c **** cystatus CyDmaChSetExtendedAddress(uint8 chHandle, uint16 source, uint16 destination) \
 471:.\Generated_Source\PSoC5/CyDmac.c ****     
 472:.\Generated_Source\PSoC5/CyDmac.c **** {
 472              		.loc 1 472 0
 473              		.cfi_startproc
 474              		@ args = 0, pretend = 0, frame = 0
 475              		@ frame_needed = 0, uses_anonymous_args = 0
 476              		@ link register save eliminated.
 477              	.LVL41:
 473:.\Generated_Source\PSoC5/CyDmac.c ****     cystatus status = CYRET_BAD_PARAM;
 474:.\Generated_Source\PSoC5/CyDmac.c ****     reg16 *convert;
 475:.\Generated_Source\PSoC5/CyDmac.c **** 
 476:.\Generated_Source\PSoC5/CyDmac.c ****     #if(CY_PSOC5)
 477:.\Generated_Source\PSoC5/CyDmac.c **** 
 478:.\Generated_Source\PSoC5/CyDmac.c ****         /* 0x1FFF8000-0x1FFFFFFF needs to use alias at 0x20008000-0x2000FFFF */
ARM GAS  C:\Users\mjphi\AppData\Local\Temp\ccQ4lVkA.s 			page 18


 479:.\Generated_Source\PSoC5/CyDmac.c ****         if(source == 0x1FFFu)
 478              		.loc 1 479 0
 479 0000 41F6FF73 		movw	r3, #8191
 480:.\Generated_Source\PSoC5/CyDmac.c ****         {
 481:.\Generated_Source\PSoC5/CyDmac.c ****             source = 0x2000u;
 480              		.loc 1 481 0
 481 0004 9942     		cmp	r1, r3
 482 0006 08BF     		it	eq
 483 0008 4FF40051 		moveq	r1, #8192
 484              	.LVL42:
 482:.\Generated_Source\PSoC5/CyDmac.c ****         }
 483:.\Generated_Source\PSoC5/CyDmac.c **** 
 484:.\Generated_Source\PSoC5/CyDmac.c ****         if(destination == 0x1FFFu)
 485:.\Generated_Source\PSoC5/CyDmac.c ****         {
 486:.\Generated_Source\PSoC5/CyDmac.c ****             destination = 0x2000u;
 485              		.loc 1 486 0
 486 000c 9A42     		cmp	r2, r3
 487 000e 08BF     		it	eq
 488 0010 4FF40052 		moveq	r2, #8192
 489              	.LVL43:
 487:.\Generated_Source\PSoC5/CyDmac.c ****         }
 488:.\Generated_Source\PSoC5/CyDmac.c **** 
 489:.\Generated_Source\PSoC5/CyDmac.c ****     #endif  /* (CY_PSOC5) */
 490:.\Generated_Source\PSoC5/CyDmac.c **** 
 491:.\Generated_Source\PSoC5/CyDmac.c **** 
 492:.\Generated_Source\PSoC5/CyDmac.c ****     if(chHandle < CY_DMA_NUMBEROF_CHANNELS)
 490              		.loc 1 492 0
 491 0014 1728     		cmp	r0, #23
 493:.\Generated_Source\PSoC5/CyDmac.c ****     {
 494:.\Generated_Source\PSoC5/CyDmac.c ****         /* Set source address */
 495:.\Generated_Source\PSoC5/CyDmac.c ****         convert = (reg16 *) &CY_DMA_CFGMEM_STRUCT_PTR[chHandle].CFG1[0];
 492              		.loc 1 495 0
 493 0016 9FBF     		itttt	ls
 494 0018 C000     		lslls	r0, r0, #3
 495              	.LVL44:
 496 001a 00F18040 		addls	r0, r0, #1073741824
 497 001e 00F5EC40 		addls	r0, r0, #30208
 498              	.LVL45:
 496:.\Generated_Source\PSoC5/CyDmac.c ****         CY_SET_REG16(convert, source);
 499              		.loc 1 496 0
 500 0022 8180     		strhls	r1, [r0, #4]	@ movhi
 501              	.LVL46:
 497:.\Generated_Source\PSoC5/CyDmac.c **** 
 498:.\Generated_Source\PSoC5/CyDmac.c ****         /* Set destination address */
 499:.\Generated_Source\PSoC5/CyDmac.c ****         convert = (reg16 *) &CY_DMA_CFGMEM_STRUCT_PTR[chHandle].CFG1[2u];
 500:.\Generated_Source\PSoC5/CyDmac.c ****         CY_SET_REG16(convert, destination);
 502              		.loc 1 500 0
 503 0024 9ABF     		itte	ls
 504 0026 C280     		strhls	r2, [r0, #6]	@ movhi
 505              	.LVL47:
 501:.\Generated_Source\PSoC5/CyDmac.c ****         status = CYRET_SUCCESS;
 506              		.loc 1 501 0
 507 0028 0020     		movls	r0, #0
 508              	.LVL48:
 473:.\Generated_Source\PSoC5/CyDmac.c ****     reg16 *convert;
 509              		.loc 1 473 0
 510 002a 0120     		movhi	r0, #1
ARM GAS  C:\Users\mjphi\AppData\Local\Temp\ccQ4lVkA.s 			page 19


 511              	.LVL49:
 502:.\Generated_Source\PSoC5/CyDmac.c ****     }
 503:.\Generated_Source\PSoC5/CyDmac.c **** 
 504:.\Generated_Source\PSoC5/CyDmac.c ****     return(status);
 505:.\Generated_Source\PSoC5/CyDmac.c **** }
 512              		.loc 1 505 0
 513 002c 7047     		bx	lr
 514              		.cfi_endproc
 515              	.LFE10:
 516              		.size	CyDmaChSetExtendedAddress, .-CyDmaChSetExtendedAddress
 517              		.section	.text.CyDmaChSetInitialTd,"ax",%progbits
 518              		.align	1
 519              		.global	CyDmaChSetInitialTd
 520              		.thumb
 521              		.thumb_func
 522              		.type	CyDmaChSetInitialTd, %function
 523              	CyDmaChSetInitialTd:
 524              	.LFB11:
 506:.\Generated_Source\PSoC5/CyDmac.c **** 
 507:.\Generated_Source\PSoC5/CyDmac.c **** 
 508:.\Generated_Source\PSoC5/CyDmac.c **** /*******************************************************************************
 509:.\Generated_Source\PSoC5/CyDmac.c **** * Function Name: CyDmaChSetInitialTd
 510:.\Generated_Source\PSoC5/CyDmac.c **** ********************************************************************************
 511:.\Generated_Source\PSoC5/CyDmac.c **** *
 512:.\Generated_Source\PSoC5/CyDmac.c **** * Summary:
 513:.\Generated_Source\PSoC5/CyDmac.c **** *  Sets the initial TD to be executed for the channel when the CyDmaChEnable()
 514:.\Generated_Source\PSoC5/CyDmac.c **** *  function is called.
 515:.\Generated_Source\PSoC5/CyDmac.c **** *
 516:.\Generated_Source\PSoC5/CyDmac.c **** * Parameters:
 517:.\Generated_Source\PSoC5/CyDmac.c **** *  uint8 chHandle:
 518:.\Generated_Source\PSoC5/CyDmac.c **** *   A handle previously returned by CyDmaChAlloc() or DMA_DmaInitialize().
 519:.\Generated_Source\PSoC5/CyDmac.c **** *
 520:.\Generated_Source\PSoC5/CyDmac.c **** *  uint8 startTd:
 521:.\Generated_Source\PSoC5/CyDmac.c **** *   Set the TD index as the first TD associated with the channel. Zero is
 522:.\Generated_Source\PSoC5/CyDmac.c **** *   a valid TD index.
 523:.\Generated_Source\PSoC5/CyDmac.c **** *
 524:.\Generated_Source\PSoC5/CyDmac.c **** * Return:
 525:.\Generated_Source\PSoC5/CyDmac.c **** *  CYRET_SUCCESS if successful.
 526:.\Generated_Source\PSoC5/CyDmac.c **** *  CYRET_BAD_PARAM if chHandle is invalid.
 527:.\Generated_Source\PSoC5/CyDmac.c **** *
 528:.\Generated_Source\PSoC5/CyDmac.c **** *******************************************************************************/
 529:.\Generated_Source\PSoC5/CyDmac.c **** cystatus CyDmaChSetInitialTd(uint8 chHandle, uint8 startTd) 
 530:.\Generated_Source\PSoC5/CyDmac.c **** {
 525              		.loc 1 530 0
 526              		.cfi_startproc
 527              		@ args = 0, pretend = 0, frame = 0
 528              		@ frame_needed = 0, uses_anonymous_args = 0
 529              		@ link register save eliminated.
 530              	.LVL50:
 531:.\Generated_Source\PSoC5/CyDmac.c ****     cystatus status = CYRET_BAD_PARAM;
 532:.\Generated_Source\PSoC5/CyDmac.c **** 
 533:.\Generated_Source\PSoC5/CyDmac.c ****     if(chHandle < CY_DMA_NUMBEROF_CHANNELS)
 531              		.loc 1 533 0
 532 0000 1728     		cmp	r0, #23
 534:.\Generated_Source\PSoC5/CyDmac.c ****     {
 535:.\Generated_Source\PSoC5/CyDmac.c ****         CY_DMA_CH_STRUCT_PTR[chHandle].basic_status[1u] = startTd;
 533              		.loc 1 535 0
ARM GAS  C:\Users\mjphi\AppData\Local\Temp\ccQ4lVkA.s 			page 20


 534 0002 9FBF     		itttt	ls
 535 0004 034B     		ldrls	r3, .L59
 536 0006 0001     		lslls	r0, r0, #4
 537              	.LVL51:
 538 0008 1954     		strbls	r1, [r3, r0]
 539              	.LVL52:
 536:.\Generated_Source\PSoC5/CyDmac.c ****         status = CYRET_SUCCESS;
 540              		.loc 1 536 0
 541 000a 0020     		movls	r0, #0
 531:.\Generated_Source\PSoC5/CyDmac.c ****     cystatus status = CYRET_BAD_PARAM;
 542              		.loc 1 531 0
 543 000c 88BF     		it	hi
 544 000e 0120     		movhi	r0, #1
 545              	.LVL53:
 537:.\Generated_Source\PSoC5/CyDmac.c ****     }
 538:.\Generated_Source\PSoC5/CyDmac.c **** 
 539:.\Generated_Source\PSoC5/CyDmac.c ****     return(status);
 540:.\Generated_Source\PSoC5/CyDmac.c **** }
 546              		.loc 1 540 0
 547 0010 7047     		bx	lr
 548              	.L60:
 549 0012 00BF     		.align	2
 550              	.L59:
 551 0014 19700040 		.word	1073770521
 552              		.cfi_endproc
 553              	.LFE11:
 554              		.size	CyDmaChSetInitialTd, .-CyDmaChSetInitialTd
 555              		.section	.text.CyDmaChSetRequest,"ax",%progbits
 556              		.align	1
 557              		.global	CyDmaChSetRequest
 558              		.thumb
 559              		.thumb_func
 560              		.type	CyDmaChSetRequest, %function
 561              	CyDmaChSetRequest:
 562              	.LFB12:
 541:.\Generated_Source\PSoC5/CyDmac.c **** 
 542:.\Generated_Source\PSoC5/CyDmac.c **** 
 543:.\Generated_Source\PSoC5/CyDmac.c **** /*******************************************************************************
 544:.\Generated_Source\PSoC5/CyDmac.c **** * Function Name: CyDmaChSetRequest
 545:.\Generated_Source\PSoC5/CyDmac.c **** ********************************************************************************
 546:.\Generated_Source\PSoC5/CyDmac.c **** *
 547:.\Generated_Source\PSoC5/CyDmac.c **** * Summary:
 548:.\Generated_Source\PSoC5/CyDmac.c **** *  Allows the caller to terminate a chain of TDs, terminate one TD, or create a
 549:.\Generated_Source\PSoC5/CyDmac.c **** *  direct request to start the DMA channel.
 550:.\Generated_Source\PSoC5/CyDmac.c **** *
 551:.\Generated_Source\PSoC5/CyDmac.c **** * Parameters:
 552:.\Generated_Source\PSoC5/CyDmac.c **** *  uint8 chHandle:
 553:.\Generated_Source\PSoC5/CyDmac.c **** *   A handle previously returned by CyDmaChAlloc() or DMA_DmaInitalize().
 554:.\Generated_Source\PSoC5/CyDmac.c **** *
 555:.\Generated_Source\PSoC5/CyDmac.c **** *  uint8 request:
 556:.\Generated_Source\PSoC5/CyDmac.c **** *   One of the following constants. Each of the constants is a three-bit value.
 557:.\Generated_Source\PSoC5/CyDmac.c **** *
 558:.\Generated_Source\PSoC5/CyDmac.c **** *   CPU_REQ         - Create a direct request to start the DMA channel
 559:.\Generated_Source\PSoC5/CyDmac.c **** *   CPU_TERM_TD     - Terminate one TD
 560:.\Generated_Source\PSoC5/CyDmac.c **** *   CPU_TERM_CHAIN  - Terminate a chain of TDs
 561:.\Generated_Source\PSoC5/CyDmac.c **** *
 562:.\Generated_Source\PSoC5/CyDmac.c **** * Return:
ARM GAS  C:\Users\mjphi\AppData\Local\Temp\ccQ4lVkA.s 			page 21


 563:.\Generated_Source\PSoC5/CyDmac.c **** *  CYRET_SUCCESS if successful.
 564:.\Generated_Source\PSoC5/CyDmac.c **** *  CYRET_BAD_PARAM if chHandle is invalid.
 565:.\Generated_Source\PSoC5/CyDmac.c **** *
 566:.\Generated_Source\PSoC5/CyDmac.c **** *******************************************************************************/
 567:.\Generated_Source\PSoC5/CyDmac.c **** cystatus CyDmaChSetRequest(uint8 chHandle, uint8 request) 
 568:.\Generated_Source\PSoC5/CyDmac.c **** {
 563              		.loc 1 568 0
 564              		.cfi_startproc
 565              		@ args = 0, pretend = 0, frame = 0
 566              		@ frame_needed = 0, uses_anonymous_args = 0
 567              		@ link register save eliminated.
 568              	.LVL54:
 569:.\Generated_Source\PSoC5/CyDmac.c ****     cystatus status = CYRET_BAD_PARAM;
 570:.\Generated_Source\PSoC5/CyDmac.c **** 
 571:.\Generated_Source\PSoC5/CyDmac.c ****     if(chHandle < CY_DMA_NUMBEROF_CHANNELS)
 569              		.loc 1 571 0
 570 0000 1728     		cmp	r0, #23
 572:.\Generated_Source\PSoC5/CyDmac.c ****     {
 573:.\Generated_Source\PSoC5/CyDmac.c ****         CY_DMA_CH_STRUCT_PTR[chHandle].action[0u] |= (request & (CPU_REQ | CPU_TERM_TD | CPU_TERM_C
 571              		.loc 1 573 0
 572 0002 9FBF     		itttt	ls
 573 0004 054B     		ldrls	r3, .L64
 574 0006 0001     		lslls	r0, r0, #4
 575              	.LVL55:
 576 0008 1A5C     		ldrbls	r2, [r3, r0]	@ zero_extendqisi2
 577 000a 01F00701 		andls	r1, r1, #7
 578              	.LVL56:
 579 000e 9DBF     		ittte	ls
 580 0010 1143     		orrls	r1, r1, r2
 581 0012 1954     		strbls	r1, [r3, r0]
 582              	.LVL57:
 574:.\Generated_Source\PSoC5/CyDmac.c ****         status = CYRET_SUCCESS;
 583              		.loc 1 574 0
 584 0014 0020     		movls	r0, #0
 569:.\Generated_Source\PSoC5/CyDmac.c ****     cystatus status = CYRET_BAD_PARAM;
 585              		.loc 1 569 0
 586 0016 0120     		movhi	r0, #1
 587              	.LVL58:
 575:.\Generated_Source\PSoC5/CyDmac.c ****     }
 576:.\Generated_Source\PSoC5/CyDmac.c **** 
 577:.\Generated_Source\PSoC5/CyDmac.c ****     return(status);
 578:.\Generated_Source\PSoC5/CyDmac.c **** }
 588              		.loc 1 578 0
 589 0018 7047     		bx	lr
 590              	.L65:
 591 001a 00BF     		.align	2
 592              	.L64:
 593 001c 14700040 		.word	1073770516
 594              		.cfi_endproc
 595              	.LFE12:
 596              		.size	CyDmaChSetRequest, .-CyDmaChSetRequest
 597              		.section	.text.CyDmaChGetRequest,"ax",%progbits
 598              		.align	1
 599              		.global	CyDmaChGetRequest
 600              		.thumb
 601              		.thumb_func
 602              		.type	CyDmaChGetRequest, %function
ARM GAS  C:\Users\mjphi\AppData\Local\Temp\ccQ4lVkA.s 			page 22


 603              	CyDmaChGetRequest:
 604              	.LFB13:
 579:.\Generated_Source\PSoC5/CyDmac.c **** 
 580:.\Generated_Source\PSoC5/CyDmac.c **** 
 581:.\Generated_Source\PSoC5/CyDmac.c **** /*******************************************************************************
 582:.\Generated_Source\PSoC5/CyDmac.c **** * Function Name: CyDmaChGetRequest
 583:.\Generated_Source\PSoC5/CyDmac.c **** ********************************************************************************
 584:.\Generated_Source\PSoC5/CyDmac.c **** *
 585:.\Generated_Source\PSoC5/CyDmac.c **** * Summary:
 586:.\Generated_Source\PSoC5/CyDmac.c **** *  This function allows the caller of CyDmaChSetRequest() to determine if the
 587:.\Generated_Source\PSoC5/CyDmac.c **** *  request was completed.
 588:.\Generated_Source\PSoC5/CyDmac.c **** *
 589:.\Generated_Source\PSoC5/CyDmac.c **** * Parameters:
 590:.\Generated_Source\PSoC5/CyDmac.c **** *  uint8 chHandle:
 591:.\Generated_Source\PSoC5/CyDmac.c **** *   A handle previously returned by CyDmaChAlloc() or DMA_DmaInitalize().
 592:.\Generated_Source\PSoC5/CyDmac.c **** *
 593:.\Generated_Source\PSoC5/CyDmac.c **** * Return:
 594:.\Generated_Source\PSoC5/CyDmac.c **** *  Returns a three-bit field, corresponding to the three bits of the request,
 595:.\Generated_Source\PSoC5/CyDmac.c **** *  which describes the state of the previously posted request. If the value is
 596:.\Generated_Source\PSoC5/CyDmac.c **** *  zero, the request was completed. CY_DMA_INVALID_CHANNEL if the handle is
 597:.\Generated_Source\PSoC5/CyDmac.c **** *  invalid.
 598:.\Generated_Source\PSoC5/CyDmac.c **** *
 599:.\Generated_Source\PSoC5/CyDmac.c **** *******************************************************************************/
 600:.\Generated_Source\PSoC5/CyDmac.c **** cystatus CyDmaChGetRequest(uint8 chHandle) 
 601:.\Generated_Source\PSoC5/CyDmac.c **** {
 605              		.loc 1 601 0
 606              		.cfi_startproc
 607              		@ args = 0, pretend = 0, frame = 0
 608              		@ frame_needed = 0, uses_anonymous_args = 0
 609              		@ link register save eliminated.
 610              	.LVL59:
 602:.\Generated_Source\PSoC5/CyDmac.c ****     cystatus status = CY_DMA_INVALID_CHANNEL;
 603:.\Generated_Source\PSoC5/CyDmac.c **** 
 604:.\Generated_Source\PSoC5/CyDmac.c ****     if(chHandle < CY_DMA_NUMBEROF_CHANNELS)
 611              		.loc 1 604 0
 612 0000 1728     		cmp	r0, #23
 605:.\Generated_Source\PSoC5/CyDmac.c ****     {
 606:.\Generated_Source\PSoC5/CyDmac.c ****         status = (cystatus) ((uint32)CY_DMA_CH_STRUCT_PTR[chHandle].action[0u] &
 613              		.loc 1 606 0
 614 0002 9FBF     		itttt	ls
 615 0004 034B     		ldrls	r3, .L69
 616 0006 0001     		lslls	r0, r0, #4
 617              	.LVL60:
 618 0008 185C     		ldrbls	r0, [r3, r0]	@ zero_extendqisi2
 619 000a 00F00700 		andls	r0, r0, #7
 620              	.LVL61:
 602:.\Generated_Source\PSoC5/CyDmac.c ****     cystatus status = CY_DMA_INVALID_CHANNEL;
 621              		.loc 1 602 0
 622 000e 88BF     		it	hi
 623 0010 FF20     		movhi	r0, #255
 624              	.LVL62:
 607:.\Generated_Source\PSoC5/CyDmac.c ****                             (uint32)(CY_DMA_CPU_REQ | CY_DMA_CPU_TERM_TD | CY_DMA_CPU_TERM_CHAIN));
 608:.\Generated_Source\PSoC5/CyDmac.c ****     }
 609:.\Generated_Source\PSoC5/CyDmac.c **** 
 610:.\Generated_Source\PSoC5/CyDmac.c ****     return(status);
 611:.\Generated_Source\PSoC5/CyDmac.c **** }
 625              		.loc 1 611 0
ARM GAS  C:\Users\mjphi\AppData\Local\Temp\ccQ4lVkA.s 			page 23


 626 0012 7047     		bx	lr
 627              	.L70:
 628              		.align	2
 629              	.L69:
 630 0014 14700040 		.word	1073770516
 631              		.cfi_endproc
 632              	.LFE13:
 633              		.size	CyDmaChGetRequest, .-CyDmaChGetRequest
 634              		.section	.text.CyDmaChStatus,"ax",%progbits
 635              		.align	1
 636              		.global	CyDmaChStatus
 637              		.thumb
 638              		.thumb_func
 639              		.type	CyDmaChStatus, %function
 640              	CyDmaChStatus:
 641              	.LFB14:
 612:.\Generated_Source\PSoC5/CyDmac.c **** 
 613:.\Generated_Source\PSoC5/CyDmac.c **** 
 614:.\Generated_Source\PSoC5/CyDmac.c **** /*******************************************************************************
 615:.\Generated_Source\PSoC5/CyDmac.c **** * Function Name: CyDmaChStatus
 616:.\Generated_Source\PSoC5/CyDmac.c **** ********************************************************************************
 617:.\Generated_Source\PSoC5/CyDmac.c **** *
 618:.\Generated_Source\PSoC5/CyDmac.c **** * Summary:
 619:.\Generated_Source\PSoC5/CyDmac.c **** *  Determines the status of the DMA channel.
 620:.\Generated_Source\PSoC5/CyDmac.c **** *
 621:.\Generated_Source\PSoC5/CyDmac.c **** * Parameters:
 622:.\Generated_Source\PSoC5/CyDmac.c **** *  uint8 chHandle:
 623:.\Generated_Source\PSoC5/CyDmac.c **** *   A handle previously returned by CyDmaChAlloc() or DMA_DmaInitalize().
 624:.\Generated_Source\PSoC5/CyDmac.c **** *
 625:.\Generated_Source\PSoC5/CyDmac.c **** *  uint8 * currentTd:
 626:.\Generated_Source\PSoC5/CyDmac.c **** *   The address to store the index of the current TD. Can be NULL if the value
 627:.\Generated_Source\PSoC5/CyDmac.c **** *   is not needed.
 628:.\Generated_Source\PSoC5/CyDmac.c **** *
 629:.\Generated_Source\PSoC5/CyDmac.c **** *  uint8 * state:
 630:.\Generated_Source\PSoC5/CyDmac.c **** *   The address to store the state of the channel. Can be NULL if the value is
 631:.\Generated_Source\PSoC5/CyDmac.c **** *   not needed.
 632:.\Generated_Source\PSoC5/CyDmac.c **** *
 633:.\Generated_Source\PSoC5/CyDmac.c **** *   STATUS_TD_ACTIVE
 634:.\Generated_Source\PSoC5/CyDmac.c **** *    0: Channel is not currently being serviced by DMAC
 635:.\Generated_Source\PSoC5/CyDmac.c **** *    1: Channel is currently being serviced by DMAC
 636:.\Generated_Source\PSoC5/CyDmac.c **** *
 637:.\Generated_Source\PSoC5/CyDmac.c **** *   STATUS_CHAIN_ACTIVE
 638:.\Generated_Source\PSoC5/CyDmac.c **** *    0: TD chain is inactive; either no DMA requests have triggered a new chain
 639:.\Generated_Source\PSoC5/CyDmac.c **** *       or the previous chain has completed.
 640:.\Generated_Source\PSoC5/CyDmac.c **** *    1: TD chain has been triggered by a DMA request
 641:.\Generated_Source\PSoC5/CyDmac.c **** *
 642:.\Generated_Source\PSoC5/CyDmac.c **** * Return:
 643:.\Generated_Source\PSoC5/CyDmac.c **** *  CYRET_SUCCESS if successful.
 644:.\Generated_Source\PSoC5/CyDmac.c **** *  CYRET_BAD_PARAM if chHandle is invalid.
 645:.\Generated_Source\PSoC5/CyDmac.c **** *
 646:.\Generated_Source\PSoC5/CyDmac.c **** * Theory:
 647:.\Generated_Source\PSoC5/CyDmac.c **** *   The caller can check on the activity of the Current TD and the Chain.
 648:.\Generated_Source\PSoC5/CyDmac.c **** *
 649:.\Generated_Source\PSoC5/CyDmac.c **** *******************************************************************************/
 650:.\Generated_Source\PSoC5/CyDmac.c **** cystatus CyDmaChStatus(uint8 chHandle, uint8 * currentTd, uint8 * state) 
 651:.\Generated_Source\PSoC5/CyDmac.c **** {
 642              		.loc 1 651 0
ARM GAS  C:\Users\mjphi\AppData\Local\Temp\ccQ4lVkA.s 			page 24


 643              		.cfi_startproc
 644              		@ args = 0, pretend = 0, frame = 0
 645              		@ frame_needed = 0, uses_anonymous_args = 0
 646              	.LVL63:
 652:.\Generated_Source\PSoC5/CyDmac.c ****     cystatus status = CYRET_BAD_PARAM;
 653:.\Generated_Source\PSoC5/CyDmac.c **** 
 654:.\Generated_Source\PSoC5/CyDmac.c ****     if(chHandle < CY_DMA_NUMBEROF_CHANNELS)
 647              		.loc 1 654 0
 648 0000 1728     		cmp	r0, #23
 651:.\Generated_Source\PSoC5/CyDmac.c ****     cystatus status = CYRET_BAD_PARAM;
 649              		.loc 1 651 0
 650 0002 10B5     		push	{r4, lr}
 651              		.cfi_def_cfa_offset 8
 652              		.cfi_offset 4, -8
 653              		.cfi_offset 14, -4
 654              		.loc 1 654 0
 655 0004 0DD8     		bhi	.L74
 655:.\Generated_Source\PSoC5/CyDmac.c ****     {
 656:.\Generated_Source\PSoC5/CyDmac.c ****         if(NULL != currentTd)
 656              		.loc 1 656 0
 657 0006 29B1     		cbz	r1, .L73
 657:.\Generated_Source\PSoC5/CyDmac.c ****         {
 658:.\Generated_Source\PSoC5/CyDmac.c ****             *currentTd = CY_DMA_CH_STRUCT_PTR[chHandle].basic_status[1] & 0x7Fu;
 658              		.loc 1 658 0
 659 0008 074B     		ldr	r3, .L80
 660 000a 0401     		lsls	r4, r0, #4
 661 000c 1B5D     		ldrb	r3, [r3, r4]	@ zero_extendqisi2
 662 000e 03F07F03 		and	r3, r3, #127
 663 0012 0B70     		strb	r3, [r1]
 664              	.L73:
 659:.\Generated_Source\PSoC5/CyDmac.c ****         }
 660:.\Generated_Source\PSoC5/CyDmac.c **** 
 661:.\Generated_Source\PSoC5/CyDmac.c ****         if(NULL != state)
 665              		.loc 1 661 0
 666 0014 1AB1     		cbz	r2, .L79
 662:.\Generated_Source\PSoC5/CyDmac.c ****         {
 663:.\Generated_Source\PSoC5/CyDmac.c ****             *state= CY_DMA_CH_STRUCT_PTR[chHandle].basic_status[0];
 667              		.loc 1 663 0
 668 0016 054B     		ldr	r3, .L80+4
 669 0018 0001     		lsls	r0, r0, #4
 670              	.LVL64:
 671 001a 1B5C     		ldrb	r3, [r3, r0]	@ zero_extendqisi2
 672 001c 1370     		strb	r3, [r2]
 673              	.L79:
 664:.\Generated_Source\PSoC5/CyDmac.c ****         }
 665:.\Generated_Source\PSoC5/CyDmac.c **** 
 666:.\Generated_Source\PSoC5/CyDmac.c ****         status = CYRET_SUCCESS;
 674              		.loc 1 666 0
 675 001e 0020     		movs	r0, #0
 676 0020 10BD     		pop	{r4, pc}
 677              	.LVL65:
 678              	.L74:
 652:.\Generated_Source\PSoC5/CyDmac.c **** 
 679              		.loc 1 652 0
 680 0022 0120     		movs	r0, #1
 681              	.LVL66:
 682 0024 10BD     		pop	{r4, pc}
ARM GAS  C:\Users\mjphi\AppData\Local\Temp\ccQ4lVkA.s 			page 25


 683              	.L81:
 684 0026 00BF     		.align	2
 685              	.L80:
 686 0028 19700040 		.word	1073770521
 687 002c 18700040 		.word	1073770520
 688              		.cfi_endproc
 689              	.LFE14:
 690              		.size	CyDmaChStatus, .-CyDmaChStatus
 691              		.section	.text.CyDmaChSetConfiguration,"ax",%progbits
 692              		.align	1
 693              		.global	CyDmaChSetConfiguration
 694              		.thumb
 695              		.thumb_func
 696              		.type	CyDmaChSetConfiguration, %function
 697              	CyDmaChSetConfiguration:
 698              	.LFB15:
 667:.\Generated_Source\PSoC5/CyDmac.c ****     }
 668:.\Generated_Source\PSoC5/CyDmac.c **** 
 669:.\Generated_Source\PSoC5/CyDmac.c ****     return (status);
 670:.\Generated_Source\PSoC5/CyDmac.c **** }
 671:.\Generated_Source\PSoC5/CyDmac.c **** 
 672:.\Generated_Source\PSoC5/CyDmac.c **** 
 673:.\Generated_Source\PSoC5/CyDmac.c **** /*******************************************************************************
 674:.\Generated_Source\PSoC5/CyDmac.c **** * Function Name: CyDmaChSetConfiguration
 675:.\Generated_Source\PSoC5/CyDmac.c **** ********************************************************************************
 676:.\Generated_Source\PSoC5/CyDmac.c **** *
 677:.\Generated_Source\PSoC5/CyDmac.c **** * Summary:
 678:.\Generated_Source\PSoC5/CyDmac.c **** * Sets configuration information of the channel.
 679:.\Generated_Source\PSoC5/CyDmac.c **** *
 680:.\Generated_Source\PSoC5/CyDmac.c **** * Parameters:
 681:.\Generated_Source\PSoC5/CyDmac.c **** *  uint8 chHandle:
 682:.\Generated_Source\PSoC5/CyDmac.c **** *   A handle previously returned by CyDmaChAlloc() or DMA_DmaInitialize().
 683:.\Generated_Source\PSoC5/CyDmac.c **** *
 684:.\Generated_Source\PSoC5/CyDmac.c **** *  uint8 burstCount:
 685:.\Generated_Source\PSoC5/CyDmac.c **** *   Specifies the size of bursts (1 to 127) the data transfer should be divided
 686:.\Generated_Source\PSoC5/CyDmac.c **** *   into. If this value is zero then the whole transfer is done in one burst.
 687:.\Generated_Source\PSoC5/CyDmac.c **** *
 688:.\Generated_Source\PSoC5/CyDmac.c **** *  uint8 requestPerBurst:
 689:.\Generated_Source\PSoC5/CyDmac.c **** *   The whole of the data can be split into multiple bursts, if this is
 690:.\Generated_Source\PSoC5/CyDmac.c **** *   required to complete the transaction:
 691:.\Generated_Source\PSoC5/CyDmac.c **** *    0: All subsequent bursts after the first burst will be automatically
 692:.\Generated_Source\PSoC5/CyDmac.c **** *       requested and carried out
 693:.\Generated_Source\PSoC5/CyDmac.c **** *    1: All subsequent bursts after the first burst must also be individually
 694:.\Generated_Source\PSoC5/CyDmac.c **** *       requested.
 695:.\Generated_Source\PSoC5/CyDmac.c **** *
 696:.\Generated_Source\PSoC5/CyDmac.c **** *  uint8 tdDone0:
 697:.\Generated_Source\PSoC5/CyDmac.c **** *   Selects one of the TERMOUT0 interrupt lines to signal completion. The line
 698:.\Generated_Source\PSoC5/CyDmac.c **** *   connected to the nrq terminal will determine the TERMOUT0_SEL definition and
 699:.\Generated_Source\PSoC5/CyDmac.c **** *   should be used as supplied by cyfitter.h
 700:.\Generated_Source\PSoC5/CyDmac.c **** *
 701:.\Generated_Source\PSoC5/CyDmac.c **** *  uint8 tdDone1:
 702:.\Generated_Source\PSoC5/CyDmac.c **** *   Selects one of the TERMOUT1 interrupt lines to signal completion. The line
 703:.\Generated_Source\PSoC5/CyDmac.c **** *   connected to the nrq terminal will determine the TERMOUT1_SEL definition and
 704:.\Generated_Source\PSoC5/CyDmac.c **** *   should be used as supplied by cyfitter.h
 705:.\Generated_Source\PSoC5/CyDmac.c **** *
 706:.\Generated_Source\PSoC5/CyDmac.c **** *  uint8 tdStop:
 707:.\Generated_Source\PSoC5/CyDmac.c **** *   Selects one of the TERMIN interrupt lines to signal to the DMAC that the TD
ARM GAS  C:\Users\mjphi\AppData\Local\Temp\ccQ4lVkA.s 			page 26


 708:.\Generated_Source\PSoC5/CyDmac.c **** *   should terminate. The signal connected to the trq terminal will determine
 709:.\Generated_Source\PSoC5/CyDmac.c **** *   which TERMIN (termination request) is used.
 710:.\Generated_Source\PSoC5/CyDmac.c **** *
 711:.\Generated_Source\PSoC5/CyDmac.c **** * Return:
 712:.\Generated_Source\PSoC5/CyDmac.c **** *  CYRET_SUCCESS if successful.
 713:.\Generated_Source\PSoC5/CyDmac.c **** *  CYRET_BAD_PARAM if chHandle is invalid.
 714:.\Generated_Source\PSoC5/CyDmac.c **** *
 715:.\Generated_Source\PSoC5/CyDmac.c **** *******************************************************************************/
 716:.\Generated_Source\PSoC5/CyDmac.c **** cystatus CyDmaChSetConfiguration(uint8 chHandle, uint8 burstCount, uint8 requestPerBurst,
 717:.\Generated_Source\PSoC5/CyDmac.c ****                                  uint8 tdDone0, uint8 tdDone1, uint8 tdStop) 
 718:.\Generated_Source\PSoC5/CyDmac.c **** {
 699              		.loc 1 718 0
 700              		.cfi_startproc
 701              		@ args = 8, pretend = 0, frame = 0
 702              		@ frame_needed = 0, uses_anonymous_args = 0
 703              	.LVL67:
 719:.\Generated_Source\PSoC5/CyDmac.c ****     cystatus status = CYRET_BAD_PARAM;
 720:.\Generated_Source\PSoC5/CyDmac.c **** 
 721:.\Generated_Source\PSoC5/CyDmac.c ****     if(chHandle < CY_DMA_NUMBEROF_CHANNELS)
 704              		.loc 1 721 0
 705 0000 1728     		cmp	r0, #23
 718:.\Generated_Source\PSoC5/CyDmac.c ****     cystatus status = CYRET_BAD_PARAM;
 706              		.loc 1 718 0
 707 0002 10B5     		push	{r4, lr}
 708              		.cfi_def_cfa_offset 8
 709              		.cfi_offset 4, -8
 710              		.cfi_offset 14, -4
 711              		.loc 1 721 0
 712 0004 1AD8     		bhi	.L84
 722:.\Generated_Source\PSoC5/CyDmac.c ****     {
 723:.\Generated_Source\PSoC5/CyDmac.c ****         CY_DMA_CFGMEM_STRUCT_PTR[chHandle].CFG0[0] = (burstCount & 0x7Fu) | ((uint8)((requestPerBur
 713              		.loc 1 723 0
 714 0006 C000     		lsls	r0, r0, #3
 715              	.LVL68:
 716 0008 01F07F01 		and	r1, r1, #127
 717              	.LVL69:
 718 000c 00F18044 		add	r4, r0, #1073741824
 719 0010 41EAC212 		orr	r2, r1, r2, lsl #7
 720              	.LVL70:
 721 0014 04F5EC44 		add	r4, r4, #30208
 722 0018 D2B2     		uxtb	r2, r2
 723 001a 2270     		strb	r2, [r4]
 724:.\Generated_Source\PSoC5/CyDmac.c ****         CY_DMA_CFGMEM_STRUCT_PTR[chHandle].CFG0[1] = ((uint8)((tdDone1 & 0xFu) << 4u)) | (tdDone0 &
 724              		.loc 1 724 0
 725 001c 9DF80820 		ldrb	r2, [sp, #8]	@ zero_extendqisi2
 726 0020 03F00F03 		and	r3, r3, #15
 727              	.LVL71:
 728 0024 43EA0213 		orr	r3, r3, r2, lsl #4
 729 0028 DBB2     		uxtb	r3, r3
 730 002a 6370     		strb	r3, [r4, #1]
 725:.\Generated_Source\PSoC5/CyDmac.c ****         CY_DMA_CFGMEM_STRUCT_PTR[chHandle].CFG0[2] = 0x0Fu & tdStop;
 731              		.loc 1 725 0
 732 002c 9DF80C30 		ldrb	r3, [sp, #12]	@ zero_extendqisi2
 726:.\Generated_Source\PSoC5/CyDmac.c ****         CY_DMA_CFGMEM_STRUCT_PTR[chHandle].CFG0[3] = 0u; /* burstcount_remain. */
 733              		.loc 1 726 0
 734 0030 0020     		movs	r0, #0
 725:.\Generated_Source\PSoC5/CyDmac.c ****         CY_DMA_CFGMEM_STRUCT_PTR[chHandle].CFG0[2] = 0x0Fu & tdStop;
ARM GAS  C:\Users\mjphi\AppData\Local\Temp\ccQ4lVkA.s 			page 27


 735              		.loc 1 725 0
 736 0032 03F00F03 		and	r3, r3, #15
 737 0036 A370     		strb	r3, [r4, #2]
 738              		.loc 1 726 0
 739 0038 E070     		strb	r0, [r4, #3]
 740              	.LVL72:
 741 003a 10BD     		pop	{r4, pc}
 742              	.LVL73:
 743              	.L84:
 719:.\Generated_Source\PSoC5/CyDmac.c **** 
 744              		.loc 1 719 0
 745 003c 0120     		movs	r0, #1
 746              	.LVL74:
 727:.\Generated_Source\PSoC5/CyDmac.c **** 
 728:.\Generated_Source\PSoC5/CyDmac.c ****         status = CYRET_SUCCESS;
 729:.\Generated_Source\PSoC5/CyDmac.c ****     }
 730:.\Generated_Source\PSoC5/CyDmac.c **** 
 731:.\Generated_Source\PSoC5/CyDmac.c ****     return (status);
 732:.\Generated_Source\PSoC5/CyDmac.c **** }
 747              		.loc 1 732 0
 748 003e 10BD     		pop	{r4, pc}
 749              		.cfi_endproc
 750              	.LFE15:
 751              		.size	CyDmaChSetConfiguration, .-CyDmaChSetConfiguration
 752              		.section	.text.CyDmaTdAllocate,"ax",%progbits
 753              		.align	1
 754              		.global	CyDmaTdAllocate
 755              		.thumb
 756              		.thumb_func
 757              		.type	CyDmaTdAllocate, %function
 758              	CyDmaTdAllocate:
 759              	.LFB16:
 733:.\Generated_Source\PSoC5/CyDmac.c **** 
 734:.\Generated_Source\PSoC5/CyDmac.c **** 
 735:.\Generated_Source\PSoC5/CyDmac.c **** /*******************************************************************************
 736:.\Generated_Source\PSoC5/CyDmac.c **** * Function Name: CyDmaTdAllocate
 737:.\Generated_Source\PSoC5/CyDmac.c **** ********************************************************************************
 738:.\Generated_Source\PSoC5/CyDmac.c **** *
 739:.\Generated_Source\PSoC5/CyDmac.c **** * Summary:
 740:.\Generated_Source\PSoC5/CyDmac.c **** *  Allocates a TD for use with an allocated DMA channel.
 741:.\Generated_Source\PSoC5/CyDmac.c **** *
 742:.\Generated_Source\PSoC5/CyDmac.c **** * Parameters:
 743:.\Generated_Source\PSoC5/CyDmac.c **** *  None
 744:.\Generated_Source\PSoC5/CyDmac.c **** *
 745:.\Generated_Source\PSoC5/CyDmac.c **** * Return:
 746:.\Generated_Source\PSoC5/CyDmac.c **** *  Zero-based index of the TD to be used by the caller. Since there are 128 TDs
 747:.\Generated_Source\PSoC5/CyDmac.c **** *  minus the reserved TDs (0 to 23), the value returned would range from 24 to
 748:.\Generated_Source\PSoC5/CyDmac.c **** *  127 not 24 to 128. DMA_INVALID_TD is returned if there are no free TDs
 749:.\Generated_Source\PSoC5/CyDmac.c **** *  available.
 750:.\Generated_Source\PSoC5/CyDmac.c **** *
 751:.\Generated_Source\PSoC5/CyDmac.c **** *******************************************************************************/
 752:.\Generated_Source\PSoC5/CyDmac.c **** uint8 CyDmaTdAllocate(void) 
 753:.\Generated_Source\PSoC5/CyDmac.c **** {
 760              		.loc 1 753 0
 761              		.cfi_startproc
 762              		@ args = 0, pretend = 0, frame = 0
 763              		@ frame_needed = 0, uses_anonymous_args = 0
ARM GAS  C:\Users\mjphi\AppData\Local\Temp\ccQ4lVkA.s 			page 28


 764              	.LVL75:
 765 0000 10B5     		push	{r4, lr}
 766              		.cfi_def_cfa_offset 8
 767              		.cfi_offset 4, -8
 768              		.cfi_offset 14, -4
 754:.\Generated_Source\PSoC5/CyDmac.c ****     uint8 interruptState;
 755:.\Generated_Source\PSoC5/CyDmac.c ****     uint8 element = CY_DMA_INVALID_TD;
 756:.\Generated_Source\PSoC5/CyDmac.c **** 
 757:.\Generated_Source\PSoC5/CyDmac.c ****     /* Enter critical section! */
 758:.\Generated_Source\PSoC5/CyDmac.c ****     interruptState = CyEnterCriticalSection();
 769              		.loc 1 758 0
 770 0002 FFF7FEFF 		bl	CyEnterCriticalSection
 771              	.LVL76:
 759:.\Generated_Source\PSoC5/CyDmac.c **** 
 760:.\Generated_Source\PSoC5/CyDmac.c ****     if(CyDmaTdCurrentNumber > NUMBEROF_CHANNELS)
 772              		.loc 1 760 0
 773 0006 0B4A     		ldr	r2, .L88
 774 0008 5378     		ldrb	r3, [r2, #1]	@ zero_extendqisi2
 775 000a 182B     		cmp	r3, #24
 761:.\Generated_Source\PSoC5/CyDmac.c ****     {
 762:.\Generated_Source\PSoC5/CyDmac.c ****         /* Get pointer to Next available. */
 763:.\Generated_Source\PSoC5/CyDmac.c ****         element = CyDmaTdFreeIndex;
 776              		.loc 1 763 0
 777 000c 81BF     		itttt	hi
 778 000e 1478     		ldrbhi	r4, [r2]	@ zero_extendqisi2
 779              	.LVL77:
 764:.\Generated_Source\PSoC5/CyDmac.c **** 
 765:.\Generated_Source\PSoC5/CyDmac.c ****         /* Decrement the count. */
 766:.\Generated_Source\PSoC5/CyDmac.c ****         CyDmaTdCurrentNumber--;
 780              		.loc 1 766 0
 781 0010 03F1FF33 		addhi	r3, r3, #-1
 782 0014 5370     		strbhi	r3, [r2, #1]
 767:.\Generated_Source\PSoC5/CyDmac.c **** 
 768:.\Generated_Source\PSoC5/CyDmac.c ****         /* Update next available pointer. */
 769:.\Generated_Source\PSoC5/CyDmac.c ****         CyDmaTdFreeIndex = CY_DMA_TDMEM_STRUCT_PTR[element].TD0[0];
 783              		.loc 1 769 0
 784 0016 E300     		lslhi	r3, r4, #3
 785 0018 83BF     		ittte	hi
 786 001a 03F18043 		addhi	r3, r3, #1073741824
 787 001e 03F5F043 		addhi	r3, r3, #30720
 788 0022 1B78     		ldrbhi	r3, [r3]	@ zero_extendqisi2
 755:.\Generated_Source\PSoC5/CyDmac.c **** 
 789              		.loc 1 755 0
 790 0024 FF24     		movls	r4, #255
 791              	.LVL78:
 792              		.loc 1 769 0
 793 0026 88BF     		it	hi
 794 0028 1370     		strbhi	r3, [r2]
 770:.\Generated_Source\PSoC5/CyDmac.c ****     }
 771:.\Generated_Source\PSoC5/CyDmac.c **** 
 772:.\Generated_Source\PSoC5/CyDmac.c ****     /* Exit critical section! */
 773:.\Generated_Source\PSoC5/CyDmac.c ****     CyExitCriticalSection(interruptState);
 795              		.loc 1 773 0
 796 002a FFF7FEFF 		bl	CyExitCriticalSection
 797              	.LVL79:
 774:.\Generated_Source\PSoC5/CyDmac.c **** 
 775:.\Generated_Source\PSoC5/CyDmac.c ****     return(element);
ARM GAS  C:\Users\mjphi\AppData\Local\Temp\ccQ4lVkA.s 			page 29


 776:.\Generated_Source\PSoC5/CyDmac.c **** }
 798              		.loc 1 776 0
 799 002e 2046     		mov	r0, r4
 800 0030 10BD     		pop	{r4, pc}
 801              	.LVL80:
 802              	.L89:
 803 0032 00BF     		.align	2
 804              	.L88:
 805 0034 00000000 		.word	.LANCHOR0
 806              		.cfi_endproc
 807              	.LFE16:
 808              		.size	CyDmaTdAllocate, .-CyDmaTdAllocate
 809              		.section	.text.CyDmaTdFree,"ax",%progbits
 810              		.align	1
 811              		.global	CyDmaTdFree
 812              		.thumb
 813              		.thumb_func
 814              		.type	CyDmaTdFree, %function
 815              	CyDmaTdFree:
 816              	.LFB17:
 777:.\Generated_Source\PSoC5/CyDmac.c **** 
 778:.\Generated_Source\PSoC5/CyDmac.c **** 
 779:.\Generated_Source\PSoC5/CyDmac.c **** /*******************************************************************************
 780:.\Generated_Source\PSoC5/CyDmac.c **** * Function Name: CyDmaTdFree
 781:.\Generated_Source\PSoC5/CyDmac.c **** ********************************************************************************
 782:.\Generated_Source\PSoC5/CyDmac.c **** *
 783:.\Generated_Source\PSoC5/CyDmac.c **** * Summary:
 784:.\Generated_Source\PSoC5/CyDmac.c **** *  Returns a TD to the free list.
 785:.\Generated_Source\PSoC5/CyDmac.c **** *
 786:.\Generated_Source\PSoC5/CyDmac.c **** * Parameters:
 787:.\Generated_Source\PSoC5/CyDmac.c **** *  uint8 tdHandle:
 788:.\Generated_Source\PSoC5/CyDmac.c **** *   The TD handle returned by the CyDmaTdAllocate().
 789:.\Generated_Source\PSoC5/CyDmac.c **** *
 790:.\Generated_Source\PSoC5/CyDmac.c **** * Return:
 791:.\Generated_Source\PSoC5/CyDmac.c **** *  None
 792:.\Generated_Source\PSoC5/CyDmac.c **** *
 793:.\Generated_Source\PSoC5/CyDmac.c **** *******************************************************************************/
 794:.\Generated_Source\PSoC5/CyDmac.c **** void CyDmaTdFree(uint8 tdHandle) 
 795:.\Generated_Source\PSoC5/CyDmac.c **** {
 817              		.loc 1 795 0
 818              		.cfi_startproc
 819              		@ args = 0, pretend = 0, frame = 0
 820              		@ frame_needed = 0, uses_anonymous_args = 0
 821              	.LVL81:
 796:.\Generated_Source\PSoC5/CyDmac.c ****     if(tdHandle < CY_DMA_NUMBEROF_TDS)
 822              		.loc 1 796 0
 823 0000 0306     		lsls	r3, r0, #24
 795:.\Generated_Source\PSoC5/CyDmac.c ****     if(tdHandle < CY_DMA_NUMBEROF_TDS)
 824              		.loc 1 795 0
 825 0002 10B5     		push	{r4, lr}
 826              		.cfi_def_cfa_offset 8
 827              		.cfi_offset 4, -8
 828              		.cfi_offset 14, -4
 795:.\Generated_Source\PSoC5/CyDmac.c ****     if(tdHandle < CY_DMA_NUMBEROF_TDS)
 829              		.loc 1 795 0
 830 0004 0446     		mov	r4, r0
 831              		.loc 1 796 0
ARM GAS  C:\Users\mjphi\AppData\Local\Temp\ccQ4lVkA.s 			page 30


 832 0006 11D4     		bmi	.L90
 833              	.LBB2:
 797:.\Generated_Source\PSoC5/CyDmac.c ****     {
 798:.\Generated_Source\PSoC5/CyDmac.c ****         /* Enter critical section! */
 799:.\Generated_Source\PSoC5/CyDmac.c ****         uint8 interruptState = CyEnterCriticalSection();
 834              		.loc 1 799 0
 835 0008 FFF7FEFF 		bl	CyEnterCriticalSection
 836              	.LVL82:
 800:.\Generated_Source\PSoC5/CyDmac.c **** 
 801:.\Generated_Source\PSoC5/CyDmac.c ****         /* Get pointer to Next available. */
 802:.\Generated_Source\PSoC5/CyDmac.c ****         CY_DMA_TDMEM_STRUCT_PTR[tdHandle].TD0[0u] = CyDmaTdFreeIndex;
 837              		.loc 1 802 0
 838 000c 084A     		ldr	r2, .L92
 839 000e E300     		lsls	r3, r4, #3
 840 0010 1178     		ldrb	r1, [r2]	@ zero_extendqisi2
 841 0012 03F18043 		add	r3, r3, #1073741824
 842 0016 03F5F043 		add	r3, r3, #30720
 843 001a 1970     		strb	r1, [r3]
 803:.\Generated_Source\PSoC5/CyDmac.c **** 
 804:.\Generated_Source\PSoC5/CyDmac.c ****         /* Set new Next Available. */
 805:.\Generated_Source\PSoC5/CyDmac.c ****         CyDmaTdFreeIndex = tdHandle;
 806:.\Generated_Source\PSoC5/CyDmac.c **** 
 807:.\Generated_Source\PSoC5/CyDmac.c ****         /* Keep track of how many left. */
 808:.\Generated_Source\PSoC5/CyDmac.c ****         CyDmaTdCurrentNumber++;
 844              		.loc 1 808 0
 845 001c 5378     		ldrb	r3, [r2, #1]	@ zero_extendqisi2
 805:.\Generated_Source\PSoC5/CyDmac.c **** 
 846              		.loc 1 805 0
 847 001e 1470     		strb	r4, [r2]
 848              		.loc 1 808 0
 849 0020 0133     		adds	r3, r3, #1
 850 0022 5370     		strb	r3, [r2, #1]
 851              	.LBE2:
 809:.\Generated_Source\PSoC5/CyDmac.c **** 
 810:.\Generated_Source\PSoC5/CyDmac.c ****         /* Exit critical section! */
 811:.\Generated_Source\PSoC5/CyDmac.c ****         CyExitCriticalSection(interruptState);
 812:.\Generated_Source\PSoC5/CyDmac.c ****     }
 813:.\Generated_Source\PSoC5/CyDmac.c **** }
 852              		.loc 1 813 0
 853 0024 BDE81040 		pop	{r4, lr}
 854              		.cfi_remember_state
 855              		.cfi_restore 14
 856              		.cfi_restore 4
 857              		.cfi_def_cfa_offset 0
 858              	.LBB3:
 811:.\Generated_Source\PSoC5/CyDmac.c ****     }
 859              		.loc 1 811 0
 860 0028 FFF7FEBF 		b	CyExitCriticalSection
 861              	.LVL83:
 862              	.L90:
 863              		.cfi_restore_state
 864 002c 10BD     		pop	{r4, pc}
 865              	.L93:
 866 002e 00BF     		.align	2
 867              	.L92:
 868 0030 00000000 		.word	.LANCHOR0
 869              	.LBE3:
ARM GAS  C:\Users\mjphi\AppData\Local\Temp\ccQ4lVkA.s 			page 31


 870              		.cfi_endproc
 871              	.LFE17:
 872              		.size	CyDmaTdFree, .-CyDmaTdFree
 873              		.section	.text.CyDmaTdFreeCount,"ax",%progbits
 874              		.align	1
 875              		.global	CyDmaTdFreeCount
 876              		.thumb
 877              		.thumb_func
 878              		.type	CyDmaTdFreeCount, %function
 879              	CyDmaTdFreeCount:
 880              	.LFB18:
 814:.\Generated_Source\PSoC5/CyDmac.c **** 
 815:.\Generated_Source\PSoC5/CyDmac.c **** 
 816:.\Generated_Source\PSoC5/CyDmac.c **** /*******************************************************************************
 817:.\Generated_Source\PSoC5/CyDmac.c **** * Function Name: CyDmaTdFreeCount
 818:.\Generated_Source\PSoC5/CyDmac.c **** ********************************************************************************
 819:.\Generated_Source\PSoC5/CyDmac.c **** *
 820:.\Generated_Source\PSoC5/CyDmac.c **** * Summary:
 821:.\Generated_Source\PSoC5/CyDmac.c **** *  Returns the number of free TDs available to be allocated.
 822:.\Generated_Source\PSoC5/CyDmac.c **** *
 823:.\Generated_Source\PSoC5/CyDmac.c **** * Parameters:
 824:.\Generated_Source\PSoC5/CyDmac.c **** *  None
 825:.\Generated_Source\PSoC5/CyDmac.c **** *
 826:.\Generated_Source\PSoC5/CyDmac.c **** * Return:
 827:.\Generated_Source\PSoC5/CyDmac.c **** *  The number of free TDs.
 828:.\Generated_Source\PSoC5/CyDmac.c **** *
 829:.\Generated_Source\PSoC5/CyDmac.c **** *******************************************************************************/
 830:.\Generated_Source\PSoC5/CyDmac.c **** uint8 CyDmaTdFreeCount(void) 
 831:.\Generated_Source\PSoC5/CyDmac.c **** {
 881              		.loc 1 831 0
 882              		.cfi_startproc
 883              		@ args = 0, pretend = 0, frame = 0
 884              		@ frame_needed = 0, uses_anonymous_args = 0
 885              		@ link register save eliminated.
 832:.\Generated_Source\PSoC5/CyDmac.c ****     return(CyDmaTdCurrentNumber - CY_DMA_NUMBEROF_CHANNELS);
 886              		.loc 1 832 0
 887 0000 024B     		ldr	r3, .L95
 888 0002 5878     		ldrb	r0, [r3, #1]	@ zero_extendqisi2
 889 0004 1838     		subs	r0, r0, #24
 833:.\Generated_Source\PSoC5/CyDmac.c **** }
 890              		.loc 1 833 0
 891 0006 C0B2     		uxtb	r0, r0
 892 0008 7047     		bx	lr
 893              	.L96:
 894 000a 00BF     		.align	2
 895              	.L95:
 896 000c 00000000 		.word	.LANCHOR0
 897              		.cfi_endproc
 898              	.LFE18:
 899              		.size	CyDmaTdFreeCount, .-CyDmaTdFreeCount
 900              		.section	.text.CyDmaTdSetConfiguration,"ax",%progbits
 901              		.align	1
 902              		.global	CyDmaTdSetConfiguration
 903              		.thumb
 904              		.thumb_func
 905              		.type	CyDmaTdSetConfiguration, %function
 906              	CyDmaTdSetConfiguration:
ARM GAS  C:\Users\mjphi\AppData\Local\Temp\ccQ4lVkA.s 			page 32


 907              	.LFB19:
 834:.\Generated_Source\PSoC5/CyDmac.c **** 
 835:.\Generated_Source\PSoC5/CyDmac.c **** 
 836:.\Generated_Source\PSoC5/CyDmac.c **** /*******************************************************************************
 837:.\Generated_Source\PSoC5/CyDmac.c **** * Function Name: CyDmaTdSetConfiguration
 838:.\Generated_Source\PSoC5/CyDmac.c **** ********************************************************************************
 839:.\Generated_Source\PSoC5/CyDmac.c **** *
 840:.\Generated_Source\PSoC5/CyDmac.c **** * Summary:
 841:.\Generated_Source\PSoC5/CyDmac.c **** *  Configures the TD.
 842:.\Generated_Source\PSoC5/CyDmac.c **** *
 843:.\Generated_Source\PSoC5/CyDmac.c **** * Parameters:
 844:.\Generated_Source\PSoC5/CyDmac.c **** *  uint8 tdHandle:
 845:.\Generated_Source\PSoC5/CyDmac.c **** *   A handle previously returned by CyDmaTdAlloc().
 846:.\Generated_Source\PSoC5/CyDmac.c **** *
 847:.\Generated_Source\PSoC5/CyDmac.c **** *  uint16 transferCount:
 848:.\Generated_Source\PSoC5/CyDmac.c **** *   The size of the data transfer (in bytes) for this TD. A size of zero will
 849:.\Generated_Source\PSoC5/CyDmac.c **** *   cause the transfer to continue indefinitely. This parameter is limited to
 850:.\Generated_Source\PSoC5/CyDmac.c **** *   4095 bytes; the TD is not initialized at all when a higher value is passed.
 851:.\Generated_Source\PSoC5/CyDmac.c **** *
 852:.\Generated_Source\PSoC5/CyDmac.c **** *  uint8 nextTd:
 853:.\Generated_Source\PSoC5/CyDmac.c **** *   Zero based index of the next Transfer Descriptor in the TD chain. Zero is a
 854:.\Generated_Source\PSoC5/CyDmac.c **** *   valid pointer to the next TD; DMA_END_CHAIN_TD is the end of the chain.
 855:.\Generated_Source\PSoC5/CyDmac.c **** *   DMA_DISABLE_TD indicates an end to the chain and the DMA is disabled. No
 856:.\Generated_Source\PSoC5/CyDmac.c **** *   further TDs are fetched. DMA_DISABLE_TD is only supported on PSoC3 and
 857:.\Generated_Source\PSoC5/CyDmac.c **** *   PSoC 5LP silicons.
 858:.\Generated_Source\PSoC5/CyDmac.c **** *
 859:.\Generated_Source\PSoC5/CyDmac.c **** *  uint8 configuration:
 860:.\Generated_Source\PSoC5/CyDmac.c **** *   Stores the Bit field of configuration bits.
 861:.\Generated_Source\PSoC5/CyDmac.c **** *
 862:.\Generated_Source\PSoC5/CyDmac.c **** *   CY_DMA_TD_SWAP_EN        - Perform endian swap
 863:.\Generated_Source\PSoC5/CyDmac.c **** *
 864:.\Generated_Source\PSoC5/CyDmac.c **** *   CY_DMA_TD_SWAP_SIZE4     - Swap size = 4 bytes
 865:.\Generated_Source\PSoC5/CyDmac.c **** *
 866:.\Generated_Source\PSoC5/CyDmac.c **** *   CY_DMA_TD_AUTO_EXEC_NEXT - The next TD in the chain will trigger
 867:.\Generated_Source\PSoC5/CyDmac.c **** *                              automatically when the current TD completes.
 868:.\Generated_Source\PSoC5/CyDmac.c **** *
 869:.\Generated_Source\PSoC5/CyDmac.c **** *   CY_DMA_TD_TERMIN_EN      - Terminate this TD if a positive edge on the trq
 870:.\Generated_Source\PSoC5/CyDmac.c **** *                              input line occurs. The positive edge must occur
 871:.\Generated_Source\PSoC5/CyDmac.c **** *                              during a burst. That is the only time the DMAC
 872:.\Generated_Source\PSoC5/CyDmac.c **** *                              will listen for it.
 873:.\Generated_Source\PSoC5/CyDmac.c **** *
 874:.\Generated_Source\PSoC5/CyDmac.c **** *   DMA__TD_TERMOUT_EN       - When this TD completes, the TERMOUT signal will
 875:.\Generated_Source\PSoC5/CyDmac.c **** *                              generate a pulse. Note that this option is
 876:.\Generated_Source\PSoC5/CyDmac.c **** *                              instance specific with the instance name followed
 877:.\Generated_Source\PSoC5/CyDmac.c **** *                              by two underscores. In this example, the instance
 878:.\Generated_Source\PSoC5/CyDmac.c **** *                              name is DMA.
 879:.\Generated_Source\PSoC5/CyDmac.c **** *
 880:.\Generated_Source\PSoC5/CyDmac.c **** *   CY_DMA_TD_INC_DST_ADR    - Increment DST_ADR according to the size of each
 881:.\Generated_Source\PSoC5/CyDmac.c **** *                              data transaction in the burst.
 882:.\Generated_Source\PSoC5/CyDmac.c **** *
 883:.\Generated_Source\PSoC5/CyDmac.c **** *   CY_DMA_TD_INC_SRC_ADR    - Increment SRC_ADR according to the size of each
 884:.\Generated_Source\PSoC5/CyDmac.c **** *                              data transaction in the burst.
 885:.\Generated_Source\PSoC5/CyDmac.c **** *
 886:.\Generated_Source\PSoC5/CyDmac.c **** * Return:
 887:.\Generated_Source\PSoC5/CyDmac.c **** *  CYRET_SUCCESS if successful.
 888:.\Generated_Source\PSoC5/CyDmac.c **** *  CYRET_BAD_PARAM if tdHandle or transferCount is invalid.
 889:.\Generated_Source\PSoC5/CyDmac.c **** *
ARM GAS  C:\Users\mjphi\AppData\Local\Temp\ccQ4lVkA.s 			page 33


 890:.\Generated_Source\PSoC5/CyDmac.c **** *******************************************************************************/
 891:.\Generated_Source\PSoC5/CyDmac.c **** cystatus CyDmaTdSetConfiguration(uint8 tdHandle, uint16 transferCount, uint8 nextTd, uint8 configur
 892:.\Generated_Source\PSoC5/CyDmac.c ****     
 893:.\Generated_Source\PSoC5/CyDmac.c **** {
 908              		.loc 1 893 0
 909              		.cfi_startproc
 910              		@ args = 0, pretend = 0, frame = 0
 911              		@ frame_needed = 0, uses_anonymous_args = 0
 912              	.LVL84:
 913 0000 30B5     		push	{r4, r5, lr}
 914              		.cfi_def_cfa_offset 12
 915              		.cfi_offset 4, -12
 916              		.cfi_offset 5, -8
 917              		.cfi_offset 14, -4
 894:.\Generated_Source\PSoC5/CyDmac.c ****     cystatus status = CYRET_BAD_PARAM;
 895:.\Generated_Source\PSoC5/CyDmac.c **** 
 896:.\Generated_Source\PSoC5/CyDmac.c ****     if((tdHandle < CY_DMA_NUMBEROF_TDS) && (0u == (0xF000u & transferCount)))
 918              		.loc 1 896 0
 919 0002 0406     		lsls	r4, r0, #24
 920 0004 0CD4     		bmi	.L100
 921              		.loc 1 896 0 is_stmt 0 discriminator 1
 922 0006 11F47045 		ands	r5, r1, #61440
 923 000a 09D1     		bne	.L100
 924              	.LBB4:
 897:.\Generated_Source\PSoC5/CyDmac.c ****     {
 898:.\Generated_Source\PSoC5/CyDmac.c ****         /* Set 12 bits transfer count. */
 899:.\Generated_Source\PSoC5/CyDmac.c ****         reg16 *convert = (reg16 *) &CY_DMA_TDMEM_STRUCT_PTR[tdHandle].TD0[0u];
 925              		.loc 1 899 0 is_stmt 1
 926 000c C400     		lsls	r4, r0, #3
 927 000e 04F18044 		add	r4, r4, #1073741824
 928 0012 04F5F044 		add	r4, r4, #30720
 929              	.LVL85:
 900:.\Generated_Source\PSoC5/CyDmac.c ****         CY_SET_REG16(convert, transferCount);
 930              		.loc 1 900 0
 931 0016 2180     		strh	r1, [r4]	@ movhi
 901:.\Generated_Source\PSoC5/CyDmac.c **** 
 902:.\Generated_Source\PSoC5/CyDmac.c ****         /* Set Next TD pointer. */
 903:.\Generated_Source\PSoC5/CyDmac.c ****         CY_DMA_TDMEM_STRUCT_PTR[tdHandle].TD0[2u] = nextTd;
 932              		.loc 1 903 0
 933 0018 A270     		strb	r2, [r4, #2]
 904:.\Generated_Source\PSoC5/CyDmac.c **** 
 905:.\Generated_Source\PSoC5/CyDmac.c ****         /* Configure the TD */
 906:.\Generated_Source\PSoC5/CyDmac.c ****         CY_DMA_TDMEM_STRUCT_PTR[tdHandle].TD0[3u] = configuration;
 934              		.loc 1 906 0
 935 001a E370     		strb	r3, [r4, #3]
 936              	.LVL86:
 907:.\Generated_Source\PSoC5/CyDmac.c **** 
 908:.\Generated_Source\PSoC5/CyDmac.c ****         status = CYRET_SUCCESS;
 937              		.loc 1 908 0
 938 001c 2846     		mov	r0, r5
 939              	.LVL87:
 940 001e 30BD     		pop	{r4, r5, pc}
 941              	.LVL88:
 942              	.L100:
 943              	.LBE4:
 894:.\Generated_Source\PSoC5/CyDmac.c **** 
 944              		.loc 1 894 0
ARM GAS  C:\Users\mjphi\AppData\Local\Temp\ccQ4lVkA.s 			page 34


 945 0020 0120     		movs	r0, #1
 946              	.LVL89:
 909:.\Generated_Source\PSoC5/CyDmac.c ****     }
 910:.\Generated_Source\PSoC5/CyDmac.c **** 
 911:.\Generated_Source\PSoC5/CyDmac.c ****     return(status);
 912:.\Generated_Source\PSoC5/CyDmac.c **** }
 947              		.loc 1 912 0
 948 0022 30BD     		pop	{r4, r5, pc}
 949              		.cfi_endproc
 950              	.LFE19:
 951              		.size	CyDmaTdSetConfiguration, .-CyDmaTdSetConfiguration
 952              		.section	.text.CyDmaTdGetConfiguration,"ax",%progbits
 953              		.align	1
 954              		.global	CyDmaTdGetConfiguration
 955              		.thumb
 956              		.thumb_func
 957              		.type	CyDmaTdGetConfiguration, %function
 958              	CyDmaTdGetConfiguration:
 959              	.LFB20:
 913:.\Generated_Source\PSoC5/CyDmac.c **** 
 914:.\Generated_Source\PSoC5/CyDmac.c **** 
 915:.\Generated_Source\PSoC5/CyDmac.c **** /*******************************************************************************
 916:.\Generated_Source\PSoC5/CyDmac.c **** * Function Name: CyDmaTdGetConfiguration
 917:.\Generated_Source\PSoC5/CyDmac.c **** ********************************************************************************
 918:.\Generated_Source\PSoC5/CyDmac.c **** *
 919:.\Generated_Source\PSoC5/CyDmac.c **** * Summary:
 920:.\Generated_Source\PSoC5/CyDmac.c **** *  Retrieves the configuration of the TD. If a NULL pointer is passed as a
 921:.\Generated_Source\PSoC5/CyDmac.c **** *  parameter, that parameter is skipped. You may request only the values you are
 922:.\Generated_Source\PSoC5/CyDmac.c **** *  interested in.
 923:.\Generated_Source\PSoC5/CyDmac.c **** *
 924:.\Generated_Source\PSoC5/CyDmac.c **** * Parameters:
 925:.\Generated_Source\PSoC5/CyDmac.c **** *  uint8 tdHandle:
 926:.\Generated_Source\PSoC5/CyDmac.c **** *   A handle previously returned by CyDmaTdAlloc().
 927:.\Generated_Source\PSoC5/CyDmac.c **** *
 928:.\Generated_Source\PSoC5/CyDmac.c **** *  uint16 * transferCount:
 929:.\Generated_Source\PSoC5/CyDmac.c **** *   The address to store the size of the data transfer (in bytes) for this TD.
 930:.\Generated_Source\PSoC5/CyDmac.c **** *   A size of zero could indicate that the TD has completed its transfer, or
 931:.\Generated_Source\PSoC5/CyDmac.c **** *   that the TD is doing an indefinite transfer.
 932:.\Generated_Source\PSoC5/CyDmac.c **** *
 933:.\Generated_Source\PSoC5/CyDmac.c **** *  uint8 * nextTd:
 934:.\Generated_Source\PSoC5/CyDmac.c **** *   The address to store the index of the next TD in the TD chain.
 935:.\Generated_Source\PSoC5/CyDmac.c **** *
 936:.\Generated_Source\PSoC5/CyDmac.c **** *  uint8 * configuration:
 937:.\Generated_Source\PSoC5/CyDmac.c **** *   The address to store the Bit field of configuration bits.
 938:.\Generated_Source\PSoC5/CyDmac.c **** *   See CyDmaTdSetConfiguration() function description.
 939:.\Generated_Source\PSoC5/CyDmac.c **** *
 940:.\Generated_Source\PSoC5/CyDmac.c **** * Return:
 941:.\Generated_Source\PSoC5/CyDmac.c **** *  CYRET_SUCCESS if successful.
 942:.\Generated_Source\PSoC5/CyDmac.c **** *  CYRET_BAD_PARAM if tdHandle is invalid.
 943:.\Generated_Source\PSoC5/CyDmac.c **** *
 944:.\Generated_Source\PSoC5/CyDmac.c **** * Side Effects:
 945:.\Generated_Source\PSoC5/CyDmac.c **** *  If TD has a transfer count of N and is executed, the transfer count becomes
 946:.\Generated_Source\PSoC5/CyDmac.c **** *  0. If it is reexecuted, the Transfer count of zero will be interpreted as a
 947:.\Generated_Source\PSoC5/CyDmac.c **** *  request for indefinite transfer. Be careful when requesting TD with a
 948:.\Generated_Source\PSoC5/CyDmac.c **** *  transfer count of zero.
 949:.\Generated_Source\PSoC5/CyDmac.c **** *
 950:.\Generated_Source\PSoC5/CyDmac.c **** *******************************************************************************/
ARM GAS  C:\Users\mjphi\AppData\Local\Temp\ccQ4lVkA.s 			page 35


 951:.\Generated_Source\PSoC5/CyDmac.c **** cystatus CyDmaTdGetConfiguration(uint8 tdHandle, uint16 * transferCount, uint8 * nextTd, uint8 * co
 952:.\Generated_Source\PSoC5/CyDmac.c ****     
 953:.\Generated_Source\PSoC5/CyDmac.c **** {
 960              		.loc 1 953 0
 961              		.cfi_startproc
 962              		@ args = 0, pretend = 0, frame = 0
 963              		@ frame_needed = 0, uses_anonymous_args = 0
 964              	.LVL90:
 965 0000 10B5     		push	{r4, lr}
 966              		.cfi_def_cfa_offset 8
 967              		.cfi_offset 4, -8
 968              		.cfi_offset 14, -4
 954:.\Generated_Source\PSoC5/CyDmac.c ****     cystatus status = CYRET_BAD_PARAM;
 955:.\Generated_Source\PSoC5/CyDmac.c **** 
 956:.\Generated_Source\PSoC5/CyDmac.c ****     if(tdHandle < CY_DMA_NUMBEROF_TDS)
 969              		.loc 1 956 0
 970 0002 0406     		lsls	r4, r0, #24
 971 0004 1BD4     		bmi	.L105
 957:.\Generated_Source\PSoC5/CyDmac.c ****     {
 958:.\Generated_Source\PSoC5/CyDmac.c ****         /* If we have pointer */
 959:.\Generated_Source\PSoC5/CyDmac.c ****         if(NULL != transferCount)
 972              		.loc 1 959 0
 973 0006 41B1     		cbz	r1, .L103
 974              	.LBB5:
 960:.\Generated_Source\PSoC5/CyDmac.c ****         {
 961:.\Generated_Source\PSoC5/CyDmac.c ****             /* Get 12 bits of transfer count */
 962:.\Generated_Source\PSoC5/CyDmac.c ****             reg16 *convert = (reg16 *) &CY_DMA_TDMEM_STRUCT_PTR[tdHandle].TD0[0];
 975              		.loc 1 962 0
 976 0008 C400     		lsls	r4, r0, #3
 977 000a 04F18044 		add	r4, r4, #1073741824
 978 000e 04F5F044 		add	r4, r4, #30720
 979              	.LVL91:
 963:.\Generated_Source\PSoC5/CyDmac.c ****             *transferCount = 0x0FFFu & CY_GET_REG16(convert);
 980              		.loc 1 963 0
 981 0012 2488     		ldrh	r4, [r4]
 982              	.LVL92:
 983 0014 C4F30B04 		ubfx	r4, r4, #0, #12
 984 0018 0C80     		strh	r4, [r1]	@ movhi
 985              	.LVL93:
 986              	.L103:
 987              	.LBE5:
 964:.\Generated_Source\PSoC5/CyDmac.c ****         }
 965:.\Generated_Source\PSoC5/CyDmac.c **** 
 966:.\Generated_Source\PSoC5/CyDmac.c ****         /* If we have pointer */
 967:.\Generated_Source\PSoC5/CyDmac.c ****         if(NULL != nextTd)
 988              		.loc 1 967 0
 989 001a 32B1     		cbz	r2, .L104
 968:.\Generated_Source\PSoC5/CyDmac.c ****         {
 969:.\Generated_Source\PSoC5/CyDmac.c ****             /* Get Next TD pointer */
 970:.\Generated_Source\PSoC5/CyDmac.c ****             *nextTd = CY_DMA_TDMEM_STRUCT_PTR[tdHandle].TD0[2u];
 990              		.loc 1 970 0
 991 001c C100     		lsls	r1, r0, #3
 992              	.LVL94:
 993 001e 01F18041 		add	r1, r1, #1073741824
 994 0022 01F5F041 		add	r1, r1, #30720
 995 0026 8978     		ldrb	r1, [r1, #2]	@ zero_extendqisi2
 996 0028 1170     		strb	r1, [r2]
ARM GAS  C:\Users\mjphi\AppData\Local\Temp\ccQ4lVkA.s 			page 36


 997              	.L104:
 971:.\Generated_Source\PSoC5/CyDmac.c ****         }
 972:.\Generated_Source\PSoC5/CyDmac.c **** 
 973:.\Generated_Source\PSoC5/CyDmac.c ****         /* If we have pointer */
 974:.\Generated_Source\PSoC5/CyDmac.c ****         if(NULL != configuration)
 998              		.loc 1 974 0
 999 002a 33B1     		cbz	r3, .L113
 975:.\Generated_Source\PSoC5/CyDmac.c ****         {
 976:.\Generated_Source\PSoC5/CyDmac.c ****             /* Get configuration TD */
 977:.\Generated_Source\PSoC5/CyDmac.c ****             *configuration = CY_DMA_TDMEM_STRUCT_PTR[tdHandle].TD0[3u];
 1000              		.loc 1 977 0
 1001 002c C200     		lsls	r2, r0, #3
 1002              	.LVL95:
 1003 002e 02F18042 		add	r2, r2, #1073741824
 1004 0032 02F5F042 		add	r2, r2, #30720
 1005 0036 D278     		ldrb	r2, [r2, #3]	@ zero_extendqisi2
 1006 0038 1A70     		strb	r2, [r3]
 1007              	.L113:
 978:.\Generated_Source\PSoC5/CyDmac.c ****         }
 979:.\Generated_Source\PSoC5/CyDmac.c **** 
 980:.\Generated_Source\PSoC5/CyDmac.c ****         status = CYRET_SUCCESS;
 1008              		.loc 1 980 0
 1009 003a 0020     		movs	r0, #0
 1010              	.LVL96:
 1011 003c 10BD     		pop	{r4, pc}
 1012              	.LVL97:
 1013              	.L105:
 954:.\Generated_Source\PSoC5/CyDmac.c **** 
 1014              		.loc 1 954 0
 1015 003e 0120     		movs	r0, #1
 1016              	.LVL98:
 1017 0040 10BD     		pop	{r4, pc}
 1018              		.cfi_endproc
 1019              	.LFE20:
 1020              		.size	CyDmaTdGetConfiguration, .-CyDmaTdGetConfiguration
 1021              		.section	.text.CyDmaTdSetAddress,"ax",%progbits
 1022              		.align	1
 1023              		.global	CyDmaTdSetAddress
 1024              		.thumb
 1025              		.thumb_func
 1026              		.type	CyDmaTdSetAddress, %function
 1027              	CyDmaTdSetAddress:
 1028              	.LFB21:
 981:.\Generated_Source\PSoC5/CyDmac.c ****     }
 982:.\Generated_Source\PSoC5/CyDmac.c **** 
 983:.\Generated_Source\PSoC5/CyDmac.c ****     return(status);
 984:.\Generated_Source\PSoC5/CyDmac.c **** }
 985:.\Generated_Source\PSoC5/CyDmac.c **** 
 986:.\Generated_Source\PSoC5/CyDmac.c **** 
 987:.\Generated_Source\PSoC5/CyDmac.c **** /*******************************************************************************
 988:.\Generated_Source\PSoC5/CyDmac.c **** * Function Name: CyDmaTdSetAddress
 989:.\Generated_Source\PSoC5/CyDmac.c **** ********************************************************************************
 990:.\Generated_Source\PSoC5/CyDmac.c **** *
 991:.\Generated_Source\PSoC5/CyDmac.c **** * Summary:
 992:.\Generated_Source\PSoC5/CyDmac.c **** *  Sets the lower 16 bits of the source and destination addresses for this TD
 993:.\Generated_Source\PSoC5/CyDmac.c **** *  only.
 994:.\Generated_Source\PSoC5/CyDmac.c **** *
ARM GAS  C:\Users\mjphi\AppData\Local\Temp\ccQ4lVkA.s 			page 37


 995:.\Generated_Source\PSoC5/CyDmac.c **** * Parameters:
 996:.\Generated_Source\PSoC5/CyDmac.c **** *  uint8 tdHandle:
 997:.\Generated_Source\PSoC5/CyDmac.c **** *   A handle previously returned by CyDmaTdAlloc().
 998:.\Generated_Source\PSoC5/CyDmac.c **** *
 999:.\Generated_Source\PSoC5/CyDmac.c **** *  uint16 source:
1000:.\Generated_Source\PSoC5/CyDmac.c **** *   The lower 16 address bits of the source of the data transfer.
1001:.\Generated_Source\PSoC5/CyDmac.c **** *
1002:.\Generated_Source\PSoC5/CyDmac.c **** *  uint16 destination:
1003:.\Generated_Source\PSoC5/CyDmac.c **** *   The lower 16 address bits of the destination of the data transfer.
1004:.\Generated_Source\PSoC5/CyDmac.c **** *
1005:.\Generated_Source\PSoC5/CyDmac.c **** * Return:
1006:.\Generated_Source\PSoC5/CyDmac.c **** *  CYRET_SUCCESS if successful.
1007:.\Generated_Source\PSoC5/CyDmac.c **** *  CYRET_BAD_PARAM if tdHandle is invalid.
1008:.\Generated_Source\PSoC5/CyDmac.c **** *
1009:.\Generated_Source\PSoC5/CyDmac.c **** *******************************************************************************/
1010:.\Generated_Source\PSoC5/CyDmac.c **** cystatus CyDmaTdSetAddress(uint8 tdHandle, uint16 source, uint16 destination) 
1011:.\Generated_Source\PSoC5/CyDmac.c **** {
 1029              		.loc 1 1011 0
 1030              		.cfi_startproc
 1031              		@ args = 0, pretend = 0, frame = 0
 1032              		@ frame_needed = 0, uses_anonymous_args = 0
 1033              		@ link register save eliminated.
 1034              	.LVL99:
1012:.\Generated_Source\PSoC5/CyDmac.c ****     cystatus status = CYRET_BAD_PARAM;
1013:.\Generated_Source\PSoC5/CyDmac.c ****     reg16 *convert;
1014:.\Generated_Source\PSoC5/CyDmac.c **** 
1015:.\Generated_Source\PSoC5/CyDmac.c ****     if(tdHandle < CY_DMA_NUMBEROF_TDS)
 1035              		.loc 1 1015 0
 1036 0000 0306     		lsls	r3, r0, #24
1016:.\Generated_Source\PSoC5/CyDmac.c ****     {
1017:.\Generated_Source\PSoC5/CyDmac.c ****         /* Set source address */
1018:.\Generated_Source\PSoC5/CyDmac.c ****         convert = (reg16 *) &CY_DMA_TDMEM_STRUCT_PTR[tdHandle].TD1[0u];
 1037              		.loc 1 1018 0
 1038 0002 5FBF     		itttt	pl
 1039 0004 C000     		lslpl	r0, r0, #3
 1040              	.LVL100:
 1041 0006 00F18040 		addpl	r0, r0, #1073741824
 1042 000a 00F5F040 		addpl	r0, r0, #30720
 1043              	.LVL101:
1019:.\Generated_Source\PSoC5/CyDmac.c ****         CY_SET_REG16(convert, source);
 1044              		.loc 1 1019 0
 1045 000e 8180     		strhpl	r1, [r0, #4]	@ movhi
 1046              	.LVL102:
1020:.\Generated_Source\PSoC5/CyDmac.c **** 
1021:.\Generated_Source\PSoC5/CyDmac.c ****         /* Set destination address */
1022:.\Generated_Source\PSoC5/CyDmac.c ****         convert = (reg16 *) &CY_DMA_TDMEM_STRUCT_PTR[tdHandle].TD1[2u];
1023:.\Generated_Source\PSoC5/CyDmac.c ****         CY_SET_REG16(convert, destination);
 1047              		.loc 1 1023 0
 1048 0010 5ABF     		itte	pl
 1049 0012 C280     		strhpl	r2, [r0, #6]	@ movhi
 1050              	.LVL103:
1024:.\Generated_Source\PSoC5/CyDmac.c **** 
1025:.\Generated_Source\PSoC5/CyDmac.c ****         status = CYRET_SUCCESS;
 1051              		.loc 1 1025 0
 1052 0014 0020     		movpl	r0, #0
 1053              	.LVL104:
1012:.\Generated_Source\PSoC5/CyDmac.c ****     reg16 *convert;
ARM GAS  C:\Users\mjphi\AppData\Local\Temp\ccQ4lVkA.s 			page 38


 1054              		.loc 1 1012 0
 1055 0016 0120     		movmi	r0, #1
 1056              	.LVL105:
1026:.\Generated_Source\PSoC5/CyDmac.c ****     }
1027:.\Generated_Source\PSoC5/CyDmac.c **** 
1028:.\Generated_Source\PSoC5/CyDmac.c ****     return(status);
1029:.\Generated_Source\PSoC5/CyDmac.c **** }
 1057              		.loc 1 1029 0
 1058 0018 7047     		bx	lr
 1059              		.cfi_endproc
 1060              	.LFE21:
 1061              		.size	CyDmaTdSetAddress, .-CyDmaTdSetAddress
 1062              		.section	.text.CyDmaTdGetAddress,"ax",%progbits
 1063              		.align	1
 1064              		.global	CyDmaTdGetAddress
 1065              		.thumb
 1066              		.thumb_func
 1067              		.type	CyDmaTdGetAddress, %function
 1068              	CyDmaTdGetAddress:
 1069              	.LFB22:
1030:.\Generated_Source\PSoC5/CyDmac.c **** 
1031:.\Generated_Source\PSoC5/CyDmac.c **** 
1032:.\Generated_Source\PSoC5/CyDmac.c **** /*******************************************************************************
1033:.\Generated_Source\PSoC5/CyDmac.c **** * Function Name: CyDmaTdGetAddress
1034:.\Generated_Source\PSoC5/CyDmac.c **** ********************************************************************************
1035:.\Generated_Source\PSoC5/CyDmac.c **** *
1036:.\Generated_Source\PSoC5/CyDmac.c **** * Summary:
1037:.\Generated_Source\PSoC5/CyDmac.c **** *  Retrieves the lower 16 bits of the source and/or destination addresses for
1038:.\Generated_Source\PSoC5/CyDmac.c **** *  this TD only. If NULL is passed for a pointer parameter, that value is
1039:.\Generated_Source\PSoC5/CyDmac.c **** *  skipped. You may request only the values of interest.
1040:.\Generated_Source\PSoC5/CyDmac.c **** *
1041:.\Generated_Source\PSoC5/CyDmac.c **** * Parameters:
1042:.\Generated_Source\PSoC5/CyDmac.c **** *  uint8 tdHandle:
1043:.\Generated_Source\PSoC5/CyDmac.c **** *   A handle previously returned by CyDmaTdAlloc().
1044:.\Generated_Source\PSoC5/CyDmac.c **** *
1045:.\Generated_Source\PSoC5/CyDmac.c **** *  uint16 * source:
1046:.\Generated_Source\PSoC5/CyDmac.c **** *   The address to store the lower 16 address bits of the source of the data
1047:.\Generated_Source\PSoC5/CyDmac.c **** *   transfer.
1048:.\Generated_Source\PSoC5/CyDmac.c **** *
1049:.\Generated_Source\PSoC5/CyDmac.c **** *  uint16 * destination:
1050:.\Generated_Source\PSoC5/CyDmac.c **** *   The address to store the lower 16 address bits of the destination of the
1051:.\Generated_Source\PSoC5/CyDmac.c **** *   data transfer.
1052:.\Generated_Source\PSoC5/CyDmac.c **** *
1053:.\Generated_Source\PSoC5/CyDmac.c **** * Return:
1054:.\Generated_Source\PSoC5/CyDmac.c **** *  CYRET_SUCCESS if successful.
1055:.\Generated_Source\PSoC5/CyDmac.c **** *  CYRET_BAD_PARAM if tdHandle is invalid.
1056:.\Generated_Source\PSoC5/CyDmac.c **** *
1057:.\Generated_Source\PSoC5/CyDmac.c **** *******************************************************************************/
1058:.\Generated_Source\PSoC5/CyDmac.c **** cystatus CyDmaTdGetAddress(uint8 tdHandle, uint16 * source, uint16 * destination) 
1059:.\Generated_Source\PSoC5/CyDmac.c **** {
 1070              		.loc 1 1059 0
 1071              		.cfi_startproc
 1072              		@ args = 0, pretend = 0, frame = 0
 1073              		@ frame_needed = 0, uses_anonymous_args = 0
 1074              		@ link register save eliminated.
 1075              	.LVL106:
1060:.\Generated_Source\PSoC5/CyDmac.c ****     cystatus status = CYRET_BAD_PARAM;
ARM GAS  C:\Users\mjphi\AppData\Local\Temp\ccQ4lVkA.s 			page 39


1061:.\Generated_Source\PSoC5/CyDmac.c ****     reg16 *convert;
1062:.\Generated_Source\PSoC5/CyDmac.c **** 
1063:.\Generated_Source\PSoC5/CyDmac.c ****     if(tdHandle < CY_DMA_NUMBEROF_TDS)
 1076              		.loc 1 1063 0
 1077 0000 0306     		lsls	r3, r0, #24
 1078 0002 11D4     		bmi	.L120
1064:.\Generated_Source\PSoC5/CyDmac.c ****     {
1065:.\Generated_Source\PSoC5/CyDmac.c ****         /* If we have a pointer. */
1066:.\Generated_Source\PSoC5/CyDmac.c ****         if(NULL != source)
 1079              		.loc 1 1066 0
 1080 0004 31B1     		cbz	r1, .L119
1067:.\Generated_Source\PSoC5/CyDmac.c ****         {
1068:.\Generated_Source\PSoC5/CyDmac.c ****             /* Get source address */
1069:.\Generated_Source\PSoC5/CyDmac.c ****             convert = (reg16 *) &CY_DMA_TDMEM_STRUCT_PTR[tdHandle].TD1[0u];
 1081              		.loc 1 1069 0
 1082 0006 C300     		lsls	r3, r0, #3
 1083 0008 03F18043 		add	r3, r3, #1073741824
 1084 000c 03F5F043 		add	r3, r3, #30720
 1085              	.LVL107:
1070:.\Generated_Source\PSoC5/CyDmac.c ****             *source = CY_GET_REG16(convert);
 1086              		.loc 1 1070 0
 1087 0010 9B88     		ldrh	r3, [r3, #4]
 1088              	.LVL108:
 1089 0012 0B80     		strh	r3, [r1]	@ movhi
 1090              	.LVL109:
 1091              	.L119:
1071:.\Generated_Source\PSoC5/CyDmac.c ****         }
1072:.\Generated_Source\PSoC5/CyDmac.c **** 
1073:.\Generated_Source\PSoC5/CyDmac.c ****         /* If we have a pointer. */
1074:.\Generated_Source\PSoC5/CyDmac.c ****         if(NULL != destination)
 1092              		.loc 1 1074 0
 1093 0014 32B1     		cbz	r2, .L125
1075:.\Generated_Source\PSoC5/CyDmac.c ****         {
1076:.\Generated_Source\PSoC5/CyDmac.c ****             /* Get Destination address. */
1077:.\Generated_Source\PSoC5/CyDmac.c ****             convert = (reg16 *) &CY_DMA_TDMEM_STRUCT_PTR[tdHandle].TD1[2u];
 1094              		.loc 1 1077 0
 1095 0016 C300     		lsls	r3, r0, #3
 1096 0018 03F18043 		add	r3, r3, #1073741824
 1097 001c 03F5F043 		add	r3, r3, #30720
 1098              	.LVL110:
1078:.\Generated_Source\PSoC5/CyDmac.c ****             *destination = CY_GET_REG16(convert);
 1099              		.loc 1 1078 0
 1100 0020 DB88     		ldrh	r3, [r3, #6]
 1101              	.LVL111:
 1102 0022 1380     		strh	r3, [r2]	@ movhi
 1103              	.LVL112:
 1104              	.L125:
1079:.\Generated_Source\PSoC5/CyDmac.c ****         }
1080:.\Generated_Source\PSoC5/CyDmac.c **** 
1081:.\Generated_Source\PSoC5/CyDmac.c ****         status = CYRET_SUCCESS;
 1105              		.loc 1 1081 0
 1106 0024 0020     		movs	r0, #0
 1107              	.LVL113:
 1108 0026 7047     		bx	lr
 1109              	.LVL114:
 1110              	.L120:
1060:.\Generated_Source\PSoC5/CyDmac.c ****     reg16 *convert;
ARM GAS  C:\Users\mjphi\AppData\Local\Temp\ccQ4lVkA.s 			page 40


 1111              		.loc 1 1060 0
 1112 0028 0120     		movs	r0, #1
 1113              	.LVL115:
 1114 002a 7047     		bx	lr
 1115              		.cfi_endproc
 1116              	.LFE22:
 1117              		.size	CyDmaTdGetAddress, .-CyDmaTdGetAddress
 1118              		.section	.text.CyDmaChRoundRobin,"ax",%progbits
 1119              		.align	1
 1120              		.global	CyDmaChRoundRobin
 1121              		.thumb
 1122              		.thumb_func
 1123              		.type	CyDmaChRoundRobin, %function
 1124              	CyDmaChRoundRobin:
 1125              	.LFB23:
1082:.\Generated_Source\PSoC5/CyDmac.c ****     }
1083:.\Generated_Source\PSoC5/CyDmac.c **** 
1084:.\Generated_Source\PSoC5/CyDmac.c ****     return(status);
1085:.\Generated_Source\PSoC5/CyDmac.c **** }
1086:.\Generated_Source\PSoC5/CyDmac.c **** 
1087:.\Generated_Source\PSoC5/CyDmac.c **** 
1088:.\Generated_Source\PSoC5/CyDmac.c **** /*******************************************************************************
1089:.\Generated_Source\PSoC5/CyDmac.c **** * Function Name: CyDmaChRoundRobin
1090:.\Generated_Source\PSoC5/CyDmac.c **** ********************************************************************************
1091:.\Generated_Source\PSoC5/CyDmac.c **** *
1092:.\Generated_Source\PSoC5/CyDmac.c **** * Summary:
1093:.\Generated_Source\PSoC5/CyDmac.c **** *  Either enables or disables the Round-Robin scheduling enforcement algorithm.
1094:.\Generated_Source\PSoC5/CyDmac.c **** *  Within a priority level a Round-Robin fairness algorithm is enforced.
1095:.\Generated_Source\PSoC5/CyDmac.c **** *
1096:.\Generated_Source\PSoC5/CyDmac.c **** * Parameters:
1097:.\Generated_Source\PSoC5/CyDmac.c **** *  uint8 chHandle:
1098:.\Generated_Source\PSoC5/CyDmac.c **** *   A handle previously returned by CyDmaChAlloc() or Dma_DmaInitialize().
1099:.\Generated_Source\PSoC5/CyDmac.c **** *
1100:.\Generated_Source\PSoC5/CyDmac.c **** *  uint8 enableRR:
1101:.\Generated_Source\PSoC5/CyDmac.c **** *   0: Disable Round-Robin fairness algorithm
1102:.\Generated_Source\PSoC5/CyDmac.c **** *   1: Enable Round-Robin fairness algorithm
1103:.\Generated_Source\PSoC5/CyDmac.c **** *
1104:.\Generated_Source\PSoC5/CyDmac.c **** * Return:
1105:.\Generated_Source\PSoC5/CyDmac.c **** *  CYRET_SUCCESS if successful.
1106:.\Generated_Source\PSoC5/CyDmac.c **** *  CYRET_BAD_PARAM if chHandle is invalid.
1107:.\Generated_Source\PSoC5/CyDmac.c **** *
1108:.\Generated_Source\PSoC5/CyDmac.c **** *******************************************************************************/
1109:.\Generated_Source\PSoC5/CyDmac.c **** cystatus CyDmaChRoundRobin(uint8 chHandle, uint8 enableRR) 
1110:.\Generated_Source\PSoC5/CyDmac.c **** {
 1126              		.loc 1 1110 0
 1127              		.cfi_startproc
 1128              		@ args = 0, pretend = 0, frame = 0
 1129              		@ frame_needed = 0, uses_anonymous_args = 0
 1130              		@ link register save eliminated.
 1131              	.LVL116:
1111:.\Generated_Source\PSoC5/CyDmac.c ****     cystatus status = CYRET_BAD_PARAM;
1112:.\Generated_Source\PSoC5/CyDmac.c **** 
1113:.\Generated_Source\PSoC5/CyDmac.c ****     if(chHandle < CY_DMA_NUMBEROF_CHANNELS)
 1132              		.loc 1 1113 0
 1133 0000 1728     		cmp	r0, #23
 1134 0002 0DD8     		bhi	.L129
 1135 0004 0301     		lsls	r3, r0, #4
ARM GAS  C:\Users\mjphi\AppData\Local\Temp\ccQ4lVkA.s 			page 41


 1136 0006 074A     		ldr	r2, .L131
1114:.\Generated_Source\PSoC5/CyDmac.c ****     {
1115:.\Generated_Source\PSoC5/CyDmac.c ****         if (0u != enableRR)
 1137              		.loc 1 1115 0
 1138 0008 29B1     		cbz	r1, .L128
1116:.\Generated_Source\PSoC5/CyDmac.c ****         {
1117:.\Generated_Source\PSoC5/CyDmac.c ****             CY_DMA_CH_STRUCT_PTR[chHandle].basic_cfg[0u] |= (uint8)CY_DMA_ROUND_ROBIN_ENABLE;
 1139              		.loc 1 1117 0
 1140 000a 995C     		ldrb	r1, [r3, r2]	@ zero_extendqisi2
 1141              	.LVL117:
 1142 000c 41F01001 		orr	r1, r1, #16
 1143 0010 9954     		strb	r1, [r3, r2]
 1144              	.LVL118:
 1145              	.L130:
1118:.\Generated_Source\PSoC5/CyDmac.c ****         }
1119:.\Generated_Source\PSoC5/CyDmac.c ****         else
1120:.\Generated_Source\PSoC5/CyDmac.c ****         {
1121:.\Generated_Source\PSoC5/CyDmac.c ****             CY_DMA_CH_STRUCT_PTR[chHandle].basic_cfg[0u] &= (uint8)(~CY_DMA_ROUND_ROBIN_ENABLE);
1122:.\Generated_Source\PSoC5/CyDmac.c ****         }
1123:.\Generated_Source\PSoC5/CyDmac.c **** 
1124:.\Generated_Source\PSoC5/CyDmac.c ****         status = CYRET_SUCCESS;
 1146              		.loc 1 1124 0
 1147 0012 0020     		movs	r0, #0
 1148 0014 7047     		bx	lr
 1149              	.LVL119:
 1150              	.L128:
1121:.\Generated_Source\PSoC5/CyDmac.c ****         }
 1151              		.loc 1 1121 0
 1152 0016 985C     		ldrb	r0, [r3, r2]	@ zero_extendqisi2
 1153              	.LVL120:
 1154 0018 00F0EF00 		and	r0, r0, #239
 1155 001c 9854     		strb	r0, [r3, r2]
 1156 001e F8E7     		b	.L130
 1157              	.LVL121:
 1158              	.L129:
1111:.\Generated_Source\PSoC5/CyDmac.c **** 
 1159              		.loc 1 1111 0
 1160 0020 0120     		movs	r0, #1
 1161              	.LVL122:
1125:.\Generated_Source\PSoC5/CyDmac.c ****     }
1126:.\Generated_Source\PSoC5/CyDmac.c **** 
1127:.\Generated_Source\PSoC5/CyDmac.c ****     return(status);
1128:.\Generated_Source\PSoC5/CyDmac.c **** }
 1162              		.loc 1 1128 0
 1163 0022 7047     		bx	lr
 1164              	.L132:
 1165              		.align	2
 1166              	.L131:
 1167 0024 10700040 		.word	1073770512
 1168              		.cfi_endproc
 1169              	.LFE23:
 1170              		.size	CyDmaChRoundRobin, .-CyDmaChRoundRobin
 1171              		.data
 1172              		.set	.LANCHOR0,. + 0
 1173              		.type	CyDmaTdFreeIndex, %object
 1174              		.size	CyDmaTdFreeIndex, 1
 1175              	CyDmaTdFreeIndex:
ARM GAS  C:\Users\mjphi\AppData\Local\Temp\ccQ4lVkA.s 			page 42


 1176 0000 7F       		.byte	127
 1177              		.type	CyDmaTdCurrentNumber, %object
 1178              		.size	CyDmaTdCurrentNumber, 1
 1179              	CyDmaTdCurrentNumber:
 1180 0001 80       		.byte	-128
 1181              		.bss
 1182              		.align	2
 1183              		.set	.LANCHOR1,. + 0
 1184              		.type	CyDmaChannels, %object
 1185              		.size	CyDmaChannels, 4
 1186              	CyDmaChannels:
 1187 0000 00000000 		.space	4
 1188              		.text
 1189              	.Letext0:
 1190              		.file 2 ".\\Generated_Source\\PSoC5\\cytypes.h"
 1191              		.file 3 ".\\Generated_Source\\PSoC5\\CyDmac.h"
 1192              		.file 4 ".\\Generated_Source\\PSoC5\\CyLib.h"
