ARM GAS  C:\Users\mjphi\AppData\Local\Temp\ccSOutzG.s 			page 1


   1              		.syntax unified
   2              		.cpu cortex-m3
   3              		.fpu softvfp
   4              		.eabi_attribute 20, 1
   5              		.eabi_attribute 21, 1
   6              		.eabi_attribute 23, 3
   7              		.eabi_attribute 24, 1
   8              		.eabi_attribute 25, 1
   9              		.eabi_attribute 26, 1
  10              		.eabi_attribute 30, 4
  11              		.eabi_attribute 34, 1
  12              		.eabi_attribute 18, 4
  13              		.thumb
  14              		.file	"CySpc.c"
  15              		.text
  16              	.Ltext0:
  17              		.cfi_sections	.debug_frame
  18              		.section	.text.CySpcStart,"ax",%progbits
  19              		.align	1
  20              		.global	CySpcStart
  21              		.thumb
  22              		.thumb_func
  23              		.type	CySpcStart, %function
  24              	CySpcStart:
  25              	.LFB0:
  26              		.file 1 ".\\Generated_Source\\PSoC5\\CySpc.c"
   1:.\Generated_Source\PSoC5/CySpc.c **** /*******************************************************************************
   2:.\Generated_Source\PSoC5/CySpc.c **** * File Name: CySpc.c
   3:.\Generated_Source\PSoC5/CySpc.c **** * Version 5.0
   4:.\Generated_Source\PSoC5/CySpc.c **** *
   5:.\Generated_Source\PSoC5/CySpc.c **** *  Description:
   6:.\Generated_Source\PSoC5/CySpc.c **** *   Provides an API for the System Performance Component.
   7:.\Generated_Source\PSoC5/CySpc.c **** *   The SPC functions are not meant to be called directly by the user
   8:.\Generated_Source\PSoC5/CySpc.c **** *   application.
   9:.\Generated_Source\PSoC5/CySpc.c **** *
  10:.\Generated_Source\PSoC5/CySpc.c **** ********************************************************************************
  11:.\Generated_Source\PSoC5/CySpc.c **** * Copyright 2008-2015, Cypress Semiconductor Corporation.  All rights reserved.
  12:.\Generated_Source\PSoC5/CySpc.c **** * You may use this file only in accordance with the license, terms, conditions,
  13:.\Generated_Source\PSoC5/CySpc.c **** * disclaimers, and limitations in the end user license agreement accompanying
  14:.\Generated_Source\PSoC5/CySpc.c **** * the software package with which this file was provided.
  15:.\Generated_Source\PSoC5/CySpc.c **** *******************************************************************************/
  16:.\Generated_Source\PSoC5/CySpc.c **** 
  17:.\Generated_Source\PSoC5/CySpc.c **** #include "CySpc.h"
  18:.\Generated_Source\PSoC5/CySpc.c **** 
  19:.\Generated_Source\PSoC5/CySpc.c **** #define CY_SPC_KEY_ONE                      (0xB6u)
  20:.\Generated_Source\PSoC5/CySpc.c **** #define CY_SPC_KEY_TWO(x)                   ((uint8) (((uint16) 0xD3u) + ((uint16) (x))))
  21:.\Generated_Source\PSoC5/CySpc.c **** 
  22:.\Generated_Source\PSoC5/CySpc.c **** /* Command Codes */
  23:.\Generated_Source\PSoC5/CySpc.c **** #define CY_SPC_CMD_LD_BYTE                  (0x00u)
  24:.\Generated_Source\PSoC5/CySpc.c **** #define CY_SPC_CMD_LD_MULTI_BYTE            (0x01u)
  25:.\Generated_Source\PSoC5/CySpc.c **** #define CY_SPC_CMD_LD_ROW                   (0x02u)
  26:.\Generated_Source\PSoC5/CySpc.c **** #define CY_SPC_CMD_RD_BYTE                  (0x03u)
  27:.\Generated_Source\PSoC5/CySpc.c **** #define CY_SPC_CMD_RD_MULTI_BYTE            (0x04u)
  28:.\Generated_Source\PSoC5/CySpc.c **** #define CY_SPC_CMD_WR_ROW                   (0x05u)
  29:.\Generated_Source\PSoC5/CySpc.c **** #define CY_SPC_CMD_WR_USER_NVL              (0x06u)
  30:.\Generated_Source\PSoC5/CySpc.c **** #define CY_SPC_CMD_PRG_ROW                  (0x07u)
  31:.\Generated_Source\PSoC5/CySpc.c **** #define CY_SPC_CMD_ER_SECTOR                (0x08u)
ARM GAS  C:\Users\mjphi\AppData\Local\Temp\ccSOutzG.s 			page 2


  32:.\Generated_Source\PSoC5/CySpc.c **** #define CY_SPC_CMD_ER_ALL                   (0x09u)
  33:.\Generated_Source\PSoC5/CySpc.c **** #define CY_SPC_CMD_RD_HIDDEN                (0x0Au)
  34:.\Generated_Source\PSoC5/CySpc.c **** #define CY_SPC_CMD_PRG_PROTECT              (0x0Bu)
  35:.\Generated_Source\PSoC5/CySpc.c **** #define CY_SPC_CMD_CHECKSUM                 (0x0Cu)
  36:.\Generated_Source\PSoC5/CySpc.c **** #define CY_SPC_CMD_DWNLD_ALGORITHM          (0x0Du)
  37:.\Generated_Source\PSoC5/CySpc.c **** #define CY_SPC_CMD_GET_TEMP                 (0x0Eu)
  38:.\Generated_Source\PSoC5/CySpc.c **** #define CY_SPC_CMD_GET_ADC                  (0x0Fu)
  39:.\Generated_Source\PSoC5/CySpc.c **** #define CY_SPC_CMD_RD_NVL_VOLATILE          (0x10u)
  40:.\Generated_Source\PSoC5/CySpc.c **** #define CY_SPC_CMD_SETUP_TS                 (0x11u)
  41:.\Generated_Source\PSoC5/CySpc.c **** #define CY_SPC_CMD_DISABLE_TS               (0x12u)
  42:.\Generated_Source\PSoC5/CySpc.c **** #define CY_SPC_CMD_ER_ROW                   (0x13u)
  43:.\Generated_Source\PSoC5/CySpc.c **** 
  44:.\Generated_Source\PSoC5/CySpc.c **** /* Enable bit in Active and Alternate Active mode templates */
  45:.\Generated_Source\PSoC5/CySpc.c **** #define PM_SPC_PM_EN                        (0x08u)
  46:.\Generated_Source\PSoC5/CySpc.c **** 
  47:.\Generated_Source\PSoC5/CySpc.c **** /* Gate calls to the SPC. */
  48:.\Generated_Source\PSoC5/CySpc.c **** uint8 SpcLockState = CY_SPC_UNLOCKED;
  49:.\Generated_Source\PSoC5/CySpc.c **** 
  50:.\Generated_Source\PSoC5/CySpc.c **** 
  51:.\Generated_Source\PSoC5/CySpc.c **** #if(CY_PSOC5)
  52:.\Generated_Source\PSoC5/CySpc.c **** 
  53:.\Generated_Source\PSoC5/CySpc.c ****     /***************************************************************************
  54:.\Generated_Source\PSoC5/CySpc.c ****     * The wait-state pipeline must be enabled prior to accessing the SPC
  55:.\Generated_Source\PSoC5/CySpc.c ****     * register interface regardless of CPU frequency. The CySpcLock() saves
  56:.\Generated_Source\PSoC5/CySpc.c ****     * current wait-state pipeline state and enables it. The CySpcUnlock()
  57:.\Generated_Source\PSoC5/CySpc.c ****     * function, which must be called after SPC transaction, restores original
  58:.\Generated_Source\PSoC5/CySpc.c ****     * state.
  59:.\Generated_Source\PSoC5/CySpc.c ****     ***************************************************************************/
  60:.\Generated_Source\PSoC5/CySpc.c ****     static uint32 spcWaitPipeBypass = 0u;
  61:.\Generated_Source\PSoC5/CySpc.c **** 
  62:.\Generated_Source\PSoC5/CySpc.c **** #endif  /* (CY_PSOC5) */
  63:.\Generated_Source\PSoC5/CySpc.c **** 
  64:.\Generated_Source\PSoC5/CySpc.c **** 
  65:.\Generated_Source\PSoC5/CySpc.c **** /*******************************************************************************
  66:.\Generated_Source\PSoC5/CySpc.c **** * Function Name: CySpcStart
  67:.\Generated_Source\PSoC5/CySpc.c **** ********************************************************************************
  68:.\Generated_Source\PSoC5/CySpc.c **** * Summary:
  69:.\Generated_Source\PSoC5/CySpc.c **** *  Starts the SPC.
  70:.\Generated_Source\PSoC5/CySpc.c **** *
  71:.\Generated_Source\PSoC5/CySpc.c **** * Parameters:
  72:.\Generated_Source\PSoC5/CySpc.c **** *  None
  73:.\Generated_Source\PSoC5/CySpc.c **** *
  74:.\Generated_Source\PSoC5/CySpc.c **** * Return:
  75:.\Generated_Source\PSoC5/CySpc.c **** *  None
  76:.\Generated_Source\PSoC5/CySpc.c **** *
  77:.\Generated_Source\PSoC5/CySpc.c **** *******************************************************************************/
  78:.\Generated_Source\PSoC5/CySpc.c **** void CySpcStart(void) 
  79:.\Generated_Source\PSoC5/CySpc.c **** {
  27              		.loc 1 79 0
  28              		.cfi_startproc
  29              		@ args = 0, pretend = 0, frame = 0
  30              		@ frame_needed = 0, uses_anonymous_args = 0
  31 0000 08B5     		push	{r3, lr}
  32              		.cfi_def_cfa_offset 8
  33              		.cfi_offset 3, -8
  34              		.cfi_offset 14, -4
  80:.\Generated_Source\PSoC5/CySpc.c ****     /* Save current global interrupt enable and disable it */
ARM GAS  C:\Users\mjphi\AppData\Local\Temp\ccSOutzG.s 			page 3


  81:.\Generated_Source\PSoC5/CySpc.c ****     uint8 interruptState = CyEnterCriticalSection();
  35              		.loc 1 81 0
  36 0002 FFF7FEFF 		bl	CyEnterCriticalSection
  37              	.LVL0:
  82:.\Generated_Source\PSoC5/CySpc.c **** 
  83:.\Generated_Source\PSoC5/CySpc.c ****     CY_SPC_PM_ACT_REG  |= PM_SPC_PM_EN;
  38              		.loc 1 83 0
  39 0006 064A     		ldr	r2, .L2
  40 0008 1378     		ldrb	r3, [r2]	@ zero_extendqisi2
  41 000a 43F00803 		orr	r3, r3, #8
  42 000e 1370     		strb	r3, [r2]
  84:.\Generated_Source\PSoC5/CySpc.c ****     CY_SPC_PM_STBY_REG |= PM_SPC_PM_EN;
  43              		.loc 1 84 0
  44 0010 137C     		ldrb	r3, [r2, #16]	@ zero_extendqisi2
  45 0012 43F00803 		orr	r3, r3, #8
  46 0016 1374     		strb	r3, [r2, #16]
  85:.\Generated_Source\PSoC5/CySpc.c **** 
  86:.\Generated_Source\PSoC5/CySpc.c ****     /* Restore global interrupt enable state */
  87:.\Generated_Source\PSoC5/CySpc.c ****     CyExitCriticalSection(interruptState);
  88:.\Generated_Source\PSoC5/CySpc.c **** }
  47              		.loc 1 88 0
  48 0018 BDE80840 		pop	{r3, lr}
  49              		.cfi_restore 14
  50              		.cfi_restore 3
  51              		.cfi_def_cfa_offset 0
  87:.\Generated_Source\PSoC5/CySpc.c **** }
  52              		.loc 1 87 0
  53 001c FFF7FEBF 		b	CyExitCriticalSection
  54              	.LVL1:
  55              	.L3:
  56              		.align	2
  57              	.L2:
  58 0020 A0430040 		.word	1073759136
  59              		.cfi_endproc
  60              	.LFE0:
  61              		.size	CySpcStart, .-CySpcStart
  62              		.section	.text.CySpcStop,"ax",%progbits
  63              		.align	1
  64              		.global	CySpcStop
  65              		.thumb
  66              		.thumb_func
  67              		.type	CySpcStop, %function
  68              	CySpcStop:
  69              	.LFB1:
  89:.\Generated_Source\PSoC5/CySpc.c **** 
  90:.\Generated_Source\PSoC5/CySpc.c **** 
  91:.\Generated_Source\PSoC5/CySpc.c **** /*******************************************************************************
  92:.\Generated_Source\PSoC5/CySpc.c **** * Function Name: CySpcStop
  93:.\Generated_Source\PSoC5/CySpc.c **** ********************************************************************************
  94:.\Generated_Source\PSoC5/CySpc.c **** * Summary:
  95:.\Generated_Source\PSoC5/CySpc.c **** *  Stops the SPC.
  96:.\Generated_Source\PSoC5/CySpc.c **** *
  97:.\Generated_Source\PSoC5/CySpc.c **** * Parameters:
  98:.\Generated_Source\PSoC5/CySpc.c **** *  None
  99:.\Generated_Source\PSoC5/CySpc.c **** *
 100:.\Generated_Source\PSoC5/CySpc.c **** * Return:
 101:.\Generated_Source\PSoC5/CySpc.c **** *  None
ARM GAS  C:\Users\mjphi\AppData\Local\Temp\ccSOutzG.s 			page 4


 102:.\Generated_Source\PSoC5/CySpc.c **** *
 103:.\Generated_Source\PSoC5/CySpc.c **** *******************************************************************************/
 104:.\Generated_Source\PSoC5/CySpc.c **** void CySpcStop(void) 
 105:.\Generated_Source\PSoC5/CySpc.c **** {
  70              		.loc 1 105 0
  71              		.cfi_startproc
  72              		@ args = 0, pretend = 0, frame = 0
  73              		@ frame_needed = 0, uses_anonymous_args = 0
  74 0000 08B5     		push	{r3, lr}
  75              		.cfi_def_cfa_offset 8
  76              		.cfi_offset 3, -8
  77              		.cfi_offset 14, -4
 106:.\Generated_Source\PSoC5/CySpc.c ****     /* Save current global interrupt enable and disable it */
 107:.\Generated_Source\PSoC5/CySpc.c ****     uint8 interruptState = CyEnterCriticalSection();
  78              		.loc 1 107 0
  79 0002 FFF7FEFF 		bl	CyEnterCriticalSection
  80              	.LVL2:
 108:.\Generated_Source\PSoC5/CySpc.c **** 
 109:.\Generated_Source\PSoC5/CySpc.c ****     CY_SPC_PM_ACT_REG  &= ((uint8)(~PM_SPC_PM_EN));
  81              		.loc 1 109 0
  82 0006 064A     		ldr	r2, .L5
  83 0008 1378     		ldrb	r3, [r2]	@ zero_extendqisi2
  84 000a 03F0F703 		and	r3, r3, #247
  85 000e 1370     		strb	r3, [r2]
 110:.\Generated_Source\PSoC5/CySpc.c ****     CY_SPC_PM_STBY_REG &= ((uint8)(~PM_SPC_PM_EN));
  86              		.loc 1 110 0
  87 0010 137C     		ldrb	r3, [r2, #16]	@ zero_extendqisi2
  88 0012 03F0F703 		and	r3, r3, #247
  89 0016 1374     		strb	r3, [r2, #16]
 111:.\Generated_Source\PSoC5/CySpc.c **** 
 112:.\Generated_Source\PSoC5/CySpc.c ****     /* Restore global interrupt enable state */
 113:.\Generated_Source\PSoC5/CySpc.c ****     CyExitCriticalSection(interruptState);
 114:.\Generated_Source\PSoC5/CySpc.c **** }
  90              		.loc 1 114 0
  91 0018 BDE80840 		pop	{r3, lr}
  92              		.cfi_restore 14
  93              		.cfi_restore 3
  94              		.cfi_def_cfa_offset 0
 113:.\Generated_Source\PSoC5/CySpc.c **** }
  95              		.loc 1 113 0
  96 001c FFF7FEBF 		b	CyExitCriticalSection
  97              	.LVL3:
  98              	.L6:
  99              		.align	2
 100              	.L5:
 101 0020 A0430040 		.word	1073759136
 102              		.cfi_endproc
 103              	.LFE1:
 104              		.size	CySpcStop, .-CySpcStop
 105              		.section	.text.CySpcReadData,"ax",%progbits
 106              		.align	1
 107              		.global	CySpcReadData
 108              		.thumb
 109              		.thumb_func
 110              		.type	CySpcReadData, %function
 111              	CySpcReadData:
 112              	.LFB2:
ARM GAS  C:\Users\mjphi\AppData\Local\Temp\ccSOutzG.s 			page 5


 115:.\Generated_Source\PSoC5/CySpc.c **** 
 116:.\Generated_Source\PSoC5/CySpc.c **** 
 117:.\Generated_Source\PSoC5/CySpc.c **** /*******************************************************************************
 118:.\Generated_Source\PSoC5/CySpc.c **** * Function Name: CySpcReadData
 119:.\Generated_Source\PSoC5/CySpc.c **** ********************************************************************************
 120:.\Generated_Source\PSoC5/CySpc.c **** * Summary:
 121:.\Generated_Source\PSoC5/CySpc.c **** *  Reads data from the SPC.
 122:.\Generated_Source\PSoC5/CySpc.c **** *
 123:.\Generated_Source\PSoC5/CySpc.c **** * Parameters:
 124:.\Generated_Source\PSoC5/CySpc.c **** *  uint8 buffer:
 125:.\Generated_Source\PSoC5/CySpc.c **** *   Address to store data read.
 126:.\Generated_Source\PSoC5/CySpc.c **** *
 127:.\Generated_Source\PSoC5/CySpc.c **** *  uint8 size:
 128:.\Generated_Source\PSoC5/CySpc.c **** *   Number of bytes to read from the SPC.
 129:.\Generated_Source\PSoC5/CySpc.c **** *
 130:.\Generated_Source\PSoC5/CySpc.c **** * Return:
 131:.\Generated_Source\PSoC5/CySpc.c **** *  uint8:
 132:.\Generated_Source\PSoC5/CySpc.c **** *   The number of bytes read from the SPC.
 133:.\Generated_Source\PSoC5/CySpc.c **** *
 134:.\Generated_Source\PSoC5/CySpc.c **** *******************************************************************************/
 135:.\Generated_Source\PSoC5/CySpc.c **** uint8 CySpcReadData(uint8 buffer[], uint8 size) 
 136:.\Generated_Source\PSoC5/CySpc.c **** {
 113              		.loc 1 136 0
 114              		.cfi_startproc
 115              		@ args = 0, pretend = 0, frame = 0
 116              		@ frame_needed = 0, uses_anonymous_args = 0
 117              	.LVL4:
 118 0000 70B5     		push	{r4, r5, r6, lr}
 119              		.cfi_def_cfa_offset 16
 120              		.cfi_offset 4, -16
 121              		.cfi_offset 5, -12
 122              		.cfi_offset 6, -8
 123              		.cfi_offset 14, -4
 124              		.loc 1 136 0
 125 0002 0E46     		mov	r6, r1
 126 0004 4B1E     		subs	r3, r1, #1
 127 0006 451E     		subs	r5, r0, #1
 128 0008 C418     		adds	r4, r0, r3
 129              	.LVL5:
 130              	.L8:
 137:.\Generated_Source\PSoC5/CySpc.c ****     uint8 i;
 138:.\Generated_Source\PSoC5/CySpc.c **** 
 139:.\Generated_Source\PSoC5/CySpc.c ****     for(i = 0u; i < size; i++)
 131              		.loc 1 139 0 discriminator 1
 132 000a A542     		cmp	r5, r4
 133 000c 0CD0     		beq	.L13
 134              	.L11:
 140:.\Generated_Source\PSoC5/CySpc.c ****     {
 141:.\Generated_Source\PSoC5/CySpc.c ****         while(!CY_SPC_DATA_READY)
 135              		.loc 1 141 0
 136 000e 074B     		ldr	r3, .L15
 137 0010 1B78     		ldrb	r3, [r3]	@ zero_extendqisi2
 138 0012 DB07     		lsls	r3, r3, #31
 139 0014 03D4     		bmi	.L14
 142:.\Generated_Source\PSoC5/CySpc.c ****         {
 143:.\Generated_Source\PSoC5/CySpc.c ****             CyDelayUs(1u);
 140              		.loc 1 143 0
ARM GAS  C:\Users\mjphi\AppData\Local\Temp\ccSOutzG.s 			page 6


 141 0016 0120     		movs	r0, #1
 142 0018 FFF7FEFF 		bl	CyDelayUs
 143              	.LVL6:
 144 001c F7E7     		b	.L11
 145              	.L14:
 144:.\Generated_Source\PSoC5/CySpc.c ****         }
 145:.\Generated_Source\PSoC5/CySpc.c ****         buffer[i] = CY_SPC_CPU_DATA_REG;
 146              		.loc 1 145 0 discriminator 2
 147 001e 044B     		ldr	r3, .L15+4
 148 0020 1B78     		ldrb	r3, [r3]	@ zero_extendqisi2
 149 0022 05F8013F 		strb	r3, [r5, #1]!
 150              	.LVL7:
 151 0026 F0E7     		b	.L8
 152              	.L13:
 146:.\Generated_Source\PSoC5/CySpc.c ****     }
 147:.\Generated_Source\PSoC5/CySpc.c **** 
 148:.\Generated_Source\PSoC5/CySpc.c ****     return(i);
 149:.\Generated_Source\PSoC5/CySpc.c **** }
 153              		.loc 1 149 0
 154 0028 3046     		mov	r0, r6
 155 002a 70BD     		pop	{r4, r5, r6, pc}
 156              	.LVL8:
 157              	.L16:
 158              		.align	2
 159              	.L15:
 160 002c 22470040 		.word	1073760034
 161 0030 20470040 		.word	1073760032
 162              		.cfi_endproc
 163              	.LFE2:
 164              		.size	CySpcReadData, .-CySpcReadData
 165              		.section	.text.CySpcLoadMultiByte,"ax",%progbits
 166              		.align	1
 167              		.global	CySpcLoadMultiByte
 168              		.thumb
 169              		.thumb_func
 170              		.type	CySpcLoadMultiByte, %function
 171              	CySpcLoadMultiByte:
 172              	.LFB3:
 150:.\Generated_Source\PSoC5/CySpc.c **** 
 151:.\Generated_Source\PSoC5/CySpc.c **** 
 152:.\Generated_Source\PSoC5/CySpc.c **** /*******************************************************************************
 153:.\Generated_Source\PSoC5/CySpc.c **** * Function Name: CySpcLoadMultiByte
 154:.\Generated_Source\PSoC5/CySpc.c **** ********************************************************************************
 155:.\Generated_Source\PSoC5/CySpc.c **** * Summary:
 156:.\Generated_Source\PSoC5/CySpc.c **** *  Loads 1 to 32 bytes of data into the row latch of a Flash/EEPROM array.
 157:.\Generated_Source\PSoC5/CySpc.c **** *
 158:.\Generated_Source\PSoC5/CySpc.c **** * Parameters:
 159:.\Generated_Source\PSoC5/CySpc.c **** *  uint8 array:
 160:.\Generated_Source\PSoC5/CySpc.c **** *   Id of the array.
 161:.\Generated_Source\PSoC5/CySpc.c **** *
 162:.\Generated_Source\PSoC5/CySpc.c **** *  uint16 address:
 163:.\Generated_Source\PSoC5/CySpc.c **** *   Flash/eeprom addrress
 164:.\Generated_Source\PSoC5/CySpc.c **** *
 165:.\Generated_Source\PSoC5/CySpc.c **** *  uint8* buffer:
 166:.\Generated_Source\PSoC5/CySpc.c **** *   Data to load to the row latch
 167:.\Generated_Source\PSoC5/CySpc.c **** *
 168:.\Generated_Source\PSoC5/CySpc.c **** *  uint16 number:
ARM GAS  C:\Users\mjphi\AppData\Local\Temp\ccSOutzG.s 			page 7


 169:.\Generated_Source\PSoC5/CySpc.c **** *   Number bytes to load.
 170:.\Generated_Source\PSoC5/CySpc.c **** *
 171:.\Generated_Source\PSoC5/CySpc.c **** * Return:
 172:.\Generated_Source\PSoC5/CySpc.c **** *  CYRET_STARTED
 173:.\Generated_Source\PSoC5/CySpc.c **** *  CYRET_CANCELED
 174:.\Generated_Source\PSoC5/CySpc.c **** *  CYRET_LOCKED
 175:.\Generated_Source\PSoC5/CySpc.c **** *  CYRET_BAD_PARAM
 176:.\Generated_Source\PSoC5/CySpc.c **** *
 177:.\Generated_Source\PSoC5/CySpc.c **** *******************************************************************************/
 178:.\Generated_Source\PSoC5/CySpc.c **** cystatus CySpcLoadMultiByte(uint8 array, uint16 address, const uint8 buffer[], uint8 size)\
 179:.\Generated_Source\PSoC5/CySpc.c **** 
 180:.\Generated_Source\PSoC5/CySpc.c **** {
 173              		.loc 1 180 0
 174              		.cfi_startproc
 175              		@ args = 0, pretend = 0, frame = 0
 176              		@ frame_needed = 0, uses_anonymous_args = 0
 177              	.LVL9:
 181:.\Generated_Source\PSoC5/CySpc.c ****     cystatus status = CYRET_STARTED;
 182:.\Generated_Source\PSoC5/CySpc.c ****     uint8 i;
 183:.\Generated_Source\PSoC5/CySpc.c **** 
 184:.\Generated_Source\PSoC5/CySpc.c ****     /***************************************************************************
 185:.\Generated_Source\PSoC5/CySpc.c ****     * Check if number is correct for array. Number must be less than
 186:.\Generated_Source\PSoC5/CySpc.c ****     * 32 for Flash or less than 16 for EEPROM.
 187:.\Generated_Source\PSoC5/CySpc.c ****     ***************************************************************************/
 188:.\Generated_Source\PSoC5/CySpc.c ****     if(((array < CY_SPC_LAST_FLASH_ARRAYID) && (size < 32u)) ||
 178              		.loc 1 188 0
 179 0000 3E28     		cmp	r0, #62
 180:.\Generated_Source\PSoC5/CySpc.c ****     cystatus status = CYRET_STARTED;
 180              		.loc 1 180 0
 181 0002 70B5     		push	{r4, r5, r6, lr}
 182              		.cfi_def_cfa_offset 16
 183              		.cfi_offset 4, -16
 184              		.cfi_offset 5, -12
 185              		.cfi_offset 6, -8
 186              		.cfi_offset 14, -4
 187              		.loc 1 188 0
 188 0004 01D8     		bhi	.L18
 189              		.loc 1 188 0 is_stmt 0 discriminator 1
 190 0006 1F2B     		cmp	r3, #31
 191 0008 02E0     		b	.L28
 192              	.L18:
 193              		.loc 1 188 0 discriminator 3
 194 000a 3F28     		cmp	r0, #63
 195 000c 23D0     		beq	.L24
 189:.\Generated_Source\PSoC5/CySpc.c ****        ((array > CY_SPC_LAST_FLASH_ARRAYID) && (size < 16u)))
 196              		.loc 1 189 0 is_stmt 1
 197 000e 0F2B     		cmp	r3, #15
 198              	.L28:
 199 0010 21D8     		bhi	.L24
 190:.\Generated_Source\PSoC5/CySpc.c ****     {
 191:.\Generated_Source\PSoC5/CySpc.c ****         if(CY_SPC_IDLE)
 200              		.loc 1 191 0
 201 0012 144D     		ldr	r5, .L30
 202 0014 2C78     		ldrb	r4, [r5]	@ zero_extendqisi2
 203 0016 A607     		lsls	r6, r4, #30
 204 0018 1FD5     		bpl	.L25
 192:.\Generated_Source\PSoC5/CySpc.c ****         {
ARM GAS  C:\Users\mjphi\AppData\Local\Temp\ccSOutzG.s 			page 8


 193:.\Generated_Source\PSoC5/CySpc.c ****             CY_SPC_CPU_DATA_REG = CY_SPC_KEY_ONE;
 205              		.loc 1 193 0
 206 001a 134C     		ldr	r4, .L30+4
 207 001c B626     		movs	r6, #182
 208 001e 2670     		strb	r6, [r4]
 194:.\Generated_Source\PSoC5/CySpc.c ****             CY_SPC_CPU_DATA_REG = CY_SPC_KEY_TWO(CY_SPC_CMD_LD_MULTI_BYTE);
 209              		.loc 1 194 0
 210 0020 D426     		movs	r6, #212
 211 0022 2670     		strb	r6, [r4]
 195:.\Generated_Source\PSoC5/CySpc.c ****             CY_SPC_CPU_DATA_REG = CY_SPC_CMD_LD_MULTI_BYTE;
 212              		.loc 1 195 0
 213 0024 0126     		movs	r6, #1
 214 0026 2670     		strb	r6, [r4]
 196:.\Generated_Source\PSoC5/CySpc.c **** 
 197:.\Generated_Source\PSoC5/CySpc.c ****             if(CY_SPC_BUSY)
 215              		.loc 1 197 0
 216 0028 2D78     		ldrb	r5, [r5]	@ zero_extendqisi2
 217 002a AD07     		lsls	r5, r5, #30
 218 002c 17D4     		bmi	.L26
 198:.\Generated_Source\PSoC5/CySpc.c ****             {
 199:.\Generated_Source\PSoC5/CySpc.c ****                 CY_SPC_CPU_DATA_REG = array;
 219              		.loc 1 199 0
 220 002e 2070     		strb	r0, [r4]
 200:.\Generated_Source\PSoC5/CySpc.c ****                 CY_SPC_CPU_DATA_REG = 1u & HI8(address);
 221              		.loc 1 200 0
 222 0030 C1F30020 		ubfx	r0, r1, #8, #1
 223              	.LVL10:
 224 0034 2070     		strb	r0, [r4]
 225              	.LVL11:
 201:.\Generated_Source\PSoC5/CySpc.c ****                 CY_SPC_CPU_DATA_REG = LO8(address);
 202:.\Generated_Source\PSoC5/CySpc.c ****                 CY_SPC_CPU_DATA_REG = ((uint8)(size - 1u));
 203:.\Generated_Source\PSoC5/CySpc.c **** 
 204:.\Generated_Source\PSoC5/CySpc.c ****                 for(i = 0u; i < size; i++)
 226              		.loc 1 204 0
 227 0036 1046     		mov	r0, r2
 201:.\Generated_Source\PSoC5/CySpc.c ****                 CY_SPC_CPU_DATA_REG = LO8(address);
 228              		.loc 1 201 0
 229 0038 C9B2     		uxtb	r1, r1
 230              	.LVL12:
 231 003a 2170     		strb	r1, [r4]
 202:.\Generated_Source\PSoC5/CySpc.c **** 
 232              		.loc 1 202 0
 233 003c 591E     		subs	r1, r3, #1
 234 003e C9B2     		uxtb	r1, r1
 235 0040 2170     		strb	r1, [r4]
 236              	.LVL13:
 237              	.L21:
 238 0042 811A     		subs	r1, r0, r2
 239              		.loc 1 204 0 discriminator 1
 240 0044 C9B2     		uxtb	r1, r1
 241 0046 9942     		cmp	r1, r3
 242 0048 03D2     		bcs	.L29
 205:.\Generated_Source\PSoC5/CySpc.c ****                 {
 206:.\Generated_Source\PSoC5/CySpc.c ****                     CY_SPC_CPU_DATA_REG = buffer[i];
 243              		.loc 1 206 0 discriminator 3
 244 004a 10F8011B 		ldrb	r1, [r0], #1	@ zero_extendqisi2
 245              	.LVL14:
ARM GAS  C:\Users\mjphi\AppData\Local\Temp\ccSOutzG.s 			page 9


 246 004e 2170     		strb	r1, [r4]
 247              	.LVL15:
 248 0050 F7E7     		b	.L21
 249              	.L29:
 181:.\Generated_Source\PSoC5/CySpc.c ****     uint8 i;
 250              		.loc 1 181 0
 251 0052 0720     		movs	r0, #7
 252              	.LVL16:
 253 0054 70BD     		pop	{r4, r5, r6, pc}
 254              	.LVL17:
 255              	.L24:
 207:.\Generated_Source\PSoC5/CySpc.c ****                 }
 208:.\Generated_Source\PSoC5/CySpc.c ****             }
 209:.\Generated_Source\PSoC5/CySpc.c ****             else
 210:.\Generated_Source\PSoC5/CySpc.c ****             {
 211:.\Generated_Source\PSoC5/CySpc.c ****                 status = CYRET_CANCELED;
 212:.\Generated_Source\PSoC5/CySpc.c ****             }
 213:.\Generated_Source\PSoC5/CySpc.c ****         }
 214:.\Generated_Source\PSoC5/CySpc.c ****         else
 215:.\Generated_Source\PSoC5/CySpc.c ****         {
 216:.\Generated_Source\PSoC5/CySpc.c ****             status = CYRET_LOCKED;
 217:.\Generated_Source\PSoC5/CySpc.c ****         }
 218:.\Generated_Source\PSoC5/CySpc.c ****     }
 219:.\Generated_Source\PSoC5/CySpc.c ****     else
 220:.\Generated_Source\PSoC5/CySpc.c ****     {
 221:.\Generated_Source\PSoC5/CySpc.c ****         status = CYRET_BAD_PARAM;
 256              		.loc 1 221 0
 257 0056 0120     		movs	r0, #1
 258              	.LVL18:
 259 0058 70BD     		pop	{r4, r5, r6, pc}
 260              	.LVL19:
 261              	.L25:
 216:.\Generated_Source\PSoC5/CySpc.c ****         }
 262              		.loc 1 216 0
 263 005a 0420     		movs	r0, #4
 264              	.LVL20:
 265 005c 70BD     		pop	{r4, r5, r6, pc}
 266              	.LVL21:
 267              	.L26:
 211:.\Generated_Source\PSoC5/CySpc.c ****             }
 268              		.loc 1 211 0
 269 005e 0920     		movs	r0, #9
 270              	.LVL22:
 222:.\Generated_Source\PSoC5/CySpc.c ****     }
 223:.\Generated_Source\PSoC5/CySpc.c **** 
 224:.\Generated_Source\PSoC5/CySpc.c ****     return(status);
 225:.\Generated_Source\PSoC5/CySpc.c **** }
 271              		.loc 1 225 0
 272 0060 70BD     		pop	{r4, r5, r6, pc}
 273              	.L31:
 274 0062 00BF     		.align	2
 275              	.L30:
 276 0064 22470040 		.word	1073760034
 277 0068 20470040 		.word	1073760032
 278              		.cfi_endproc
 279              	.LFE3:
 280              		.size	CySpcLoadMultiByte, .-CySpcLoadMultiByte
ARM GAS  C:\Users\mjphi\AppData\Local\Temp\ccSOutzG.s 			page 10


 281              		.section	.text.CySpcLoadRow,"ax",%progbits
 282              		.align	1
 283              		.global	CySpcLoadRow
 284              		.thumb
 285              		.thumb_func
 286              		.type	CySpcLoadRow, %function
 287              	CySpcLoadRow:
 288              	.LFB4:
 226:.\Generated_Source\PSoC5/CySpc.c **** 
 227:.\Generated_Source\PSoC5/CySpc.c **** 
 228:.\Generated_Source\PSoC5/CySpc.c **** /*******************************************************************************
 229:.\Generated_Source\PSoC5/CySpc.c **** * Function Name: CySpcLoadRow
 230:.\Generated_Source\PSoC5/CySpc.c **** ********************************************************************************
 231:.\Generated_Source\PSoC5/CySpc.c **** * Summary:
 232:.\Generated_Source\PSoC5/CySpc.c **** *  Loads a row of data into the row latch of a Flash/EEPROM array.
 233:.\Generated_Source\PSoC5/CySpc.c **** *
 234:.\Generated_Source\PSoC5/CySpc.c **** *  The buffer pointer should point to the data that should be written to the
 235:.\Generated_Source\PSoC5/CySpc.c **** *  flash row directly (no data in ECC/flash will be preserved). It is Flash API
 236:.\Generated_Source\PSoC5/CySpc.c **** *  responsibility to prepare data: the preserved data are copied from flash into
 237:.\Generated_Source\PSoC5/CySpc.c **** *  array with the modified data.
 238:.\Generated_Source\PSoC5/CySpc.c **** *
 239:.\Generated_Source\PSoC5/CySpc.c **** * Parameters:
 240:.\Generated_Source\PSoC5/CySpc.c **** *  uint8 array:
 241:.\Generated_Source\PSoC5/CySpc.c **** *   Id of the array.
 242:.\Generated_Source\PSoC5/CySpc.c **** *
 243:.\Generated_Source\PSoC5/CySpc.c **** *  uint8* buffer:
 244:.\Generated_Source\PSoC5/CySpc.c **** *   Data to be loaded to the row latch
 245:.\Generated_Source\PSoC5/CySpc.c **** *
 246:.\Generated_Source\PSoC5/CySpc.c **** *  uint8 size:
 247:.\Generated_Source\PSoC5/CySpc.c **** *   The number of data bytes that the SPC expects to be written. Depends on the
 248:.\Generated_Source\PSoC5/CySpc.c **** *   type of the array and, if the array is Flash, whether ECC is being enabled
 249:.\Generated_Source\PSoC5/CySpc.c **** *   or not. There are following values: flash row latch size with ECC enabled,
 250:.\Generated_Source\PSoC5/CySpc.c **** *   flash row latch size with ECC disabled and EEPROM row latch size.
 251:.\Generated_Source\PSoC5/CySpc.c **** *
 252:.\Generated_Source\PSoC5/CySpc.c **** * Return:
 253:.\Generated_Source\PSoC5/CySpc.c **** *  CYRET_STARTED
 254:.\Generated_Source\PSoC5/CySpc.c **** *  CYRET_CANCELED
 255:.\Generated_Source\PSoC5/CySpc.c **** *  CYRET_LOCKED
 256:.\Generated_Source\PSoC5/CySpc.c **** *
 257:.\Generated_Source\PSoC5/CySpc.c **** *******************************************************************************/
 258:.\Generated_Source\PSoC5/CySpc.c **** cystatus CySpcLoadRow(uint8 array, const uint8 buffer[], uint16 size)
 259:.\Generated_Source\PSoC5/CySpc.c **** {
 289              		.loc 1 259 0
 290              		.cfi_startproc
 291              		@ args = 0, pretend = 0, frame = 0
 292              		@ frame_needed = 0, uses_anonymous_args = 0
 293              	.LVL23:
 294 0000 30B5     		push	{r4, r5, lr}
 295              		.cfi_def_cfa_offset 12
 296              		.cfi_offset 4, -12
 297              		.cfi_offset 5, -8
 298              		.cfi_offset 14, -4
 260:.\Generated_Source\PSoC5/CySpc.c ****     cystatus status = CYRET_STARTED;
 261:.\Generated_Source\PSoC5/CySpc.c ****     uint16 i;
 262:.\Generated_Source\PSoC5/CySpc.c **** 
 263:.\Generated_Source\PSoC5/CySpc.c ****     /* Make sure the SPC is ready to accept command */
 264:.\Generated_Source\PSoC5/CySpc.c ****     if(CY_SPC_IDLE)
ARM GAS  C:\Users\mjphi\AppData\Local\Temp\ccSOutzG.s 			page 11


 299              		.loc 1 264 0
 300 0002 0F4C     		ldr	r4, .L39
 301 0004 2378     		ldrb	r3, [r4]	@ zero_extendqisi2
 302 0006 9D07     		lsls	r5, r3, #30
 303 0008 15D5     		bpl	.L36
 265:.\Generated_Source\PSoC5/CySpc.c ****     {
 266:.\Generated_Source\PSoC5/CySpc.c ****         CY_SPC_CPU_DATA_REG = CY_SPC_KEY_ONE;
 304              		.loc 1 266 0
 305 000a 0E4B     		ldr	r3, .L39+4
 306 000c B625     		movs	r5, #182
 307 000e 1D70     		strb	r5, [r3]
 267:.\Generated_Source\PSoC5/CySpc.c ****         CY_SPC_CPU_DATA_REG = CY_SPC_KEY_TWO(CY_SPC_CMD_LD_ROW);
 308              		.loc 1 267 0
 309 0010 D525     		movs	r5, #213
 310 0012 1D70     		strb	r5, [r3]
 268:.\Generated_Source\PSoC5/CySpc.c ****         CY_SPC_CPU_DATA_REG = CY_SPC_CMD_LD_ROW;
 311              		.loc 1 268 0
 312 0014 0225     		movs	r5, #2
 313 0016 1D70     		strb	r5, [r3]
 269:.\Generated_Source\PSoC5/CySpc.c **** 
 270:.\Generated_Source\PSoC5/CySpc.c ****         /* Make sure the command was accepted */
 271:.\Generated_Source\PSoC5/CySpc.c ****         if(CY_SPC_BUSY)
 314              		.loc 1 271 0
 315 0018 2478     		ldrb	r4, [r4]	@ zero_extendqisi2
 316 001a A407     		lsls	r4, r4, #30
 317 001c 0DD4     		bmi	.L37
 272:.\Generated_Source\PSoC5/CySpc.c ****         {
 273:.\Generated_Source\PSoC5/CySpc.c ****             CY_SPC_CPU_DATA_REG = array;
 274:.\Generated_Source\PSoC5/CySpc.c **** 
 275:.\Generated_Source\PSoC5/CySpc.c ****             for(i = 0u; i < size; i++)
 318              		.loc 1 275 0
 319 001e 0C46     		mov	r4, r1
 273:.\Generated_Source\PSoC5/CySpc.c **** 
 320              		.loc 1 273 0
 321 0020 1870     		strb	r0, [r3]
 322              	.LVL24:
 323              	.L34:
 324 0022 601A     		subs	r0, r4, r1
 325              		.loc 1 275 0 discriminator 1
 326 0024 80B2     		uxth	r0, r0
 327 0026 9042     		cmp	r0, r2
 328 0028 03D2     		bcs	.L38
 276:.\Generated_Source\PSoC5/CySpc.c ****             {
 277:.\Generated_Source\PSoC5/CySpc.c ****                 CY_SPC_CPU_DATA_REG = buffer[i];
 329              		.loc 1 277 0 discriminator 3
 330 002a 14F8010B 		ldrb	r0, [r4], #1	@ zero_extendqisi2
 331              	.LVL25:
 332 002e 1870     		strb	r0, [r3]
 333              	.LVL26:
 334 0030 F7E7     		b	.L34
 335              	.L38:
 260:.\Generated_Source\PSoC5/CySpc.c ****     uint16 i;
 336              		.loc 1 260 0
 337 0032 0720     		movs	r0, #7
 338 0034 30BD     		pop	{r4, r5, pc}
 339              	.LVL27:
 340              	.L36:
ARM GAS  C:\Users\mjphi\AppData\Local\Temp\ccSOutzG.s 			page 12


 278:.\Generated_Source\PSoC5/CySpc.c ****             }
 279:.\Generated_Source\PSoC5/CySpc.c ****         }
 280:.\Generated_Source\PSoC5/CySpc.c ****         else
 281:.\Generated_Source\PSoC5/CySpc.c ****         {
 282:.\Generated_Source\PSoC5/CySpc.c ****             status = CYRET_CANCELED;
 283:.\Generated_Source\PSoC5/CySpc.c ****         }
 284:.\Generated_Source\PSoC5/CySpc.c ****     }
 285:.\Generated_Source\PSoC5/CySpc.c ****     else
 286:.\Generated_Source\PSoC5/CySpc.c ****     {
 287:.\Generated_Source\PSoC5/CySpc.c ****         status = CYRET_LOCKED;
 341              		.loc 1 287 0
 342 0036 0420     		movs	r0, #4
 343              	.LVL28:
 344 0038 30BD     		pop	{r4, r5, pc}
 345              	.LVL29:
 346              	.L37:
 282:.\Generated_Source\PSoC5/CySpc.c ****         }
 347              		.loc 1 282 0
 348 003a 0920     		movs	r0, #9
 349              	.LVL30:
 288:.\Generated_Source\PSoC5/CySpc.c ****     }
 289:.\Generated_Source\PSoC5/CySpc.c **** 
 290:.\Generated_Source\PSoC5/CySpc.c ****     return(status);
 291:.\Generated_Source\PSoC5/CySpc.c **** }
 350              		.loc 1 291 0
 351 003c 30BD     		pop	{r4, r5, pc}
 352              	.L40:
 353 003e 00BF     		.align	2
 354              	.L39:
 355 0040 22470040 		.word	1073760034
 356 0044 20470040 		.word	1073760032
 357              		.cfi_endproc
 358              	.LFE4:
 359              		.size	CySpcLoadRow, .-CySpcLoadRow
 360              		.section	.text.CySpcLoadRowFull,"ax",%progbits
 361              		.align	1
 362              		.global	CySpcLoadRowFull
 363              		.thumb
 364              		.thumb_func
 365              		.type	CySpcLoadRowFull, %function
 366              	CySpcLoadRowFull:
 367              	.LFB5:
 292:.\Generated_Source\PSoC5/CySpc.c **** 
 293:.\Generated_Source\PSoC5/CySpc.c **** 
 294:.\Generated_Source\PSoC5/CySpc.c **** /*******************************************************************************
 295:.\Generated_Source\PSoC5/CySpc.c **** * Function Name: CySpcLoadRowFull
 296:.\Generated_Source\PSoC5/CySpc.c **** ********************************************************************************
 297:.\Generated_Source\PSoC5/CySpc.c **** * Summary:
 298:.\Generated_Source\PSoC5/CySpc.c **** *  Loads a row of data into the row latch of a Flash/EEPROM array.
 299:.\Generated_Source\PSoC5/CySpc.c **** *
 300:.\Generated_Source\PSoC5/CySpc.c **** *  The only data that are going to be changed should be passed. The function
 301:.\Generated_Source\PSoC5/CySpc.c **** *  will handle unmodified data preservation based on DWR settings and input
 302:.\Generated_Source\PSoC5/CySpc.c **** *  parameters.
 303:.\Generated_Source\PSoC5/CySpc.c **** *
 304:.\Generated_Source\PSoC5/CySpc.c **** * Parameters:
 305:.\Generated_Source\PSoC5/CySpc.c **** *  uint8 array:
 306:.\Generated_Source\PSoC5/CySpc.c **** *   Id of the array.
ARM GAS  C:\Users\mjphi\AppData\Local\Temp\ccSOutzG.s 			page 13


 307:.\Generated_Source\PSoC5/CySpc.c **** *
 308:.\Generated_Source\PSoC5/CySpc.c **** *  uint16 row:
 309:.\Generated_Source\PSoC5/CySpc.c **** *   Flash row number to be loaded.
 310:.\Generated_Source\PSoC5/CySpc.c **** *
 311:.\Generated_Source\PSoC5/CySpc.c **** *  uint8* buffer:
 312:.\Generated_Source\PSoC5/CySpc.c **** *   Data to be loaded to the row latch
 313:.\Generated_Source\PSoC5/CySpc.c **** *
 314:.\Generated_Source\PSoC5/CySpc.c **** *  uint8 size:
 315:.\Generated_Source\PSoC5/CySpc.c **** *   The number of data bytes that the SPC expects to be written. Depends on the
 316:.\Generated_Source\PSoC5/CySpc.c **** *   type of the array and, if the array is Flash, whether ECC is being enabled
 317:.\Generated_Source\PSoC5/CySpc.c **** *   or not. There are following values: flash row latch size with ECC enabled,
 318:.\Generated_Source\PSoC5/CySpc.c **** *   flash row latch size with ECC disabled and EEPROM row latch size.
 319:.\Generated_Source\PSoC5/CySpc.c **** *
 320:.\Generated_Source\PSoC5/CySpc.c **** * Return:
 321:.\Generated_Source\PSoC5/CySpc.c **** *  CYRET_STARTED
 322:.\Generated_Source\PSoC5/CySpc.c **** *  CYRET_CANCELED
 323:.\Generated_Source\PSoC5/CySpc.c **** *  CYRET_LOCKED
 324:.\Generated_Source\PSoC5/CySpc.c **** *
 325:.\Generated_Source\PSoC5/CySpc.c **** *******************************************************************************/
 326:.\Generated_Source\PSoC5/CySpc.c **** cystatus CySpcLoadRowFull(uint8 array, uint16 row, const uint8 buffer[], uint16 size)\
 327:.\Generated_Source\PSoC5/CySpc.c **** 
 328:.\Generated_Source\PSoC5/CySpc.c **** {
 368              		.loc 1 328 0
 369              		.cfi_startproc
 370              		@ args = 0, pretend = 0, frame = 0
 371              		@ frame_needed = 0, uses_anonymous_args = 0
 372              	.LVL31:
 373 0000 70B5     		push	{r4, r5, r6, lr}
 374              		.cfi_def_cfa_offset 16
 375              		.cfi_offset 4, -16
 376              		.cfi_offset 5, -12
 377              		.cfi_offset 6, -8
 378              		.cfi_offset 14, -4
 329:.\Generated_Source\PSoC5/CySpc.c ****     cystatus status = CYRET_STARTED;
 330:.\Generated_Source\PSoC5/CySpc.c ****     uint16 i;
 331:.\Generated_Source\PSoC5/CySpc.c **** 
 332:.\Generated_Source\PSoC5/CySpc.c ****     #if (CYDEV_ECC_ENABLE == 0)
 333:.\Generated_Source\PSoC5/CySpc.c ****         uint32 offset;
 334:.\Generated_Source\PSoC5/CySpc.c ****     #endif /* (CYDEV_ECC_ENABLE == 0) */
 335:.\Generated_Source\PSoC5/CySpc.c **** 
 336:.\Generated_Source\PSoC5/CySpc.c ****     /* Make sure the SPC is ready to accept command */
 337:.\Generated_Source\PSoC5/CySpc.c ****     if(CY_SPC_IDLE)
 379              		.loc 1 337 0
 380 0002 184D     		ldr	r5, .L52
 381 0004 2C78     		ldrb	r4, [r5]	@ zero_extendqisi2
 382 0006 A607     		lsls	r6, r4, #30
 383 0008 27D5     		bpl	.L48
 338:.\Generated_Source\PSoC5/CySpc.c ****     {
 339:.\Generated_Source\PSoC5/CySpc.c ****         CY_SPC_CPU_DATA_REG = CY_SPC_KEY_ONE;
 384              		.loc 1 339 0
 385 000a 174C     		ldr	r4, .L52+4
 386 000c B626     		movs	r6, #182
 387 000e 2670     		strb	r6, [r4]
 340:.\Generated_Source\PSoC5/CySpc.c ****         CY_SPC_CPU_DATA_REG = CY_SPC_KEY_TWO(CY_SPC_CMD_LD_ROW);
 388              		.loc 1 340 0
 389 0010 D526     		movs	r6, #213
 390 0012 2670     		strb	r6, [r4]
ARM GAS  C:\Users\mjphi\AppData\Local\Temp\ccSOutzG.s 			page 14


 341:.\Generated_Source\PSoC5/CySpc.c ****         CY_SPC_CPU_DATA_REG = CY_SPC_CMD_LD_ROW;
 391              		.loc 1 341 0
 392 0014 0226     		movs	r6, #2
 393 0016 2670     		strb	r6, [r4]
 342:.\Generated_Source\PSoC5/CySpc.c **** 
 343:.\Generated_Source\PSoC5/CySpc.c ****         /* Make sure the command was accepted */
 344:.\Generated_Source\PSoC5/CySpc.c ****         if(CY_SPC_BUSY)
 394              		.loc 1 344 0
 395 0018 2D78     		ldrb	r5, [r5]	@ zero_extendqisi2
 396 001a AD07     		lsls	r5, r5, #30
 397 001c 1FD4     		bmi	.L49
 345:.\Generated_Source\PSoC5/CySpc.c ****         {
 346:.\Generated_Source\PSoC5/CySpc.c ****             CY_SPC_CPU_DATA_REG = array;
 347:.\Generated_Source\PSoC5/CySpc.c **** 
 348:.\Generated_Source\PSoC5/CySpc.c ****             /*******************************************************************
 349:.\Generated_Source\PSoC5/CySpc.c ****             * If "Enable Error Correcting Code (ECC)" and "Store Configuration
 350:.\Generated_Source\PSoC5/CySpc.c ****             * Data in ECC" DWR options are disabled, ECC section is available
 351:.\Generated_Source\PSoC5/CySpc.c ****             * for user data.
 352:.\Generated_Source\PSoC5/CySpc.c ****             *******************************************************************/
 353:.\Generated_Source\PSoC5/CySpc.c ****             #if ((CYDEV_ECC_ENABLE == 0u) && (CYDEV_CONFIGURATION_ECC == 0u))
 354:.\Generated_Source\PSoC5/CySpc.c **** 
 355:.\Generated_Source\PSoC5/CySpc.c ****                 /*******************************************************************
 356:.\Generated_Source\PSoC5/CySpc.c ****                 * If size parameter equals size of the ECC row and selected array
 357:.\Generated_Source\PSoC5/CySpc.c ****                 * identification corresponds to the flash array (but not to EEPROM
 358:.\Generated_Source\PSoC5/CySpc.c ****                 * array) then data are going to be written to the ECC section.
 359:.\Generated_Source\PSoC5/CySpc.c ****                 * In this case flash data must be preserved. The flash data copied
 360:.\Generated_Source\PSoC5/CySpc.c ****                 * from flash data section to the SPC data register.
 361:.\Generated_Source\PSoC5/CySpc.c ****                 *******************************************************************/
 362:.\Generated_Source\PSoC5/CySpc.c ****                 if ((size == CYDEV_ECC_ROW_SIZE) && (array <= CY_SPC_LAST_FLASH_ARRAYID))
 363:.\Generated_Source\PSoC5/CySpc.c ****                 {
 364:.\Generated_Source\PSoC5/CySpc.c ****                     offset = CYDEV_FLS_BASE +
 365:.\Generated_Source\PSoC5/CySpc.c ****                              ((uint32) array * CYDEV_FLS_SECTOR_SIZE) +
 366:.\Generated_Source\PSoC5/CySpc.c ****                              ((uint32)   row * CYDEV_FLS_ROW_SIZE   );
 367:.\Generated_Source\PSoC5/CySpc.c **** 
 368:.\Generated_Source\PSoC5/CySpc.c ****                     for (i = 0u; i < CYDEV_FLS_ROW_SIZE; i++)
 369:.\Generated_Source\PSoC5/CySpc.c ****                     {
 370:.\Generated_Source\PSoC5/CySpc.c ****                         CY_SPC_CPU_DATA_REG = CY_GET_XTND_REG8((void CYFAR *)(offset + i));
 371:.\Generated_Source\PSoC5/CySpc.c ****                     }
 372:.\Generated_Source\PSoC5/CySpc.c ****                 }
 373:.\Generated_Source\PSoC5/CySpc.c **** 
 374:.\Generated_Source\PSoC5/CySpc.c ****             #endif /* ((CYDEV_ECC_ENABLE == 0u) && (CYDEV_CONFIGURATION_ECC == 0u)) */
 375:.\Generated_Source\PSoC5/CySpc.c **** 
 376:.\Generated_Source\PSoC5/CySpc.c **** 
 377:.\Generated_Source\PSoC5/CySpc.c ****             for(i = 0u; i < size; i++)
 398              		.loc 1 377 0
 399 001e 1646     		mov	r6, r2
 346:.\Generated_Source\PSoC5/CySpc.c **** 
 400              		.loc 1 346 0
 401 0020 2070     		strb	r0, [r4]
 402              	.LVL32:
 403              	.L43:
 404 0022 B51A     		subs	r5, r6, r2
 405              		.loc 1 377 0 discriminator 1
 406 0024 ADB2     		uxth	r5, r5
 407 0026 9D42     		cmp	r5, r3
 408 0028 03D2     		bcs	.L51
 378:.\Generated_Source\PSoC5/CySpc.c ****             {
ARM GAS  C:\Users\mjphi\AppData\Local\Temp\ccSOutzG.s 			page 15


 379:.\Generated_Source\PSoC5/CySpc.c ****                 CY_SPC_CPU_DATA_REG = buffer[i];
 409              		.loc 1 379 0 discriminator 3
 410 002a 16F8015B 		ldrb	r5, [r6], #1	@ zero_extendqisi2
 411              	.LVL33:
 412 002e 2570     		strb	r5, [r4]
 413              	.LVL34:
 414 0030 F7E7     		b	.L43
 415              	.L51:
 380:.\Generated_Source\PSoC5/CySpc.c ****             }
 381:.\Generated_Source\PSoC5/CySpc.c **** 
 382:.\Generated_Source\PSoC5/CySpc.c **** 
 383:.\Generated_Source\PSoC5/CySpc.c ****             /*******************************************************************
 384:.\Generated_Source\PSoC5/CySpc.c ****             * If "Enable Error Correcting Code (ECC)" DWR option is disabled,
 385:.\Generated_Source\PSoC5/CySpc.c ****             * ECC section can be used for storing device configuration data
 386:.\Generated_Source\PSoC5/CySpc.c ****             * ("Store Configuration Data in ECC" DWR option is enabled) or for
 387:.\Generated_Source\PSoC5/CySpc.c ****             * storing user data in the ECC section ("Store Configuration Data in
 388:.\Generated_Source\PSoC5/CySpc.c ****             * ECC" DWR option is enabled). In both cases, the data in the ECC
 389:.\Generated_Source\PSoC5/CySpc.c ****             * section must be preserved if flash data is written.
 390:.\Generated_Source\PSoC5/CySpc.c ****             *******************************************************************/
 391:.\Generated_Source\PSoC5/CySpc.c ****             #if (CYDEV_ECC_ENABLE == 0)
 392:.\Generated_Source\PSoC5/CySpc.c **** 
 393:.\Generated_Source\PSoC5/CySpc.c **** 
 394:.\Generated_Source\PSoC5/CySpc.c ****                 /*******************************************************************
 395:.\Generated_Source\PSoC5/CySpc.c ****                 * If size parameter equals size of the flash row and selected array
 396:.\Generated_Source\PSoC5/CySpc.c ****                 * identification corresponds to the flash array (but not to EEPROM
 397:.\Generated_Source\PSoC5/CySpc.c ****                 * array) then data are going to be written to the flash data
 398:.\Generated_Source\PSoC5/CySpc.c ****                 * section. In this case, ECC section data must be preserved.
 399:.\Generated_Source\PSoC5/CySpc.c ****                 * The ECC section data copied from ECC section to the SPC data
 400:.\Generated_Source\PSoC5/CySpc.c ****                 * register.
 401:.\Generated_Source\PSoC5/CySpc.c ****                 *******************************************************************/
 402:.\Generated_Source\PSoC5/CySpc.c ****                 if ((size == CYDEV_FLS_ROW_SIZE) && (array <= CY_SPC_LAST_FLASH_ARRAYID))
 416              		.loc 1 402 0
 417 0032 B3F5807F 		cmp	r3, #256
 418 0036 01D0     		beq	.L45
 419              	.LVL35:
 420              	.L46:
 329:.\Generated_Source\PSoC5/CySpc.c ****     uint16 i;
 421              		.loc 1 329 0
 422 0038 0720     		movs	r0, #7
 423 003a 70BD     		pop	{r4, r5, r6, pc}
 424              	.LVL36:
 425              	.L45:
 426              		.loc 1 402 0 discriminator 1
 427 003c 3F28     		cmp	r0, #63
 428 003e FBD8     		bhi	.L46
 403:.\Generated_Source\PSoC5/CySpc.c ****                 {
 404:.\Generated_Source\PSoC5/CySpc.c ****                     offset = CYDEV_ECC_BASE +
 405:.\Generated_Source\PSoC5/CySpc.c ****                             ((uint32) array * CYDEV_ECC_SECTOR_SIZE) +
 429              		.loc 1 405 0
 430 0040 00F51030 		add	r0, r0, #147456
 431              	.LVL37:
 432 0044 01EB0021 		add	r1, r1, r0, lsl #8
 433              	.LVL38:
 404:.\Generated_Source\PSoC5/CySpc.c ****                             ((uint32) array * CYDEV_ECC_SECTOR_SIZE) +
 434              		.loc 1 404 0
 435 0048 4901     		lsls	r1, r1, #5
 436              	.LVL39:
ARM GAS  C:\Users\mjphi\AppData\Local\Temp\ccSOutzG.s 			page 16


 437 004a 0023     		movs	r3, #0
 438              	.LVL40:
 439              	.L47:
 406:.\Generated_Source\PSoC5/CySpc.c ****                             ((uint32) row   * CYDEV_ECC_ROW_SIZE   );
 407:.\Generated_Source\PSoC5/CySpc.c **** 
 408:.\Generated_Source\PSoC5/CySpc.c ****                     for (i = 0u; i < CYDEV_ECC_ROW_SIZE; i++)
 409:.\Generated_Source\PSoC5/CySpc.c ****                     {
 410:.\Generated_Source\PSoC5/CySpc.c ****                         CY_SPC_CPU_DATA_REG = CY_GET_XTND_REG8((void CYFAR *)(offset + i));
 440              		.loc 1 410 0 discriminator 3
 441 004c 5A5C     		ldrb	r2, [r3, r1]	@ zero_extendqisi2
 442 004e 0133     		adds	r3, r3, #1
 443              	.LVL41:
 444 0050 D2B2     		uxtb	r2, r2
 408:.\Generated_Source\PSoC5/CySpc.c ****                     {
 445              		.loc 1 408 0 discriminator 3
 446 0052 202B     		cmp	r3, #32
 447              		.loc 1 410 0 discriminator 3
 448 0054 2270     		strb	r2, [r4]
 408:.\Generated_Source\PSoC5/CySpc.c ****                     {
 449              		.loc 1 408 0 discriminator 3
 450 0056 F9D1     		bne	.L47
 451 0058 EEE7     		b	.L46
 452              	.LVL42:
 453              	.L48:
 411:.\Generated_Source\PSoC5/CySpc.c ****                     }
 412:.\Generated_Source\PSoC5/CySpc.c ****                 }
 413:.\Generated_Source\PSoC5/CySpc.c **** 
 414:.\Generated_Source\PSoC5/CySpc.c ****             #else
 415:.\Generated_Source\PSoC5/CySpc.c **** 
 416:.\Generated_Source\PSoC5/CySpc.c ****                 if(0u != row)
 417:.\Generated_Source\PSoC5/CySpc.c ****                 {
 418:.\Generated_Source\PSoC5/CySpc.c ****                     /* To remove unreferenced local variable warning */
 419:.\Generated_Source\PSoC5/CySpc.c ****                 }
 420:.\Generated_Source\PSoC5/CySpc.c **** 
 421:.\Generated_Source\PSoC5/CySpc.c ****             #endif /* (CYDEV_ECC_ENABLE == 0) */
 422:.\Generated_Source\PSoC5/CySpc.c ****         }
 423:.\Generated_Source\PSoC5/CySpc.c ****         else
 424:.\Generated_Source\PSoC5/CySpc.c ****         {
 425:.\Generated_Source\PSoC5/CySpc.c ****             status = CYRET_CANCELED;
 426:.\Generated_Source\PSoC5/CySpc.c ****         }
 427:.\Generated_Source\PSoC5/CySpc.c ****     }
 428:.\Generated_Source\PSoC5/CySpc.c ****     else
 429:.\Generated_Source\PSoC5/CySpc.c ****     {
 430:.\Generated_Source\PSoC5/CySpc.c ****         status = CYRET_LOCKED;
 454              		.loc 1 430 0
 455 005a 0420     		movs	r0, #4
 456              	.LVL43:
 457 005c 70BD     		pop	{r4, r5, r6, pc}
 458              	.LVL44:
 459              	.L49:
 425:.\Generated_Source\PSoC5/CySpc.c ****         }
 460              		.loc 1 425 0
 461 005e 0920     		movs	r0, #9
 462              	.LVL45:
 431:.\Generated_Source\PSoC5/CySpc.c ****     }
 432:.\Generated_Source\PSoC5/CySpc.c **** 
 433:.\Generated_Source\PSoC5/CySpc.c ****     return(status);
ARM GAS  C:\Users\mjphi\AppData\Local\Temp\ccSOutzG.s 			page 17


 434:.\Generated_Source\PSoC5/CySpc.c **** }
 463              		.loc 1 434 0
 464 0060 70BD     		pop	{r4, r5, r6, pc}
 465              	.L53:
 466 0062 00BF     		.align	2
 467              	.L52:
 468 0064 22470040 		.word	1073760034
 469 0068 20470040 		.word	1073760032
 470              		.cfi_endproc
 471              	.LFE5:
 472              		.size	CySpcLoadRowFull, .-CySpcLoadRowFull
 473              		.section	.text.CySpcWriteRow,"ax",%progbits
 474              		.align	1
 475              		.global	CySpcWriteRow
 476              		.thumb
 477              		.thumb_func
 478              		.type	CySpcWriteRow, %function
 479              	CySpcWriteRow:
 480              	.LFB6:
 435:.\Generated_Source\PSoC5/CySpc.c **** 
 436:.\Generated_Source\PSoC5/CySpc.c **** 
 437:.\Generated_Source\PSoC5/CySpc.c **** /*******************************************************************************
 438:.\Generated_Source\PSoC5/CySpc.c **** * Function Name: CySpcWriteRow
 439:.\Generated_Source\PSoC5/CySpc.c **** ********************************************************************************
 440:.\Generated_Source\PSoC5/CySpc.c **** * Summary:
 441:.\Generated_Source\PSoC5/CySpc.c **** *  Erases then programs a row in Flash/EEPROM with data in row latch.
 442:.\Generated_Source\PSoC5/CySpc.c **** *
 443:.\Generated_Source\PSoC5/CySpc.c **** * Parameters:
 444:.\Generated_Source\PSoC5/CySpc.c **** *  uint8 array:
 445:.\Generated_Source\PSoC5/CySpc.c **** *   Id of the array.
 446:.\Generated_Source\PSoC5/CySpc.c **** *
 447:.\Generated_Source\PSoC5/CySpc.c **** *  uint16 address:
 448:.\Generated_Source\PSoC5/CySpc.c **** *   flash/eeprom addrress
 449:.\Generated_Source\PSoC5/CySpc.c **** *
 450:.\Generated_Source\PSoC5/CySpc.c **** *  uint8 tempPolarity:
 451:.\Generated_Source\PSoC5/CySpc.c **** *   temperature polarity.
 452:.\Generated_Source\PSoC5/CySpc.c **** *   1: the Temp Magnitude is interpreted as a positive value
 453:.\Generated_Source\PSoC5/CySpc.c **** *   0: the Temp Magnitude is interpreted as a negative value
 454:.\Generated_Source\PSoC5/CySpc.c **** *
 455:.\Generated_Source\PSoC5/CySpc.c **** *  uint8 tempMagnitude:
 456:.\Generated_Source\PSoC5/CySpc.c **** *   temperature magnitude.
 457:.\Generated_Source\PSoC5/CySpc.c **** *
 458:.\Generated_Source\PSoC5/CySpc.c **** * Return:
 459:.\Generated_Source\PSoC5/CySpc.c **** *  CYRET_STARTED
 460:.\Generated_Source\PSoC5/CySpc.c **** *  CYRET_CANCELED
 461:.\Generated_Source\PSoC5/CySpc.c **** *  CYRET_LOCKED
 462:.\Generated_Source\PSoC5/CySpc.c **** *
 463:.\Generated_Source\PSoC5/CySpc.c **** *******************************************************************************/
 464:.\Generated_Source\PSoC5/CySpc.c **** cystatus CySpcWriteRow(uint8 array, uint16 address, uint8 tempPolarity, uint8 tempMagnitude)\
 465:.\Generated_Source\PSoC5/CySpc.c **** 
 466:.\Generated_Source\PSoC5/CySpc.c **** {
 481              		.loc 1 466 0
 482              		.cfi_startproc
 483              		@ args = 0, pretend = 0, frame = 0
 484              		@ frame_needed = 0, uses_anonymous_args = 0
 485              	.LVL46:
 486 0000 70B5     		push	{r4, r5, r6, lr}
ARM GAS  C:\Users\mjphi\AppData\Local\Temp\ccSOutzG.s 			page 18


 487              		.cfi_def_cfa_offset 16
 488              		.cfi_offset 4, -16
 489              		.cfi_offset 5, -12
 490              		.cfi_offset 6, -8
 491              		.cfi_offset 14, -4
 467:.\Generated_Source\PSoC5/CySpc.c ****     cystatus status = CYRET_STARTED;
 468:.\Generated_Source\PSoC5/CySpc.c **** 
 469:.\Generated_Source\PSoC5/CySpc.c ****     /* Make sure the SPC is ready to accept command */
 470:.\Generated_Source\PSoC5/CySpc.c ****     if(CY_SPC_IDLE)
 492              		.loc 1 470 0
 493 0002 0D4D     		ldr	r5, .L58
 494 0004 2C78     		ldrb	r4, [r5]	@ zero_extendqisi2
 495 0006 A607     		lsls	r6, r4, #30
 496 0008 12D5     		bpl	.L56
 471:.\Generated_Source\PSoC5/CySpc.c ****     {
 472:.\Generated_Source\PSoC5/CySpc.c ****         CY_SPC_CPU_DATA_REG = CY_SPC_KEY_ONE;
 497              		.loc 1 472 0
 498 000a 0C4C     		ldr	r4, .L58+4
 499 000c B626     		movs	r6, #182
 500 000e 2670     		strb	r6, [r4]
 473:.\Generated_Source\PSoC5/CySpc.c ****         CY_SPC_CPU_DATA_REG = CY_SPC_KEY_TWO(CY_SPC_CMD_WR_ROW);
 501              		.loc 1 473 0
 502 0010 D826     		movs	r6, #216
 503 0012 2670     		strb	r6, [r4]
 474:.\Generated_Source\PSoC5/CySpc.c ****         CY_SPC_CPU_DATA_REG = CY_SPC_CMD_WR_ROW;
 504              		.loc 1 474 0
 505 0014 0526     		movs	r6, #5
 506 0016 2670     		strb	r6, [r4]
 475:.\Generated_Source\PSoC5/CySpc.c **** 
 476:.\Generated_Source\PSoC5/CySpc.c ****         /* Make sure the command was accepted */
 477:.\Generated_Source\PSoC5/CySpc.c ****         if(CY_SPC_BUSY)
 507              		.loc 1 477 0
 508 0018 2D78     		ldrb	r5, [r5]	@ zero_extendqisi2
 509 001a AD07     		lsls	r5, r5, #30
 510 001c 0AD4     		bmi	.L57
 478:.\Generated_Source\PSoC5/CySpc.c ****         {
 479:.\Generated_Source\PSoC5/CySpc.c ****             CY_SPC_CPU_DATA_REG = array;
 511              		.loc 1 479 0
 512 001e 2070     		strb	r0, [r4]
 480:.\Generated_Source\PSoC5/CySpc.c ****             CY_SPC_CPU_DATA_REG = HI8(address);
 513              		.loc 1 480 0
 514 0020 080A     		lsrs	r0, r1, #8
 515              	.LVL47:
 481:.\Generated_Source\PSoC5/CySpc.c ****             CY_SPC_CPU_DATA_REG = LO8(address);
 516              		.loc 1 481 0
 517 0022 C9B2     		uxtb	r1, r1
 518              	.LVL48:
 480:.\Generated_Source\PSoC5/CySpc.c ****             CY_SPC_CPU_DATA_REG = HI8(address);
 519              		.loc 1 480 0
 520 0024 2070     		strb	r0, [r4]
 521              	.LVL49:
 522              		.loc 1 481 0
 523 0026 2170     		strb	r1, [r4]
 482:.\Generated_Source\PSoC5/CySpc.c ****             CY_SPC_CPU_DATA_REG = tempPolarity;
 524              		.loc 1 482 0
 525 0028 2270     		strb	r2, [r4]
 483:.\Generated_Source\PSoC5/CySpc.c ****             CY_SPC_CPU_DATA_REG = tempMagnitude;
ARM GAS  C:\Users\mjphi\AppData\Local\Temp\ccSOutzG.s 			page 19


 526              		.loc 1 483 0
 527 002a 2370     		strb	r3, [r4]
 467:.\Generated_Source\PSoC5/CySpc.c **** 
 528              		.loc 1 467 0
 529 002c 0720     		movs	r0, #7
 530 002e 70BD     		pop	{r4, r5, r6, pc}
 531              	.LVL50:
 532              	.L56:
 484:.\Generated_Source\PSoC5/CySpc.c ****         }
 485:.\Generated_Source\PSoC5/CySpc.c ****         else
 486:.\Generated_Source\PSoC5/CySpc.c ****         {
 487:.\Generated_Source\PSoC5/CySpc.c ****             status = CYRET_CANCELED;
 488:.\Generated_Source\PSoC5/CySpc.c ****         }
 489:.\Generated_Source\PSoC5/CySpc.c ****     }
 490:.\Generated_Source\PSoC5/CySpc.c ****     else
 491:.\Generated_Source\PSoC5/CySpc.c ****     {
 492:.\Generated_Source\PSoC5/CySpc.c ****         status = CYRET_LOCKED;
 533              		.loc 1 492 0
 534 0030 0420     		movs	r0, #4
 535              	.LVL51:
 536 0032 70BD     		pop	{r4, r5, r6, pc}
 537              	.LVL52:
 538              	.L57:
 487:.\Generated_Source\PSoC5/CySpc.c ****         }
 539              		.loc 1 487 0
 540 0034 0920     		movs	r0, #9
 541              	.LVL53:
 493:.\Generated_Source\PSoC5/CySpc.c ****     }
 494:.\Generated_Source\PSoC5/CySpc.c **** 
 495:.\Generated_Source\PSoC5/CySpc.c ****     return(status);
 496:.\Generated_Source\PSoC5/CySpc.c **** }
 542              		.loc 1 496 0
 543 0036 70BD     		pop	{r4, r5, r6, pc}
 544              	.L59:
 545              		.align	2
 546              	.L58:
 547 0038 22470040 		.word	1073760034
 548 003c 20470040 		.word	1073760032
 549              		.cfi_endproc
 550              	.LFE6:
 551              		.size	CySpcWriteRow, .-CySpcWriteRow
 552              		.section	.text.CySpcEraseSector,"ax",%progbits
 553              		.align	1
 554              		.global	CySpcEraseSector
 555              		.thumb
 556              		.thumb_func
 557              		.type	CySpcEraseSector, %function
 558              	CySpcEraseSector:
 559              	.LFB7:
 497:.\Generated_Source\PSoC5/CySpc.c **** 
 498:.\Generated_Source\PSoC5/CySpc.c **** 
 499:.\Generated_Source\PSoC5/CySpc.c **** /*******************************************************************************
 500:.\Generated_Source\PSoC5/CySpc.c **** * Function Name: CySpcEraseSector
 501:.\Generated_Source\PSoC5/CySpc.c **** ********************************************************************************
 502:.\Generated_Source\PSoC5/CySpc.c **** * Summary:
 503:.\Generated_Source\PSoC5/CySpc.c **** *  Erases all data in the addressed sector (block of 64 rows).
 504:.\Generated_Source\PSoC5/CySpc.c **** *
ARM GAS  C:\Users\mjphi\AppData\Local\Temp\ccSOutzG.s 			page 20


 505:.\Generated_Source\PSoC5/CySpc.c **** * Parameters:
 506:.\Generated_Source\PSoC5/CySpc.c **** *  uint8 array:
 507:.\Generated_Source\PSoC5/CySpc.c **** *   Id of the array.
 508:.\Generated_Source\PSoC5/CySpc.c **** *
 509:.\Generated_Source\PSoC5/CySpc.c **** *  uint8 sectorNumber:
 510:.\Generated_Source\PSoC5/CySpc.c **** *   Zero based sector number within Flash/EEPROM array
 511:.\Generated_Source\PSoC5/CySpc.c **** *
 512:.\Generated_Source\PSoC5/CySpc.c **** * Return:
 513:.\Generated_Source\PSoC5/CySpc.c **** *  CYRET_STARTED
 514:.\Generated_Source\PSoC5/CySpc.c **** *  CYRET_CANCELED
 515:.\Generated_Source\PSoC5/CySpc.c **** *  CYRET_LOCKED
 516:.\Generated_Source\PSoC5/CySpc.c **** *
 517:.\Generated_Source\PSoC5/CySpc.c **** *******************************************************************************/
 518:.\Generated_Source\PSoC5/CySpc.c **** cystatus CySpcEraseSector(uint8 array, uint8 sectorNumber)
 519:.\Generated_Source\PSoC5/CySpc.c **** {
 560              		.loc 1 519 0
 561              		.cfi_startproc
 562              		@ args = 0, pretend = 0, frame = 0
 563              		@ frame_needed = 0, uses_anonymous_args = 0
 564              	.LVL54:
 565 0000 10B5     		push	{r4, lr}
 566              		.cfi_def_cfa_offset 8
 567              		.cfi_offset 4, -8
 568              		.cfi_offset 14, -4
 520:.\Generated_Source\PSoC5/CySpc.c ****     cystatus status = CYRET_STARTED;
 521:.\Generated_Source\PSoC5/CySpc.c **** 
 522:.\Generated_Source\PSoC5/CySpc.c ****     /* Make sure the SPC is ready to accept command */
 523:.\Generated_Source\PSoC5/CySpc.c ****     if(CY_SPC_IDLE)
 569              		.loc 1 523 0
 570 0002 0B4A     		ldr	r2, .L64
 571 0004 1378     		ldrb	r3, [r2]	@ zero_extendqisi2
 572 0006 9C07     		lsls	r4, r3, #30
 573 0008 0DD5     		bpl	.L62
 524:.\Generated_Source\PSoC5/CySpc.c ****     {
 525:.\Generated_Source\PSoC5/CySpc.c ****         CY_SPC_CPU_DATA_REG = CY_SPC_KEY_ONE;
 574              		.loc 1 525 0
 575 000a 0A4B     		ldr	r3, .L64+4
 576 000c B624     		movs	r4, #182
 577 000e 1C70     		strb	r4, [r3]
 526:.\Generated_Source\PSoC5/CySpc.c ****         CY_SPC_CPU_DATA_REG = CY_SPC_KEY_TWO(CY_SPC_CMD_ER_SECTOR);
 578              		.loc 1 526 0
 579 0010 DB24     		movs	r4, #219
 580 0012 1C70     		strb	r4, [r3]
 527:.\Generated_Source\PSoC5/CySpc.c ****         CY_SPC_CPU_DATA_REG = CY_SPC_CMD_ER_SECTOR;
 581              		.loc 1 527 0
 582 0014 0824     		movs	r4, #8
 583 0016 1C70     		strb	r4, [r3]
 528:.\Generated_Source\PSoC5/CySpc.c **** 
 529:.\Generated_Source\PSoC5/CySpc.c ****         /* Make sure the command was accepted */
 530:.\Generated_Source\PSoC5/CySpc.c ****         if(CY_SPC_BUSY)
 584              		.loc 1 530 0
 585 0018 1278     		ldrb	r2, [r2]	@ zero_extendqisi2
 586 001a 9207     		lsls	r2, r2, #30
 587 001c 05D4     		bmi	.L63
 531:.\Generated_Source\PSoC5/CySpc.c ****         {
 532:.\Generated_Source\PSoC5/CySpc.c ****             CY_SPC_CPU_DATA_REG = array;
 588              		.loc 1 532 0
ARM GAS  C:\Users\mjphi\AppData\Local\Temp\ccSOutzG.s 			page 21


 589 001e 1870     		strb	r0, [r3]
 533:.\Generated_Source\PSoC5/CySpc.c ****             CY_SPC_CPU_DATA_REG = sectorNumber;
 590              		.loc 1 533 0
 591 0020 1970     		strb	r1, [r3]
 520:.\Generated_Source\PSoC5/CySpc.c **** 
 592              		.loc 1 520 0
 593 0022 0720     		movs	r0, #7
 594              	.LVL55:
 595 0024 10BD     		pop	{r4, pc}
 596              	.LVL56:
 597              	.L62:
 534:.\Generated_Source\PSoC5/CySpc.c ****         }
 535:.\Generated_Source\PSoC5/CySpc.c ****         else
 536:.\Generated_Source\PSoC5/CySpc.c ****         {
 537:.\Generated_Source\PSoC5/CySpc.c ****             status = CYRET_CANCELED;
 538:.\Generated_Source\PSoC5/CySpc.c ****         }
 539:.\Generated_Source\PSoC5/CySpc.c ****     }
 540:.\Generated_Source\PSoC5/CySpc.c ****     else
 541:.\Generated_Source\PSoC5/CySpc.c ****     {
 542:.\Generated_Source\PSoC5/CySpc.c ****         status = CYRET_LOCKED;
 598              		.loc 1 542 0
 599 0026 0420     		movs	r0, #4
 600              	.LVL57:
 601 0028 10BD     		pop	{r4, pc}
 602              	.LVL58:
 603              	.L63:
 537:.\Generated_Source\PSoC5/CySpc.c ****         }
 604              		.loc 1 537 0
 605 002a 0920     		movs	r0, #9
 606              	.LVL59:
 543:.\Generated_Source\PSoC5/CySpc.c ****     }
 544:.\Generated_Source\PSoC5/CySpc.c **** 
 545:.\Generated_Source\PSoC5/CySpc.c ****     return(status);
 546:.\Generated_Source\PSoC5/CySpc.c **** }
 607              		.loc 1 546 0
 608 002c 10BD     		pop	{r4, pc}
 609              	.L65:
 610 002e 00BF     		.align	2
 611              	.L64:
 612 0030 22470040 		.word	1073760034
 613 0034 20470040 		.word	1073760032
 614              		.cfi_endproc
 615              	.LFE7:
 616              		.size	CySpcEraseSector, .-CySpcEraseSector
 617              		.section	.text.CySpcGetTemp,"ax",%progbits
 618              		.align	1
 619              		.global	CySpcGetTemp
 620              		.thumb
 621              		.thumb_func
 622              		.type	CySpcGetTemp, %function
 623              	CySpcGetTemp:
 624              	.LFB8:
 547:.\Generated_Source\PSoC5/CySpc.c **** 
 548:.\Generated_Source\PSoC5/CySpc.c **** 
 549:.\Generated_Source\PSoC5/CySpc.c **** /*******************************************************************************
 550:.\Generated_Source\PSoC5/CySpc.c **** * Function Name: CySpcGetTemp
 551:.\Generated_Source\PSoC5/CySpc.c **** ********************************************************************************
ARM GAS  C:\Users\mjphi\AppData\Local\Temp\ccSOutzG.s 			page 22


 552:.\Generated_Source\PSoC5/CySpc.c **** * Summary:
 553:.\Generated_Source\PSoC5/CySpc.c **** *  Returns the internal die temperature
 554:.\Generated_Source\PSoC5/CySpc.c **** *
 555:.\Generated_Source\PSoC5/CySpc.c **** * Parameters:
 556:.\Generated_Source\PSoC5/CySpc.c **** *  uint8 numSamples:
 557:.\Generated_Source\PSoC5/CySpc.c **** *   Number of samples. Valid values are 1-5, resulting in 2 - 32 samples
 558:.\Generated_Source\PSoC5/CySpc.c **** *   respectively.
 559:.\Generated_Source\PSoC5/CySpc.c **** *
 560:.\Generated_Source\PSoC5/CySpc.c **** * uint16 timerPeriod:
 561:.\Generated_Source\PSoC5/CySpc.c **** *   Number of ADC ACLK cycles. A valid 14 bit value is accepted, higher 2 bits
 562:.\Generated_Source\PSoC5/CySpc.c **** *   of 16 bit values are ignored.
 563:.\Generated_Source\PSoC5/CySpc.c **** *
 564:.\Generated_Source\PSoC5/CySpc.c **** * uint8 clkDivSelect:
 565:.\Generated_Source\PSoC5/CySpc.c **** *   ADC ACLK clock divide value. Valid values are 2 - 225.
 566:.\Generated_Source\PSoC5/CySpc.c **** *
 567:.\Generated_Source\PSoC5/CySpc.c **** * Return:
 568:.\Generated_Source\PSoC5/CySpc.c **** *  CYRET_STARTED
 569:.\Generated_Source\PSoC5/CySpc.c **** *  CYRET_CANCELED
 570:.\Generated_Source\PSoC5/CySpc.c **** *  CYRET_LOCKED
 571:.\Generated_Source\PSoC5/CySpc.c **** *
 572:.\Generated_Source\PSoC5/CySpc.c **** *******************************************************************************/
 573:.\Generated_Source\PSoC5/CySpc.c **** cystatus CySpcGetTemp(uint8 numSamples)
 574:.\Generated_Source\PSoC5/CySpc.c **** {
 625              		.loc 1 574 0
 626              		.cfi_startproc
 627              		@ args = 0, pretend = 0, frame = 0
 628              		@ frame_needed = 0, uses_anonymous_args = 0
 629              		@ link register save eliminated.
 630              	.LVL60:
 575:.\Generated_Source\PSoC5/CySpc.c ****     cystatus status = CYRET_STARTED;
 576:.\Generated_Source\PSoC5/CySpc.c **** 
 577:.\Generated_Source\PSoC5/CySpc.c ****     /* Make sure the SPC is ready to accept command */
 578:.\Generated_Source\PSoC5/CySpc.c ****     if(CY_SPC_IDLE)
 631              		.loc 1 578 0
 632 0000 0A4A     		ldr	r2, .L70
 633 0002 1378     		ldrb	r3, [r2]	@ zero_extendqisi2
 634 0004 9907     		lsls	r1, r3, #30
 635 0006 0CD5     		bpl	.L68
 579:.\Generated_Source\PSoC5/CySpc.c ****     {
 580:.\Generated_Source\PSoC5/CySpc.c ****         CY_SPC_CPU_DATA_REG = CY_SPC_KEY_ONE;
 636              		.loc 1 580 0
 637 0008 094B     		ldr	r3, .L70+4
 638 000a B621     		movs	r1, #182
 639 000c 1970     		strb	r1, [r3]
 581:.\Generated_Source\PSoC5/CySpc.c ****         CY_SPC_CPU_DATA_REG = CY_SPC_KEY_TWO(CY_SPC_CMD_GET_TEMP);
 640              		.loc 1 581 0
 641 000e E121     		movs	r1, #225
 642 0010 1970     		strb	r1, [r3]
 582:.\Generated_Source\PSoC5/CySpc.c ****         CY_SPC_CPU_DATA_REG = CY_SPC_CMD_GET_TEMP;
 643              		.loc 1 582 0
 644 0012 0E21     		movs	r1, #14
 645 0014 1970     		strb	r1, [r3]
 583:.\Generated_Source\PSoC5/CySpc.c **** 
 584:.\Generated_Source\PSoC5/CySpc.c ****         /* Make sure the command was accepted */
 585:.\Generated_Source\PSoC5/CySpc.c ****         if(CY_SPC_BUSY)
 646              		.loc 1 585 0
 647 0016 1278     		ldrb	r2, [r2]	@ zero_extendqisi2
ARM GAS  C:\Users\mjphi\AppData\Local\Temp\ccSOutzG.s 			page 23


 648 0018 9207     		lsls	r2, r2, #30
 649 001a 04D4     		bmi	.L69
 586:.\Generated_Source\PSoC5/CySpc.c ****         {
 587:.\Generated_Source\PSoC5/CySpc.c ****             CY_SPC_CPU_DATA_REG = numSamples;
 650              		.loc 1 587 0
 651 001c 1870     		strb	r0, [r3]
 575:.\Generated_Source\PSoC5/CySpc.c **** 
 652              		.loc 1 575 0
 653 001e 0720     		movs	r0, #7
 654              	.LVL61:
 655 0020 7047     		bx	lr
 656              	.LVL62:
 657              	.L68:
 588:.\Generated_Source\PSoC5/CySpc.c ****         }
 589:.\Generated_Source\PSoC5/CySpc.c ****         else
 590:.\Generated_Source\PSoC5/CySpc.c ****         {
 591:.\Generated_Source\PSoC5/CySpc.c ****             status = CYRET_CANCELED;
 592:.\Generated_Source\PSoC5/CySpc.c ****         }
 593:.\Generated_Source\PSoC5/CySpc.c ****     }
 594:.\Generated_Source\PSoC5/CySpc.c ****     else
 595:.\Generated_Source\PSoC5/CySpc.c ****     {
 596:.\Generated_Source\PSoC5/CySpc.c ****         status = CYRET_LOCKED;
 658              		.loc 1 596 0
 659 0022 0420     		movs	r0, #4
 660              	.LVL63:
 661 0024 7047     		bx	lr
 662              	.LVL64:
 663              	.L69:
 591:.\Generated_Source\PSoC5/CySpc.c ****         }
 664              		.loc 1 591 0
 665 0026 0920     		movs	r0, #9
 666              	.LVL65:
 597:.\Generated_Source\PSoC5/CySpc.c ****     }
 598:.\Generated_Source\PSoC5/CySpc.c **** 
 599:.\Generated_Source\PSoC5/CySpc.c ****     return(status);
 600:.\Generated_Source\PSoC5/CySpc.c **** }
 667              		.loc 1 600 0
 668 0028 7047     		bx	lr
 669              	.L71:
 670 002a 00BF     		.align	2
 671              	.L70:
 672 002c 22470040 		.word	1073760034
 673 0030 20470040 		.word	1073760032
 674              		.cfi_endproc
 675              	.LFE8:
 676              		.size	CySpcGetTemp, .-CySpcGetTemp
 677              		.section	.text.CySpcLock,"ax",%progbits
 678              		.align	1
 679              		.global	CySpcLock
 680              		.thumb
 681              		.thumb_func
 682              		.type	CySpcLock, %function
 683              	CySpcLock:
 684              	.LFB9:
 601:.\Generated_Source\PSoC5/CySpc.c **** 
 602:.\Generated_Source\PSoC5/CySpc.c **** 
 603:.\Generated_Source\PSoC5/CySpc.c **** /*******************************************************************************
ARM GAS  C:\Users\mjphi\AppData\Local\Temp\ccSOutzG.s 			page 24


 604:.\Generated_Source\PSoC5/CySpc.c **** * Function Name: CySpcLock
 605:.\Generated_Source\PSoC5/CySpc.c **** ********************************************************************************
 606:.\Generated_Source\PSoC5/CySpc.c **** * Summary:
 607:.\Generated_Source\PSoC5/CySpc.c **** *  Locks the SPC so it can not be used by someone else:
 608:.\Generated_Source\PSoC5/CySpc.c **** *   - Saves wait-pipeline enable state and enable pipeline (PSoC5)
 609:.\Generated_Source\PSoC5/CySpc.c **** *
 610:.\Generated_Source\PSoC5/CySpc.c **** * Parameters:
 611:.\Generated_Source\PSoC5/CySpc.c **** *  Note
 612:.\Generated_Source\PSoC5/CySpc.c **** *
 613:.\Generated_Source\PSoC5/CySpc.c **** * Return:
 614:.\Generated_Source\PSoC5/CySpc.c **** *  CYRET_SUCCESS - if the resource was free.
 615:.\Generated_Source\PSoC5/CySpc.c **** *  CYRET_LOCKED  - if the SPC is in use.
 616:.\Generated_Source\PSoC5/CySpc.c **** *
 617:.\Generated_Source\PSoC5/CySpc.c **** *******************************************************************************/
 618:.\Generated_Source\PSoC5/CySpc.c **** cystatus CySpcLock(void)
 619:.\Generated_Source\PSoC5/CySpc.c **** {
 685              		.loc 1 619 0
 686              		.cfi_startproc
 687              		@ args = 0, pretend = 0, frame = 0
 688              		@ frame_needed = 0, uses_anonymous_args = 0
 689              	.LVL66:
 690 0000 38B5     		push	{r3, r4, r5, lr}
 691              		.cfi_def_cfa_offset 16
 692              		.cfi_offset 3, -16
 693              		.cfi_offset 4, -12
 694              		.cfi_offset 5, -8
 695              		.cfi_offset 14, -4
 620:.\Generated_Source\PSoC5/CySpc.c ****     cystatus status = CYRET_LOCKED;
 621:.\Generated_Source\PSoC5/CySpc.c ****     uint8 interruptState;
 622:.\Generated_Source\PSoC5/CySpc.c **** 
 623:.\Generated_Source\PSoC5/CySpc.c ****     /* Enter critical section */
 624:.\Generated_Source\PSoC5/CySpc.c ****     interruptState = CyEnterCriticalSection();
 696              		.loc 1 624 0
 697 0002 FFF7FEFF 		bl	CyEnterCriticalSection
 698              	.LVL67:
 625:.\Generated_Source\PSoC5/CySpc.c **** 
 626:.\Generated_Source\PSoC5/CySpc.c ****     if(CY_SPC_UNLOCKED == SpcLockState)
 699              		.loc 1 626 0
 700 0006 0C4A     		ldr	r2, .L76
 701 0008 1478     		ldrb	r4, [r2]	@ zero_extendqisi2
 702 000a 74B9     		cbnz	r4, .L74
 627:.\Generated_Source\PSoC5/CySpc.c ****     {
 628:.\Generated_Source\PSoC5/CySpc.c ****         SpcLockState = CY_SPC_LOCKED;
 703              		.loc 1 628 0
 704 000c 0125     		movs	r5, #1
 629:.\Generated_Source\PSoC5/CySpc.c ****         status = CYRET_SUCCESS;
 630:.\Generated_Source\PSoC5/CySpc.c **** 
 631:.\Generated_Source\PSoC5/CySpc.c ****         #if(CY_PSOC5)
 632:.\Generated_Source\PSoC5/CySpc.c **** 
 633:.\Generated_Source\PSoC5/CySpc.c ****             if(0u != (CY_SPC_CPU_WAITPIPE_REG & CY_SPC_CPU_WAITPIPE_BYPASS))
 705              		.loc 1 633 0
 706 000e 0B49     		ldr	r1, .L76+4
 628:.\Generated_Source\PSoC5/CySpc.c ****         status = CYRET_SUCCESS;
 707              		.loc 1 628 0
 708 0010 1570     		strb	r5, [r2]
 709              	.LVL68:
 710              		.loc 1 633 0
ARM GAS  C:\Users\mjphi\AppData\Local\Temp\ccSOutzG.s 			page 25


 711 0012 0B68     		ldr	r3, [r1]
 712 0014 2B40     		ands	r3, r3, r5
 713 0016 0AD0     		beq	.L75
 634:.\Generated_Source\PSoC5/CySpc.c ****             {
 635:.\Generated_Source\PSoC5/CySpc.c ****                 /* Enable pipeline registers */
 636:.\Generated_Source\PSoC5/CySpc.c ****                 CY_SPC_CPU_WAITPIPE_REG &= ((uint32)(~CY_SPC_CPU_WAITPIPE_BYPASS));
 714              		.loc 1 636 0
 715 0018 0B68     		ldr	r3, [r1]
 716 001a 23F00103 		bic	r3, r3, #1
 717 001e 0B60     		str	r3, [r1]
 637:.\Generated_Source\PSoC5/CySpc.c **** 
 638:.\Generated_Source\PSoC5/CySpc.c ****                 /* At least 2 NOP instructions are recommended */
 639:.\Generated_Source\PSoC5/CySpc.c ****                 CY_NOP;
 718              		.loc 1 639 0
 719              	@ 639 ".\Generated_Source\PSoC5\CySpc.c" 1
 720 0020 00BF     		NOP
 721              	
 722              	@ 0 "" 2
 640:.\Generated_Source\PSoC5/CySpc.c ****                 CY_NOP;
 723              		.loc 1 640 0
 724              	@ 640 ".\Generated_Source\PSoC5\CySpc.c" 1
 725 0022 00BF     		NOP
 726              	
 727              	@ 0 "" 2
 641:.\Generated_Source\PSoC5/CySpc.c ****                 CY_NOP;
 728              		.loc 1 641 0
 729              	@ 641 ".\Generated_Source\PSoC5\CySpc.c" 1
 730 0024 00BF     		NOP
 731              	
 732              	@ 0 "" 2
 642:.\Generated_Source\PSoC5/CySpc.c **** 
 643:.\Generated_Source\PSoC5/CySpc.c ****                 spcWaitPipeBypass = CY_SPC_CPU_WAITPIPE_BYPASS;
 733              		.loc 1 643 0
 734              		.thumb
 735 0026 5560     		str	r5, [r2, #4]
 736 0028 02E0     		b	.L73
 737              	.LVL69:
 738              	.L74:
 620:.\Generated_Source\PSoC5/CySpc.c ****     uint8 interruptState;
 739              		.loc 1 620 0
 740 002a 0424     		movs	r4, #4
 741 002c 00E0     		b	.L73
 742              	.LVL70:
 743              	.L75:
 629:.\Generated_Source\PSoC5/CySpc.c **** 
 744              		.loc 1 629 0
 745 002e 1C46     		mov	r4, r3
 746              	.LVL71:
 747              	.L73:
 644:.\Generated_Source\PSoC5/CySpc.c ****             }
 645:.\Generated_Source\PSoC5/CySpc.c **** 
 646:.\Generated_Source\PSoC5/CySpc.c ****         #endif  /* (CY_PSOC5) */
 647:.\Generated_Source\PSoC5/CySpc.c ****     }
 648:.\Generated_Source\PSoC5/CySpc.c **** 
 649:.\Generated_Source\PSoC5/CySpc.c ****     /* Exit critical section */
 650:.\Generated_Source\PSoC5/CySpc.c ****     CyExitCriticalSection(interruptState);
 748              		.loc 1 650 0
ARM GAS  C:\Users\mjphi\AppData\Local\Temp\ccSOutzG.s 			page 26


 749 0030 FFF7FEFF 		bl	CyExitCriticalSection
 750              	.LVL72:
 651:.\Generated_Source\PSoC5/CySpc.c **** 
 652:.\Generated_Source\PSoC5/CySpc.c ****     return(status);
 653:.\Generated_Source\PSoC5/CySpc.c **** }
 751              		.loc 1 653 0
 752 0034 2046     		mov	r0, r4
 753 0036 38BD     		pop	{r3, r4, r5, pc}
 754              	.LVL73:
 755              	.L77:
 756              		.align	2
 757              	.L76:
 758 0038 00000000 		.word	.LANCHOR0
 759 003c 04000840 		.word	1074266116
 760              		.cfi_endproc
 761              	.LFE9:
 762              		.size	CySpcLock, .-CySpcLock
 763              		.section	.text.CySpcUnlock,"ax",%progbits
 764              		.align	1
 765              		.global	CySpcUnlock
 766              		.thumb
 767              		.thumb_func
 768              		.type	CySpcUnlock, %function
 769              	CySpcUnlock:
 770              	.LFB10:
 654:.\Generated_Source\PSoC5/CySpc.c **** 
 655:.\Generated_Source\PSoC5/CySpc.c **** 
 656:.\Generated_Source\PSoC5/CySpc.c **** /*******************************************************************************
 657:.\Generated_Source\PSoC5/CySpc.c **** * Function Name: CySpcUnlock
 658:.\Generated_Source\PSoC5/CySpc.c **** ********************************************************************************
 659:.\Generated_Source\PSoC5/CySpc.c **** * Summary:
 660:.\Generated_Source\PSoC5/CySpc.c **** *  Unlocks the SPC so it can be used by someone else:
 661:.\Generated_Source\PSoC5/CySpc.c **** *   - Restores wait-pipeline enable state (PSoC5)
 662:.\Generated_Source\PSoC5/CySpc.c **** *
 663:.\Generated_Source\PSoC5/CySpc.c **** * Parameters:
 664:.\Generated_Source\PSoC5/CySpc.c **** *  None
 665:.\Generated_Source\PSoC5/CySpc.c **** *
 666:.\Generated_Source\PSoC5/CySpc.c **** * Return:
 667:.\Generated_Source\PSoC5/CySpc.c **** *  None
 668:.\Generated_Source\PSoC5/CySpc.c **** *
 669:.\Generated_Source\PSoC5/CySpc.c **** *******************************************************************************/
 670:.\Generated_Source\PSoC5/CySpc.c **** void CySpcUnlock(void)
 671:.\Generated_Source\PSoC5/CySpc.c **** {
 771              		.loc 1 671 0
 772              		.cfi_startproc
 773              		@ args = 0, pretend = 0, frame = 0
 774              		@ frame_needed = 0, uses_anonymous_args = 0
 775 0000 10B5     		push	{r4, lr}
 776              		.cfi_def_cfa_offset 8
 777              		.cfi_offset 4, -8
 778              		.cfi_offset 14, -4
 672:.\Generated_Source\PSoC5/CySpc.c ****     uint8 interruptState;
 673:.\Generated_Source\PSoC5/CySpc.c **** 
 674:.\Generated_Source\PSoC5/CySpc.c ****     /* Enter critical section */
 675:.\Generated_Source\PSoC5/CySpc.c ****     interruptState = CyEnterCriticalSection();
 779              		.loc 1 675 0
 780 0002 FFF7FEFF 		bl	CyEnterCriticalSection
ARM GAS  C:\Users\mjphi\AppData\Local\Temp\ccSOutzG.s 			page 27


 781              	.LVL74:
 676:.\Generated_Source\PSoC5/CySpc.c **** 
 677:.\Generated_Source\PSoC5/CySpc.c ****     /* Release the SPC object */
 678:.\Generated_Source\PSoC5/CySpc.c ****     SpcLockState = CY_SPC_UNLOCKED;
 782              		.loc 1 678 0
 783 0006 094B     		ldr	r3, .L80
 784 0008 0021     		movs	r1, #0
 679:.\Generated_Source\PSoC5/CySpc.c **** 
 680:.\Generated_Source\PSoC5/CySpc.c ****     #if(CY_PSOC5)
 681:.\Generated_Source\PSoC5/CySpc.c **** 
 682:.\Generated_Source\PSoC5/CySpc.c ****         if(CY_SPC_CPU_WAITPIPE_BYPASS == spcWaitPipeBypass)
 785              		.loc 1 682 0
 786 000a 5A68     		ldr	r2, [r3, #4]
 678:.\Generated_Source\PSoC5/CySpc.c **** 
 787              		.loc 1 678 0
 788 000c 1970     		strb	r1, [r3]
 789              		.loc 1 682 0
 790 000e 012A     		cmp	r2, #1
 791 0010 08D1     		bne	.L79
 683:.\Generated_Source\PSoC5/CySpc.c ****         {
 684:.\Generated_Source\PSoC5/CySpc.c ****             /* Force to bypass pipeline registers */
 685:.\Generated_Source\PSoC5/CySpc.c ****             CY_SPC_CPU_WAITPIPE_REG |= CY_SPC_CPU_WAITPIPE_BYPASS;
 792              		.loc 1 685 0
 793 0012 074C     		ldr	r4, .L80+4
 794 0014 2268     		ldr	r2, [r4]
 795 0016 42F00102 		orr	r2, r2, #1
 796 001a 2260     		str	r2, [r4]
 686:.\Generated_Source\PSoC5/CySpc.c **** 
 687:.\Generated_Source\PSoC5/CySpc.c ****             /* At least 2 NOP instructions are recommended */
 688:.\Generated_Source\PSoC5/CySpc.c ****             CY_NOP;
 797              		.loc 1 688 0
 798              	@ 688 ".\Generated_Source\PSoC5\CySpc.c" 1
 799 001c 00BF     		NOP
 800              	
 801              	@ 0 "" 2
 689:.\Generated_Source\PSoC5/CySpc.c ****             CY_NOP;
 802              		.loc 1 689 0
 803              	@ 689 ".\Generated_Source\PSoC5\CySpc.c" 1
 804 001e 00BF     		NOP
 805              	
 806              	@ 0 "" 2
 690:.\Generated_Source\PSoC5/CySpc.c ****             CY_NOP;
 807              		.loc 1 690 0
 808              	@ 690 ".\Generated_Source\PSoC5\CySpc.c" 1
 809 0020 00BF     		NOP
 810              	
 811              	@ 0 "" 2
 691:.\Generated_Source\PSoC5/CySpc.c **** 
 692:.\Generated_Source\PSoC5/CySpc.c ****             spcWaitPipeBypass = 0u;
 812              		.loc 1 692 0
 813              		.thumb
 814 0022 5960     		str	r1, [r3, #4]
 815              	.L79:
 693:.\Generated_Source\PSoC5/CySpc.c ****         }
 694:.\Generated_Source\PSoC5/CySpc.c **** 
 695:.\Generated_Source\PSoC5/CySpc.c ****     #endif  /* (CY_PSOC5) */
 696:.\Generated_Source\PSoC5/CySpc.c **** 
ARM GAS  C:\Users\mjphi\AppData\Local\Temp\ccSOutzG.s 			page 28


 697:.\Generated_Source\PSoC5/CySpc.c ****     /* Exit critical section */
 698:.\Generated_Source\PSoC5/CySpc.c ****     CyExitCriticalSection(interruptState);
 699:.\Generated_Source\PSoC5/CySpc.c **** }
 816              		.loc 1 699 0
 817 0024 BDE81040 		pop	{r4, lr}
 818              		.cfi_restore 14
 819              		.cfi_restore 4
 820              		.cfi_def_cfa_offset 0
 698:.\Generated_Source\PSoC5/CySpc.c **** }
 821              		.loc 1 698 0
 822 0028 FFF7FEBF 		b	CyExitCriticalSection
 823              	.LVL75:
 824              	.L81:
 825              		.align	2
 826              	.L80:
 827 002c 00000000 		.word	.LANCHOR0
 828 0030 04000840 		.word	1074266116
 829              		.cfi_endproc
 830              	.LFE10:
 831              		.size	CySpcUnlock, .-CySpcUnlock
 832              		.section	.text.CySpcGetAlgorithm,"ax",%progbits
 833              		.align	1
 834              		.global	CySpcGetAlgorithm
 835              		.thumb
 836              		.thumb_func
 837              		.type	CySpcGetAlgorithm, %function
 838              	CySpcGetAlgorithm:
 839              	.LFB11:
 700:.\Generated_Source\PSoC5/CySpc.c **** 
 701:.\Generated_Source\PSoC5/CySpc.c **** 
 702:.\Generated_Source\PSoC5/CySpc.c **** /*******************************************************************************
 703:.\Generated_Source\PSoC5/CySpc.c **** * Function Name: CySpcGetAlgorithm
 704:.\Generated_Source\PSoC5/CySpc.c **** ********************************************************************************
 705:.\Generated_Source\PSoC5/CySpc.c **** * Summary:
 706:.\Generated_Source\PSoC5/CySpc.c **** *  Downloads SPC algorithm from SPC SROM into SRAM.
 707:.\Generated_Source\PSoC5/CySpc.c **** *
 708:.\Generated_Source\PSoC5/CySpc.c **** * Parameters:
 709:.\Generated_Source\PSoC5/CySpc.c **** *  None
 710:.\Generated_Source\PSoC5/CySpc.c **** *
 711:.\Generated_Source\PSoC5/CySpc.c **** * Return:
 712:.\Generated_Source\PSoC5/CySpc.c **** *  CYRET_STARTED
 713:.\Generated_Source\PSoC5/CySpc.c **** *  CYRET_LOCKED
 714:.\Generated_Source\PSoC5/CySpc.c **** *
 715:.\Generated_Source\PSoC5/CySpc.c **** *******************************************************************************/
 716:.\Generated_Source\PSoC5/CySpc.c **** cystatus CySpcGetAlgorithm(void)
 717:.\Generated_Source\PSoC5/CySpc.c **** {
 840              		.loc 1 717 0
 841              		.cfi_startproc
 842              		@ args = 0, pretend = 0, frame = 0
 843              		@ frame_needed = 0, uses_anonymous_args = 0
 844              		@ link register save eliminated.
 845              	.LVL76:
 718:.\Generated_Source\PSoC5/CySpc.c ****     cystatus status = CYRET_STARTED;
 719:.\Generated_Source\PSoC5/CySpc.c **** 
 720:.\Generated_Source\PSoC5/CySpc.c ****     /* Make sure the SPC is ready to accept command */
 721:.\Generated_Source\PSoC5/CySpc.c ****     if(CY_SPC_IDLE)
 846              		.loc 1 721 0
ARM GAS  C:\Users\mjphi\AppData\Local\Temp\ccSOutzG.s 			page 29


 847 0000 074B     		ldr	r3, .L85
 848 0002 1B78     		ldrb	r3, [r3]	@ zero_extendqisi2
 849 0004 9B07     		lsls	r3, r3, #30
 722:.\Generated_Source\PSoC5/CySpc.c ****     {
 723:.\Generated_Source\PSoC5/CySpc.c ****         CY_SPC_CPU_DATA_REG = CY_SPC_KEY_ONE;
 850              		.loc 1 723 0
 851 0006 41BF     		itttt	mi
 852 0008 064B     		ldrmi	r3, .L85+4
 853 000a B622     		movmi	r2, #182
 854 000c 1A70     		strbmi	r2, [r3]
 724:.\Generated_Source\PSoC5/CySpc.c ****         CY_SPC_CPU_DATA_REG = CY_SPC_KEY_TWO(CY_SPC_CMD_DWNLD_ALGORITHM);
 855              		.loc 1 724 0
 856 000e E022     		movmi	r2, #224
 857 0010 41BF     		itttt	mi
 858 0012 1A70     		strbmi	r2, [r3]
 725:.\Generated_Source\PSoC5/CySpc.c ****         CY_SPC_CPU_DATA_REG = CY_SPC_CMD_DWNLD_ALGORITHM;
 859              		.loc 1 725 0
 860 0014 0D22     		movmi	r2, #13
 718:.\Generated_Source\PSoC5/CySpc.c **** 
 861              		.loc 1 718 0
 862 0016 0720     		movmi	r0, #7
 863              		.loc 1 725 0
 864 0018 1A70     		strbmi	r2, [r3]
 726:.\Generated_Source\PSoC5/CySpc.c ****     }
 727:.\Generated_Source\PSoC5/CySpc.c ****     else
 728:.\Generated_Source\PSoC5/CySpc.c ****     {
 729:.\Generated_Source\PSoC5/CySpc.c ****         status = CYRET_LOCKED;
 865              		.loc 1 729 0
 866 001a 58BF     		it	pl
 867 001c 0420     		movpl	r0, #4
 868              	.LVL77:
 730:.\Generated_Source\PSoC5/CySpc.c ****     }
 731:.\Generated_Source\PSoC5/CySpc.c **** 
 732:.\Generated_Source\PSoC5/CySpc.c ****     return(status);
 733:.\Generated_Source\PSoC5/CySpc.c **** }
 869              		.loc 1 733 0
 870 001e 7047     		bx	lr
 871              	.L86:
 872              		.align	2
 873              	.L85:
 874 0020 22470040 		.word	1073760034
 875 0024 20470040 		.word	1073760032
 876              		.cfi_endproc
 877              	.LFE11:
 878              		.size	CySpcGetAlgorithm, .-CySpcGetAlgorithm
 879              		.global	SpcLockState
 880              		.bss
 881              		.align	2
 882              		.set	.LANCHOR0,. + 0
 883              		.type	SpcLockState, %object
 884              		.size	SpcLockState, 1
 885              	SpcLockState:
 886 0000 00       		.space	1
 887 0001 000000   		.space	3
 888              		.type	spcWaitPipeBypass, %object
 889              		.size	spcWaitPipeBypass, 4
 890              	spcWaitPipeBypass:
ARM GAS  C:\Users\mjphi\AppData\Local\Temp\ccSOutzG.s 			page 30


 891 0004 00000000 		.space	4
 892              		.text
 893              	.Letext0:
 894              		.file 2 ".\\Generated_Source\\PSoC5\\cytypes.h"
 895              		.file 3 ".\\Generated_Source\\PSoC5\\CyLib.h"
