Archive member included because of file (symbol)

.\CortexM3\ARM_GCC_493\Release\Lab2.a(cyfitter_cfg.o)
                              .\CortexM3\ARM_GCC_493\Release\Cm3Start.o (cyfitter_cfg)
.\CortexM3\ARM_GCC_493\Release\Lab2.a(LED_pin.o)
                              .\CortexM3\ARM_GCC_493\Release\main.o (LED_pin_Write)
.\CortexM3\ARM_GCC_493\Release\Lab2.a(CyBootAsmGnu.o)
                              .\CortexM3\ARM_GCC_493\Release\Lab2.a(cyfitter_cfg.o) (CyDelayCycles)
.\CortexM3\ARM_GCC_493\Release\Lab2.a(CyLib.o)
                              .\CortexM3\ARM_GCC_493\Release\Cm3Start.o (CyHalt)
.\CortexM3\ARM_GCC_493\Release\Lab2.a(cyPm.o)
                              .\CortexM3\ARM_GCC_493\Release\Lab2.a(CyLib.o) (CyPmReadStatus)
.\CortexM3\ARM_GCC_493\Release\Lab2.a(CyFlash.o)
                              .\CortexM3\ARM_GCC_493\Release\Lab2.a(cyPm.o) (CyFlash_SetWaitCycles)
.\CortexM3\ARM_GCC_493\Release\Lab2.a(CySpc.o)
                              .\CortexM3\ARM_GCC_493\Release\Lab2.a(CyFlash.o) (CySpcStart)
c:/program files (x86)/cypress/psoc creator/3.3/psoc creator/import/gnu/arm/4.9.3/bin/../lib/gcc/arm-none-eabi/4.9.3/../../../../arm-none-eabi/lib/armv7-m\libg_nano.a(lib_a-errno.o)
                              .\CortexM3\ARM_GCC_493\Release\Cm3Start.o (__errno)
c:/program files (x86)/cypress/psoc creator/3.3/psoc creator/import/gnu/arm/4.9.3/bin/../lib/gcc/arm-none-eabi/4.9.3/../../../../arm-none-eabi/lib/armv7-m\libg_nano.a(lib_a-exit.o)
                              c:/program files (x86)/cypress/psoc creator/3.3/psoc creator/import/gnu/arm/4.9.3/bin/../lib/gcc/arm-none-eabi/4.9.3/../../../../arm-none-eabi/lib/armv7-m/crt0.o (exit)
c:/program files (x86)/cypress/psoc creator/3.3/psoc creator/import/gnu/arm/4.9.3/bin/../lib/gcc/arm-none-eabi/4.9.3/../../../../arm-none-eabi/lib/armv7-m\libg_nano.a(lib_a-impure.o)
                              c:/program files (x86)/cypress/psoc creator/3.3/psoc creator/import/gnu/arm/4.9.3/bin/../lib/gcc/arm-none-eabi/4.9.3/../../../../arm-none-eabi/lib/armv7-m\libg_nano.a(lib_a-exit.o) (_global_impure_ptr)
c:/program files (x86)/cypress/psoc creator/3.3/psoc creator/import/gnu/arm/4.9.3/bin/../lib/gcc/arm-none-eabi/4.9.3/../../../../arm-none-eabi/lib/armv7-m\libg_nano.a(lib_a-init.o)
                              c:/program files (x86)/cypress/psoc creator/3.3/psoc creator/import/gnu/arm/4.9.3/bin/../lib/gcc/arm-none-eabi/4.9.3/../../../../arm-none-eabi/lib/armv7-m/crt0.o (__libc_init_array)
c:/program files (x86)/cypress/psoc creator/3.3/psoc creator/import/gnu/arm/4.9.3/bin/../lib/gcc/arm-none-eabi/4.9.3/../../../../arm-none-eabi/lib/armv7-m\libg_nano.a(lib_a-memcmp.o)
                              .\CortexM3\ARM_GCC_493\Release\tasks.o (memcmp)
c:/program files (x86)/cypress/psoc creator/3.3/psoc creator/import/gnu/arm/4.9.3/bin/../lib/gcc/arm-none-eabi/4.9.3/../../../../arm-none-eabi/lib/armv7-m\libg_nano.a(lib_a-memcpy.o)
                              .\CortexM3\ARM_GCC_493\Release\queue.o (memcpy)
c:/program files (x86)/cypress/psoc creator/3.3/psoc creator/import/gnu/arm/4.9.3/bin/../lib/gcc/arm-none-eabi/4.9.3/../../../../arm-none-eabi/lib/armv7-m\libg_nano.a(lib_a-memset.o)
                              c:/program files (x86)/cypress/psoc creator/3.3/psoc creator/import/gnu/arm/4.9.3/bin/../lib/gcc/arm-none-eabi/4.9.3/../../../../arm-none-eabi/lib/armv7-m/crt0.o (memset)

Allocating common symbols
Common symbol       size              file

xQueueRegistry      0x50              .\CortexM3\ARM_GCC_493\Release\queue.o
dieTemperature      0x2               .\CortexM3\ARM_GCC_493\Release\Lab2.a(CyFlash.o)

Discarded input sections

 .text          0x00000000        0x0 c:/program files (x86)/cypress/psoc creator/3.3/psoc creator/import/gnu/arm/4.9.3/bin/../lib/gcc/arm-none-eabi/4.9.3/armv7-m/crti.o
 .data          0x00000000        0x0 c:/program files (x86)/cypress/psoc creator/3.3/psoc creator/import/gnu/arm/4.9.3/bin/../lib/gcc/arm-none-eabi/4.9.3/armv7-m/crti.o
 .bss           0x00000000        0x0 c:/program files (x86)/cypress/psoc creator/3.3/psoc creator/import/gnu/arm/4.9.3/bin/../lib/gcc/arm-none-eabi/4.9.3/armv7-m/crti.o
 .data          0x00000000        0x4 c:/program files (x86)/cypress/psoc creator/3.3/psoc creator/import/gnu/arm/4.9.3/bin/../lib/gcc/arm-none-eabi/4.9.3/armv7-m/crtbegin.o
 .text          0x00000000       0x74 c:/program files (x86)/cypress/psoc creator/3.3/psoc creator/import/gnu/arm/4.9.3/bin/../lib/gcc/arm-none-eabi/4.9.3/../../../../arm-none-eabi/lib/armv7-m/crt0.o
 .data          0x00000000        0x0 c:/program files (x86)/cypress/psoc creator/3.3/psoc creator/import/gnu/arm/4.9.3/bin/../lib/gcc/arm-none-eabi/4.9.3/../../../../arm-none-eabi/lib/armv7-m/crt0.o
 .bss           0x00000000        0x0 c:/program files (x86)/cypress/psoc creator/3.3/psoc creator/import/gnu/arm/4.9.3/bin/../lib/gcc/arm-none-eabi/4.9.3/../../../../arm-none-eabi/lib/armv7-m/crt0.o
 .ARM.extab     0x00000000        0x0 c:/program files (x86)/cypress/psoc creator/3.3/psoc creator/import/gnu/arm/4.9.3/bin/../lib/gcc/arm-none-eabi/4.9.3/../../../../arm-none-eabi/lib/armv7-m/crt0.o
 .ARM.exidx     0x00000000        0x8 c:/program files (x86)/cypress/psoc creator/3.3/psoc creator/import/gnu/arm/4.9.3/bin/../lib/gcc/arm-none-eabi/4.9.3/../../../../arm-none-eabi/lib/armv7-m/crt0.o
 .text          0x00000000        0x0 .\CortexM3\ARM_GCC_493\Release\main.o
 .data          0x00000000        0x0 .\CortexM3\ARM_GCC_493\Release\main.o
 .bss           0x00000000        0x0 .\CortexM3\ARM_GCC_493\Release\main.o
 .text          0x00000000        0x0 .\CortexM3\ARM_GCC_493\Release\heap_1.o
 .data          0x00000000        0x0 .\CortexM3\ARM_GCC_493\Release\heap_1.o
 .text.vPortInitialiseBlocks
                0x00000000       0x10 .\CortexM3\ARM_GCC_493\Release\heap_1.o
 .text.xPortGetFreeHeapSize
                0x00000000       0x14 .\CortexM3\ARM_GCC_493\Release\heap_1.o
Memory Configuration

Name             Origin             Length             Attributes
rom              0x00000000         0x00040000         xr
ram              0x1fff8000         0x00010000         xrw
*default*        0x00000000         0xffffffff

Linker script and memory map

LOAD c:/program files (x86)/cypress/psoc creator/3.3/psoc creator/import/gnu/arm/4.9.3/bin/../lib/gcc/arm-none-eabi/4.9.3/armv7-m/crti.o
LOAD c:/program files (x86)/cypress/psoc creator/3.3/psoc creator/import/gnu/arm/4.9.3/bin/../lib/gcc/arm-none-eabi/4.9.3/armv7-m/crtbegin.o
LOAD c:/program files (x86)/cypress/psoc creator/3.3/psoc creator/import/gnu/arm/4.9.3/bin/../lib/gcc/arm-none-eabi/4.9.3/../../../../arm-none-eabi/lib/armv7-m/crt0.o
START GROUP
LOAD .\CortexM3\ARM_GCC_493\Release\main.o
LOAD .\CortexM3\ARM_GCC_493\Release\heap_1.o
LOAD .\CortexM3\ARM_GCC_493\Release\list.o
LOAD .\CortexM3\ARM_GCC_493\Release\port.o
LOAD .\CortexM3\ARM_GCC_493\Release\queue.o
LOAD .\CortexM3\ARM_GCC_493\Release\tasks.o
LOAD .\CortexM3\ARM_GCC_493\Release\cymetadata.o
LOAD .\CortexM3\ARM_GCC_493\Release\Cm3Start.o
LOAD .\CortexM3\ARM_GCC_493\Release\Lab2.a
LOAD C:\Program Files (x86)\Cypress\PSoC Creator\3.3\PSoC Creator\psoc\content\cycomponentlibrary\CyComponentLibrary.cylib\CortexM3\ARM_GCC_493\Release\CyComponentLibrary.a
END GROUP
START GROUP
LOAD c:/program files (x86)/cypress/psoc creator/3.3/psoc creator/import/gnu/arm/4.9.3/bin/../lib/gcc/arm-none-eabi/4.9.3/armv7-m\libgcc.a
LOAD c:/program files (x86)/cypress/psoc creator/3.3/psoc creator/import/gnu/arm/4.9.3/bin/../lib/gcc/arm-none-eabi/4.9.3/../../../../arm-none-eabi/lib/armv7-m\libg_nano.a
LOAD c:/program files (x86)/cypress/psoc creator/3.3/psoc creator/import/gnu/arm/4.9.3/bin/../lib/gcc/arm-none-eabi/4.9.3/../../../../arm-none-eabi/lib/armv7-m\libc_nano.a
END GROUP
START GROUP
LOAD c:/program files (x86)/cypress/psoc creator/3.3/psoc creator/import/gnu/arm/4.9.3/bin/../lib/gcc/arm-none-eabi/4.9.3/armv7-m\libgcc.a
LOAD c:/program files (x86)/cypress/psoc creator/3.3/psoc creator/import/gnu/arm/4.9.3/bin/../lib/gcc/arm-none-eabi/4.9.3/../../../../arm-none-eabi/lib/armv7-m\libc_nano.a
END GROUP
LOAD c:/program files (x86)/cypress/psoc creator/3.3/psoc creator/import/gnu/arm/4.9.3/bin/../lib/gcc/arm-none-eabi/4.9.3/armv7-m/crtend.o
LOAD c:/program files (x86)/cypress/psoc creator/3.3/psoc creator/import/gnu/arm/4.9.3/bin/../lib/gcc/arm-none-eabi/4.9.3/armv7-m/crtn.o
START GROUP
LOAD c:/program files (x86)/cypress/psoc creator/3.3/psoc creator/import/gnu/arm/4.9.3/bin/../lib/gcc/arm-none-eabi/4.9.3/armv7-m\libgcc.a
LOAD c:/program files (x86)/cypress/psoc creator/3.3/psoc creator/import/gnu/arm/4.9.3/bin/../lib/gcc/arm-none-eabi/4.9.3/../../../../arm-none-eabi/lib/armv7-m\libc.a
LOAD c:/program files (x86)/cypress/psoc creator/3.3/psoc creator/import/gnu/arm/4.9.3/bin/../lib/gcc/arm-none-eabi/4.9.3/../../../../arm-none-eabi/lib/armv7-m\libnosys.a
END GROUP
                0x00000000                CY_APPL_ORIGIN = 0x0
                0x00000100                CY_FLASH_ROW_SIZE = 0x100
                0x00000020                CY_ECC_ROW_SIZE = 0x20
                0x00000000                CY_EE_IN_BTLDR = 0x0
                0x00000000                CY_APPL_LOADABLE = 0x0
                0x00000800                CY_EE_SIZE = 0x800
                0x00000001                CY_APPL_NUM = 0x1
                0x00000001                CY_APPL_MAX = 0x1
                0x00000040                CY_METADATA_SIZE = 0x40
                0x1fffa238                PROVIDE (__cy_heap_start, _end)
                0x00000001                PROVIDE (__cy_region_num, ((__cy_regions_end - __cy_regions) / 0x10))
                0x20008000                PROVIDE (__cy_stack, (ORIGIN (ram) + 0x10000))
                0x20007e00                PROVIDE (__cy_heap_end, (__cy_stack - 0x200))

.cybootloader   0x00000000        0x0
 *(.cybootloader)
                0x00000000                appl1_start = CY_APPL_ORIGIN?CY_APPL_ORIGIN:ALIGN (CY_FLASH_ROW_SIZE)
                0x0001ff00                appl2_start = (appl1_start + ALIGN ((((0x40000 - appl1_start) - (0x2 * CY_FLASH_ROW_SIZE)) / 0x2), CY_FLASH_ROW_SIZE))
                0x00000000                appl_start = (CY_APPL_NUM == 0x1)?appl1_start:appl2_start
                0x00000000                ecc_offset = ((appl_start / CY_FLASH_ROW_SIZE) * CY_ECC_ROW_SIZE)
                0x00000000                ee_offset = (CY_APPL_LOADABLE && ! (CY_EE_IN_BTLDR))?((CY_EE_SIZE / CY_APPL_MAX) * (CY_APPL_NUM - 0x1)):0x0
                0x00000800                ee_size = (CY_APPL_LOADABLE && ! (CY_EE_IN_BTLDR))?(CY_EE_SIZE / CY_APPL_MAX):CY_EE_SIZE
                0x00000000                PROVIDE (CY_ECC_OFFSET, ecc_offset)

.text           0x00000000      0xafc
 CREATE_OBJECT_SYMBOLS
                0x00000000                PROVIDE (__cy_interrupt_vector, RomVectors)
 *(.romvectors)
 .romvectors    0x00000000       0x10 .\CortexM3\ARM_GCC_493\Release\Cm3Start.o
                0x00000000                RomVectors
                0x00000001                ASSERT ((. != __cy_interrupt_vector), No interrupt vector)
                0x00000001                ASSERT (CY_APPL_ORIGIN?(SIZEOF (.cybootloader) <= CY_APPL_ORIGIN):0x1, Wrong image location)
                0x00000010                PROVIDE (__cy_reset, Reset)
 *(.text.Reset)
 .text.Reset    0x00000010       0x18 .\CortexM3\ARM_GCC_493\Release\Cm3Start.o
                0x00000010                Reset
                0x00000001                ASSERT ((. != __cy_reset), No reset code)
 *(.dma_init)
                0x00000001                ASSERT ((((appl_start + .) <= 0x10000) || 0x1), DMA Init must be within the first 64k of flash)
 *(.text .text.* .gnu.linkonce.t.*)
 .text          0x00000028       0x5c c:/program files (x86)/cypress/psoc creator/3.3/psoc creator/import/gnu/arm/4.9.3/bin/../lib/gcc/arm-none-eabi/4.9.3/armv7-m/crtbegin.o
 .text.Blink_LED_Task
                0x00000084       0x1a .\CortexM3\ARM_GCC_493\Release\main.o
 .text.vApplicationMallocFailedHook
                0x0000009e        0x2 .\CortexM3\ARM_GCC_493\Release\main.o
                0x0000009e                vApplicationMallocFailedHook
 .text.vApplicationStackOverflowHook
                0x000000a0        0x2 .\CortexM3\ARM_GCC_493\Release\main.o
                0x000000a0                vApplicationStackOverflowHook
 *fill*         0x000000a2        0x2 
 .text.startup.main
                0x000000a4       0x44 .\CortexM3\ARM_GCC_493\Release\main.o
                0x000000a4                main
 .text.pvPortMalloc
                0x000000e8       0x58 .\CortexM3\ARM_GCC_493\Release\heap_1.o
                0x000000e8                pvPortMalloc
 .text.vPortFree
                0x00000140        0x2 .\CortexM3\ARM_GCC_493\Release\heap_1.o
                0x00000140                vPortFree
 .text.vListInitialise
                0x00000142       0x16 .\CortexM3\ARM_GCC_493\Release\list.o
                0x00000142                vListInitialise
 .text.vListInitialiseItem
                0x00000158        0x6 .\CortexM3\ARM_GCC_493\Release\list.o
                0x00000158                vListInitialiseItem
 .text.vListInsertEnd
                0x0000015e       0x18 .\CortexM3\ARM_GCC_493\Release\list.o
                0x0000015e                vListInsertEnd
 .text.vListInsert
                0x00000176       0x30 .\CortexM3\ARM_GCC_493\Release\list.o
                0x00000176                vListInsert
 .text.uxListRemove
                0x000001a6       0x20 .\CortexM3\ARM_GCC_493\Release\list.o
                0x000001a6                uxListRemove
 *fill*         0x000001c6        0x2 
 .text.prvPortStartFirstTask
                0x000001c8       0x20 .\CortexM3\ARM_GCC_493\Release\port.o
 .text.pxPortInitialiseStack
                0x000001e8       0x1c .\CortexM3\ARM_GCC_493\Release\port.o
                0x000001e8                pxPortInitialiseStack
 .text.vPortSVCHandler
                0x00000204       0x24 .\CortexM3\ARM_GCC_493\Release\port.o
                0x00000204                vPortSVCHandler
 .text.vPortYield
                0x00000228       0x18 .\CortexM3\ARM_GCC_493\Release\port.o
                0x00000228                vPortYield
 .text.ulPortSetInterruptMask
                0x00000240       0x10 .\CortexM3\ARM_GCC_493\Release\port.o
                0x00000240                ulPortSetInterruptMask
 .text.prvTaskExitError
                0x00000250        0x8 .\CortexM3\ARM_GCC_493\Release\port.o
 .text.vPortEnterCritical
                0x00000258       0x1c .\CortexM3\ARM_GCC_493\Release\port.o
                0x00000258                vPortEnterCritical
 .text.vPortClearInterruptMask
                0x00000274        0x6 .\CortexM3\ARM_GCC_493\Release\port.o
                0x00000274                vPortClearInterruptMask
 *fill*         0x0000027a        0x2 
 .text.vPortExitCritical
                0x0000027c       0x14 .\CortexM3\ARM_GCC_493\Release\port.o
                0x0000027c                vPortExitCritical
 .text.xPortPendSVHandler
                0x00000290       0x44 .\CortexM3\ARM_GCC_493\Release\port.o
                0x00000290                xPortPendSVHandler
 .text.xPortSysTickHandler
                0x000002d4       0x24 .\CortexM3\ARM_GCC_493\Release\port.o
                0x000002d4                xPortSysTickHandler
 .text.vPortSetupTimerInterrupt
                0x000002f8       0x14 .\CortexM3\ARM_GCC_493\Release\port.o
                0x000002f8                vPortSetupTimerInterrupt
 .text.xPortStartScheduler
                0x0000030c       0x30 .\CortexM3\ARM_GCC_493\Release\port.o
                0x0000030c                xPortStartScheduler
 .text.prvResetNextTaskUnblockTime
                0x0000033c       0x20 .\CortexM3\ARM_GCC_493\Release\tasks.o
 .text.prvAddCurrentTaskToDelayedList
                0x0000035c       0x38 .\CortexM3\ARM_GCC_493\Release\tasks.o
 .text.xTaskGenericCreate
                0x00000394      0x184 .\CortexM3\ARM_GCC_493\Release\tasks.o
                0x00000394                xTaskGenericCreate
 .text.vTaskStartScheduler
                0x00000518       0x4c .\CortexM3\ARM_GCC_493\Release\tasks.o
                0x00000518                vTaskStartScheduler
 .text.vTaskSuspendAll
                0x00000564       0x14 .\CortexM3\ARM_GCC_493\Release\tasks.o
                0x00000564                vTaskSuspendAll
 .text.xTaskIncrementTick
                0x00000578       0xcc .\CortexM3\ARM_GCC_493\Release\tasks.o
                0x00000578                xTaskIncrementTick
 .text.xTaskResumeAll
                0x00000644       0xb8 .\CortexM3\ARM_GCC_493\Release\tasks.o
                0x00000644                xTaskResumeAll
 .text.vTaskDelay
                0x000006fc       0x4c .\CortexM3\ARM_GCC_493\Release\tasks.o
                0x000006fc                vTaskDelay
 .text.prvIdleTask
                0x00000748       0x54 .\CortexM3\ARM_GCC_493\Release\tasks.o
 .text.vTaskSwitchContext
                0x0000079c       0x90 .\CortexM3\ARM_GCC_493\Release\tasks.o
                0x0000079c                vTaskSwitchContext
 .text.IntDefaultHandler
                0x0000082c        0x2 .\CortexM3\ARM_GCC_493\Release\Cm3Start.o
                0x0000082c                IntDefaultHandler
 *fill*         0x0000082e        0x2 
 .text.Start_c  0x00000830       0x50 .\CortexM3\ARM_GCC_493\Release\Cm3Start.o
                0x00000830                Start_c
 .text.startup.initialize_psoc
                0x00000880       0x70 .\CortexM3\ARM_GCC_493\Release\Cm3Start.o
                0x00000880                initialize_psoc
 .text.cyfitter_cfg
                0x000008f0      0x14c .\CortexM3\ARM_GCC_493\Release\Lab2.a(cyfitter_cfg.o)
                0x000008f0                cyfitter_cfg
 .text.LED_pin_Write
                0x00000a3c       0x18 .\CortexM3\ARM_GCC_493\Release\Lab2.a(LED_pin.o)
                0x00000a3c                LED_pin_Write
 .text.LED_pin_Read
                0x00000a54        0xc .\CortexM3\ARM_GCC_493\Release\Lab2.a(LED_pin.o)
                0x00000a54                LED_pin_Read
 .text          0x00000a60       0x20 .\CortexM3\ARM_GCC_493\Release\Lab2.a(CyBootAsmGnu.o)
                0x00000a60                CyDelayCycles
                0x00000a70                CyEnterCriticalSection
                0x00000a78                CyExitCriticalSection
 .text.__libc_init_array
                0x00000a80       0x4c c:/program files (x86)/cypress/psoc creator/3.3/psoc creator/import/gnu/arm/4.9.3/bin/../lib/gcc/arm-none-eabi/4.9.3/../../../../arm-none-eabi/lib/armv7-m\libg_nano.a(lib_a-init.o)
                0x00000a80                __libc_init_array
 .text.memcmp   0x00000acc       0x20 c:/program files (x86)/cypress/psoc creator/3.3/psoc creator/import/gnu/arm/4.9.3/bin/../lib/gcc/arm-none-eabi/4.9.3/../../../../arm-none-eabi/lib/armv7-m\libg_nano.a(lib_a-memcmp.o)
                0x00000acc                memcmp
 .text.memset   0x00000aec       0x10 c:/program files (x86)/cypress/psoc creator/3.3/psoc creator/import/gnu/arm/4.9.3/bin/../lib/gcc/arm-none-eabi/4.9.3/../../../../arm-none-eabi/lib/armv7-m\libg_nano.a(lib_a-memset.o)
                0x00000aec                memset
 *(.plt)
 *(.gnu.warning)
 *(.glue_7t)
 .glue_7t       0x00000000        0x0 linker stubs
 *(.glue_7)
 .glue_7        0x00000000        0x0 linker stubs
 *(.vfp11_veneer)
 .vfp11_veneer  0x00000000        0x0 linker stubs
 *(.bootloader)
 *(.ARM.extab* .gnu.linkonce.armextab.*)
 *(.gcc_except_table)

.v4_bx          0x00000afc        0x0
 .v4_bx         0x00000000        0x0 linker stubs

.iplt           0x00000afc        0x0
 .iplt          0x00000000        0x0 c:/program files (x86)/cypress/psoc creator/3.3/psoc creator/import/gnu/arm/4.9.3/bin/../lib/gcc/arm-none-eabi/4.9.3/armv7-m/crtbegin.o

.eh_frame_hdr
 *(.eh_frame_hdr)

.eh_frame       0x00000afc        0x4
 *(.eh_frame)
 .eh_frame      0x00000afc        0x0 c:/program files (x86)/cypress/psoc creator/3.3/psoc creator/import/gnu/arm/4.9.3/bin/../lib/gcc/arm-none-eabi/4.9.3/armv7-m/crtbegin.o
 .eh_frame      0x00000afc        0x4 c:/program files (x86)/cypress/psoc creator/3.3/psoc creator/import/gnu/arm/4.9.3/bin/../lib/gcc/arm-none-eabi/4.9.3/armv7-m/crtend.o
                0x00000b00                PROVIDE (__exidx_start, .)

.ARM.exidx
 *(.ARM.exidx* .gnu.linkonce.armexidx.*)
                0x00000b00                __exidx_end = .

.rodata         0x00000b00       0x88
 *(.rodata .rodata.* .gnu.linkonce.r.*)
 .rodata.str1.1
                0x00000b00        0x6 .\CortexM3\ARM_GCC_493\Release\main.o
 .rodata        0x00000b06       0x14 .\CortexM3\ARM_GCC_493\Release\tasks.o
 .rodata.str1.1
                0x00000b1a        0x5 .\CortexM3\ARM_GCC_493\Release\tasks.o
 .rodata        0x00000b1f       0x30 .\CortexM3\ARM_GCC_493\Release\Lab2.a(cyfitter_cfg.o)
                0x00000b50                . = ALIGN (0x4)
 *fill*         0x00000b4f        0x1 
 *(.init)
 .init          0x00000b50        0x4 c:/program files (x86)/cypress/psoc creator/3.3/psoc creator/import/gnu/arm/4.9.3/bin/../lib/gcc/arm-none-eabi/4.9.3/armv7-m/crti.o
                0x00000b50                _init
 .init          0x00000b54        0x8 c:/program files (x86)/cypress/psoc creator/3.3/psoc creator/import/gnu/arm/4.9.3/bin/../lib/gcc/arm-none-eabi/4.9.3/armv7-m/crtn.o
                0x00000b5c                . = ALIGN (0x4)
                0x00000b5c                __preinit_array_start = .
 *(.preinit_array)
                0x00000b5c                __preinit_array_end = .
                0x00000b5c                . = ALIGN (0x4)
                0x00000b5c                __init_array_start = .
 *(SORT(.init_array.*))
 *(.init_array)
 .init_array    0x00000b5c        0x4 c:/program files (x86)/cypress/psoc creator/3.3/psoc creator/import/gnu/arm/4.9.3/bin/../lib/gcc/arm-none-eabi/4.9.3/armv7-m/crtbegin.o
 .init_array    0x00000b60        0x4 .\CortexM3\ARM_GCC_493\Release\Cm3Start.o
                0x00000b64                __init_array_end = .
                0x00000b64                . = ALIGN (0x4)
 *(.fini)
 .fini          0x00000b64        0x4 c:/program files (x86)/cypress/psoc creator/3.3/psoc creator/import/gnu/arm/4.9.3/bin/../lib/gcc/arm-none-eabi/4.9.3/armv7-m/crti.o
                0x00000b64                _fini
 .fini          0x00000b68        0x8 c:/program files (x86)/cypress/psoc creator/3.3/psoc creator/import/gnu/arm/4.9.3/bin/../lib/gcc/arm-none-eabi/4.9.3/armv7-m/crtn.o
                0x00000b70                . = ALIGN (0x4)
                0x00000b70                __fini_array_start = .
 *(.fini_array)
 .fini_array    0x00000b70        0x4 c:/program files (x86)/cypress/psoc creator/3.3/psoc creator/import/gnu/arm/4.9.3/bin/../lib/gcc/arm-none-eabi/4.9.3/armv7-m/crtbegin.o
 *(SORT(.fini_array.*))
                0x00000b74                __fini_array_end = .
                0x00000b74                . = ALIGN (0x4)
 *crtbegin.o(.ctors)
 *(EXCLUDE_FILE(*crtend.o) .ctors)
 *(SORT(.ctors.*))
 *crtend.o(.ctors)
                0x00000b74                . = ALIGN (0x4)
 *crtbegin.o(.dtors)
 *(EXCLUDE_FILE(*crtend.o) .dtors)
 *(SORT(.dtors.*))
 *crtend.o(.dtors)
                0x00000b74                . = ALIGN (0x4)
                0x00000b74                __cy_regions = .
                0x00000b74        0x4 LONG 0xb88 __cy_region_init_ram
                0x00000b78        0x4 LONG 0x1fff8108 __cy_region_start_data
                0x00000b7c        0x4 LONG 0x8 __cy_region_init_size_ram
                0x00000b80        0x4 LONG 0x2128 __cy_region_zero_size_ram
                0x00000b84                __cy_regions_end = .
                0x00000b88                . = ALIGN (0x8)
 *fill*         0x00000b84        0x4 
                0x00000b88                _etext = .

.ramvectors     0x1fff8000      0x100
                0x1fff8000                __cy_region_start_ram = .
 *(.ramvectors)
 .ramvectors    0x1fff8000      0x100 .\CortexM3\ARM_GCC_493\Release\Cm3Start.o
                0x1fff8000                CyRamVectors

.noinit         0x1fff8100        0x5
 *(.noinit)
 .noinit        0x1fff8100        0x4 .\CortexM3\ARM_GCC_493\Release\Cm3Start.o
 .noinit        0x1fff8104        0x1 .\CortexM3\ARM_GCC_493\Release\Lab2.a(CyLib.o)
                0x1fff8104                CyResetStatus

.data           0x1fff8108        0x8 load address 0x00000b88
                0x1fff8108                __cy_region_start_data = .
 *(.jcr)
 .jcr           0x1fff8108        0x0 c:/program files (x86)/cypress/psoc creator/3.3/psoc creator/import/gnu/arm/4.9.3/bin/../lib/gcc/arm-none-eabi/4.9.3/armv7-m/crtbegin.o
 .jcr           0x1fff8108        0x4 c:/program files (x86)/cypress/psoc creator/3.3/psoc creator/import/gnu/arm/4.9.3/bin/../lib/gcc/arm-none-eabi/4.9.3/armv7-m/crtend.o
 *(.got.plt)
 *(.got)
 *(.shdata)
 *(.data .data.* .gnu.linkonce.d.*)
 .data          0x1fff810c        0x4 .\CortexM3\ARM_GCC_493\Release\port.o
                0x1fff8110                . = ALIGN (0x8)
 *(.ram)
                0x1fff8110                _edata = .

.igot.plt       0x1fff8110        0x0 load address 0x00000b90
 .igot.plt      0x00000000        0x0 c:/program files (x86)/cypress/psoc creator/3.3/psoc creator/import/gnu/arm/4.9.3/bin/../lib/gcc/arm-none-eabi/4.9.3/armv7-m/crtbegin.o

.bss            0x1fff8110     0x2128 load address 0x00000b90
                0x1fff8110                PROVIDE (__bss_start__, .)
 *(.shbss)
 *(.bss .bss.* .gnu.linkonce.b.*)
 .bss           0x1fff8110       0x1c c:/program files (x86)/cypress/psoc creator/3.3/psoc creator/import/gnu/arm/4.9.3/bin/../lib/gcc/arm-none-eabi/4.9.3/armv7-m/crtbegin.o
 .bss           0x1fff812c     0x2008 .\CortexM3\ARM_GCC_493\Release\heap_1.o
 .bss           0x1fffa134      0x100 .\CortexM3\ARM_GCC_493\Release\tasks.o
                0x1fffa164                pxCurrentTCB
 *(COMMON)
                0x1fffa238                . = ALIGN (0x8)
 *fill*         0x1fffa234        0x4 
 *(.ram.b)
                0x1fffa238                _end = .
                0x1fffa238                __end = .
                0x1fffa238                PROVIDE (end, .)
                0x1fffa238                PROVIDE (__bss_end__, .)
                0x00000b88                __cy_region_init_ram = LOADADDR (.data)
                0x00000008                __cy_region_init_size_ram = (_edata - ADDR (.data))
                0x00002128                __cy_region_zero_size_ram = (_end - _edata)

.heap           0x1fffa238       0x80 load address 0x00000b90
                0x1fffa238                . = _end
                0x1fffa2b8                . = (. + 0x80)
 *fill*         0x1fffa238       0x80 
                0x1fffa2b8                __cy_heap_limit = .

.stack          0x20007e00      0x200
                0x20007e00                __cy_stack_limit = .
                0x20008000                . = (. + 0x200)
 *fill*         0x20007e00      0x200 
                0x00000001                ASSERT ((__cy_stack_limit >= __cy_heap_limit), region RAM overflowed with stack)

.cyloadermeta
 *(.cyloadermeta)

.cyloadablemeta
 *(.cyloadablemeta)

.cyconfigecc    0x80000000        0x8
 *(.cyconfigecc)
 .cyconfigecc   0x80000000        0x8 .\CortexM3\ARM_GCC_493\Release\cymetadata.o
                0x80000000                cy_meta_configecc

.cycustnvl      0x90000000        0x4
 *(.cycustnvl)
 .cycustnvl     0x90000000        0x4 .\CortexM3\ARM_GCC_493\Release\cymetadata.o
                0x90000000                cy_meta_custnvl

.cywolatch      0x90100000        0x4
 *(.cywolatch)
 .cywolatch     0x90100000        0x4 .\CortexM3\ARM_GCC_493\Release\cymetadata.o
                0x90100000                cy_meta_wonvl

.cyeeprom       0x90200000        0x0
 *(.cyeeprom)
                0x00000001                ASSERT ((. <= ((0x90200000 + ee_offset) + ee_size)), .cyeeprom data will not fit in EEPROM)

.cyflashprotect
                0x90400000      0x100
 *(.cyflashprotect)
 .cyflashprotect
                0x90400000      0x100 .\CortexM3\ARM_GCC_493\Release\cymetadata.o
                0x90400000                cy_meta_flashprotect

.cymeta         0x90500000        0xc
 *(.cymeta)
 .cymeta        0x90500000        0xc .\CortexM3\ARM_GCC_493\Release\cymetadata.o
                0x90500000                cy_metadata

.rel.dyn        0x00000b90        0x0 load address 0x9050000c
 .rel.iplt      0x00000000        0x0 c:/program files (x86)/cypress/psoc creator/3.3/psoc creator/import/gnu/arm/4.9.3/bin/../lib/gcc/arm-none-eabi/4.9.3/armv7-m/crtbegin.o

.stab
 *(.stab)

.stabstr
 *(.stabstr)

.debug
 *(.debug)

.line
 *(.line)

.debug_srcinfo
 *(.debug_srcinfo)

.debug_sfnames
 *(.debug_sfnames)

.debug_aranges  0x00000000      0x840
 *(.debug_aranges)
 .debug_aranges
                0x00000000       0x38 .\CortexM3\ARM_GCC_493\Release\main.o
 .debug_aranges
                0x00000038       0x38 .\CortexM3\ARM_GCC_493\Release\heap_1.o
 .debug_aranges
                0x00000070       0x40 .\CortexM3\ARM_GCC_493\Release\list.o
 .debug_aranges
                0x000000b0       0x88 .\CortexM3\ARM_GCC_493\Release\port.o
 .debug_aranges
                0x00000138       0xd0 .\CortexM3\ARM_GCC_493\Release\queue.o
 .debug_aranges
                0x00000208      0x168 .\CortexM3\ARM_GCC_493\Release\tasks.o
 .debug_aranges
                0x00000370       0x18 .\CortexM3\ARM_GCC_493\Release\cymetadata.o
 .debug_aranges
                0x00000388       0x48 .\CortexM3\ARM_GCC_493\Release\Cm3Start.o
 .debug_aranges
                0x000003d0       0x28 .\CortexM3\ARM_GCC_493\Release\Lab2.a(cyfitter_cfg.o)
 .debug_aranges
                0x000003f8       0x38 .\CortexM3\ARM_GCC_493\Release\Lab2.a(LED_pin.o)
 .debug_aranges
                0x00000430       0x20 .\CortexM3\ARM_GCC_493\Release\Lab2.a(CyBootAsmGnu.o)
 .debug_aranges
                0x00000450      0x290 .\CortexM3\ARM_GCC_493\Release\Lab2.a(CyLib.o)
 .debug_aranges
                0x000006e0       0x78 .\CortexM3\ARM_GCC_493\Release\Lab2.a(cyPm.o)
 .debug_aranges
                0x00000758       0x70 .\CortexM3\ARM_GCC_493\Release\Lab2.a(CyFlash.o)
 .debug_aranges
                0x000007c8       0x78 .\CortexM3\ARM_GCC_493\Release\Lab2.a(CySpc.o)

.debug_pubnames
 *(.debug_pubnames)

.debug_info     0x00000000     0x6fcd
 *(.debug_info .gnu.linkonce.wi.*)
 .debug_info    0x00000000      0x373 .\CortexM3\ARM_GCC_493\Release\main.o
 .debug_info    0x00000373      0x208 .\CortexM3\ARM_GCC_493\Release\heap_1.o
 .debug_info    0x0000057b      0x2d3 .\CortexM3\ARM_GCC_493\Release\list.o
 .debug_info    0x0000084e      0x305 .\CortexM3\ARM_GCC_493\Release\port.o
 .debug_info    0x00000b53     0x131f .\CortexM3\ARM_GCC_493\Release\queue.o
 .debug_info    0x00001e72     0x1f59 .\CortexM3\ARM_GCC_493\Release\tasks.o
 .debug_info    0x00003dcb      0x139 .\CortexM3\ARM_GCC_493\Release\cymetadata.o
 .debug_info    0x00003f04      0x3a3 .\CortexM3\ARM_GCC_493\Release\Cm3Start.o
 .debug_info    0x000042a7      0x36e .\CortexM3\ARM_GCC_493\Release\Lab2.a(cyfitter_cfg.o)
 .debug_info    0x00004615      0x120 .\CortexM3\ARM_GCC_493\Release\Lab2.a(LED_pin.o)
 .debug_info    0x00004735       0x73 .\CortexM3\ARM_GCC_493\Release\Lab2.a(CyBootAsmGnu.o)
 .debug_info    0x000047a8     0x1339 .\CortexM3\ARM_GCC_493\Release\Lab2.a(CyLib.o)
 .debug_info    0x00005ae1      0x9a3 .\CortexM3\ARM_GCC_493\Release\Lab2.a(cyPm.o)
 .debug_info    0x00006484      0x65c .\CortexM3\ARM_GCC_493\Release\Lab2.a(CyFlash.o)
 .debug_info    0x00006ae0      0x4ed .\CortexM3\ARM_GCC_493\Release\Lab2.a(CySpc.o)

.debug_abbrev   0x00000000     0x1c32
 *(.debug_abbrev)
 .debug_abbrev  0x00000000      0x1f3 .\CortexM3\ARM_GCC_493\Release\main.o
 .debug_abbrev  0x000001f3      0x160 .\CortexM3\ARM_GCC_493\Release\heap_1.o
 .debug_abbrev  0x00000353       0xf6 .\CortexM3\ARM_GCC_493\Release\list.o
 .debug_abbrev  0x00000449      0x1d5 .\CortexM3\ARM_GCC_493\Release\port.o
 .debug_abbrev  0x0000061e      0x2ef .\CortexM3\ARM_GCC_493\Release\queue.o
 .debug_abbrev  0x0000090d      0x3c4 .\CortexM3\ARM_GCC_493\Release\tasks.o
 .debug_abbrev  0x00000cd1       0x5d .\CortexM3\ARM_GCC_493\Release\cymetadata.o
 .debug_abbrev  0x00000d2e      0x20f .\CortexM3\ARM_GCC_493\Release\Cm3Start.o
 .debug_abbrev  0x00000f3d      0x1fc .\CortexM3\ARM_GCC_493\Release\Lab2.a(cyfitter_cfg.o)
 .debug_abbrev  0x00001139       0x9d .\CortexM3\ARM_GCC_493\Release\Lab2.a(LED_pin.o)
 .debug_abbrev  0x000011d6       0x14 .\CortexM3\ARM_GCC_493\Release\Lab2.a(CyBootAsmGnu.o)
 .debug_abbrev  0x000011ea      0x3c9 .\CortexM3\ARM_GCC_493\Release\Lab2.a(CyLib.o)
 .debug_abbrev  0x000015b3      0x224 .\CortexM3\ARM_GCC_493\Release\Lab2.a(cyPm.o)
 .debug_abbrev  0x000017d7      0x27f .\CortexM3\ARM_GCC_493\Release\Lab2.a(CyFlash.o)
 .debug_abbrev  0x00001a56      0x1dc .\CortexM3\ARM_GCC_493\Release\Lab2.a(CySpc.o)

.debug_line     0x00000000     0x2b8c
 *(.debug_line)
 .debug_line    0x00000000      0x1f4 .\CortexM3\ARM_GCC_493\Release\main.o
 .debug_line    0x000001f4      0x244 .\CortexM3\ARM_GCC_493\Release\heap_1.o
 .debug_line    0x00000438      0x1e8 .\CortexM3\ARM_GCC_493\Release\list.o
 .debug_line    0x00000620      0x292 .\CortexM3\ARM_GCC_493\Release\port.o
 .debug_line    0x000008b2      0x555 .\CortexM3\ARM_GCC_493\Release\queue.o
 .debug_line    0x00000e07      0x924 .\CortexM3\ARM_GCC_493\Release\tasks.o
 .debug_line    0x0000172b       0x53 .\CortexM3\ARM_GCC_493\Release\cymetadata.o
 .debug_line    0x0000177e      0x21c .\CortexM3\ARM_GCC_493\Release\Cm3Start.o
 .debug_line    0x0000199a      0x172 .\CortexM3\ARM_GCC_493\Release\Lab2.a(cyfitter_cfg.o)
 .debug_line    0x00001b0c       0x96 .\CortexM3\ARM_GCC_493\Release\Lab2.a(LED_pin.o)
 .debug_line    0x00001ba2       0x68 .\CortexM3\ARM_GCC_493\Release\Lab2.a(CyBootAsmGnu.o)
 .debug_line    0x00001c0a      0x7e9 .\CortexM3\ARM_GCC_493\Release\Lab2.a(CyLib.o)
 .debug_line    0x000023f3      0x3b3 .\CortexM3\ARM_GCC_493\Release\Lab2.a(cyPm.o)
 .debug_line    0x000027a6      0x1c2 .\CortexM3\ARM_GCC_493\Release\Lab2.a(CyFlash.o)
 .debug_line    0x00002968      0x224 .\CortexM3\ARM_GCC_493\Release\Lab2.a(CySpc.o)

.debug_frame    0x00000000     0x18e4
 *(.debug_frame)
 .debug_frame   0x00000000       0x64 .\CortexM3\ARM_GCC_493\Release\main.o
 .debug_frame   0x00000064       0x60 .\CortexM3\ARM_GCC_493\Release\heap_1.o
 .debug_frame   0x000000c4       0x6c .\CortexM3\ARM_GCC_493\Release\list.o
 .debug_frame   0x00000130      0x124 .\CortexM3\ARM_GCC_493\Release\port.o
 .debug_frame   0x00000254      0x2d8 .\CortexM3\ARM_GCC_493\Release\queue.o
 .debug_frame   0x0000052c      0x644 .\CortexM3\ARM_GCC_493\Release\tasks.o
 .debug_frame   0x00000b70       0xac .\CortexM3\ARM_GCC_493\Release\Cm3Start.o
 .debug_frame   0x00000c1c       0x40 .\CortexM3\ARM_GCC_493\Release\Lab2.a(cyfitter_cfg.o)
 .debug_frame   0x00000c5c       0x50 .\CortexM3\ARM_GCC_493\Release\Lab2.a(LED_pin.o)
 .debug_frame   0x00000cac      0x6e0 .\CortexM3\ARM_GCC_493\Release\Lab2.a(CyLib.o)
 .debug_frame   0x0000138c      0x1c4 .\CortexM3\ARM_GCC_493\Release\Lab2.a(cyPm.o)
 .debug_frame   0x00001550      0x148 .\CortexM3\ARM_GCC_493\Release\Lab2.a(CyFlash.o)
 .debug_frame   0x00001698      0x168 .\CortexM3\ARM_GCC_493\Release\Lab2.a(CySpc.o)
 .debug_frame   0x00001800       0x20 c:/program files (x86)/cypress/psoc creator/3.3/psoc creator/import/gnu/arm/4.9.3/bin/../lib/gcc/arm-none-eabi/4.9.3/../../../../arm-none-eabi/lib/armv7-m\libg_nano.a(lib_a-errno.o)
 .debug_frame   0x00001820       0x28 c:/program files (x86)/cypress/psoc creator/3.3/psoc creator/import/gnu/arm/4.9.3/bin/../lib/gcc/arm-none-eabi/4.9.3/../../../../arm-none-eabi/lib/armv7-m\libg_nano.a(lib_a-exit.o)
 .debug_frame   0x00001848       0x2c c:/program files (x86)/cypress/psoc creator/3.3/psoc creator/import/gnu/arm/4.9.3/bin/../lib/gcc/arm-none-eabi/4.9.3/../../../../arm-none-eabi/lib/armv7-m\libg_nano.a(lib_a-init.o)
 .debug_frame   0x00001874       0x28 c:/program files (x86)/cypress/psoc creator/3.3/psoc creator/import/gnu/arm/4.9.3/bin/../lib/gcc/arm-none-eabi/4.9.3/../../../../arm-none-eabi/lib/armv7-m\libg_nano.a(lib_a-memcmp.o)
 .debug_frame   0x0000189c       0x28 c:/program files (x86)/cypress/psoc creator/3.3/psoc creator/import/gnu/arm/4.9.3/bin/../lib/gcc/arm-none-eabi/4.9.3/../../../../arm-none-eabi/lib/armv7-m\libg_nano.a(lib_a-memcpy.o)
 .debug_frame   0x000018c4       0x20 c:/program files (x86)/cypress/psoc creator/3.3/psoc creator/import/gnu/arm/4.9.3/bin/../lib/gcc/arm-none-eabi/4.9.3/../../../../arm-none-eabi/lib/armv7-m\libg_nano.a(lib_a-memset.o)

.debug_str      0x00000000     0x24ec
 *(.debug_str)
 .debug_str     0x00000000      0x2de .\CortexM3\ARM_GCC_493\Release\main.o
                                0x33c (size before relaxing)
 .debug_str     0x000002de       0xb6 .\CortexM3\ARM_GCC_493\Release\heap_1.o
                                0x269 (size before relaxing)
 .debug_str     0x00000394      0x126 .\CortexM3\ARM_GCC_493\Release\list.o
                                0x2cb (size before relaxing)
 .debug_str     0x000004ba      0x139 .\CortexM3\ARM_GCC_493\Release\port.o
                                0x330 (size before relaxing)
 .debug_str     0x000005f3      0x56b .\CortexM3\ARM_GCC_493\Release\queue.o
                                0x8ac (size before relaxing)
 .debug_str     0x00000b5e      0x885 .\CortexM3\ARM_GCC_493\Release\tasks.o
                                0xe70 (size before relaxing)
 .debug_str     0x000013e3       0x77 .\CortexM3\ARM_GCC_493\Release\cymetadata.o
                                0x1cd (size before relaxing)
 .debug_str     0x0000145a      0x14b .\CortexM3\ARM_GCC_493\Release\Cm3Start.o
                                0x2e1 (size before relaxing)
 .debug_str     0x000015a5       0xfe .\CortexM3\ARM_GCC_493\Release\Lab2.a(cyfitter_cfg.o)
                                0x288 (size before relaxing)
 .debug_str     0x000016a3       0x62 .\CortexM3\ARM_GCC_493\Release\Lab2.a(LED_pin.o)
                                0x1cf (size before relaxing)
 .debug_str     0x00001705      0x839 .\CortexM3\ARM_GCC_493\Release\Lab2.a(CyLib.o)
                                0xa06 (size before relaxing)
 .debug_str     0x00001f3e      0x35b .\CortexM3\ARM_GCC_493\Release\Lab2.a(cyPm.o)
                                0x6f7 (size before relaxing)
 .debug_str     0x00002299      0x19e .\CortexM3\ARM_GCC_493\Release\Lab2.a(CyFlash.o)
                                0x371 (size before relaxing)
 .debug_str     0x00002437       0xb5 .\CortexM3\ARM_GCC_493\Release\Lab2.a(CySpc.o)
                                0x301 (size before relaxing)

.debug_loc      0x00000000     0x3da2
 *(.debug_loc)
 .debug_loc     0x00000000       0x21 .\CortexM3\ARM_GCC_493\Release\main.o
 .debug_loc     0x00000021       0xa3 .\CortexM3\ARM_GCC_493\Release\heap_1.o
 .debug_loc     0x000000c4       0x94 .\CortexM3\ARM_GCC_493\Release\list.o
 .debug_loc     0x00000158       0x66 .\CortexM3\ARM_GCC_493\Release\port.o
 .debug_loc     0x000001be      0xbff .\CortexM3\ARM_GCC_493\Release\queue.o
 .debug_loc     0x00000dbd     0x1699 .\CortexM3\ARM_GCC_493\Release\tasks.o
 .debug_loc     0x00002456      0x1b4 .\CortexM3\ARM_GCC_493\Release\Cm3Start.o
 .debug_loc     0x0000260a      0x178 .\CortexM3\ARM_GCC_493\Release\Lab2.a(cyfitter_cfg.o)
 .debug_loc     0x00002782       0x5a .\CortexM3\ARM_GCC_493\Release\Lab2.a(LED_pin.o)
 .debug_loc     0x000027dc      0xa89 .\CortexM3\ARM_GCC_493\Release\Lab2.a(CyLib.o)
 .debug_loc     0x00003265      0x1bd .\CortexM3\ARM_GCC_493\Release\Lab2.a(cyPm.o)
 .debug_loc     0x00003422      0x391 .\CortexM3\ARM_GCC_493\Release\Lab2.a(CyFlash.o)
 .debug_loc     0x000037b3      0x5ef .\CortexM3\ARM_GCC_493\Release\Lab2.a(CySpc.o)

.debug_macinfo
 *(.debug_macinfo)

.debug_ranges   0x00000000      0x890
 *(.debug_ranges)
 .debug_ranges  0x00000000       0x48 .\CortexM3\ARM_GCC_493\Release\main.o
 .debug_ranges  0x00000048       0x28 .\CortexM3\ARM_GCC_493\Release\heap_1.o
 .debug_ranges  0x00000070       0x30 .\CortexM3\ARM_GCC_493\Release\list.o
 .debug_ranges  0x000000a0       0x78 .\CortexM3\ARM_GCC_493\Release\port.o
 .debug_ranges  0x00000118       0xc0 .\CortexM3\ARM_GCC_493\Release\queue.o
 .debug_ranges  0x000001d8      0x1d8 .\CortexM3\ARM_GCC_493\Release\tasks.o
 .debug_ranges  0x000003b0       0x38 .\CortexM3\ARM_GCC_493\Release\Cm3Start.o
 .debug_ranges  0x000003e8       0x78 .\CortexM3\ARM_GCC_493\Release\Lab2.a(cyfitter_cfg.o)
 .debug_ranges  0x00000460       0x28 .\CortexM3\ARM_GCC_493\Release\Lab2.a(LED_pin.o)
 .debug_ranges  0x00000488      0x298 .\CortexM3\ARM_GCC_493\Release\Lab2.a(CyLib.o)
 .debug_ranges  0x00000720       0x90 .\CortexM3\ARM_GCC_493\Release\Lab2.a(cyPm.o)
 .debug_ranges  0x000007b0       0x78 .\CortexM3\ARM_GCC_493\Release\Lab2.a(CyFlash.o)
 .debug_ranges  0x00000828       0x68 .\CortexM3\ARM_GCC_493\Release\Lab2.a(CySpc.o)

.comment        0x00000000       0x70
 .comment       0x00000000       0x70 .\CortexM3\ARM_GCC_493\Release\main.o
                                 0x71 (size before relaxing)
 .comment       0x00000000       0x71 .\CortexM3\ARM_GCC_493\Release\heap_1.o
 .comment       0x00000000       0x71 .\CortexM3\ARM_GCC_493\Release\list.o
 .comment       0x00000000       0x71 .\CortexM3\ARM_GCC_493\Release\port.o
 .comment       0x00000000       0x71 .\CortexM3\ARM_GCC_493\Release\queue.o
 .comment       0x00000000       0x71 .\CortexM3\ARM_GCC_493\Release\tasks.o
 .comment       0x00000000       0x71 .\CortexM3\ARM_GCC_493\Release\cymetadata.o
 .comment       0x00000000       0x71 .\CortexM3\ARM_GCC_493\Release\Cm3Start.o
 .comment       0x00000000       0x71 .\CortexM3\ARM_GCC_493\Release\Lab2.a(cyfitter_cfg.o)
 .comment       0x00000000       0x71 .\CortexM3\ARM_GCC_493\Release\Lab2.a(LED_pin.o)
 .comment       0x00000000       0x71 .\CortexM3\ARM_GCC_493\Release\Lab2.a(CyLib.o)
 .comment       0x00000000       0x71 .\CortexM3\ARM_GCC_493\Release\Lab2.a(cyPm.o)
 .comment       0x00000000       0x71 .\CortexM3\ARM_GCC_493\Release\Lab2.a(CyFlash.o)
 .comment       0x00000000       0x71 .\CortexM3\ARM_GCC_493\Release\Lab2.a(CySpc.o)

.debug_weaknames
 *(.debug_weaknames)

.debug_funcnames
 *(.debug_funcnames)

.debug_typenames
 *(.debug_typenames)

.debug_varnames
 *(.debug_varnames)

.note.gnu.arm.ident
 *(.note.gnu.arm.ident)

.ARM.attributes
                0x00000000       0x29
 *(.ARM.attributes)
 .ARM.attributes
                0x00000000       0x1d c:/program files (x86)/cypress/psoc creator/3.3/psoc creator/import/gnu/arm/4.9.3/bin/../lib/gcc/arm-none-eabi/4.9.3/armv7-m/crti.o
 .ARM.attributes
                0x0000001d       0x2d c:/program files (x86)/cypress/psoc creator/3.3/psoc creator/import/gnu/arm/4.9.3/bin/../lib/gcc/arm-none-eabi/4.9.3/armv7-m/crtbegin.o
 .ARM.attributes
                0x0000004a       0x1b c:/program files (x86)/cypress/psoc creator/3.3/psoc creator/import/gnu/arm/4.9.3/bin/../lib/gcc/arm-none-eabi/4.9.3/../../../../arm-none-eabi/lib/armv7-m/crt0.o
 .ARM.attributes
                0x00000065       0x33 .\CortexM3\ARM_GCC_493\Release\main.o
 .ARM.attributes
                0x00000098       0x33 .\CortexM3\ARM_GCC_493\Release\heap_1.o
 .ARM.attributes
                0x000000cb       0x33 .\CortexM3\ARM_GCC_493\Release\list.o
 .ARM.attributes
                0x000000fe       0x33 .\CortexM3\ARM_GCC_493\Release\port.o
 .ARM.attributes
                0x00000131       0x33 .\CortexM3\ARM_GCC_493\Release\queue.o
 .ARM.attributes
                0x00000164       0x33 .\CortexM3\ARM_GCC_493\Release\tasks.o
 .ARM.attributes
                0x00000197       0x33 .\CortexM3\ARM_GCC_493\Release\cymetadata.o
 .ARM.attributes
                0x000001ca       0x33 .\CortexM3\ARM_GCC_493\Release\Cm3Start.o
 .ARM.attributes
                0x000001fd       0x33 .\CortexM3\ARM_GCC_493\Release\Lab2.a(cyfitter_cfg.o)
 .ARM.attributes
                0x00000230       0x33 .\CortexM3\ARM_GCC_493\Release\Lab2.a(LED_pin.o)
 .ARM.attributes
                0x00000263       0x21 .\CortexM3\ARM_GCC_493\Release\Lab2.a(CyBootAsmGnu.o)
 .ARM.attributes
                0x00000284       0x33 .\CortexM3\ARM_GCC_493\Release\Lab2.a(CyLib.o)
 .ARM.attributes
                0x000002b7       0x33 .\CortexM3\ARM_GCC_493\Release\Lab2.a(cyPm.o)
 .ARM.attributes
                0x000002ea       0x33 .\CortexM3\ARM_GCC_493\Release\Lab2.a(CyFlash.o)
 .ARM.attributes
                0x0000031d       0x33 .\CortexM3\ARM_GCC_493\Release\Lab2.a(CySpc.o)
 .ARM.attributes
                0x00000350       0x2d c:/program files (x86)/cypress/psoc creator/3.3/psoc creator/import/gnu/arm/4.9.3/bin/../lib/gcc/arm-none-eabi/4.9.3/../../../../arm-none-eabi/lib/armv7-m\libg_nano.a(lib_a-errno.o)
 .ARM.attributes
                0x0000037d       0x2d c:/program files (x86)/cypress/psoc creator/3.3/psoc creator/import/gnu/arm/4.9.3/bin/../lib/gcc/arm-none-eabi/4.9.3/../../../../arm-none-eabi/lib/armv7-m\libg_nano.a(lib_a-exit.o)
 .ARM.attributes
                0x000003aa       0x2d c:/program files (x86)/cypress/psoc creator/3.3/psoc creator/import/gnu/arm/4.9.3/bin/../lib/gcc/arm-none-eabi/4.9.3/../../../../arm-none-eabi/lib/armv7-m\libg_nano.a(lib_a-impure.o)
 .ARM.attributes
                0x000003d7       0x2d c:/program files (x86)/cypress/psoc creator/3.3/psoc creator/import/gnu/arm/4.9.3/bin/../lib/gcc/arm-none-eabi/4.9.3/../../../../arm-none-eabi/lib/armv7-m\libg_nano.a(lib_a-init.o)
 .ARM.attributes
                0x00000404       0x2d c:/program files (x86)/cypress/psoc creator/3.3/psoc creator/import/gnu/arm/4.9.3/bin/../lib/gcc/arm-none-eabi/4.9.3/../../../../arm-none-eabi/lib/armv7-m\libg_nano.a(lib_a-memcmp.o)
 .ARM.attributes
                0x00000431       0x2d c:/program files (x86)/cypress/psoc creator/3.3/psoc creator/import/gnu/arm/4.9.3/bin/../lib/gcc/arm-none-eabi/4.9.3/../../../../arm-none-eabi/lib/armv7-m\libg_nano.a(lib_a-memcpy.o)
 .ARM.attributes
                0x0000045e       0x2d c:/program files (x86)/cypress/psoc creator/3.3/psoc creator/import/gnu/arm/4.9.3/bin/../lib/gcc/arm-none-eabi/4.9.3/../../../../arm-none-eabi/lib/armv7-m\libg_nano.a(lib_a-memset.o)
 .ARM.attributes
                0x0000048b       0x2d c:/program files (x86)/cypress/psoc creator/3.3/psoc creator/import/gnu/arm/4.9.3/bin/../lib/gcc/arm-none-eabi/4.9.3/armv7-m/crtend.o
 .ARM.attributes
                0x000004b8       0x1d c:/program files (x86)/cypress/psoc creator/3.3/psoc creator/import/gnu/arm/4.9.3/bin/../lib/gcc/arm-none-eabi/4.9.3/armv7-m/crtn.o

/DISCARD/
 *(.note.GNU-stack)
OUTPUT(.\CortexM3\ARM_GCC_493\Release\Lab2.elf elf32-littlearm)
