ARM GAS  C:\Users\mjphi\AppData\Local\Temp\ccZQVruJ.s 			page 1


   1              		.syntax unified
   2              		.cpu cortex-m3
   3              		.fpu softvfp
   4              		.eabi_attribute 20, 1
   5              		.eabi_attribute 21, 1
   6              		.eabi_attribute 23, 3
   7              		.eabi_attribute 24, 1
   8              		.eabi_attribute 25, 1
   9              		.eabi_attribute 26, 1
  10              		.eabi_attribute 30, 4
  11              		.eabi_attribute 34, 1
  12              		.eabi_attribute 18, 4
  13              		.thumb
  14              		.file	"ADC_DelSig_1_Ext_CP_Clk.c"
  15              		.text
  16              	.Ltext0:
  17              		.cfi_sections	.debug_frame
  18              		.section	.text.ADC_DelSig_1_Ext_CP_Clk_Start,"ax",%progbits
  19              		.align	1
  20              		.global	ADC_DelSig_1_Ext_CP_Clk_Start
  21              		.thumb
  22              		.thumb_func
  23              		.type	ADC_DelSig_1_Ext_CP_Clk_Start, %function
  24              	ADC_DelSig_1_Ext_CP_Clk_Start:
  25              	.LFB0:
  26              		.file 1 ".\\Generated_Source\\PSoC5\\ADC_DelSig_1_Ext_CP_Clk.c"
   1:.\Generated_Source\PSoC5/ADC_DelSig_1_Ext_CP_Clk.c **** /*******************************************************************************
   2:.\Generated_Source\PSoC5/ADC_DelSig_1_Ext_CP_Clk.c **** * File Name: ADC_DelSig_1_Ext_CP_Clk.c
   3:.\Generated_Source\PSoC5/ADC_DelSig_1_Ext_CP_Clk.c **** * Version 2.20
   4:.\Generated_Source\PSoC5/ADC_DelSig_1_Ext_CP_Clk.c **** *
   5:.\Generated_Source\PSoC5/ADC_DelSig_1_Ext_CP_Clk.c **** *  Description:
   6:.\Generated_Source\PSoC5/ADC_DelSig_1_Ext_CP_Clk.c **** *   This file provides the source code to the API for the clock component.
   7:.\Generated_Source\PSoC5/ADC_DelSig_1_Ext_CP_Clk.c **** *
   8:.\Generated_Source\PSoC5/ADC_DelSig_1_Ext_CP_Clk.c **** *  Note:
   9:.\Generated_Source\PSoC5/ADC_DelSig_1_Ext_CP_Clk.c **** *
  10:.\Generated_Source\PSoC5/ADC_DelSig_1_Ext_CP_Clk.c **** ********************************************************************************
  11:.\Generated_Source\PSoC5/ADC_DelSig_1_Ext_CP_Clk.c **** * Copyright 2008-2012, Cypress Semiconductor Corporation.  All rights reserved.
  12:.\Generated_Source\PSoC5/ADC_DelSig_1_Ext_CP_Clk.c **** * You may use this file only in accordance with the license, terms, conditions, 
  13:.\Generated_Source\PSoC5/ADC_DelSig_1_Ext_CP_Clk.c **** * disclaimers, and limitations in the end user license agreement accompanying 
  14:.\Generated_Source\PSoC5/ADC_DelSig_1_Ext_CP_Clk.c **** * the software package with which this file was provided.
  15:.\Generated_Source\PSoC5/ADC_DelSig_1_Ext_CP_Clk.c **** *******************************************************************************/
  16:.\Generated_Source\PSoC5/ADC_DelSig_1_Ext_CP_Clk.c **** 
  17:.\Generated_Source\PSoC5/ADC_DelSig_1_Ext_CP_Clk.c **** #include <cydevice_trm.h>
  18:.\Generated_Source\PSoC5/ADC_DelSig_1_Ext_CP_Clk.c **** #include "ADC_DelSig_1_Ext_CP_Clk.h"
  19:.\Generated_Source\PSoC5/ADC_DelSig_1_Ext_CP_Clk.c **** 
  20:.\Generated_Source\PSoC5/ADC_DelSig_1_Ext_CP_Clk.c **** /* Clock Distribution registers. */
  21:.\Generated_Source\PSoC5/ADC_DelSig_1_Ext_CP_Clk.c **** #define CLK_DIST_LD              (* (reg8 *) CYREG_CLKDIST_LD)
  22:.\Generated_Source\PSoC5/ADC_DelSig_1_Ext_CP_Clk.c **** #define CLK_DIST_BCFG2           (* (reg8 *) CYREG_CLKDIST_BCFG2)
  23:.\Generated_Source\PSoC5/ADC_DelSig_1_Ext_CP_Clk.c **** #define BCFG2_MASK               (0x80u)
  24:.\Generated_Source\PSoC5/ADC_DelSig_1_Ext_CP_Clk.c **** #define CLK_DIST_DMASK           (* (reg8 *) CYREG_CLKDIST_DMASK)
  25:.\Generated_Source\PSoC5/ADC_DelSig_1_Ext_CP_Clk.c **** #define CLK_DIST_AMASK           (* (reg8 *) CYREG_CLKDIST_AMASK)
  26:.\Generated_Source\PSoC5/ADC_DelSig_1_Ext_CP_Clk.c **** 
  27:.\Generated_Source\PSoC5/ADC_DelSig_1_Ext_CP_Clk.c **** #define HAS_CLKDIST_LD_DISABLE   (CY_PSOC3 || CY_PSOC5LP)
  28:.\Generated_Source\PSoC5/ADC_DelSig_1_Ext_CP_Clk.c **** 
  29:.\Generated_Source\PSoC5/ADC_DelSig_1_Ext_CP_Clk.c **** 
  30:.\Generated_Source\PSoC5/ADC_DelSig_1_Ext_CP_Clk.c **** /*******************************************************************************
  31:.\Generated_Source\PSoC5/ADC_DelSig_1_Ext_CP_Clk.c **** * Function Name: ADC_DelSig_1_Ext_CP_Clk_Start
ARM GAS  C:\Users\mjphi\AppData\Local\Temp\ccZQVruJ.s 			page 2


  32:.\Generated_Source\PSoC5/ADC_DelSig_1_Ext_CP_Clk.c **** ********************************************************************************
  33:.\Generated_Source\PSoC5/ADC_DelSig_1_Ext_CP_Clk.c **** *
  34:.\Generated_Source\PSoC5/ADC_DelSig_1_Ext_CP_Clk.c **** * Summary:
  35:.\Generated_Source\PSoC5/ADC_DelSig_1_Ext_CP_Clk.c **** *  Starts the clock. Note that on startup, clocks may be already running if the
  36:.\Generated_Source\PSoC5/ADC_DelSig_1_Ext_CP_Clk.c **** *  "Start on Reset" option is enabled in the DWR.
  37:.\Generated_Source\PSoC5/ADC_DelSig_1_Ext_CP_Clk.c **** *
  38:.\Generated_Source\PSoC5/ADC_DelSig_1_Ext_CP_Clk.c **** * Parameters:
  39:.\Generated_Source\PSoC5/ADC_DelSig_1_Ext_CP_Clk.c **** *  None
  40:.\Generated_Source\PSoC5/ADC_DelSig_1_Ext_CP_Clk.c **** *
  41:.\Generated_Source\PSoC5/ADC_DelSig_1_Ext_CP_Clk.c **** * Returns:
  42:.\Generated_Source\PSoC5/ADC_DelSig_1_Ext_CP_Clk.c **** *  None
  43:.\Generated_Source\PSoC5/ADC_DelSig_1_Ext_CP_Clk.c **** *
  44:.\Generated_Source\PSoC5/ADC_DelSig_1_Ext_CP_Clk.c **** *******************************************************************************/
  45:.\Generated_Source\PSoC5/ADC_DelSig_1_Ext_CP_Clk.c **** void ADC_DelSig_1_Ext_CP_Clk_Start(void) 
  46:.\Generated_Source\PSoC5/ADC_DelSig_1_Ext_CP_Clk.c **** {
  27              		.loc 1 46 0
  28              		.cfi_startproc
  29              		@ args = 0, pretend = 0, frame = 0
  30              		@ frame_needed = 0, uses_anonymous_args = 0
  31              		@ link register save eliminated.
  47:.\Generated_Source\PSoC5/ADC_DelSig_1_Ext_CP_Clk.c ****     /* Set the bit to enable the clock. */
  48:.\Generated_Source\PSoC5/ADC_DelSig_1_Ext_CP_Clk.c ****     ADC_DelSig_1_Ext_CP_Clk_CLKEN |= ADC_DelSig_1_Ext_CP_Clk_CLKEN_MASK;
  32              		.loc 1 48 0
  33 0000 044A     		ldr	r2, .L2
  34 0002 1378     		ldrb	r3, [r2]	@ zero_extendqisi2
  35 0004 43F00103 		orr	r3, r3, #1
  36 0008 1370     		strb	r3, [r2]
  49:.\Generated_Source\PSoC5/ADC_DelSig_1_Ext_CP_Clk.c **** 	ADC_DelSig_1_Ext_CP_Clk_CLKSTBY |= ADC_DelSig_1_Ext_CP_Clk_CLKSTBY_MASK;
  37              		.loc 1 49 0
  38 000a 137C     		ldrb	r3, [r2, #16]	@ zero_extendqisi2
  39 000c 43F00103 		orr	r3, r3, #1
  40 0010 1374     		strb	r3, [r2, #16]
  41 0012 7047     		bx	lr
  42              	.L3:
  43              		.align	2
  44              	.L2:
  45 0014 A2430040 		.word	1073759138
  46              		.cfi_endproc
  47              	.LFE0:
  48              		.size	ADC_DelSig_1_Ext_CP_Clk_Start, .-ADC_DelSig_1_Ext_CP_Clk_Start
  49              		.section	.text.ADC_DelSig_1_Ext_CP_Clk_Stop,"ax",%progbits
  50              		.align	1
  51              		.global	ADC_DelSig_1_Ext_CP_Clk_Stop
  52              		.thumb
  53              		.thumb_func
  54              		.type	ADC_DelSig_1_Ext_CP_Clk_Stop, %function
  55              	ADC_DelSig_1_Ext_CP_Clk_Stop:
  56              	.LFB1:
  50:.\Generated_Source\PSoC5/ADC_DelSig_1_Ext_CP_Clk.c **** }
  51:.\Generated_Source\PSoC5/ADC_DelSig_1_Ext_CP_Clk.c **** 
  52:.\Generated_Source\PSoC5/ADC_DelSig_1_Ext_CP_Clk.c **** 
  53:.\Generated_Source\PSoC5/ADC_DelSig_1_Ext_CP_Clk.c **** /*******************************************************************************
  54:.\Generated_Source\PSoC5/ADC_DelSig_1_Ext_CP_Clk.c **** * Function Name: ADC_DelSig_1_Ext_CP_Clk_Stop
  55:.\Generated_Source\PSoC5/ADC_DelSig_1_Ext_CP_Clk.c **** ********************************************************************************
  56:.\Generated_Source\PSoC5/ADC_DelSig_1_Ext_CP_Clk.c **** *
  57:.\Generated_Source\PSoC5/ADC_DelSig_1_Ext_CP_Clk.c **** * Summary:
  58:.\Generated_Source\PSoC5/ADC_DelSig_1_Ext_CP_Clk.c **** *  Stops the clock and returns immediately. This API does not require the
ARM GAS  C:\Users\mjphi\AppData\Local\Temp\ccZQVruJ.s 			page 3


  59:.\Generated_Source\PSoC5/ADC_DelSig_1_Ext_CP_Clk.c **** *  source clock to be running but may return before the hardware is actually
  60:.\Generated_Source\PSoC5/ADC_DelSig_1_Ext_CP_Clk.c **** *  disabled. If the settings of the clock are changed after calling this
  61:.\Generated_Source\PSoC5/ADC_DelSig_1_Ext_CP_Clk.c **** *  function, the clock may glitch when it is started. To avoid the clock
  62:.\Generated_Source\PSoC5/ADC_DelSig_1_Ext_CP_Clk.c **** *  glitch, use the StopBlock function.
  63:.\Generated_Source\PSoC5/ADC_DelSig_1_Ext_CP_Clk.c **** *
  64:.\Generated_Source\PSoC5/ADC_DelSig_1_Ext_CP_Clk.c **** * Parameters:
  65:.\Generated_Source\PSoC5/ADC_DelSig_1_Ext_CP_Clk.c **** *  None
  66:.\Generated_Source\PSoC5/ADC_DelSig_1_Ext_CP_Clk.c **** *
  67:.\Generated_Source\PSoC5/ADC_DelSig_1_Ext_CP_Clk.c **** * Returns:
  68:.\Generated_Source\PSoC5/ADC_DelSig_1_Ext_CP_Clk.c **** *  None
  69:.\Generated_Source\PSoC5/ADC_DelSig_1_Ext_CP_Clk.c **** *
  70:.\Generated_Source\PSoC5/ADC_DelSig_1_Ext_CP_Clk.c **** *******************************************************************************/
  71:.\Generated_Source\PSoC5/ADC_DelSig_1_Ext_CP_Clk.c **** void ADC_DelSig_1_Ext_CP_Clk_Stop(void) 
  72:.\Generated_Source\PSoC5/ADC_DelSig_1_Ext_CP_Clk.c **** {
  57              		.loc 1 72 0
  58              		.cfi_startproc
  59              		@ args = 0, pretend = 0, frame = 0
  60              		@ frame_needed = 0, uses_anonymous_args = 0
  61              		@ link register save eliminated.
  73:.\Generated_Source\PSoC5/ADC_DelSig_1_Ext_CP_Clk.c ****     /* Clear the bit to disable the clock. */
  74:.\Generated_Source\PSoC5/ADC_DelSig_1_Ext_CP_Clk.c ****     ADC_DelSig_1_Ext_CP_Clk_CLKEN &= (uint8)(~ADC_DelSig_1_Ext_CP_Clk_CLKEN_MASK);
  62              		.loc 1 74 0
  63 0000 044A     		ldr	r2, .L5
  64 0002 1378     		ldrb	r3, [r2]	@ zero_extendqisi2
  65 0004 03F0FE03 		and	r3, r3, #254
  66 0008 1370     		strb	r3, [r2]
  75:.\Generated_Source\PSoC5/ADC_DelSig_1_Ext_CP_Clk.c **** 	ADC_DelSig_1_Ext_CP_Clk_CLKSTBY &= (uint8)(~ADC_DelSig_1_Ext_CP_Clk_CLKSTBY_MASK);
  67              		.loc 1 75 0
  68 000a 137C     		ldrb	r3, [r2, #16]	@ zero_extendqisi2
  69 000c 03F0FE03 		and	r3, r3, #254
  70 0010 1374     		strb	r3, [r2, #16]
  71 0012 7047     		bx	lr
  72              	.L6:
  73              		.align	2
  74              	.L5:
  75 0014 A2430040 		.word	1073759138
  76              		.cfi_endproc
  77              	.LFE1:
  78              		.size	ADC_DelSig_1_Ext_CP_Clk_Stop, .-ADC_DelSig_1_Ext_CP_Clk_Stop
  79              		.section	.text.ADC_DelSig_1_Ext_CP_Clk_StopBlock,"ax",%progbits
  80              		.align	1
  81              		.global	ADC_DelSig_1_Ext_CP_Clk_StopBlock
  82              		.thumb
  83              		.thumb_func
  84              		.type	ADC_DelSig_1_Ext_CP_Clk_StopBlock, %function
  85              	ADC_DelSig_1_Ext_CP_Clk_StopBlock:
  86              	.LFB2:
  76:.\Generated_Source\PSoC5/ADC_DelSig_1_Ext_CP_Clk.c **** }
  77:.\Generated_Source\PSoC5/ADC_DelSig_1_Ext_CP_Clk.c **** 
  78:.\Generated_Source\PSoC5/ADC_DelSig_1_Ext_CP_Clk.c **** 
  79:.\Generated_Source\PSoC5/ADC_DelSig_1_Ext_CP_Clk.c **** #if(CY_PSOC3 || CY_PSOC5LP)
  80:.\Generated_Source\PSoC5/ADC_DelSig_1_Ext_CP_Clk.c **** 
  81:.\Generated_Source\PSoC5/ADC_DelSig_1_Ext_CP_Clk.c **** 
  82:.\Generated_Source\PSoC5/ADC_DelSig_1_Ext_CP_Clk.c **** /*******************************************************************************
  83:.\Generated_Source\PSoC5/ADC_DelSig_1_Ext_CP_Clk.c **** * Function Name: ADC_DelSig_1_Ext_CP_Clk_StopBlock
  84:.\Generated_Source\PSoC5/ADC_DelSig_1_Ext_CP_Clk.c **** ********************************************************************************
  85:.\Generated_Source\PSoC5/ADC_DelSig_1_Ext_CP_Clk.c **** *
ARM GAS  C:\Users\mjphi\AppData\Local\Temp\ccZQVruJ.s 			page 4


  86:.\Generated_Source\PSoC5/ADC_DelSig_1_Ext_CP_Clk.c **** * Summary:
  87:.\Generated_Source\PSoC5/ADC_DelSig_1_Ext_CP_Clk.c **** *  Stops the clock and waits for the hardware to actually be disabled before
  88:.\Generated_Source\PSoC5/ADC_DelSig_1_Ext_CP_Clk.c **** *  returning. This ensures that the clock is never truncated (high part of the
  89:.\Generated_Source\PSoC5/ADC_DelSig_1_Ext_CP_Clk.c **** *  cycle will terminate before the clock is disabled and the API returns).
  90:.\Generated_Source\PSoC5/ADC_DelSig_1_Ext_CP_Clk.c **** *  Note that the source clock must be running or this API will never return as
  91:.\Generated_Source\PSoC5/ADC_DelSig_1_Ext_CP_Clk.c **** *  a stopped clock cannot be disabled.
  92:.\Generated_Source\PSoC5/ADC_DelSig_1_Ext_CP_Clk.c **** *
  93:.\Generated_Source\PSoC5/ADC_DelSig_1_Ext_CP_Clk.c **** * Parameters:
  94:.\Generated_Source\PSoC5/ADC_DelSig_1_Ext_CP_Clk.c **** *  None
  95:.\Generated_Source\PSoC5/ADC_DelSig_1_Ext_CP_Clk.c **** *
  96:.\Generated_Source\PSoC5/ADC_DelSig_1_Ext_CP_Clk.c **** * Returns:
  97:.\Generated_Source\PSoC5/ADC_DelSig_1_Ext_CP_Clk.c **** *  None
  98:.\Generated_Source\PSoC5/ADC_DelSig_1_Ext_CP_Clk.c **** *
  99:.\Generated_Source\PSoC5/ADC_DelSig_1_Ext_CP_Clk.c **** *******************************************************************************/
 100:.\Generated_Source\PSoC5/ADC_DelSig_1_Ext_CP_Clk.c **** void ADC_DelSig_1_Ext_CP_Clk_StopBlock(void) 
 101:.\Generated_Source\PSoC5/ADC_DelSig_1_Ext_CP_Clk.c **** {
  87              		.loc 1 101 0
  88              		.cfi_startproc
  89              		@ args = 0, pretend = 0, frame = 0
  90              		@ frame_needed = 0, uses_anonymous_args = 0
  91 0000 10B5     		push	{r4, lr}
  92              		.cfi_def_cfa_offset 8
  93              		.cfi_offset 4, -8
  94              		.cfi_offset 14, -4
 102:.\Generated_Source\PSoC5/ADC_DelSig_1_Ext_CP_Clk.c ****     if ((ADC_DelSig_1_Ext_CP_Clk_CLKEN & ADC_DelSig_1_Ext_CP_Clk_CLKEN_MASK) != 0u)
  95              		.loc 1 102 0
  96 0002 154B     		ldr	r3, .L15
  97 0004 1A78     		ldrb	r2, [r3]	@ zero_extendqisi2
  98 0006 D207     		lsls	r2, r2, #31
  99 0008 24D5     		bpl	.L7
 100              	.LBB10:
 103:.\Generated_Source\PSoC5/ADC_DelSig_1_Ext_CP_Clk.c ****     {
 104:.\Generated_Source\PSoC5/ADC_DelSig_1_Ext_CP_Clk.c **** #if HAS_CLKDIST_LD_DISABLE
 105:.\Generated_Source\PSoC5/ADC_DelSig_1_Ext_CP_Clk.c ****         uint16 oldDivider;
 106:.\Generated_Source\PSoC5/ADC_DelSig_1_Ext_CP_Clk.c **** 
 107:.\Generated_Source\PSoC5/ADC_DelSig_1_Ext_CP_Clk.c ****         CLK_DIST_LD = 0u;
 108:.\Generated_Source\PSoC5/ADC_DelSig_1_Ext_CP_Clk.c **** 
 109:.\Generated_Source\PSoC5/ADC_DelSig_1_Ext_CP_Clk.c ****         /* Clear all the mask bits except ours. */
 110:.\Generated_Source\PSoC5/ADC_DelSig_1_Ext_CP_Clk.c **** #if defined(ADC_DelSig_1_Ext_CP_Clk__CFG3)
 111:.\Generated_Source\PSoC5/ADC_DelSig_1_Ext_CP_Clk.c ****         CLK_DIST_AMASK = ADC_DelSig_1_Ext_CP_Clk_CLKEN_MASK;
 112:.\Generated_Source\PSoC5/ADC_DelSig_1_Ext_CP_Clk.c ****         CLK_DIST_DMASK = 0x00u;
 113:.\Generated_Source\PSoC5/ADC_DelSig_1_Ext_CP_Clk.c **** #else
 114:.\Generated_Source\PSoC5/ADC_DelSig_1_Ext_CP_Clk.c ****         CLK_DIST_DMASK = ADC_DelSig_1_Ext_CP_Clk_CLKEN_MASK;
 101              		.loc 1 114 0
 102 000a 1448     		ldr	r0, .L15+4
 107:.\Generated_Source\PSoC5/ADC_DelSig_1_Ext_CP_Clk.c **** 
 103              		.loc 1 107 0
 104 000c 144A     		ldr	r2, .L15+8
 105 000e 0021     		movs	r1, #0
 106              		.loc 1 114 0
 107 0010 0124     		movs	r4, #1
 107:.\Generated_Source\PSoC5/ADC_DelSig_1_Ext_CP_Clk.c **** 
 108              		.loc 1 107 0
 109 0012 1170     		strb	r1, [r2]
 110              		.loc 1 114 0
 111 0014 0470     		strb	r4, [r0]
 115:.\Generated_Source\PSoC5/ADC_DelSig_1_Ext_CP_Clk.c ****         CLK_DIST_AMASK = 0x00u;
ARM GAS  C:\Users\mjphi\AppData\Local\Temp\ccZQVruJ.s 			page 5


 112              		.loc 1 115 0
 113 0016 0171     		strb	r1, [r0, #4]
 116:.\Generated_Source\PSoC5/ADC_DelSig_1_Ext_CP_Clk.c **** #endif /* ADC_DelSig_1_Ext_CP_Clk__CFG3 */
 117:.\Generated_Source\PSoC5/ADC_DelSig_1_Ext_CP_Clk.c **** 
 118:.\Generated_Source\PSoC5/ADC_DelSig_1_Ext_CP_Clk.c ****         /* Clear mask of bus clock. */
 119:.\Generated_Source\PSoC5/ADC_DelSig_1_Ext_CP_Clk.c ****         CLK_DIST_BCFG2 &= (uint8)(~BCFG2_MASK);
 114              		.loc 1 119 0
 115 0018 10F8081C 		ldrb	r1, [r0, #-8]	@ zero_extendqisi2
 116 001c 01F07F01 		and	r1, r1, #127
 117 0020 00F8081C 		strb	r1, [r0, #-8]
 120:.\Generated_Source\PSoC5/ADC_DelSig_1_Ext_CP_Clk.c **** 
 121:.\Generated_Source\PSoC5/ADC_DelSig_1_Ext_CP_Clk.c ****         oldDivider = CY_GET_REG16(ADC_DelSig_1_Ext_CP_Clk_DIV_PTR);
 118              		.loc 1 121 0
 119 0024 0F49     		ldr	r1, .L15+12
 120 0026 0888     		ldrh	r0, [r1]
 121 0028 80B2     		uxth	r0, r0
 122              	.LVL0:
 122:.\Generated_Source\PSoC5/ADC_DelSig_1_Ext_CP_Clk.c ****         CY_SET_REG16(CYREG_CLKDIST_WRK0, oldDivider);
 123              		.loc 1 122 0
 124 002a 21F87E0C 		strh	r0, [r1, #-126]	@ movhi
 123:.\Generated_Source\PSoC5/ADC_DelSig_1_Ext_CP_Clk.c ****         CLK_DIST_LD = CYCLK_LD_DISABLE | CYCLK_LD_SYNC_EN | CYCLK_LD_LOAD;
 125              		.loc 1 123 0
 126 002e 0721     		movs	r1, #7
 127 0030 1170     		strb	r1, [r2]
 128              	.L9:
 124:.\Generated_Source\PSoC5/ADC_DelSig_1_Ext_CP_Clk.c **** 
 125:.\Generated_Source\PSoC5/ADC_DelSig_1_Ext_CP_Clk.c ****         /* Wait for clock to be disabled */
 126:.\Generated_Source\PSoC5/ADC_DelSig_1_Ext_CP_Clk.c ****         while ((CLK_DIST_LD & CYCLK_LD_LOAD) != 0u) { }
 129              		.loc 1 126 0 discriminator 1
 130 0032 1178     		ldrb	r1, [r2]	@ zero_extendqisi2
 131 0034 11F00101 		ands	r1, r1, #1
 132 0038 FBD1     		bne	.L9
 127:.\Generated_Source\PSoC5/ADC_DelSig_1_Ext_CP_Clk.c **** #endif /* HAS_CLKDIST_LD_DISABLE */
 128:.\Generated_Source\PSoC5/ADC_DelSig_1_Ext_CP_Clk.c **** 
 129:.\Generated_Source\PSoC5/ADC_DelSig_1_Ext_CP_Clk.c ****         /* Clear the bit to disable the clock. */
 130:.\Generated_Source\PSoC5/ADC_DelSig_1_Ext_CP_Clk.c ****         ADC_DelSig_1_Ext_CP_Clk_CLKEN &= (uint8)(~ADC_DelSig_1_Ext_CP_Clk_CLKEN_MASK);
 133              		.loc 1 130 0
 134 003a 1A78     		ldrb	r2, [r3]	@ zero_extendqisi2
 135 003c 02F0FE02 		and	r2, r2, #254
 136 0040 1A70     		strb	r2, [r3]
 131:.\Generated_Source\PSoC5/ADC_DelSig_1_Ext_CP_Clk.c ****         ADC_DelSig_1_Ext_CP_Clk_CLKSTBY &= (uint8)(~ADC_DelSig_1_Ext_CP_Clk_CLKSTBY_MASK);
 137              		.loc 1 131 0
 138 0042 094A     		ldr	r2, .L15+16
 139 0044 1378     		ldrb	r3, [r2]	@ zero_extendqisi2
 140 0046 03F0FE03 		and	r3, r3, #254
 141 004a 1370     		strb	r3, [r2]
 132:.\Generated_Source\PSoC5/ADC_DelSig_1_Ext_CP_Clk.c **** 
 133:.\Generated_Source\PSoC5/ADC_DelSig_1_Ext_CP_Clk.c **** #if HAS_CLKDIST_LD_DISABLE
 134:.\Generated_Source\PSoC5/ADC_DelSig_1_Ext_CP_Clk.c ****         /* Clear the disable bit */
 135:.\Generated_Source\PSoC5/ADC_DelSig_1_Ext_CP_Clk.c ****         CLK_DIST_LD = 0x00u;
 142              		.loc 1 135 0
 143 004c 044B     		ldr	r3, .L15+8
 144 004e 1970     		strb	r1, [r3]
 136:.\Generated_Source\PSoC5/ADC_DelSig_1_Ext_CP_Clk.c ****         CY_SET_REG16(ADC_DelSig_1_Ext_CP_Clk_DIV_PTR, oldDivider);
 145              		.loc 1 136 0
 146 0050 A3F87F00 		strh	r0, [r3, #127]	@ movhi
 147              	.LVL1:
ARM GAS  C:\Users\mjphi\AppData\Local\Temp\ccZQVruJ.s 			page 6


 148              	.L7:
 149 0054 10BD     		pop	{r4, pc}
 150              	.L16:
 151 0056 00BF     		.align	2
 152              	.L15:
 153 0058 A2430040 		.word	1073759138
 154 005c 10400040 		.word	1073758224
 155 0060 01400040 		.word	1073758209
 156 0064 80400040 		.word	1073758336
 157 0068 B2430040 		.word	1073759154
 158              	.LBE10:
 159              		.cfi_endproc
 160              	.LFE2:
 161              		.size	ADC_DelSig_1_Ext_CP_Clk_StopBlock, .-ADC_DelSig_1_Ext_CP_Clk_StopBlock
 162              		.section	.text.ADC_DelSig_1_Ext_CP_Clk_StandbyPower,"ax",%progbits
 163              		.align	1
 164              		.global	ADC_DelSig_1_Ext_CP_Clk_StandbyPower
 165              		.thumb
 166              		.thumb_func
 167              		.type	ADC_DelSig_1_Ext_CP_Clk_StandbyPower, %function
 168              	ADC_DelSig_1_Ext_CP_Clk_StandbyPower:
 169              	.LFB3:
 137:.\Generated_Source\PSoC5/ADC_DelSig_1_Ext_CP_Clk.c **** #endif /* HAS_CLKDIST_LD_DISABLE */
 138:.\Generated_Source\PSoC5/ADC_DelSig_1_Ext_CP_Clk.c ****     }
 139:.\Generated_Source\PSoC5/ADC_DelSig_1_Ext_CP_Clk.c **** }
 140:.\Generated_Source\PSoC5/ADC_DelSig_1_Ext_CP_Clk.c **** #endif /* (CY_PSOC3 || CY_PSOC5LP) */
 141:.\Generated_Source\PSoC5/ADC_DelSig_1_Ext_CP_Clk.c **** 
 142:.\Generated_Source\PSoC5/ADC_DelSig_1_Ext_CP_Clk.c **** 
 143:.\Generated_Source\PSoC5/ADC_DelSig_1_Ext_CP_Clk.c **** /*******************************************************************************
 144:.\Generated_Source\PSoC5/ADC_DelSig_1_Ext_CP_Clk.c **** * Function Name: ADC_DelSig_1_Ext_CP_Clk_StandbyPower
 145:.\Generated_Source\PSoC5/ADC_DelSig_1_Ext_CP_Clk.c **** ********************************************************************************
 146:.\Generated_Source\PSoC5/ADC_DelSig_1_Ext_CP_Clk.c **** *
 147:.\Generated_Source\PSoC5/ADC_DelSig_1_Ext_CP_Clk.c **** * Summary:
 148:.\Generated_Source\PSoC5/ADC_DelSig_1_Ext_CP_Clk.c **** *  Sets whether the clock is active in standby mode.
 149:.\Generated_Source\PSoC5/ADC_DelSig_1_Ext_CP_Clk.c **** *
 150:.\Generated_Source\PSoC5/ADC_DelSig_1_Ext_CP_Clk.c **** * Parameters:
 151:.\Generated_Source\PSoC5/ADC_DelSig_1_Ext_CP_Clk.c **** *  state:  0 to disable clock during standby, nonzero to enable.
 152:.\Generated_Source\PSoC5/ADC_DelSig_1_Ext_CP_Clk.c **** *
 153:.\Generated_Source\PSoC5/ADC_DelSig_1_Ext_CP_Clk.c **** * Returns:
 154:.\Generated_Source\PSoC5/ADC_DelSig_1_Ext_CP_Clk.c **** *  None
 155:.\Generated_Source\PSoC5/ADC_DelSig_1_Ext_CP_Clk.c **** *
 156:.\Generated_Source\PSoC5/ADC_DelSig_1_Ext_CP_Clk.c **** *******************************************************************************/
 157:.\Generated_Source\PSoC5/ADC_DelSig_1_Ext_CP_Clk.c **** void ADC_DelSig_1_Ext_CP_Clk_StandbyPower(uint8 state) 
 158:.\Generated_Source\PSoC5/ADC_DelSig_1_Ext_CP_Clk.c **** {
 170              		.loc 1 158 0
 171              		.cfi_startproc
 172              		@ args = 0, pretend = 0, frame = 0
 173              		@ frame_needed = 0, uses_anonymous_args = 0
 174              		@ link register save eliminated.
 175              	.LVL2:
 176 0000 044B     		ldr	r3, .L21
 159:.\Generated_Source\PSoC5/ADC_DelSig_1_Ext_CP_Clk.c ****     if(state == 0u)
 160:.\Generated_Source\PSoC5/ADC_DelSig_1_Ext_CP_Clk.c ****     {
 161:.\Generated_Source\PSoC5/ADC_DelSig_1_Ext_CP_Clk.c ****         ADC_DelSig_1_Ext_CP_Clk_CLKSTBY &= (uint8)(~ADC_DelSig_1_Ext_CP_Clk_CLKSTBY_MASK);
 177              		.loc 1 161 0
 178 0002 1A78     		ldrb	r2, [r3]	@ zero_extendqisi2
 159:.\Generated_Source\PSoC5/ADC_DelSig_1_Ext_CP_Clk.c ****     if(state == 0u)
ARM GAS  C:\Users\mjphi\AppData\Local\Temp\ccZQVruJ.s 			page 7


 179              		.loc 1 159 0
 180 0004 10B9     		cbnz	r0, .L18
 181              		.loc 1 161 0
 182 0006 02F0FE02 		and	r2, r2, #254
 183 000a 01E0     		b	.L20
 184              	.L18:
 162:.\Generated_Source\PSoC5/ADC_DelSig_1_Ext_CP_Clk.c ****     }
 163:.\Generated_Source\PSoC5/ADC_DelSig_1_Ext_CP_Clk.c ****     else
 164:.\Generated_Source\PSoC5/ADC_DelSig_1_Ext_CP_Clk.c ****     {
 165:.\Generated_Source\PSoC5/ADC_DelSig_1_Ext_CP_Clk.c ****         ADC_DelSig_1_Ext_CP_Clk_CLKSTBY |= ADC_DelSig_1_Ext_CP_Clk_CLKSTBY_MASK;
 185              		.loc 1 165 0
 186 000c 42F00102 		orr	r2, r2, #1
 187              	.L20:
 188 0010 1A70     		strb	r2, [r3]
 189 0012 7047     		bx	lr
 190              	.L22:
 191              		.align	2
 192              	.L21:
 193 0014 B2430040 		.word	1073759154
 194              		.cfi_endproc
 195              	.LFE3:
 196              		.size	ADC_DelSig_1_Ext_CP_Clk_StandbyPower, .-ADC_DelSig_1_Ext_CP_Clk_StandbyPower
 197              		.section	.text.ADC_DelSig_1_Ext_CP_Clk_SetDividerRegister,"ax",%progbits
 198              		.align	1
 199              		.global	ADC_DelSig_1_Ext_CP_Clk_SetDividerRegister
 200              		.thumb
 201              		.thumb_func
 202              		.type	ADC_DelSig_1_Ext_CP_Clk_SetDividerRegister, %function
 203              	ADC_DelSig_1_Ext_CP_Clk_SetDividerRegister:
 204              	.LFB4:
 166:.\Generated_Source\PSoC5/ADC_DelSig_1_Ext_CP_Clk.c ****     }
 167:.\Generated_Source\PSoC5/ADC_DelSig_1_Ext_CP_Clk.c **** }
 168:.\Generated_Source\PSoC5/ADC_DelSig_1_Ext_CP_Clk.c **** 
 169:.\Generated_Source\PSoC5/ADC_DelSig_1_Ext_CP_Clk.c **** 
 170:.\Generated_Source\PSoC5/ADC_DelSig_1_Ext_CP_Clk.c **** /*******************************************************************************
 171:.\Generated_Source\PSoC5/ADC_DelSig_1_Ext_CP_Clk.c **** * Function Name: ADC_DelSig_1_Ext_CP_Clk_SetDividerRegister
 172:.\Generated_Source\PSoC5/ADC_DelSig_1_Ext_CP_Clk.c **** ********************************************************************************
 173:.\Generated_Source\PSoC5/ADC_DelSig_1_Ext_CP_Clk.c **** *
 174:.\Generated_Source\PSoC5/ADC_DelSig_1_Ext_CP_Clk.c **** * Summary:
 175:.\Generated_Source\PSoC5/ADC_DelSig_1_Ext_CP_Clk.c **** *  Modifies the clock divider and, thus, the frequency. When the clock divider
 176:.\Generated_Source\PSoC5/ADC_DelSig_1_Ext_CP_Clk.c **** *  register is set to zero or changed from zero, the clock will be temporarily
 177:.\Generated_Source\PSoC5/ADC_DelSig_1_Ext_CP_Clk.c **** *  disabled in order to change the SSS mode bit. If the clock is enabled when
 178:.\Generated_Source\PSoC5/ADC_DelSig_1_Ext_CP_Clk.c **** *  SetDividerRegister is called, then the source clock must be running.
 179:.\Generated_Source\PSoC5/ADC_DelSig_1_Ext_CP_Clk.c **** *
 180:.\Generated_Source\PSoC5/ADC_DelSig_1_Ext_CP_Clk.c **** * Parameters:
 181:.\Generated_Source\PSoC5/ADC_DelSig_1_Ext_CP_Clk.c **** *  clkDivider:  Divider register value (0-65,535). This value is NOT the
 182:.\Generated_Source\PSoC5/ADC_DelSig_1_Ext_CP_Clk.c **** *    divider; the clock hardware divides by clkDivider plus one. For example,
 183:.\Generated_Source\PSoC5/ADC_DelSig_1_Ext_CP_Clk.c **** *    to divide the clock by 2, this parameter should be set to 1.
 184:.\Generated_Source\PSoC5/ADC_DelSig_1_Ext_CP_Clk.c **** *  restart:  If nonzero, restarts the clock divider: the current clock cycle
 185:.\Generated_Source\PSoC5/ADC_DelSig_1_Ext_CP_Clk.c **** *   will be truncated and the new divide value will take effect immediately. If
 186:.\Generated_Source\PSoC5/ADC_DelSig_1_Ext_CP_Clk.c **** *   zero, the new divide value will take effect at the end of the current clock
 187:.\Generated_Source\PSoC5/ADC_DelSig_1_Ext_CP_Clk.c **** *   cycle.
 188:.\Generated_Source\PSoC5/ADC_DelSig_1_Ext_CP_Clk.c **** *
 189:.\Generated_Source\PSoC5/ADC_DelSig_1_Ext_CP_Clk.c **** * Returns:
 190:.\Generated_Source\PSoC5/ADC_DelSig_1_Ext_CP_Clk.c **** *  None
 191:.\Generated_Source\PSoC5/ADC_DelSig_1_Ext_CP_Clk.c **** *
 192:.\Generated_Source\PSoC5/ADC_DelSig_1_Ext_CP_Clk.c **** *******************************************************************************/
ARM GAS  C:\Users\mjphi\AppData\Local\Temp\ccZQVruJ.s 			page 8


 193:.\Generated_Source\PSoC5/ADC_DelSig_1_Ext_CP_Clk.c **** void ADC_DelSig_1_Ext_CP_Clk_SetDividerRegister(uint16 clkDivider, uint8 restart)
 194:.\Generated_Source\PSoC5/ADC_DelSig_1_Ext_CP_Clk.c ****                                 
 195:.\Generated_Source\PSoC5/ADC_DelSig_1_Ext_CP_Clk.c **** {
 205              		.loc 1 195 0
 206              		.cfi_startproc
 207              		@ args = 0, pretend = 0, frame = 0
 208              		@ frame_needed = 0, uses_anonymous_args = 0
 209              	.LVL3:
 210 0000 F0B5     		push	{r4, r5, r6, r7, lr}
 211              		.cfi_def_cfa_offset 20
 212              		.cfi_offset 4, -20
 213              		.cfi_offset 5, -16
 214              		.cfi_offset 6, -12
 215              		.cfi_offset 7, -8
 216              		.cfi_offset 14, -4
 217              	.LBB11:
 218              	.LBB12:
 196:.\Generated_Source\PSoC5/ADC_DelSig_1_Ext_CP_Clk.c ****     uint8 enabled;
 197:.\Generated_Source\PSoC5/ADC_DelSig_1_Ext_CP_Clk.c **** 
 198:.\Generated_Source\PSoC5/ADC_DelSig_1_Ext_CP_Clk.c ****     uint8 currSrc = ADC_DelSig_1_Ext_CP_Clk_GetSourceRegister();
 199:.\Generated_Source\PSoC5/ADC_DelSig_1_Ext_CP_Clk.c ****     uint16 oldDivider = ADC_DelSig_1_Ext_CP_Clk_GetDividerRegister();
 200:.\Generated_Source\PSoC5/ADC_DelSig_1_Ext_CP_Clk.c **** 
 201:.\Generated_Source\PSoC5/ADC_DelSig_1_Ext_CP_Clk.c ****     if (clkDivider != oldDivider)
 202:.\Generated_Source\PSoC5/ADC_DelSig_1_Ext_CP_Clk.c ****     {
 203:.\Generated_Source\PSoC5/ADC_DelSig_1_Ext_CP_Clk.c ****         enabled = ADC_DelSig_1_Ext_CP_Clk_CLKEN & ADC_DelSig_1_Ext_CP_Clk_CLKEN_MASK;
 204:.\Generated_Source\PSoC5/ADC_DelSig_1_Ext_CP_Clk.c **** 
 205:.\Generated_Source\PSoC5/ADC_DelSig_1_Ext_CP_Clk.c ****         if ((currSrc == (uint8)CYCLK_SRC_SEL_CLK_SYNC_D) && ((oldDivider == 0u) || (clkDivider == 0
 206:.\Generated_Source\PSoC5/ADC_DelSig_1_Ext_CP_Clk.c ****         {
 207:.\Generated_Source\PSoC5/ADC_DelSig_1_Ext_CP_Clk.c ****             /* Moving to/from SSS requires correct ordering to prevent halting the clock    */
 208:.\Generated_Source\PSoC5/ADC_DelSig_1_Ext_CP_Clk.c ****             if (oldDivider == 0u)
 209:.\Generated_Source\PSoC5/ADC_DelSig_1_Ext_CP_Clk.c ****             {
 210:.\Generated_Source\PSoC5/ADC_DelSig_1_Ext_CP_Clk.c ****                 /* Moving away from SSS, set the divider first so when SSS is cleared we    */
 211:.\Generated_Source\PSoC5/ADC_DelSig_1_Ext_CP_Clk.c ****                 /* don't halt the clock.  Using the shadow load isn't required as the       */
 212:.\Generated_Source\PSoC5/ADC_DelSig_1_Ext_CP_Clk.c ****                 /* divider is ignored while SSS is set.                                     */
 213:.\Generated_Source\PSoC5/ADC_DelSig_1_Ext_CP_Clk.c ****                 CY_SET_REG16(ADC_DelSig_1_Ext_CP_Clk_DIV_PTR, clkDivider);
 214:.\Generated_Source\PSoC5/ADC_DelSig_1_Ext_CP_Clk.c ****                 ADC_DelSig_1_Ext_CP_Clk_MOD_SRC &= (uint8)(~CYCLK_SSS);
 215:.\Generated_Source\PSoC5/ADC_DelSig_1_Ext_CP_Clk.c ****             }
 216:.\Generated_Source\PSoC5/ADC_DelSig_1_Ext_CP_Clk.c ****             else
 217:.\Generated_Source\PSoC5/ADC_DelSig_1_Ext_CP_Clk.c ****             {
 218:.\Generated_Source\PSoC5/ADC_DelSig_1_Ext_CP_Clk.c ****                 /* Moving to SSS, set SSS which then ignores the divider and we can set     */
 219:.\Generated_Source\PSoC5/ADC_DelSig_1_Ext_CP_Clk.c ****                 /* it without bothering with the shadow load.                               */
 220:.\Generated_Source\PSoC5/ADC_DelSig_1_Ext_CP_Clk.c ****                 ADC_DelSig_1_Ext_CP_Clk_MOD_SRC |= CYCLK_SSS;
 221:.\Generated_Source\PSoC5/ADC_DelSig_1_Ext_CP_Clk.c ****                 CY_SET_REG16(ADC_DelSig_1_Ext_CP_Clk_DIV_PTR, clkDivider);
 222:.\Generated_Source\PSoC5/ADC_DelSig_1_Ext_CP_Clk.c ****             }
 223:.\Generated_Source\PSoC5/ADC_DelSig_1_Ext_CP_Clk.c ****         }
 224:.\Generated_Source\PSoC5/ADC_DelSig_1_Ext_CP_Clk.c ****         else
 225:.\Generated_Source\PSoC5/ADC_DelSig_1_Ext_CP_Clk.c ****         {
 226:.\Generated_Source\PSoC5/ADC_DelSig_1_Ext_CP_Clk.c **** 			
 227:.\Generated_Source\PSoC5/ADC_DelSig_1_Ext_CP_Clk.c ****             if (enabled != 0u)
 228:.\Generated_Source\PSoC5/ADC_DelSig_1_Ext_CP_Clk.c ****             {
 229:.\Generated_Source\PSoC5/ADC_DelSig_1_Ext_CP_Clk.c ****                 CLK_DIST_LD = 0x00u;
 230:.\Generated_Source\PSoC5/ADC_DelSig_1_Ext_CP_Clk.c **** 
 231:.\Generated_Source\PSoC5/ADC_DelSig_1_Ext_CP_Clk.c ****                 /* Clear all the mask bits except ours. */
 232:.\Generated_Source\PSoC5/ADC_DelSig_1_Ext_CP_Clk.c **** #if defined(ADC_DelSig_1_Ext_CP_Clk__CFG3)
 233:.\Generated_Source\PSoC5/ADC_DelSig_1_Ext_CP_Clk.c ****                 CLK_DIST_AMASK = ADC_DelSig_1_Ext_CP_Clk_CLKEN_MASK;
 234:.\Generated_Source\PSoC5/ADC_DelSig_1_Ext_CP_Clk.c ****                 CLK_DIST_DMASK = 0x00u;
 235:.\Generated_Source\PSoC5/ADC_DelSig_1_Ext_CP_Clk.c **** #else
ARM GAS  C:\Users\mjphi\AppData\Local\Temp\ccZQVruJ.s 			page 9


 236:.\Generated_Source\PSoC5/ADC_DelSig_1_Ext_CP_Clk.c ****                 CLK_DIST_DMASK = ADC_DelSig_1_Ext_CP_Clk_CLKEN_MASK;
 237:.\Generated_Source\PSoC5/ADC_DelSig_1_Ext_CP_Clk.c ****                 CLK_DIST_AMASK = 0x00u;
 238:.\Generated_Source\PSoC5/ADC_DelSig_1_Ext_CP_Clk.c **** #endif /* ADC_DelSig_1_Ext_CP_Clk__CFG3 */
 239:.\Generated_Source\PSoC5/ADC_DelSig_1_Ext_CP_Clk.c ****                 /* Clear mask of bus clock. */
 240:.\Generated_Source\PSoC5/ADC_DelSig_1_Ext_CP_Clk.c ****                 CLK_DIST_BCFG2 &= (uint8)(~BCFG2_MASK);
 241:.\Generated_Source\PSoC5/ADC_DelSig_1_Ext_CP_Clk.c **** 
 242:.\Generated_Source\PSoC5/ADC_DelSig_1_Ext_CP_Clk.c ****                 /* If clock is currently enabled, disable it if async or going from N-to-1*/
 243:.\Generated_Source\PSoC5/ADC_DelSig_1_Ext_CP_Clk.c ****                 if (((ADC_DelSig_1_Ext_CP_Clk_MOD_SRC & CYCLK_SYNC) == 0u) || (clkDivider == 0u))
 244:.\Generated_Source\PSoC5/ADC_DelSig_1_Ext_CP_Clk.c ****                 {
 245:.\Generated_Source\PSoC5/ADC_DelSig_1_Ext_CP_Clk.c **** #if HAS_CLKDIST_LD_DISABLE
 246:.\Generated_Source\PSoC5/ADC_DelSig_1_Ext_CP_Clk.c ****                     CY_SET_REG16(CYREG_CLKDIST_WRK0, oldDivider);
 247:.\Generated_Source\PSoC5/ADC_DelSig_1_Ext_CP_Clk.c ****                     CLK_DIST_LD = CYCLK_LD_DISABLE|CYCLK_LD_SYNC_EN|CYCLK_LD_LOAD;
 248:.\Generated_Source\PSoC5/ADC_DelSig_1_Ext_CP_Clk.c **** 
 249:.\Generated_Source\PSoC5/ADC_DelSig_1_Ext_CP_Clk.c ****                     /* Wait for clock to be disabled */
 250:.\Generated_Source\PSoC5/ADC_DelSig_1_Ext_CP_Clk.c ****                     while ((CLK_DIST_LD & CYCLK_LD_LOAD) != 0u) { }
 251:.\Generated_Source\PSoC5/ADC_DelSig_1_Ext_CP_Clk.c **** #endif /* HAS_CLKDIST_LD_DISABLE */
 252:.\Generated_Source\PSoC5/ADC_DelSig_1_Ext_CP_Clk.c **** 
 253:.\Generated_Source\PSoC5/ADC_DelSig_1_Ext_CP_Clk.c ****                     ADC_DelSig_1_Ext_CP_Clk_CLKEN &= (uint8)(~ADC_DelSig_1_Ext_CP_Clk_CLKEN_MASK);
 254:.\Generated_Source\PSoC5/ADC_DelSig_1_Ext_CP_Clk.c **** 
 255:.\Generated_Source\PSoC5/ADC_DelSig_1_Ext_CP_Clk.c **** #if HAS_CLKDIST_LD_DISABLE
 256:.\Generated_Source\PSoC5/ADC_DelSig_1_Ext_CP_Clk.c ****                     /* Clear the disable bit */
 257:.\Generated_Source\PSoC5/ADC_DelSig_1_Ext_CP_Clk.c ****                     CLK_DIST_LD = 0x00u;
 258:.\Generated_Source\PSoC5/ADC_DelSig_1_Ext_CP_Clk.c **** #endif /* HAS_CLKDIST_LD_DISABLE */
 259:.\Generated_Source\PSoC5/ADC_DelSig_1_Ext_CP_Clk.c ****                 }
 260:.\Generated_Source\PSoC5/ADC_DelSig_1_Ext_CP_Clk.c ****             }
 261:.\Generated_Source\PSoC5/ADC_DelSig_1_Ext_CP_Clk.c **** 
 262:.\Generated_Source\PSoC5/ADC_DelSig_1_Ext_CP_Clk.c ****             /* Load divide value. */
 263:.\Generated_Source\PSoC5/ADC_DelSig_1_Ext_CP_Clk.c ****             if ((ADC_DelSig_1_Ext_CP_Clk_CLKEN & ADC_DelSig_1_Ext_CP_Clk_CLKEN_MASK) != 0u)
 264:.\Generated_Source\PSoC5/ADC_DelSig_1_Ext_CP_Clk.c ****             {
 265:.\Generated_Source\PSoC5/ADC_DelSig_1_Ext_CP_Clk.c ****                 /* If the clock is still enabled, use the shadow registers */
 266:.\Generated_Source\PSoC5/ADC_DelSig_1_Ext_CP_Clk.c ****                 CY_SET_REG16(CYREG_CLKDIST_WRK0, clkDivider);
 267:.\Generated_Source\PSoC5/ADC_DelSig_1_Ext_CP_Clk.c **** 
 268:.\Generated_Source\PSoC5/ADC_DelSig_1_Ext_CP_Clk.c ****                 CLK_DIST_LD = (CYCLK_LD_LOAD | ((restart != 0u) ? CYCLK_LD_SYNC_EN : 0x00u));
 269:.\Generated_Source\PSoC5/ADC_DelSig_1_Ext_CP_Clk.c ****                 while ((CLK_DIST_LD & CYCLK_LD_LOAD) != 0u) { }
 270:.\Generated_Source\PSoC5/ADC_DelSig_1_Ext_CP_Clk.c ****             }
 271:.\Generated_Source\PSoC5/ADC_DelSig_1_Ext_CP_Clk.c ****             else
 272:.\Generated_Source\PSoC5/ADC_DelSig_1_Ext_CP_Clk.c ****             {
 273:.\Generated_Source\PSoC5/ADC_DelSig_1_Ext_CP_Clk.c ****                 /* If the clock is disabled, set the divider directly */
 274:.\Generated_Source\PSoC5/ADC_DelSig_1_Ext_CP_Clk.c ****                 CY_SET_REG16(ADC_DelSig_1_Ext_CP_Clk_DIV_PTR, clkDivider);
 275:.\Generated_Source\PSoC5/ADC_DelSig_1_Ext_CP_Clk.c **** 				ADC_DelSig_1_Ext_CP_Clk_CLKEN |= enabled;
 276:.\Generated_Source\PSoC5/ADC_DelSig_1_Ext_CP_Clk.c ****             }
 277:.\Generated_Source\PSoC5/ADC_DelSig_1_Ext_CP_Clk.c ****         }
 278:.\Generated_Source\PSoC5/ADC_DelSig_1_Ext_CP_Clk.c ****     }
 279:.\Generated_Source\PSoC5/ADC_DelSig_1_Ext_CP_Clk.c **** }
 280:.\Generated_Source\PSoC5/ADC_DelSig_1_Ext_CP_Clk.c **** 
 281:.\Generated_Source\PSoC5/ADC_DelSig_1_Ext_CP_Clk.c **** 
 282:.\Generated_Source\PSoC5/ADC_DelSig_1_Ext_CP_Clk.c **** /*******************************************************************************
 283:.\Generated_Source\PSoC5/ADC_DelSig_1_Ext_CP_Clk.c **** * Function Name: ADC_DelSig_1_Ext_CP_Clk_GetDividerRegister
 284:.\Generated_Source\PSoC5/ADC_DelSig_1_Ext_CP_Clk.c **** ********************************************************************************
 285:.\Generated_Source\PSoC5/ADC_DelSig_1_Ext_CP_Clk.c **** *
 286:.\Generated_Source\PSoC5/ADC_DelSig_1_Ext_CP_Clk.c **** * Summary:
 287:.\Generated_Source\PSoC5/ADC_DelSig_1_Ext_CP_Clk.c **** *  Gets the clock divider register value.
 288:.\Generated_Source\PSoC5/ADC_DelSig_1_Ext_CP_Clk.c **** *
 289:.\Generated_Source\PSoC5/ADC_DelSig_1_Ext_CP_Clk.c **** * Parameters:
 290:.\Generated_Source\PSoC5/ADC_DelSig_1_Ext_CP_Clk.c **** *  None
 291:.\Generated_Source\PSoC5/ADC_DelSig_1_Ext_CP_Clk.c **** *
 292:.\Generated_Source\PSoC5/ADC_DelSig_1_Ext_CP_Clk.c **** * Returns:
ARM GAS  C:\Users\mjphi\AppData\Local\Temp\ccZQVruJ.s 			page 10


 293:.\Generated_Source\PSoC5/ADC_DelSig_1_Ext_CP_Clk.c **** *  Divide value of the clock minus 1. For example, if the clock is set to
 294:.\Generated_Source\PSoC5/ADC_DelSig_1_Ext_CP_Clk.c **** *  divide by 2, the return value will be 1.
 295:.\Generated_Source\PSoC5/ADC_DelSig_1_Ext_CP_Clk.c **** *
 296:.\Generated_Source\PSoC5/ADC_DelSig_1_Ext_CP_Clk.c **** *******************************************************************************/
 297:.\Generated_Source\PSoC5/ADC_DelSig_1_Ext_CP_Clk.c **** uint16 ADC_DelSig_1_Ext_CP_Clk_GetDividerRegister(void) 
 298:.\Generated_Source\PSoC5/ADC_DelSig_1_Ext_CP_Clk.c **** {
 299:.\Generated_Source\PSoC5/ADC_DelSig_1_Ext_CP_Clk.c ****     return CY_GET_REG16(ADC_DelSig_1_Ext_CP_Clk_DIV_PTR);
 300:.\Generated_Source\PSoC5/ADC_DelSig_1_Ext_CP_Clk.c **** }
 301:.\Generated_Source\PSoC5/ADC_DelSig_1_Ext_CP_Clk.c **** 
 302:.\Generated_Source\PSoC5/ADC_DelSig_1_Ext_CP_Clk.c **** 
 303:.\Generated_Source\PSoC5/ADC_DelSig_1_Ext_CP_Clk.c **** /*******************************************************************************
 304:.\Generated_Source\PSoC5/ADC_DelSig_1_Ext_CP_Clk.c **** * Function Name: ADC_DelSig_1_Ext_CP_Clk_SetModeRegister
 305:.\Generated_Source\PSoC5/ADC_DelSig_1_Ext_CP_Clk.c **** ********************************************************************************
 306:.\Generated_Source\PSoC5/ADC_DelSig_1_Ext_CP_Clk.c **** *
 307:.\Generated_Source\PSoC5/ADC_DelSig_1_Ext_CP_Clk.c **** * Summary:
 308:.\Generated_Source\PSoC5/ADC_DelSig_1_Ext_CP_Clk.c **** *  Sets flags that control the operating mode of the clock. This function only
 309:.\Generated_Source\PSoC5/ADC_DelSig_1_Ext_CP_Clk.c **** *  changes flags from 0 to 1; flags that are already 1 will remain unchanged.
 310:.\Generated_Source\PSoC5/ADC_DelSig_1_Ext_CP_Clk.c **** *  To clear flags, use the ClearModeRegister function. The clock must be
 311:.\Generated_Source\PSoC5/ADC_DelSig_1_Ext_CP_Clk.c **** *  disabled before changing the mode.
 312:.\Generated_Source\PSoC5/ADC_DelSig_1_Ext_CP_Clk.c **** *
 313:.\Generated_Source\PSoC5/ADC_DelSig_1_Ext_CP_Clk.c **** * Parameters:
 314:.\Generated_Source\PSoC5/ADC_DelSig_1_Ext_CP_Clk.c **** *  clkMode: Bit mask containing the bits to set. For PSoC 3 and PSoC 5,
 315:.\Generated_Source\PSoC5/ADC_DelSig_1_Ext_CP_Clk.c **** *   clkMode should be a set of the following optional bits or'ed together.
 316:.\Generated_Source\PSoC5/ADC_DelSig_1_Ext_CP_Clk.c **** *   - CYCLK_EARLY Enable early phase mode. Rising edge of output clock will
 317:.\Generated_Source\PSoC5/ADC_DelSig_1_Ext_CP_Clk.c **** *                 occur when the divider count reaches half of the divide
 318:.\Generated_Source\PSoC5/ADC_DelSig_1_Ext_CP_Clk.c **** *                 value.
 319:.\Generated_Source\PSoC5/ADC_DelSig_1_Ext_CP_Clk.c **** *   - CYCLK_DUTY  Enable 50% duty cycle output. When enabled, the output clock
 320:.\Generated_Source\PSoC5/ADC_DelSig_1_Ext_CP_Clk.c **** *                 is asserted for approximately half of its period. When
 321:.\Generated_Source\PSoC5/ADC_DelSig_1_Ext_CP_Clk.c **** *                 disabled, the output clock is asserted for one period of the
 322:.\Generated_Source\PSoC5/ADC_DelSig_1_Ext_CP_Clk.c **** *                 source clock.
 323:.\Generated_Source\PSoC5/ADC_DelSig_1_Ext_CP_Clk.c **** *   - CYCLK_SYNC  Enable output synchronization to master clock. This should
 324:.\Generated_Source\PSoC5/ADC_DelSig_1_Ext_CP_Clk.c **** *                 be enabled for all synchronous clocks.
 325:.\Generated_Source\PSoC5/ADC_DelSig_1_Ext_CP_Clk.c **** *   See the Technical Reference Manual for details about setting the mode of
 326:.\Generated_Source\PSoC5/ADC_DelSig_1_Ext_CP_Clk.c **** *   the clock. Specifically, see the CLKDIST.DCFG.CFG2 register.
 327:.\Generated_Source\PSoC5/ADC_DelSig_1_Ext_CP_Clk.c **** *
 328:.\Generated_Source\PSoC5/ADC_DelSig_1_Ext_CP_Clk.c **** * Returns:
 329:.\Generated_Source\PSoC5/ADC_DelSig_1_Ext_CP_Clk.c **** *  None
 330:.\Generated_Source\PSoC5/ADC_DelSig_1_Ext_CP_Clk.c **** *
 331:.\Generated_Source\PSoC5/ADC_DelSig_1_Ext_CP_Clk.c **** *******************************************************************************/
 332:.\Generated_Source\PSoC5/ADC_DelSig_1_Ext_CP_Clk.c **** void ADC_DelSig_1_Ext_CP_Clk_SetModeRegister(uint8 modeBitMask) 
 333:.\Generated_Source\PSoC5/ADC_DelSig_1_Ext_CP_Clk.c **** {
 334:.\Generated_Source\PSoC5/ADC_DelSig_1_Ext_CP_Clk.c ****     ADC_DelSig_1_Ext_CP_Clk_MOD_SRC |= modeBitMask & (uint8)ADC_DelSig_1_Ext_CP_Clk_MODE_MASK;
 335:.\Generated_Source\PSoC5/ADC_DelSig_1_Ext_CP_Clk.c **** }
 336:.\Generated_Source\PSoC5/ADC_DelSig_1_Ext_CP_Clk.c **** 
 337:.\Generated_Source\PSoC5/ADC_DelSig_1_Ext_CP_Clk.c **** 
 338:.\Generated_Source\PSoC5/ADC_DelSig_1_Ext_CP_Clk.c **** /*******************************************************************************
 339:.\Generated_Source\PSoC5/ADC_DelSig_1_Ext_CP_Clk.c **** * Function Name: ADC_DelSig_1_Ext_CP_Clk_ClearModeRegister
 340:.\Generated_Source\PSoC5/ADC_DelSig_1_Ext_CP_Clk.c **** ********************************************************************************
 341:.\Generated_Source\PSoC5/ADC_DelSig_1_Ext_CP_Clk.c **** *
 342:.\Generated_Source\PSoC5/ADC_DelSig_1_Ext_CP_Clk.c **** * Summary:
 343:.\Generated_Source\PSoC5/ADC_DelSig_1_Ext_CP_Clk.c **** *  Clears flags that control the operating mode of the clock. This function
 344:.\Generated_Source\PSoC5/ADC_DelSig_1_Ext_CP_Clk.c **** *  only changes flags from 1 to 0; flags that are already 0 will remain
 345:.\Generated_Source\PSoC5/ADC_DelSig_1_Ext_CP_Clk.c **** *  unchanged. To set flags, use the SetModeRegister function. The clock must be
 346:.\Generated_Source\PSoC5/ADC_DelSig_1_Ext_CP_Clk.c **** *  disabled before changing the mode.
 347:.\Generated_Source\PSoC5/ADC_DelSig_1_Ext_CP_Clk.c **** *
 348:.\Generated_Source\PSoC5/ADC_DelSig_1_Ext_CP_Clk.c **** * Parameters:
 349:.\Generated_Source\PSoC5/ADC_DelSig_1_Ext_CP_Clk.c **** *  clkMode: Bit mask containing the bits to clear. For PSoC 3 and PSoC 5,
ARM GAS  C:\Users\mjphi\AppData\Local\Temp\ccZQVruJ.s 			page 11


 350:.\Generated_Source\PSoC5/ADC_DelSig_1_Ext_CP_Clk.c **** *   clkMode should be a set of the following optional bits or'ed together.
 351:.\Generated_Source\PSoC5/ADC_DelSig_1_Ext_CP_Clk.c **** *   - CYCLK_EARLY Enable early phase mode. Rising edge of output clock will
 352:.\Generated_Source\PSoC5/ADC_DelSig_1_Ext_CP_Clk.c **** *                 occur when the divider count reaches half of the divide
 353:.\Generated_Source\PSoC5/ADC_DelSig_1_Ext_CP_Clk.c **** *                 value.
 354:.\Generated_Source\PSoC5/ADC_DelSig_1_Ext_CP_Clk.c **** *   - CYCLK_DUTY  Enable 50% duty cycle output. When enabled, the output clock
 355:.\Generated_Source\PSoC5/ADC_DelSig_1_Ext_CP_Clk.c **** *                 is asserted for approximately half of its period. When
 356:.\Generated_Source\PSoC5/ADC_DelSig_1_Ext_CP_Clk.c **** *                 disabled, the output clock is asserted for one period of the
 357:.\Generated_Source\PSoC5/ADC_DelSig_1_Ext_CP_Clk.c **** *                 source clock.
 358:.\Generated_Source\PSoC5/ADC_DelSig_1_Ext_CP_Clk.c **** *   - CYCLK_SYNC  Enable output synchronization to master clock. This should
 359:.\Generated_Source\PSoC5/ADC_DelSig_1_Ext_CP_Clk.c **** *                 be enabled for all synchronous clocks.
 360:.\Generated_Source\PSoC5/ADC_DelSig_1_Ext_CP_Clk.c **** *   See the Technical Reference Manual for details about setting the mode of
 361:.\Generated_Source\PSoC5/ADC_DelSig_1_Ext_CP_Clk.c **** *   the clock. Specifically, see the CLKDIST.DCFG.CFG2 register.
 362:.\Generated_Source\PSoC5/ADC_DelSig_1_Ext_CP_Clk.c **** *
 363:.\Generated_Source\PSoC5/ADC_DelSig_1_Ext_CP_Clk.c **** * Returns:
 364:.\Generated_Source\PSoC5/ADC_DelSig_1_Ext_CP_Clk.c **** *  None
 365:.\Generated_Source\PSoC5/ADC_DelSig_1_Ext_CP_Clk.c **** *
 366:.\Generated_Source\PSoC5/ADC_DelSig_1_Ext_CP_Clk.c **** *******************************************************************************/
 367:.\Generated_Source\PSoC5/ADC_DelSig_1_Ext_CP_Clk.c **** void ADC_DelSig_1_Ext_CP_Clk_ClearModeRegister(uint8 modeBitMask) 
 368:.\Generated_Source\PSoC5/ADC_DelSig_1_Ext_CP_Clk.c **** {
 369:.\Generated_Source\PSoC5/ADC_DelSig_1_Ext_CP_Clk.c ****     ADC_DelSig_1_Ext_CP_Clk_MOD_SRC &= (uint8)(~modeBitMask) | (uint8)(~(uint8)(ADC_DelSig_1_Ext_CP
 370:.\Generated_Source\PSoC5/ADC_DelSig_1_Ext_CP_Clk.c **** }
 371:.\Generated_Source\PSoC5/ADC_DelSig_1_Ext_CP_Clk.c **** 
 372:.\Generated_Source\PSoC5/ADC_DelSig_1_Ext_CP_Clk.c **** 
 373:.\Generated_Source\PSoC5/ADC_DelSig_1_Ext_CP_Clk.c **** /*******************************************************************************
 374:.\Generated_Source\PSoC5/ADC_DelSig_1_Ext_CP_Clk.c **** * Function Name: ADC_DelSig_1_Ext_CP_Clk_GetModeRegister
 375:.\Generated_Source\PSoC5/ADC_DelSig_1_Ext_CP_Clk.c **** ********************************************************************************
 376:.\Generated_Source\PSoC5/ADC_DelSig_1_Ext_CP_Clk.c **** *
 377:.\Generated_Source\PSoC5/ADC_DelSig_1_Ext_CP_Clk.c **** * Summary:
 378:.\Generated_Source\PSoC5/ADC_DelSig_1_Ext_CP_Clk.c **** *  Gets the clock mode register value.
 379:.\Generated_Source\PSoC5/ADC_DelSig_1_Ext_CP_Clk.c **** *
 380:.\Generated_Source\PSoC5/ADC_DelSig_1_Ext_CP_Clk.c **** * Parameters:
 381:.\Generated_Source\PSoC5/ADC_DelSig_1_Ext_CP_Clk.c **** *  None
 382:.\Generated_Source\PSoC5/ADC_DelSig_1_Ext_CP_Clk.c **** *
 383:.\Generated_Source\PSoC5/ADC_DelSig_1_Ext_CP_Clk.c **** * Returns:
 384:.\Generated_Source\PSoC5/ADC_DelSig_1_Ext_CP_Clk.c **** *  Bit mask representing the enabled mode bits. See the SetModeRegister and
 385:.\Generated_Source\PSoC5/ADC_DelSig_1_Ext_CP_Clk.c **** *  ClearModeRegister descriptions for details about the mode bits.
 386:.\Generated_Source\PSoC5/ADC_DelSig_1_Ext_CP_Clk.c **** *
 387:.\Generated_Source\PSoC5/ADC_DelSig_1_Ext_CP_Clk.c **** *******************************************************************************/
 388:.\Generated_Source\PSoC5/ADC_DelSig_1_Ext_CP_Clk.c **** uint8 ADC_DelSig_1_Ext_CP_Clk_GetModeRegister(void) 
 389:.\Generated_Source\PSoC5/ADC_DelSig_1_Ext_CP_Clk.c **** {
 390:.\Generated_Source\PSoC5/ADC_DelSig_1_Ext_CP_Clk.c ****     return ADC_DelSig_1_Ext_CP_Clk_MOD_SRC & (uint8)(ADC_DelSig_1_Ext_CP_Clk_MODE_MASK);
 391:.\Generated_Source\PSoC5/ADC_DelSig_1_Ext_CP_Clk.c **** }
 392:.\Generated_Source\PSoC5/ADC_DelSig_1_Ext_CP_Clk.c **** 
 393:.\Generated_Source\PSoC5/ADC_DelSig_1_Ext_CP_Clk.c **** 
 394:.\Generated_Source\PSoC5/ADC_DelSig_1_Ext_CP_Clk.c **** /*******************************************************************************
 395:.\Generated_Source\PSoC5/ADC_DelSig_1_Ext_CP_Clk.c **** * Function Name: ADC_DelSig_1_Ext_CP_Clk_SetSourceRegister
 396:.\Generated_Source\PSoC5/ADC_DelSig_1_Ext_CP_Clk.c **** ********************************************************************************
 397:.\Generated_Source\PSoC5/ADC_DelSig_1_Ext_CP_Clk.c **** *
 398:.\Generated_Source\PSoC5/ADC_DelSig_1_Ext_CP_Clk.c **** * Summary:
 399:.\Generated_Source\PSoC5/ADC_DelSig_1_Ext_CP_Clk.c **** *  Sets the input source of the clock. The clock must be disabled before
 400:.\Generated_Source\PSoC5/ADC_DelSig_1_Ext_CP_Clk.c **** *  changing the source. The old and new clock sources must be running.
 401:.\Generated_Source\PSoC5/ADC_DelSig_1_Ext_CP_Clk.c **** *
 402:.\Generated_Source\PSoC5/ADC_DelSig_1_Ext_CP_Clk.c **** * Parameters:
 403:.\Generated_Source\PSoC5/ADC_DelSig_1_Ext_CP_Clk.c **** *  clkSource:  For PSoC 3 and PSoC 5 devices, clkSource should be one of the
 404:.\Generated_Source\PSoC5/ADC_DelSig_1_Ext_CP_Clk.c **** *   following input sources:
 405:.\Generated_Source\PSoC5/ADC_DelSig_1_Ext_CP_Clk.c **** *   - CYCLK_SRC_SEL_SYNC_DIG
 406:.\Generated_Source\PSoC5/ADC_DelSig_1_Ext_CP_Clk.c **** *   - CYCLK_SRC_SEL_IMO
ARM GAS  C:\Users\mjphi\AppData\Local\Temp\ccZQVruJ.s 			page 12


 407:.\Generated_Source\PSoC5/ADC_DelSig_1_Ext_CP_Clk.c **** *   - CYCLK_SRC_SEL_XTALM
 408:.\Generated_Source\PSoC5/ADC_DelSig_1_Ext_CP_Clk.c **** *   - CYCLK_SRC_SEL_ILO
 409:.\Generated_Source\PSoC5/ADC_DelSig_1_Ext_CP_Clk.c **** *   - CYCLK_SRC_SEL_PLL
 410:.\Generated_Source\PSoC5/ADC_DelSig_1_Ext_CP_Clk.c **** *   - CYCLK_SRC_SEL_XTALK
 411:.\Generated_Source\PSoC5/ADC_DelSig_1_Ext_CP_Clk.c **** *   - CYCLK_SRC_SEL_DSI_G
 412:.\Generated_Source\PSoC5/ADC_DelSig_1_Ext_CP_Clk.c **** *   - CYCLK_SRC_SEL_DSI_D/CYCLK_SRC_SEL_DSI_A
 413:.\Generated_Source\PSoC5/ADC_DelSig_1_Ext_CP_Clk.c **** *   See the Technical Reference Manual for details on clock sources.
 414:.\Generated_Source\PSoC5/ADC_DelSig_1_Ext_CP_Clk.c **** *
 415:.\Generated_Source\PSoC5/ADC_DelSig_1_Ext_CP_Clk.c **** * Returns:
 416:.\Generated_Source\PSoC5/ADC_DelSig_1_Ext_CP_Clk.c **** *  None
 417:.\Generated_Source\PSoC5/ADC_DelSig_1_Ext_CP_Clk.c **** *
 418:.\Generated_Source\PSoC5/ADC_DelSig_1_Ext_CP_Clk.c **** *******************************************************************************/
 419:.\Generated_Source\PSoC5/ADC_DelSig_1_Ext_CP_Clk.c **** void ADC_DelSig_1_Ext_CP_Clk_SetSourceRegister(uint8 clkSource) 
 420:.\Generated_Source\PSoC5/ADC_DelSig_1_Ext_CP_Clk.c **** {
 421:.\Generated_Source\PSoC5/ADC_DelSig_1_Ext_CP_Clk.c ****     uint16 currDiv = ADC_DelSig_1_Ext_CP_Clk_GetDividerRegister();
 422:.\Generated_Source\PSoC5/ADC_DelSig_1_Ext_CP_Clk.c ****     uint8 oldSrc = ADC_DelSig_1_Ext_CP_Clk_GetSourceRegister();
 423:.\Generated_Source\PSoC5/ADC_DelSig_1_Ext_CP_Clk.c **** 
 424:.\Generated_Source\PSoC5/ADC_DelSig_1_Ext_CP_Clk.c ****     if (((oldSrc != ((uint8)CYCLK_SRC_SEL_CLK_SYNC_D)) && 
 425:.\Generated_Source\PSoC5/ADC_DelSig_1_Ext_CP_Clk.c ****         (clkSource == ((uint8)CYCLK_SRC_SEL_CLK_SYNC_D))) && (currDiv == 0u))
 426:.\Generated_Source\PSoC5/ADC_DelSig_1_Ext_CP_Clk.c ****     {
 427:.\Generated_Source\PSoC5/ADC_DelSig_1_Ext_CP_Clk.c ****         /* Switching to Master and divider is 1, set SSS, which will output master, */
 428:.\Generated_Source\PSoC5/ADC_DelSig_1_Ext_CP_Clk.c ****         /* then set the source so we are consistent.                                */
 429:.\Generated_Source\PSoC5/ADC_DelSig_1_Ext_CP_Clk.c ****         ADC_DelSig_1_Ext_CP_Clk_MOD_SRC |= CYCLK_SSS;
 430:.\Generated_Source\PSoC5/ADC_DelSig_1_Ext_CP_Clk.c ****         ADC_DelSig_1_Ext_CP_Clk_MOD_SRC =
 431:.\Generated_Source\PSoC5/ADC_DelSig_1_Ext_CP_Clk.c ****             (ADC_DelSig_1_Ext_CP_Clk_MOD_SRC & (uint8)(~ADC_DelSig_1_Ext_CP_Clk_SRC_SEL_MSK)) | clk
 432:.\Generated_Source\PSoC5/ADC_DelSig_1_Ext_CP_Clk.c ****     }
 433:.\Generated_Source\PSoC5/ADC_DelSig_1_Ext_CP_Clk.c ****     else if (((oldSrc == ((uint8)CYCLK_SRC_SEL_CLK_SYNC_D)) && 
 434:.\Generated_Source\PSoC5/ADC_DelSig_1_Ext_CP_Clk.c ****             (clkSource != ((uint8)CYCLK_SRC_SEL_CLK_SYNC_D))) && (currDiv == 0u))
 435:.\Generated_Source\PSoC5/ADC_DelSig_1_Ext_CP_Clk.c ****     {
 436:.\Generated_Source\PSoC5/ADC_DelSig_1_Ext_CP_Clk.c ****         /* Switching from Master to not and divider is 1, set source, so we don't   */
 437:.\Generated_Source\PSoC5/ADC_DelSig_1_Ext_CP_Clk.c ****         /* lock when we clear SSS.                                                  */
 438:.\Generated_Source\PSoC5/ADC_DelSig_1_Ext_CP_Clk.c ****         ADC_DelSig_1_Ext_CP_Clk_MOD_SRC =
 439:.\Generated_Source\PSoC5/ADC_DelSig_1_Ext_CP_Clk.c ****             (ADC_DelSig_1_Ext_CP_Clk_MOD_SRC & (uint8)(~ADC_DelSig_1_Ext_CP_Clk_SRC_SEL_MSK)) | clk
 440:.\Generated_Source\PSoC5/ADC_DelSig_1_Ext_CP_Clk.c ****         ADC_DelSig_1_Ext_CP_Clk_MOD_SRC &= (uint8)(~CYCLK_SSS);
 441:.\Generated_Source\PSoC5/ADC_DelSig_1_Ext_CP_Clk.c ****     }
 442:.\Generated_Source\PSoC5/ADC_DelSig_1_Ext_CP_Clk.c ****     else
 443:.\Generated_Source\PSoC5/ADC_DelSig_1_Ext_CP_Clk.c ****     {
 444:.\Generated_Source\PSoC5/ADC_DelSig_1_Ext_CP_Clk.c ****         ADC_DelSig_1_Ext_CP_Clk_MOD_SRC =
 445:.\Generated_Source\PSoC5/ADC_DelSig_1_Ext_CP_Clk.c ****             (ADC_DelSig_1_Ext_CP_Clk_MOD_SRC & (uint8)(~ADC_DelSig_1_Ext_CP_Clk_SRC_SEL_MSK)) | clk
 446:.\Generated_Source\PSoC5/ADC_DelSig_1_Ext_CP_Clk.c ****     }
 447:.\Generated_Source\PSoC5/ADC_DelSig_1_Ext_CP_Clk.c **** }
 448:.\Generated_Source\PSoC5/ADC_DelSig_1_Ext_CP_Clk.c **** 
 449:.\Generated_Source\PSoC5/ADC_DelSig_1_Ext_CP_Clk.c **** 
 450:.\Generated_Source\PSoC5/ADC_DelSig_1_Ext_CP_Clk.c **** /*******************************************************************************
 451:.\Generated_Source\PSoC5/ADC_DelSig_1_Ext_CP_Clk.c **** * Function Name: ADC_DelSig_1_Ext_CP_Clk_GetSourceRegister
 452:.\Generated_Source\PSoC5/ADC_DelSig_1_Ext_CP_Clk.c **** ********************************************************************************
 453:.\Generated_Source\PSoC5/ADC_DelSig_1_Ext_CP_Clk.c **** *
 454:.\Generated_Source\PSoC5/ADC_DelSig_1_Ext_CP_Clk.c **** * Summary:
 455:.\Generated_Source\PSoC5/ADC_DelSig_1_Ext_CP_Clk.c **** *  Gets the input source of the clock.
 456:.\Generated_Source\PSoC5/ADC_DelSig_1_Ext_CP_Clk.c **** *
 457:.\Generated_Source\PSoC5/ADC_DelSig_1_Ext_CP_Clk.c **** * Parameters:
 458:.\Generated_Source\PSoC5/ADC_DelSig_1_Ext_CP_Clk.c **** *  None
 459:.\Generated_Source\PSoC5/ADC_DelSig_1_Ext_CP_Clk.c **** *
 460:.\Generated_Source\PSoC5/ADC_DelSig_1_Ext_CP_Clk.c **** * Returns:
 461:.\Generated_Source\PSoC5/ADC_DelSig_1_Ext_CP_Clk.c **** *  The input source of the clock. See SetSourceRegister for details.
 462:.\Generated_Source\PSoC5/ADC_DelSig_1_Ext_CP_Clk.c **** *
 463:.\Generated_Source\PSoC5/ADC_DelSig_1_Ext_CP_Clk.c **** *******************************************************************************/
ARM GAS  C:\Users\mjphi\AppData\Local\Temp\ccZQVruJ.s 			page 13


 464:.\Generated_Source\PSoC5/ADC_DelSig_1_Ext_CP_Clk.c **** uint8 ADC_DelSig_1_Ext_CP_Clk_GetSourceRegister(void) 
 465:.\Generated_Source\PSoC5/ADC_DelSig_1_Ext_CP_Clk.c **** {
 466:.\Generated_Source\PSoC5/ADC_DelSig_1_Ext_CP_Clk.c ****     return ADC_DelSig_1_Ext_CP_Clk_MOD_SRC & ADC_DelSig_1_Ext_CP_Clk_SRC_SEL_MSK;
 219              		.loc 1 466 0
 220 0002 2B4B     		ldr	r3, .L44
 221              	.LBE12:
 222              	.LBE11:
 223              	.LBB15:
 224              	.LBB16:
 299:.\Generated_Source\PSoC5/ADC_DelSig_1_Ext_CP_Clk.c **** }
 225              		.loc 1 299 0
 226 0004 2B4E     		ldr	r6, .L44+4
 227              	.LBE16:
 228              	.LBE15:
 229              	.LBB19:
 230              	.LBB13:
 231              		.loc 1 466 0
 232 0006 1F78     		ldrb	r7, [r3]	@ zero_extendqisi2
 233              	.LBE13:
 234              	.LBE19:
 235              	.LBB20:
 236              	.LBB17:
 299:.\Generated_Source\PSoC5/ADC_DelSig_1_Ext_CP_Clk.c **** }
 237              		.loc 1 299 0
 238 0008 3288     		ldrh	r2, [r6]
 239              	.LBE17:
 240              	.LBE20:
 241              	.LBB21:
 242              	.LBB14:
 243              		.loc 1 466 0
 244 000a 07F00707 		and	r7, r7, #7
 245              	.LBE14:
 246              	.LBE21:
 247              	.LBB22:
 248              	.LBB18:
 299:.\Generated_Source\PSoC5/ADC_DelSig_1_Ext_CP_Clk.c **** }
 249              		.loc 1 299 0
 250 000e 92B2     		uxth	r2, r2
 251              	.LBE18:
 252              	.LBE22:
 201:.\Generated_Source\PSoC5/ADC_DelSig_1_Ext_CP_Clk.c ****     {
 253              		.loc 1 201 0
 254 0010 9042     		cmp	r0, r2
 255 0012 4BD0     		beq	.L23
 203:.\Generated_Source\PSoC5/ADC_DelSig_1_Ext_CP_Clk.c **** 
 256              		.loc 1 203 0
 257 0014 284D     		ldr	r5, .L44+8
 258 0016 2C78     		ldrb	r4, [r5]	@ zero_extendqisi2
 259 0018 E4B2     		uxtb	r4, r4
 260              	.LVL4:
 205:.\Generated_Source\PSoC5/ADC_DelSig_1_Ext_CP_Clk.c ****         {
 261              		.loc 1 205 0
 262 001a 6FB9     		cbnz	r7, .L26
 205:.\Generated_Source\PSoC5/ADC_DelSig_1_Ext_CP_Clk.c ****         {
 263              		.loc 1 205 0 is_stmt 0 discriminator 1
 264 001c 32B1     		cbz	r2, .L27
 205:.\Generated_Source\PSoC5/ADC_DelSig_1_Ext_CP_Clk.c ****         {
ARM GAS  C:\Users\mjphi\AppData\Local\Temp\ccZQVruJ.s 			page 14


 265              		.loc 1 205 0 discriminator 2
 266 001e 58B9     		cbnz	r0, .L26
 220:.\Generated_Source\PSoC5/ADC_DelSig_1_Ext_CP_Clk.c ****                 CY_SET_REG16(ADC_DelSig_1_Ext_CP_Clk_DIV_PTR, clkDivider);
 267              		.loc 1 220 0 is_stmt 1
 268 0020 1A78     		ldrb	r2, [r3]	@ zero_extendqisi2
 269 0022 42F04002 		orr	r2, r2, #64
 270 0026 1A70     		strb	r2, [r3]
 221:.\Generated_Source\PSoC5/ADC_DelSig_1_Ext_CP_Clk.c ****             }
 271              		.loc 1 221 0
 272 0028 3080     		strh	r0, [r6]	@ movhi
 273 002a F0BD     		pop	{r4, r5, r6, r7, pc}
 274              	.LVL5:
 275              	.L27:
 213:.\Generated_Source\PSoC5/ADC_DelSig_1_Ext_CP_Clk.c ****                 ADC_DelSig_1_Ext_CP_Clk_MOD_SRC &= (uint8)(~CYCLK_SSS);
 276              		.loc 1 213 0
 277 002c 3080     		strh	r0, [r6]	@ movhi
 214:.\Generated_Source\PSoC5/ADC_DelSig_1_Ext_CP_Clk.c ****             }
 278              		.loc 1 214 0
 279 002e 1A78     		ldrb	r2, [r3]	@ zero_extendqisi2
 280 0030 02F0BF02 		and	r2, r2, #191
 281 0034 1A70     		strb	r2, [r3]
 282 0036 F0BD     		pop	{r4, r5, r6, r7, pc}
 283              	.LVL6:
 284              	.L26:
 227:.\Generated_Source\PSoC5/ADC_DelSig_1_Ext_CP_Clk.c ****             {
 285              		.loc 1 227 0
 286 0038 14F00104 		ands	r4, r4, #1
 287              	.LVL7:
 288 003c 21D0     		beq	.L30
 236:.\Generated_Source\PSoC5/ADC_DelSig_1_Ext_CP_Clk.c ****                 CLK_DIST_AMASK = 0x00u;
 289              		.loc 1 236 0
 290 003e 1F4F     		ldr	r7, .L44+12
 229:.\Generated_Source\PSoC5/ADC_DelSig_1_Ext_CP_Clk.c **** 
 291              		.loc 1 229 0
 292 0040 1F4B     		ldr	r3, .L44+16
 293 0042 0026     		movs	r6, #0
 236:.\Generated_Source\PSoC5/ADC_DelSig_1_Ext_CP_Clk.c ****                 CLK_DIST_AMASK = 0x00u;
 294              		.loc 1 236 0
 295 0044 4FF0010E 		mov	lr, #1
 229:.\Generated_Source\PSoC5/ADC_DelSig_1_Ext_CP_Clk.c **** 
 296              		.loc 1 229 0
 297 0048 1E70     		strb	r6, [r3]
 236:.\Generated_Source\PSoC5/ADC_DelSig_1_Ext_CP_Clk.c ****                 CLK_DIST_AMASK = 0x00u;
 298              		.loc 1 236 0
 299 004a 87F800E0 		strb	lr, [r7]
 237:.\Generated_Source\PSoC5/ADC_DelSig_1_Ext_CP_Clk.c **** #endif /* ADC_DelSig_1_Ext_CP_Clk__CFG3 */
 300              		.loc 1 237 0
 301 004e 3E71     		strb	r6, [r7, #4]
 240:.\Generated_Source\PSoC5/ADC_DelSig_1_Ext_CP_Clk.c **** 
 302              		.loc 1 240 0
 303 0050 17F8086C 		ldrb	r6, [r7, #-8]	@ zero_extendqisi2
 304 0054 06F07F06 		and	r6, r6, #127
 305 0058 07F8086C 		strb	r6, [r7, #-8]
 243:.\Generated_Source\PSoC5/ADC_DelSig_1_Ext_CP_Clk.c ****                 {
 306              		.loc 1 243 0
 307 005c 144E     		ldr	r6, .L44
 308 005e 3678     		ldrb	r6, [r6]	@ zero_extendqisi2
ARM GAS  C:\Users\mjphi\AppData\Local\Temp\ccZQVruJ.s 			page 15


 309 0060 3607     		lsls	r6, r6, #28
 310 0062 00D5     		bpl	.L31
 243:.\Generated_Source\PSoC5/ADC_DelSig_1_Ext_CP_Clk.c ****                 {
 311              		.loc 1 243 0 is_stmt 0 discriminator 1
 312 0064 68B9     		cbnz	r0, .L30
 313              	.L31:
 246:.\Generated_Source\PSoC5/ADC_DelSig_1_Ext_CP_Clk.c ****                     CLK_DIST_LD = CYCLK_LD_DISABLE|CYCLK_LD_SYNC_EN|CYCLK_LD_LOAD;
 314              		.loc 1 246 0 is_stmt 1
 315 0066 174E     		ldr	r6, .L44+20
 316 0068 3280     		strh	r2, [r6]	@ movhi
 247:.\Generated_Source\PSoC5/ADC_DelSig_1_Ext_CP_Clk.c **** 
 317              		.loc 1 247 0
 318 006a 0722     		movs	r2, #7
 319 006c 1A70     		strb	r2, [r3]
 320              	.L33:
 250:.\Generated_Source\PSoC5/ADC_DelSig_1_Ext_CP_Clk.c **** #endif /* HAS_CLKDIST_LD_DISABLE */
 321              		.loc 1 250 0 discriminator 1
 322 006e 1A78     		ldrb	r2, [r3]	@ zero_extendqisi2
 323 0070 12F00102 		ands	r2, r2, #1
 324 0074 FBD1     		bne	.L33
 253:.\Generated_Source\PSoC5/ADC_DelSig_1_Ext_CP_Clk.c **** 
 325              		.loc 1 253 0
 326 0076 2B78     		ldrb	r3, [r5]	@ zero_extendqisi2
 327 0078 03F0FE03 		and	r3, r3, #254
 328 007c 2B70     		strb	r3, [r5]
 257:.\Generated_Source\PSoC5/ADC_DelSig_1_Ext_CP_Clk.c **** #endif /* HAS_CLKDIST_LD_DISABLE */
 329              		.loc 1 257 0
 330 007e 104B     		ldr	r3, .L44+16
 331 0080 1A70     		strb	r2, [r3]
 332              	.L30:
 263:.\Generated_Source\PSoC5/ADC_DelSig_1_Ext_CP_Clk.c ****             {
 333              		.loc 1 263 0
 334 0082 2B78     		ldrb	r3, [r5]	@ zero_extendqisi2
 335 0084 0C4A     		ldr	r2, .L44+8
 336 0086 DD07     		lsls	r5, r3, #31
 337 0088 0BD5     		bpl	.L34
 266:.\Generated_Source\PSoC5/ADC_DelSig_1_Ext_CP_Clk.c **** 
 338              		.loc 1 266 0
 339 008a 0E4B     		ldr	r3, .L44+20
 268:.\Generated_Source\PSoC5/ADC_DelSig_1_Ext_CP_Clk.c ****                 while ((CLK_DIST_LD & CYCLK_LD_LOAD) != 0u) { }
 340              		.loc 1 268 0
 341 008c 0029     		cmp	r1, #0
 266:.\Generated_Source\PSoC5/ADC_DelSig_1_Ext_CP_Clk.c **** 
 342              		.loc 1 266 0
 343 008e 1880     		strh	r0, [r3]	@ movhi
 268:.\Generated_Source\PSoC5/ADC_DelSig_1_Ext_CP_Clk.c ****                 while ((CLK_DIST_LD & CYCLK_LD_LOAD) != 0u) { }
 344              		.loc 1 268 0
 345 0090 14BF     		ite	ne
 346 0092 0322     		movne	r2, #3
 347 0094 0122     		moveq	r2, #1
 348 0096 013B     		subs	r3, r3, #1
 349 0098 1A70     		strb	r2, [r3]
 350              	.L36:
 269:.\Generated_Source\PSoC5/ADC_DelSig_1_Ext_CP_Clk.c ****             }
 351              		.loc 1 269 0 discriminator 1
 352 009a 1A78     		ldrb	r2, [r3]	@ zero_extendqisi2
 353 009c D207     		lsls	r2, r2, #31
ARM GAS  C:\Users\mjphi\AppData\Local\Temp\ccZQVruJ.s 			page 16


 354 009e FCD4     		bmi	.L36
 355 00a0 F0BD     		pop	{r4, r5, r6, r7, pc}
 356              	.L34:
 274:.\Generated_Source\PSoC5/ADC_DelSig_1_Ext_CP_Clk.c **** 				ADC_DelSig_1_Ext_CP_Clk_CLKEN |= enabled;
 357              		.loc 1 274 0
 358 00a2 044B     		ldr	r3, .L44+4
 359 00a4 1880     		strh	r0, [r3]	@ movhi
 275:.\Generated_Source\PSoC5/ADC_DelSig_1_Ext_CP_Clk.c ****             }
 360              		.loc 1 275 0
 361 00a6 1378     		ldrb	r3, [r2]	@ zero_extendqisi2
 362 00a8 1C43     		orrs	r4, r4, r3
 363 00aa 1470     		strb	r4, [r2]
 364              	.L23:
 365 00ac F0BD     		pop	{r4, r5, r6, r7, pc}
 366              	.L45:
 367 00ae 00BF     		.align	2
 368              	.L44:
 369 00b0 82400040 		.word	1073758338
 370 00b4 80400040 		.word	1073758336
 371 00b8 A2430040 		.word	1073759138
 372 00bc 10400040 		.word	1073758224
 373 00c0 01400040 		.word	1073758209
 374 00c4 02400040 		.word	1073758210
 375              		.cfi_endproc
 376              	.LFE4:
 377              		.size	ADC_DelSig_1_Ext_CP_Clk_SetDividerRegister, .-ADC_DelSig_1_Ext_CP_Clk_SetDividerRegister
 378              		.section	.text.ADC_DelSig_1_Ext_CP_Clk_GetDividerRegister,"ax",%progbits
 379              		.align	1
 380              		.global	ADC_DelSig_1_Ext_CP_Clk_GetDividerRegister
 381              		.thumb
 382              		.thumb_func
 383              		.type	ADC_DelSig_1_Ext_CP_Clk_GetDividerRegister, %function
 384              	ADC_DelSig_1_Ext_CP_Clk_GetDividerRegister:
 385              	.LFB5:
 298:.\Generated_Source\PSoC5/ADC_DelSig_1_Ext_CP_Clk.c ****     return CY_GET_REG16(ADC_DelSig_1_Ext_CP_Clk_DIV_PTR);
 386              		.loc 1 298 0
 387              		.cfi_startproc
 388              		@ args = 0, pretend = 0, frame = 0
 389              		@ frame_needed = 0, uses_anonymous_args = 0
 390              		@ link register save eliminated.
 299:.\Generated_Source\PSoC5/ADC_DelSig_1_Ext_CP_Clk.c **** }
 391              		.loc 1 299 0
 392 0000 014B     		ldr	r3, .L47
 393 0002 1888     		ldrh	r0, [r3]
 300:.\Generated_Source\PSoC5/ADC_DelSig_1_Ext_CP_Clk.c **** 
 394              		.loc 1 300 0
 395 0004 80B2     		uxth	r0, r0
 396 0006 7047     		bx	lr
 397              	.L48:
 398              		.align	2
 399              	.L47:
 400 0008 80400040 		.word	1073758336
 401              		.cfi_endproc
 402              	.LFE5:
 403              		.size	ADC_DelSig_1_Ext_CP_Clk_GetDividerRegister, .-ADC_DelSig_1_Ext_CP_Clk_GetDividerRegister
 404              		.section	.text.ADC_DelSig_1_Ext_CP_Clk_SetModeRegister,"ax",%progbits
 405              		.align	1
ARM GAS  C:\Users\mjphi\AppData\Local\Temp\ccZQVruJ.s 			page 17


 406              		.global	ADC_DelSig_1_Ext_CP_Clk_SetModeRegister
 407              		.thumb
 408              		.thumb_func
 409              		.type	ADC_DelSig_1_Ext_CP_Clk_SetModeRegister, %function
 410              	ADC_DelSig_1_Ext_CP_Clk_SetModeRegister:
 411              	.LFB6:
 333:.\Generated_Source\PSoC5/ADC_DelSig_1_Ext_CP_Clk.c ****     ADC_DelSig_1_Ext_CP_Clk_MOD_SRC |= modeBitMask & (uint8)ADC_DelSig_1_Ext_CP_Clk_MODE_MASK;
 412              		.loc 1 333 0
 413              		.cfi_startproc
 414              		@ args = 0, pretend = 0, frame = 0
 415              		@ frame_needed = 0, uses_anonymous_args = 0
 416              		@ link register save eliminated.
 417              	.LVL8:
 334:.\Generated_Source\PSoC5/ADC_DelSig_1_Ext_CP_Clk.c **** }
 418              		.loc 1 334 0
 419 0000 034A     		ldr	r2, .L50
 420 0002 00F0F800 		and	r0, r0, #248
 421              	.LVL9:
 422 0006 1378     		ldrb	r3, [r2]	@ zero_extendqisi2
 423 0008 0343     		orrs	r3, r3, r0
 424 000a 1370     		strb	r3, [r2]
 425 000c 7047     		bx	lr
 426              	.L51:
 427 000e 00BF     		.align	2
 428              	.L50:
 429 0010 82400040 		.word	1073758338
 430              		.cfi_endproc
 431              	.LFE6:
 432              		.size	ADC_DelSig_1_Ext_CP_Clk_SetModeRegister, .-ADC_DelSig_1_Ext_CP_Clk_SetModeRegister
 433              		.section	.text.ADC_DelSig_1_Ext_CP_Clk_ClearModeRegister,"ax",%progbits
 434              		.align	1
 435              		.global	ADC_DelSig_1_Ext_CP_Clk_ClearModeRegister
 436              		.thumb
 437              		.thumb_func
 438              		.type	ADC_DelSig_1_Ext_CP_Clk_ClearModeRegister, %function
 439              	ADC_DelSig_1_Ext_CP_Clk_ClearModeRegister:
 440              	.LFB7:
 368:.\Generated_Source\PSoC5/ADC_DelSig_1_Ext_CP_Clk.c ****     ADC_DelSig_1_Ext_CP_Clk_MOD_SRC &= (uint8)(~modeBitMask) | (uint8)(~(uint8)(ADC_DelSig_1_Ext_CP
 441              		.loc 1 368 0
 442              		.cfi_startproc
 443              		@ args = 0, pretend = 0, frame = 0
 444              		@ frame_needed = 0, uses_anonymous_args = 0
 445              		@ link register save eliminated.
 446              	.LVL10:
 369:.\Generated_Source\PSoC5/ADC_DelSig_1_Ext_CP_Clk.c **** }
 447              		.loc 1 369 0
 448 0000 C043     		mvns	r0, r0
 449              	.LVL11:
 450 0002 034B     		ldr	r3, .L53
 451 0004 40F00700 		orr	r0, r0, #7
 452 0008 1A78     		ldrb	r2, [r3]	@ zero_extendqisi2
 453 000a 1040     		ands	r0, r0, r2
 454 000c 1870     		strb	r0, [r3]
 455 000e 7047     		bx	lr
 456              	.L54:
 457              		.align	2
 458              	.L53:
ARM GAS  C:\Users\mjphi\AppData\Local\Temp\ccZQVruJ.s 			page 18


 459 0010 82400040 		.word	1073758338
 460              		.cfi_endproc
 461              	.LFE7:
 462              		.size	ADC_DelSig_1_Ext_CP_Clk_ClearModeRegister, .-ADC_DelSig_1_Ext_CP_Clk_ClearModeRegister
 463              		.section	.text.ADC_DelSig_1_Ext_CP_Clk_GetModeRegister,"ax",%progbits
 464              		.align	1
 465              		.global	ADC_DelSig_1_Ext_CP_Clk_GetModeRegister
 466              		.thumb
 467              		.thumb_func
 468              		.type	ADC_DelSig_1_Ext_CP_Clk_GetModeRegister, %function
 469              	ADC_DelSig_1_Ext_CP_Clk_GetModeRegister:
 470              	.LFB8:
 389:.\Generated_Source\PSoC5/ADC_DelSig_1_Ext_CP_Clk.c ****     return ADC_DelSig_1_Ext_CP_Clk_MOD_SRC & (uint8)(ADC_DelSig_1_Ext_CP_Clk_MODE_MASK);
 471              		.loc 1 389 0
 472              		.cfi_startproc
 473              		@ args = 0, pretend = 0, frame = 0
 474              		@ frame_needed = 0, uses_anonymous_args = 0
 475              		@ link register save eliminated.
 390:.\Generated_Source\PSoC5/ADC_DelSig_1_Ext_CP_Clk.c **** }
 476              		.loc 1 390 0
 477 0000 024B     		ldr	r3, .L56
 478 0002 1878     		ldrb	r0, [r3]	@ zero_extendqisi2
 391:.\Generated_Source\PSoC5/ADC_DelSig_1_Ext_CP_Clk.c **** 
 479              		.loc 1 391 0
 480 0004 00F0F800 		and	r0, r0, #248
 481 0008 7047     		bx	lr
 482              	.L57:
 483 000a 00BF     		.align	2
 484              	.L56:
 485 000c 82400040 		.word	1073758338
 486              		.cfi_endproc
 487              	.LFE8:
 488              		.size	ADC_DelSig_1_Ext_CP_Clk_GetModeRegister, .-ADC_DelSig_1_Ext_CP_Clk_GetModeRegister
 489              		.section	.text.ADC_DelSig_1_Ext_CP_Clk_SetSourceRegister,"ax",%progbits
 490              		.align	1
 491              		.global	ADC_DelSig_1_Ext_CP_Clk_SetSourceRegister
 492              		.thumb
 493              		.thumb_func
 494              		.type	ADC_DelSig_1_Ext_CP_Clk_SetSourceRegister, %function
 495              	ADC_DelSig_1_Ext_CP_Clk_SetSourceRegister:
 496              	.LFB9:
 420:.\Generated_Source\PSoC5/ADC_DelSig_1_Ext_CP_Clk.c ****     uint16 currDiv = ADC_DelSig_1_Ext_CP_Clk_GetDividerRegister();
 497              		.loc 1 420 0
 498              		.cfi_startproc
 499              		@ args = 0, pretend = 0, frame = 0
 500              		@ frame_needed = 0, uses_anonymous_args = 0
 501              		@ link register save eliminated.
 502              	.LVL12:
 503              	.LBB23:
 504              	.LBB24:
 299:.\Generated_Source\PSoC5/ADC_DelSig_1_Ext_CP_Clk.c **** }
 505              		.loc 1 299 0
 506 0000 124B     		ldr	r3, .L66
 507 0002 1A88     		ldrh	r2, [r3]
 508              	.LBE24:
 509              	.LBE23:
 510              	.LBB26:
ARM GAS  C:\Users\mjphi\AppData\Local\Temp\ccZQVruJ.s 			page 19


 511              	.LBB27:
 512              		.loc 1 466 0
 513 0004 0233     		adds	r3, r3, #2
 514 0006 1978     		ldrb	r1, [r3]	@ zero_extendqisi2
 515              	.LBE27:
 516              	.LBE26:
 517              	.LBB28:
 518              	.LBB25:
 299:.\Generated_Source\PSoC5/ADC_DelSig_1_Ext_CP_Clk.c **** }
 519              		.loc 1 299 0
 520 0008 92B2     		uxth	r2, r2
 521              	.LBE25:
 522              	.LBE28:
 424:.\Generated_Source\PSoC5/ADC_DelSig_1_Ext_CP_Clk.c ****         (clkSource == ((uint8)CYCLK_SRC_SEL_CLK_SYNC_D))) && (currDiv == 0u))
 523              		.loc 1 424 0
 524 000a 11F0070F 		tst	r1, #7
 525 000e 1946     		mov	r1, r3
 526 0010 09D0     		beq	.L59
 424:.\Generated_Source\PSoC5/ADC_DelSig_1_Ext_CP_Clk.c ****         (clkSource == ((uint8)CYCLK_SRC_SEL_CLK_SYNC_D))) && (currDiv == 0u))
 527              		.loc 1 424 0 is_stmt 0 discriminator 1
 528 0012 A0B9     		cbnz	r0, .L60
 425:.\Generated_Source\PSoC5/ADC_DelSig_1_Ext_CP_Clk.c ****     {
 529              		.loc 1 425 0 is_stmt 1
 530 0014 9AB9     		cbnz	r2, .L60
 429:.\Generated_Source\PSoC5/ADC_DelSig_1_Ext_CP_Clk.c ****         ADC_DelSig_1_Ext_CP_Clk_MOD_SRC =
 531              		.loc 1 429 0
 532 0016 1A78     		ldrb	r2, [r3]	@ zero_extendqisi2
 533 0018 42F04002 		orr	r2, r2, #64
 534 001c 1A70     		strb	r2, [r3]
 431:.\Generated_Source\PSoC5/ADC_DelSig_1_Ext_CP_Clk.c ****     }
 535              		.loc 1 431 0
 536 001e 1A78     		ldrb	r2, [r3]	@ zero_extendqisi2
 430:.\Generated_Source\PSoC5/ADC_DelSig_1_Ext_CP_Clk.c ****             (ADC_DelSig_1_Ext_CP_Clk_MOD_SRC & (uint8)(~ADC_DelSig_1_Ext_CP_Clk_SRC_SEL_MSK)) | clk
 537              		.loc 1 430 0
 538 0020 02F0F802 		and	r2, r2, #248
 539 0024 09E0     		b	.L65
 540              	.L59:
 433:.\Generated_Source\PSoC5/ADC_DelSig_1_Ext_CP_Clk.c ****             (clkSource != ((uint8)CYCLK_SRC_SEL_CLK_SYNC_D))) && (currDiv == 0u))
 541              		.loc 1 433 0 discriminator 1
 542 0026 50B1     		cbz	r0, .L60
 434:.\Generated_Source\PSoC5/ADC_DelSig_1_Ext_CP_Clk.c ****     {
 543              		.loc 1 434 0
 544 0028 4AB9     		cbnz	r2, .L60
 439:.\Generated_Source\PSoC5/ADC_DelSig_1_Ext_CP_Clk.c ****         ADC_DelSig_1_Ext_CP_Clk_MOD_SRC &= (uint8)(~CYCLK_SSS);
 545              		.loc 1 439 0
 546 002a 1A78     		ldrb	r2, [r3]	@ zero_extendqisi2
 438:.\Generated_Source\PSoC5/ADC_DelSig_1_Ext_CP_Clk.c ****             (ADC_DelSig_1_Ext_CP_Clk_MOD_SRC & (uint8)(~ADC_DelSig_1_Ext_CP_Clk_SRC_SEL_MSK)) | clk
 547              		.loc 1 438 0
 548 002c 02F0F802 		and	r2, r2, #248
 549 0030 1043     		orrs	r0, r0, r2
 550              	.LVL13:
 551 0032 1870     		strb	r0, [r3]
 440:.\Generated_Source\PSoC5/ADC_DelSig_1_Ext_CP_Clk.c ****     }
 552              		.loc 1 440 0
 553 0034 1A78     		ldrb	r2, [r3]	@ zero_extendqisi2
 554 0036 02F0BF02 		and	r2, r2, #191
 555              	.L65:
ARM GAS  C:\Users\mjphi\AppData\Local\Temp\ccZQVruJ.s 			page 20


 556 003a 1A70     		strb	r2, [r3]
 557 003c 7047     		bx	lr
 558              	.LVL14:
 559              	.L60:
 445:.\Generated_Source\PSoC5/ADC_DelSig_1_Ext_CP_Clk.c ****     }
 560              		.loc 1 445 0
 561 003e 0B78     		ldrb	r3, [r1]	@ zero_extendqisi2
 444:.\Generated_Source\PSoC5/ADC_DelSig_1_Ext_CP_Clk.c ****             (ADC_DelSig_1_Ext_CP_Clk_MOD_SRC & (uint8)(~ADC_DelSig_1_Ext_CP_Clk_SRC_SEL_MSK)) | clk
 562              		.loc 1 444 0
 563 0040 03F0F803 		and	r3, r3, #248
 564 0044 1843     		orrs	r0, r0, r3
 565              	.LVL15:
 566 0046 0870     		strb	r0, [r1]
 567 0048 7047     		bx	lr
 568              	.L67:
 569 004a 00BF     		.align	2
 570              	.L66:
 571 004c 80400040 		.word	1073758336
 572              		.cfi_endproc
 573              	.LFE9:
 574              		.size	ADC_DelSig_1_Ext_CP_Clk_SetSourceRegister, .-ADC_DelSig_1_Ext_CP_Clk_SetSourceRegister
 575              		.section	.text.ADC_DelSig_1_Ext_CP_Clk_GetSourceRegister,"ax",%progbits
 576              		.align	1
 577              		.global	ADC_DelSig_1_Ext_CP_Clk_GetSourceRegister
 578              		.thumb
 579              		.thumb_func
 580              		.type	ADC_DelSig_1_Ext_CP_Clk_GetSourceRegister, %function
 581              	ADC_DelSig_1_Ext_CP_Clk_GetSourceRegister:
 582              	.LFB10:
 465:.\Generated_Source\PSoC5/ADC_DelSig_1_Ext_CP_Clk.c ****     return ADC_DelSig_1_Ext_CP_Clk_MOD_SRC & ADC_DelSig_1_Ext_CP_Clk_SRC_SEL_MSK;
 583              		.loc 1 465 0
 584              		.cfi_startproc
 585              		@ args = 0, pretend = 0, frame = 0
 586              		@ frame_needed = 0, uses_anonymous_args = 0
 587              		@ link register save eliminated.
 588              		.loc 1 466 0
 589 0000 024B     		ldr	r3, .L69
 590 0002 1878     		ldrb	r0, [r3]	@ zero_extendqisi2
 467:.\Generated_Source\PSoC5/ADC_DelSig_1_Ext_CP_Clk.c **** }
 591              		.loc 1 467 0
 592 0004 00F00700 		and	r0, r0, #7
 593 0008 7047     		bx	lr
 594              	.L70:
 595 000a 00BF     		.align	2
 596              	.L69:
 597 000c 82400040 		.word	1073758338
 598              		.cfi_endproc
 599              	.LFE10:
 600              		.size	ADC_DelSig_1_Ext_CP_Clk_GetSourceRegister, .-ADC_DelSig_1_Ext_CP_Clk_GetSourceRegister
 601              		.text
 602              	.Letext0:
 603              		.file 2 "Generated_Source\\PSoC5/cytypes.h"
