ARM GAS  C:\Users\mjphi\AppData\Local\Temp\cc574Kz8.s 			page 1


   1              		.syntax unified
   2              		.cpu cortex-m3
   3              		.fpu softvfp
   4              		.eabi_attribute 20, 1
   5              		.eabi_attribute 21, 1
   6              		.eabi_attribute 23, 3
   7              		.eabi_attribute 24, 1
   8              		.eabi_attribute 25, 1
   9              		.eabi_attribute 26, 1
  10              		.eabi_attribute 30, 4
  11              		.eabi_attribute 34, 1
  12              		.eabi_attribute 18, 4
  13              		.thumb
  14              		.file	"ADC_DelSig_1_theACLK.c"
  15              		.text
  16              	.Ltext0:
  17              		.cfi_sections	.debug_frame
  18              		.section	.text.ADC_DelSig_1_theACLK_Start,"ax",%progbits
  19              		.align	1
  20              		.global	ADC_DelSig_1_theACLK_Start
  21              		.thumb
  22              		.thumb_func
  23              		.type	ADC_DelSig_1_theACLK_Start, %function
  24              	ADC_DelSig_1_theACLK_Start:
  25              	.LFB0:
  26              		.file 1 ".\\Generated_Source\\PSoC5\\ADC_DelSig_1_theACLK.c"
   1:.\Generated_Source\PSoC5/ADC_DelSig_1_theACLK.c **** /*******************************************************************************
   2:.\Generated_Source\PSoC5/ADC_DelSig_1_theACLK.c **** * File Name: ADC_DelSig_1_theACLK.c
   3:.\Generated_Source\PSoC5/ADC_DelSig_1_theACLK.c **** * Version 2.20
   4:.\Generated_Source\PSoC5/ADC_DelSig_1_theACLK.c **** *
   5:.\Generated_Source\PSoC5/ADC_DelSig_1_theACLK.c **** *  Description:
   6:.\Generated_Source\PSoC5/ADC_DelSig_1_theACLK.c **** *   This file provides the source code to the API for the clock component.
   7:.\Generated_Source\PSoC5/ADC_DelSig_1_theACLK.c **** *
   8:.\Generated_Source\PSoC5/ADC_DelSig_1_theACLK.c **** *  Note:
   9:.\Generated_Source\PSoC5/ADC_DelSig_1_theACLK.c **** *
  10:.\Generated_Source\PSoC5/ADC_DelSig_1_theACLK.c **** ********************************************************************************
  11:.\Generated_Source\PSoC5/ADC_DelSig_1_theACLK.c **** * Copyright 2008-2012, Cypress Semiconductor Corporation.  All rights reserved.
  12:.\Generated_Source\PSoC5/ADC_DelSig_1_theACLK.c **** * You may use this file only in accordance with the license, terms, conditions, 
  13:.\Generated_Source\PSoC5/ADC_DelSig_1_theACLK.c **** * disclaimers, and limitations in the end user license agreement accompanying 
  14:.\Generated_Source\PSoC5/ADC_DelSig_1_theACLK.c **** * the software package with which this file was provided.
  15:.\Generated_Source\PSoC5/ADC_DelSig_1_theACLK.c **** *******************************************************************************/
  16:.\Generated_Source\PSoC5/ADC_DelSig_1_theACLK.c **** 
  17:.\Generated_Source\PSoC5/ADC_DelSig_1_theACLK.c **** #include <cydevice_trm.h>
  18:.\Generated_Source\PSoC5/ADC_DelSig_1_theACLK.c **** #include "ADC_DelSig_1_theACLK.h"
  19:.\Generated_Source\PSoC5/ADC_DelSig_1_theACLK.c **** 
  20:.\Generated_Source\PSoC5/ADC_DelSig_1_theACLK.c **** /* Clock Distribution registers. */
  21:.\Generated_Source\PSoC5/ADC_DelSig_1_theACLK.c **** #define CLK_DIST_LD              (* (reg8 *) CYREG_CLKDIST_LD)
  22:.\Generated_Source\PSoC5/ADC_DelSig_1_theACLK.c **** #define CLK_DIST_BCFG2           (* (reg8 *) CYREG_CLKDIST_BCFG2)
  23:.\Generated_Source\PSoC5/ADC_DelSig_1_theACLK.c **** #define BCFG2_MASK               (0x80u)
  24:.\Generated_Source\PSoC5/ADC_DelSig_1_theACLK.c **** #define CLK_DIST_DMASK           (* (reg8 *) CYREG_CLKDIST_DMASK)
  25:.\Generated_Source\PSoC5/ADC_DelSig_1_theACLK.c **** #define CLK_DIST_AMASK           (* (reg8 *) CYREG_CLKDIST_AMASK)
  26:.\Generated_Source\PSoC5/ADC_DelSig_1_theACLK.c **** 
  27:.\Generated_Source\PSoC5/ADC_DelSig_1_theACLK.c **** #define HAS_CLKDIST_LD_DISABLE   (CY_PSOC3 || CY_PSOC5LP)
  28:.\Generated_Source\PSoC5/ADC_DelSig_1_theACLK.c **** 
  29:.\Generated_Source\PSoC5/ADC_DelSig_1_theACLK.c **** 
  30:.\Generated_Source\PSoC5/ADC_DelSig_1_theACLK.c **** /*******************************************************************************
  31:.\Generated_Source\PSoC5/ADC_DelSig_1_theACLK.c **** * Function Name: ADC_DelSig_1_theACLK_Start
ARM GAS  C:\Users\mjphi\AppData\Local\Temp\cc574Kz8.s 			page 2


  32:.\Generated_Source\PSoC5/ADC_DelSig_1_theACLK.c **** ********************************************************************************
  33:.\Generated_Source\PSoC5/ADC_DelSig_1_theACLK.c **** *
  34:.\Generated_Source\PSoC5/ADC_DelSig_1_theACLK.c **** * Summary:
  35:.\Generated_Source\PSoC5/ADC_DelSig_1_theACLK.c **** *  Starts the clock. Note that on startup, clocks may be already running if the
  36:.\Generated_Source\PSoC5/ADC_DelSig_1_theACLK.c **** *  "Start on Reset" option is enabled in the DWR.
  37:.\Generated_Source\PSoC5/ADC_DelSig_1_theACLK.c **** *
  38:.\Generated_Source\PSoC5/ADC_DelSig_1_theACLK.c **** * Parameters:
  39:.\Generated_Source\PSoC5/ADC_DelSig_1_theACLK.c **** *  None
  40:.\Generated_Source\PSoC5/ADC_DelSig_1_theACLK.c **** *
  41:.\Generated_Source\PSoC5/ADC_DelSig_1_theACLK.c **** * Returns:
  42:.\Generated_Source\PSoC5/ADC_DelSig_1_theACLK.c **** *  None
  43:.\Generated_Source\PSoC5/ADC_DelSig_1_theACLK.c **** *
  44:.\Generated_Source\PSoC5/ADC_DelSig_1_theACLK.c **** *******************************************************************************/
  45:.\Generated_Source\PSoC5/ADC_DelSig_1_theACLK.c **** void ADC_DelSig_1_theACLK_Start(void) 
  46:.\Generated_Source\PSoC5/ADC_DelSig_1_theACLK.c **** {
  27              		.loc 1 46 0
  28              		.cfi_startproc
  29              		@ args = 0, pretend = 0, frame = 0
  30              		@ frame_needed = 0, uses_anonymous_args = 0
  31              		@ link register save eliminated.
  47:.\Generated_Source\PSoC5/ADC_DelSig_1_theACLK.c ****     /* Set the bit to enable the clock. */
  48:.\Generated_Source\PSoC5/ADC_DelSig_1_theACLK.c ****     ADC_DelSig_1_theACLK_CLKEN |= ADC_DelSig_1_theACLK_CLKEN_MASK;
  32              		.loc 1 48 0
  33 0000 044A     		ldr	r2, .L2
  34 0002 1378     		ldrb	r3, [r2]	@ zero_extendqisi2
  35 0004 43F00103 		orr	r3, r3, #1
  36 0008 1370     		strb	r3, [r2]
  49:.\Generated_Source\PSoC5/ADC_DelSig_1_theACLK.c **** 	ADC_DelSig_1_theACLK_CLKSTBY |= ADC_DelSig_1_theACLK_CLKSTBY_MASK;
  37              		.loc 1 49 0
  38 000a 137C     		ldrb	r3, [r2, #16]	@ zero_extendqisi2
  39 000c 43F00103 		orr	r3, r3, #1
  40 0010 1374     		strb	r3, [r2, #16]
  41 0012 7047     		bx	lr
  42              	.L3:
  43              		.align	2
  44              	.L2:
  45 0014 A1430040 		.word	1073759137
  46              		.cfi_endproc
  47              	.LFE0:
  48              		.size	ADC_DelSig_1_theACLK_Start, .-ADC_DelSig_1_theACLK_Start
  49              		.section	.text.ADC_DelSig_1_theACLK_Stop,"ax",%progbits
  50              		.align	1
  51              		.global	ADC_DelSig_1_theACLK_Stop
  52              		.thumb
  53              		.thumb_func
  54              		.type	ADC_DelSig_1_theACLK_Stop, %function
  55              	ADC_DelSig_1_theACLK_Stop:
  56              	.LFB1:
  50:.\Generated_Source\PSoC5/ADC_DelSig_1_theACLK.c **** }
  51:.\Generated_Source\PSoC5/ADC_DelSig_1_theACLK.c **** 
  52:.\Generated_Source\PSoC5/ADC_DelSig_1_theACLK.c **** 
  53:.\Generated_Source\PSoC5/ADC_DelSig_1_theACLK.c **** /*******************************************************************************
  54:.\Generated_Source\PSoC5/ADC_DelSig_1_theACLK.c **** * Function Name: ADC_DelSig_1_theACLK_Stop
  55:.\Generated_Source\PSoC5/ADC_DelSig_1_theACLK.c **** ********************************************************************************
  56:.\Generated_Source\PSoC5/ADC_DelSig_1_theACLK.c **** *
  57:.\Generated_Source\PSoC5/ADC_DelSig_1_theACLK.c **** * Summary:
  58:.\Generated_Source\PSoC5/ADC_DelSig_1_theACLK.c **** *  Stops the clock and returns immediately. This API does not require the
ARM GAS  C:\Users\mjphi\AppData\Local\Temp\cc574Kz8.s 			page 3


  59:.\Generated_Source\PSoC5/ADC_DelSig_1_theACLK.c **** *  source clock to be running but may return before the hardware is actually
  60:.\Generated_Source\PSoC5/ADC_DelSig_1_theACLK.c **** *  disabled. If the settings of the clock are changed after calling this
  61:.\Generated_Source\PSoC5/ADC_DelSig_1_theACLK.c **** *  function, the clock may glitch when it is started. To avoid the clock
  62:.\Generated_Source\PSoC5/ADC_DelSig_1_theACLK.c **** *  glitch, use the StopBlock function.
  63:.\Generated_Source\PSoC5/ADC_DelSig_1_theACLK.c **** *
  64:.\Generated_Source\PSoC5/ADC_DelSig_1_theACLK.c **** * Parameters:
  65:.\Generated_Source\PSoC5/ADC_DelSig_1_theACLK.c **** *  None
  66:.\Generated_Source\PSoC5/ADC_DelSig_1_theACLK.c **** *
  67:.\Generated_Source\PSoC5/ADC_DelSig_1_theACLK.c **** * Returns:
  68:.\Generated_Source\PSoC5/ADC_DelSig_1_theACLK.c **** *  None
  69:.\Generated_Source\PSoC5/ADC_DelSig_1_theACLK.c **** *
  70:.\Generated_Source\PSoC5/ADC_DelSig_1_theACLK.c **** *******************************************************************************/
  71:.\Generated_Source\PSoC5/ADC_DelSig_1_theACLK.c **** void ADC_DelSig_1_theACLK_Stop(void) 
  72:.\Generated_Source\PSoC5/ADC_DelSig_1_theACLK.c **** {
  57              		.loc 1 72 0
  58              		.cfi_startproc
  59              		@ args = 0, pretend = 0, frame = 0
  60              		@ frame_needed = 0, uses_anonymous_args = 0
  61              		@ link register save eliminated.
  73:.\Generated_Source\PSoC5/ADC_DelSig_1_theACLK.c ****     /* Clear the bit to disable the clock. */
  74:.\Generated_Source\PSoC5/ADC_DelSig_1_theACLK.c ****     ADC_DelSig_1_theACLK_CLKEN &= (uint8)(~ADC_DelSig_1_theACLK_CLKEN_MASK);
  62              		.loc 1 74 0
  63 0000 044A     		ldr	r2, .L5
  64 0002 1378     		ldrb	r3, [r2]	@ zero_extendqisi2
  65 0004 03F0FE03 		and	r3, r3, #254
  66 0008 1370     		strb	r3, [r2]
  75:.\Generated_Source\PSoC5/ADC_DelSig_1_theACLK.c **** 	ADC_DelSig_1_theACLK_CLKSTBY &= (uint8)(~ADC_DelSig_1_theACLK_CLKSTBY_MASK);
  67              		.loc 1 75 0
  68 000a 137C     		ldrb	r3, [r2, #16]	@ zero_extendqisi2
  69 000c 03F0FE03 		and	r3, r3, #254
  70 0010 1374     		strb	r3, [r2, #16]
  71 0012 7047     		bx	lr
  72              	.L6:
  73              		.align	2
  74              	.L5:
  75 0014 A1430040 		.word	1073759137
  76              		.cfi_endproc
  77              	.LFE1:
  78              		.size	ADC_DelSig_1_theACLK_Stop, .-ADC_DelSig_1_theACLK_Stop
  79              		.section	.text.ADC_DelSig_1_theACLK_StopBlock,"ax",%progbits
  80              		.align	1
  81              		.global	ADC_DelSig_1_theACLK_StopBlock
  82              		.thumb
  83              		.thumb_func
  84              		.type	ADC_DelSig_1_theACLK_StopBlock, %function
  85              	ADC_DelSig_1_theACLK_StopBlock:
  86              	.LFB2:
  76:.\Generated_Source\PSoC5/ADC_DelSig_1_theACLK.c **** }
  77:.\Generated_Source\PSoC5/ADC_DelSig_1_theACLK.c **** 
  78:.\Generated_Source\PSoC5/ADC_DelSig_1_theACLK.c **** 
  79:.\Generated_Source\PSoC5/ADC_DelSig_1_theACLK.c **** #if(CY_PSOC3 || CY_PSOC5LP)
  80:.\Generated_Source\PSoC5/ADC_DelSig_1_theACLK.c **** 
  81:.\Generated_Source\PSoC5/ADC_DelSig_1_theACLK.c **** 
  82:.\Generated_Source\PSoC5/ADC_DelSig_1_theACLK.c **** /*******************************************************************************
  83:.\Generated_Source\PSoC5/ADC_DelSig_1_theACLK.c **** * Function Name: ADC_DelSig_1_theACLK_StopBlock
  84:.\Generated_Source\PSoC5/ADC_DelSig_1_theACLK.c **** ********************************************************************************
  85:.\Generated_Source\PSoC5/ADC_DelSig_1_theACLK.c **** *
ARM GAS  C:\Users\mjphi\AppData\Local\Temp\cc574Kz8.s 			page 4


  86:.\Generated_Source\PSoC5/ADC_DelSig_1_theACLK.c **** * Summary:
  87:.\Generated_Source\PSoC5/ADC_DelSig_1_theACLK.c **** *  Stops the clock and waits for the hardware to actually be disabled before
  88:.\Generated_Source\PSoC5/ADC_DelSig_1_theACLK.c **** *  returning. This ensures that the clock is never truncated (high part of the
  89:.\Generated_Source\PSoC5/ADC_DelSig_1_theACLK.c **** *  cycle will terminate before the clock is disabled and the API returns).
  90:.\Generated_Source\PSoC5/ADC_DelSig_1_theACLK.c **** *  Note that the source clock must be running or this API will never return as
  91:.\Generated_Source\PSoC5/ADC_DelSig_1_theACLK.c **** *  a stopped clock cannot be disabled.
  92:.\Generated_Source\PSoC5/ADC_DelSig_1_theACLK.c **** *
  93:.\Generated_Source\PSoC5/ADC_DelSig_1_theACLK.c **** * Parameters:
  94:.\Generated_Source\PSoC5/ADC_DelSig_1_theACLK.c **** *  None
  95:.\Generated_Source\PSoC5/ADC_DelSig_1_theACLK.c **** *
  96:.\Generated_Source\PSoC5/ADC_DelSig_1_theACLK.c **** * Returns:
  97:.\Generated_Source\PSoC5/ADC_DelSig_1_theACLK.c **** *  None
  98:.\Generated_Source\PSoC5/ADC_DelSig_1_theACLK.c **** *
  99:.\Generated_Source\PSoC5/ADC_DelSig_1_theACLK.c **** *******************************************************************************/
 100:.\Generated_Source\PSoC5/ADC_DelSig_1_theACLK.c **** void ADC_DelSig_1_theACLK_StopBlock(void) 
 101:.\Generated_Source\PSoC5/ADC_DelSig_1_theACLK.c **** {
  87              		.loc 1 101 0
  88              		.cfi_startproc
  89              		@ args = 0, pretend = 0, frame = 0
  90              		@ frame_needed = 0, uses_anonymous_args = 0
  91 0000 10B5     		push	{r4, lr}
  92              		.cfi_def_cfa_offset 8
  93              		.cfi_offset 4, -8
  94              		.cfi_offset 14, -4
 102:.\Generated_Source\PSoC5/ADC_DelSig_1_theACLK.c ****     if ((ADC_DelSig_1_theACLK_CLKEN & ADC_DelSig_1_theACLK_CLKEN_MASK) != 0u)
  95              		.loc 1 102 0
  96 0002 154B     		ldr	r3, .L15
  97 0004 1A78     		ldrb	r2, [r3]	@ zero_extendqisi2
  98 0006 D207     		lsls	r2, r2, #31
  99 0008 25D5     		bpl	.L7
 100              	.LBB10:
 103:.\Generated_Source\PSoC5/ADC_DelSig_1_theACLK.c ****     {
 104:.\Generated_Source\PSoC5/ADC_DelSig_1_theACLK.c **** #if HAS_CLKDIST_LD_DISABLE
 105:.\Generated_Source\PSoC5/ADC_DelSig_1_theACLK.c ****         uint16 oldDivider;
 106:.\Generated_Source\PSoC5/ADC_DelSig_1_theACLK.c **** 
 107:.\Generated_Source\PSoC5/ADC_DelSig_1_theACLK.c ****         CLK_DIST_LD = 0u;
 108:.\Generated_Source\PSoC5/ADC_DelSig_1_theACLK.c **** 
 109:.\Generated_Source\PSoC5/ADC_DelSig_1_theACLK.c ****         /* Clear all the mask bits except ours. */
 110:.\Generated_Source\PSoC5/ADC_DelSig_1_theACLK.c **** #if defined(ADC_DelSig_1_theACLK__CFG3)
 111:.\Generated_Source\PSoC5/ADC_DelSig_1_theACLK.c ****         CLK_DIST_AMASK = ADC_DelSig_1_theACLK_CLKEN_MASK;
 101              		.loc 1 111 0
 102 000a 1448     		ldr	r0, .L15+4
 107:.\Generated_Source\PSoC5/ADC_DelSig_1_theACLK.c **** 
 103              		.loc 1 107 0
 104 000c 144A     		ldr	r2, .L15+8
 105 000e 0021     		movs	r1, #0
 106              		.loc 1 111 0
 107 0010 0124     		movs	r4, #1
 107:.\Generated_Source\PSoC5/ADC_DelSig_1_theACLK.c **** 
 108              		.loc 1 107 0
 109 0012 1170     		strb	r1, [r2]
 110              		.loc 1 111 0
 111 0014 0470     		strb	r4, [r0]
 112:.\Generated_Source\PSoC5/ADC_DelSig_1_theACLK.c ****         CLK_DIST_DMASK = 0x00u;
 112              		.loc 1 112 0
 113 0016 00F8041C 		strb	r1, [r0, #-4]
 113:.\Generated_Source\PSoC5/ADC_DelSig_1_theACLK.c **** #else
ARM GAS  C:\Users\mjphi\AppData\Local\Temp\cc574Kz8.s 			page 5


 114:.\Generated_Source\PSoC5/ADC_DelSig_1_theACLK.c ****         CLK_DIST_DMASK = ADC_DelSig_1_theACLK_CLKEN_MASK;
 115:.\Generated_Source\PSoC5/ADC_DelSig_1_theACLK.c ****         CLK_DIST_AMASK = 0x00u;
 116:.\Generated_Source\PSoC5/ADC_DelSig_1_theACLK.c **** #endif /* ADC_DelSig_1_theACLK__CFG3 */
 117:.\Generated_Source\PSoC5/ADC_DelSig_1_theACLK.c **** 
 118:.\Generated_Source\PSoC5/ADC_DelSig_1_theACLK.c ****         /* Clear mask of bus clock. */
 119:.\Generated_Source\PSoC5/ADC_DelSig_1_theACLK.c ****         CLK_DIST_BCFG2 &= (uint8)(~BCFG2_MASK);
 114              		.loc 1 119 0
 115 001a 10F80C1C 		ldrb	r1, [r0, #-12]	@ zero_extendqisi2
 116 001e 01F07F01 		and	r1, r1, #127
 117 0022 00F80C1C 		strb	r1, [r0, #-12]
 120:.\Generated_Source\PSoC5/ADC_DelSig_1_theACLK.c **** 
 121:.\Generated_Source\PSoC5/ADC_DelSig_1_theACLK.c ****         oldDivider = CY_GET_REG16(ADC_DelSig_1_theACLK_DIV_PTR);
 118              		.loc 1 121 0
 119 0026 0F49     		ldr	r1, .L15+12
 120 0028 0888     		ldrh	r0, [r1]
 121 002a 80B2     		uxth	r0, r0
 122              	.LVL0:
 122:.\Generated_Source\PSoC5/ADC_DelSig_1_theACLK.c ****         CY_SET_REG16(CYREG_CLKDIST_WRK0, oldDivider);
 123              		.loc 1 122 0
 124 002c 21F8FE0C 		strh	r0, [r1, #-254]	@ movhi
 123:.\Generated_Source\PSoC5/ADC_DelSig_1_theACLK.c ****         CLK_DIST_LD = CYCLK_LD_DISABLE | CYCLK_LD_SYNC_EN | CYCLK_LD_LOAD;
 125              		.loc 1 123 0
 126 0030 0721     		movs	r1, #7
 127 0032 1170     		strb	r1, [r2]
 128              	.L9:
 124:.\Generated_Source\PSoC5/ADC_DelSig_1_theACLK.c **** 
 125:.\Generated_Source\PSoC5/ADC_DelSig_1_theACLK.c ****         /* Wait for clock to be disabled */
 126:.\Generated_Source\PSoC5/ADC_DelSig_1_theACLK.c ****         while ((CLK_DIST_LD & CYCLK_LD_LOAD) != 0u) { }
 129              		.loc 1 126 0 discriminator 1
 130 0034 1178     		ldrb	r1, [r2]	@ zero_extendqisi2
 131 0036 11F00101 		ands	r1, r1, #1
 132 003a FBD1     		bne	.L9
 127:.\Generated_Source\PSoC5/ADC_DelSig_1_theACLK.c **** #endif /* HAS_CLKDIST_LD_DISABLE */
 128:.\Generated_Source\PSoC5/ADC_DelSig_1_theACLK.c **** 
 129:.\Generated_Source\PSoC5/ADC_DelSig_1_theACLK.c ****         /* Clear the bit to disable the clock. */
 130:.\Generated_Source\PSoC5/ADC_DelSig_1_theACLK.c ****         ADC_DelSig_1_theACLK_CLKEN &= (uint8)(~ADC_DelSig_1_theACLK_CLKEN_MASK);
 133              		.loc 1 130 0
 134 003c 1A78     		ldrb	r2, [r3]	@ zero_extendqisi2
 135 003e 02F0FE02 		and	r2, r2, #254
 136 0042 1A70     		strb	r2, [r3]
 131:.\Generated_Source\PSoC5/ADC_DelSig_1_theACLK.c ****         ADC_DelSig_1_theACLK_CLKSTBY &= (uint8)(~ADC_DelSig_1_theACLK_CLKSTBY_MASK);
 137              		.loc 1 131 0
 138 0044 084A     		ldr	r2, .L15+16
 139 0046 1378     		ldrb	r3, [r2]	@ zero_extendqisi2
 140 0048 03F0FE03 		and	r3, r3, #254
 141 004c 1370     		strb	r3, [r2]
 132:.\Generated_Source\PSoC5/ADC_DelSig_1_theACLK.c **** 
 133:.\Generated_Source\PSoC5/ADC_DelSig_1_theACLK.c **** #if HAS_CLKDIST_LD_DISABLE
 134:.\Generated_Source\PSoC5/ADC_DelSig_1_theACLK.c ****         /* Clear the disable bit */
 135:.\Generated_Source\PSoC5/ADC_DelSig_1_theACLK.c ****         CLK_DIST_LD = 0x00u;
 142              		.loc 1 135 0
 143 004e 044B     		ldr	r3, .L15+8
 144 0050 1970     		strb	r1, [r3]
 136:.\Generated_Source\PSoC5/ADC_DelSig_1_theACLK.c ****         CY_SET_REG16(ADC_DelSig_1_theACLK_DIV_PTR, oldDivider);
 145              		.loc 1 136 0
 146 0052 A3F8FF00 		strh	r0, [r3, #255]	@ movhi
 147              	.LVL1:
ARM GAS  C:\Users\mjphi\AppData\Local\Temp\cc574Kz8.s 			page 6


 148              	.L7:
 149 0056 10BD     		pop	{r4, pc}
 150              	.L16:
 151              		.align	2
 152              	.L15:
 153 0058 A1430040 		.word	1073759137
 154 005c 14400040 		.word	1073758228
 155 0060 01400040 		.word	1073758209
 156 0064 00410040 		.word	1073758464
 157 0068 B1430040 		.word	1073759153
 158              	.LBE10:
 159              		.cfi_endproc
 160              	.LFE2:
 161              		.size	ADC_DelSig_1_theACLK_StopBlock, .-ADC_DelSig_1_theACLK_StopBlock
 162              		.section	.text.ADC_DelSig_1_theACLK_StandbyPower,"ax",%progbits
 163              		.align	1
 164              		.global	ADC_DelSig_1_theACLK_StandbyPower
 165              		.thumb
 166              		.thumb_func
 167              		.type	ADC_DelSig_1_theACLK_StandbyPower, %function
 168              	ADC_DelSig_1_theACLK_StandbyPower:
 169              	.LFB3:
 137:.\Generated_Source\PSoC5/ADC_DelSig_1_theACLK.c **** #endif /* HAS_CLKDIST_LD_DISABLE */
 138:.\Generated_Source\PSoC5/ADC_DelSig_1_theACLK.c ****     }
 139:.\Generated_Source\PSoC5/ADC_DelSig_1_theACLK.c **** }
 140:.\Generated_Source\PSoC5/ADC_DelSig_1_theACLK.c **** #endif /* (CY_PSOC3 || CY_PSOC5LP) */
 141:.\Generated_Source\PSoC5/ADC_DelSig_1_theACLK.c **** 
 142:.\Generated_Source\PSoC5/ADC_DelSig_1_theACLK.c **** 
 143:.\Generated_Source\PSoC5/ADC_DelSig_1_theACLK.c **** /*******************************************************************************
 144:.\Generated_Source\PSoC5/ADC_DelSig_1_theACLK.c **** * Function Name: ADC_DelSig_1_theACLK_StandbyPower
 145:.\Generated_Source\PSoC5/ADC_DelSig_1_theACLK.c **** ********************************************************************************
 146:.\Generated_Source\PSoC5/ADC_DelSig_1_theACLK.c **** *
 147:.\Generated_Source\PSoC5/ADC_DelSig_1_theACLK.c **** * Summary:
 148:.\Generated_Source\PSoC5/ADC_DelSig_1_theACLK.c **** *  Sets whether the clock is active in standby mode.
 149:.\Generated_Source\PSoC5/ADC_DelSig_1_theACLK.c **** *
 150:.\Generated_Source\PSoC5/ADC_DelSig_1_theACLK.c **** * Parameters:
 151:.\Generated_Source\PSoC5/ADC_DelSig_1_theACLK.c **** *  state:  0 to disable clock during standby, nonzero to enable.
 152:.\Generated_Source\PSoC5/ADC_DelSig_1_theACLK.c **** *
 153:.\Generated_Source\PSoC5/ADC_DelSig_1_theACLK.c **** * Returns:
 154:.\Generated_Source\PSoC5/ADC_DelSig_1_theACLK.c **** *  None
 155:.\Generated_Source\PSoC5/ADC_DelSig_1_theACLK.c **** *
 156:.\Generated_Source\PSoC5/ADC_DelSig_1_theACLK.c **** *******************************************************************************/
 157:.\Generated_Source\PSoC5/ADC_DelSig_1_theACLK.c **** void ADC_DelSig_1_theACLK_StandbyPower(uint8 state) 
 158:.\Generated_Source\PSoC5/ADC_DelSig_1_theACLK.c **** {
 170              		.loc 1 158 0
 171              		.cfi_startproc
 172              		@ args = 0, pretend = 0, frame = 0
 173              		@ frame_needed = 0, uses_anonymous_args = 0
 174              		@ link register save eliminated.
 175              	.LVL2:
 176 0000 044B     		ldr	r3, .L21
 159:.\Generated_Source\PSoC5/ADC_DelSig_1_theACLK.c ****     if(state == 0u)
 160:.\Generated_Source\PSoC5/ADC_DelSig_1_theACLK.c ****     {
 161:.\Generated_Source\PSoC5/ADC_DelSig_1_theACLK.c ****         ADC_DelSig_1_theACLK_CLKSTBY &= (uint8)(~ADC_DelSig_1_theACLK_CLKSTBY_MASK);
 177              		.loc 1 161 0
 178 0002 1A78     		ldrb	r2, [r3]	@ zero_extendqisi2
 159:.\Generated_Source\PSoC5/ADC_DelSig_1_theACLK.c ****     if(state == 0u)
ARM GAS  C:\Users\mjphi\AppData\Local\Temp\cc574Kz8.s 			page 7


 179              		.loc 1 159 0
 180 0004 10B9     		cbnz	r0, .L18
 181              		.loc 1 161 0
 182 0006 02F0FE02 		and	r2, r2, #254
 183 000a 01E0     		b	.L20
 184              	.L18:
 162:.\Generated_Source\PSoC5/ADC_DelSig_1_theACLK.c ****     }
 163:.\Generated_Source\PSoC5/ADC_DelSig_1_theACLK.c ****     else
 164:.\Generated_Source\PSoC5/ADC_DelSig_1_theACLK.c ****     {
 165:.\Generated_Source\PSoC5/ADC_DelSig_1_theACLK.c ****         ADC_DelSig_1_theACLK_CLKSTBY |= ADC_DelSig_1_theACLK_CLKSTBY_MASK;
 185              		.loc 1 165 0
 186 000c 42F00102 		orr	r2, r2, #1
 187              	.L20:
 188 0010 1A70     		strb	r2, [r3]
 189 0012 7047     		bx	lr
 190              	.L22:
 191              		.align	2
 192              	.L21:
 193 0014 B1430040 		.word	1073759153
 194              		.cfi_endproc
 195              	.LFE3:
 196              		.size	ADC_DelSig_1_theACLK_StandbyPower, .-ADC_DelSig_1_theACLK_StandbyPower
 197              		.section	.text.ADC_DelSig_1_theACLK_SetDividerRegister,"ax",%progbits
 198              		.align	1
 199              		.global	ADC_DelSig_1_theACLK_SetDividerRegister
 200              		.thumb
 201              		.thumb_func
 202              		.type	ADC_DelSig_1_theACLK_SetDividerRegister, %function
 203              	ADC_DelSig_1_theACLK_SetDividerRegister:
 204              	.LFB4:
 166:.\Generated_Source\PSoC5/ADC_DelSig_1_theACLK.c ****     }
 167:.\Generated_Source\PSoC5/ADC_DelSig_1_theACLK.c **** }
 168:.\Generated_Source\PSoC5/ADC_DelSig_1_theACLK.c **** 
 169:.\Generated_Source\PSoC5/ADC_DelSig_1_theACLK.c **** 
 170:.\Generated_Source\PSoC5/ADC_DelSig_1_theACLK.c **** /*******************************************************************************
 171:.\Generated_Source\PSoC5/ADC_DelSig_1_theACLK.c **** * Function Name: ADC_DelSig_1_theACLK_SetDividerRegister
 172:.\Generated_Source\PSoC5/ADC_DelSig_1_theACLK.c **** ********************************************************************************
 173:.\Generated_Source\PSoC5/ADC_DelSig_1_theACLK.c **** *
 174:.\Generated_Source\PSoC5/ADC_DelSig_1_theACLK.c **** * Summary:
 175:.\Generated_Source\PSoC5/ADC_DelSig_1_theACLK.c **** *  Modifies the clock divider and, thus, the frequency. When the clock divider
 176:.\Generated_Source\PSoC5/ADC_DelSig_1_theACLK.c **** *  register is set to zero or changed from zero, the clock will be temporarily
 177:.\Generated_Source\PSoC5/ADC_DelSig_1_theACLK.c **** *  disabled in order to change the SSS mode bit. If the clock is enabled when
 178:.\Generated_Source\PSoC5/ADC_DelSig_1_theACLK.c **** *  SetDividerRegister is called, then the source clock must be running.
 179:.\Generated_Source\PSoC5/ADC_DelSig_1_theACLK.c **** *
 180:.\Generated_Source\PSoC5/ADC_DelSig_1_theACLK.c **** * Parameters:
 181:.\Generated_Source\PSoC5/ADC_DelSig_1_theACLK.c **** *  clkDivider:  Divider register value (0-65,535). This value is NOT the
 182:.\Generated_Source\PSoC5/ADC_DelSig_1_theACLK.c **** *    divider; the clock hardware divides by clkDivider plus one. For example,
 183:.\Generated_Source\PSoC5/ADC_DelSig_1_theACLK.c **** *    to divide the clock by 2, this parameter should be set to 1.
 184:.\Generated_Source\PSoC5/ADC_DelSig_1_theACLK.c **** *  restart:  If nonzero, restarts the clock divider: the current clock cycle
 185:.\Generated_Source\PSoC5/ADC_DelSig_1_theACLK.c **** *   will be truncated and the new divide value will take effect immediately. If
 186:.\Generated_Source\PSoC5/ADC_DelSig_1_theACLK.c **** *   zero, the new divide value will take effect at the end of the current clock
 187:.\Generated_Source\PSoC5/ADC_DelSig_1_theACLK.c **** *   cycle.
 188:.\Generated_Source\PSoC5/ADC_DelSig_1_theACLK.c **** *
 189:.\Generated_Source\PSoC5/ADC_DelSig_1_theACLK.c **** * Returns:
 190:.\Generated_Source\PSoC5/ADC_DelSig_1_theACLK.c **** *  None
 191:.\Generated_Source\PSoC5/ADC_DelSig_1_theACLK.c **** *
 192:.\Generated_Source\PSoC5/ADC_DelSig_1_theACLK.c **** *******************************************************************************/
ARM GAS  C:\Users\mjphi\AppData\Local\Temp\cc574Kz8.s 			page 8


 193:.\Generated_Source\PSoC5/ADC_DelSig_1_theACLK.c **** void ADC_DelSig_1_theACLK_SetDividerRegister(uint16 clkDivider, uint8 restart)
 194:.\Generated_Source\PSoC5/ADC_DelSig_1_theACLK.c ****                                 
 195:.\Generated_Source\PSoC5/ADC_DelSig_1_theACLK.c **** {
 205              		.loc 1 195 0
 206              		.cfi_startproc
 207              		@ args = 0, pretend = 0, frame = 0
 208              		@ frame_needed = 0, uses_anonymous_args = 0
 209              	.LVL3:
 210 0000 F0B5     		push	{r4, r5, r6, r7, lr}
 211              		.cfi_def_cfa_offset 20
 212              		.cfi_offset 4, -20
 213              		.cfi_offset 5, -16
 214              		.cfi_offset 6, -12
 215              		.cfi_offset 7, -8
 216              		.cfi_offset 14, -4
 217              	.LBB11:
 218              	.LBB12:
 196:.\Generated_Source\PSoC5/ADC_DelSig_1_theACLK.c ****     uint8 enabled;
 197:.\Generated_Source\PSoC5/ADC_DelSig_1_theACLK.c **** 
 198:.\Generated_Source\PSoC5/ADC_DelSig_1_theACLK.c ****     uint8 currSrc = ADC_DelSig_1_theACLK_GetSourceRegister();
 199:.\Generated_Source\PSoC5/ADC_DelSig_1_theACLK.c ****     uint16 oldDivider = ADC_DelSig_1_theACLK_GetDividerRegister();
 200:.\Generated_Source\PSoC5/ADC_DelSig_1_theACLK.c **** 
 201:.\Generated_Source\PSoC5/ADC_DelSig_1_theACLK.c ****     if (clkDivider != oldDivider)
 202:.\Generated_Source\PSoC5/ADC_DelSig_1_theACLK.c ****     {
 203:.\Generated_Source\PSoC5/ADC_DelSig_1_theACLK.c ****         enabled = ADC_DelSig_1_theACLK_CLKEN & ADC_DelSig_1_theACLK_CLKEN_MASK;
 204:.\Generated_Source\PSoC5/ADC_DelSig_1_theACLK.c **** 
 205:.\Generated_Source\PSoC5/ADC_DelSig_1_theACLK.c ****         if ((currSrc == (uint8)CYCLK_SRC_SEL_CLK_SYNC_D) && ((oldDivider == 0u) || (clkDivider == 0
 206:.\Generated_Source\PSoC5/ADC_DelSig_1_theACLK.c ****         {
 207:.\Generated_Source\PSoC5/ADC_DelSig_1_theACLK.c ****             /* Moving to/from SSS requires correct ordering to prevent halting the clock    */
 208:.\Generated_Source\PSoC5/ADC_DelSig_1_theACLK.c ****             if (oldDivider == 0u)
 209:.\Generated_Source\PSoC5/ADC_DelSig_1_theACLK.c ****             {
 210:.\Generated_Source\PSoC5/ADC_DelSig_1_theACLK.c ****                 /* Moving away from SSS, set the divider first so when SSS is cleared we    */
 211:.\Generated_Source\PSoC5/ADC_DelSig_1_theACLK.c ****                 /* don't halt the clock.  Using the shadow load isn't required as the       */
 212:.\Generated_Source\PSoC5/ADC_DelSig_1_theACLK.c ****                 /* divider is ignored while SSS is set.                                     */
 213:.\Generated_Source\PSoC5/ADC_DelSig_1_theACLK.c ****                 CY_SET_REG16(ADC_DelSig_1_theACLK_DIV_PTR, clkDivider);
 214:.\Generated_Source\PSoC5/ADC_DelSig_1_theACLK.c ****                 ADC_DelSig_1_theACLK_MOD_SRC &= (uint8)(~CYCLK_SSS);
 215:.\Generated_Source\PSoC5/ADC_DelSig_1_theACLK.c ****             }
 216:.\Generated_Source\PSoC5/ADC_DelSig_1_theACLK.c ****             else
 217:.\Generated_Source\PSoC5/ADC_DelSig_1_theACLK.c ****             {
 218:.\Generated_Source\PSoC5/ADC_DelSig_1_theACLK.c ****                 /* Moving to SSS, set SSS which then ignores the divider and we can set     */
 219:.\Generated_Source\PSoC5/ADC_DelSig_1_theACLK.c ****                 /* it without bothering with the shadow load.                               */
 220:.\Generated_Source\PSoC5/ADC_DelSig_1_theACLK.c ****                 ADC_DelSig_1_theACLK_MOD_SRC |= CYCLK_SSS;
 221:.\Generated_Source\PSoC5/ADC_DelSig_1_theACLK.c ****                 CY_SET_REG16(ADC_DelSig_1_theACLK_DIV_PTR, clkDivider);
 222:.\Generated_Source\PSoC5/ADC_DelSig_1_theACLK.c ****             }
 223:.\Generated_Source\PSoC5/ADC_DelSig_1_theACLK.c ****         }
 224:.\Generated_Source\PSoC5/ADC_DelSig_1_theACLK.c ****         else
 225:.\Generated_Source\PSoC5/ADC_DelSig_1_theACLK.c ****         {
 226:.\Generated_Source\PSoC5/ADC_DelSig_1_theACLK.c **** 			
 227:.\Generated_Source\PSoC5/ADC_DelSig_1_theACLK.c ****             if (enabled != 0u)
 228:.\Generated_Source\PSoC5/ADC_DelSig_1_theACLK.c ****             {
 229:.\Generated_Source\PSoC5/ADC_DelSig_1_theACLK.c ****                 CLK_DIST_LD = 0x00u;
 230:.\Generated_Source\PSoC5/ADC_DelSig_1_theACLK.c **** 
 231:.\Generated_Source\PSoC5/ADC_DelSig_1_theACLK.c ****                 /* Clear all the mask bits except ours. */
 232:.\Generated_Source\PSoC5/ADC_DelSig_1_theACLK.c **** #if defined(ADC_DelSig_1_theACLK__CFG3)
 233:.\Generated_Source\PSoC5/ADC_DelSig_1_theACLK.c ****                 CLK_DIST_AMASK = ADC_DelSig_1_theACLK_CLKEN_MASK;
 234:.\Generated_Source\PSoC5/ADC_DelSig_1_theACLK.c ****                 CLK_DIST_DMASK = 0x00u;
 235:.\Generated_Source\PSoC5/ADC_DelSig_1_theACLK.c **** #else
ARM GAS  C:\Users\mjphi\AppData\Local\Temp\cc574Kz8.s 			page 9


 236:.\Generated_Source\PSoC5/ADC_DelSig_1_theACLK.c ****                 CLK_DIST_DMASK = ADC_DelSig_1_theACLK_CLKEN_MASK;
 237:.\Generated_Source\PSoC5/ADC_DelSig_1_theACLK.c ****                 CLK_DIST_AMASK = 0x00u;
 238:.\Generated_Source\PSoC5/ADC_DelSig_1_theACLK.c **** #endif /* ADC_DelSig_1_theACLK__CFG3 */
 239:.\Generated_Source\PSoC5/ADC_DelSig_1_theACLK.c ****                 /* Clear mask of bus clock. */
 240:.\Generated_Source\PSoC5/ADC_DelSig_1_theACLK.c ****                 CLK_DIST_BCFG2 &= (uint8)(~BCFG2_MASK);
 241:.\Generated_Source\PSoC5/ADC_DelSig_1_theACLK.c **** 
 242:.\Generated_Source\PSoC5/ADC_DelSig_1_theACLK.c ****                 /* If clock is currently enabled, disable it if async or going from N-to-1*/
 243:.\Generated_Source\PSoC5/ADC_DelSig_1_theACLK.c ****                 if (((ADC_DelSig_1_theACLK_MOD_SRC & CYCLK_SYNC) == 0u) || (clkDivider == 0u))
 244:.\Generated_Source\PSoC5/ADC_DelSig_1_theACLK.c ****                 {
 245:.\Generated_Source\PSoC5/ADC_DelSig_1_theACLK.c **** #if HAS_CLKDIST_LD_DISABLE
 246:.\Generated_Source\PSoC5/ADC_DelSig_1_theACLK.c ****                     CY_SET_REG16(CYREG_CLKDIST_WRK0, oldDivider);
 247:.\Generated_Source\PSoC5/ADC_DelSig_1_theACLK.c ****                     CLK_DIST_LD = CYCLK_LD_DISABLE|CYCLK_LD_SYNC_EN|CYCLK_LD_LOAD;
 248:.\Generated_Source\PSoC5/ADC_DelSig_1_theACLK.c **** 
 249:.\Generated_Source\PSoC5/ADC_DelSig_1_theACLK.c ****                     /* Wait for clock to be disabled */
 250:.\Generated_Source\PSoC5/ADC_DelSig_1_theACLK.c ****                     while ((CLK_DIST_LD & CYCLK_LD_LOAD) != 0u) { }
 251:.\Generated_Source\PSoC5/ADC_DelSig_1_theACLK.c **** #endif /* HAS_CLKDIST_LD_DISABLE */
 252:.\Generated_Source\PSoC5/ADC_DelSig_1_theACLK.c **** 
 253:.\Generated_Source\PSoC5/ADC_DelSig_1_theACLK.c ****                     ADC_DelSig_1_theACLK_CLKEN &= (uint8)(~ADC_DelSig_1_theACLK_CLKEN_MASK);
 254:.\Generated_Source\PSoC5/ADC_DelSig_1_theACLK.c **** 
 255:.\Generated_Source\PSoC5/ADC_DelSig_1_theACLK.c **** #if HAS_CLKDIST_LD_DISABLE
 256:.\Generated_Source\PSoC5/ADC_DelSig_1_theACLK.c ****                     /* Clear the disable bit */
 257:.\Generated_Source\PSoC5/ADC_DelSig_1_theACLK.c ****                     CLK_DIST_LD = 0x00u;
 258:.\Generated_Source\PSoC5/ADC_DelSig_1_theACLK.c **** #endif /* HAS_CLKDIST_LD_DISABLE */
 259:.\Generated_Source\PSoC5/ADC_DelSig_1_theACLK.c ****                 }
 260:.\Generated_Source\PSoC5/ADC_DelSig_1_theACLK.c ****             }
 261:.\Generated_Source\PSoC5/ADC_DelSig_1_theACLK.c **** 
 262:.\Generated_Source\PSoC5/ADC_DelSig_1_theACLK.c ****             /* Load divide value. */
 263:.\Generated_Source\PSoC5/ADC_DelSig_1_theACLK.c ****             if ((ADC_DelSig_1_theACLK_CLKEN & ADC_DelSig_1_theACLK_CLKEN_MASK) != 0u)
 264:.\Generated_Source\PSoC5/ADC_DelSig_1_theACLK.c ****             {
 265:.\Generated_Source\PSoC5/ADC_DelSig_1_theACLK.c ****                 /* If the clock is still enabled, use the shadow registers */
 266:.\Generated_Source\PSoC5/ADC_DelSig_1_theACLK.c ****                 CY_SET_REG16(CYREG_CLKDIST_WRK0, clkDivider);
 267:.\Generated_Source\PSoC5/ADC_DelSig_1_theACLK.c **** 
 268:.\Generated_Source\PSoC5/ADC_DelSig_1_theACLK.c ****                 CLK_DIST_LD = (CYCLK_LD_LOAD | ((restart != 0u) ? CYCLK_LD_SYNC_EN : 0x00u));
 269:.\Generated_Source\PSoC5/ADC_DelSig_1_theACLK.c ****                 while ((CLK_DIST_LD & CYCLK_LD_LOAD) != 0u) { }
 270:.\Generated_Source\PSoC5/ADC_DelSig_1_theACLK.c ****             }
 271:.\Generated_Source\PSoC5/ADC_DelSig_1_theACLK.c ****             else
 272:.\Generated_Source\PSoC5/ADC_DelSig_1_theACLK.c ****             {
 273:.\Generated_Source\PSoC5/ADC_DelSig_1_theACLK.c ****                 /* If the clock is disabled, set the divider directly */
 274:.\Generated_Source\PSoC5/ADC_DelSig_1_theACLK.c ****                 CY_SET_REG16(ADC_DelSig_1_theACLK_DIV_PTR, clkDivider);
 275:.\Generated_Source\PSoC5/ADC_DelSig_1_theACLK.c **** 				ADC_DelSig_1_theACLK_CLKEN |= enabled;
 276:.\Generated_Source\PSoC5/ADC_DelSig_1_theACLK.c ****             }
 277:.\Generated_Source\PSoC5/ADC_DelSig_1_theACLK.c ****         }
 278:.\Generated_Source\PSoC5/ADC_DelSig_1_theACLK.c ****     }
 279:.\Generated_Source\PSoC5/ADC_DelSig_1_theACLK.c **** }
 280:.\Generated_Source\PSoC5/ADC_DelSig_1_theACLK.c **** 
 281:.\Generated_Source\PSoC5/ADC_DelSig_1_theACLK.c **** 
 282:.\Generated_Source\PSoC5/ADC_DelSig_1_theACLK.c **** /*******************************************************************************
 283:.\Generated_Source\PSoC5/ADC_DelSig_1_theACLK.c **** * Function Name: ADC_DelSig_1_theACLK_GetDividerRegister
 284:.\Generated_Source\PSoC5/ADC_DelSig_1_theACLK.c **** ********************************************************************************
 285:.\Generated_Source\PSoC5/ADC_DelSig_1_theACLK.c **** *
 286:.\Generated_Source\PSoC5/ADC_DelSig_1_theACLK.c **** * Summary:
 287:.\Generated_Source\PSoC5/ADC_DelSig_1_theACLK.c **** *  Gets the clock divider register value.
 288:.\Generated_Source\PSoC5/ADC_DelSig_1_theACLK.c **** *
 289:.\Generated_Source\PSoC5/ADC_DelSig_1_theACLK.c **** * Parameters:
 290:.\Generated_Source\PSoC5/ADC_DelSig_1_theACLK.c **** *  None
 291:.\Generated_Source\PSoC5/ADC_DelSig_1_theACLK.c **** *
 292:.\Generated_Source\PSoC5/ADC_DelSig_1_theACLK.c **** * Returns:
ARM GAS  C:\Users\mjphi\AppData\Local\Temp\cc574Kz8.s 			page 10


 293:.\Generated_Source\PSoC5/ADC_DelSig_1_theACLK.c **** *  Divide value of the clock minus 1. For example, if the clock is set to
 294:.\Generated_Source\PSoC5/ADC_DelSig_1_theACLK.c **** *  divide by 2, the return value will be 1.
 295:.\Generated_Source\PSoC5/ADC_DelSig_1_theACLK.c **** *
 296:.\Generated_Source\PSoC5/ADC_DelSig_1_theACLK.c **** *******************************************************************************/
 297:.\Generated_Source\PSoC5/ADC_DelSig_1_theACLK.c **** uint16 ADC_DelSig_1_theACLK_GetDividerRegister(void) 
 298:.\Generated_Source\PSoC5/ADC_DelSig_1_theACLK.c **** {
 299:.\Generated_Source\PSoC5/ADC_DelSig_1_theACLK.c ****     return CY_GET_REG16(ADC_DelSig_1_theACLK_DIV_PTR);
 300:.\Generated_Source\PSoC5/ADC_DelSig_1_theACLK.c **** }
 301:.\Generated_Source\PSoC5/ADC_DelSig_1_theACLK.c **** 
 302:.\Generated_Source\PSoC5/ADC_DelSig_1_theACLK.c **** 
 303:.\Generated_Source\PSoC5/ADC_DelSig_1_theACLK.c **** /*******************************************************************************
 304:.\Generated_Source\PSoC5/ADC_DelSig_1_theACLK.c **** * Function Name: ADC_DelSig_1_theACLK_SetModeRegister
 305:.\Generated_Source\PSoC5/ADC_DelSig_1_theACLK.c **** ********************************************************************************
 306:.\Generated_Source\PSoC5/ADC_DelSig_1_theACLK.c **** *
 307:.\Generated_Source\PSoC5/ADC_DelSig_1_theACLK.c **** * Summary:
 308:.\Generated_Source\PSoC5/ADC_DelSig_1_theACLK.c **** *  Sets flags that control the operating mode of the clock. This function only
 309:.\Generated_Source\PSoC5/ADC_DelSig_1_theACLK.c **** *  changes flags from 0 to 1; flags that are already 1 will remain unchanged.
 310:.\Generated_Source\PSoC5/ADC_DelSig_1_theACLK.c **** *  To clear flags, use the ClearModeRegister function. The clock must be
 311:.\Generated_Source\PSoC5/ADC_DelSig_1_theACLK.c **** *  disabled before changing the mode.
 312:.\Generated_Source\PSoC5/ADC_DelSig_1_theACLK.c **** *
 313:.\Generated_Source\PSoC5/ADC_DelSig_1_theACLK.c **** * Parameters:
 314:.\Generated_Source\PSoC5/ADC_DelSig_1_theACLK.c **** *  clkMode: Bit mask containing the bits to set. For PSoC 3 and PSoC 5,
 315:.\Generated_Source\PSoC5/ADC_DelSig_1_theACLK.c **** *   clkMode should be a set of the following optional bits or'ed together.
 316:.\Generated_Source\PSoC5/ADC_DelSig_1_theACLK.c **** *   - CYCLK_EARLY Enable early phase mode. Rising edge of output clock will
 317:.\Generated_Source\PSoC5/ADC_DelSig_1_theACLK.c **** *                 occur when the divider count reaches half of the divide
 318:.\Generated_Source\PSoC5/ADC_DelSig_1_theACLK.c **** *                 value.
 319:.\Generated_Source\PSoC5/ADC_DelSig_1_theACLK.c **** *   - CYCLK_DUTY  Enable 50% duty cycle output. When enabled, the output clock
 320:.\Generated_Source\PSoC5/ADC_DelSig_1_theACLK.c **** *                 is asserted for approximately half of its period. When
 321:.\Generated_Source\PSoC5/ADC_DelSig_1_theACLK.c **** *                 disabled, the output clock is asserted for one period of the
 322:.\Generated_Source\PSoC5/ADC_DelSig_1_theACLK.c **** *                 source clock.
 323:.\Generated_Source\PSoC5/ADC_DelSig_1_theACLK.c **** *   - CYCLK_SYNC  Enable output synchronization to master clock. This should
 324:.\Generated_Source\PSoC5/ADC_DelSig_1_theACLK.c **** *                 be enabled for all synchronous clocks.
 325:.\Generated_Source\PSoC5/ADC_DelSig_1_theACLK.c **** *   See the Technical Reference Manual for details about setting the mode of
 326:.\Generated_Source\PSoC5/ADC_DelSig_1_theACLK.c **** *   the clock. Specifically, see the CLKDIST.DCFG.CFG2 register.
 327:.\Generated_Source\PSoC5/ADC_DelSig_1_theACLK.c **** *
 328:.\Generated_Source\PSoC5/ADC_DelSig_1_theACLK.c **** * Returns:
 329:.\Generated_Source\PSoC5/ADC_DelSig_1_theACLK.c **** *  None
 330:.\Generated_Source\PSoC5/ADC_DelSig_1_theACLK.c **** *
 331:.\Generated_Source\PSoC5/ADC_DelSig_1_theACLK.c **** *******************************************************************************/
 332:.\Generated_Source\PSoC5/ADC_DelSig_1_theACLK.c **** void ADC_DelSig_1_theACLK_SetModeRegister(uint8 modeBitMask) 
 333:.\Generated_Source\PSoC5/ADC_DelSig_1_theACLK.c **** {
 334:.\Generated_Source\PSoC5/ADC_DelSig_1_theACLK.c ****     ADC_DelSig_1_theACLK_MOD_SRC |= modeBitMask & (uint8)ADC_DelSig_1_theACLK_MODE_MASK;
 335:.\Generated_Source\PSoC5/ADC_DelSig_1_theACLK.c **** }
 336:.\Generated_Source\PSoC5/ADC_DelSig_1_theACLK.c **** 
 337:.\Generated_Source\PSoC5/ADC_DelSig_1_theACLK.c **** 
 338:.\Generated_Source\PSoC5/ADC_DelSig_1_theACLK.c **** /*******************************************************************************
 339:.\Generated_Source\PSoC5/ADC_DelSig_1_theACLK.c **** * Function Name: ADC_DelSig_1_theACLK_ClearModeRegister
 340:.\Generated_Source\PSoC5/ADC_DelSig_1_theACLK.c **** ********************************************************************************
 341:.\Generated_Source\PSoC5/ADC_DelSig_1_theACLK.c **** *
 342:.\Generated_Source\PSoC5/ADC_DelSig_1_theACLK.c **** * Summary:
 343:.\Generated_Source\PSoC5/ADC_DelSig_1_theACLK.c **** *  Clears flags that control the operating mode of the clock. This function
 344:.\Generated_Source\PSoC5/ADC_DelSig_1_theACLK.c **** *  only changes flags from 1 to 0; flags that are already 0 will remain
 345:.\Generated_Source\PSoC5/ADC_DelSig_1_theACLK.c **** *  unchanged. To set flags, use the SetModeRegister function. The clock must be
 346:.\Generated_Source\PSoC5/ADC_DelSig_1_theACLK.c **** *  disabled before changing the mode.
 347:.\Generated_Source\PSoC5/ADC_DelSig_1_theACLK.c **** *
 348:.\Generated_Source\PSoC5/ADC_DelSig_1_theACLK.c **** * Parameters:
 349:.\Generated_Source\PSoC5/ADC_DelSig_1_theACLK.c **** *  clkMode: Bit mask containing the bits to clear. For PSoC 3 and PSoC 5,
ARM GAS  C:\Users\mjphi\AppData\Local\Temp\cc574Kz8.s 			page 11


 350:.\Generated_Source\PSoC5/ADC_DelSig_1_theACLK.c **** *   clkMode should be a set of the following optional bits or'ed together.
 351:.\Generated_Source\PSoC5/ADC_DelSig_1_theACLK.c **** *   - CYCLK_EARLY Enable early phase mode. Rising edge of output clock will
 352:.\Generated_Source\PSoC5/ADC_DelSig_1_theACLK.c **** *                 occur when the divider count reaches half of the divide
 353:.\Generated_Source\PSoC5/ADC_DelSig_1_theACLK.c **** *                 value.
 354:.\Generated_Source\PSoC5/ADC_DelSig_1_theACLK.c **** *   - CYCLK_DUTY  Enable 50% duty cycle output. When enabled, the output clock
 355:.\Generated_Source\PSoC5/ADC_DelSig_1_theACLK.c **** *                 is asserted for approximately half of its period. When
 356:.\Generated_Source\PSoC5/ADC_DelSig_1_theACLK.c **** *                 disabled, the output clock is asserted for one period of the
 357:.\Generated_Source\PSoC5/ADC_DelSig_1_theACLK.c **** *                 source clock.
 358:.\Generated_Source\PSoC5/ADC_DelSig_1_theACLK.c **** *   - CYCLK_SYNC  Enable output synchronization to master clock. This should
 359:.\Generated_Source\PSoC5/ADC_DelSig_1_theACLK.c **** *                 be enabled for all synchronous clocks.
 360:.\Generated_Source\PSoC5/ADC_DelSig_1_theACLK.c **** *   See the Technical Reference Manual for details about setting the mode of
 361:.\Generated_Source\PSoC5/ADC_DelSig_1_theACLK.c **** *   the clock. Specifically, see the CLKDIST.DCFG.CFG2 register.
 362:.\Generated_Source\PSoC5/ADC_DelSig_1_theACLK.c **** *
 363:.\Generated_Source\PSoC5/ADC_DelSig_1_theACLK.c **** * Returns:
 364:.\Generated_Source\PSoC5/ADC_DelSig_1_theACLK.c **** *  None
 365:.\Generated_Source\PSoC5/ADC_DelSig_1_theACLK.c **** *
 366:.\Generated_Source\PSoC5/ADC_DelSig_1_theACLK.c **** *******************************************************************************/
 367:.\Generated_Source\PSoC5/ADC_DelSig_1_theACLK.c **** void ADC_DelSig_1_theACLK_ClearModeRegister(uint8 modeBitMask) 
 368:.\Generated_Source\PSoC5/ADC_DelSig_1_theACLK.c **** {
 369:.\Generated_Source\PSoC5/ADC_DelSig_1_theACLK.c ****     ADC_DelSig_1_theACLK_MOD_SRC &= (uint8)(~modeBitMask) | (uint8)(~(uint8)(ADC_DelSig_1_theACLK_M
 370:.\Generated_Source\PSoC5/ADC_DelSig_1_theACLK.c **** }
 371:.\Generated_Source\PSoC5/ADC_DelSig_1_theACLK.c **** 
 372:.\Generated_Source\PSoC5/ADC_DelSig_1_theACLK.c **** 
 373:.\Generated_Source\PSoC5/ADC_DelSig_1_theACLK.c **** /*******************************************************************************
 374:.\Generated_Source\PSoC5/ADC_DelSig_1_theACLK.c **** * Function Name: ADC_DelSig_1_theACLK_GetModeRegister
 375:.\Generated_Source\PSoC5/ADC_DelSig_1_theACLK.c **** ********************************************************************************
 376:.\Generated_Source\PSoC5/ADC_DelSig_1_theACLK.c **** *
 377:.\Generated_Source\PSoC5/ADC_DelSig_1_theACLK.c **** * Summary:
 378:.\Generated_Source\PSoC5/ADC_DelSig_1_theACLK.c **** *  Gets the clock mode register value.
 379:.\Generated_Source\PSoC5/ADC_DelSig_1_theACLK.c **** *
 380:.\Generated_Source\PSoC5/ADC_DelSig_1_theACLK.c **** * Parameters:
 381:.\Generated_Source\PSoC5/ADC_DelSig_1_theACLK.c **** *  None
 382:.\Generated_Source\PSoC5/ADC_DelSig_1_theACLK.c **** *
 383:.\Generated_Source\PSoC5/ADC_DelSig_1_theACLK.c **** * Returns:
 384:.\Generated_Source\PSoC5/ADC_DelSig_1_theACLK.c **** *  Bit mask representing the enabled mode bits. See the SetModeRegister and
 385:.\Generated_Source\PSoC5/ADC_DelSig_1_theACLK.c **** *  ClearModeRegister descriptions for details about the mode bits.
 386:.\Generated_Source\PSoC5/ADC_DelSig_1_theACLK.c **** *
 387:.\Generated_Source\PSoC5/ADC_DelSig_1_theACLK.c **** *******************************************************************************/
 388:.\Generated_Source\PSoC5/ADC_DelSig_1_theACLK.c **** uint8 ADC_DelSig_1_theACLK_GetModeRegister(void) 
 389:.\Generated_Source\PSoC5/ADC_DelSig_1_theACLK.c **** {
 390:.\Generated_Source\PSoC5/ADC_DelSig_1_theACLK.c ****     return ADC_DelSig_1_theACLK_MOD_SRC & (uint8)(ADC_DelSig_1_theACLK_MODE_MASK);
 391:.\Generated_Source\PSoC5/ADC_DelSig_1_theACLK.c **** }
 392:.\Generated_Source\PSoC5/ADC_DelSig_1_theACLK.c **** 
 393:.\Generated_Source\PSoC5/ADC_DelSig_1_theACLK.c **** 
 394:.\Generated_Source\PSoC5/ADC_DelSig_1_theACLK.c **** /*******************************************************************************
 395:.\Generated_Source\PSoC5/ADC_DelSig_1_theACLK.c **** * Function Name: ADC_DelSig_1_theACLK_SetSourceRegister
 396:.\Generated_Source\PSoC5/ADC_DelSig_1_theACLK.c **** ********************************************************************************
 397:.\Generated_Source\PSoC5/ADC_DelSig_1_theACLK.c **** *
 398:.\Generated_Source\PSoC5/ADC_DelSig_1_theACLK.c **** * Summary:
 399:.\Generated_Source\PSoC5/ADC_DelSig_1_theACLK.c **** *  Sets the input source of the clock. The clock must be disabled before
 400:.\Generated_Source\PSoC5/ADC_DelSig_1_theACLK.c **** *  changing the source. The old and new clock sources must be running.
 401:.\Generated_Source\PSoC5/ADC_DelSig_1_theACLK.c **** *
 402:.\Generated_Source\PSoC5/ADC_DelSig_1_theACLK.c **** * Parameters:
 403:.\Generated_Source\PSoC5/ADC_DelSig_1_theACLK.c **** *  clkSource:  For PSoC 3 and PSoC 5 devices, clkSource should be one of the
 404:.\Generated_Source\PSoC5/ADC_DelSig_1_theACLK.c **** *   following input sources:
 405:.\Generated_Source\PSoC5/ADC_DelSig_1_theACLK.c **** *   - CYCLK_SRC_SEL_SYNC_DIG
 406:.\Generated_Source\PSoC5/ADC_DelSig_1_theACLK.c **** *   - CYCLK_SRC_SEL_IMO
ARM GAS  C:\Users\mjphi\AppData\Local\Temp\cc574Kz8.s 			page 12


 407:.\Generated_Source\PSoC5/ADC_DelSig_1_theACLK.c **** *   - CYCLK_SRC_SEL_XTALM
 408:.\Generated_Source\PSoC5/ADC_DelSig_1_theACLK.c **** *   - CYCLK_SRC_SEL_ILO
 409:.\Generated_Source\PSoC5/ADC_DelSig_1_theACLK.c **** *   - CYCLK_SRC_SEL_PLL
 410:.\Generated_Source\PSoC5/ADC_DelSig_1_theACLK.c **** *   - CYCLK_SRC_SEL_XTALK
 411:.\Generated_Source\PSoC5/ADC_DelSig_1_theACLK.c **** *   - CYCLK_SRC_SEL_DSI_G
 412:.\Generated_Source\PSoC5/ADC_DelSig_1_theACLK.c **** *   - CYCLK_SRC_SEL_DSI_D/CYCLK_SRC_SEL_DSI_A
 413:.\Generated_Source\PSoC5/ADC_DelSig_1_theACLK.c **** *   See the Technical Reference Manual for details on clock sources.
 414:.\Generated_Source\PSoC5/ADC_DelSig_1_theACLK.c **** *
 415:.\Generated_Source\PSoC5/ADC_DelSig_1_theACLK.c **** * Returns:
 416:.\Generated_Source\PSoC5/ADC_DelSig_1_theACLK.c **** *  None
 417:.\Generated_Source\PSoC5/ADC_DelSig_1_theACLK.c **** *
 418:.\Generated_Source\PSoC5/ADC_DelSig_1_theACLK.c **** *******************************************************************************/
 419:.\Generated_Source\PSoC5/ADC_DelSig_1_theACLK.c **** void ADC_DelSig_1_theACLK_SetSourceRegister(uint8 clkSource) 
 420:.\Generated_Source\PSoC5/ADC_DelSig_1_theACLK.c **** {
 421:.\Generated_Source\PSoC5/ADC_DelSig_1_theACLK.c ****     uint16 currDiv = ADC_DelSig_1_theACLK_GetDividerRegister();
 422:.\Generated_Source\PSoC5/ADC_DelSig_1_theACLK.c ****     uint8 oldSrc = ADC_DelSig_1_theACLK_GetSourceRegister();
 423:.\Generated_Source\PSoC5/ADC_DelSig_1_theACLK.c **** 
 424:.\Generated_Source\PSoC5/ADC_DelSig_1_theACLK.c ****     if (((oldSrc != ((uint8)CYCLK_SRC_SEL_CLK_SYNC_D)) && 
 425:.\Generated_Source\PSoC5/ADC_DelSig_1_theACLK.c ****         (clkSource == ((uint8)CYCLK_SRC_SEL_CLK_SYNC_D))) && (currDiv == 0u))
 426:.\Generated_Source\PSoC5/ADC_DelSig_1_theACLK.c ****     {
 427:.\Generated_Source\PSoC5/ADC_DelSig_1_theACLK.c ****         /* Switching to Master and divider is 1, set SSS, which will output master, */
 428:.\Generated_Source\PSoC5/ADC_DelSig_1_theACLK.c ****         /* then set the source so we are consistent.                                */
 429:.\Generated_Source\PSoC5/ADC_DelSig_1_theACLK.c ****         ADC_DelSig_1_theACLK_MOD_SRC |= CYCLK_SSS;
 430:.\Generated_Source\PSoC5/ADC_DelSig_1_theACLK.c ****         ADC_DelSig_1_theACLK_MOD_SRC =
 431:.\Generated_Source\PSoC5/ADC_DelSig_1_theACLK.c ****             (ADC_DelSig_1_theACLK_MOD_SRC & (uint8)(~ADC_DelSig_1_theACLK_SRC_SEL_MSK)) | clkSource
 432:.\Generated_Source\PSoC5/ADC_DelSig_1_theACLK.c ****     }
 433:.\Generated_Source\PSoC5/ADC_DelSig_1_theACLK.c ****     else if (((oldSrc == ((uint8)CYCLK_SRC_SEL_CLK_SYNC_D)) && 
 434:.\Generated_Source\PSoC5/ADC_DelSig_1_theACLK.c ****             (clkSource != ((uint8)CYCLK_SRC_SEL_CLK_SYNC_D))) && (currDiv == 0u))
 435:.\Generated_Source\PSoC5/ADC_DelSig_1_theACLK.c ****     {
 436:.\Generated_Source\PSoC5/ADC_DelSig_1_theACLK.c ****         /* Switching from Master to not and divider is 1, set source, so we don't   */
 437:.\Generated_Source\PSoC5/ADC_DelSig_1_theACLK.c ****         /* lock when we clear SSS.                                                  */
 438:.\Generated_Source\PSoC5/ADC_DelSig_1_theACLK.c ****         ADC_DelSig_1_theACLK_MOD_SRC =
 439:.\Generated_Source\PSoC5/ADC_DelSig_1_theACLK.c ****             (ADC_DelSig_1_theACLK_MOD_SRC & (uint8)(~ADC_DelSig_1_theACLK_SRC_SEL_MSK)) | clkSource
 440:.\Generated_Source\PSoC5/ADC_DelSig_1_theACLK.c ****         ADC_DelSig_1_theACLK_MOD_SRC &= (uint8)(~CYCLK_SSS);
 441:.\Generated_Source\PSoC5/ADC_DelSig_1_theACLK.c ****     }
 442:.\Generated_Source\PSoC5/ADC_DelSig_1_theACLK.c ****     else
 443:.\Generated_Source\PSoC5/ADC_DelSig_1_theACLK.c ****     {
 444:.\Generated_Source\PSoC5/ADC_DelSig_1_theACLK.c ****         ADC_DelSig_1_theACLK_MOD_SRC =
 445:.\Generated_Source\PSoC5/ADC_DelSig_1_theACLK.c ****             (ADC_DelSig_1_theACLK_MOD_SRC & (uint8)(~ADC_DelSig_1_theACLK_SRC_SEL_MSK)) | clkSource
 446:.\Generated_Source\PSoC5/ADC_DelSig_1_theACLK.c ****     }
 447:.\Generated_Source\PSoC5/ADC_DelSig_1_theACLK.c **** }
 448:.\Generated_Source\PSoC5/ADC_DelSig_1_theACLK.c **** 
 449:.\Generated_Source\PSoC5/ADC_DelSig_1_theACLK.c **** 
 450:.\Generated_Source\PSoC5/ADC_DelSig_1_theACLK.c **** /*******************************************************************************
 451:.\Generated_Source\PSoC5/ADC_DelSig_1_theACLK.c **** * Function Name: ADC_DelSig_1_theACLK_GetSourceRegister
 452:.\Generated_Source\PSoC5/ADC_DelSig_1_theACLK.c **** ********************************************************************************
 453:.\Generated_Source\PSoC5/ADC_DelSig_1_theACLK.c **** *
 454:.\Generated_Source\PSoC5/ADC_DelSig_1_theACLK.c **** * Summary:
 455:.\Generated_Source\PSoC5/ADC_DelSig_1_theACLK.c **** *  Gets the input source of the clock.
 456:.\Generated_Source\PSoC5/ADC_DelSig_1_theACLK.c **** *
 457:.\Generated_Source\PSoC5/ADC_DelSig_1_theACLK.c **** * Parameters:
 458:.\Generated_Source\PSoC5/ADC_DelSig_1_theACLK.c **** *  None
 459:.\Generated_Source\PSoC5/ADC_DelSig_1_theACLK.c **** *
 460:.\Generated_Source\PSoC5/ADC_DelSig_1_theACLK.c **** * Returns:
 461:.\Generated_Source\PSoC5/ADC_DelSig_1_theACLK.c **** *  The input source of the clock. See SetSourceRegister for details.
 462:.\Generated_Source\PSoC5/ADC_DelSig_1_theACLK.c **** *
 463:.\Generated_Source\PSoC5/ADC_DelSig_1_theACLK.c **** *******************************************************************************/
ARM GAS  C:\Users\mjphi\AppData\Local\Temp\cc574Kz8.s 			page 13


 464:.\Generated_Source\PSoC5/ADC_DelSig_1_theACLK.c **** uint8 ADC_DelSig_1_theACLK_GetSourceRegister(void) 
 465:.\Generated_Source\PSoC5/ADC_DelSig_1_theACLK.c **** {
 466:.\Generated_Source\PSoC5/ADC_DelSig_1_theACLK.c ****     return ADC_DelSig_1_theACLK_MOD_SRC & ADC_DelSig_1_theACLK_SRC_SEL_MSK;
 219              		.loc 1 466 0
 220 0002 2C4B     		ldr	r3, .L44
 221              	.LBE12:
 222              	.LBE11:
 223              	.LBB15:
 224              	.LBB16:
 299:.\Generated_Source\PSoC5/ADC_DelSig_1_theACLK.c **** }
 225              		.loc 1 299 0
 226 0004 2C4E     		ldr	r6, .L44+4
 227              	.LBE16:
 228              	.LBE15:
 229              	.LBB19:
 230              	.LBB13:
 231              		.loc 1 466 0
 232 0006 1F78     		ldrb	r7, [r3]	@ zero_extendqisi2
 233              	.LBE13:
 234              	.LBE19:
 235              	.LBB20:
 236              	.LBB17:
 299:.\Generated_Source\PSoC5/ADC_DelSig_1_theACLK.c **** }
 237              		.loc 1 299 0
 238 0008 3288     		ldrh	r2, [r6]
 239              	.LBE17:
 240              	.LBE20:
 241              	.LBB21:
 242              	.LBB14:
 243              		.loc 1 466 0
 244 000a 07F00707 		and	r7, r7, #7
 245              	.LBE14:
 246              	.LBE21:
 247              	.LBB22:
 248              	.LBB18:
 299:.\Generated_Source\PSoC5/ADC_DelSig_1_theACLK.c **** }
 249              		.loc 1 299 0
 250 000e 92B2     		uxth	r2, r2
 251              	.LBE18:
 252              	.LBE22:
 201:.\Generated_Source\PSoC5/ADC_DelSig_1_theACLK.c ****     {
 253              		.loc 1 201 0
 254 0010 9042     		cmp	r0, r2
 255 0012 9E46     		mov	lr, r3
 256 0014 4CD0     		beq	.L23
 203:.\Generated_Source\PSoC5/ADC_DelSig_1_theACLK.c **** 
 257              		.loc 1 203 0
 258 0016 294D     		ldr	r5, .L44+8
 259 0018 2C78     		ldrb	r4, [r5]	@ zero_extendqisi2
 260 001a E4B2     		uxtb	r4, r4
 261              	.LVL4:
 205:.\Generated_Source\PSoC5/ADC_DelSig_1_theACLK.c ****         {
 262              		.loc 1 205 0
 263 001c 6FB9     		cbnz	r7, .L26
 205:.\Generated_Source\PSoC5/ADC_DelSig_1_theACLK.c ****         {
 264              		.loc 1 205 0 is_stmt 0 discriminator 1
 265 001e 32B1     		cbz	r2, .L27
ARM GAS  C:\Users\mjphi\AppData\Local\Temp\cc574Kz8.s 			page 14


 205:.\Generated_Source\PSoC5/ADC_DelSig_1_theACLK.c ****         {
 266              		.loc 1 205 0 discriminator 2
 267 0020 58B9     		cbnz	r0, .L26
 220:.\Generated_Source\PSoC5/ADC_DelSig_1_theACLK.c ****                 CY_SET_REG16(ADC_DelSig_1_theACLK_DIV_PTR, clkDivider);
 268              		.loc 1 220 0 is_stmt 1
 269 0022 1A78     		ldrb	r2, [r3]	@ zero_extendqisi2
 270 0024 42F04002 		orr	r2, r2, #64
 271 0028 1A70     		strb	r2, [r3]
 221:.\Generated_Source\PSoC5/ADC_DelSig_1_theACLK.c ****             }
 272              		.loc 1 221 0
 273 002a 3080     		strh	r0, [r6]	@ movhi
 274 002c F0BD     		pop	{r4, r5, r6, r7, pc}
 275              	.LVL5:
 276              	.L27:
 213:.\Generated_Source\PSoC5/ADC_DelSig_1_theACLK.c ****                 ADC_DelSig_1_theACLK_MOD_SRC &= (uint8)(~CYCLK_SSS);
 277              		.loc 1 213 0
 278 002e 3080     		strh	r0, [r6]	@ movhi
 214:.\Generated_Source\PSoC5/ADC_DelSig_1_theACLK.c ****             }
 279              		.loc 1 214 0
 280 0030 1A78     		ldrb	r2, [r3]	@ zero_extendqisi2
 281 0032 02F0BF02 		and	r2, r2, #191
 282 0036 1A70     		strb	r2, [r3]
 283 0038 F0BD     		pop	{r4, r5, r6, r7, pc}
 284              	.LVL6:
 285              	.L26:
 227:.\Generated_Source\PSoC5/ADC_DelSig_1_theACLK.c ****             {
 286              		.loc 1 227 0
 287 003a 14F00104 		ands	r4, r4, #1
 288              	.LVL7:
 289 003e 22D0     		beq	.L30
 233:.\Generated_Source\PSoC5/ADC_DelSig_1_theACLK.c ****                 CLK_DIST_DMASK = 0x00u;
 290              		.loc 1 233 0
 291 0040 1F4F     		ldr	r7, .L44+12
 229:.\Generated_Source\PSoC5/ADC_DelSig_1_theACLK.c **** 
 292              		.loc 1 229 0
 293 0042 204B     		ldr	r3, .L44+16
 294 0044 0026     		movs	r6, #0
 233:.\Generated_Source\PSoC5/ADC_DelSig_1_theACLK.c ****                 CLK_DIST_DMASK = 0x00u;
 295              		.loc 1 233 0
 296 0046 4FF0010C 		mov	ip, #1
 229:.\Generated_Source\PSoC5/ADC_DelSig_1_theACLK.c **** 
 297              		.loc 1 229 0
 298 004a 1E70     		strb	r6, [r3]
 233:.\Generated_Source\PSoC5/ADC_DelSig_1_theACLK.c ****                 CLK_DIST_DMASK = 0x00u;
 299              		.loc 1 233 0
 300 004c 87F800C0 		strb	ip, [r7]
 234:.\Generated_Source\PSoC5/ADC_DelSig_1_theACLK.c **** #else
 301              		.loc 1 234 0
 302 0050 07F8046C 		strb	r6, [r7, #-4]
 240:.\Generated_Source\PSoC5/ADC_DelSig_1_theACLK.c **** 
 303              		.loc 1 240 0
 304 0054 17F80C6C 		ldrb	r6, [r7, #-12]	@ zero_extendqisi2
 305 0058 06F07F06 		and	r6, r6, #127
 306 005c 07F80C6C 		strb	r6, [r7, #-12]
 243:.\Generated_Source\PSoC5/ADC_DelSig_1_theACLK.c ****                 {
 307              		.loc 1 243 0
 308 0060 9EF80060 		ldrb	r6, [lr]	@ zero_extendqisi2
ARM GAS  C:\Users\mjphi\AppData\Local\Temp\cc574Kz8.s 			page 15


 309 0064 3607     		lsls	r6, r6, #28
 310 0066 00D5     		bpl	.L31
 243:.\Generated_Source\PSoC5/ADC_DelSig_1_theACLK.c ****                 {
 311              		.loc 1 243 0 is_stmt 0 discriminator 1
 312 0068 68B9     		cbnz	r0, .L30
 313              	.L31:
 246:.\Generated_Source\PSoC5/ADC_DelSig_1_theACLK.c ****                     CLK_DIST_LD = CYCLK_LD_DISABLE|CYCLK_LD_SYNC_EN|CYCLK_LD_LOAD;
 314              		.loc 1 246 0 is_stmt 1
 315 006a 174E     		ldr	r6, .L44+20
 316 006c 3280     		strh	r2, [r6]	@ movhi
 247:.\Generated_Source\PSoC5/ADC_DelSig_1_theACLK.c **** 
 317              		.loc 1 247 0
 318 006e 0722     		movs	r2, #7
 319 0070 1A70     		strb	r2, [r3]
 320              	.L33:
 250:.\Generated_Source\PSoC5/ADC_DelSig_1_theACLK.c **** #endif /* HAS_CLKDIST_LD_DISABLE */
 321              		.loc 1 250 0 discriminator 1
 322 0072 1A78     		ldrb	r2, [r3]	@ zero_extendqisi2
 323 0074 12F00102 		ands	r2, r2, #1
 324 0078 FBD1     		bne	.L33
 253:.\Generated_Source\PSoC5/ADC_DelSig_1_theACLK.c **** 
 325              		.loc 1 253 0
 326 007a 2B78     		ldrb	r3, [r5]	@ zero_extendqisi2
 327 007c 03F0FE03 		and	r3, r3, #254
 328 0080 2B70     		strb	r3, [r5]
 257:.\Generated_Source\PSoC5/ADC_DelSig_1_theACLK.c **** #endif /* HAS_CLKDIST_LD_DISABLE */
 329              		.loc 1 257 0
 330 0082 104B     		ldr	r3, .L44+16
 331 0084 1A70     		strb	r2, [r3]
 332              	.L30:
 263:.\Generated_Source\PSoC5/ADC_DelSig_1_theACLK.c ****             {
 333              		.loc 1 263 0
 334 0086 2B78     		ldrb	r3, [r5]	@ zero_extendqisi2
 335 0088 0C4A     		ldr	r2, .L44+8
 336 008a DD07     		lsls	r5, r3, #31
 337 008c 0BD5     		bpl	.L34
 266:.\Generated_Source\PSoC5/ADC_DelSig_1_theACLK.c **** 
 338              		.loc 1 266 0
 339 008e 0E4B     		ldr	r3, .L44+20
 268:.\Generated_Source\PSoC5/ADC_DelSig_1_theACLK.c ****                 while ((CLK_DIST_LD & CYCLK_LD_LOAD) != 0u) { }
 340              		.loc 1 268 0
 341 0090 0029     		cmp	r1, #0
 266:.\Generated_Source\PSoC5/ADC_DelSig_1_theACLK.c **** 
 342              		.loc 1 266 0
 343 0092 1880     		strh	r0, [r3]	@ movhi
 268:.\Generated_Source\PSoC5/ADC_DelSig_1_theACLK.c ****                 while ((CLK_DIST_LD & CYCLK_LD_LOAD) != 0u) { }
 344              		.loc 1 268 0
 345 0094 14BF     		ite	ne
 346 0096 0322     		movne	r2, #3
 347 0098 0122     		moveq	r2, #1
 348 009a 013B     		subs	r3, r3, #1
 349 009c 1A70     		strb	r2, [r3]
 350              	.L36:
 269:.\Generated_Source\PSoC5/ADC_DelSig_1_theACLK.c ****             }
 351              		.loc 1 269 0 discriminator 1
 352 009e 1A78     		ldrb	r2, [r3]	@ zero_extendqisi2
 353 00a0 D207     		lsls	r2, r2, #31
ARM GAS  C:\Users\mjphi\AppData\Local\Temp\cc574Kz8.s 			page 16


 354 00a2 FCD4     		bmi	.L36
 355 00a4 F0BD     		pop	{r4, r5, r6, r7, pc}
 356              	.L34:
 274:.\Generated_Source\PSoC5/ADC_DelSig_1_theACLK.c **** 				ADC_DelSig_1_theACLK_CLKEN |= enabled;
 357              		.loc 1 274 0
 358 00a6 044B     		ldr	r3, .L44+4
 359 00a8 1880     		strh	r0, [r3]	@ movhi
 275:.\Generated_Source\PSoC5/ADC_DelSig_1_theACLK.c ****             }
 360              		.loc 1 275 0
 361 00aa 1378     		ldrb	r3, [r2]	@ zero_extendqisi2
 362 00ac 1C43     		orrs	r4, r4, r3
 363 00ae 1470     		strb	r4, [r2]
 364              	.L23:
 365 00b0 F0BD     		pop	{r4, r5, r6, r7, pc}
 366              	.L45:
 367 00b2 00BF     		.align	2
 368              	.L44:
 369 00b4 02410040 		.word	1073758466
 370 00b8 00410040 		.word	1073758464
 371 00bc A1430040 		.word	1073759137
 372 00c0 14400040 		.word	1073758228
 373 00c4 01400040 		.word	1073758209
 374 00c8 02400040 		.word	1073758210
 375              		.cfi_endproc
 376              	.LFE4:
 377              		.size	ADC_DelSig_1_theACLK_SetDividerRegister, .-ADC_DelSig_1_theACLK_SetDividerRegister
 378              		.section	.text.ADC_DelSig_1_theACLK_GetDividerRegister,"ax",%progbits
 379              		.align	1
 380              		.global	ADC_DelSig_1_theACLK_GetDividerRegister
 381              		.thumb
 382              		.thumb_func
 383              		.type	ADC_DelSig_1_theACLK_GetDividerRegister, %function
 384              	ADC_DelSig_1_theACLK_GetDividerRegister:
 385              	.LFB5:
 298:.\Generated_Source\PSoC5/ADC_DelSig_1_theACLK.c ****     return CY_GET_REG16(ADC_DelSig_1_theACLK_DIV_PTR);
 386              		.loc 1 298 0
 387              		.cfi_startproc
 388              		@ args = 0, pretend = 0, frame = 0
 389              		@ frame_needed = 0, uses_anonymous_args = 0
 390              		@ link register save eliminated.
 299:.\Generated_Source\PSoC5/ADC_DelSig_1_theACLK.c **** }
 391              		.loc 1 299 0
 392 0000 014B     		ldr	r3, .L47
 393 0002 1888     		ldrh	r0, [r3]
 300:.\Generated_Source\PSoC5/ADC_DelSig_1_theACLK.c **** 
 394              		.loc 1 300 0
 395 0004 80B2     		uxth	r0, r0
 396 0006 7047     		bx	lr
 397              	.L48:
 398              		.align	2
 399              	.L47:
 400 0008 00410040 		.word	1073758464
 401              		.cfi_endproc
 402              	.LFE5:
 403              		.size	ADC_DelSig_1_theACLK_GetDividerRegister, .-ADC_DelSig_1_theACLK_GetDividerRegister
 404              		.section	.text.ADC_DelSig_1_theACLK_SetModeRegister,"ax",%progbits
 405              		.align	1
ARM GAS  C:\Users\mjphi\AppData\Local\Temp\cc574Kz8.s 			page 17


 406              		.global	ADC_DelSig_1_theACLK_SetModeRegister
 407              		.thumb
 408              		.thumb_func
 409              		.type	ADC_DelSig_1_theACLK_SetModeRegister, %function
 410              	ADC_DelSig_1_theACLK_SetModeRegister:
 411              	.LFB6:
 333:.\Generated_Source\PSoC5/ADC_DelSig_1_theACLK.c ****     ADC_DelSig_1_theACLK_MOD_SRC |= modeBitMask & (uint8)ADC_DelSig_1_theACLK_MODE_MASK;
 412              		.loc 1 333 0
 413              		.cfi_startproc
 414              		@ args = 0, pretend = 0, frame = 0
 415              		@ frame_needed = 0, uses_anonymous_args = 0
 416              		@ link register save eliminated.
 417              	.LVL8:
 334:.\Generated_Source\PSoC5/ADC_DelSig_1_theACLK.c **** }
 418              		.loc 1 334 0
 419 0000 034A     		ldr	r2, .L50
 420 0002 00F0F800 		and	r0, r0, #248
 421              	.LVL9:
 422 0006 1378     		ldrb	r3, [r2]	@ zero_extendqisi2
 423 0008 0343     		orrs	r3, r3, r0
 424 000a 1370     		strb	r3, [r2]
 425 000c 7047     		bx	lr
 426              	.L51:
 427 000e 00BF     		.align	2
 428              	.L50:
 429 0010 02410040 		.word	1073758466
 430              		.cfi_endproc
 431              	.LFE6:
 432              		.size	ADC_DelSig_1_theACLK_SetModeRegister, .-ADC_DelSig_1_theACLK_SetModeRegister
 433              		.section	.text.ADC_DelSig_1_theACLK_ClearModeRegister,"ax",%progbits
 434              		.align	1
 435              		.global	ADC_DelSig_1_theACLK_ClearModeRegister
 436              		.thumb
 437              		.thumb_func
 438              		.type	ADC_DelSig_1_theACLK_ClearModeRegister, %function
 439              	ADC_DelSig_1_theACLK_ClearModeRegister:
 440              	.LFB7:
 368:.\Generated_Source\PSoC5/ADC_DelSig_1_theACLK.c ****     ADC_DelSig_1_theACLK_MOD_SRC &= (uint8)(~modeBitMask) | (uint8)(~(uint8)(ADC_DelSig_1_theACLK_M
 441              		.loc 1 368 0
 442              		.cfi_startproc
 443              		@ args = 0, pretend = 0, frame = 0
 444              		@ frame_needed = 0, uses_anonymous_args = 0
 445              		@ link register save eliminated.
 446              	.LVL10:
 369:.\Generated_Source\PSoC5/ADC_DelSig_1_theACLK.c **** }
 447              		.loc 1 369 0
 448 0000 C043     		mvns	r0, r0
 449              	.LVL11:
 450 0002 034B     		ldr	r3, .L53
 451 0004 40F00700 		orr	r0, r0, #7
 452 0008 1A78     		ldrb	r2, [r3]	@ zero_extendqisi2
 453 000a 1040     		ands	r0, r0, r2
 454 000c 1870     		strb	r0, [r3]
 455 000e 7047     		bx	lr
 456              	.L54:
 457              		.align	2
 458              	.L53:
ARM GAS  C:\Users\mjphi\AppData\Local\Temp\cc574Kz8.s 			page 18


 459 0010 02410040 		.word	1073758466
 460              		.cfi_endproc
 461              	.LFE7:
 462              		.size	ADC_DelSig_1_theACLK_ClearModeRegister, .-ADC_DelSig_1_theACLK_ClearModeRegister
 463              		.section	.text.ADC_DelSig_1_theACLK_GetModeRegister,"ax",%progbits
 464              		.align	1
 465              		.global	ADC_DelSig_1_theACLK_GetModeRegister
 466              		.thumb
 467              		.thumb_func
 468              		.type	ADC_DelSig_1_theACLK_GetModeRegister, %function
 469              	ADC_DelSig_1_theACLK_GetModeRegister:
 470              	.LFB8:
 389:.\Generated_Source\PSoC5/ADC_DelSig_1_theACLK.c ****     return ADC_DelSig_1_theACLK_MOD_SRC & (uint8)(ADC_DelSig_1_theACLK_MODE_MASK);
 471              		.loc 1 389 0
 472              		.cfi_startproc
 473              		@ args = 0, pretend = 0, frame = 0
 474              		@ frame_needed = 0, uses_anonymous_args = 0
 475              		@ link register save eliminated.
 390:.\Generated_Source\PSoC5/ADC_DelSig_1_theACLK.c **** }
 476              		.loc 1 390 0
 477 0000 024B     		ldr	r3, .L56
 478 0002 1878     		ldrb	r0, [r3]	@ zero_extendqisi2
 391:.\Generated_Source\PSoC5/ADC_DelSig_1_theACLK.c **** 
 479              		.loc 1 391 0
 480 0004 00F0F800 		and	r0, r0, #248
 481 0008 7047     		bx	lr
 482              	.L57:
 483 000a 00BF     		.align	2
 484              	.L56:
 485 000c 02410040 		.word	1073758466
 486              		.cfi_endproc
 487              	.LFE8:
 488              		.size	ADC_DelSig_1_theACLK_GetModeRegister, .-ADC_DelSig_1_theACLK_GetModeRegister
 489              		.section	.text.ADC_DelSig_1_theACLK_SetSourceRegister,"ax",%progbits
 490              		.align	1
 491              		.global	ADC_DelSig_1_theACLK_SetSourceRegister
 492              		.thumb
 493              		.thumb_func
 494              		.type	ADC_DelSig_1_theACLK_SetSourceRegister, %function
 495              	ADC_DelSig_1_theACLK_SetSourceRegister:
 496              	.LFB9:
 420:.\Generated_Source\PSoC5/ADC_DelSig_1_theACLK.c ****     uint16 currDiv = ADC_DelSig_1_theACLK_GetDividerRegister();
 497              		.loc 1 420 0
 498              		.cfi_startproc
 499              		@ args = 0, pretend = 0, frame = 0
 500              		@ frame_needed = 0, uses_anonymous_args = 0
 501              		@ link register save eliminated.
 502              	.LVL12:
 503              	.LBB23:
 504              	.LBB24:
 299:.\Generated_Source\PSoC5/ADC_DelSig_1_theACLK.c **** }
 505              		.loc 1 299 0
 506 0000 124B     		ldr	r3, .L66
 507 0002 1A88     		ldrh	r2, [r3]
 508              	.LBE24:
 509              	.LBE23:
 510              	.LBB26:
ARM GAS  C:\Users\mjphi\AppData\Local\Temp\cc574Kz8.s 			page 19


 511              	.LBB27:
 512              		.loc 1 466 0
 513 0004 0233     		adds	r3, r3, #2
 514 0006 1978     		ldrb	r1, [r3]	@ zero_extendqisi2
 515              	.LBE27:
 516              	.LBE26:
 517              	.LBB28:
 518              	.LBB25:
 299:.\Generated_Source\PSoC5/ADC_DelSig_1_theACLK.c **** }
 519              		.loc 1 299 0
 520 0008 92B2     		uxth	r2, r2
 521              	.LBE25:
 522              	.LBE28:
 424:.\Generated_Source\PSoC5/ADC_DelSig_1_theACLK.c ****         (clkSource == ((uint8)CYCLK_SRC_SEL_CLK_SYNC_D))) && (currDiv == 0u))
 523              		.loc 1 424 0
 524 000a 11F0070F 		tst	r1, #7
 525 000e 1946     		mov	r1, r3
 526 0010 09D0     		beq	.L59
 424:.\Generated_Source\PSoC5/ADC_DelSig_1_theACLK.c ****         (clkSource == ((uint8)CYCLK_SRC_SEL_CLK_SYNC_D))) && (currDiv == 0u))
 527              		.loc 1 424 0 is_stmt 0 discriminator 1
 528 0012 A0B9     		cbnz	r0, .L60
 425:.\Generated_Source\PSoC5/ADC_DelSig_1_theACLK.c ****     {
 529              		.loc 1 425 0 is_stmt 1
 530 0014 9AB9     		cbnz	r2, .L60
 429:.\Generated_Source\PSoC5/ADC_DelSig_1_theACLK.c ****         ADC_DelSig_1_theACLK_MOD_SRC =
 531              		.loc 1 429 0
 532 0016 1A78     		ldrb	r2, [r3]	@ zero_extendqisi2
 533 0018 42F04002 		orr	r2, r2, #64
 534 001c 1A70     		strb	r2, [r3]
 431:.\Generated_Source\PSoC5/ADC_DelSig_1_theACLK.c ****     }
 535              		.loc 1 431 0
 536 001e 1A78     		ldrb	r2, [r3]	@ zero_extendqisi2
 430:.\Generated_Source\PSoC5/ADC_DelSig_1_theACLK.c ****             (ADC_DelSig_1_theACLK_MOD_SRC & (uint8)(~ADC_DelSig_1_theACLK_SRC_SEL_MSK)) | clkSource
 537              		.loc 1 430 0
 538 0020 02F0F802 		and	r2, r2, #248
 539 0024 09E0     		b	.L65
 540              	.L59:
 433:.\Generated_Source\PSoC5/ADC_DelSig_1_theACLK.c ****             (clkSource != ((uint8)CYCLK_SRC_SEL_CLK_SYNC_D))) && (currDiv == 0u))
 541              		.loc 1 433 0 discriminator 1
 542 0026 50B1     		cbz	r0, .L60
 434:.\Generated_Source\PSoC5/ADC_DelSig_1_theACLK.c ****     {
 543              		.loc 1 434 0
 544 0028 4AB9     		cbnz	r2, .L60
 439:.\Generated_Source\PSoC5/ADC_DelSig_1_theACLK.c ****         ADC_DelSig_1_theACLK_MOD_SRC &= (uint8)(~CYCLK_SSS);
 545              		.loc 1 439 0
 546 002a 1A78     		ldrb	r2, [r3]	@ zero_extendqisi2
 438:.\Generated_Source\PSoC5/ADC_DelSig_1_theACLK.c ****             (ADC_DelSig_1_theACLK_MOD_SRC & (uint8)(~ADC_DelSig_1_theACLK_SRC_SEL_MSK)) | clkSource
 547              		.loc 1 438 0
 548 002c 02F0F802 		and	r2, r2, #248
 549 0030 1043     		orrs	r0, r0, r2
 550              	.LVL13:
 551 0032 1870     		strb	r0, [r3]
 440:.\Generated_Source\PSoC5/ADC_DelSig_1_theACLK.c ****     }
 552              		.loc 1 440 0
 553 0034 1A78     		ldrb	r2, [r3]	@ zero_extendqisi2
 554 0036 02F0BF02 		and	r2, r2, #191
 555              	.L65:
ARM GAS  C:\Users\mjphi\AppData\Local\Temp\cc574Kz8.s 			page 20


 556 003a 1A70     		strb	r2, [r3]
 557 003c 7047     		bx	lr
 558              	.LVL14:
 559              	.L60:
 445:.\Generated_Source\PSoC5/ADC_DelSig_1_theACLK.c ****     }
 560              		.loc 1 445 0
 561 003e 0B78     		ldrb	r3, [r1]	@ zero_extendqisi2
 444:.\Generated_Source\PSoC5/ADC_DelSig_1_theACLK.c ****             (ADC_DelSig_1_theACLK_MOD_SRC & (uint8)(~ADC_DelSig_1_theACLK_SRC_SEL_MSK)) | clkSource
 562              		.loc 1 444 0
 563 0040 03F0F803 		and	r3, r3, #248
 564 0044 1843     		orrs	r0, r0, r3
 565              	.LVL15:
 566 0046 0870     		strb	r0, [r1]
 567 0048 7047     		bx	lr
 568              	.L67:
 569 004a 00BF     		.align	2
 570              	.L66:
 571 004c 00410040 		.word	1073758464
 572              		.cfi_endproc
 573              	.LFE9:
 574              		.size	ADC_DelSig_1_theACLK_SetSourceRegister, .-ADC_DelSig_1_theACLK_SetSourceRegister
 575              		.section	.text.ADC_DelSig_1_theACLK_GetSourceRegister,"ax",%progbits
 576              		.align	1
 577              		.global	ADC_DelSig_1_theACLK_GetSourceRegister
 578              		.thumb
 579              		.thumb_func
 580              		.type	ADC_DelSig_1_theACLK_GetSourceRegister, %function
 581              	ADC_DelSig_1_theACLK_GetSourceRegister:
 582              	.LFB10:
 465:.\Generated_Source\PSoC5/ADC_DelSig_1_theACLK.c ****     return ADC_DelSig_1_theACLK_MOD_SRC & ADC_DelSig_1_theACLK_SRC_SEL_MSK;
 583              		.loc 1 465 0
 584              		.cfi_startproc
 585              		@ args = 0, pretend = 0, frame = 0
 586              		@ frame_needed = 0, uses_anonymous_args = 0
 587              		@ link register save eliminated.
 588              		.loc 1 466 0
 589 0000 024B     		ldr	r3, .L69
 590 0002 1878     		ldrb	r0, [r3]	@ zero_extendqisi2
 467:.\Generated_Source\PSoC5/ADC_DelSig_1_theACLK.c **** }
 591              		.loc 1 467 0
 592 0004 00F00700 		and	r0, r0, #7
 593 0008 7047     		bx	lr
 594              	.L70:
 595 000a 00BF     		.align	2
 596              	.L69:
 597 000c 02410040 		.word	1073758466
 598              		.cfi_endproc
 599              	.LFE10:
 600              		.size	ADC_DelSig_1_theACLK_GetSourceRegister, .-ADC_DelSig_1_theACLK_GetSourceRegister
 601              		.section	.text.ADC_DelSig_1_theACLK_SetPhaseRegister,"ax",%progbits
 602              		.align	1
 603              		.global	ADC_DelSig_1_theACLK_SetPhaseRegister
 604              		.thumb
 605              		.thumb_func
 606              		.type	ADC_DelSig_1_theACLK_SetPhaseRegister, %function
 607              	ADC_DelSig_1_theACLK_SetPhaseRegister:
 608              	.LFB11:
ARM GAS  C:\Users\mjphi\AppData\Local\Temp\cc574Kz8.s 			page 21


 468:.\Generated_Source\PSoC5/ADC_DelSig_1_theACLK.c **** 
 469:.\Generated_Source\PSoC5/ADC_DelSig_1_theACLK.c **** 
 470:.\Generated_Source\PSoC5/ADC_DelSig_1_theACLK.c **** #if defined(ADC_DelSig_1_theACLK__CFG3)
 471:.\Generated_Source\PSoC5/ADC_DelSig_1_theACLK.c **** 
 472:.\Generated_Source\PSoC5/ADC_DelSig_1_theACLK.c **** 
 473:.\Generated_Source\PSoC5/ADC_DelSig_1_theACLK.c **** /*******************************************************************************
 474:.\Generated_Source\PSoC5/ADC_DelSig_1_theACLK.c **** * Function Name: ADC_DelSig_1_theACLK_SetPhaseRegister
 475:.\Generated_Source\PSoC5/ADC_DelSig_1_theACLK.c **** ********************************************************************************
 476:.\Generated_Source\PSoC5/ADC_DelSig_1_theACLK.c **** *
 477:.\Generated_Source\PSoC5/ADC_DelSig_1_theACLK.c **** * Summary:
 478:.\Generated_Source\PSoC5/ADC_DelSig_1_theACLK.c **** *  Sets the phase delay of the analog clock. This function is only available
 479:.\Generated_Source\PSoC5/ADC_DelSig_1_theACLK.c **** *  for analog clocks. The clock must be disabled before changing the phase
 480:.\Generated_Source\PSoC5/ADC_DelSig_1_theACLK.c **** *  delay to avoid glitches.
 481:.\Generated_Source\PSoC5/ADC_DelSig_1_theACLK.c **** *
 482:.\Generated_Source\PSoC5/ADC_DelSig_1_theACLK.c **** * Parameters:
 483:.\Generated_Source\PSoC5/ADC_DelSig_1_theACLK.c **** *  clkPhase: Amount to delay the phase of the clock, in 1.0ns increments.
 484:.\Generated_Source\PSoC5/ADC_DelSig_1_theACLK.c **** *   clkPhase must be from 1 to 11 inclusive. Other values, including 0,
 485:.\Generated_Source\PSoC5/ADC_DelSig_1_theACLK.c **** *   disable the clock. clkPhase = 1 produces a 0ns delay and clkPhase = 11 
 486:.\Generated_Source\PSoC5/ADC_DelSig_1_theACLK.c **** *   produces a 10ns delay.
 487:.\Generated_Source\PSoC5/ADC_DelSig_1_theACLK.c **** *
 488:.\Generated_Source\PSoC5/ADC_DelSig_1_theACLK.c **** * Returns:
 489:.\Generated_Source\PSoC5/ADC_DelSig_1_theACLK.c **** *  None
 490:.\Generated_Source\PSoC5/ADC_DelSig_1_theACLK.c **** *
 491:.\Generated_Source\PSoC5/ADC_DelSig_1_theACLK.c **** *******************************************************************************/
 492:.\Generated_Source\PSoC5/ADC_DelSig_1_theACLK.c **** void ADC_DelSig_1_theACLK_SetPhaseRegister(uint8 clkPhase) 
 493:.\Generated_Source\PSoC5/ADC_DelSig_1_theACLK.c **** {
 609              		.loc 1 493 0
 610              		.cfi_startproc
 611              		@ args = 0, pretend = 0, frame = 0
 612              		@ frame_needed = 0, uses_anonymous_args = 0
 613              		@ link register save eliminated.
 614              	.LVL16:
 494:.\Generated_Source\PSoC5/ADC_DelSig_1_theACLK.c ****     ADC_DelSig_1_theACLK_PHASE = clkPhase & ADC_DelSig_1_theACLK_PHASE_MASK;
 615              		.loc 1 494 0
 616 0000 024B     		ldr	r3, .L72
 617 0002 00F00F00 		and	r0, r0, #15
 618              	.LVL17:
 619 0006 1870     		strb	r0, [r3]
 620 0008 7047     		bx	lr
 621              	.L73:
 622 000a 00BF     		.align	2
 623              	.L72:
 624 000c 03410040 		.word	1073758467
 625              		.cfi_endproc
 626              	.LFE11:
 627              		.size	ADC_DelSig_1_theACLK_SetPhaseRegister, .-ADC_DelSig_1_theACLK_SetPhaseRegister
 628              		.section	.text.ADC_DelSig_1_theACLK_GetPhaseRegister,"ax",%progbits
 629              		.align	1
 630              		.global	ADC_DelSig_1_theACLK_GetPhaseRegister
 631              		.thumb
 632              		.thumb_func
 633              		.type	ADC_DelSig_1_theACLK_GetPhaseRegister, %function
 634              	ADC_DelSig_1_theACLK_GetPhaseRegister:
 635              	.LFB12:
 495:.\Generated_Source\PSoC5/ADC_DelSig_1_theACLK.c **** }
 496:.\Generated_Source\PSoC5/ADC_DelSig_1_theACLK.c **** 
 497:.\Generated_Source\PSoC5/ADC_DelSig_1_theACLK.c **** 
ARM GAS  C:\Users\mjphi\AppData\Local\Temp\cc574Kz8.s 			page 22


 498:.\Generated_Source\PSoC5/ADC_DelSig_1_theACLK.c **** /*******************************************************************************
 499:.\Generated_Source\PSoC5/ADC_DelSig_1_theACLK.c **** * Function Name: ADC_DelSig_1_theACLK_GetPhase
 500:.\Generated_Source\PSoC5/ADC_DelSig_1_theACLK.c **** ********************************************************************************
 501:.\Generated_Source\PSoC5/ADC_DelSig_1_theACLK.c **** *
 502:.\Generated_Source\PSoC5/ADC_DelSig_1_theACLK.c **** * Summary:
 503:.\Generated_Source\PSoC5/ADC_DelSig_1_theACLK.c **** *  Gets the phase delay of the analog clock. This function is only available
 504:.\Generated_Source\PSoC5/ADC_DelSig_1_theACLK.c **** *  for analog clocks.
 505:.\Generated_Source\PSoC5/ADC_DelSig_1_theACLK.c **** *
 506:.\Generated_Source\PSoC5/ADC_DelSig_1_theACLK.c **** * Parameters:
 507:.\Generated_Source\PSoC5/ADC_DelSig_1_theACLK.c **** *  None
 508:.\Generated_Source\PSoC5/ADC_DelSig_1_theACLK.c **** *
 509:.\Generated_Source\PSoC5/ADC_DelSig_1_theACLK.c **** * Returns:
 510:.\Generated_Source\PSoC5/ADC_DelSig_1_theACLK.c **** *  Phase of the analog clock. See SetPhaseRegister for details.
 511:.\Generated_Source\PSoC5/ADC_DelSig_1_theACLK.c **** *
 512:.\Generated_Source\PSoC5/ADC_DelSig_1_theACLK.c **** *******************************************************************************/
 513:.\Generated_Source\PSoC5/ADC_DelSig_1_theACLK.c **** uint8 ADC_DelSig_1_theACLK_GetPhaseRegister(void) 
 514:.\Generated_Source\PSoC5/ADC_DelSig_1_theACLK.c **** {
 636              		.loc 1 514 0
 637              		.cfi_startproc
 638              		@ args = 0, pretend = 0, frame = 0
 639              		@ frame_needed = 0, uses_anonymous_args = 0
 640              		@ link register save eliminated.
 515:.\Generated_Source\PSoC5/ADC_DelSig_1_theACLK.c ****     return ADC_DelSig_1_theACLK_PHASE & ADC_DelSig_1_theACLK_PHASE_MASK;
 641              		.loc 1 515 0
 642 0000 024B     		ldr	r3, .L75
 643 0002 1878     		ldrb	r0, [r3]	@ zero_extendqisi2
 516:.\Generated_Source\PSoC5/ADC_DelSig_1_theACLK.c **** }
 644              		.loc 1 516 0
 645 0004 00F00F00 		and	r0, r0, #15
 646 0008 7047     		bx	lr
 647              	.L76:
 648 000a 00BF     		.align	2
 649              	.L75:
 650 000c 03410040 		.word	1073758467
 651              		.cfi_endproc
 652              	.LFE12:
 653              		.size	ADC_DelSig_1_theACLK_GetPhaseRegister, .-ADC_DelSig_1_theACLK_GetPhaseRegister
 654              		.text
 655              	.Letext0:
 656              		.file 2 "Generated_Source\\PSoC5/cytypes.h"
