ARM GAS  C:\Users\mjphi\AppData\Local\Temp\ccph981y.s 			page 1


   1              		.syntax unified
   2              		.cpu cortex-m3
   3              		.fpu softvfp
   4              		.eabi_attribute 20, 1
   5              		.eabi_attribute 21, 1
   6              		.eabi_attribute 23, 3
   7              		.eabi_attribute 24, 1
   8              		.eabi_attribute 25, 1
   9              		.eabi_attribute 26, 1
  10              		.eabi_attribute 30, 4
  11              		.eabi_attribute 34, 1
  12              		.eabi_attribute 18, 4
  13              		.thumb
  14              		.file	"Blue_LED_pin.c"
  15              		.text
  16              	.Ltext0:
  17              		.cfi_sections	.debug_frame
  18              		.section	.text.Blue_LED_pin_Write,"ax",%progbits
  19              		.align	1
  20              		.global	Blue_LED_pin_Write
  21              		.thumb
  22              		.thumb_func
  23              		.type	Blue_LED_pin_Write, %function
  24              	Blue_LED_pin_Write:
  25              	.LFB0:
  26              		.file 1 ".\\Generated_Source\\PSoC5\\Blue_LED_pin.c"
   1:.\Generated_Source\PSoC5/Blue_LED_pin.c **** /*******************************************************************************
   2:.\Generated_Source\PSoC5/Blue_LED_pin.c **** * File Name: Blue_LED_pin.c  
   3:.\Generated_Source\PSoC5/Blue_LED_pin.c **** * Version 2.10
   4:.\Generated_Source\PSoC5/Blue_LED_pin.c **** *
   5:.\Generated_Source\PSoC5/Blue_LED_pin.c **** * Description:
   6:.\Generated_Source\PSoC5/Blue_LED_pin.c **** *  This file contains API to enable firmware control of a Pins component.
   7:.\Generated_Source\PSoC5/Blue_LED_pin.c **** *
   8:.\Generated_Source\PSoC5/Blue_LED_pin.c **** * Note:
   9:.\Generated_Source\PSoC5/Blue_LED_pin.c **** *
  10:.\Generated_Source\PSoC5/Blue_LED_pin.c **** ********************************************************************************
  11:.\Generated_Source\PSoC5/Blue_LED_pin.c **** * Copyright 2008-2014, Cypress Semiconductor Corporation.  All rights reserved.
  12:.\Generated_Source\PSoC5/Blue_LED_pin.c **** * You may use this file only in accordance with the license, terms, conditions, 
  13:.\Generated_Source\PSoC5/Blue_LED_pin.c **** * disclaimers, and limitations in the end user license agreement accompanying 
  14:.\Generated_Source\PSoC5/Blue_LED_pin.c **** * the software package with which this file was provided.
  15:.\Generated_Source\PSoC5/Blue_LED_pin.c **** *******************************************************************************/
  16:.\Generated_Source\PSoC5/Blue_LED_pin.c **** 
  17:.\Generated_Source\PSoC5/Blue_LED_pin.c **** #include "cytypes.h"
  18:.\Generated_Source\PSoC5/Blue_LED_pin.c **** #include "Blue_LED_pin.h"
  19:.\Generated_Source\PSoC5/Blue_LED_pin.c **** 
  20:.\Generated_Source\PSoC5/Blue_LED_pin.c **** /* APIs are not generated for P15[7:6] on PSoC 5 */
  21:.\Generated_Source\PSoC5/Blue_LED_pin.c **** #if !(CY_PSOC5A &&\
  22:.\Generated_Source\PSoC5/Blue_LED_pin.c **** 	 Blue_LED_pin__PORT == 15 && ((Blue_LED_pin__MASK & 0xC0) != 0))
  23:.\Generated_Source\PSoC5/Blue_LED_pin.c **** 
  24:.\Generated_Source\PSoC5/Blue_LED_pin.c **** 
  25:.\Generated_Source\PSoC5/Blue_LED_pin.c **** /*******************************************************************************
  26:.\Generated_Source\PSoC5/Blue_LED_pin.c **** * Function Name: Blue_LED_pin_Write
  27:.\Generated_Source\PSoC5/Blue_LED_pin.c **** ********************************************************************************
  28:.\Generated_Source\PSoC5/Blue_LED_pin.c **** *
  29:.\Generated_Source\PSoC5/Blue_LED_pin.c **** * Summary:
  30:.\Generated_Source\PSoC5/Blue_LED_pin.c **** *  Assign a new value to the digital port's data output register.  
  31:.\Generated_Source\PSoC5/Blue_LED_pin.c **** *
ARM GAS  C:\Users\mjphi\AppData\Local\Temp\ccph981y.s 			page 2


  32:.\Generated_Source\PSoC5/Blue_LED_pin.c **** * Parameters:  
  33:.\Generated_Source\PSoC5/Blue_LED_pin.c **** *  prtValue:  The value to be assigned to the Digital Port. 
  34:.\Generated_Source\PSoC5/Blue_LED_pin.c **** *
  35:.\Generated_Source\PSoC5/Blue_LED_pin.c **** * Return: 
  36:.\Generated_Source\PSoC5/Blue_LED_pin.c **** *  None
  37:.\Generated_Source\PSoC5/Blue_LED_pin.c **** *  
  38:.\Generated_Source\PSoC5/Blue_LED_pin.c **** *******************************************************************************/
  39:.\Generated_Source\PSoC5/Blue_LED_pin.c **** void Blue_LED_pin_Write(uint8 value) 
  40:.\Generated_Source\PSoC5/Blue_LED_pin.c **** {
  27              		.loc 1 40 0
  28              		.cfi_startproc
  29              		@ args = 0, pretend = 0, frame = 0
  30              		@ frame_needed = 0, uses_anonymous_args = 0
  31              		@ link register save eliminated.
  32              	.LVL0:
  41:.\Generated_Source\PSoC5/Blue_LED_pin.c ****     uint8 staticBits = (Blue_LED_pin_DR & (uint8)(~Blue_LED_pin_MASK));
  33              		.loc 1 41 0
  34 0000 044A     		ldr	r2, .L2
  42:.\Generated_Source\PSoC5/Blue_LED_pin.c ****     Blue_LED_pin_DR = staticBits | ((uint8)(value << Blue_LED_pin_SHIFT) & Blue_LED_pin_MASK);
  35              		.loc 1 42 0
  36 0002 8000     		lsls	r0, r0, #2
  37              	.LVL1:
  41:.\Generated_Source\PSoC5/Blue_LED_pin.c ****     uint8 staticBits = (Blue_LED_pin_DR & (uint8)(~Blue_LED_pin_MASK));
  38              		.loc 1 41 0
  39 0004 1378     		ldrb	r3, [r2]	@ zero_extendqisi2
  40              	.LVL2:
  41              		.loc 1 42 0
  42 0006 00F00400 		and	r0, r0, #4
  41:.\Generated_Source\PSoC5/Blue_LED_pin.c ****     uint8 staticBits = (Blue_LED_pin_DR & (uint8)(~Blue_LED_pin_MASK));
  43              		.loc 1 41 0
  44 000a 03F0FB03 		and	r3, r3, #251
  45              	.LVL3:
  46              		.loc 1 42 0
  47 000e 0343     		orrs	r3, r3, r0
  48 0010 1370     		strb	r3, [r2]
  49 0012 7047     		bx	lr
  50              	.L3:
  51              		.align	2
  52              	.L2:
  53 0014 20510040 		.word	1073762592
  54              		.cfi_endproc
  55              	.LFE0:
  56              		.size	Blue_LED_pin_Write, .-Blue_LED_pin_Write
  57              		.section	.text.Blue_LED_pin_SetDriveMode,"ax",%progbits
  58              		.align	1
  59              		.global	Blue_LED_pin_SetDriveMode
  60              		.thumb
  61              		.thumb_func
  62              		.type	Blue_LED_pin_SetDriveMode, %function
  63              	Blue_LED_pin_SetDriveMode:
  64              	.LFB1:
  43:.\Generated_Source\PSoC5/Blue_LED_pin.c **** }
  44:.\Generated_Source\PSoC5/Blue_LED_pin.c **** 
  45:.\Generated_Source\PSoC5/Blue_LED_pin.c **** 
  46:.\Generated_Source\PSoC5/Blue_LED_pin.c **** /*******************************************************************************
  47:.\Generated_Source\PSoC5/Blue_LED_pin.c **** * Function Name: Blue_LED_pin_SetDriveMode
  48:.\Generated_Source\PSoC5/Blue_LED_pin.c **** ********************************************************************************
ARM GAS  C:\Users\mjphi\AppData\Local\Temp\ccph981y.s 			page 3


  49:.\Generated_Source\PSoC5/Blue_LED_pin.c **** *
  50:.\Generated_Source\PSoC5/Blue_LED_pin.c **** * Summary:
  51:.\Generated_Source\PSoC5/Blue_LED_pin.c **** *  Change the drive mode on the pins of the port.
  52:.\Generated_Source\PSoC5/Blue_LED_pin.c **** * 
  53:.\Generated_Source\PSoC5/Blue_LED_pin.c **** * Parameters:  
  54:.\Generated_Source\PSoC5/Blue_LED_pin.c **** *  mode:  Change the pins to one of the following drive modes.
  55:.\Generated_Source\PSoC5/Blue_LED_pin.c **** *
  56:.\Generated_Source\PSoC5/Blue_LED_pin.c **** *  Blue_LED_pin_DM_STRONG     Strong Drive 
  57:.\Generated_Source\PSoC5/Blue_LED_pin.c **** *  Blue_LED_pin_DM_OD_HI      Open Drain, Drives High 
  58:.\Generated_Source\PSoC5/Blue_LED_pin.c **** *  Blue_LED_pin_DM_OD_LO      Open Drain, Drives Low 
  59:.\Generated_Source\PSoC5/Blue_LED_pin.c **** *  Blue_LED_pin_DM_RES_UP     Resistive Pull Up 
  60:.\Generated_Source\PSoC5/Blue_LED_pin.c **** *  Blue_LED_pin_DM_RES_DWN    Resistive Pull Down 
  61:.\Generated_Source\PSoC5/Blue_LED_pin.c **** *  Blue_LED_pin_DM_RES_UPDWN  Resistive Pull Up/Down 
  62:.\Generated_Source\PSoC5/Blue_LED_pin.c **** *  Blue_LED_pin_DM_DIG_HIZ    High Impedance Digital 
  63:.\Generated_Source\PSoC5/Blue_LED_pin.c **** *  Blue_LED_pin_DM_ALG_HIZ    High Impedance Analog 
  64:.\Generated_Source\PSoC5/Blue_LED_pin.c **** *
  65:.\Generated_Source\PSoC5/Blue_LED_pin.c **** * Return: 
  66:.\Generated_Source\PSoC5/Blue_LED_pin.c **** *  None
  67:.\Generated_Source\PSoC5/Blue_LED_pin.c **** *
  68:.\Generated_Source\PSoC5/Blue_LED_pin.c **** *******************************************************************************/
  69:.\Generated_Source\PSoC5/Blue_LED_pin.c **** void Blue_LED_pin_SetDriveMode(uint8 mode) 
  70:.\Generated_Source\PSoC5/Blue_LED_pin.c **** {
  65              		.loc 1 70 0
  66              		.cfi_startproc
  67              		@ args = 0, pretend = 0, frame = 0
  68              		@ frame_needed = 0, uses_anonymous_args = 0
  69              		@ link register save eliminated.
  70              	.LVL4:
  71:.\Generated_Source\PSoC5/Blue_LED_pin.c **** 	CyPins_SetPinDriveMode(Blue_LED_pin_0, mode);
  71              		.loc 1 71 0
  72 0000 044A     		ldr	r2, .L5
  73 0002 00F00E00 		and	r0, r0, #14
  74              	.LVL5:
  75 0006 1378     		ldrb	r3, [r2]	@ zero_extendqisi2
  76 0008 03F0F103 		and	r3, r3, #241
  77 000c 0343     		orrs	r3, r3, r0
  78 000e 1370     		strb	r3, [r2]
  79 0010 7047     		bx	lr
  80              	.L6:
  81 0012 00BF     		.align	2
  82              	.L5:
  83 0014 12500040 		.word	1073762322
  84              		.cfi_endproc
  85              	.LFE1:
  86              		.size	Blue_LED_pin_SetDriveMode, .-Blue_LED_pin_SetDriveMode
  87              		.section	.text.Blue_LED_pin_Read,"ax",%progbits
  88              		.align	1
  89              		.global	Blue_LED_pin_Read
  90              		.thumb
  91              		.thumb_func
  92              		.type	Blue_LED_pin_Read, %function
  93              	Blue_LED_pin_Read:
  94              	.LFB2:
  72:.\Generated_Source\PSoC5/Blue_LED_pin.c **** }
  73:.\Generated_Source\PSoC5/Blue_LED_pin.c **** 
  74:.\Generated_Source\PSoC5/Blue_LED_pin.c **** 
  75:.\Generated_Source\PSoC5/Blue_LED_pin.c **** /*******************************************************************************
ARM GAS  C:\Users\mjphi\AppData\Local\Temp\ccph981y.s 			page 4


  76:.\Generated_Source\PSoC5/Blue_LED_pin.c **** * Function Name: Blue_LED_pin_Read
  77:.\Generated_Source\PSoC5/Blue_LED_pin.c **** ********************************************************************************
  78:.\Generated_Source\PSoC5/Blue_LED_pin.c **** *
  79:.\Generated_Source\PSoC5/Blue_LED_pin.c **** * Summary:
  80:.\Generated_Source\PSoC5/Blue_LED_pin.c **** *  Read the current value on the pins of the Digital Port in right justified 
  81:.\Generated_Source\PSoC5/Blue_LED_pin.c **** *  form.
  82:.\Generated_Source\PSoC5/Blue_LED_pin.c **** *
  83:.\Generated_Source\PSoC5/Blue_LED_pin.c **** * Parameters:  
  84:.\Generated_Source\PSoC5/Blue_LED_pin.c **** *  None
  85:.\Generated_Source\PSoC5/Blue_LED_pin.c **** *
  86:.\Generated_Source\PSoC5/Blue_LED_pin.c **** * Return: 
  87:.\Generated_Source\PSoC5/Blue_LED_pin.c **** *  Returns the current value of the Digital Port as a right justified number
  88:.\Generated_Source\PSoC5/Blue_LED_pin.c **** *  
  89:.\Generated_Source\PSoC5/Blue_LED_pin.c **** * Note:
  90:.\Generated_Source\PSoC5/Blue_LED_pin.c **** *  Macro Blue_LED_pin_ReadPS calls this function. 
  91:.\Generated_Source\PSoC5/Blue_LED_pin.c **** *  
  92:.\Generated_Source\PSoC5/Blue_LED_pin.c **** *******************************************************************************/
  93:.\Generated_Source\PSoC5/Blue_LED_pin.c **** uint8 Blue_LED_pin_Read(void) 
  94:.\Generated_Source\PSoC5/Blue_LED_pin.c **** {
  95              		.loc 1 94 0
  96              		.cfi_startproc
  97              		@ args = 0, pretend = 0, frame = 0
  98              		@ frame_needed = 0, uses_anonymous_args = 0
  99              		@ link register save eliminated.
  95:.\Generated_Source\PSoC5/Blue_LED_pin.c ****     return (Blue_LED_pin_PS & Blue_LED_pin_MASK) >> Blue_LED_pin_SHIFT;
 100              		.loc 1 95 0
 101 0000 024B     		ldr	r3, .L8
 102 0002 1878     		ldrb	r0, [r3]	@ zero_extendqisi2
  96:.\Generated_Source\PSoC5/Blue_LED_pin.c **** }
 103              		.loc 1 96 0
 104 0004 C0F38000 		ubfx	r0, r0, #2, #1
 105 0008 7047     		bx	lr
 106              	.L9:
 107 000a 00BF     		.align	2
 108              	.L8:
 109 000c 21510040 		.word	1073762593
 110              		.cfi_endproc
 111              	.LFE2:
 112              		.size	Blue_LED_pin_Read, .-Blue_LED_pin_Read
 113              		.section	.text.Blue_LED_pin_ReadDataReg,"ax",%progbits
 114              		.align	1
 115              		.global	Blue_LED_pin_ReadDataReg
 116              		.thumb
 117              		.thumb_func
 118              		.type	Blue_LED_pin_ReadDataReg, %function
 119              	Blue_LED_pin_ReadDataReg:
 120              	.LFB3:
  97:.\Generated_Source\PSoC5/Blue_LED_pin.c **** 
  98:.\Generated_Source\PSoC5/Blue_LED_pin.c **** 
  99:.\Generated_Source\PSoC5/Blue_LED_pin.c **** /*******************************************************************************
 100:.\Generated_Source\PSoC5/Blue_LED_pin.c **** * Function Name: Blue_LED_pin_ReadDataReg
 101:.\Generated_Source\PSoC5/Blue_LED_pin.c **** ********************************************************************************
 102:.\Generated_Source\PSoC5/Blue_LED_pin.c **** *
 103:.\Generated_Source\PSoC5/Blue_LED_pin.c **** * Summary:
 104:.\Generated_Source\PSoC5/Blue_LED_pin.c **** *  Read the current value assigned to a Digital Port's data output register
 105:.\Generated_Source\PSoC5/Blue_LED_pin.c **** *
 106:.\Generated_Source\PSoC5/Blue_LED_pin.c **** * Parameters:  
ARM GAS  C:\Users\mjphi\AppData\Local\Temp\ccph981y.s 			page 5


 107:.\Generated_Source\PSoC5/Blue_LED_pin.c **** *  None 
 108:.\Generated_Source\PSoC5/Blue_LED_pin.c **** *
 109:.\Generated_Source\PSoC5/Blue_LED_pin.c **** * Return: 
 110:.\Generated_Source\PSoC5/Blue_LED_pin.c **** *  Returns the current value assigned to the Digital Port's data output register
 111:.\Generated_Source\PSoC5/Blue_LED_pin.c **** *  
 112:.\Generated_Source\PSoC5/Blue_LED_pin.c **** *******************************************************************************/
 113:.\Generated_Source\PSoC5/Blue_LED_pin.c **** uint8 Blue_LED_pin_ReadDataReg(void) 
 114:.\Generated_Source\PSoC5/Blue_LED_pin.c **** {
 121              		.loc 1 114 0
 122              		.cfi_startproc
 123              		@ args = 0, pretend = 0, frame = 0
 124              		@ frame_needed = 0, uses_anonymous_args = 0
 125              		@ link register save eliminated.
 115:.\Generated_Source\PSoC5/Blue_LED_pin.c ****     return (Blue_LED_pin_DR & Blue_LED_pin_MASK) >> Blue_LED_pin_SHIFT;
 126              		.loc 1 115 0
 127 0000 024B     		ldr	r3, .L11
 128 0002 1878     		ldrb	r0, [r3]	@ zero_extendqisi2
 116:.\Generated_Source\PSoC5/Blue_LED_pin.c **** }
 129              		.loc 1 116 0
 130 0004 C0F38000 		ubfx	r0, r0, #2, #1
 131 0008 7047     		bx	lr
 132              	.L12:
 133 000a 00BF     		.align	2
 134              	.L11:
 135 000c 20510040 		.word	1073762592
 136              		.cfi_endproc
 137              	.LFE3:
 138              		.size	Blue_LED_pin_ReadDataReg, .-Blue_LED_pin_ReadDataReg
 139              		.text
 140              	.Letext0:
 141              		.file 2 ".\\Generated_Source\\PSoC5\\cytypes.h"
