ARM GAS  C:\Users\mjphi\AppData\Local\Temp\ccECMGhx.s 			page 1


   1              		.syntax unified
   2              		.cpu cortex-m3
   3              		.fpu softvfp
   4              		.eabi_attribute 20, 1
   5              		.eabi_attribute 21, 1
   6              		.eabi_attribute 23, 3
   7              		.eabi_attribute 24, 1
   8              		.eabi_attribute 25, 1
   9              		.eabi_attribute 26, 1
  10              		.eabi_attribute 30, 4
  11              		.eabi_attribute 34, 1
  12              		.eabi_attribute 18, 4
  13              		.thumb
  14              		.file	"Clock.c"
  15              		.text
  16              	.Ltext0:
  17              		.cfi_sections	.debug_frame
  18              		.section	.text.Clock_Write,"ax",%progbits
  19              		.align	1
  20              		.global	Clock_Write
  21              		.thumb
  22              		.thumb_func
  23              		.type	Clock_Write, %function
  24              	Clock_Write:
  25              	.LFB0:
  26              		.file 1 ".\\Generated_Source\\PSoC5\\Clock.c"
   1:.\Generated_Source\PSoC5/Clock.c **** /*******************************************************************************
   2:.\Generated_Source\PSoC5/Clock.c **** * File Name: Clock.c  
   3:.\Generated_Source\PSoC5/Clock.c **** * Version 2.10
   4:.\Generated_Source\PSoC5/Clock.c **** *
   5:.\Generated_Source\PSoC5/Clock.c **** * Description:
   6:.\Generated_Source\PSoC5/Clock.c **** *  This file contains API to enable firmware control of a Pins component.
   7:.\Generated_Source\PSoC5/Clock.c **** *
   8:.\Generated_Source\PSoC5/Clock.c **** * Note:
   9:.\Generated_Source\PSoC5/Clock.c **** *
  10:.\Generated_Source\PSoC5/Clock.c **** ********************************************************************************
  11:.\Generated_Source\PSoC5/Clock.c **** * Copyright 2008-2014, Cypress Semiconductor Corporation.  All rights reserved.
  12:.\Generated_Source\PSoC5/Clock.c **** * You may use this file only in accordance with the license, terms, conditions, 
  13:.\Generated_Source\PSoC5/Clock.c **** * disclaimers, and limitations in the end user license agreement accompanying 
  14:.\Generated_Source\PSoC5/Clock.c **** * the software package with which this file was provided.
  15:.\Generated_Source\PSoC5/Clock.c **** *******************************************************************************/
  16:.\Generated_Source\PSoC5/Clock.c **** 
  17:.\Generated_Source\PSoC5/Clock.c **** #include "cytypes.h"
  18:.\Generated_Source\PSoC5/Clock.c **** #include "Clock.h"
  19:.\Generated_Source\PSoC5/Clock.c **** 
  20:.\Generated_Source\PSoC5/Clock.c **** /* APIs are not generated for P15[7:6] on PSoC 5 */
  21:.\Generated_Source\PSoC5/Clock.c **** #if !(CY_PSOC5A &&\
  22:.\Generated_Source\PSoC5/Clock.c **** 	 Clock__PORT == 15 && ((Clock__MASK & 0xC0) != 0))
  23:.\Generated_Source\PSoC5/Clock.c **** 
  24:.\Generated_Source\PSoC5/Clock.c **** 
  25:.\Generated_Source\PSoC5/Clock.c **** /*******************************************************************************
  26:.\Generated_Source\PSoC5/Clock.c **** * Function Name: Clock_Write
  27:.\Generated_Source\PSoC5/Clock.c **** ********************************************************************************
  28:.\Generated_Source\PSoC5/Clock.c **** *
  29:.\Generated_Source\PSoC5/Clock.c **** * Summary:
  30:.\Generated_Source\PSoC5/Clock.c **** *  Assign a new value to the digital port's data output register.  
  31:.\Generated_Source\PSoC5/Clock.c **** *
ARM GAS  C:\Users\mjphi\AppData\Local\Temp\ccECMGhx.s 			page 2


  32:.\Generated_Source\PSoC5/Clock.c **** * Parameters:  
  33:.\Generated_Source\PSoC5/Clock.c **** *  prtValue:  The value to be assigned to the Digital Port. 
  34:.\Generated_Source\PSoC5/Clock.c **** *
  35:.\Generated_Source\PSoC5/Clock.c **** * Return: 
  36:.\Generated_Source\PSoC5/Clock.c **** *  None
  37:.\Generated_Source\PSoC5/Clock.c **** *  
  38:.\Generated_Source\PSoC5/Clock.c **** *******************************************************************************/
  39:.\Generated_Source\PSoC5/Clock.c **** void Clock_Write(uint8 value) 
  40:.\Generated_Source\PSoC5/Clock.c **** {
  27              		.loc 1 40 0
  28              		.cfi_startproc
  29              		@ args = 0, pretend = 0, frame = 0
  30              		@ frame_needed = 0, uses_anonymous_args = 0
  31              		@ link register save eliminated.
  32              	.LVL0:
  41:.\Generated_Source\PSoC5/Clock.c ****     uint8 staticBits = (Clock_DR & (uint8)(~Clock_MASK));
  33              		.loc 1 41 0
  34 0000 044A     		ldr	r2, .L2
  35 0002 1378     		ldrb	r3, [r2]	@ zero_extendqisi2
  36              	.LVL1:
  37 0004 03F07F03 		and	r3, r3, #127
  38              	.LVL2:
  42:.\Generated_Source\PSoC5/Clock.c ****     Clock_DR = staticBits | ((uint8)(value << Clock_SHIFT) & Clock_MASK);
  39              		.loc 1 42 0
  40 0008 43EAC010 		orr	r0, r3, r0, lsl #7
  41              	.LVL3:
  42 000c C0B2     		uxtb	r0, r0
  43 000e 1070     		strb	r0, [r2]
  44 0010 7047     		bx	lr
  45              	.L3:
  46 0012 00BF     		.align	2
  47              	.L2:
  48 0014 20510040 		.word	1073762592
  49              		.cfi_endproc
  50              	.LFE0:
  51              		.size	Clock_Write, .-Clock_Write
  52              		.section	.text.Clock_SetDriveMode,"ax",%progbits
  53              		.align	1
  54              		.global	Clock_SetDriveMode
  55              		.thumb
  56              		.thumb_func
  57              		.type	Clock_SetDriveMode, %function
  58              	Clock_SetDriveMode:
  59              	.LFB1:
  43:.\Generated_Source\PSoC5/Clock.c **** }
  44:.\Generated_Source\PSoC5/Clock.c **** 
  45:.\Generated_Source\PSoC5/Clock.c **** 
  46:.\Generated_Source\PSoC5/Clock.c **** /*******************************************************************************
  47:.\Generated_Source\PSoC5/Clock.c **** * Function Name: Clock_SetDriveMode
  48:.\Generated_Source\PSoC5/Clock.c **** ********************************************************************************
  49:.\Generated_Source\PSoC5/Clock.c **** *
  50:.\Generated_Source\PSoC5/Clock.c **** * Summary:
  51:.\Generated_Source\PSoC5/Clock.c **** *  Change the drive mode on the pins of the port.
  52:.\Generated_Source\PSoC5/Clock.c **** * 
  53:.\Generated_Source\PSoC5/Clock.c **** * Parameters:  
  54:.\Generated_Source\PSoC5/Clock.c **** *  mode:  Change the pins to one of the following drive modes.
  55:.\Generated_Source\PSoC5/Clock.c **** *
ARM GAS  C:\Users\mjphi\AppData\Local\Temp\ccECMGhx.s 			page 3


  56:.\Generated_Source\PSoC5/Clock.c **** *  Clock_DM_STRONG     Strong Drive 
  57:.\Generated_Source\PSoC5/Clock.c **** *  Clock_DM_OD_HI      Open Drain, Drives High 
  58:.\Generated_Source\PSoC5/Clock.c **** *  Clock_DM_OD_LO      Open Drain, Drives Low 
  59:.\Generated_Source\PSoC5/Clock.c **** *  Clock_DM_RES_UP     Resistive Pull Up 
  60:.\Generated_Source\PSoC5/Clock.c **** *  Clock_DM_RES_DWN    Resistive Pull Down 
  61:.\Generated_Source\PSoC5/Clock.c **** *  Clock_DM_RES_UPDWN  Resistive Pull Up/Down 
  62:.\Generated_Source\PSoC5/Clock.c **** *  Clock_DM_DIG_HIZ    High Impedance Digital 
  63:.\Generated_Source\PSoC5/Clock.c **** *  Clock_DM_ALG_HIZ    High Impedance Analog 
  64:.\Generated_Source\PSoC5/Clock.c **** *
  65:.\Generated_Source\PSoC5/Clock.c **** * Return: 
  66:.\Generated_Source\PSoC5/Clock.c **** *  None
  67:.\Generated_Source\PSoC5/Clock.c **** *
  68:.\Generated_Source\PSoC5/Clock.c **** *******************************************************************************/
  69:.\Generated_Source\PSoC5/Clock.c **** void Clock_SetDriveMode(uint8 mode) 
  70:.\Generated_Source\PSoC5/Clock.c **** {
  60              		.loc 1 70 0
  61              		.cfi_startproc
  62              		@ args = 0, pretend = 0, frame = 0
  63              		@ frame_needed = 0, uses_anonymous_args = 0
  64              		@ link register save eliminated.
  65              	.LVL4:
  71:.\Generated_Source\PSoC5/Clock.c **** 	CyPins_SetPinDriveMode(Clock_0, mode);
  66              		.loc 1 71 0
  67 0000 044A     		ldr	r2, .L5
  68 0002 00F00E00 		and	r0, r0, #14
  69              	.LVL5:
  70 0006 1378     		ldrb	r3, [r2]	@ zero_extendqisi2
  71 0008 03F0F103 		and	r3, r3, #241
  72 000c 0343     		orrs	r3, r3, r0
  73 000e 1370     		strb	r3, [r2]
  74 0010 7047     		bx	lr
  75              	.L6:
  76 0012 00BF     		.align	2
  77              	.L5:
  78 0014 17500040 		.word	1073762327
  79              		.cfi_endproc
  80              	.LFE1:
  81              		.size	Clock_SetDriveMode, .-Clock_SetDriveMode
  82              		.section	.text.Clock_Read,"ax",%progbits
  83              		.align	1
  84              		.global	Clock_Read
  85              		.thumb
  86              		.thumb_func
  87              		.type	Clock_Read, %function
  88              	Clock_Read:
  89              	.LFB2:
  72:.\Generated_Source\PSoC5/Clock.c **** }
  73:.\Generated_Source\PSoC5/Clock.c **** 
  74:.\Generated_Source\PSoC5/Clock.c **** 
  75:.\Generated_Source\PSoC5/Clock.c **** /*******************************************************************************
  76:.\Generated_Source\PSoC5/Clock.c **** * Function Name: Clock_Read
  77:.\Generated_Source\PSoC5/Clock.c **** ********************************************************************************
  78:.\Generated_Source\PSoC5/Clock.c **** *
  79:.\Generated_Source\PSoC5/Clock.c **** * Summary:
  80:.\Generated_Source\PSoC5/Clock.c **** *  Read the current value on the pins of the Digital Port in right justified 
  81:.\Generated_Source\PSoC5/Clock.c **** *  form.
  82:.\Generated_Source\PSoC5/Clock.c **** *
ARM GAS  C:\Users\mjphi\AppData\Local\Temp\ccECMGhx.s 			page 4


  83:.\Generated_Source\PSoC5/Clock.c **** * Parameters:  
  84:.\Generated_Source\PSoC5/Clock.c **** *  None
  85:.\Generated_Source\PSoC5/Clock.c **** *
  86:.\Generated_Source\PSoC5/Clock.c **** * Return: 
  87:.\Generated_Source\PSoC5/Clock.c **** *  Returns the current value of the Digital Port as a right justified number
  88:.\Generated_Source\PSoC5/Clock.c **** *  
  89:.\Generated_Source\PSoC5/Clock.c **** * Note:
  90:.\Generated_Source\PSoC5/Clock.c **** *  Macro Clock_ReadPS calls this function. 
  91:.\Generated_Source\PSoC5/Clock.c **** *  
  92:.\Generated_Source\PSoC5/Clock.c **** *******************************************************************************/
  93:.\Generated_Source\PSoC5/Clock.c **** uint8 Clock_Read(void) 
  94:.\Generated_Source\PSoC5/Clock.c **** {
  90              		.loc 1 94 0
  91              		.cfi_startproc
  92              		@ args = 0, pretend = 0, frame = 0
  93              		@ frame_needed = 0, uses_anonymous_args = 0
  94              		@ link register save eliminated.
  95:.\Generated_Source\PSoC5/Clock.c ****     return (Clock_PS & Clock_MASK) >> Clock_SHIFT;
  95              		.loc 1 95 0
  96 0000 014B     		ldr	r3, .L8
  97 0002 1878     		ldrb	r0, [r3]	@ zero_extendqisi2
  96:.\Generated_Source\PSoC5/Clock.c **** }
  98              		.loc 1 96 0
  99 0004 C009     		lsrs	r0, r0, #7
 100 0006 7047     		bx	lr
 101              	.L9:
 102              		.align	2
 103              	.L8:
 104 0008 21510040 		.word	1073762593
 105              		.cfi_endproc
 106              	.LFE2:
 107              		.size	Clock_Read, .-Clock_Read
 108              		.section	.text.Clock_ReadDataReg,"ax",%progbits
 109              		.align	1
 110              		.global	Clock_ReadDataReg
 111              		.thumb
 112              		.thumb_func
 113              		.type	Clock_ReadDataReg, %function
 114              	Clock_ReadDataReg:
 115              	.LFB3:
  97:.\Generated_Source\PSoC5/Clock.c **** 
  98:.\Generated_Source\PSoC5/Clock.c **** 
  99:.\Generated_Source\PSoC5/Clock.c **** /*******************************************************************************
 100:.\Generated_Source\PSoC5/Clock.c **** * Function Name: Clock_ReadDataReg
 101:.\Generated_Source\PSoC5/Clock.c **** ********************************************************************************
 102:.\Generated_Source\PSoC5/Clock.c **** *
 103:.\Generated_Source\PSoC5/Clock.c **** * Summary:
 104:.\Generated_Source\PSoC5/Clock.c **** *  Read the current value assigned to a Digital Port's data output register
 105:.\Generated_Source\PSoC5/Clock.c **** *
 106:.\Generated_Source\PSoC5/Clock.c **** * Parameters:  
 107:.\Generated_Source\PSoC5/Clock.c **** *  None 
 108:.\Generated_Source\PSoC5/Clock.c **** *
 109:.\Generated_Source\PSoC5/Clock.c **** * Return: 
 110:.\Generated_Source\PSoC5/Clock.c **** *  Returns the current value assigned to the Digital Port's data output register
 111:.\Generated_Source\PSoC5/Clock.c **** *  
 112:.\Generated_Source\PSoC5/Clock.c **** *******************************************************************************/
 113:.\Generated_Source\PSoC5/Clock.c **** uint8 Clock_ReadDataReg(void) 
ARM GAS  C:\Users\mjphi\AppData\Local\Temp\ccECMGhx.s 			page 5


 114:.\Generated_Source\PSoC5/Clock.c **** {
 116              		.loc 1 114 0
 117              		.cfi_startproc
 118              		@ args = 0, pretend = 0, frame = 0
 119              		@ frame_needed = 0, uses_anonymous_args = 0
 120              		@ link register save eliminated.
 115:.\Generated_Source\PSoC5/Clock.c ****     return (Clock_DR & Clock_MASK) >> Clock_SHIFT;
 121              		.loc 1 115 0
 122 0000 014B     		ldr	r3, .L11
 123 0002 1878     		ldrb	r0, [r3]	@ zero_extendqisi2
 116:.\Generated_Source\PSoC5/Clock.c **** }
 124              		.loc 1 116 0
 125 0004 C009     		lsrs	r0, r0, #7
 126 0006 7047     		bx	lr
 127              	.L12:
 128              		.align	2
 129              	.L11:
 130 0008 20510040 		.word	1073762592
 131              		.cfi_endproc
 132              	.LFE3:
 133              		.size	Clock_ReadDataReg, .-Clock_ReadDataReg
 134              		.text
 135              	.Letext0:
 136              		.file 2 ".\\Generated_Source\\PSoC5\\cytypes.h"
