Archive member included because of file (symbol)

.\CortexM3\ARM_GCC_493\Release\Final_Project.a(cyfitter_cfg.o)
                              .\CortexM3\ARM_GCC_493\Release\Cm3Start.o (cyfitter_cfg)
.\CortexM3\ARM_GCC_493\Release\Final_Project.a(CyBootAsmGnu.o)
                              .\CortexM3\ARM_GCC_493\Release\Final_Project.a(cyfitter_cfg.o) (CyDelayCycles)
.\CortexM3\ARM_GCC_493\Release\Final_Project.a(CyLib.o)
                              .\CortexM3\ARM_GCC_493\Release\Cm3Start.o (CyHalt)
.\CortexM3\ARM_GCC_493\Release\Final_Project.a(cyPm.o)
                              .\CortexM3\ARM_GCC_493\Release\Final_Project.a(CyLib.o) (CyPmReadStatus)
.\CortexM3\ARM_GCC_493\Release\Final_Project.a(Data.o)
                              .\CortexM3\ARM_GCC_493\Release\TM1636.o (Data_Write)
.\CortexM3\ARM_GCC_493\Release\Final_Project.a(Clock.o)
                              .\CortexM3\ARM_GCC_493\Release\TM1636.o (Clock_Write)
.\CortexM3\ARM_GCC_493\Release\Final_Project.a(ADC_DelSig_1.o)
                              .\CortexM3\ARM_GCC_493\Release\main.o (ADC_DelSig_1_Start)
.\CortexM3\ARM_GCC_493\Release\Final_Project.a(ADC_DelSig_1_INT.o)
                              .\CortexM3\ARM_GCC_493\Release\Final_Project.a(ADC_DelSig_1.o) (ADC_DelSig_1_ISR1)
.\CortexM3\ARM_GCC_493\Release\Final_Project.a(ADC_DelSig_1_AMux.o)
                              .\CortexM3\ARM_GCC_493\Release\Final_Project.a(ADC_DelSig_1.o) (ADC_DelSig_1_AMux_Select)
.\CortexM3\ARM_GCC_493\Release\Final_Project.a(ADC_DelSig_1_Ext_CP_Clk.o)
                              .\CortexM3\ARM_GCC_493\Release\Final_Project.a(ADC_DelSig_1.o) (ADC_DelSig_1_Ext_CP_Clk_SetDividerRegister)
.\CortexM3\ARM_GCC_493\Release\Final_Project.a(ADC_DelSig_1_theACLK.o)
                              .\CortexM3\ARM_GCC_493\Release\Final_Project.a(ADC_DelSig_1.o) (ADC_DelSig_1_theACLK_SetDividerRegister)
.\CortexM3\ARM_GCC_493\Release\Final_Project.a(CyFlash.o)
                              .\CortexM3\ARM_GCC_493\Release\Final_Project.a(cyPm.o) (CyFlash_SetWaitCycles)
.\CortexM3\ARM_GCC_493\Release\Final_Project.a(CySpc.o)
                              .\CortexM3\ARM_GCC_493\Release\Final_Project.a(CyFlash.o) (CySpcStart)
c:/program files (x86)/cypress/psoc creator/3.3/psoc creator/import/gnu/arm/4.9.3/bin/../lib/gcc/arm-none-eabi/4.9.3/../../../../arm-none-eabi/lib/armv7-m\libm.a(lib_a-wf_log10.o)
                              .\CortexM3\ARM_GCC_493\Release\main.o (log10f)
c:/program files (x86)/cypress/psoc creator/3.3/psoc creator/import/gnu/arm/4.9.3/bin/../lib/gcc/arm-none-eabi/4.9.3/../../../../arm-none-eabi/lib/armv7-m\libm.a(lib_a-ef_log10.o)
                              c:/program files (x86)/cypress/psoc creator/3.3/psoc creator/import/gnu/arm/4.9.3/bin/../lib/gcc/arm-none-eabi/4.9.3/../../../../arm-none-eabi/lib/armv7-m\libm.a(lib_a-wf_log10.o) (__ieee754_log10f)
c:/program files (x86)/cypress/psoc creator/3.3/psoc creator/import/gnu/arm/4.9.3/bin/../lib/gcc/arm-none-eabi/4.9.3/../../../../arm-none-eabi/lib/armv7-m\libm.a(lib_a-s_lib_ver.o)
                              c:/program files (x86)/cypress/psoc creator/3.3/psoc creator/import/gnu/arm/4.9.3/bin/../lib/gcc/arm-none-eabi/4.9.3/../../../../arm-none-eabi/lib/armv7-m\libm.a(lib_a-wf_log10.o) (__fdlib_version)
c:/program files (x86)/cypress/psoc creator/3.3/psoc creator/import/gnu/arm/4.9.3/bin/../lib/gcc/arm-none-eabi/4.9.3/../../../../arm-none-eabi/lib/armv7-m\libm.a(lib_a-s_matherr.o)
                              c:/program files (x86)/cypress/psoc creator/3.3/psoc creator/import/gnu/arm/4.9.3/bin/../lib/gcc/arm-none-eabi/4.9.3/../../../../arm-none-eabi/lib/armv7-m\libm.a(lib_a-wf_log10.o) (matherr)
c:/program files (x86)/cypress/psoc creator/3.3/psoc creator/import/gnu/arm/4.9.3/bin/../lib/gcc/arm-none-eabi/4.9.3/../../../../arm-none-eabi/lib/armv7-m\libm.a(lib_a-s_nan.o)
                              c:/program files (x86)/cypress/psoc creator/3.3/psoc creator/import/gnu/arm/4.9.3/bin/../lib/gcc/arm-none-eabi/4.9.3/../../../../arm-none-eabi/lib/armv7-m\libm.a(lib_a-wf_log10.o) (nan)
c:/program files (x86)/cypress/psoc creator/3.3/psoc creator/import/gnu/arm/4.9.3/bin/../lib/gcc/arm-none-eabi/4.9.3/../../../../arm-none-eabi/lib/armv7-m\libm.a(lib_a-sf_fpclassify.o)
                              c:/program files (x86)/cypress/psoc creator/3.3/psoc creator/import/gnu/arm/4.9.3/bin/../lib/gcc/arm-none-eabi/4.9.3/../../../../arm-none-eabi/lib/armv7-m\libm.a(lib_a-wf_log10.o) (__fpclassifyf)
c:/program files (x86)/cypress/psoc creator/3.3/psoc creator/import/gnu/arm/4.9.3/bin/../lib/gcc/arm-none-eabi/4.9.3/../../../../arm-none-eabi/lib/armv7-m\libm.a(lib_a-ef_log.o)
                              c:/program files (x86)/cypress/psoc creator/3.3/psoc creator/import/gnu/arm/4.9.3/bin/../lib/gcc/arm-none-eabi/4.9.3/../../../../arm-none-eabi/lib/armv7-m\libm.a(lib_a-ef_log10.o) (__ieee754_logf)
c:/program files (x86)/cypress/psoc creator/3.3/psoc creator/import/gnu/arm/4.9.3/bin/../lib/gcc/arm-none-eabi/4.9.3/armv7-m\libgcc.a(_arm_addsubdf3.o)
                              .\CortexM3\ARM_GCC_493\Release\main.o (__aeabi_dsub)
c:/program files (x86)/cypress/psoc creator/3.3/psoc creator/import/gnu/arm/4.9.3/bin/../lib/gcc/arm-none-eabi/4.9.3/armv7-m\libgcc.a(_arm_muldivdf3.o)
                              .\CortexM3\ARM_GCC_493\Release\main.o (__aeabi_ddiv)
c:/program files (x86)/cypress/psoc creator/3.3/psoc creator/import/gnu/arm/4.9.3/bin/../lib/gcc/arm-none-eabi/4.9.3/armv7-m\libgcc.a(_arm_cmpdf2.o)
                              .\CortexM3\ARM_GCC_493\Release\Final_Project.a(ADC_DelSig_1.o) (__aeabi_dcmpgt)
c:/program files (x86)/cypress/psoc creator/3.3/psoc creator/import/gnu/arm/4.9.3/bin/../lib/gcc/arm-none-eabi/4.9.3/armv7-m\libgcc.a(_arm_truncdfsf2.o)
                              .\CortexM3\ARM_GCC_493\Release\main.o (__aeabi_d2f)
c:/program files (x86)/cypress/psoc creator/3.3/psoc creator/import/gnu/arm/4.9.3/bin/../lib/gcc/arm-none-eabi/4.9.3/armv7-m\libgcc.a(_arm_addsubsf3.o)
                              c:/program files (x86)/cypress/psoc creator/3.3/psoc creator/import/gnu/arm/4.9.3/bin/../lib/gcc/arm-none-eabi/4.9.3/../../../../arm-none-eabi/lib/armv7-m\libm.a(lib_a-ef_log10.o) (__aeabi_fsub)
c:/program files (x86)/cypress/psoc creator/3.3/psoc creator/import/gnu/arm/4.9.3/bin/../lib/gcc/arm-none-eabi/4.9.3/armv7-m\libgcc.a(_arm_muldivsf3.o)
                              .\CortexM3\ARM_GCC_493\Release\main.o (__aeabi_fmul)
c:/program files (x86)/cypress/psoc creator/3.3/psoc creator/import/gnu/arm/4.9.3/bin/../lib/gcc/arm-none-eabi/4.9.3/armv7-m\libgcc.a(_arm_cmpsf2.o)
                              c:/program files (x86)/cypress/psoc creator/3.3/psoc creator/import/gnu/arm/4.9.3/bin/../lib/gcc/arm-none-eabi/4.9.3/../../../../arm-none-eabi/lib/armv7-m\libm.a(lib_a-wf_log10.o) (__aeabi_fcmpeq)
c:/program files (x86)/cypress/psoc creator/3.3/psoc creator/import/gnu/arm/4.9.3/bin/../lib/gcc/arm-none-eabi/4.9.3/armv7-m\libgcc.a(_arm_fixsfsi.o)
                              .\CortexM3\ARM_GCC_493\Release\main.o (__aeabi_f2iz)
c:/program files (x86)/cypress/psoc creator/3.3/psoc creator/import/gnu/arm/4.9.3/bin/../lib/gcc/arm-none-eabi/4.9.3/armv7-m\libgcc.a(_arm_fixunssfsi.o)
                              .\CortexM3\ARM_GCC_493\Release\Final_Project.a(ADC_DelSig_1.o) (__aeabi_f2uiz)
c:/program files (x86)/cypress/psoc creator/3.3/psoc creator/import/gnu/arm/4.9.3/bin/../lib/gcc/arm-none-eabi/4.9.3/../../../../arm-none-eabi/lib/armv7-m\libg_nano.a(lib_a-errno.o)
                              .\CortexM3\ARM_GCC_493\Release\Cm3Start.o (__errno)
c:/program files (x86)/cypress/psoc creator/3.3/psoc creator/import/gnu/arm/4.9.3/bin/../lib/gcc/arm-none-eabi/4.9.3/../../../../arm-none-eabi/lib/armv7-m\libg_nano.a(lib_a-exit.o)
                              c:/program files (x86)/cypress/psoc creator/3.3/psoc creator/import/gnu/arm/4.9.3/bin/../lib/gcc/arm-none-eabi/4.9.3/../../../../arm-none-eabi/lib/armv7-m/crt0.o (exit)
c:/program files (x86)/cypress/psoc creator/3.3/psoc creator/import/gnu/arm/4.9.3/bin/../lib/gcc/arm-none-eabi/4.9.3/../../../../arm-none-eabi/lib/armv7-m\libg_nano.a(lib_a-impure.o)
                              c:/program files (x86)/cypress/psoc creator/3.3/psoc creator/import/gnu/arm/4.9.3/bin/../lib/gcc/arm-none-eabi/4.9.3/../../../../arm-none-eabi/lib/armv7-m\libg_nano.a(lib_a-exit.o) (_global_impure_ptr)
c:/program files (x86)/cypress/psoc creator/3.3/psoc creator/import/gnu/arm/4.9.3/bin/../lib/gcc/arm-none-eabi/4.9.3/../../../../arm-none-eabi/lib/armv7-m\libg_nano.a(lib_a-init.o)
                              c:/program files (x86)/cypress/psoc creator/3.3/psoc creator/import/gnu/arm/4.9.3/bin/../lib/gcc/arm-none-eabi/4.9.3/../../../../arm-none-eabi/lib/armv7-m/crt0.o (__libc_init_array)
c:/program files (x86)/cypress/psoc creator/3.3/psoc creator/import/gnu/arm/4.9.3/bin/../lib/gcc/arm-none-eabi/4.9.3/../../../../arm-none-eabi/lib/armv7-m\libg_nano.a(lib_a-memcmp.o)
                              .\CortexM3\ARM_GCC_493\Release\tasks.o (memcmp)
c:/program files (x86)/cypress/psoc creator/3.3/psoc creator/import/gnu/arm/4.9.3/bin/../lib/gcc/arm-none-eabi/4.9.3/../../../../arm-none-eabi/lib/armv7-m\libg_nano.a(lib_a-memcpy.o)
                              .\CortexM3\ARM_GCC_493\Release\queue.o (memcpy)
c:/program files (x86)/cypress/psoc creator/3.3/psoc creator/import/gnu/arm/4.9.3/bin/../lib/gcc/arm-none-eabi/4.9.3/../../../../arm-none-eabi/lib/armv7-m\libg_nano.a(lib_a-memset.o)
                              c:/program files (x86)/cypress/psoc creator/3.3/psoc creator/import/gnu/arm/4.9.3/bin/../lib/gcc/arm-none-eabi/4.9.3/../../../../arm-none-eabi/lib/armv7-m/crt0.o (memset)

Allocating common symbols
Common symbol       size              file

ADC_DelSig_1_CountsPerVolt
                    0x4               .\CortexM3\ARM_GCC_493\Release\Final_Project.a(ADC_DelSig_1.o)
ADC_DelSig_1_Offset
                    0x4               .\CortexM3\ARM_GCC_493\Release\Final_Project.a(ADC_DelSig_1.o)
table_length        0x1               .\CortexM3\ARM_GCC_493\Release\main.o
DisplayPointFlag    0x1               .\CortexM3\ARM_GCC_493\Release\main.o
xQueueRegistry      0x50              .\CortexM3\ARM_GCC_493\Release\queue.o
temperature         0x1               .\CortexM3\ARM_GCC_493\Release\main.o
DisplayBrigtness    0x1               .\CortexM3\ARM_GCC_493\Release\main.o
Cmd_SetAddr         0x1               .\CortexM3\ARM_GCC_493\Release\main.o
Cmd_SetData         0x1               .\CortexM3\ARM_GCC_493\Release\main.o
Cmd_DispCtrl        0x1               .\CortexM3\ARM_GCC_493\Release\main.o
dieTemperature      0x2               .\CortexM3\ARM_GCC_493\Release\Final_Project.a(CyFlash.o)
disp                0x4               .\CortexM3\ARM_GCC_493\Release\main.o

Discarded input sections

 .text          0x00000000        0x0 c:/program files (x86)/cypress/psoc creator/3.3/psoc creator/import/gnu/arm/4.9.3/bin/../lib/gcc/arm-none-eabi/4.9.3/armv7-m/crti.o
 .data          0x00000000        0x0 c:/program files (x86)/cypress/psoc creator/3.3/psoc creator/import/gnu/arm/4.9.3/bin/../lib/gcc/arm-none-eabi/4.9.3/armv7-m/crti.o
 .bss           0x00000000        0x0 c:/program files (x86)/cypress/psoc creator/3.3/psoc creator/import/gnu/arm/4.9.3/bin/../lib/gcc/arm-none-eabi/4.9.3/armv7-m/crti.o
 .data          0x00000000        0x4 c:/program files (x86)/cypress/psoc creator/3.3/psoc creator/import/gnu/arm/4.9.3/bin/../lib/gcc/arm-none-eabi/4.9.3/armv7-m/crtbegin.o
 .text          0x00000000       0x74 c:/program files (x86)/cypress/psoc creator/3.3/psoc creator/import/gnu/arm/4.9.3/bin/../lib/gcc/arm-none-eabi/4.9.3/../../../../arm-none-eabi/lib/armv7-m/crt0.o
 .data          0x00000000        0x0 c:/program files (x86)/cypress/psoc creator/3.3/psoc creator/import/gnu/arm/4.9.3/bin/../lib/gcc/arm-none-eabi/4.9.3/../../../../arm-none-eabi/lib/armv7-m/crt0.o
 .bss           0x00000000        0x0 c:/program files (x86)/cypress/psoc creator/3.3/psoc creator/import/gnu/arm/4.9.3/bin/../lib/gcc/arm-none-eabi/4.9.3/../../../../arm-none-eabi/lib/armv7-m/crt0.o
 .ARM.extab     0x00000000        0x0 c:/program files (x86)/cypress/psoc creator/3.3/psoc creator/import/gnu/arm/4.9.3/bin/../lib/gcc/arm-none-eabi/4.9.3/../../../../arm-none-eabi/lib/armv7-m/crt0.o
 .ARM.exidx     0x00000000        0x8 c:/program files (x86)/cypress/psoc creator/3.3/psoc creator/import/gnu/arm/4.9.3/bin/../lib/gcc/arm-none-eabi/4.9.3/../../../../arm-none-eabi/lib/armv7-m/crt0.o
 .text          0x00000000        0x0 .\CortexM3\ARM_GCC_493\Release\main.o
 .data          0x00000000       0x10 .\CortexM3\ARM_GCC_493\Release\main.o
 .bss           0x00000000        0x2 .\CortexM3\ARM_GCC_493\Release\main.o
 .text          0x00000000        0x0 .\CortexM3\ARM_GCC_493\Release\TM1636.o
 .data          0x00000000        0x0 .\CortexM3\ARM_GCC_493\Release\TM1636.o
 .bss           0x00000000        0x0 .\CortexM3\ARM_GCC_493\Release\TM1636.o
 .text.TM1636set
                0x00000000       0x24 .\CortexM3\ARM_GCC_493\Release\TM1636.o
 .text.TM1636point
Memory Configuration

Name             Origin             Length             Attributes
rom              0x00000000         0x00040000         xr
ram              0x1fff8000         0x00010000         xrw
*default*        0x00000000         0xffffffff

Linker script and memory map

LOAD c:/program files (x86)/cypress/psoc creator/3.3/psoc creator/import/gnu/arm/4.9.3/bin/../lib/gcc/arm-none-eabi/4.9.3/armv7-m/crti.o
LOAD c:/program files (x86)/cypress/psoc creator/3.3/psoc creator/import/gnu/arm/4.9.3/bin/../lib/gcc/arm-none-eabi/4.9.3/armv7-m/crtbegin.o
LOAD c:/program files (x86)/cypress/psoc creator/3.3/psoc creator/import/gnu/arm/4.9.3/bin/../lib/gcc/arm-none-eabi/4.9.3/../../../../arm-none-eabi/lib/armv7-m/crt0.o
START GROUP
LOAD .\CortexM3\ARM_GCC_493\Release\main.o
LOAD .\CortexM3\ARM_GCC_493\Release\TM1636.o
LOAD .\CortexM3\ARM_GCC_493\Release\heap_1.o
LOAD .\CortexM3\ARM_GCC_493\Release\list.o
LOAD .\CortexM3\ARM_GCC_493\Release\port.o
LOAD .\CortexM3\ARM_GCC_493\Release\queue.o
LOAD .\CortexM3\ARM_GCC_493\Release\tasks.o
LOAD .\CortexM3\ARM_GCC_493\Release\cymetadata.o
LOAD .\CortexM3\ARM_GCC_493\Release\Cm3Start.o
LOAD .\CortexM3\ARM_GCC_493\Release\Final_Project.a
LOAD C:\Program Files (x86)\Cypress\PSoC Creator\3.3\PSoC Creator\psoc\content\cycomponentlibrary\CyComponentLibrary.cylib\CortexM3\ARM_GCC_493\Release\CyComponentLibrary.a
LOAD c:/program files (x86)/cypress/psoc creator/3.3/psoc creator/import/gnu/arm/4.9.3/bin/../lib/gcc/arm-none-eabi/4.9.3/../../../../arm-none-eabi/lib/armv7-m\libm.a
END GROUP
START GROUP
LOAD c:/program files (x86)/cypress/psoc creator/3.3/psoc creator/import/gnu/arm/4.9.3/bin/../lib/gcc/arm-none-eabi/4.9.3/armv7-m\libgcc.a
LOAD c:/program files (x86)/cypress/psoc creator/3.3/psoc creator/import/gnu/arm/4.9.3/bin/../lib/gcc/arm-none-eabi/4.9.3/../../../../arm-none-eabi/lib/armv7-m\libg_nano.a
LOAD c:/program files (x86)/cypress/psoc creator/3.3/psoc creator/import/gnu/arm/4.9.3/bin/../lib/gcc/arm-none-eabi/4.9.3/../../../../arm-none-eabi/lib/armv7-m\libc_nano.a
END GROUP
START GROUP
LOAD c:/program files (x86)/cypress/psoc creator/3.3/psoc creator/import/gnu/arm/4.9.3/bin/../lib/gcc/arm-none-eabi/4.9.3/armv7-m\libgcc.a
LOAD c:/program files (x86)/cypress/psoc creator/3.3/psoc creator/import/gnu/arm/4.9.3/bin/../lib/gcc/arm-none-eabi/4.9.3/../../../../arm-none-eabi/lib/armv7-m\libc_nano.a
END GROUP
LOAD c:/program files (x86)/cypress/psoc creator/3.3/psoc creator/import/gnu/arm/4.9.3/bin/../lib/gcc/arm-none-eabi/4.9.3/armv7-m/crtend.o
LOAD c:/program files (x86)/cypress/psoc creator/3.3/psoc creator/import/gnu/arm/4.9.3/bin/../lib/gcc/arm-none-eabi/4.9.3/armv7-m/crtn.o
START GROUP
LOAD c:/program files (x86)/cypress/psoc creator/3.3/psoc creator/import/gnu/arm/4.9.3/bin/../lib/gcc/arm-none-eabi/4.9.3/armv7-m\libgcc.a
LOAD c:/program files (x86)/cypress/psoc creator/3.3/psoc creator/import/gnu/arm/4.9.3/bin/../lib/gcc/arm-none-eabi/4.9.3/../../../../arm-none-eabi/lib/armv7-m\libc.a
LOAD c:/program files (x86)/cypress/psoc creator/3.3/psoc creator/import/gnu/arm/4.9.3/bin/../lib/gcc/arm-none-eabi/4.9.3/../../../../arm-none-eabi/lib/armv7-m\libnosys.a
END GROUP
                0x00000000                CY_APPL_ORIGIN = 0x0
                0x00000100                CY_FLASH_ROW_SIZE = 0x100
                0x00000020                CY_ECC_ROW_SIZE = 0x20
                0x00000000                CY_EE_IN_BTLDR = 0x0
                0x00000000                CY_APPL_LOADABLE = 0x0
                0x00000800                CY_EE_SIZE = 0x800
                0x00000001                CY_APPL_NUM = 0x1
                0x00000001                CY_APPL_MAX = 0x1
                0x00000040                CY_METADATA_SIZE = 0x40
                0x00000000                CY_APPL_LOADABLE = 0x0
                0x00000000                CY_CHECKSUM_EXCLUDE_SIZE = ALIGN (0x0, CY_FLASH_ROW_SIZE)
                0x1fffa2d8                PROVIDE (__cy_heap_start, _end)
                0x00000001                PROVIDE (__cy_region_num, ((__cy_regions_end - __cy_regions) / 0x10))
                0x20008000                PROVIDE (__cy_stack, (ORIGIN (ram) + 0x10000))
                0x20007e00                PROVIDE (__cy_heap_end, (__cy_stack - 0x200))

.cybootloader   0x00000000        0x0
 *(.cybootloader)
                0x00000000                appl1_start = CY_APPL_ORIGIN?CY_APPL_ORIGIN:ALIGN (CY_FLASH_ROW_SIZE)
                0x0001ff00                appl2_start = (appl1_start + ALIGN ((((0x40000 - appl1_start) - (0x2 * CY_FLASH_ROW_SIZE)) / 0x2), CY_FLASH_ROW_SIZE))
                0x00000000                appl_start = (CY_APPL_NUM == 0x1)?appl1_start:appl2_start
                0x00000000                ecc_offset = ((appl_start / CY_FLASH_ROW_SIZE) * CY_ECC_ROW_SIZE)
                0x00000000                ee_offset = (CY_APPL_LOADABLE && ! (CY_EE_IN_BTLDR))?((CY_EE_SIZE / CY_APPL_MAX) * (CY_APPL_NUM - 0x1)):0x0
                0x00000800                ee_size = (CY_APPL_LOADABLE && ! (CY_EE_IN_BTLDR))?(CY_EE_SIZE / CY_APPL_MAX):CY_EE_SIZE
                0x00000000                PROVIDE (CY_ECC_OFFSET, ecc_offset)

.text           0x00000000     0x293c
 CREATE_OBJECT_SYMBOLS
                0x00000000                PROVIDE (__cy_interrupt_vector, RomVectors)
 *(.romvectors)
 .romvectors    0x00000000       0x10 .\CortexM3\ARM_GCC_493\Release\Cm3Start.o
                0x00000000                RomVectors
                0x00000001                ASSERT ((. != __cy_interrupt_vector), No interrupt vector)
                0x00000001                ASSERT (CY_APPL_ORIGIN?(SIZEOF (.cybootloader) <= CY_APPL_ORIGIN):0x1, Wrong image location)
                0x00000010                PROVIDE (__cy_reset, Reset)
 *(.text.Reset)
 .text.Reset    0x00000010       0x18 .\CortexM3\ARM_GCC_493\Release\Cm3Start.o
                0x00000010                Reset
                0x00000001                ASSERT ((. != __cy_reset), No reset code)
 *(.dma_init)
                0x00000001                ASSERT ((((appl_start + .) <= 0x10000) || 0x1), DMA Init must be within the first 64k of flash)
 *(.text .text.* .gnu.linkonce.t.*)
 .text          0x00000028       0x5c c:/program files (x86)/cypress/psoc creator/3.3/psoc creator/import/gnu/arm/4.9.3/bin/../lib/gcc/arm-none-eabi/4.9.3/armv7-m/crtbegin.o
 *fill*         0x00000084        0x4 
 .text.Read_Temp_Sensor
                0x00000088       0xa0 .\CortexM3\ARM_GCC_493\Release\main.o
 .text.Update_Display_Task
                0x00000128       0x64 .\CortexM3\ARM_GCC_493\Release\main.o
 .text.vApplicationMallocFailedHook
                0x0000018c        0x2 .\CortexM3\ARM_GCC_493\Release\main.o
                0x0000018c                vApplicationMallocFailedHook
 .text.vApplicationStackOverflowHook
                0x0000018e        0x2 .\CortexM3\ARM_GCC_493\Release\main.o
                0x0000018e                vApplicationStackOverflowHook
 .text.startup.main
                0x00000190       0x78 .\CortexM3\ARM_GCC_493\Release\main.o
                0x00000190                main
 .text.TM1636writeByte
                0x00000208       0x6a .\CortexM3\ARM_GCC_493\Release\TM1636.o
                0x00000208                TM1636writeByte
 .text.TM1636start
                0x00000272       0x1e .\CortexM3\ARM_GCC_493\Release\TM1636.o
                0x00000272                TM1636start
 .text.TM1636stop
                0x00000290       0x1e .\CortexM3\ARM_GCC_493\Release\TM1636.o
                0x00000290                TM1636stop
 *fill*         0x000002ae        0x2 
 .text.TM1636coding
                0x000002b0       0x38 .\CortexM3\ARM_GCC_493\Release\TM1636.o
                0x000002b0                TM1636coding
 .text.TM1636_Full_Screen
                0x000002e8       0x64 .\CortexM3\ARM_GCC_493\Release\TM1636.o
                0x000002e8                TM1636_Full_Screen
 .text.TM1636_coding
                0x0000034c       0x28 .\CortexM3\ARM_GCC_493\Release\TM1636.o
                0x0000034c                TM1636_coding
 .text.TM1636display
                0x00000374       0x4c .\CortexM3\ARM_GCC_493\Release\TM1636.o
                0x00000374                TM1636display
 .text.TM1636clearDisplay
                0x000003c0       0x26 .\CortexM3\ARM_GCC_493\Release\TM1636.o
                0x000003c0                TM1636clearDisplay
 *fill*         0x000003e6        0x2 
 .text.TM1636init
                0x000003e8       0x38 .\CortexM3\ARM_GCC_493\Release\TM1636.o
                0x000003e8                TM1636init
 .text.pvPortMalloc
                0x00000420       0x58 .\CortexM3\ARM_GCC_493\Release\heap_1.o
                0x00000420                pvPortMalloc
 .text.vPortFree
                0x00000478        0x2 .\CortexM3\ARM_GCC_493\Release\heap_1.o
                0x00000478                vPortFree
 .text.vListInitialise
                0x0000047a       0x16 .\CortexM3\ARM_GCC_493\Release\list.o
                0x0000047a                vListInitialise
 .text.vListInitialiseItem
                0x00000490        0x6 .\CortexM3\ARM_GCC_493\Release\list.o
                0x00000490                vListInitialiseItem
 .text.vListInsertEnd
                0x00000496       0x18 .\CortexM3\ARM_GCC_493\Release\list.o
                0x00000496                vListInsertEnd
 .text.vListInsert
                0x000004ae       0x30 .\CortexM3\ARM_GCC_493\Release\list.o
                0x000004ae                vListInsert
 .text.uxListRemove
                0x000004de       0x20 .\CortexM3\ARM_GCC_493\Release\list.o
                0x000004de                uxListRemove
 *fill*         0x000004fe        0x2 
 .text.prvPortStartFirstTask
                0x00000500       0x20 .\CortexM3\ARM_GCC_493\Release\port.o
 .text.pxPortInitialiseStack
                0x00000520       0x1c .\CortexM3\ARM_GCC_493\Release\port.o
                0x00000520                pxPortInitialiseStack
 .text.vPortSVCHandler
                0x0000053c       0x24 .\CortexM3\ARM_GCC_493\Release\port.o
                0x0000053c                vPortSVCHandler
 .text.vPortYield
                0x00000560       0x18 .\CortexM3\ARM_GCC_493\Release\port.o
                0x00000560                vPortYield
 .text.ulPortSetInterruptMask
                0x00000578       0x10 .\CortexM3\ARM_GCC_493\Release\port.o
                0x00000578                ulPortSetInterruptMask
 .text.prvTaskExitError
                0x00000588        0x8 .\CortexM3\ARM_GCC_493\Release\port.o
 .text.vPortEnterCritical
                0x00000590       0x1c .\CortexM3\ARM_GCC_493\Release\port.o
                0x00000590                vPortEnterCritical
 .text.vPortClearInterruptMask
                0x000005ac        0x6 .\CortexM3\ARM_GCC_493\Release\port.o
                0x000005ac                vPortClearInterruptMask
 *fill*         0x000005b2        0x2 
 .text.vPortExitCritical
                0x000005b4       0x14 .\CortexM3\ARM_GCC_493\Release\port.o
                0x000005b4                vPortExitCritical
 .text.xPortPendSVHandler
                0x000005c8       0x44 .\CortexM3\ARM_GCC_493\Release\port.o
                0x000005c8                xPortPendSVHandler
 .text.xPortSysTickHandler
                0x0000060c       0x24 .\CortexM3\ARM_GCC_493\Release\port.o
                0x0000060c                xPortSysTickHandler
 .text.vPortSetupTimerInterrupt
                0x00000630       0x14 .\CortexM3\ARM_GCC_493\Release\port.o
                0x00000630                vPortSetupTimerInterrupt
 .text.xPortStartScheduler
                0x00000644       0x30 .\CortexM3\ARM_GCC_493\Release\port.o
                0x00000644                xPortStartScheduler
 .text.prvResetNextTaskUnblockTime
                0x00000674       0x20 .\CortexM3\ARM_GCC_493\Release\tasks.o
 .text.prvAddCurrentTaskToDelayedList
                0x00000694       0x38 .\CortexM3\ARM_GCC_493\Release\tasks.o
 .text.xTaskGenericCreate
                0x000006cc      0x184 .\CortexM3\ARM_GCC_493\Release\tasks.o
                0x000006cc                xTaskGenericCreate
 .text.vTaskStartScheduler
                0x00000850       0x4c .\CortexM3\ARM_GCC_493\Release\tasks.o
                0x00000850                vTaskStartScheduler
 .text.vTaskSuspendAll
                0x0000089c       0x14 .\CortexM3\ARM_GCC_493\Release\tasks.o
                0x0000089c                vTaskSuspendAll
 .text.xTaskIncrementTick
                0x000008b0       0xcc .\CortexM3\ARM_GCC_493\Release\tasks.o
                0x000008b0                xTaskIncrementTick
 .text.xTaskResumeAll
                0x0000097c       0xb8 .\CortexM3\ARM_GCC_493\Release\tasks.o
                0x0000097c                xTaskResumeAll
 .text.vTaskDelay
                0x00000a34       0x4c .\CortexM3\ARM_GCC_493\Release\tasks.o
                0x00000a34                vTaskDelay
 .text.prvIdleTask
                0x00000a80       0x54 .\CortexM3\ARM_GCC_493\Release\tasks.o
 .text.vTaskSwitchContext
                0x00000ad4       0x90 .\CortexM3\ARM_GCC_493\Release\tasks.o
                0x00000ad4                vTaskSwitchContext
 .text.IntDefaultHandler
                0x00000b64        0x2 .\CortexM3\ARM_GCC_493\Release\Cm3Start.o
                0x00000b64                IntDefaultHandler
 *fill*         0x00000b66        0x2 
 .text.Start_c  0x00000b68       0x50 .\CortexM3\ARM_GCC_493\Release\Cm3Start.o
                0x00000b68                Start_c
 .text.startup.initialize_psoc
                0x00000bb8       0x70 .\CortexM3\ARM_GCC_493\Release\Cm3Start.o
                0x00000bb8                initialize_psoc
 .text.ADC_DelSig_1_AMux_Set
                0x00000c28       0x1c .\CortexM3\ARM_GCC_493\Release\Final_Project.a(cyfitter_cfg.o)
                0x00000c28                ADC_DelSig_1_AMux_Set
 .text.ADC_DelSig_1_AMux_Unset
                0x00000c44       0x1c .\CortexM3\ARM_GCC_493\Release\Final_Project.a(cyfitter_cfg.o)
                0x00000c44                ADC_DelSig_1_AMux_Unset
 .text.cyfitter_cfg
                0x00000c60      0x218 .\CortexM3\ARM_GCC_493\Release\Final_Project.a(cyfitter_cfg.o)
                0x00000c60                cyfitter_cfg
 .text          0x00000e78       0x20 .\CortexM3\ARM_GCC_493\Release\Final_Project.a(CyBootAsmGnu.o)
                0x00000e78                CyDelayCycles
                0x00000e88                CyEnterCriticalSection
                0x00000e90                CyExitCriticalSection
 .text.CyDelayUs
                0x00000e98       0x10 .\CortexM3\ARM_GCC_493\Release\Final_Project.a(CyLib.o)
                0x00000e98                CyDelayUs
 .text.CyIntSetVector
                0x00000ea8       0x1c .\CortexM3\ARM_GCC_493\Release\Final_Project.a(CyLib.o)
                0x00000ea8                CyIntSetVector
 .text.CyIntSetPriority
                0x00000ec4       0x14 .\CortexM3\ARM_GCC_493\Release\Final_Project.a(CyLib.o)
                0x00000ec4                CyIntSetPriority
 .text.Data_Write
                0x00000ed8       0x18 .\CortexM3\ARM_GCC_493\Release\Final_Project.a(Data.o)
                0x00000ed8                Data_Write
 .text.Data_SetDriveMode
                0x00000ef0       0x18 .\CortexM3\ARM_GCC_493\Release\Final_Project.a(Data.o)
                0x00000ef0                Data_SetDriveMode
 .text.Data_Read
                0x00000f08       0x10 .\CortexM3\ARM_GCC_493\Release\Final_Project.a(Data.o)
                0x00000f08                Data_Read
 .text.Clock_Write
                0x00000f18       0x18 .\CortexM3\ARM_GCC_493\Release\Final_Project.a(Clock.o)
                0x00000f18                Clock_Write
 .text.ADC_DelSig_1_SetDSMRef0Reg
                0x00000f30       0x50 .\CortexM3\ARM_GCC_493\Release\Final_Project.a(ADC_DelSig_1.o)
 .text.ADC_DelSig_1_InitConfig
                0x00000f80      0x2a0 .\CortexM3\ARM_GCC_493\Release\Final_Project.a(ADC_DelSig_1.o)
 .text.ADC_DelSig_1_Init
                0x00001220       0xb8 .\CortexM3\ARM_GCC_493\Release\Final_Project.a(ADC_DelSig_1.o)
                0x00001220                ADC_DelSig_1_Init
 .text.ADC_DelSig_1_Enable
                0x000012d8       0xd0 .\CortexM3\ARM_GCC_493\Release\Final_Project.a(ADC_DelSig_1.o)
                0x000012d8                ADC_DelSig_1_Enable
 .text.ADC_DelSig_1_Start
                0x000013a8       0x20 .\CortexM3\ARM_GCC_493\Release\Final_Project.a(ADC_DelSig_1.o)
                0x000013a8                ADC_DelSig_1_Start
 .text.ADC_DelSig_1_StartConvert
                0x000013c8       0x10 .\CortexM3\ARM_GCC_493\Release\Final_Project.a(ADC_DelSig_1.o)
                0x000013c8                ADC_DelSig_1_StartConvert
 .text.ADC_DelSig_1_IsEndConversion
                0x000013d8       0x28 .\CortexM3\ARM_GCC_493\Release\Final_Project.a(ADC_DelSig_1.o)
                0x000013d8                ADC_DelSig_1_IsEndConversion
 .text.ADC_DelSig_1_GetResult16
                0x00001400       0x44 .\CortexM3\ARM_GCC_493\Release\Final_Project.a(ADC_DelSig_1.o)
                0x00001400                ADC_DelSig_1_GetResult16
 .text.ADC_DelSig_1_ISR1
                0x00001444        0x2 .\CortexM3\ARM_GCC_493\Release\Final_Project.a(ADC_DelSig_1_INT.o)
                0x00001444                ADC_DelSig_1_ISR1
 .text.ADC_DelSig_1_ISR2
                0x00001446        0x2 .\CortexM3\ARM_GCC_493\Release\Final_Project.a(ADC_DelSig_1_INT.o)
                0x00001446                ADC_DelSig_1_ISR2
 .text.ADC_DelSig_1_ISR3
                0x00001448        0x2 .\CortexM3\ARM_GCC_493\Release\Final_Project.a(ADC_DelSig_1_INT.o)
                0x00001448                ADC_DelSig_1_ISR3
 .text.ADC_DelSig_1_ISR4
                0x0000144a        0x2 .\CortexM3\ARM_GCC_493\Release\Final_Project.a(ADC_DelSig_1_INT.o)
                0x0000144a                ADC_DelSig_1_ISR4
 .text.ADC_DelSig_1_AMux_Start
                0x0000144c       0x1c .\CortexM3\ARM_GCC_493\Release\Final_Project.a(ADC_DelSig_1_AMux.o)
                0x0000144c                ADC_DelSig_1_AMux_Start
 .text.ADC_DelSig_1_AMux_Select
                0x00001468       0x18 .\CortexM3\ARM_GCC_493\Release\Final_Project.a(ADC_DelSig_1_AMux.o)
                0x00001468                ADC_DelSig_1_AMux_Select
 .text.ADC_DelSig_1_Ext_CP_Clk_SetDividerRegister
                0x00001480       0xc8 .\CortexM3\ARM_GCC_493\Release\Final_Project.a(ADC_DelSig_1_Ext_CP_Clk.o)
                0x00001480                ADC_DelSig_1_Ext_CP_Clk_SetDividerRegister
 .text.ADC_DelSig_1_Ext_CP_Clk_SetModeRegister
                0x00001548       0x14 .\CortexM3\ARM_GCC_493\Release\Final_Project.a(ADC_DelSig_1_Ext_CP_Clk.o)
                0x00001548                ADC_DelSig_1_Ext_CP_Clk_SetModeRegister
 .text.ADC_DelSig_1_theACLK_SetDividerRegister
                0x0000155c       0xcc .\CortexM3\ARM_GCC_493\Release\Final_Project.a(ADC_DelSig_1_theACLK.o)
                0x0000155c                ADC_DelSig_1_theACLK_SetDividerRegister
 .text.ADC_DelSig_1_theACLK_SetModeRegister
                0x00001628       0x14 .\CortexM3\ARM_GCC_493\Release\Final_Project.a(ADC_DelSig_1_theACLK.o)
                0x00001628                ADC_DelSig_1_theACLK_SetModeRegister
 .text.log10f   0x0000163c       0xe8 c:/program files (x86)/cypress/psoc creator/3.3/psoc creator/import/gnu/arm/4.9.3/bin/../lib/gcc/arm-none-eabi/4.9.3/../../../../arm-none-eabi/lib/armv7-m\libm.a(lib_a-wf_log10.o)
                0x0000163c                log10f
 .text.__ieee754_log10f
                0x00001724       0xa4 c:/program files (x86)/cypress/psoc creator/3.3/psoc creator/import/gnu/arm/4.9.3/bin/../lib/gcc/arm-none-eabi/4.9.3/../../../../arm-none-eabi/lib/armv7-m\libm.a(lib_a-ef_log10.o)
                0x00001724                __ieee754_log10f
 .text.matherr  0x000017c8        0x4 c:/program files (x86)/cypress/psoc creator/3.3/psoc creator/import/gnu/arm/4.9.3/bin/../lib/gcc/arm-none-eabi/4.9.3/../../../../arm-none-eabi/lib/armv7-m\libm.a(lib_a-s_matherr.o)
                0x000017c8                matherr
 .text.nan      0x000017cc        0xc c:/program files (x86)/cypress/psoc creator/3.3/psoc creator/import/gnu/arm/4.9.3/bin/../lib/gcc/arm-none-eabi/4.9.3/../../../../arm-none-eabi/lib/armv7-m\libm.a(lib_a-s_nan.o)
                0x000017cc                nan
 .text.__fpclassifyf
                0x000017d8       0x34 c:/program files (x86)/cypress/psoc creator/3.3/psoc creator/import/gnu/arm/4.9.3/bin/../lib/gcc/arm-none-eabi/4.9.3/../../../../arm-none-eabi/lib/armv7-m\libm.a(lib_a-sf_fpclassify.o)
                0x000017d8                __fpclassifyf
 .text.__ieee754_logf
                0x0000180c      0x280 c:/program files (x86)/cypress/psoc creator/3.3/psoc creator/import/gnu/arm/4.9.3/bin/../lib/gcc/arm-none-eabi/4.9.3/../../../../arm-none-eabi/lib/armv7-m\libm.a(lib_a-ef_log.o)
                0x0000180c                __ieee754_logf
 .text          0x00001a8c      0x370 c:/program files (x86)/cypress/psoc creator/3.3/psoc creator/import/gnu/arm/4.9.3/bin/../lib/gcc/arm-none-eabi/4.9.3/armv7-m\libgcc.a(_arm_addsubdf3.o)
                0x00001a8c                __aeabi_drsub
                0x00001a94                __aeabi_dsub
                0x00001a94                __subdf3
                0x00001a98                __aeabi_dadd
                0x00001a98                __adddf3
                0x00001d10                __floatunsidf
                0x00001d10                __aeabi_ui2d
                0x00001d30                __floatsidf
                0x00001d30                __aeabi_i2d
                0x00001d54                __aeabi_f2d
                0x00001d54                __extendsfdf2
                0x00001d90                __floatundidf
                0x00001d90                __aeabi_ul2d
                0x00001da0                __floatdidf
                0x00001da0                __aeabi_l2d
 .text          0x00001dfc      0x424 c:/program files (x86)/cypress/psoc creator/3.3/psoc creator/import/gnu/arm/4.9.3/bin/../lib/gcc/arm-none-eabi/4.9.3/armv7-m\libgcc.a(_arm_muldivdf3.o)
                0x00001dfc                __aeabi_dmul
                0x00001dfc                __muldf3
                0x00002050                __divdf3
                0x00002050                __aeabi_ddiv
 .text          0x00002220       0xa0 c:/program files (x86)/cypress/psoc creator/3.3/psoc creator/import/gnu/arm/4.9.3/bin/../lib/gcc/arm-none-eabi/4.9.3/armv7-m\libgcc.a(_arm_truncdfsf2.o)
                0x00002220                __truncdfsf2
                0x00002220                __aeabi_d2f
 .text          0x000022c0      0x21c c:/program files (x86)/cypress/psoc creator/3.3/psoc creator/import/gnu/arm/4.9.3/bin/../lib/gcc/arm-none-eabi/4.9.3/armv7-m\libgcc.a(_arm_addsubsf3.o)
                0x000022c0                __aeabi_frsub
                0x000022c8                __subsf3
                0x000022c8                __aeabi_fsub
                0x000022cc                __aeabi_fadd
                0x000022cc                __addsf3
                0x0000242c                __aeabi_ui2f
                0x0000242c                __floatunsisf
                0x00002434                __aeabi_i2f
                0x00002434                __floatsisf
                0x00002450                __aeabi_ul2f
                0x00002450                __floatundisf
                0x00002460                __aeabi_l2f
                0x00002460                __floatdisf
 .text          0x000024dc      0x2a0 c:/program files (x86)/cypress/psoc creator/3.3/psoc creator/import/gnu/arm/4.9.3/bin/../lib/gcc/arm-none-eabi/4.9.3/armv7-m\libgcc.a(_arm_muldivsf3.o)
                0x000024dc                __mulsf3
                0x000024dc                __aeabi_fmul
                0x00002644                __aeabi_fdiv
                0x00002644                __divsf3
 .text          0x0000277c       0xec c:/program files (x86)/cypress/psoc creator/3.3/psoc creator/import/gnu/arm/4.9.3/bin/../lib/gcc/arm-none-eabi/4.9.3/armv7-m\libgcc.a(_arm_cmpsf2.o)
                0x0000277c                __gesf2
                0x0000277c                __gtsf2
                0x00002784                __lesf2
                0x00002784                __ltsf2
                0x0000278c                __nesf2
                0x0000278c                __eqsf2
                0x0000278c                __cmpsf2
                0x000027ec                __aeabi_cfrcmple
                0x000027f4                __aeabi_cfcmpeq
                0x000027f4                __aeabi_cfcmple
                0x00002804                __aeabi_fcmpeq
                0x00002818                __aeabi_fcmplt
                0x0000282c                __aeabi_fcmple
                0x00002840                __aeabi_fcmpge
                0x00002854                __aeabi_fcmpgt
 .text          0x00002868       0x4c c:/program files (x86)/cypress/psoc creator/3.3/psoc creator/import/gnu/arm/4.9.3/bin/../lib/gcc/arm-none-eabi/4.9.3/armv7-m\libgcc.a(_arm_fixsfsi.o)
                0x00002868                __aeabi_f2iz
                0x00002868                __fixsfsi
 .text.__errno  0x000028b4        0xc c:/program files (x86)/cypress/psoc creator/3.3/psoc creator/import/gnu/arm/4.9.3/bin/../lib/gcc/arm-none-eabi/4.9.3/../../../../arm-none-eabi/lib/armv7-m\libg_nano.a(lib_a-errno.o)
                0x000028b4                __errno
 .text.__libc_init_array
                0x000028c0       0x4c c:/program files (x86)/cypress/psoc creator/3.3/psoc creator/import/gnu/arm/4.9.3/bin/../lib/gcc/arm-none-eabi/4.9.3/../../../../arm-none-eabi/lib/armv7-m\libg_nano.a(lib_a-init.o)
                0x000028c0                __libc_init_array
 .text.memcmp   0x0000290c       0x20 c:/program files (x86)/cypress/psoc creator/3.3/psoc creator/import/gnu/arm/4.9.3/bin/../lib/gcc/arm-none-eabi/4.9.3/../../../../arm-none-eabi/lib/armv7-m\libg_nano.a(lib_a-memcmp.o)
                0x0000290c                memcmp
 .text.memset   0x0000292c       0x10 c:/program files (x86)/cypress/psoc creator/3.3/psoc creator/import/gnu/arm/4.9.3/bin/../lib/gcc/arm-none-eabi/4.9.3/../../../../arm-none-eabi/lib/armv7-m\libg_nano.a(lib_a-memset.o)
                0x0000292c                memset
 *(.plt)
 *(.gnu.warning)
 *(.glue_7t)
 .glue_7t       0x00000000        0x0 linker stubs
 *(.glue_7)
 .glue_7        0x00000000        0x0 linker stubs
 *(.vfp11_veneer)
 .vfp11_veneer  0x00000000        0x0 linker stubs
 *(.bootloader)
 *(.ARM.extab* .gnu.linkonce.armextab.*)
 *(.gcc_except_table)

.v4_bx          0x0000293c        0x0
 .v4_bx         0x00000000        0x0 linker stubs

.iplt           0x0000293c        0x0
 .iplt          0x00000000        0x0 c:/program files (x86)/cypress/psoc creator/3.3/psoc creator/import/gnu/arm/4.9.3/bin/../lib/gcc/arm-none-eabi/4.9.3/armv7-m/crtbegin.o

.eh_frame_hdr
 *(.eh_frame_hdr)

.eh_frame       0x0000293c        0x4
 *(.eh_frame)
 .eh_frame      0x0000293c        0x0 c:/program files (x86)/cypress/psoc creator/3.3/psoc creator/import/gnu/arm/4.9.3/bin/../lib/gcc/arm-none-eabi/4.9.3/armv7-m/crtbegin.o
 .eh_frame      0x0000293c        0x4 c:/program files (x86)/cypress/psoc creator/3.3/psoc creator/import/gnu/arm/4.9.3/bin/../lib/gcc/arm-none-eabi/4.9.3/armv7-m/crtend.o
                0x00002940                PROVIDE (__exidx_start, .)

.ARM.exidx
 *(.ARM.exidx* .gnu.linkonce.armexidx.*)
                0x00002940                __exidx_end = .

.rodata         0x00002940       0xb8
 *(.rodata .rodata.* .gnu.linkonce.r.*)
 .rodata.str1.1
                0x00002940        0xf .\CortexM3\ARM_GCC_493\Release\main.o
 .rodata        0x0000294f       0x12 .\CortexM3\ARM_GCC_493\Release\TM1636.o
 .rodata        0x00002961       0x14 .\CortexM3\ARM_GCC_493\Release\tasks.o
 .rodata.str1.1
                0x00002975        0x5 .\CortexM3\ARM_GCC_493\Release\tasks.o
 *fill*         0x0000297a        0x2 
 .rodata        0x0000297c       0x34 .\CortexM3\ARM_GCC_493\Release\Final_Project.a(cyfitter_cfg.o)
                0x0000297c                ADC_DelSig_1_AMux__addrTable
                0x00002984                ADC_DelSig_1_AMux__maskTable
 .rodata.str1.4
                0x000029b0        0xc c:/program files (x86)/cypress/psoc creator/3.3/psoc creator/import/gnu/arm/4.9.3/bin/../lib/gcc/arm-none-eabi/4.9.3/../../../../arm-none-eabi/lib/armv7-m\libm.a(lib_a-wf_log10.o)
 .rodata.str1.1
                0x000029bc        0x2 c:/program files (x86)/cypress/psoc creator/3.3/psoc creator/import/gnu/arm/4.9.3/bin/../lib/gcc/arm-none-eabi/4.9.3/../../../../arm-none-eabi/lib/armv7-m\libg_nano.a(lib_a-impure.o)
                0x000029c0                . = ALIGN (0x4)
 *fill*         0x000029be        0x2 
 *(.init)
 .init          0x000029c0        0x4 c:/program files (x86)/cypress/psoc creator/3.3/psoc creator/import/gnu/arm/4.9.3/bin/../lib/gcc/arm-none-eabi/4.9.3/armv7-m/crti.o
                0x000029c0                _init
 .init          0x000029c4        0x8 c:/program files (x86)/cypress/psoc creator/3.3/psoc creator/import/gnu/arm/4.9.3/bin/../lib/gcc/arm-none-eabi/4.9.3/armv7-m/crtn.o
                0x000029cc                . = ALIGN (0x4)
                0x000029cc                __preinit_array_start = .
 *(.preinit_array)
                0x000029cc                __preinit_array_end = .
                0x000029cc                . = ALIGN (0x4)
                0x000029cc                __init_array_start = .
 *(SORT(.init_array.*))
 *(.init_array)
 .init_array    0x000029cc        0x4 c:/program files (x86)/cypress/psoc creator/3.3/psoc creator/import/gnu/arm/4.9.3/bin/../lib/gcc/arm-none-eabi/4.9.3/armv7-m/crtbegin.o
 .init_array    0x000029d0        0x4 .\CortexM3\ARM_GCC_493\Release\Cm3Start.o
                0x000029d4                __init_array_end = .
                0x000029d4                . = ALIGN (0x4)
 *(.fini)
 .fini          0x000029d4        0x4 c:/program files (x86)/cypress/psoc creator/3.3/psoc creator/import/gnu/arm/4.9.3/bin/../lib/gcc/arm-none-eabi/4.9.3/armv7-m/crti.o
                0x000029d4                _fini
 .fini          0x000029d8        0x8 c:/program files (x86)/cypress/psoc creator/3.3/psoc creator/import/gnu/arm/4.9.3/bin/../lib/gcc/arm-none-eabi/4.9.3/armv7-m/crtn.o
                0x000029e0                . = ALIGN (0x4)
                0x000029e0                __fini_array_start = .
 *(.fini_array)
 .fini_array    0x000029e0        0x4 c:/program files (x86)/cypress/psoc creator/3.3/psoc creator/import/gnu/arm/4.9.3/bin/../lib/gcc/arm-none-eabi/4.9.3/armv7-m/crtbegin.o
 *(SORT(.fini_array.*))
                0x000029e4                __fini_array_end = .
                0x000029e4                . = ALIGN (0x4)
 *crtbegin.o(.ctors)
 *(EXCLUDE_FILE(*crtend.o) .ctors)
 *(SORT(.ctors.*))
 *crtend.o(.ctors)
                0x000029e4                . = ALIGN (0x4)
 *crtbegin.o(.dtors)
 *(EXCLUDE_FILE(*crtend.o) .dtors)
 *(SORT(.dtors.*))
 *crtend.o(.dtors)
                0x000029e4                . = ALIGN (0x4)
                0x000029e4                __cy_regions = .
                0x000029e4        0x4 LONG 0x29f8 __cy_region_init_ram
                0x000029e8        0x4 LONG 0x1fff8108 __cy_region_start_data
                0x000029ec        0x4 LONG 0x80 __cy_region_init_size_ram
                0x000029f0        0x4 LONG 0x2150 __cy_region_zero_size_ram
                0x000029f4                __cy_regions_end = .
                0x000029f8                . = ALIGN (0x8)
 *fill*         0x000029f4        0x4 
                0x000029f8                _etext = .

.cy_checksum_exclude
                0x000029f8        0x0
 *(.cy_checksum_exclude)

.ramvectors     0x1fff8000      0x100
                0x1fff8000                __cy_region_start_ram = .
 *(.ramvectors)
 .ramvectors    0x1fff8000      0x100 .\CortexM3\ARM_GCC_493\Release\Cm3Start.o
                0x1fff8000                CyRamVectors

.noinit         0x1fff8100        0x5
 *(.noinit)
 .noinit        0x1fff8100        0x4 .\CortexM3\ARM_GCC_493\Release\Cm3Start.o
 .noinit        0x1fff8104        0x1 .\CortexM3\ARM_GCC_493\Release\Final_Project.a(CyLib.o)
                0x1fff8104                CyResetStatus

.data           0x1fff8108       0x80 load address 0x000029f8
                0x1fff8108                __cy_region_start_data = .
 *(.jcr)
 .jcr           0x1fff8108        0x0 c:/program files (x86)/cypress/psoc creator/3.3/psoc creator/import/gnu/arm/4.9.3/bin/../lib/gcc/arm-none-eabi/4.9.3/armv7-m/crtbegin.o
 .jcr           0x1fff8108        0x4 c:/program files (x86)/cypress/psoc creator/3.3/psoc creator/import/gnu/arm/4.9.3/bin/../lib/gcc/arm-none-eabi/4.9.3/armv7-m/crtend.o
 *(.got.plt)
 *(.got)
 *(.shdata)
 *(.data .data.* .gnu.linkonce.d.*)
 .data          0x1fff810c        0x4 .\CortexM3\ARM_GCC_493\Release\port.o
 .data          0x1fff8110       0x10 .\CortexM3\ARM_GCC_493\Release\Final_Project.a(CyLib.o)
                0x1fff8110                cydelay_32k_ms
                0x1fff8114                cydelay_freq_khz
                0x1fff8118                cydelay_freq_mhz
                0x1fff811c                cydelay_freq_hz
 .data          0x1fff8120        0x1 .\CortexM3\ARM_GCC_493\Release\Final_Project.a(ADC_DelSig_1.o)
                0x1fff8120                ADC_DelSig_1_Config
 .data          0x1fff8121        0x1 .\CortexM3\ARM_GCC_493\Release\Final_Project.a(ADC_DelSig_1_AMux.o)
 .data.__fdlib_version
                0x1fff8122        0x1 c:/program files (x86)/cypress/psoc creator/3.3/psoc creator/import/gnu/arm/4.9.3/bin/../lib/gcc/arm-none-eabi/4.9.3/../../../../arm-none-eabi/lib/armv7-m\libm.a(lib_a-s_lib_ver.o)
                0x1fff8122                __fdlib_version
 *fill*         0x1fff8123        0x1 
 .data.impure_data
                0x1fff8124       0x60 c:/program files (x86)/cypress/psoc creator/3.3/psoc creator/import/gnu/arm/4.9.3/bin/../lib/gcc/arm-none-eabi/4.9.3/../../../../arm-none-eabi/lib/armv7-m\libg_nano.a(lib_a-impure.o)
 .data._impure_ptr
                0x1fff8184        0x4 c:/program files (x86)/cypress/psoc creator/3.3/psoc creator/import/gnu/arm/4.9.3/bin/../lib/gcc/arm-none-eabi/4.9.3/../../../../arm-none-eabi/lib/armv7-m\libg_nano.a(lib_a-impure.o)
                0x1fff8184                _impure_ptr
                0x1fff8188                . = ALIGN (0x8)
 *(.ram)
                0x1fff8188                _edata = .

.igot.plt       0x1fff8188        0x0 load address 0x00002a78
 .igot.plt      0x00000000        0x0 c:/program files (x86)/cypress/psoc creator/3.3/psoc creator/import/gnu/arm/4.9.3/bin/../lib/gcc/arm-none-eabi/4.9.3/armv7-m/crtbegin.o

.bss            0x1fff8188     0x2150 load address 0x00002a78
                0x1fff8188                PROVIDE (__bss_start__, .)
 *(.shbss)
 *(.bss .bss.* .gnu.linkonce.b.*)
 .bss           0x1fff8188       0x1c c:/program files (x86)/cypress/psoc creator/3.3/psoc creator/import/gnu/arm/4.9.3/bin/../lib/gcc/arm-none-eabi/4.9.3/armv7-m/crtbegin.o
 .bss           0x1fff81a4     0x2008 .\CortexM3\ARM_GCC_493\Release\heap_1.o
 .bss           0x1fffa1ac      0x100 .\CortexM3\ARM_GCC_493\Release\tasks.o
                0x1fffa1dc                pxCurrentTCB
 .bss           0x1fffa2ac       0x14 .\CortexM3\ARM_GCC_493\Release\Final_Project.a(ADC_DelSig_1.o)
                0x1fffa2ac                ADC_DelSig_1_stopConversion
                0x1fffa2ad                ADC_DelSig_1_convDone
                0x1fffa2be                ADC_DelSig_1_initVar
                0x1fffa2bf                ADC_DelSig_1_started
 *(COMMON)
 COMMON         0x1fffa2c0        0xb .\CortexM3\ARM_GCC_493\Release\main.o
                0x1fffa2c0                table_length
                0x1fffa2c1                DisplayPointFlag
                0x1fffa2c2                temperature
                0x1fffa2c3                DisplayBrigtness
                0x1fffa2c4                Cmd_SetAddr
                0x1fffa2c5                Cmd_SetData
                0x1fffa2c6                Cmd_DispCtrl
                0x1fffa2c7                disp
 *fill*         0x1fffa2cb        0x1 
 COMMON         0x1fffa2cc        0x8 .\CortexM3\ARM_GCC_493\Release\Final_Project.a(ADC_DelSig_1.o)
                0x1fffa2cc                ADC_DelSig_1_CountsPerVolt
                0x1fffa2d0                ADC_DelSig_1_Offset
                0x1fffa2d8                . = ALIGN (0x8)
 *fill*         0x1fffa2d4        0x4 
 *(.ram.b)
                0x1fffa2d8                _end = .
                0x1fffa2d8                __end = .
                0x1fffa2d8                PROVIDE (end, .)
                0x1fffa2d8                PROVIDE (__bss_end__, .)
                0x000029f8                __cy_region_init_ram = LOADADDR (.data)
                0x00000080                __cy_region_init_size_ram = (_edata - ADDR (.data))
                0x00002150                __cy_region_zero_size_ram = (_end - _edata)

.heap           0x1fffa2d8       0x80 load address 0x00002a78
                0x1fffa2d8                . = _end
                0x1fffa358                . = (. + 0x80)
 *fill*         0x1fffa2d8       0x80 
                0x1fffa358                __cy_heap_limit = .

.stack          0x20007e00      0x200
                0x20007e00                __cy_stack_limit = .
                0x20008000                . = (. + 0x200)
 *fill*         0x20007e00      0x200 
                0x00000001                ASSERT ((__cy_stack_limit >= __cy_heap_limit), region RAM overflowed with stack)
                0x00000000                cy_checksum_exclude_size = (CY_APPL_LOADABLE == 0x1)?SIZEOF (.cy_checksum_exclude):0x0
                0x00000001                ASSERT ((cy_checksum_exclude_size <= CY_CHECKSUM_EXCLUDE_SIZE), CY_BOOT: Section .cy_checksum_exclude size exceedes specified limit.)

.cyloadermeta
 *(.cyloadermeta)

.cyloadablemeta
 *(.cyloadablemeta)

.cyconfigecc    0x80000000       0x98
 *(.cyconfigecc)
 .cyconfigecc   0x80000000       0x98 .\CortexM3\ARM_GCC_493\Release\cymetadata.o
                0x80000000                cy_meta_configecc

.cycustnvl      0x90000000        0x4
 *(.cycustnvl)
 .cycustnvl     0x90000000        0x4 .\CortexM3\ARM_GCC_493\Release\cymetadata.o
                0x90000000                cy_meta_custnvl

.cywolatch      0x90100000        0x4
 *(.cywolatch)
 .cywolatch     0x90100000        0x4 .\CortexM3\ARM_GCC_493\Release\cymetadata.o
                0x90100000                cy_meta_wonvl

.cyeeprom       0x90200000        0x0
 *(.cyeeprom)
                0x00000001                ASSERT ((. <= ((0x90200000 + ee_offset) + ee_size)), .cyeeprom data will not fit in EEPROM)

.cyflashprotect
                0x90400000      0x100
 *(.cyflashprotect)
 .cyflashprotect
                0x90400000      0x100 .\CortexM3\ARM_GCC_493\Release\cymetadata.o
                0x90400000                cy_meta_flashprotect

.cymeta         0x90500000        0xc
 *(.cymeta)
 .cymeta        0x90500000        0xc .\CortexM3\ARM_GCC_493\Release\cymetadata.o
                0x90500000                cy_metadata

.rel.dyn        0x00002a78        0x0 load address 0x9050000c
 .rel.iplt      0x00000000        0x0 c:/program files (x86)/cypress/psoc creator/3.3/psoc creator/import/gnu/arm/4.9.3/bin/../lib/gcc/arm-none-eabi/4.9.3/armv7-m/crtbegin.o

.stab
 *(.stab)

.stabstr
 *(.stabstr)

.debug
 *(.debug)

.line
 *(.line)

.debug_srcinfo
 *(.debug_srcinfo)

.debug_sfnames
 *(.debug_sfnames)

.debug_aranges  0x00000000      0xb38
 *(.debug_aranges)
 .debug_aranges
                0x00000000       0x40 .\CortexM3\ARM_GCC_493\Release\main.o
 .debug_aranges
                0x00000040       0x70 .\CortexM3\ARM_GCC_493\Release\TM1636.o
 .debug_aranges
                0x000000b0       0x38 .\CortexM3\ARM_GCC_493\Release\heap_1.o
 .debug_aranges
                0x000000e8       0x40 .\CortexM3\ARM_GCC_493\Release\list.o
 .debug_aranges
                0x00000128       0x88 .\CortexM3\ARM_GCC_493\Release\port.o
 .debug_aranges
                0x000001b0       0xd0 .\CortexM3\ARM_GCC_493\Release\queue.o
 .debug_aranges
                0x00000280      0x168 .\CortexM3\ARM_GCC_493\Release\tasks.o
 .debug_aranges
                0x000003e8       0x18 .\CortexM3\ARM_GCC_493\Release\cymetadata.o
 .debug_aranges
                0x00000400       0x48 .\CortexM3\ARM_GCC_493\Release\Cm3Start.o
 .debug_aranges
                0x00000448       0x38 .\CortexM3\ARM_GCC_493\Release\Final_Project.a(cyfitter_cfg.o)
 .debug_aranges
                0x00000480       0x20 .\CortexM3\ARM_GCC_493\Release\Final_Project.a(CyBootAsmGnu.o)
 .debug_aranges
                0x000004a0      0x290 .\CortexM3\ARM_GCC_493\Release\Final_Project.a(CyLib.o)
 .debug_aranges
                0x00000730       0x78 .\CortexM3\ARM_GCC_493\Release\Final_Project.a(cyPm.o)
 .debug_aranges
                0x000007a8       0x38 .\CortexM3\ARM_GCC_493\Release\Final_Project.a(Data.o)
 .debug_aranges
                0x000007e0       0x38 .\CortexM3\ARM_GCC_493\Release\Final_Project.a(Clock.o)
 .debug_aranges
                0x00000818       0xe0 .\CortexM3\ARM_GCC_493\Release\Final_Project.a(ADC_DelSig_1.o)
 .debug_aranges
                0x000008f8       0x38 .\CortexM3\ARM_GCC_493\Release\Final_Project.a(ADC_DelSig_1_INT.o)
 .debug_aranges
                0x00000930       0x30 .\CortexM3\ARM_GCC_493\Release\Final_Project.a(ADC_DelSig_1_AMux.o)
 .debug_aranges
                0x00000960       0x70 .\CortexM3\ARM_GCC_493\Release\Final_Project.a(ADC_DelSig_1_Ext_CP_Clk.o)
 .debug_aranges
                0x000009d0       0x80 .\CortexM3\ARM_GCC_493\Release\Final_Project.a(ADC_DelSig_1_theACLK.o)
 .debug_aranges
                0x00000a50       0x70 .\CortexM3\ARM_GCC_493\Release\Final_Project.a(CyFlash.o)
 .debug_aranges
                0x00000ac0       0x78 .\CortexM3\ARM_GCC_493\Release\Final_Project.a(CySpc.o)

.debug_pubnames
 *(.debug_pubnames)

.debug_info     0x00000000     0x918c
 *(.debug_info .gnu.linkonce.wi.*)
 .debug_info    0x00000000      0x5f5 .\CortexM3\ARM_GCC_493\Release\main.o
 .debug_info    0x000005f5      0x6c3 .\CortexM3\ARM_GCC_493\Release\TM1636.o
 .debug_info    0x00000cb8      0x208 .\CortexM3\ARM_GCC_493\Release\heap_1.o
 .debug_info    0x00000ec0      0x2d3 .\CortexM3\ARM_GCC_493\Release\list.o
 .debug_info    0x00001193      0x305 .\CortexM3\ARM_GCC_493\Release\port.o
 .debug_info    0x00001498     0x131f .\CortexM3\ARM_GCC_493\Release\queue.o
 .debug_info    0x000027b7     0x1f59 .\CortexM3\ARM_GCC_493\Release\tasks.o
 .debug_info    0x00004710      0x139 .\CortexM3\ARM_GCC_493\Release\cymetadata.o
 .debug_info    0x00004849      0x3a3 .\CortexM3\ARM_GCC_493\Release\Cm3Start.o
 .debug_info    0x00004bec      0x5ae .\CortexM3\ARM_GCC_493\Release\Final_Project.a(cyfitter_cfg.o)
 .debug_info    0x0000519a       0x7c .\CortexM3\ARM_GCC_493\Release\Final_Project.a(CyBootAsmGnu.o)
 .debug_info    0x00005216     0x1339 .\CortexM3\ARM_GCC_493\Release\Final_Project.a(CyLib.o)
 .debug_info    0x0000654f      0x9a3 .\CortexM3\ARM_GCC_493\Release\Final_Project.a(cyPm.o)
 .debug_info    0x00006ef2      0x120 .\CortexM3\ARM_GCC_493\Release\Final_Project.a(Data.o)
 .debug_info    0x00007012      0x120 .\CortexM3\ARM_GCC_493\Release\Final_Project.a(Clock.o)
 .debug_info    0x00007132      0xd54 .\CortexM3\ARM_GCC_493\Release\Final_Project.a(ADC_DelSig_1.o)
 .debug_info    0x00007e86       0xcc .\CortexM3\ARM_GCC_493\Release\Final_Project.a(ADC_DelSig_1_INT.o)
 .debug_info    0x00007f52      0x17e .\CortexM3\ARM_GCC_493\Release\Final_Project.a(ADC_DelSig_1_AMux.o)
 .debug_info    0x000080d0      0x29b .\CortexM3\ARM_GCC_493\Release\Final_Project.a(ADC_DelSig_1_Ext_CP_Clk.o)
 .debug_info    0x0000836b      0x2d8 .\CortexM3\ARM_GCC_493\Release\Final_Project.a(ADC_DelSig_1_theACLK.o)
 .debug_info    0x00008643      0x65c .\CortexM3\ARM_GCC_493\Release\Final_Project.a(CyFlash.o)
 .debug_info    0x00008c9f      0x4ed .\CortexM3\ARM_GCC_493\Release\Final_Project.a(CySpc.o)

.debug_abbrev   0x00000000     0x261e
 *(.debug_abbrev)
 .debug_abbrev  0x00000000      0x28c .\CortexM3\ARM_GCC_493\Release\main.o
 .debug_abbrev  0x0000028c      0x1d7 .\CortexM3\ARM_GCC_493\Release\TM1636.o
 .debug_abbrev  0x00000463      0x160 .\CortexM3\ARM_GCC_493\Release\heap_1.o
 .debug_abbrev  0x000005c3       0xf6 .\CortexM3\ARM_GCC_493\Release\list.o
 .debug_abbrev  0x000006b9      0x1d5 .\CortexM3\ARM_GCC_493\Release\port.o
 .debug_abbrev  0x0000088e      0x2ef .\CortexM3\ARM_GCC_493\Release\queue.o
 .debug_abbrev  0x00000b7d      0x3c4 .\CortexM3\ARM_GCC_493\Release\tasks.o
 .debug_abbrev  0x00000f41       0x5d .\CortexM3\ARM_GCC_493\Release\cymetadata.o
 .debug_abbrev  0x00000f9e      0x20f .\CortexM3\ARM_GCC_493\Release\Cm3Start.o
 .debug_abbrev  0x000011ad      0x25a .\CortexM3\ARM_GCC_493\Release\Final_Project.a(cyfitter_cfg.o)
 .debug_abbrev  0x00001407       0x14 .\CortexM3\ARM_GCC_493\Release\Final_Project.a(CyBootAsmGnu.o)
 .debug_abbrev  0x0000141b      0x3c9 .\CortexM3\ARM_GCC_493\Release\Final_Project.a(CyLib.o)
 .debug_abbrev  0x000017e4      0x224 .\CortexM3\ARM_GCC_493\Release\Final_Project.a(cyPm.o)
 .debug_abbrev  0x00001a08       0x9d .\CortexM3\ARM_GCC_493\Release\Final_Project.a(Data.o)
 .debug_abbrev  0x00001aa5       0x9d .\CortexM3\ARM_GCC_493\Release\Final_Project.a(Clock.o)
 .debug_abbrev  0x00001b42      0x2c5 .\CortexM3\ARM_GCC_493\Release\Final_Project.a(ADC_DelSig_1.o)
 .debug_abbrev  0x00001e07       0x42 .\CortexM3\ARM_GCC_493\Release\Final_Project.a(ADC_DelSig_1_INT.o)
 .debug_abbrev  0x00001e49       0xd8 .\CortexM3\ARM_GCC_493\Release\Final_Project.a(ADC_DelSig_1_AMux.o)
 .debug_abbrev  0x00001f21      0x151 .\CortexM3\ARM_GCC_493\Release\Final_Project.a(ADC_DelSig_1_Ext_CP_Clk.o)
 .debug_abbrev  0x00002072      0x151 .\CortexM3\ARM_GCC_493\Release\Final_Project.a(ADC_DelSig_1_theACLK.o)
 .debug_abbrev  0x000021c3      0x27f .\CortexM3\ARM_GCC_493\Release\Final_Project.a(CyFlash.o)
 .debug_abbrev  0x00002442      0x1dc .\CortexM3\ARM_GCC_493\Release\Final_Project.a(CySpc.o)

.debug_line     0x00000000     0x38e8
 *(.debug_line)
 .debug_line    0x00000000      0x234 .\CortexM3\ARM_GCC_493\Release\main.o
 .debug_line    0x00000234      0x2a2 .\CortexM3\ARM_GCC_493\Release\TM1636.o
 .debug_line    0x000004d6      0x244 .\CortexM3\ARM_GCC_493\Release\heap_1.o
 .debug_line    0x0000071a      0x1e8 .\CortexM3\ARM_GCC_493\Release\list.o
 .debug_line    0x00000902      0x292 .\CortexM3\ARM_GCC_493\Release\port.o
 .debug_line    0x00000b94      0x555 .\CortexM3\ARM_GCC_493\Release\queue.o
 .debug_line    0x000010e9      0x924 .\CortexM3\ARM_GCC_493\Release\tasks.o
 .debug_line    0x00001a0d       0x53 .\CortexM3\ARM_GCC_493\Release\cymetadata.o
 .debug_line    0x00001a60      0x21e .\CortexM3\ARM_GCC_493\Release\Cm3Start.o
 .debug_line    0x00001c7e      0x1d4 .\CortexM3\ARM_GCC_493\Release\Final_Project.a(cyfitter_cfg.o)
 .debug_line    0x00001e52       0x68 .\CortexM3\ARM_GCC_493\Release\Final_Project.a(CyBootAsmGnu.o)
 .debug_line    0x00001eba      0x7e9 .\CortexM3\ARM_GCC_493\Release\Final_Project.a(CyLib.o)
 .debug_line    0x000026a3      0x3b3 .\CortexM3\ARM_GCC_493\Release\Final_Project.a(cyPm.o)
 .debug_line    0x00002a56       0x97 .\CortexM3\ARM_GCC_493\Release\Final_Project.a(Data.o)
 .debug_line    0x00002aed       0x94 .\CortexM3\ARM_GCC_493\Release\Final_Project.a(Clock.o)
 .debug_line    0x00002b81      0x491 .\CortexM3\ARM_GCC_493\Release\Final_Project.a(ADC_DelSig_1.o)
 .debug_line    0x00003012       0x8b .\CortexM3\ARM_GCC_493\Release\Final_Project.a(ADC_DelSig_1_INT.o)
 .debug_line    0x0000309d       0xa7 .\CortexM3\ARM_GCC_493\Release\Final_Project.a(ADC_DelSig_1_AMux.o)
 .debug_line    0x00003144      0x1d4 .\CortexM3\ARM_GCC_493\Release\Final_Project.a(ADC_DelSig_1_Ext_CP_Clk.o)
 .debug_line    0x00003318      0x1ea .\CortexM3\ARM_GCC_493\Release\Final_Project.a(ADC_DelSig_1_theACLK.o)
 .debug_line    0x00003502      0x1c2 .\CortexM3\ARM_GCC_493\Release\Final_Project.a(CyFlash.o)
 .debug_line    0x000036c4      0x224 .\CortexM3\ARM_GCC_493\Release\Final_Project.a(CySpc.o)

.debug_frame    0x00000000     0x2138
 *(.debug_frame)
 .debug_frame   0x00000000       0x80 .\CortexM3\ARM_GCC_493\Release\main.o
 .debug_frame   0x00000080      0x154 .\CortexM3\ARM_GCC_493\Release\TM1636.o
 .debug_frame   0x000001d4       0x60 .\CortexM3\ARM_GCC_493\Release\heap_1.o
 .debug_frame   0x00000234       0x6c .\CortexM3\ARM_GCC_493\Release\list.o
 .debug_frame   0x000002a0      0x124 .\CortexM3\ARM_GCC_493\Release\port.o
 .debug_frame   0x000003c4      0x2d8 .\CortexM3\ARM_GCC_493\Release\queue.o
 .debug_frame   0x0000069c      0x644 .\CortexM3\ARM_GCC_493\Release\tasks.o
 .debug_frame   0x00000ce0       0xac .\CortexM3\ARM_GCC_493\Release\Cm3Start.o
 .debug_frame   0x00000d8c       0x68 .\CortexM3\ARM_GCC_493\Release\Final_Project.a(cyfitter_cfg.o)
 .debug_frame   0x00000df4      0x6e0 .\CortexM3\ARM_GCC_493\Release\Final_Project.a(CyLib.o)
 .debug_frame   0x000014d4      0x1c4 .\CortexM3\ARM_GCC_493\Release\Final_Project.a(cyPm.o)
 .debug_frame   0x00001698       0x50 .\CortexM3\ARM_GCC_493\Release\Final_Project.a(Data.o)
 .debug_frame   0x000016e8       0x50 .\CortexM3\ARM_GCC_493\Release\Final_Project.a(Clock.o)
 .debug_frame   0x00001738      0x2d4 .\CortexM3\ARM_GCC_493\Release\Final_Project.a(ADC_DelSig_1.o)
 .debug_frame   0x00001a0c       0x50 .\CortexM3\ARM_GCC_493\Release\Final_Project.a(ADC_DelSig_1_INT.o)
 .debug_frame   0x00001a5c       0x68 .\CortexM3\ARM_GCC_493\Release\Final_Project.a(ADC_DelSig_1_AMux.o)
 .debug_frame   0x00001ac4       0xe0 .\CortexM3\ARM_GCC_493\Release\Final_Project.a(ADC_DelSig_1_Ext_CP_Clk.o)
 .debug_frame   0x00001ba4      0x100 .\CortexM3\ARM_GCC_493\Release\Final_Project.a(ADC_DelSig_1_theACLK.o)
 .debug_frame   0x00001ca4      0x148 .\CortexM3\ARM_GCC_493\Release\Final_Project.a(CyFlash.o)
 .debug_frame   0x00001dec      0x168 .\CortexM3\ARM_GCC_493\Release\Final_Project.a(CySpc.o)
 .debug_frame   0x00001f54       0x3c c:/program files (x86)/cypress/psoc creator/3.3/psoc creator/import/gnu/arm/4.9.3/bin/../lib/gcc/arm-none-eabi/4.9.3/../../../../arm-none-eabi/lib/armv7-m\libm.a(lib_a-wf_log10.o)
 .debug_frame   0x00001f90       0x30 c:/program files (x86)/cypress/psoc creator/3.3/psoc creator/import/gnu/arm/4.9.3/bin/../lib/gcc/arm-none-eabi/4.9.3/../../../../arm-none-eabi/lib/armv7-m\libm.a(lib_a-ef_log10.o)
 .debug_frame   0x00001fc0       0x20 c:/program files (x86)/cypress/psoc creator/3.3/psoc creator/import/gnu/arm/4.9.3/bin/../lib/gcc/arm-none-eabi/4.9.3/../../../../arm-none-eabi/lib/armv7-m\libm.a(lib_a-s_matherr.o)
 .debug_frame   0x00001fe0       0x20 c:/program files (x86)/cypress/psoc creator/3.3/psoc creator/import/gnu/arm/4.9.3/bin/../lib/gcc/arm-none-eabi/4.9.3/../../../../arm-none-eabi/lib/armv7-m\libm.a(lib_a-s_nan.o)
 .debug_frame   0x00002000       0x20 c:/program files (x86)/cypress/psoc creator/3.3/psoc creator/import/gnu/arm/4.9.3/bin/../lib/gcc/arm-none-eabi/4.9.3/../../../../arm-none-eabi/lib/armv7-m\libm.a(lib_a-sf_fpclassify.o)
 .debug_frame   0x00002020       0x34 c:/program files (x86)/cypress/psoc creator/3.3/psoc creator/import/gnu/arm/4.9.3/bin/../lib/gcc/arm-none-eabi/4.9.3/../../../../arm-none-eabi/lib/armv7-m\libm.a(lib_a-ef_log.o)
 .debug_frame   0x00002054       0x20 c:/program files (x86)/cypress/psoc creator/3.3/psoc creator/import/gnu/arm/4.9.3/bin/../lib/gcc/arm-none-eabi/4.9.3/../../../../arm-none-eabi/lib/armv7-m\libg_nano.a(lib_a-errno.o)
 .debug_frame   0x00002074       0x28 c:/program files (x86)/cypress/psoc creator/3.3/psoc creator/import/gnu/arm/4.9.3/bin/../lib/gcc/arm-none-eabi/4.9.3/../../../../arm-none-eabi/lib/armv7-m\libg_nano.a(lib_a-exit.o)
 .debug_frame   0x0000209c       0x2c c:/program files (x86)/cypress/psoc creator/3.3/psoc creator/import/gnu/arm/4.9.3/bin/../lib/gcc/arm-none-eabi/4.9.3/../../../../arm-none-eabi/lib/armv7-m\libg_nano.a(lib_a-init.o)
 .debug_frame   0x000020c8       0x28 c:/program files (x86)/cypress/psoc creator/3.3/psoc creator/import/gnu/arm/4.9.3/bin/../lib/gcc/arm-none-eabi/4.9.3/../../../../arm-none-eabi/lib/armv7-m\libg_nano.a(lib_a-memcmp.o)
 .debug_frame   0x000020f0       0x28 c:/program files (x86)/cypress/psoc creator/3.3/psoc creator/import/gnu/arm/4.9.3/bin/../lib/gcc/arm-none-eabi/4.9.3/../../../../arm-none-eabi/lib/armv7-m\libg_nano.a(lib_a-memcpy.o)
 .debug_frame   0x00002118       0x20 c:/program files (x86)/cypress/psoc creator/3.3/psoc creator/import/gnu/arm/4.9.3/bin/../lib/gcc/arm-none-eabi/4.9.3/../../../../arm-none-eabi/lib/armv7-m\libg_nano.a(lib_a-memset.o)

.debug_str      0x00000000     0x310a
 *(.debug_str)
 .debug_str     0x00000000      0x419 .\CortexM3\ARM_GCC_493\Release\main.o
                                0x493 (size before relaxing)
 .debug_str     0x00000419       0xfc .\CortexM3\ARM_GCC_493\Release\TM1636.o
                                0x31b (size before relaxing)
 .debug_str     0x00000515       0xac .\CortexM3\ARM_GCC_493\Release\heap_1.o
                                0x272 (size before relaxing)
 .debug_str     0x000005c1      0x126 .\CortexM3\ARM_GCC_493\Release\list.o
                                0x2d4 (size before relaxing)
 .debug_str     0x000006e7      0x139 .\CortexM3\ARM_GCC_493\Release\port.o
                                0x339 (size before relaxing)
 .debug_str     0x00000820      0x562 .\CortexM3\ARM_GCC_493\Release\queue.o
                                0x8b5 (size before relaxing)
 .debug_str     0x00000d82      0x885 .\CortexM3\ARM_GCC_493\Release\tasks.o
                                0xe79 (size before relaxing)
 .debug_str     0x00001607       0x77 .\CortexM3\ARM_GCC_493\Release\cymetadata.o
                                0x1d6 (size before relaxing)
 .debug_str     0x0000167e      0x146 .\CortexM3\ARM_GCC_493\Release\Cm3Start.o
                                0x2ea (size before relaxing)
 .debug_str     0x000017c4      0x1bf .\CortexM3\ARM_GCC_493\Release\Final_Project.a(cyfitter_cfg.o)
                                0x358 (size before relaxing)
 .debug_str     0x00001983      0x83e .\CortexM3\ARM_GCC_493\Release\Final_Project.a(CyLib.o)
                                0xa0f (size before relaxing)
 .debug_str     0x000021c1      0x35b .\CortexM3\ARM_GCC_493\Release\Final_Project.a(cyPm.o)
                                0x700 (size before relaxing)
 .debug_str     0x0000251c       0x3c .\CortexM3\ARM_GCC_493\Release\Final_Project.a(Data.o)
                                0x1c9 (size before relaxing)
 .debug_str     0x00002558       0x51 .\CortexM3\ARM_GCC_493\Release\Final_Project.a(Clock.o)
                                0x1ce (size before relaxing)
 .debug_str     0x000025a9      0x496 .\CortexM3\ARM_GCC_493\Release\Final_Project.a(ADC_DelSig_1.o)
                                0x720 (size before relaxing)
 .debug_str     0x00002a3f       0x74 .\CortexM3\ARM_GCC_493\Release\Final_Project.a(ADC_DelSig_1_INT.o)
                                0x1cd (size before relaxing)
 .debug_str     0x00002ab3       0x85 .\CortexM3\ARM_GCC_493\Release\Final_Project.a(ADC_DelSig_1_AMux.o)
                                0x22a (size before relaxing)
 .debug_str     0x00002b38      0x1c9 .\CortexM3\ARM_GCC_493\Release\Final_Project.a(ADC_DelSig_1_Ext_CP_Clk.o)
                                0x39a (size before relaxing)
 .debug_str     0x00002d01      0x1bd .\CortexM3\ARM_GCC_493\Release\Final_Project.a(ADC_DelSig_1_theACLK.o)
                                0x3cb (size before relaxing)
 .debug_str     0x00002ebe      0x19e .\CortexM3\ARM_GCC_493\Release\Final_Project.a(CyFlash.o)
                                0x37a (size before relaxing)
 .debug_str     0x0000305c       0xae .\CortexM3\ARM_GCC_493\Release\Final_Project.a(CySpc.o)
                                0x30a (size before relaxing)

.debug_loc      0x00000000     0x47f0
 *(.debug_loc)
 .debug_loc     0x00000000       0xe7 .\CortexM3\ARM_GCC_493\Release\main.o
 .debug_loc     0x000000e7      0x1ce .\CortexM3\ARM_GCC_493\Release\TM1636.o
 .debug_loc     0x000002b5       0xa3 .\CortexM3\ARM_GCC_493\Release\heap_1.o
 .debug_loc     0x00000358       0x94 .\CortexM3\ARM_GCC_493\Release\list.o
 .debug_loc     0x000003ec       0x66 .\CortexM3\ARM_GCC_493\Release\port.o
 .debug_loc     0x00000452      0xbff .\CortexM3\ARM_GCC_493\Release\queue.o
 .debug_loc     0x00001051     0x1699 .\CortexM3\ARM_GCC_493\Release\tasks.o
 .debug_loc     0x000026ea      0x1b4 .\CortexM3\ARM_GCC_493\Release\Cm3Start.o
 .debug_loc     0x0000289e      0x1f1 .\CortexM3\ARM_GCC_493\Release\Final_Project.a(cyfitter_cfg.o)
 .debug_loc     0x00002a8f      0xa89 .\CortexM3\ARM_GCC_493\Release\Final_Project.a(CyLib.o)
 .debug_loc     0x00003518      0x1bd .\CortexM3\ARM_GCC_493\Release\Final_Project.a(cyPm.o)
 .debug_loc     0x000036d5       0x5a .\CortexM3\ARM_GCC_493\Release\Final_Project.a(Data.o)
 .debug_loc     0x0000372f       0x5a .\CortexM3\ARM_GCC_493\Release\Final_Project.a(Clock.o)
 .debug_loc     0x00003789      0x50c .\CortexM3\ARM_GCC_493\Release\Final_Project.a(ADC_DelSig_1.o)
 .debug_loc     0x00003c95       0x6e .\CortexM3\ARM_GCC_493\Release\Final_Project.a(ADC_DelSig_1_AMux.o)
 .debug_loc     0x00003d03       0xa6 .\CortexM3\ARM_GCC_493\Release\Final_Project.a(ADC_DelSig_1_Ext_CP_Clk.o)
 .debug_loc     0x00003da9       0xc7 .\CortexM3\ARM_GCC_493\Release\Final_Project.a(ADC_DelSig_1_theACLK.o)
 .debug_loc     0x00003e70      0x391 .\CortexM3\ARM_GCC_493\Release\Final_Project.a(CyFlash.o)
 .debug_loc     0x00004201      0x5ef .\CortexM3\ARM_GCC_493\Release\Final_Project.a(CySpc.o)

.debug_macinfo
 *(.debug_macinfo)

.debug_ranges   0x00000000      0xc38
 *(.debug_ranges)
 .debug_ranges  0x00000000       0x50 .\CortexM3\ARM_GCC_493\Release\main.o
 .debug_ranges  0x00000050       0x60 .\CortexM3\ARM_GCC_493\Release\TM1636.o
 .debug_ranges  0x000000b0       0x28 .\CortexM3\ARM_GCC_493\Release\heap_1.o
 .debug_ranges  0x000000d8       0x30 .\CortexM3\ARM_GCC_493\Release\list.o
 .debug_ranges  0x00000108       0x78 .\CortexM3\ARM_GCC_493\Release\port.o
 .debug_ranges  0x00000180       0xc0 .\CortexM3\ARM_GCC_493\Release\queue.o
 .debug_ranges  0x00000240      0x1d8 .\CortexM3\ARM_GCC_493\Release\tasks.o
 .debug_ranges  0x00000418       0x38 .\CortexM3\ARM_GCC_493\Release\Cm3Start.o
 .debug_ranges  0x00000450       0xb0 .\CortexM3\ARM_GCC_493\Release\Final_Project.a(cyfitter_cfg.o)
 .debug_ranges  0x00000500      0x298 .\CortexM3\ARM_GCC_493\Release\Final_Project.a(CyLib.o)
 .debug_ranges  0x00000798       0x90 .\CortexM3\ARM_GCC_493\Release\Final_Project.a(cyPm.o)
 .debug_ranges  0x00000828       0x28 .\CortexM3\ARM_GCC_493\Release\Final_Project.a(Data.o)
 .debug_ranges  0x00000850       0x28 .\CortexM3\ARM_GCC_493\Release\Final_Project.a(Clock.o)
 .debug_ranges  0x00000878      0x118 .\CortexM3\ARM_GCC_493\Release\Final_Project.a(ADC_DelSig_1.o)
 .debug_ranges  0x00000990       0x28 .\CortexM3\ARM_GCC_493\Release\Final_Project.a(ADC_DelSig_1_INT.o)
 .debug_ranges  0x000009b8       0x20 .\CortexM3\ARM_GCC_493\Release\Final_Project.a(ADC_DelSig_1_AMux.o)
 .debug_ranges  0x000009d8       0xb8 .\CortexM3\ARM_GCC_493\Release\Final_Project.a(ADC_DelSig_1_Ext_CP_Clk.o)
 .debug_ranges  0x00000a90       0xc8 .\CortexM3\ARM_GCC_493\Release\Final_Project.a(ADC_DelSig_1_theACLK.o)
 .debug_ranges  0x00000b58       0x78 .\CortexM3\ARM_GCC_493\Release\Final_Project.a(CyFlash.o)
 .debug_ranges  0x00000bd0       0x68 .\CortexM3\ARM_GCC_493\Release\Final_Project.a(CySpc.o)

.comment        0x00000000       0x70
 .comment       0x00000000       0x70 .\CortexM3\ARM_GCC_493\Release\main.o
                                 0x71 (size before relaxing)
 .comment       0x00000000       0x71 .\CortexM3\ARM_GCC_493\Release\TM1636.o
 .comment       0x00000000       0x71 .\CortexM3\ARM_GCC_493\Release\heap_1.o
 .comment       0x00000000       0x71 .\CortexM3\ARM_GCC_493\Release\list.o
 .comment       0x00000000       0x71 .\CortexM3\ARM_GCC_493\Release\port.o
 .comment       0x00000000       0x71 .\CortexM3\ARM_GCC_493\Release\queue.o
 .comment       0x00000000       0x71 .\CortexM3\ARM_GCC_493\Release\tasks.o
 .comment       0x00000000       0x71 .\CortexM3\ARM_GCC_493\Release\cymetadata.o
 .comment       0x00000000       0x71 .\CortexM3\ARM_GCC_493\Release\Cm3Start.o
 .comment       0x00000000       0x71 .\CortexM3\ARM_GCC_493\Release\Final_Project.a(cyfitter_cfg.o)
 .comment       0x00000000       0x71 .\CortexM3\ARM_GCC_493\Release\Final_Project.a(CyLib.o)
 .comment       0x00000000       0x71 .\CortexM3\ARM_GCC_493\Release\Final_Project.a(cyPm.o)
 .comment       0x00000000       0x71 .\CortexM3\ARM_GCC_493\Release\Final_Project.a(Data.o)
 .comment       0x00000000       0x71 .\CortexM3\ARM_GCC_493\Release\Final_Project.a(Clock.o)
 .comment       0x00000000       0x71 .\CortexM3\ARM_GCC_493\Release\Final_Project.a(ADC_DelSig_1.o)
 .comment       0x00000000       0x71 .\CortexM3\ARM_GCC_493\Release\Final_Project.a(ADC_DelSig_1_INT.o)
 .comment       0x00000000       0x71 .\CortexM3\ARM_GCC_493\Release\Final_Project.a(ADC_DelSig_1_AMux.o)
 .comment       0x00000000       0x71 .\CortexM3\ARM_GCC_493\Release\Final_Project.a(ADC_DelSig_1_Ext_CP_Clk.o)
 .comment       0x00000000       0x71 .\CortexM3\ARM_GCC_493\Release\Final_Project.a(ADC_DelSig_1_theACLK.o)
 .comment       0x00000000       0x71 .\CortexM3\ARM_GCC_493\Release\Final_Project.a(CyFlash.o)
 .comment       0x00000000       0x71 .\CortexM3\ARM_GCC_493\Release\Final_Project.a(CySpc.o)

.debug_weaknames
 *(.debug_weaknames)

.debug_funcnames
 *(.debug_funcnames)

.debug_typenames
 *(.debug_typenames)

.debug_varnames
 *(.debug_varnames)

.note.gnu.arm.ident
 *(.note.gnu.arm.ident)

.ARM.attributes
                0x00000000       0x29
 *(.ARM.attributes)
 .ARM.attributes
                0x00000000       0x1d c:/program files (x86)/cypress/psoc creator/3.3/psoc creator/import/gnu/arm/4.9.3/bin/../lib/gcc/arm-none-eabi/4.9.3/armv7-m/crti.o
 .ARM.attributes
                0x0000001d       0x2d c:/program files (x86)/cypress/psoc creator/3.3/psoc creator/import/gnu/arm/4.9.3/bin/../lib/gcc/arm-none-eabi/4.9.3/armv7-m/crtbegin.o
 .ARM.attributes
                0x0000004a       0x1b c:/program files (x86)/cypress/psoc creator/3.3/psoc creator/import/gnu/arm/4.9.3/bin/../lib/gcc/arm-none-eabi/4.9.3/../../../../arm-none-eabi/lib/armv7-m/crt0.o
 .ARM.attributes
                0x00000065       0x33 .\CortexM3\ARM_GCC_493\Release\main.o
 .ARM.attributes
                0x00000098       0x33 .\CortexM3\ARM_GCC_493\Release\TM1636.o
 .ARM.attributes
                0x000000cb       0x33 .\CortexM3\ARM_GCC_493\Release\heap_1.o
 .ARM.attributes
                0x000000fe       0x33 .\CortexM3\ARM_GCC_493\Release\list.o
 .ARM.attributes
                0x00000131       0x33 .\CortexM3\ARM_GCC_493\Release\port.o
 .ARM.attributes
                0x00000164       0x33 .\CortexM3\ARM_GCC_493\Release\queue.o
 .ARM.attributes
                0x00000197       0x33 .\CortexM3\ARM_GCC_493\Release\tasks.o
 .ARM.attributes
                0x000001ca       0x33 .\CortexM3\ARM_GCC_493\Release\cymetadata.o
 .ARM.attributes
                0x000001fd       0x33 .\CortexM3\ARM_GCC_493\Release\Cm3Start.o
 .ARM.attributes
                0x00000230       0x33 .\CortexM3\ARM_GCC_493\Release\Final_Project.a(cyfitter_cfg.o)
 .ARM.attributes
                0x00000263       0x21 .\CortexM3\ARM_GCC_493\Release\Final_Project.a(CyBootAsmGnu.o)
 .ARM.attributes
                0x00000284       0x33 .\CortexM3\ARM_GCC_493\Release\Final_Project.a(CyLib.o)
 .ARM.attributes
                0x000002b7       0x33 .\CortexM3\ARM_GCC_493\Release\Final_Project.a(cyPm.o)
 .ARM.attributes
                0x000002ea       0x33 .\CortexM3\ARM_GCC_493\Release\Final_Project.a(Data.o)
 .ARM.attributes
                0x0000031d       0x33 .\CortexM3\ARM_GCC_493\Release\Final_Project.a(Clock.o)
 .ARM.attributes
                0x00000350       0x33 .\CortexM3\ARM_GCC_493\Release\Final_Project.a(ADC_DelSig_1.o)
 .ARM.attributes
                0x00000383       0x33 .\CortexM3\ARM_GCC_493\Release\Final_Project.a(ADC_DelSig_1_INT.o)
 .ARM.attributes
                0x000003b6       0x33 .\CortexM3\ARM_GCC_493\Release\Final_Project.a(ADC_DelSig_1_AMux.o)
 .ARM.attributes
                0x000003e9       0x33 .\CortexM3\ARM_GCC_493\Release\Final_Project.a(ADC_DelSig_1_Ext_CP_Clk.o)
 .ARM.attributes
                0x0000041c       0x33 .\CortexM3\ARM_GCC_493\Release\Final_Project.a(ADC_DelSig_1_theACLK.o)
 .ARM.attributes
                0x0000044f       0x33 .\CortexM3\ARM_GCC_493\Release\Final_Project.a(CyFlash.o)
 .ARM.attributes
                0x00000482       0x33 .\CortexM3\ARM_GCC_493\Release\Final_Project.a(CySpc.o)
 .ARM.attributes
                0x000004b5       0x2d c:/program files (x86)/cypress/psoc creator/3.3/psoc creator/import/gnu/arm/4.9.3/bin/../lib/gcc/arm-none-eabi/4.9.3/../../../../arm-none-eabi/lib/armv7-m\libm.a(lib_a-wf_log10.o)
 .ARM.attributes
                0x000004e2       0x2d c:/program files (x86)/cypress/psoc creator/3.3/psoc creator/import/gnu/arm/4.9.3/bin/../lib/gcc/arm-none-eabi/4.9.3/../../../../arm-none-eabi/lib/armv7-m\libm.a(lib_a-ef_log10.o)
 .ARM.attributes
                0x0000050f       0x2d c:/program files (x86)/cypress/psoc creator/3.3/psoc creator/import/gnu/arm/4.9.3/bin/../lib/gcc/arm-none-eabi/4.9.3/../../../../arm-none-eabi/lib/armv7-m\libm.a(lib_a-s_lib_ver.o)
 .ARM.attributes
                0x0000053c       0x2d c:/program files (x86)/cypress/psoc creator/3.3/psoc creator/import/gnu/arm/4.9.3/bin/../lib/gcc/arm-none-eabi/4.9.3/../../../../arm-none-eabi/lib/armv7-m\libm.a(lib_a-s_matherr.o)
 .ARM.attributes
                0x00000569       0x2d c:/program files (x86)/cypress/psoc creator/3.3/psoc creator/import/gnu/arm/4.9.3/bin/../lib/gcc/arm-none-eabi/4.9.3/../../../../arm-none-eabi/lib/armv7-m\libm.a(lib_a-s_nan.o)
 .ARM.attributes
                0x00000596       0x2d c:/program files (x86)/cypress/psoc creator/3.3/psoc creator/import/gnu/arm/4.9.3/bin/../lib/gcc/arm-none-eabi/4.9.3/../../../../arm-none-eabi/lib/armv7-m\libm.a(lib_a-sf_fpclassify.o)
 .ARM.attributes
                0x000005c3       0x2d c:/program files (x86)/cypress/psoc creator/3.3/psoc creator/import/gnu/arm/4.9.3/bin/../lib/gcc/arm-none-eabi/4.9.3/../../../../arm-none-eabi/lib/armv7-m\libm.a(lib_a-ef_log.o)
 .ARM.attributes
                0x000005f0       0x1d c:/program files (x86)/cypress/psoc creator/3.3/psoc creator/import/gnu/arm/4.9.3/bin/../lib/gcc/arm-none-eabi/4.9.3/armv7-m\libgcc.a(_arm_addsubdf3.o)
 .ARM.attributes
                0x0000060d       0x1d c:/program files (x86)/cypress/psoc creator/3.3/psoc creator/import/gnu/arm/4.9.3/bin/../lib/gcc/arm-none-eabi/4.9.3/armv7-m\libgcc.a(_arm_muldivdf3.o)
 .ARM.attributes
                0x0000062a       0x1d c:/program files (x86)/cypress/psoc creator/3.3/psoc creator/import/gnu/arm/4.9.3/bin/../lib/gcc/arm-none-eabi/4.9.3/armv7-m\libgcc.a(_arm_cmpdf2.o)
 .ARM.attributes
                0x00000647       0x1d c:/program files (x86)/cypress/psoc creator/3.3/psoc creator/import/gnu/arm/4.9.3/bin/../lib/gcc/arm-none-eabi/4.9.3/armv7-m\libgcc.a(_arm_truncdfsf2.o)
 .ARM.attributes
                0x00000664       0x1d c:/program files (x86)/cypress/psoc creator/3.3/psoc creator/import/gnu/arm/4.9.3/bin/../lib/gcc/arm-none-eabi/4.9.3/armv7-m\libgcc.a(_arm_addsubsf3.o)
 .ARM.attributes
                0x00000681       0x1d c:/program files (x86)/cypress/psoc creator/3.3/psoc creator/import/gnu/arm/4.9.3/bin/../lib/gcc/arm-none-eabi/4.9.3/armv7-m\libgcc.a(_arm_muldivsf3.o)
 .ARM.attributes
                0x0000069e       0x1d c:/program files (x86)/cypress/psoc creator/3.3/psoc creator/import/gnu/arm/4.9.3/bin/../lib/gcc/arm-none-eabi/4.9.3/armv7-m\libgcc.a(_arm_cmpsf2.o)
 .ARM.attributes
                0x000006bb       0x1d c:/program files (x86)/cypress/psoc creator/3.3/psoc creator/import/gnu/arm/4.9.3/bin/../lib/gcc/arm-none-eabi/4.9.3/armv7-m\libgcc.a(_arm_fixsfsi.o)
 .ARM.attributes
                0x000006d8       0x1d c:/program files (x86)/cypress/psoc creator/3.3/psoc creator/import/gnu/arm/4.9.3/bin/../lib/gcc/arm-none-eabi/4.9.3/armv7-m\libgcc.a(_arm_fixunssfsi.o)
 .ARM.attributes
                0x000006f5       0x2d c:/program files (x86)/cypress/psoc creator/3.3/psoc creator/import/gnu/arm/4.9.3/bin/../lib/gcc/arm-none-eabi/4.9.3/../../../../arm-none-eabi/lib/armv7-m\libg_nano.a(lib_a-errno.o)
 .ARM.attributes
                0x00000722       0x2d c:/program files (x86)/cypress/psoc creator/3.3/psoc creator/import/gnu/arm/4.9.3/bin/../lib/gcc/arm-none-eabi/4.9.3/../../../../arm-none-eabi/lib/armv7-m\libg_nano.a(lib_a-exit.o)
 .ARM.attributes
                0x0000074f       0x2d c:/program files (x86)/cypress/psoc creator/3.3/psoc creator/import/gnu/arm/4.9.3/bin/../lib/gcc/arm-none-eabi/4.9.3/../../../../arm-none-eabi/lib/armv7-m\libg_nano.a(lib_a-impure.o)
 .ARM.attributes
                0x0000077c       0x2d c:/program files (x86)/cypress/psoc creator/3.3/psoc creator/import/gnu/arm/4.9.3/bin/../lib/gcc/arm-none-eabi/4.9.3/../../../../arm-none-eabi/lib/armv7-m\libg_nano.a(lib_a-init.o)
 .ARM.attributes
                0x000007a9       0x2d c:/program files (x86)/cypress/psoc creator/3.3/psoc creator/import/gnu/arm/4.9.3/bin/../lib/gcc/arm-none-eabi/4.9.3/../../../../arm-none-eabi/lib/armv7-m\libg_nano.a(lib_a-memcmp.o)
 .ARM.attributes
                0x000007d6       0x2d c:/program files (x86)/cypress/psoc creator/3.3/psoc creator/import/gnu/arm/4.9.3/bin/../lib/gcc/arm-none-eabi/4.9.3/../../../../arm-none-eabi/lib/armv7-m\libg_nano.a(lib_a-memcpy.o)
 .ARM.attributes
                0x00000803       0x2d c:/program files (x86)/cypress/psoc creator/3.3/psoc creator/import/gnu/arm/4.9.3/bin/../lib/gcc/arm-none-eabi/4.9.3/../../../../arm-none-eabi/lib/armv7-m\libg_nano.a(lib_a-memset.o)
 .ARM.attributes
                0x00000830       0x2d c:/program files (x86)/cypress/psoc creator/3.3/psoc creator/import/gnu/arm/4.9.3/bin/../lib/gcc/arm-none-eabi/4.9.3/armv7-m/crtend.o
 .ARM.attributes
                0x0000085d       0x1d c:/program files (x86)/cypress/psoc creator/3.3/psoc creator/import/gnu/arm/4.9.3/bin/../lib/gcc/arm-none-eabi/4.9.3/armv7-m/crtn.o

/DISCARD/
 *(.note.GNU-stack)
OUTPUT(.\CortexM3\ARM_GCC_493\Release\Final_Project.elf elf32-littlearm)
