Archive member included because of file (symbol)

.\CortexM3\ARM_GCC_493\Debug\Lab3.a(cyfitter_cfg.o)
                              .\CortexM3\ARM_GCC_493\Debug\Cm3Start.o (cyfitter_cfg)
.\CortexM3\ARM_GCC_493\Debug\Lab3.a(CyBootAsmGnu.o)
                              .\CortexM3\ARM_GCC_493\Debug\Lab3.a(cyfitter_cfg.o) (CyDelayCycles)
.\CortexM3\ARM_GCC_493\Debug\Lab3.a(CyLib.o)
                              .\CortexM3\ARM_GCC_493\Debug\Cm3Start.o (CyResetStatus)
.\CortexM3\ARM_GCC_493\Debug\Lab3.a(cyPm.o)
                              .\CortexM3\ARM_GCC_493\Debug\Lab3.a(CyLib.o) (CyPmReadStatus)
.\CortexM3\ARM_GCC_493\Debug\Lab3.a(Blue_LED_pin.o)
                              .\CortexM3\ARM_GCC_493\Debug\main.o (Blue_LED_pin_Write)
.\CortexM3\ARM_GCC_493\Debug\Lab3.a(Green_LED_pin.o)
                              .\CortexM3\ARM_GCC_493\Debug\main.o (Green_LED_pin_Write)
.\CortexM3\ARM_GCC_493\Debug\Lab3.a(Red1_LED_pin.o)
                              .\CortexM3\ARM_GCC_493\Debug\main.o (Red1_LED_pin_Write)
.\CortexM3\ARM_GCC_493\Debug\Lab3.a(Red2_LED_pin.o)
                              .\CortexM3\ARM_GCC_493\Debug\main.o (Red2_LED_pin_Write)
.\CortexM3\ARM_GCC_493\Debug\Lab3.a(CyFlash.o)
                              .\CortexM3\ARM_GCC_493\Debug\Lab3.a(cyPm.o) (CyFlash_SetWaitCycles)
.\CortexM3\ARM_GCC_493\Debug\Lab3.a(CySpc.o)
                              .\CortexM3\ARM_GCC_493\Debug\Lab3.a(CyFlash.o) (CySpcStart)
c:/program files (x86)/cypress/psoc creator/3.3/psoc creator/import/gnu/arm/4.9.3/bin/../lib/gcc/arm-none-eabi/4.9.3/../../../../arm-none-eabi/lib/armv7-m\libg_nano.a(lib_a-errno.o)
                              .\CortexM3\ARM_GCC_493\Debug\Cm3Start.o (__errno)
c:/program files (x86)/cypress/psoc creator/3.3/psoc creator/import/gnu/arm/4.9.3/bin/../lib/gcc/arm-none-eabi/4.9.3/../../../../arm-none-eabi/lib/armv7-m\libg_nano.a(lib_a-exit.o)
                              c:/program files (x86)/cypress/psoc creator/3.3/psoc creator/import/gnu/arm/4.9.3/bin/../lib/gcc/arm-none-eabi/4.9.3/../../../../arm-none-eabi/lib/armv7-m/crt0.o (exit)
c:/program files (x86)/cypress/psoc creator/3.3/psoc creator/import/gnu/arm/4.9.3/bin/../lib/gcc/arm-none-eabi/4.9.3/../../../../arm-none-eabi/lib/armv7-m\libg_nano.a(lib_a-impure.o)
                              c:/program files (x86)/cypress/psoc creator/3.3/psoc creator/import/gnu/arm/4.9.3/bin/../lib/gcc/arm-none-eabi/4.9.3/../../../../arm-none-eabi/lib/armv7-m\libg_nano.a(lib_a-exit.o) (_global_impure_ptr)
c:/program files (x86)/cypress/psoc creator/3.3/psoc creator/import/gnu/arm/4.9.3/bin/../lib/gcc/arm-none-eabi/4.9.3/../../../../arm-none-eabi/lib/armv7-m\libg_nano.a(lib_a-init.o)
                              c:/program files (x86)/cypress/psoc creator/3.3/psoc creator/import/gnu/arm/4.9.3/bin/../lib/gcc/arm-none-eabi/4.9.3/../../../../arm-none-eabi/lib/armv7-m/crt0.o (__libc_init_array)
c:/program files (x86)/cypress/psoc creator/3.3/psoc creator/import/gnu/arm/4.9.3/bin/../lib/gcc/arm-none-eabi/4.9.3/../../../../arm-none-eabi/lib/armv7-m\libg_nano.a(lib_a-memcmp.o)
                              .\CortexM3\ARM_GCC_493\Debug\tasks.o (memcmp)
c:/program files (x86)/cypress/psoc creator/3.3/psoc creator/import/gnu/arm/4.9.3/bin/../lib/gcc/arm-none-eabi/4.9.3/../../../../arm-none-eabi/lib/armv7-m\libg_nano.a(lib_a-memcpy.o)
                              .\CortexM3\ARM_GCC_493\Debug\queue.o (memcpy)
c:/program files (x86)/cypress/psoc creator/3.3/psoc creator/import/gnu/arm/4.9.3/bin/../lib/gcc/arm-none-eabi/4.9.3/../../../../arm-none-eabi/lib/armv7-m\libg_nano.a(lib_a-memset.o)
                              c:/program files (x86)/cypress/psoc creator/3.3/psoc creator/import/gnu/arm/4.9.3/bin/../lib/gcc/arm-none-eabi/4.9.3/../../../../arm-none-eabi/lib/armv7-m/crt0.o (memset)

Allocating common symbols
Common symbol       size              file

xQueueRegistry      0x50              .\CortexM3\ARM_GCC_493\Debug\queue.o
dieTemperature      0x2               .\CortexM3\ARM_GCC_493\Debug\Lab3.a(CyFlash.o)

Discarded input sections

 .text          0x00000000        0x0 c:/program files (x86)/cypress/psoc creator/3.3/psoc creator/import/gnu/arm/4.9.3/bin/../lib/gcc/arm-none-eabi/4.9.3/armv7-m/crti.o
 .data          0x00000000        0x0 c:/program files (x86)/cypress/psoc creator/3.3/psoc creator/import/gnu/arm/4.9.3/bin/../lib/gcc/arm-none-eabi/4.9.3/armv7-m/crti.o
 .bss           0x00000000        0x0 c:/program files (x86)/cypress/psoc creator/3.3/psoc creator/import/gnu/arm/4.9.3/bin/../lib/gcc/arm-none-eabi/4.9.3/armv7-m/crti.o
 .data          0x00000000        0x4 c:/program files (x86)/cypress/psoc creator/3.3/psoc creator/import/gnu/arm/4.9.3/bin/../lib/gcc/arm-none-eabi/4.9.3/armv7-m/crtbegin.o
 .text          0x00000000       0x74 c:/program files (x86)/cypress/psoc creator/3.3/psoc creator/import/gnu/arm/4.9.3/bin/../lib/gcc/arm-none-eabi/4.9.3/../../../../arm-none-eabi/lib/armv7-m/crt0.o
 .data          0x00000000        0x0 c:/program files (x86)/cypress/psoc creator/3.3/psoc creator/import/gnu/arm/4.9.3/bin/../lib/gcc/arm-none-eabi/4.9.3/../../../../arm-none-eabi/lib/armv7-m/crt0.o
 .bss           0x00000000        0x0 c:/program files (x86)/cypress/psoc creator/3.3/psoc creator/import/gnu/arm/4.9.3/bin/../lib/gcc/arm-none-eabi/4.9.3/../../../../arm-none-eabi/lib/armv7-m/crt0.o
 .ARM.extab     0x00000000        0x0 c:/program files (x86)/cypress/psoc creator/3.3/psoc creator/import/gnu/arm/4.9.3/bin/../lib/gcc/arm-none-eabi/4.9.3/../../../../arm-none-eabi/lib/armv7-m/crt0.o
 .ARM.exidx     0x00000000        0x8 c:/program files (x86)/cypress/psoc creator/3.3/psoc creator/import/gnu/arm/4.9.3/bin/../lib/gcc/arm-none-eabi/4.9.3/../../../../arm-none-eabi/lib/armv7-m/crt0.o
 .text          0x00000000        0x0 .\CortexM3\ARM_GCC_493\Debug\main.o
 .data          0x00000000        0x0 .\CortexM3\ARM_GCC_493\Debug\main.o
 .bss           0x00000000        0x0 .\CortexM3\ARM_GCC_493\Debug\main.o
 .text          0x00000000        0x0 .\CortexM3\ARM_GCC_493\Debug\heap_1.o
 .data          0x00000000        0x0 .\CortexM3\ARM_GCC_493\Debug\heap_1.o
 .text.vPortInitialiseBlocks
                0x00000000       0x18 .\CortexM3\ARM_GCC_493\Debug\heap_1.o
 .text.xPortGetFreeHeapSize
                0x00000000       0x1c .\CortexM3\ARM_GCC_493\Debug\heap_1.o
Memory Configuration

Name             Origin             Length             Attributes
rom              0x00000000         0x00040000         xr
ram              0x1fff8000         0x00010000         xrw
*default*        0x00000000         0xffffffff

Linker script and memory map

LOAD c:/program files (x86)/cypress/psoc creator/3.3/psoc creator/import/gnu/arm/4.9.3/bin/../lib/gcc/arm-none-eabi/4.9.3/armv7-m/crti.o
LOAD c:/program files (x86)/cypress/psoc creator/3.3/psoc creator/import/gnu/arm/4.9.3/bin/../lib/gcc/arm-none-eabi/4.9.3/armv7-m/crtbegin.o
LOAD c:/program files (x86)/cypress/psoc creator/3.3/psoc creator/import/gnu/arm/4.9.3/bin/../lib/gcc/arm-none-eabi/4.9.3/../../../../arm-none-eabi/lib/armv7-m/crt0.o
START GROUP
LOAD .\CortexM3\ARM_GCC_493\Debug\main.o
LOAD .\CortexM3\ARM_GCC_493\Debug\heap_1.o
LOAD .\CortexM3\ARM_GCC_493\Debug\list.o
LOAD .\CortexM3\ARM_GCC_493\Debug\port.o
LOAD .\CortexM3\ARM_GCC_493\Debug\queue.o
LOAD .\CortexM3\ARM_GCC_493\Debug\tasks.o
LOAD .\CortexM3\ARM_GCC_493\Debug\cymetadata.o
LOAD .\CortexM3\ARM_GCC_493\Debug\Cm3Start.o
LOAD .\CortexM3\ARM_GCC_493\Debug\Lab3.a
LOAD C:\Program Files (x86)\Cypress\PSoC Creator\3.3\PSoC Creator\psoc\content\cycomponentlibrary\CyComponentLibrary.cylib\CortexM3\ARM_GCC_493\Debug\CyComponentLibrary.a
END GROUP
START GROUP
LOAD c:/program files (x86)/cypress/psoc creator/3.3/psoc creator/import/gnu/arm/4.9.3/bin/../lib/gcc/arm-none-eabi/4.9.3/armv7-m\libgcc.a
LOAD c:/program files (x86)/cypress/psoc creator/3.3/psoc creator/import/gnu/arm/4.9.3/bin/../lib/gcc/arm-none-eabi/4.9.3/../../../../arm-none-eabi/lib/armv7-m\libg_nano.a
LOAD c:/program files (x86)/cypress/psoc creator/3.3/psoc creator/import/gnu/arm/4.9.3/bin/../lib/gcc/arm-none-eabi/4.9.3/../../../../arm-none-eabi/lib/armv7-m\libc_nano.a
END GROUP
START GROUP
LOAD c:/program files (x86)/cypress/psoc creator/3.3/psoc creator/import/gnu/arm/4.9.3/bin/../lib/gcc/arm-none-eabi/4.9.3/armv7-m\libgcc.a
LOAD c:/program files (x86)/cypress/psoc creator/3.3/psoc creator/import/gnu/arm/4.9.3/bin/../lib/gcc/arm-none-eabi/4.9.3/../../../../arm-none-eabi/lib/armv7-m\libc_nano.a
END GROUP
LOAD c:/program files (x86)/cypress/psoc creator/3.3/psoc creator/import/gnu/arm/4.9.3/bin/../lib/gcc/arm-none-eabi/4.9.3/armv7-m/crtend.o
LOAD c:/program files (x86)/cypress/psoc creator/3.3/psoc creator/import/gnu/arm/4.9.3/bin/../lib/gcc/arm-none-eabi/4.9.3/armv7-m/crtn.o
START GROUP
LOAD c:/program files (x86)/cypress/psoc creator/3.3/psoc creator/import/gnu/arm/4.9.3/bin/../lib/gcc/arm-none-eabi/4.9.3/armv7-m\libgcc.a
LOAD c:/program files (x86)/cypress/psoc creator/3.3/psoc creator/import/gnu/arm/4.9.3/bin/../lib/gcc/arm-none-eabi/4.9.3/../../../../arm-none-eabi/lib/armv7-m\libc.a
LOAD c:/program files (x86)/cypress/psoc creator/3.3/psoc creator/import/gnu/arm/4.9.3/bin/../lib/gcc/arm-none-eabi/4.9.3/../../../../arm-none-eabi/lib/armv7-m\libnosys.a
END GROUP
                0x00000000                CY_APPL_ORIGIN = 0x0
                0x00000100                CY_FLASH_ROW_SIZE = 0x100
                0x00000020                CY_ECC_ROW_SIZE = 0x20
                0x00000000                CY_EE_IN_BTLDR = 0x0
                0x00000000                CY_APPL_LOADABLE = 0x0
                0x00000800                CY_EE_SIZE = 0x800
                0x00000001                CY_APPL_NUM = 0x1
                0x00000001                CY_APPL_MAX = 0x1
                0x00000040                CY_METADATA_SIZE = 0x40
                0x1fffa238                PROVIDE (__cy_heap_start, _end)
                0x00000001                PROVIDE (__cy_region_num, ((__cy_regions_end - __cy_regions) / 0x10))
                0x20008000                PROVIDE (__cy_stack, (ORIGIN (ram) + 0x10000))
                0x20007800                PROVIDE (__cy_heap_end, (__cy_stack - 0x800))

.cybootloader   0x00000000        0x0
 *(.cybootloader)
                0x00000000                appl1_start = CY_APPL_ORIGIN?CY_APPL_ORIGIN:ALIGN (CY_FLASH_ROW_SIZE)
                0x0001ff00                appl2_start = (appl1_start + ALIGN ((((0x40000 - appl1_start) - (0x2 * CY_FLASH_ROW_SIZE)) / 0x2), CY_FLASH_ROW_SIZE))
                0x00000000                appl_start = (CY_APPL_NUM == 0x1)?appl1_start:appl2_start
                0x00000000                ecc_offset = ((appl_start / CY_FLASH_ROW_SIZE) * CY_ECC_ROW_SIZE)
                0x00000000                ee_offset = (CY_APPL_LOADABLE && ! (CY_EE_IN_BTLDR))?((CY_EE_SIZE / CY_APPL_MAX) * (CY_APPL_NUM - 0x1)):0x0
                0x00000800                ee_size = (CY_APPL_LOADABLE && ! (CY_EE_IN_BTLDR))?(CY_EE_SIZE / CY_APPL_MAX):CY_EE_SIZE
                0x00000000                PROVIDE (CY_ECC_OFFSET, ecc_offset)

.text           0x00000000     0x13fa
 CREATE_OBJECT_SYMBOLS
                0x00000000                PROVIDE (__cy_interrupt_vector, RomVectors)
 *(.romvectors)
 .romvectors    0x00000000       0x10 .\CortexM3\ARM_GCC_493\Debug\Cm3Start.o
                0x00000000                RomVectors
                0x00000001                ASSERT ((. != __cy_interrupt_vector), No interrupt vector)
                0x00000001                ASSERT (CY_APPL_ORIGIN?(SIZEOF (.cybootloader) <= CY_APPL_ORIGIN):0x1, Wrong image location)
                0x00000010                PROVIDE (__cy_reset, Reset)
 *(.text.Reset)
 .text.Reset    0x00000010       0x18 .\CortexM3\ARM_GCC_493\Debug\Cm3Start.o
                0x00000010                Reset
                0x00000001                ASSERT ((. != __cy_reset), No reset code)
 *(.dma_init)
                0x00000001                ASSERT ((((appl_start + .) <= 0x10000) || 0x1), DMA Init must be within the first 64k of flash)
 *(.text .text.* .gnu.linkonce.t.*)
 .text          0x00000028       0x5c c:/program files (x86)/cypress/psoc creator/3.3/psoc creator/import/gnu/arm/4.9.3/bin/../lib/gcc/arm-none-eabi/4.9.3/armv7-m/crtbegin.o
 .text.vApplicationMallocFailedHook
                0x00000084        0xc .\CortexM3\ARM_GCC_493\Debug\main.o
                0x00000084                vApplicationMallocFailedHook
 .text.vApplicationStackOverflowHook
                0x00000090        0xc .\CortexM3\ARM_GCC_493\Debug\main.o
                0x00000090                vApplicationStackOverflowHook
 .text.main     0x0000009c       0xa0 .\CortexM3\ARM_GCC_493\Debug\main.o
                0x0000009c                main
 .text.prvHardwareSetup
                0x0000013c       0x30 .\CortexM3\ARM_GCC_493\Debug\main.o
 .text.Blue_LED_Task
                0x0000016c       0x28 .\CortexM3\ARM_GCC_493\Debug\main.o
 .text.Green_LED_Task
                0x00000194       0x20 .\CortexM3\ARM_GCC_493\Debug\main.o
 .text.Red1_LED_Task
                0x000001b4       0x28 .\CortexM3\ARM_GCC_493\Debug\main.o
 .text.Red2_LED_Task
                0x000001dc       0x28 .\CortexM3\ARM_GCC_493\Debug\main.o
 .text.pvPortMalloc
                0x00000204       0x94 .\CortexM3\ARM_GCC_493\Debug\heap_1.o
                0x00000204                pvPortMalloc
 .text.vPortFree
                0x00000298       0x14 .\CortexM3\ARM_GCC_493\Debug\heap_1.o
                0x00000298                vPortFree
 .text.vListInitialise
                0x000002ac       0x40 .\CortexM3\ARM_GCC_493\Debug\list.o
                0x000002ac                vListInitialise
 .text.vListInitialiseItem
                0x000002ec       0x18 .\CortexM3\ARM_GCC_493\Debug\list.o
                0x000002ec                vListInitialiseItem
 .text.vListInsertEnd
                0x00000304       0x48 .\CortexM3\ARM_GCC_493\Debug\list.o
                0x00000304                vListInsertEnd
 .text.vListInsert
                0x0000034c       0x70 .\CortexM3\ARM_GCC_493\Debug\list.o
                0x0000034c                vListInsert
 .text.uxListRemove
                0x000003bc       0x54 .\CortexM3\ARM_GCC_493\Debug\list.o
                0x000003bc                uxListRemove
 .text.pxPortInitialiseStack
                0x00000410       0x58 .\CortexM3\ARM_GCC_493\Debug\port.o
                0x00000410                pxPortInitialiseStack
 .text.prvTaskExitError
                0x00000468        0xc .\CortexM3\ARM_GCC_493\Debug\port.o
 .text.vPortSVCHandler
                0x00000474       0x24 .\CortexM3\ARM_GCC_493\Debug\port.o
                0x00000474                vPortSVCHandler
 .text.prvPortStartFirstTask
                0x00000498       0x20 .\CortexM3\ARM_GCC_493\Debug\port.o
 .text.xPortStartScheduler
                0x000004b8       0x3c .\CortexM3\ARM_GCC_493\Debug\port.o
                0x000004b8                xPortStartScheduler
 .text.vPortYield
                0x000004f4       0x20 .\CortexM3\ARM_GCC_493\Debug\port.o
                0x000004f4                vPortYield
 .text.vPortEnterCritical
                0x00000514       0x20 .\CortexM3\ARM_GCC_493\Debug\port.o
                0x00000514                vPortEnterCritical
 .text.vPortExitCritical
                0x00000534       0x24 .\CortexM3\ARM_GCC_493\Debug\port.o
                0x00000534                vPortExitCritical
 .text.ulPortSetInterruptMask
                0x00000558       0x14 .\CortexM3\ARM_GCC_493\Debug\port.o
                0x00000558                ulPortSetInterruptMask
 .text.vPortClearInterruptMask
                0x0000056c        0x8 .\CortexM3\ARM_GCC_493\Debug\port.o
                0x0000056c                vPortClearInterruptMask
 .text.xPortPendSVHandler
                0x00000574       0x44 .\CortexM3\ARM_GCC_493\Debug\port.o
                0x00000574                xPortPendSVHandler
 .text.xPortSysTickHandler
                0x000005b8       0x28 .\CortexM3\ARM_GCC_493\Debug\port.o
                0x000005b8                xPortSysTickHandler
 .text.vPortSetupTimerInterrupt
                0x000005e0       0x24 .\CortexM3\ARM_GCC_493\Debug\port.o
                0x000005e0                vPortSetupTimerInterrupt
 .text.xTaskGenericCreate
                0x00000604      0x138 .\CortexM3\ARM_GCC_493\Debug\tasks.o
                0x00000604                xTaskGenericCreate
 .text.vTaskDelay
                0x0000073c       0x74 .\CortexM3\ARM_GCC_493\Debug\tasks.o
                0x0000073c                vTaskDelay
 .text.vTaskStartScheduler
                0x000007b0       0x60 .\CortexM3\ARM_GCC_493\Debug\tasks.o
                0x000007b0                vTaskStartScheduler
 .text.vTaskSuspendAll
                0x00000810       0x1c .\CortexM3\ARM_GCC_493\Debug\tasks.o
                0x00000810                vTaskSuspendAll
 .text.xTaskResumeAll
                0x0000082c      0x100 .\CortexM3\ARM_GCC_493\Debug\tasks.o
                0x0000082c                xTaskResumeAll
 .text.xTaskIncrementTick
                0x0000092c      0x160 .\CortexM3\ARM_GCC_493\Debug\tasks.o
                0x0000092c                xTaskIncrementTick
 .text.vTaskSwitchContext
                0x00000a8c       0xd4 .\CortexM3\ARM_GCC_493\Debug\tasks.o
                0x00000a8c                vTaskSwitchContext
 .text.prvIdleTask
                0x00000b60       0x10 .\CortexM3\ARM_GCC_493\Debug\tasks.o
 .text.prvInitialiseTCBVariables
                0x00000b70       0xa4 .\CortexM3\ARM_GCC_493\Debug\tasks.o
 .text.prvInitialiseTaskLists
                0x00000c14       0x7c .\CortexM3\ARM_GCC_493\Debug\tasks.o
 .text.prvCheckTasksWaitingTermination
                0x00000c90       0x74 .\CortexM3\ARM_GCC_493\Debug\tasks.o
 .text.prvAddCurrentTaskToDelayedList
                0x00000d04       0x6c .\CortexM3\ARM_GCC_493\Debug\tasks.o
 .text.prvAllocateTCBAndStack
                0x00000d70       0x70 .\CortexM3\ARM_GCC_493\Debug\tasks.o
 .text.prvDeleteTCB
                0x00000de0       0x20 .\CortexM3\ARM_GCC_493\Debug\tasks.o
 .text.prvResetNextTaskUnblockTime
                0x00000e00       0x48 .\CortexM3\ARM_GCC_493\Debug\tasks.o
 .text.IntDefaultHandler
                0x00000e48        0x8 .\CortexM3\ARM_GCC_493\Debug\Cm3Start.o
                0x00000e48                IntDefaultHandler
 .text.Start_c  0x00000e50       0x98 .\CortexM3\ARM_GCC_493\Debug\Cm3Start.o
                0x00000e50                Start_c
 .text.initialize_psoc
                0x00000ee8       0x8c .\CortexM3\ARM_GCC_493\Debug\Cm3Start.o
                0x00000ee8                initialize_psoc
 .text.CYMEMZERO
                0x00000f74       0x1c .\CortexM3\ARM_GCC_493\Debug\Lab3.a(cyfitter_cfg.o)
 .text.CYCONFIGCPY
                0x00000f90       0x1c .\CortexM3\ARM_GCC_493\Debug\Lab3.a(cyfitter_cfg.o)
 .text.CyClockStartupError
                0x00000fac        0xc .\CortexM3\ARM_GCC_493\Debug\Lab3.a(cyfitter_cfg.o)
 .text.ClockSetup
                0x00000fb8       0xd8 .\CortexM3\ARM_GCC_493\Debug\Lab3.a(cyfitter_cfg.o)
 .text.AnalogSetDefault
                0x00001090       0x44 .\CortexM3\ARM_GCC_493\Debug\Lab3.a(cyfitter_cfg.o)
 .text.cyfitter_cfg
                0x000010d4      0x100 .\CortexM3\ARM_GCC_493\Debug\Lab3.a(cyfitter_cfg.o)
                0x000010d4                cyfitter_cfg
 *fill*         0x000011d4        0x4 
 .text          0x000011d8       0x20 .\CortexM3\ARM_GCC_493\Debug\Lab3.a(CyBootAsmGnu.o)
                0x000011d8                CyDelayCycles
                0x000011e8                CyEnterCriticalSection
                0x000011f0                CyExitCriticalSection
 .text.Blue_LED_pin_Write
                0x000011f8       0x3c .\CortexM3\ARM_GCC_493\Debug\Lab3.a(Blue_LED_pin.o)
                0x000011f8                Blue_LED_pin_Write
 .text.Blue_LED_pin_Read
                0x00001234       0x20 .\CortexM3\ARM_GCC_493\Debug\Lab3.a(Blue_LED_pin.o)
                0x00001234                Blue_LED_pin_Read
 .text.Green_LED_pin_Write
                0x00001254       0x3c .\CortexM3\ARM_GCC_493\Debug\Lab3.a(Green_LED_pin.o)
                0x00001254                Green_LED_pin_Write
 .text.Green_LED_pin_Read
                0x00001290       0x20 .\CortexM3\ARM_GCC_493\Debug\Lab3.a(Green_LED_pin.o)
                0x00001290                Green_LED_pin_Read
 .text.Red1_LED_pin_Write
                0x000012b0       0x3c .\CortexM3\ARM_GCC_493\Debug\Lab3.a(Red1_LED_pin.o)
                0x000012b0                Red1_LED_pin_Write
 .text.Red1_LED_pin_Read
                0x000012ec       0x20 .\CortexM3\ARM_GCC_493\Debug\Lab3.a(Red1_LED_pin.o)
                0x000012ec                Red1_LED_pin_Read
 .text.Red2_LED_pin_Write
                0x0000130c       0x3c .\CortexM3\ARM_GCC_493\Debug\Lab3.a(Red2_LED_pin.o)
                0x0000130c                Red2_LED_pin_Write
 .text.Red2_LED_pin_Read
                0x00001348       0x20 .\CortexM3\ARM_GCC_493\Debug\Lab3.a(Red2_LED_pin.o)
                0x00001348                Red2_LED_pin_Read
 .text.__libc_init_array
                0x00001368       0x4c c:/program files (x86)/cypress/psoc creator/3.3/psoc creator/import/gnu/arm/4.9.3/bin/../lib/gcc/arm-none-eabi/4.9.3/../../../../arm-none-eabi/lib/armv7-m\libg_nano.a(lib_a-init.o)
                0x00001368                __libc_init_array
 .text.memcmp   0x000013b4       0x20 c:/program files (x86)/cypress/psoc creator/3.3/psoc creator/import/gnu/arm/4.9.3/bin/../lib/gcc/arm-none-eabi/4.9.3/../../../../arm-none-eabi/lib/armv7-m\libg_nano.a(lib_a-memcmp.o)
                0x000013b4                memcmp
 .text.memcpy   0x000013d4       0x16 c:/program files (x86)/cypress/psoc creator/3.3/psoc creator/import/gnu/arm/4.9.3/bin/../lib/gcc/arm-none-eabi/4.9.3/../../../../arm-none-eabi/lib/armv7-m\libg_nano.a(lib_a-memcpy.o)
                0x000013d4                memcpy
 .text.memset   0x000013ea       0x10 c:/program files (x86)/cypress/psoc creator/3.3/psoc creator/import/gnu/arm/4.9.3/bin/../lib/gcc/arm-none-eabi/4.9.3/../../../../arm-none-eabi/lib/armv7-m\libg_nano.a(lib_a-memset.o)
                0x000013ea                memset
 *(.plt)
 *(.gnu.warning)
 *(.glue_7t)
 .glue_7t       0x00000000        0x0 linker stubs
 *(.glue_7)
 .glue_7        0x00000000        0x0 linker stubs
 *(.vfp11_veneer)
 .vfp11_veneer  0x00000000        0x0 linker stubs
 *(.bootloader)
 *(.ARM.extab* .gnu.linkonce.armextab.*)
 *(.gcc_except_table)

.v4_bx          0x000013fc        0x0
 .v4_bx         0x00000000        0x0 linker stubs

.iplt           0x000013fc        0x0
 .iplt          0x00000000        0x0 c:/program files (x86)/cypress/psoc creator/3.3/psoc creator/import/gnu/arm/4.9.3/bin/../lib/gcc/arm-none-eabi/4.9.3/armv7-m/crtbegin.o

.eh_frame_hdr
 *(.eh_frame_hdr)

.eh_frame       0x000013fc        0x4
 *(.eh_frame)
 .eh_frame      0x000013fc        0x0 c:/program files (x86)/cypress/psoc creator/3.3/psoc creator/import/gnu/arm/4.9.3/bin/../lib/gcc/arm-none-eabi/4.9.3/armv7-m/crtbegin.o
 .eh_frame      0x000013fc        0x4 c:/program files (x86)/cypress/psoc creator/3.3/psoc creator/import/gnu/arm/4.9.3/bin/../lib/gcc/arm-none-eabi/4.9.3/armv7-m/crtend.o
                0x00001400                PROVIDE (__exidx_start, .)

.ARM.exidx
 *(.ARM.exidx* .gnu.linkonce.armexidx.*)
                0x00001400                __exidx_end = .

.rodata         0x00001400       0xb0
 *(.rodata .rodata.* .gnu.linkonce.r.*)
 .rodata        0x00001400       0x24 .\CortexM3\ARM_GCC_493\Debug\main.o
 .rodata        0x00001424       0x1c .\CortexM3\ARM_GCC_493\Debug\tasks.o
 .rodata        0x00001440       0x38 .\CortexM3\ARM_GCC_493\Debug\Lab3.a(cyfitter_cfg.o)
                0x00001478                . = ALIGN (0x4)
 *(.init)
 .init          0x00001478        0x4 c:/program files (x86)/cypress/psoc creator/3.3/psoc creator/import/gnu/arm/4.9.3/bin/../lib/gcc/arm-none-eabi/4.9.3/armv7-m/crti.o
                0x00001478                _init
 .init          0x0000147c        0x8 c:/program files (x86)/cypress/psoc creator/3.3/psoc creator/import/gnu/arm/4.9.3/bin/../lib/gcc/arm-none-eabi/4.9.3/armv7-m/crtn.o
                0x00001484                . = ALIGN (0x4)
                0x00001484                __preinit_array_start = .
 *(.preinit_array)
                0x00001484                __preinit_array_end = .
                0x00001484                . = ALIGN (0x4)
                0x00001484                __init_array_start = .
 *(SORT(.init_array.*))
 *(.init_array)
 .init_array    0x00001484        0x4 c:/program files (x86)/cypress/psoc creator/3.3/psoc creator/import/gnu/arm/4.9.3/bin/../lib/gcc/arm-none-eabi/4.9.3/armv7-m/crtbegin.o
 .init_array    0x00001488        0x4 .\CortexM3\ARM_GCC_493\Debug\Cm3Start.o
                0x0000148c                __init_array_end = .
                0x0000148c                . = ALIGN (0x4)
 *(.fini)
 .fini          0x0000148c        0x4 c:/program files (x86)/cypress/psoc creator/3.3/psoc creator/import/gnu/arm/4.9.3/bin/../lib/gcc/arm-none-eabi/4.9.3/armv7-m/crti.o
                0x0000148c                _fini
 .fini          0x00001490        0x8 c:/program files (x86)/cypress/psoc creator/3.3/psoc creator/import/gnu/arm/4.9.3/bin/../lib/gcc/arm-none-eabi/4.9.3/armv7-m/crtn.o
                0x00001498                . = ALIGN (0x4)
                0x00001498                __fini_array_start = .
 *(.fini_array)
 .fini_array    0x00001498        0x4 c:/program files (x86)/cypress/psoc creator/3.3/psoc creator/import/gnu/arm/4.9.3/bin/../lib/gcc/arm-none-eabi/4.9.3/armv7-m/crtbegin.o
 *(SORT(.fini_array.*))
                0x0000149c                __fini_array_end = .
                0x0000149c                . = ALIGN (0x4)
 *crtbegin.o(.ctors)
 *(EXCLUDE_FILE(*crtend.o) .ctors)
 *(SORT(.ctors.*))
 *crtend.o(.ctors)
                0x0000149c                . = ALIGN (0x4)
 *crtbegin.o(.dtors)
 *(EXCLUDE_FILE(*crtend.o) .dtors)
 *(SORT(.dtors.*))
 *crtend.o(.dtors)
                0x0000149c                . = ALIGN (0x4)
                0x0000149c                __cy_regions = .
                0x0000149c        0x4 LONG 0x14b0 __cy_region_init_ram
                0x000014a0        0x4 LONG 0x1fff8108 __cy_region_start_data
                0x000014a4        0x4 LONG 0x8 __cy_region_init_size_ram
                0x000014a8        0x4 LONG 0x2128 __cy_region_zero_size_ram
                0x000014ac                __cy_regions_end = .
                0x000014ac                . = ALIGN (0x4)
                0x000014ac                __app_str_table = .
 *(.app.str.table)
                0x000014ac                . = ALIGN (0x4)
                0x000014ac                __app_task_defs = .
 *(.app.task.defs)
                0x000014ac                __app_task_defs_end = .
                0x000014b0                . = ALIGN (0x8)
 *fill*         0x000014ac        0x4 
                0x000014b0                _etext = .

.ramvectors     0x1fff8000      0x100
                0x1fff8000                __cy_region_start_ram = .
 *(.ramvectors)
 .ramvectors    0x1fff8000      0x100 .\CortexM3\ARM_GCC_493\Debug\Cm3Start.o
                0x1fff8000                CyRamVectors

.noinit         0x1fff8100        0x5
 *(.noinit)
 .noinit        0x1fff8100        0x4 .\CortexM3\ARM_GCC_493\Debug\Cm3Start.o
 .noinit        0x1fff8104        0x1 .\CortexM3\ARM_GCC_493\Debug\Lab3.a(CyLib.o)
                0x1fff8104                CyResetStatus

.data           0x1fff8108        0x8 load address 0x000014b0
                0x1fff8108                __cy_region_start_data = .
 *(.jcr)
 .jcr           0x1fff8108        0x0 c:/program files (x86)/cypress/psoc creator/3.3/psoc creator/import/gnu/arm/4.9.3/bin/../lib/gcc/arm-none-eabi/4.9.3/armv7-m/crtbegin.o
 .jcr           0x1fff8108        0x4 c:/program files (x86)/cypress/psoc creator/3.3/psoc creator/import/gnu/arm/4.9.3/bin/../lib/gcc/arm-none-eabi/4.9.3/armv7-m/crtend.o
 *(.got.plt)
 *(.got)
 *(.shdata)
 *(.data .data.* .gnu.linkonce.d.*)
 .data          0x1fff810c        0x4 .\CortexM3\ARM_GCC_493\Debug\port.o
                0x1fff8110                . = ALIGN (0x8)
 *(.ram)
                0x1fff8110                _edata = .

.igot.plt       0x1fff8110        0x0 load address 0x000014b8
 .igot.plt      0x00000000        0x0 c:/program files (x86)/cypress/psoc creator/3.3/psoc creator/import/gnu/arm/4.9.3/bin/../lib/gcc/arm-none-eabi/4.9.3/armv7-m/crtbegin.o

.bss            0x1fff8110     0x2128 load address 0x000014b8
                0x1fff8110                PROVIDE (__bss_start__, .)
 *(.shbss)
 *(.bss .bss.* .gnu.linkonce.b.*)
 .bss           0x1fff8110       0x1c c:/program files (x86)/cypress/psoc creator/3.3/psoc creator/import/gnu/arm/4.9.3/bin/../lib/gcc/arm-none-eabi/4.9.3/armv7-m/crtbegin.o
 .bss           0x1fff812c     0x2008 .\CortexM3\ARM_GCC_493\Debug\heap_1.o
 .bss           0x1fffa134      0x100 .\CortexM3\ARM_GCC_493\Debug\tasks.o
                0x1fffa134                pxCurrentTCB
 *(COMMON)
                0x1fffa238                . = ALIGN (0x8)
 *fill*         0x1fffa234        0x4 
 *(.ram.b)
                0x1fffa238                _end = .
                0x1fffa238                __end = .
                0x1fffa238                PROVIDE (end, .)
                0x1fffa238                PROVIDE (__bss_end__, .)
                0x000014b0                __cy_region_init_ram = LOADADDR (.data)
                0x00000008                __cy_region_init_size_ram = (_edata - ADDR (.data))
                0x00002128                __cy_region_zero_size_ram = (_end - _edata)

.heap           0x1fffa238       0x80 load address 0x000014b8
                0x1fffa238                . = _end
                0x1fffa2b8                . = (. + 0x80)
 *fill*         0x1fffa238       0x80 
                0x1fffa2b8                __cy_heap_limit = .

.stack          0x20007e00      0x200
                0x20007e00                __cy_stack_limit = .
                0x20008000                . = (. + 0x200)
 *fill*         0x20007e00      0x200 
                0x00000001                ASSERT ((__cy_stack_limit >= __cy_heap_limit), region RAM overflowed with stack)

.cyloadermeta
 *(.cyloadermeta)

.cyloadablemeta
 *(.cyloadablemeta)

.cyconfigecc    0x80000000        0x8
 *(.cyconfigecc)
 .cyconfigecc   0x80000000        0x8 .\CortexM3\ARM_GCC_493\Debug\cymetadata.o
                0x80000000                cy_meta_configecc

.cycustnvl      0x90000000        0x4
 *(.cycustnvl)
 .cycustnvl     0x90000000        0x4 .\CortexM3\ARM_GCC_493\Debug\cymetadata.o
                0x90000000                cy_meta_custnvl

.cywolatch      0x90100000        0x4
 *(.cywolatch)
 .cywolatch     0x90100000        0x4 .\CortexM3\ARM_GCC_493\Debug\cymetadata.o
                0x90100000                cy_meta_wonvl

.cyeeprom       0x90200000        0x0
 *(.cyeeprom)
                0x00000001                ASSERT ((. <= ((0x90200000 + ee_offset) + ee_size)), .cyeeprom data will not fit in EEPROM)

.cyflashprotect
                0x90400000      0x100
 *(.cyflashprotect)
 .cyflashprotect
                0x90400000      0x100 .\CortexM3\ARM_GCC_493\Debug\cymetadata.o
                0x90400000                cy_meta_flashprotect

.cymeta         0x90500000        0xc
 *(.cymeta)
 .cymeta        0x90500000        0xc .\CortexM3\ARM_GCC_493\Debug\cymetadata.o
                0x90500000                cy_metadata

.rel.dyn        0x000014b8        0x0 load address 0x9050000c
 .rel.iplt      0x00000000        0x0 c:/program files (x86)/cypress/psoc creator/3.3/psoc creator/import/gnu/arm/4.9.3/bin/../lib/gcc/arm-none-eabi/4.9.3/armv7-m/crtbegin.o

.stab
 *(.stab)

.stabstr
 *(.stabstr)

.debug
 *(.debug)

.line
 *(.line)

.debug_srcinfo
 *(.debug_srcinfo)

.debug_sfnames
 *(.debug_sfnames)

.debug_aranges  0x00000000      0x9b0
 *(.debug_aranges)
 .debug_aranges
                0x00000000       0x58 .\CortexM3\ARM_GCC_493\Debug\main.o
 .debug_aranges
                0x00000058       0x38 .\CortexM3\ARM_GCC_493\Debug\heap_1.o
 .debug_aranges
                0x00000090       0x40 .\CortexM3\ARM_GCC_493\Debug\list.o
 .debug_aranges
                0x000000d0       0x88 .\CortexM3\ARM_GCC_493\Debug\port.o
 .debug_aranges
                0x00000158       0xe0 .\CortexM3\ARM_GCC_493\Debug\queue.o
 .debug_aranges
                0x00000238      0x198 .\CortexM3\ARM_GCC_493\Debug\tasks.o
 .debug_aranges
                0x000003d0       0x18 .\CortexM3\ARM_GCC_493\Debug\cymetadata.o
 .debug_aranges
                0x000003e8       0x48 .\CortexM3\ARM_GCC_493\Debug\Cm3Start.o
 .debug_aranges
                0x00000430       0x58 .\CortexM3\ARM_GCC_493\Debug\Lab3.a(cyfitter_cfg.o)
 .debug_aranges
                0x00000488       0x20 .\CortexM3\ARM_GCC_493\Debug\Lab3.a(CyBootAsmGnu.o)
 .debug_aranges
                0x000004a8      0x298 .\CortexM3\ARM_GCC_493\Debug\Lab3.a(CyLib.o)
 .debug_aranges
                0x00000740       0x98 .\CortexM3\ARM_GCC_493\Debug\Lab3.a(cyPm.o)
 .debug_aranges
                0x000007d8       0x38 .\CortexM3\ARM_GCC_493\Debug\Lab3.a(Blue_LED_pin.o)
 .debug_aranges
                0x00000810       0x38 .\CortexM3\ARM_GCC_493\Debug\Lab3.a(Green_LED_pin.o)
 .debug_aranges
                0x00000848       0x38 .\CortexM3\ARM_GCC_493\Debug\Lab3.a(Red1_LED_pin.o)
 .debug_aranges
                0x00000880       0x38 .\CortexM3\ARM_GCC_493\Debug\Lab3.a(Red2_LED_pin.o)
 .debug_aranges
                0x000008b8       0x80 .\CortexM3\ARM_GCC_493\Debug\Lab3.a(CyFlash.o)
 .debug_aranges
                0x00000938       0x78 .\CortexM3\ARM_GCC_493\Debug\Lab3.a(CySpc.o)

.debug_pubnames
 *(.debug_pubnames)

.debug_info     0x00000000     0x4fda
 *(.debug_info .gnu.linkonce.wi.*)
 .debug_info    0x00000000      0x1d7 .\CortexM3\ARM_GCC_493\Debug\main.o
 .debug_info    0x000001d7      0x1c2 .\CortexM3\ARM_GCC_493\Debug\heap_1.o
 .debug_info    0x00000399      0x2d6 .\CortexM3\ARM_GCC_493\Debug\list.o
 .debug_info    0x0000066f      0x26d .\CortexM3\ARM_GCC_493\Debug\port.o
 .debug_info    0x000008dc      0xb95 .\CortexM3\ARM_GCC_493\Debug\queue.o
 .debug_info    0x00001471     0x13e0 .\CortexM3\ARM_GCC_493\Debug\tasks.o
 .debug_info    0x00002851      0x139 .\CortexM3\ARM_GCC_493\Debug\cymetadata.o
 .debug_info    0x0000298a      0x317 .\CortexM3\ARM_GCC_493\Debug\Cm3Start.o
 .debug_info    0x00002ca1      0x2d9 .\CortexM3\ARM_GCC_493\Debug\Lab3.a(cyfitter_cfg.o)
 .debug_info    0x00002f7a       0x9c .\CortexM3\ARM_GCC_493\Debug\Lab3.a(CyBootAsmGnu.o)
 .debug_info    0x00003016      0xe31 .\CortexM3\ARM_GCC_493\Debug\Lab3.a(CyLib.o)
 .debug_info    0x00003e47      0x55f .\CortexM3\ARM_GCC_493\Debug\Lab3.a(cyPm.o)
 .debug_info    0x000043a6      0x11d .\CortexM3\ARM_GCC_493\Debug\Lab3.a(Blue_LED_pin.o)
 .debug_info    0x000044c3      0x11d .\CortexM3\ARM_GCC_493\Debug\Lab3.a(Green_LED_pin.o)
 .debug_info    0x000045e0      0x11d .\CortexM3\ARM_GCC_493\Debug\Lab3.a(Red1_LED_pin.o)
 .debug_info    0x000046fd      0x11d .\CortexM3\ARM_GCC_493\Debug\Lab3.a(Red2_LED_pin.o)
 .debug_info    0x0000481a      0x36a .\CortexM3\ARM_GCC_493\Debug\Lab3.a(CyFlash.o)
 .debug_info    0x00004b84      0x456 .\CortexM3\ARM_GCC_493\Debug\Lab3.a(CySpc.o)

.debug_abbrev   0x00000000     0x14be
 *(.debug_abbrev)
 .debug_abbrev  0x00000000      0x114 .\CortexM3\ARM_GCC_493\Debug\main.o
 .debug_abbrev  0x00000114      0x120 .\CortexM3\ARM_GCC_493\Debug\heap_1.o
 .debug_abbrev  0x00000234       0xd8 .\CortexM3\ARM_GCC_493\Debug\list.o
 .debug_abbrev  0x0000030c      0x17a .\CortexM3\ARM_GCC_493\Debug\port.o
 .debug_abbrev  0x00000486      0x1a0 .\CortexM3\ARM_GCC_493\Debug\queue.o
 .debug_abbrev  0x00000626      0x287 .\CortexM3\ARM_GCC_493\Debug\tasks.o
 .debug_abbrev  0x000008ad       0x5d .\CortexM3\ARM_GCC_493\Debug\cymetadata.o
 .debug_abbrev  0x0000090a      0x1b6 .\CortexM3\ARM_GCC_493\Debug\Cm3Start.o
 .debug_abbrev  0x00000ac0      0x14b .\CortexM3\ARM_GCC_493\Debug\Lab3.a(cyfitter_cfg.o)
 .debug_abbrev  0x00000c0b       0x14 .\CortexM3\ARM_GCC_493\Debug\Lab3.a(CyBootAsmGnu.o)
 .debug_abbrev  0x00000c1f      0x217 .\CortexM3\ARM_GCC_493\Debug\Lab3.a(CyLib.o)
 .debug_abbrev  0x00000e36      0x16e .\CortexM3\ARM_GCC_493\Debug\Lab3.a(cyPm.o)
 .debug_abbrev  0x00000fa4       0x9d .\CortexM3\ARM_GCC_493\Debug\Lab3.a(Blue_LED_pin.o)
 .debug_abbrev  0x00001041       0x9d .\CortexM3\ARM_GCC_493\Debug\Lab3.a(Green_LED_pin.o)
 .debug_abbrev  0x000010de       0x9d .\CortexM3\ARM_GCC_493\Debug\Lab3.a(Red1_LED_pin.o)
 .debug_abbrev  0x0000117b       0x9d .\CortexM3\ARM_GCC_493\Debug\Lab3.a(Red2_LED_pin.o)
 .debug_abbrev  0x00001218      0x12d .\CortexM3\ARM_GCC_493\Debug\Lab3.a(CyFlash.o)
 .debug_abbrev  0x00001345      0x179 .\CortexM3\ARM_GCC_493\Debug\Lab3.a(CySpc.o)

.debug_line     0x00000000     0x2ea0
 *(.debug_line)
 .debug_line    0x00000000      0x216 .\CortexM3\ARM_GCC_493\Debug\main.o
 .debug_line    0x00000216      0x227 .\CortexM3\ARM_GCC_493\Debug\heap_1.o
 .debug_line    0x0000043d      0x1e9 .\CortexM3\ARM_GCC_493\Debug\list.o
 .debug_line    0x00000626      0x289 .\CortexM3\ARM_GCC_493\Debug\port.o
 .debug_line    0x000008af      0x587 .\CortexM3\ARM_GCC_493\Debug\queue.o
 .debug_line    0x00000e36      0x995 .\CortexM3\ARM_GCC_493\Debug\tasks.o
 .debug_line    0x000017cb       0x53 .\CortexM3\ARM_GCC_493\Debug\cymetadata.o
 .debug_line    0x0000181e      0x1d4 .\CortexM3\ARM_GCC_493\Debug\Cm3Start.o
 .debug_line    0x000019f2      0x1c0 .\CortexM3\ARM_GCC_493\Debug\Lab3.a(cyfitter_cfg.o)
 .debug_line    0x00001bb2       0x68 .\CortexM3\ARM_GCC_493\Debug\Lab3.a(CyBootAsmGnu.o)
 .debug_line    0x00001c1a      0x872 .\CortexM3\ARM_GCC_493\Debug\Lab3.a(CyLib.o)
 .debug_line    0x0000248c      0x381 .\CortexM3\ARM_GCC_493\Debug\Lab3.a(cyPm.o)
 .debug_line    0x0000280d       0x9d .\CortexM3\ARM_GCC_493\Debug\Lab3.a(Blue_LED_pin.o)
 .debug_line    0x000028aa       0x9e .\CortexM3\ARM_GCC_493\Debug\Lab3.a(Green_LED_pin.o)
 .debug_line    0x00002948       0x9d .\CortexM3\ARM_GCC_493\Debug\Lab3.a(Red1_LED_pin.o)
 .debug_line    0x000029e5       0x9d .\CortexM3\ARM_GCC_493\Debug\Lab3.a(Red2_LED_pin.o)
 .debug_line    0x00002a82      0x207 .\CortexM3\ARM_GCC_493\Debug\Lab3.a(CyFlash.o)
 .debug_line    0x00002c89      0x217 .\CortexM3\ARM_GCC_493\Debug\Lab3.a(CySpc.o)

.debug_frame    0x00000000     0x2744
 *(.debug_frame)
 .debug_frame   0x00000000      0x11c .\CortexM3\ARM_GCC_493\Debug\main.o
 .debug_frame   0x0000011c       0xa8 .\CortexM3\ARM_GCC_493\Debug\heap_1.o
 .debug_frame   0x000001c4       0xd8 .\CortexM3\ARM_GCC_493\Debug\list.o
 .debug_frame   0x0000029c      0x180 .\CortexM3\ARM_GCC_493\Debug\port.o
 .debug_frame   0x0000041c      0x3f8 .\CortexM3\ARM_GCC_493\Debug\queue.o
 .debug_frame   0x00000814      0x76c .\CortexM3\ARM_GCC_493\Debug\tasks.o
 .debug_frame   0x00000f80       0xd8 .\CortexM3\ARM_GCC_493\Debug\Cm3Start.o
 .debug_frame   0x00001058      0x144 .\CortexM3\ARM_GCC_493\Debug\Lab3.a(cyfitter_cfg.o)
 .debug_frame   0x0000119c      0xbe8 .\CortexM3\ARM_GCC_493\Debug\Lab3.a(CyLib.o)
 .debug_frame   0x00001d84      0x234 .\CortexM3\ARM_GCC_493\Debug\Lab3.a(cyPm.o)
 .debug_frame   0x00001fb8       0xa8 .\CortexM3\ARM_GCC_493\Debug\Lab3.a(Blue_LED_pin.o)
 .debug_frame   0x00002060       0xa8 .\CortexM3\ARM_GCC_493\Debug\Lab3.a(Green_LED_pin.o)
 .debug_frame   0x00002108       0xa8 .\CortexM3\ARM_GCC_493\Debug\Lab3.a(Red1_LED_pin.o)
 .debug_frame   0x000021b0       0xa8 .\CortexM3\ARM_GCC_493\Debug\Lab3.a(Red2_LED_pin.o)
 .debug_frame   0x00002258      0x210 .\CortexM3\ARM_GCC_493\Debug\Lab3.a(CyFlash.o)
 .debug_frame   0x00002468      0x1f8 .\CortexM3\ARM_GCC_493\Debug\Lab3.a(CySpc.o)
 .debug_frame   0x00002660       0x20 c:/program files (x86)/cypress/psoc creator/3.3/psoc creator/import/gnu/arm/4.9.3/bin/../lib/gcc/arm-none-eabi/4.9.3/../../../../arm-none-eabi/lib/armv7-m\libg_nano.a(lib_a-errno.o)
 .debug_frame   0x00002680       0x28 c:/program files (x86)/cypress/psoc creator/3.3/psoc creator/import/gnu/arm/4.9.3/bin/../lib/gcc/arm-none-eabi/4.9.3/../../../../arm-none-eabi/lib/armv7-m\libg_nano.a(lib_a-exit.o)
 .debug_frame   0x000026a8       0x2c c:/program files (x86)/cypress/psoc creator/3.3/psoc creator/import/gnu/arm/4.9.3/bin/../lib/gcc/arm-none-eabi/4.9.3/../../../../arm-none-eabi/lib/armv7-m\libg_nano.a(lib_a-init.o)
 .debug_frame   0x000026d4       0x28 c:/program files (x86)/cypress/psoc creator/3.3/psoc creator/import/gnu/arm/4.9.3/bin/../lib/gcc/arm-none-eabi/4.9.3/../../../../arm-none-eabi/lib/armv7-m\libg_nano.a(lib_a-memcmp.o)
 .debug_frame   0x000026fc       0x28 c:/program files (x86)/cypress/psoc creator/3.3/psoc creator/import/gnu/arm/4.9.3/bin/../lib/gcc/arm-none-eabi/4.9.3/../../../../arm-none-eabi/lib/armv7-m\libg_nano.a(lib_a-memcpy.o)
 .debug_frame   0x00002724       0x20 c:/program files (x86)/cypress/psoc creator/3.3/psoc creator/import/gnu/arm/4.9.3/bin/../lib/gcc/arm-none-eabi/4.9.3/../../../../arm-none-eabi/lib/armv7-m\libg_nano.a(lib_a-memset.o)

.debug_str      0x00000000     0x2689
 *(.debug_str)
 .debug_str     0x00000000      0x240 .\CortexM3\ARM_GCC_493\Debug\main.o
                                0x281 (size before relaxing)
 .debug_str     0x00000240       0xa2 .\CortexM3\ARM_GCC_493\Debug\heap_1.o
                                0x268 (size before relaxing)
 .debug_str     0x000002e2      0x13d .\CortexM3\ARM_GCC_493\Debug\list.o
                                0x2f4 (size before relaxing)
 .debug_str     0x0000041f      0x141 .\CortexM3\ARM_GCC_493\Debug\port.o
                                0x346 (size before relaxing)
 .debug_str     0x00000560      0x495 .\CortexM3\ARM_GCC_493\Debug\queue.o
                                0x74d (size before relaxing)
 .debug_str     0x000009f5      0xa0b .\CortexM3\ARM_GCC_493\Debug\tasks.o
                                0xd6f (size before relaxing)
 .debug_str     0x00001400       0x7d .\CortexM3\ARM_GCC_493\Debug\cymetadata.o
                                0x1f6 (size before relaxing)
 .debug_str     0x0000147d      0x11d .\CortexM3\ARM_GCC_493\Debug\Cm3Start.o
                                0x2d7 (size before relaxing)
 .debug_str     0x0000159a      0x10d .\CortexM3\ARM_GCC_493\Debug\Lab3.a(cyfitter_cfg.o)
                                0x2ac (size before relaxing)
 .debug_str     0x000016a7      0x7fc .\CortexM3\ARM_GCC_493\Debug\Lab3.a(CyLib.o)
                                0x9d2 (size before relaxing)
 .debug_str     0x00001ea3      0x367 .\CortexM3\ARM_GCC_493\Debug\Lab3.a(cyPm.o)
                                0x537 (size before relaxing)
 .debug_str     0x0000220a       0x8b .\CortexM3\ARM_GCC_493\Debug\Lab3.a(Blue_LED_pin.o)
                                0x211 (size before relaxing)
 .debug_str     0x00002295       0x85 .\CortexM3\ARM_GCC_493\Debug\Lab3.a(Green_LED_pin.o)
                                0x216 (size before relaxing)
 .debug_str     0x0000231a       0x80 .\CortexM3\ARM_GCC_493\Debug\Lab3.a(Red1_LED_pin.o)
                                0x211 (size before relaxing)
 .debug_str     0x0000239a       0x80 .\CortexM3\ARM_GCC_493\Debug\Lab3.a(Red2_LED_pin.o)
                                0x211 (size before relaxing)
 .debug_str     0x0000241a      0x147 .\CortexM3\ARM_GCC_493\Debug\Lab3.a(CyFlash.o)
                                0x2f6 (size before relaxing)
 .debug_str     0x00002561      0x128 .\CortexM3\ARM_GCC_493\Debug\Lab3.a(CySpc.o)
                                0x2f3 (size before relaxing)

.debug_loc
 *(.debug_loc)

.debug_macinfo
 *(.debug_macinfo)

.debug_ranges   0x00000000      0x878
 *(.debug_ranges)
 .debug_ranges  0x00000000       0x48 .\CortexM3\ARM_GCC_493\Debug\main.o
 .debug_ranges  0x00000048       0x28 .\CortexM3\ARM_GCC_493\Debug\heap_1.o
 .debug_ranges  0x00000070       0x30 .\CortexM3\ARM_GCC_493\Debug\list.o
 .debug_ranges  0x000000a0       0x78 .\CortexM3\ARM_GCC_493\Debug\port.o
 .debug_ranges  0x00000118       0xd0 .\CortexM3\ARM_GCC_493\Debug\queue.o
 .debug_ranges  0x000001e8      0x188 .\CortexM3\ARM_GCC_493\Debug\tasks.o
 .debug_ranges  0x00000370       0x38 .\CortexM3\ARM_GCC_493\Debug\Cm3Start.o
 .debug_ranges  0x000003a8       0x48 .\CortexM3\ARM_GCC_493\Debug\Lab3.a(cyfitter_cfg.o)
 .debug_ranges  0x000003f0      0x288 .\CortexM3\ARM_GCC_493\Debug\Lab3.a(CyLib.o)
 .debug_ranges  0x00000678       0x88 .\CortexM3\ARM_GCC_493\Debug\Lab3.a(cyPm.o)
 .debug_ranges  0x00000700       0x28 .\CortexM3\ARM_GCC_493\Debug\Lab3.a(Blue_LED_pin.o)
 .debug_ranges  0x00000728       0x28 .\CortexM3\ARM_GCC_493\Debug\Lab3.a(Green_LED_pin.o)
 .debug_ranges  0x00000750       0x28 .\CortexM3\ARM_GCC_493\Debug\Lab3.a(Red1_LED_pin.o)
 .debug_ranges  0x00000778       0x28 .\CortexM3\ARM_GCC_493\Debug\Lab3.a(Red2_LED_pin.o)
 .debug_ranges  0x000007a0       0x70 .\CortexM3\ARM_GCC_493\Debug\Lab3.a(CyFlash.o)
 .debug_ranges  0x00000810       0x68 .\CortexM3\ARM_GCC_493\Debug\Lab3.a(CySpc.o)

.comment        0x00000000       0x70
 .comment       0x00000000       0x70 .\CortexM3\ARM_GCC_493\Debug\main.o
                                 0x71 (size before relaxing)
 .comment       0x00000000       0x71 .\CortexM3\ARM_GCC_493\Debug\heap_1.o
 .comment       0x00000000       0x71 .\CortexM3\ARM_GCC_493\Debug\list.o
 .comment       0x00000000       0x71 .\CortexM3\ARM_GCC_493\Debug\port.o
 .comment       0x00000000       0x71 .\CortexM3\ARM_GCC_493\Debug\queue.o
 .comment       0x00000000       0x71 .\CortexM3\ARM_GCC_493\Debug\tasks.o
 .comment       0x00000000       0x71 .\CortexM3\ARM_GCC_493\Debug\cymetadata.o
 .comment       0x00000000       0x71 .\CortexM3\ARM_GCC_493\Debug\Cm3Start.o
 .comment       0x00000000       0x71 .\CortexM3\ARM_GCC_493\Debug\Lab3.a(cyfitter_cfg.o)
 .comment       0x00000000       0x71 .\CortexM3\ARM_GCC_493\Debug\Lab3.a(CyLib.o)
 .comment       0x00000000       0x71 .\CortexM3\ARM_GCC_493\Debug\Lab3.a(cyPm.o)
 .comment       0x00000000       0x71 .\CortexM3\ARM_GCC_493\Debug\Lab3.a(Blue_LED_pin.o)
 .comment       0x00000000       0x71 .\CortexM3\ARM_GCC_493\Debug\Lab3.a(Green_LED_pin.o)
 .comment       0x00000000       0x71 .\CortexM3\ARM_GCC_493\Debug\Lab3.a(Red1_LED_pin.o)
 .comment       0x00000000       0x71 .\CortexM3\ARM_GCC_493\Debug\Lab3.a(Red2_LED_pin.o)
 .comment       0x00000000       0x71 .\CortexM3\ARM_GCC_493\Debug\Lab3.a(CyFlash.o)
 .comment       0x00000000       0x71 .\CortexM3\ARM_GCC_493\Debug\Lab3.a(CySpc.o)

.debug_weaknames
 *(.debug_weaknames)

.debug_funcnames
 *(.debug_funcnames)

.debug_typenames
 *(.debug_typenames)

.debug_varnames
 *(.debug_varnames)

.note.gnu.arm.ident
 *(.note.gnu.arm.ident)

.ARM.attributes
                0x00000000       0x29
 *(.ARM.attributes)
 .ARM.attributes
                0x00000000       0x1d c:/program files (x86)/cypress/psoc creator/3.3/psoc creator/import/gnu/arm/4.9.3/bin/../lib/gcc/arm-none-eabi/4.9.3/armv7-m/crti.o
 .ARM.attributes
                0x0000001d       0x2d c:/program files (x86)/cypress/psoc creator/3.3/psoc creator/import/gnu/arm/4.9.3/bin/../lib/gcc/arm-none-eabi/4.9.3/armv7-m/crtbegin.o
 .ARM.attributes
                0x0000004a       0x1b c:/program files (x86)/cypress/psoc creator/3.3/psoc creator/import/gnu/arm/4.9.3/bin/../lib/gcc/arm-none-eabi/4.9.3/../../../../arm-none-eabi/lib/armv7-m/crt0.o
 .ARM.attributes
                0x00000065       0x33 .\CortexM3\ARM_GCC_493\Debug\main.o
 .ARM.attributes
                0x00000098       0x33 .\CortexM3\ARM_GCC_493\Debug\heap_1.o
 .ARM.attributes
                0x000000cb       0x33 .\CortexM3\ARM_GCC_493\Debug\list.o
 .ARM.attributes
                0x000000fe       0x33 .\CortexM3\ARM_GCC_493\Debug\port.o
 .ARM.attributes
                0x00000131       0x33 .\CortexM3\ARM_GCC_493\Debug\queue.o
 .ARM.attributes
                0x00000164       0x33 .\CortexM3\ARM_GCC_493\Debug\tasks.o
 .ARM.attributes
                0x00000197       0x33 .\CortexM3\ARM_GCC_493\Debug\cymetadata.o
 .ARM.attributes
                0x000001ca       0x33 .\CortexM3\ARM_GCC_493\Debug\Cm3Start.o
 .ARM.attributes
                0x000001fd       0x33 .\CortexM3\ARM_GCC_493\Debug\Lab3.a(cyfitter_cfg.o)
 .ARM.attributes
                0x00000230       0x21 .\CortexM3\ARM_GCC_493\Debug\Lab3.a(CyBootAsmGnu.o)
 .ARM.attributes
                0x00000251       0x33 .\CortexM3\ARM_GCC_493\Debug\Lab3.a(CyLib.o)
 .ARM.attributes
                0x00000284       0x33 .\CortexM3\ARM_GCC_493\Debug\Lab3.a(cyPm.o)
 .ARM.attributes
                0x000002b7       0x33 .\CortexM3\ARM_GCC_493\Debug\Lab3.a(Blue_LED_pin.o)
 .ARM.attributes
                0x000002ea       0x33 .\CortexM3\ARM_GCC_493\Debug\Lab3.a(Green_LED_pin.o)
 .ARM.attributes
                0x0000031d       0x33 .\CortexM3\ARM_GCC_493\Debug\Lab3.a(Red1_LED_pin.o)
 .ARM.attributes
                0x00000350       0x33 .\CortexM3\ARM_GCC_493\Debug\Lab3.a(Red2_LED_pin.o)
 .ARM.attributes
                0x00000383       0x33 .\CortexM3\ARM_GCC_493\Debug\Lab3.a(CyFlash.o)
 .ARM.attributes
                0x000003b6       0x33 .\CortexM3\ARM_GCC_493\Debug\Lab3.a(CySpc.o)
 .ARM.attributes
                0x000003e9       0x2d c:/program files (x86)/cypress/psoc creator/3.3/psoc creator/import/gnu/arm/4.9.3/bin/../lib/gcc/arm-none-eabi/4.9.3/../../../../arm-none-eabi/lib/armv7-m\libg_nano.a(lib_a-errno.o)
 .ARM.attributes
                0x00000416       0x2d c:/program files (x86)/cypress/psoc creator/3.3/psoc creator/import/gnu/arm/4.9.3/bin/../lib/gcc/arm-none-eabi/4.9.3/../../../../arm-none-eabi/lib/armv7-m\libg_nano.a(lib_a-exit.o)
 .ARM.attributes
                0x00000443       0x2d c:/program files (x86)/cypress/psoc creator/3.3/psoc creator/import/gnu/arm/4.9.3/bin/../lib/gcc/arm-none-eabi/4.9.3/../../../../arm-none-eabi/lib/armv7-m\libg_nano.a(lib_a-impure.o)
 .ARM.attributes
                0x00000470       0x2d c:/program files (x86)/cypress/psoc creator/3.3/psoc creator/import/gnu/arm/4.9.3/bin/../lib/gcc/arm-none-eabi/4.9.3/../../../../arm-none-eabi/lib/armv7-m\libg_nano.a(lib_a-init.o)
 .ARM.attributes
                0x0000049d       0x2d c:/program files (x86)/cypress/psoc creator/3.3/psoc creator/import/gnu/arm/4.9.3/bin/../lib/gcc/arm-none-eabi/4.9.3/../../../../arm-none-eabi/lib/armv7-m\libg_nano.a(lib_a-memcmp.o)
 .ARM.attributes
                0x000004ca       0x2d c:/program files (x86)/cypress/psoc creator/3.3/psoc creator/import/gnu/arm/4.9.3/bin/../lib/gcc/arm-none-eabi/4.9.3/../../../../arm-none-eabi/lib/armv7-m\libg_nano.a(lib_a-memcpy.o)
 .ARM.attributes
                0x000004f7       0x2d c:/program files (x86)/cypress/psoc creator/3.3/psoc creator/import/gnu/arm/4.9.3/bin/../lib/gcc/arm-none-eabi/4.9.3/../../../../arm-none-eabi/lib/armv7-m\libg_nano.a(lib_a-memset.o)
 .ARM.attributes
                0x00000524       0x2d c:/program files (x86)/cypress/psoc creator/3.3/psoc creator/import/gnu/arm/4.9.3/bin/../lib/gcc/arm-none-eabi/4.9.3/armv7-m/crtend.o
 .ARM.attributes
                0x00000551       0x1d c:/program files (x86)/cypress/psoc creator/3.3/psoc creator/import/gnu/arm/4.9.3/bin/../lib/gcc/arm-none-eabi/4.9.3/armv7-m/crtn.o

/DISCARD/
 *(.note.GNU-stack)
OUTPUT(.\CortexM3\ARM_GCC_493\Debug\Lab3.elf elf32-littlearm)
