ARM GAS  C:\Users\mjphi\AppData\Local\Temp\cczF6LnN.s 			page 1


   1              		.syntax unified
   2              		.cpu cortex-m3
   3              		.fpu softvfp
   4              		.eabi_attribute 20, 1
   5              		.eabi_attribute 21, 1
   6              		.eabi_attribute 23, 3
   7              		.eabi_attribute 24, 1
   8              		.eabi_attribute 25, 1
   9              		.eabi_attribute 26, 1
  10              		.eabi_attribute 30, 6
  11              		.eabi_attribute 34, 1
  12              		.eabi_attribute 18, 4
  13              		.thumb
  14              		.file	"CySpc.c"
  15              		.text
  16              	.Ltext0:
  17              		.cfi_sections	.debug_frame
  18              		.global	SpcLockState
  19              		.bss
  20              		.type	SpcLockState, %object
  21              		.size	SpcLockState, 1
  22              	SpcLockState:
  23 0000 00       		.space	1
  24 0001 000000   		.align	2
  25              	spcWaitPipeBypass:
  26 0004 00000000 		.space	4
  27              		.section	.text.CySpcStart,"ax",%progbits
  28              		.align	2
  29              		.global	CySpcStart
  30              		.thumb
  31              		.thumb_func
  32              		.type	CySpcStart, %function
  33              	CySpcStart:
  34              	.LFB0:
  35              		.file 1 ".\\Generated_Source\\PSoC5\\CySpc.c"
   1:.\Generated_Source\PSoC5/CySpc.c **** /*******************************************************************************
   2:.\Generated_Source\PSoC5/CySpc.c **** * File Name: CySpc.c
   3:.\Generated_Source\PSoC5/CySpc.c **** * Version 5.0
   4:.\Generated_Source\PSoC5/CySpc.c **** *
   5:.\Generated_Source\PSoC5/CySpc.c **** *  Description:
   6:.\Generated_Source\PSoC5/CySpc.c **** *   Provides an API for the System Performance Component.
   7:.\Generated_Source\PSoC5/CySpc.c **** *   The SPC functions are not meant to be called directly by the user
   8:.\Generated_Source\PSoC5/CySpc.c **** *   application.
   9:.\Generated_Source\PSoC5/CySpc.c **** *
  10:.\Generated_Source\PSoC5/CySpc.c **** ********************************************************************************
  11:.\Generated_Source\PSoC5/CySpc.c **** * Copyright 2008-2015, Cypress Semiconductor Corporation.  All rights reserved.
  12:.\Generated_Source\PSoC5/CySpc.c **** * You may use this file only in accordance with the license, terms, conditions,
  13:.\Generated_Source\PSoC5/CySpc.c **** * disclaimers, and limitations in the end user license agreement accompanying
  14:.\Generated_Source\PSoC5/CySpc.c **** * the software package with which this file was provided.
  15:.\Generated_Source\PSoC5/CySpc.c **** *******************************************************************************/
  16:.\Generated_Source\PSoC5/CySpc.c **** 
  17:.\Generated_Source\PSoC5/CySpc.c **** #include "CySpc.h"
  18:.\Generated_Source\PSoC5/CySpc.c **** 
  19:.\Generated_Source\PSoC5/CySpc.c **** #define CY_SPC_KEY_ONE                      (0xB6u)
  20:.\Generated_Source\PSoC5/CySpc.c **** #define CY_SPC_KEY_TWO(x)                   ((uint8) (((uint16) 0xD3u) + ((uint16) (x))))
  21:.\Generated_Source\PSoC5/CySpc.c **** 
  22:.\Generated_Source\PSoC5/CySpc.c **** /* Command Codes */
ARM GAS  C:\Users\mjphi\AppData\Local\Temp\cczF6LnN.s 			page 2


  23:.\Generated_Source\PSoC5/CySpc.c **** #define CY_SPC_CMD_LD_BYTE                  (0x00u)
  24:.\Generated_Source\PSoC5/CySpc.c **** #define CY_SPC_CMD_LD_MULTI_BYTE            (0x01u)
  25:.\Generated_Source\PSoC5/CySpc.c **** #define CY_SPC_CMD_LD_ROW                   (0x02u)
  26:.\Generated_Source\PSoC5/CySpc.c **** #define CY_SPC_CMD_RD_BYTE                  (0x03u)
  27:.\Generated_Source\PSoC5/CySpc.c **** #define CY_SPC_CMD_RD_MULTI_BYTE            (0x04u)
  28:.\Generated_Source\PSoC5/CySpc.c **** #define CY_SPC_CMD_WR_ROW                   (0x05u)
  29:.\Generated_Source\PSoC5/CySpc.c **** #define CY_SPC_CMD_WR_USER_NVL              (0x06u)
  30:.\Generated_Source\PSoC5/CySpc.c **** #define CY_SPC_CMD_PRG_ROW                  (0x07u)
  31:.\Generated_Source\PSoC5/CySpc.c **** #define CY_SPC_CMD_ER_SECTOR                (0x08u)
  32:.\Generated_Source\PSoC5/CySpc.c **** #define CY_SPC_CMD_ER_ALL                   (0x09u)
  33:.\Generated_Source\PSoC5/CySpc.c **** #define CY_SPC_CMD_RD_HIDDEN                (0x0Au)
  34:.\Generated_Source\PSoC5/CySpc.c **** #define CY_SPC_CMD_PRG_PROTECT              (0x0Bu)
  35:.\Generated_Source\PSoC5/CySpc.c **** #define CY_SPC_CMD_CHECKSUM                 (0x0Cu)
  36:.\Generated_Source\PSoC5/CySpc.c **** #define CY_SPC_CMD_DWNLD_ALGORITHM          (0x0Du)
  37:.\Generated_Source\PSoC5/CySpc.c **** #define CY_SPC_CMD_GET_TEMP                 (0x0Eu)
  38:.\Generated_Source\PSoC5/CySpc.c **** #define CY_SPC_CMD_GET_ADC                  (0x0Fu)
  39:.\Generated_Source\PSoC5/CySpc.c **** #define CY_SPC_CMD_RD_NVL_VOLATILE          (0x10u)
  40:.\Generated_Source\PSoC5/CySpc.c **** #define CY_SPC_CMD_SETUP_TS                 (0x11u)
  41:.\Generated_Source\PSoC5/CySpc.c **** #define CY_SPC_CMD_DISABLE_TS               (0x12u)
  42:.\Generated_Source\PSoC5/CySpc.c **** #define CY_SPC_CMD_ER_ROW                   (0x13u)
  43:.\Generated_Source\PSoC5/CySpc.c **** 
  44:.\Generated_Source\PSoC5/CySpc.c **** /* Enable bit in Active and Alternate Active mode templates */
  45:.\Generated_Source\PSoC5/CySpc.c **** #define PM_SPC_PM_EN                        (0x08u)
  46:.\Generated_Source\PSoC5/CySpc.c **** 
  47:.\Generated_Source\PSoC5/CySpc.c **** /* Gate calls to the SPC. */
  48:.\Generated_Source\PSoC5/CySpc.c **** uint8 SpcLockState = CY_SPC_UNLOCKED;
  49:.\Generated_Source\PSoC5/CySpc.c **** 
  50:.\Generated_Source\PSoC5/CySpc.c **** 
  51:.\Generated_Source\PSoC5/CySpc.c **** #if(CY_PSOC5)
  52:.\Generated_Source\PSoC5/CySpc.c **** 
  53:.\Generated_Source\PSoC5/CySpc.c ****     /***************************************************************************
  54:.\Generated_Source\PSoC5/CySpc.c ****     * The wait-state pipeline must be enabled prior to accessing the SPC
  55:.\Generated_Source\PSoC5/CySpc.c ****     * register interface regardless of CPU frequency. The CySpcLock() saves
  56:.\Generated_Source\PSoC5/CySpc.c ****     * current wait-state pipeline state and enables it. The CySpcUnlock()
  57:.\Generated_Source\PSoC5/CySpc.c ****     * function, which must be called after SPC transaction, restores original
  58:.\Generated_Source\PSoC5/CySpc.c ****     * state.
  59:.\Generated_Source\PSoC5/CySpc.c ****     ***************************************************************************/
  60:.\Generated_Source\PSoC5/CySpc.c ****     static uint32 spcWaitPipeBypass = 0u;
  61:.\Generated_Source\PSoC5/CySpc.c **** 
  62:.\Generated_Source\PSoC5/CySpc.c **** #endif  /* (CY_PSOC5) */
  63:.\Generated_Source\PSoC5/CySpc.c **** 
  64:.\Generated_Source\PSoC5/CySpc.c **** 
  65:.\Generated_Source\PSoC5/CySpc.c **** /*******************************************************************************
  66:.\Generated_Source\PSoC5/CySpc.c **** * Function Name: CySpcStart
  67:.\Generated_Source\PSoC5/CySpc.c **** ********************************************************************************
  68:.\Generated_Source\PSoC5/CySpc.c **** * Summary:
  69:.\Generated_Source\PSoC5/CySpc.c **** *  Starts the SPC.
  70:.\Generated_Source\PSoC5/CySpc.c **** *
  71:.\Generated_Source\PSoC5/CySpc.c **** * Parameters:
  72:.\Generated_Source\PSoC5/CySpc.c **** *  None
  73:.\Generated_Source\PSoC5/CySpc.c **** *
  74:.\Generated_Source\PSoC5/CySpc.c **** * Return:
  75:.\Generated_Source\PSoC5/CySpc.c **** *  None
  76:.\Generated_Source\PSoC5/CySpc.c **** *
  77:.\Generated_Source\PSoC5/CySpc.c **** *******************************************************************************/
  78:.\Generated_Source\PSoC5/CySpc.c **** void CySpcStart(void) 
  79:.\Generated_Source\PSoC5/CySpc.c **** {
ARM GAS  C:\Users\mjphi\AppData\Local\Temp\cczF6LnN.s 			page 3


  36              		.loc 1 79 0
  37              		.cfi_startproc
  38              		@ args = 0, pretend = 0, frame = 8
  39              		@ frame_needed = 1, uses_anonymous_args = 0
  40 0000 80B5     		push	{r7, lr}
  41              		.cfi_def_cfa_offset 8
  42              		.cfi_offset 7, -8
  43              		.cfi_offset 14, -4
  44 0002 82B0     		sub	sp, sp, #8
  45              		.cfi_def_cfa_offset 16
  46 0004 00AF     		add	r7, sp, #0
  47              		.cfi_def_cfa_register 7
  80:.\Generated_Source\PSoC5/CySpc.c ****     /* Save current global interrupt enable and disable it */
  81:.\Generated_Source\PSoC5/CySpc.c ****     uint8 interruptState = CyEnterCriticalSection();
  48              		.loc 1 81 0
  49 0006 FFF7FEFF 		bl	CyEnterCriticalSection
  50 000a 0346     		mov	r3, r0
  51 000c FB71     		strb	r3, [r7, #7]
  82:.\Generated_Source\PSoC5/CySpc.c **** 
  83:.\Generated_Source\PSoC5/CySpc.c ****     CY_SPC_PM_ACT_REG  |= PM_SPC_PM_EN;
  52              		.loc 1 83 0
  53 000e 0B4A     		ldr	r2, .L2
  54 0010 0A4B     		ldr	r3, .L2
  55 0012 1B78     		ldrb	r3, [r3]
  56 0014 DBB2     		uxtb	r3, r3
  57 0016 43F00803 		orr	r3, r3, #8
  58 001a DBB2     		uxtb	r3, r3
  59 001c 1370     		strb	r3, [r2]
  84:.\Generated_Source\PSoC5/CySpc.c ****     CY_SPC_PM_STBY_REG |= PM_SPC_PM_EN;
  60              		.loc 1 84 0
  61 001e 084A     		ldr	r2, .L2+4
  62 0020 074B     		ldr	r3, .L2+4
  63 0022 1B78     		ldrb	r3, [r3]
  64 0024 DBB2     		uxtb	r3, r3
  65 0026 43F00803 		orr	r3, r3, #8
  66 002a DBB2     		uxtb	r3, r3
  67 002c 1370     		strb	r3, [r2]
  85:.\Generated_Source\PSoC5/CySpc.c **** 
  86:.\Generated_Source\PSoC5/CySpc.c ****     /* Restore global interrupt enable state */
  87:.\Generated_Source\PSoC5/CySpc.c ****     CyExitCriticalSection(interruptState);
  68              		.loc 1 87 0
  69 002e FB79     		ldrb	r3, [r7, #7]	@ zero_extendqisi2
  70 0030 1846     		mov	r0, r3
  71 0032 FFF7FEFF 		bl	CyExitCriticalSection
  88:.\Generated_Source\PSoC5/CySpc.c **** }
  72              		.loc 1 88 0
  73 0036 0837     		adds	r7, r7, #8
  74              		.cfi_def_cfa_offset 8
  75 0038 BD46     		mov	sp, r7
  76              		.cfi_def_cfa_register 13
  77              		@ sp needed
  78 003a 80BD     		pop	{r7, pc}
  79              	.L3:
  80              		.align	2
  81              	.L2:
  82 003c A0430040 		.word	1073759136
  83 0040 B0430040 		.word	1073759152
ARM GAS  C:\Users\mjphi\AppData\Local\Temp\cczF6LnN.s 			page 4


  84              		.cfi_endproc
  85              	.LFE0:
  86              		.size	CySpcStart, .-CySpcStart
  87              		.section	.text.CySpcStop,"ax",%progbits
  88              		.align	2
  89              		.global	CySpcStop
  90              		.thumb
  91              		.thumb_func
  92              		.type	CySpcStop, %function
  93              	CySpcStop:
  94              	.LFB1:
  89:.\Generated_Source\PSoC5/CySpc.c **** 
  90:.\Generated_Source\PSoC5/CySpc.c **** 
  91:.\Generated_Source\PSoC5/CySpc.c **** /*******************************************************************************
  92:.\Generated_Source\PSoC5/CySpc.c **** * Function Name: CySpcStop
  93:.\Generated_Source\PSoC5/CySpc.c **** ********************************************************************************
  94:.\Generated_Source\PSoC5/CySpc.c **** * Summary:
  95:.\Generated_Source\PSoC5/CySpc.c **** *  Stops the SPC.
  96:.\Generated_Source\PSoC5/CySpc.c **** *
  97:.\Generated_Source\PSoC5/CySpc.c **** * Parameters:
  98:.\Generated_Source\PSoC5/CySpc.c **** *  None
  99:.\Generated_Source\PSoC5/CySpc.c **** *
 100:.\Generated_Source\PSoC5/CySpc.c **** * Return:
 101:.\Generated_Source\PSoC5/CySpc.c **** *  None
 102:.\Generated_Source\PSoC5/CySpc.c **** *
 103:.\Generated_Source\PSoC5/CySpc.c **** *******************************************************************************/
 104:.\Generated_Source\PSoC5/CySpc.c **** void CySpcStop(void) 
 105:.\Generated_Source\PSoC5/CySpc.c **** {
  95              		.loc 1 105 0
  96              		.cfi_startproc
  97              		@ args = 0, pretend = 0, frame = 8
  98              		@ frame_needed = 1, uses_anonymous_args = 0
  99 0000 80B5     		push	{r7, lr}
 100              		.cfi_def_cfa_offset 8
 101              		.cfi_offset 7, -8
 102              		.cfi_offset 14, -4
 103 0002 82B0     		sub	sp, sp, #8
 104              		.cfi_def_cfa_offset 16
 105 0004 00AF     		add	r7, sp, #0
 106              		.cfi_def_cfa_register 7
 106:.\Generated_Source\PSoC5/CySpc.c ****     /* Save current global interrupt enable and disable it */
 107:.\Generated_Source\PSoC5/CySpc.c ****     uint8 interruptState = CyEnterCriticalSection();
 107              		.loc 1 107 0
 108 0006 FFF7FEFF 		bl	CyEnterCriticalSection
 109 000a 0346     		mov	r3, r0
 110 000c FB71     		strb	r3, [r7, #7]
 108:.\Generated_Source\PSoC5/CySpc.c **** 
 109:.\Generated_Source\PSoC5/CySpc.c ****     CY_SPC_PM_ACT_REG  &= ((uint8)(~PM_SPC_PM_EN));
 111              		.loc 1 109 0
 112 000e 0B4A     		ldr	r2, .L5
 113 0010 0A4B     		ldr	r3, .L5
 114 0012 1B78     		ldrb	r3, [r3]
 115 0014 DBB2     		uxtb	r3, r3
 116 0016 23F00803 		bic	r3, r3, #8
 117 001a DBB2     		uxtb	r3, r3
 118 001c 1370     		strb	r3, [r2]
 110:.\Generated_Source\PSoC5/CySpc.c ****     CY_SPC_PM_STBY_REG &= ((uint8)(~PM_SPC_PM_EN));
ARM GAS  C:\Users\mjphi\AppData\Local\Temp\cczF6LnN.s 			page 5


 119              		.loc 1 110 0
 120 001e 084A     		ldr	r2, .L5+4
 121 0020 074B     		ldr	r3, .L5+4
 122 0022 1B78     		ldrb	r3, [r3]
 123 0024 DBB2     		uxtb	r3, r3
 124 0026 23F00803 		bic	r3, r3, #8
 125 002a DBB2     		uxtb	r3, r3
 126 002c 1370     		strb	r3, [r2]
 111:.\Generated_Source\PSoC5/CySpc.c **** 
 112:.\Generated_Source\PSoC5/CySpc.c ****     /* Restore global interrupt enable state */
 113:.\Generated_Source\PSoC5/CySpc.c ****     CyExitCriticalSection(interruptState);
 127              		.loc 1 113 0
 128 002e FB79     		ldrb	r3, [r7, #7]	@ zero_extendqisi2
 129 0030 1846     		mov	r0, r3
 130 0032 FFF7FEFF 		bl	CyExitCriticalSection
 114:.\Generated_Source\PSoC5/CySpc.c **** }
 131              		.loc 1 114 0
 132 0036 0837     		adds	r7, r7, #8
 133              		.cfi_def_cfa_offset 8
 134 0038 BD46     		mov	sp, r7
 135              		.cfi_def_cfa_register 13
 136              		@ sp needed
 137 003a 80BD     		pop	{r7, pc}
 138              	.L6:
 139              		.align	2
 140              	.L5:
 141 003c A0430040 		.word	1073759136
 142 0040 B0430040 		.word	1073759152
 143              		.cfi_endproc
 144              	.LFE1:
 145              		.size	CySpcStop, .-CySpcStop
 146              		.section	.text.CySpcReadData,"ax",%progbits
 147              		.align	2
 148              		.global	CySpcReadData
 149              		.thumb
 150              		.thumb_func
 151              		.type	CySpcReadData, %function
 152              	CySpcReadData:
 153              	.LFB2:
 115:.\Generated_Source\PSoC5/CySpc.c **** 
 116:.\Generated_Source\PSoC5/CySpc.c **** 
 117:.\Generated_Source\PSoC5/CySpc.c **** /*******************************************************************************
 118:.\Generated_Source\PSoC5/CySpc.c **** * Function Name: CySpcReadData
 119:.\Generated_Source\PSoC5/CySpc.c **** ********************************************************************************
 120:.\Generated_Source\PSoC5/CySpc.c **** * Summary:
 121:.\Generated_Source\PSoC5/CySpc.c **** *  Reads data from the SPC.
 122:.\Generated_Source\PSoC5/CySpc.c **** *
 123:.\Generated_Source\PSoC5/CySpc.c **** * Parameters:
 124:.\Generated_Source\PSoC5/CySpc.c **** *  uint8 buffer:
 125:.\Generated_Source\PSoC5/CySpc.c **** *   Address to store data read.
 126:.\Generated_Source\PSoC5/CySpc.c **** *
 127:.\Generated_Source\PSoC5/CySpc.c **** *  uint8 size:
 128:.\Generated_Source\PSoC5/CySpc.c **** *   Number of bytes to read from the SPC.
 129:.\Generated_Source\PSoC5/CySpc.c **** *
 130:.\Generated_Source\PSoC5/CySpc.c **** * Return:
 131:.\Generated_Source\PSoC5/CySpc.c **** *  uint8:
 132:.\Generated_Source\PSoC5/CySpc.c **** *   The number of bytes read from the SPC.
ARM GAS  C:\Users\mjphi\AppData\Local\Temp\cczF6LnN.s 			page 6


 133:.\Generated_Source\PSoC5/CySpc.c **** *
 134:.\Generated_Source\PSoC5/CySpc.c **** *******************************************************************************/
 135:.\Generated_Source\PSoC5/CySpc.c **** uint8 CySpcReadData(uint8 buffer[], uint8 size) 
 136:.\Generated_Source\PSoC5/CySpc.c **** {
 154              		.loc 1 136 0
 155              		.cfi_startproc
 156              		@ args = 0, pretend = 0, frame = 16
 157              		@ frame_needed = 1, uses_anonymous_args = 0
 158 0000 80B5     		push	{r7, lr}
 159              		.cfi_def_cfa_offset 8
 160              		.cfi_offset 7, -8
 161              		.cfi_offset 14, -4
 162 0002 84B0     		sub	sp, sp, #16
 163              		.cfi_def_cfa_offset 24
 164 0004 00AF     		add	r7, sp, #0
 165              		.cfi_def_cfa_register 7
 166 0006 7860     		str	r0, [r7, #4]
 167 0008 0B46     		mov	r3, r1
 168 000a FB70     		strb	r3, [r7, #3]
 137:.\Generated_Source\PSoC5/CySpc.c ****     uint8 i;
 138:.\Generated_Source\PSoC5/CySpc.c **** 
 139:.\Generated_Source\PSoC5/CySpc.c ****     for(i = 0u; i < size; i++)
 169              		.loc 1 139 0
 170 000c 0023     		movs	r3, #0
 171 000e FB73     		strb	r3, [r7, #15]
 172 0010 14E0     		b	.L8
 173              	.L11:
 140:.\Generated_Source\PSoC5/CySpc.c ****     {
 141:.\Generated_Source\PSoC5/CySpc.c ****         while(!CY_SPC_DATA_READY)
 174              		.loc 1 141 0
 175 0012 02E0     		b	.L9
 176              	.L10:
 142:.\Generated_Source\PSoC5/CySpc.c ****         {
 143:.\Generated_Source\PSoC5/CySpc.c ****             CyDelayUs(1u);
 177              		.loc 1 143 0
 178 0014 0120     		movs	r0, #1
 179 0016 FFF7FEFF 		bl	CyDelayUs
 180              	.L9:
 141:.\Generated_Source\PSoC5/CySpc.c ****         {
 181              		.loc 1 141 0
 182 001a 0D4B     		ldr	r3, .L13
 183 001c 1B78     		ldrb	r3, [r3]
 184 001e DBB2     		uxtb	r3, r3
 185 0020 03F00103 		and	r3, r3, #1
 186 0024 002B     		cmp	r3, #0
 187 0026 F5D0     		beq	.L10
 144:.\Generated_Source\PSoC5/CySpc.c ****         }
 145:.\Generated_Source\PSoC5/CySpc.c ****         buffer[i] = CY_SPC_CPU_DATA_REG;
 188              		.loc 1 145 0 discriminator 2
 189 0028 FB7B     		ldrb	r3, [r7, #15]	@ zero_extendqisi2
 190 002a 7A68     		ldr	r2, [r7, #4]
 191 002c 1344     		add	r3, r3, r2
 192 002e 094A     		ldr	r2, .L13+4
 193 0030 1278     		ldrb	r2, [r2]
 194 0032 D2B2     		uxtb	r2, r2
 195 0034 1A70     		strb	r2, [r3]
 139:.\Generated_Source\PSoC5/CySpc.c ****     {
ARM GAS  C:\Users\mjphi\AppData\Local\Temp\cczF6LnN.s 			page 7


 196              		.loc 1 139 0 discriminator 2
 197 0036 FB7B     		ldrb	r3, [r7, #15]	@ zero_extendqisi2
 198 0038 0133     		adds	r3, r3, #1
 199 003a FB73     		strb	r3, [r7, #15]
 200              	.L8:
 139:.\Generated_Source\PSoC5/CySpc.c ****     {
 201              		.loc 1 139 0 is_stmt 0 discriminator 1
 202 003c FA7B     		ldrb	r2, [r7, #15]	@ zero_extendqisi2
 203 003e FB78     		ldrb	r3, [r7, #3]	@ zero_extendqisi2
 204 0040 9A42     		cmp	r2, r3
 205 0042 E6D3     		bcc	.L11
 146:.\Generated_Source\PSoC5/CySpc.c ****     }
 147:.\Generated_Source\PSoC5/CySpc.c **** 
 148:.\Generated_Source\PSoC5/CySpc.c ****     return(i);
 206              		.loc 1 148 0 is_stmt 1
 207 0044 FB7B     		ldrb	r3, [r7, #15]	@ zero_extendqisi2
 149:.\Generated_Source\PSoC5/CySpc.c **** }
 208              		.loc 1 149 0
 209 0046 1846     		mov	r0, r3
 210 0048 1037     		adds	r7, r7, #16
 211              		.cfi_def_cfa_offset 8
 212 004a BD46     		mov	sp, r7
 213              		.cfi_def_cfa_register 13
 214              		@ sp needed
 215 004c 80BD     		pop	{r7, pc}
 216              	.L14:
 217 004e 00BF     		.align	2
 218              	.L13:
 219 0050 22470040 		.word	1073760034
 220 0054 20470040 		.word	1073760032
 221              		.cfi_endproc
 222              	.LFE2:
 223              		.size	CySpcReadData, .-CySpcReadData
 224              		.section	.text.CySpcLoadMultiByte,"ax",%progbits
 225              		.align	2
 226              		.global	CySpcLoadMultiByte
 227              		.thumb
 228              		.thumb_func
 229              		.type	CySpcLoadMultiByte, %function
 230              	CySpcLoadMultiByte:
 231              	.LFB3:
 150:.\Generated_Source\PSoC5/CySpc.c **** 
 151:.\Generated_Source\PSoC5/CySpc.c **** 
 152:.\Generated_Source\PSoC5/CySpc.c **** /*******************************************************************************
 153:.\Generated_Source\PSoC5/CySpc.c **** * Function Name: CySpcLoadMultiByte
 154:.\Generated_Source\PSoC5/CySpc.c **** ********************************************************************************
 155:.\Generated_Source\PSoC5/CySpc.c **** * Summary:
 156:.\Generated_Source\PSoC5/CySpc.c **** *  Loads 1 to 32 bytes of data into the row latch of a Flash/EEPROM array.
 157:.\Generated_Source\PSoC5/CySpc.c **** *
 158:.\Generated_Source\PSoC5/CySpc.c **** * Parameters:
 159:.\Generated_Source\PSoC5/CySpc.c **** *  uint8 array:
 160:.\Generated_Source\PSoC5/CySpc.c **** *   Id of the array.
 161:.\Generated_Source\PSoC5/CySpc.c **** *
 162:.\Generated_Source\PSoC5/CySpc.c **** *  uint16 address:
 163:.\Generated_Source\PSoC5/CySpc.c **** *   Flash/eeprom addrress
 164:.\Generated_Source\PSoC5/CySpc.c **** *
 165:.\Generated_Source\PSoC5/CySpc.c **** *  uint8* buffer:
ARM GAS  C:\Users\mjphi\AppData\Local\Temp\cczF6LnN.s 			page 8


 166:.\Generated_Source\PSoC5/CySpc.c **** *   Data to load to the row latch
 167:.\Generated_Source\PSoC5/CySpc.c **** *
 168:.\Generated_Source\PSoC5/CySpc.c **** *  uint16 number:
 169:.\Generated_Source\PSoC5/CySpc.c **** *   Number bytes to load.
 170:.\Generated_Source\PSoC5/CySpc.c **** *
 171:.\Generated_Source\PSoC5/CySpc.c **** * Return:
 172:.\Generated_Source\PSoC5/CySpc.c **** *  CYRET_STARTED
 173:.\Generated_Source\PSoC5/CySpc.c **** *  CYRET_CANCELED
 174:.\Generated_Source\PSoC5/CySpc.c **** *  CYRET_LOCKED
 175:.\Generated_Source\PSoC5/CySpc.c **** *  CYRET_BAD_PARAM
 176:.\Generated_Source\PSoC5/CySpc.c **** *
 177:.\Generated_Source\PSoC5/CySpc.c **** *******************************************************************************/
 178:.\Generated_Source\PSoC5/CySpc.c **** cystatus CySpcLoadMultiByte(uint8 array, uint16 address, const uint8 buffer[], uint8 size)\
 179:.\Generated_Source\PSoC5/CySpc.c **** 
 180:.\Generated_Source\PSoC5/CySpc.c **** {
 232              		.loc 1 180 0
 233              		.cfi_startproc
 234              		@ args = 0, pretend = 0, frame = 16
 235              		@ frame_needed = 1, uses_anonymous_args = 0
 236              		@ link register save eliminated.
 237 0000 80B4     		push	{r7}
 238              		.cfi_def_cfa_offset 4
 239              		.cfi_offset 7, -4
 240 0002 85B0     		sub	sp, sp, #20
 241              		.cfi_def_cfa_offset 24
 242 0004 00AF     		add	r7, sp, #0
 243              		.cfi_def_cfa_register 7
 244 0006 3A60     		str	r2, [r7]
 245 0008 1A46     		mov	r2, r3
 246 000a 0346     		mov	r3, r0
 247 000c FB71     		strb	r3, [r7, #7]
 248 000e 0B46     		mov	r3, r1	@ movhi
 249 0010 BB80     		strh	r3, [r7, #4]	@ movhi
 250 0012 1346     		mov	r3, r2
 251 0014 BB71     		strb	r3, [r7, #6]
 181:.\Generated_Source\PSoC5/CySpc.c ****     cystatus status = CYRET_STARTED;
 252              		.loc 1 181 0
 253 0016 0723     		movs	r3, #7
 254 0018 FB60     		str	r3, [r7, #12]
 182:.\Generated_Source\PSoC5/CySpc.c ****     uint8 i;
 183:.\Generated_Source\PSoC5/CySpc.c **** 
 184:.\Generated_Source\PSoC5/CySpc.c ****     /***************************************************************************
 185:.\Generated_Source\PSoC5/CySpc.c ****     * Check if number is correct for array. Number must be less than
 186:.\Generated_Source\PSoC5/CySpc.c ****     * 32 for Flash or less than 16 for EEPROM.
 187:.\Generated_Source\PSoC5/CySpc.c ****     ***************************************************************************/
 188:.\Generated_Source\PSoC5/CySpc.c ****     if(((array < CY_SPC_LAST_FLASH_ARRAYID) && (size < 32u)) ||
 255              		.loc 1 188 0
 256 001a FB79     		ldrb	r3, [r7, #7]	@ zero_extendqisi2
 257 001c 3E2B     		cmp	r3, #62
 258 001e 02D8     		bhi	.L16
 259              		.loc 1 188 0 is_stmt 0 discriminator 1
 260 0020 BB79     		ldrb	r3, [r7, #6]	@ zero_extendqisi2
 261 0022 1F2B     		cmp	r3, #31
 262 0024 05D9     		bls	.L17
 263              	.L16:
 264              		.loc 1 188 0 discriminator 3
 265 0026 FB79     		ldrb	r3, [r7, #7]	@ zero_extendqisi2
ARM GAS  C:\Users\mjphi\AppData\Local\Temp\cczF6LnN.s 			page 9


 266 0028 3F2B     		cmp	r3, #63
 267 002a 46D9     		bls	.L18
 189:.\Generated_Source\PSoC5/CySpc.c ****        ((array > CY_SPC_LAST_FLASH_ARRAYID) && (size < 16u)))
 268              		.loc 1 189 0 is_stmt 1
 269 002c BB79     		ldrb	r3, [r7, #6]	@ zero_extendqisi2
 270 002e 0F2B     		cmp	r3, #15
 271 0030 43D8     		bhi	.L18
 272              	.L17:
 190:.\Generated_Source\PSoC5/CySpc.c ****     {
 191:.\Generated_Source\PSoC5/CySpc.c ****         if(CY_SPC_IDLE)
 273              		.loc 1 191 0
 274 0032 264B     		ldr	r3, .L28
 275 0034 1B78     		ldrb	r3, [r3]
 276 0036 DBB2     		uxtb	r3, r3
 277 0038 03F00203 		and	r3, r3, #2
 278 003c 002B     		cmp	r3, #0
 279 003e 38D0     		beq	.L19
 192:.\Generated_Source\PSoC5/CySpc.c ****         {
 193:.\Generated_Source\PSoC5/CySpc.c ****             CY_SPC_CPU_DATA_REG = CY_SPC_KEY_ONE;
 280              		.loc 1 193 0
 281 0040 234B     		ldr	r3, .L28+4
 282 0042 B622     		movs	r2, #182
 283 0044 1A70     		strb	r2, [r3]
 194:.\Generated_Source\PSoC5/CySpc.c ****             CY_SPC_CPU_DATA_REG = CY_SPC_KEY_TWO(CY_SPC_CMD_LD_MULTI_BYTE);
 284              		.loc 1 194 0
 285 0046 224B     		ldr	r3, .L28+4
 286 0048 D422     		movs	r2, #212
 287 004a 1A70     		strb	r2, [r3]
 195:.\Generated_Source\PSoC5/CySpc.c ****             CY_SPC_CPU_DATA_REG = CY_SPC_CMD_LD_MULTI_BYTE;
 288              		.loc 1 195 0
 289 004c 204B     		ldr	r3, .L28+4
 290 004e 0122     		movs	r2, #1
 291 0050 1A70     		strb	r2, [r3]
 196:.\Generated_Source\PSoC5/CySpc.c **** 
 197:.\Generated_Source\PSoC5/CySpc.c ****             if(CY_SPC_BUSY)
 292              		.loc 1 197 0
 293 0052 1E4B     		ldr	r3, .L28
 294 0054 1B78     		ldrb	r3, [r3]
 295 0056 DBB2     		uxtb	r3, r3
 296 0058 03F00203 		and	r3, r3, #2
 297 005c 002B     		cmp	r3, #0
 298 005e 25D1     		bne	.L20
 198:.\Generated_Source\PSoC5/CySpc.c ****             {
 199:.\Generated_Source\PSoC5/CySpc.c ****                 CY_SPC_CPU_DATA_REG = array;
 299              		.loc 1 199 0
 300 0060 1B4A     		ldr	r2, .L28+4
 301 0062 FB79     		ldrb	r3, [r7, #7]
 302 0064 1370     		strb	r3, [r2]
 200:.\Generated_Source\PSoC5/CySpc.c ****                 CY_SPC_CPU_DATA_REG = 1u & HI8(address);
 303              		.loc 1 200 0
 304 0066 1A4A     		ldr	r2, .L28+4
 305 0068 BB88     		ldrh	r3, [r7, #4]
 306 006a 1B0A     		lsrs	r3, r3, #8
 307 006c 9BB2     		uxth	r3, r3
 308 006e DBB2     		uxtb	r3, r3
 309 0070 03F00103 		and	r3, r3, #1
 310 0074 DBB2     		uxtb	r3, r3
ARM GAS  C:\Users\mjphi\AppData\Local\Temp\cczF6LnN.s 			page 10


 311 0076 1370     		strb	r3, [r2]
 201:.\Generated_Source\PSoC5/CySpc.c ****                 CY_SPC_CPU_DATA_REG = LO8(address);
 312              		.loc 1 201 0
 313 0078 154B     		ldr	r3, .L28+4
 314 007a BA88     		ldrh	r2, [r7, #4]	@ movhi
 315 007c D2B2     		uxtb	r2, r2
 316 007e 1A70     		strb	r2, [r3]
 202:.\Generated_Source\PSoC5/CySpc.c ****                 CY_SPC_CPU_DATA_REG = ((uint8)(size - 1u));
 317              		.loc 1 202 0
 318 0080 134A     		ldr	r2, .L28+4
 319 0082 BB79     		ldrb	r3, [r7, #6]
 320 0084 013B     		subs	r3, r3, #1
 321 0086 DBB2     		uxtb	r3, r3
 322 0088 1370     		strb	r3, [r2]
 203:.\Generated_Source\PSoC5/CySpc.c **** 
 204:.\Generated_Source\PSoC5/CySpc.c ****                 for(i = 0u; i < size; i++)
 323              		.loc 1 204 0
 324 008a 0023     		movs	r3, #0
 325 008c FB72     		strb	r3, [r7, #11]
 326 008e 08E0     		b	.L21
 327              	.L22:
 205:.\Generated_Source\PSoC5/CySpc.c ****                 {
 206:.\Generated_Source\PSoC5/CySpc.c ****                     CY_SPC_CPU_DATA_REG = buffer[i];
 328              		.loc 1 206 0 discriminator 3
 329 0090 0F49     		ldr	r1, .L28+4
 330 0092 FB7A     		ldrb	r3, [r7, #11]	@ zero_extendqisi2
 331 0094 3A68     		ldr	r2, [r7]
 332 0096 1344     		add	r3, r3, r2
 333 0098 1B78     		ldrb	r3, [r3]	@ zero_extendqisi2
 334 009a 0B70     		strb	r3, [r1]
 204:.\Generated_Source\PSoC5/CySpc.c ****                 {
 335              		.loc 1 204 0 discriminator 3
 336 009c FB7A     		ldrb	r3, [r7, #11]	@ zero_extendqisi2
 337 009e 0133     		adds	r3, r3, #1
 338 00a0 FB72     		strb	r3, [r7, #11]
 339              	.L21:
 204:.\Generated_Source\PSoC5/CySpc.c ****                 {
 340              		.loc 1 204 0 is_stmt 0 discriminator 1
 341 00a2 FA7A     		ldrb	r2, [r7, #11]	@ zero_extendqisi2
 342 00a4 BB79     		ldrb	r3, [r7, #6]	@ zero_extendqisi2
 343 00a6 9A42     		cmp	r2, r3
 344 00a8 F2D3     		bcc	.L22
 345 00aa 05E0     		b	.L27
 346              	.L20:
 207:.\Generated_Source\PSoC5/CySpc.c ****                 }
 208:.\Generated_Source\PSoC5/CySpc.c ****             }
 209:.\Generated_Source\PSoC5/CySpc.c ****             else
 210:.\Generated_Source\PSoC5/CySpc.c ****             {
 211:.\Generated_Source\PSoC5/CySpc.c ****                 status = CYRET_CANCELED;
 347              		.loc 1 211 0 is_stmt 1
 348 00ac 0923     		movs	r3, #9
 349 00ae FB60     		str	r3, [r7, #12]
 191:.\Generated_Source\PSoC5/CySpc.c ****         {
 350              		.loc 1 191 0
 351 00b0 05E0     		b	.L25
 352              	.L19:
 212:.\Generated_Source\PSoC5/CySpc.c ****             }
ARM GAS  C:\Users\mjphi\AppData\Local\Temp\cczF6LnN.s 			page 11


 213:.\Generated_Source\PSoC5/CySpc.c ****         }
 214:.\Generated_Source\PSoC5/CySpc.c ****         else
 215:.\Generated_Source\PSoC5/CySpc.c ****         {
 216:.\Generated_Source\PSoC5/CySpc.c ****             status = CYRET_LOCKED;
 353              		.loc 1 216 0
 354 00b2 0423     		movs	r3, #4
 355 00b4 FB60     		str	r3, [r7, #12]
 191:.\Generated_Source\PSoC5/CySpc.c ****         {
 356              		.loc 1 191 0
 357 00b6 02E0     		b	.L25
 358              	.L27:
 191:.\Generated_Source\PSoC5/CySpc.c ****         {
 359              		.loc 1 191 0 is_stmt 0 discriminator 2
 360 00b8 01E0     		b	.L25
 361              	.L18:
 217:.\Generated_Source\PSoC5/CySpc.c ****         }
 218:.\Generated_Source\PSoC5/CySpc.c ****     }
 219:.\Generated_Source\PSoC5/CySpc.c ****     else
 220:.\Generated_Source\PSoC5/CySpc.c ****     {
 221:.\Generated_Source\PSoC5/CySpc.c ****         status = CYRET_BAD_PARAM;
 362              		.loc 1 221 0 is_stmt 1
 363 00ba 0123     		movs	r3, #1
 364 00bc FB60     		str	r3, [r7, #12]
 365              	.L25:
 222:.\Generated_Source\PSoC5/CySpc.c ****     }
 223:.\Generated_Source\PSoC5/CySpc.c **** 
 224:.\Generated_Source\PSoC5/CySpc.c ****     return(status);
 366              		.loc 1 224 0
 367 00be FB68     		ldr	r3, [r7, #12]
 225:.\Generated_Source\PSoC5/CySpc.c **** }
 368              		.loc 1 225 0
 369 00c0 1846     		mov	r0, r3
 370 00c2 1437     		adds	r7, r7, #20
 371              		.cfi_def_cfa_offset 4
 372 00c4 BD46     		mov	sp, r7
 373              		.cfi_def_cfa_register 13
 374              		@ sp needed
 375 00c6 5DF8047B 		ldr	r7, [sp], #4
 376              		.cfi_restore 7
 377              		.cfi_def_cfa_offset 0
 378 00ca 7047     		bx	lr
 379              	.L29:
 380              		.align	2
 381              	.L28:
 382 00cc 22470040 		.word	1073760034
 383 00d0 20470040 		.word	1073760032
 384              		.cfi_endproc
 385              	.LFE3:
 386              		.size	CySpcLoadMultiByte, .-CySpcLoadMultiByte
 387              		.section	.text.CySpcLoadRow,"ax",%progbits
 388              		.align	2
 389              		.global	CySpcLoadRow
 390              		.thumb
 391              		.thumb_func
 392              		.type	CySpcLoadRow, %function
 393              	CySpcLoadRow:
 394              	.LFB4:
ARM GAS  C:\Users\mjphi\AppData\Local\Temp\cczF6LnN.s 			page 12


 226:.\Generated_Source\PSoC5/CySpc.c **** 
 227:.\Generated_Source\PSoC5/CySpc.c **** 
 228:.\Generated_Source\PSoC5/CySpc.c **** /*******************************************************************************
 229:.\Generated_Source\PSoC5/CySpc.c **** * Function Name: CySpcLoadRow
 230:.\Generated_Source\PSoC5/CySpc.c **** ********************************************************************************
 231:.\Generated_Source\PSoC5/CySpc.c **** * Summary:
 232:.\Generated_Source\PSoC5/CySpc.c **** *  Loads a row of data into the row latch of a Flash/EEPROM array.
 233:.\Generated_Source\PSoC5/CySpc.c **** *
 234:.\Generated_Source\PSoC5/CySpc.c **** *  The buffer pointer should point to the data that should be written to the
 235:.\Generated_Source\PSoC5/CySpc.c **** *  flash row directly (no data in ECC/flash will be preserved). It is Flash API
 236:.\Generated_Source\PSoC5/CySpc.c **** *  responsibility to prepare data: the preserved data are copied from flash into
 237:.\Generated_Source\PSoC5/CySpc.c **** *  array with the modified data.
 238:.\Generated_Source\PSoC5/CySpc.c **** *
 239:.\Generated_Source\PSoC5/CySpc.c **** * Parameters:
 240:.\Generated_Source\PSoC5/CySpc.c **** *  uint8 array:
 241:.\Generated_Source\PSoC5/CySpc.c **** *   Id of the array.
 242:.\Generated_Source\PSoC5/CySpc.c **** *
 243:.\Generated_Source\PSoC5/CySpc.c **** *  uint8* buffer:
 244:.\Generated_Source\PSoC5/CySpc.c **** *   Data to be loaded to the row latch
 245:.\Generated_Source\PSoC5/CySpc.c **** *
 246:.\Generated_Source\PSoC5/CySpc.c **** *  uint8 size:
 247:.\Generated_Source\PSoC5/CySpc.c **** *   The number of data bytes that the SPC expects to be written. Depends on the
 248:.\Generated_Source\PSoC5/CySpc.c **** *   type of the array and, if the array is Flash, whether ECC is being enabled
 249:.\Generated_Source\PSoC5/CySpc.c **** *   or not. There are following values: flash row latch size with ECC enabled,
 250:.\Generated_Source\PSoC5/CySpc.c **** *   flash row latch size with ECC disabled and EEPROM row latch size.
 251:.\Generated_Source\PSoC5/CySpc.c **** *
 252:.\Generated_Source\PSoC5/CySpc.c **** * Return:
 253:.\Generated_Source\PSoC5/CySpc.c **** *  CYRET_STARTED
 254:.\Generated_Source\PSoC5/CySpc.c **** *  CYRET_CANCELED
 255:.\Generated_Source\PSoC5/CySpc.c **** *  CYRET_LOCKED
 256:.\Generated_Source\PSoC5/CySpc.c **** *
 257:.\Generated_Source\PSoC5/CySpc.c **** *******************************************************************************/
 258:.\Generated_Source\PSoC5/CySpc.c **** cystatus CySpcLoadRow(uint8 array, const uint8 buffer[], uint16 size)
 259:.\Generated_Source\PSoC5/CySpc.c **** {
 395              		.loc 1 259 0
 396              		.cfi_startproc
 397              		@ args = 0, pretend = 0, frame = 16
 398              		@ frame_needed = 1, uses_anonymous_args = 0
 399              		@ link register save eliminated.
 400 0000 80B4     		push	{r7}
 401              		.cfi_def_cfa_offset 4
 402              		.cfi_offset 7, -4
 403 0002 85B0     		sub	sp, sp, #20
 404              		.cfi_def_cfa_offset 24
 405 0004 00AF     		add	r7, sp, #0
 406              		.cfi_def_cfa_register 7
 407 0006 0346     		mov	r3, r0
 408 0008 3960     		str	r1, [r7]
 409 000a FB71     		strb	r3, [r7, #7]
 410 000c 1346     		mov	r3, r2	@ movhi
 411 000e BB80     		strh	r3, [r7, #4]	@ movhi
 260:.\Generated_Source\PSoC5/CySpc.c ****     cystatus status = CYRET_STARTED;
 412              		.loc 1 260 0
 413 0010 0723     		movs	r3, #7
 414 0012 FB60     		str	r3, [r7, #12]
 261:.\Generated_Source\PSoC5/CySpc.c ****     uint16 i;
 262:.\Generated_Source\PSoC5/CySpc.c **** 
ARM GAS  C:\Users\mjphi\AppData\Local\Temp\cczF6LnN.s 			page 13


 263:.\Generated_Source\PSoC5/CySpc.c ****     /* Make sure the SPC is ready to accept command */
 264:.\Generated_Source\PSoC5/CySpc.c ****     if(CY_SPC_IDLE)
 415              		.loc 1 264 0
 416 0014 1B4B     		ldr	r3, .L38
 417 0016 1B78     		ldrb	r3, [r3]
 418 0018 DBB2     		uxtb	r3, r3
 419 001a 03F00203 		and	r3, r3, #2
 420 001e 002B     		cmp	r3, #0
 421 0020 26D0     		beq	.L31
 265:.\Generated_Source\PSoC5/CySpc.c ****     {
 266:.\Generated_Source\PSoC5/CySpc.c ****         CY_SPC_CPU_DATA_REG = CY_SPC_KEY_ONE;
 422              		.loc 1 266 0
 423 0022 194B     		ldr	r3, .L38+4
 424 0024 B622     		movs	r2, #182
 425 0026 1A70     		strb	r2, [r3]
 267:.\Generated_Source\PSoC5/CySpc.c ****         CY_SPC_CPU_DATA_REG = CY_SPC_KEY_TWO(CY_SPC_CMD_LD_ROW);
 426              		.loc 1 267 0
 427 0028 174B     		ldr	r3, .L38+4
 428 002a D522     		movs	r2, #213
 429 002c 1A70     		strb	r2, [r3]
 268:.\Generated_Source\PSoC5/CySpc.c ****         CY_SPC_CPU_DATA_REG = CY_SPC_CMD_LD_ROW;
 430              		.loc 1 268 0
 431 002e 164B     		ldr	r3, .L38+4
 432 0030 0222     		movs	r2, #2
 433 0032 1A70     		strb	r2, [r3]
 269:.\Generated_Source\PSoC5/CySpc.c **** 
 270:.\Generated_Source\PSoC5/CySpc.c ****         /* Make sure the command was accepted */
 271:.\Generated_Source\PSoC5/CySpc.c ****         if(CY_SPC_BUSY)
 434              		.loc 1 271 0
 435 0034 134B     		ldr	r3, .L38
 436 0036 1B78     		ldrb	r3, [r3]
 437 0038 DBB2     		uxtb	r3, r3
 438 003a 03F00203 		and	r3, r3, #2
 439 003e 002B     		cmp	r3, #0
 440 0040 13D1     		bne	.L32
 272:.\Generated_Source\PSoC5/CySpc.c ****         {
 273:.\Generated_Source\PSoC5/CySpc.c ****             CY_SPC_CPU_DATA_REG = array;
 441              		.loc 1 273 0
 442 0042 114A     		ldr	r2, .L38+4
 443 0044 FB79     		ldrb	r3, [r7, #7]
 444 0046 1370     		strb	r3, [r2]
 274:.\Generated_Source\PSoC5/CySpc.c **** 
 275:.\Generated_Source\PSoC5/CySpc.c ****             for(i = 0u; i < size; i++)
 445              		.loc 1 275 0
 446 0048 0023     		movs	r3, #0
 447 004a 7B81     		strh	r3, [r7, #10]	@ movhi
 448 004c 08E0     		b	.L33
 449              	.L34:
 276:.\Generated_Source\PSoC5/CySpc.c ****             {
 277:.\Generated_Source\PSoC5/CySpc.c ****                 CY_SPC_CPU_DATA_REG = buffer[i];
 450              		.loc 1 277 0 discriminator 3
 451 004e 0E49     		ldr	r1, .L38+4
 452 0050 7B89     		ldrh	r3, [r7, #10]
 453 0052 3A68     		ldr	r2, [r7]
 454 0054 1344     		add	r3, r3, r2
 455 0056 1B78     		ldrb	r3, [r3]	@ zero_extendqisi2
 456 0058 0B70     		strb	r3, [r1]
ARM GAS  C:\Users\mjphi\AppData\Local\Temp\cczF6LnN.s 			page 14


 275:.\Generated_Source\PSoC5/CySpc.c ****             {
 457              		.loc 1 275 0 discriminator 3
 458 005a 7B89     		ldrh	r3, [r7, #10]
 459 005c 0133     		adds	r3, r3, #1
 460 005e 7B81     		strh	r3, [r7, #10]	@ movhi
 461              	.L33:
 275:.\Generated_Source\PSoC5/CySpc.c ****             {
 462              		.loc 1 275 0 is_stmt 0 discriminator 1
 463 0060 7A89     		ldrh	r2, [r7, #10]
 464 0062 BB88     		ldrh	r3, [r7, #4]
 465 0064 9A42     		cmp	r2, r3
 466 0066 F2D3     		bcc	.L34
 467 0068 04E0     		b	.L36
 468              	.L32:
 278:.\Generated_Source\PSoC5/CySpc.c ****             }
 279:.\Generated_Source\PSoC5/CySpc.c ****         }
 280:.\Generated_Source\PSoC5/CySpc.c ****         else
 281:.\Generated_Source\PSoC5/CySpc.c ****         {
 282:.\Generated_Source\PSoC5/CySpc.c ****             status = CYRET_CANCELED;
 469              		.loc 1 282 0 is_stmt 1
 470 006a 0923     		movs	r3, #9
 471 006c FB60     		str	r3, [r7, #12]
 472 006e 01E0     		b	.L36
 473              	.L31:
 283:.\Generated_Source\PSoC5/CySpc.c ****         }
 284:.\Generated_Source\PSoC5/CySpc.c ****     }
 285:.\Generated_Source\PSoC5/CySpc.c ****     else
 286:.\Generated_Source\PSoC5/CySpc.c ****     {
 287:.\Generated_Source\PSoC5/CySpc.c ****         status = CYRET_LOCKED;
 474              		.loc 1 287 0
 475 0070 0423     		movs	r3, #4
 476 0072 FB60     		str	r3, [r7, #12]
 477              	.L36:
 288:.\Generated_Source\PSoC5/CySpc.c ****     }
 289:.\Generated_Source\PSoC5/CySpc.c **** 
 290:.\Generated_Source\PSoC5/CySpc.c ****     return(status);
 478              		.loc 1 290 0
 479 0074 FB68     		ldr	r3, [r7, #12]
 291:.\Generated_Source\PSoC5/CySpc.c **** }
 480              		.loc 1 291 0
 481 0076 1846     		mov	r0, r3
 482 0078 1437     		adds	r7, r7, #20
 483              		.cfi_def_cfa_offset 4
 484 007a BD46     		mov	sp, r7
 485              		.cfi_def_cfa_register 13
 486              		@ sp needed
 487 007c 5DF8047B 		ldr	r7, [sp], #4
 488              		.cfi_restore 7
 489              		.cfi_def_cfa_offset 0
 490 0080 7047     		bx	lr
 491              	.L39:
 492 0082 00BF     		.align	2
 493              	.L38:
 494 0084 22470040 		.word	1073760034
 495 0088 20470040 		.word	1073760032
 496              		.cfi_endproc
 497              	.LFE4:
ARM GAS  C:\Users\mjphi\AppData\Local\Temp\cczF6LnN.s 			page 15


 498              		.size	CySpcLoadRow, .-CySpcLoadRow
 499              		.section	.text.CySpcLoadRowFull,"ax",%progbits
 500              		.align	2
 501              		.global	CySpcLoadRowFull
 502              		.thumb
 503              		.thumb_func
 504              		.type	CySpcLoadRowFull, %function
 505              	CySpcLoadRowFull:
 506              	.LFB5:
 292:.\Generated_Source\PSoC5/CySpc.c **** 
 293:.\Generated_Source\PSoC5/CySpc.c **** 
 294:.\Generated_Source\PSoC5/CySpc.c **** /*******************************************************************************
 295:.\Generated_Source\PSoC5/CySpc.c **** * Function Name: CySpcLoadRowFull
 296:.\Generated_Source\PSoC5/CySpc.c **** ********************************************************************************
 297:.\Generated_Source\PSoC5/CySpc.c **** * Summary:
 298:.\Generated_Source\PSoC5/CySpc.c **** *  Loads a row of data into the row latch of a Flash/EEPROM array.
 299:.\Generated_Source\PSoC5/CySpc.c **** *
 300:.\Generated_Source\PSoC5/CySpc.c **** *  The only data that are going to be changed should be passed. The function
 301:.\Generated_Source\PSoC5/CySpc.c **** *  will handle unmodified data preservation based on DWR settings and input
 302:.\Generated_Source\PSoC5/CySpc.c **** *  parameters.
 303:.\Generated_Source\PSoC5/CySpc.c **** *
 304:.\Generated_Source\PSoC5/CySpc.c **** * Parameters:
 305:.\Generated_Source\PSoC5/CySpc.c **** *  uint8 array:
 306:.\Generated_Source\PSoC5/CySpc.c **** *   Id of the array.
 307:.\Generated_Source\PSoC5/CySpc.c **** *
 308:.\Generated_Source\PSoC5/CySpc.c **** *  uint16 row:
 309:.\Generated_Source\PSoC5/CySpc.c **** *   Flash row number to be loaded.
 310:.\Generated_Source\PSoC5/CySpc.c **** *
 311:.\Generated_Source\PSoC5/CySpc.c **** *  uint8* buffer:
 312:.\Generated_Source\PSoC5/CySpc.c **** *   Data to be loaded to the row latch
 313:.\Generated_Source\PSoC5/CySpc.c **** *
 314:.\Generated_Source\PSoC5/CySpc.c **** *  uint8 size:
 315:.\Generated_Source\PSoC5/CySpc.c **** *   The number of data bytes that the SPC expects to be written. Depends on the
 316:.\Generated_Source\PSoC5/CySpc.c **** *   type of the array and, if the array is Flash, whether ECC is being enabled
 317:.\Generated_Source\PSoC5/CySpc.c **** *   or not. There are following values: flash row latch size with ECC enabled,
 318:.\Generated_Source\PSoC5/CySpc.c **** *   flash row latch size with ECC disabled and EEPROM row latch size.
 319:.\Generated_Source\PSoC5/CySpc.c **** *
 320:.\Generated_Source\PSoC5/CySpc.c **** * Return:
 321:.\Generated_Source\PSoC5/CySpc.c **** *  CYRET_STARTED
 322:.\Generated_Source\PSoC5/CySpc.c **** *  CYRET_CANCELED
 323:.\Generated_Source\PSoC5/CySpc.c **** *  CYRET_LOCKED
 324:.\Generated_Source\PSoC5/CySpc.c **** *
 325:.\Generated_Source\PSoC5/CySpc.c **** *******************************************************************************/
 326:.\Generated_Source\PSoC5/CySpc.c **** cystatus CySpcLoadRowFull(uint8 array, uint16 row, const uint8 buffer[], uint16 size)\
 327:.\Generated_Source\PSoC5/CySpc.c **** 
 328:.\Generated_Source\PSoC5/CySpc.c **** {
 507              		.loc 1 328 0
 508              		.cfi_startproc
 509              		@ args = 0, pretend = 0, frame = 32
 510              		@ frame_needed = 1, uses_anonymous_args = 0
 511              		@ link register save eliminated.
 512 0000 80B4     		push	{r7}
 513              		.cfi_def_cfa_offset 4
 514              		.cfi_offset 7, -4
 515 0002 89B0     		sub	sp, sp, #36
 516              		.cfi_def_cfa_offset 40
 517 0004 00AF     		add	r7, sp, #0
ARM GAS  C:\Users\mjphi\AppData\Local\Temp\cczF6LnN.s 			page 16


 518              		.cfi_def_cfa_register 7
 519 0006 BA60     		str	r2, [r7, #8]
 520 0008 1A46     		mov	r2, r3
 521 000a 0346     		mov	r3, r0
 522 000c FB73     		strb	r3, [r7, #15]
 523 000e 0B46     		mov	r3, r1	@ movhi
 524 0010 BB81     		strh	r3, [r7, #12]	@ movhi
 525 0012 1346     		mov	r3, r2	@ movhi
 526 0014 FB80     		strh	r3, [r7, #6]	@ movhi
 329:.\Generated_Source\PSoC5/CySpc.c ****     cystatus status = CYRET_STARTED;
 527              		.loc 1 329 0
 528 0016 0723     		movs	r3, #7
 529 0018 FB61     		str	r3, [r7, #28]
 330:.\Generated_Source\PSoC5/CySpc.c ****     uint16 i;
 331:.\Generated_Source\PSoC5/CySpc.c **** 
 332:.\Generated_Source\PSoC5/CySpc.c ****     #if (CYDEV_ECC_ENABLE == 0)
 333:.\Generated_Source\PSoC5/CySpc.c ****         uint32 offset;
 334:.\Generated_Source\PSoC5/CySpc.c ****     #endif /* (CYDEV_ECC_ENABLE == 0) */
 335:.\Generated_Source\PSoC5/CySpc.c **** 
 336:.\Generated_Source\PSoC5/CySpc.c ****     /* Make sure the SPC is ready to accept command */
 337:.\Generated_Source\PSoC5/CySpc.c ****     if(CY_SPC_IDLE)
 530              		.loc 1 337 0
 531 001a 2B4B     		ldr	r3, .L50
 532 001c 1B78     		ldrb	r3, [r3]
 533 001e DBB2     		uxtb	r3, r3
 534 0020 03F00203 		and	r3, r3, #2
 535 0024 002B     		cmp	r3, #0
 536 0026 45D0     		beq	.L41
 338:.\Generated_Source\PSoC5/CySpc.c ****     {
 339:.\Generated_Source\PSoC5/CySpc.c ****         CY_SPC_CPU_DATA_REG = CY_SPC_KEY_ONE;
 537              		.loc 1 339 0
 538 0028 284B     		ldr	r3, .L50+4
 539 002a B622     		movs	r2, #182
 540 002c 1A70     		strb	r2, [r3]
 340:.\Generated_Source\PSoC5/CySpc.c ****         CY_SPC_CPU_DATA_REG = CY_SPC_KEY_TWO(CY_SPC_CMD_LD_ROW);
 541              		.loc 1 340 0
 542 002e 274B     		ldr	r3, .L50+4
 543 0030 D522     		movs	r2, #213
 544 0032 1A70     		strb	r2, [r3]
 341:.\Generated_Source\PSoC5/CySpc.c ****         CY_SPC_CPU_DATA_REG = CY_SPC_CMD_LD_ROW;
 545              		.loc 1 341 0
 546 0034 254B     		ldr	r3, .L50+4
 547 0036 0222     		movs	r2, #2
 548 0038 1A70     		strb	r2, [r3]
 342:.\Generated_Source\PSoC5/CySpc.c **** 
 343:.\Generated_Source\PSoC5/CySpc.c ****         /* Make sure the command was accepted */
 344:.\Generated_Source\PSoC5/CySpc.c ****         if(CY_SPC_BUSY)
 549              		.loc 1 344 0
 550 003a 234B     		ldr	r3, .L50
 551 003c 1B78     		ldrb	r3, [r3]
 552 003e DBB2     		uxtb	r3, r3
 553 0040 03F00203 		and	r3, r3, #2
 554 0044 002B     		cmp	r3, #0
 555 0046 32D1     		bne	.L42
 345:.\Generated_Source\PSoC5/CySpc.c ****         {
 346:.\Generated_Source\PSoC5/CySpc.c ****             CY_SPC_CPU_DATA_REG = array;
 556              		.loc 1 346 0
ARM GAS  C:\Users\mjphi\AppData\Local\Temp\cczF6LnN.s 			page 17


 557 0048 204A     		ldr	r2, .L50+4
 558 004a FB7B     		ldrb	r3, [r7, #15]
 559 004c 1370     		strb	r3, [r2]
 347:.\Generated_Source\PSoC5/CySpc.c **** 
 348:.\Generated_Source\PSoC5/CySpc.c ****             /*******************************************************************
 349:.\Generated_Source\PSoC5/CySpc.c ****             * If "Enable Error Correcting Code (ECC)" and "Store Configuration
 350:.\Generated_Source\PSoC5/CySpc.c ****             * Data in ECC" DWR options are disabled, ECC section is available
 351:.\Generated_Source\PSoC5/CySpc.c ****             * for user data.
 352:.\Generated_Source\PSoC5/CySpc.c ****             *******************************************************************/
 353:.\Generated_Source\PSoC5/CySpc.c ****             #if ((CYDEV_ECC_ENABLE == 0u) && (CYDEV_CONFIGURATION_ECC == 0u))
 354:.\Generated_Source\PSoC5/CySpc.c **** 
 355:.\Generated_Source\PSoC5/CySpc.c ****                 /*******************************************************************
 356:.\Generated_Source\PSoC5/CySpc.c ****                 * If size parameter equals size of the ECC row and selected array
 357:.\Generated_Source\PSoC5/CySpc.c ****                 * identification corresponds to the flash array (but not to EEPROM
 358:.\Generated_Source\PSoC5/CySpc.c ****                 * array) then data are going to be written to the ECC section.
 359:.\Generated_Source\PSoC5/CySpc.c ****                 * In this case flash data must be preserved. The flash data copied
 360:.\Generated_Source\PSoC5/CySpc.c ****                 * from flash data section to the SPC data register.
 361:.\Generated_Source\PSoC5/CySpc.c ****                 *******************************************************************/
 362:.\Generated_Source\PSoC5/CySpc.c ****                 if ((size == CYDEV_ECC_ROW_SIZE) && (array <= CY_SPC_LAST_FLASH_ARRAYID))
 363:.\Generated_Source\PSoC5/CySpc.c ****                 {
 364:.\Generated_Source\PSoC5/CySpc.c ****                     offset = CYDEV_FLS_BASE +
 365:.\Generated_Source\PSoC5/CySpc.c ****                              ((uint32) array * CYDEV_FLS_SECTOR_SIZE) +
 366:.\Generated_Source\PSoC5/CySpc.c ****                              ((uint32)   row * CYDEV_FLS_ROW_SIZE   );
 367:.\Generated_Source\PSoC5/CySpc.c **** 
 368:.\Generated_Source\PSoC5/CySpc.c ****                     for (i = 0u; i < CYDEV_FLS_ROW_SIZE; i++)
 369:.\Generated_Source\PSoC5/CySpc.c ****                     {
 370:.\Generated_Source\PSoC5/CySpc.c ****                         CY_SPC_CPU_DATA_REG = CY_GET_XTND_REG8((void CYFAR *)(offset + i));
 371:.\Generated_Source\PSoC5/CySpc.c ****                     }
 372:.\Generated_Source\PSoC5/CySpc.c ****                 }
 373:.\Generated_Source\PSoC5/CySpc.c **** 
 374:.\Generated_Source\PSoC5/CySpc.c ****             #endif /* ((CYDEV_ECC_ENABLE == 0u) && (CYDEV_CONFIGURATION_ECC == 0u)) */
 375:.\Generated_Source\PSoC5/CySpc.c **** 
 376:.\Generated_Source\PSoC5/CySpc.c **** 
 377:.\Generated_Source\PSoC5/CySpc.c ****             for(i = 0u; i < size; i++)
 560              		.loc 1 377 0
 561 004e 0023     		movs	r3, #0
 562 0050 7B83     		strh	r3, [r7, #26]	@ movhi
 563 0052 08E0     		b	.L43
 564              	.L44:
 378:.\Generated_Source\PSoC5/CySpc.c ****             {
 379:.\Generated_Source\PSoC5/CySpc.c ****                 CY_SPC_CPU_DATA_REG = buffer[i];
 565              		.loc 1 379 0 discriminator 3
 566 0054 1D49     		ldr	r1, .L50+4
 567 0056 7B8B     		ldrh	r3, [r7, #26]
 568 0058 BA68     		ldr	r2, [r7, #8]
 569 005a 1344     		add	r3, r3, r2
 570 005c 1B78     		ldrb	r3, [r3]	@ zero_extendqisi2
 571 005e 0B70     		strb	r3, [r1]
 377:.\Generated_Source\PSoC5/CySpc.c ****             {
 572              		.loc 1 377 0 discriminator 3
 573 0060 7B8B     		ldrh	r3, [r7, #26]
 574 0062 0133     		adds	r3, r3, #1
 575 0064 7B83     		strh	r3, [r7, #26]	@ movhi
 576              	.L43:
 377:.\Generated_Source\PSoC5/CySpc.c ****             {
 577              		.loc 1 377 0 is_stmt 0 discriminator 1
 578 0066 7A8B     		ldrh	r2, [r7, #26]
ARM GAS  C:\Users\mjphi\AppData\Local\Temp\cczF6LnN.s 			page 18


 579 0068 FB88     		ldrh	r3, [r7, #6]
 580 006a 9A42     		cmp	r2, r3
 581 006c F2D3     		bcc	.L44
 380:.\Generated_Source\PSoC5/CySpc.c ****             }
 381:.\Generated_Source\PSoC5/CySpc.c **** 
 382:.\Generated_Source\PSoC5/CySpc.c **** 
 383:.\Generated_Source\PSoC5/CySpc.c ****             /*******************************************************************
 384:.\Generated_Source\PSoC5/CySpc.c ****             * If "Enable Error Correcting Code (ECC)" DWR option is disabled,
 385:.\Generated_Source\PSoC5/CySpc.c ****             * ECC section can be used for storing device configuration data
 386:.\Generated_Source\PSoC5/CySpc.c ****             * ("Store Configuration Data in ECC" DWR option is enabled) or for
 387:.\Generated_Source\PSoC5/CySpc.c ****             * storing user data in the ECC section ("Store Configuration Data in
 388:.\Generated_Source\PSoC5/CySpc.c ****             * ECC" DWR option is enabled). In both cases, the data in the ECC
 389:.\Generated_Source\PSoC5/CySpc.c ****             * section must be preserved if flash data is written.
 390:.\Generated_Source\PSoC5/CySpc.c ****             *******************************************************************/
 391:.\Generated_Source\PSoC5/CySpc.c ****             #if (CYDEV_ECC_ENABLE == 0)
 392:.\Generated_Source\PSoC5/CySpc.c **** 
 393:.\Generated_Source\PSoC5/CySpc.c **** 
 394:.\Generated_Source\PSoC5/CySpc.c ****                 /*******************************************************************
 395:.\Generated_Source\PSoC5/CySpc.c ****                 * If size parameter equals size of the flash row and selected array
 396:.\Generated_Source\PSoC5/CySpc.c ****                 * identification corresponds to the flash array (but not to EEPROM
 397:.\Generated_Source\PSoC5/CySpc.c ****                 * array) then data are going to be written to the flash data
 398:.\Generated_Source\PSoC5/CySpc.c ****                 * section. In this case, ECC section data must be preserved.
 399:.\Generated_Source\PSoC5/CySpc.c ****                 * The ECC section data copied from ECC section to the SPC data
 400:.\Generated_Source\PSoC5/CySpc.c ****                 * register.
 401:.\Generated_Source\PSoC5/CySpc.c ****                 *******************************************************************/
 402:.\Generated_Source\PSoC5/CySpc.c ****                 if ((size == CYDEV_FLS_ROW_SIZE) && (array <= CY_SPC_LAST_FLASH_ARRAYID))
 582              		.loc 1 402 0 is_stmt 1
 583 006e FB88     		ldrh	r3, [r7, #6]
 584 0070 B3F5807F 		cmp	r3, #256
 585 0074 20D1     		bne	.L48
 586              		.loc 1 402 0 is_stmt 0 discriminator 1
 587 0076 FB7B     		ldrb	r3, [r7, #15]	@ zero_extendqisi2
 588 0078 3F2B     		cmp	r3, #63
 589 007a 1DD8     		bhi	.L48
 403:.\Generated_Source\PSoC5/CySpc.c ****                 {
 404:.\Generated_Source\PSoC5/CySpc.c ****                     offset = CYDEV_ECC_BASE +
 405:.\Generated_Source\PSoC5/CySpc.c ****                             ((uint32) array * CYDEV_ECC_SECTOR_SIZE) +
 590              		.loc 1 405 0 is_stmt 1
 591 007c FB7B     		ldrb	r3, [r7, #15]	@ zero_extendqisi2
 592 007e 03F51033 		add	r3, r3, #147456
 593 0082 1A02     		lsls	r2, r3, #8
 406:.\Generated_Source\PSoC5/CySpc.c ****                             ((uint32) row   * CYDEV_ECC_ROW_SIZE   );
 594              		.loc 1 406 0
 595 0084 BB89     		ldrh	r3, [r7, #12]
 405:.\Generated_Source\PSoC5/CySpc.c ****                             ((uint32) row   * CYDEV_ECC_ROW_SIZE   );
 596              		.loc 1 405 0
 597 0086 1344     		add	r3, r3, r2
 404:.\Generated_Source\PSoC5/CySpc.c ****                             ((uint32) array * CYDEV_ECC_SECTOR_SIZE) +
 598              		.loc 1 404 0
 599 0088 5B01     		lsls	r3, r3, #5
 600 008a 7B61     		str	r3, [r7, #20]
 407:.\Generated_Source\PSoC5/CySpc.c **** 
 408:.\Generated_Source\PSoC5/CySpc.c ****                     for (i = 0u; i < CYDEV_ECC_ROW_SIZE; i++)
 601              		.loc 1 408 0
 602 008c 0023     		movs	r3, #0
 603 008e 7B83     		strh	r3, [r7, #26]	@ movhi
 604 0090 09E0     		b	.L46
ARM GAS  C:\Users\mjphi\AppData\Local\Temp\cczF6LnN.s 			page 19


 605              	.L47:
 409:.\Generated_Source\PSoC5/CySpc.c ****                     {
 410:.\Generated_Source\PSoC5/CySpc.c ****                         CY_SPC_CPU_DATA_REG = CY_GET_XTND_REG8((void CYFAR *)(offset + i));
 606              		.loc 1 410 0 discriminator 3
 607 0092 0E49     		ldr	r1, .L50+4
 608 0094 7A8B     		ldrh	r2, [r7, #26]
 609 0096 7B69     		ldr	r3, [r7, #20]
 610 0098 1344     		add	r3, r3, r2
 611 009a 1B78     		ldrb	r3, [r3]
 612 009c DBB2     		uxtb	r3, r3
 613 009e 0B70     		strb	r3, [r1]
 408:.\Generated_Source\PSoC5/CySpc.c ****                     {
 614              		.loc 1 408 0 discriminator 3
 615 00a0 7B8B     		ldrh	r3, [r7, #26]
 616 00a2 0133     		adds	r3, r3, #1
 617 00a4 7B83     		strh	r3, [r7, #26]	@ movhi
 618              	.L46:
 408:.\Generated_Source\PSoC5/CySpc.c ****                     {
 619              		.loc 1 408 0 is_stmt 0 discriminator 1
 620 00a6 7B8B     		ldrh	r3, [r7, #26]
 621 00a8 1F2B     		cmp	r3, #31
 622 00aa F2D9     		bls	.L47
 623 00ac 04E0     		b	.L48
 624              	.L42:
 411:.\Generated_Source\PSoC5/CySpc.c ****                     }
 412:.\Generated_Source\PSoC5/CySpc.c ****                 }
 413:.\Generated_Source\PSoC5/CySpc.c **** 
 414:.\Generated_Source\PSoC5/CySpc.c ****             #else
 415:.\Generated_Source\PSoC5/CySpc.c **** 
 416:.\Generated_Source\PSoC5/CySpc.c ****                 if(0u != row)
 417:.\Generated_Source\PSoC5/CySpc.c ****                 {
 418:.\Generated_Source\PSoC5/CySpc.c ****                     /* To remove unreferenced local variable warning */
 419:.\Generated_Source\PSoC5/CySpc.c ****                 }
 420:.\Generated_Source\PSoC5/CySpc.c **** 
 421:.\Generated_Source\PSoC5/CySpc.c ****             #endif /* (CYDEV_ECC_ENABLE == 0) */
 422:.\Generated_Source\PSoC5/CySpc.c ****         }
 423:.\Generated_Source\PSoC5/CySpc.c ****         else
 424:.\Generated_Source\PSoC5/CySpc.c ****         {
 425:.\Generated_Source\PSoC5/CySpc.c ****             status = CYRET_CANCELED;
 625              		.loc 1 425 0 is_stmt 1
 626 00ae 0923     		movs	r3, #9
 627 00b0 FB61     		str	r3, [r7, #28]
 628 00b2 01E0     		b	.L48
 629              	.L41:
 426:.\Generated_Source\PSoC5/CySpc.c ****         }
 427:.\Generated_Source\PSoC5/CySpc.c ****     }
 428:.\Generated_Source\PSoC5/CySpc.c ****     else
 429:.\Generated_Source\PSoC5/CySpc.c ****     {
 430:.\Generated_Source\PSoC5/CySpc.c ****         status = CYRET_LOCKED;
 630              		.loc 1 430 0
 631 00b4 0423     		movs	r3, #4
 632 00b6 FB61     		str	r3, [r7, #28]
 633              	.L48:
 431:.\Generated_Source\PSoC5/CySpc.c ****     }
 432:.\Generated_Source\PSoC5/CySpc.c **** 
 433:.\Generated_Source\PSoC5/CySpc.c ****     return(status);
 634              		.loc 1 433 0
ARM GAS  C:\Users\mjphi\AppData\Local\Temp\cczF6LnN.s 			page 20


 635 00b8 FB69     		ldr	r3, [r7, #28]
 434:.\Generated_Source\PSoC5/CySpc.c **** }
 636              		.loc 1 434 0
 637 00ba 1846     		mov	r0, r3
 638 00bc 2437     		adds	r7, r7, #36
 639              		.cfi_def_cfa_offset 4
 640 00be BD46     		mov	sp, r7
 641              		.cfi_def_cfa_register 13
 642              		@ sp needed
 643 00c0 5DF8047B 		ldr	r7, [sp], #4
 644              		.cfi_restore 7
 645              		.cfi_def_cfa_offset 0
 646 00c4 7047     		bx	lr
 647              	.L51:
 648 00c6 00BF     		.align	2
 649              	.L50:
 650 00c8 22470040 		.word	1073760034
 651 00cc 20470040 		.word	1073760032
 652              		.cfi_endproc
 653              	.LFE5:
 654              		.size	CySpcLoadRowFull, .-CySpcLoadRowFull
 655              		.section	.text.CySpcWriteRow,"ax",%progbits
 656              		.align	2
 657              		.global	CySpcWriteRow
 658              		.thumb
 659              		.thumb_func
 660              		.type	CySpcWriteRow, %function
 661              	CySpcWriteRow:
 662              	.LFB6:
 435:.\Generated_Source\PSoC5/CySpc.c **** 
 436:.\Generated_Source\PSoC5/CySpc.c **** 
 437:.\Generated_Source\PSoC5/CySpc.c **** /*******************************************************************************
 438:.\Generated_Source\PSoC5/CySpc.c **** * Function Name: CySpcWriteRow
 439:.\Generated_Source\PSoC5/CySpc.c **** ********************************************************************************
 440:.\Generated_Source\PSoC5/CySpc.c **** * Summary:
 441:.\Generated_Source\PSoC5/CySpc.c **** *  Erases then programs a row in Flash/EEPROM with data in row latch.
 442:.\Generated_Source\PSoC5/CySpc.c **** *
 443:.\Generated_Source\PSoC5/CySpc.c **** * Parameters:
 444:.\Generated_Source\PSoC5/CySpc.c **** *  uint8 array:
 445:.\Generated_Source\PSoC5/CySpc.c **** *   Id of the array.
 446:.\Generated_Source\PSoC5/CySpc.c **** *
 447:.\Generated_Source\PSoC5/CySpc.c **** *  uint16 address:
 448:.\Generated_Source\PSoC5/CySpc.c **** *   flash/eeprom addrress
 449:.\Generated_Source\PSoC5/CySpc.c **** *
 450:.\Generated_Source\PSoC5/CySpc.c **** *  uint8 tempPolarity:
 451:.\Generated_Source\PSoC5/CySpc.c **** *   temperature polarity.
 452:.\Generated_Source\PSoC5/CySpc.c **** *   1: the Temp Magnitude is interpreted as a positive value
 453:.\Generated_Source\PSoC5/CySpc.c **** *   0: the Temp Magnitude is interpreted as a negative value
 454:.\Generated_Source\PSoC5/CySpc.c **** *
 455:.\Generated_Source\PSoC5/CySpc.c **** *  uint8 tempMagnitude:
 456:.\Generated_Source\PSoC5/CySpc.c **** *   temperature magnitude.
 457:.\Generated_Source\PSoC5/CySpc.c **** *
 458:.\Generated_Source\PSoC5/CySpc.c **** * Return:
 459:.\Generated_Source\PSoC5/CySpc.c **** *  CYRET_STARTED
 460:.\Generated_Source\PSoC5/CySpc.c **** *  CYRET_CANCELED
 461:.\Generated_Source\PSoC5/CySpc.c **** *  CYRET_LOCKED
 462:.\Generated_Source\PSoC5/CySpc.c **** *
ARM GAS  C:\Users\mjphi\AppData\Local\Temp\cczF6LnN.s 			page 21


 463:.\Generated_Source\PSoC5/CySpc.c **** *******************************************************************************/
 464:.\Generated_Source\PSoC5/CySpc.c **** cystatus CySpcWriteRow(uint8 array, uint16 address, uint8 tempPolarity, uint8 tempMagnitude)\
 465:.\Generated_Source\PSoC5/CySpc.c **** 
 466:.\Generated_Source\PSoC5/CySpc.c **** {
 663              		.loc 1 466 0
 664              		.cfi_startproc
 665              		@ args = 0, pretend = 0, frame = 16
 666              		@ frame_needed = 1, uses_anonymous_args = 0
 667              		@ link register save eliminated.
 668 0000 90B4     		push	{r4, r7}
 669              		.cfi_def_cfa_offset 8
 670              		.cfi_offset 4, -8
 671              		.cfi_offset 7, -4
 672 0002 84B0     		sub	sp, sp, #16
 673              		.cfi_def_cfa_offset 24
 674 0004 00AF     		add	r7, sp, #0
 675              		.cfi_def_cfa_register 7
 676 0006 0446     		mov	r4, r0
 677 0008 0846     		mov	r0, r1
 678 000a 1146     		mov	r1, r2
 679 000c 1A46     		mov	r2, r3
 680 000e 2346     		mov	r3, r4
 681 0010 FB71     		strb	r3, [r7, #7]
 682 0012 0346     		mov	r3, r0	@ movhi
 683 0014 BB80     		strh	r3, [r7, #4]	@ movhi
 684 0016 0B46     		mov	r3, r1
 685 0018 BB71     		strb	r3, [r7, #6]
 686 001a 1346     		mov	r3, r2
 687 001c FB70     		strb	r3, [r7, #3]
 467:.\Generated_Source\PSoC5/CySpc.c ****     cystatus status = CYRET_STARTED;
 688              		.loc 1 467 0
 689 001e 0723     		movs	r3, #7
 690 0020 FB60     		str	r3, [r7, #12]
 468:.\Generated_Source\PSoC5/CySpc.c **** 
 469:.\Generated_Source\PSoC5/CySpc.c ****     /* Make sure the SPC is ready to accept command */
 470:.\Generated_Source\PSoC5/CySpc.c ****     if(CY_SPC_IDLE)
 691              		.loc 1 470 0
 692 0022 1B4B     		ldr	r3, .L58
 693 0024 1B78     		ldrb	r3, [r3]
 694 0026 DBB2     		uxtb	r3, r3
 695 0028 03F00203 		and	r3, r3, #2
 696 002c 002B     		cmp	r3, #0
 697 002e 26D0     		beq	.L53
 471:.\Generated_Source\PSoC5/CySpc.c ****     {
 472:.\Generated_Source\PSoC5/CySpc.c ****         CY_SPC_CPU_DATA_REG = CY_SPC_KEY_ONE;
 698              		.loc 1 472 0
 699 0030 184B     		ldr	r3, .L58+4
 700 0032 B622     		movs	r2, #182
 701 0034 1A70     		strb	r2, [r3]
 473:.\Generated_Source\PSoC5/CySpc.c ****         CY_SPC_CPU_DATA_REG = CY_SPC_KEY_TWO(CY_SPC_CMD_WR_ROW);
 702              		.loc 1 473 0
 703 0036 174B     		ldr	r3, .L58+4
 704 0038 D822     		movs	r2, #216
 705 003a 1A70     		strb	r2, [r3]
 474:.\Generated_Source\PSoC5/CySpc.c ****         CY_SPC_CPU_DATA_REG = CY_SPC_CMD_WR_ROW;
 706              		.loc 1 474 0
 707 003c 154B     		ldr	r3, .L58+4
ARM GAS  C:\Users\mjphi\AppData\Local\Temp\cczF6LnN.s 			page 22


 708 003e 0522     		movs	r2, #5
 709 0040 1A70     		strb	r2, [r3]
 475:.\Generated_Source\PSoC5/CySpc.c **** 
 476:.\Generated_Source\PSoC5/CySpc.c ****         /* Make sure the command was accepted */
 477:.\Generated_Source\PSoC5/CySpc.c ****         if(CY_SPC_BUSY)
 710              		.loc 1 477 0
 711 0042 134B     		ldr	r3, .L58
 712 0044 1B78     		ldrb	r3, [r3]
 713 0046 DBB2     		uxtb	r3, r3
 714 0048 03F00203 		and	r3, r3, #2
 715 004c 002B     		cmp	r3, #0
 716 004e 13D1     		bne	.L54
 478:.\Generated_Source\PSoC5/CySpc.c ****         {
 479:.\Generated_Source\PSoC5/CySpc.c ****             CY_SPC_CPU_DATA_REG = array;
 717              		.loc 1 479 0
 718 0050 104A     		ldr	r2, .L58+4
 719 0052 FB79     		ldrb	r3, [r7, #7]
 720 0054 1370     		strb	r3, [r2]
 480:.\Generated_Source\PSoC5/CySpc.c ****             CY_SPC_CPU_DATA_REG = HI8(address);
 721              		.loc 1 480 0
 722 0056 0F4A     		ldr	r2, .L58+4
 723 0058 BB88     		ldrh	r3, [r7, #4]
 724 005a 1B0A     		lsrs	r3, r3, #8
 725 005c 9BB2     		uxth	r3, r3
 726 005e DBB2     		uxtb	r3, r3
 727 0060 1370     		strb	r3, [r2]
 481:.\Generated_Source\PSoC5/CySpc.c ****             CY_SPC_CPU_DATA_REG = LO8(address);
 728              		.loc 1 481 0
 729 0062 0C4B     		ldr	r3, .L58+4
 730 0064 BA88     		ldrh	r2, [r7, #4]	@ movhi
 731 0066 D2B2     		uxtb	r2, r2
 732 0068 1A70     		strb	r2, [r3]
 482:.\Generated_Source\PSoC5/CySpc.c ****             CY_SPC_CPU_DATA_REG = tempPolarity;
 733              		.loc 1 482 0
 734 006a 0A4A     		ldr	r2, .L58+4
 735 006c BB79     		ldrb	r3, [r7, #6]
 736 006e 1370     		strb	r3, [r2]
 483:.\Generated_Source\PSoC5/CySpc.c ****             CY_SPC_CPU_DATA_REG = tempMagnitude;
 737              		.loc 1 483 0
 738 0070 084A     		ldr	r2, .L58+4
 739 0072 FB78     		ldrb	r3, [r7, #3]
 740 0074 1370     		strb	r3, [r2]
 741 0076 04E0     		b	.L56
 742              	.L54:
 484:.\Generated_Source\PSoC5/CySpc.c ****         }
 485:.\Generated_Source\PSoC5/CySpc.c ****         else
 486:.\Generated_Source\PSoC5/CySpc.c ****         {
 487:.\Generated_Source\PSoC5/CySpc.c ****             status = CYRET_CANCELED;
 743              		.loc 1 487 0
 744 0078 0923     		movs	r3, #9
 745 007a FB60     		str	r3, [r7, #12]
 746 007c 01E0     		b	.L56
 747              	.L53:
 488:.\Generated_Source\PSoC5/CySpc.c ****         }
 489:.\Generated_Source\PSoC5/CySpc.c ****     }
 490:.\Generated_Source\PSoC5/CySpc.c ****     else
 491:.\Generated_Source\PSoC5/CySpc.c ****     {
ARM GAS  C:\Users\mjphi\AppData\Local\Temp\cczF6LnN.s 			page 23


 492:.\Generated_Source\PSoC5/CySpc.c ****         status = CYRET_LOCKED;
 748              		.loc 1 492 0
 749 007e 0423     		movs	r3, #4
 750 0080 FB60     		str	r3, [r7, #12]
 751              	.L56:
 493:.\Generated_Source\PSoC5/CySpc.c ****     }
 494:.\Generated_Source\PSoC5/CySpc.c **** 
 495:.\Generated_Source\PSoC5/CySpc.c ****     return(status);
 752              		.loc 1 495 0
 753 0082 FB68     		ldr	r3, [r7, #12]
 496:.\Generated_Source\PSoC5/CySpc.c **** }
 754              		.loc 1 496 0
 755 0084 1846     		mov	r0, r3
 756 0086 1037     		adds	r7, r7, #16
 757              		.cfi_def_cfa_offset 8
 758 0088 BD46     		mov	sp, r7
 759              		.cfi_def_cfa_register 13
 760              		@ sp needed
 761 008a 90BC     		pop	{r4, r7}
 762              		.cfi_restore 7
 763              		.cfi_restore 4
 764              		.cfi_def_cfa_offset 0
 765 008c 7047     		bx	lr
 766              	.L59:
 767 008e 00BF     		.align	2
 768              	.L58:
 769 0090 22470040 		.word	1073760034
 770 0094 20470040 		.word	1073760032
 771              		.cfi_endproc
 772              	.LFE6:
 773              		.size	CySpcWriteRow, .-CySpcWriteRow
 774              		.section	.text.CySpcEraseSector,"ax",%progbits
 775              		.align	2
 776              		.global	CySpcEraseSector
 777              		.thumb
 778              		.thumb_func
 779              		.type	CySpcEraseSector, %function
 780              	CySpcEraseSector:
 781              	.LFB7:
 497:.\Generated_Source\PSoC5/CySpc.c **** 
 498:.\Generated_Source\PSoC5/CySpc.c **** 
 499:.\Generated_Source\PSoC5/CySpc.c **** /*******************************************************************************
 500:.\Generated_Source\PSoC5/CySpc.c **** * Function Name: CySpcEraseSector
 501:.\Generated_Source\PSoC5/CySpc.c **** ********************************************************************************
 502:.\Generated_Source\PSoC5/CySpc.c **** * Summary:
 503:.\Generated_Source\PSoC5/CySpc.c **** *  Erases all data in the addressed sector (block of 64 rows).
 504:.\Generated_Source\PSoC5/CySpc.c **** *
 505:.\Generated_Source\PSoC5/CySpc.c **** * Parameters:
 506:.\Generated_Source\PSoC5/CySpc.c **** *  uint8 array:
 507:.\Generated_Source\PSoC5/CySpc.c **** *   Id of the array.
 508:.\Generated_Source\PSoC5/CySpc.c **** *
 509:.\Generated_Source\PSoC5/CySpc.c **** *  uint8 sectorNumber:
 510:.\Generated_Source\PSoC5/CySpc.c **** *   Zero based sector number within Flash/EEPROM array
 511:.\Generated_Source\PSoC5/CySpc.c **** *
 512:.\Generated_Source\PSoC5/CySpc.c **** * Return:
 513:.\Generated_Source\PSoC5/CySpc.c **** *  CYRET_STARTED
 514:.\Generated_Source\PSoC5/CySpc.c **** *  CYRET_CANCELED
ARM GAS  C:\Users\mjphi\AppData\Local\Temp\cczF6LnN.s 			page 24


 515:.\Generated_Source\PSoC5/CySpc.c **** *  CYRET_LOCKED
 516:.\Generated_Source\PSoC5/CySpc.c **** *
 517:.\Generated_Source\PSoC5/CySpc.c **** *******************************************************************************/
 518:.\Generated_Source\PSoC5/CySpc.c **** cystatus CySpcEraseSector(uint8 array, uint8 sectorNumber)
 519:.\Generated_Source\PSoC5/CySpc.c **** {
 782              		.loc 1 519 0
 783              		.cfi_startproc
 784              		@ args = 0, pretend = 0, frame = 16
 785              		@ frame_needed = 1, uses_anonymous_args = 0
 786              		@ link register save eliminated.
 787 0000 80B4     		push	{r7}
 788              		.cfi_def_cfa_offset 4
 789              		.cfi_offset 7, -4
 790 0002 85B0     		sub	sp, sp, #20
 791              		.cfi_def_cfa_offset 24
 792 0004 00AF     		add	r7, sp, #0
 793              		.cfi_def_cfa_register 7
 794 0006 0346     		mov	r3, r0
 795 0008 0A46     		mov	r2, r1
 796 000a FB71     		strb	r3, [r7, #7]
 797 000c 1346     		mov	r3, r2
 798 000e BB71     		strb	r3, [r7, #6]
 520:.\Generated_Source\PSoC5/CySpc.c ****     cystatus status = CYRET_STARTED;
 799              		.loc 1 520 0
 800 0010 0723     		movs	r3, #7
 801 0012 FB60     		str	r3, [r7, #12]
 521:.\Generated_Source\PSoC5/CySpc.c **** 
 522:.\Generated_Source\PSoC5/CySpc.c ****     /* Make sure the SPC is ready to accept command */
 523:.\Generated_Source\PSoC5/CySpc.c ****     if(CY_SPC_IDLE)
 802              		.loc 1 523 0
 803 0014 144B     		ldr	r3, .L66
 804 0016 1B78     		ldrb	r3, [r3]
 805 0018 DBB2     		uxtb	r3, r3
 806 001a 03F00203 		and	r3, r3, #2
 807 001e 002B     		cmp	r3, #0
 808 0020 19D0     		beq	.L61
 524:.\Generated_Source\PSoC5/CySpc.c ****     {
 525:.\Generated_Source\PSoC5/CySpc.c ****         CY_SPC_CPU_DATA_REG = CY_SPC_KEY_ONE;
 809              		.loc 1 525 0
 810 0022 124B     		ldr	r3, .L66+4
 811 0024 B622     		movs	r2, #182
 812 0026 1A70     		strb	r2, [r3]
 526:.\Generated_Source\PSoC5/CySpc.c ****         CY_SPC_CPU_DATA_REG = CY_SPC_KEY_TWO(CY_SPC_CMD_ER_SECTOR);
 813              		.loc 1 526 0
 814 0028 104B     		ldr	r3, .L66+4
 815 002a DB22     		movs	r2, #219
 816 002c 1A70     		strb	r2, [r3]
 527:.\Generated_Source\PSoC5/CySpc.c ****         CY_SPC_CPU_DATA_REG = CY_SPC_CMD_ER_SECTOR;
 817              		.loc 1 527 0
 818 002e 0F4B     		ldr	r3, .L66+4
 819 0030 0822     		movs	r2, #8
 820 0032 1A70     		strb	r2, [r3]
 528:.\Generated_Source\PSoC5/CySpc.c **** 
 529:.\Generated_Source\PSoC5/CySpc.c ****         /* Make sure the command was accepted */
 530:.\Generated_Source\PSoC5/CySpc.c ****         if(CY_SPC_BUSY)
 821              		.loc 1 530 0
 822 0034 0C4B     		ldr	r3, .L66
ARM GAS  C:\Users\mjphi\AppData\Local\Temp\cczF6LnN.s 			page 25


 823 0036 1B78     		ldrb	r3, [r3]
 824 0038 DBB2     		uxtb	r3, r3
 825 003a 03F00203 		and	r3, r3, #2
 826 003e 002B     		cmp	r3, #0
 827 0040 06D1     		bne	.L62
 531:.\Generated_Source\PSoC5/CySpc.c ****         {
 532:.\Generated_Source\PSoC5/CySpc.c ****             CY_SPC_CPU_DATA_REG = array;
 828              		.loc 1 532 0
 829 0042 0A4A     		ldr	r2, .L66+4
 830 0044 FB79     		ldrb	r3, [r7, #7]
 831 0046 1370     		strb	r3, [r2]
 533:.\Generated_Source\PSoC5/CySpc.c ****             CY_SPC_CPU_DATA_REG = sectorNumber;
 832              		.loc 1 533 0
 833 0048 084A     		ldr	r2, .L66+4
 834 004a BB79     		ldrb	r3, [r7, #6]
 835 004c 1370     		strb	r3, [r2]
 836 004e 04E0     		b	.L64
 837              	.L62:
 534:.\Generated_Source\PSoC5/CySpc.c ****         }
 535:.\Generated_Source\PSoC5/CySpc.c ****         else
 536:.\Generated_Source\PSoC5/CySpc.c ****         {
 537:.\Generated_Source\PSoC5/CySpc.c ****             status = CYRET_CANCELED;
 838              		.loc 1 537 0
 839 0050 0923     		movs	r3, #9
 840 0052 FB60     		str	r3, [r7, #12]
 841 0054 01E0     		b	.L64
 842              	.L61:
 538:.\Generated_Source\PSoC5/CySpc.c ****         }
 539:.\Generated_Source\PSoC5/CySpc.c ****     }
 540:.\Generated_Source\PSoC5/CySpc.c ****     else
 541:.\Generated_Source\PSoC5/CySpc.c ****     {
 542:.\Generated_Source\PSoC5/CySpc.c ****         status = CYRET_LOCKED;
 843              		.loc 1 542 0
 844 0056 0423     		movs	r3, #4
 845 0058 FB60     		str	r3, [r7, #12]
 846              	.L64:
 543:.\Generated_Source\PSoC5/CySpc.c ****     }
 544:.\Generated_Source\PSoC5/CySpc.c **** 
 545:.\Generated_Source\PSoC5/CySpc.c ****     return(status);
 847              		.loc 1 545 0
 848 005a FB68     		ldr	r3, [r7, #12]
 546:.\Generated_Source\PSoC5/CySpc.c **** }
 849              		.loc 1 546 0
 850 005c 1846     		mov	r0, r3
 851 005e 1437     		adds	r7, r7, #20
 852              		.cfi_def_cfa_offset 4
 853 0060 BD46     		mov	sp, r7
 854              		.cfi_def_cfa_register 13
 855              		@ sp needed
 856 0062 5DF8047B 		ldr	r7, [sp], #4
 857              		.cfi_restore 7
 858              		.cfi_def_cfa_offset 0
 859 0066 7047     		bx	lr
 860              	.L67:
 861              		.align	2
 862              	.L66:
 863 0068 22470040 		.word	1073760034
ARM GAS  C:\Users\mjphi\AppData\Local\Temp\cczF6LnN.s 			page 26


 864 006c 20470040 		.word	1073760032
 865              		.cfi_endproc
 866              	.LFE7:
 867              		.size	CySpcEraseSector, .-CySpcEraseSector
 868              		.section	.text.CySpcGetTemp,"ax",%progbits
 869              		.align	2
 870              		.global	CySpcGetTemp
 871              		.thumb
 872              		.thumb_func
 873              		.type	CySpcGetTemp, %function
 874              	CySpcGetTemp:
 875              	.LFB8:
 547:.\Generated_Source\PSoC5/CySpc.c **** 
 548:.\Generated_Source\PSoC5/CySpc.c **** 
 549:.\Generated_Source\PSoC5/CySpc.c **** /*******************************************************************************
 550:.\Generated_Source\PSoC5/CySpc.c **** * Function Name: CySpcGetTemp
 551:.\Generated_Source\PSoC5/CySpc.c **** ********************************************************************************
 552:.\Generated_Source\PSoC5/CySpc.c **** * Summary:
 553:.\Generated_Source\PSoC5/CySpc.c **** *  Returns the internal die temperature
 554:.\Generated_Source\PSoC5/CySpc.c **** *
 555:.\Generated_Source\PSoC5/CySpc.c **** * Parameters:
 556:.\Generated_Source\PSoC5/CySpc.c **** *  uint8 numSamples:
 557:.\Generated_Source\PSoC5/CySpc.c **** *   Number of samples. Valid values are 1-5, resulting in 2 - 32 samples
 558:.\Generated_Source\PSoC5/CySpc.c **** *   respectively.
 559:.\Generated_Source\PSoC5/CySpc.c **** *
 560:.\Generated_Source\PSoC5/CySpc.c **** * uint16 timerPeriod:
 561:.\Generated_Source\PSoC5/CySpc.c **** *   Number of ADC ACLK cycles. A valid 14 bit value is accepted, higher 2 bits
 562:.\Generated_Source\PSoC5/CySpc.c **** *   of 16 bit values are ignored.
 563:.\Generated_Source\PSoC5/CySpc.c **** *
 564:.\Generated_Source\PSoC5/CySpc.c **** * uint8 clkDivSelect:
 565:.\Generated_Source\PSoC5/CySpc.c **** *   ADC ACLK clock divide value. Valid values are 2 - 225.
 566:.\Generated_Source\PSoC5/CySpc.c **** *
 567:.\Generated_Source\PSoC5/CySpc.c **** * Return:
 568:.\Generated_Source\PSoC5/CySpc.c **** *  CYRET_STARTED
 569:.\Generated_Source\PSoC5/CySpc.c **** *  CYRET_CANCELED
 570:.\Generated_Source\PSoC5/CySpc.c **** *  CYRET_LOCKED
 571:.\Generated_Source\PSoC5/CySpc.c **** *
 572:.\Generated_Source\PSoC5/CySpc.c **** *******************************************************************************/
 573:.\Generated_Source\PSoC5/CySpc.c **** cystatus CySpcGetTemp(uint8 numSamples)
 574:.\Generated_Source\PSoC5/CySpc.c **** {
 876              		.loc 1 574 0
 877              		.cfi_startproc
 878              		@ args = 0, pretend = 0, frame = 16
 879              		@ frame_needed = 1, uses_anonymous_args = 0
 880              		@ link register save eliminated.
 881 0000 80B4     		push	{r7}
 882              		.cfi_def_cfa_offset 4
 883              		.cfi_offset 7, -4
 884 0002 85B0     		sub	sp, sp, #20
 885              		.cfi_def_cfa_offset 24
 886 0004 00AF     		add	r7, sp, #0
 887              		.cfi_def_cfa_register 7
 888 0006 0346     		mov	r3, r0
 889 0008 FB71     		strb	r3, [r7, #7]
 575:.\Generated_Source\PSoC5/CySpc.c ****     cystatus status = CYRET_STARTED;
 890              		.loc 1 575 0
 891 000a 0723     		movs	r3, #7
ARM GAS  C:\Users\mjphi\AppData\Local\Temp\cczF6LnN.s 			page 27


 892 000c FB60     		str	r3, [r7, #12]
 576:.\Generated_Source\PSoC5/CySpc.c **** 
 577:.\Generated_Source\PSoC5/CySpc.c ****     /* Make sure the SPC is ready to accept command */
 578:.\Generated_Source\PSoC5/CySpc.c ****     if(CY_SPC_IDLE)
 893              		.loc 1 578 0
 894 000e 134B     		ldr	r3, .L74
 895 0010 1B78     		ldrb	r3, [r3]
 896 0012 DBB2     		uxtb	r3, r3
 897 0014 03F00203 		and	r3, r3, #2
 898 0018 002B     		cmp	r3, #0
 899 001a 16D0     		beq	.L69
 579:.\Generated_Source\PSoC5/CySpc.c ****     {
 580:.\Generated_Source\PSoC5/CySpc.c ****         CY_SPC_CPU_DATA_REG = CY_SPC_KEY_ONE;
 900              		.loc 1 580 0
 901 001c 104B     		ldr	r3, .L74+4
 902 001e B622     		movs	r2, #182
 903 0020 1A70     		strb	r2, [r3]
 581:.\Generated_Source\PSoC5/CySpc.c ****         CY_SPC_CPU_DATA_REG = CY_SPC_KEY_TWO(CY_SPC_CMD_GET_TEMP);
 904              		.loc 1 581 0
 905 0022 0F4B     		ldr	r3, .L74+4
 906 0024 E122     		movs	r2, #225
 907 0026 1A70     		strb	r2, [r3]
 582:.\Generated_Source\PSoC5/CySpc.c ****         CY_SPC_CPU_DATA_REG = CY_SPC_CMD_GET_TEMP;
 908              		.loc 1 582 0
 909 0028 0D4B     		ldr	r3, .L74+4
 910 002a 0E22     		movs	r2, #14
 911 002c 1A70     		strb	r2, [r3]
 583:.\Generated_Source\PSoC5/CySpc.c **** 
 584:.\Generated_Source\PSoC5/CySpc.c ****         /* Make sure the command was accepted */
 585:.\Generated_Source\PSoC5/CySpc.c ****         if(CY_SPC_BUSY)
 912              		.loc 1 585 0
 913 002e 0B4B     		ldr	r3, .L74
 914 0030 1B78     		ldrb	r3, [r3]
 915 0032 DBB2     		uxtb	r3, r3
 916 0034 03F00203 		and	r3, r3, #2
 917 0038 002B     		cmp	r3, #0
 918 003a 03D1     		bne	.L70
 586:.\Generated_Source\PSoC5/CySpc.c ****         {
 587:.\Generated_Source\PSoC5/CySpc.c ****             CY_SPC_CPU_DATA_REG = numSamples;
 919              		.loc 1 587 0
 920 003c 084A     		ldr	r2, .L74+4
 921 003e FB79     		ldrb	r3, [r7, #7]
 922 0040 1370     		strb	r3, [r2]
 923 0042 04E0     		b	.L72
 924              	.L70:
 588:.\Generated_Source\PSoC5/CySpc.c ****         }
 589:.\Generated_Source\PSoC5/CySpc.c ****         else
 590:.\Generated_Source\PSoC5/CySpc.c ****         {
 591:.\Generated_Source\PSoC5/CySpc.c ****             status = CYRET_CANCELED;
 925              		.loc 1 591 0
 926 0044 0923     		movs	r3, #9
 927 0046 FB60     		str	r3, [r7, #12]
 928 0048 01E0     		b	.L72
 929              	.L69:
 592:.\Generated_Source\PSoC5/CySpc.c ****         }
 593:.\Generated_Source\PSoC5/CySpc.c ****     }
 594:.\Generated_Source\PSoC5/CySpc.c ****     else
ARM GAS  C:\Users\mjphi\AppData\Local\Temp\cczF6LnN.s 			page 28


 595:.\Generated_Source\PSoC5/CySpc.c ****     {
 596:.\Generated_Source\PSoC5/CySpc.c ****         status = CYRET_LOCKED;
 930              		.loc 1 596 0
 931 004a 0423     		movs	r3, #4
 932 004c FB60     		str	r3, [r7, #12]
 933              	.L72:
 597:.\Generated_Source\PSoC5/CySpc.c ****     }
 598:.\Generated_Source\PSoC5/CySpc.c **** 
 599:.\Generated_Source\PSoC5/CySpc.c ****     return(status);
 934              		.loc 1 599 0
 935 004e FB68     		ldr	r3, [r7, #12]
 600:.\Generated_Source\PSoC5/CySpc.c **** }
 936              		.loc 1 600 0
 937 0050 1846     		mov	r0, r3
 938 0052 1437     		adds	r7, r7, #20
 939              		.cfi_def_cfa_offset 4
 940 0054 BD46     		mov	sp, r7
 941              		.cfi_def_cfa_register 13
 942              		@ sp needed
 943 0056 5DF8047B 		ldr	r7, [sp], #4
 944              		.cfi_restore 7
 945              		.cfi_def_cfa_offset 0
 946 005a 7047     		bx	lr
 947              	.L75:
 948              		.align	2
 949              	.L74:
 950 005c 22470040 		.word	1073760034
 951 0060 20470040 		.word	1073760032
 952              		.cfi_endproc
 953              	.LFE8:
 954              		.size	CySpcGetTemp, .-CySpcGetTemp
 955              		.section	.text.CySpcLock,"ax",%progbits
 956              		.align	2
 957              		.global	CySpcLock
 958              		.thumb
 959              		.thumb_func
 960              		.type	CySpcLock, %function
 961              	CySpcLock:
 962              	.LFB9:
 601:.\Generated_Source\PSoC5/CySpc.c **** 
 602:.\Generated_Source\PSoC5/CySpc.c **** 
 603:.\Generated_Source\PSoC5/CySpc.c **** /*******************************************************************************
 604:.\Generated_Source\PSoC5/CySpc.c **** * Function Name: CySpcLock
 605:.\Generated_Source\PSoC5/CySpc.c **** ********************************************************************************
 606:.\Generated_Source\PSoC5/CySpc.c **** * Summary:
 607:.\Generated_Source\PSoC5/CySpc.c **** *  Locks the SPC so it can not be used by someone else:
 608:.\Generated_Source\PSoC5/CySpc.c **** *   - Saves wait-pipeline enable state and enable pipeline (PSoC5)
 609:.\Generated_Source\PSoC5/CySpc.c **** *
 610:.\Generated_Source\PSoC5/CySpc.c **** * Parameters:
 611:.\Generated_Source\PSoC5/CySpc.c **** *  Note
 612:.\Generated_Source\PSoC5/CySpc.c **** *
 613:.\Generated_Source\PSoC5/CySpc.c **** * Return:
 614:.\Generated_Source\PSoC5/CySpc.c **** *  CYRET_SUCCESS - if the resource was free.
 615:.\Generated_Source\PSoC5/CySpc.c **** *  CYRET_LOCKED  - if the SPC is in use.
 616:.\Generated_Source\PSoC5/CySpc.c **** *
 617:.\Generated_Source\PSoC5/CySpc.c **** *******************************************************************************/
 618:.\Generated_Source\PSoC5/CySpc.c **** cystatus CySpcLock(void)
ARM GAS  C:\Users\mjphi\AppData\Local\Temp\cczF6LnN.s 			page 29


 619:.\Generated_Source\PSoC5/CySpc.c **** {
 963              		.loc 1 619 0
 964              		.cfi_startproc
 965              		@ args = 0, pretend = 0, frame = 8
 966              		@ frame_needed = 1, uses_anonymous_args = 0
 967 0000 80B5     		push	{r7, lr}
 968              		.cfi_def_cfa_offset 8
 969              		.cfi_offset 7, -8
 970              		.cfi_offset 14, -4
 971 0002 82B0     		sub	sp, sp, #8
 972              		.cfi_def_cfa_offset 16
 973 0004 00AF     		add	r7, sp, #0
 974              		.cfi_def_cfa_register 7
 620:.\Generated_Source\PSoC5/CySpc.c ****     cystatus status = CYRET_LOCKED;
 975              		.loc 1 620 0
 976 0006 0423     		movs	r3, #4
 977 0008 7B60     		str	r3, [r7, #4]
 621:.\Generated_Source\PSoC5/CySpc.c ****     uint8 interruptState;
 622:.\Generated_Source\PSoC5/CySpc.c **** 
 623:.\Generated_Source\PSoC5/CySpc.c ****     /* Enter critical section */
 624:.\Generated_Source\PSoC5/CySpc.c ****     interruptState = CyEnterCriticalSection();
 978              		.loc 1 624 0
 979 000a FFF7FEFF 		bl	CyEnterCriticalSection
 980 000e 0346     		mov	r3, r0
 981 0010 FB70     		strb	r3, [r7, #3]
 625:.\Generated_Source\PSoC5/CySpc.c **** 
 626:.\Generated_Source\PSoC5/CySpc.c ****     if(CY_SPC_UNLOCKED == SpcLockState)
 982              		.loc 1 626 0
 983 0012 124B     		ldr	r3, .L79
 984 0014 1B78     		ldrb	r3, [r3]	@ zero_extendqisi2
 985 0016 002B     		cmp	r3, #0
 986 0018 16D1     		bne	.L77
 627:.\Generated_Source\PSoC5/CySpc.c ****     {
 628:.\Generated_Source\PSoC5/CySpc.c ****         SpcLockState = CY_SPC_LOCKED;
 987              		.loc 1 628 0
 988 001a 104B     		ldr	r3, .L79
 989 001c 0122     		movs	r2, #1
 990 001e 1A70     		strb	r2, [r3]
 629:.\Generated_Source\PSoC5/CySpc.c ****         status = CYRET_SUCCESS;
 991              		.loc 1 629 0
 992 0020 0023     		movs	r3, #0
 993 0022 7B60     		str	r3, [r7, #4]
 630:.\Generated_Source\PSoC5/CySpc.c **** 
 631:.\Generated_Source\PSoC5/CySpc.c ****         #if(CY_PSOC5)
 632:.\Generated_Source\PSoC5/CySpc.c **** 
 633:.\Generated_Source\PSoC5/CySpc.c ****             if(0u != (CY_SPC_CPU_WAITPIPE_REG & CY_SPC_CPU_WAITPIPE_BYPASS))
 994              		.loc 1 633 0
 995 0024 0E4B     		ldr	r3, .L79+4
 996 0026 1B68     		ldr	r3, [r3]
 997 0028 03F00103 		and	r3, r3, #1
 998 002c 002B     		cmp	r3, #0
 999 002e 0BD0     		beq	.L77
 634:.\Generated_Source\PSoC5/CySpc.c ****             {
 635:.\Generated_Source\PSoC5/CySpc.c ****                 /* Enable pipeline registers */
 636:.\Generated_Source\PSoC5/CySpc.c ****                 CY_SPC_CPU_WAITPIPE_REG &= ((uint32)(~CY_SPC_CPU_WAITPIPE_BYPASS));
 1000              		.loc 1 636 0
 1001 0030 0B4A     		ldr	r2, .L79+4
ARM GAS  C:\Users\mjphi\AppData\Local\Temp\cczF6LnN.s 			page 30


 1002 0032 0B4B     		ldr	r3, .L79+4
 1003 0034 1B68     		ldr	r3, [r3]
 1004 0036 23F00103 		bic	r3, r3, #1
 1005 003a 1360     		str	r3, [r2]
 637:.\Generated_Source\PSoC5/CySpc.c **** 
 638:.\Generated_Source\PSoC5/CySpc.c ****                 /* At least 2 NOP instructions are recommended */
 639:.\Generated_Source\PSoC5/CySpc.c ****                 CY_NOP;
 1006              		.loc 1 639 0
 1007              	@ 639 ".\Generated_Source\PSoC5\CySpc.c" 1
 1008 003c 00BF     		NOP
 1009              	
 1010              	@ 0 "" 2
 640:.\Generated_Source\PSoC5/CySpc.c ****                 CY_NOP;
 1011              		.loc 1 640 0
 1012              	@ 640 ".\Generated_Source\PSoC5\CySpc.c" 1
 1013 003e 00BF     		NOP
 1014              	
 1015              	@ 0 "" 2
 641:.\Generated_Source\PSoC5/CySpc.c ****                 CY_NOP;
 1016              		.loc 1 641 0
 1017              	@ 641 ".\Generated_Source\PSoC5\CySpc.c" 1
 1018 0040 00BF     		NOP
 1019              	
 1020              	@ 0 "" 2
 642:.\Generated_Source\PSoC5/CySpc.c **** 
 643:.\Generated_Source\PSoC5/CySpc.c ****                 spcWaitPipeBypass = CY_SPC_CPU_WAITPIPE_BYPASS;
 1021              		.loc 1 643 0
 1022              		.thumb
 1023 0042 084B     		ldr	r3, .L79+8
 1024 0044 0122     		movs	r2, #1
 1025 0046 1A60     		str	r2, [r3]
 1026              	.L77:
 644:.\Generated_Source\PSoC5/CySpc.c ****             }
 645:.\Generated_Source\PSoC5/CySpc.c **** 
 646:.\Generated_Source\PSoC5/CySpc.c ****         #endif  /* (CY_PSOC5) */
 647:.\Generated_Source\PSoC5/CySpc.c ****     }
 648:.\Generated_Source\PSoC5/CySpc.c **** 
 649:.\Generated_Source\PSoC5/CySpc.c ****     /* Exit critical section */
 650:.\Generated_Source\PSoC5/CySpc.c ****     CyExitCriticalSection(interruptState);
 1027              		.loc 1 650 0
 1028 0048 FB78     		ldrb	r3, [r7, #3]	@ zero_extendqisi2
 1029 004a 1846     		mov	r0, r3
 1030 004c FFF7FEFF 		bl	CyExitCriticalSection
 651:.\Generated_Source\PSoC5/CySpc.c **** 
 652:.\Generated_Source\PSoC5/CySpc.c ****     return(status);
 1031              		.loc 1 652 0
 1032 0050 7B68     		ldr	r3, [r7, #4]
 653:.\Generated_Source\PSoC5/CySpc.c **** }
 1033              		.loc 1 653 0
 1034 0052 1846     		mov	r0, r3
 1035 0054 0837     		adds	r7, r7, #8
 1036              		.cfi_def_cfa_offset 8
 1037 0056 BD46     		mov	sp, r7
 1038              		.cfi_def_cfa_register 13
 1039              		@ sp needed
 1040 0058 80BD     		pop	{r7, pc}
 1041              	.L80:
ARM GAS  C:\Users\mjphi\AppData\Local\Temp\cczF6LnN.s 			page 31


 1042 005a 00BF     		.align	2
 1043              	.L79:
 1044 005c 00000000 		.word	SpcLockState
 1045 0060 04000840 		.word	1074266116
 1046 0064 04000000 		.word	spcWaitPipeBypass
 1047              		.cfi_endproc
 1048              	.LFE9:
 1049              		.size	CySpcLock, .-CySpcLock
 1050              		.section	.text.CySpcUnlock,"ax",%progbits
 1051              		.align	2
 1052              		.global	CySpcUnlock
 1053              		.thumb
 1054              		.thumb_func
 1055              		.type	CySpcUnlock, %function
 1056              	CySpcUnlock:
 1057              	.LFB10:
 654:.\Generated_Source\PSoC5/CySpc.c **** 
 655:.\Generated_Source\PSoC5/CySpc.c **** 
 656:.\Generated_Source\PSoC5/CySpc.c **** /*******************************************************************************
 657:.\Generated_Source\PSoC5/CySpc.c **** * Function Name: CySpcUnlock
 658:.\Generated_Source\PSoC5/CySpc.c **** ********************************************************************************
 659:.\Generated_Source\PSoC5/CySpc.c **** * Summary:
 660:.\Generated_Source\PSoC5/CySpc.c **** *  Unlocks the SPC so it can be used by someone else:
 661:.\Generated_Source\PSoC5/CySpc.c **** *   - Restores wait-pipeline enable state (PSoC5)
 662:.\Generated_Source\PSoC5/CySpc.c **** *
 663:.\Generated_Source\PSoC5/CySpc.c **** * Parameters:
 664:.\Generated_Source\PSoC5/CySpc.c **** *  None
 665:.\Generated_Source\PSoC5/CySpc.c **** *
 666:.\Generated_Source\PSoC5/CySpc.c **** * Return:
 667:.\Generated_Source\PSoC5/CySpc.c **** *  None
 668:.\Generated_Source\PSoC5/CySpc.c **** *
 669:.\Generated_Source\PSoC5/CySpc.c **** *******************************************************************************/
 670:.\Generated_Source\PSoC5/CySpc.c **** void CySpcUnlock(void)
 671:.\Generated_Source\PSoC5/CySpc.c **** {
 1058              		.loc 1 671 0
 1059              		.cfi_startproc
 1060              		@ args = 0, pretend = 0, frame = 8
 1061              		@ frame_needed = 1, uses_anonymous_args = 0
 1062 0000 80B5     		push	{r7, lr}
 1063              		.cfi_def_cfa_offset 8
 1064              		.cfi_offset 7, -8
 1065              		.cfi_offset 14, -4
 1066 0002 82B0     		sub	sp, sp, #8
 1067              		.cfi_def_cfa_offset 16
 1068 0004 00AF     		add	r7, sp, #0
 1069              		.cfi_def_cfa_register 7
 672:.\Generated_Source\PSoC5/CySpc.c ****     uint8 interruptState;
 673:.\Generated_Source\PSoC5/CySpc.c **** 
 674:.\Generated_Source\PSoC5/CySpc.c ****     /* Enter critical section */
 675:.\Generated_Source\PSoC5/CySpc.c ****     interruptState = CyEnterCriticalSection();
 1070              		.loc 1 675 0
 1071 0006 FFF7FEFF 		bl	CyEnterCriticalSection
 1072 000a 0346     		mov	r3, r0
 1073 000c FB71     		strb	r3, [r7, #7]
 676:.\Generated_Source\PSoC5/CySpc.c **** 
 677:.\Generated_Source\PSoC5/CySpc.c ****     /* Release the SPC object */
 678:.\Generated_Source\PSoC5/CySpc.c ****     SpcLockState = CY_SPC_UNLOCKED;
ARM GAS  C:\Users\mjphi\AppData\Local\Temp\cczF6LnN.s 			page 32


 1074              		.loc 1 678 0
 1075 000e 0D4B     		ldr	r3, .L83
 1076 0010 0022     		movs	r2, #0
 1077 0012 1A70     		strb	r2, [r3]
 679:.\Generated_Source\PSoC5/CySpc.c **** 
 680:.\Generated_Source\PSoC5/CySpc.c ****     #if(CY_PSOC5)
 681:.\Generated_Source\PSoC5/CySpc.c **** 
 682:.\Generated_Source\PSoC5/CySpc.c ****         if(CY_SPC_CPU_WAITPIPE_BYPASS == spcWaitPipeBypass)
 1078              		.loc 1 682 0
 1079 0014 0C4B     		ldr	r3, .L83+4
 1080 0016 1B68     		ldr	r3, [r3]
 1081 0018 012B     		cmp	r3, #1
 1082 001a 0BD1     		bne	.L82
 683:.\Generated_Source\PSoC5/CySpc.c ****         {
 684:.\Generated_Source\PSoC5/CySpc.c ****             /* Force to bypass pipeline registers */
 685:.\Generated_Source\PSoC5/CySpc.c ****             CY_SPC_CPU_WAITPIPE_REG |= CY_SPC_CPU_WAITPIPE_BYPASS;
 1083              		.loc 1 685 0
 1084 001c 0B4A     		ldr	r2, .L83+8
 1085 001e 0B4B     		ldr	r3, .L83+8
 1086 0020 1B68     		ldr	r3, [r3]
 1087 0022 43F00103 		orr	r3, r3, #1
 1088 0026 1360     		str	r3, [r2]
 686:.\Generated_Source\PSoC5/CySpc.c **** 
 687:.\Generated_Source\PSoC5/CySpc.c ****             /* At least 2 NOP instructions are recommended */
 688:.\Generated_Source\PSoC5/CySpc.c ****             CY_NOP;
 1089              		.loc 1 688 0
 1090              	@ 688 ".\Generated_Source\PSoC5\CySpc.c" 1
 1091 0028 00BF     		NOP
 1092              	
 1093              	@ 0 "" 2
 689:.\Generated_Source\PSoC5/CySpc.c ****             CY_NOP;
 1094              		.loc 1 689 0
 1095              	@ 689 ".\Generated_Source\PSoC5\CySpc.c" 1
 1096 002a 00BF     		NOP
 1097              	
 1098              	@ 0 "" 2
 690:.\Generated_Source\PSoC5/CySpc.c ****             CY_NOP;
 1099              		.loc 1 690 0
 1100              	@ 690 ".\Generated_Source\PSoC5\CySpc.c" 1
 1101 002c 00BF     		NOP
 1102              	
 1103              	@ 0 "" 2
 691:.\Generated_Source\PSoC5/CySpc.c **** 
 692:.\Generated_Source\PSoC5/CySpc.c ****             spcWaitPipeBypass = 0u;
 1104              		.loc 1 692 0
 1105              		.thumb
 1106 002e 064B     		ldr	r3, .L83+4
 1107 0030 0022     		movs	r2, #0
 1108 0032 1A60     		str	r2, [r3]
 1109              	.L82:
 693:.\Generated_Source\PSoC5/CySpc.c ****         }
 694:.\Generated_Source\PSoC5/CySpc.c **** 
 695:.\Generated_Source\PSoC5/CySpc.c ****     #endif  /* (CY_PSOC5) */
 696:.\Generated_Source\PSoC5/CySpc.c **** 
 697:.\Generated_Source\PSoC5/CySpc.c ****     /* Exit critical section */
 698:.\Generated_Source\PSoC5/CySpc.c ****     CyExitCriticalSection(interruptState);
 1110              		.loc 1 698 0
ARM GAS  C:\Users\mjphi\AppData\Local\Temp\cczF6LnN.s 			page 33


 1111 0034 FB79     		ldrb	r3, [r7, #7]	@ zero_extendqisi2
 1112 0036 1846     		mov	r0, r3
 1113 0038 FFF7FEFF 		bl	CyExitCriticalSection
 699:.\Generated_Source\PSoC5/CySpc.c **** }
 1114              		.loc 1 699 0
 1115 003c 0837     		adds	r7, r7, #8
 1116              		.cfi_def_cfa_offset 8
 1117 003e BD46     		mov	sp, r7
 1118              		.cfi_def_cfa_register 13
 1119              		@ sp needed
 1120 0040 80BD     		pop	{r7, pc}
 1121              	.L84:
 1122 0042 00BF     		.align	2
 1123              	.L83:
 1124 0044 00000000 		.word	SpcLockState
 1125 0048 04000000 		.word	spcWaitPipeBypass
 1126 004c 04000840 		.word	1074266116
 1127              		.cfi_endproc
 1128              	.LFE10:
 1129              		.size	CySpcUnlock, .-CySpcUnlock
 1130              		.section	.text.CySpcGetAlgorithm,"ax",%progbits
 1131              		.align	2
 1132              		.global	CySpcGetAlgorithm
 1133              		.thumb
 1134              		.thumb_func
 1135              		.type	CySpcGetAlgorithm, %function
 1136              	CySpcGetAlgorithm:
 1137              	.LFB11:
 700:.\Generated_Source\PSoC5/CySpc.c **** 
 701:.\Generated_Source\PSoC5/CySpc.c **** 
 702:.\Generated_Source\PSoC5/CySpc.c **** /*******************************************************************************
 703:.\Generated_Source\PSoC5/CySpc.c **** * Function Name: CySpcGetAlgorithm
 704:.\Generated_Source\PSoC5/CySpc.c **** ********************************************************************************
 705:.\Generated_Source\PSoC5/CySpc.c **** * Summary:
 706:.\Generated_Source\PSoC5/CySpc.c **** *  Downloads SPC algorithm from SPC SROM into SRAM.
 707:.\Generated_Source\PSoC5/CySpc.c **** *
 708:.\Generated_Source\PSoC5/CySpc.c **** * Parameters:
 709:.\Generated_Source\PSoC5/CySpc.c **** *  None
 710:.\Generated_Source\PSoC5/CySpc.c **** *
 711:.\Generated_Source\PSoC5/CySpc.c **** * Return:
 712:.\Generated_Source\PSoC5/CySpc.c **** *  CYRET_STARTED
 713:.\Generated_Source\PSoC5/CySpc.c **** *  CYRET_LOCKED
 714:.\Generated_Source\PSoC5/CySpc.c **** *
 715:.\Generated_Source\PSoC5/CySpc.c **** *******************************************************************************/
 716:.\Generated_Source\PSoC5/CySpc.c **** cystatus CySpcGetAlgorithm(void)
 717:.\Generated_Source\PSoC5/CySpc.c **** {
 1138              		.loc 1 717 0
 1139              		.cfi_startproc
 1140              		@ args = 0, pretend = 0, frame = 8
 1141              		@ frame_needed = 1, uses_anonymous_args = 0
 1142              		@ link register save eliminated.
 1143 0000 80B4     		push	{r7}
 1144              		.cfi_def_cfa_offset 4
 1145              		.cfi_offset 7, -4
 1146 0002 83B0     		sub	sp, sp, #12
 1147              		.cfi_def_cfa_offset 16
 1148 0004 00AF     		add	r7, sp, #0
ARM GAS  C:\Users\mjphi\AppData\Local\Temp\cczF6LnN.s 			page 34


 1149              		.cfi_def_cfa_register 7
 718:.\Generated_Source\PSoC5/CySpc.c ****     cystatus status = CYRET_STARTED;
 1150              		.loc 1 718 0
 1151 0006 0723     		movs	r3, #7
 1152 0008 7B60     		str	r3, [r7, #4]
 719:.\Generated_Source\PSoC5/CySpc.c **** 
 720:.\Generated_Source\PSoC5/CySpc.c ****     /* Make sure the SPC is ready to accept command */
 721:.\Generated_Source\PSoC5/CySpc.c ****     if(CY_SPC_IDLE)
 1153              		.loc 1 721 0
 1154 000a 0D4B     		ldr	r3, .L89
 1155 000c 1B78     		ldrb	r3, [r3]
 1156 000e DBB2     		uxtb	r3, r3
 1157 0010 03F00203 		and	r3, r3, #2
 1158 0014 002B     		cmp	r3, #0
 1159 0016 09D0     		beq	.L86
 722:.\Generated_Source\PSoC5/CySpc.c ****     {
 723:.\Generated_Source\PSoC5/CySpc.c ****         CY_SPC_CPU_DATA_REG = CY_SPC_KEY_ONE;
 1160              		.loc 1 723 0
 1161 0018 0A4B     		ldr	r3, .L89+4
 1162 001a B622     		movs	r2, #182
 1163 001c 1A70     		strb	r2, [r3]
 724:.\Generated_Source\PSoC5/CySpc.c ****         CY_SPC_CPU_DATA_REG = CY_SPC_KEY_TWO(CY_SPC_CMD_DWNLD_ALGORITHM);
 1164              		.loc 1 724 0
 1165 001e 094B     		ldr	r3, .L89+4
 1166 0020 E022     		movs	r2, #224
 1167 0022 1A70     		strb	r2, [r3]
 725:.\Generated_Source\PSoC5/CySpc.c ****         CY_SPC_CPU_DATA_REG = CY_SPC_CMD_DWNLD_ALGORITHM;
 1168              		.loc 1 725 0
 1169 0024 074B     		ldr	r3, .L89+4
 1170 0026 0D22     		movs	r2, #13
 1171 0028 1A70     		strb	r2, [r3]
 1172 002a 01E0     		b	.L87
 1173              	.L86:
 726:.\Generated_Source\PSoC5/CySpc.c ****     }
 727:.\Generated_Source\PSoC5/CySpc.c ****     else
 728:.\Generated_Source\PSoC5/CySpc.c ****     {
 729:.\Generated_Source\PSoC5/CySpc.c ****         status = CYRET_LOCKED;
 1174              		.loc 1 729 0
 1175 002c 0423     		movs	r3, #4
 1176 002e 7B60     		str	r3, [r7, #4]
 1177              	.L87:
 730:.\Generated_Source\PSoC5/CySpc.c ****     }
 731:.\Generated_Source\PSoC5/CySpc.c **** 
 732:.\Generated_Source\PSoC5/CySpc.c ****     return(status);
 1178              		.loc 1 732 0
 1179 0030 7B68     		ldr	r3, [r7, #4]
 733:.\Generated_Source\PSoC5/CySpc.c **** }
 1180              		.loc 1 733 0
 1181 0032 1846     		mov	r0, r3
 1182 0034 0C37     		adds	r7, r7, #12
 1183              		.cfi_def_cfa_offset 4
 1184 0036 BD46     		mov	sp, r7
 1185              		.cfi_def_cfa_register 13
 1186              		@ sp needed
 1187 0038 5DF8047B 		ldr	r7, [sp], #4
 1188              		.cfi_restore 7
 1189              		.cfi_def_cfa_offset 0
ARM GAS  C:\Users\mjphi\AppData\Local\Temp\cczF6LnN.s 			page 35


 1190 003c 7047     		bx	lr
 1191              	.L90:
 1192 003e 00BF     		.align	2
 1193              	.L89:
 1194 0040 22470040 		.word	1073760034
 1195 0044 20470040 		.word	1073760032
 1196              		.cfi_endproc
 1197              	.LFE11:
 1198              		.size	CySpcGetAlgorithm, .-CySpcGetAlgorithm
 1199              		.text
 1200              	.Letext0:
 1201              		.file 2 ".\\Generated_Source\\PSoC5\\cytypes.h"
