:4000000000800020110000006D0D00006D0D000080B500AF024A034B1B68136000F0AAFEBC760040FA46004010B5054C237833B9044B13B10448AFF300800123237010BD7B
:400040001081FF1F00000000FC110000084B10B51BB108480849AFF300800848036803B910BD074B002BFBD0BDE81040184700BF00000000FC1100001481FF1F0881FF1F17
:400080000000000080B400AFBD465DF8047B704780B400AFBD465DF8047B704780B584B004AF00F015F803230093002301930023029300230393044804494022002300F056
:4000C00033FA00F007FBFEE7010100000012000080B400AF064B074ADA62054B064A9A63034B064ADA63BD465DF8047B704700BF0080FF1F9903000099040000DD040000AA
:4001000080B582B000AF786001F010F80346002B0CBF01230023DBB2184600F0EDFF4FF47A7000F09DFAEFE780B584B000AF78600023FB607B6803F00703002B04D07B68D1
:4001400023F0070308337B6000F0F4FA184B1B68002B05D1174B23F007031A46144B1A60154B1A687B68134441F6F772934213D8114B1A687B681A440F4B1B689A420BD997
:400180000B4B1A680C4B1B681344FB600A4B1A687B681344084A136000F0DAFAFB68002B01D1FFF76FFFFB6818461037BD4680BD30A1FF1F3481FF1F2CA1FF1F80B483B021
:4001C00000AF78600C37BD465DF8047B704700BF80B483B000AF78607B6803F108027B685A607B684FF0FF329A607B6803F108027B68DA607B6803F108027B681A617B680F
:4002000000221A600C37BD465DF8047B704700BF80B483B000AF78607B6800221A610C37BD465DF8047B704780B485B000AF786039607B685B68FB603B68FA685A60FB68A7
:400240009A683B689A60FB689B683A685A60FB683A689A603B687A681A617B681B685A1C7B681A601437BD465DF8047B704700BF80B485B000AF786039603B681B68BB6083
:40028000BB68B3F1FF3F03D17B681B69FB600CE07B680833FB6002E0FB685B68FB60FB685B681A68BB689A42F6D9FB685A683B685A603B685B683A689A603B68FA689A60E2
:4002C000FB683A685A603B687A681A617B681B685A1C7B681A601437BD465DF8047B704780B485B000AF78607B681B69FB607B685B687A6892689A607B689B687A6852687D
:400300005A60FB685A687B689A4203D17B689A68FB685A607B6800221A61FB681B685A1EFB681A60FB681B6818461437BD465DF8047B704780B485B000AFF860B9607A600E
:40034000FB68043BFB60FB684FF080721A60FB68043BFB60BA68FB681A60FB68043BFB60094AFB681A60FB68143BFB607A68FB681A60FB68203BFB60FB6818461437BD4655
:400380005DF8047B704700BF8D03000080B500AF00F074F8FEE700BF074B19680868B0E8F00F80F30988BFF36F8F4FF0000080F311884EF00D0E704734A1FF1F06480068ED
:4003C000006880F3088862B661B6BFF34F8FBFF36F8F00DF00BF000008ED00E080B500AF0B4A0B4B1B6843F460031360084A084B1B6843F06043136000F084F8054B002242
:400400001A60FFF7DBFFFFF7C1FF0023184680BD20ED00E00C81FF1F80B400AF054B4FF080521A60BFF34F8FBFF36F8FBD465DF8047B704704ED00E080B500AF00F01EF81F
:40044000044B1B680133034A1360BFF34F8FBFF36F8F80BD0C81FF1F80B500AF064B1B68013B054A1360044B1B68002B02D1002000F00EF880BD00BF0C81FF1FEFF31180D8
:400480004FF0A00181F3118870470023184600BF80F31188704700BFEFF30980BFF36F8F0D4B1A6820E9F00F10602DE908404FF0A00080F3118800F07BFA4FF0000080F309
:4004C0001188BDE8084019680868B0E8F00F80F30988BFF36F8F704734A1FF1F80B500AFFFF7CCFF00F0B4F90346002B03D0044B4FF080521A600020FFF7CAFF80BD00BF52
:4005000004ED00E080B400AF054B45F6BF521A60044B07221A60BD465DF8047B704700BF14E000E010E000E080B58AB002AFF860B9603B601346FB80FB881846396B00F099
:40054000A9FBB861BB69002B67D0BB691A6BFB8803F18043013B9B0013447B617B6923F007037B61FB880093B869B968BA6A7B6B00F090FA7869F9683A68FFF7DBFE024697
:40058000BB691A60FB6A002B02D0FB6ABA691A60FFF752FF2C4B1B6801332B4A13602B4B1B68002B09D1294ABB691360264B1B68012B0FD100F0C0FA0CE0254B1B68002B20
:4005C00008D1224B1B68DA6ABB6A9A4202D81F4ABB6913601F4B1B6801331E4A1360BB69DB6A1A46012303FA02F21B4B1B681343194A1360BB69DA6A13469B0013449B00D6
:40060000164A1A44BB69043310461946FFF70CFE0123FB61FFF720FF02E04FF0FF33FB61FB69012B0BD10A4B1B68002B07D0074B1B68DA6ABB6A9A4201D2FFF7EDFEFB6930
:4006400018462037BD4680BD0CA2FF1F34A1FF1F18A2FF1F28A2FF1F14A2FF1F38A1FF1F80B584B000AF78600023FB607B68002B21D000F05FF8144B1A687B681344BB6051
:40068000124B1B6804331846FFF72AFE0346002B0BD10E4B1B68DB6A1A4601239340DA430B4B1B6813400A4A1360B86800F0BCFA00F04EF8F860FB68002B01D1FFF7ACFE7B
:4006C0001037BD4680BD00BF10A2FF1F34A1FF1F14A2FF1F80B586B004AF002300930023019300230293002303930D480D4964220023FFF719FF78607B68012B0DD1FFF704
:40070000BDFE094B4FF0FF321A60084B01221A60074B00221A60FFF761FE0837BD4680BD850A0000081200002CA2FF1F18A2FF1F10A2FF1F80B400AF044B1B680133034A9B
:400740001360BD465DF8047B704700BF30A2FF1F80B582B000AF00237B60FFF76DFE344B1B68013B324A1360314B1B68002B57D1304B1B68002B53D030E02F4BDB68DB6879
:400780003B603B6818331846FFF7AAFD3B6804331846FFF7A5FD3B68DB6A1A46012303FA02F2264B1B681343244A13603B68DA6A13469B0013449B00214A1A443B680433ED
:4007C00010461946FFF730FD3B68DA6A1D4B1B68DB6A9A4202D31C4B01221A60164B1B68002BCAD1194B1B68002B11D00CE000F02FF80346002B02D0134B01221A60134B16
:400800001B68013B114A1360104B1B68002BEED10D4B1B68012B03D101237B60FFF7FCFDFFF71AFE7B6818460837BD4680BD00BF30A2FF1F0CA2FF1FCCA1FF1F14A2FF1FF2
:4008400038A1FF1F34A1FF1F20A2FF1F1CA2FF1F80B586B000AF00237B614A4B1B68002B7FD1494B1B680133474A1360464B1B683B613B69002B10D1444B1B68FB60444B7B
:400880001B68424A1360424AFB681360414B1B680133404A136000F045FA3F4B1B683A699A424FD3394B1B681B68002B01D1012300E00023002B04D0374B4FF0FF321A601E
:4008C00040E0324B1B68DB68DB68BB60BB685B687B603A697B689A4203D22F4A7B68136030E0BB6804331846FFF7FAFCBB689B6A002B04D0BB6818331846FFF7F1FCBB68C3
:40090000DB6A1A46012303FA02F2244B1B681343224A1360BB68DA6A13469B0013449B001F4A1A44BB68043310461946FFF77CFCBB68DA6A1B4B1B68DB6A9A4201D30123DC
:400940007B61AFE7174B1B68DA6A154913469B0013449B000B441B68012B07D901237B6104E0114B1B6801330F4A13600F4B1B68002B01D001237B617B6918461837BD468A
:4009800080BD00BF30A2FF1F10A2FF1FC4A1FF1FC8A1FF1F24A2FF1F2CA2FF1F14A2FF1F38A1FF1F34A1FF1F1CA2FF1F20A2FF1F80B584B000AF2D4B1B68002B03D02C4B9F
:4009C00001221A604FE02A4B00221A60294B1B681A68284B1B681B6B9A4208D8254B1A68244B1B68343310461946FFF751FB214B1B681B6B18462049142200F0DBFB0346A6
:400A0000002B08D01B4B1A681A4B1B68343310461946FFF73DFB194B1B687B607B68B3FA83F3FB70FB78C3F11F03FB60FA6813469B0013449B00124A1344BB60BB685B68C6
:400A40005A68BB685A60BB685A68BB6808339A4204D1BB685B685A68BB685A60BB685B68DB68044A13601037BD4680BD30A2FF1F20A2FF1F34A1FF1F1012000014A2FF1F34
:400A800038A1FF1F80B582B000AF786000F092F8FCE700BF80B586B000AFF860B9607A603B6000237B6113E0BA687B6913441978FA687B69134430330A461A71BA687B6974
:400AC00013441B78002B00D105E07B6901337B617B690B2BE8D9FB68002283F83F207B68042B01D904237B60FB687A68DA62FB687A681A64FB6800225A64FB680433184690
:400B0000FFF786FBFB6818331846FFF781FBFB68FA681A617B68C3F10502FB689A61FB68FA685A62FB6800229A64FB68002283F84C201837BD4680BD80B582B000AF00234C
:400B40007B600CE07A6813469B0013449B00114A13441846FFF73CFB7B6801337B607B68042BEFD90C48FFF733FB0C48FFF730FB0B48FFF72DFB0B48FFF72AFB0A48FFF7C9
:400B800027FB0A4B044A1A60094B044A1A600837BD4680BD38A1FF1F9CA1FF1FB0A1FF1FCCA1FF1FE0A1FF1FF8A1FF1FC4A1FF1FC8A1FF1F80B582B000AF28E0FFF7BAFDE4
:400BC000164B1B68002B0CBF01230023DBB27B60FFF7BEFD7B68002B19D1FFF72DFC0F4BDB68DB683B603B6804331846FFF778FB0B4B1B68013B0A4A13600A4B1B68013B98
:400C0000084A1360FFF728FC386800F07BF8054B1B68002BD2D10837BD4680BDE0A1FF1F0CA2FF1FF4A1FF1F80B582B000AF7860134B1B687A685A60124B1B687A689A428B
:400C400009D2114B1A680E4B1B68043310461946FFF70EFB10E00D4B1A68094B1B68043310461946FFF704FB094B1B687A689A4202D2074A7B6813600837BD4680BD00BF24
:400C800034A1FF1F10A2FF1FC8A1FF1FC4A1FF1F2CA2FF1F80B584B000AF03463960FB803B68002B06D1FB889B001846FFF73CFA034600E03B68BB60BB68002B0ED0502036
:400CC000FFF732FAF860FB68002B03D0FB68BA681A6305E0B868FFF771FA01E00023FB60FB68002B08D0FB681A6BFB889B001046A5211A4600F079FAFB6818461037BD46FC
:400D000080BD00BF80B582B000AF78607B681B6B1846FFF753FA7868FFF750FA0837BD4680BD00BF80B483B000AF0E4B1B681B68002B01D1012300E00023002B04D00A4B74
:400D40004FF0FF321A6008E0064B1B68DB68DB687B607B685B68044A13600C37BD465DF8047B7047C4A1FF1F2CA2FF1F80B400AFFEE700BF80B586B000AF224B7B61224B6E
:400D80003B61204B7B6135E03B691B68FB603B695B68BB603B699B683B6000237B600CE0FB681A68BB681A60BB680433BB60FB680433FB607B6804337B607A683B689A42C9
:400DC000EED13B69DB683B6000237B6008E0BB6800221A60BB680433BB607B6804337B607A683B689A42F2D13B6910333B617B69013B7B617B69002BC6D100F0B5F9FFF7C6
:400E00004DF9FEE7010000007812000080B582B000AF174B174A1A60174A174B1B6843F40073136000237B600FE07B68032B04D8124A7B6852F8233000E0114B11497A6818
:400E400041F822307B6801337B607B682F2BECD90D4B1B78DAB20D4B1A700D4B094A1A6000F0CAF80B4B00221A600837BD4680BD0CED00E00004FA0514ED00E00000000095
:400E80006D0D00000080FF1FBC7600400481FF1F08ED00E00081FF1F80B582B000AF78603960786800213A6800F09FF90837BD4680BD00BF80B584B000AFF860B9607A603E
:400EC000F868B9687A6800F085F91037BD4680BD80B483B000AF0346FB71FEE780B582B000AF294B02221A704FF0402308221A70264B03221A70264B264A1278D2B21A70C3
:400F0000254B08221A80254B41F251221A800023FB7019237B6014E0FB785B00DAB2204B1B78DBB203F00103DBB21343DBB203F00303FB704FF4F07000F006F97B68013BD3
:400F40007B607B68002B02D0FB78032BE4D17B68002B02D10320FFF7BBFF124B4FF480721A80104B07221A700F4B00221A700F4B48221A700B4B00221A700D4B02221A7016
:400F80000837BD4680BD00BF0043004000420040A1460040080100492242004020420040254200400440004006400040084000400140004080B483B000AF0B4B1B78FB710A
:400FC0000A4AFB7903F00703DBB21370084AFB791B09DBB21370074B44221A700C37BD465DF8047B704700BFCF0100496E5800406F5800407658004080B582B000AF72B6DE
:40100000324A324B1B78DBB243F00403DBB213700023FB7113E0FA7913465B0013445B002B4A13443B603B681A683B689B889BB210461946FFF730FFFB790133FB71FB79F1
:40104000072BE8D9234A234B1B78DBB243F00203DBB21370204A204B1B78DBB243F00203DBB213701D4A1D4B1B78DBB243F04003DBB213701A4A1A4B1B78DBB243F0100359
:40108000DBB2137017484FF090410822FFF712FF154A154B1B78DBB243F00803DBB21370124B61221A70FFF719FF104B81221A700F4B01221A70FFF77DFF0E4807490E2204
:4010C000FFF7F8FE0837BD4680BD00BFE8460040241200000350014013500140A0430040C243004062510040224300400048004004000840B043004080B485B000AF034682
:40110000FB71094B1B78DBB203F07F03FB730649FB79DB01DAB2FB7B1343DBB20B701437BD465DF8047B70476051004080B400AF044B1B78DBB2DB09DBB21846BD465DF8AA
:40114000047B7047615100400230800803D000BF01380046FCD17047EFF3108072B6704780F31088704700BF0E4B70B51E460E4C0025E41AA410A54204D056F825309847D6
:401180000135F8E700F066F8084B094C1E46E41AA4100025A54204D056F8253098470135F8E770BD6012000060120000601200006812000010B50A44441E914208D014F86E
:4011C000013F0878834201D0181A10BD0131F4E7002010BD10B5431E0A44914204D011F8014B03F8014FF8E710BD03460244934202D003F8011BFAE7704700000000000054
:40120000426C696E6B00000049444C4500000000A5A5A5A5A5A5A5A5A5A5A5A5A5A5A5A5A5A5A5A5005100406000C05100401000F051004010000000014000100014014033
:40124000000800400140000A004C01400002005001402000F8B500BFF8BC08BC9E4670474D0000000D0E0000F8B500BFF8BC08BC9E46704729000000881200000881FF1FCB
:40128000080000002821000000000000AAAAAAAA00000000000000000000000000000000000000000000000000000000000000000000000000000000000000000000000035
:4012C00000000000000000000000000000000000000000000000000000000000000000000000000000000000000000000000000000000000000000000000000000000000EE
:4013000000000000000000000000000000000000000000000000000000000000000000000000000000000000000000000000000000000000000000000000000000000000AD
:40134000000000000000000000000000000000000000000000000000000000000000000000000000000000000000000000000000000000000000000000000000000000006D
:40138000000000000000000000000000000000000000000000000000000000000000000000000000000000000000000000000000000000000000000000000000000000002D
:020000040003F7
:0200000480007A
:4000000000808000000000000000000000000000000000000000000000000000000000000000000000000000000000000000000000000000000000000000000000000000C0
:400040000000000000000000000000000000000000000000000000000000000000000000000000000000000000000000000000000000000000000000000000000000000080
:400080000000000000000000000000000000000000000000000000000000000000000000000000000000000000000000000000000000000000000000000000000000000040
:4000C0000000000000000000000000000000000000000000000000000000000000000000000000000000000000000000000000000000000000000000000000000000000000
:4001000000000000000000000000000000000000000000000000000000000000000000000000000000000000000000000000000000000000000000000000000000000000BF
:0200000490006A
:0400000000004005B7
:0200000490105A
:04000000BC90ACAF55
:0200000490303A
:02000000427448
:0200000490402A
:4000000000000000000000000000000000000000000000000000000000000000000000000000000000000000000000000000000000000000000000000000000000000000C0
:400040000000000000000000000000000000000000000000000000000000000000000000000000000000000000000000000000000000000000000000000000000000000080
:400080000000000000000000000000000000000000000000000000000000000000000000000000000000000000000000000000000000000000000000000000000000000040
:4000C0000000000000000000000000000000000000000000000000000000000000000000000000000000000000000000000000000000000000000000000000000000000000
:0200000490501A
:0C00000000012E16006900012E1D42DDDB
:00000001FF