ARM GAS  C:\Users\mjphi\AppData\Local\Temp\ccvHbxbd.s 			page 1


   1              		.syntax unified
   2              		.cpu cortex-m3
   3              		.fpu softvfp
   4              		.eabi_attribute 20, 1
   5              		.eabi_attribute 21, 1
   6              		.eabi_attribute 23, 3
   7              		.eabi_attribute 24, 1
   8              		.eabi_attribute 25, 1
   9              		.eabi_attribute 26, 1
  10              		.eabi_attribute 30, 6
  11              		.eabi_attribute 34, 1
  12              		.eabi_attribute 18, 4
  13              		.thumb
  14              		.file	"list.c"
  15              		.text
  16              	.Ltext0:
  17              		.cfi_sections	.debug_frame
  18              		.section	.text.vListInitialise,"ax",%progbits
  19              		.align	2
  20              		.global	vListInitialise
  21              		.thumb
  22              		.thumb_func
  23              		.type	vListInitialise, %function
  24              	vListInitialise:
  25              	.LFB64:
  26              		.file 1 ".\\list.c"
   1:.\list.c      **** /*
   2:.\list.c      ****     FreeRTOS V8.2.1 - Copyright (C) 2015 Real Time Engineers Ltd.
   3:.\list.c      ****     All rights reserved
   4:.\list.c      **** 
   5:.\list.c      ****     VISIT http://www.FreeRTOS.org TO ENSURE YOU ARE USING THE LATEST VERSION.
   6:.\list.c      **** 
   7:.\list.c      ****     This file is part of the FreeRTOS distribution.
   8:.\list.c      **** 
   9:.\list.c      ****     FreeRTOS is free software; you can redistribute it and/or modify it under
  10:.\list.c      ****     the terms of the GNU General Public License (version 2) as published by the
  11:.\list.c      ****     Free Software Foundation >>!AND MODIFIED BY!<< the FreeRTOS exception.
  12:.\list.c      **** 
  13:.\list.c      ****     ***************************************************************************
  14:.\list.c      ****     >>!   NOTE: The modification to the GPL is included to allow you to     !<<
  15:.\list.c      ****     >>!   distribute a combined work that includes FreeRTOS without being   !<<
  16:.\list.c      ****     >>!   obliged to provide the source code for proprietary components     !<<
  17:.\list.c      ****     >>!   outside of the FreeRTOS kernel.                                   !<<
  18:.\list.c      ****     ***************************************************************************
  19:.\list.c      **** 
  20:.\list.c      ****     FreeRTOS is distributed in the hope that it will be useful, but WITHOUT ANY
  21:.\list.c      ****     WARRANTY; without even the implied warranty of MERCHANTABILITY or FITNESS
  22:.\list.c      ****     FOR A PARTICULAR PURPOSE.  Full license text is available on the following
  23:.\list.c      ****     link: http://www.freertos.org/a00114.html
  24:.\list.c      **** 
  25:.\list.c      ****     ***************************************************************************
  26:.\list.c      ****      *                                                                       *
  27:.\list.c      ****      *    FreeRTOS provides completely free yet professionally developed,    *
  28:.\list.c      ****      *    robust, strictly quality controlled, supported, and cross          *
  29:.\list.c      ****      *    platform software that is more than just the market leader, it     *
  30:.\list.c      ****      *    is the industry's de facto standard.                               *
  31:.\list.c      ****      *                                                                       *
ARM GAS  C:\Users\mjphi\AppData\Local\Temp\ccvHbxbd.s 			page 2


  32:.\list.c      ****      *    Help yourself get started quickly while simultaneously helping     *
  33:.\list.c      ****      *    to support the FreeRTOS project by purchasing a FreeRTOS           *
  34:.\list.c      ****      *    tutorial book, reference manual, or both:                          *
  35:.\list.c      ****      *    http://www.FreeRTOS.org/Documentation                              *
  36:.\list.c      ****      *                                                                       *
  37:.\list.c      ****     ***************************************************************************
  38:.\list.c      **** 
  39:.\list.c      ****     http://www.FreeRTOS.org/FAQHelp.html - Having a problem?  Start by reading
  40:.\list.c      ****     the FAQ page "My application does not run, what could be wrong?".  Have you
  41:.\list.c      ****     defined configASSERT()?
  42:.\list.c      **** 
  43:.\list.c      ****     http://www.FreeRTOS.org/support - In return for receiving this top quality
  44:.\list.c      ****     embedded software for free we request you assist our global community by
  45:.\list.c      ****     participating in the support forum.
  46:.\list.c      **** 
  47:.\list.c      ****     http://www.FreeRTOS.org/training - Investing in training allows your team to
  48:.\list.c      ****     be as productive as possible as early as possible.  Now you can receive
  49:.\list.c      ****     FreeRTOS training directly from Richard Barry, CEO of Real Time Engineers
  50:.\list.c      ****     Ltd, and the world's leading authority on the world's leading RTOS.
  51:.\list.c      **** 
  52:.\list.c      ****     http://www.FreeRTOS.org/plus - A selection of FreeRTOS ecosystem products,
  53:.\list.c      ****     including FreeRTOS+Trace - an indispensable productivity tool, a DOS
  54:.\list.c      ****     compatible FAT file system, and our tiny thread aware UDP/IP stack.
  55:.\list.c      **** 
  56:.\list.c      ****     http://www.FreeRTOS.org/labs - Where new FreeRTOS products go to incubate.
  57:.\list.c      ****     Come and try FreeRTOS+TCP, our new open source TCP/IP stack for FreeRTOS.
  58:.\list.c      **** 
  59:.\list.c      ****     http://www.OpenRTOS.com - Real Time Engineers ltd. license FreeRTOS to High
  60:.\list.c      ****     Integrity Systems ltd. to sell under the OpenRTOS brand.  Low cost OpenRTOS
  61:.\list.c      ****     licenses offer ticketed support, indemnification and commercial middleware.
  62:.\list.c      **** 
  63:.\list.c      ****     http://www.SafeRTOS.com - High Integrity Systems also provide a safety
  64:.\list.c      ****     engineered and independently SIL3 certified version for use in safety and
  65:.\list.c      ****     mission critical applications that require provable dependability.
  66:.\list.c      **** 
  67:.\list.c      ****     1 tab == 4 spaces!
  68:.\list.c      **** */
  69:.\list.c      **** 
  70:.\list.c      **** 
  71:.\list.c      **** #include <stdlib.h>
  72:.\list.c      **** #include "FreeRTOS.h"
  73:.\list.c      **** #include "list.h"
  74:.\list.c      **** 
  75:.\list.c      **** /*-----------------------------------------------------------
  76:.\list.c      ****  * PUBLIC LIST API documented in list.h
  77:.\list.c      ****  *----------------------------------------------------------*/
  78:.\list.c      **** 
  79:.\list.c      **** void vListInitialise( List_t * const pxList )
  80:.\list.c      **** {
  27              		.loc 1 80 0
  28              		.cfi_startproc
  29              		@ args = 0, pretend = 0, frame = 8
  30              		@ frame_needed = 1, uses_anonymous_args = 0
  31              		@ link register save eliminated.
  32 0000 80B4     		push	{r7}
  33              		.cfi_def_cfa_offset 4
  34              		.cfi_offset 7, -4
ARM GAS  C:\Users\mjphi\AppData\Local\Temp\ccvHbxbd.s 			page 3


  35 0002 83B0     		sub	sp, sp, #12
  36              		.cfi_def_cfa_offset 16
  37 0004 00AF     		add	r7, sp, #0
  38              		.cfi_def_cfa_register 7
  39 0006 7860     		str	r0, [r7, #4]
  81:.\list.c      **** 	/* The list structure contains a list item which is used to mark the
  82:.\list.c      **** 	end of the list.  To initialise the list the list end is inserted
  83:.\list.c      **** 	as the only list entry. */
  84:.\list.c      **** 	pxList->pxIndex = ( ListItem_t * ) &( pxList->xListEnd );			/*lint !e826 !e740 The mini list struc
  40              		.loc 1 84 0
  41 0008 7B68     		ldr	r3, [r7, #4]
  42 000a 03F10802 		add	r2, r3, #8
  43 000e 7B68     		ldr	r3, [r7, #4]
  44 0010 5A60     		str	r2, [r3, #4]
  85:.\list.c      **** 
  86:.\list.c      **** 	/* The list end value is the highest possible value in the list to
  87:.\list.c      **** 	ensure it remains at the end of the list. */
  88:.\list.c      **** 	pxList->xListEnd.xItemValue = portMAX_DELAY;
  45              		.loc 1 88 0
  46 0012 7B68     		ldr	r3, [r7, #4]
  47 0014 4FF0FF32 		mov	r2, #-1
  48 0018 9A60     		str	r2, [r3, #8]
  89:.\list.c      **** 
  90:.\list.c      **** 	/* The list end next and previous pointers point to itself so we know
  91:.\list.c      **** 	when the list is empty. */
  92:.\list.c      **** 	pxList->xListEnd.pxNext = ( ListItem_t * ) &( pxList->xListEnd );	/*lint !e826 !e740 The mini list
  49              		.loc 1 92 0
  50 001a 7B68     		ldr	r3, [r7, #4]
  51 001c 03F10802 		add	r2, r3, #8
  52 0020 7B68     		ldr	r3, [r7, #4]
  53 0022 DA60     		str	r2, [r3, #12]
  93:.\list.c      **** 	pxList->xListEnd.pxPrevious = ( ListItem_t * ) &( pxList->xListEnd );/*lint !e826 !e740 The mini l
  54              		.loc 1 93 0
  55 0024 7B68     		ldr	r3, [r7, #4]
  56 0026 03F10802 		add	r2, r3, #8
  57 002a 7B68     		ldr	r3, [r7, #4]
  58 002c 1A61     		str	r2, [r3, #16]
  94:.\list.c      **** 
  95:.\list.c      **** 	pxList->uxNumberOfItems = ( UBaseType_t ) 0U;
  59              		.loc 1 95 0
  60 002e 7B68     		ldr	r3, [r7, #4]
  61 0030 0022     		movs	r2, #0
  62 0032 1A60     		str	r2, [r3]
  96:.\list.c      **** 
  97:.\list.c      **** 	/* Write known values into the list if
  98:.\list.c      **** 	configUSE_LIST_DATA_INTEGRITY_CHECK_BYTES is set to 1. */
  99:.\list.c      **** 	listSET_LIST_INTEGRITY_CHECK_1_VALUE( pxList );
 100:.\list.c      **** 	listSET_LIST_INTEGRITY_CHECK_2_VALUE( pxList );
 101:.\list.c      **** }
  63              		.loc 1 101 0
  64 0034 0C37     		adds	r7, r7, #12
  65              		.cfi_def_cfa_offset 4
  66 0036 BD46     		mov	sp, r7
  67              		.cfi_def_cfa_register 13
  68              		@ sp needed
  69 0038 5DF8047B 		ldr	r7, [sp], #4
  70              		.cfi_restore 7
ARM GAS  C:\Users\mjphi\AppData\Local\Temp\ccvHbxbd.s 			page 4


  71              		.cfi_def_cfa_offset 0
  72 003c 7047     		bx	lr
  73              		.cfi_endproc
  74              	.LFE64:
  75              		.size	vListInitialise, .-vListInitialise
  76 003e 00BF     		.section	.text.vListInitialiseItem,"ax",%progbits
  77              		.align	2
  78              		.global	vListInitialiseItem
  79              		.thumb
  80              		.thumb_func
  81              		.type	vListInitialiseItem, %function
  82              	vListInitialiseItem:
  83              	.LFB65:
 102:.\list.c      **** /*-----------------------------------------------------------*/
 103:.\list.c      **** 
 104:.\list.c      **** void vListInitialiseItem( ListItem_t * const pxItem )
 105:.\list.c      **** {
  84              		.loc 1 105 0
  85              		.cfi_startproc
  86              		@ args = 0, pretend = 0, frame = 8
  87              		@ frame_needed = 1, uses_anonymous_args = 0
  88              		@ link register save eliminated.
  89 0000 80B4     		push	{r7}
  90              		.cfi_def_cfa_offset 4
  91              		.cfi_offset 7, -4
  92 0002 83B0     		sub	sp, sp, #12
  93              		.cfi_def_cfa_offset 16
  94 0004 00AF     		add	r7, sp, #0
  95              		.cfi_def_cfa_register 7
  96 0006 7860     		str	r0, [r7, #4]
 106:.\list.c      **** 	/* Make sure the list item is not recorded as being on a list. */
 107:.\list.c      **** 	pxItem->pvContainer = NULL;
  97              		.loc 1 107 0
  98 0008 7B68     		ldr	r3, [r7, #4]
  99 000a 0022     		movs	r2, #0
 100 000c 1A61     		str	r2, [r3, #16]
 108:.\list.c      **** 
 109:.\list.c      **** 	/* Write known values into the list item if
 110:.\list.c      **** 	configUSE_LIST_DATA_INTEGRITY_CHECK_BYTES is set to 1. */
 111:.\list.c      **** 	listSET_FIRST_LIST_ITEM_INTEGRITY_CHECK_VALUE( pxItem );
 112:.\list.c      **** 	listSET_SECOND_LIST_ITEM_INTEGRITY_CHECK_VALUE( pxItem );
 113:.\list.c      **** }
 101              		.loc 1 113 0
 102 000e 0C37     		adds	r7, r7, #12
 103              		.cfi_def_cfa_offset 4
 104 0010 BD46     		mov	sp, r7
 105              		.cfi_def_cfa_register 13
 106              		@ sp needed
 107 0012 5DF8047B 		ldr	r7, [sp], #4
 108              		.cfi_restore 7
 109              		.cfi_def_cfa_offset 0
 110 0016 7047     		bx	lr
 111              		.cfi_endproc
 112              	.LFE65:
 113              		.size	vListInitialiseItem, .-vListInitialiseItem
 114              		.section	.text.vListInsertEnd,"ax",%progbits
 115              		.align	2
ARM GAS  C:\Users\mjphi\AppData\Local\Temp\ccvHbxbd.s 			page 5


 116              		.global	vListInsertEnd
 117              		.thumb
 118              		.thumb_func
 119              		.type	vListInsertEnd, %function
 120              	vListInsertEnd:
 121              	.LFB66:
 114:.\list.c      **** /*-----------------------------------------------------------*/
 115:.\list.c      **** 
 116:.\list.c      **** void vListInsertEnd( List_t * const pxList, ListItem_t * const pxNewListItem )
 117:.\list.c      **** {
 122              		.loc 1 117 0
 123              		.cfi_startproc
 124              		@ args = 0, pretend = 0, frame = 16
 125              		@ frame_needed = 1, uses_anonymous_args = 0
 126              		@ link register save eliminated.
 127 0000 80B4     		push	{r7}
 128              		.cfi_def_cfa_offset 4
 129              		.cfi_offset 7, -4
 130 0002 85B0     		sub	sp, sp, #20
 131              		.cfi_def_cfa_offset 24
 132 0004 00AF     		add	r7, sp, #0
 133              		.cfi_def_cfa_register 7
 134 0006 7860     		str	r0, [r7, #4]
 135 0008 3960     		str	r1, [r7]
 118:.\list.c      **** ListItem_t * const pxIndex = pxList->pxIndex;
 136              		.loc 1 118 0
 137 000a 7B68     		ldr	r3, [r7, #4]
 138 000c 5B68     		ldr	r3, [r3, #4]
 139 000e FB60     		str	r3, [r7, #12]
 119:.\list.c      **** 
 120:.\list.c      **** 	/* Only effective when configASSERT() is also defined, these tests may catch
 121:.\list.c      **** 	the list data structures being overwritten in memory.  They will not catch
 122:.\list.c      **** 	data errors caused by incorrect configuration or use of FreeRTOS. */
 123:.\list.c      **** 	listTEST_LIST_INTEGRITY( pxList );
 124:.\list.c      **** 	listTEST_LIST_ITEM_INTEGRITY( pxNewListItem );
 125:.\list.c      **** 
 126:.\list.c      **** 	/* Insert a new list item into pxList, but rather than sort the list,
 127:.\list.c      **** 	makes the new list item the last item to be removed by a call to
 128:.\list.c      **** 	listGET_OWNER_OF_NEXT_ENTRY(). */
 129:.\list.c      **** 	pxNewListItem->pxNext = pxIndex;
 140              		.loc 1 129 0
 141 0010 3B68     		ldr	r3, [r7]
 142 0012 FA68     		ldr	r2, [r7, #12]
 143 0014 5A60     		str	r2, [r3, #4]
 130:.\list.c      **** 	pxNewListItem->pxPrevious = pxIndex->pxPrevious;
 144              		.loc 1 130 0
 145 0016 FB68     		ldr	r3, [r7, #12]
 146 0018 9A68     		ldr	r2, [r3, #8]
 147 001a 3B68     		ldr	r3, [r7]
 148 001c 9A60     		str	r2, [r3, #8]
 131:.\list.c      **** 
 132:.\list.c      **** 	/* Only used during decision coverage testing. */
 133:.\list.c      **** 	mtCOVERAGE_TEST_DELAY();
 134:.\list.c      **** 
 135:.\list.c      **** 	pxIndex->pxPrevious->pxNext = pxNewListItem;
 149              		.loc 1 135 0
 150 001e FB68     		ldr	r3, [r7, #12]
ARM GAS  C:\Users\mjphi\AppData\Local\Temp\ccvHbxbd.s 			page 6


 151 0020 9B68     		ldr	r3, [r3, #8]
 152 0022 3A68     		ldr	r2, [r7]
 153 0024 5A60     		str	r2, [r3, #4]
 136:.\list.c      **** 	pxIndex->pxPrevious = pxNewListItem;
 154              		.loc 1 136 0
 155 0026 FB68     		ldr	r3, [r7, #12]
 156 0028 3A68     		ldr	r2, [r7]
 157 002a 9A60     		str	r2, [r3, #8]
 137:.\list.c      **** 
 138:.\list.c      **** 	/* Remember which list the item is in. */
 139:.\list.c      **** 	pxNewListItem->pvContainer = ( void * ) pxList;
 158              		.loc 1 139 0
 159 002c 3B68     		ldr	r3, [r7]
 160 002e 7A68     		ldr	r2, [r7, #4]
 161 0030 1A61     		str	r2, [r3, #16]
 140:.\list.c      **** 
 141:.\list.c      **** 	( pxList->uxNumberOfItems )++;
 162              		.loc 1 141 0
 163 0032 7B68     		ldr	r3, [r7, #4]
 164 0034 1B68     		ldr	r3, [r3]
 165 0036 5A1C     		adds	r2, r3, #1
 166 0038 7B68     		ldr	r3, [r7, #4]
 167 003a 1A60     		str	r2, [r3]
 142:.\list.c      **** }
 168              		.loc 1 142 0
 169 003c 1437     		adds	r7, r7, #20
 170              		.cfi_def_cfa_offset 4
 171 003e BD46     		mov	sp, r7
 172              		.cfi_def_cfa_register 13
 173              		@ sp needed
 174 0040 5DF8047B 		ldr	r7, [sp], #4
 175              		.cfi_restore 7
 176              		.cfi_def_cfa_offset 0
 177 0044 7047     		bx	lr
 178              		.cfi_endproc
 179              	.LFE66:
 180              		.size	vListInsertEnd, .-vListInsertEnd
 181 0046 00BF     		.section	.text.vListInsert,"ax",%progbits
 182              		.align	2
 183              		.global	vListInsert
 184              		.thumb
 185              		.thumb_func
 186              		.type	vListInsert, %function
 187              	vListInsert:
 188              	.LFB67:
 143:.\list.c      **** /*-----------------------------------------------------------*/
 144:.\list.c      **** 
 145:.\list.c      **** void vListInsert( List_t * const pxList, ListItem_t * const pxNewListItem )
 146:.\list.c      **** {
 189              		.loc 1 146 0
 190              		.cfi_startproc
 191              		@ args = 0, pretend = 0, frame = 16
 192              		@ frame_needed = 1, uses_anonymous_args = 0
 193              		@ link register save eliminated.
 194 0000 80B4     		push	{r7}
 195              		.cfi_def_cfa_offset 4
 196              		.cfi_offset 7, -4
ARM GAS  C:\Users\mjphi\AppData\Local\Temp\ccvHbxbd.s 			page 7


 197 0002 85B0     		sub	sp, sp, #20
 198              		.cfi_def_cfa_offset 24
 199 0004 00AF     		add	r7, sp, #0
 200              		.cfi_def_cfa_register 7
 201 0006 7860     		str	r0, [r7, #4]
 202 0008 3960     		str	r1, [r7]
 147:.\list.c      **** ListItem_t *pxIterator;
 148:.\list.c      **** const TickType_t xValueOfInsertion = pxNewListItem->xItemValue;
 203              		.loc 1 148 0
 204 000a 3B68     		ldr	r3, [r7]
 205 000c 1B68     		ldr	r3, [r3]
 206 000e BB60     		str	r3, [r7, #8]
 149:.\list.c      **** 
 150:.\list.c      **** 	/* Only effective when configASSERT() is also defined, these tests may catch
 151:.\list.c      **** 	the list data structures being overwritten in memory.  They will not catch
 152:.\list.c      **** 	data errors caused by incorrect configuration or use of FreeRTOS. */
 153:.\list.c      **** 	listTEST_LIST_INTEGRITY( pxList );
 154:.\list.c      **** 	listTEST_LIST_ITEM_INTEGRITY( pxNewListItem );
 155:.\list.c      **** 
 156:.\list.c      **** 	/* Insert the new list item into the list, sorted in xItemValue order.
 157:.\list.c      **** 
 158:.\list.c      **** 	If the list already contains a list item with the same item value then the
 159:.\list.c      **** 	new list item should be placed after it.  This ensures that TCB's which are
 160:.\list.c      **** 	stored in ready lists (all of which have the same xItemValue value) get a
 161:.\list.c      **** 	share of the CPU.  However, if the xItemValue is the same as the back marker
 162:.\list.c      **** 	the iteration loop below will not end.  Therefore the value is checked
 163:.\list.c      **** 	first, and the algorithm slightly modified if necessary. */
 164:.\list.c      **** 	if( xValueOfInsertion == portMAX_DELAY )
 207              		.loc 1 164 0
 208 0010 BB68     		ldr	r3, [r7, #8]
 209 0012 B3F1FF3F 		cmp	r3, #-1
 210 0016 03D1     		bne	.L5
 165:.\list.c      **** 	{
 166:.\list.c      **** 		pxIterator = pxList->xListEnd.pxPrevious;
 211              		.loc 1 166 0
 212 0018 7B68     		ldr	r3, [r7, #4]
 213 001a 1B69     		ldr	r3, [r3, #16]
 214 001c FB60     		str	r3, [r7, #12]
 215 001e 0CE0     		b	.L6
 216              	.L5:
 167:.\list.c      **** 	}
 168:.\list.c      **** 	else
 169:.\list.c      **** 	{
 170:.\list.c      **** 		/* *** NOTE ***********************************************************
 171:.\list.c      **** 		If you find your application is crashing here then likely causes are
 172:.\list.c      **** 		listed below.  In addition see http://www.freertos.org/FAQHelp.html for
 173:.\list.c      **** 		more tips, and ensure configASSERT() is defined!
 174:.\list.c      **** 		http://www.freertos.org/a00110.html#configASSERT
 175:.\list.c      **** 
 176:.\list.c      **** 			1) Stack overflow -
 177:.\list.c      **** 			   see http://www.freertos.org/Stacks-and-stack-overflow-checking.html
 178:.\list.c      **** 			2) Incorrect interrupt priority assignment, especially on Cortex-M
 179:.\list.c      **** 			   parts where numerically high priority values denote low actual
 180:.\list.c      **** 			   interrupt priorities, which can seem counter intuitive.  See
 181:.\list.c      **** 			   http://www.freertos.org/RTOS-Cortex-M3-M4.html and the definition
 182:.\list.c      **** 			   of configMAX_SYSCALL_INTERRUPT_PRIORITY on
 183:.\list.c      **** 			   http://www.freertos.org/a00110.html
ARM GAS  C:\Users\mjphi\AppData\Local\Temp\ccvHbxbd.s 			page 8


 184:.\list.c      **** 			3) Calling an API function from within a critical section or when
 185:.\list.c      **** 			   the scheduler is suspended, or calling an API function that does
 186:.\list.c      **** 			   not end in "FromISR" from an interrupt.
 187:.\list.c      **** 			4) Using a queue or semaphore before it has been initialised or
 188:.\list.c      **** 			   before the scheduler has been started (are interrupts firing
 189:.\list.c      **** 			   before vTaskStartScheduler() has been called?).
 190:.\list.c      **** 		**********************************************************************/
 191:.\list.c      **** 
 192:.\list.c      **** 		for( pxIterator = ( ListItem_t * ) &( pxList->xListEnd ); pxIterator->pxNext->xItemValue <= xValu
 217              		.loc 1 192 0
 218 0020 7B68     		ldr	r3, [r7, #4]
 219 0022 0833     		adds	r3, r3, #8
 220 0024 FB60     		str	r3, [r7, #12]
 221 0026 02E0     		b	.L7
 222              	.L8:
 223              		.loc 1 192 0 is_stmt 0 discriminator 3
 224 0028 FB68     		ldr	r3, [r7, #12]
 225 002a 5B68     		ldr	r3, [r3, #4]
 226 002c FB60     		str	r3, [r7, #12]
 227              	.L7:
 228              		.loc 1 192 0 discriminator 1
 229 002e FB68     		ldr	r3, [r7, #12]
 230 0030 5B68     		ldr	r3, [r3, #4]
 231 0032 1A68     		ldr	r2, [r3]
 232 0034 BB68     		ldr	r3, [r7, #8]
 233 0036 9A42     		cmp	r2, r3
 234 0038 F6D9     		bls	.L8
 235              	.L6:
 193:.\list.c      **** 		{
 194:.\list.c      **** 			/* There is nothing to do here, just iterating to the wanted
 195:.\list.c      **** 			insertion position. */
 196:.\list.c      **** 		}
 197:.\list.c      **** 	}
 198:.\list.c      **** 
 199:.\list.c      **** 	pxNewListItem->pxNext = pxIterator->pxNext;
 236              		.loc 1 199 0 is_stmt 1
 237 003a FB68     		ldr	r3, [r7, #12]
 238 003c 5A68     		ldr	r2, [r3, #4]
 239 003e 3B68     		ldr	r3, [r7]
 240 0040 5A60     		str	r2, [r3, #4]
 200:.\list.c      **** 	pxNewListItem->pxNext->pxPrevious = pxNewListItem;
 241              		.loc 1 200 0
 242 0042 3B68     		ldr	r3, [r7]
 243 0044 5B68     		ldr	r3, [r3, #4]
 244 0046 3A68     		ldr	r2, [r7]
 245 0048 9A60     		str	r2, [r3, #8]
 201:.\list.c      **** 	pxNewListItem->pxPrevious = pxIterator;
 246              		.loc 1 201 0
 247 004a 3B68     		ldr	r3, [r7]
 248 004c FA68     		ldr	r2, [r7, #12]
 249 004e 9A60     		str	r2, [r3, #8]
 202:.\list.c      **** 	pxIterator->pxNext = pxNewListItem;
 250              		.loc 1 202 0
 251 0050 FB68     		ldr	r3, [r7, #12]
 252 0052 3A68     		ldr	r2, [r7]
 253 0054 5A60     		str	r2, [r3, #4]
 203:.\list.c      **** 
ARM GAS  C:\Users\mjphi\AppData\Local\Temp\ccvHbxbd.s 			page 9


 204:.\list.c      **** 	/* Remember which list the item is in.  This allows fast removal of the
 205:.\list.c      **** 	item later. */
 206:.\list.c      **** 	pxNewListItem->pvContainer = ( void * ) pxList;
 254              		.loc 1 206 0
 255 0056 3B68     		ldr	r3, [r7]
 256 0058 7A68     		ldr	r2, [r7, #4]
 257 005a 1A61     		str	r2, [r3, #16]
 207:.\list.c      **** 
 208:.\list.c      **** 	( pxList->uxNumberOfItems )++;
 258              		.loc 1 208 0
 259 005c 7B68     		ldr	r3, [r7, #4]
 260 005e 1B68     		ldr	r3, [r3]
 261 0060 5A1C     		adds	r2, r3, #1
 262 0062 7B68     		ldr	r3, [r7, #4]
 263 0064 1A60     		str	r2, [r3]
 209:.\list.c      **** }
 264              		.loc 1 209 0
 265 0066 1437     		adds	r7, r7, #20
 266              		.cfi_def_cfa_offset 4
 267 0068 BD46     		mov	sp, r7
 268              		.cfi_def_cfa_register 13
 269              		@ sp needed
 270 006a 5DF8047B 		ldr	r7, [sp], #4
 271              		.cfi_restore 7
 272              		.cfi_def_cfa_offset 0
 273 006e 7047     		bx	lr
 274              		.cfi_endproc
 275              	.LFE67:
 276              		.size	vListInsert, .-vListInsert
 277              		.section	.text.uxListRemove,"ax",%progbits
 278              		.align	2
 279              		.global	uxListRemove
 280              		.thumb
 281              		.thumb_func
 282              		.type	uxListRemove, %function
 283              	uxListRemove:
 284              	.LFB68:
 210:.\list.c      **** /*-----------------------------------------------------------*/
 211:.\list.c      **** 
 212:.\list.c      **** UBaseType_t uxListRemove( ListItem_t * const pxItemToRemove )
 213:.\list.c      **** {
 285              		.loc 1 213 0
 286              		.cfi_startproc
 287              		@ args = 0, pretend = 0, frame = 16
 288              		@ frame_needed = 1, uses_anonymous_args = 0
 289              		@ link register save eliminated.
 290 0000 80B4     		push	{r7}
 291              		.cfi_def_cfa_offset 4
 292              		.cfi_offset 7, -4
 293 0002 85B0     		sub	sp, sp, #20
 294              		.cfi_def_cfa_offset 24
 295 0004 00AF     		add	r7, sp, #0
 296              		.cfi_def_cfa_register 7
 297 0006 7860     		str	r0, [r7, #4]
 214:.\list.c      **** /* The list item knows which list it is in.  Obtain the list from the list
 215:.\list.c      **** item. */
 216:.\list.c      **** List_t * const pxList = ( List_t * ) pxItemToRemove->pvContainer;
ARM GAS  C:\Users\mjphi\AppData\Local\Temp\ccvHbxbd.s 			page 10


 298              		.loc 1 216 0
 299 0008 7B68     		ldr	r3, [r7, #4]
 300 000a 1B69     		ldr	r3, [r3, #16]
 301 000c FB60     		str	r3, [r7, #12]
 217:.\list.c      **** 
 218:.\list.c      **** 	pxItemToRemove->pxNext->pxPrevious = pxItemToRemove->pxPrevious;
 302              		.loc 1 218 0
 303 000e 7B68     		ldr	r3, [r7, #4]
 304 0010 5B68     		ldr	r3, [r3, #4]
 305 0012 7A68     		ldr	r2, [r7, #4]
 306 0014 9268     		ldr	r2, [r2, #8]
 307 0016 9A60     		str	r2, [r3, #8]
 219:.\list.c      **** 	pxItemToRemove->pxPrevious->pxNext = pxItemToRemove->pxNext;
 308              		.loc 1 219 0
 309 0018 7B68     		ldr	r3, [r7, #4]
 310 001a 9B68     		ldr	r3, [r3, #8]
 311 001c 7A68     		ldr	r2, [r7, #4]
 312 001e 5268     		ldr	r2, [r2, #4]
 313 0020 5A60     		str	r2, [r3, #4]
 220:.\list.c      **** 
 221:.\list.c      **** 	/* Only used during decision coverage testing. */
 222:.\list.c      **** 	mtCOVERAGE_TEST_DELAY();
 223:.\list.c      **** 
 224:.\list.c      **** 	/* Make sure the index is left pointing to a valid item. */
 225:.\list.c      **** 	if( pxList->pxIndex == pxItemToRemove )
 314              		.loc 1 225 0
 315 0022 FB68     		ldr	r3, [r7, #12]
 316 0024 5A68     		ldr	r2, [r3, #4]
 317 0026 7B68     		ldr	r3, [r7, #4]
 318 0028 9A42     		cmp	r2, r3
 319 002a 03D1     		bne	.L10
 226:.\list.c      **** 	{
 227:.\list.c      **** 		pxList->pxIndex = pxItemToRemove->pxPrevious;
 320              		.loc 1 227 0
 321 002c 7B68     		ldr	r3, [r7, #4]
 322 002e 9A68     		ldr	r2, [r3, #8]
 323 0030 FB68     		ldr	r3, [r7, #12]
 324 0032 5A60     		str	r2, [r3, #4]
 325              	.L10:
 228:.\list.c      **** 	}
 229:.\list.c      **** 	else
 230:.\list.c      **** 	{
 231:.\list.c      **** 		mtCOVERAGE_TEST_MARKER();
 232:.\list.c      **** 	}
 233:.\list.c      **** 
 234:.\list.c      **** 	pxItemToRemove->pvContainer = NULL;
 326              		.loc 1 234 0
 327 0034 7B68     		ldr	r3, [r7, #4]
 328 0036 0022     		movs	r2, #0
 329 0038 1A61     		str	r2, [r3, #16]
 235:.\list.c      **** 	( pxList->uxNumberOfItems )--;
 330              		.loc 1 235 0
 331 003a FB68     		ldr	r3, [r7, #12]
 332 003c 1B68     		ldr	r3, [r3]
 333 003e 5A1E     		subs	r2, r3, #1
 334 0040 FB68     		ldr	r3, [r7, #12]
 335 0042 1A60     		str	r2, [r3]
ARM GAS  C:\Users\mjphi\AppData\Local\Temp\ccvHbxbd.s 			page 11


 236:.\list.c      **** 
 237:.\list.c      **** 	return pxList->uxNumberOfItems;
 336              		.loc 1 237 0
 337 0044 FB68     		ldr	r3, [r7, #12]
 338 0046 1B68     		ldr	r3, [r3]
 238:.\list.c      **** }
 339              		.loc 1 238 0
 340 0048 1846     		mov	r0, r3
 341 004a 1437     		adds	r7, r7, #20
 342              		.cfi_def_cfa_offset 4
 343 004c BD46     		mov	sp, r7
 344              		.cfi_def_cfa_register 13
 345              		@ sp needed
 346 004e 5DF8047B 		ldr	r7, [sp], #4
 347              		.cfi_restore 7
 348              		.cfi_def_cfa_offset 0
 349 0052 7047     		bx	lr
 350              		.cfi_endproc
 351              	.LFE68:
 352              		.size	uxListRemove, .-uxListRemove
 353              		.text
 354              	.Letext0:
 355              		.file 2 "c:\\program files (x86)\\cypress\\psoc creator\\3.3\\psoc creator\\import\\gnu\\arm\\4.9.
 356              		.file 3 "c:\\program files (x86)\\cypress\\psoc creator\\3.3\\psoc creator\\import\\gnu\\arm\\4.9.
 357              		.file 4 ".\\portmacro.h"
 358              		.file 5 ".\\list.h"
 359              		.file 6 "Generated_Source\\PSoC5/core_cm3.h"
