ARM GAS  C:\Users\mjphi\AppData\Local\Temp\ccBvhGke.s 			page 1


   1              		.syntax unified
   2              		.cpu cortex-m3
   3              		.fpu softvfp
   4              		.eabi_attribute 20, 1
   5              		.eabi_attribute 21, 1
   6              		.eabi_attribute 23, 3
   7              		.eabi_attribute 24, 1
   8              		.eabi_attribute 25, 1
   9              		.eabi_attribute 26, 1
  10              		.eabi_attribute 30, 4
  11              		.eabi_attribute 34, 1
  12              		.eabi_attribute 18, 4
  13              		.thumb
  14              		.file	"CyLib.c"
  15              		.text
  16              	.Ltext0:
  17              		.cfi_sections	.debug_frame
  18              		.section	.text.CyIMO_SetTrimValue,"ax",%progbits
  19              		.align	1
  20              		.thumb
  21              		.thumb_func
  22              		.type	CyIMO_SetTrimValue, %function
  23              	CyIMO_SetTrimValue:
  24              	.LFB7:
  25              		.file 1 ".\\Generated_Source\\PSoC5\\CyLib.c"
   1:.\Generated_Source\PSoC5/CyLib.c **** /*******************************************************************************
   2:.\Generated_Source\PSoC5/CyLib.c **** * File Name: CyLib.c
   3:.\Generated_Source\PSoC5/CyLib.c **** * Version 5.0
   4:.\Generated_Source\PSoC5/CyLib.c **** *
   5:.\Generated_Source\PSoC5/CyLib.c **** *  Description:
   6:.\Generated_Source\PSoC5/CyLib.c **** *   Provides a system API for the clocking, interrupts and watchdog timer.
   7:.\Generated_Source\PSoC5/CyLib.c **** *
   8:.\Generated_Source\PSoC5/CyLib.c **** *  Note:
   9:.\Generated_Source\PSoC5/CyLib.c **** *   Documentation of the API's in this file is located in the
  10:.\Generated_Source\PSoC5/CyLib.c **** *   System Reference Guide provided with PSoC Creator.
  11:.\Generated_Source\PSoC5/CyLib.c **** *
  12:.\Generated_Source\PSoC5/CyLib.c **** ********************************************************************************
  13:.\Generated_Source\PSoC5/CyLib.c **** * Copyright 2008-2015, Cypress Semiconductor Corporation.  All rights reserved.
  14:.\Generated_Source\PSoC5/CyLib.c **** * You may use this file only in accordance with the license, terms, conditions,
  15:.\Generated_Source\PSoC5/CyLib.c **** * disclaimers, and limitations in the end user license agreement accompanying
  16:.\Generated_Source\PSoC5/CyLib.c **** * the software package with which this file was provided.
  17:.\Generated_Source\PSoC5/CyLib.c **** *******************************************************************************/
  18:.\Generated_Source\PSoC5/CyLib.c **** 
  19:.\Generated_Source\PSoC5/CyLib.c **** #include "CyLib.h"
  20:.\Generated_Source\PSoC5/CyLib.c **** 
  21:.\Generated_Source\PSoC5/CyLib.c **** 
  22:.\Generated_Source\PSoC5/CyLib.c **** /*******************************************************************************
  23:.\Generated_Source\PSoC5/CyLib.c **** * The CyResetStatus variable is used to obtain value of RESET_SR0 register after
  24:.\Generated_Source\PSoC5/CyLib.c **** * a device reset. It is set from initialize_psoc() at the early initialization
  25:.\Generated_Source\PSoC5/CyLib.c **** * stage. In case of IAR EW IDE, initialize_psoc() is executed before the data
  26:.\Generated_Source\PSoC5/CyLib.c **** * sections are initialized. To avoid zeroing, CyResetStatus should be placed
  27:.\Generated_Source\PSoC5/CyLib.c **** * to the .noinit section.
  28:.\Generated_Source\PSoC5/CyLib.c **** *******************************************************************************/
  29:.\Generated_Source\PSoC5/CyLib.c **** CY_NOINIT uint8 CYXDATA CyResetStatus;
  30:.\Generated_Source\PSoC5/CyLib.c **** 
  31:.\Generated_Source\PSoC5/CyLib.c **** 
  32:.\Generated_Source\PSoC5/CyLib.c **** /* Variable Vdda */
ARM GAS  C:\Users\mjphi\AppData\Local\Temp\ccBvhGke.s 			page 2


  33:.\Generated_Source\PSoC5/CyLib.c **** #if(CYDEV_VARIABLE_VDDA == 1)
  34:.\Generated_Source\PSoC5/CyLib.c **** 
  35:.\Generated_Source\PSoC5/CyLib.c ****     uint8 CyScPumpEnabled = (uint8)(CYDEV_VDDA_MV < 2700);
  36:.\Generated_Source\PSoC5/CyLib.c **** 
  37:.\Generated_Source\PSoC5/CyLib.c **** #endif  /* (CYDEV_VARIABLE_VDDA == 1) */
  38:.\Generated_Source\PSoC5/CyLib.c **** 
  39:.\Generated_Source\PSoC5/CyLib.c **** 
  40:.\Generated_Source\PSoC5/CyLib.c **** /* Do not use these definitions directly in your application */
  41:.\Generated_Source\PSoC5/CyLib.c **** uint32 cydelay_freq_hz  = BCLK__BUS_CLK__HZ;
  42:.\Generated_Source\PSoC5/CyLib.c **** uint32 cydelay_freq_khz = (BCLK__BUS_CLK__HZ + 999u) / 1000u;
  43:.\Generated_Source\PSoC5/CyLib.c **** uint8  cydelay_freq_mhz = (uint8)((BCLK__BUS_CLK__HZ + 999999u) / 1000000u);
  44:.\Generated_Source\PSoC5/CyLib.c **** uint32 cydelay_32k_ms   = 32768u * ((BCLK__BUS_CLK__HZ + 999u) / 1000u);
  45:.\Generated_Source\PSoC5/CyLib.c **** 
  46:.\Generated_Source\PSoC5/CyLib.c **** 
  47:.\Generated_Source\PSoC5/CyLib.c **** /* Function Prototypes */
  48:.\Generated_Source\PSoC5/CyLib.c **** static uint8 CyUSB_PowerOnCheck(void)  ;
  49:.\Generated_Source\PSoC5/CyLib.c **** static void CyIMO_SetTrimValue(uint8 freq) ;
  50:.\Generated_Source\PSoC5/CyLib.c **** static void CyBusClk_Internal_SetDivider(uint16 divider);
  51:.\Generated_Source\PSoC5/CyLib.c **** 
  52:.\Generated_Source\PSoC5/CyLib.c **** #if(CY_PSOC5)
  53:.\Generated_Source\PSoC5/CyLib.c ****     static cySysTickCallback CySysTickCallbacks[CY_SYS_SYST_NUM_OF_CALLBACKS];
  54:.\Generated_Source\PSoC5/CyLib.c ****     static void CySysTickServiceCallbacks(void);
  55:.\Generated_Source\PSoC5/CyLib.c ****     uint32 CySysTickInitVar = 0u;
  56:.\Generated_Source\PSoC5/CyLib.c **** #endif  /* (CY_PSOC5) */
  57:.\Generated_Source\PSoC5/CyLib.c **** 
  58:.\Generated_Source\PSoC5/CyLib.c **** 
  59:.\Generated_Source\PSoC5/CyLib.c **** /*******************************************************************************
  60:.\Generated_Source\PSoC5/CyLib.c **** * Function Name: CyPLL_OUT_Start
  61:.\Generated_Source\PSoC5/CyLib.c **** ********************************************************************************
  62:.\Generated_Source\PSoC5/CyLib.c **** *
  63:.\Generated_Source\PSoC5/CyLib.c **** * Summary:
  64:.\Generated_Source\PSoC5/CyLib.c **** *   Enables the PLL.  Optionally waits for it to become stable.
  65:.\Generated_Source\PSoC5/CyLib.c **** *   Waits at least 250 us or until it is detected that the PLL is stable.
  66:.\Generated_Source\PSoC5/CyLib.c **** *
  67:.\Generated_Source\PSoC5/CyLib.c **** * Parameters:
  68:.\Generated_Source\PSoC5/CyLib.c **** *   wait:
  69:.\Generated_Source\PSoC5/CyLib.c **** *    0: Return immediately after configuration
  70:.\Generated_Source\PSoC5/CyLib.c **** *    1: Wait for PLL lock or timeout.
  71:.\Generated_Source\PSoC5/CyLib.c **** *
  72:.\Generated_Source\PSoC5/CyLib.c **** * Return:
  73:.\Generated_Source\PSoC5/CyLib.c **** *   Status
  74:.\Generated_Source\PSoC5/CyLib.c **** *    CYRET_SUCCESS - Completed successfully
  75:.\Generated_Source\PSoC5/CyLib.c **** *    CYRET_TIMEOUT - Timeout occurred without detecting a stable clock.
  76:.\Generated_Source\PSoC5/CyLib.c **** *     If the input source of the clock is jittery, then the lock indication
  77:.\Generated_Source\PSoC5/CyLib.c **** *     may not occur.  However, after the timeout has expired the generated PLL
  78:.\Generated_Source\PSoC5/CyLib.c **** *     clock can still be used.
  79:.\Generated_Source\PSoC5/CyLib.c **** *
  80:.\Generated_Source\PSoC5/CyLib.c **** * Side Effects:
  81:.\Generated_Source\PSoC5/CyLib.c **** *  If wait is enabled: This function uses the Fast Time Wheel to time the wait.
  82:.\Generated_Source\PSoC5/CyLib.c **** *  Any other use of the Fast Time Wheel will be stopped during the period of
  83:.\Generated_Source\PSoC5/CyLib.c **** *  this function and then restored. This function also uses the 100 KHz ILO.
  84:.\Generated_Source\PSoC5/CyLib.c **** *  If not enabled, this function will enable the 100 KHz ILO for the period of
  85:.\Generated_Source\PSoC5/CyLib.c **** *  this function.
  86:.\Generated_Source\PSoC5/CyLib.c **** *
  87:.\Generated_Source\PSoC5/CyLib.c **** *  No changes to the setup of the ILO, Fast Time Wheel, Central Time Wheel or
  88:.\Generated_Source\PSoC5/CyLib.c **** *  Once Per Second interrupt may be made by interrupt routines during the period
  89:.\Generated_Source\PSoC5/CyLib.c **** *  of this function execution. The current operation of the ILO, Central Time
ARM GAS  C:\Users\mjphi\AppData\Local\Temp\ccBvhGke.s 			page 3


  90:.\Generated_Source\PSoC5/CyLib.c **** *  Wheel and Once Per Second interrupt are maintained during the operation of
  91:.\Generated_Source\PSoC5/CyLib.c **** *  this function provided the reading of the Power Manager Interrupt Status
  92:.\Generated_Source\PSoC5/CyLib.c **** *  Register is only done using the CyPmReadStatus() function.
  93:.\Generated_Source\PSoC5/CyLib.c **** *
  94:.\Generated_Source\PSoC5/CyLib.c **** *******************************************************************************/
  95:.\Generated_Source\PSoC5/CyLib.c **** cystatus CyPLL_OUT_Start(uint8 wait) 
  96:.\Generated_Source\PSoC5/CyLib.c **** {
  97:.\Generated_Source\PSoC5/CyLib.c ****     cystatus status = CYRET_SUCCESS;
  98:.\Generated_Source\PSoC5/CyLib.c **** 
  99:.\Generated_Source\PSoC5/CyLib.c ****     uint8 iloEnableState;
 100:.\Generated_Source\PSoC5/CyLib.c ****     uint8 pmTwCfg0State;
 101:.\Generated_Source\PSoC5/CyLib.c ****     uint8 pmTwCfg2State;
 102:.\Generated_Source\PSoC5/CyLib.c **** 
 103:.\Generated_Source\PSoC5/CyLib.c **** 
 104:.\Generated_Source\PSoC5/CyLib.c ****     /* Enables PLL circuit  */
 105:.\Generated_Source\PSoC5/CyLib.c ****     CY_CLK_PLL_CFG0_REG |= CY_CLK_PLL_ENABLE;
 106:.\Generated_Source\PSoC5/CyLib.c **** 
 107:.\Generated_Source\PSoC5/CyLib.c ****     if(wait != 0u)
 108:.\Generated_Source\PSoC5/CyLib.c ****     {
 109:.\Generated_Source\PSoC5/CyLib.c ****         /* Save 100 KHz ILO, FTW interval, enable and interrupt enable */
 110:.\Generated_Source\PSoC5/CyLib.c ****         iloEnableState = CY_LIB_SLOWCLK_ILO_CR0_REG & CY_LIB_SLOWCLK_ILO_CR0_EN_100KHZ;
 111:.\Generated_Source\PSoC5/CyLib.c ****         pmTwCfg0State = CY_LIB_PM_TW_CFG0_REG;
 112:.\Generated_Source\PSoC5/CyLib.c ****         pmTwCfg2State = CY_LIB_PM_TW_CFG2_REG;
 113:.\Generated_Source\PSoC5/CyLib.c **** 
 114:.\Generated_Source\PSoC5/CyLib.c ****         CyPmFtwSetInterval(CY_CLK_PLL_FTW_INTERVAL);
 115:.\Generated_Source\PSoC5/CyLib.c **** 
 116:.\Generated_Source\PSoC5/CyLib.c ****         status = CYRET_TIMEOUT;
 117:.\Generated_Source\PSoC5/CyLib.c **** 
 118:.\Generated_Source\PSoC5/CyLib.c ****         while(0u == (CY_PM_FTW_INT & CyPmReadStatus(CY_PM_FTW_INT)))
 119:.\Generated_Source\PSoC5/CyLib.c ****         {
 120:.\Generated_Source\PSoC5/CyLib.c ****             /* Wait for interrupt status */
 121:.\Generated_Source\PSoC5/CyLib.c ****             if(0u != (CY_CLK_PLL_SR_REG & CY_CLK_PLL_LOCK_STATUS))
 122:.\Generated_Source\PSoC5/CyLib.c ****             {
 123:.\Generated_Source\PSoC5/CyLib.c ****                 if(0u != (CY_CLK_PLL_SR_REG & CY_CLK_PLL_LOCK_STATUS))
 124:.\Generated_Source\PSoC5/CyLib.c ****                 {
 125:.\Generated_Source\PSoC5/CyLib.c ****                     status = CYRET_SUCCESS;
 126:.\Generated_Source\PSoC5/CyLib.c ****                     break;
 127:.\Generated_Source\PSoC5/CyLib.c ****                 }
 128:.\Generated_Source\PSoC5/CyLib.c ****             }
 129:.\Generated_Source\PSoC5/CyLib.c ****         }
 130:.\Generated_Source\PSoC5/CyLib.c **** 
 131:.\Generated_Source\PSoC5/CyLib.c ****         /* Restore 100 KHz ILO, FTW interval, enable and interrupt enable */
 132:.\Generated_Source\PSoC5/CyLib.c ****         if(0u == iloEnableState)
 133:.\Generated_Source\PSoC5/CyLib.c ****         {
 134:.\Generated_Source\PSoC5/CyLib.c ****             CyILO_Stop100K();
 135:.\Generated_Source\PSoC5/CyLib.c ****         }
 136:.\Generated_Source\PSoC5/CyLib.c **** 
 137:.\Generated_Source\PSoC5/CyLib.c ****         CY_LIB_PM_TW_CFG0_REG = pmTwCfg0State;
 138:.\Generated_Source\PSoC5/CyLib.c ****         CY_LIB_PM_TW_CFG2_REG = pmTwCfg2State;
 139:.\Generated_Source\PSoC5/CyLib.c ****     }
 140:.\Generated_Source\PSoC5/CyLib.c **** 
 141:.\Generated_Source\PSoC5/CyLib.c ****     return(status);
 142:.\Generated_Source\PSoC5/CyLib.c **** }
 143:.\Generated_Source\PSoC5/CyLib.c **** 
 144:.\Generated_Source\PSoC5/CyLib.c **** 
 145:.\Generated_Source\PSoC5/CyLib.c **** /*******************************************************************************
 146:.\Generated_Source\PSoC5/CyLib.c **** * Function Name: CyPLL_OUT_Stop
ARM GAS  C:\Users\mjphi\AppData\Local\Temp\ccBvhGke.s 			page 4


 147:.\Generated_Source\PSoC5/CyLib.c **** ********************************************************************************
 148:.\Generated_Source\PSoC5/CyLib.c **** *
 149:.\Generated_Source\PSoC5/CyLib.c **** * Summary:
 150:.\Generated_Source\PSoC5/CyLib.c **** *  Disables the PLL.
 151:.\Generated_Source\PSoC5/CyLib.c **** *
 152:.\Generated_Source\PSoC5/CyLib.c **** * Parameters:
 153:.\Generated_Source\PSoC5/CyLib.c **** *  None
 154:.\Generated_Source\PSoC5/CyLib.c **** *
 155:.\Generated_Source\PSoC5/CyLib.c **** * Return:
 156:.\Generated_Source\PSoC5/CyLib.c **** *  None
 157:.\Generated_Source\PSoC5/CyLib.c **** *
 158:.\Generated_Source\PSoC5/CyLib.c **** *******************************************************************************/
 159:.\Generated_Source\PSoC5/CyLib.c **** void CyPLL_OUT_Stop(void) 
 160:.\Generated_Source\PSoC5/CyLib.c **** {
 161:.\Generated_Source\PSoC5/CyLib.c ****     CY_CLK_PLL_CFG0_REG &= ((uint8)(~CY_CLK_PLL_ENABLE));
 162:.\Generated_Source\PSoC5/CyLib.c **** }
 163:.\Generated_Source\PSoC5/CyLib.c **** 
 164:.\Generated_Source\PSoC5/CyLib.c **** 
 165:.\Generated_Source\PSoC5/CyLib.c **** /*******************************************************************************
 166:.\Generated_Source\PSoC5/CyLib.c **** * Function Name: CyPLL_OUT_SetPQ
 167:.\Generated_Source\PSoC5/CyLib.c **** ********************************************************************************
 168:.\Generated_Source\PSoC5/CyLib.c **** *
 169:.\Generated_Source\PSoC5/CyLib.c **** * Summary:
 170:.\Generated_Source\PSoC5/CyLib.c **** *  Sets the P and Q dividers and the charge pump current.
 171:.\Generated_Source\PSoC5/CyLib.c **** *  The Frequency Out will be P/Q * Frequency In.
 172:.\Generated_Source\PSoC5/CyLib.c **** *  The PLL must be disabled before calling this function.
 173:.\Generated_Source\PSoC5/CyLib.c **** *
 174:.\Generated_Source\PSoC5/CyLib.c **** * Parameters:
 175:.\Generated_Source\PSoC5/CyLib.c **** *  uint8 pDiv:
 176:.\Generated_Source\PSoC5/CyLib.c **** *   Valid range [8 - 255].
 177:.\Generated_Source\PSoC5/CyLib.c **** *
 178:.\Generated_Source\PSoC5/CyLib.c **** *  uint8 qDiv:
 179:.\Generated_Source\PSoC5/CyLib.c **** *   Valid range [1 - 16]. Input Frequency / Q must be in range of 1 to 3 MHz.
 180:.\Generated_Source\PSoC5/CyLib.c **** 
 181:.\Generated_Source\PSoC5/CyLib.c **** *  uint8 current:
 182:.\Generated_Source\PSoC5/CyLib.c **** *   Valid range [1 - 7]. Charge pump current in uA. Refer to the device TRM and
 183:.\Generated_Source\PSoC5/CyLib.c **** *   datasheet for more information.
 184:.\Generated_Source\PSoC5/CyLib.c **** *
 185:.\Generated_Source\PSoC5/CyLib.c **** * Return:
 186:.\Generated_Source\PSoC5/CyLib.c **** *  None
 187:.\Generated_Source\PSoC5/CyLib.c **** *
 188:.\Generated_Source\PSoC5/CyLib.c **** * Side Effects:
 189:.\Generated_Source\PSoC5/CyLib.c **** *  If this function execution results in the CPU clock frequency increasing,
 190:.\Generated_Source\PSoC5/CyLib.c **** *  then the number of clock cycles the cache will wait before it samples data
 191:.\Generated_Source\PSoC5/CyLib.c **** *  coming back from the Flash must be adjusted by calling
 192:.\Generated_Source\PSoC5/CyLib.c **** *  CyFlash_SetWaitCycles() with an appropriate parameter. It can be optionally
 193:.\Generated_Source\PSoC5/CyLib.c **** *  called if the CPU clock frequency is lowered in order to improve the CPU
 194:.\Generated_Source\PSoC5/CyLib.c **** *  performance. See CyFlash_SetWaitCycles() description for more information.
 195:.\Generated_Source\PSoC5/CyLib.c **** *
 196:.\Generated_Source\PSoC5/CyLib.c **** *******************************************************************************/
 197:.\Generated_Source\PSoC5/CyLib.c **** void CyPLL_OUT_SetPQ(uint8 pDiv, uint8 qDiv, uint8 current) 
 198:.\Generated_Source\PSoC5/CyLib.c **** {
 199:.\Generated_Source\PSoC5/CyLib.c ****     /* Halt CPU in debug mode if PLL is enabled */
 200:.\Generated_Source\PSoC5/CyLib.c ****     CYASSERT(0u == (CY_CLK_PLL_CFG0_REG & CY_CLK_PLL_ENABLE));
 201:.\Generated_Source\PSoC5/CyLib.c **** 
 202:.\Generated_Source\PSoC5/CyLib.c ****     if((pDiv    >= CY_CLK_PLL_MIN_P_VALUE  ) &&
 203:.\Generated_Source\PSoC5/CyLib.c ****        (qDiv    <= CY_CLK_PLL_MAX_Q_VALUE  ) && (qDiv    >= CY_CLK_PLL_MIN_Q_VALUE  ) &&
ARM GAS  C:\Users\mjphi\AppData\Local\Temp\ccBvhGke.s 			page 5


 204:.\Generated_Source\PSoC5/CyLib.c ****        (current >= CY_CLK_PLL_MIN_CUR_VALUE) && (current <= CY_CLK_PLL_MAX_CUR_VALUE))
 205:.\Generated_Source\PSoC5/CyLib.c ****     {
 206:.\Generated_Source\PSoC5/CyLib.c ****         /* Set new values */
 207:.\Generated_Source\PSoC5/CyLib.c ****         CY_CLK_PLL_P_REG = pDiv;
 208:.\Generated_Source\PSoC5/CyLib.c ****         CY_CLK_PLL_Q_REG = ((uint8)(qDiv - 1u));
 209:.\Generated_Source\PSoC5/CyLib.c ****         CY_CLK_PLL_CFG1_REG = (CY_CLK_PLL_CFG1_REG & CY_CLK_PLL_CURRENT_MASK) |
 210:.\Generated_Source\PSoC5/CyLib.c ****                                 ((uint8)(((uint8)(current - 1u)) << CY_CLK_PLL_CURRENT_POSITION));
 211:.\Generated_Source\PSoC5/CyLib.c ****     }
 212:.\Generated_Source\PSoC5/CyLib.c ****     else
 213:.\Generated_Source\PSoC5/CyLib.c ****     {
 214:.\Generated_Source\PSoC5/CyLib.c ****         /***********************************************************************
 215:.\Generated_Source\PSoC5/CyLib.c ****         * Halt CPU in debug mode if:
 216:.\Generated_Source\PSoC5/CyLib.c ****         * - P divider is less than required
 217:.\Generated_Source\PSoC5/CyLib.c ****         * - Q divider is out of range
 218:.\Generated_Source\PSoC5/CyLib.c ****         * - pump current is out of range
 219:.\Generated_Source\PSoC5/CyLib.c ****         ***********************************************************************/
 220:.\Generated_Source\PSoC5/CyLib.c ****         CYASSERT(0u != 0u);
 221:.\Generated_Source\PSoC5/CyLib.c ****     }
 222:.\Generated_Source\PSoC5/CyLib.c **** 
 223:.\Generated_Source\PSoC5/CyLib.c **** }
 224:.\Generated_Source\PSoC5/CyLib.c **** 
 225:.\Generated_Source\PSoC5/CyLib.c **** 
 226:.\Generated_Source\PSoC5/CyLib.c **** /*******************************************************************************
 227:.\Generated_Source\PSoC5/CyLib.c **** * Function Name: CyPLL_OUT_SetSource
 228:.\Generated_Source\PSoC5/CyLib.c **** ********************************************************************************
 229:.\Generated_Source\PSoC5/CyLib.c **** *
 230:.\Generated_Source\PSoC5/CyLib.c **** * Summary:
 231:.\Generated_Source\PSoC5/CyLib.c **** *  Sets the input clock source to the PLL. The PLL must be disabled before
 232:.\Generated_Source\PSoC5/CyLib.c **** *  calling this function.
 233:.\Generated_Source\PSoC5/CyLib.c **** *
 234:.\Generated_Source\PSoC5/CyLib.c **** * Parameters:
 235:.\Generated_Source\PSoC5/CyLib.c **** *   source: One of the three available PLL clock sources
 236:.\Generated_Source\PSoC5/CyLib.c **** *    CY_PLL_SOURCE_IMO  :   IMO
 237:.\Generated_Source\PSoC5/CyLib.c **** *    CY_PLL_SOURCE_XTAL :   MHz Crystal
 238:.\Generated_Source\PSoC5/CyLib.c **** *    CY_PLL_SOURCE_DSI  :   DSI
 239:.\Generated_Source\PSoC5/CyLib.c **** *
 240:.\Generated_Source\PSoC5/CyLib.c **** * Return:
 241:.\Generated_Source\PSoC5/CyLib.c **** *  None
 242:.\Generated_Source\PSoC5/CyLib.c **** *
 243:.\Generated_Source\PSoC5/CyLib.c **** * Side Effects:
 244:.\Generated_Source\PSoC5/CyLib.c **** *  If this function execution results in the CPU clock frequency increasing,
 245:.\Generated_Source\PSoC5/CyLib.c **** *  then the number of clock cycles the cache will wait before it samples data
 246:.\Generated_Source\PSoC5/CyLib.c **** *  coming back from the3 Flash must be adjusted by calling
 247:.\Generated_Source\PSoC5/CyLib.c **** *  CyFlash_SetWaitCycles() with an appropriate parameter. It can be optionally
 248:.\Generated_Source\PSoC5/CyLib.c **** *  called if the CPU clock frequency is lowered in order to improve the CPU
 249:.\Generated_Source\PSoC5/CyLib.c **** *  performance. See CyFlash_SetWaitCycles() description for more information.
 250:.\Generated_Source\PSoC5/CyLib.c **** *
 251:.\Generated_Source\PSoC5/CyLib.c **** *******************************************************************************/
 252:.\Generated_Source\PSoC5/CyLib.c **** void CyPLL_OUT_SetSource(uint8 source) 
 253:.\Generated_Source\PSoC5/CyLib.c **** {
 254:.\Generated_Source\PSoC5/CyLib.c ****     /* Halt CPU in debug mode if PLL is enabled */
 255:.\Generated_Source\PSoC5/CyLib.c ****     CYASSERT(0u == (CY_CLK_PLL_CFG0_REG & CY_CLK_PLL_ENABLE));
 256:.\Generated_Source\PSoC5/CyLib.c **** 
 257:.\Generated_Source\PSoC5/CyLib.c ****     switch(source)
 258:.\Generated_Source\PSoC5/CyLib.c ****     {
 259:.\Generated_Source\PSoC5/CyLib.c ****         case CY_PLL_SOURCE_IMO:
 260:.\Generated_Source\PSoC5/CyLib.c ****         case CY_PLL_SOURCE_XTAL:
ARM GAS  C:\Users\mjphi\AppData\Local\Temp\ccBvhGke.s 			page 6


 261:.\Generated_Source\PSoC5/CyLib.c ****         case CY_PLL_SOURCE_DSI:
 262:.\Generated_Source\PSoC5/CyLib.c ****             CY_LIB_CLKDIST_CR_REG = ((CY_LIB_CLKDIST_CR_REG & CY_LIB_CLKDIST_CR_PLL_SCR_MASK) | sou
 263:.\Generated_Source\PSoC5/CyLib.c ****         break;
 264:.\Generated_Source\PSoC5/CyLib.c **** 
 265:.\Generated_Source\PSoC5/CyLib.c ****         default:
 266:.\Generated_Source\PSoC5/CyLib.c ****             CYASSERT(0u != 0u);
 267:.\Generated_Source\PSoC5/CyLib.c ****         break;
 268:.\Generated_Source\PSoC5/CyLib.c ****     }
 269:.\Generated_Source\PSoC5/CyLib.c **** }
 270:.\Generated_Source\PSoC5/CyLib.c **** 
 271:.\Generated_Source\PSoC5/CyLib.c **** 
 272:.\Generated_Source\PSoC5/CyLib.c **** /*******************************************************************************
 273:.\Generated_Source\PSoC5/CyLib.c **** * Function Name: CyIMO_Start
 274:.\Generated_Source\PSoC5/CyLib.c **** ********************************************************************************
 275:.\Generated_Source\PSoC5/CyLib.c **** *
 276:.\Generated_Source\PSoC5/CyLib.c **** * Summary:
 277:.\Generated_Source\PSoC5/CyLib.c **** *  Enables the IMO. Optionally waits at least 6 us for it to settle.
 278:.\Generated_Source\PSoC5/CyLib.c **** *
 279:.\Generated_Source\PSoC5/CyLib.c **** * Parameters:
 280:.\Generated_Source\PSoC5/CyLib.c **** *  uint8 wait:
 281:.\Generated_Source\PSoC5/CyLib.c **** *   0: Return immediately after configuration
 282:.\Generated_Source\PSoC5/CyLib.c **** *   1: Wait for at least 6 us for the IMO to settle.
 283:.\Generated_Source\PSoC5/CyLib.c **** *
 284:.\Generated_Source\PSoC5/CyLib.c **** * Return:
 285:.\Generated_Source\PSoC5/CyLib.c **** *  None
 286:.\Generated_Source\PSoC5/CyLib.c **** *
 287:.\Generated_Source\PSoC5/CyLib.c **** * Side Effects:
 288:.\Generated_Source\PSoC5/CyLib.c **** *  If wait is enabled: This function uses the Fast Time Wheel to time the wait.
 289:.\Generated_Source\PSoC5/CyLib.c **** *  Any other use of the Fast Time Wheel will be stopped during the period of
 290:.\Generated_Source\PSoC5/CyLib.c **** *  this function and then restored. This function also uses the 100 KHz ILO.
 291:.\Generated_Source\PSoC5/CyLib.c **** *  If not enabled, this function will enable the 100 KHz ILO for the period of
 292:.\Generated_Source\PSoC5/CyLib.c **** *  this function.
 293:.\Generated_Source\PSoC5/CyLib.c **** *
 294:.\Generated_Source\PSoC5/CyLib.c **** *  No changes to the setup of the ILO, Fast Time Wheel, Central Time Wheel or
 295:.\Generated_Source\PSoC5/CyLib.c **** *  Once Per Second interrupt may be made by interrupt routines during the period
 296:.\Generated_Source\PSoC5/CyLib.c **** *  of this function execution. The current operation of the ILO, Central Time
 297:.\Generated_Source\PSoC5/CyLib.c **** *  Wheel and Once Per Second interrupt are maintained during the operation of
 298:.\Generated_Source\PSoC5/CyLib.c **** *  this function provided the reading of the Power Manager Interrupt Status
 299:.\Generated_Source\PSoC5/CyLib.c **** *  Register is only done using the CyPmReadStatus() function.
 300:.\Generated_Source\PSoC5/CyLib.c **** *
 301:.\Generated_Source\PSoC5/CyLib.c **** *******************************************************************************/
 302:.\Generated_Source\PSoC5/CyLib.c **** void CyIMO_Start(uint8 wait) 
 303:.\Generated_Source\PSoC5/CyLib.c **** {
 304:.\Generated_Source\PSoC5/CyLib.c ****     uint8 pmFtwCfg2Reg;
 305:.\Generated_Source\PSoC5/CyLib.c ****     uint8 pmFtwCfg0Reg;
 306:.\Generated_Source\PSoC5/CyLib.c ****     uint8 ilo100KhzEnable;
 307:.\Generated_Source\PSoC5/CyLib.c **** 
 308:.\Generated_Source\PSoC5/CyLib.c **** 
 309:.\Generated_Source\PSoC5/CyLib.c ****     CY_LIB_PM_ACT_CFG0_REG  |= CY_LIB_PM_ACT_CFG0_IMO_EN;
 310:.\Generated_Source\PSoC5/CyLib.c ****     CY_LIB_PM_STBY_CFG0_REG |= CY_LIB_PM_STBY_CFG0_IMO_EN;
 311:.\Generated_Source\PSoC5/CyLib.c **** 
 312:.\Generated_Source\PSoC5/CyLib.c ****     if(0u != wait)
 313:.\Generated_Source\PSoC5/CyLib.c ****     {
 314:.\Generated_Source\PSoC5/CyLib.c ****         /* Need to turn on 100KHz ILO if it happens to not already be running.*/
 315:.\Generated_Source\PSoC5/CyLib.c ****         ilo100KhzEnable = CY_LIB_SLOWCLK_ILO_CR0_REG & CY_LIB_SLOWCLK_ILO_CR0_EN_100KHZ;
 316:.\Generated_Source\PSoC5/CyLib.c ****         pmFtwCfg0Reg = CY_LIB_PM_TW_CFG0_REG;
 317:.\Generated_Source\PSoC5/CyLib.c ****         pmFtwCfg2Reg = CY_LIB_PM_TW_CFG2_REG;
ARM GAS  C:\Users\mjphi\AppData\Local\Temp\ccBvhGke.s 			page 7


 318:.\Generated_Source\PSoC5/CyLib.c **** 
 319:.\Generated_Source\PSoC5/CyLib.c ****         CyPmFtwSetInterval(CY_LIB_CLK_IMO_FTW_TIMEOUT);
 320:.\Generated_Source\PSoC5/CyLib.c **** 
 321:.\Generated_Source\PSoC5/CyLib.c ****         while (0u == (CY_PM_FTW_INT & CyPmReadStatus(CY_PM_FTW_INT)))
 322:.\Generated_Source\PSoC5/CyLib.c ****         {
 323:.\Generated_Source\PSoC5/CyLib.c ****             /* Wait for interrupt status */
 324:.\Generated_Source\PSoC5/CyLib.c ****         }
 325:.\Generated_Source\PSoC5/CyLib.c **** 
 326:.\Generated_Source\PSoC5/CyLib.c ****         if(0u == ilo100KhzEnable)
 327:.\Generated_Source\PSoC5/CyLib.c ****         {
 328:.\Generated_Source\PSoC5/CyLib.c ****             CyILO_Stop100K();
 329:.\Generated_Source\PSoC5/CyLib.c ****         }
 330:.\Generated_Source\PSoC5/CyLib.c **** 
 331:.\Generated_Source\PSoC5/CyLib.c ****         CY_LIB_PM_TW_CFG0_REG = pmFtwCfg0Reg;
 332:.\Generated_Source\PSoC5/CyLib.c ****         CY_LIB_PM_TW_CFG2_REG = pmFtwCfg2Reg;
 333:.\Generated_Source\PSoC5/CyLib.c ****     }
 334:.\Generated_Source\PSoC5/CyLib.c **** }
 335:.\Generated_Source\PSoC5/CyLib.c **** 
 336:.\Generated_Source\PSoC5/CyLib.c **** 
 337:.\Generated_Source\PSoC5/CyLib.c **** /*******************************************************************************
 338:.\Generated_Source\PSoC5/CyLib.c **** * Function Name: CyIMO_Stop
 339:.\Generated_Source\PSoC5/CyLib.c **** ********************************************************************************
 340:.\Generated_Source\PSoC5/CyLib.c **** *
 341:.\Generated_Source\PSoC5/CyLib.c **** * Summary:
 342:.\Generated_Source\PSoC5/CyLib.c **** *   Disables the IMO.
 343:.\Generated_Source\PSoC5/CyLib.c **** *
 344:.\Generated_Source\PSoC5/CyLib.c **** * Parameters:
 345:.\Generated_Source\PSoC5/CyLib.c **** *  None
 346:.\Generated_Source\PSoC5/CyLib.c **** *
 347:.\Generated_Source\PSoC5/CyLib.c **** * Return:
 348:.\Generated_Source\PSoC5/CyLib.c **** *  None
 349:.\Generated_Source\PSoC5/CyLib.c **** *
 350:.\Generated_Source\PSoC5/CyLib.c **** *******************************************************************************/
 351:.\Generated_Source\PSoC5/CyLib.c **** void CyIMO_Stop(void) 
 352:.\Generated_Source\PSoC5/CyLib.c **** {
 353:.\Generated_Source\PSoC5/CyLib.c ****     CY_LIB_PM_ACT_CFG0_REG  &= ((uint8) (~CY_LIB_PM_ACT_CFG0_IMO_EN));
 354:.\Generated_Source\PSoC5/CyLib.c ****     CY_LIB_PM_STBY_CFG0_REG &= ((uint8) (~CY_LIB_PM_STBY_CFG0_IMO_EN));
 355:.\Generated_Source\PSoC5/CyLib.c **** }
 356:.\Generated_Source\PSoC5/CyLib.c **** 
 357:.\Generated_Source\PSoC5/CyLib.c **** 
 358:.\Generated_Source\PSoC5/CyLib.c **** /*******************************************************************************
 359:.\Generated_Source\PSoC5/CyLib.c **** * Function Name: CyUSB_PowerOnCheck
 360:.\Generated_Source\PSoC5/CyLib.c **** ********************************************************************************
 361:.\Generated_Source\PSoC5/CyLib.c **** *
 362:.\Generated_Source\PSoC5/CyLib.c **** * Summary:
 363:.\Generated_Source\PSoC5/CyLib.c **** *  Returns the USB power status value. A private function to cy_boot.
 364:.\Generated_Source\PSoC5/CyLib.c **** *
 365:.\Generated_Source\PSoC5/CyLib.c **** * Parameters:
 366:.\Generated_Source\PSoC5/CyLib.c **** *   None
 367:.\Generated_Source\PSoC5/CyLib.c **** *
 368:.\Generated_Source\PSoC5/CyLib.c **** * Return:
 369:.\Generated_Source\PSoC5/CyLib.c **** *   uint8: one if the USB is enabled, 0 if not enabled.
 370:.\Generated_Source\PSoC5/CyLib.c **** *
 371:.\Generated_Source\PSoC5/CyLib.c **** *******************************************************************************/
 372:.\Generated_Source\PSoC5/CyLib.c **** static uint8 CyUSB_PowerOnCheck(void)  
 373:.\Generated_Source\PSoC5/CyLib.c **** {
 374:.\Generated_Source\PSoC5/CyLib.c ****     uint8 poweredOn = 0u;
ARM GAS  C:\Users\mjphi\AppData\Local\Temp\ccBvhGke.s 			page 8


 375:.\Generated_Source\PSoC5/CyLib.c **** 
 376:.\Generated_Source\PSoC5/CyLib.c ****     /* Check whether device is in Active or AltActive and if USB is powered on */
 377:.\Generated_Source\PSoC5/CyLib.c ****     if((((CY_PM_MODE_CSR_REG & CY_PM_MODE_CSR_MASK) == CY_PM_MODE_CSR_ACTIVE ) &&
 378:.\Generated_Source\PSoC5/CyLib.c ****        (0u != (CY_LIB_PM_ACT_CFG5_REG & CY_ACT_USB_ENABLED     )))  ||
 379:.\Generated_Source\PSoC5/CyLib.c ****        (((CY_PM_MODE_CSR_REG & CY_PM_MODE_CSR_MASK) == CY_PM_MODE_CSR_ALT_ACT) &&
 380:.\Generated_Source\PSoC5/CyLib.c ****        (0u != (CY_LIB_PM_STBY_CFG5_REG & CY_ALT_ACT_USB_ENABLED))))
 381:.\Generated_Source\PSoC5/CyLib.c ****     {
 382:.\Generated_Source\PSoC5/CyLib.c ****         poweredOn = 1u;
 383:.\Generated_Source\PSoC5/CyLib.c ****     }
 384:.\Generated_Source\PSoC5/CyLib.c **** 
 385:.\Generated_Source\PSoC5/CyLib.c ****     return (poweredOn);
 386:.\Generated_Source\PSoC5/CyLib.c **** }
 387:.\Generated_Source\PSoC5/CyLib.c **** 
 388:.\Generated_Source\PSoC5/CyLib.c **** 
 389:.\Generated_Source\PSoC5/CyLib.c **** /*******************************************************************************
 390:.\Generated_Source\PSoC5/CyLib.c **** * Function Name: CyIMO_SetTrimValue
 391:.\Generated_Source\PSoC5/CyLib.c **** ********************************************************************************
 392:.\Generated_Source\PSoC5/CyLib.c **** *
 393:.\Generated_Source\PSoC5/CyLib.c **** * Summary:
 394:.\Generated_Source\PSoC5/CyLib.c **** *  Sets the IMO factory trim values.
 395:.\Generated_Source\PSoC5/CyLib.c **** *
 396:.\Generated_Source\PSoC5/CyLib.c **** * Parameters:
 397:.\Generated_Source\PSoC5/CyLib.c **** *  uint8 freq - frequency for which trims must be set
 398:.\Generated_Source\PSoC5/CyLib.c **** *
 399:.\Generated_Source\PSoC5/CyLib.c **** * Return:
 400:.\Generated_Source\PSoC5/CyLib.c **** *  None
 401:.\Generated_Source\PSoC5/CyLib.c **** *
 402:.\Generated_Source\PSoC5/CyLib.c **** *******************************************************************************/
 403:.\Generated_Source\PSoC5/CyLib.c **** static void CyIMO_SetTrimValue(uint8 freq) 
 404:.\Generated_Source\PSoC5/CyLib.c **** {
  26              		.loc 1 404 0
  27              		.cfi_startproc
  28              		@ args = 0, pretend = 0, frame = 0
  29              		@ frame_needed = 0, uses_anonymous_args = 0
  30              		@ link register save eliminated.
  31              	.LVL0:
  32              	.LBB14:
  33              	.LBB15:
 377:.\Generated_Source\PSoC5/CyLib.c ****        (0u != (CY_LIB_PM_ACT_CFG5_REG & CY_ACT_USB_ENABLED     )))  ||
  34              		.loc 1 377 0
  35 0000 204B     		ldr	r3, .L19
  36 0002 1A78     		ldrb	r2, [r3]	@ zero_extendqisi2
  37 0004 5107     		lsls	r1, r2, #29
  38 0006 03D1     		bne	.L2
 378:.\Generated_Source\PSoC5/CyLib.c ****        (((CY_PM_MODE_CSR_REG & CY_PM_MODE_CSR_MASK) == CY_PM_MODE_CSR_ALT_ACT) &&
  39              		.loc 1 378 0
  40 0008 1F4A     		ldr	r2, .L19+4
  41 000a 1278     		ldrb	r2, [r2]	@ zero_extendqisi2
 377:.\Generated_Source\PSoC5/CyLib.c ****        (0u != (CY_LIB_PM_ACT_CFG5_REG & CY_ACT_USB_ENABLED     )))  ||
  42              		.loc 1 377 0
  43 000c D207     		lsls	r2, r2, #31
  44 000e 31D4     		bmi	.L3
  45              	.L2:
 379:.\Generated_Source\PSoC5/CyLib.c ****        (0u != (CY_LIB_PM_STBY_CFG5_REG & CY_ALT_ACT_USB_ENABLED))))
  46              		.loc 1 379 0
  47 0010 1B78     		ldrb	r3, [r3]	@ zero_extendqisi2
 378:.\Generated_Source\PSoC5/CyLib.c ****        (((CY_PM_MODE_CSR_REG & CY_PM_MODE_CSR_MASK) == CY_PM_MODE_CSR_ALT_ACT) &&
ARM GAS  C:\Users\mjphi\AppData\Local\Temp\ccBvhGke.s 			page 9


  48              		.loc 1 378 0
  49 0012 03F00703 		and	r3, r3, #7
  50 0016 012B     		cmp	r3, #1
  51 0018 05D1     		bne	.L15
 380:.\Generated_Source\PSoC5/CyLib.c ****     {
  52              		.loc 1 380 0
  53 001a 1C4B     		ldr	r3, .L19+8
  54 001c 1B78     		ldrb	r3, [r3]	@ zero_extendqisi2
 379:.\Generated_Source\PSoC5/CyLib.c ****        (0u != (CY_LIB_PM_STBY_CFG5_REG & CY_ALT_ACT_USB_ENABLED))))
  55              		.loc 1 379 0
  56 001e 13F00103 		ands	r3, r3, #1
  57 0022 27D1     		bne	.L3
  58 0024 00E0     		b	.L4
  59              	.L15:
 378:.\Generated_Source\PSoC5/CyLib.c ****        (((CY_PM_MODE_CSR_REG & CY_PM_MODE_CSR_MASK) == CY_PM_MODE_CSR_ALT_ACT) &&
  60              		.loc 1 378 0
  61 0026 0023     		movs	r3, #0
  62              	.LVL1:
  63              	.L4:
  64              	.LBE15:
  65              	.LBE14:
 405:.\Generated_Source\PSoC5/CyLib.c ****     uint8 usbPowerOn = CyUSB_PowerOnCheck();
 406:.\Generated_Source\PSoC5/CyLib.c **** 
 407:.\Generated_Source\PSoC5/CyLib.c ****     /* If USB is powered */
 408:.\Generated_Source\PSoC5/CyLib.c ****     if(usbPowerOn == 1u)
 409:.\Generated_Source\PSoC5/CyLib.c ****     {
 410:.\Generated_Source\PSoC5/CyLib.c ****         /* Unlock USB write */
 411:.\Generated_Source\PSoC5/CyLib.c ****         CY_LIB_USB_CR1_REG &= ((uint8)(~CY_LIB_USB_CLK_EN));
 412:.\Generated_Source\PSoC5/CyLib.c ****     }
 413:.\Generated_Source\PSoC5/CyLib.c ****     switch(freq)
  66              		.loc 1 413 0
  67 0028 0828     		cmp	r0, #8
  68 002a 2AD8     		bhi	.L1
  69 002c DFE800F0 		tbb	[pc, r0]
  70              	.L7:
  71 0030 05       		.byte	(.L6-.L7)/2
  72 0031 07       		.byte	(.L8-.L7)/2
  73 0032 09       		.byte	(.L9-.L7)/2
  74 0033 0B       		.byte	(.L10-.L7)/2
  75 0034 0D       		.byte	(.L11-.L7)/2
  76 0035 0F       		.byte	(.L12-.L7)/2
  77 0036 11       		.byte	(.L13-.L7)/2
  78 0037 29       		.byte	(.L1-.L7)/2
  79 0038 16       		.byte	(.L14-.L7)/2
  80 0039 00       		.p2align 1
  81              	.L6:
 414:.\Generated_Source\PSoC5/CyLib.c ****     {
 415:.\Generated_Source\PSoC5/CyLib.c ****     case CY_IMO_FREQ_3MHZ:
 416:.\Generated_Source\PSoC5/CyLib.c ****         CY_LIB_IMO_TR1_REG = CY_GET_XTND_REG8(CY_LIB_TRIM_IMO_3MHZ_PTR);
  82              		.loc 1 416 0
  83 003a 154B     		ldr	r3, .L19+12
  84 003c 0AE0     		b	.L17
  85              	.L8:
 417:.\Generated_Source\PSoC5/CyLib.c ****         break;
 418:.\Generated_Source\PSoC5/CyLib.c **** 
 419:.\Generated_Source\PSoC5/CyLib.c ****     case CY_IMO_FREQ_6MHZ:
 420:.\Generated_Source\PSoC5/CyLib.c ****         CY_LIB_IMO_TR1_REG = CY_GET_XTND_REG8(CY_LIB_TRIM_IMO_6MHZ_PTR);
ARM GAS  C:\Users\mjphi\AppData\Local\Temp\ccBvhGke.s 			page 10


  86              		.loc 1 420 0
  87 003e 154B     		ldr	r3, .L19+16
  88 0040 08E0     		b	.L17
  89              	.L9:
 421:.\Generated_Source\PSoC5/CyLib.c ****         break;
 422:.\Generated_Source\PSoC5/CyLib.c **** 
 423:.\Generated_Source\PSoC5/CyLib.c ****     case CY_IMO_FREQ_12MHZ:
 424:.\Generated_Source\PSoC5/CyLib.c ****         CY_LIB_IMO_TR1_REG = CY_GET_XTND_REG8(CY_LIB_TRIM_IMO_12MHZ_PTR);
  90              		.loc 1 424 0
  91 0042 154B     		ldr	r3, .L19+20
  92 0044 06E0     		b	.L17
  93              	.L10:
 425:.\Generated_Source\PSoC5/CyLib.c ****         break;
 426:.\Generated_Source\PSoC5/CyLib.c **** 
 427:.\Generated_Source\PSoC5/CyLib.c ****     case CY_IMO_FREQ_24MHZ:
 428:.\Generated_Source\PSoC5/CyLib.c ****         CY_LIB_IMO_TR1_REG = CY_GET_XTND_REG8(CY_LIB_TRIM_IMO_24MHZ_PTR);
  94              		.loc 1 428 0
  95 0046 154B     		ldr	r3, .L19+24
  96 0048 04E0     		b	.L17
  97              	.L11:
 429:.\Generated_Source\PSoC5/CyLib.c ****         break;
 430:.\Generated_Source\PSoC5/CyLib.c **** 
 431:.\Generated_Source\PSoC5/CyLib.c ****     case CY_IMO_FREQ_48MHZ:
 432:.\Generated_Source\PSoC5/CyLib.c ****         CY_LIB_IMO_TR1_REG = CY_GET_XTND_REG8(CY_LIB_TRIM_IMO_TR1_PTR);
  98              		.loc 1 432 0
  99 004a 154B     		ldr	r3, .L19+28
 100 004c 02E0     		b	.L17
 101              	.L12:
 433:.\Generated_Source\PSoC5/CyLib.c ****         break;
 434:.\Generated_Source\PSoC5/CyLib.c **** 
 435:.\Generated_Source\PSoC5/CyLib.c ****     case CY_IMO_FREQ_62MHZ:
 436:.\Generated_Source\PSoC5/CyLib.c ****         CY_LIB_IMO_TR1_REG = CY_GET_XTND_REG8(CY_LIB_TRIM_IMO_67MHZ_PTR);
 102              		.loc 1 436 0
 103 004e 154B     		ldr	r3, .L19+32
 104 0050 00E0     		b	.L17
 105              	.L13:
 437:.\Generated_Source\PSoC5/CyLib.c ****         break;
 438:.\Generated_Source\PSoC5/CyLib.c **** 
 439:.\Generated_Source\PSoC5/CyLib.c **** #if(CY_PSOC5)
 440:.\Generated_Source\PSoC5/CyLib.c ****     case CY_IMO_FREQ_74MHZ:
 441:.\Generated_Source\PSoC5/CyLib.c ****         CY_LIB_IMO_TR1_REG = CY_GET_XTND_REG8(CY_LIB_TRIM_IMO_80MHZ_PTR);
 106              		.loc 1 441 0
 107 0052 154B     		ldr	r3, .L19+36
 108              	.L17:
 109 0054 1B78     		ldrb	r3, [r3]	@ zero_extendqisi2
 110 0056 154A     		ldr	r2, .L19+40
 111 0058 DBB2     		uxtb	r3, r3
 112 005a 09E0     		b	.L16
 113              	.L14:
 442:.\Generated_Source\PSoC5/CyLib.c ****         break;
 443:.\Generated_Source\PSoC5/CyLib.c **** #endif  /* (CY_PSOC5) */
 444:.\Generated_Source\PSoC5/CyLib.c **** 
 445:.\Generated_Source\PSoC5/CyLib.c ****     case CY_IMO_FREQ_USB:
 446:.\Generated_Source\PSoC5/CyLib.c ****         CY_LIB_IMO_TR1_REG = CY_GET_XTND_REG8(CY_LIB_TRIM_IMO_USB_PTR);
 114              		.loc 1 446 0
 115 005c 144A     		ldr	r2, .L19+44
 116 005e 1349     		ldr	r1, .L19+40
ARM GAS  C:\Users\mjphi\AppData\Local\Temp\ccBvhGke.s 			page 11


 117 0060 1278     		ldrb	r2, [r2]	@ zero_extendqisi2
 118 0062 D2B2     		uxtb	r2, r2
 119 0064 0A70     		strb	r2, [r1]
 447:.\Generated_Source\PSoC5/CyLib.c **** 
 448:.\Generated_Source\PSoC5/CyLib.c ****         /* If USB is powered */
 449:.\Generated_Source\PSoC5/CyLib.c ****         if(usbPowerOn == 1u)
 120              		.loc 1 449 0
 121 0066 63B1     		cbz	r3, .L1
 450:.\Generated_Source\PSoC5/CyLib.c ****         {
 451:.\Generated_Source\PSoC5/CyLib.c ****             /* Lock USB Oscillator */
 452:.\Generated_Source\PSoC5/CyLib.c ****             CY_LIB_USB_CR1_REG |= CY_LIB_USB_CLK_EN;
 122              		.loc 1 452 0
 123 0068 124A     		ldr	r2, .L19+48
 124 006a 1378     		ldrb	r3, [r2]	@ zero_extendqisi2
 125 006c 43F00203 		orr	r3, r3, #2
 126              	.L16:
 127 0070 1370     		strb	r3, [r2]
 128 0072 7047     		bx	lr
 129              	.LVL2:
 130              	.L3:
 411:.\Generated_Source\PSoC5/CyLib.c ****     }
 131              		.loc 1 411 0
 132 0074 0F4A     		ldr	r2, .L19+48
 133 0076 1378     		ldrb	r3, [r2]	@ zero_extendqisi2
 134 0078 03F0FD03 		and	r3, r3, #253
 135 007c 1370     		strb	r3, [r2]
 136 007e 0123     		movs	r3, #1
 137 0080 D2E7     		b	.L4
 138              	.LVL3:
 139              	.L1:
 140 0082 7047     		bx	lr
 141              	.L20:
 142              		.align	2
 143              	.L19:
 144 0084 93430040 		.word	1073759123
 145 0088 A5430040 		.word	1073759141
 146 008c B5430040 		.word	1073759157
 147 0090 08010049 		.word	1224737032
 148 0094 09010049 		.word	1224737033
 149 0098 0A010049 		.word	1224737034
 150 009c 0B010049 		.word	1224737035
 151 00a0 89010049 		.word	1224737161
 152 00a4 0C010049 		.word	1224737036
 153 00a8 0D010049 		.word	1224737037
 154 00ac A1460040 		.word	1073759905
 155 00b0 0F010049 		.word	1224737039
 156 00b4 09600040 		.word	1073766409
 157              		.cfi_endproc
 158              	.LFE7:
 159              		.size	CyIMO_SetTrimValue, .-CyIMO_SetTrimValue
 160              		.section	.text.CyBusClk_Internal_SetDivider,"ax",%progbits
 161              		.align	1
 162              		.thumb
 163              		.thumb_func
 164              		.type	CyBusClk_Internal_SetDivider, %function
 165              	CyBusClk_Internal_SetDivider:
 166              	.LFB14:
ARM GAS  C:\Users\mjphi\AppData\Local\Temp\ccBvhGke.s 			page 12


 453:.\Generated_Source\PSoC5/CyLib.c ****         }
 454:.\Generated_Source\PSoC5/CyLib.c ****         break;
 455:.\Generated_Source\PSoC5/CyLib.c **** 
 456:.\Generated_Source\PSoC5/CyLib.c ****     default:
 457:.\Generated_Source\PSoC5/CyLib.c ****             CYASSERT(0u != 0u);
 458:.\Generated_Source\PSoC5/CyLib.c ****         break;
 459:.\Generated_Source\PSoC5/CyLib.c ****     }
 460:.\Generated_Source\PSoC5/CyLib.c **** 
 461:.\Generated_Source\PSoC5/CyLib.c **** }
 462:.\Generated_Source\PSoC5/CyLib.c **** 
 463:.\Generated_Source\PSoC5/CyLib.c **** 
 464:.\Generated_Source\PSoC5/CyLib.c **** /*******************************************************************************
 465:.\Generated_Source\PSoC5/CyLib.c **** * Function Name: CyIMO_SetFreq
 466:.\Generated_Source\PSoC5/CyLib.c **** ********************************************************************************
 467:.\Generated_Source\PSoC5/CyLib.c **** *
 468:.\Generated_Source\PSoC5/CyLib.c **** * Summary:
 469:.\Generated_Source\PSoC5/CyLib.c **** *  Sets the frequency of the IMO. Changes may be made while the IMO is running.
 470:.\Generated_Source\PSoC5/CyLib.c **** *
 471:.\Generated_Source\PSoC5/CyLib.c **** * Parameters:
 472:.\Generated_Source\PSoC5/CyLib.c **** *  freq: Frequency of IMO operation
 473:.\Generated_Source\PSoC5/CyLib.c **** *       CY_IMO_FREQ_3MHZ  to set  3   MHz
 474:.\Generated_Source\PSoC5/CyLib.c **** *       CY_IMO_FREQ_6MHZ  to set  6   MHz
 475:.\Generated_Source\PSoC5/CyLib.c **** *       CY_IMO_FREQ_12MHZ to set 12   MHz
 476:.\Generated_Source\PSoC5/CyLib.c **** *       CY_IMO_FREQ_24MHZ to set 24   MHz
 477:.\Generated_Source\PSoC5/CyLib.c **** *       CY_IMO_FREQ_48MHZ to set 48   MHz
 478:.\Generated_Source\PSoC5/CyLib.c **** *       CY_IMO_FREQ_62MHZ to set 62.6 MHz
 479:.\Generated_Source\PSoC5/CyLib.c **** *       CY_IMO_FREQ_74MHZ to set 74.7 MHz (not applicable for PSoC 3)
 480:.\Generated_Source\PSoC5/CyLib.c **** *       CY_IMO_FREQ_USB   to set 24   MHz (Trimmed for USB operation)
 481:.\Generated_Source\PSoC5/CyLib.c **** *
 482:.\Generated_Source\PSoC5/CyLib.c **** * Return:
 483:.\Generated_Source\PSoC5/CyLib.c **** *  None
 484:.\Generated_Source\PSoC5/CyLib.c **** *
 485:.\Generated_Source\PSoC5/CyLib.c **** * Side Effects:
 486:.\Generated_Source\PSoC5/CyLib.c **** *  If this function execution results in the CPU clock frequency increasing,
 487:.\Generated_Source\PSoC5/CyLib.c **** *  then the number of clock cycles the cache will wait before it samples data
 488:.\Generated_Source\PSoC5/CyLib.c **** *  coming back from the Flash must be adjusted by calling
 489:.\Generated_Source\PSoC5/CyLib.c **** *  CyFlash_SetWaitCycles() with an appropriate parameter. It can be optionally
 490:.\Generated_Source\PSoC5/CyLib.c **** *  called if the CPU clock frequency is lowered in order to improve the CPU
 491:.\Generated_Source\PSoC5/CyLib.c **** *  performance. See CyFlash_SetWaitCycles() description for more information.
 492:.\Generated_Source\PSoC5/CyLib.c **** *
 493:.\Generated_Source\PSoC5/CyLib.c **** *  When the USB setting is chosen, the USB clock locking circuit is enabled.
 494:.\Generated_Source\PSoC5/CyLib.c **** *  Otherwise this circuit is disabled. The USB block must be powered before
 495:.\Generated_Source\PSoC5/CyLib.c **** *  selecting the USB setting.
 496:.\Generated_Source\PSoC5/CyLib.c **** *
 497:.\Generated_Source\PSoC5/CyLib.c **** *******************************************************************************/
 498:.\Generated_Source\PSoC5/CyLib.c **** void CyIMO_SetFreq(uint8 freq) 
 499:.\Generated_Source\PSoC5/CyLib.c **** {
 500:.\Generated_Source\PSoC5/CyLib.c ****     uint8 currentFreq;
 501:.\Generated_Source\PSoC5/CyLib.c ****     uint8 nextFreq;
 502:.\Generated_Source\PSoC5/CyLib.c **** 
 503:.\Generated_Source\PSoC5/CyLib.c ****     /***************************************************************************
 504:.\Generated_Source\PSoC5/CyLib.c ****     * If the IMO frequency is changed,the Trim values must also be set
 505:.\Generated_Source\PSoC5/CyLib.c ****     * accordingly.This requires reading the current frequency. If the new
 506:.\Generated_Source\PSoC5/CyLib.c ****     * frequency is faster, then set a new trim and then change the frequency,
 507:.\Generated_Source\PSoC5/CyLib.c ****     * otherwise change the frequency and then set new trim values.
 508:.\Generated_Source\PSoC5/CyLib.c ****     ***************************************************************************/
 509:.\Generated_Source\PSoC5/CyLib.c **** 
ARM GAS  C:\Users\mjphi\AppData\Local\Temp\ccBvhGke.s 			page 13


 510:.\Generated_Source\PSoC5/CyLib.c ****     currentFreq = CY_LIB_FASTCLK_IMO_CR_REG & ((uint8)(~CY_LIB_FASTCLK_IMO_CR_RANGE_MASK));
 511:.\Generated_Source\PSoC5/CyLib.c **** 
 512:.\Generated_Source\PSoC5/CyLib.c ****     /* Check if requested frequency is USB. */
 513:.\Generated_Source\PSoC5/CyLib.c ****     nextFreq = (freq == CY_IMO_FREQ_USB) ? CY_IMO_FREQ_24MHZ : freq;
 514:.\Generated_Source\PSoC5/CyLib.c **** 
 515:.\Generated_Source\PSoC5/CyLib.c ****     switch (currentFreq)
 516:.\Generated_Source\PSoC5/CyLib.c ****     {
 517:.\Generated_Source\PSoC5/CyLib.c ****     case 0u:
 518:.\Generated_Source\PSoC5/CyLib.c ****         currentFreq = CY_IMO_FREQ_12MHZ;
 519:.\Generated_Source\PSoC5/CyLib.c ****         break;
 520:.\Generated_Source\PSoC5/CyLib.c **** 
 521:.\Generated_Source\PSoC5/CyLib.c ****     case 1u:
 522:.\Generated_Source\PSoC5/CyLib.c ****         currentFreq = CY_IMO_FREQ_6MHZ;
 523:.\Generated_Source\PSoC5/CyLib.c ****         break;
 524:.\Generated_Source\PSoC5/CyLib.c **** 
 525:.\Generated_Source\PSoC5/CyLib.c ****     case 2u:
 526:.\Generated_Source\PSoC5/CyLib.c ****         currentFreq = CY_IMO_FREQ_24MHZ;
 527:.\Generated_Source\PSoC5/CyLib.c ****         break;
 528:.\Generated_Source\PSoC5/CyLib.c **** 
 529:.\Generated_Source\PSoC5/CyLib.c ****     case 3u:
 530:.\Generated_Source\PSoC5/CyLib.c ****         currentFreq = CY_IMO_FREQ_3MHZ;
 531:.\Generated_Source\PSoC5/CyLib.c ****         break;
 532:.\Generated_Source\PSoC5/CyLib.c **** 
 533:.\Generated_Source\PSoC5/CyLib.c ****     case 4u:
 534:.\Generated_Source\PSoC5/CyLib.c ****         currentFreq = CY_IMO_FREQ_48MHZ;
 535:.\Generated_Source\PSoC5/CyLib.c ****         break;
 536:.\Generated_Source\PSoC5/CyLib.c **** 
 537:.\Generated_Source\PSoC5/CyLib.c ****     case 5u:
 538:.\Generated_Source\PSoC5/CyLib.c ****         currentFreq = CY_IMO_FREQ_62MHZ;
 539:.\Generated_Source\PSoC5/CyLib.c ****         break;
 540:.\Generated_Source\PSoC5/CyLib.c **** 
 541:.\Generated_Source\PSoC5/CyLib.c **** #if(CY_PSOC5)
 542:.\Generated_Source\PSoC5/CyLib.c ****     case 6u:
 543:.\Generated_Source\PSoC5/CyLib.c ****         currentFreq = CY_IMO_FREQ_74MHZ;
 544:.\Generated_Source\PSoC5/CyLib.c ****         break;
 545:.\Generated_Source\PSoC5/CyLib.c **** #endif  /* (CY_PSOC5) */
 546:.\Generated_Source\PSoC5/CyLib.c **** 
 547:.\Generated_Source\PSoC5/CyLib.c ****     default:
 548:.\Generated_Source\PSoC5/CyLib.c ****         CYASSERT(0u != 0u);
 549:.\Generated_Source\PSoC5/CyLib.c ****         break;
 550:.\Generated_Source\PSoC5/CyLib.c ****     }
 551:.\Generated_Source\PSoC5/CyLib.c **** 
 552:.\Generated_Source\PSoC5/CyLib.c ****     if (nextFreq >= currentFreq)
 553:.\Generated_Source\PSoC5/CyLib.c ****     {
 554:.\Generated_Source\PSoC5/CyLib.c ****         /* Set new trim first */
 555:.\Generated_Source\PSoC5/CyLib.c ****         CyIMO_SetTrimValue(freq);
 556:.\Generated_Source\PSoC5/CyLib.c ****     }
 557:.\Generated_Source\PSoC5/CyLib.c **** 
 558:.\Generated_Source\PSoC5/CyLib.c ****     /* Set usbclk_on bit when using CY_IMO_FREQ_USB, if not clear it */
 559:.\Generated_Source\PSoC5/CyLib.c ****     switch(freq)
 560:.\Generated_Source\PSoC5/CyLib.c ****     {
 561:.\Generated_Source\PSoC5/CyLib.c ****     case CY_IMO_FREQ_3MHZ:
 562:.\Generated_Source\PSoC5/CyLib.c ****         CY_LIB_FASTCLK_IMO_CR_REG = ((CY_LIB_FASTCLK_IMO_CR_REG & CY_LIB_FASTCLK_IMO_CR_RANGE_MASK)
 563:.\Generated_Source\PSoC5/CyLib.c ****             CY_LIB_IMO_3MHZ_VALUE) & ((uint8)(~CY_LIB_IMO_USBCLK_ON_SET));
 564:.\Generated_Source\PSoC5/CyLib.c ****         break;
 565:.\Generated_Source\PSoC5/CyLib.c **** 
 566:.\Generated_Source\PSoC5/CyLib.c ****     case CY_IMO_FREQ_6MHZ:
ARM GAS  C:\Users\mjphi\AppData\Local\Temp\ccBvhGke.s 			page 14


 567:.\Generated_Source\PSoC5/CyLib.c ****         CY_LIB_FASTCLK_IMO_CR_REG = ((CY_LIB_FASTCLK_IMO_CR_REG & CY_LIB_FASTCLK_IMO_CR_RANGE_MASK)
 568:.\Generated_Source\PSoC5/CyLib.c ****             CY_LIB_IMO_6MHZ_VALUE) & ((uint8)(~CY_LIB_IMO_USBCLK_ON_SET));
 569:.\Generated_Source\PSoC5/CyLib.c ****         break;
 570:.\Generated_Source\PSoC5/CyLib.c **** 
 571:.\Generated_Source\PSoC5/CyLib.c ****     case CY_IMO_FREQ_12MHZ:
 572:.\Generated_Source\PSoC5/CyLib.c ****         CY_LIB_FASTCLK_IMO_CR_REG = ((CY_LIB_FASTCLK_IMO_CR_REG & CY_LIB_FASTCLK_IMO_CR_RANGE_MASK)
 573:.\Generated_Source\PSoC5/CyLib.c ****             CY_LIB_IMO_12MHZ_VALUE) & ((uint8)(~CY_LIB_IMO_USBCLK_ON_SET));
 574:.\Generated_Source\PSoC5/CyLib.c ****         break;
 575:.\Generated_Source\PSoC5/CyLib.c **** 
 576:.\Generated_Source\PSoC5/CyLib.c ****     case CY_IMO_FREQ_24MHZ:
 577:.\Generated_Source\PSoC5/CyLib.c ****         CY_LIB_FASTCLK_IMO_CR_REG = ((CY_LIB_FASTCLK_IMO_CR_REG & CY_LIB_FASTCLK_IMO_CR_RANGE_MASK)
 578:.\Generated_Source\PSoC5/CyLib.c ****             CY_LIB_IMO_24MHZ_VALUE) & ((uint8)(~CY_LIB_IMO_USBCLK_ON_SET));
 579:.\Generated_Source\PSoC5/CyLib.c ****         break;
 580:.\Generated_Source\PSoC5/CyLib.c **** 
 581:.\Generated_Source\PSoC5/CyLib.c ****     case CY_IMO_FREQ_48MHZ:
 582:.\Generated_Source\PSoC5/CyLib.c ****         CY_LIB_FASTCLK_IMO_CR_REG = ((CY_LIB_FASTCLK_IMO_CR_REG & CY_LIB_FASTCLK_IMO_CR_RANGE_MASK)
 583:.\Generated_Source\PSoC5/CyLib.c ****             CY_LIB_IMO_48MHZ_VALUE) & ((uint8)(~CY_LIB_IMO_USBCLK_ON_SET));
 584:.\Generated_Source\PSoC5/CyLib.c ****         break;
 585:.\Generated_Source\PSoC5/CyLib.c **** 
 586:.\Generated_Source\PSoC5/CyLib.c ****     case CY_IMO_FREQ_62MHZ:
 587:.\Generated_Source\PSoC5/CyLib.c ****         CY_LIB_FASTCLK_IMO_CR_REG = ((CY_LIB_FASTCLK_IMO_CR_REG & CY_LIB_FASTCLK_IMO_CR_RANGE_MASK)
 588:.\Generated_Source\PSoC5/CyLib.c ****             CY_LIB_IMO_62MHZ_VALUE) & ((uint8)(~CY_LIB_IMO_USBCLK_ON_SET));
 589:.\Generated_Source\PSoC5/CyLib.c ****         break;
 590:.\Generated_Source\PSoC5/CyLib.c **** 
 591:.\Generated_Source\PSoC5/CyLib.c **** #if(CY_PSOC5)
 592:.\Generated_Source\PSoC5/CyLib.c ****     case CY_IMO_FREQ_74MHZ:
 593:.\Generated_Source\PSoC5/CyLib.c ****         CY_LIB_FASTCLK_IMO_CR_REG = ((CY_LIB_FASTCLK_IMO_CR_REG & CY_LIB_FASTCLK_IMO_CR_RANGE_MASK)
 594:.\Generated_Source\PSoC5/CyLib.c ****             CY_LIB_IMO_74MHZ_VALUE) & ((uint8)(~CY_LIB_IMO_USBCLK_ON_SET));
 595:.\Generated_Source\PSoC5/CyLib.c ****         break;
 596:.\Generated_Source\PSoC5/CyLib.c **** #endif  /* (CY_PSOC5) */
 597:.\Generated_Source\PSoC5/CyLib.c **** 
 598:.\Generated_Source\PSoC5/CyLib.c ****     case CY_IMO_FREQ_USB:
 599:.\Generated_Source\PSoC5/CyLib.c ****         CY_LIB_FASTCLK_IMO_CR_REG = ((CY_LIB_FASTCLK_IMO_CR_REG & CY_LIB_FASTCLK_IMO_CR_RANGE_MASK)
 600:.\Generated_Source\PSoC5/CyLib.c ****             CY_LIB_IMO_24MHZ_VALUE) | CY_LIB_IMO_USBCLK_ON_SET;
 601:.\Generated_Source\PSoC5/CyLib.c ****         break;
 602:.\Generated_Source\PSoC5/CyLib.c **** 
 603:.\Generated_Source\PSoC5/CyLib.c ****     default:
 604:.\Generated_Source\PSoC5/CyLib.c ****         CYASSERT(0u != 0u);
 605:.\Generated_Source\PSoC5/CyLib.c ****         break;
 606:.\Generated_Source\PSoC5/CyLib.c ****     }
 607:.\Generated_Source\PSoC5/CyLib.c **** 
 608:.\Generated_Source\PSoC5/CyLib.c ****     /* Tu rn onIMO Doubler, if switching to CY_IMO_FREQ_USB */
 609:.\Generated_Source\PSoC5/CyLib.c ****     if (freq == CY_IMO_FREQ_USB)
 610:.\Generated_Source\PSoC5/CyLib.c ****     {
 611:.\Generated_Source\PSoC5/CyLib.c ****         CyIMO_EnableDoubler();
 612:.\Generated_Source\PSoC5/CyLib.c ****     }
 613:.\Generated_Source\PSoC5/CyLib.c ****     else
 614:.\Generated_Source\PSoC5/CyLib.c ****     {
 615:.\Generated_Source\PSoC5/CyLib.c ****         CyIMO_DisableDoubler();
 616:.\Generated_Source\PSoC5/CyLib.c ****     }
 617:.\Generated_Source\PSoC5/CyLib.c **** 
 618:.\Generated_Source\PSoC5/CyLib.c ****     if (nextFreq < currentFreq)
 619:.\Generated_Source\PSoC5/CyLib.c ****     {
 620:.\Generated_Source\PSoC5/CyLib.c ****         /* Set the trim after setting frequency */
 621:.\Generated_Source\PSoC5/CyLib.c ****         CyIMO_SetTrimValue(freq);
 622:.\Generated_Source\PSoC5/CyLib.c ****     }
 623:.\Generated_Source\PSoC5/CyLib.c **** }
ARM GAS  C:\Users\mjphi\AppData\Local\Temp\ccBvhGke.s 			page 15


 624:.\Generated_Source\PSoC5/CyLib.c **** 
 625:.\Generated_Source\PSoC5/CyLib.c **** 
 626:.\Generated_Source\PSoC5/CyLib.c **** /*******************************************************************************
 627:.\Generated_Source\PSoC5/CyLib.c **** * Function Name: CyIMO_SetSource
 628:.\Generated_Source\PSoC5/CyLib.c **** ********************************************************************************
 629:.\Generated_Source\PSoC5/CyLib.c **** *
 630:.\Generated_Source\PSoC5/CyLib.c **** * Summary:
 631:.\Generated_Source\PSoC5/CyLib.c **** *  Sets the source of the clock output from the IMO block.
 632:.\Generated_Source\PSoC5/CyLib.c **** *
 633:.\Generated_Source\PSoC5/CyLib.c **** *  The output from the IMO is by default the IMO itself. Optionally the MHz
 634:.\Generated_Source\PSoC5/CyLib.c **** *  Crystal or DSI input can be the source of the IMO output instead.
 635:.\Generated_Source\PSoC5/CyLib.c **** *
 636:.\Generated_Source\PSoC5/CyLib.c **** * Parameters:
 637:.\Generated_Source\PSoC5/CyLib.c **** *   source: CY_IMO_SOURCE_DSI to set the DSI as source.
 638:.\Generated_Source\PSoC5/CyLib.c **** *           CY_IMO_SOURCE_XTAL to set the MHz as source.
 639:.\Generated_Source\PSoC5/CyLib.c **** *           CY_IMO_SOURCE_IMO to set the IMO itself.
 640:.\Generated_Source\PSoC5/CyLib.c **** *
 641:.\Generated_Source\PSoC5/CyLib.c **** * Return:
 642:.\Generated_Source\PSoC5/CyLib.c **** *  None
 643:.\Generated_Source\PSoC5/CyLib.c **** *
 644:.\Generated_Source\PSoC5/CyLib.c **** * Side Effects:
 645:.\Generated_Source\PSoC5/CyLib.c **** *  If this function execution resulted in the CPU clock frequency increasing,
 646:.\Generated_Source\PSoC5/CyLib.c **** *  then the number of clock cycles the cache will wait before it samples data
 647:.\Generated_Source\PSoC5/CyLib.c **** *  coming back from the Flash must be adjusted by calling
 648:.\Generated_Source\PSoC5/CyLib.c **** *  CyFlash_SetWaitCycles() with an appropriate parameter. It can be optionally
 649:.\Generated_Source\PSoC5/CyLib.c **** *  called if the CPU clock frequency is lowered in order to improve the CPU
 650:.\Generated_Source\PSoC5/CyLib.c **** *  performance. See CyFlash_SetWaitCycles() description for more information.
 651:.\Generated_Source\PSoC5/CyLib.c **** *
 652:.\Generated_Source\PSoC5/CyLib.c **** *******************************************************************************/
 653:.\Generated_Source\PSoC5/CyLib.c **** void CyIMO_SetSource(uint8 source) 
 654:.\Generated_Source\PSoC5/CyLib.c **** {
 655:.\Generated_Source\PSoC5/CyLib.c ****     switch(source)
 656:.\Generated_Source\PSoC5/CyLib.c ****     {
 657:.\Generated_Source\PSoC5/CyLib.c ****     case CY_IMO_SOURCE_DSI:
 658:.\Generated_Source\PSoC5/CyLib.c ****         CY_LIB_CLKDIST_CR_REG     &= ((uint8)(~CY_LIB_CLKDIST_CR_IMO2X));
 659:.\Generated_Source\PSoC5/CyLib.c ****         CY_LIB_FASTCLK_IMO_CR_REG |= CY_LIB_FASTCLK_IMO_IMO;
 660:.\Generated_Source\PSoC5/CyLib.c ****         break;
 661:.\Generated_Source\PSoC5/CyLib.c **** 
 662:.\Generated_Source\PSoC5/CyLib.c ****     case CY_IMO_SOURCE_XTAL:
 663:.\Generated_Source\PSoC5/CyLib.c ****         CY_LIB_CLKDIST_CR_REG     |= CY_LIB_CLKDIST_CR_IMO2X;
 664:.\Generated_Source\PSoC5/CyLib.c ****         CY_LIB_FASTCLK_IMO_CR_REG |= CY_LIB_FASTCLK_IMO_IMO;
 665:.\Generated_Source\PSoC5/CyLib.c ****         break;
 666:.\Generated_Source\PSoC5/CyLib.c **** 
 667:.\Generated_Source\PSoC5/CyLib.c ****     case CY_IMO_SOURCE_IMO:
 668:.\Generated_Source\PSoC5/CyLib.c ****         CY_LIB_FASTCLK_IMO_CR_REG &= ((uint8)(~CY_LIB_FASTCLK_IMO_IMO));
 669:.\Generated_Source\PSoC5/CyLib.c ****         break;
 670:.\Generated_Source\PSoC5/CyLib.c **** 
 671:.\Generated_Source\PSoC5/CyLib.c ****     default:
 672:.\Generated_Source\PSoC5/CyLib.c ****         /* Incorrect source value */
 673:.\Generated_Source\PSoC5/CyLib.c ****         CYASSERT(0u != 0u);
 674:.\Generated_Source\PSoC5/CyLib.c ****         break;
 675:.\Generated_Source\PSoC5/CyLib.c ****     }
 676:.\Generated_Source\PSoC5/CyLib.c **** }
 677:.\Generated_Source\PSoC5/CyLib.c **** 
 678:.\Generated_Source\PSoC5/CyLib.c **** 
 679:.\Generated_Source\PSoC5/CyLib.c **** /*******************************************************************************
 680:.\Generated_Source\PSoC5/CyLib.c **** * Function Name: CyIMO_EnableDoubler
ARM GAS  C:\Users\mjphi\AppData\Local\Temp\ccBvhGke.s 			page 16


 681:.\Generated_Source\PSoC5/CyLib.c **** ********************************************************************************
 682:.\Generated_Source\PSoC5/CyLib.c **** *
 683:.\Generated_Source\PSoC5/CyLib.c **** * Summary:
 684:.\Generated_Source\PSoC5/CyLib.c **** *  Enables the IMO doubler.  The 2x frequency clock is used to convert a 24 MHz
 685:.\Generated_Source\PSoC5/CyLib.c **** *  input to a 48 MHz output for use by the USB block.
 686:.\Generated_Source\PSoC5/CyLib.c **** *
 687:.\Generated_Source\PSoC5/CyLib.c **** * Parameters:
 688:.\Generated_Source\PSoC5/CyLib.c **** *  None
 689:.\Generated_Source\PSoC5/CyLib.c **** *
 690:.\Generated_Source\PSoC5/CyLib.c **** * Return:
 691:.\Generated_Source\PSoC5/CyLib.c **** *  None
 692:.\Generated_Source\PSoC5/CyLib.c **** *
 693:.\Generated_Source\PSoC5/CyLib.c **** *******************************************************************************/
 694:.\Generated_Source\PSoC5/CyLib.c **** void CyIMO_EnableDoubler(void) 
 695:.\Generated_Source\PSoC5/CyLib.c **** {
 696:.\Generated_Source\PSoC5/CyLib.c ****     /* Set FASTCLK_IMO_CR_PTR regigster's 4th bit */
 697:.\Generated_Source\PSoC5/CyLib.c ****     CY_LIB_FASTCLK_IMO_CR_REG |= CY_LIB_FASTCLK_IMO_DOUBLER;
 698:.\Generated_Source\PSoC5/CyLib.c **** }
 699:.\Generated_Source\PSoC5/CyLib.c **** 
 700:.\Generated_Source\PSoC5/CyLib.c **** 
 701:.\Generated_Source\PSoC5/CyLib.c **** /*******************************************************************************
 702:.\Generated_Source\PSoC5/CyLib.c **** * Function Name: CyIMO_DisableDoubler
 703:.\Generated_Source\PSoC5/CyLib.c **** ********************************************************************************
 704:.\Generated_Source\PSoC5/CyLib.c **** *
 705:.\Generated_Source\PSoC5/CyLib.c **** * Summary:
 706:.\Generated_Source\PSoC5/CyLib.c **** *   Disables the IMO doubler.
 707:.\Generated_Source\PSoC5/CyLib.c **** *
 708:.\Generated_Source\PSoC5/CyLib.c **** * Parameters:
 709:.\Generated_Source\PSoC5/CyLib.c **** *  None
 710:.\Generated_Source\PSoC5/CyLib.c **** *
 711:.\Generated_Source\PSoC5/CyLib.c **** * Return:
 712:.\Generated_Source\PSoC5/CyLib.c **** *  None
 713:.\Generated_Source\PSoC5/CyLib.c **** *
 714:.\Generated_Source\PSoC5/CyLib.c **** *******************************************************************************/
 715:.\Generated_Source\PSoC5/CyLib.c **** void CyIMO_DisableDoubler(void) 
 716:.\Generated_Source\PSoC5/CyLib.c **** {
 717:.\Generated_Source\PSoC5/CyLib.c ****     CY_LIB_FASTCLK_IMO_CR_REG &= ((uint8)(~CY_LIB_FASTCLK_IMO_DOUBLER));
 718:.\Generated_Source\PSoC5/CyLib.c **** }
 719:.\Generated_Source\PSoC5/CyLib.c **** 
 720:.\Generated_Source\PSoC5/CyLib.c **** 
 721:.\Generated_Source\PSoC5/CyLib.c **** /*******************************************************************************
 722:.\Generated_Source\PSoC5/CyLib.c **** * Function Name: CyMasterClk_SetSource
 723:.\Generated_Source\PSoC5/CyLib.c **** ********************************************************************************
 724:.\Generated_Source\PSoC5/CyLib.c **** *
 725:.\Generated_Source\PSoC5/CyLib.c **** * Summary:
 726:.\Generated_Source\PSoC5/CyLib.c **** *  Sets the source of the master clock.
 727:.\Generated_Source\PSoC5/CyLib.c **** *
 728:.\Generated_Source\PSoC5/CyLib.c **** * Parameters:
 729:.\Generated_Source\PSoC5/CyLib.c **** *   source: One of the four available Master clock sources.
 730:.\Generated_Source\PSoC5/CyLib.c **** *     CY_MASTER_SOURCE_IMO
 731:.\Generated_Source\PSoC5/CyLib.c **** *     CY_MASTER_SOURCE_PLL
 732:.\Generated_Source\PSoC5/CyLib.c **** *     CY_MASTER_SOURCE_XTAL
 733:.\Generated_Source\PSoC5/CyLib.c **** *     CY_MASTER_SOURCE_DSI
 734:.\Generated_Source\PSoC5/CyLib.c **** *
 735:.\Generated_Source\PSoC5/CyLib.c **** * Return:
 736:.\Generated_Source\PSoC5/CyLib.c **** *  None
 737:.\Generated_Source\PSoC5/CyLib.c **** *
ARM GAS  C:\Users\mjphi\AppData\Local\Temp\ccBvhGke.s 			page 17


 738:.\Generated_Source\PSoC5/CyLib.c **** * Side Effects:
 739:.\Generated_Source\PSoC5/CyLib.c **** *  The current source and the new source must both be running and stable before
 740:.\Generated_Source\PSoC5/CyLib.c **** *  calling this function.
 741:.\Generated_Source\PSoC5/CyLib.c **** *
 742:.\Generated_Source\PSoC5/CyLib.c **** *  If this function execution resulted in the CPU clock frequency increasing,
 743:.\Generated_Source\PSoC5/CyLib.c **** *  then the number of clock cycles the cache will wait before it samples data
 744:.\Generated_Source\PSoC5/CyLib.c **** *  coming back from the Flash must be adjusted by calling
 745:.\Generated_Source\PSoC5/CyLib.c **** *  CyFlash_SetWaitCycles() with an appropriate parameter. It can be optionally
 746:.\Generated_Source\PSoC5/CyLib.c **** *  called if the CPU clock frequency is lowered in order to improve the CPU
 747:.\Generated_Source\PSoC5/CyLib.c **** *  performance. See CyFlash_SetWaitCycles() description for more information.
 748:.\Generated_Source\PSoC5/CyLib.c **** *
 749:.\Generated_Source\PSoC5/CyLib.c **** *******************************************************************************/
 750:.\Generated_Source\PSoC5/CyLib.c **** void CyMasterClk_SetSource(uint8 source) 
 751:.\Generated_Source\PSoC5/CyLib.c **** {
 752:.\Generated_Source\PSoC5/CyLib.c ****     CY_LIB_CLKDIST_MSTR1_REG = (CY_LIB_CLKDIST_MSTR1_REG & MASTER_CLK_SRC_CLEAR) |
 753:.\Generated_Source\PSoC5/CyLib.c ****                                 (source & ((uint8)(~MASTER_CLK_SRC_CLEAR)));
 754:.\Generated_Source\PSoC5/CyLib.c **** }
 755:.\Generated_Source\PSoC5/CyLib.c **** 
 756:.\Generated_Source\PSoC5/CyLib.c **** 
 757:.\Generated_Source\PSoC5/CyLib.c **** /*******************************************************************************
 758:.\Generated_Source\PSoC5/CyLib.c **** * Function Name: CyMasterClk_SetDivider
 759:.\Generated_Source\PSoC5/CyLib.c **** ********************************************************************************
 760:.\Generated_Source\PSoC5/CyLib.c **** *
 761:.\Generated_Source\PSoC5/CyLib.c **** * Summary:
 762:.\Generated_Source\PSoC5/CyLib.c **** *  Sets the divider value used to generate Master Clock.
 763:.\Generated_Source\PSoC5/CyLib.c **** *
 764:.\Generated_Source\PSoC5/CyLib.c **** * Parameters:
 765:.\Generated_Source\PSoC5/CyLib.c **** *  uint8 divider:
 766:.\Generated_Source\PSoC5/CyLib.c **** *   The valid range is [0-255]. The clock will be divided by this value + 1.
 767:.\Generated_Source\PSoC5/CyLib.c **** *   For example to divide this parameter by two should be set to 1.
 768:.\Generated_Source\PSoC5/CyLib.c **** *
 769:.\Generated_Source\PSoC5/CyLib.c **** * Return:
 770:.\Generated_Source\PSoC5/CyLib.c **** *  None
 771:.\Generated_Source\PSoC5/CyLib.c **** *
 772:.\Generated_Source\PSoC5/CyLib.c **** * Side Effects:
 773:.\Generated_Source\PSoC5/CyLib.c **** *  If this function execution resulted in the CPU clock frequency increasing,
 774:.\Generated_Source\PSoC5/CyLib.c **** *  then the number of clock cycles the cache will wait before it samples data
 775:.\Generated_Source\PSoC5/CyLib.c **** *  coming back from the Flash must be adjusted by calling
 776:.\Generated_Source\PSoC5/CyLib.c **** *  CyFlash_SetWaitCycles() with an appropriate parameter. It can be optionally
 777:.\Generated_Source\PSoC5/CyLib.c **** *  called if the CPU clock frequency is lowered in order to improve the CPU
 778:.\Generated_Source\PSoC5/CyLib.c **** *  performance. See CyFlash_SetWaitCycles() description for more information.
 779:.\Generated_Source\PSoC5/CyLib.c **** *
 780:.\Generated_Source\PSoC5/CyLib.c **** *  When changing the Master or Bus clock divider value from div-by-n to div-by-1
 781:.\Generated_Source\PSoC5/CyLib.c **** *  the first clock cycle output after the div-by-1 can be up to 4 ns shorter
 782:.\Generated_Source\PSoC5/CyLib.c **** *  than the final/expected div-by-1 period.
 783:.\Generated_Source\PSoC5/CyLib.c **** *
 784:.\Generated_Source\PSoC5/CyLib.c **** *******************************************************************************/
 785:.\Generated_Source\PSoC5/CyLib.c **** void CyMasterClk_SetDivider(uint8 divider) 
 786:.\Generated_Source\PSoC5/CyLib.c **** {
 787:.\Generated_Source\PSoC5/CyLib.c ****     CY_LIB_CLKDIST_MSTR0_REG = divider;
 788:.\Generated_Source\PSoC5/CyLib.c **** }
 789:.\Generated_Source\PSoC5/CyLib.c **** 
 790:.\Generated_Source\PSoC5/CyLib.c **** 
 791:.\Generated_Source\PSoC5/CyLib.c **** /*******************************************************************************
 792:.\Generated_Source\PSoC5/CyLib.c **** * Function Name: CyBusClk_Internal_SetDivider
 793:.\Generated_Source\PSoC5/CyLib.c **** ********************************************************************************
 794:.\Generated_Source\PSoC5/CyLib.c **** *
ARM GAS  C:\Users\mjphi\AppData\Local\Temp\ccBvhGke.s 			page 18


 795:.\Generated_Source\PSoC5/CyLib.c **** * Summary:
 796:.\Generated_Source\PSoC5/CyLib.c **** *  The function used by CyBusClk_SetDivider(). For internal use only.
 797:.\Generated_Source\PSoC5/CyLib.c **** *
 798:.\Generated_Source\PSoC5/CyLib.c **** * Parameters:
 799:.\Generated_Source\PSoC5/CyLib.c **** *   divider: Valid range [0-65535].
 800:.\Generated_Source\PSoC5/CyLib.c **** *   The clock will be divided by this value + 1.
 801:.\Generated_Source\PSoC5/CyLib.c **** *   For example, to divide this parameter by two should be set to 1.
 802:.\Generated_Source\PSoC5/CyLib.c **** *
 803:.\Generated_Source\PSoC5/CyLib.c **** * Return:
 804:.\Generated_Source\PSoC5/CyLib.c **** *  None
 805:.\Generated_Source\PSoC5/CyLib.c **** *
 806:.\Generated_Source\PSoC5/CyLib.c **** *******************************************************************************/
 807:.\Generated_Source\PSoC5/CyLib.c **** static void CyBusClk_Internal_SetDivider(uint16 divider)
 808:.\Generated_Source\PSoC5/CyLib.c **** {
 167              		.loc 1 808 0
 168              		.cfi_startproc
 169              		@ args = 0, pretend = 0, frame = 0
 170              		@ frame_needed = 0, uses_anonymous_args = 0
 171              		@ link register save eliminated.
 172              	.LVL4:
 809:.\Generated_Source\PSoC5/CyLib.c ****     /* Mask bits to enable shadow loads  */
 810:.\Generated_Source\PSoC5/CyLib.c ****     CY_LIB_CLKDIST_AMASK_REG &= CY_LIB_CLKDIST_AMASK_MASK;
 173              		.loc 1 810 0
 174 0000 0B4A     		ldr	r2, .L22
 175 0002 1378     		ldrb	r3, [r2]	@ zero_extendqisi2
 176 0004 03F0F003 		and	r3, r3, #240
 177 0008 1370     		strb	r3, [r2]
 811:.\Generated_Source\PSoC5/CyLib.c ****     CY_LIB_CLKDIST_DMASK_REG  = CY_LIB_CLKDIST_DMASK_MASK;
 178              		.loc 1 811 0
 179 000a 0A4B     		ldr	r3, .L22+4
 180 000c 0022     		movs	r2, #0
 181 000e 1A70     		strb	r2, [r3]
 812:.\Generated_Source\PSoC5/CyLib.c **** 
 813:.\Generated_Source\PSoC5/CyLib.c ****     /* Enable mask bits to enable shadow loads */
 814:.\Generated_Source\PSoC5/CyLib.c ****     CY_LIB_CLKDIST_BCFG2_REG |= CY_LIB_CLKDIST_BCFG2_MASK;
 182              		.loc 1 814 0
 183 0010 094A     		ldr	r2, .L22+8
 184 0012 1378     		ldrb	r3, [r2]	@ zero_extendqisi2
 185 0014 43F08003 		orr	r3, r3, #128
 186 0018 1370     		strb	r3, [r2]
 815:.\Generated_Source\PSoC5/CyLib.c **** 
 816:.\Generated_Source\PSoC5/CyLib.c ****     /* Update Shadow Divider Value Register with new divider */
 817:.\Generated_Source\PSoC5/CyLib.c ****     CY_LIB_CLKDIST_WRK_LSB_REG = LO8(divider);
 187              		.loc 1 817 0
 188 001a 084B     		ldr	r3, .L22+12
 189 001c C2B2     		uxtb	r2, r0
 190 001e 1A70     		strb	r2, [r3]
 818:.\Generated_Source\PSoC5/CyLib.c ****     CY_LIB_CLKDIST_WRK_MSB_REG = HI8(divider);
 191              		.loc 1 818 0
 192 0020 000A     		lsrs	r0, r0, #8
 193              	.LVL5:
 819:.\Generated_Source\PSoC5/CyLib.c **** 
 820:.\Generated_Source\PSoC5/CyLib.c **** 
 821:.\Generated_Source\PSoC5/CyLib.c ****     /***************************************************************************
 822:.\Generated_Source\PSoC5/CyLib.c ****     * Copy shadow value defined in Shadow Divider Value Register
 823:.\Generated_Source\PSoC5/CyLib.c ****     * (CY_LIB_CLKDIST_WRK_LSB_REG and CY_LIB_CLKDIST_WRK_MSB_REG) to all
 824:.\Generated_Source\PSoC5/CyLib.c ****     * dividers selected in Analog and Digital Clock Mask Registers
ARM GAS  C:\Users\mjphi\AppData\Local\Temp\ccBvhGke.s 			page 19


 825:.\Generated_Source\PSoC5/CyLib.c ****     * (CY_LIB_CLKDIST_AMASK_REG and CY_LIB_CLKDIST_DMASK_REG).
 826:.\Generated_Source\PSoC5/CyLib.c ****     ***************************************************************************/
 827:.\Generated_Source\PSoC5/CyLib.c ****     CY_LIB_CLKDIST_LD_REG |= CY_LIB_CLKDIST_LD_LOAD;
 194              		.loc 1 827 0
 195 0022 074A     		ldr	r2, .L22+16
 818:.\Generated_Source\PSoC5/CyLib.c ****     CY_LIB_CLKDIST_WRK_MSB_REG = HI8(divider);
 196              		.loc 1 818 0
 197 0024 5870     		strb	r0, [r3, #1]
 198              		.loc 1 827 0
 199 0026 1378     		ldrb	r3, [r2]	@ zero_extendqisi2
 200 0028 43F00103 		orr	r3, r3, #1
 201 002c 1370     		strb	r3, [r2]
 202 002e 7047     		bx	lr
 203              	.L23:
 204              		.align	2
 205              	.L22:
 206 0030 14400040 		.word	1073758228
 207 0034 10400040 		.word	1073758224
 208 0038 08400040 		.word	1073758216
 209 003c 02400040 		.word	1073758210
 210 0040 01400040 		.word	1073758209
 211              		.cfi_endproc
 212              	.LFE14:
 213              		.size	CyBusClk_Internal_SetDivider, .-CyBusClk_Internal_SetDivider
 214              		.section	.text.CyPLL_OUT_Stop,"ax",%progbits
 215              		.align	1
 216              		.global	CyPLL_OUT_Stop
 217              		.thumb
 218              		.thumb_func
 219              		.type	CyPLL_OUT_Stop, %function
 220              	CyPLL_OUT_Stop:
 221              	.LFB1:
 160:.\Generated_Source\PSoC5/CyLib.c ****     CY_CLK_PLL_CFG0_REG &= ((uint8)(~CY_CLK_PLL_ENABLE));
 222              		.loc 1 160 0
 223              		.cfi_startproc
 224              		@ args = 0, pretend = 0, frame = 0
 225              		@ frame_needed = 0, uses_anonymous_args = 0
 226              		@ link register save eliminated.
 161:.\Generated_Source\PSoC5/CyLib.c **** }
 227              		.loc 1 161 0
 228 0000 024A     		ldr	r2, .L25
 229 0002 1378     		ldrb	r3, [r2]	@ zero_extendqisi2
 230 0004 03F0FE03 		and	r3, r3, #254
 231 0008 1370     		strb	r3, [r2]
 232 000a 7047     		bx	lr
 233              	.L26:
 234              		.align	2
 235              	.L25:
 236 000c 20420040 		.word	1073758752
 237              		.cfi_endproc
 238              	.LFE1:
 239              		.size	CyPLL_OUT_Stop, .-CyPLL_OUT_Stop
 240              		.section	.text.CyPLL_OUT_SetPQ,"ax",%progbits
 241              		.align	1
 242              		.global	CyPLL_OUT_SetPQ
 243              		.thumb
 244              		.thumb_func
ARM GAS  C:\Users\mjphi\AppData\Local\Temp\ccBvhGke.s 			page 20


 245              		.type	CyPLL_OUT_SetPQ, %function
 246              	CyPLL_OUT_SetPQ:
 247              	.LFB2:
 198:.\Generated_Source\PSoC5/CyLib.c ****     /* Halt CPU in debug mode if PLL is enabled */
 248              		.loc 1 198 0
 249              		.cfi_startproc
 250              		@ args = 0, pretend = 0, frame = 0
 251              		@ frame_needed = 0, uses_anonymous_args = 0
 252              		@ link register save eliminated.
 253              	.LVL6:
 202:.\Generated_Source\PSoC5/CyLib.c ****        (qDiv    <= CY_CLK_PLL_MAX_Q_VALUE  ) && (qDiv    >= CY_CLK_PLL_MIN_Q_VALUE  ) &&
 254              		.loc 1 202 0
 255 0000 0728     		cmp	r0, #7
 256 0002 12D9     		bls	.L27
 203:.\Generated_Source\PSoC5/CyLib.c ****        (current >= CY_CLK_PLL_MIN_CUR_VALUE) && (current <= CY_CLK_PLL_MAX_CUR_VALUE))
 257              		.loc 1 203 0
 258 0004 0139     		subs	r1, r1, #1
 259              	.LVL7:
 260 0006 C9B2     		uxtb	r1, r1
 261 0008 0F29     		cmp	r1, #15
 262 000a 0ED8     		bhi	.L27
 203:.\Generated_Source\PSoC5/CyLib.c ****        (current >= CY_CLK_PLL_MIN_CUR_VALUE) && (current <= CY_CLK_PLL_MAX_CUR_VALUE))
 263              		.loc 1 203 0 is_stmt 0 discriminator 1
 264 000c 531E     		subs	r3, r2, #1
 265 000e DAB2     		uxtb	r2, r3
 266              	.LVL8:
 267 0010 062A     		cmp	r2, #6
 268 0012 0AD8     		bhi	.L27
 207:.\Generated_Source\PSoC5/CyLib.c ****         CY_CLK_PLL_Q_REG = ((uint8)(qDiv - 1u));
 269              		.loc 1 207 0 is_stmt 1
 270 0014 054B     		ldr	r3, .L29
 271 0016 1870     		strb	r0, [r3]
 208:.\Generated_Source\PSoC5/CyLib.c ****         CY_CLK_PLL_CFG1_REG = (CY_CLK_PLL_CFG1_REG & CY_CLK_PLL_CURRENT_MASK) |
 272              		.loc 1 208 0
 273 0018 5970     		strb	r1, [r3, #1]
 209:.\Generated_Source\PSoC5/CyLib.c ****                                 ((uint8)(((uint8)(current - 1u)) << CY_CLK_PLL_CURRENT_POSITION));
 274              		.loc 1 209 0
 275 001a 0549     		ldr	r1, .L29+4
 276 001c 0B78     		ldrb	r3, [r1]	@ zero_extendqisi2
 277 001e 03F08F03 		and	r3, r3, #143
 278 0022 43EA0213 		orr	r3, r3, r2, lsl #4
 279 0026 DBB2     		uxtb	r3, r3
 280 0028 0B70     		strb	r3, [r1]
 281              	.L27:
 282 002a 7047     		bx	lr
 283              	.L30:
 284              		.align	2
 285              	.L29:
 286 002c 22420040 		.word	1073758754
 287 0030 21420040 		.word	1073758753
 288              		.cfi_endproc
 289              	.LFE2:
 290              		.size	CyPLL_OUT_SetPQ, .-CyPLL_OUT_SetPQ
 291              		.section	.text.CyPLL_OUT_SetSource,"ax",%progbits
 292              		.align	1
 293              		.global	CyPLL_OUT_SetSource
 294              		.thumb
ARM GAS  C:\Users\mjphi\AppData\Local\Temp\ccBvhGke.s 			page 21


 295              		.thumb_func
 296              		.type	CyPLL_OUT_SetSource, %function
 297              	CyPLL_OUT_SetSource:
 298              	.LFB3:
 253:.\Generated_Source\PSoC5/CyLib.c ****     /* Halt CPU in debug mode if PLL is enabled */
 299              		.loc 1 253 0
 300              		.cfi_startproc
 301              		@ args = 0, pretend = 0, frame = 0
 302              		@ frame_needed = 0, uses_anonymous_args = 0
 303              		@ link register save eliminated.
 304              	.LVL9:
 257:.\Generated_Source\PSoC5/CyLib.c ****     {
 305              		.loc 1 257 0
 306 0000 0228     		cmp	r0, #2
 262:.\Generated_Source\PSoC5/CyLib.c ****         break;
 307              		.loc 1 262 0
 308 0002 9FBF     		itttt	ls
 309 0004 4FF04022 		movls	r2, #1073758208
 310 0008 1378     		ldrbls	r3, [r2]	@ zero_extendqisi2
 311 000a 03F0FC03 		andls	r3, r3, #252
 312 000e 1843     		orrls	r0, r0, r3
 313              	.LVL10:
 314 0010 98BF     		it	ls
 315 0012 1070     		strbls	r0, [r2]
 316 0014 7047     		bx	lr
 317              		.cfi_endproc
 318              	.LFE3:
 319              		.size	CyPLL_OUT_SetSource, .-CyPLL_OUT_SetSource
 320              		.section	.text.CyIMO_Stop,"ax",%progbits
 321              		.align	1
 322              		.global	CyIMO_Stop
 323              		.thumb
 324              		.thumb_func
 325              		.type	CyIMO_Stop, %function
 326              	CyIMO_Stop:
 327              	.LFB5:
 352:.\Generated_Source\PSoC5/CyLib.c ****     CY_LIB_PM_ACT_CFG0_REG  &= ((uint8) (~CY_LIB_PM_ACT_CFG0_IMO_EN));
 328              		.loc 1 352 0
 329              		.cfi_startproc
 330              		@ args = 0, pretend = 0, frame = 0
 331              		@ frame_needed = 0, uses_anonymous_args = 0
 332              		@ link register save eliminated.
 353:.\Generated_Source\PSoC5/CyLib.c ****     CY_LIB_PM_STBY_CFG0_REG &= ((uint8) (~CY_LIB_PM_STBY_CFG0_IMO_EN));
 333              		.loc 1 353 0
 334 0000 044A     		ldr	r2, .L35
 335 0002 1378     		ldrb	r3, [r2]	@ zero_extendqisi2
 336 0004 03F0EF03 		and	r3, r3, #239
 337 0008 1370     		strb	r3, [r2]
 354:.\Generated_Source\PSoC5/CyLib.c **** }
 338              		.loc 1 354 0
 339 000a 137C     		ldrb	r3, [r2, #16]	@ zero_extendqisi2
 340 000c 03F0EF03 		and	r3, r3, #239
 341 0010 1374     		strb	r3, [r2, #16]
 342 0012 7047     		bx	lr
 343              	.L36:
 344              		.align	2
 345              	.L35:
ARM GAS  C:\Users\mjphi\AppData\Local\Temp\ccBvhGke.s 			page 22


 346 0014 A0430040 		.word	1073759136
 347              		.cfi_endproc
 348              	.LFE5:
 349              		.size	CyIMO_Stop, .-CyIMO_Stop
 350              		.section	.text.CyIMO_SetSource,"ax",%progbits
 351              		.align	1
 352              		.global	CyIMO_SetSource
 353              		.thumb
 354              		.thumb_func
 355              		.type	CyIMO_SetSource, %function
 356              	CyIMO_SetSource:
 357              	.LFB9:
 654:.\Generated_Source\PSoC5/CyLib.c ****     switch(source)
 358              		.loc 1 654 0
 359              		.cfi_startproc
 360              		@ args = 0, pretend = 0, frame = 0
 361              		@ frame_needed = 0, uses_anonymous_args = 0
 362              		@ link register save eliminated.
 363              	.LVL11:
 655:.\Generated_Source\PSoC5/CyLib.c ****     {
 364              		.loc 1 655 0
 365 0000 0128     		cmp	r0, #1
 366 0002 08D0     		beq	.L39
 367 0004 14D3     		bcc	.L40
 368 0006 0228     		cmp	r0, #2
 369 0008 17D1     		bne	.L37
 658:.\Generated_Source\PSoC5/CyLib.c ****         CY_LIB_FASTCLK_IMO_CR_REG |= CY_LIB_FASTCLK_IMO_IMO;
 370              		.loc 1 658 0
 371 000a 4FF04022 		mov	r2, #1073758208
 372 000e 1378     		ldrb	r3, [r2]	@ zero_extendqisi2
 373 0010 03F0BF03 		and	r3, r3, #191
 374 0014 04E0     		b	.L42
 375              	.L39:
 663:.\Generated_Source\PSoC5/CyLib.c ****         CY_LIB_FASTCLK_IMO_CR_REG |= CY_LIB_FASTCLK_IMO_IMO;
 376              		.loc 1 663 0
 377 0016 4FF04022 		mov	r2, #1073758208
 378 001a 1378     		ldrb	r3, [r2]	@ zero_extendqisi2
 379 001c 43F04003 		orr	r3, r3, #64
 380              	.L42:
 381 0020 1370     		strb	r3, [r2]
 664:.\Generated_Source\PSoC5/CyLib.c ****         break;
 382              		.loc 1 664 0
 383 0022 92F80032 		ldrb	r3, [r2, #512]	@ zero_extendqisi2
 384 0026 43F02003 		orr	r3, r3, #32
 385 002a 82F80032 		strb	r3, [r2, #512]
 665:.\Generated_Source\PSoC5/CyLib.c **** 
 386              		.loc 1 665 0
 387 002e 7047     		bx	lr
 388              	.L40:
 668:.\Generated_Source\PSoC5/CyLib.c ****         break;
 389              		.loc 1 668 0
 390 0030 024A     		ldr	r2, .L43
 391 0032 1378     		ldrb	r3, [r2]	@ zero_extendqisi2
 392 0034 03F0DF03 		and	r3, r3, #223
 393 0038 1370     		strb	r3, [r2]
 394              	.L37:
 395 003a 7047     		bx	lr
ARM GAS  C:\Users\mjphi\AppData\Local\Temp\ccBvhGke.s 			page 23


 396              	.L44:
 397              		.align	2
 398              	.L43:
 399 003c 00420040 		.word	1073758720
 400              		.cfi_endproc
 401              	.LFE9:
 402              		.size	CyIMO_SetSource, .-CyIMO_SetSource
 403              		.section	.text.CyIMO_EnableDoubler,"ax",%progbits
 404              		.align	1
 405              		.global	CyIMO_EnableDoubler
 406              		.thumb
 407              		.thumb_func
 408              		.type	CyIMO_EnableDoubler, %function
 409              	CyIMO_EnableDoubler:
 410              	.LFB10:
 695:.\Generated_Source\PSoC5/CyLib.c ****     /* Set FASTCLK_IMO_CR_PTR regigster's 4th bit */
 411              		.loc 1 695 0
 412              		.cfi_startproc
 413              		@ args = 0, pretend = 0, frame = 0
 414              		@ frame_needed = 0, uses_anonymous_args = 0
 415              		@ link register save eliminated.
 697:.\Generated_Source\PSoC5/CyLib.c **** }
 416              		.loc 1 697 0
 417 0000 024A     		ldr	r2, .L46
 418 0002 1378     		ldrb	r3, [r2]	@ zero_extendqisi2
 419 0004 43F01003 		orr	r3, r3, #16
 420 0008 1370     		strb	r3, [r2]
 421 000a 7047     		bx	lr
 422              	.L47:
 423              		.align	2
 424              	.L46:
 425 000c 00420040 		.word	1073758720
 426              		.cfi_endproc
 427              	.LFE10:
 428              		.size	CyIMO_EnableDoubler, .-CyIMO_EnableDoubler
 429              		.section	.text.CyIMO_DisableDoubler,"ax",%progbits
 430              		.align	1
 431              		.global	CyIMO_DisableDoubler
 432              		.thumb
 433              		.thumb_func
 434              		.type	CyIMO_DisableDoubler, %function
 435              	CyIMO_DisableDoubler:
 436              	.LFB11:
 716:.\Generated_Source\PSoC5/CyLib.c ****     CY_LIB_FASTCLK_IMO_CR_REG &= ((uint8)(~CY_LIB_FASTCLK_IMO_DOUBLER));
 437              		.loc 1 716 0
 438              		.cfi_startproc
 439              		@ args = 0, pretend = 0, frame = 0
 440              		@ frame_needed = 0, uses_anonymous_args = 0
 441              		@ link register save eliminated.
 717:.\Generated_Source\PSoC5/CyLib.c **** }
 442              		.loc 1 717 0
 443 0000 024A     		ldr	r2, .L49
 444 0002 1378     		ldrb	r3, [r2]	@ zero_extendqisi2
 445 0004 03F0EF03 		and	r3, r3, #239
 446 0008 1370     		strb	r3, [r2]
 447 000a 7047     		bx	lr
 448              	.L50:
ARM GAS  C:\Users\mjphi\AppData\Local\Temp\ccBvhGke.s 			page 24


 449              		.align	2
 450              	.L49:
 451 000c 00420040 		.word	1073758720
 452              		.cfi_endproc
 453              	.LFE11:
 454              		.size	CyIMO_DisableDoubler, .-CyIMO_DisableDoubler
 455              		.section	.text.CyIMO_SetFreq,"ax",%progbits
 456              		.align	1
 457              		.global	CyIMO_SetFreq
 458              		.thumb
 459              		.thumb_func
 460              		.type	CyIMO_SetFreq, %function
 461              	CyIMO_SetFreq:
 462              	.LFB8:
 499:.\Generated_Source\PSoC5/CyLib.c ****     uint8 currentFreq;
 463              		.loc 1 499 0
 464              		.cfi_startproc
 465              		@ args = 0, pretend = 0, frame = 0
 466              		@ frame_needed = 0, uses_anonymous_args = 0
 467              	.LVL12:
 468 0000 F8B5     		push	{r3, r4, r5, r6, r7, lr}
 469              		.cfi_def_cfa_offset 24
 470              		.cfi_offset 3, -24
 471              		.cfi_offset 4, -20
 472              		.cfi_offset 5, -16
 473              		.cfi_offset 6, -12
 474              		.cfi_offset 7, -8
 475              		.cfi_offset 14, -4
 510:.\Generated_Source\PSoC5/CyLib.c **** 
 476              		.loc 1 510 0
 477 0002 314C     		ldr	r4, .L82
 513:.\Generated_Source\PSoC5/CyLib.c **** 
 478              		.loc 1 513 0
 479 0004 0828     		cmp	r0, #8
 510:.\Generated_Source\PSoC5/CyLib.c **** 
 480              		.loc 1 510 0
 481 0006 2578     		ldrb	r5, [r4]	@ zero_extendqisi2
 499:.\Generated_Source\PSoC5/CyLib.c ****     uint8 currentFreq;
 482              		.loc 1 499 0
 483 0008 0646     		mov	r6, r0
 510:.\Generated_Source\PSoC5/CyLib.c **** 
 484              		.loc 1 510 0
 485 000a 05F00705 		and	r5, r5, #7
 486              	.LVL13:
 513:.\Generated_Source\PSoC5/CyLib.c **** 
 487              		.loc 1 513 0
 488 000e 14BF     		ite	ne
 489 0010 0746     		movne	r7, r0
 490 0012 0327     		moveq	r7, #3
 491              	.LVL14:
 515:.\Generated_Source\PSoC5/CyLib.c ****     {
 492              		.loc 1 515 0
 493 0014 062D     		cmp	r5, #6
 494 0016 08D8     		bhi	.L54
 495 0018 DFE805F0 		tbb	[pc, r5]
 496              	.L55:
 497 001c 06       		.byte	(.L79-.L55)/2
ARM GAS  C:\Users\mjphi\AppData\Local\Temp\ccBvhGke.s 			page 25


 498 001d 07       		.byte	(.L54-.L55)/2
 499 001e 04       		.byte	(.L57-.L55)/2
 500 001f 0A       		.byte	(.L80-.L55)/2
 501 0020 07       		.byte	(.L54-.L55)/2
 502 0021 07       		.byte	(.L54-.L55)/2
 503 0022 07       		.byte	(.L54-.L55)/2
 504 0023 00       		.p2align 1
 505              	.L57:
 506              	.LVL15:
 526:.\Generated_Source\PSoC5/CyLib.c ****         break;
 507              		.loc 1 526 0
 508 0024 0325     		movs	r5, #3
 527:.\Generated_Source\PSoC5/CyLib.c **** 
 509              		.loc 1 527 0
 510 0026 00E0     		b	.L54
 511              	.LVL16:
 512              	.L79:
 518:.\Generated_Source\PSoC5/CyLib.c ****         break;
 513              		.loc 1 518 0
 514 0028 0225     		movs	r5, #2
 515              	.LVL17:
 516              	.L54:
 552:.\Generated_Source\PSoC5/CyLib.c ****     {
 517              		.loc 1 552 0
 518 002a AF42     		cmp	r7, r5
 519 002c 04D3     		bcc	.L62
 520 002e 00E0     		b	.L58
 521              	.L80:
 530:.\Generated_Source\PSoC5/CyLib.c ****         break;
 522              		.loc 1 530 0
 523 0030 0025     		movs	r5, #0
 524              	.LVL18:
 525              	.L58:
 555:.\Generated_Source\PSoC5/CyLib.c ****     }
 526              		.loc 1 555 0
 527 0032 3046     		mov	r0, r6
 528              	.LVL19:
 529 0034 FFF7FEFF 		bl	CyIMO_SetTrimValue
 530              	.LVL20:
 531              	.L62:
 559:.\Generated_Source\PSoC5/CyLib.c ****     {
 532              		.loc 1 559 0
 533 0038 082E     		cmp	r6, #8
 534 003a 36D8     		bhi	.L63
 535 003c DFE806F0 		tbb	[pc, r6]
 536              	.L65:
 537 0040 05       		.byte	(.L64-.L65)/2
 538 0041 0B       		.byte	(.L66-.L65)/2
 539 0042 11       		.byte	(.L67-.L65)/2
 540 0043 15       		.byte	(.L68-.L65)/2
 541 0044 1B       		.byte	(.L69-.L65)/2
 542 0045 21       		.byte	(.L70-.L65)/2
 543 0046 27       		.byte	(.L71-.L65)/2
 544 0047 35       		.byte	(.L63-.L65)/2
 545 0048 2E       		.byte	(.L72-.L65)/2
 546 0049 00       		.p2align 1
 547              	.L64:
ARM GAS  C:\Users\mjphi\AppData\Local\Temp\ccBvhGke.s 			page 26


 562:.\Generated_Source\PSoC5/CyLib.c ****             CY_LIB_IMO_3MHZ_VALUE) & ((uint8)(~CY_LIB_IMO_USBCLK_ON_SET));
 548              		.loc 1 562 0
 549 004a 2378     		ldrb	r3, [r4]	@ zero_extendqisi2
 550 004c 03F0B803 		and	r3, r3, #184
 551 0050 43F00303 		orr	r3, r3, #3
 552 0054 20E0     		b	.L81
 553              	.L66:
 567:.\Generated_Source\PSoC5/CyLib.c ****             CY_LIB_IMO_6MHZ_VALUE) & ((uint8)(~CY_LIB_IMO_USBCLK_ON_SET));
 554              		.loc 1 567 0
 555 0056 2378     		ldrb	r3, [r4]	@ zero_extendqisi2
 556 0058 03F0B803 		and	r3, r3, #184
 557 005c 43F00103 		orr	r3, r3, #1
 558 0060 1AE0     		b	.L81
 559              	.L67:
 572:.\Generated_Source\PSoC5/CyLib.c ****             CY_LIB_IMO_12MHZ_VALUE) & ((uint8)(~CY_LIB_IMO_USBCLK_ON_SET));
 560              		.loc 1 572 0
 561 0062 2378     		ldrb	r3, [r4]	@ zero_extendqisi2
 562 0064 03F0B803 		and	r3, r3, #184
 563 0068 16E0     		b	.L81
 564              	.L68:
 577:.\Generated_Source\PSoC5/CyLib.c ****             CY_LIB_IMO_24MHZ_VALUE) & ((uint8)(~CY_LIB_IMO_USBCLK_ON_SET));
 565              		.loc 1 577 0
 566 006a 2378     		ldrb	r3, [r4]	@ zero_extendqisi2
 567 006c 03F0B803 		and	r3, r3, #184
 568 0070 43F00203 		orr	r3, r3, #2
 569 0074 10E0     		b	.L81
 570              	.L69:
 582:.\Generated_Source\PSoC5/CyLib.c ****             CY_LIB_IMO_48MHZ_VALUE) & ((uint8)(~CY_LIB_IMO_USBCLK_ON_SET));
 571              		.loc 1 582 0
 572 0076 2378     		ldrb	r3, [r4]	@ zero_extendqisi2
 573 0078 03F0B803 		and	r3, r3, #184
 574 007c 43F00403 		orr	r3, r3, #4
 575 0080 0AE0     		b	.L81
 576              	.L70:
 587:.\Generated_Source\PSoC5/CyLib.c ****             CY_LIB_IMO_62MHZ_VALUE) & ((uint8)(~CY_LIB_IMO_USBCLK_ON_SET));
 577              		.loc 1 587 0
 578 0082 2378     		ldrb	r3, [r4]	@ zero_extendqisi2
 579 0084 03F0B803 		and	r3, r3, #184
 580 0088 43F00503 		orr	r3, r3, #5
 581 008c 04E0     		b	.L81
 582              	.L71:
 593:.\Generated_Source\PSoC5/CyLib.c ****             CY_LIB_IMO_74MHZ_VALUE) & ((uint8)(~CY_LIB_IMO_USBCLK_ON_SET));
 583              		.loc 1 593 0
 584 008e 2378     		ldrb	r3, [r4]	@ zero_extendqisi2
 585 0090 03F0B803 		and	r3, r3, #184
 586 0094 43F00603 		orr	r3, r3, #6
 587              	.L81:
 588 0098 2370     		strb	r3, [r4]
 595:.\Generated_Source\PSoC5/CyLib.c **** #endif  /* (CY_PSOC5) */
 589              		.loc 1 595 0
 590 009a 0BE0     		b	.L75
 591              	.L72:
 599:.\Generated_Source\PSoC5/CyLib.c ****             CY_LIB_IMO_24MHZ_VALUE) | CY_LIB_IMO_USBCLK_ON_SET;
 592              		.loc 1 599 0
 593 009c 2378     		ldrb	r3, [r4]	@ zero_extendqisi2
 594 009e 03F0B803 		and	r3, r3, #184
 595 00a2 43F04203 		orr	r3, r3, #66
ARM GAS  C:\Users\mjphi\AppData\Local\Temp\ccBvhGke.s 			page 27


 596 00a6 2370     		strb	r3, [r4]
 597 00a8 01E0     		b	.L74
 598              	.L63:
 609:.\Generated_Source\PSoC5/CyLib.c ****     {
 599              		.loc 1 609 0
 600 00aa 082E     		cmp	r6, #8
 601 00ac 02D1     		bne	.L75
 602              	.L74:
 611:.\Generated_Source\PSoC5/CyLib.c ****     }
 603              		.loc 1 611 0
 604 00ae FFF7FEFF 		bl	CyIMO_EnableDoubler
 605              	.LVL21:
 606 00b2 01E0     		b	.L76
 607              	.L75:
 615:.\Generated_Source\PSoC5/CyLib.c ****     }
 608              		.loc 1 615 0
 609 00b4 FFF7FEFF 		bl	CyIMO_DisableDoubler
 610              	.LVL22:
 611              	.L76:
 618:.\Generated_Source\PSoC5/CyLib.c ****     {
 612              		.loc 1 618 0
 613 00b8 AF42     		cmp	r7, r5
 614 00ba 04D2     		bcs	.L51
 621:.\Generated_Source\PSoC5/CyLib.c ****     }
 615              		.loc 1 621 0
 616 00bc 3046     		mov	r0, r6
 623:.\Generated_Source\PSoC5/CyLib.c **** 
 617              		.loc 1 623 0
 618 00be BDE8F840 		pop	{r3, r4, r5, r6, r7, lr}
 619              		.cfi_remember_state
 620              		.cfi_restore 14
 621              		.cfi_restore 7
 622              		.cfi_restore 6
 623              		.cfi_restore 5
 624              		.cfi_restore 4
 625              		.cfi_restore 3
 626              		.cfi_def_cfa_offset 0
 627              	.LVL23:
 621:.\Generated_Source\PSoC5/CyLib.c ****     }
 628              		.loc 1 621 0
 629 00c2 FFF7FEBF 		b	CyIMO_SetTrimValue
 630              	.LVL24:
 631              	.L51:
 632              		.cfi_restore_state
 633 00c6 F8BD     		pop	{r3, r4, r5, r6, r7, pc}
 634              	.LVL25:
 635              	.L83:
 636              		.align	2
 637              	.L82:
 638 00c8 00420040 		.word	1073758720
 639              		.cfi_endproc
 640              	.LFE8:
 641              		.size	CyIMO_SetFreq, .-CyIMO_SetFreq
 642              		.section	.text.CyMasterClk_SetSource,"ax",%progbits
 643              		.align	1
 644              		.global	CyMasterClk_SetSource
 645              		.thumb
ARM GAS  C:\Users\mjphi\AppData\Local\Temp\ccBvhGke.s 			page 28


 646              		.thumb_func
 647              		.type	CyMasterClk_SetSource, %function
 648              	CyMasterClk_SetSource:
 649              	.LFB12:
 751:.\Generated_Source\PSoC5/CyLib.c ****     CY_LIB_CLKDIST_MSTR1_REG = (CY_LIB_CLKDIST_MSTR1_REG & MASTER_CLK_SRC_CLEAR) |
 650              		.loc 1 751 0
 651              		.cfi_startproc
 652              		@ args = 0, pretend = 0, frame = 0
 653              		@ frame_needed = 0, uses_anonymous_args = 0
 654              		@ link register save eliminated.
 655              	.LVL26:
 752:.\Generated_Source\PSoC5/CyLib.c ****                                 (source & ((uint8)(~MASTER_CLK_SRC_CLEAR)));
 656              		.loc 1 752 0
 657 0000 044A     		ldr	r2, .L85
 658 0002 00F00300 		and	r0, r0, #3
 659              	.LVL27:
 660 0006 1378     		ldrb	r3, [r2]	@ zero_extendqisi2
 661 0008 03F0FC03 		and	r3, r3, #252
 662 000c 0343     		orrs	r3, r3, r0
 663 000e 1370     		strb	r3, [r2]
 664 0010 7047     		bx	lr
 665              	.L86:
 666 0012 00BF     		.align	2
 667              	.L85:
 668 0014 05400040 		.word	1073758213
 669              		.cfi_endproc
 670              	.LFE12:
 671              		.size	CyMasterClk_SetSource, .-CyMasterClk_SetSource
 672              		.section	.text.CyMasterClk_SetDivider,"ax",%progbits
 673              		.align	1
 674              		.global	CyMasterClk_SetDivider
 675              		.thumb
 676              		.thumb_func
 677              		.type	CyMasterClk_SetDivider, %function
 678              	CyMasterClk_SetDivider:
 679              	.LFB13:
 786:.\Generated_Source\PSoC5/CyLib.c ****     CY_LIB_CLKDIST_MSTR0_REG = divider;
 680              		.loc 1 786 0
 681              		.cfi_startproc
 682              		@ args = 0, pretend = 0, frame = 0
 683              		@ frame_needed = 0, uses_anonymous_args = 0
 684              		@ link register save eliminated.
 685              	.LVL28:
 787:.\Generated_Source\PSoC5/CyLib.c **** }
 686              		.loc 1 787 0
 687 0000 014B     		ldr	r3, .L88
 688 0002 1870     		strb	r0, [r3]
 689 0004 7047     		bx	lr
 690              	.L89:
 691 0006 00BF     		.align	2
 692              	.L88:
 693 0008 04400040 		.word	1073758212
 694              		.cfi_endproc
 695              	.LFE13:
 696              		.size	CyMasterClk_SetDivider, .-CyMasterClk_SetDivider
 697              		.section	.text.CyBusClk_SetDivider,"ax",%progbits
 698              		.align	1
ARM GAS  C:\Users\mjphi\AppData\Local\Temp\ccBvhGke.s 			page 29


 699              		.global	CyBusClk_SetDivider
 700              		.thumb
 701              		.thumb_func
 702              		.type	CyBusClk_SetDivider, %function
 703              	CyBusClk_SetDivider:
 704              	.LFB15:
 828:.\Generated_Source\PSoC5/CyLib.c **** }
 829:.\Generated_Source\PSoC5/CyLib.c **** 
 830:.\Generated_Source\PSoC5/CyLib.c **** 
 831:.\Generated_Source\PSoC5/CyLib.c **** /*******************************************************************************
 832:.\Generated_Source\PSoC5/CyLib.c **** * Function Name: CyBusClk_SetDivider
 833:.\Generated_Source\PSoC5/CyLib.c **** ********************************************************************************
 834:.\Generated_Source\PSoC5/CyLib.c **** *
 835:.\Generated_Source\PSoC5/CyLib.c **** * Summary:
 836:.\Generated_Source\PSoC5/CyLib.c **** *  Sets the divider value used to generate the Bus Clock.
 837:.\Generated_Source\PSoC5/CyLib.c **** *
 838:.\Generated_Source\PSoC5/CyLib.c **** * Parameters:
 839:.\Generated_Source\PSoC5/CyLib.c **** *  divider: Valid range [0-65535]. The clock will be divided by this value + 1.
 840:.\Generated_Source\PSoC5/CyLib.c **** *  For example, to divide this parameter by two should be set to 1.
 841:.\Generated_Source\PSoC5/CyLib.c **** *
 842:.\Generated_Source\PSoC5/CyLib.c **** * Return:
 843:.\Generated_Source\PSoC5/CyLib.c **** *  None
 844:.\Generated_Source\PSoC5/CyLib.c **** *
 845:.\Generated_Source\PSoC5/CyLib.c **** * Side Effects:
 846:.\Generated_Source\PSoC5/CyLib.c **** *  If this function execution resulted in the CPU clock frequency increasing,
 847:.\Generated_Source\PSoC5/CyLib.c **** *  then the number of clock cycles the cache will wait before it samples data
 848:.\Generated_Source\PSoC5/CyLib.c **** *  coming back from the Flash must be adjusted by calling
 849:.\Generated_Source\PSoC5/CyLib.c **** *  CyFlash_SetWaitCycles() with an appropriate parameter. It can be optionally
 850:.\Generated_Source\PSoC5/CyLib.c **** *  called if the CPU clock frequency is lowered in order to improve the CPU
 851:.\Generated_Source\PSoC5/CyLib.c **** *  performance. See CyFlash_SetWaitCycles() description for more information.
 852:.\Generated_Source\PSoC5/CyLib.c **** *
 853:.\Generated_Source\PSoC5/CyLib.c **** *******************************************************************************/
 854:.\Generated_Source\PSoC5/CyLib.c **** void CyBusClk_SetDivider(uint16 divider) 
 855:.\Generated_Source\PSoC5/CyLib.c **** {
 705              		.loc 1 855 0
 706              		.cfi_startproc
 707              		@ args = 0, pretend = 0, frame = 0
 708              		@ frame_needed = 0, uses_anonymous_args = 0
 709              	.LVL29:
 710 0000 F8B5     		push	{r3, r4, r5, r6, r7, lr}
 711              		.cfi_def_cfa_offset 24
 712              		.cfi_offset 3, -24
 713              		.cfi_offset 4, -20
 714              		.cfi_offset 5, -16
 715              		.cfi_offset 6, -12
 716              		.cfi_offset 7, -8
 717              		.cfi_offset 14, -4
 718              		.loc 1 855 0
 719 0002 0446     		mov	r4, r0
 856:.\Generated_Source\PSoC5/CyLib.c ****     uint8  masterClkDiv;
 857:.\Generated_Source\PSoC5/CyLib.c ****     uint16 busClkDiv;
 858:.\Generated_Source\PSoC5/CyLib.c ****     uint8 interruptState;
 859:.\Generated_Source\PSoC5/CyLib.c **** 
 860:.\Generated_Source\PSoC5/CyLib.c ****     interruptState = CyEnterCriticalSection();
 720              		.loc 1 860 0
 721 0004 FFF7FEFF 		bl	CyEnterCriticalSection
 722              	.LVL30:
ARM GAS  C:\Users\mjphi\AppData\Local\Temp\ccBvhGke.s 			page 30


 861:.\Generated_Source\PSoC5/CyLib.c **** 
 862:.\Generated_Source\PSoC5/CyLib.c ****     /* Work around to set bus clock divider value */
 863:.\Generated_Source\PSoC5/CyLib.c ****     busClkDiv = (uint16)((uint16)CY_LIB_CLKDIST_BCFG_MSB_REG << 8u);
 723              		.loc 1 863 0
 724 0008 164B     		ldr	r3, .L100
 860:.\Generated_Source\PSoC5/CyLib.c **** 
 725              		.loc 1 860 0
 726 000a 0746     		mov	r7, r0
 727              	.LVL31:
 728              		.loc 1 863 0
 729 000c 1A78     		ldrb	r2, [r3]	@ zero_extendqisi2
 864:.\Generated_Source\PSoC5/CyLib.c ****     busClkDiv |= CY_LIB_CLKDIST_BCFG_LSB_REG;
 730              		.loc 1 864 0
 731 000e 013B     		subs	r3, r3, #1
 732 0010 1B78     		ldrb	r3, [r3]	@ zero_extendqisi2
 863:.\Generated_Source\PSoC5/CyLib.c ****     busClkDiv |= CY_LIB_CLKDIST_BCFG_LSB_REG;
 733              		.loc 1 863 0
 734 0012 D2B2     		uxtb	r2, r2
 735              	.LVL32:
 736              		.loc 1 864 0
 737 0014 DBB2     		uxtb	r3, r3
 738              	.LVL33:
 865:.\Generated_Source\PSoC5/CyLib.c **** 
 866:.\Generated_Source\PSoC5/CyLib.c ****     if ((divider == 0u) || (busClkDiv == 0u))
 739              		.loc 1 866 0
 740 0016 14B1     		cbz	r4, .L91
 741              		.loc 1 866 0 is_stmt 0 discriminator 1
 742 0018 53EA0223 		orrs	r3, r3, r2, lsl #8
 743              	.LVL34:
 744 001c 1AD1     		bne	.L92
 745              	.L91:
 867:.\Generated_Source\PSoC5/CyLib.c ****     {
 868:.\Generated_Source\PSoC5/CyLib.c ****         /* Save away master clock divider value */
 869:.\Generated_Source\PSoC5/CyLib.c ****         masterClkDiv = CY_LIB_CLKDIST_MSTR0_REG;
 746              		.loc 1 869 0 is_stmt 1
 747 001e 124B     		ldr	r3, .L100+4
 748 0020 124E     		ldr	r6, .L100+8
 749 0022 1D78     		ldrb	r5, [r3]	@ zero_extendqisi2
 750 0024 EDB2     		uxtb	r5, r5
 751              	.LVL35:
 870:.\Generated_Source\PSoC5/CyLib.c **** 
 871:.\Generated_Source\PSoC5/CyLib.c ****         if (masterClkDiv < CY_LIB_CLKDIST_MASTERCLK_DIV)
 752              		.loc 1 871 0
 753 0026 062D     		cmp	r5, #6
 754              	.LVL36:
 755              	.LBB16:
 756              	.LBB17:
 787:.\Generated_Source\PSoC5/CyLib.c **** }
 757              		.loc 1 787 0
 758 0028 9CBF     		itt	ls
 759 002a 0722     		movls	r2, #7
 760 002c 1A70     		strbls	r2, [r3]
 761              	.LBE17:
 762              	.LBE16:
 872:.\Generated_Source\PSoC5/CyLib.c ****         {
 873:.\Generated_Source\PSoC5/CyLib.c ****             /* Set master clock divider to 7 */
 874:.\Generated_Source\PSoC5/CyLib.c ****             CyMasterClk_SetDivider(CY_LIB_CLKDIST_MASTERCLK_DIV);
ARM GAS  C:\Users\mjphi\AppData\Local\Temp\ccBvhGke.s 			page 31


 875:.\Generated_Source\PSoC5/CyLib.c ****         }
 876:.\Generated_Source\PSoC5/CyLib.c **** 
 877:.\Generated_Source\PSoC5/CyLib.c ****         if (divider == 0u)
 763              		.loc 1 877 0
 764 002e 3CB9     		cbnz	r4, .L94
 878:.\Generated_Source\PSoC5/CyLib.c ****         {
 879:.\Generated_Source\PSoC5/CyLib.c ****             /* Set SSS bit and divider register desired value */
 880:.\Generated_Source\PSoC5/CyLib.c ****             CY_LIB_CLKDIST_BCFG2_REG |= CY_LIB_CLKDIST_BCFG2_SSS;
 765              		.loc 1 880 0
 766 0030 3378     		ldrb	r3, [r6]	@ zero_extendqisi2
 881:.\Generated_Source\PSoC5/CyLib.c ****             CyBusClk_Internal_SetDivider(divider);
 767              		.loc 1 881 0
 768 0032 2046     		mov	r0, r4
 880:.\Generated_Source\PSoC5/CyLib.c ****             CyBusClk_Internal_SetDivider(divider);
 769              		.loc 1 880 0
 770 0034 43F04003 		orr	r3, r3, #64
 771 0038 3370     		strb	r3, [r6]
 772              		.loc 1 881 0
 773 003a FFF7FEFF 		bl	CyBusClk_Internal_SetDivider
 774              	.LVL37:
 775 003e 06E0     		b	.L95
 776              	.L94:
 882:.\Generated_Source\PSoC5/CyLib.c ****         }
 883:.\Generated_Source\PSoC5/CyLib.c ****         else
 884:.\Generated_Source\PSoC5/CyLib.c ****         {
 885:.\Generated_Source\PSoC5/CyLib.c ****             CyBusClk_Internal_SetDivider(divider);
 777              		.loc 1 885 0
 778 0040 2046     		mov	r0, r4
 779 0042 FFF7FEFF 		bl	CyBusClk_Internal_SetDivider
 780              	.LVL38:
 886:.\Generated_Source\PSoC5/CyLib.c ****             CY_LIB_CLKDIST_BCFG2_REG &= ((uint8)(~CY_LIB_CLKDIST_BCFG2_SSS));
 781              		.loc 1 886 0
 782 0046 3378     		ldrb	r3, [r6]	@ zero_extendqisi2
 783 0048 03F0BF03 		and	r3, r3, #191
 784 004c 3370     		strb	r3, [r6]
 785              	.L95:
 786              	.LVL39:
 787              	.LBB18:
 788              	.LBB19:
 787:.\Generated_Source\PSoC5/CyLib.c **** }
 789              		.loc 1 787 0
 790 004e 064B     		ldr	r3, .L100+4
 791 0050 1D70     		strb	r5, [r3]
 792 0052 02E0     		b	.L96
 793              	.LVL40:
 794              	.L92:
 795              	.LBE19:
 796              	.LBE18:
 887:.\Generated_Source\PSoC5/CyLib.c ****         }
 888:.\Generated_Source\PSoC5/CyLib.c **** 
 889:.\Generated_Source\PSoC5/CyLib.c ****         /* Restore master clock */
 890:.\Generated_Source\PSoC5/CyLib.c ****         CyMasterClk_SetDivider(masterClkDiv);
 891:.\Generated_Source\PSoC5/CyLib.c ****     }
 892:.\Generated_Source\PSoC5/CyLib.c ****     else
 893:.\Generated_Source\PSoC5/CyLib.c ****     {
 894:.\Generated_Source\PSoC5/CyLib.c ****         CyBusClk_Internal_SetDivider(divider);
 797              		.loc 1 894 0
ARM GAS  C:\Users\mjphi\AppData\Local\Temp\ccBvhGke.s 			page 32


 798 0054 2046     		mov	r0, r4
 799 0056 FFF7FEFF 		bl	CyBusClk_Internal_SetDivider
 800              	.LVL41:
 801              	.L96:
 895:.\Generated_Source\PSoC5/CyLib.c ****     }
 896:.\Generated_Source\PSoC5/CyLib.c **** 
 897:.\Generated_Source\PSoC5/CyLib.c ****     CyExitCriticalSection(interruptState);
 802              		.loc 1 897 0
 803 005a 3846     		mov	r0, r7
 898:.\Generated_Source\PSoC5/CyLib.c **** }
 804              		.loc 1 898 0
 805 005c BDE8F840 		pop	{r3, r4, r5, r6, r7, lr}
 806              		.cfi_restore 14
 807              		.cfi_restore 7
 808              		.cfi_restore 6
 809              		.cfi_restore 5
 810              		.cfi_restore 4
 811              		.cfi_restore 3
 812              		.cfi_def_cfa_offset 0
 813              	.LVL42:
 897:.\Generated_Source\PSoC5/CyLib.c **** }
 814              		.loc 1 897 0
 815 0060 FFF7FEBF 		b	CyExitCriticalSection
 816              	.LVL43:
 817              	.L101:
 818              		.align	2
 819              	.L100:
 820 0064 07400040 		.word	1073758215
 821 0068 04400040 		.word	1073758212
 822 006c 08400040 		.word	1073758216
 823              		.cfi_endproc
 824              	.LFE15:
 825              		.size	CyBusClk_SetDivider, .-CyBusClk_SetDivider
 826              		.section	.text.CyUsbClk_SetSource,"ax",%progbits
 827              		.align	1
 828              		.global	CyUsbClk_SetSource
 829              		.thumb
 830              		.thumb_func
 831              		.type	CyUsbClk_SetSource, %function
 832              	CyUsbClk_SetSource:
 833              	.LFB16:
 899:.\Generated_Source\PSoC5/CyLib.c **** 
 900:.\Generated_Source\PSoC5/CyLib.c **** 
 901:.\Generated_Source\PSoC5/CyLib.c **** #if(CY_PSOC3)
 902:.\Generated_Source\PSoC5/CyLib.c **** 
 903:.\Generated_Source\PSoC5/CyLib.c ****     /*******************************************************************************
 904:.\Generated_Source\PSoC5/CyLib.c ****     * Function Name: CyCpuClk_SetDivider
 905:.\Generated_Source\PSoC5/CyLib.c ****     ********************************************************************************
 906:.\Generated_Source\PSoC5/CyLib.c ****     *
 907:.\Generated_Source\PSoC5/CyLib.c ****     * Summary:
 908:.\Generated_Source\PSoC5/CyLib.c ****     *  Sets the divider value used to generate the CPU Clock. Only applicable for
 909:.\Generated_Source\PSoC5/CyLib.c ****     *  PSoC 3 parts.
 910:.\Generated_Source\PSoC5/CyLib.c ****     *
 911:.\Generated_Source\PSoC5/CyLib.c ****     * Parameters:
 912:.\Generated_Source\PSoC5/CyLib.c ****     *  divider: Valid range [0-15]. The clock will be divided by this value + 1.
 913:.\Generated_Source\PSoC5/CyLib.c ****     *  For example, to divide this parameter by two should be set to 1.
 914:.\Generated_Source\PSoC5/CyLib.c ****     *
ARM GAS  C:\Users\mjphi\AppData\Local\Temp\ccBvhGke.s 			page 33


 915:.\Generated_Source\PSoC5/CyLib.c ****     * Return:
 916:.\Generated_Source\PSoC5/CyLib.c ****     *  None
 917:.\Generated_Source\PSoC5/CyLib.c ****     *
 918:.\Generated_Source\PSoC5/CyLib.c ****     * Side Effects:
 919:.\Generated_Source\PSoC5/CyLib.c ****     *  If this function execution resulted in the CPU clock frequency increasing,
 920:.\Generated_Source\PSoC5/CyLib.c ****     *  then the number of clock cycles the cache will wait before it samples data
 921:.\Generated_Source\PSoC5/CyLib.c ****     *  coming back from the Flash must be adjusted by calling
 922:.\Generated_Source\PSoC5/CyLib.c ****     *  CyFlash_SetWaitCycles() with an appropriate parameter. It can be optionally
 923:.\Generated_Source\PSoC5/CyLib.c ****     *  called if the CPU clock frequency is lowered in order to improve the CPU
 924:.\Generated_Source\PSoC5/CyLib.c ****     *  performance. See CyFlash_SetWaitCycles() description for more information.
 925:.\Generated_Source\PSoC5/CyLib.c ****     *
 926:.\Generated_Source\PSoC5/CyLib.c ****     *******************************************************************************/
 927:.\Generated_Source\PSoC5/CyLib.c ****     void CyCpuClk_SetDivider(uint8 divider) 
 928:.\Generated_Source\PSoC5/CyLib.c ****     {
 929:.\Generated_Source\PSoC5/CyLib.c ****             CY_LIB_CLKDIST_MSTR1_REG = (CY_LIB_CLKDIST_MSTR1_REG & CY_LIB_CLKDIST_MSTR1_DIV_MASK) |
 930:.\Generated_Source\PSoC5/CyLib.c ****                                 ((uint8)(divider << CY_LIB_CLKDIST_DIV_POSITION));
 931:.\Generated_Source\PSoC5/CyLib.c ****     }
 932:.\Generated_Source\PSoC5/CyLib.c **** 
 933:.\Generated_Source\PSoC5/CyLib.c **** #endif /* (CY_PSOC3) */
 934:.\Generated_Source\PSoC5/CyLib.c **** 
 935:.\Generated_Source\PSoC5/CyLib.c **** 
 936:.\Generated_Source\PSoC5/CyLib.c **** /*******************************************************************************
 937:.\Generated_Source\PSoC5/CyLib.c **** * Function Name: CyUsbClk_SetSource
 938:.\Generated_Source\PSoC5/CyLib.c **** ********************************************************************************
 939:.\Generated_Source\PSoC5/CyLib.c **** *
 940:.\Generated_Source\PSoC5/CyLib.c **** * Summary:
 941:.\Generated_Source\PSoC5/CyLib.c **** *  Sets the source of the USB clock.
 942:.\Generated_Source\PSoC5/CyLib.c **** *
 943:.\Generated_Source\PSoC5/CyLib.c **** * Parameters:
 944:.\Generated_Source\PSoC5/CyLib.c **** *  source: One of the four available USB clock sources
 945:.\Generated_Source\PSoC5/CyLib.c **** *    CY_LIB_USB_CLK_IMO2X     - IMO 2x
 946:.\Generated_Source\PSoC5/CyLib.c **** *    CY_LIB_USB_CLK_IMO       - IMO
 947:.\Generated_Source\PSoC5/CyLib.c **** *    CY_LIB_USB_CLK_PLL       - PLL
 948:.\Generated_Source\PSoC5/CyLib.c **** *    CY_LIB_USB_CLK_DSI       - DSI
 949:.\Generated_Source\PSoC5/CyLib.c **** *
 950:.\Generated_Source\PSoC5/CyLib.c **** * Return:
 951:.\Generated_Source\PSoC5/CyLib.c **** *  None
 952:.\Generated_Source\PSoC5/CyLib.c **** *
 953:.\Generated_Source\PSoC5/CyLib.c **** *******************************************************************************/
 954:.\Generated_Source\PSoC5/CyLib.c **** void CyUsbClk_SetSource(uint8 source) 
 955:.\Generated_Source\PSoC5/CyLib.c **** {
 834              		.loc 1 955 0
 835              		.cfi_startproc
 836              		@ args = 0, pretend = 0, frame = 0
 837              		@ frame_needed = 0, uses_anonymous_args = 0
 838              		@ link register save eliminated.
 839              	.LVL44:
 956:.\Generated_Source\PSoC5/CyLib.c ****     CY_LIB_CLKDIST_UCFG_REG = (CY_LIB_CLKDIST_UCFG_REG & ((uint8)(~CY_LIB_CLKDIST_UCFG_SRC_SEL_MASK
 840              		.loc 1 956 0
 841 0000 044A     		ldr	r2, .L103
 842 0002 00F00300 		and	r0, r0, #3
 843              	.LVL45:
 844 0006 1378     		ldrb	r3, [r2]	@ zero_extendqisi2
 845 0008 03F0FC03 		and	r3, r3, #252
 846 000c 0343     		orrs	r3, r3, r0
 847 000e 1370     		strb	r3, [r2]
 848 0010 7047     		bx	lr
ARM GAS  C:\Users\mjphi\AppData\Local\Temp\ccBvhGke.s 			page 34


 849              	.L104:
 850 0012 00BF     		.align	2
 851              	.L103:
 852 0014 09400040 		.word	1073758217
 853              		.cfi_endproc
 854              	.LFE16:
 855              		.size	CyUsbClk_SetSource, .-CyUsbClk_SetSource
 856              		.section	.text.CyILO_Start1K,"ax",%progbits
 857              		.align	1
 858              		.global	CyILO_Start1K
 859              		.thumb
 860              		.thumb_func
 861              		.type	CyILO_Start1K, %function
 862              	CyILO_Start1K:
 863              	.LFB17:
 957:.\Generated_Source\PSoC5/CyLib.c ****                         (CY_LIB_CLKDIST_UCFG_SRC_SEL_MASK & source);
 958:.\Generated_Source\PSoC5/CyLib.c **** }
 959:.\Generated_Source\PSoC5/CyLib.c **** 
 960:.\Generated_Source\PSoC5/CyLib.c **** 
 961:.\Generated_Source\PSoC5/CyLib.c **** /*******************************************************************************
 962:.\Generated_Source\PSoC5/CyLib.c **** * Function Name: CyILO_Start1K
 963:.\Generated_Source\PSoC5/CyLib.c **** ********************************************************************************
 964:.\Generated_Source\PSoC5/CyLib.c **** *
 965:.\Generated_Source\PSoC5/CyLib.c **** * Summary:
 966:.\Generated_Source\PSoC5/CyLib.c **** *  Enables the ILO 1 KHz oscillator.
 967:.\Generated_Source\PSoC5/CyLib.c **** *
 968:.\Generated_Source\PSoC5/CyLib.c **** *  Note The ILO 1 KHz oscillator is always enabled by default, regardless of the
 969:.\Generated_Source\PSoC5/CyLib.c **** *  selection in the Clock Editor. Therefore, this API is only needed if the
 970:.\Generated_Source\PSoC5/CyLib.c **** *  oscillator was turned off manually.
 971:.\Generated_Source\PSoC5/CyLib.c **** *
 972:.\Generated_Source\PSoC5/CyLib.c **** * Parameters:
 973:.\Generated_Source\PSoC5/CyLib.c **** *  None
 974:.\Generated_Source\PSoC5/CyLib.c **** *
 975:.\Generated_Source\PSoC5/CyLib.c **** * Return:
 976:.\Generated_Source\PSoC5/CyLib.c **** *  None
 977:.\Generated_Source\PSoC5/CyLib.c **** *
 978:.\Generated_Source\PSoC5/CyLib.c **** *******************************************************************************/
 979:.\Generated_Source\PSoC5/CyLib.c **** void CyILO_Start1K(void) 
 980:.\Generated_Source\PSoC5/CyLib.c **** {
 864              		.loc 1 980 0
 865              		.cfi_startproc
 866              		@ args = 0, pretend = 0, frame = 0
 867              		@ frame_needed = 0, uses_anonymous_args = 0
 868              		@ link register save eliminated.
 981:.\Generated_Source\PSoC5/CyLib.c ****     /* Set bit 1 of ILO RS */
 982:.\Generated_Source\PSoC5/CyLib.c ****     CY_LIB_SLOWCLK_ILO_CR0_REG |= CY_LIB_SLOWCLK_ILO_CR0_EN_1KHZ;
 869              		.loc 1 982 0
 870 0000 024A     		ldr	r2, .L106
 871 0002 1378     		ldrb	r3, [r2]	@ zero_extendqisi2
 872 0004 43F00203 		orr	r3, r3, #2
 873 0008 1370     		strb	r3, [r2]
 874 000a 7047     		bx	lr
 875              	.L107:
 876              		.align	2
 877              	.L106:
 878 000c 00430040 		.word	1073758976
 879              		.cfi_endproc
ARM GAS  C:\Users\mjphi\AppData\Local\Temp\ccBvhGke.s 			page 35


 880              	.LFE17:
 881              		.size	CyILO_Start1K, .-CyILO_Start1K
 882              		.section	.text.CyILO_Stop1K,"ax",%progbits
 883              		.align	1
 884              		.global	CyILO_Stop1K
 885              		.thumb
 886              		.thumb_func
 887              		.type	CyILO_Stop1K, %function
 888              	CyILO_Stop1K:
 889              	.LFB18:
 983:.\Generated_Source\PSoC5/CyLib.c **** }
 984:.\Generated_Source\PSoC5/CyLib.c **** 
 985:.\Generated_Source\PSoC5/CyLib.c **** 
 986:.\Generated_Source\PSoC5/CyLib.c **** /*******************************************************************************
 987:.\Generated_Source\PSoC5/CyLib.c **** * Function Name: CyILO_Stop1K
 988:.\Generated_Source\PSoC5/CyLib.c **** ********************************************************************************
 989:.\Generated_Source\PSoC5/CyLib.c **** *
 990:.\Generated_Source\PSoC5/CyLib.c **** * Summary:
 991:.\Generated_Source\PSoC5/CyLib.c **** *  Disables the ILO 1 KHz oscillator.
 992:.\Generated_Source\PSoC5/CyLib.c **** *
 993:.\Generated_Source\PSoC5/CyLib.c **** *  Note The ILO 1 KHz oscillator must be enabled if the Sleep or Hibernate low
 994:.\Generated_Source\PSoC5/CyLib.c **** *  power mode APIs are expected to be used. For more information, refer to the
 995:.\Generated_Source\PSoC5/CyLib.c **** *  Power Management section of this document.
 996:.\Generated_Source\PSoC5/CyLib.c **** *
 997:.\Generated_Source\PSoC5/CyLib.c **** * Parameters:
 998:.\Generated_Source\PSoC5/CyLib.c **** *  None
 999:.\Generated_Source\PSoC5/CyLib.c **** *
1000:.\Generated_Source\PSoC5/CyLib.c **** * Return:
1001:.\Generated_Source\PSoC5/CyLib.c **** *  None
1002:.\Generated_Source\PSoC5/CyLib.c **** *
1003:.\Generated_Source\PSoC5/CyLib.c **** * Side Effects:
1004:.\Generated_Source\PSoC5/CyLib.c **** *  PSoC5: Stopping the ILO 1 kHz could break the active WDT functionality.
1005:.\Generated_Source\PSoC5/CyLib.c **** *
1006:.\Generated_Source\PSoC5/CyLib.c **** *******************************************************************************/
1007:.\Generated_Source\PSoC5/CyLib.c **** void CyILO_Stop1K(void) 
1008:.\Generated_Source\PSoC5/CyLib.c **** {
 890              		.loc 1 1008 0
 891              		.cfi_startproc
 892              		@ args = 0, pretend = 0, frame = 0
 893              		@ frame_needed = 0, uses_anonymous_args = 0
 894              		@ link register save eliminated.
1009:.\Generated_Source\PSoC5/CyLib.c ****     /* Clear bit 1 of ILO RS */
1010:.\Generated_Source\PSoC5/CyLib.c ****     CY_LIB_SLOWCLK_ILO_CR0_REG &= ((uint8)(~CY_LIB_SLOWCLK_ILO_CR0_EN_1KHZ));
 895              		.loc 1 1010 0
 896 0000 024A     		ldr	r2, .L109
 897 0002 1378     		ldrb	r3, [r2]	@ zero_extendqisi2
 898 0004 03F0FD03 		and	r3, r3, #253
 899 0008 1370     		strb	r3, [r2]
 900 000a 7047     		bx	lr
 901              	.L110:
 902              		.align	2
 903              	.L109:
 904 000c 00430040 		.word	1073758976
 905              		.cfi_endproc
 906              	.LFE18:
 907              		.size	CyILO_Stop1K, .-CyILO_Stop1K
 908              		.section	.text.CyILO_Start100K,"ax",%progbits
ARM GAS  C:\Users\mjphi\AppData\Local\Temp\ccBvhGke.s 			page 36


 909              		.align	1
 910              		.global	CyILO_Start100K
 911              		.thumb
 912              		.thumb_func
 913              		.type	CyILO_Start100K, %function
 914              	CyILO_Start100K:
 915              	.LFB19:
1011:.\Generated_Source\PSoC5/CyLib.c **** }
1012:.\Generated_Source\PSoC5/CyLib.c **** 
1013:.\Generated_Source\PSoC5/CyLib.c **** 
1014:.\Generated_Source\PSoC5/CyLib.c **** /*******************************************************************************
1015:.\Generated_Source\PSoC5/CyLib.c **** * Function Name: CyILO_Start100K
1016:.\Generated_Source\PSoC5/CyLib.c **** ********************************************************************************
1017:.\Generated_Source\PSoC5/CyLib.c **** *
1018:.\Generated_Source\PSoC5/CyLib.c **** * Summary:
1019:.\Generated_Source\PSoC5/CyLib.c **** *  Enables the ILO 100 KHz oscillator.
1020:.\Generated_Source\PSoC5/CyLib.c **** *
1021:.\Generated_Source\PSoC5/CyLib.c **** * Parameters:
1022:.\Generated_Source\PSoC5/CyLib.c **** *  None
1023:.\Generated_Source\PSoC5/CyLib.c **** *
1024:.\Generated_Source\PSoC5/CyLib.c **** * Return:
1025:.\Generated_Source\PSoC5/CyLib.c **** *  None
1026:.\Generated_Source\PSoC5/CyLib.c **** *
1027:.\Generated_Source\PSoC5/CyLib.c **** *******************************************************************************/
1028:.\Generated_Source\PSoC5/CyLib.c **** void CyILO_Start100K(void) 
1029:.\Generated_Source\PSoC5/CyLib.c **** {
 916              		.loc 1 1029 0
 917              		.cfi_startproc
 918              		@ args = 0, pretend = 0, frame = 0
 919              		@ frame_needed = 0, uses_anonymous_args = 0
 920              		@ link register save eliminated.
1030:.\Generated_Source\PSoC5/CyLib.c ****     CY_LIB_SLOWCLK_ILO_CR0_REG |= CY_LIB_SLOWCLK_ILO_CR0_EN_100KHZ;
 921              		.loc 1 1030 0
 922 0000 024A     		ldr	r2, .L112
 923 0002 1378     		ldrb	r3, [r2]	@ zero_extendqisi2
 924 0004 43F00403 		orr	r3, r3, #4
 925 0008 1370     		strb	r3, [r2]
 926 000a 7047     		bx	lr
 927              	.L113:
 928              		.align	2
 929              	.L112:
 930 000c 00430040 		.word	1073758976
 931              		.cfi_endproc
 932              	.LFE19:
 933              		.size	CyILO_Start100K, .-CyILO_Start100K
 934              		.section	.text.CyILO_Stop100K,"ax",%progbits
 935              		.align	1
 936              		.global	CyILO_Stop100K
 937              		.thumb
 938              		.thumb_func
 939              		.type	CyILO_Stop100K, %function
 940              	CyILO_Stop100K:
 941              	.LFB20:
1031:.\Generated_Source\PSoC5/CyLib.c **** }
1032:.\Generated_Source\PSoC5/CyLib.c **** 
1033:.\Generated_Source\PSoC5/CyLib.c **** 
1034:.\Generated_Source\PSoC5/CyLib.c **** /*******************************************************************************
ARM GAS  C:\Users\mjphi\AppData\Local\Temp\ccBvhGke.s 			page 37


1035:.\Generated_Source\PSoC5/CyLib.c **** * Function Name: CyILO_Stop100K
1036:.\Generated_Source\PSoC5/CyLib.c **** ********************************************************************************
1037:.\Generated_Source\PSoC5/CyLib.c **** *
1038:.\Generated_Source\PSoC5/CyLib.c **** * Summary:
1039:.\Generated_Source\PSoC5/CyLib.c **** *  Disables the ILO 100 KHz oscillator.
1040:.\Generated_Source\PSoC5/CyLib.c **** *
1041:.\Generated_Source\PSoC5/CyLib.c **** * Parameters:
1042:.\Generated_Source\PSoC5/CyLib.c **** *  None
1043:.\Generated_Source\PSoC5/CyLib.c **** *
1044:.\Generated_Source\PSoC5/CyLib.c **** * Return:
1045:.\Generated_Source\PSoC5/CyLib.c **** *  None
1046:.\Generated_Source\PSoC5/CyLib.c **** *
1047:.\Generated_Source\PSoC5/CyLib.c **** *******************************************************************************/
1048:.\Generated_Source\PSoC5/CyLib.c **** void CyILO_Stop100K(void) 
1049:.\Generated_Source\PSoC5/CyLib.c **** {
 942              		.loc 1 1049 0
 943              		.cfi_startproc
 944              		@ args = 0, pretend = 0, frame = 0
 945              		@ frame_needed = 0, uses_anonymous_args = 0
 946              		@ link register save eliminated.
1050:.\Generated_Source\PSoC5/CyLib.c ****     CY_LIB_SLOWCLK_ILO_CR0_REG &= ((uint8)(~CY_LIB_SLOWCLK_ILO_CR0_EN_100KHZ));
 947              		.loc 1 1050 0
 948 0000 024A     		ldr	r2, .L115
 949 0002 1378     		ldrb	r3, [r2]	@ zero_extendqisi2
 950 0004 03F0FB03 		and	r3, r3, #251
 951 0008 1370     		strb	r3, [r2]
 952 000a 7047     		bx	lr
 953              	.L116:
 954              		.align	2
 955              	.L115:
 956 000c 00430040 		.word	1073758976
 957              		.cfi_endproc
 958              	.LFE20:
 959              		.size	CyILO_Stop100K, .-CyILO_Stop100K
 960              		.section	.text.CyPLL_OUT_Start,"ax",%progbits
 961              		.align	1
 962              		.global	CyPLL_OUT_Start
 963              		.thumb
 964              		.thumb_func
 965              		.type	CyPLL_OUT_Start, %function
 966              	CyPLL_OUT_Start:
 967              	.LFB0:
  96:.\Generated_Source\PSoC5/CyLib.c ****     cystatus status = CYRET_SUCCESS;
 968              		.loc 1 96 0
 969              		.cfi_startproc
 970              		@ args = 0, pretend = 0, frame = 0
 971              		@ frame_needed = 0, uses_anonymous_args = 0
 972              	.LVL46:
 973 0000 2DE9F041 		push	{r4, r5, r6, r7, r8, lr}
 974              		.cfi_def_cfa_offset 24
 975              		.cfi_offset 4, -24
 976              		.cfi_offset 5, -20
 977              		.cfi_offset 6, -16
 978              		.cfi_offset 7, -12
 979              		.cfi_offset 8, -8
 980              		.cfi_offset 14, -4
 105:.\Generated_Source\PSoC5/CyLib.c **** 
ARM GAS  C:\Users\mjphi\AppData\Local\Temp\ccBvhGke.s 			page 38


 981              		.loc 1 105 0
 982 0004 184A     		ldr	r2, .L129
 983 0006 1378     		ldrb	r3, [r2]	@ zero_extendqisi2
 984 0008 43F00103 		orr	r3, r3, #1
 985 000c 1370     		strb	r3, [r2]
 107:.\Generated_Source\PSoC5/CyLib.c ****     {
 986              		.loc 1 107 0
 987 000e 38B3     		cbz	r0, .L123
 110:.\Generated_Source\PSoC5/CyLib.c ****         pmTwCfg0State = CY_LIB_PM_TW_CFG0_REG;
 988              		.loc 1 110 0
 989 0010 164B     		ldr	r3, .L129+4
 112:.\Generated_Source\PSoC5/CyLib.c **** 
 990              		.loc 1 112 0
 991 0012 174C     		ldr	r4, .L129+8
 114:.\Generated_Source\PSoC5/CyLib.c **** 
 992              		.loc 1 114 0
 993 0014 1820     		movs	r0, #24
 994              	.LVL47:
 110:.\Generated_Source\PSoC5/CyLib.c ****         pmTwCfg0State = CY_LIB_PM_TW_CFG0_REG;
 995              		.loc 1 110 0
 996 0016 1D78     		ldrb	r5, [r3]	@ zero_extendqisi2
 997 0018 2646     		mov	r6, r4
 111:.\Generated_Source\PSoC5/CyLib.c ****         pmTwCfg2State = CY_LIB_PM_TW_CFG2_REG;
 998              		.loc 1 111 0
 999 001a 93F88080 		ldrb	r8, [r3, #128]	@ zero_extendqisi2
 112:.\Generated_Source\PSoC5/CyLib.c **** 
 1000              		.loc 1 112 0
 1001 001e 2778     		ldrb	r7, [r4]	@ zero_extendqisi2
 114:.\Generated_Source\PSoC5/CyLib.c **** 
 1002              		.loc 1 114 0
 1003 0020 FFF7FEFF 		bl	CyPmFtwSetInterval
 1004              	.LVL48:
 110:.\Generated_Source\PSoC5/CyLib.c ****         pmTwCfg0State = CY_LIB_PM_TW_CFG0_REG;
 1005              		.loc 1 110 0
 1006 0024 05F00405 		and	r5, r5, #4
 1007 0028 EDB2     		uxtb	r5, r5
 1008              	.LVL49:
 111:.\Generated_Source\PSoC5/CyLib.c ****         pmTwCfg2State = CY_LIB_PM_TW_CFG2_REG;
 1009              		.loc 1 111 0
 1010 002a 5FFA88F8 		uxtb	r8, r8
 1011              	.LVL50:
 112:.\Generated_Source\PSoC5/CyLib.c **** 
 1012              		.loc 1 112 0
 1013 002e FFB2     		uxtb	r7, r7
 1014              	.LVL51:
 1015              	.L126:
 118:.\Generated_Source\PSoC5/CyLib.c ****         {
 1016              		.loc 1 118 0
 1017 0030 0120     		movs	r0, #1
 1018 0032 FFF7FEFF 		bl	CyPmReadStatus
 1019              	.LVL52:
 1020 0036 10F00100 		ands	r0, r0, #1
 1021 003a 08D1     		bne	.L128
 121:.\Generated_Source\PSoC5/CyLib.c ****             {
 1022              		.loc 1 121 0
 1023 003c 0D4B     		ldr	r3, .L129+12
 1024 003e 1A78     		ldrb	r2, [r3]	@ zero_extendqisi2
ARM GAS  C:\Users\mjphi\AppData\Local\Temp\ccBvhGke.s 			page 39


 1025 0040 D207     		lsls	r2, r2, #31
 1026 0042 F5D5     		bpl	.L126
 123:.\Generated_Source\PSoC5/CyLib.c ****                 {
 1027              		.loc 1 123 0
 1028 0044 1B78     		ldrb	r3, [r3]	@ zero_extendqisi2
 1029 0046 DB07     		lsls	r3, r3, #31
 1030 0048 F2D5     		bpl	.L126
 125:.\Generated_Source\PSoC5/CyLib.c ****                     break;
 1031              		.loc 1 125 0
 1032 004a 0446     		mov	r4, r0
 1033 004c 00E0     		b	.L120
 1034              	.L128:
 116:.\Generated_Source\PSoC5/CyLib.c **** 
 1035              		.loc 1 116 0
 1036 004e 1024     		movs	r4, #16
 1037              	.L120:
 1038              	.LVL53:
 132:.\Generated_Source\PSoC5/CyLib.c ****         {
 1039              		.loc 1 132 0
 1040 0050 0DB9     		cbnz	r5, .L122
 134:.\Generated_Source\PSoC5/CyLib.c ****         }
 1041              		.loc 1 134 0
 1042 0052 FFF7FEFF 		bl	CyILO_Stop100K
 1043              	.LVL54:
 1044              	.L122:
 137:.\Generated_Source\PSoC5/CyLib.c ****         CY_LIB_PM_TW_CFG2_REG = pmTwCfg2State;
 1045              		.loc 1 137 0
 1046 0056 084B     		ldr	r3, .L129+16
 1047 0058 83F80080 		strb	r8, [r3]
 138:.\Generated_Source\PSoC5/CyLib.c ****     }
 1048              		.loc 1 138 0
 1049 005c 3770     		strb	r7, [r6]
 1050 005e 00E0     		b	.L118
 1051              	.LVL55:
 1052              	.L123:
  97:.\Generated_Source\PSoC5/CyLib.c **** 
 1053              		.loc 1 97 0
 1054 0060 0446     		mov	r4, r0
 1055              	.LVL56:
 1056              	.L118:
 142:.\Generated_Source\PSoC5/CyLib.c **** 
 1057              		.loc 1 142 0
 1058 0062 2046     		mov	r0, r4
 1059 0064 BDE8F081 		pop	{r4, r5, r6, r7, r8, pc}
 1060              	.LVL57:
 1061              	.L130:
 1062              		.align	2
 1063              	.L129:
 1064 0068 20420040 		.word	1073758752
 1065 006c 00430040 		.word	1073758976
 1066 0070 82430040 		.word	1073759106
 1067 0074 25420040 		.word	1073758757
 1068 0078 80430040 		.word	1073759104
 1069              		.cfi_endproc
 1070              	.LFE0:
 1071              		.size	CyPLL_OUT_Start, .-CyPLL_OUT_Start
 1072              		.section	.text.CyIMO_Start,"ax",%progbits
ARM GAS  C:\Users\mjphi\AppData\Local\Temp\ccBvhGke.s 			page 40


 1073              		.align	1
 1074              		.global	CyIMO_Start
 1075              		.thumb
 1076              		.thumb_func
 1077              		.type	CyIMO_Start, %function
 1078              	CyIMO_Start:
 1079              	.LFB4:
 303:.\Generated_Source\PSoC5/CyLib.c ****     uint8 pmFtwCfg2Reg;
 1080              		.loc 1 303 0
 1081              		.cfi_startproc
 1082              		@ args = 0, pretend = 0, frame = 0
 1083              		@ frame_needed = 0, uses_anonymous_args = 0
 1084              	.LVL58:
 1085 0000 F8B5     		push	{r3, r4, r5, r6, r7, lr}
 1086              		.cfi_def_cfa_offset 24
 1087              		.cfi_offset 3, -24
 1088              		.cfi_offset 4, -20
 1089              		.cfi_offset 5, -16
 1090              		.cfi_offset 6, -12
 1091              		.cfi_offset 7, -8
 1092              		.cfi_offset 14, -4
 309:.\Generated_Source\PSoC5/CyLib.c ****     CY_LIB_PM_STBY_CFG0_REG |= CY_LIB_PM_STBY_CFG0_IMO_EN;
 1093              		.loc 1 309 0
 1094 0002 124A     		ldr	r2, .L140
 1095 0004 1378     		ldrb	r3, [r2]	@ zero_extendqisi2
 1096 0006 43F01003 		orr	r3, r3, #16
 1097 000a 1370     		strb	r3, [r2]
 310:.\Generated_Source\PSoC5/CyLib.c **** 
 1098              		.loc 1 310 0
 1099 000c 137C     		ldrb	r3, [r2, #16]	@ zero_extendqisi2
 1100 000e 43F01003 		orr	r3, r3, #16
 1101 0012 1374     		strb	r3, [r2, #16]
 312:.\Generated_Source\PSoC5/CyLib.c ****     {
 1102              		.loc 1 312 0
 1103 0014 C0B1     		cbz	r0, .L131
 315:.\Generated_Source\PSoC5/CyLib.c ****         pmFtwCfg0Reg = CY_LIB_PM_TW_CFG0_REG;
 1104              		.loc 1 315 0
 1105 0016 0E4B     		ldr	r3, .L140+4
 317:.\Generated_Source\PSoC5/CyLib.c **** 
 1106              		.loc 1 317 0
 1107 0018 0E4D     		ldr	r5, .L140+8
 315:.\Generated_Source\PSoC5/CyLib.c ****         pmFtwCfg0Reg = CY_LIB_PM_TW_CFG0_REG;
 1108              		.loc 1 315 0
 1109 001a 1C78     		ldrb	r4, [r3]	@ zero_extendqisi2
 316:.\Generated_Source\PSoC5/CyLib.c ****         pmFtwCfg2Reg = CY_LIB_PM_TW_CFG2_REG;
 1110              		.loc 1 316 0
 1111 001c 93F88070 		ldrb	r7, [r3, #128]	@ zero_extendqisi2
 317:.\Generated_Source\PSoC5/CyLib.c **** 
 1112              		.loc 1 317 0
 1113 0020 2E78     		ldrb	r6, [r5]	@ zero_extendqisi2
 315:.\Generated_Source\PSoC5/CyLib.c ****         pmFtwCfg0Reg = CY_LIB_PM_TW_CFG0_REG;
 1114              		.loc 1 315 0
 1115 0022 04F00404 		and	r4, r4, #4
 319:.\Generated_Source\PSoC5/CyLib.c **** 
 1116              		.loc 1 319 0
 1117 0026 0020     		movs	r0, #0
 1118              	.LVL59:
ARM GAS  C:\Users\mjphi\AppData\Local\Temp\ccBvhGke.s 			page 41


 315:.\Generated_Source\PSoC5/CyLib.c ****         pmFtwCfg0Reg = CY_LIB_PM_TW_CFG0_REG;
 1119              		.loc 1 315 0
 1120 0028 E4B2     		uxtb	r4, r4
 1121              	.LVL60:
 316:.\Generated_Source\PSoC5/CyLib.c ****         pmFtwCfg2Reg = CY_LIB_PM_TW_CFG2_REG;
 1122              		.loc 1 316 0
 1123 002a FFB2     		uxtb	r7, r7
 1124              	.LVL61:
 317:.\Generated_Source\PSoC5/CyLib.c **** 
 1125              		.loc 1 317 0
 1126 002c F6B2     		uxtb	r6, r6
 1127              	.LVL62:
 319:.\Generated_Source\PSoC5/CyLib.c **** 
 1128              		.loc 1 319 0
 1129 002e FFF7FEFF 		bl	CyPmFtwSetInterval
 1130              	.LVL63:
 1131              	.L133:
 321:.\Generated_Source\PSoC5/CyLib.c ****         {
 1132              		.loc 1 321 0 discriminator 1
 1133 0032 0120     		movs	r0, #1
 1134 0034 FFF7FEFF 		bl	CyPmReadStatus
 1135              	.LVL64:
 1136 0038 C307     		lsls	r3, r0, #31
 1137 003a FAD5     		bpl	.L133
 326:.\Generated_Source\PSoC5/CyLib.c ****         {
 1138              		.loc 1 326 0
 1139 003c 0CB9     		cbnz	r4, .L134
 328:.\Generated_Source\PSoC5/CyLib.c ****         }
 1140              		.loc 1 328 0
 1141 003e FFF7FEFF 		bl	CyILO_Stop100K
 1142              	.LVL65:
 1143              	.L134:
 331:.\Generated_Source\PSoC5/CyLib.c ****         CY_LIB_PM_TW_CFG2_REG = pmFtwCfg2Reg;
 1144              		.loc 1 331 0
 1145 0042 054B     		ldr	r3, .L140+12
 1146 0044 1F70     		strb	r7, [r3]
 332:.\Generated_Source\PSoC5/CyLib.c ****     }
 1147              		.loc 1 332 0
 1148 0046 2E70     		strb	r6, [r5]
 1149              	.LVL66:
 1150              	.L131:
 1151 0048 F8BD     		pop	{r3, r4, r5, r6, r7, pc}
 1152              	.L141:
 1153 004a 00BF     		.align	2
 1154              	.L140:
 1155 004c A0430040 		.word	1073759136
 1156 0050 00430040 		.word	1073758976
 1157 0054 82430040 		.word	1073759106
 1158 0058 80430040 		.word	1073759104
 1159              		.cfi_endproc
 1160              	.LFE4:
 1161              		.size	CyIMO_Start, .-CyIMO_Start
 1162              		.section	.text.CyILO_Enable33K,"ax",%progbits
 1163              		.align	1
 1164              		.global	CyILO_Enable33K
 1165              		.thumb
 1166              		.thumb_func
ARM GAS  C:\Users\mjphi\AppData\Local\Temp\ccBvhGke.s 			page 42


 1167              		.type	CyILO_Enable33K, %function
 1168              	CyILO_Enable33K:
 1169              	.LFB21:
1051:.\Generated_Source\PSoC5/CyLib.c **** }
1052:.\Generated_Source\PSoC5/CyLib.c **** 
1053:.\Generated_Source\PSoC5/CyLib.c **** 
1054:.\Generated_Source\PSoC5/CyLib.c **** /*******************************************************************************
1055:.\Generated_Source\PSoC5/CyLib.c **** * Function Name: CyILO_Enable33K
1056:.\Generated_Source\PSoC5/CyLib.c **** ********************************************************************************
1057:.\Generated_Source\PSoC5/CyLib.c **** *
1058:.\Generated_Source\PSoC5/CyLib.c **** * Summary:
1059:.\Generated_Source\PSoC5/CyLib.c **** *  Enables the ILO 33 KHz divider.
1060:.\Generated_Source\PSoC5/CyLib.c **** *
1061:.\Generated_Source\PSoC5/CyLib.c **** *  Note that the 33 KHz clock is generated from the 100 KHz oscillator,
1062:.\Generated_Source\PSoC5/CyLib.c **** *  so it must also be running in order to generate the 33 KHz output.
1063:.\Generated_Source\PSoC5/CyLib.c **** *
1064:.\Generated_Source\PSoC5/CyLib.c **** * Parameters:
1065:.\Generated_Source\PSoC5/CyLib.c **** *  None
1066:.\Generated_Source\PSoC5/CyLib.c **** *
1067:.\Generated_Source\PSoC5/CyLib.c **** * Return:
1068:.\Generated_Source\PSoC5/CyLib.c **** *  None
1069:.\Generated_Source\PSoC5/CyLib.c **** *
1070:.\Generated_Source\PSoC5/CyLib.c **** *******************************************************************************/
1071:.\Generated_Source\PSoC5/CyLib.c **** void CyILO_Enable33K(void) 
1072:.\Generated_Source\PSoC5/CyLib.c **** {
 1170              		.loc 1 1072 0
 1171              		.cfi_startproc
 1172              		@ args = 0, pretend = 0, frame = 0
 1173              		@ frame_needed = 0, uses_anonymous_args = 0
 1174              		@ link register save eliminated.
1073:.\Generated_Source\PSoC5/CyLib.c ****     /* Set bit 5 of ILO RS */
1074:.\Generated_Source\PSoC5/CyLib.c ****     CY_LIB_SLOWCLK_ILO_CR0_REG |= CY_LIB_SLOWCLK_ILO_CR0_EN_33KHZ;
 1175              		.loc 1 1074 0
 1176 0000 024A     		ldr	r2, .L143
 1177 0002 1378     		ldrb	r3, [r2]	@ zero_extendqisi2
 1178 0004 43F02003 		orr	r3, r3, #32
 1179 0008 1370     		strb	r3, [r2]
 1180 000a 7047     		bx	lr
 1181              	.L144:
 1182              		.align	2
 1183              	.L143:
 1184 000c 00430040 		.word	1073758976
 1185              		.cfi_endproc
 1186              	.LFE21:
 1187              		.size	CyILO_Enable33K, .-CyILO_Enable33K
 1188              		.section	.text.CyILO_Disable33K,"ax",%progbits
 1189              		.align	1
 1190              		.global	CyILO_Disable33K
 1191              		.thumb
 1192              		.thumb_func
 1193              		.type	CyILO_Disable33K, %function
 1194              	CyILO_Disable33K:
 1195              	.LFB22:
1075:.\Generated_Source\PSoC5/CyLib.c **** }
1076:.\Generated_Source\PSoC5/CyLib.c **** 
1077:.\Generated_Source\PSoC5/CyLib.c **** 
1078:.\Generated_Source\PSoC5/CyLib.c **** /*******************************************************************************
ARM GAS  C:\Users\mjphi\AppData\Local\Temp\ccBvhGke.s 			page 43


1079:.\Generated_Source\PSoC5/CyLib.c **** * Function Name: CyILO_Disable33K
1080:.\Generated_Source\PSoC5/CyLib.c **** ********************************************************************************
1081:.\Generated_Source\PSoC5/CyLib.c **** *
1082:.\Generated_Source\PSoC5/CyLib.c **** * Summary:
1083:.\Generated_Source\PSoC5/CyLib.c **** *  Disables the ILO 33 KHz divider.
1084:.\Generated_Source\PSoC5/CyLib.c **** *
1085:.\Generated_Source\PSoC5/CyLib.c **** *  Note that the 33 KHz clock is generated from the 100 KHz oscillator, but this
1086:.\Generated_Source\PSoC5/CyLib.c **** *  API does not disable the 100 KHz clock.
1087:.\Generated_Source\PSoC5/CyLib.c **** *
1088:.\Generated_Source\PSoC5/CyLib.c **** * Parameters:
1089:.\Generated_Source\PSoC5/CyLib.c **** *  None
1090:.\Generated_Source\PSoC5/CyLib.c **** *
1091:.\Generated_Source\PSoC5/CyLib.c **** * Return:
1092:.\Generated_Source\PSoC5/CyLib.c **** *  None
1093:.\Generated_Source\PSoC5/CyLib.c **** *
1094:.\Generated_Source\PSoC5/CyLib.c **** *******************************************************************************/
1095:.\Generated_Source\PSoC5/CyLib.c **** void CyILO_Disable33K(void) 
1096:.\Generated_Source\PSoC5/CyLib.c **** {
 1196              		.loc 1 1096 0
 1197              		.cfi_startproc
 1198              		@ args = 0, pretend = 0, frame = 0
 1199              		@ frame_needed = 0, uses_anonymous_args = 0
 1200              		@ link register save eliminated.
1097:.\Generated_Source\PSoC5/CyLib.c ****     CY_LIB_SLOWCLK_ILO_CR0_REG &= ((uint8)(~CY_LIB_SLOWCLK_ILO_CR0_EN_33KHZ));
 1201              		.loc 1 1097 0
 1202 0000 024A     		ldr	r2, .L146
 1203 0002 1378     		ldrb	r3, [r2]	@ zero_extendqisi2
 1204 0004 03F0DF03 		and	r3, r3, #223
 1205 0008 1370     		strb	r3, [r2]
 1206 000a 7047     		bx	lr
 1207              	.L147:
 1208              		.align	2
 1209              	.L146:
 1210 000c 00430040 		.word	1073758976
 1211              		.cfi_endproc
 1212              	.LFE22:
 1213              		.size	CyILO_Disable33K, .-CyILO_Disable33K
 1214              		.section	.text.CyILO_SetSource,"ax",%progbits
 1215              		.align	1
 1216              		.global	CyILO_SetSource
 1217              		.thumb
 1218              		.thumb_func
 1219              		.type	CyILO_SetSource, %function
 1220              	CyILO_SetSource:
 1221              	.LFB23:
1098:.\Generated_Source\PSoC5/CyLib.c **** }
1099:.\Generated_Source\PSoC5/CyLib.c **** 
1100:.\Generated_Source\PSoC5/CyLib.c **** 
1101:.\Generated_Source\PSoC5/CyLib.c **** /*******************************************************************************
1102:.\Generated_Source\PSoC5/CyLib.c **** * Function Name: CyILO_SetSource
1103:.\Generated_Source\PSoC5/CyLib.c **** ********************************************************************************
1104:.\Generated_Source\PSoC5/CyLib.c **** *
1105:.\Generated_Source\PSoC5/CyLib.c **** * Summary:
1106:.\Generated_Source\PSoC5/CyLib.c **** *  Sets the source of the clock output from the ILO block.
1107:.\Generated_Source\PSoC5/CyLib.c **** *
1108:.\Generated_Source\PSoC5/CyLib.c **** * Parameters:
1109:.\Generated_Source\PSoC5/CyLib.c **** *  source: One of the three available ILO output sources
ARM GAS  C:\Users\mjphi\AppData\Local\Temp\ccBvhGke.s 			page 44


1110:.\Generated_Source\PSoC5/CyLib.c **** *       Value        Define                Source
1111:.\Generated_Source\PSoC5/CyLib.c **** *       0            CY_ILO_SOURCE_100K    ILO 100 KHz
1112:.\Generated_Source\PSoC5/CyLib.c **** *       1            CY_ILO_SOURCE_33K     ILO 33 KHz
1113:.\Generated_Source\PSoC5/CyLib.c **** *       2            CY_ILO_SOURCE_1K      ILO 1 KHz
1114:.\Generated_Source\PSoC5/CyLib.c **** *
1115:.\Generated_Source\PSoC5/CyLib.c **** * Return:
1116:.\Generated_Source\PSoC5/CyLib.c **** *  None
1117:.\Generated_Source\PSoC5/CyLib.c **** *
1118:.\Generated_Source\PSoC5/CyLib.c **** *******************************************************************************/
1119:.\Generated_Source\PSoC5/CyLib.c **** void CyILO_SetSource(uint8 source) 
1120:.\Generated_Source\PSoC5/CyLib.c **** {
 1222              		.loc 1 1120 0
 1223              		.cfi_startproc
 1224              		@ args = 0, pretend = 0, frame = 0
 1225              		@ frame_needed = 0, uses_anonymous_args = 0
 1226              		@ link register save eliminated.
 1227              	.LVL67:
1121:.\Generated_Source\PSoC5/CyLib.c ****     CY_LIB_CLKDIST_CR_REG = (CY_LIB_CLKDIST_CR_REG & CY_ILO_SOURCE_BITS_CLEAR) |
 1228              		.loc 1 1121 0
 1229 0000 4FF04022 		mov	r2, #1073758208
 1230 0004 1378     		ldrb	r3, [r2]	@ zero_extendqisi2
1122:.\Generated_Source\PSoC5/CyLib.c ****                     (((uint8) (source << 2u)) & ((uint8)(~CY_ILO_SOURCE_BITS_CLEAR)));
 1231              		.loc 1 1122 0
 1232 0006 8000     		lsls	r0, r0, #2
 1233              	.LVL68:
1121:.\Generated_Source\PSoC5/CyLib.c ****     CY_LIB_CLKDIST_CR_REG = (CY_LIB_CLKDIST_CR_REG & CY_ILO_SOURCE_BITS_CLEAR) |
 1234              		.loc 1 1121 0
 1235 0008 00F00C00 		and	r0, r0, #12
 1236 000c 03F0F303 		and	r3, r3, #243
 1237 0010 0343     		orrs	r3, r3, r0
 1238 0012 1370     		strb	r3, [r2]
 1239 0014 7047     		bx	lr
 1240              		.cfi_endproc
 1241              	.LFE23:
 1242              		.size	CyILO_SetSource, .-CyILO_SetSource
 1243              		.section	.text.CyILO_SetPowerMode,"ax",%progbits
 1244              		.align	1
 1245              		.global	CyILO_SetPowerMode
 1246              		.thumb
 1247              		.thumb_func
 1248              		.type	CyILO_SetPowerMode, %function
 1249              	CyILO_SetPowerMode:
 1250              	.LFB24:
1123:.\Generated_Source\PSoC5/CyLib.c **** }
1124:.\Generated_Source\PSoC5/CyLib.c **** 
1125:.\Generated_Source\PSoC5/CyLib.c **** 
1126:.\Generated_Source\PSoC5/CyLib.c **** /*******************************************************************************
1127:.\Generated_Source\PSoC5/CyLib.c **** * Function Name: CyILO_SetPowerMode
1128:.\Generated_Source\PSoC5/CyLib.c **** ********************************************************************************
1129:.\Generated_Source\PSoC5/CyLib.c **** *
1130:.\Generated_Source\PSoC5/CyLib.c **** * Summary:
1131:.\Generated_Source\PSoC5/CyLib.c **** *  Sets the power mode used by the ILO during power down. Allows for lower power
1132:.\Generated_Source\PSoC5/CyLib.c **** *  down power usage resulting in a slower startup time.
1133:.\Generated_Source\PSoC5/CyLib.c **** *
1134:.\Generated_Source\PSoC5/CyLib.c **** * Parameters:
1135:.\Generated_Source\PSoC5/CyLib.c **** *  uint8 mode
1136:.\Generated_Source\PSoC5/CyLib.c **** *   CY_ILO_FAST_START - Faster start-up, internal bias left on when powered down
ARM GAS  C:\Users\mjphi\AppData\Local\Temp\ccBvhGke.s 			page 45


1137:.\Generated_Source\PSoC5/CyLib.c **** *   CY_ILO_SLOW_START - Slower start-up, internal bias off when powered down
1138:.\Generated_Source\PSoC5/CyLib.c **** *
1139:.\Generated_Source\PSoC5/CyLib.c **** * Return:
1140:.\Generated_Source\PSoC5/CyLib.c **** *   Prevous power mode state.
1141:.\Generated_Source\PSoC5/CyLib.c **** *
1142:.\Generated_Source\PSoC5/CyLib.c **** *******************************************************************************/
1143:.\Generated_Source\PSoC5/CyLib.c **** uint8 CyILO_SetPowerMode(uint8 mode) 
1144:.\Generated_Source\PSoC5/CyLib.c **** {
 1251              		.loc 1 1144 0
 1252              		.cfi_startproc
 1253              		@ args = 0, pretend = 0, frame = 0
 1254              		@ frame_needed = 0, uses_anonymous_args = 0
 1255              		@ link register save eliminated.
 1256              	.LVL69:
1145:.\Generated_Source\PSoC5/CyLib.c ****     uint8 state;
1146:.\Generated_Source\PSoC5/CyLib.c **** 
1147:.\Generated_Source\PSoC5/CyLib.c ****     /* Get current state. */
1148:.\Generated_Source\PSoC5/CyLib.c ****     state = CY_LIB_SLOWCLK_ILO_CR0_REG;
 1257              		.loc 1 1148 0
 1258 0000 064A     		ldr	r2, .L153
 1259 0002 1378     		ldrb	r3, [r2]	@ zero_extendqisi2
 1260 0004 DBB2     		uxtb	r3, r3
 1261              	.LVL70:
1149:.\Generated_Source\PSoC5/CyLib.c **** 
1150:.\Generated_Source\PSoC5/CyLib.c ****     /* Set the oscillator power mode. */
1151:.\Generated_Source\PSoC5/CyLib.c ****     if(mode != CY_ILO_FAST_START)
 1262              		.loc 1 1151 0
 1263 0006 10B1     		cbz	r0, .L150
1152:.\Generated_Source\PSoC5/CyLib.c ****     {
1153:.\Generated_Source\PSoC5/CyLib.c ****         CY_LIB_SLOWCLK_ILO_CR0_REG = (state | CY_ILO_CONTROL_PD_MODE);
 1264              		.loc 1 1153 0
 1265 0008 43F01001 		orr	r1, r3, #16
 1266 000c 01E0     		b	.L152
 1267              	.L150:
1154:.\Generated_Source\PSoC5/CyLib.c ****     }
1155:.\Generated_Source\PSoC5/CyLib.c ****     else
1156:.\Generated_Source\PSoC5/CyLib.c ****     {
1157:.\Generated_Source\PSoC5/CyLib.c ****         CY_LIB_SLOWCLK_ILO_CR0_REG = (state & ((uint8)(~CY_ILO_CONTROL_PD_MODE)));
 1268              		.loc 1 1157 0
 1269 000e 03F0EF01 		and	r1, r3, #239
 1270              	.L152:
 1271 0012 1170     		strb	r1, [r2]
1158:.\Generated_Source\PSoC5/CyLib.c ****     }
1159:.\Generated_Source\PSoC5/CyLib.c **** 
1160:.\Generated_Source\PSoC5/CyLib.c ****     /* Return old mode. */
1161:.\Generated_Source\PSoC5/CyLib.c ****     return ((state & CY_ILO_CONTROL_PD_MODE) >> CY_ILO_CONTROL_PD_POSITION);
1162:.\Generated_Source\PSoC5/CyLib.c **** }
 1272              		.loc 1 1162 0
 1273 0014 C3F30010 		ubfx	r0, r3, #4, #1
 1274              	.LVL71:
 1275 0018 7047     		bx	lr
 1276              	.L154:
 1277 001a 00BF     		.align	2
 1278              	.L153:
 1279 001c 00430040 		.word	1073758976
 1280              		.cfi_endproc
 1281              	.LFE24:
ARM GAS  C:\Users\mjphi\AppData\Local\Temp\ccBvhGke.s 			page 46


 1282              		.size	CyILO_SetPowerMode, .-CyILO_SetPowerMode
 1283              		.section	.text.CyXTAL_32KHZ_Stop,"ax",%progbits
 1284              		.align	1
 1285              		.global	CyXTAL_32KHZ_Stop
 1286              		.thumb
 1287              		.thumb_func
 1288              		.type	CyXTAL_32KHZ_Stop, %function
 1289              	CyXTAL_32KHZ_Stop:
 1290              	.LFB26:
1163:.\Generated_Source\PSoC5/CyLib.c **** 
1164:.\Generated_Source\PSoC5/CyLib.c **** 
1165:.\Generated_Source\PSoC5/CyLib.c **** /*******************************************************************************
1166:.\Generated_Source\PSoC5/CyLib.c **** * Function Name: CyXTAL_32KHZ_Start
1167:.\Generated_Source\PSoC5/CyLib.c **** ********************************************************************************
1168:.\Generated_Source\PSoC5/CyLib.c **** *
1169:.\Generated_Source\PSoC5/CyLib.c **** * Summary:
1170:.\Generated_Source\PSoC5/CyLib.c **** *  Enables the 32 KHz Crystal Oscillator.
1171:.\Generated_Source\PSoC5/CyLib.c **** *
1172:.\Generated_Source\PSoC5/CyLib.c **** * Parameters:
1173:.\Generated_Source\PSoC5/CyLib.c **** *  None
1174:.\Generated_Source\PSoC5/CyLib.c **** *
1175:.\Generated_Source\PSoC5/CyLib.c **** * Return:
1176:.\Generated_Source\PSoC5/CyLib.c **** *  None
1177:.\Generated_Source\PSoC5/CyLib.c **** *
1178:.\Generated_Source\PSoC5/CyLib.c **** *******************************************************************************/
1179:.\Generated_Source\PSoC5/CyLib.c **** void CyXTAL_32KHZ_Start(void) 
1180:.\Generated_Source\PSoC5/CyLib.c **** {
1181:.\Generated_Source\PSoC5/CyLib.c ****     volatile uint16 i;
1182:.\Generated_Source\PSoC5/CyLib.c **** 
1183:.\Generated_Source\PSoC5/CyLib.c ****     CY_CLK_XTAL32_TST_REG = CY_CLK_XTAL32_TST_DEFAULT;
1184:.\Generated_Source\PSoC5/CyLib.c ****     CY_CLK_XTAL32_TR_REG  = CY_CLK_XTAL32_TR_STARTUP;
1185:.\Generated_Source\PSoC5/CyLib.c ****     CY_CLK_XTAL32_CFG_REG = (CY_CLK_XTAL32_CFG_REG & ((uint8)(~CY_CLK_XTAL32_CFG_LP_MASK))) |
1186:.\Generated_Source\PSoC5/CyLib.c ****                                 CY_CLK_XTAL32_CFG_LP_DEFAULT;
1187:.\Generated_Source\PSoC5/CyLib.c **** 
1188:.\Generated_Source\PSoC5/CyLib.c ****     #if(CY_PSOC3)
1189:.\Generated_Source\PSoC5/CyLib.c ****         CY_CLK_XTAL32_CR_REG |= CY_CLK_XTAL32_CR_PDBEN;
1190:.\Generated_Source\PSoC5/CyLib.c ****     #endif  /* (CY_PSOC3) */
1191:.\Generated_Source\PSoC5/CyLib.c **** 
1192:.\Generated_Source\PSoC5/CyLib.c ****     /* Enable operation of 32K Crystal Oscillator */
1193:.\Generated_Source\PSoC5/CyLib.c ****     CY_CLK_XTAL32_CR_REG |= CY_CLK_XTAL32_CR_EN;
1194:.\Generated_Source\PSoC5/CyLib.c **** 
1195:.\Generated_Source\PSoC5/CyLib.c ****     for (i = 1000u; i > 0u; i--)
1196:.\Generated_Source\PSoC5/CyLib.c ****     {
1197:.\Generated_Source\PSoC5/CyLib.c ****         if(0u != (CyXTAL_32KHZ_ReadStatus() & CY_XTAL32K_ANA_STAT))
1198:.\Generated_Source\PSoC5/CyLib.c ****         {
1199:.\Generated_Source\PSoC5/CyLib.c ****             /* Ready - switch to high power mode */
1200:.\Generated_Source\PSoC5/CyLib.c ****             (void) CyXTAL_32KHZ_SetPowerMode(0u);
1201:.\Generated_Source\PSoC5/CyLib.c **** 
1202:.\Generated_Source\PSoC5/CyLib.c ****             break;
1203:.\Generated_Source\PSoC5/CyLib.c ****         }
1204:.\Generated_Source\PSoC5/CyLib.c ****         CyDelayUs(1u);
1205:.\Generated_Source\PSoC5/CyLib.c ****     }
1206:.\Generated_Source\PSoC5/CyLib.c **** }
1207:.\Generated_Source\PSoC5/CyLib.c **** 
1208:.\Generated_Source\PSoC5/CyLib.c **** 
1209:.\Generated_Source\PSoC5/CyLib.c **** /*******************************************************************************
1210:.\Generated_Source\PSoC5/CyLib.c **** * Function Name: CyXTAL_32KHZ_Stop
ARM GAS  C:\Users\mjphi\AppData\Local\Temp\ccBvhGke.s 			page 47


1211:.\Generated_Source\PSoC5/CyLib.c **** ********************************************************************************
1212:.\Generated_Source\PSoC5/CyLib.c **** *
1213:.\Generated_Source\PSoC5/CyLib.c **** * Summary:
1214:.\Generated_Source\PSoC5/CyLib.c **** *  Disables the 32KHz Crystal Oscillator.
1215:.\Generated_Source\PSoC5/CyLib.c **** *
1216:.\Generated_Source\PSoC5/CyLib.c **** * Parameters:
1217:.\Generated_Source\PSoC5/CyLib.c **** *  None
1218:.\Generated_Source\PSoC5/CyLib.c **** *
1219:.\Generated_Source\PSoC5/CyLib.c **** * Return:
1220:.\Generated_Source\PSoC5/CyLib.c **** *  None
1221:.\Generated_Source\PSoC5/CyLib.c **** *
1222:.\Generated_Source\PSoC5/CyLib.c **** *******************************************************************************/
1223:.\Generated_Source\PSoC5/CyLib.c **** void CyXTAL_32KHZ_Stop(void) 
1224:.\Generated_Source\PSoC5/CyLib.c **** {
 1291              		.loc 1 1224 0
 1292              		.cfi_startproc
 1293              		@ args = 0, pretend = 0, frame = 0
 1294              		@ frame_needed = 0, uses_anonymous_args = 0
 1295              		@ link register save eliminated.
1225:.\Generated_Source\PSoC5/CyLib.c ****     CY_CLK_XTAL32_TST_REG  = CY_CLK_XTAL32_TST_DEFAULT;
 1296              		.loc 1 1225 0
 1297 0000 094B     		ldr	r3, .L156
 1298 0002 F322     		movs	r2, #243
 1299 0004 1A70     		strb	r2, [r3]
1226:.\Generated_Source\PSoC5/CyLib.c ****     CY_CLK_XTAL32_TR_REG   = CY_CLK_XTAL32_TR_POWERDOWN;
 1300              		.loc 1 1226 0
 1301 0006 0022     		movs	r2, #0
 1302 0008 83F88E23 		strb	r2, [r3, #910]
1227:.\Generated_Source\PSoC5/CyLib.c ****     CY_CLK_XTAL32_CFG_REG = (CY_CLK_XTAL32_CFG_REG & ((uint8)(~CY_CLK_XTAL32_CFG_LP_MASK))) |
 1303              		.loc 1 1227 0
 1304 000c 074A     		ldr	r2, .L156+4
 1305 000e 1378     		ldrb	r3, [r2]	@ zero_extendqisi2
 1306 0010 03F0F303 		and	r3, r3, #243
 1307 0014 43F00403 		orr	r3, r3, #4
 1308 0018 1370     		strb	r3, [r2]
1228:.\Generated_Source\PSoC5/CyLib.c ****                              CY_CLK_XTAL32_CFG_LP_DEFAULT;
1229:.\Generated_Source\PSoC5/CyLib.c ****     CY_CLK_XTAL32_CR_REG &= ((uint8)(~(CY_CLK_XTAL32_CR_EN | CY_CLK_XTAL32_CR_LPM)));
 1309              		.loc 1 1229 0
 1310 001a 12F8013C 		ldrb	r3, [r2, #-1]	@ zero_extendqisi2
 1311 001e 03F0FC03 		and	r3, r3, #252
 1312 0022 02F8013C 		strb	r3, [r2, #-1]
 1313 0026 7047     		bx	lr
 1314              	.L157:
 1315              		.align	2
 1316              	.L156:
 1317 0028 0A430040 		.word	1073758986
 1318 002c 09430040 		.word	1073758985
 1319              		.cfi_endproc
 1320              	.LFE26:
 1321              		.size	CyXTAL_32KHZ_Stop, .-CyXTAL_32KHZ_Stop
 1322              		.section	.text.CyXTAL_32KHZ_ReadStatus,"ax",%progbits
 1323              		.align	1
 1324              		.global	CyXTAL_32KHZ_ReadStatus
 1325              		.thumb
 1326              		.thumb_func
 1327              		.type	CyXTAL_32KHZ_ReadStatus, %function
 1328              	CyXTAL_32KHZ_ReadStatus:
ARM GAS  C:\Users\mjphi\AppData\Local\Temp\ccBvhGke.s 			page 48


 1329              	.LFB27:
1230:.\Generated_Source\PSoC5/CyLib.c **** 
1231:.\Generated_Source\PSoC5/CyLib.c ****     #if(CY_PSOC3)
1232:.\Generated_Source\PSoC5/CyLib.c ****         CY_CLK_XTAL32_CR_REG &= ((uint8)(~CY_CLK_XTAL32_CR_PDBEN));
1233:.\Generated_Source\PSoC5/CyLib.c ****     #endif  /* (CY_PSOC3) */
1234:.\Generated_Source\PSoC5/CyLib.c **** }
1235:.\Generated_Source\PSoC5/CyLib.c **** 
1236:.\Generated_Source\PSoC5/CyLib.c **** 
1237:.\Generated_Source\PSoC5/CyLib.c **** /*******************************************************************************
1238:.\Generated_Source\PSoC5/CyLib.c **** * Function Name: CyXTAL_32KHZ_ReadStatus
1239:.\Generated_Source\PSoC5/CyLib.c **** ********************************************************************************
1240:.\Generated_Source\PSoC5/CyLib.c **** *
1241:.\Generated_Source\PSoC5/CyLib.c **** * Summary:
1242:.\Generated_Source\PSoC5/CyLib.c **** *  Returns status of the 32 KHz oscillator.
1243:.\Generated_Source\PSoC5/CyLib.c **** *
1244:.\Generated_Source\PSoC5/CyLib.c **** * Parameters:
1245:.\Generated_Source\PSoC5/CyLib.c **** *  None
1246:.\Generated_Source\PSoC5/CyLib.c **** *
1247:.\Generated_Source\PSoC5/CyLib.c **** * Return:
1248:.\Generated_Source\PSoC5/CyLib.c **** *  Value     Define                    Source
1249:.\Generated_Source\PSoC5/CyLib.c **** *  20        CY_XTAL32K_ANA_STAT       Analog measurement
1250:.\Generated_Source\PSoC5/CyLib.c **** *                                       1: Stable
1251:.\Generated_Source\PSoC5/CyLib.c **** *                                       0: Not stable
1252:.\Generated_Source\PSoC5/CyLib.c **** *
1253:.\Generated_Source\PSoC5/CyLib.c **** *******************************************************************************/
1254:.\Generated_Source\PSoC5/CyLib.c **** uint8 CyXTAL_32KHZ_ReadStatus(void) 
1255:.\Generated_Source\PSoC5/CyLib.c **** {
 1330              		.loc 1 1255 0
 1331              		.cfi_startproc
 1332              		@ args = 0, pretend = 0, frame = 0
 1333              		@ frame_needed = 0, uses_anonymous_args = 0
 1334              		@ link register save eliminated.
1256:.\Generated_Source\PSoC5/CyLib.c ****     return(CY_CLK_XTAL32_CR_REG & CY_XTAL32K_ANA_STAT);
 1335              		.loc 1 1256 0
 1336 0000 024B     		ldr	r3, .L159
 1337 0002 1878     		ldrb	r0, [r3]	@ zero_extendqisi2
1257:.\Generated_Source\PSoC5/CyLib.c **** }
 1338              		.loc 1 1257 0
 1339 0004 00F02000 		and	r0, r0, #32
 1340 0008 7047     		bx	lr
 1341              	.L160:
 1342 000a 00BF     		.align	2
 1343              	.L159:
 1344 000c 08430040 		.word	1073758984
 1345              		.cfi_endproc
 1346              	.LFE27:
 1347              		.size	CyXTAL_32KHZ_ReadStatus, .-CyXTAL_32KHZ_ReadStatus
 1348              		.section	.text.CyXTAL_Start,"ax",%progbits
 1349              		.align	1
 1350              		.global	CyXTAL_Start
 1351              		.thumb
 1352              		.thumb_func
 1353              		.type	CyXTAL_Start, %function
 1354              	CyXTAL_Start:
 1355              	.LFB29:
1258:.\Generated_Source\PSoC5/CyLib.c **** 
1259:.\Generated_Source\PSoC5/CyLib.c **** 
ARM GAS  C:\Users\mjphi\AppData\Local\Temp\ccBvhGke.s 			page 49


1260:.\Generated_Source\PSoC5/CyLib.c **** /*******************************************************************************
1261:.\Generated_Source\PSoC5/CyLib.c **** * Function Name: CyXTAL_32KHZ_SetPowerMode
1262:.\Generated_Source\PSoC5/CyLib.c **** ********************************************************************************
1263:.\Generated_Source\PSoC5/CyLib.c **** *
1264:.\Generated_Source\PSoC5/CyLib.c **** * Summary:
1265:.\Generated_Source\PSoC5/CyLib.c **** *  Sets the power mode for the 32 KHz oscillator used during the sleep mode.
1266:.\Generated_Source\PSoC5/CyLib.c **** *  Allows for lower power during sleep when there are fewer sources of noise.
1267:.\Generated_Source\PSoC5/CyLib.c **** *  During the active mode the oscillator is always run in the high power mode.
1268:.\Generated_Source\PSoC5/CyLib.c **** *
1269:.\Generated_Source\PSoC5/CyLib.c **** * Parameters:
1270:.\Generated_Source\PSoC5/CyLib.c **** *  uint8 mode
1271:.\Generated_Source\PSoC5/CyLib.c **** *       0: High power mode
1272:.\Generated_Source\PSoC5/CyLib.c **** *       1: Low power mode during sleep
1273:.\Generated_Source\PSoC5/CyLib.c **** *
1274:.\Generated_Source\PSoC5/CyLib.c **** * Return:
1275:.\Generated_Source\PSoC5/CyLib.c **** *  Previous power mode.
1276:.\Generated_Source\PSoC5/CyLib.c **** *
1277:.\Generated_Source\PSoC5/CyLib.c **** *******************************************************************************/
1278:.\Generated_Source\PSoC5/CyLib.c **** uint8 CyXTAL_32KHZ_SetPowerMode(uint8 mode) 
1279:.\Generated_Source\PSoC5/CyLib.c **** {
1280:.\Generated_Source\PSoC5/CyLib.c ****     uint8 state = (0u != (CY_CLK_XTAL32_CR_REG & CY_CLK_XTAL32_CR_LPM)) ? 1u : 0u;
1281:.\Generated_Source\PSoC5/CyLib.c **** 
1282:.\Generated_Source\PSoC5/CyLib.c ****     CY_CLK_XTAL32_TST_REG = CY_CLK_XTAL32_TST_DEFAULT;
1283:.\Generated_Source\PSoC5/CyLib.c **** 
1284:.\Generated_Source\PSoC5/CyLib.c ****     if(1u == mode)
1285:.\Generated_Source\PSoC5/CyLib.c ****     {
1286:.\Generated_Source\PSoC5/CyLib.c ****         /* Low power mode during Sleep */
1287:.\Generated_Source\PSoC5/CyLib.c ****         CY_CLK_XTAL32_TR_REG  = CY_CLK_XTAL32_TR_LOW_POWER;
1288:.\Generated_Source\PSoC5/CyLib.c ****         CyDelayUs(10u);
1289:.\Generated_Source\PSoC5/CyLib.c ****         CY_CLK_XTAL32_CFG_REG = (CY_CLK_XTAL32_CFG_REG & ((uint8)(~CY_CLK_XTAL32_CFG_LP_MASK))) |
1290:.\Generated_Source\PSoC5/CyLib.c ****                                 CY_CLK_XTAL32_CFG_LP_LOWPOWER;
1291:.\Generated_Source\PSoC5/CyLib.c ****         CyDelayUs(20u);
1292:.\Generated_Source\PSoC5/CyLib.c ****         CY_CLK_XTAL32_CR_REG |= CY_CLK_XTAL32_CR_LPM;
1293:.\Generated_Source\PSoC5/CyLib.c ****     }
1294:.\Generated_Source\PSoC5/CyLib.c ****     else
1295:.\Generated_Source\PSoC5/CyLib.c ****     {
1296:.\Generated_Source\PSoC5/CyLib.c ****         /* High power mode */
1297:.\Generated_Source\PSoC5/CyLib.c ****         CY_CLK_XTAL32_TR_REG  = CY_CLK_XTAL32_TR_HIGH_POWER;
1298:.\Generated_Source\PSoC5/CyLib.c ****         CyDelayUs(10u);
1299:.\Generated_Source\PSoC5/CyLib.c ****         CY_CLK_XTAL32_CFG_REG = (CY_CLK_XTAL32_CFG_REG & ((uint8)(~CY_CLK_XTAL32_CFG_LP_MASK))) |
1300:.\Generated_Source\PSoC5/CyLib.c ****                                 CY_CLK_XTAL32_CFG_LP_DEFAULT;
1301:.\Generated_Source\PSoC5/CyLib.c ****         CY_CLK_XTAL32_CR_REG &= ((uint8)(~CY_CLK_XTAL32_CR_LPM));
1302:.\Generated_Source\PSoC5/CyLib.c ****     }
1303:.\Generated_Source\PSoC5/CyLib.c **** 
1304:.\Generated_Source\PSoC5/CyLib.c ****     return(state);
1305:.\Generated_Source\PSoC5/CyLib.c **** }
1306:.\Generated_Source\PSoC5/CyLib.c **** 
1307:.\Generated_Source\PSoC5/CyLib.c **** 
1308:.\Generated_Source\PSoC5/CyLib.c **** /*******************************************************************************
1309:.\Generated_Source\PSoC5/CyLib.c **** * Function Name: CyXTAL_Start
1310:.\Generated_Source\PSoC5/CyLib.c **** ********************************************************************************
1311:.\Generated_Source\PSoC5/CyLib.c **** *
1312:.\Generated_Source\PSoC5/CyLib.c **** * Summary:
1313:.\Generated_Source\PSoC5/CyLib.c **** *  Enables the megahertz crystal.
1314:.\Generated_Source\PSoC5/CyLib.c **** *
1315:.\Generated_Source\PSoC5/CyLib.c **** *  PSoC 3:
1316:.\Generated_Source\PSoC5/CyLib.c **** *  Waits until the XERR bit is low (no error) for a millisecond or until the
ARM GAS  C:\Users\mjphi\AppData\Local\Temp\ccBvhGke.s 			page 50


1317:.\Generated_Source\PSoC5/CyLib.c **** *  number of milliseconds specified by the wait parameter has expired.
1318:.\Generated_Source\PSoC5/CyLib.c **** *
1319:.\Generated_Source\PSoC5/CyLib.c **** * Parameters:
1320:.\Generated_Source\PSoC5/CyLib.c **** *   wait: Valid range [0-255].
1321:.\Generated_Source\PSoC5/CyLib.c **** *   This is the timeout value in milliseconds.
1322:.\Generated_Source\PSoC5/CyLib.c **** *   The appropriate value is crystal specific.
1323:.\Generated_Source\PSoC5/CyLib.c **** *
1324:.\Generated_Source\PSoC5/CyLib.c **** * Return:
1325:.\Generated_Source\PSoC5/CyLib.c **** *   CYRET_SUCCESS - Completed successfully
1326:.\Generated_Source\PSoC5/CyLib.c **** *   CYRET_TIMEOUT - Timeout occurred without detecting a low value on XERR.
1327:.\Generated_Source\PSoC5/CyLib.c **** *
1328:.\Generated_Source\PSoC5/CyLib.c **** * Side Effects and Restrictions:
1329:.\Generated_Source\PSoC5/CyLib.c **** *  If wait is enabled (non-zero wait). Uses the Fast Timewheel to time the wait.
1330:.\Generated_Source\PSoC5/CyLib.c **** *  Any other use of the Fast Timewheel (FTW) will be stopped during the period
1331:.\Generated_Source\PSoC5/CyLib.c **** *  of this function and then restored.
1332:.\Generated_Source\PSoC5/CyLib.c **** *
1333:.\Generated_Source\PSoC5/CyLib.c **** *  Uses the 100KHz ILO.  If not enabled, this function will enable the 100KHz
1334:.\Generated_Source\PSoC5/CyLib.c **** *  ILO for the period of this function. No changes to the setup of the ILO,
1335:.\Generated_Source\PSoC5/CyLib.c **** *  Fast Timewheel, Central Timewheel or Once Per Second interrupt may be made
1336:.\Generated_Source\PSoC5/CyLib.c **** *  by interrupt routines during the period of this function.
1337:.\Generated_Source\PSoC5/CyLib.c **** *
1338:.\Generated_Source\PSoC5/CyLib.c **** *  The current operation of the ILO, Central Timewheel and Once Per Second
1339:.\Generated_Source\PSoC5/CyLib.c **** *  interrupt are maintained during the operation of this function provided the
1340:.\Generated_Source\PSoC5/CyLib.c **** *  reading of the Power Manager Interrupt Status Register is only done using the
1341:.\Generated_Source\PSoC5/CyLib.c **** *  CyPmReadStatus() function.
1342:.\Generated_Source\PSoC5/CyLib.c **** *
1343:.\Generated_Source\PSoC5/CyLib.c **** *******************************************************************************/
1344:.\Generated_Source\PSoC5/CyLib.c **** cystatus CyXTAL_Start(uint8 wait) 
1345:.\Generated_Source\PSoC5/CyLib.c **** {
 1356              		.loc 1 1345 0
 1357              		.cfi_startproc
 1358              		@ args = 0, pretend = 0, frame = 8
 1359              		@ frame_needed = 0, uses_anonymous_args = 0
 1360              	.LVL72:
 1361 0000 2DE9F743 		push	{r0, r1, r2, r4, r5, r6, r7, r8, r9, lr}
 1362              		.cfi_def_cfa_offset 40
 1363              		.cfi_offset 4, -28
 1364              		.cfi_offset 5, -24
 1365              		.cfi_offset 6, -20
 1366              		.cfi_offset 7, -16
 1367              		.cfi_offset 8, -12
 1368              		.cfi_offset 9, -8
 1369              		.cfi_offset 14, -4
1346:.\Generated_Source\PSoC5/CyLib.c ****     cystatus status = CYRET_SUCCESS;
1347:.\Generated_Source\PSoC5/CyLib.c ****     volatile uint8  timeout = wait;
1348:.\Generated_Source\PSoC5/CyLib.c ****     volatile uint8 count;
1349:.\Generated_Source\PSoC5/CyLib.c ****     uint8 iloEnableState;
1350:.\Generated_Source\PSoC5/CyLib.c ****     uint8 pmTwCfg0Tmp;
1351:.\Generated_Source\PSoC5/CyLib.c ****     uint8 pmTwCfg2Tmp;
1352:.\Generated_Source\PSoC5/CyLib.c **** 
1353:.\Generated_Source\PSoC5/CyLib.c **** 
1354:.\Generated_Source\PSoC5/CyLib.c ****     /* Enables MHz crystal oscillator circuit  */
1355:.\Generated_Source\PSoC5/CyLib.c ****     CY_CLK_XMHZ_CSR_REG |= CY_CLK_XMHZ_CSR_ENABLE;
 1370              		.loc 1 1355 0
 1371 0004 234D     		ldr	r5, .L177
1347:.\Generated_Source\PSoC5/CyLib.c ****     volatile uint8 count;
 1372              		.loc 1 1347 0
ARM GAS  C:\Users\mjphi\AppData\Local\Temp\ccBvhGke.s 			page 51


 1373 0006 8DF80600 		strb	r0, [sp, #6]
 1374              		.loc 1 1355 0
 1375 000a 2B78     		ldrb	r3, [r5]	@ zero_extendqisi2
 1376 000c 43F00103 		orr	r3, r3, #1
 1377 0010 2B70     		strb	r3, [r5]
1356:.\Generated_Source\PSoC5/CyLib.c **** 
1357:.\Generated_Source\PSoC5/CyLib.c **** 
1358:.\Generated_Source\PSoC5/CyLib.c ****     if(wait > 0u)
 1378              		.loc 1 1358 0
 1379 0012 0028     		cmp	r0, #0
 1380 0014 39D0     		beq	.L169
1359:.\Generated_Source\PSoC5/CyLib.c ****     {
1360:.\Generated_Source\PSoC5/CyLib.c ****         /* Save 100 KHz ILO, FTW interval, enable and interrupt enable */
1361:.\Generated_Source\PSoC5/CyLib.c ****         iloEnableState = CY_LIB_SLOWCLK_ILO_CR0_REG;
 1381              		.loc 1 1361 0
 1382 0016 204B     		ldr	r3, .L177+4
1362:.\Generated_Source\PSoC5/CyLib.c ****         pmTwCfg0Tmp = CY_LIB_PM_TW_CFG0_REG;
1363:.\Generated_Source\PSoC5/CyLib.c ****         pmTwCfg2Tmp = CY_LIB_PM_TW_CFG2_REG;
 1383              		.loc 1 1363 0
 1384 0018 204E     		ldr	r6, .L177+8
1361:.\Generated_Source\PSoC5/CyLib.c ****         pmTwCfg0Tmp = CY_LIB_PM_TW_CFG0_REG;
 1385              		.loc 1 1361 0
 1386 001a 93F80090 		ldrb	r9, [r3]	@ zero_extendqisi2
1362:.\Generated_Source\PSoC5/CyLib.c ****         pmTwCfg0Tmp = CY_LIB_PM_TW_CFG0_REG;
 1387              		.loc 1 1362 0
 1388 001e 93F88080 		ldrb	r8, [r3, #128]	@ zero_extendqisi2
 1389              		.loc 1 1363 0
 1390 0022 3778     		ldrb	r7, [r6]	@ zero_extendqisi2
1364:.\Generated_Source\PSoC5/CyLib.c **** 
1365:.\Generated_Source\PSoC5/CyLib.c ****         /* Set 250 us interval */
1366:.\Generated_Source\PSoC5/CyLib.c ****         CyPmFtwSetInterval(CY_CLK_XMHZ_FTW_INTERVAL);
 1391              		.loc 1 1366 0
 1392 0024 1820     		movs	r0, #24
 1393              	.LVL73:
1361:.\Generated_Source\PSoC5/CyLib.c ****         pmTwCfg0Tmp = CY_LIB_PM_TW_CFG0_REG;
 1394              		.loc 1 1361 0
 1395 0026 5FFA89F9 		uxtb	r9, r9
 1396              	.LVL74:
1362:.\Generated_Source\PSoC5/CyLib.c ****         pmTwCfg2Tmp = CY_LIB_PM_TW_CFG2_REG;
 1397              		.loc 1 1362 0
 1398 002a 5FFA88F8 		uxtb	r8, r8
 1399              	.LVL75:
1363:.\Generated_Source\PSoC5/CyLib.c **** 
 1400              		.loc 1 1363 0
 1401 002e FFB2     		uxtb	r7, r7
 1402              	.LVL76:
 1403              		.loc 1 1366 0
 1404 0030 FFF7FEFF 		bl	CyPmFtwSetInterval
 1405              	.LVL77:
 1406              	.L163:
1367:.\Generated_Source\PSoC5/CyLib.c ****         status = CYRET_TIMEOUT;
1368:.\Generated_Source\PSoC5/CyLib.c **** 
1369:.\Generated_Source\PSoC5/CyLib.c **** 
1370:.\Generated_Source\PSoC5/CyLib.c ****         for( ; timeout > 0u; timeout--)
 1407              		.loc 1 1370 0 discriminator 1
 1408 0034 9DF80630 		ldrb	r3, [sp, #6]	@ zero_extendqisi2
 1409 0038 E3B1     		cbz	r3, .L175
ARM GAS  C:\Users\mjphi\AppData\Local\Temp\ccBvhGke.s 			page 52


1371:.\Generated_Source\PSoC5/CyLib.c ****         {
1372:.\Generated_Source\PSoC5/CyLib.c ****             /* Read XERR bit to clear it */
1373:.\Generated_Source\PSoC5/CyLib.c ****             (void) CY_CLK_XMHZ_CSR_REG;
 1410              		.loc 1 1373 0
 1411 003a 2B78     		ldrb	r3, [r5]	@ zero_extendqisi2
1374:.\Generated_Source\PSoC5/CyLib.c **** 
1375:.\Generated_Source\PSoC5/CyLib.c ****             /* Wait for 1 millisecond - 4 x 250 us */
1376:.\Generated_Source\PSoC5/CyLib.c ****             for(count = 4u; count > 0u; count--)
 1412              		.loc 1 1376 0
 1413 003c 0423     		movs	r3, #4
 1414              	.L174:
 1415              		.loc 1 1376 0 is_stmt 0 discriminator 2
 1416 003e 8DF80730 		strb	r3, [sp, #7]
 1417 0042 9DF80730 		ldrb	r3, [sp, #7]	@ zero_extendqisi2
 1418 0046 03F0FF04 		and	r4, r3, #255
 1419 004a 4BB1     		cbz	r3, .L176
 1420              	.L172:
1377:.\Generated_Source\PSoC5/CyLib.c ****             {
1378:.\Generated_Source\PSoC5/CyLib.c ****                 while(0u == (CY_PM_FTW_INT & CyPmReadStatus(CY_PM_FTW_INT)))
 1421              		.loc 1 1378 0 is_stmt 1 discriminator 1
 1422 004c 0120     		movs	r0, #1
 1423 004e FFF7FEFF 		bl	CyPmReadStatus
 1424              	.LVL78:
 1425 0052 C207     		lsls	r2, r0, #31
 1426 0054 FAD5     		bpl	.L172
1376:.\Generated_Source\PSoC5/CyLib.c ****             {
 1427              		.loc 1 1376 0 discriminator 2
 1428 0056 9DF80730 		ldrb	r3, [sp, #7]	@ zero_extendqisi2
 1429 005a 013B     		subs	r3, r3, #1
 1430 005c DBB2     		uxtb	r3, r3
 1431 005e EEE7     		b	.L174
 1432              	.L176:
1379:.\Generated_Source\PSoC5/CyLib.c ****                 {
1380:.\Generated_Source\PSoC5/CyLib.c ****                     /* Wait for FTW interrupt event */
1381:.\Generated_Source\PSoC5/CyLib.c ****                 }
1382:.\Generated_Source\PSoC5/CyLib.c ****             }
1383:.\Generated_Source\PSoC5/CyLib.c **** 
1384:.\Generated_Source\PSoC5/CyLib.c **** 
1385:.\Generated_Source\PSoC5/CyLib.c ****             /*******************************************************************
1386:.\Generated_Source\PSoC5/CyLib.c ****             * High output indicates an oscillator failure.
1387:.\Generated_Source\PSoC5/CyLib.c ****             * Only can be used after a start-up interval (1 ms) is completed.
1388:.\Generated_Source\PSoC5/CyLib.c ****             *******************************************************************/
1389:.\Generated_Source\PSoC5/CyLib.c ****             if(0u == (CY_CLK_XMHZ_CSR_REG & CY_CLK_XMHZ_CSR_XERR))
 1433              		.loc 1 1389 0
 1434 0060 2B78     		ldrb	r3, [r5]	@ zero_extendqisi2
 1435 0062 1B06     		lsls	r3, r3, #24
 1436 0064 07D5     		bpl	.L166
1370:.\Generated_Source\PSoC5/CyLib.c ****         {
 1437              		.loc 1 1370 0
 1438 0066 9DF80630 		ldrb	r3, [sp, #6]	@ zero_extendqisi2
 1439 006a 013B     		subs	r3, r3, #1
 1440 006c DBB2     		uxtb	r3, r3
 1441 006e 8DF80630 		strb	r3, [sp, #6]
 1442 0072 DFE7     		b	.L163
 1443              	.L175:
1367:.\Generated_Source\PSoC5/CyLib.c **** 
 1444              		.loc 1 1367 0
ARM GAS  C:\Users\mjphi\AppData\Local\Temp\ccBvhGke.s 			page 53


 1445 0074 1024     		movs	r4, #16
 1446              	.L166:
 1447              	.LVL79:
1390:.\Generated_Source\PSoC5/CyLib.c ****             {
1391:.\Generated_Source\PSoC5/CyLib.c ****                 status = CYRET_SUCCESS;
1392:.\Generated_Source\PSoC5/CyLib.c ****                 break;
1393:.\Generated_Source\PSoC5/CyLib.c ****             }
1394:.\Generated_Source\PSoC5/CyLib.c ****         }
1395:.\Generated_Source\PSoC5/CyLib.c **** 
1396:.\Generated_Source\PSoC5/CyLib.c **** 
1397:.\Generated_Source\PSoC5/CyLib.c ****         /* Restore 100 KHz ILO, FTW interval, enable and interrupt enable */
1398:.\Generated_Source\PSoC5/CyLib.c ****         if(0u == (iloEnableState & CY_LIB_SLOWCLK_ILO_CR0_EN_100KHZ))
 1448              		.loc 1 1398 0
 1449 0076 19F0040F 		tst	r9, #4
 1450 007a 01D1     		bne	.L168
1399:.\Generated_Source\PSoC5/CyLib.c ****         {
1400:.\Generated_Source\PSoC5/CyLib.c ****             CyILO_Stop100K();
 1451              		.loc 1 1400 0
 1452 007c FFF7FEFF 		bl	CyILO_Stop100K
 1453              	.LVL80:
 1454              	.L168:
1401:.\Generated_Source\PSoC5/CyLib.c ****         }
1402:.\Generated_Source\PSoC5/CyLib.c ****         CY_LIB_PM_TW_CFG0_REG = pmTwCfg0Tmp;
 1455              		.loc 1 1402 0
 1456 0080 074B     		ldr	r3, .L177+12
 1457 0082 83F80080 		strb	r8, [r3]
1403:.\Generated_Source\PSoC5/CyLib.c ****         CY_LIB_PM_TW_CFG2_REG = pmTwCfg2Tmp;
 1458              		.loc 1 1403 0
 1459 0086 3770     		strb	r7, [r6]
 1460 0088 00E0     		b	.L162
 1461              	.LVL81:
 1462              	.L169:
1346:.\Generated_Source\PSoC5/CyLib.c ****     volatile uint8  timeout = wait;
 1463              		.loc 1 1346 0
 1464 008a 0446     		mov	r4, r0
 1465              	.LVL82:
 1466              	.L162:
1404:.\Generated_Source\PSoC5/CyLib.c ****     }
1405:.\Generated_Source\PSoC5/CyLib.c **** 
1406:.\Generated_Source\PSoC5/CyLib.c ****     return(status);
1407:.\Generated_Source\PSoC5/CyLib.c **** }
 1467              		.loc 1 1407 0
 1468 008c 2046     		mov	r0, r4
 1469 008e 03B0     		add	sp, sp, #12
 1470              		.cfi_def_cfa_offset 28
 1471              		@ sp needed
 1472 0090 BDE8F083 		pop	{r4, r5, r6, r7, r8, r9, pc}
 1473              	.LVL83:
 1474              	.L178:
 1475              		.align	2
 1476              	.L177:
 1477 0094 10420040 		.word	1073758736
 1478 0098 00430040 		.word	1073758976
 1479 009c 82430040 		.word	1073759106
 1480 00a0 80430040 		.word	1073759104
 1481              		.cfi_endproc
 1482              	.LFE29:
ARM GAS  C:\Users\mjphi\AppData\Local\Temp\ccBvhGke.s 			page 54


 1483              		.size	CyXTAL_Start, .-CyXTAL_Start
 1484              		.section	.text.CyXTAL_Stop,"ax",%progbits
 1485              		.align	1
 1486              		.global	CyXTAL_Stop
 1487              		.thumb
 1488              		.thumb_func
 1489              		.type	CyXTAL_Stop, %function
 1490              	CyXTAL_Stop:
 1491              	.LFB30:
1408:.\Generated_Source\PSoC5/CyLib.c **** 
1409:.\Generated_Source\PSoC5/CyLib.c **** 
1410:.\Generated_Source\PSoC5/CyLib.c **** /*******************************************************************************
1411:.\Generated_Source\PSoC5/CyLib.c **** * Function Name: CyXTAL_Stop
1412:.\Generated_Source\PSoC5/CyLib.c **** ********************************************************************************
1413:.\Generated_Source\PSoC5/CyLib.c **** *
1414:.\Generated_Source\PSoC5/CyLib.c **** * Summary:
1415:.\Generated_Source\PSoC5/CyLib.c **** *  Disables the megahertz crystal oscillator.
1416:.\Generated_Source\PSoC5/CyLib.c **** *
1417:.\Generated_Source\PSoC5/CyLib.c **** * Parameters:
1418:.\Generated_Source\PSoC5/CyLib.c **** *  None
1419:.\Generated_Source\PSoC5/CyLib.c **** *
1420:.\Generated_Source\PSoC5/CyLib.c **** * Return:
1421:.\Generated_Source\PSoC5/CyLib.c **** *  None
1422:.\Generated_Source\PSoC5/CyLib.c **** *
1423:.\Generated_Source\PSoC5/CyLib.c **** *******************************************************************************/
1424:.\Generated_Source\PSoC5/CyLib.c **** void CyXTAL_Stop(void) 
1425:.\Generated_Source\PSoC5/CyLib.c **** {
 1492              		.loc 1 1425 0
 1493              		.cfi_startproc
 1494              		@ args = 0, pretend = 0, frame = 0
 1495              		@ frame_needed = 0, uses_anonymous_args = 0
 1496              		@ link register save eliminated.
1426:.\Generated_Source\PSoC5/CyLib.c ****     /* Disable oscillator. */
1427:.\Generated_Source\PSoC5/CyLib.c ****     FASTCLK_XMHZ_CSR &= ((uint8)(~XMHZ_CONTROL_ENABLE));
 1497              		.loc 1 1427 0
 1498 0000 024A     		ldr	r2, .L180
 1499 0002 1378     		ldrb	r3, [r2]	@ zero_extendqisi2
 1500 0004 03F0FE03 		and	r3, r3, #254
 1501 0008 1370     		strb	r3, [r2]
 1502 000a 7047     		bx	lr
 1503              	.L181:
 1504              		.align	2
 1505              	.L180:
 1506 000c 10420040 		.word	1073758736
 1507              		.cfi_endproc
 1508              	.LFE30:
 1509              		.size	CyXTAL_Stop, .-CyXTAL_Stop
 1510              		.section	.text.CyXTAL_EnableErrStatus,"ax",%progbits
 1511              		.align	1
 1512              		.global	CyXTAL_EnableErrStatus
 1513              		.thumb
 1514              		.thumb_func
 1515              		.type	CyXTAL_EnableErrStatus, %function
 1516              	CyXTAL_EnableErrStatus:
 1517              	.LFB31:
1428:.\Generated_Source\PSoC5/CyLib.c **** }
1429:.\Generated_Source\PSoC5/CyLib.c **** 
ARM GAS  C:\Users\mjphi\AppData\Local\Temp\ccBvhGke.s 			page 55


1430:.\Generated_Source\PSoC5/CyLib.c **** 
1431:.\Generated_Source\PSoC5/CyLib.c **** /*******************************************************************************
1432:.\Generated_Source\PSoC5/CyLib.c **** * Function Name: CyXTAL_EnableErrStatus
1433:.\Generated_Source\PSoC5/CyLib.c **** ********************************************************************************
1434:.\Generated_Source\PSoC5/CyLib.c **** *
1435:.\Generated_Source\PSoC5/CyLib.c **** * Summary:
1436:.\Generated_Source\PSoC5/CyLib.c **** *  Enables the generation of the XERR status bit for the megahertz crystal.
1437:.\Generated_Source\PSoC5/CyLib.c **** *  This function is not available for PSoC5.
1438:.\Generated_Source\PSoC5/CyLib.c **** *
1439:.\Generated_Source\PSoC5/CyLib.c **** * Parameters:
1440:.\Generated_Source\PSoC5/CyLib.c **** *  None
1441:.\Generated_Source\PSoC5/CyLib.c **** *
1442:.\Generated_Source\PSoC5/CyLib.c **** * Return:
1443:.\Generated_Source\PSoC5/CyLib.c **** *  None
1444:.\Generated_Source\PSoC5/CyLib.c **** *
1445:.\Generated_Source\PSoC5/CyLib.c **** *******************************************************************************/
1446:.\Generated_Source\PSoC5/CyLib.c **** void CyXTAL_EnableErrStatus(void) 
1447:.\Generated_Source\PSoC5/CyLib.c **** {
 1518              		.loc 1 1447 0
 1519              		.cfi_startproc
 1520              		@ args = 0, pretend = 0, frame = 0
 1521              		@ frame_needed = 0, uses_anonymous_args = 0
 1522              		@ link register save eliminated.
1448:.\Generated_Source\PSoC5/CyLib.c ****     /* If oscillator has insufficient amplitude, XERR bit will be high. */
1449:.\Generated_Source\PSoC5/CyLib.c ****     CY_CLK_XMHZ_CSR_REG &= ((uint8)(~CY_CLK_XMHZ_CSR_XFB));
 1523              		.loc 1 1449 0
 1524 0000 024A     		ldr	r2, .L183
 1525 0002 1378     		ldrb	r3, [r2]	@ zero_extendqisi2
 1526 0004 03F0FB03 		and	r3, r3, #251
 1527 0008 1370     		strb	r3, [r2]
 1528 000a 7047     		bx	lr
 1529              	.L184:
 1530              		.align	2
 1531              	.L183:
 1532 000c 10420040 		.word	1073758736
 1533              		.cfi_endproc
 1534              	.LFE31:
 1535              		.size	CyXTAL_EnableErrStatus, .-CyXTAL_EnableErrStatus
 1536              		.section	.text.CyXTAL_DisableErrStatus,"ax",%progbits
 1537              		.align	1
 1538              		.global	CyXTAL_DisableErrStatus
 1539              		.thumb
 1540              		.thumb_func
 1541              		.type	CyXTAL_DisableErrStatus, %function
 1542              	CyXTAL_DisableErrStatus:
 1543              	.LFB32:
1450:.\Generated_Source\PSoC5/CyLib.c **** }
1451:.\Generated_Source\PSoC5/CyLib.c **** 
1452:.\Generated_Source\PSoC5/CyLib.c **** 
1453:.\Generated_Source\PSoC5/CyLib.c **** /*******************************************************************************
1454:.\Generated_Source\PSoC5/CyLib.c **** * Function Name: CyXTAL_DisableErrStatus
1455:.\Generated_Source\PSoC5/CyLib.c **** ********************************************************************************
1456:.\Generated_Source\PSoC5/CyLib.c **** *
1457:.\Generated_Source\PSoC5/CyLib.c **** * Summary:
1458:.\Generated_Source\PSoC5/CyLib.c **** *  Disables the generation of the XERR status bit for the megahertz crystal.
1459:.\Generated_Source\PSoC5/CyLib.c **** *  This function is not available for PSoC5.
1460:.\Generated_Source\PSoC5/CyLib.c **** *
ARM GAS  C:\Users\mjphi\AppData\Local\Temp\ccBvhGke.s 			page 56


1461:.\Generated_Source\PSoC5/CyLib.c **** * Parameters:
1462:.\Generated_Source\PSoC5/CyLib.c **** *  None
1463:.\Generated_Source\PSoC5/CyLib.c **** *
1464:.\Generated_Source\PSoC5/CyLib.c **** * Return:
1465:.\Generated_Source\PSoC5/CyLib.c **** *  None
1466:.\Generated_Source\PSoC5/CyLib.c **** *
1467:.\Generated_Source\PSoC5/CyLib.c **** *******************************************************************************/
1468:.\Generated_Source\PSoC5/CyLib.c **** void CyXTAL_DisableErrStatus(void) 
1469:.\Generated_Source\PSoC5/CyLib.c **** {
 1544              		.loc 1 1469 0
 1545              		.cfi_startproc
 1546              		@ args = 0, pretend = 0, frame = 0
 1547              		@ frame_needed = 0, uses_anonymous_args = 0
 1548              		@ link register save eliminated.
1470:.\Generated_Source\PSoC5/CyLib.c ****     /* If oscillator has insufficient amplitude, XERR bit will be high. */
1471:.\Generated_Source\PSoC5/CyLib.c ****     CY_CLK_XMHZ_CSR_REG |= CY_CLK_XMHZ_CSR_XFB;
 1549              		.loc 1 1471 0
 1550 0000 024A     		ldr	r2, .L186
 1551 0002 1378     		ldrb	r3, [r2]	@ zero_extendqisi2
 1552 0004 43F00403 		orr	r3, r3, #4
 1553 0008 1370     		strb	r3, [r2]
 1554 000a 7047     		bx	lr
 1555              	.L187:
 1556              		.align	2
 1557              	.L186:
 1558 000c 10420040 		.word	1073758736
 1559              		.cfi_endproc
 1560              	.LFE32:
 1561              		.size	CyXTAL_DisableErrStatus, .-CyXTAL_DisableErrStatus
 1562              		.section	.text.CyXTAL_ReadStatus,"ax",%progbits
 1563              		.align	1
 1564              		.global	CyXTAL_ReadStatus
 1565              		.thumb
 1566              		.thumb_func
 1567              		.type	CyXTAL_ReadStatus, %function
 1568              	CyXTAL_ReadStatus:
 1569              	.LFB33:
1472:.\Generated_Source\PSoC5/CyLib.c **** }
1473:.\Generated_Source\PSoC5/CyLib.c **** 
1474:.\Generated_Source\PSoC5/CyLib.c **** 
1475:.\Generated_Source\PSoC5/CyLib.c **** /*******************************************************************************
1476:.\Generated_Source\PSoC5/CyLib.c **** * Function Name: CyXTAL_ReadStatus
1477:.\Generated_Source\PSoC5/CyLib.c **** ********************************************************************************
1478:.\Generated_Source\PSoC5/CyLib.c **** *
1479:.\Generated_Source\PSoC5/CyLib.c **** * Summary:
1480:.\Generated_Source\PSoC5/CyLib.c **** *  Reads the XERR status bit for the megahertz crystal. This status bit is a
1481:.\Generated_Source\PSoC5/CyLib.c **** *  sticky, clear on read. This function is not available for PSoC5.
1482:.\Generated_Source\PSoC5/CyLib.c **** *
1483:.\Generated_Source\PSoC5/CyLib.c **** * Parameters:
1484:.\Generated_Source\PSoC5/CyLib.c **** *  None
1485:.\Generated_Source\PSoC5/CyLib.c **** *
1486:.\Generated_Source\PSoC5/CyLib.c **** * Return:
1487:.\Generated_Source\PSoC5/CyLib.c **** *   Status
1488:.\Generated_Source\PSoC5/CyLib.c **** *    0: No error
1489:.\Generated_Source\PSoC5/CyLib.c **** *    1: Error
1490:.\Generated_Source\PSoC5/CyLib.c **** *
1491:.\Generated_Source\PSoC5/CyLib.c **** *******************************************************************************/
ARM GAS  C:\Users\mjphi\AppData\Local\Temp\ccBvhGke.s 			page 57


1492:.\Generated_Source\PSoC5/CyLib.c **** uint8 CyXTAL_ReadStatus(void) 
1493:.\Generated_Source\PSoC5/CyLib.c **** {
 1570              		.loc 1 1493 0
 1571              		.cfi_startproc
 1572              		@ args = 0, pretend = 0, frame = 0
 1573              		@ frame_needed = 0, uses_anonymous_args = 0
 1574              		@ link register save eliminated.
1494:.\Generated_Source\PSoC5/CyLib.c ****     /***************************************************************************
1495:.\Generated_Source\PSoC5/CyLib.c ****     * High output indicates an oscillator failure. Only use this after a start-up
1496:.\Generated_Source\PSoC5/CyLib.c ****     * interval is completed. This can be used for the status and failure recovery.
1497:.\Generated_Source\PSoC5/CyLib.c ****     ***************************************************************************/
1498:.\Generated_Source\PSoC5/CyLib.c ****     return((0u != (CY_CLK_XMHZ_CSR_REG & CY_CLK_XMHZ_CSR_XERR)) ? 1u : 0u);
 1575              		.loc 1 1498 0
 1576 0000 014B     		ldr	r3, .L189
 1577 0002 1878     		ldrb	r0, [r3]	@ zero_extendqisi2
1499:.\Generated_Source\PSoC5/CyLib.c **** }
 1578              		.loc 1 1499 0
 1579 0004 C009     		lsrs	r0, r0, #7
 1580 0006 7047     		bx	lr
 1581              	.L190:
 1582              		.align	2
 1583              	.L189:
 1584 0008 10420040 		.word	1073758736
 1585              		.cfi_endproc
 1586              	.LFE33:
 1587              		.size	CyXTAL_ReadStatus, .-CyXTAL_ReadStatus
 1588              		.section	.text.CyXTAL_EnableFaultRecovery,"ax",%progbits
 1589              		.align	1
 1590              		.global	CyXTAL_EnableFaultRecovery
 1591              		.thumb
 1592              		.thumb_func
 1593              		.type	CyXTAL_EnableFaultRecovery, %function
 1594              	CyXTAL_EnableFaultRecovery:
 1595              	.LFB34:
1500:.\Generated_Source\PSoC5/CyLib.c **** 
1501:.\Generated_Source\PSoC5/CyLib.c **** 
1502:.\Generated_Source\PSoC5/CyLib.c **** /*******************************************************************************
1503:.\Generated_Source\PSoC5/CyLib.c **** * Function Name: CyXTAL_EnableFaultRecovery
1504:.\Generated_Source\PSoC5/CyLib.c **** ********************************************************************************
1505:.\Generated_Source\PSoC5/CyLib.c **** *
1506:.\Generated_Source\PSoC5/CyLib.c **** * Summary:
1507:.\Generated_Source\PSoC5/CyLib.c **** *  Enables the fault recovery circuit which will switch to the IMO in the case
1508:.\Generated_Source\PSoC5/CyLib.c **** *  of a fault in the megahertz crystal circuit. The crystal must be up and
1509:.\Generated_Source\PSoC5/CyLib.c **** *  running with the XERR bit at 0, before calling this function to prevent
1510:.\Generated_Source\PSoC5/CyLib.c **** *  an immediate fault switchover. This function is not available for PSoC5.
1511:.\Generated_Source\PSoC5/CyLib.c **** *
1512:.\Generated_Source\PSoC5/CyLib.c **** * Parameters:
1513:.\Generated_Source\PSoC5/CyLib.c **** *  None
1514:.\Generated_Source\PSoC5/CyLib.c **** *
1515:.\Generated_Source\PSoC5/CyLib.c **** * Return:
1516:.\Generated_Source\PSoC5/CyLib.c **** *  None
1517:.\Generated_Source\PSoC5/CyLib.c **** *
1518:.\Generated_Source\PSoC5/CyLib.c **** *******************************************************************************/
1519:.\Generated_Source\PSoC5/CyLib.c **** void CyXTAL_EnableFaultRecovery(void) 
1520:.\Generated_Source\PSoC5/CyLib.c **** {
 1596              		.loc 1 1520 0
 1597              		.cfi_startproc
ARM GAS  C:\Users\mjphi\AppData\Local\Temp\ccBvhGke.s 			page 58


 1598              		@ args = 0, pretend = 0, frame = 0
 1599              		@ frame_needed = 0, uses_anonymous_args = 0
 1600              		@ link register save eliminated.
1521:.\Generated_Source\PSoC5/CyLib.c ****     CY_CLK_XMHZ_CSR_REG |= CY_CLK_XMHZ_CSR_XPROT;
 1601              		.loc 1 1521 0
 1602 0000 024A     		ldr	r2, .L192
 1603 0002 1378     		ldrb	r3, [r2]	@ zero_extendqisi2
 1604 0004 43F04003 		orr	r3, r3, #64
 1605 0008 1370     		strb	r3, [r2]
 1606 000a 7047     		bx	lr
 1607              	.L193:
 1608              		.align	2
 1609              	.L192:
 1610 000c 10420040 		.word	1073758736
 1611              		.cfi_endproc
 1612              	.LFE34:
 1613              		.size	CyXTAL_EnableFaultRecovery, .-CyXTAL_EnableFaultRecovery
 1614              		.section	.text.CyXTAL_DisableFaultRecovery,"ax",%progbits
 1615              		.align	1
 1616              		.global	CyXTAL_DisableFaultRecovery
 1617              		.thumb
 1618              		.thumb_func
 1619              		.type	CyXTAL_DisableFaultRecovery, %function
 1620              	CyXTAL_DisableFaultRecovery:
 1621              	.LFB35:
1522:.\Generated_Source\PSoC5/CyLib.c **** }
1523:.\Generated_Source\PSoC5/CyLib.c **** 
1524:.\Generated_Source\PSoC5/CyLib.c **** 
1525:.\Generated_Source\PSoC5/CyLib.c **** /*******************************************************************************
1526:.\Generated_Source\PSoC5/CyLib.c **** * Function Name: CyXTAL_DisableFaultRecovery
1527:.\Generated_Source\PSoC5/CyLib.c **** ********************************************************************************
1528:.\Generated_Source\PSoC5/CyLib.c **** *
1529:.\Generated_Source\PSoC5/CyLib.c **** * Summary:
1530:.\Generated_Source\PSoC5/CyLib.c **** *  Disables the fault recovery circuit which will switch to the IMO in the case
1531:.\Generated_Source\PSoC5/CyLib.c **** *  of a fault in the megahertz crystal circuit. This function is not available
1532:.\Generated_Source\PSoC5/CyLib.c **** *  for PSoC5.
1533:.\Generated_Source\PSoC5/CyLib.c **** *
1534:.\Generated_Source\PSoC5/CyLib.c **** * Parameters:
1535:.\Generated_Source\PSoC5/CyLib.c **** *  None
1536:.\Generated_Source\PSoC5/CyLib.c **** *
1537:.\Generated_Source\PSoC5/CyLib.c **** * Return:
1538:.\Generated_Source\PSoC5/CyLib.c **** *  None
1539:.\Generated_Source\PSoC5/CyLib.c **** *
1540:.\Generated_Source\PSoC5/CyLib.c **** *******************************************************************************/
1541:.\Generated_Source\PSoC5/CyLib.c **** void CyXTAL_DisableFaultRecovery(void) 
1542:.\Generated_Source\PSoC5/CyLib.c **** {
 1622              		.loc 1 1542 0
 1623              		.cfi_startproc
 1624              		@ args = 0, pretend = 0, frame = 0
 1625              		@ frame_needed = 0, uses_anonymous_args = 0
 1626              		@ link register save eliminated.
1543:.\Generated_Source\PSoC5/CyLib.c ****     CY_CLK_XMHZ_CSR_REG &= ((uint8)(~CY_CLK_XMHZ_CSR_XPROT));
 1627              		.loc 1 1543 0
 1628 0000 024A     		ldr	r2, .L195
 1629 0002 1378     		ldrb	r3, [r2]	@ zero_extendqisi2
 1630 0004 03F0BF03 		and	r3, r3, #191
 1631 0008 1370     		strb	r3, [r2]
ARM GAS  C:\Users\mjphi\AppData\Local\Temp\ccBvhGke.s 			page 59


 1632 000a 7047     		bx	lr
 1633              	.L196:
 1634              		.align	2
 1635              	.L195:
 1636 000c 10420040 		.word	1073758736
 1637              		.cfi_endproc
 1638              	.LFE35:
 1639              		.size	CyXTAL_DisableFaultRecovery, .-CyXTAL_DisableFaultRecovery
 1640              		.section	.text.CyXTAL_SetStartup,"ax",%progbits
 1641              		.align	1
 1642              		.global	CyXTAL_SetStartup
 1643              		.thumb
 1644              		.thumb_func
 1645              		.type	CyXTAL_SetStartup, %function
 1646              	CyXTAL_SetStartup:
 1647              	.LFB36:
1544:.\Generated_Source\PSoC5/CyLib.c **** }
1545:.\Generated_Source\PSoC5/CyLib.c **** 
1546:.\Generated_Source\PSoC5/CyLib.c **** 
1547:.\Generated_Source\PSoC5/CyLib.c **** /*******************************************************************************
1548:.\Generated_Source\PSoC5/CyLib.c **** * Function Name: CyXTAL_SetStartup
1549:.\Generated_Source\PSoC5/CyLib.c **** ********************************************************************************
1550:.\Generated_Source\PSoC5/CyLib.c **** *
1551:.\Generated_Source\PSoC5/CyLib.c **** * Summary:
1552:.\Generated_Source\PSoC5/CyLib.c **** *  Sets the startup settings for the crystal. The logic model outputs a
1553:.\Generated_Source\PSoC5/CyLib.c **** *  frequency (setting + 4) MHz when enabled.
1554:.\Generated_Source\PSoC5/CyLib.c **** *
1555:.\Generated_Source\PSoC5/CyLib.c **** *  This is artificial as the actual frequency is determined by an attached
1556:.\Generated_Source\PSoC5/CyLib.c **** *  external crystal.
1557:.\Generated_Source\PSoC5/CyLib.c **** *
1558:.\Generated_Source\PSoC5/CyLib.c **** * Parameters:
1559:.\Generated_Source\PSoC5/CyLib.c **** *  setting: Valid range [0-31].
1560:.\Generated_Source\PSoC5/CyLib.c **** *   The value is dependent on the frequency and quality of the crystal being
1561:.\Generated_Source\PSoC5/CyLib.c **** *   used. Refer to the device TRM and datasheet for more information.
1562:.\Generated_Source\PSoC5/CyLib.c **** *
1563:.\Generated_Source\PSoC5/CyLib.c **** * Return:
1564:.\Generated_Source\PSoC5/CyLib.c **** *  None
1565:.\Generated_Source\PSoC5/CyLib.c **** *
1566:.\Generated_Source\PSoC5/CyLib.c **** *******************************************************************************/
1567:.\Generated_Source\PSoC5/CyLib.c **** void CyXTAL_SetStartup(uint8 setting) 
1568:.\Generated_Source\PSoC5/CyLib.c **** {
 1648              		.loc 1 1568 0
 1649              		.cfi_startproc
 1650              		@ args = 0, pretend = 0, frame = 0
 1651              		@ frame_needed = 0, uses_anonymous_args = 0
 1652              		@ link register save eliminated.
 1653              	.LVL84:
1569:.\Generated_Source\PSoC5/CyLib.c ****     CY_CLK_XMHZ_CFG0_REG = (CY_CLK_XMHZ_CFG0_REG & ((uint8)(~CY_CLK_XMHZ_CFG0_XCFG_MASK))) |
 1654              		.loc 1 1569 0
 1655 0000 044A     		ldr	r2, .L198
 1656 0002 00F01F00 		and	r0, r0, #31
 1657              	.LVL85:
 1658 0006 1378     		ldrb	r3, [r2]	@ zero_extendqisi2
 1659 0008 03F0E003 		and	r3, r3, #224
 1660 000c 0343     		orrs	r3, r3, r0
 1661 000e 1370     		strb	r3, [r2]
 1662 0010 7047     		bx	lr
ARM GAS  C:\Users\mjphi\AppData\Local\Temp\ccBvhGke.s 			page 60


 1663              	.L199:
 1664 0012 00BF     		.align	2
 1665              	.L198:
 1666 0014 12420040 		.word	1073758738
 1667              		.cfi_endproc
 1668              	.LFE36:
 1669              		.size	CyXTAL_SetStartup, .-CyXTAL_SetStartup
 1670              		.section	.text.CyXTAL_SetFbVoltage,"ax",%progbits
 1671              		.align	1
 1672              		.global	CyXTAL_SetFbVoltage
 1673              		.thumb
 1674              		.thumb_func
 1675              		.type	CyXTAL_SetFbVoltage, %function
 1676              	CyXTAL_SetFbVoltage:
 1677              	.LFB37:
1570:.\Generated_Source\PSoC5/CyLib.c ****                            (setting & CY_CLK_XMHZ_CFG0_XCFG_MASK);
1571:.\Generated_Source\PSoC5/CyLib.c **** }
1572:.\Generated_Source\PSoC5/CyLib.c **** 
1573:.\Generated_Source\PSoC5/CyLib.c **** 
1574:.\Generated_Source\PSoC5/CyLib.c **** 
1575:.\Generated_Source\PSoC5/CyLib.c **** /*******************************************************************************
1576:.\Generated_Source\PSoC5/CyLib.c **** * Function Name: CyXTAL_SetFbVoltage
1577:.\Generated_Source\PSoC5/CyLib.c **** ********************************************************************************
1578:.\Generated_Source\PSoC5/CyLib.c **** *
1579:.\Generated_Source\PSoC5/CyLib.c **** * Summary:
1580:.\Generated_Source\PSoC5/CyLib.c **** *  Sets the feedback reference voltage to use for the crystal circuit.
1581:.\Generated_Source\PSoC5/CyLib.c **** *  This function is only available for PSoC3 and PSoC 5LP.
1582:.\Generated_Source\PSoC5/CyLib.c **** *
1583:.\Generated_Source\PSoC5/CyLib.c **** * Parameters:
1584:.\Generated_Source\PSoC5/CyLib.c **** *  setting: Valid range [0-15].
1585:.\Generated_Source\PSoC5/CyLib.c **** *  Refer to the device TRM and datasheet for more information.
1586:.\Generated_Source\PSoC5/CyLib.c **** *
1587:.\Generated_Source\PSoC5/CyLib.c **** * Return:
1588:.\Generated_Source\PSoC5/CyLib.c **** *  None
1589:.\Generated_Source\PSoC5/CyLib.c **** *
1590:.\Generated_Source\PSoC5/CyLib.c **** *******************************************************************************/
1591:.\Generated_Source\PSoC5/CyLib.c **** void CyXTAL_SetFbVoltage(uint8 setting) 
1592:.\Generated_Source\PSoC5/CyLib.c **** {
 1678              		.loc 1 1592 0
 1679              		.cfi_startproc
 1680              		@ args = 0, pretend = 0, frame = 0
 1681              		@ frame_needed = 0, uses_anonymous_args = 0
 1682              		@ link register save eliminated.
 1683              	.LVL86:
1593:.\Generated_Source\PSoC5/CyLib.c ****     CY_CLK_XMHZ_CFG1_REG = ((CY_CLK_XMHZ_CFG1_REG & ((uint8)(~CY_CLK_XMHZ_CFG1_VREF_FB_MASK))) |
 1684              		.loc 1 1593 0
 1685 0000 044A     		ldr	r2, .L201
 1686 0002 00F00F00 		and	r0, r0, #15
 1687              	.LVL87:
 1688 0006 1378     		ldrb	r3, [r2]	@ zero_extendqisi2
 1689 0008 03F0F003 		and	r3, r3, #240
 1690 000c 0343     		orrs	r3, r3, r0
 1691 000e 1370     		strb	r3, [r2]
 1692 0010 7047     		bx	lr
 1693              	.L202:
 1694 0012 00BF     		.align	2
 1695              	.L201:
ARM GAS  C:\Users\mjphi\AppData\Local\Temp\ccBvhGke.s 			page 61


 1696 0014 13420040 		.word	1073758739
 1697              		.cfi_endproc
 1698              	.LFE37:
 1699              		.size	CyXTAL_SetFbVoltage, .-CyXTAL_SetFbVoltage
 1700              		.section	.text.CyXTAL_SetWdVoltage,"ax",%progbits
 1701              		.align	1
 1702              		.global	CyXTAL_SetWdVoltage
 1703              		.thumb
 1704              		.thumb_func
 1705              		.type	CyXTAL_SetWdVoltage, %function
 1706              	CyXTAL_SetWdVoltage:
 1707              	.LFB38:
1594:.\Generated_Source\PSoC5/CyLib.c ****                             (setting & CY_CLK_XMHZ_CFG1_VREF_FB_MASK));
1595:.\Generated_Source\PSoC5/CyLib.c **** }
1596:.\Generated_Source\PSoC5/CyLib.c **** 
1597:.\Generated_Source\PSoC5/CyLib.c **** 
1598:.\Generated_Source\PSoC5/CyLib.c **** /*******************************************************************************
1599:.\Generated_Source\PSoC5/CyLib.c **** * Function Name: CyXTAL_SetWdVoltage
1600:.\Generated_Source\PSoC5/CyLib.c **** ********************************************************************************
1601:.\Generated_Source\PSoC5/CyLib.c **** *
1602:.\Generated_Source\PSoC5/CyLib.c **** * Summary:
1603:.\Generated_Source\PSoC5/CyLib.c **** *  Sets the reference voltage used by the watchdog to detect a failure in the
1604:.\Generated_Source\PSoC5/CyLib.c **** *  crystal circuit. This function is only available for PSoC3 and PSoC 5LP.
1605:.\Generated_Source\PSoC5/CyLib.c **** *
1606:.\Generated_Source\PSoC5/CyLib.c **** * Parameters:
1607:.\Generated_Source\PSoC5/CyLib.c **** *  setting: Valid range [0-7].
1608:.\Generated_Source\PSoC5/CyLib.c **** *  Refer to the device TRM and datasheet for more information.
1609:.\Generated_Source\PSoC5/CyLib.c **** *
1610:.\Generated_Source\PSoC5/CyLib.c **** * Return:
1611:.\Generated_Source\PSoC5/CyLib.c **** *  None
1612:.\Generated_Source\PSoC5/CyLib.c **** *
1613:.\Generated_Source\PSoC5/CyLib.c **** *******************************************************************************/
1614:.\Generated_Source\PSoC5/CyLib.c **** void CyXTAL_SetWdVoltage(uint8 setting) 
1615:.\Generated_Source\PSoC5/CyLib.c **** {
 1708              		.loc 1 1615 0
 1709              		.cfi_startproc
 1710              		@ args = 0, pretend = 0, frame = 0
 1711              		@ frame_needed = 0, uses_anonymous_args = 0
 1712              		@ link register save eliminated.
 1713              	.LVL88:
