ARM GAS  C:\Users\mjphi\AppData\Local\Temp\ccZTI20j.s 			page 1


   1              		.syntax unified
   2              		.cpu cortex-m3
   3              		.fpu softvfp
   4              		.eabi_attribute 20, 1
   5              		.eabi_attribute 21, 1
   6              		.eabi_attribute 23, 3
   7              		.eabi_attribute 24, 1
   8              		.eabi_attribute 25, 1
   9              		.eabi_attribute 26, 1
  10              		.eabi_attribute 30, 4
  11              		.eabi_attribute 34, 1
  12              		.eabi_attribute 18, 4
  13              		.thumb
  14              		.file	"cymetadata.c"
  15              		.text
  16              	.Ltext0:
  17              		.cfi_sections	.debug_frame
  18              		.global	cy_metadata
  19              		.global	cy_meta_flashprotect
  20              		.global	cy_meta_wonvl
  21              		.global	cy_meta_custnvl
  22              		.global	cy_meta_configecc
  23              		.section	.cyconfigecc,"a",%progbits
  24              		.type	cy_meta_configecc, %object
  25              		.size	cy_meta_configecc, 8
  26              	cy_meta_configecc:
  27 0000 00       		.byte	0
  28 0001 3C       		.byte	60
  29 0002 3C       		.byte	60
  30 0003 00       		.byte	0
  31 0004 00       		.byte	0
  32 0005 00       		.byte	0
  33 0006 00       		.byte	0
  34 0007 00       		.byte	0
  35              		.section	.cywolatch,"a",%progbits
  36              		.type	cy_meta_wonvl, %object
  37              		.size	cy_meta_wonvl, 4
  38              	cy_meta_wonvl:
  39 0000 BC       		.byte	-68
  40 0001 90       		.byte	-112
  41 0002 AC       		.byte	-84
  42 0003 AF       		.byte	-81
  43              		.section	.cycustnvl,"a",%progbits
  44              		.type	cy_meta_custnvl, %object
  45              		.size	cy_meta_custnvl, 4
  46              	cy_meta_custnvl:
  47 0000 00       		.byte	0
  48 0001 00       		.byte	0
  49 0002 40       		.byte	64
  50 0003 05       		.byte	5
  51              		.section	.cymeta,"a",%progbits
  52              		.type	cy_metadata, %object
  53              		.size	cy_metadata, 12
  54              	cy_metadata:
  55 0000 00       		.byte	0
  56 0001 01       		.byte	1
  57 0002 2E       		.byte	46
ARM GAS  C:\Users\mjphi\AppData\Local\Temp\ccZTI20j.s 			page 2


  58 0003 16       		.byte	22
  59 0004 00       		.byte	0
  60 0005 69       		.byte	105
  61 0006 00       		.byte	0
  62 0007 01       		.byte	1
  63 0008 00       		.byte	0
  64 0009 00       		.byte	0
  65 000a 00       		.byte	0
  66 000b 00       		.byte	0
  67              		.section	.cyflashprotect,"a",%progbits
  68              		.type	cy_meta_flashprotect, %object
  69              		.size	cy_meta_flashprotect, 256
  70              	cy_meta_flashprotect:
  71 0000 00000000 		.space	256
  71      00000000 
  71      00000000 
  71      00000000 
  71      00000000 
  72              		.text
  73              	.Letext0:
  74              		.file 1 ".\\Generated_Source\\PSoC5\\cymetadata.c"
  75              		.file 2 ".\\Generated_Source\\PSoC5\\cytypes.h"
