ARM GAS  C:\Users\mjphi\AppData\Local\Temp\ccxjZhgg.s 			page 1


   1              		.syntax unified
   2              		.cpu cortex-m3
   3              		.fpu softvfp
   4              		.eabi_attribute 20, 1
   5              		.eabi_attribute 21, 1
   6              		.eabi_attribute 23, 3
   7              		.eabi_attribute 24, 1
   8              		.eabi_attribute 25, 1
   9              		.eabi_attribute 26, 1
  10              		.eabi_attribute 30, 6
  11              		.eabi_attribute 34, 1
  12              		.eabi_attribute 18, 4
  13              		.thumb
  14              		.file	"CyLib.c"
  15              		.text
  16              	.Ltext0:
  17              		.cfi_sections	.debug_frame
  18              		.global	CyResetStatus
  19              		.section	.noinit,"aw",%progbits
  20              		.type	CyResetStatus, %object
  21              		.size	CyResetStatus, 1
  22              	CyResetStatus:
  23 0000 00       		.space	1
  24              		.global	cydelay_freq_hz
  25              		.data
  26              		.align	2
  27              		.type	cydelay_freq_hz, %object
  28              		.size	cydelay_freq_hz, 4
  29              	cydelay_freq_hz:
  30 0000 00366E01 		.word	24000000
  31              		.global	cydelay_freq_khz
  32              		.align	2
  33              		.type	cydelay_freq_khz, %object
  34              		.size	cydelay_freq_khz, 4
  35              	cydelay_freq_khz:
  36 0004 C05D0000 		.word	24000
  37              		.global	cydelay_freq_mhz
  38              		.type	cydelay_freq_mhz, %object
  39              		.size	cydelay_freq_mhz, 1
  40              	cydelay_freq_mhz:
  41 0008 18       		.byte	24
  42              		.global	cydelay_32k_ms
  43 0009 000000   		.align	2
  44              		.type	cydelay_32k_ms, %object
  45              		.size	cydelay_32k_ms, 4
  46              	cydelay_32k_ms:
  47 000c 0000E02E 		.word	786432000
  48              		.bss
  49              		.align	2
  50              	CySysTickCallbacks:
  51 0000 00000000 		.space	20
  51      00000000 
  51      00000000 
  51      00000000 
  51      00000000 
  52              		.global	CySysTickInitVar
  53              		.align	2
ARM GAS  C:\Users\mjphi\AppData\Local\Temp\ccxjZhgg.s 			page 2


  54              		.type	CySysTickInitVar, %object
  55              		.size	CySysTickInitVar, 4
  56              	CySysTickInitVar:
  57 0014 00000000 		.space	4
  58              		.section	.text.CyPLL_OUT_Start,"ax",%progbits
  59              		.align	2
  60              		.global	CyPLL_OUT_Start
  61              		.thumb
  62              		.thumb_func
  63              		.type	CyPLL_OUT_Start, %function
  64              	CyPLL_OUT_Start:
  65              	.LFB0:
  66              		.file 1 ".\\Generated_Source\\PSoC5\\CyLib.c"
   1:.\Generated_Source\PSoC5/CyLib.c **** /*******************************************************************************
   2:.\Generated_Source\PSoC5/CyLib.c **** * File Name: CyLib.c
   3:.\Generated_Source\PSoC5/CyLib.c **** * Version 5.20
   4:.\Generated_Source\PSoC5/CyLib.c **** *
   5:.\Generated_Source\PSoC5/CyLib.c **** *  Description:
   6:.\Generated_Source\PSoC5/CyLib.c **** *   Provides a system API for the clocking, interrupts and watchdog timer.
   7:.\Generated_Source\PSoC5/CyLib.c **** *
   8:.\Generated_Source\PSoC5/CyLib.c **** *  Note:
   9:.\Generated_Source\PSoC5/CyLib.c **** *   Documentation of the API's in this file is located in the
  10:.\Generated_Source\PSoC5/CyLib.c **** *   System Reference Guide provided with PSoC Creator.
  11:.\Generated_Source\PSoC5/CyLib.c **** *
  12:.\Generated_Source\PSoC5/CyLib.c **** ********************************************************************************
  13:.\Generated_Source\PSoC5/CyLib.c **** * Copyright 2008-2015, Cypress Semiconductor Corporation.  All rights reserved.
  14:.\Generated_Source\PSoC5/CyLib.c **** * You may use this file only in accordance with the license, terms, conditions,
  15:.\Generated_Source\PSoC5/CyLib.c **** * disclaimers, and limitations in the end user license agreement accompanying
  16:.\Generated_Source\PSoC5/CyLib.c **** * the software package with which this file was provided.
  17:.\Generated_Source\PSoC5/CyLib.c **** *******************************************************************************/
  18:.\Generated_Source\PSoC5/CyLib.c **** 
  19:.\Generated_Source\PSoC5/CyLib.c **** #include "CyLib.h"
  20:.\Generated_Source\PSoC5/CyLib.c **** 
  21:.\Generated_Source\PSoC5/CyLib.c **** 
  22:.\Generated_Source\PSoC5/CyLib.c **** /*******************************************************************************
  23:.\Generated_Source\PSoC5/CyLib.c **** * The CyResetStatus variable is used to obtain value of RESET_SR0 register after
  24:.\Generated_Source\PSoC5/CyLib.c **** * a device reset. It is set from initialize_psoc() at the early initialization
  25:.\Generated_Source\PSoC5/CyLib.c **** * stage. In case of IAR EW IDE, initialize_psoc() is executed before the data
  26:.\Generated_Source\PSoC5/CyLib.c **** * sections are initialized. To avoid zeroing, CyResetStatus should be placed
  27:.\Generated_Source\PSoC5/CyLib.c **** * to the .noinit section.
  28:.\Generated_Source\PSoC5/CyLib.c **** *******************************************************************************/
  29:.\Generated_Source\PSoC5/CyLib.c **** CY_NOINIT uint8 CYXDATA CyResetStatus;
  30:.\Generated_Source\PSoC5/CyLib.c **** 
  31:.\Generated_Source\PSoC5/CyLib.c **** 
  32:.\Generated_Source\PSoC5/CyLib.c **** /* Variable Vdda */
  33:.\Generated_Source\PSoC5/CyLib.c **** #if(CYDEV_VARIABLE_VDDA == 1)
  34:.\Generated_Source\PSoC5/CyLib.c **** 
  35:.\Generated_Source\PSoC5/CyLib.c ****     uint8 CyScPumpEnabled = (uint8)(CYDEV_VDDA_MV < 2700);
  36:.\Generated_Source\PSoC5/CyLib.c **** 
  37:.\Generated_Source\PSoC5/CyLib.c **** #endif  /* (CYDEV_VARIABLE_VDDA == 1) */
  38:.\Generated_Source\PSoC5/CyLib.c **** 
  39:.\Generated_Source\PSoC5/CyLib.c **** 
  40:.\Generated_Source\PSoC5/CyLib.c **** /* Do not use these definitions directly in your application */
  41:.\Generated_Source\PSoC5/CyLib.c **** uint32 cydelay_freq_hz  = BCLK__BUS_CLK__HZ;
  42:.\Generated_Source\PSoC5/CyLib.c **** uint32 cydelay_freq_khz = (BCLK__BUS_CLK__HZ + 999u) / 1000u;
  43:.\Generated_Source\PSoC5/CyLib.c **** uint8  cydelay_freq_mhz = (uint8)((BCLK__BUS_CLK__HZ + 999999u) / 1000000u);
  44:.\Generated_Source\PSoC5/CyLib.c **** uint32 cydelay_32k_ms   = 32768u * ((BCLK__BUS_CLK__HZ + 999u) / 1000u);
ARM GAS  C:\Users\mjphi\AppData\Local\Temp\ccxjZhgg.s 			page 3


  45:.\Generated_Source\PSoC5/CyLib.c **** 
  46:.\Generated_Source\PSoC5/CyLib.c **** 
  47:.\Generated_Source\PSoC5/CyLib.c **** /* Function Prototypes */
  48:.\Generated_Source\PSoC5/CyLib.c **** static uint8 CyUSB_PowerOnCheck(void)  ;
  49:.\Generated_Source\PSoC5/CyLib.c **** static void CyIMO_SetTrimValue(uint8 freq) ;
  50:.\Generated_Source\PSoC5/CyLib.c **** static void CyBusClk_Internal_SetDivider(uint16 divider);
  51:.\Generated_Source\PSoC5/CyLib.c **** 
  52:.\Generated_Source\PSoC5/CyLib.c **** #if(CY_PSOC5)
  53:.\Generated_Source\PSoC5/CyLib.c ****     static cySysTickCallback CySysTickCallbacks[CY_SYS_SYST_NUM_OF_CALLBACKS];
  54:.\Generated_Source\PSoC5/CyLib.c ****     static void CySysTickServiceCallbacks(void);
  55:.\Generated_Source\PSoC5/CyLib.c ****     uint32 CySysTickInitVar = 0u;
  56:.\Generated_Source\PSoC5/CyLib.c **** #endif  /* (CY_PSOC5) */
  57:.\Generated_Source\PSoC5/CyLib.c **** 
  58:.\Generated_Source\PSoC5/CyLib.c **** 
  59:.\Generated_Source\PSoC5/CyLib.c **** /*******************************************************************************
  60:.\Generated_Source\PSoC5/CyLib.c **** * Function Name: CyPLL_OUT_Start
  61:.\Generated_Source\PSoC5/CyLib.c **** ********************************************************************************
  62:.\Generated_Source\PSoC5/CyLib.c **** *
  63:.\Generated_Source\PSoC5/CyLib.c **** * Summary:
  64:.\Generated_Source\PSoC5/CyLib.c **** *   Enables the PLL.  Optionally waits for it to become stable.
  65:.\Generated_Source\PSoC5/CyLib.c **** *   Waits at least 250 us or until it is detected that the PLL is stable.
  66:.\Generated_Source\PSoC5/CyLib.c **** *
  67:.\Generated_Source\PSoC5/CyLib.c **** * Parameters:
  68:.\Generated_Source\PSoC5/CyLib.c **** *   wait:
  69:.\Generated_Source\PSoC5/CyLib.c **** *    0: Return immediately after configuration
  70:.\Generated_Source\PSoC5/CyLib.c **** *    1: Wait for PLL lock or timeout.
  71:.\Generated_Source\PSoC5/CyLib.c **** *
  72:.\Generated_Source\PSoC5/CyLib.c **** * Return:
  73:.\Generated_Source\PSoC5/CyLib.c **** *   Status
  74:.\Generated_Source\PSoC5/CyLib.c **** *    CYRET_SUCCESS - Completed successfully
  75:.\Generated_Source\PSoC5/CyLib.c **** *    CYRET_TIMEOUT - Timeout occurred without detecting a stable clock.
  76:.\Generated_Source\PSoC5/CyLib.c **** *     If the input source of the clock is jittery, then the lock indication
  77:.\Generated_Source\PSoC5/CyLib.c **** *     may not occur.  However, after the timeout has expired the generated PLL
  78:.\Generated_Source\PSoC5/CyLib.c **** *     clock can still be used.
  79:.\Generated_Source\PSoC5/CyLib.c **** *
  80:.\Generated_Source\PSoC5/CyLib.c **** * Side Effects:
  81:.\Generated_Source\PSoC5/CyLib.c **** *  If wait is enabled: This function uses the Fast Time Wheel to time the wait.
  82:.\Generated_Source\PSoC5/CyLib.c **** *  Any other use of the Fast Time Wheel will be stopped during the period of
  83:.\Generated_Source\PSoC5/CyLib.c **** *  this function and then restored. This function also uses the 100 KHz ILO.
  84:.\Generated_Source\PSoC5/CyLib.c **** *  If not enabled, this function will enable the 100 KHz ILO for the period of
  85:.\Generated_Source\PSoC5/CyLib.c **** *  this function.
  86:.\Generated_Source\PSoC5/CyLib.c **** *
  87:.\Generated_Source\PSoC5/CyLib.c **** *  No changes to the setup of the ILO, Fast Time Wheel, Central Time Wheel or
  88:.\Generated_Source\PSoC5/CyLib.c **** *  Once Per Second interrupt may be made by interrupt routines during the period
  89:.\Generated_Source\PSoC5/CyLib.c **** *  of this function execution. The current operation of the ILO, Central Time
  90:.\Generated_Source\PSoC5/CyLib.c **** *  Wheel and Once Per Second interrupt are maintained during the operation of
  91:.\Generated_Source\PSoC5/CyLib.c **** *  this function provided the reading of the Power Manager Interrupt Status
  92:.\Generated_Source\PSoC5/CyLib.c **** *  Register is only done using the CyPmReadStatus() function.
  93:.\Generated_Source\PSoC5/CyLib.c **** *
  94:.\Generated_Source\PSoC5/CyLib.c **** *******************************************************************************/
  95:.\Generated_Source\PSoC5/CyLib.c **** cystatus CyPLL_OUT_Start(uint8 wait) 
  96:.\Generated_Source\PSoC5/CyLib.c **** {
  67              		.loc 1 96 0
  68              		.cfi_startproc
  69              		@ args = 0, pretend = 0, frame = 16
  70              		@ frame_needed = 1, uses_anonymous_args = 0
  71 0000 80B5     		push	{r7, lr}
ARM GAS  C:\Users\mjphi\AppData\Local\Temp\ccxjZhgg.s 			page 4


  72              		.cfi_def_cfa_offset 8
  73              		.cfi_offset 7, -8
  74              		.cfi_offset 14, -4
  75 0002 84B0     		sub	sp, sp, #16
  76              		.cfi_def_cfa_offset 24
  77 0004 00AF     		add	r7, sp, #0
  78              		.cfi_def_cfa_register 7
  79 0006 0346     		mov	r3, r0
  80 0008 FB71     		strb	r3, [r7, #7]
  97:.\Generated_Source\PSoC5/CyLib.c ****     cystatus status = CYRET_SUCCESS;
  81              		.loc 1 97 0
  82 000a 0023     		movs	r3, #0
  83 000c FB60     		str	r3, [r7, #12]
  98:.\Generated_Source\PSoC5/CyLib.c **** 
  99:.\Generated_Source\PSoC5/CyLib.c ****     uint8 iloEnableState;
 100:.\Generated_Source\PSoC5/CyLib.c ****     uint8 pmTwCfg0State;
 101:.\Generated_Source\PSoC5/CyLib.c ****     uint8 pmTwCfg2State;
 102:.\Generated_Source\PSoC5/CyLib.c **** 
 103:.\Generated_Source\PSoC5/CyLib.c **** 
 104:.\Generated_Source\PSoC5/CyLib.c ****     /* Enables PLL circuit  */
 105:.\Generated_Source\PSoC5/CyLib.c ****     CY_CLK_PLL_CFG0_REG |= CY_CLK_PLL_ENABLE;
  84              		.loc 1 105 0
  85 000e 234A     		ldr	r2, .L8
  86 0010 224B     		ldr	r3, .L8
  87 0012 1B78     		ldrb	r3, [r3]
  88 0014 DBB2     		uxtb	r3, r3
  89 0016 43F00103 		orr	r3, r3, #1
  90 001a DBB2     		uxtb	r3, r3
  91 001c 1370     		strb	r3, [r2]
 106:.\Generated_Source\PSoC5/CyLib.c **** 
 107:.\Generated_Source\PSoC5/CyLib.c ****     if(wait != 0u)
  92              		.loc 1 107 0
  93 001e FB79     		ldrb	r3, [r7, #7]	@ zero_extendqisi2
  94 0020 002B     		cmp	r3, #0
  95 0022 36D0     		beq	.L2
 108:.\Generated_Source\PSoC5/CyLib.c ****     {
 109:.\Generated_Source\PSoC5/CyLib.c ****         /* Save 100 KHz ILO, FTW interval, enable and interrupt enable */
 110:.\Generated_Source\PSoC5/CyLib.c ****         iloEnableState = CY_LIB_SLOWCLK_ILO_CR0_REG & CY_LIB_SLOWCLK_ILO_CR0_EN_100KHZ;
  96              		.loc 1 110 0
  97 0024 1E4B     		ldr	r3, .L8+4
  98 0026 1B78     		ldrb	r3, [r3]
  99 0028 DBB2     		uxtb	r3, r3
 100 002a 03F00403 		and	r3, r3, #4
 101 002e FB72     		strb	r3, [r7, #11]
 111:.\Generated_Source\PSoC5/CyLib.c ****         pmTwCfg0State = CY_LIB_PM_TW_CFG0_REG;
 102              		.loc 1 111 0
 103 0030 1C4B     		ldr	r3, .L8+8
 104 0032 1B78     		ldrb	r3, [r3]
 105 0034 BB72     		strb	r3, [r7, #10]
 112:.\Generated_Source\PSoC5/CyLib.c ****         pmTwCfg2State = CY_LIB_PM_TW_CFG2_REG;
 106              		.loc 1 112 0
 107 0036 1C4B     		ldr	r3, .L8+12
 108 0038 1B78     		ldrb	r3, [r3]
 109 003a 7B72     		strb	r3, [r7, #9]
 113:.\Generated_Source\PSoC5/CyLib.c **** 
 114:.\Generated_Source\PSoC5/CyLib.c ****         CyPmFtwSetInterval(CY_CLK_PLL_FTW_INTERVAL);
 110              		.loc 1 114 0
ARM GAS  C:\Users\mjphi\AppData\Local\Temp\ccxjZhgg.s 			page 5


 111 003c 1820     		movs	r0, #24
 112 003e FFF7FEFF 		bl	CyPmFtwSetInterval
 115:.\Generated_Source\PSoC5/CyLib.c **** 
 116:.\Generated_Source\PSoC5/CyLib.c ****         status = CYRET_TIMEOUT;
 113              		.loc 1 116 0
 114 0042 1023     		movs	r3, #16
 115 0044 FB60     		str	r3, [r7, #12]
 117:.\Generated_Source\PSoC5/CyLib.c **** 
 118:.\Generated_Source\PSoC5/CyLib.c ****         while(0u == (CY_PM_FTW_INT & CyPmReadStatus(CY_PM_FTW_INT)))
 116              		.loc 1 118 0
 117 0046 10E0     		b	.L3
 118              	.L5:
 119:.\Generated_Source\PSoC5/CyLib.c ****         {
 120:.\Generated_Source\PSoC5/CyLib.c ****             /* Wait for interrupt status */
 121:.\Generated_Source\PSoC5/CyLib.c ****             if(0u != (CY_CLK_PLL_SR_REG & CY_CLK_PLL_LOCK_STATUS))
 119              		.loc 1 121 0
 120 0048 184B     		ldr	r3, .L8+16
 121 004a 1B78     		ldrb	r3, [r3]
 122 004c DBB2     		uxtb	r3, r3
 123 004e 03F00103 		and	r3, r3, #1
 124 0052 002B     		cmp	r3, #0
 125 0054 09D0     		beq	.L3
 122:.\Generated_Source\PSoC5/CyLib.c ****             {
 123:.\Generated_Source\PSoC5/CyLib.c ****                 if(0u != (CY_CLK_PLL_SR_REG & CY_CLK_PLL_LOCK_STATUS))
 126              		.loc 1 123 0
 127 0056 154B     		ldr	r3, .L8+16
 128 0058 1B78     		ldrb	r3, [r3]
 129 005a DBB2     		uxtb	r3, r3
 130 005c 03F00103 		and	r3, r3, #1
 131 0060 002B     		cmp	r3, #0
 132 0062 02D0     		beq	.L3
 124:.\Generated_Source\PSoC5/CyLib.c ****                 {
 125:.\Generated_Source\PSoC5/CyLib.c ****                     status = CYRET_SUCCESS;
 133              		.loc 1 125 0
 134 0064 0023     		movs	r3, #0
 135 0066 FB60     		str	r3, [r7, #12]
 126:.\Generated_Source\PSoC5/CyLib.c ****                     break;
 136              		.loc 1 126 0
 137 0068 08E0     		b	.L4
 138              	.L3:
 118:.\Generated_Source\PSoC5/CyLib.c ****         {
 139              		.loc 1 118 0
 140 006a 0120     		movs	r0, #1
 141 006c FFF7FEFF 		bl	CyPmReadStatus
 142 0070 0346     		mov	r3, r0
 143 0072 03F00103 		and	r3, r3, #1
 144 0076 DBB2     		uxtb	r3, r3
 145 0078 002B     		cmp	r3, #0
 146 007a E5D0     		beq	.L5
 147              	.L4:
 127:.\Generated_Source\PSoC5/CyLib.c ****                 }
 128:.\Generated_Source\PSoC5/CyLib.c ****             }
 129:.\Generated_Source\PSoC5/CyLib.c ****         }
 130:.\Generated_Source\PSoC5/CyLib.c **** 
 131:.\Generated_Source\PSoC5/CyLib.c ****         /* Restore 100 KHz ILO, FTW interval, enable and interrupt enable */
 132:.\Generated_Source\PSoC5/CyLib.c ****         if(0u == iloEnableState)
 148              		.loc 1 132 0
ARM GAS  C:\Users\mjphi\AppData\Local\Temp\ccxjZhgg.s 			page 6


 149 007c FB7A     		ldrb	r3, [r7, #11]	@ zero_extendqisi2
 150 007e 002B     		cmp	r3, #0
 151 0080 01D1     		bne	.L6
 133:.\Generated_Source\PSoC5/CyLib.c ****         {
 134:.\Generated_Source\PSoC5/CyLib.c ****             CyILO_Stop100K();
 152              		.loc 1 134 0
 153 0082 FFF7FEFF 		bl	CyILO_Stop100K
 154              	.L6:
 135:.\Generated_Source\PSoC5/CyLib.c ****         }
 136:.\Generated_Source\PSoC5/CyLib.c **** 
 137:.\Generated_Source\PSoC5/CyLib.c ****         CY_LIB_PM_TW_CFG0_REG = pmTwCfg0State;
 155              		.loc 1 137 0
 156 0086 074A     		ldr	r2, .L8+8
 157 0088 BB7A     		ldrb	r3, [r7, #10]
 158 008a 1370     		strb	r3, [r2]
 138:.\Generated_Source\PSoC5/CyLib.c ****         CY_LIB_PM_TW_CFG2_REG = pmTwCfg2State;
 159              		.loc 1 138 0
 160 008c 064A     		ldr	r2, .L8+12
 161 008e 7B7A     		ldrb	r3, [r7, #9]
 162 0090 1370     		strb	r3, [r2]
 163              	.L2:
 139:.\Generated_Source\PSoC5/CyLib.c ****     }
 140:.\Generated_Source\PSoC5/CyLib.c **** 
 141:.\Generated_Source\PSoC5/CyLib.c ****     return(status);
 164              		.loc 1 141 0
 165 0092 FB68     		ldr	r3, [r7, #12]
 142:.\Generated_Source\PSoC5/CyLib.c **** }
 166              		.loc 1 142 0
 167 0094 1846     		mov	r0, r3
 168 0096 1037     		adds	r7, r7, #16
 169              		.cfi_def_cfa_offset 8
 170 0098 BD46     		mov	sp, r7
 171              		.cfi_def_cfa_register 13
 172              		@ sp needed
 173 009a 80BD     		pop	{r7, pc}
 174              	.L9:
 175              		.align	2
 176              	.L8:
 177 009c 20420040 		.word	1073758752
 178 00a0 00430040 		.word	1073758976
 179 00a4 80430040 		.word	1073759104
 180 00a8 82430040 		.word	1073759106
 181 00ac 25420040 		.word	1073758757
 182              		.cfi_endproc
 183              	.LFE0:
 184              		.size	CyPLL_OUT_Start, .-CyPLL_OUT_Start
 185              		.section	.text.CyPLL_OUT_Stop,"ax",%progbits
 186              		.align	2
 187              		.global	CyPLL_OUT_Stop
 188              		.thumb
 189              		.thumb_func
 190              		.type	CyPLL_OUT_Stop, %function
 191              	CyPLL_OUT_Stop:
 192              	.LFB1:
 143:.\Generated_Source\PSoC5/CyLib.c **** 
 144:.\Generated_Source\PSoC5/CyLib.c **** 
 145:.\Generated_Source\PSoC5/CyLib.c **** /*******************************************************************************
ARM GAS  C:\Users\mjphi\AppData\Local\Temp\ccxjZhgg.s 			page 7


 146:.\Generated_Source\PSoC5/CyLib.c **** * Function Name: CyPLL_OUT_Stop
 147:.\Generated_Source\PSoC5/CyLib.c **** ********************************************************************************
 148:.\Generated_Source\PSoC5/CyLib.c **** *
 149:.\Generated_Source\PSoC5/CyLib.c **** * Summary:
 150:.\Generated_Source\PSoC5/CyLib.c **** *  Disables the PLL.
 151:.\Generated_Source\PSoC5/CyLib.c **** *
 152:.\Generated_Source\PSoC5/CyLib.c **** * Parameters:
 153:.\Generated_Source\PSoC5/CyLib.c **** *  None
 154:.\Generated_Source\PSoC5/CyLib.c **** *
 155:.\Generated_Source\PSoC5/CyLib.c **** * Return:
 156:.\Generated_Source\PSoC5/CyLib.c **** *  None
 157:.\Generated_Source\PSoC5/CyLib.c **** *
 158:.\Generated_Source\PSoC5/CyLib.c **** *******************************************************************************/
 159:.\Generated_Source\PSoC5/CyLib.c **** void CyPLL_OUT_Stop(void) 
 160:.\Generated_Source\PSoC5/CyLib.c **** {
 193              		.loc 1 160 0
 194              		.cfi_startproc
 195              		@ args = 0, pretend = 0, frame = 0
 196              		@ frame_needed = 1, uses_anonymous_args = 0
 197              		@ link register save eliminated.
 198 0000 80B4     		push	{r7}
 199              		.cfi_def_cfa_offset 4
 200              		.cfi_offset 7, -4
 201 0002 00AF     		add	r7, sp, #0
 202              		.cfi_def_cfa_register 7
 161:.\Generated_Source\PSoC5/CyLib.c ****     CY_CLK_PLL_CFG0_REG &= ((uint8)(~CY_CLK_PLL_ENABLE));
 203              		.loc 1 161 0
 204 0004 054A     		ldr	r2, .L11
 205 0006 054B     		ldr	r3, .L11
 206 0008 1B78     		ldrb	r3, [r3]
 207 000a DBB2     		uxtb	r3, r3
 208 000c 23F00103 		bic	r3, r3, #1
 209 0010 DBB2     		uxtb	r3, r3
 210 0012 1370     		strb	r3, [r2]
 162:.\Generated_Source\PSoC5/CyLib.c **** }
 211              		.loc 1 162 0
 212 0014 BD46     		mov	sp, r7
 213              		.cfi_def_cfa_register 13
 214              		@ sp needed
 215 0016 5DF8047B 		ldr	r7, [sp], #4
 216              		.cfi_restore 7
 217              		.cfi_def_cfa_offset 0
 218 001a 7047     		bx	lr
 219              	.L12:
 220              		.align	2
 221              	.L11:
 222 001c 20420040 		.word	1073758752
 223              		.cfi_endproc
 224              	.LFE1:
 225              		.size	CyPLL_OUT_Stop, .-CyPLL_OUT_Stop
 226              		.section	.text.CyPLL_OUT_SetPQ,"ax",%progbits
 227              		.align	2
 228              		.global	CyPLL_OUT_SetPQ
 229              		.thumb
 230              		.thumb_func
 231              		.type	CyPLL_OUT_SetPQ, %function
 232              	CyPLL_OUT_SetPQ:
ARM GAS  C:\Users\mjphi\AppData\Local\Temp\ccxjZhgg.s 			page 8


 233              	.LFB2:
 163:.\Generated_Source\PSoC5/CyLib.c **** 
 164:.\Generated_Source\PSoC5/CyLib.c **** 
 165:.\Generated_Source\PSoC5/CyLib.c **** /*******************************************************************************
 166:.\Generated_Source\PSoC5/CyLib.c **** * Function Name: CyPLL_OUT_SetPQ
 167:.\Generated_Source\PSoC5/CyLib.c **** ********************************************************************************
 168:.\Generated_Source\PSoC5/CyLib.c **** *
 169:.\Generated_Source\PSoC5/CyLib.c **** * Summary:
 170:.\Generated_Source\PSoC5/CyLib.c **** *  Sets the P and Q dividers and the charge pump current.
 171:.\Generated_Source\PSoC5/CyLib.c **** *  The Frequency Out will be P/Q * Frequency In.
 172:.\Generated_Source\PSoC5/CyLib.c **** *  The PLL must be disabled before calling this function.
 173:.\Generated_Source\PSoC5/CyLib.c **** *
 174:.\Generated_Source\PSoC5/CyLib.c **** * Parameters:
 175:.\Generated_Source\PSoC5/CyLib.c **** *  uint8 pDiv:
 176:.\Generated_Source\PSoC5/CyLib.c **** *   Valid range [8 - 255].
 177:.\Generated_Source\PSoC5/CyLib.c **** *
 178:.\Generated_Source\PSoC5/CyLib.c **** *  uint8 qDiv:
 179:.\Generated_Source\PSoC5/CyLib.c **** *   Valid range [1 - 16]. Input Frequency / Q must be in range of 1 to 3 MHz.
 180:.\Generated_Source\PSoC5/CyLib.c **** 
 181:.\Generated_Source\PSoC5/CyLib.c **** *  uint8 current:
 182:.\Generated_Source\PSoC5/CyLib.c **** *   Valid range [1 - 7]. Charge pump current in uA. Refer to the device TRM and
 183:.\Generated_Source\PSoC5/CyLib.c **** *   datasheet for more information.
 184:.\Generated_Source\PSoC5/CyLib.c **** *
 185:.\Generated_Source\PSoC5/CyLib.c **** * Return:
 186:.\Generated_Source\PSoC5/CyLib.c **** *  None
 187:.\Generated_Source\PSoC5/CyLib.c **** *
 188:.\Generated_Source\PSoC5/CyLib.c **** * Side Effects:
 189:.\Generated_Source\PSoC5/CyLib.c **** *  If this function execution results in the CPU clock frequency increasing,
 190:.\Generated_Source\PSoC5/CyLib.c **** *  then the number of clock cycles the cache will wait before it samples data
 191:.\Generated_Source\PSoC5/CyLib.c **** *  coming back from the Flash must be adjusted by calling
 192:.\Generated_Source\PSoC5/CyLib.c **** *  CyFlash_SetWaitCycles() with an appropriate parameter. It can be optionally
 193:.\Generated_Source\PSoC5/CyLib.c **** *  called if the CPU clock frequency is lowered in order to improve the CPU
 194:.\Generated_Source\PSoC5/CyLib.c **** *  performance. See CyFlash_SetWaitCycles() description for more information.
 195:.\Generated_Source\PSoC5/CyLib.c **** *
 196:.\Generated_Source\PSoC5/CyLib.c **** *******************************************************************************/
 197:.\Generated_Source\PSoC5/CyLib.c **** void CyPLL_OUT_SetPQ(uint8 pDiv, uint8 qDiv, uint8 current) 
 198:.\Generated_Source\PSoC5/CyLib.c **** {
 234              		.loc 1 198 0
 235              		.cfi_startproc
 236              		@ args = 0, pretend = 0, frame = 8
 237              		@ frame_needed = 1, uses_anonymous_args = 0
 238 0000 80B5     		push	{r7, lr}
 239              		.cfi_def_cfa_offset 8
 240              		.cfi_offset 7, -8
 241              		.cfi_offset 14, -4
 242 0002 82B0     		sub	sp, sp, #8
 243              		.cfi_def_cfa_offset 16
 244 0004 00AF     		add	r7, sp, #0
 245              		.cfi_def_cfa_register 7
 246 0006 0346     		mov	r3, r0
 247 0008 FB71     		strb	r3, [r7, #7]
 248 000a 0B46     		mov	r3, r1
 249 000c BB71     		strb	r3, [r7, #6]
 250 000e 1346     		mov	r3, r2
 251 0010 7B71     		strb	r3, [r7, #5]
 199:.\Generated_Source\PSoC5/CyLib.c ****     /* Halt CPU in debug mode if PLL is enabled */
 200:.\Generated_Source\PSoC5/CyLib.c ****     CYASSERT(0u == (CY_CLK_PLL_CFG0_REG & CY_CLK_PLL_ENABLE));
ARM GAS  C:\Users\mjphi\AppData\Local\Temp\ccxjZhgg.s 			page 9


 252              		.loc 1 200 0
 253 0012 1B4B     		ldr	r3, .L17
 254 0014 1B78     		ldrb	r3, [r3]
 255 0016 DBB2     		uxtb	r3, r3
 256 0018 03F00103 		and	r3, r3, #1
 257 001c 002B     		cmp	r3, #0
 258 001e 02D0     		beq	.L14
 259              		.loc 1 200 0 is_stmt 0 discriminator 1
 260 0020 0020     		movs	r0, #0
 261 0022 FFF7FEFF 		bl	CyHalt
 262              	.L14:
 201:.\Generated_Source\PSoC5/CyLib.c **** 
 202:.\Generated_Source\PSoC5/CyLib.c ****     if((pDiv    >= CY_CLK_PLL_MIN_P_VALUE  ) &&
 263              		.loc 1 202 0 is_stmt 1
 264 0026 FB79     		ldrb	r3, [r7, #7]	@ zero_extendqisi2
 265 0028 072B     		cmp	r3, #7
 266 002a 23D9     		bls	.L15
 267              		.loc 1 202 0 is_stmt 0 discriminator 1
 268 002c BB79     		ldrb	r3, [r7, #6]	@ zero_extendqisi2
 269 002e 102B     		cmp	r3, #16
 270 0030 20D8     		bhi	.L15
 203:.\Generated_Source\PSoC5/CyLib.c ****        (qDiv    <= CY_CLK_PLL_MAX_Q_VALUE  ) && (qDiv    >= CY_CLK_PLL_MIN_Q_VALUE  ) &&
 271              		.loc 1 203 0 is_stmt 1
 272 0032 BB79     		ldrb	r3, [r7, #6]	@ zero_extendqisi2
 273 0034 002B     		cmp	r3, #0
 274 0036 1DD0     		beq	.L15
 275              		.loc 1 203 0 is_stmt 0 discriminator 1
 276 0038 7B79     		ldrb	r3, [r7, #5]	@ zero_extendqisi2
 277 003a 002B     		cmp	r3, #0
 278 003c 1AD0     		beq	.L15
 204:.\Generated_Source\PSoC5/CyLib.c ****        (current >= CY_CLK_PLL_MIN_CUR_VALUE) && (current <= CY_CLK_PLL_MAX_CUR_VALUE))
 279              		.loc 1 204 0 is_stmt 1
 280 003e 7B79     		ldrb	r3, [r7, #5]	@ zero_extendqisi2
 281 0040 072B     		cmp	r3, #7
 282 0042 17D8     		bhi	.L15
 205:.\Generated_Source\PSoC5/CyLib.c ****     {
 206:.\Generated_Source\PSoC5/CyLib.c ****         /* Set new values */
 207:.\Generated_Source\PSoC5/CyLib.c ****         CY_CLK_PLL_P_REG = pDiv;
 283              		.loc 1 207 0
 284 0044 0F4A     		ldr	r2, .L17+4
 285 0046 FB79     		ldrb	r3, [r7, #7]
 286 0048 1370     		strb	r3, [r2]
 208:.\Generated_Source\PSoC5/CyLib.c ****         CY_CLK_PLL_Q_REG = ((uint8)(qDiv - 1u));
 287              		.loc 1 208 0
 288 004a 0F4A     		ldr	r2, .L17+8
 289 004c BB79     		ldrb	r3, [r7, #6]
 290 004e 013B     		subs	r3, r3, #1
 291 0050 DBB2     		uxtb	r3, r3
 292 0052 1370     		strb	r3, [r2]
 209:.\Generated_Source\PSoC5/CyLib.c ****         CY_CLK_PLL_CFG1_REG = (CY_CLK_PLL_CFG1_REG & CY_CLK_PLL_CURRENT_MASK) |
 293              		.loc 1 209 0
 294 0054 0D49     		ldr	r1, .L17+12
 295 0056 0D4B     		ldr	r3, .L17+12
 296 0058 1B78     		ldrb	r3, [r3]
 297 005a DBB2     		uxtb	r3, r3
 298 005c 23F07003 		bic	r3, r3, #112
 299 0060 DAB2     		uxtb	r2, r3
ARM GAS  C:\Users\mjphi\AppData\Local\Temp\ccxjZhgg.s 			page 10


 210:.\Generated_Source\PSoC5/CyLib.c ****                                 ((uint8)(((uint8)(current - 1u)) << CY_CLK_PLL_CURRENT_POSITION));
 300              		.loc 1 210 0
 301 0062 7B79     		ldrb	r3, [r7, #5]
 302 0064 013B     		subs	r3, r3, #1
 303 0066 DBB2     		uxtb	r3, r3
 304 0068 1B01     		lsls	r3, r3, #4
 305 006a DBB2     		uxtb	r3, r3
 209:.\Generated_Source\PSoC5/CyLib.c ****         CY_CLK_PLL_CFG1_REG = (CY_CLK_PLL_CFG1_REG & CY_CLK_PLL_CURRENT_MASK) |
 306              		.loc 1 209 0
 307 006c 1343     		orrs	r3, r3, r2
 308 006e DBB2     		uxtb	r3, r3
 309 0070 0B70     		strb	r3, [r1]
 310 0072 02E0     		b	.L13
 311              	.L15:
 211:.\Generated_Source\PSoC5/CyLib.c ****     }
 212:.\Generated_Source\PSoC5/CyLib.c ****     else
 213:.\Generated_Source\PSoC5/CyLib.c ****     {
 214:.\Generated_Source\PSoC5/CyLib.c ****         /***********************************************************************
 215:.\Generated_Source\PSoC5/CyLib.c ****         * Halt CPU in debug mode if:
 216:.\Generated_Source\PSoC5/CyLib.c ****         * - P divider is less than required
 217:.\Generated_Source\PSoC5/CyLib.c ****         * - Q divider is out of range
 218:.\Generated_Source\PSoC5/CyLib.c ****         * - pump current is out of range
 219:.\Generated_Source\PSoC5/CyLib.c ****         ***********************************************************************/
 220:.\Generated_Source\PSoC5/CyLib.c ****         CYASSERT(0u != 0u);
 312              		.loc 1 220 0 discriminator 1
 313 0074 0020     		movs	r0, #0
 314 0076 FFF7FEFF 		bl	CyHalt
 315              	.L13:
 221:.\Generated_Source\PSoC5/CyLib.c ****     }
 222:.\Generated_Source\PSoC5/CyLib.c **** 
 223:.\Generated_Source\PSoC5/CyLib.c **** }
 316              		.loc 1 223 0
 317 007a 0837     		adds	r7, r7, #8
 318              		.cfi_def_cfa_offset 8
 319 007c BD46     		mov	sp, r7
 320              		.cfi_def_cfa_register 13
 321              		@ sp needed
 322 007e 80BD     		pop	{r7, pc}
 323              	.L18:
 324              		.align	2
 325              	.L17:
 326 0080 20420040 		.word	1073758752
 327 0084 22420040 		.word	1073758754
 328 0088 23420040 		.word	1073758755
 329 008c 21420040 		.word	1073758753
 330              		.cfi_endproc
 331              	.LFE2:
 332              		.size	CyPLL_OUT_SetPQ, .-CyPLL_OUT_SetPQ
 333              		.section	.text.CyPLL_OUT_SetSource,"ax",%progbits
 334              		.align	2
 335              		.global	CyPLL_OUT_SetSource
 336              		.thumb
 337              		.thumb_func
 338              		.type	CyPLL_OUT_SetSource, %function
 339              	CyPLL_OUT_SetSource:
 340              	.LFB3:
 224:.\Generated_Source\PSoC5/CyLib.c **** 
ARM GAS  C:\Users\mjphi\AppData\Local\Temp\ccxjZhgg.s 			page 11


 225:.\Generated_Source\PSoC5/CyLib.c **** 
 226:.\Generated_Source\PSoC5/CyLib.c **** /*******************************************************************************
 227:.\Generated_Source\PSoC5/CyLib.c **** * Function Name: CyPLL_OUT_SetSource
 228:.\Generated_Source\PSoC5/CyLib.c **** ********************************************************************************
 229:.\Generated_Source\PSoC5/CyLib.c **** *
 230:.\Generated_Source\PSoC5/CyLib.c **** * Summary:
 231:.\Generated_Source\PSoC5/CyLib.c **** *  Sets the input clock source to the PLL. The PLL must be disabled before
 232:.\Generated_Source\PSoC5/CyLib.c **** *  calling this function.
 233:.\Generated_Source\PSoC5/CyLib.c **** *
 234:.\Generated_Source\PSoC5/CyLib.c **** * Parameters:
 235:.\Generated_Source\PSoC5/CyLib.c **** *   source: One of the three available PLL clock sources
 236:.\Generated_Source\PSoC5/CyLib.c **** *    CY_PLL_SOURCE_IMO  :   IMO
 237:.\Generated_Source\PSoC5/CyLib.c **** *    CY_PLL_SOURCE_XTAL :   MHz Crystal
 238:.\Generated_Source\PSoC5/CyLib.c **** *    CY_PLL_SOURCE_DSI  :   DSI
 239:.\Generated_Source\PSoC5/CyLib.c **** *
 240:.\Generated_Source\PSoC5/CyLib.c **** * Return:
 241:.\Generated_Source\PSoC5/CyLib.c **** *  None
 242:.\Generated_Source\PSoC5/CyLib.c **** *
 243:.\Generated_Source\PSoC5/CyLib.c **** * Side Effects:
 244:.\Generated_Source\PSoC5/CyLib.c **** *  If this function execution results in the CPU clock frequency increasing,
 245:.\Generated_Source\PSoC5/CyLib.c **** *  then the number of clock cycles the cache will wait before it samples data
 246:.\Generated_Source\PSoC5/CyLib.c **** *  coming back from the3 Flash must be adjusted by calling
 247:.\Generated_Source\PSoC5/CyLib.c **** *  CyFlash_SetWaitCycles() with an appropriate parameter. It can be optionally
 248:.\Generated_Source\PSoC5/CyLib.c **** *  called if the CPU clock frequency is lowered in order to improve the CPU
 249:.\Generated_Source\PSoC5/CyLib.c **** *  performance. See CyFlash_SetWaitCycles() description for more information.
 250:.\Generated_Source\PSoC5/CyLib.c **** *
 251:.\Generated_Source\PSoC5/CyLib.c **** *******************************************************************************/
 252:.\Generated_Source\PSoC5/CyLib.c **** void CyPLL_OUT_SetSource(uint8 source) 
 253:.\Generated_Source\PSoC5/CyLib.c **** {
 341              		.loc 1 253 0
 342              		.cfi_startproc
 343              		@ args = 0, pretend = 0, frame = 8
 344              		@ frame_needed = 1, uses_anonymous_args = 0
 345 0000 80B5     		push	{r7, lr}
 346              		.cfi_def_cfa_offset 8
 347              		.cfi_offset 7, -8
 348              		.cfi_offset 14, -4
 349 0002 82B0     		sub	sp, sp, #8
 350              		.cfi_def_cfa_offset 16
 351 0004 00AF     		add	r7, sp, #0
 352              		.cfi_def_cfa_register 7
 353 0006 0346     		mov	r3, r0
 354 0008 FB71     		strb	r3, [r7, #7]
 254:.\Generated_Source\PSoC5/CyLib.c ****     /* Halt CPU in debug mode if PLL is enabled */
 255:.\Generated_Source\PSoC5/CyLib.c ****     CYASSERT(0u == (CY_CLK_PLL_CFG0_REG & CY_CLK_PLL_ENABLE));
 355              		.loc 1 255 0
 356 000a 114B     		ldr	r3, .L24
 357 000c 1B78     		ldrb	r3, [r3]
 358 000e DBB2     		uxtb	r3, r3
 359 0010 03F00103 		and	r3, r3, #1
 360 0014 002B     		cmp	r3, #0
 361 0016 02D0     		beq	.L20
 362              		.loc 1 255 0 is_stmt 0 discriminator 1
 363 0018 0020     		movs	r0, #0
 364 001a FFF7FEFF 		bl	CyHalt
 365              	.L20:
 256:.\Generated_Source\PSoC5/CyLib.c **** 
ARM GAS  C:\Users\mjphi\AppData\Local\Temp\ccxjZhgg.s 			page 12


 257:.\Generated_Source\PSoC5/CyLib.c ****     switch(source)
 366              		.loc 1 257 0 is_stmt 1
 367 001e FB79     		ldrb	r3, [r7, #7]	@ zero_extendqisi2
 368 0020 0033     		adds	r3, r3, #0
 369 0022 022B     		cmp	r3, #2
 370 0024 0DD8     		bhi	.L21
 258:.\Generated_Source\PSoC5/CyLib.c ****     {
 259:.\Generated_Source\PSoC5/CyLib.c ****         case CY_PLL_SOURCE_IMO:
 260:.\Generated_Source\PSoC5/CyLib.c ****         case CY_PLL_SOURCE_XTAL:
 261:.\Generated_Source\PSoC5/CyLib.c ****         case CY_PLL_SOURCE_DSI:
 262:.\Generated_Source\PSoC5/CyLib.c ****             CY_LIB_CLKDIST_CR_REG = ((CY_LIB_CLKDIST_CR_REG & CY_LIB_CLKDIST_CR_PLL_SCR_MASK) | sou
 371              		.loc 1 262 0
 372 0026 4FF04021 		mov	r1, #1073758208
 373 002a 4FF04023 		mov	r3, #1073758208
 374 002e 1B78     		ldrb	r3, [r3]
 375 0030 DBB2     		uxtb	r3, r3
 376 0032 23F00303 		bic	r3, r3, #3
 377 0036 DAB2     		uxtb	r2, r3
 378 0038 FB79     		ldrb	r3, [r7, #7]
 379 003a 1343     		orrs	r3, r3, r2
 380 003c DBB2     		uxtb	r3, r3
 381 003e 0B70     		strb	r3, [r1]
 263:.\Generated_Source\PSoC5/CyLib.c ****         break;
 382              		.loc 1 263 0
 383 0040 03E0     		b	.L19
 384              	.L21:
 264:.\Generated_Source\PSoC5/CyLib.c **** 
 265:.\Generated_Source\PSoC5/CyLib.c ****         default:
 266:.\Generated_Source\PSoC5/CyLib.c ****             CYASSERT(0u != 0u);
 385              		.loc 1 266 0
 386 0042 0020     		movs	r0, #0
 387 0044 FFF7FEFF 		bl	CyHalt
 267:.\Generated_Source\PSoC5/CyLib.c ****         break;
 388              		.loc 1 267 0
 389 0048 00BF     		nop
 390              	.L19:
 268:.\Generated_Source\PSoC5/CyLib.c ****     }
 269:.\Generated_Source\PSoC5/CyLib.c **** }
 391              		.loc 1 269 0
 392 004a 0837     		adds	r7, r7, #8
 393              		.cfi_def_cfa_offset 8
 394 004c BD46     		mov	sp, r7
 395              		.cfi_def_cfa_register 13
 396              		@ sp needed
 397 004e 80BD     		pop	{r7, pc}
 398              	.L25:
 399              		.align	2
 400              	.L24:
 401 0050 20420040 		.word	1073758752
 402              		.cfi_endproc
 403              	.LFE3:
 404              		.size	CyPLL_OUT_SetSource, .-CyPLL_OUT_SetSource
 405              		.section	.text.CyIMO_Start,"ax",%progbits
 406              		.align	2
 407              		.global	CyIMO_Start
 408              		.thumb
 409              		.thumb_func
ARM GAS  C:\Users\mjphi\AppData\Local\Temp\ccxjZhgg.s 			page 13


 410              		.type	CyIMO_Start, %function
 411              	CyIMO_Start:
 412              	.LFB4:
 270:.\Generated_Source\PSoC5/CyLib.c **** 
 271:.\Generated_Source\PSoC5/CyLib.c **** 
 272:.\Generated_Source\PSoC5/CyLib.c **** /*******************************************************************************
 273:.\Generated_Source\PSoC5/CyLib.c **** * Function Name: CyIMO_Start
 274:.\Generated_Source\PSoC5/CyLib.c **** ********************************************************************************
 275:.\Generated_Source\PSoC5/CyLib.c **** *
 276:.\Generated_Source\PSoC5/CyLib.c **** * Summary:
 277:.\Generated_Source\PSoC5/CyLib.c **** *  Enables the IMO. Optionally waits at least 6 us for it to settle.
 278:.\Generated_Source\PSoC5/CyLib.c **** *
 279:.\Generated_Source\PSoC5/CyLib.c **** * Parameters:
 280:.\Generated_Source\PSoC5/CyLib.c **** *  uint8 wait:
 281:.\Generated_Source\PSoC5/CyLib.c **** *   0: Return immediately after configuration
 282:.\Generated_Source\PSoC5/CyLib.c **** *   1: Wait for at least 6 us for the IMO to settle.
 283:.\Generated_Source\PSoC5/CyLib.c **** *
 284:.\Generated_Source\PSoC5/CyLib.c **** * Return:
 285:.\Generated_Source\PSoC5/CyLib.c **** *  None
 286:.\Generated_Source\PSoC5/CyLib.c **** *
 287:.\Generated_Source\PSoC5/CyLib.c **** * Side Effects:
 288:.\Generated_Source\PSoC5/CyLib.c **** *  If wait is enabled: This function uses the Fast Time Wheel to time the wait.
 289:.\Generated_Source\PSoC5/CyLib.c **** *  Any other use of the Fast Time Wheel will be stopped during the period of
 290:.\Generated_Source\PSoC5/CyLib.c **** *  this function and then restored. This function also uses the 100 KHz ILO.
 291:.\Generated_Source\PSoC5/CyLib.c **** *  If not enabled, this function will enable the 100 KHz ILO for the period of
 292:.\Generated_Source\PSoC5/CyLib.c **** *  this function.
 293:.\Generated_Source\PSoC5/CyLib.c **** *
 294:.\Generated_Source\PSoC5/CyLib.c **** *  No changes to the setup of the ILO, Fast Time Wheel, Central Time Wheel or
 295:.\Generated_Source\PSoC5/CyLib.c **** *  Once Per Second interrupt may be made by interrupt routines during the period
 296:.\Generated_Source\PSoC5/CyLib.c **** *  of this function execution. The current operation of the ILO, Central Time
 297:.\Generated_Source\PSoC5/CyLib.c **** *  Wheel and Once Per Second interrupt are maintained during the operation of
 298:.\Generated_Source\PSoC5/CyLib.c **** *  this function provided the reading of the Power Manager Interrupt Status
 299:.\Generated_Source\PSoC5/CyLib.c **** *  Register is only done using the CyPmReadStatus() function.
 300:.\Generated_Source\PSoC5/CyLib.c **** *
 301:.\Generated_Source\PSoC5/CyLib.c **** *******************************************************************************/
 302:.\Generated_Source\PSoC5/CyLib.c **** void CyIMO_Start(uint8 wait) 
 303:.\Generated_Source\PSoC5/CyLib.c **** {
 413              		.loc 1 303 0
 414              		.cfi_startproc
 415              		@ args = 0, pretend = 0, frame = 16
 416              		@ frame_needed = 1, uses_anonymous_args = 0
 417 0000 80B5     		push	{r7, lr}
 418              		.cfi_def_cfa_offset 8
 419              		.cfi_offset 7, -8
 420              		.cfi_offset 14, -4
 421 0002 84B0     		sub	sp, sp, #16
 422              		.cfi_def_cfa_offset 24
 423 0004 00AF     		add	r7, sp, #0
 424              		.cfi_def_cfa_register 7
 425 0006 0346     		mov	r3, r0
 426 0008 FB71     		strb	r3, [r7, #7]
 304:.\Generated_Source\PSoC5/CyLib.c ****     uint8 pmFtwCfg2Reg;
 305:.\Generated_Source\PSoC5/CyLib.c ****     uint8 pmFtwCfg0Reg;
 306:.\Generated_Source\PSoC5/CyLib.c ****     uint8 ilo100KhzEnable;
 307:.\Generated_Source\PSoC5/CyLib.c **** 
 308:.\Generated_Source\PSoC5/CyLib.c **** 
 309:.\Generated_Source\PSoC5/CyLib.c ****     CY_LIB_PM_ACT_CFG0_REG  |= CY_LIB_PM_ACT_CFG0_IMO_EN;
ARM GAS  C:\Users\mjphi\AppData\Local\Temp\ccxjZhgg.s 			page 14


 427              		.loc 1 309 0
 428 000a 1D4A     		ldr	r2, .L30
 429 000c 1C4B     		ldr	r3, .L30
 430 000e 1B78     		ldrb	r3, [r3]
 431 0010 DBB2     		uxtb	r3, r3
 432 0012 43F01003 		orr	r3, r3, #16
 433 0016 DBB2     		uxtb	r3, r3
 434 0018 1370     		strb	r3, [r2]
 310:.\Generated_Source\PSoC5/CyLib.c ****     CY_LIB_PM_STBY_CFG0_REG |= CY_LIB_PM_STBY_CFG0_IMO_EN;
 435              		.loc 1 310 0
 436 001a 1A4A     		ldr	r2, .L30+4
 437 001c 194B     		ldr	r3, .L30+4
 438 001e 1B78     		ldrb	r3, [r3]
 439 0020 DBB2     		uxtb	r3, r3
 440 0022 43F01003 		orr	r3, r3, #16
 441 0026 DBB2     		uxtb	r3, r3
 442 0028 1370     		strb	r3, [r2]
 311:.\Generated_Source\PSoC5/CyLib.c **** 
 312:.\Generated_Source\PSoC5/CyLib.c ****     if(0u != wait)
 443              		.loc 1 312 0
 444 002a FB79     		ldrb	r3, [r7, #7]	@ zero_extendqisi2
 445 002c 002B     		cmp	r3, #0
 446 002e 23D0     		beq	.L26
 313:.\Generated_Source\PSoC5/CyLib.c ****     {
 314:.\Generated_Source\PSoC5/CyLib.c ****         /* Need to turn on 100KHz ILO if it happens to not already be running.*/
 315:.\Generated_Source\PSoC5/CyLib.c ****         ilo100KhzEnable = CY_LIB_SLOWCLK_ILO_CR0_REG & CY_LIB_SLOWCLK_ILO_CR0_EN_100KHZ;
 447              		.loc 1 315 0
 448 0030 154B     		ldr	r3, .L30+8
 449 0032 1B78     		ldrb	r3, [r3]
 450 0034 DBB2     		uxtb	r3, r3
 451 0036 03F00403 		and	r3, r3, #4
 452 003a FB73     		strb	r3, [r7, #15]
 316:.\Generated_Source\PSoC5/CyLib.c ****         pmFtwCfg0Reg = CY_LIB_PM_TW_CFG0_REG;
 453              		.loc 1 316 0
 454 003c 134B     		ldr	r3, .L30+12
 455 003e 1B78     		ldrb	r3, [r3]
 456 0040 BB73     		strb	r3, [r7, #14]
 317:.\Generated_Source\PSoC5/CyLib.c ****         pmFtwCfg2Reg = CY_LIB_PM_TW_CFG2_REG;
 457              		.loc 1 317 0
 458 0042 134B     		ldr	r3, .L30+16
 459 0044 1B78     		ldrb	r3, [r3]
 460 0046 7B73     		strb	r3, [r7, #13]
 318:.\Generated_Source\PSoC5/CyLib.c **** 
 319:.\Generated_Source\PSoC5/CyLib.c ****         CyPmFtwSetInterval(CY_LIB_CLK_IMO_FTW_TIMEOUT);
 461              		.loc 1 319 0
 462 0048 0020     		movs	r0, #0
 463 004a FFF7FEFF 		bl	CyPmFtwSetInterval
 320:.\Generated_Source\PSoC5/CyLib.c **** 
 321:.\Generated_Source\PSoC5/CyLib.c ****         while (0u == (CY_PM_FTW_INT & CyPmReadStatus(CY_PM_FTW_INT)))
 464              		.loc 1 321 0
 465 004e 00BF     		nop
 466              	.L28:
 467              		.loc 1 321 0 is_stmt 0 discriminator 1
 468 0050 0120     		movs	r0, #1
 469 0052 FFF7FEFF 		bl	CyPmReadStatus
 470 0056 0346     		mov	r3, r0
 471 0058 03F00103 		and	r3, r3, #1
ARM GAS  C:\Users\mjphi\AppData\Local\Temp\ccxjZhgg.s 			page 15


 472 005c DBB2     		uxtb	r3, r3
 473 005e 002B     		cmp	r3, #0
 474 0060 F6D0     		beq	.L28
 322:.\Generated_Source\PSoC5/CyLib.c ****         {
 323:.\Generated_Source\PSoC5/CyLib.c ****             /* Wait for interrupt status */
 324:.\Generated_Source\PSoC5/CyLib.c ****         }
 325:.\Generated_Source\PSoC5/CyLib.c **** 
 326:.\Generated_Source\PSoC5/CyLib.c ****         if(0u == ilo100KhzEnable)
 475              		.loc 1 326 0 is_stmt 1
 476 0062 FB7B     		ldrb	r3, [r7, #15]	@ zero_extendqisi2
 477 0064 002B     		cmp	r3, #0
 478 0066 01D1     		bne	.L29
 327:.\Generated_Source\PSoC5/CyLib.c ****         {
 328:.\Generated_Source\PSoC5/CyLib.c ****             CyILO_Stop100K();
 479              		.loc 1 328 0
 480 0068 FFF7FEFF 		bl	CyILO_Stop100K
 481              	.L29:
 329:.\Generated_Source\PSoC5/CyLib.c ****         }
 330:.\Generated_Source\PSoC5/CyLib.c **** 
 331:.\Generated_Source\PSoC5/CyLib.c ****         CY_LIB_PM_TW_CFG0_REG = pmFtwCfg0Reg;
 482              		.loc 1 331 0
 483 006c 074A     		ldr	r2, .L30+12
 484 006e BB7B     		ldrb	r3, [r7, #14]
 485 0070 1370     		strb	r3, [r2]
 332:.\Generated_Source\PSoC5/CyLib.c ****         CY_LIB_PM_TW_CFG2_REG = pmFtwCfg2Reg;
 486              		.loc 1 332 0
 487 0072 074A     		ldr	r2, .L30+16
 488 0074 7B7B     		ldrb	r3, [r7, #13]
 489 0076 1370     		strb	r3, [r2]
 490              	.L26:
 333:.\Generated_Source\PSoC5/CyLib.c ****     }
 334:.\Generated_Source\PSoC5/CyLib.c **** }
 491              		.loc 1 334 0
 492 0078 1037     		adds	r7, r7, #16
 493              		.cfi_def_cfa_offset 8
 494 007a BD46     		mov	sp, r7
 495              		.cfi_def_cfa_register 13
 496              		@ sp needed
 497 007c 80BD     		pop	{r7, pc}
 498              	.L31:
 499 007e 00BF     		.align	2
 500              	.L30:
 501 0080 A0430040 		.word	1073759136
 502 0084 B0430040 		.word	1073759152
 503 0088 00430040 		.word	1073758976
 504 008c 80430040 		.word	1073759104
 505 0090 82430040 		.word	1073759106
 506              		.cfi_endproc
 507              	.LFE4:
 508              		.size	CyIMO_Start, .-CyIMO_Start
 509              		.section	.text.CyIMO_Stop,"ax",%progbits
 510              		.align	2
 511              		.global	CyIMO_Stop
 512              		.thumb
 513              		.thumb_func
 514              		.type	CyIMO_Stop, %function
 515              	CyIMO_Stop:
ARM GAS  C:\Users\mjphi\AppData\Local\Temp\ccxjZhgg.s 			page 16


 516              	.LFB5:
 335:.\Generated_Source\PSoC5/CyLib.c **** 
 336:.\Generated_Source\PSoC5/CyLib.c **** 
 337:.\Generated_Source\PSoC5/CyLib.c **** /*******************************************************************************
 338:.\Generated_Source\PSoC5/CyLib.c **** * Function Name: CyIMO_Stop
 339:.\Generated_Source\PSoC5/CyLib.c **** ********************************************************************************
 340:.\Generated_Source\PSoC5/CyLib.c **** *
 341:.\Generated_Source\PSoC5/CyLib.c **** * Summary:
 342:.\Generated_Source\PSoC5/CyLib.c **** *   Disables the IMO.
 343:.\Generated_Source\PSoC5/CyLib.c **** *
 344:.\Generated_Source\PSoC5/CyLib.c **** * Parameters:
 345:.\Generated_Source\PSoC5/CyLib.c **** *  None
 346:.\Generated_Source\PSoC5/CyLib.c **** *
 347:.\Generated_Source\PSoC5/CyLib.c **** * Return:
 348:.\Generated_Source\PSoC5/CyLib.c **** *  None
 349:.\Generated_Source\PSoC5/CyLib.c **** *
 350:.\Generated_Source\PSoC5/CyLib.c **** *******************************************************************************/
 351:.\Generated_Source\PSoC5/CyLib.c **** void CyIMO_Stop(void) 
 352:.\Generated_Source\PSoC5/CyLib.c **** {
 517              		.loc 1 352 0
 518              		.cfi_startproc
 519              		@ args = 0, pretend = 0, frame = 0
 520              		@ frame_needed = 1, uses_anonymous_args = 0
 521              		@ link register save eliminated.
 522 0000 80B4     		push	{r7}
 523              		.cfi_def_cfa_offset 4
 524              		.cfi_offset 7, -4
 525 0002 00AF     		add	r7, sp, #0
 526              		.cfi_def_cfa_register 7
 353:.\Generated_Source\PSoC5/CyLib.c ****     CY_LIB_PM_ACT_CFG0_REG  &= ((uint8) (~CY_LIB_PM_ACT_CFG0_IMO_EN));
 527              		.loc 1 353 0
 528 0004 094A     		ldr	r2, .L33
 529 0006 094B     		ldr	r3, .L33
 530 0008 1B78     		ldrb	r3, [r3]
 531 000a DBB2     		uxtb	r3, r3
 532 000c 23F01003 		bic	r3, r3, #16
 533 0010 DBB2     		uxtb	r3, r3
 534 0012 1370     		strb	r3, [r2]
 354:.\Generated_Source\PSoC5/CyLib.c ****     CY_LIB_PM_STBY_CFG0_REG &= ((uint8) (~CY_LIB_PM_STBY_CFG0_IMO_EN));
 535              		.loc 1 354 0
 536 0014 064A     		ldr	r2, .L33+4
 537 0016 064B     		ldr	r3, .L33+4
 538 0018 1B78     		ldrb	r3, [r3]
 539 001a DBB2     		uxtb	r3, r3
 540 001c 23F01003 		bic	r3, r3, #16
 541 0020 DBB2     		uxtb	r3, r3
 542 0022 1370     		strb	r3, [r2]
 355:.\Generated_Source\PSoC5/CyLib.c **** }
 543              		.loc 1 355 0
 544 0024 BD46     		mov	sp, r7
 545              		.cfi_def_cfa_register 13
 546              		@ sp needed
 547 0026 5DF8047B 		ldr	r7, [sp], #4
 548              		.cfi_restore 7
 549              		.cfi_def_cfa_offset 0
 550 002a 7047     		bx	lr
 551              	.L34:
ARM GAS  C:\Users\mjphi\AppData\Local\Temp\ccxjZhgg.s 			page 17


 552              		.align	2
 553              	.L33:
 554 002c A0430040 		.word	1073759136
 555 0030 B0430040 		.word	1073759152
 556              		.cfi_endproc
 557              	.LFE5:
 558              		.size	CyIMO_Stop, .-CyIMO_Stop
 559              		.section	.text.CyUSB_PowerOnCheck,"ax",%progbits
 560              		.align	2
 561              		.thumb
 562              		.thumb_func
 563              		.type	CyUSB_PowerOnCheck, %function
 564              	CyUSB_PowerOnCheck:
 565              	.LFB6:
 356:.\Generated_Source\PSoC5/CyLib.c **** 
 357:.\Generated_Source\PSoC5/CyLib.c **** 
 358:.\Generated_Source\PSoC5/CyLib.c **** /*******************************************************************************
 359:.\Generated_Source\PSoC5/CyLib.c **** * Function Name: CyUSB_PowerOnCheck
 360:.\Generated_Source\PSoC5/CyLib.c **** ********************************************************************************
 361:.\Generated_Source\PSoC5/CyLib.c **** *
 362:.\Generated_Source\PSoC5/CyLib.c **** * Summary:
 363:.\Generated_Source\PSoC5/CyLib.c **** *  Returns the USB power status value. A private function to cy_boot.
 364:.\Generated_Source\PSoC5/CyLib.c **** *
 365:.\Generated_Source\PSoC5/CyLib.c **** * Parameters:
 366:.\Generated_Source\PSoC5/CyLib.c **** *   None
 367:.\Generated_Source\PSoC5/CyLib.c **** *
 368:.\Generated_Source\PSoC5/CyLib.c **** * Return:
 369:.\Generated_Source\PSoC5/CyLib.c **** *   uint8: one if the USB is enabled, 0 if not enabled.
 370:.\Generated_Source\PSoC5/CyLib.c **** *
 371:.\Generated_Source\PSoC5/CyLib.c **** *******************************************************************************/
 372:.\Generated_Source\PSoC5/CyLib.c **** static uint8 CyUSB_PowerOnCheck(void)  
 373:.\Generated_Source\PSoC5/CyLib.c **** {
 566              		.loc 1 373 0
 567              		.cfi_startproc
 568              		@ args = 0, pretend = 0, frame = 8
 569              		@ frame_needed = 1, uses_anonymous_args = 0
 570              		@ link register save eliminated.
 571 0000 80B4     		push	{r7}
 572              		.cfi_def_cfa_offset 4
 573              		.cfi_offset 7, -4
 574 0002 83B0     		sub	sp, sp, #12
 575              		.cfi_def_cfa_offset 16
 576 0004 00AF     		add	r7, sp, #0
 577              		.cfi_def_cfa_register 7
 374:.\Generated_Source\PSoC5/CyLib.c ****     uint8 poweredOn = 0u;
 578              		.loc 1 374 0
 579 0006 0023     		movs	r3, #0
 580 0008 FB71     		strb	r3, [r7, #7]
 375:.\Generated_Source\PSoC5/CyLib.c **** 
 376:.\Generated_Source\PSoC5/CyLib.c ****     /* Check whether device is in Active or AltActive and if USB is powered on */
 377:.\Generated_Source\PSoC5/CyLib.c ****     if((((CY_PM_MODE_CSR_REG & CY_PM_MODE_CSR_MASK) == CY_PM_MODE_CSR_ACTIVE ) &&
 581              		.loc 1 377 0
 582 000a 124B     		ldr	r3, .L40
 583 000c 1B78     		ldrb	r3, [r3]
 584 000e DBB2     		uxtb	r3, r3
 585 0010 03F00703 		and	r3, r3, #7
 586 0014 002B     		cmp	r3, #0
ARM GAS  C:\Users\mjphi\AppData\Local\Temp\ccxjZhgg.s 			page 18


 587 0016 06D1     		bne	.L36
 378:.\Generated_Source\PSoC5/CyLib.c ****        (0u != (CY_LIB_PM_ACT_CFG5_REG & CY_ACT_USB_ENABLED     )))  ||
 588              		.loc 1 378 0 discriminator 1
 589 0018 0F4B     		ldr	r3, .L40+4
 590 001a 1B78     		ldrb	r3, [r3]
 591 001c DBB2     		uxtb	r3, r3
 592 001e 03F00103 		and	r3, r3, #1
 377:.\Generated_Source\PSoC5/CyLib.c ****        (0u != (CY_LIB_PM_ACT_CFG5_REG & CY_ACT_USB_ENABLED     )))  ||
 593              		.loc 1 377 0 discriminator 1
 594 0022 002B     		cmp	r3, #0
 595 0024 0DD1     		bne	.L37
 596              	.L36:
 379:.\Generated_Source\PSoC5/CyLib.c ****        (((CY_PM_MODE_CSR_REG & CY_PM_MODE_CSR_MASK) == CY_PM_MODE_CSR_ALT_ACT) &&
 597              		.loc 1 379 0
 598 0026 0B4B     		ldr	r3, .L40
 599 0028 1B78     		ldrb	r3, [r3]
 600 002a DBB2     		uxtb	r3, r3
 601 002c 03F00703 		and	r3, r3, #7
 378:.\Generated_Source\PSoC5/CyLib.c ****        (0u != (CY_LIB_PM_ACT_CFG5_REG & CY_ACT_USB_ENABLED     )))  ||
 602              		.loc 1 378 0
 603 0030 012B     		cmp	r3, #1
 604 0032 08D1     		bne	.L38
 380:.\Generated_Source\PSoC5/CyLib.c ****        (0u != (CY_LIB_PM_STBY_CFG5_REG & CY_ALT_ACT_USB_ENABLED))))
 605              		.loc 1 380 0
 606 0034 094B     		ldr	r3, .L40+8
 607 0036 1B78     		ldrb	r3, [r3]
 608 0038 DBB2     		uxtb	r3, r3
 609 003a 03F00103 		and	r3, r3, #1
 379:.\Generated_Source\PSoC5/CyLib.c ****        (((CY_PM_MODE_CSR_REG & CY_PM_MODE_CSR_MASK) == CY_PM_MODE_CSR_ALT_ACT) &&
 610              		.loc 1 379 0
 611 003e 002B     		cmp	r3, #0
 612 0040 01D0     		beq	.L38
 613              	.L37:
 381:.\Generated_Source\PSoC5/CyLib.c ****     {
 382:.\Generated_Source\PSoC5/CyLib.c ****         poweredOn = 1u;
 614              		.loc 1 382 0
 615 0042 0123     		movs	r3, #1
 616 0044 FB71     		strb	r3, [r7, #7]
 617              	.L38:
 383:.\Generated_Source\PSoC5/CyLib.c ****     }
 384:.\Generated_Source\PSoC5/CyLib.c **** 
 385:.\Generated_Source\PSoC5/CyLib.c ****     return (poweredOn);
 618              		.loc 1 385 0
 619 0046 FB79     		ldrb	r3, [r7, #7]	@ zero_extendqisi2
 386:.\Generated_Source\PSoC5/CyLib.c **** }
 620              		.loc 1 386 0
 621 0048 1846     		mov	r0, r3
 622 004a 0C37     		adds	r7, r7, #12
 623              		.cfi_def_cfa_offset 4
 624 004c BD46     		mov	sp, r7
 625              		.cfi_def_cfa_register 13
 626              		@ sp needed
 627 004e 5DF8047B 		ldr	r7, [sp], #4
 628              		.cfi_restore 7
 629              		.cfi_def_cfa_offset 0
 630 0052 7047     		bx	lr
 631              	.L41:
ARM GAS  C:\Users\mjphi\AppData\Local\Temp\ccxjZhgg.s 			page 19


 632              		.align	2
 633              	.L40:
 634 0054 93430040 		.word	1073759123
 635 0058 A5430040 		.word	1073759141
 636 005c B5430040 		.word	1073759157
 637              		.cfi_endproc
 638              	.LFE6:
 639              		.size	CyUSB_PowerOnCheck, .-CyUSB_PowerOnCheck
 640              		.section	.text.CyIMO_SetTrimValue,"ax",%progbits
 641              		.align	2
 642              		.thumb
 643              		.thumb_func
 644              		.type	CyIMO_SetTrimValue, %function
 645              	CyIMO_SetTrimValue:
 646              	.LFB7:
 387:.\Generated_Source\PSoC5/CyLib.c **** 
 388:.\Generated_Source\PSoC5/CyLib.c **** 
 389:.\Generated_Source\PSoC5/CyLib.c **** /*******************************************************************************
 390:.\Generated_Source\PSoC5/CyLib.c **** * Function Name: CyIMO_SetTrimValue
 391:.\Generated_Source\PSoC5/CyLib.c **** ********************************************************************************
 392:.\Generated_Source\PSoC5/CyLib.c **** *
 393:.\Generated_Source\PSoC5/CyLib.c **** * Summary:
 394:.\Generated_Source\PSoC5/CyLib.c **** *  Sets the IMO factory trim values.
 395:.\Generated_Source\PSoC5/CyLib.c **** *
 396:.\Generated_Source\PSoC5/CyLib.c **** * Parameters:
 397:.\Generated_Source\PSoC5/CyLib.c **** *  uint8 freq - frequency for which trims must be set
 398:.\Generated_Source\PSoC5/CyLib.c **** *
 399:.\Generated_Source\PSoC5/CyLib.c **** * Return:
 400:.\Generated_Source\PSoC5/CyLib.c **** *  None
 401:.\Generated_Source\PSoC5/CyLib.c **** *
 402:.\Generated_Source\PSoC5/CyLib.c **** *******************************************************************************/
 403:.\Generated_Source\PSoC5/CyLib.c **** static void CyIMO_SetTrimValue(uint8 freq) 
 404:.\Generated_Source\PSoC5/CyLib.c **** {
 647              		.loc 1 404 0
 648              		.cfi_startproc
 649              		@ args = 0, pretend = 0, frame = 16
 650              		@ frame_needed = 1, uses_anonymous_args = 0
 651 0000 80B5     		push	{r7, lr}
 652              		.cfi_def_cfa_offset 8
 653              		.cfi_offset 7, -8
 654              		.cfi_offset 14, -4
 655 0002 84B0     		sub	sp, sp, #16
 656              		.cfi_def_cfa_offset 24
 657 0004 00AF     		add	r7, sp, #0
 658              		.cfi_def_cfa_register 7
 659 0006 0346     		mov	r3, r0
 660 0008 FB71     		strb	r3, [r7, #7]
 405:.\Generated_Source\PSoC5/CyLib.c ****     uint8 usbPowerOn = CyUSB_PowerOnCheck();
 661              		.loc 1 405 0
 662 000a FFF7FEFF 		bl	CyUSB_PowerOnCheck
 663 000e 0346     		mov	r3, r0
 664 0010 FB73     		strb	r3, [r7, #15]
 406:.\Generated_Source\PSoC5/CyLib.c **** 
 407:.\Generated_Source\PSoC5/CyLib.c ****     /* If USB is powered */
 408:.\Generated_Source\PSoC5/CyLib.c ****     if(usbPowerOn == 1u)
 665              		.loc 1 408 0
 666 0012 FB7B     		ldrb	r3, [r7, #15]	@ zero_extendqisi2
ARM GAS  C:\Users\mjphi\AppData\Local\Temp\ccxjZhgg.s 			page 20


 667 0014 012B     		cmp	r3, #1
 668 0016 07D1     		bne	.L43
 409:.\Generated_Source\PSoC5/CyLib.c ****     {
 410:.\Generated_Source\PSoC5/CyLib.c ****         /* Unlock USB write */
 411:.\Generated_Source\PSoC5/CyLib.c ****         CY_LIB_USB_CR1_REG &= ((uint8)(~CY_LIB_USB_CLK_EN));
 669              		.loc 1 411 0
 670 0018 314A     		ldr	r2, .L56
 671 001a 314B     		ldr	r3, .L56
 672 001c 1B78     		ldrb	r3, [r3]
 673 001e DBB2     		uxtb	r3, r3
 674 0020 23F00203 		bic	r3, r3, #2
 675 0024 DBB2     		uxtb	r3, r3
 676 0026 1370     		strb	r3, [r2]
 677              	.L43:
 412:.\Generated_Source\PSoC5/CyLib.c ****     }
 413:.\Generated_Source\PSoC5/CyLib.c ****     switch(freq)
 678              		.loc 1 413 0
 679 0028 FB79     		ldrb	r3, [r7, #7]	@ zero_extendqisi2
 680 002a 082B     		cmp	r3, #8
 681 002c 50D8     		bhi	.L44
 682 002e 01A2     		adr	r2, .L46
 683 0030 52F823F0 		ldr	pc, [r2, r3, lsl #2]
 684              		.p2align 2
 685              	.L46:
 686 0034 59000000 		.word	.L45+1
 687 0038 65000000 		.word	.L47+1
 688 003c 71000000 		.word	.L48+1
 689 0040 7D000000 		.word	.L49+1
 690 0044 89000000 		.word	.L50+1
 691 0048 95000000 		.word	.L51+1
 692 004c A1000000 		.word	.L52+1
 693 0050 D1000000 		.word	.L44+1
 694 0054 AD000000 		.word	.L53+1
 695              		.p2align 1
 696              	.L45:
 414:.\Generated_Source\PSoC5/CyLib.c ****     {
 415:.\Generated_Source\PSoC5/CyLib.c ****     case CY_IMO_FREQ_3MHZ:
 416:.\Generated_Source\PSoC5/CyLib.c ****         CY_LIB_IMO_TR1_REG = CY_GET_XTND_REG8(CY_LIB_TRIM_IMO_3MHZ_PTR);
 697              		.loc 1 416 0
 698 0058 224B     		ldr	r3, .L56+4
 699 005a 234A     		ldr	r2, .L56+8
 700 005c 1278     		ldrb	r2, [r2]
 701 005e D2B2     		uxtb	r2, r2
 702 0060 1A70     		strb	r2, [r3]
 417:.\Generated_Source\PSoC5/CyLib.c ****         break;
 703              		.loc 1 417 0
 704 0062 39E0     		b	.L42
 705              	.L47:
 418:.\Generated_Source\PSoC5/CyLib.c **** 
 419:.\Generated_Source\PSoC5/CyLib.c ****     case CY_IMO_FREQ_6MHZ:
 420:.\Generated_Source\PSoC5/CyLib.c ****         CY_LIB_IMO_TR1_REG = CY_GET_XTND_REG8(CY_LIB_TRIM_IMO_6MHZ_PTR);
 706              		.loc 1 420 0
 707 0064 1F4B     		ldr	r3, .L56+4
 708 0066 214A     		ldr	r2, .L56+12
 709 0068 1278     		ldrb	r2, [r2]
 710 006a D2B2     		uxtb	r2, r2
 711 006c 1A70     		strb	r2, [r3]
ARM GAS  C:\Users\mjphi\AppData\Local\Temp\ccxjZhgg.s 			page 21


 421:.\Generated_Source\PSoC5/CyLib.c ****         break;
 712              		.loc 1 421 0
 713 006e 33E0     		b	.L42
 714              	.L48:
 422:.\Generated_Source\PSoC5/CyLib.c **** 
 423:.\Generated_Source\PSoC5/CyLib.c ****     case CY_IMO_FREQ_12MHZ:
 424:.\Generated_Source\PSoC5/CyLib.c ****         CY_LIB_IMO_TR1_REG = CY_GET_XTND_REG8(CY_LIB_TRIM_IMO_12MHZ_PTR);
 715              		.loc 1 424 0
 716 0070 1C4B     		ldr	r3, .L56+4
 717 0072 1F4A     		ldr	r2, .L56+16
 718 0074 1278     		ldrb	r2, [r2]
 719 0076 D2B2     		uxtb	r2, r2
 720 0078 1A70     		strb	r2, [r3]
 425:.\Generated_Source\PSoC5/CyLib.c ****         break;
 721              		.loc 1 425 0
 722 007a 2DE0     		b	.L42
 723              	.L49:
 426:.\Generated_Source\PSoC5/CyLib.c **** 
 427:.\Generated_Source\PSoC5/CyLib.c ****     case CY_IMO_FREQ_24MHZ:
 428:.\Generated_Source\PSoC5/CyLib.c ****         CY_LIB_IMO_TR1_REG = CY_GET_XTND_REG8(CY_LIB_TRIM_IMO_24MHZ_PTR);
 724              		.loc 1 428 0
 725 007c 194B     		ldr	r3, .L56+4
 726 007e 1D4A     		ldr	r2, .L56+20
 727 0080 1278     		ldrb	r2, [r2]
 728 0082 D2B2     		uxtb	r2, r2
 729 0084 1A70     		strb	r2, [r3]
 429:.\Generated_Source\PSoC5/CyLib.c ****         break;
 730              		.loc 1 429 0
 731 0086 27E0     		b	.L42
 732              	.L50:
 430:.\Generated_Source\PSoC5/CyLib.c **** 
 431:.\Generated_Source\PSoC5/CyLib.c ****     case CY_IMO_FREQ_48MHZ:
 432:.\Generated_Source\PSoC5/CyLib.c ****         CY_LIB_IMO_TR1_REG = CY_GET_XTND_REG8(CY_LIB_TRIM_IMO_TR1_PTR);
 733              		.loc 1 432 0
 734 0088 164B     		ldr	r3, .L56+4
 735 008a 1B4A     		ldr	r2, .L56+24
 736 008c 1278     		ldrb	r2, [r2]
 737 008e D2B2     		uxtb	r2, r2
 738 0090 1A70     		strb	r2, [r3]
 433:.\Generated_Source\PSoC5/CyLib.c ****         break;
 739              		.loc 1 433 0
 740 0092 21E0     		b	.L42
 741              	.L51:
 434:.\Generated_Source\PSoC5/CyLib.c **** 
 435:.\Generated_Source\PSoC5/CyLib.c ****     case CY_IMO_FREQ_62MHZ:
 436:.\Generated_Source\PSoC5/CyLib.c ****         CY_LIB_IMO_TR1_REG = CY_GET_XTND_REG8(CY_LIB_TRIM_IMO_67MHZ_PTR);
 742              		.loc 1 436 0
 743 0094 134B     		ldr	r3, .L56+4
 744 0096 194A     		ldr	r2, .L56+28
 745 0098 1278     		ldrb	r2, [r2]
 746 009a D2B2     		uxtb	r2, r2
 747 009c 1A70     		strb	r2, [r3]
 437:.\Generated_Source\PSoC5/CyLib.c ****         break;
 748              		.loc 1 437 0
 749 009e 1BE0     		b	.L42
 750              	.L52:
 438:.\Generated_Source\PSoC5/CyLib.c **** 
ARM GAS  C:\Users\mjphi\AppData\Local\Temp\ccxjZhgg.s 			page 22


 439:.\Generated_Source\PSoC5/CyLib.c **** #if(CY_PSOC5)
 440:.\Generated_Source\PSoC5/CyLib.c ****     case CY_IMO_FREQ_74MHZ:
 441:.\Generated_Source\PSoC5/CyLib.c ****         CY_LIB_IMO_TR1_REG = CY_GET_XTND_REG8(CY_LIB_TRIM_IMO_80MHZ_PTR);
 751              		.loc 1 441 0
 752 00a0 104B     		ldr	r3, .L56+4
 753 00a2 174A     		ldr	r2, .L56+32
 754 00a4 1278     		ldrb	r2, [r2]
 755 00a6 D2B2     		uxtb	r2, r2
 756 00a8 1A70     		strb	r2, [r3]
 442:.\Generated_Source\PSoC5/CyLib.c ****         break;
 757              		.loc 1 442 0
 758 00aa 15E0     		b	.L42
 759              	.L53:
 443:.\Generated_Source\PSoC5/CyLib.c **** #endif  /* (CY_PSOC5) */
 444:.\Generated_Source\PSoC5/CyLib.c **** 
 445:.\Generated_Source\PSoC5/CyLib.c ****     case CY_IMO_FREQ_USB:
 446:.\Generated_Source\PSoC5/CyLib.c ****         CY_LIB_IMO_TR1_REG = CY_GET_XTND_REG8(CY_LIB_TRIM_IMO_USB_PTR);
 760              		.loc 1 446 0
 761 00ac 0D4B     		ldr	r3, .L56+4
 762 00ae 154A     		ldr	r2, .L56+36
 763 00b0 1278     		ldrb	r2, [r2]
 764 00b2 D2B2     		uxtb	r2, r2
 765 00b4 1A70     		strb	r2, [r3]
 447:.\Generated_Source\PSoC5/CyLib.c **** 
 448:.\Generated_Source\PSoC5/CyLib.c ****         /* If USB is powered */
 449:.\Generated_Source\PSoC5/CyLib.c ****         if(usbPowerOn == 1u)
 766              		.loc 1 449 0
 767 00b6 FB7B     		ldrb	r3, [r7, #15]	@ zero_extendqisi2
 768 00b8 012B     		cmp	r3, #1
 769 00ba 08D1     		bne	.L55
 450:.\Generated_Source\PSoC5/CyLib.c ****         {
 451:.\Generated_Source\PSoC5/CyLib.c ****             /* Lock USB Oscillator */
 452:.\Generated_Source\PSoC5/CyLib.c ****             CY_LIB_USB_CR1_REG |= CY_LIB_USB_CLK_EN;
 770              		.loc 1 452 0
 771 00bc 084A     		ldr	r2, .L56
 772 00be 084B     		ldr	r3, .L56
 773 00c0 1B78     		ldrb	r3, [r3]
 774 00c2 DBB2     		uxtb	r3, r3
 775 00c4 43F00203 		orr	r3, r3, #2
 776 00c8 DBB2     		uxtb	r3, r3
 777 00ca 1370     		strb	r3, [r2]
 453:.\Generated_Source\PSoC5/CyLib.c ****         }
 454:.\Generated_Source\PSoC5/CyLib.c ****         break;
 778              		.loc 1 454 0
 779 00cc 04E0     		b	.L42
 780              	.L55:
 781 00ce 03E0     		b	.L42
 782              	.L44:
 455:.\Generated_Source\PSoC5/CyLib.c **** 
 456:.\Generated_Source\PSoC5/CyLib.c ****     default:
 457:.\Generated_Source\PSoC5/CyLib.c ****             CYASSERT(0u != 0u);
 783              		.loc 1 457 0
 784 00d0 0020     		movs	r0, #0
 785 00d2 FFF7FEFF 		bl	CyHalt
 458:.\Generated_Source\PSoC5/CyLib.c ****         break;
 786              		.loc 1 458 0
 787 00d6 00BF     		nop
ARM GAS  C:\Users\mjphi\AppData\Local\Temp\ccxjZhgg.s 			page 23


 788              	.L42:
 459:.\Generated_Source\PSoC5/CyLib.c ****     }
 460:.\Generated_Source\PSoC5/CyLib.c **** 
 461:.\Generated_Source\PSoC5/CyLib.c **** }
 789              		.loc 1 461 0
 790 00d8 1037     		adds	r7, r7, #16
 791              		.cfi_def_cfa_offset 8
 792 00da BD46     		mov	sp, r7
 793              		.cfi_def_cfa_register 13
 794              		@ sp needed
 795 00dc 80BD     		pop	{r7, pc}
 796              	.L57:
 797 00de 00BF     		.align	2
 798              	.L56:
 799 00e0 09600040 		.word	1073766409
 800 00e4 A1460040 		.word	1073759905
 801 00e8 08010049 		.word	1224737032
 802 00ec 09010049 		.word	1224737033
 803 00f0 0A010049 		.word	1224737034
 804 00f4 0B010049 		.word	1224737035
 805 00f8 89010049 		.word	1224737161
 806 00fc 0C010049 		.word	1224737036
 807 0100 0D010049 		.word	1224737037
 808 0104 0F010049 		.word	1224737039
 809              		.cfi_endproc
 810              	.LFE7:
 811              		.size	CyIMO_SetTrimValue, .-CyIMO_SetTrimValue
 812              		.section	.text.CyIMO_SetFreq,"ax",%progbits
 813              		.align	2
 814              		.global	CyIMO_SetFreq
 815              		.thumb
 816              		.thumb_func
 817              		.type	CyIMO_SetFreq, %function
 818              	CyIMO_SetFreq:
 819              	.LFB8:
 462:.\Generated_Source\PSoC5/CyLib.c **** 
 463:.\Generated_Source\PSoC5/CyLib.c **** 
 464:.\Generated_Source\PSoC5/CyLib.c **** /*******************************************************************************
 465:.\Generated_Source\PSoC5/CyLib.c **** * Function Name: CyIMO_SetFreq
 466:.\Generated_Source\PSoC5/CyLib.c **** ********************************************************************************
 467:.\Generated_Source\PSoC5/CyLib.c **** *
 468:.\Generated_Source\PSoC5/CyLib.c **** * Summary:
 469:.\Generated_Source\PSoC5/CyLib.c **** *  Sets the frequency of the IMO. Changes may be made while the IMO is running.
 470:.\Generated_Source\PSoC5/CyLib.c **** *
 471:.\Generated_Source\PSoC5/CyLib.c **** * Parameters:
 472:.\Generated_Source\PSoC5/CyLib.c **** *  freq: Frequency of IMO operation
 473:.\Generated_Source\PSoC5/CyLib.c **** *       CY_IMO_FREQ_3MHZ  to set  3   MHz
 474:.\Generated_Source\PSoC5/CyLib.c **** *       CY_IMO_FREQ_6MHZ  to set  6   MHz
 475:.\Generated_Source\PSoC5/CyLib.c **** *       CY_IMO_FREQ_12MHZ to set 12   MHz
 476:.\Generated_Source\PSoC5/CyLib.c **** *       CY_IMO_FREQ_24MHZ to set 24   MHz
 477:.\Generated_Source\PSoC5/CyLib.c **** *       CY_IMO_FREQ_48MHZ to set 48   MHz
 478:.\Generated_Source\PSoC5/CyLib.c **** *       CY_IMO_FREQ_62MHZ to set 62.6 MHz
 479:.\Generated_Source\PSoC5/CyLib.c **** *       CY_IMO_FREQ_74MHZ to set 74.7 MHz (not applicable for PSoC 3)
 480:.\Generated_Source\PSoC5/CyLib.c **** *       CY_IMO_FREQ_USB   to set 24   MHz (Trimmed for USB operation)
 481:.\Generated_Source\PSoC5/CyLib.c **** *
 482:.\Generated_Source\PSoC5/CyLib.c **** * Return:
 483:.\Generated_Source\PSoC5/CyLib.c **** *  None
ARM GAS  C:\Users\mjphi\AppData\Local\Temp\ccxjZhgg.s 			page 24


 484:.\Generated_Source\PSoC5/CyLib.c **** *
 485:.\Generated_Source\PSoC5/CyLib.c **** * Side Effects:
 486:.\Generated_Source\PSoC5/CyLib.c **** *  If this function execution results in the CPU clock frequency increasing,
 487:.\Generated_Source\PSoC5/CyLib.c **** *  then the number of clock cycles the cache will wait before it samples data
 488:.\Generated_Source\PSoC5/CyLib.c **** *  coming back from the Flash must be adjusted by calling
 489:.\Generated_Source\PSoC5/CyLib.c **** *  CyFlash_SetWaitCycles() with an appropriate parameter. It can be optionally
 490:.\Generated_Source\PSoC5/CyLib.c **** *  called if the CPU clock frequency is lowered in order to improve the CPU
 491:.\Generated_Source\PSoC5/CyLib.c **** *  performance. See CyFlash_SetWaitCycles() description for more information.
 492:.\Generated_Source\PSoC5/CyLib.c **** *
 493:.\Generated_Source\PSoC5/CyLib.c **** *  When the USB setting is chosen, the USB clock locking circuit is enabled.
 494:.\Generated_Source\PSoC5/CyLib.c **** *  Otherwise this circuit is disabled. The USB block must be powered before
 495:.\Generated_Source\PSoC5/CyLib.c **** *  selecting the USB setting.
 496:.\Generated_Source\PSoC5/CyLib.c **** *
 497:.\Generated_Source\PSoC5/CyLib.c **** *******************************************************************************/
 498:.\Generated_Source\PSoC5/CyLib.c **** void CyIMO_SetFreq(uint8 freq) 
 499:.\Generated_Source\PSoC5/CyLib.c **** {
 820              		.loc 1 499 0
 821              		.cfi_startproc
 822              		@ args = 0, pretend = 0, frame = 16
 823              		@ frame_needed = 1, uses_anonymous_args = 0
 824 0000 80B5     		push	{r7, lr}
 825              		.cfi_def_cfa_offset 8
 826              		.cfi_offset 7, -8
 827              		.cfi_offset 14, -4
 828 0002 84B0     		sub	sp, sp, #16
 829              		.cfi_def_cfa_offset 24
 830 0004 00AF     		add	r7, sp, #0
 831              		.cfi_def_cfa_register 7
 832 0006 0346     		mov	r3, r0
 833 0008 FB71     		strb	r3, [r7, #7]
 500:.\Generated_Source\PSoC5/CyLib.c ****     uint8 currentFreq;
 501:.\Generated_Source\PSoC5/CyLib.c ****     uint8 nextFreq;
 502:.\Generated_Source\PSoC5/CyLib.c **** 
 503:.\Generated_Source\PSoC5/CyLib.c ****     /***************************************************************************
 504:.\Generated_Source\PSoC5/CyLib.c ****     * If the IMO frequency is changed,the Trim values must also be set
 505:.\Generated_Source\PSoC5/CyLib.c ****     * accordingly.This requires reading the current frequency. If the new
 506:.\Generated_Source\PSoC5/CyLib.c ****     * frequency is faster, then set a new trim and then change the frequency,
 507:.\Generated_Source\PSoC5/CyLib.c ****     * otherwise change the frequency and then set new trim values.
 508:.\Generated_Source\PSoC5/CyLib.c ****     ***************************************************************************/
 509:.\Generated_Source\PSoC5/CyLib.c **** 
 510:.\Generated_Source\PSoC5/CyLib.c ****     currentFreq = CY_LIB_FASTCLK_IMO_CR_REG & ((uint8)(~CY_LIB_FASTCLK_IMO_CR_RANGE_MASK));
 834              		.loc 1 510 0
 835 000a 674B     		ldr	r3, .L86
 836 000c 1B78     		ldrb	r3, [r3]
 837 000e DBB2     		uxtb	r3, r3
 838 0010 03F00703 		and	r3, r3, #7
 839 0014 FB73     		strb	r3, [r7, #15]
 511:.\Generated_Source\PSoC5/CyLib.c **** 
 512:.\Generated_Source\PSoC5/CyLib.c ****     /* Check if requested frequency is USB. */
 513:.\Generated_Source\PSoC5/CyLib.c ****     nextFreq = (freq == CY_IMO_FREQ_USB) ? CY_IMO_FREQ_24MHZ : freq;
 840              		.loc 1 513 0
 841 0016 FB79     		ldrb	r3, [r7, #7]	@ zero_extendqisi2
 842 0018 082B     		cmp	r3, #8
 843 001a 01D0     		beq	.L59
 844              		.loc 1 513 0 is_stmt 0 discriminator 1
 845 001c FB79     		ldrb	r3, [r7, #7]	@ zero_extendqisi2
 846 001e 00E0     		b	.L60
ARM GAS  C:\Users\mjphi\AppData\Local\Temp\ccxjZhgg.s 			page 25


 847              	.L59:
 848              		.loc 1 513 0 discriminator 2
 849 0020 0323     		movs	r3, #3
 850              	.L60:
 851              		.loc 1 513 0 discriminator 4
 852 0022 BB73     		strb	r3, [r7, #14]
 514:.\Generated_Source\PSoC5/CyLib.c **** 
 515:.\Generated_Source\PSoC5/CyLib.c ****     switch (currentFreq)
 853              		.loc 1 515 0 is_stmt 1 discriminator 4
 854 0024 FB7B     		ldrb	r3, [r7, #15]	@ zero_extendqisi2
 855 0026 062B     		cmp	r3, #6
 856 0028 25D8     		bhi	.L61
 857 002a 01A2     		adr	r2, .L63
 858 002c 52F823F0 		ldr	pc, [r2, r3, lsl #2]
 859              		.p2align 2
 860              	.L63:
 861 0030 4D000000 		.word	.L62+1
 862 0034 53000000 		.word	.L64+1
 863 0038 59000000 		.word	.L65+1
 864 003c 5F000000 		.word	.L66+1
 865 0040 65000000 		.word	.L67+1
 866 0044 6B000000 		.word	.L68+1
 867 0048 71000000 		.word	.L69+1
 868              		.p2align 1
 869              	.L62:
 516:.\Generated_Source\PSoC5/CyLib.c ****     {
 517:.\Generated_Source\PSoC5/CyLib.c ****     case 0u:
 518:.\Generated_Source\PSoC5/CyLib.c ****         currentFreq = CY_IMO_FREQ_12MHZ;
 870              		.loc 1 518 0
 871 004c 0223     		movs	r3, #2
 872 004e FB73     		strb	r3, [r7, #15]
 519:.\Generated_Source\PSoC5/CyLib.c ****         break;
 873              		.loc 1 519 0
 874 0050 15E0     		b	.L70
 875              	.L64:
 520:.\Generated_Source\PSoC5/CyLib.c **** 
 521:.\Generated_Source\PSoC5/CyLib.c ****     case 1u:
 522:.\Generated_Source\PSoC5/CyLib.c ****         currentFreq = CY_IMO_FREQ_6MHZ;
 876              		.loc 1 522 0
 877 0052 0123     		movs	r3, #1
 878 0054 FB73     		strb	r3, [r7, #15]
 523:.\Generated_Source\PSoC5/CyLib.c ****         break;
 879              		.loc 1 523 0
 880 0056 12E0     		b	.L70
 881              	.L65:
 524:.\Generated_Source\PSoC5/CyLib.c **** 
 525:.\Generated_Source\PSoC5/CyLib.c ****     case 2u:
 526:.\Generated_Source\PSoC5/CyLib.c ****         currentFreq = CY_IMO_FREQ_24MHZ;
 882              		.loc 1 526 0
 883 0058 0323     		movs	r3, #3
 884 005a FB73     		strb	r3, [r7, #15]
 527:.\Generated_Source\PSoC5/CyLib.c ****         break;
 885              		.loc 1 527 0
 886 005c 0FE0     		b	.L70
 887              	.L66:
 528:.\Generated_Source\PSoC5/CyLib.c **** 
 529:.\Generated_Source\PSoC5/CyLib.c ****     case 3u:
ARM GAS  C:\Users\mjphi\AppData\Local\Temp\ccxjZhgg.s 			page 26


 530:.\Generated_Source\PSoC5/CyLib.c ****         currentFreq = CY_IMO_FREQ_3MHZ;
 888              		.loc 1 530 0
 889 005e 0023     		movs	r3, #0
 890 0060 FB73     		strb	r3, [r7, #15]
 531:.\Generated_Source\PSoC5/CyLib.c ****         break;
 891              		.loc 1 531 0
 892 0062 0CE0     		b	.L70
 893              	.L67:
 532:.\Generated_Source\PSoC5/CyLib.c **** 
 533:.\Generated_Source\PSoC5/CyLib.c ****     case 4u:
 534:.\Generated_Source\PSoC5/CyLib.c ****         currentFreq = CY_IMO_FREQ_48MHZ;
 894              		.loc 1 534 0
 895 0064 0423     		movs	r3, #4
 896 0066 FB73     		strb	r3, [r7, #15]
 535:.\Generated_Source\PSoC5/CyLib.c ****         break;
 897              		.loc 1 535 0
 898 0068 09E0     		b	.L70
 899              	.L68:
 536:.\Generated_Source\PSoC5/CyLib.c **** 
 537:.\Generated_Source\PSoC5/CyLib.c ****     case 5u:
 538:.\Generated_Source\PSoC5/CyLib.c ****         currentFreq = CY_IMO_FREQ_62MHZ;
 900              		.loc 1 538 0
 901 006a 0523     		movs	r3, #5
 902 006c FB73     		strb	r3, [r7, #15]
 539:.\Generated_Source\PSoC5/CyLib.c ****         break;
 903              		.loc 1 539 0
 904 006e 06E0     		b	.L70
 905              	.L69:
 540:.\Generated_Source\PSoC5/CyLib.c **** 
 541:.\Generated_Source\PSoC5/CyLib.c **** #if(CY_PSOC5)
 542:.\Generated_Source\PSoC5/CyLib.c ****     case 6u:
 543:.\Generated_Source\PSoC5/CyLib.c ****         currentFreq = CY_IMO_FREQ_74MHZ;
 906              		.loc 1 543 0
 907 0070 0623     		movs	r3, #6
 908 0072 FB73     		strb	r3, [r7, #15]
 544:.\Generated_Source\PSoC5/CyLib.c ****         break;
 909              		.loc 1 544 0
 910 0074 03E0     		b	.L70
 911              	.L61:
 545:.\Generated_Source\PSoC5/CyLib.c **** #endif  /* (CY_PSOC5) */
 546:.\Generated_Source\PSoC5/CyLib.c **** 
 547:.\Generated_Source\PSoC5/CyLib.c ****     default:
 548:.\Generated_Source\PSoC5/CyLib.c ****         CYASSERT(0u != 0u);
 912              		.loc 1 548 0
 913 0076 0020     		movs	r0, #0
 914 0078 FFF7FEFF 		bl	CyHalt
 549:.\Generated_Source\PSoC5/CyLib.c ****         break;
 915              		.loc 1 549 0
 916 007c 00BF     		nop
 917              	.L70:
 550:.\Generated_Source\PSoC5/CyLib.c ****     }
 551:.\Generated_Source\PSoC5/CyLib.c **** 
 552:.\Generated_Source\PSoC5/CyLib.c ****     if (nextFreq >= currentFreq)
 918              		.loc 1 552 0
 919 007e BA7B     		ldrb	r2, [r7, #14]	@ zero_extendqisi2
 920 0080 FB7B     		ldrb	r3, [r7, #15]	@ zero_extendqisi2
 921 0082 9A42     		cmp	r2, r3
ARM GAS  C:\Users\mjphi\AppData\Local\Temp\ccxjZhgg.s 			page 27


 922 0084 03D3     		bcc	.L71
 553:.\Generated_Source\PSoC5/CyLib.c ****     {
 554:.\Generated_Source\PSoC5/CyLib.c ****         /* Set new trim first */
 555:.\Generated_Source\PSoC5/CyLib.c ****         CyIMO_SetTrimValue(freq);
 923              		.loc 1 555 0
 924 0086 FB79     		ldrb	r3, [r7, #7]	@ zero_extendqisi2
 925 0088 1846     		mov	r0, r3
 926 008a FFF7FEFF 		bl	CyIMO_SetTrimValue
 927              	.L71:
 556:.\Generated_Source\PSoC5/CyLib.c ****     }
 557:.\Generated_Source\PSoC5/CyLib.c **** 
 558:.\Generated_Source\PSoC5/CyLib.c ****     /* Set usbclk_on bit when using CY_IMO_FREQ_USB, if not clear it */
 559:.\Generated_Source\PSoC5/CyLib.c ****     switch(freq)
 928              		.loc 1 559 0
 929 008e FB79     		ldrb	r3, [r7, #7]	@ zero_extendqisi2
 930 0090 082B     		cmp	r3, #8
 931 0092 72D8     		bhi	.L72
 932 0094 01A2     		adr	r2, .L74
 933 0096 52F823F0 		ldr	pc, [r2, r3, lsl #2]
 934 009a 00BF     		.p2align 2
 935              	.L74:
 936 009c C1000000 		.word	.L73+1
 937 00a0 D9000000 		.word	.L75+1
 938 00a4 F1000000 		.word	.L76+1
 939 00a8 03010000 		.word	.L77+1
 940 00ac 1B010000 		.word	.L78+1
 941 00b0 33010000 		.word	.L79+1
 942 00b4 4B010000 		.word	.L80+1
 943 00b8 7B010000 		.word	.L72+1
 944 00bc 63010000 		.word	.L81+1
 945              		.p2align 1
 946              	.L73:
 560:.\Generated_Source\PSoC5/CyLib.c ****     {
 561:.\Generated_Source\PSoC5/CyLib.c ****     case CY_IMO_FREQ_3MHZ:
 562:.\Generated_Source\PSoC5/CyLib.c ****         CY_LIB_FASTCLK_IMO_CR_REG = ((CY_LIB_FASTCLK_IMO_CR_REG & CY_LIB_FASTCLK_IMO_CR_RANGE_MASK)
 947              		.loc 1 562 0
 948 00c0 394A     		ldr	r2, .L86
 949 00c2 394B     		ldr	r3, .L86
 950 00c4 1B78     		ldrb	r3, [r3]
 951 00c6 DBB2     		uxtb	r3, r3
 952 00c8 23F04703 		bic	r3, r3, #71
 953 00cc DBB2     		uxtb	r3, r3
 954 00ce 43F00303 		orr	r3, r3, #3
 955 00d2 DBB2     		uxtb	r3, r3
 956 00d4 1370     		strb	r3, [r2]
 563:.\Generated_Source\PSoC5/CyLib.c ****             CY_LIB_IMO_3MHZ_VALUE) & ((uint8)(~CY_LIB_IMO_USBCLK_ON_SET));
 564:.\Generated_Source\PSoC5/CyLib.c ****         break;
 957              		.loc 1 564 0
 958 00d6 54E0     		b	.L82
 959              	.L75:
 565:.\Generated_Source\PSoC5/CyLib.c **** 
 566:.\Generated_Source\PSoC5/CyLib.c ****     case CY_IMO_FREQ_6MHZ:
 567:.\Generated_Source\PSoC5/CyLib.c ****         CY_LIB_FASTCLK_IMO_CR_REG = ((CY_LIB_FASTCLK_IMO_CR_REG & CY_LIB_FASTCLK_IMO_CR_RANGE_MASK)
 960              		.loc 1 567 0
 961 00d8 334A     		ldr	r2, .L86
 962 00da 334B     		ldr	r3, .L86
 963 00dc 1B78     		ldrb	r3, [r3]
ARM GAS  C:\Users\mjphi\AppData\Local\Temp\ccxjZhgg.s 			page 28


 964 00de DBB2     		uxtb	r3, r3
 965 00e0 23F04703 		bic	r3, r3, #71
 966 00e4 DBB2     		uxtb	r3, r3
 967 00e6 43F00103 		orr	r3, r3, #1
 968 00ea DBB2     		uxtb	r3, r3
 969 00ec 1370     		strb	r3, [r2]
 568:.\Generated_Source\PSoC5/CyLib.c ****             CY_LIB_IMO_6MHZ_VALUE) & ((uint8)(~CY_LIB_IMO_USBCLK_ON_SET));
 569:.\Generated_Source\PSoC5/CyLib.c ****         break;
 970              		.loc 1 569 0
 971 00ee 48E0     		b	.L82
 972              	.L76:
 570:.\Generated_Source\PSoC5/CyLib.c **** 
 571:.\Generated_Source\PSoC5/CyLib.c ****     case CY_IMO_FREQ_12MHZ:
 572:.\Generated_Source\PSoC5/CyLib.c ****         CY_LIB_FASTCLK_IMO_CR_REG = ((CY_LIB_FASTCLK_IMO_CR_REG & CY_LIB_FASTCLK_IMO_CR_RANGE_MASK)
 973              		.loc 1 572 0
 974 00f0 2D4A     		ldr	r2, .L86
 975 00f2 2D4B     		ldr	r3, .L86
 976 00f4 1B78     		ldrb	r3, [r3]
 977 00f6 DBB2     		uxtb	r3, r3
 978 00f8 23F04703 		bic	r3, r3, #71
 979 00fc DBB2     		uxtb	r3, r3
 980 00fe 1370     		strb	r3, [r2]
 573:.\Generated_Source\PSoC5/CyLib.c ****             CY_LIB_IMO_12MHZ_VALUE) & ((uint8)(~CY_LIB_IMO_USBCLK_ON_SET));
 574:.\Generated_Source\PSoC5/CyLib.c ****         break;
 981              		.loc 1 574 0
 982 0100 3FE0     		b	.L82
 983              	.L77:
 575:.\Generated_Source\PSoC5/CyLib.c **** 
 576:.\Generated_Source\PSoC5/CyLib.c ****     case CY_IMO_FREQ_24MHZ:
 577:.\Generated_Source\PSoC5/CyLib.c ****         CY_LIB_FASTCLK_IMO_CR_REG = ((CY_LIB_FASTCLK_IMO_CR_REG & CY_LIB_FASTCLK_IMO_CR_RANGE_MASK)
 984              		.loc 1 577 0
 985 0102 294A     		ldr	r2, .L86
 986 0104 284B     		ldr	r3, .L86
 987 0106 1B78     		ldrb	r3, [r3]
 988 0108 DBB2     		uxtb	r3, r3
 989 010a 23F04703 		bic	r3, r3, #71
 990 010e DBB2     		uxtb	r3, r3
 991 0110 43F00203 		orr	r3, r3, #2
 992 0114 DBB2     		uxtb	r3, r3
 993 0116 1370     		strb	r3, [r2]
 578:.\Generated_Source\PSoC5/CyLib.c ****             CY_LIB_IMO_24MHZ_VALUE) & ((uint8)(~CY_LIB_IMO_USBCLK_ON_SET));
 579:.\Generated_Source\PSoC5/CyLib.c ****         break;
 994              		.loc 1 579 0
 995 0118 33E0     		b	.L82
 996              	.L78:
 580:.\Generated_Source\PSoC5/CyLib.c **** 
 581:.\Generated_Source\PSoC5/CyLib.c ****     case CY_IMO_FREQ_48MHZ:
 582:.\Generated_Source\PSoC5/CyLib.c ****         CY_LIB_FASTCLK_IMO_CR_REG = ((CY_LIB_FASTCLK_IMO_CR_REG & CY_LIB_FASTCLK_IMO_CR_RANGE_MASK)
 997              		.loc 1 582 0
 998 011a 234A     		ldr	r2, .L86
 999 011c 224B     		ldr	r3, .L86
 1000 011e 1B78     		ldrb	r3, [r3]
 1001 0120 DBB2     		uxtb	r3, r3
 1002 0122 23F04703 		bic	r3, r3, #71
 1003 0126 DBB2     		uxtb	r3, r3
 1004 0128 43F00403 		orr	r3, r3, #4
 1005 012c DBB2     		uxtb	r3, r3
ARM GAS  C:\Users\mjphi\AppData\Local\Temp\ccxjZhgg.s 			page 29


 1006 012e 1370     		strb	r3, [r2]
 583:.\Generated_Source\PSoC5/CyLib.c ****             CY_LIB_IMO_48MHZ_VALUE) & ((uint8)(~CY_LIB_IMO_USBCLK_ON_SET));
 584:.\Generated_Source\PSoC5/CyLib.c ****         break;
 1007              		.loc 1 584 0
 1008 0130 27E0     		b	.L82
 1009              	.L79:
 585:.\Generated_Source\PSoC5/CyLib.c **** 
 586:.\Generated_Source\PSoC5/CyLib.c ****     case CY_IMO_FREQ_62MHZ:
 587:.\Generated_Source\PSoC5/CyLib.c ****         CY_LIB_FASTCLK_IMO_CR_REG = ((CY_LIB_FASTCLK_IMO_CR_REG & CY_LIB_FASTCLK_IMO_CR_RANGE_MASK)
 1010              		.loc 1 587 0
 1011 0132 1D4A     		ldr	r2, .L86
 1012 0134 1C4B     		ldr	r3, .L86
 1013 0136 1B78     		ldrb	r3, [r3]
 1014 0138 DBB2     		uxtb	r3, r3
 1015 013a 23F04703 		bic	r3, r3, #71
 1016 013e DBB2     		uxtb	r3, r3
 1017 0140 43F00503 		orr	r3, r3, #5
 1018 0144 DBB2     		uxtb	r3, r3
 1019 0146 1370     		strb	r3, [r2]
 588:.\Generated_Source\PSoC5/CyLib.c ****             CY_LIB_IMO_62MHZ_VALUE) & ((uint8)(~CY_LIB_IMO_USBCLK_ON_SET));
 589:.\Generated_Source\PSoC5/CyLib.c ****         break;
 1020              		.loc 1 589 0
 1021 0148 1BE0     		b	.L82
 1022              	.L80:
 590:.\Generated_Source\PSoC5/CyLib.c **** 
 591:.\Generated_Source\PSoC5/CyLib.c **** #if(CY_PSOC5)
 592:.\Generated_Source\PSoC5/CyLib.c ****     case CY_IMO_FREQ_74MHZ:
 593:.\Generated_Source\PSoC5/CyLib.c ****         CY_LIB_FASTCLK_IMO_CR_REG = ((CY_LIB_FASTCLK_IMO_CR_REG & CY_LIB_FASTCLK_IMO_CR_RANGE_MASK)
 1023              		.loc 1 593 0
 1024 014a 174A     		ldr	r2, .L86
 1025 014c 164B     		ldr	r3, .L86
 1026 014e 1B78     		ldrb	r3, [r3]
 1027 0150 DBB2     		uxtb	r3, r3
 1028 0152 23F04703 		bic	r3, r3, #71
 1029 0156 DBB2     		uxtb	r3, r3
 1030 0158 43F00603 		orr	r3, r3, #6
 1031 015c DBB2     		uxtb	r3, r3
 1032 015e 1370     		strb	r3, [r2]
 594:.\Generated_Source\PSoC5/CyLib.c ****             CY_LIB_IMO_74MHZ_VALUE) & ((uint8)(~CY_LIB_IMO_USBCLK_ON_SET));
 595:.\Generated_Source\PSoC5/CyLib.c ****         break;
 1033              		.loc 1 595 0
 1034 0160 0FE0     		b	.L82
 1035              	.L81:
 596:.\Generated_Source\PSoC5/CyLib.c **** #endif  /* (CY_PSOC5) */
 597:.\Generated_Source\PSoC5/CyLib.c **** 
 598:.\Generated_Source\PSoC5/CyLib.c ****     case CY_IMO_FREQ_USB:
 599:.\Generated_Source\PSoC5/CyLib.c ****         CY_LIB_FASTCLK_IMO_CR_REG = ((CY_LIB_FASTCLK_IMO_CR_REG & CY_LIB_FASTCLK_IMO_CR_RANGE_MASK)
 1036              		.loc 1 599 0
 1037 0162 114A     		ldr	r2, .L86
 1038 0164 104B     		ldr	r3, .L86
 1039 0166 1B78     		ldrb	r3, [r3]
 1040 0168 DBB2     		uxtb	r3, r3
 1041 016a 23F04703 		bic	r3, r3, #71
 1042 016e DBB2     		uxtb	r3, r3
 1043 0170 43F04203 		orr	r3, r3, #66
 1044 0174 DBB2     		uxtb	r3, r3
 1045 0176 1370     		strb	r3, [r2]
ARM GAS  C:\Users\mjphi\AppData\Local\Temp\ccxjZhgg.s 			page 30


 600:.\Generated_Source\PSoC5/CyLib.c ****             CY_LIB_IMO_24MHZ_VALUE) | CY_LIB_IMO_USBCLK_ON_SET;
 601:.\Generated_Source\PSoC5/CyLib.c ****         break;
 1046              		.loc 1 601 0
 1047 0178 03E0     		b	.L82
 1048              	.L72:
 602:.\Generated_Source\PSoC5/CyLib.c **** 
 603:.\Generated_Source\PSoC5/CyLib.c ****     default:
 604:.\Generated_Source\PSoC5/CyLib.c ****         CYASSERT(0u != 0u);
 1049              		.loc 1 604 0
 1050 017a 0020     		movs	r0, #0
 1051 017c FFF7FEFF 		bl	CyHalt
 605:.\Generated_Source\PSoC5/CyLib.c ****         break;
 1052              		.loc 1 605 0
 1053 0180 00BF     		nop
 1054              	.L82:
 606:.\Generated_Source\PSoC5/CyLib.c ****     }
 607:.\Generated_Source\PSoC5/CyLib.c **** 
 608:.\Generated_Source\PSoC5/CyLib.c ****     /* Tu rn onIMO Doubler, if switching to CY_IMO_FREQ_USB */
 609:.\Generated_Source\PSoC5/CyLib.c ****     if (freq == CY_IMO_FREQ_USB)
 1055              		.loc 1 609 0
 1056 0182 FB79     		ldrb	r3, [r7, #7]	@ zero_extendqisi2
 1057 0184 082B     		cmp	r3, #8
 1058 0186 02D1     		bne	.L83
 610:.\Generated_Source\PSoC5/CyLib.c ****     {
 611:.\Generated_Source\PSoC5/CyLib.c ****         CyIMO_EnableDoubler();
 1059              		.loc 1 611 0
 1060 0188 FFF7FEFF 		bl	CyIMO_EnableDoubler
 1061 018c 01E0     		b	.L84
 1062              	.L83:
 612:.\Generated_Source\PSoC5/CyLib.c ****     }
 613:.\Generated_Source\PSoC5/CyLib.c ****     else
 614:.\Generated_Source\PSoC5/CyLib.c ****     {
 615:.\Generated_Source\PSoC5/CyLib.c ****         CyIMO_DisableDoubler();
 1063              		.loc 1 615 0
 1064 018e FFF7FEFF 		bl	CyIMO_DisableDoubler
 1065              	.L84:
 616:.\Generated_Source\PSoC5/CyLib.c ****     }
 617:.\Generated_Source\PSoC5/CyLib.c **** 
 618:.\Generated_Source\PSoC5/CyLib.c ****     if (nextFreq < currentFreq)
 1066              		.loc 1 618 0
 1067 0192 BA7B     		ldrb	r2, [r7, #14]	@ zero_extendqisi2
 1068 0194 FB7B     		ldrb	r3, [r7, #15]	@ zero_extendqisi2
 1069 0196 9A42     		cmp	r2, r3
 1070 0198 03D2     		bcs	.L58
 619:.\Generated_Source\PSoC5/CyLib.c ****     {
 620:.\Generated_Source\PSoC5/CyLib.c ****         /* Set the trim after setting frequency */
 621:.\Generated_Source\PSoC5/CyLib.c ****         CyIMO_SetTrimValue(freq);
 1071              		.loc 1 621 0
 1072 019a FB79     		ldrb	r3, [r7, #7]	@ zero_extendqisi2
 1073 019c 1846     		mov	r0, r3
 1074 019e FFF7FEFF 		bl	CyIMO_SetTrimValue
 1075              	.L58:
 622:.\Generated_Source\PSoC5/CyLib.c ****     }
 623:.\Generated_Source\PSoC5/CyLib.c **** }
 1076              		.loc 1 623 0
 1077 01a2 1037     		adds	r7, r7, #16
 1078              		.cfi_def_cfa_offset 8
ARM GAS  C:\Users\mjphi\AppData\Local\Temp\ccxjZhgg.s 			page 31


 1079 01a4 BD46     		mov	sp, r7
 1080              		.cfi_def_cfa_register 13
 1081              		@ sp needed
 1082 01a6 80BD     		pop	{r7, pc}
 1083              	.L87:
 1084              		.align	2
 1085              	.L86:
 1086 01a8 00420040 		.word	1073758720
 1087              		.cfi_endproc
 1088              	.LFE8:
 1089              		.size	CyIMO_SetFreq, .-CyIMO_SetFreq
 1090              		.section	.text.CyIMO_SetSource,"ax",%progbits
 1091              		.align	2
 1092              		.global	CyIMO_SetSource
 1093              		.thumb
 1094              		.thumb_func
 1095              		.type	CyIMO_SetSource, %function
 1096              	CyIMO_SetSource:
 1097              	.LFB9:
 624:.\Generated_Source\PSoC5/CyLib.c **** 
 625:.\Generated_Source\PSoC5/CyLib.c **** 
 626:.\Generated_Source\PSoC5/CyLib.c **** /*******************************************************************************
 627:.\Generated_Source\PSoC5/CyLib.c **** * Function Name: CyIMO_SetSource
 628:.\Generated_Source\PSoC5/CyLib.c **** ********************************************************************************
 629:.\Generated_Source\PSoC5/CyLib.c **** *
 630:.\Generated_Source\PSoC5/CyLib.c **** * Summary:
 631:.\Generated_Source\PSoC5/CyLib.c **** *  Sets the source of the clock output from the IMO block.
 632:.\Generated_Source\PSoC5/CyLib.c **** *
 633:.\Generated_Source\PSoC5/CyLib.c **** *  The output from the IMO is by default the IMO itself. Optionally the MHz
 634:.\Generated_Source\PSoC5/CyLib.c **** *  Crystal or DSI input can be the source of the IMO output instead.
 635:.\Generated_Source\PSoC5/CyLib.c **** *
 636:.\Generated_Source\PSoC5/CyLib.c **** * Parameters:
 637:.\Generated_Source\PSoC5/CyLib.c **** *   source: CY_IMO_SOURCE_DSI to set the DSI as source.
 638:.\Generated_Source\PSoC5/CyLib.c **** *           CY_IMO_SOURCE_XTAL to set the MHz as source.
 639:.\Generated_Source\PSoC5/CyLib.c **** *           CY_IMO_SOURCE_IMO to set the IMO itself.
 640:.\Generated_Source\PSoC5/CyLib.c **** *
 641:.\Generated_Source\PSoC5/CyLib.c **** * Return:
 642:.\Generated_Source\PSoC5/CyLib.c **** *  None
 643:.\Generated_Source\PSoC5/CyLib.c **** *
 644:.\Generated_Source\PSoC5/CyLib.c **** * Side Effects:
 645:.\Generated_Source\PSoC5/CyLib.c **** *  If this function execution resulted in the CPU clock frequency increasing,
 646:.\Generated_Source\PSoC5/CyLib.c **** *  then the number of clock cycles the cache will wait before it samples data
 647:.\Generated_Source\PSoC5/CyLib.c **** *  coming back from the Flash must be adjusted by calling
 648:.\Generated_Source\PSoC5/CyLib.c **** *  CyFlash_SetWaitCycles() with an appropriate parameter. It can be optionally
 649:.\Generated_Source\PSoC5/CyLib.c **** *  called if the CPU clock frequency is lowered in order to improve the CPU
 650:.\Generated_Source\PSoC5/CyLib.c **** *  performance. See CyFlash_SetWaitCycles() description for more information.
 651:.\Generated_Source\PSoC5/CyLib.c **** *
 652:.\Generated_Source\PSoC5/CyLib.c **** *******************************************************************************/
 653:.\Generated_Source\PSoC5/CyLib.c **** void CyIMO_SetSource(uint8 source) 
 654:.\Generated_Source\PSoC5/CyLib.c **** {
 1098              		.loc 1 654 0
 1099              		.cfi_startproc
 1100              		@ args = 0, pretend = 0, frame = 8
 1101              		@ frame_needed = 1, uses_anonymous_args = 0
 1102 0000 80B5     		push	{r7, lr}
 1103              		.cfi_def_cfa_offset 8
 1104              		.cfi_offset 7, -8
ARM GAS  C:\Users\mjphi\AppData\Local\Temp\ccxjZhgg.s 			page 32


 1105              		.cfi_offset 14, -4
 1106 0002 82B0     		sub	sp, sp, #8
 1107              		.cfi_def_cfa_offset 16
 1108 0004 00AF     		add	r7, sp, #0
 1109              		.cfi_def_cfa_register 7
 1110 0006 0346     		mov	r3, r0
 1111 0008 FB71     		strb	r3, [r7, #7]
 655:.\Generated_Source\PSoC5/CyLib.c ****     switch(source)
 1112              		.loc 1 655 0
 1113 000a FB79     		ldrb	r3, [r7, #7]	@ zero_extendqisi2
 1114 000c 012B     		cmp	r3, #1
 1115 000e 17D0     		beq	.L90
 1116 0010 022B     		cmp	r3, #2
 1117 0012 02D0     		beq	.L91
 1118 0014 002B     		cmp	r3, #0
 1119 0016 26D0     		beq	.L92
 1120 0018 2EE0     		b	.L94
 1121              	.L91:
 656:.\Generated_Source\PSoC5/CyLib.c ****     {
 657:.\Generated_Source\PSoC5/CyLib.c ****     case CY_IMO_SOURCE_DSI:
 658:.\Generated_Source\PSoC5/CyLib.c ****         CY_LIB_CLKDIST_CR_REG     &= ((uint8)(~CY_LIB_CLKDIST_CR_IMO2X));
 1122              		.loc 1 658 0
 1123 001a 4FF04022 		mov	r2, #1073758208
 1124 001e 4FF04023 		mov	r3, #1073758208
 1125 0022 1B78     		ldrb	r3, [r3]
 1126 0024 DBB2     		uxtb	r3, r3
 1127 0026 23F04003 		bic	r3, r3, #64
 1128 002a DBB2     		uxtb	r3, r3
 1129 002c 1370     		strb	r3, [r2]
 659:.\Generated_Source\PSoC5/CyLib.c ****         CY_LIB_FASTCLK_IMO_CR_REG |= CY_LIB_FASTCLK_IMO_IMO;
 1130              		.loc 1 659 0
 1131 002e 164A     		ldr	r2, .L95
 1132 0030 154B     		ldr	r3, .L95
 1133 0032 1B78     		ldrb	r3, [r3]
 1134 0034 DBB2     		uxtb	r3, r3
 1135 0036 43F02003 		orr	r3, r3, #32
 1136 003a DBB2     		uxtb	r3, r3
 1137 003c 1370     		strb	r3, [r2]
 660:.\Generated_Source\PSoC5/CyLib.c ****         break;
 1138              		.loc 1 660 0
 1139 003e 1FE0     		b	.L88
 1140              	.L90:
 661:.\Generated_Source\PSoC5/CyLib.c **** 
 662:.\Generated_Source\PSoC5/CyLib.c ****     case CY_IMO_SOURCE_XTAL:
 663:.\Generated_Source\PSoC5/CyLib.c ****         CY_LIB_CLKDIST_CR_REG     |= CY_LIB_CLKDIST_CR_IMO2X;
 1141              		.loc 1 663 0
 1142 0040 4FF04022 		mov	r2, #1073758208
 1143 0044 4FF04023 		mov	r3, #1073758208
 1144 0048 1B78     		ldrb	r3, [r3]
 1145 004a DBB2     		uxtb	r3, r3
 1146 004c 43F04003 		orr	r3, r3, #64
 1147 0050 DBB2     		uxtb	r3, r3
 1148 0052 1370     		strb	r3, [r2]
 664:.\Generated_Source\PSoC5/CyLib.c ****         CY_LIB_FASTCLK_IMO_CR_REG |= CY_LIB_FASTCLK_IMO_IMO;
 1149              		.loc 1 664 0
 1150 0054 0C4A     		ldr	r2, .L95
 1151 0056 0C4B     		ldr	r3, .L95
ARM GAS  C:\Users\mjphi\AppData\Local\Temp\ccxjZhgg.s 			page 33


 1152 0058 1B78     		ldrb	r3, [r3]
 1153 005a DBB2     		uxtb	r3, r3
 1154 005c 43F02003 		orr	r3, r3, #32
 1155 0060 DBB2     		uxtb	r3, r3
 1156 0062 1370     		strb	r3, [r2]
 665:.\Generated_Source\PSoC5/CyLib.c ****         break;
 1157              		.loc 1 665 0
 1158 0064 0CE0     		b	.L88
 1159              	.L92:
 666:.\Generated_Source\PSoC5/CyLib.c **** 
 667:.\Generated_Source\PSoC5/CyLib.c ****     case CY_IMO_SOURCE_IMO:
 668:.\Generated_Source\PSoC5/CyLib.c ****         CY_LIB_FASTCLK_IMO_CR_REG &= ((uint8)(~CY_LIB_FASTCLK_IMO_IMO));
 1160              		.loc 1 668 0
 1161 0066 084A     		ldr	r2, .L95
 1162 0068 074B     		ldr	r3, .L95
 1163 006a 1B78     		ldrb	r3, [r3]
 1164 006c DBB2     		uxtb	r3, r3
 1165 006e 23F02003 		bic	r3, r3, #32
 1166 0072 DBB2     		uxtb	r3, r3
 1167 0074 1370     		strb	r3, [r2]
 669:.\Generated_Source\PSoC5/CyLib.c ****         break;
 1168              		.loc 1 669 0
 1169 0076 03E0     		b	.L88
 1170              	.L94:
 670:.\Generated_Source\PSoC5/CyLib.c **** 
 671:.\Generated_Source\PSoC5/CyLib.c ****     default:
 672:.\Generated_Source\PSoC5/CyLib.c ****         /* Incorrect source value */
 673:.\Generated_Source\PSoC5/CyLib.c ****         CYASSERT(0u != 0u);
 1171              		.loc 1 673 0
 1172 0078 0020     		movs	r0, #0
 1173 007a FFF7FEFF 		bl	CyHalt
 674:.\Generated_Source\PSoC5/CyLib.c ****         break;
 1174              		.loc 1 674 0
 1175 007e 00BF     		nop
 1176              	.L88:
 675:.\Generated_Source\PSoC5/CyLib.c ****     }
 676:.\Generated_Source\PSoC5/CyLib.c **** }
 1177              		.loc 1 676 0
 1178 0080 0837     		adds	r7, r7, #8
 1179              		.cfi_def_cfa_offset 8
 1180 0082 BD46     		mov	sp, r7
 1181              		.cfi_def_cfa_register 13
 1182              		@ sp needed
 1183 0084 80BD     		pop	{r7, pc}
 1184              	.L96:
 1185 0086 00BF     		.align	2
 1186              	.L95:
 1187 0088 00420040 		.word	1073758720
 1188              		.cfi_endproc
 1189              	.LFE9:
 1190              		.size	CyIMO_SetSource, .-CyIMO_SetSource
 1191              		.section	.text.CyIMO_EnableDoubler,"ax",%progbits
 1192              		.align	2
 1193              		.global	CyIMO_EnableDoubler
 1194              		.thumb
 1195              		.thumb_func
 1196              		.type	CyIMO_EnableDoubler, %function
ARM GAS  C:\Users\mjphi\AppData\Local\Temp\ccxjZhgg.s 			page 34


 1197              	CyIMO_EnableDoubler:
 1198              	.LFB10:
 677:.\Generated_Source\PSoC5/CyLib.c **** 
 678:.\Generated_Source\PSoC5/CyLib.c **** 
 679:.\Generated_Source\PSoC5/CyLib.c **** /*******************************************************************************
 680:.\Generated_Source\PSoC5/CyLib.c **** * Function Name: CyIMO_EnableDoubler
 681:.\Generated_Source\PSoC5/CyLib.c **** ********************************************************************************
 682:.\Generated_Source\PSoC5/CyLib.c **** *
 683:.\Generated_Source\PSoC5/CyLib.c **** * Summary:
 684:.\Generated_Source\PSoC5/CyLib.c **** *  Enables the IMO doubler.  The 2x frequency clock is used to convert a 24 MHz
 685:.\Generated_Source\PSoC5/CyLib.c **** *  input to a 48 MHz output for use by the USB block.
 686:.\Generated_Source\PSoC5/CyLib.c **** *
 687:.\Generated_Source\PSoC5/CyLib.c **** * Parameters:
 688:.\Generated_Source\PSoC5/CyLib.c **** *  None
 689:.\Generated_Source\PSoC5/CyLib.c **** *
 690:.\Generated_Source\PSoC5/CyLib.c **** * Return:
 691:.\Generated_Source\PSoC5/CyLib.c **** *  None
 692:.\Generated_Source\PSoC5/CyLib.c **** *
 693:.\Generated_Source\PSoC5/CyLib.c **** *******************************************************************************/
 694:.\Generated_Source\PSoC5/CyLib.c **** void CyIMO_EnableDoubler(void) 
 695:.\Generated_Source\PSoC5/CyLib.c **** {
 1199              		.loc 1 695 0
 1200              		.cfi_startproc
 1201              		@ args = 0, pretend = 0, frame = 0
 1202              		@ frame_needed = 1, uses_anonymous_args = 0
 1203              		@ link register save eliminated.
 1204 0000 80B4     		push	{r7}
 1205              		.cfi_def_cfa_offset 4
 1206              		.cfi_offset 7, -4
 1207 0002 00AF     		add	r7, sp, #0
 1208              		.cfi_def_cfa_register 7
 696:.\Generated_Source\PSoC5/CyLib.c ****     /* Set FASTCLK_IMO_CR_PTR regigster's 4th bit */
 697:.\Generated_Source\PSoC5/CyLib.c ****     CY_LIB_FASTCLK_IMO_CR_REG |= CY_LIB_FASTCLK_IMO_DOUBLER;
 1209              		.loc 1 697 0
 1210 0004 054A     		ldr	r2, .L98
 1211 0006 054B     		ldr	r3, .L98
 1212 0008 1B78     		ldrb	r3, [r3]
 1213 000a DBB2     		uxtb	r3, r3
 1214 000c 43F01003 		orr	r3, r3, #16
 1215 0010 DBB2     		uxtb	r3, r3
 1216 0012 1370     		strb	r3, [r2]
 698:.\Generated_Source\PSoC5/CyLib.c **** }
 1217              		.loc 1 698 0
 1218 0014 BD46     		mov	sp, r7
 1219              		.cfi_def_cfa_register 13
 1220              		@ sp needed
 1221 0016 5DF8047B 		ldr	r7, [sp], #4
 1222              		.cfi_restore 7
 1223              		.cfi_def_cfa_offset 0
 1224 001a 7047     		bx	lr
 1225              	.L99:
 1226              		.align	2
 1227              	.L98:
 1228 001c 00420040 		.word	1073758720
 1229              		.cfi_endproc
 1230              	.LFE10:
 1231              		.size	CyIMO_EnableDoubler, .-CyIMO_EnableDoubler
ARM GAS  C:\Users\mjphi\AppData\Local\Temp\ccxjZhgg.s 			page 35


 1232              		.section	.text.CyIMO_DisableDoubler,"ax",%progbits
 1233              		.align	2
 1234              		.global	CyIMO_DisableDoubler
 1235              		.thumb
 1236              		.thumb_func
 1237              		.type	CyIMO_DisableDoubler, %function
 1238              	CyIMO_DisableDoubler:
 1239              	.LFB11:
 699:.\Generated_Source\PSoC5/CyLib.c **** 
 700:.\Generated_Source\PSoC5/CyLib.c **** 
 701:.\Generated_Source\PSoC5/CyLib.c **** /*******************************************************************************
 702:.\Generated_Source\PSoC5/CyLib.c **** * Function Name: CyIMO_DisableDoubler
 703:.\Generated_Source\PSoC5/CyLib.c **** ********************************************************************************
 704:.\Generated_Source\PSoC5/CyLib.c **** *
 705:.\Generated_Source\PSoC5/CyLib.c **** * Summary:
 706:.\Generated_Source\PSoC5/CyLib.c **** *   Disables the IMO doubler.
 707:.\Generated_Source\PSoC5/CyLib.c **** *
 708:.\Generated_Source\PSoC5/CyLib.c **** * Parameters:
 709:.\Generated_Source\PSoC5/CyLib.c **** *  None
 710:.\Generated_Source\PSoC5/CyLib.c **** *
 711:.\Generated_Source\PSoC5/CyLib.c **** * Return:
 712:.\Generated_Source\PSoC5/CyLib.c **** *  None
 713:.\Generated_Source\PSoC5/CyLib.c **** *
 714:.\Generated_Source\PSoC5/CyLib.c **** *******************************************************************************/
 715:.\Generated_Source\PSoC5/CyLib.c **** void CyIMO_DisableDoubler(void) 
 716:.\Generated_Source\PSoC5/CyLib.c **** {
 1240              		.loc 1 716 0
 1241              		.cfi_startproc
 1242              		@ args = 0, pretend = 0, frame = 0
 1243              		@ frame_needed = 1, uses_anonymous_args = 0
 1244              		@ link register save eliminated.
 1245 0000 80B4     		push	{r7}
 1246              		.cfi_def_cfa_offset 4
 1247              		.cfi_offset 7, -4
 1248 0002 00AF     		add	r7, sp, #0
 1249              		.cfi_def_cfa_register 7
 717:.\Generated_Source\PSoC5/CyLib.c ****     CY_LIB_FASTCLK_IMO_CR_REG &= ((uint8)(~CY_LIB_FASTCLK_IMO_DOUBLER));
 1250              		.loc 1 717 0
 1251 0004 054A     		ldr	r2, .L101
 1252 0006 054B     		ldr	r3, .L101
 1253 0008 1B78     		ldrb	r3, [r3]
 1254 000a DBB2     		uxtb	r3, r3
 1255 000c 23F01003 		bic	r3, r3, #16
 1256 0010 DBB2     		uxtb	r3, r3
 1257 0012 1370     		strb	r3, [r2]
 718:.\Generated_Source\PSoC5/CyLib.c **** }
 1258              		.loc 1 718 0
 1259 0014 BD46     		mov	sp, r7
 1260              		.cfi_def_cfa_register 13
 1261              		@ sp needed
 1262 0016 5DF8047B 		ldr	r7, [sp], #4
 1263              		.cfi_restore 7
 1264              		.cfi_def_cfa_offset 0
 1265 001a 7047     		bx	lr
 1266              	.L102:
 1267              		.align	2
 1268              	.L101:
ARM GAS  C:\Users\mjphi\AppData\Local\Temp\ccxjZhgg.s 			page 36


 1269 001c 00420040 		.word	1073758720
 1270              		.cfi_endproc
 1271              	.LFE11:
 1272              		.size	CyIMO_DisableDoubler, .-CyIMO_DisableDoubler
 1273              		.section	.text.CyMasterClk_SetSource,"ax",%progbits
 1274              		.align	2
 1275              		.global	CyMasterClk_SetSource
 1276              		.thumb
 1277              		.thumb_func
 1278              		.type	CyMasterClk_SetSource, %function
 1279              	CyMasterClk_SetSource:
 1280              	.LFB12:
 719:.\Generated_Source\PSoC5/CyLib.c **** 
 720:.\Generated_Source\PSoC5/CyLib.c **** 
 721:.\Generated_Source\PSoC5/CyLib.c **** /*******************************************************************************
 722:.\Generated_Source\PSoC5/CyLib.c **** * Function Name: CyMasterClk_SetSource
 723:.\Generated_Source\PSoC5/CyLib.c **** ********************************************************************************
 724:.\Generated_Source\PSoC5/CyLib.c **** *
 725:.\Generated_Source\PSoC5/CyLib.c **** * Summary:
 726:.\Generated_Source\PSoC5/CyLib.c **** *  Sets the source of the master clock.
 727:.\Generated_Source\PSoC5/CyLib.c **** *
 728:.\Generated_Source\PSoC5/CyLib.c **** * Parameters:
 729:.\Generated_Source\PSoC5/CyLib.c **** *   source: One of the four available Master clock sources.
 730:.\Generated_Source\PSoC5/CyLib.c **** *     CY_MASTER_SOURCE_IMO
 731:.\Generated_Source\PSoC5/CyLib.c **** *     CY_MASTER_SOURCE_PLL
 732:.\Generated_Source\PSoC5/CyLib.c **** *     CY_MASTER_SOURCE_XTAL
 733:.\Generated_Source\PSoC5/CyLib.c **** *     CY_MASTER_SOURCE_DSI
 734:.\Generated_Source\PSoC5/CyLib.c **** *
 735:.\Generated_Source\PSoC5/CyLib.c **** * Return:
 736:.\Generated_Source\PSoC5/CyLib.c **** *  None
 737:.\Generated_Source\PSoC5/CyLib.c **** *
 738:.\Generated_Source\PSoC5/CyLib.c **** * Side Effects:
 739:.\Generated_Source\PSoC5/CyLib.c **** *  The current source and the new source must both be running and stable before
 740:.\Generated_Source\PSoC5/CyLib.c **** *  calling this function.
 741:.\Generated_Source\PSoC5/CyLib.c **** *
 742:.\Generated_Source\PSoC5/CyLib.c **** *  If this function execution resulted in the CPU clock frequency increasing,
 743:.\Generated_Source\PSoC5/CyLib.c **** *  then the number of clock cycles the cache will wait before it samples data
 744:.\Generated_Source\PSoC5/CyLib.c **** *  coming back from the Flash must be adjusted by calling
 745:.\Generated_Source\PSoC5/CyLib.c **** *  CyFlash_SetWaitCycles() with an appropriate parameter. It can be optionally
 746:.\Generated_Source\PSoC5/CyLib.c **** *  called if the CPU clock frequency is lowered in order to improve the CPU
 747:.\Generated_Source\PSoC5/CyLib.c **** *  performance. See CyFlash_SetWaitCycles() description for more information.
 748:.\Generated_Source\PSoC5/CyLib.c **** *
 749:.\Generated_Source\PSoC5/CyLib.c **** *******************************************************************************/
 750:.\Generated_Source\PSoC5/CyLib.c **** void CyMasterClk_SetSource(uint8 source) 
 751:.\Generated_Source\PSoC5/CyLib.c **** {
 1281              		.loc 1 751 0
 1282              		.cfi_startproc
 1283              		@ args = 0, pretend = 0, frame = 8
 1284              		@ frame_needed = 1, uses_anonymous_args = 0
 1285              		@ link register save eliminated.
 1286 0000 80B4     		push	{r7}
 1287              		.cfi_def_cfa_offset 4
 1288              		.cfi_offset 7, -4
 1289 0002 83B0     		sub	sp, sp, #12
 1290              		.cfi_def_cfa_offset 16
 1291 0004 00AF     		add	r7, sp, #0
 1292              		.cfi_def_cfa_register 7
ARM GAS  C:\Users\mjphi\AppData\Local\Temp\ccxjZhgg.s 			page 37


 1293 0006 0346     		mov	r3, r0
 1294 0008 FB71     		strb	r3, [r7, #7]
 752:.\Generated_Source\PSoC5/CyLib.c ****     CY_LIB_CLKDIST_MSTR1_REG = (CY_LIB_CLKDIST_MSTR1_REG & MASTER_CLK_SRC_CLEAR) |
 1295              		.loc 1 752 0
 1296 000a 0949     		ldr	r1, .L104
 1297 000c 084B     		ldr	r3, .L104
 1298 000e 1B78     		ldrb	r3, [r3]
 1299 0010 DBB2     		uxtb	r3, r3
 1300 0012 23F00303 		bic	r3, r3, #3
 1301 0016 DAB2     		uxtb	r2, r3
 1302 0018 FB79     		ldrb	r3, [r7, #7]
 1303 001a 03F00303 		and	r3, r3, #3
 1304 001e DBB2     		uxtb	r3, r3
 1305 0020 1343     		orrs	r3, r3, r2
 1306 0022 DBB2     		uxtb	r3, r3
 1307 0024 0B70     		strb	r3, [r1]
 753:.\Generated_Source\PSoC5/CyLib.c ****                                 (source & ((uint8)(~MASTER_CLK_SRC_CLEAR)));
 754:.\Generated_Source\PSoC5/CyLib.c **** }
 1308              		.loc 1 754 0
 1309 0026 0C37     		adds	r7, r7, #12
 1310              		.cfi_def_cfa_offset 4
 1311 0028 BD46     		mov	sp, r7
 1312              		.cfi_def_cfa_register 13
 1313              		@ sp needed
 1314 002a 5DF8047B 		ldr	r7, [sp], #4
 1315              		.cfi_restore 7
 1316              		.cfi_def_cfa_offset 0
 1317 002e 7047     		bx	lr
 1318              	.L105:
 1319              		.align	2
 1320              	.L104:
 1321 0030 05400040 		.word	1073758213
 1322              		.cfi_endproc
 1323              	.LFE12:
 1324              		.size	CyMasterClk_SetSource, .-CyMasterClk_SetSource
 1325              		.section	.text.CyMasterClk_SetDivider,"ax",%progbits
 1326              		.align	2
 1327              		.global	CyMasterClk_SetDivider
 1328              		.thumb
 1329              		.thumb_func
 1330              		.type	CyMasterClk_SetDivider, %function
 1331              	CyMasterClk_SetDivider:
 1332              	.LFB13:
 755:.\Generated_Source\PSoC5/CyLib.c **** 
 756:.\Generated_Source\PSoC5/CyLib.c **** 
 757:.\Generated_Source\PSoC5/CyLib.c **** /*******************************************************************************
 758:.\Generated_Source\PSoC5/CyLib.c **** * Function Name: CyMasterClk_SetDivider
 759:.\Generated_Source\PSoC5/CyLib.c **** ********************************************************************************
 760:.\Generated_Source\PSoC5/CyLib.c **** *
 761:.\Generated_Source\PSoC5/CyLib.c **** * Summary:
 762:.\Generated_Source\PSoC5/CyLib.c **** *  Sets the divider value used to generate Master Clock.
 763:.\Generated_Source\PSoC5/CyLib.c **** *
 764:.\Generated_Source\PSoC5/CyLib.c **** * Parameters:
 765:.\Generated_Source\PSoC5/CyLib.c **** *  uint8 divider:
 766:.\Generated_Source\PSoC5/CyLib.c **** *   The valid range is [0-255]. The clock will be divided by this value + 1.
 767:.\Generated_Source\PSoC5/CyLib.c **** *   For example to divide this parameter by two should be set to 1.
 768:.\Generated_Source\PSoC5/CyLib.c **** *
ARM GAS  C:\Users\mjphi\AppData\Local\Temp\ccxjZhgg.s 			page 38


 769:.\Generated_Source\PSoC5/CyLib.c **** * Return:
 770:.\Generated_Source\PSoC5/CyLib.c **** *  None
 771:.\Generated_Source\PSoC5/CyLib.c **** *
 772:.\Generated_Source\PSoC5/CyLib.c **** * Side Effects:
 773:.\Generated_Source\PSoC5/CyLib.c **** *  If this function execution resulted in the CPU clock frequency increasing,
 774:.\Generated_Source\PSoC5/CyLib.c **** *  then the number of clock cycles the cache will wait before it samples data
 775:.\Generated_Source\PSoC5/CyLib.c **** *  coming back from the Flash must be adjusted by calling
 776:.\Generated_Source\PSoC5/CyLib.c **** *  CyFlash_SetWaitCycles() with an appropriate parameter. It can be optionally
 777:.\Generated_Source\PSoC5/CyLib.c **** *  called if the CPU clock frequency is lowered in order to improve the CPU
 778:.\Generated_Source\PSoC5/CyLib.c **** *  performance. See CyFlash_SetWaitCycles() description for more information.
 779:.\Generated_Source\PSoC5/CyLib.c **** *
 780:.\Generated_Source\PSoC5/CyLib.c **** *  When changing the Master or Bus clock divider value from div-by-n to div-by-1
 781:.\Generated_Source\PSoC5/CyLib.c **** *  the first clock cycle output after the div-by-1 can be up to 4 ns shorter
 782:.\Generated_Source\PSoC5/CyLib.c **** *  than the final/expected div-by-1 period.
 783:.\Generated_Source\PSoC5/CyLib.c **** *
 784:.\Generated_Source\PSoC5/CyLib.c **** *******************************************************************************/
 785:.\Generated_Source\PSoC5/CyLib.c **** void CyMasterClk_SetDivider(uint8 divider) 
 786:.\Generated_Source\PSoC5/CyLib.c **** {
 1333              		.loc 1 786 0
 1334              		.cfi_startproc
 1335              		@ args = 0, pretend = 0, frame = 8
 1336              		@ frame_needed = 1, uses_anonymous_args = 0
 1337              		@ link register save eliminated.
 1338 0000 80B4     		push	{r7}
 1339              		.cfi_def_cfa_offset 4
 1340              		.cfi_offset 7, -4
 1341 0002 83B0     		sub	sp, sp, #12
 1342              		.cfi_def_cfa_offset 16
 1343 0004 00AF     		add	r7, sp, #0
 1344              		.cfi_def_cfa_register 7
 1345 0006 0346     		mov	r3, r0
 1346 0008 FB71     		strb	r3, [r7, #7]
 787:.\Generated_Source\PSoC5/CyLib.c ****     CY_LIB_CLKDIST_MSTR0_REG = divider;
 1347              		.loc 1 787 0
 1348 000a 044A     		ldr	r2, .L107
 1349 000c FB79     		ldrb	r3, [r7, #7]
 1350 000e 1370     		strb	r3, [r2]
 788:.\Generated_Source\PSoC5/CyLib.c **** }
 1351              		.loc 1 788 0
 1352 0010 0C37     		adds	r7, r7, #12
 1353              		.cfi_def_cfa_offset 4
 1354 0012 BD46     		mov	sp, r7
 1355              		.cfi_def_cfa_register 13
 1356              		@ sp needed
 1357 0014 5DF8047B 		ldr	r7, [sp], #4
 1358              		.cfi_restore 7
 1359              		.cfi_def_cfa_offset 0
 1360 0018 7047     		bx	lr
 1361              	.L108:
 1362 001a 00BF     		.align	2
 1363              	.L107:
 1364 001c 04400040 		.word	1073758212
 1365              		.cfi_endproc
 1366              	.LFE13:
 1367              		.size	CyMasterClk_SetDivider, .-CyMasterClk_SetDivider
 1368              		.section	.text.CyBusClk_Internal_SetDivider,"ax",%progbits
 1369              		.align	2
ARM GAS  C:\Users\mjphi\AppData\Local\Temp\ccxjZhgg.s 			page 39


 1370              		.thumb
 1371              		.thumb_func
 1372              		.type	CyBusClk_Internal_SetDivider, %function
 1373              	CyBusClk_Internal_SetDivider:
 1374              	.LFB14:
 789:.\Generated_Source\PSoC5/CyLib.c **** 
 790:.\Generated_Source\PSoC5/CyLib.c **** 
 791:.\Generated_Source\PSoC5/CyLib.c **** /*******************************************************************************
 792:.\Generated_Source\PSoC5/CyLib.c **** * Function Name: CyBusClk_Internal_SetDivider
 793:.\Generated_Source\PSoC5/CyLib.c **** ********************************************************************************
 794:.\Generated_Source\PSoC5/CyLib.c **** *
 795:.\Generated_Source\PSoC5/CyLib.c **** * Summary:
 796:.\Generated_Source\PSoC5/CyLib.c **** *  The function used by CyBusClk_SetDivider(). For internal use only.
 797:.\Generated_Source\PSoC5/CyLib.c **** *
 798:.\Generated_Source\PSoC5/CyLib.c **** * Parameters:
 799:.\Generated_Source\PSoC5/CyLib.c **** *   divider: Valid range [0-65535].
 800:.\Generated_Source\PSoC5/CyLib.c **** *   The clock will be divided by this value + 1.
 801:.\Generated_Source\PSoC5/CyLib.c **** *   For example, to divide this parameter by two should be set to 1.
 802:.\Generated_Source\PSoC5/CyLib.c **** *
 803:.\Generated_Source\PSoC5/CyLib.c **** * Return:
 804:.\Generated_Source\PSoC5/CyLib.c **** *  None
 805:.\Generated_Source\PSoC5/CyLib.c **** *
 806:.\Generated_Source\PSoC5/CyLib.c **** *******************************************************************************/
 807:.\Generated_Source\PSoC5/CyLib.c **** static void CyBusClk_Internal_SetDivider(uint16 divider)
 808:.\Generated_Source\PSoC5/CyLib.c **** {
 1375              		.loc 1 808 0
 1376              		.cfi_startproc
 1377              		@ args = 0, pretend = 0, frame = 8
 1378              		@ frame_needed = 1, uses_anonymous_args = 0
 1379              		@ link register save eliminated.
 1380 0000 80B4     		push	{r7}
 1381              		.cfi_def_cfa_offset 4
 1382              		.cfi_offset 7, -4
 1383 0002 83B0     		sub	sp, sp, #12
 1384              		.cfi_def_cfa_offset 16
 1385 0004 00AF     		add	r7, sp, #0
 1386              		.cfi_def_cfa_register 7
 1387 0006 0346     		mov	r3, r0
 1388 0008 FB80     		strh	r3, [r7, #6]	@ movhi
 809:.\Generated_Source\PSoC5/CyLib.c ****     /* Mask bits to enable shadow loads  */
 810:.\Generated_Source\PSoC5/CyLib.c ****     CY_LIB_CLKDIST_AMASK_REG &= CY_LIB_CLKDIST_AMASK_MASK;
 1389              		.loc 1 810 0
 1390 000a 154A     		ldr	r2, .L110
 1391 000c 144B     		ldr	r3, .L110
 1392 000e 1B78     		ldrb	r3, [r3]
 1393 0010 DBB2     		uxtb	r3, r3
 1394 0012 23F00F03 		bic	r3, r3, #15
 1395 0016 DBB2     		uxtb	r3, r3
 1396 0018 1370     		strb	r3, [r2]
 811:.\Generated_Source\PSoC5/CyLib.c ****     CY_LIB_CLKDIST_DMASK_REG  = CY_LIB_CLKDIST_DMASK_MASK;
 1397              		.loc 1 811 0
 1398 001a 124B     		ldr	r3, .L110+4
 1399 001c 0022     		movs	r2, #0
 1400 001e 1A70     		strb	r2, [r3]
 812:.\Generated_Source\PSoC5/CyLib.c **** 
 813:.\Generated_Source\PSoC5/CyLib.c ****     /* Enable mask bits to enable shadow loads */
 814:.\Generated_Source\PSoC5/CyLib.c ****     CY_LIB_CLKDIST_BCFG2_REG |= CY_LIB_CLKDIST_BCFG2_MASK;
ARM GAS  C:\Users\mjphi\AppData\Local\Temp\ccxjZhgg.s 			page 40


 1401              		.loc 1 814 0
 1402 0020 114A     		ldr	r2, .L110+8
 1403 0022 114B     		ldr	r3, .L110+8
 1404 0024 1B78     		ldrb	r3, [r3]
 1405 0026 DBB2     		uxtb	r3, r3
 1406 0028 63F07F03 		orn	r3, r3, #127
 1407 002c DBB2     		uxtb	r3, r3
 1408 002e 1370     		strb	r3, [r2]
 815:.\Generated_Source\PSoC5/CyLib.c **** 
 816:.\Generated_Source\PSoC5/CyLib.c ****     /* Update Shadow Divider Value Register with new divider */
 817:.\Generated_Source\PSoC5/CyLib.c ****     CY_LIB_CLKDIST_WRK_LSB_REG = LO8(divider);
 1409              		.loc 1 817 0
 1410 0030 0E4B     		ldr	r3, .L110+12
 1411 0032 FA88     		ldrh	r2, [r7, #6]	@ movhi
 1412 0034 D2B2     		uxtb	r2, r2
 1413 0036 1A70     		strb	r2, [r3]
 818:.\Generated_Source\PSoC5/CyLib.c ****     CY_LIB_CLKDIST_WRK_MSB_REG = HI8(divider);
 1414              		.loc 1 818 0
 1415 0038 0D4A     		ldr	r2, .L110+16
 1416 003a FB88     		ldrh	r3, [r7, #6]
 1417 003c 1B0A     		lsrs	r3, r3, #8
 1418 003e 9BB2     		uxth	r3, r3
 1419 0040 DBB2     		uxtb	r3, r3
 1420 0042 1370     		strb	r3, [r2]
 819:.\Generated_Source\PSoC5/CyLib.c **** 
 820:.\Generated_Source\PSoC5/CyLib.c **** 
 821:.\Generated_Source\PSoC5/CyLib.c ****     /***************************************************************************
 822:.\Generated_Source\PSoC5/CyLib.c ****     * Copy shadow value defined in Shadow Divider Value Register
 823:.\Generated_Source\PSoC5/CyLib.c ****     * (CY_LIB_CLKDIST_WRK_LSB_REG and CY_LIB_CLKDIST_WRK_MSB_REG) to all
 824:.\Generated_Source\PSoC5/CyLib.c ****     * dividers selected in Analog and Digital Clock Mask Registers
 825:.\Generated_Source\PSoC5/CyLib.c ****     * (CY_LIB_CLKDIST_AMASK_REG and CY_LIB_CLKDIST_DMASK_REG).
 826:.\Generated_Source\PSoC5/CyLib.c ****     ***************************************************************************/
 827:.\Generated_Source\PSoC5/CyLib.c ****     CY_LIB_CLKDIST_LD_REG |= CY_LIB_CLKDIST_LD_LOAD;
 1421              		.loc 1 827 0
 1422 0044 0B4A     		ldr	r2, .L110+20
 1423 0046 0B4B     		ldr	r3, .L110+20
 1424 0048 1B78     		ldrb	r3, [r3]
 1425 004a DBB2     		uxtb	r3, r3
 1426 004c 43F00103 		orr	r3, r3, #1
 1427 0050 DBB2     		uxtb	r3, r3
 1428 0052 1370     		strb	r3, [r2]
 828:.\Generated_Source\PSoC5/CyLib.c **** }
 1429              		.loc 1 828 0
 1430 0054 0C37     		adds	r7, r7, #12
 1431              		.cfi_def_cfa_offset 4
 1432 0056 BD46     		mov	sp, r7
 1433              		.cfi_def_cfa_register 13
 1434              		@ sp needed
 1435 0058 5DF8047B 		ldr	r7, [sp], #4
 1436              		.cfi_restore 7
 1437              		.cfi_def_cfa_offset 0
 1438 005c 7047     		bx	lr
 1439              	.L111:
 1440 005e 00BF     		.align	2
 1441              	.L110:
 1442 0060 14400040 		.word	1073758228
 1443 0064 10400040 		.word	1073758224
ARM GAS  C:\Users\mjphi\AppData\Local\Temp\ccxjZhgg.s 			page 41


 1444 0068 08400040 		.word	1073758216
 1445 006c 02400040 		.word	1073758210
 1446 0070 03400040 		.word	1073758211
 1447 0074 01400040 		.word	1073758209
 1448              		.cfi_endproc
 1449              	.LFE14:
 1450              		.size	CyBusClk_Internal_SetDivider, .-CyBusClk_Internal_SetDivider
 1451              		.section	.text.CyBusClk_SetDivider,"ax",%progbits
 1452              		.align	2
 1453              		.global	CyBusClk_SetDivider
 1454              		.thumb
 1455              		.thumb_func
 1456              		.type	CyBusClk_SetDivider, %function
 1457              	CyBusClk_SetDivider:
 1458              	.LFB15:
 829:.\Generated_Source\PSoC5/CyLib.c **** 
 830:.\Generated_Source\PSoC5/CyLib.c **** 
 831:.\Generated_Source\PSoC5/CyLib.c **** /*******************************************************************************
 832:.\Generated_Source\PSoC5/CyLib.c **** * Function Name: CyBusClk_SetDivider
 833:.\Generated_Source\PSoC5/CyLib.c **** ********************************************************************************
 834:.\Generated_Source\PSoC5/CyLib.c **** *
 835:.\Generated_Source\PSoC5/CyLib.c **** * Summary:
 836:.\Generated_Source\PSoC5/CyLib.c **** *  Sets the divider value used to generate the Bus Clock.
 837:.\Generated_Source\PSoC5/CyLib.c **** *
 838:.\Generated_Source\PSoC5/CyLib.c **** * Parameters:
 839:.\Generated_Source\PSoC5/CyLib.c **** *  divider: Valid range [0-65535]. The clock will be divided by this value + 1.
 840:.\Generated_Source\PSoC5/CyLib.c **** *  For example, to divide this parameter by two should be set to 1.
 841:.\Generated_Source\PSoC5/CyLib.c **** *
 842:.\Generated_Source\PSoC5/CyLib.c **** * Return:
 843:.\Generated_Source\PSoC5/CyLib.c **** *  None
 844:.\Generated_Source\PSoC5/CyLib.c **** *
 845:.\Generated_Source\PSoC5/CyLib.c **** * Side Effects:
 846:.\Generated_Source\PSoC5/CyLib.c **** *  If this function execution resulted in the CPU clock frequency increasing,
 847:.\Generated_Source\PSoC5/CyLib.c **** *  then the number of clock cycles the cache will wait before it samples data
 848:.\Generated_Source\PSoC5/CyLib.c **** *  coming back from the Flash must be adjusted by calling
 849:.\Generated_Source\PSoC5/CyLib.c **** *  CyFlash_SetWaitCycles() with an appropriate parameter. It can be optionally
 850:.\Generated_Source\PSoC5/CyLib.c **** *  called if the CPU clock frequency is lowered in order to improve the CPU
 851:.\Generated_Source\PSoC5/CyLib.c **** *  performance. See CyFlash_SetWaitCycles() description for more information.
 852:.\Generated_Source\PSoC5/CyLib.c **** *
 853:.\Generated_Source\PSoC5/CyLib.c **** *******************************************************************************/
 854:.\Generated_Source\PSoC5/CyLib.c **** void CyBusClk_SetDivider(uint16 divider) 
 855:.\Generated_Source\PSoC5/CyLib.c **** {
 1459              		.loc 1 855 0
 1460              		.cfi_startproc
 1461              		@ args = 0, pretend = 0, frame = 16
 1462              		@ frame_needed = 1, uses_anonymous_args = 0
 1463 0000 80B5     		push	{r7, lr}
 1464              		.cfi_def_cfa_offset 8
 1465              		.cfi_offset 7, -8
 1466              		.cfi_offset 14, -4
 1467 0002 84B0     		sub	sp, sp, #16
 1468              		.cfi_def_cfa_offset 24
 1469 0004 00AF     		add	r7, sp, #0
 1470              		.cfi_def_cfa_register 7
 1471 0006 0346     		mov	r3, r0
 1472 0008 FB80     		strh	r3, [r7, #6]	@ movhi
 856:.\Generated_Source\PSoC5/CyLib.c ****     uint8  masterClkDiv;
ARM GAS  C:\Users\mjphi\AppData\Local\Temp\ccxjZhgg.s 			page 42


 857:.\Generated_Source\PSoC5/CyLib.c ****     uint16 busClkDiv;
 858:.\Generated_Source\PSoC5/CyLib.c ****     uint8 interruptState;
 859:.\Generated_Source\PSoC5/CyLib.c **** 
 860:.\Generated_Source\PSoC5/CyLib.c ****     interruptState = CyEnterCriticalSection();
 1473              		.loc 1 860 0
 1474 000a FFF7FEFF 		bl	CyEnterCriticalSection
 1475 000e 0346     		mov	r3, r0
 1476 0010 FB73     		strb	r3, [r7, #15]
 861:.\Generated_Source\PSoC5/CyLib.c **** 
 862:.\Generated_Source\PSoC5/CyLib.c ****     /* Work around to set bus clock divider value */
 863:.\Generated_Source\PSoC5/CyLib.c ****     busClkDiv = (uint16)((uint16)CY_LIB_CLKDIST_BCFG_MSB_REG << 8u);
 1477              		.loc 1 863 0
 1478 0012 244B     		ldr	r3, .L119
 1479 0014 1B78     		ldrb	r3, [r3]
 1480 0016 DBB2     		uxtb	r3, r3
 1481 0018 9BB2     		uxth	r3, r3
 1482 001a 1B02     		lsls	r3, r3, #8
 1483 001c BB81     		strh	r3, [r7, #12]	@ movhi
 864:.\Generated_Source\PSoC5/CyLib.c ****     busClkDiv |= CY_LIB_CLKDIST_BCFG_LSB_REG;
 1484              		.loc 1 864 0
 1485 001e 224B     		ldr	r3, .L119+4
 1486 0020 1B78     		ldrb	r3, [r3]
 1487 0022 DBB2     		uxtb	r3, r3
 1488 0024 9AB2     		uxth	r2, r3
 1489 0026 BB89     		ldrh	r3, [r7, #12]	@ movhi
 1490 0028 1343     		orrs	r3, r3, r2
 1491 002a BB81     		strh	r3, [r7, #12]	@ movhi
 865:.\Generated_Source\PSoC5/CyLib.c **** 
 866:.\Generated_Source\PSoC5/CyLib.c ****     if ((divider == 0u) || (busClkDiv == 0u))
 1492              		.loc 1 866 0
 1493 002c FB88     		ldrh	r3, [r7, #6]
 1494 002e 002B     		cmp	r3, #0
 1495 0030 02D0     		beq	.L113
 1496              		.loc 1 866 0 is_stmt 0 discriminator 1
 1497 0032 BB89     		ldrh	r3, [r7, #12]
 1498 0034 002B     		cmp	r3, #0
 1499 0036 29D1     		bne	.L114
 1500              	.L113:
 867:.\Generated_Source\PSoC5/CyLib.c ****     {
 868:.\Generated_Source\PSoC5/CyLib.c ****         /* Save away master clock divider value */
 869:.\Generated_Source\PSoC5/CyLib.c ****         masterClkDiv = CY_LIB_CLKDIST_MSTR0_REG;
 1501              		.loc 1 869 0 is_stmt 1
 1502 0038 1C4B     		ldr	r3, .L119+8
 1503 003a 1B78     		ldrb	r3, [r3]
 1504 003c FB72     		strb	r3, [r7, #11]
 870:.\Generated_Source\PSoC5/CyLib.c **** 
 871:.\Generated_Source\PSoC5/CyLib.c ****         if (masterClkDiv < CY_LIB_CLKDIST_MASTERCLK_DIV)
 1505              		.loc 1 871 0
 1506 003e FB7A     		ldrb	r3, [r7, #11]	@ zero_extendqisi2
 1507 0040 062B     		cmp	r3, #6
 1508 0042 02D8     		bhi	.L115
 872:.\Generated_Source\PSoC5/CyLib.c ****         {
 873:.\Generated_Source\PSoC5/CyLib.c ****             /* Set master clock divider to 7 */
 874:.\Generated_Source\PSoC5/CyLib.c ****             CyMasterClk_SetDivider(CY_LIB_CLKDIST_MASTERCLK_DIV);
 1509              		.loc 1 874 0
 1510 0044 0720     		movs	r0, #7
 1511 0046 FFF7FEFF 		bl	CyMasterClk_SetDivider
ARM GAS  C:\Users\mjphi\AppData\Local\Temp\ccxjZhgg.s 			page 43


 1512              	.L115:
 875:.\Generated_Source\PSoC5/CyLib.c ****         }
 876:.\Generated_Source\PSoC5/CyLib.c **** 
 877:.\Generated_Source\PSoC5/CyLib.c ****         if (divider == 0u)
 1513              		.loc 1 877 0
 1514 004a FB88     		ldrh	r3, [r7, #6]
 1515 004c 002B     		cmp	r3, #0
 1516 004e 0CD1     		bne	.L116
 878:.\Generated_Source\PSoC5/CyLib.c ****         {
 879:.\Generated_Source\PSoC5/CyLib.c ****             /* Set SSS bit and divider register desired value */
 880:.\Generated_Source\PSoC5/CyLib.c ****             CY_LIB_CLKDIST_BCFG2_REG |= CY_LIB_CLKDIST_BCFG2_SSS;
 1517              		.loc 1 880 0
 1518 0050 174A     		ldr	r2, .L119+12
 1519 0052 174B     		ldr	r3, .L119+12
 1520 0054 1B78     		ldrb	r3, [r3]
 1521 0056 DBB2     		uxtb	r3, r3
 1522 0058 43F04003 		orr	r3, r3, #64
 1523 005c DBB2     		uxtb	r3, r3
 1524 005e 1370     		strb	r3, [r2]
 881:.\Generated_Source\PSoC5/CyLib.c ****             CyBusClk_Internal_SetDivider(divider);
 1525              		.loc 1 881 0
 1526 0060 FB88     		ldrh	r3, [r7, #6]
 1527 0062 1846     		mov	r0, r3
 1528 0064 FFF7FEFF 		bl	CyBusClk_Internal_SetDivider
 1529 0068 0BE0     		b	.L117
 1530              	.L116:
 882:.\Generated_Source\PSoC5/CyLib.c ****         }
 883:.\Generated_Source\PSoC5/CyLib.c ****         else
 884:.\Generated_Source\PSoC5/CyLib.c ****         {
 885:.\Generated_Source\PSoC5/CyLib.c ****             CyBusClk_Internal_SetDivider(divider);
 1531              		.loc 1 885 0
 1532 006a FB88     		ldrh	r3, [r7, #6]
 1533 006c 1846     		mov	r0, r3
 1534 006e FFF7FEFF 		bl	CyBusClk_Internal_SetDivider
 886:.\Generated_Source\PSoC5/CyLib.c ****             CY_LIB_CLKDIST_BCFG2_REG &= ((uint8)(~CY_LIB_CLKDIST_BCFG2_SSS));
 1535              		.loc 1 886 0
 1536 0072 0F4A     		ldr	r2, .L119+12
 1537 0074 0E4B     		ldr	r3, .L119+12
 1538 0076 1B78     		ldrb	r3, [r3]
 1539 0078 DBB2     		uxtb	r3, r3
 1540 007a 23F04003 		bic	r3, r3, #64
 1541 007e DBB2     		uxtb	r3, r3
 1542 0080 1370     		strb	r3, [r2]
 1543              	.L117:
 887:.\Generated_Source\PSoC5/CyLib.c ****         }
 888:.\Generated_Source\PSoC5/CyLib.c **** 
 889:.\Generated_Source\PSoC5/CyLib.c ****         /* Restore master clock */
 890:.\Generated_Source\PSoC5/CyLib.c ****         CyMasterClk_SetDivider(masterClkDiv);
 1544              		.loc 1 890 0
 1545 0082 FB7A     		ldrb	r3, [r7, #11]	@ zero_extendqisi2
 1546 0084 1846     		mov	r0, r3
 1547 0086 FFF7FEFF 		bl	CyMasterClk_SetDivider
 1548 008a 03E0     		b	.L118
 1549              	.L114:
 891:.\Generated_Source\PSoC5/CyLib.c ****     }
 892:.\Generated_Source\PSoC5/CyLib.c ****     else
 893:.\Generated_Source\PSoC5/CyLib.c ****     {
ARM GAS  C:\Users\mjphi\AppData\Local\Temp\ccxjZhgg.s 			page 44


 894:.\Generated_Source\PSoC5/CyLib.c ****         CyBusClk_Internal_SetDivider(divider);
 1550              		.loc 1 894 0
 1551 008c FB88     		ldrh	r3, [r7, #6]
 1552 008e 1846     		mov	r0, r3
 1553 0090 FFF7FEFF 		bl	CyBusClk_Internal_SetDivider
 1554              	.L118:
 895:.\Generated_Source\PSoC5/CyLib.c ****     }
 896:.\Generated_Source\PSoC5/CyLib.c **** 
 897:.\Generated_Source\PSoC5/CyLib.c ****     CyExitCriticalSection(interruptState);
 1555              		.loc 1 897 0
 1556 0094 FB7B     		ldrb	r3, [r7, #15]	@ zero_extendqisi2
 1557 0096 1846     		mov	r0, r3
 1558 0098 FFF7FEFF 		bl	CyExitCriticalSection
 898:.\Generated_Source\PSoC5/CyLib.c **** }
 1559              		.loc 1 898 0
 1560 009c 1037     		adds	r7, r7, #16
 1561              		.cfi_def_cfa_offset 8
 1562 009e BD46     		mov	sp, r7
 1563              		.cfi_def_cfa_register 13
 1564              		@ sp needed
 1565 00a0 80BD     		pop	{r7, pc}
 1566              	.L120:
 1567 00a2 00BF     		.align	2
 1568              	.L119:
 1569 00a4 07400040 		.word	1073758215
 1570 00a8 06400040 		.word	1073758214
 1571 00ac 04400040 		.word	1073758212
 1572 00b0 08400040 		.word	1073758216
 1573              		.cfi_endproc
 1574              	.LFE15:
 1575              		.size	CyBusClk_SetDivider, .-CyBusClk_SetDivider
 1576              		.section	.text.CyUsbClk_SetSource,"ax",%progbits
 1577              		.align	2
 1578              		.global	CyUsbClk_SetSource
 1579              		.thumb
 1580              		.thumb_func
 1581              		.type	CyUsbClk_SetSource, %function
 1582              	CyUsbClk_SetSource:
 1583              	.LFB16:
 899:.\Generated_Source\PSoC5/CyLib.c **** 
 900:.\Generated_Source\PSoC5/CyLib.c **** 
 901:.\Generated_Source\PSoC5/CyLib.c **** #if(CY_PSOC3)
 902:.\Generated_Source\PSoC5/CyLib.c **** 
 903:.\Generated_Source\PSoC5/CyLib.c ****     /*******************************************************************************
 904:.\Generated_Source\PSoC5/CyLib.c ****     * Function Name: CyCpuClk_SetDivider
 905:.\Generated_Source\PSoC5/CyLib.c ****     ********************************************************************************
 906:.\Generated_Source\PSoC5/CyLib.c ****     *
 907:.\Generated_Source\PSoC5/CyLib.c ****     * Summary:
 908:.\Generated_Source\PSoC5/CyLib.c ****     *  Sets the divider value used to generate the CPU Clock. Only applicable for
 909:.\Generated_Source\PSoC5/CyLib.c ****     *  PSoC 3 parts.
 910:.\Generated_Source\PSoC5/CyLib.c ****     *
 911:.\Generated_Source\PSoC5/CyLib.c ****     * Parameters:
 912:.\Generated_Source\PSoC5/CyLib.c ****     *  divider: Valid range [0-15]. The clock will be divided by this value + 1.
 913:.\Generated_Source\PSoC5/CyLib.c ****     *  For example, to divide this parameter by two should be set to 1.
 914:.\Generated_Source\PSoC5/CyLib.c ****     *
 915:.\Generated_Source\PSoC5/CyLib.c ****     * Return:
 916:.\Generated_Source\PSoC5/CyLib.c ****     *  None
ARM GAS  C:\Users\mjphi\AppData\Local\Temp\ccxjZhgg.s 			page 45


 917:.\Generated_Source\PSoC5/CyLib.c ****     *
 918:.\Generated_Source\PSoC5/CyLib.c ****     * Side Effects:
 919:.\Generated_Source\PSoC5/CyLib.c ****     *  If this function execution resulted in the CPU clock frequency increasing,
 920:.\Generated_Source\PSoC5/CyLib.c ****     *  then the number of clock cycles the cache will wait before it samples data
 921:.\Generated_Source\PSoC5/CyLib.c ****     *  coming back from the Flash must be adjusted by calling
 922:.\Generated_Source\PSoC5/CyLib.c ****     *  CyFlash_SetWaitCycles() with an appropriate parameter. It can be optionally
 923:.\Generated_Source\PSoC5/CyLib.c ****     *  called if the CPU clock frequency is lowered in order to improve the CPU
 924:.\Generated_Source\PSoC5/CyLib.c ****     *  performance. See CyFlash_SetWaitCycles() description for more information.
 925:.\Generated_Source\PSoC5/CyLib.c ****     *
 926:.\Generated_Source\PSoC5/CyLib.c ****     *******************************************************************************/
 927:.\Generated_Source\PSoC5/CyLib.c ****     void CyCpuClk_SetDivider(uint8 divider) 
 928:.\Generated_Source\PSoC5/CyLib.c ****     {
 929:.\Generated_Source\PSoC5/CyLib.c ****             CY_LIB_CLKDIST_MSTR1_REG = (CY_LIB_CLKDIST_MSTR1_REG & CY_LIB_CLKDIST_MSTR1_DIV_MASK) |
 930:.\Generated_Source\PSoC5/CyLib.c ****                                 ((uint8)(divider << CY_LIB_CLKDIST_DIV_POSITION));
 931:.\Generated_Source\PSoC5/CyLib.c ****     }
 932:.\Generated_Source\PSoC5/CyLib.c **** 
 933:.\Generated_Source\PSoC5/CyLib.c **** #endif /* (CY_PSOC3) */
 934:.\Generated_Source\PSoC5/CyLib.c **** 
 935:.\Generated_Source\PSoC5/CyLib.c **** 
 936:.\Generated_Source\PSoC5/CyLib.c **** /*******************************************************************************
 937:.\Generated_Source\PSoC5/CyLib.c **** * Function Name: CyUsbClk_SetSource
 938:.\Generated_Source\PSoC5/CyLib.c **** ********************************************************************************
 939:.\Generated_Source\PSoC5/CyLib.c **** *
 940:.\Generated_Source\PSoC5/CyLib.c **** * Summary:
 941:.\Generated_Source\PSoC5/CyLib.c **** *  Sets the source of the USB clock.
 942:.\Generated_Source\PSoC5/CyLib.c **** *
 943:.\Generated_Source\PSoC5/CyLib.c **** * Parameters:
 944:.\Generated_Source\PSoC5/CyLib.c **** *  source: One of the four available USB clock sources
 945:.\Generated_Source\PSoC5/CyLib.c **** *    CY_LIB_USB_CLK_IMO2X     - IMO 2x
 946:.\Generated_Source\PSoC5/CyLib.c **** *    CY_LIB_USB_CLK_IMO       - IMO
 947:.\Generated_Source\PSoC5/CyLib.c **** *    CY_LIB_USB_CLK_PLL       - PLL
 948:.\Generated_Source\PSoC5/CyLib.c **** *    CY_LIB_USB_CLK_DSI       - DSI
 949:.\Generated_Source\PSoC5/CyLib.c **** *
 950:.\Generated_Source\PSoC5/CyLib.c **** * Return:
 951:.\Generated_Source\PSoC5/CyLib.c **** *  None
 952:.\Generated_Source\PSoC5/CyLib.c **** *
 953:.\Generated_Source\PSoC5/CyLib.c **** *******************************************************************************/
 954:.\Generated_Source\PSoC5/CyLib.c **** void CyUsbClk_SetSource(uint8 source) 
 955:.\Generated_Source\PSoC5/CyLib.c **** {
 1584              		.loc 1 955 0
 1585              		.cfi_startproc
 1586              		@ args = 0, pretend = 0, frame = 8
 1587              		@ frame_needed = 1, uses_anonymous_args = 0
 1588              		@ link register save eliminated.
 1589 0000 80B4     		push	{r7}
 1590              		.cfi_def_cfa_offset 4
 1591              		.cfi_offset 7, -4
 1592 0002 83B0     		sub	sp, sp, #12
 1593              		.cfi_def_cfa_offset 16
 1594 0004 00AF     		add	r7, sp, #0
 1595              		.cfi_def_cfa_register 7
 1596 0006 0346     		mov	r3, r0
 1597 0008 FB71     		strb	r3, [r7, #7]
 956:.\Generated_Source\PSoC5/CyLib.c ****     CY_LIB_CLKDIST_UCFG_REG = (CY_LIB_CLKDIST_UCFG_REG & ((uint8)(~CY_LIB_CLKDIST_UCFG_SRC_SEL_MASK
 1598              		.loc 1 956 0
 1599 000a 0949     		ldr	r1, .L122
 1600 000c 084B     		ldr	r3, .L122
ARM GAS  C:\Users\mjphi\AppData\Local\Temp\ccxjZhgg.s 			page 46


 1601 000e 1B78     		ldrb	r3, [r3]
 1602 0010 DBB2     		uxtb	r3, r3
 1603 0012 23F00303 		bic	r3, r3, #3
 1604 0016 DAB2     		uxtb	r2, r3
 1605 0018 FB79     		ldrb	r3, [r7, #7]
 1606 001a 03F00303 		and	r3, r3, #3
 1607 001e DBB2     		uxtb	r3, r3
 1608 0020 1343     		orrs	r3, r3, r2
 1609 0022 DBB2     		uxtb	r3, r3
 1610 0024 0B70     		strb	r3, [r1]
 957:.\Generated_Source\PSoC5/CyLib.c ****                         (CY_LIB_CLKDIST_UCFG_SRC_SEL_MASK & source);
 958:.\Generated_Source\PSoC5/CyLib.c **** }
 1611              		.loc 1 958 0
 1612 0026 0C37     		adds	r7, r7, #12
 1613              		.cfi_def_cfa_offset 4
 1614 0028 BD46     		mov	sp, r7
 1615              		.cfi_def_cfa_register 13
 1616              		@ sp needed
 1617 002a 5DF8047B 		ldr	r7, [sp], #4
 1618              		.cfi_restore 7
 1619              		.cfi_def_cfa_offset 0
 1620 002e 7047     		bx	lr
 1621              	.L123:
 1622              		.align	2
 1623              	.L122:
 1624 0030 09400040 		.word	1073758217
 1625              		.cfi_endproc
 1626              	.LFE16:
 1627              		.size	CyUsbClk_SetSource, .-CyUsbClk_SetSource
 1628              		.section	.text.CyILO_Start1K,"ax",%progbits
 1629              		.align	2
 1630              		.global	CyILO_Start1K
 1631              		.thumb
 1632              		.thumb_func
 1633              		.type	CyILO_Start1K, %function
 1634              	CyILO_Start1K:
 1635              	.LFB17:
 959:.\Generated_Source\PSoC5/CyLib.c **** 
 960:.\Generated_Source\PSoC5/CyLib.c **** 
 961:.\Generated_Source\PSoC5/CyLib.c **** /*******************************************************************************
 962:.\Generated_Source\PSoC5/CyLib.c **** * Function Name: CyILO_Start1K
 963:.\Generated_Source\PSoC5/CyLib.c **** ********************************************************************************
 964:.\Generated_Source\PSoC5/CyLib.c **** *
 965:.\Generated_Source\PSoC5/CyLib.c **** * Summary:
 966:.\Generated_Source\PSoC5/CyLib.c **** *  Enables the ILO 1 KHz oscillator.
 967:.\Generated_Source\PSoC5/CyLib.c **** *
 968:.\Generated_Source\PSoC5/CyLib.c **** *  Note The ILO 1 KHz oscillator is always enabled by default, regardless of the
 969:.\Generated_Source\PSoC5/CyLib.c **** *  selection in the Clock Editor. Therefore, this API is only needed if the
 970:.\Generated_Source\PSoC5/CyLib.c **** *  oscillator was turned off manually.
 971:.\Generated_Source\PSoC5/CyLib.c **** *
 972:.\Generated_Source\PSoC5/CyLib.c **** * Parameters:
 973:.\Generated_Source\PSoC5/CyLib.c **** *  None
 974:.\Generated_Source\PSoC5/CyLib.c **** *
 975:.\Generated_Source\PSoC5/CyLib.c **** * Return:
 976:.\Generated_Source\PSoC5/CyLib.c **** *  None
 977:.\Generated_Source\PSoC5/CyLib.c **** *
 978:.\Generated_Source\PSoC5/CyLib.c **** *******************************************************************************/
ARM GAS  C:\Users\mjphi\AppData\Local\Temp\ccxjZhgg.s 			page 47


 979:.\Generated_Source\PSoC5/CyLib.c **** void CyILO_Start1K(void) 
 980:.\Generated_Source\PSoC5/CyLib.c **** {
 1636              		.loc 1 980 0
 1637              		.cfi_startproc
 1638              		@ args = 0, pretend = 0, frame = 0
 1639              		@ frame_needed = 1, uses_anonymous_args = 0
 1640              		@ link register save eliminated.
 1641 0000 80B4     		push	{r7}
 1642              		.cfi_def_cfa_offset 4
 1643              		.cfi_offset 7, -4
 1644 0002 00AF     		add	r7, sp, #0
 1645              		.cfi_def_cfa_register 7
 981:.\Generated_Source\PSoC5/CyLib.c ****     /* Set bit 1 of ILO RS */
 982:.\Generated_Source\PSoC5/CyLib.c ****     CY_LIB_SLOWCLK_ILO_CR0_REG |= CY_LIB_SLOWCLK_ILO_CR0_EN_1KHZ;
 1646              		.loc 1 982 0
 1647 0004 054A     		ldr	r2, .L125
 1648 0006 054B     		ldr	r3, .L125
 1649 0008 1B78     		ldrb	r3, [r3]
 1650 000a DBB2     		uxtb	r3, r3
 1651 000c 43F00203 		orr	r3, r3, #2
 1652 0010 DBB2     		uxtb	r3, r3
 1653 0012 1370     		strb	r3, [r2]
 983:.\Generated_Source\PSoC5/CyLib.c **** }
 1654              		.loc 1 983 0
 1655 0014 BD46     		mov	sp, r7
 1656              		.cfi_def_cfa_register 13
 1657              		@ sp needed
 1658 0016 5DF8047B 		ldr	r7, [sp], #4
 1659              		.cfi_restore 7
 1660              		.cfi_def_cfa_offset 0
 1661 001a 7047     		bx	lr
 1662              	.L126:
 1663              		.align	2
 1664              	.L125:
 1665 001c 00430040 		.word	1073758976
 1666              		.cfi_endproc
 1667              	.LFE17:
 1668              		.size	CyILO_Start1K, .-CyILO_Start1K
 1669              		.section	.text.CyILO_Stop1K,"ax",%progbits
 1670              		.align	2
 1671              		.global	CyILO_Stop1K
 1672              		.thumb
 1673              		.thumb_func
 1674              		.type	CyILO_Stop1K, %function
 1675              	CyILO_Stop1K:
 1676              	.LFB18:
 984:.\Generated_Source\PSoC5/CyLib.c **** 
 985:.\Generated_Source\PSoC5/CyLib.c **** 
 986:.\Generated_Source\PSoC5/CyLib.c **** /*******************************************************************************
 987:.\Generated_Source\PSoC5/CyLib.c **** * Function Name: CyILO_Stop1K
 988:.\Generated_Source\PSoC5/CyLib.c **** ********************************************************************************
 989:.\Generated_Source\PSoC5/CyLib.c **** *
 990:.\Generated_Source\PSoC5/CyLib.c **** * Summary:
 991:.\Generated_Source\PSoC5/CyLib.c **** *  Disables the ILO 1 KHz oscillator.
 992:.\Generated_Source\PSoC5/CyLib.c **** *
 993:.\Generated_Source\PSoC5/CyLib.c **** *  Note The ILO 1 KHz oscillator must be enabled if the Sleep or Hibernate low
 994:.\Generated_Source\PSoC5/CyLib.c **** *  power mode APIs are expected to be used. For more information, refer to the
ARM GAS  C:\Users\mjphi\AppData\Local\Temp\ccxjZhgg.s 			page 48


 995:.\Generated_Source\PSoC5/CyLib.c **** *  Power Management section of this document.
 996:.\Generated_Source\PSoC5/CyLib.c **** *
 997:.\Generated_Source\PSoC5/CyLib.c **** * Parameters:
 998:.\Generated_Source\PSoC5/CyLib.c **** *  None
 999:.\Generated_Source\PSoC5/CyLib.c **** *
1000:.\Generated_Source\PSoC5/CyLib.c **** * Return:
1001:.\Generated_Source\PSoC5/CyLib.c **** *  None
1002:.\Generated_Source\PSoC5/CyLib.c **** *
1003:.\Generated_Source\PSoC5/CyLib.c **** * Side Effects:
1004:.\Generated_Source\PSoC5/CyLib.c **** *  PSoC5: Stopping the ILO 1 kHz could break the active WDT functionality.
1005:.\Generated_Source\PSoC5/CyLib.c **** *
1006:.\Generated_Source\PSoC5/CyLib.c **** *******************************************************************************/
1007:.\Generated_Source\PSoC5/CyLib.c **** void CyILO_Stop1K(void) 
1008:.\Generated_Source\PSoC5/CyLib.c **** {
 1677              		.loc 1 1008 0
 1678              		.cfi_startproc
 1679              		@ args = 0, pretend = 0, frame = 0
 1680              		@ frame_needed = 1, uses_anonymous_args = 0
 1681              		@ link register save eliminated.
 1682 0000 80B4     		push	{r7}
 1683              		.cfi_def_cfa_offset 4
 1684              		.cfi_offset 7, -4
 1685 0002 00AF     		add	r7, sp, #0
 1686              		.cfi_def_cfa_register 7
1009:.\Generated_Source\PSoC5/CyLib.c ****     /* Clear bit 1 of ILO RS */
1010:.\Generated_Source\PSoC5/CyLib.c ****     CY_LIB_SLOWCLK_ILO_CR0_REG &= ((uint8)(~CY_LIB_SLOWCLK_ILO_CR0_EN_1KHZ));
 1687              		.loc 1 1010 0
 1688 0004 054A     		ldr	r2, .L128
 1689 0006 054B     		ldr	r3, .L128
 1690 0008 1B78     		ldrb	r3, [r3]
 1691 000a DBB2     		uxtb	r3, r3
 1692 000c 23F00203 		bic	r3, r3, #2
 1693 0010 DBB2     		uxtb	r3, r3
 1694 0012 1370     		strb	r3, [r2]
1011:.\Generated_Source\PSoC5/CyLib.c **** }
 1695              		.loc 1 1011 0
 1696 0014 BD46     		mov	sp, r7
 1697              		.cfi_def_cfa_register 13
 1698              		@ sp needed
 1699 0016 5DF8047B 		ldr	r7, [sp], #4
 1700              		.cfi_restore 7
 1701              		.cfi_def_cfa_offset 0
 1702 001a 7047     		bx	lr
 1703              	.L129:
 1704              		.align	2
 1705              	.L128:
 1706 001c 00430040 		.word	1073758976
 1707              		.cfi_endproc
 1708              	.LFE18:
 1709              		.size	CyILO_Stop1K, .-CyILO_Stop1K
 1710              		.section	.text.CyILO_Start100K,"ax",%progbits
 1711              		.align	2
 1712              		.global	CyILO_Start100K
 1713              		.thumb
 1714              		.thumb_func
 1715              		.type	CyILO_Start100K, %function
 1716              	CyILO_Start100K:
ARM GAS  C:\Users\mjphi\AppData\Local\Temp\ccxjZhgg.s 			page 49


 1717              	.LFB19:
1012:.\Generated_Source\PSoC5/CyLib.c **** 
1013:.\Generated_Source\PSoC5/CyLib.c **** 
1014:.\Generated_Source\PSoC5/CyLib.c **** /*******************************************************************************
1015:.\Generated_Source\PSoC5/CyLib.c **** * Function Name: CyILO_Start100K
1016:.\Generated_Source\PSoC5/CyLib.c **** ********************************************************************************
1017:.\Generated_Source\PSoC5/CyLib.c **** *
1018:.\Generated_Source\PSoC5/CyLib.c **** * Summary:
1019:.\Generated_Source\PSoC5/CyLib.c **** *  Enables the ILO 100 KHz oscillator.
1020:.\Generated_Source\PSoC5/CyLib.c **** *
1021:.\Generated_Source\PSoC5/CyLib.c **** * Parameters:
1022:.\Generated_Source\PSoC5/CyLib.c **** *  None
1023:.\Generated_Source\PSoC5/CyLib.c **** *
1024:.\Generated_Source\PSoC5/CyLib.c **** * Return:
1025:.\Generated_Source\PSoC5/CyLib.c **** *  None
1026:.\Generated_Source\PSoC5/CyLib.c **** *
1027:.\Generated_Source\PSoC5/CyLib.c **** *******************************************************************************/
1028:.\Generated_Source\PSoC5/CyLib.c **** void CyILO_Start100K(void) 
1029:.\Generated_Source\PSoC5/CyLib.c **** {
 1718              		.loc 1 1029 0
 1719              		.cfi_startproc
 1720              		@ args = 0, pretend = 0, frame = 0
 1721              		@ frame_needed = 1, uses_anonymous_args = 0
 1722              		@ link register save eliminated.
 1723 0000 80B4     		push	{r7}
 1724              		.cfi_def_cfa_offset 4
 1725              		.cfi_offset 7, -4
 1726 0002 00AF     		add	r7, sp, #0
 1727              		.cfi_def_cfa_register 7
1030:.\Generated_Source\PSoC5/CyLib.c ****     CY_LIB_SLOWCLK_ILO_CR0_REG |= CY_LIB_SLOWCLK_ILO_CR0_EN_100KHZ;
 1728              		.loc 1 1030 0
 1729 0004 054A     		ldr	r2, .L131
 1730 0006 054B     		ldr	r3, .L131
 1731 0008 1B78     		ldrb	r3, [r3]
 1732 000a DBB2     		uxtb	r3, r3
 1733 000c 43F00403 		orr	r3, r3, #4
 1734 0010 DBB2     		uxtb	r3, r3
 1735 0012 1370     		strb	r3, [r2]
1031:.\Generated_Source\PSoC5/CyLib.c **** }
 1736              		.loc 1 1031 0
 1737 0014 BD46     		mov	sp, r7
 1738              		.cfi_def_cfa_register 13
 1739              		@ sp needed
 1740 0016 5DF8047B 		ldr	r7, [sp], #4
 1741              		.cfi_restore 7
 1742              		.cfi_def_cfa_offset 0
 1743 001a 7047     		bx	lr
 1744              	.L132:
 1745              		.align	2
 1746              	.L131:
 1747 001c 00430040 		.word	1073758976
 1748              		.cfi_endproc
 1749              	.LFE19:
 1750              		.size	CyILO_Start100K, .-CyILO_Start100K
 1751              		.section	.text.CyILO_Stop100K,"ax",%progbits
 1752              		.align	2
 1753              		.global	CyILO_Stop100K
ARM GAS  C:\Users\mjphi\AppData\Local\Temp\ccxjZhgg.s 			page 50


 1754              		.thumb
 1755              		.thumb_func
 1756              		.type	CyILO_Stop100K, %function
 1757              	CyILO_Stop100K:
 1758              	.LFB20:
1032:.\Generated_Source\PSoC5/CyLib.c **** 
1033:.\Generated_Source\PSoC5/CyLib.c **** 
1034:.\Generated_Source\PSoC5/CyLib.c **** /*******************************************************************************
1035:.\Generated_Source\PSoC5/CyLib.c **** * Function Name: CyILO_Stop100K
1036:.\Generated_Source\PSoC5/CyLib.c **** ********************************************************************************
1037:.\Generated_Source\PSoC5/CyLib.c **** *
1038:.\Generated_Source\PSoC5/CyLib.c **** * Summary:
1039:.\Generated_Source\PSoC5/CyLib.c **** *  Disables the ILO 100 KHz oscillator.
1040:.\Generated_Source\PSoC5/CyLib.c **** *
1041:.\Generated_Source\PSoC5/CyLib.c **** * Parameters:
1042:.\Generated_Source\PSoC5/CyLib.c **** *  None
1043:.\Generated_Source\PSoC5/CyLib.c **** *
1044:.\Generated_Source\PSoC5/CyLib.c **** * Return:
1045:.\Generated_Source\PSoC5/CyLib.c **** *  None
1046:.\Generated_Source\PSoC5/CyLib.c **** *
1047:.\Generated_Source\PSoC5/CyLib.c **** *******************************************************************************/
1048:.\Generated_Source\PSoC5/CyLib.c **** void CyILO_Stop100K(void) 
1049:.\Generated_Source\PSoC5/CyLib.c **** {
 1759              		.loc 1 1049 0
 1760              		.cfi_startproc
 1761              		@ args = 0, pretend = 0, frame = 0
 1762              		@ frame_needed = 1, uses_anonymous_args = 0
 1763              		@ link register save eliminated.
 1764 0000 80B4     		push	{r7}
 1765              		.cfi_def_cfa_offset 4
 1766              		.cfi_offset 7, -4
 1767 0002 00AF     		add	r7, sp, #0
 1768              		.cfi_def_cfa_register 7
1050:.\Generated_Source\PSoC5/CyLib.c ****     CY_LIB_SLOWCLK_ILO_CR0_REG &= ((uint8)(~CY_LIB_SLOWCLK_ILO_CR0_EN_100KHZ));
 1769              		.loc 1 1050 0
 1770 0004 054A     		ldr	r2, .L134
 1771 0006 054B     		ldr	r3, .L134
 1772 0008 1B78     		ldrb	r3, [r3]
 1773 000a DBB2     		uxtb	r3, r3
 1774 000c 23F00403 		bic	r3, r3, #4
 1775 0010 DBB2     		uxtb	r3, r3
 1776 0012 1370     		strb	r3, [r2]
1051:.\Generated_Source\PSoC5/CyLib.c **** }
 1777              		.loc 1 1051 0
 1778 0014 BD46     		mov	sp, r7
 1779              		.cfi_def_cfa_register 13
 1780              		@ sp needed
 1781 0016 5DF8047B 		ldr	r7, [sp], #4
 1782              		.cfi_restore 7
 1783              		.cfi_def_cfa_offset 0
 1784 001a 7047     		bx	lr
 1785              	.L135:
 1786              		.align	2
 1787              	.L134:
 1788 001c 00430040 		.word	1073758976
 1789              		.cfi_endproc
 1790              	.LFE20:
ARM GAS  C:\Users\mjphi\AppData\Local\Temp\ccxjZhgg.s 			page 51


 1791              		.size	CyILO_Stop100K, .-CyILO_Stop100K
 1792              		.section	.text.CyILO_Enable33K,"ax",%progbits
 1793              		.align	2
 1794              		.global	CyILO_Enable33K
 1795              		.thumb
 1796              		.thumb_func
 1797              		.type	CyILO_Enable33K, %function
 1798              	CyILO_Enable33K:
 1799              	.LFB21:
1052:.\Generated_Source\PSoC5/CyLib.c **** 
1053:.\Generated_Source\PSoC5/CyLib.c **** 
1054:.\Generated_Source\PSoC5/CyLib.c **** /*******************************************************************************
1055:.\Generated_Source\PSoC5/CyLib.c **** * Function Name: CyILO_Enable33K
1056:.\Generated_Source\PSoC5/CyLib.c **** ********************************************************************************
1057:.\Generated_Source\PSoC5/CyLib.c **** *
1058:.\Generated_Source\PSoC5/CyLib.c **** * Summary:
1059:.\Generated_Source\PSoC5/CyLib.c **** *  Enables the ILO 33 KHz divider.
1060:.\Generated_Source\PSoC5/CyLib.c **** *
1061:.\Generated_Source\PSoC5/CyLib.c **** *  Note that the 33 KHz clock is generated from the 100 KHz oscillator,
1062:.\Generated_Source\PSoC5/CyLib.c **** *  so it must also be running in order to generate the 33 KHz output.
1063:.\Generated_Source\PSoC5/CyLib.c **** *
1064:.\Generated_Source\PSoC5/CyLib.c **** * Parameters:
1065:.\Generated_Source\PSoC5/CyLib.c **** *  None
1066:.\Generated_Source\PSoC5/CyLib.c **** *
1067:.\Generated_Source\PSoC5/CyLib.c **** * Return:
1068:.\Generated_Source\PSoC5/CyLib.c **** *  None
1069:.\Generated_Source\PSoC5/CyLib.c **** *
1070:.\Generated_Source\PSoC5/CyLib.c **** *******************************************************************************/
1071:.\Generated_Source\PSoC5/CyLib.c **** void CyILO_Enable33K(void) 
1072:.\Generated_Source\PSoC5/CyLib.c **** {
 1800              		.loc 1 1072 0
 1801              		.cfi_startproc
 1802              		@ args = 0, pretend = 0, frame = 0
 1803              		@ frame_needed = 1, uses_anonymous_args = 0
 1804              		@ link register save eliminated.
 1805 0000 80B4     		push	{r7}
 1806              		.cfi_def_cfa_offset 4
 1807              		.cfi_offset 7, -4
 1808 0002 00AF     		add	r7, sp, #0
 1809              		.cfi_def_cfa_register 7
1073:.\Generated_Source\PSoC5/CyLib.c ****     /* Set bit 5 of ILO RS */
1074:.\Generated_Source\PSoC5/CyLib.c ****     CY_LIB_SLOWCLK_ILO_CR0_REG |= CY_LIB_SLOWCLK_ILO_CR0_EN_33KHZ;
 1810              		.loc 1 1074 0
 1811 0004 054A     		ldr	r2, .L137
 1812 0006 054B     		ldr	r3, .L137
 1813 0008 1B78     		ldrb	r3, [r3]
 1814 000a DBB2     		uxtb	r3, r3
 1815 000c 43F02003 		orr	r3, r3, #32
 1816 0010 DBB2     		uxtb	r3, r3
 1817 0012 1370     		strb	r3, [r2]
1075:.\Generated_Source\PSoC5/CyLib.c **** }
 1818              		.loc 1 1075 0
 1819 0014 BD46     		mov	sp, r7
 1820              		.cfi_def_cfa_register 13
 1821              		@ sp needed
 1822 0016 5DF8047B 		ldr	r7, [sp], #4
 1823              		.cfi_restore 7
ARM GAS  C:\Users\mjphi\AppData\Local\Temp\ccxjZhgg.s 			page 52


 1824              		.cfi_def_cfa_offset 0
 1825 001a 7047     		bx	lr
 1826              	.L138:
 1827              		.align	2
 1828              	.L137:
 1829 001c 00430040 		.word	1073758976
 1830              		.cfi_endproc
 1831              	.LFE21:
 1832              		.size	CyILO_Enable33K, .-CyILO_Enable33K
 1833              		.section	.text.CyILO_Disable33K,"ax",%progbits
 1834              		.align	2
 1835              		.global	CyILO_Disable33K
 1836              		.thumb
 1837              		.thumb_func
 1838              		.type	CyILO_Disable33K, %function
 1839              	CyILO_Disable33K:
 1840              	.LFB22:
1076:.\Generated_Source\PSoC5/CyLib.c **** 
1077:.\Generated_Source\PSoC5/CyLib.c **** 
1078:.\Generated_Source\PSoC5/CyLib.c **** /*******************************************************************************
1079:.\Generated_Source\PSoC5/CyLib.c **** * Function Name: CyILO_Disable33K
1080:.\Generated_Source\PSoC5/CyLib.c **** ********************************************************************************
1081:.\Generated_Source\PSoC5/CyLib.c **** *
1082:.\Generated_Source\PSoC5/CyLib.c **** * Summary:
1083:.\Generated_Source\PSoC5/CyLib.c **** *  Disables the ILO 33 KHz divider.
1084:.\Generated_Source\PSoC5/CyLib.c **** *
1085:.\Generated_Source\PSoC5/CyLib.c **** *  Note that the 33 KHz clock is generated from the 100 KHz oscillator, but this
1086:.\Generated_Source\PSoC5/CyLib.c **** *  API does not disable the 100 KHz clock.
1087:.\Generated_Source\PSoC5/CyLib.c **** *
1088:.\Generated_Source\PSoC5/CyLib.c **** * Parameters:
1089:.\Generated_Source\PSoC5/CyLib.c **** *  None
1090:.\Generated_Source\PSoC5/CyLib.c **** *
1091:.\Generated_Source\PSoC5/CyLib.c **** * Return:
1092:.\Generated_Source\PSoC5/CyLib.c **** *  None
1093:.\Generated_Source\PSoC5/CyLib.c **** *
1094:.\Generated_Source\PSoC5/CyLib.c **** *******************************************************************************/
1095:.\Generated_Source\PSoC5/CyLib.c **** void CyILO_Disable33K(void) 
1096:.\Generated_Source\PSoC5/CyLib.c **** {
 1841              		.loc 1 1096 0
 1842              		.cfi_startproc
 1843              		@ args = 0, pretend = 0, frame = 0
 1844              		@ frame_needed = 1, uses_anonymous_args = 0
 1845              		@ link register save eliminated.
 1846 0000 80B4     		push	{r7}
 1847              		.cfi_def_cfa_offset 4
 1848              		.cfi_offset 7, -4
 1849 0002 00AF     		add	r7, sp, #0
 1850              		.cfi_def_cfa_register 7
1097:.\Generated_Source\PSoC5/CyLib.c ****     CY_LIB_SLOWCLK_ILO_CR0_REG &= ((uint8)(~CY_LIB_SLOWCLK_ILO_CR0_EN_33KHZ));
 1851              		.loc 1 1097 0
 1852 0004 054A     		ldr	r2, .L140
 1853 0006 054B     		ldr	r3, .L140
 1854 0008 1B78     		ldrb	r3, [r3]
 1855 000a DBB2     		uxtb	r3, r3
 1856 000c 23F02003 		bic	r3, r3, #32
 1857 0010 DBB2     		uxtb	r3, r3
 1858 0012 1370     		strb	r3, [r2]
ARM GAS  C:\Users\mjphi\AppData\Local\Temp\ccxjZhgg.s 			page 53


1098:.\Generated_Source\PSoC5/CyLib.c **** }
 1859              		.loc 1 1098 0
 1860 0014 BD46     		mov	sp, r7
 1861              		.cfi_def_cfa_register 13
 1862              		@ sp needed
 1863 0016 5DF8047B 		ldr	r7, [sp], #4
 1864              		.cfi_restore 7
 1865              		.cfi_def_cfa_offset 0
 1866 001a 7047     		bx	lr
 1867              	.L141:
 1868              		.align	2
 1869              	.L140:
 1870 001c 00430040 		.word	1073758976
 1871              		.cfi_endproc
 1872              	.LFE22:
 1873              		.size	CyILO_Disable33K, .-CyILO_Disable33K
 1874              		.section	.text.CyILO_SetSource,"ax",%progbits
 1875              		.align	2
 1876              		.global	CyILO_SetSource
 1877              		.thumb
 1878              		.thumb_func
 1879              		.type	CyILO_SetSource, %function
 1880              	CyILO_SetSource:
 1881              	.LFB23:
1099:.\Generated_Source\PSoC5/CyLib.c **** 
1100:.\Generated_Source\PSoC5/CyLib.c **** 
1101:.\Generated_Source\PSoC5/CyLib.c **** /*******************************************************************************
1102:.\Generated_Source\PSoC5/CyLib.c **** * Function Name: CyILO_SetSource
1103:.\Generated_Source\PSoC5/CyLib.c **** ********************************************************************************
1104:.\Generated_Source\PSoC5/CyLib.c **** *
1105:.\Generated_Source\PSoC5/CyLib.c **** * Summary:
1106:.\Generated_Source\PSoC5/CyLib.c **** *  Sets the source of the clock output from the ILO block.
1107:.\Generated_Source\PSoC5/CyLib.c **** *
1108:.\Generated_Source\PSoC5/CyLib.c **** * Parameters:
1109:.\Generated_Source\PSoC5/CyLib.c **** *  source: One of the three available ILO output sources
1110:.\Generated_Source\PSoC5/CyLib.c **** *       Value        Define                Source
1111:.\Generated_Source\PSoC5/CyLib.c **** *       0            CY_ILO_SOURCE_100K    ILO 100 KHz
1112:.\Generated_Source\PSoC5/CyLib.c **** *       1            CY_ILO_SOURCE_33K     ILO 33 KHz
1113:.\Generated_Source\PSoC5/CyLib.c **** *       2            CY_ILO_SOURCE_1K      ILO 1 KHz
1114:.\Generated_Source\PSoC5/CyLib.c **** *
1115:.\Generated_Source\PSoC5/CyLib.c **** * Return:
1116:.\Generated_Source\PSoC5/CyLib.c **** *  None
1117:.\Generated_Source\PSoC5/CyLib.c **** *
1118:.\Generated_Source\PSoC5/CyLib.c **** *******************************************************************************/
1119:.\Generated_Source\PSoC5/CyLib.c **** void CyILO_SetSource(uint8 source) 
1120:.\Generated_Source\PSoC5/CyLib.c **** {
 1882              		.loc 1 1120 0
 1883              		.cfi_startproc
 1884              		@ args = 0, pretend = 0, frame = 8
 1885              		@ frame_needed = 1, uses_anonymous_args = 0
 1886              		@ link register save eliminated.
 1887 0000 80B4     		push	{r7}
 1888              		.cfi_def_cfa_offset 4
 1889              		.cfi_offset 7, -4
 1890 0002 83B0     		sub	sp, sp, #12
 1891              		.cfi_def_cfa_offset 16
 1892 0004 00AF     		add	r7, sp, #0
ARM GAS  C:\Users\mjphi\AppData\Local\Temp\ccxjZhgg.s 			page 54


 1893              		.cfi_def_cfa_register 7
 1894 0006 0346     		mov	r3, r0
 1895 0008 FB71     		strb	r3, [r7, #7]
1121:.\Generated_Source\PSoC5/CyLib.c ****     CY_LIB_CLKDIST_CR_REG = (CY_LIB_CLKDIST_CR_REG & CY_ILO_SOURCE_BITS_CLEAR) |
 1896              		.loc 1 1121 0
 1897 000a 4FF04021 		mov	r1, #1073758208
 1898 000e 4FF04023 		mov	r3, #1073758208
 1899 0012 1B78     		ldrb	r3, [r3]
 1900 0014 DBB2     		uxtb	r3, r3
 1901 0016 23F00C03 		bic	r3, r3, #12
 1902 001a DAB2     		uxtb	r2, r3
1122:.\Generated_Source\PSoC5/CyLib.c ****                     (((uint8) (source << 2u)) & ((uint8)(~CY_ILO_SOURCE_BITS_CLEAR)));
 1903              		.loc 1 1122 0
 1904 001c FB79     		ldrb	r3, [r7, #7]
 1905 001e 9B00     		lsls	r3, r3, #2
 1906 0020 DBB2     		uxtb	r3, r3
1121:.\Generated_Source\PSoC5/CyLib.c ****     CY_LIB_CLKDIST_CR_REG = (CY_LIB_CLKDIST_CR_REG & CY_ILO_SOURCE_BITS_CLEAR) |
 1907              		.loc 1 1121 0
 1908 0022 03F00C03 		and	r3, r3, #12
 1909 0026 DBB2     		uxtb	r3, r3
 1910 0028 1343     		orrs	r3, r3, r2
 1911 002a DBB2     		uxtb	r3, r3
 1912 002c 0B70     		strb	r3, [r1]
1123:.\Generated_Source\PSoC5/CyLib.c **** }
 1913              		.loc 1 1123 0
 1914 002e 0C37     		adds	r7, r7, #12
 1915              		.cfi_def_cfa_offset 4
 1916 0030 BD46     		mov	sp, r7
 1917              		.cfi_def_cfa_register 13
 1918              		@ sp needed
 1919 0032 5DF8047B 		ldr	r7, [sp], #4
 1920              		.cfi_restore 7
 1921              		.cfi_def_cfa_offset 0
 1922 0036 7047     		bx	lr
 1923              		.cfi_endproc
 1924              	.LFE23:
 1925              		.size	CyILO_SetSource, .-CyILO_SetSource
 1926              		.section	.text.CyILO_SetPowerMode,"ax",%progbits
 1927              		.align	2
 1928              		.global	CyILO_SetPowerMode
 1929              		.thumb
 1930              		.thumb_func
 1931              		.type	CyILO_SetPowerMode, %function
 1932              	CyILO_SetPowerMode:
 1933              	.LFB24:
1124:.\Generated_Source\PSoC5/CyLib.c **** 
1125:.\Generated_Source\PSoC5/CyLib.c **** 
1126:.\Generated_Source\PSoC5/CyLib.c **** /*******************************************************************************
1127:.\Generated_Source\PSoC5/CyLib.c **** * Function Name: CyILO_SetPowerMode
1128:.\Generated_Source\PSoC5/CyLib.c **** ********************************************************************************
1129:.\Generated_Source\PSoC5/CyLib.c **** *
1130:.\Generated_Source\PSoC5/CyLib.c **** * Summary:
1131:.\Generated_Source\PSoC5/CyLib.c **** *  Sets the power mode used by the ILO during power down. Allows for lower power
1132:.\Generated_Source\PSoC5/CyLib.c **** *  down power usage resulting in a slower startup time.
1133:.\Generated_Source\PSoC5/CyLib.c **** *
1134:.\Generated_Source\PSoC5/CyLib.c **** * Parameters:
1135:.\Generated_Source\PSoC5/CyLib.c **** *  uint8 mode
ARM GAS  C:\Users\mjphi\AppData\Local\Temp\ccxjZhgg.s 			page 55


1136:.\Generated_Source\PSoC5/CyLib.c **** *   CY_ILO_FAST_START - Faster start-up, internal bias left on when powered down
1137:.\Generated_Source\PSoC5/CyLib.c **** *   CY_ILO_SLOW_START - Slower start-up, internal bias off when powered down
1138:.\Generated_Source\PSoC5/CyLib.c **** *
1139:.\Generated_Source\PSoC5/CyLib.c **** * Return:
1140:.\Generated_Source\PSoC5/CyLib.c **** *   Prevous power mode state.
1141:.\Generated_Source\PSoC5/CyLib.c **** *
1142:.\Generated_Source\PSoC5/CyLib.c **** *******************************************************************************/
1143:.\Generated_Source\PSoC5/CyLib.c **** uint8 CyILO_SetPowerMode(uint8 mode) 
1144:.\Generated_Source\PSoC5/CyLib.c **** {
 1934              		.loc 1 1144 0
 1935              		.cfi_startproc
 1936              		@ args = 0, pretend = 0, frame = 16
 1937              		@ frame_needed = 1, uses_anonymous_args = 0
 1938              		@ link register save eliminated.
 1939 0000 80B4     		push	{r7}
 1940              		.cfi_def_cfa_offset 4
 1941              		.cfi_offset 7, -4
 1942 0002 85B0     		sub	sp, sp, #20
 1943              		.cfi_def_cfa_offset 24
 1944 0004 00AF     		add	r7, sp, #0
 1945              		.cfi_def_cfa_register 7
 1946 0006 0346     		mov	r3, r0
 1947 0008 FB71     		strb	r3, [r7, #7]
1145:.\Generated_Source\PSoC5/CyLib.c ****     uint8 state;
1146:.\Generated_Source\PSoC5/CyLib.c **** 
1147:.\Generated_Source\PSoC5/CyLib.c ****     /* Get current state. */
1148:.\Generated_Source\PSoC5/CyLib.c ****     state = CY_LIB_SLOWCLK_ILO_CR0_REG;
 1948              		.loc 1 1148 0
 1949 000a 0F4B     		ldr	r3, .L147
 1950 000c 1B78     		ldrb	r3, [r3]
 1951 000e FB73     		strb	r3, [r7, #15]
1149:.\Generated_Source\PSoC5/CyLib.c **** 
1150:.\Generated_Source\PSoC5/CyLib.c ****     /* Set the oscillator power mode. */
1151:.\Generated_Source\PSoC5/CyLib.c ****     if(mode != CY_ILO_FAST_START)
 1952              		.loc 1 1151 0
 1953 0010 FB79     		ldrb	r3, [r7, #7]	@ zero_extendqisi2
 1954 0012 002B     		cmp	r3, #0
 1955 0014 06D0     		beq	.L144
1152:.\Generated_Source\PSoC5/CyLib.c ****     {
1153:.\Generated_Source\PSoC5/CyLib.c ****         CY_LIB_SLOWCLK_ILO_CR0_REG = (state | CY_ILO_CONTROL_PD_MODE);
 1956              		.loc 1 1153 0
 1957 0016 0C4A     		ldr	r2, .L147
 1958 0018 FB7B     		ldrb	r3, [r7, #15]
 1959 001a 43F01003 		orr	r3, r3, #16
 1960 001e DBB2     		uxtb	r3, r3
 1961 0020 1370     		strb	r3, [r2]
 1962 0022 05E0     		b	.L145
 1963              	.L144:
1154:.\Generated_Source\PSoC5/CyLib.c ****     }
1155:.\Generated_Source\PSoC5/CyLib.c ****     else
1156:.\Generated_Source\PSoC5/CyLib.c ****     {
1157:.\Generated_Source\PSoC5/CyLib.c ****         CY_LIB_SLOWCLK_ILO_CR0_REG = (state & ((uint8)(~CY_ILO_CONTROL_PD_MODE)));
 1964              		.loc 1 1157 0
 1965 0024 084A     		ldr	r2, .L147
 1966 0026 FB7B     		ldrb	r3, [r7, #15]
 1967 0028 23F01003 		bic	r3, r3, #16
 1968 002c DBB2     		uxtb	r3, r3
ARM GAS  C:\Users\mjphi\AppData\Local\Temp\ccxjZhgg.s 			page 56


 1969 002e 1370     		strb	r3, [r2]
 1970              	.L145:
1158:.\Generated_Source\PSoC5/CyLib.c ****     }
1159:.\Generated_Source\PSoC5/CyLib.c **** 
1160:.\Generated_Source\PSoC5/CyLib.c ****     /* Return old mode. */
1161:.\Generated_Source\PSoC5/CyLib.c ****     return ((state & CY_ILO_CONTROL_PD_MODE) >> CY_ILO_CONTROL_PD_POSITION);
 1971              		.loc 1 1161 0
 1972 0030 FB7B     		ldrb	r3, [r7, #15]	@ zero_extendqisi2
 1973 0032 03F01003 		and	r3, r3, #16
 1974 0036 1B09     		lsrs	r3, r3, #4
 1975 0038 DBB2     		uxtb	r3, r3
1162:.\Generated_Source\PSoC5/CyLib.c **** }
 1976              		.loc 1 1162 0
 1977 003a 1846     		mov	r0, r3
 1978 003c 1437     		adds	r7, r7, #20
 1979              		.cfi_def_cfa_offset 4
 1980 003e BD46     		mov	sp, r7
 1981              		.cfi_def_cfa_register 13
 1982              		@ sp needed
 1983 0040 5DF8047B 		ldr	r7, [sp], #4
 1984              		.cfi_restore 7
 1985              		.cfi_def_cfa_offset 0
 1986 0044 7047     		bx	lr
 1987              	.L148:
 1988 0046 00BF     		.align	2
 1989              	.L147:
 1990 0048 00430040 		.word	1073758976
 1991              		.cfi_endproc
 1992              	.LFE24:
 1993              		.size	CyILO_SetPowerMode, .-CyILO_SetPowerMode
 1994              		.section	.text.CyXTAL_32KHZ_Start,"ax",%progbits
 1995              		.align	2
 1996              		.global	CyXTAL_32KHZ_Start
 1997              		.thumb
 1998              		.thumb_func
 1999              		.type	CyXTAL_32KHZ_Start, %function
 2000              	CyXTAL_32KHZ_Start:
 2001              	.LFB25:
1163:.\Generated_Source\PSoC5/CyLib.c **** 
1164:.\Generated_Source\PSoC5/CyLib.c **** 
1165:.\Generated_Source\PSoC5/CyLib.c **** /*******************************************************************************
1166:.\Generated_Source\PSoC5/CyLib.c **** * Function Name: CyXTAL_32KHZ_Start
1167:.\Generated_Source\PSoC5/CyLib.c **** ********************************************************************************
1168:.\Generated_Source\PSoC5/CyLib.c **** *
1169:.\Generated_Source\PSoC5/CyLib.c **** * Summary:
1170:.\Generated_Source\PSoC5/CyLib.c **** *  Enables the 32 KHz Crystal Oscillator.
1171:.\Generated_Source\PSoC5/CyLib.c **** *
1172:.\Generated_Source\PSoC5/CyLib.c **** * Parameters:
1173:.\Generated_Source\PSoC5/CyLib.c **** *  None
1174:.\Generated_Source\PSoC5/CyLib.c **** *
1175:.\Generated_Source\PSoC5/CyLib.c **** * Return:
1176:.\Generated_Source\PSoC5/CyLib.c **** *  None
1177:.\Generated_Source\PSoC5/CyLib.c **** *
1178:.\Generated_Source\PSoC5/CyLib.c **** *******************************************************************************/
1179:.\Generated_Source\PSoC5/CyLib.c **** void CyXTAL_32KHZ_Start(void) 
1180:.\Generated_Source\PSoC5/CyLib.c **** {
 2002              		.loc 1 1180 0
ARM GAS  C:\Users\mjphi\AppData\Local\Temp\ccxjZhgg.s 			page 57


 2003              		.cfi_startproc
 2004              		@ args = 0, pretend = 0, frame = 8
 2005              		@ frame_needed = 1, uses_anonymous_args = 0
 2006 0000 80B5     		push	{r7, lr}
 2007              		.cfi_def_cfa_offset 8
 2008              		.cfi_offset 7, -8
 2009              		.cfi_offset 14, -4
 2010 0002 82B0     		sub	sp, sp, #8
 2011              		.cfi_def_cfa_offset 16
 2012 0004 00AF     		add	r7, sp, #0
 2013              		.cfi_def_cfa_register 7
1181:.\Generated_Source\PSoC5/CyLib.c ****     volatile uint16 i;
1182:.\Generated_Source\PSoC5/CyLib.c **** 
1183:.\Generated_Source\PSoC5/CyLib.c ****     CY_CLK_XTAL32_TST_REG = CY_CLK_XTAL32_TST_DEFAULT;
 2014              		.loc 1 1183 0
 2015 0006 1B4B     		ldr	r3, .L154
 2016 0008 F322     		movs	r2, #243
 2017 000a 1A70     		strb	r2, [r3]
1184:.\Generated_Source\PSoC5/CyLib.c ****     CY_CLK_XTAL32_TR_REG  = CY_CLK_XTAL32_TR_STARTUP;
 2018              		.loc 1 1184 0
 2019 000c 1A4B     		ldr	r3, .L154+4
 2020 000e 0322     		movs	r2, #3
 2021 0010 1A70     		strb	r2, [r3]
1185:.\Generated_Source\PSoC5/CyLib.c ****     CY_CLK_XTAL32_CFG_REG = (CY_CLK_XTAL32_CFG_REG & ((uint8)(~CY_CLK_XTAL32_CFG_LP_MASK))) |
 2022              		.loc 1 1185 0
 2023 0012 1A4A     		ldr	r2, .L154+8
 2024 0014 194B     		ldr	r3, .L154+8
 2025 0016 1B78     		ldrb	r3, [r3]
 2026 0018 DBB2     		uxtb	r3, r3
 2027 001a 23F00C03 		bic	r3, r3, #12
 2028 001e DBB2     		uxtb	r3, r3
 2029 0020 43F00403 		orr	r3, r3, #4
 2030 0024 DBB2     		uxtb	r3, r3
 2031 0026 1370     		strb	r3, [r2]
1186:.\Generated_Source\PSoC5/CyLib.c ****                                 CY_CLK_XTAL32_CFG_LP_DEFAULT;
1187:.\Generated_Source\PSoC5/CyLib.c **** 
1188:.\Generated_Source\PSoC5/CyLib.c ****     #if(CY_PSOC3)
1189:.\Generated_Source\PSoC5/CyLib.c ****         CY_CLK_XTAL32_CR_REG |= CY_CLK_XTAL32_CR_PDBEN;
1190:.\Generated_Source\PSoC5/CyLib.c ****     #endif  /* (CY_PSOC3) */
1191:.\Generated_Source\PSoC5/CyLib.c **** 
1192:.\Generated_Source\PSoC5/CyLib.c ****     /* Enable operation of 32K Crystal Oscillator */
1193:.\Generated_Source\PSoC5/CyLib.c ****     CY_CLK_XTAL32_CR_REG |= CY_CLK_XTAL32_CR_EN;
 2032              		.loc 1 1193 0
 2033 0028 154A     		ldr	r2, .L154+12
 2034 002a 154B     		ldr	r3, .L154+12
 2035 002c 1B78     		ldrb	r3, [r3]
 2036 002e DBB2     		uxtb	r3, r3
 2037 0030 43F00103 		orr	r3, r3, #1
 2038 0034 DBB2     		uxtb	r3, r3
 2039 0036 1370     		strb	r3, [r2]
1194:.\Generated_Source\PSoC5/CyLib.c **** 
1195:.\Generated_Source\PSoC5/CyLib.c ****     for (i = 1000u; i > 0u; i--)
 2040              		.loc 1 1195 0
 2041 0038 4FF47A73 		mov	r3, #1000
 2042 003c FB80     		strh	r3, [r7, #6]	@ movhi
 2043 003e 12E0     		b	.L150
 2044              	.L153:
ARM GAS  C:\Users\mjphi\AppData\Local\Temp\ccxjZhgg.s 			page 58


1196:.\Generated_Source\PSoC5/CyLib.c ****     {
1197:.\Generated_Source\PSoC5/CyLib.c ****         if(0u != (CyXTAL_32KHZ_ReadStatus() & CY_XTAL32K_ANA_STAT))
 2045              		.loc 1 1197 0
 2046 0040 FFF7FEFF 		bl	CyXTAL_32KHZ_ReadStatus
 2047 0044 0346     		mov	r3, r0
 2048 0046 03F02003 		and	r3, r3, #32
 2049 004a 002B     		cmp	r3, #0
 2050 004c 03D0     		beq	.L151
1198:.\Generated_Source\PSoC5/CyLib.c ****         {
1199:.\Generated_Source\PSoC5/CyLib.c ****             /* Ready - switch to high power mode */
1200:.\Generated_Source\PSoC5/CyLib.c ****             (void) CyXTAL_32KHZ_SetPowerMode(0u);
 2051              		.loc 1 1200 0
 2052 004e 0020     		movs	r0, #0
 2053 0050 FFF7FEFF 		bl	CyXTAL_32KHZ_SetPowerMode
1201:.\Generated_Source\PSoC5/CyLib.c **** 
1202:.\Generated_Source\PSoC5/CyLib.c ****             break;
 2054              		.loc 1 1202 0
 2055 0054 0BE0     		b	.L149
 2056              	.L151:
1203:.\Generated_Source\PSoC5/CyLib.c ****         }
1204:.\Generated_Source\PSoC5/CyLib.c ****         CyDelayUs(1u);
 2057              		.loc 1 1204 0 discriminator 2
 2058 0056 0120     		movs	r0, #1
 2059 0058 FFF7FEFF 		bl	CyDelayUs
1195:.\Generated_Source\PSoC5/CyLib.c ****     {
 2060              		.loc 1 1195 0 discriminator 2
 2061 005c FB88     		ldrh	r3, [r7, #6]	@ movhi
 2062 005e 9BB2     		uxth	r3, r3
 2063 0060 013B     		subs	r3, r3, #1
 2064 0062 9BB2     		uxth	r3, r3
 2065 0064 FB80     		strh	r3, [r7, #6]	@ movhi
 2066              	.L150:
1195:.\Generated_Source\PSoC5/CyLib.c ****     {
 2067              		.loc 1 1195 0 is_stmt 0 discriminator 1
 2068 0066 FB88     		ldrh	r3, [r7, #6]	@ movhi
 2069 0068 9BB2     		uxth	r3, r3
 2070 006a 002B     		cmp	r3, #0
 2071 006c E8D1     		bne	.L153
 2072              	.L149:
1205:.\Generated_Source\PSoC5/CyLib.c ****     }
1206:.\Generated_Source\PSoC5/CyLib.c **** }
 2073              		.loc 1 1206 0 is_stmt 1
 2074 006e 0837     		adds	r7, r7, #8
 2075              		.cfi_def_cfa_offset 8
 2076 0070 BD46     		mov	sp, r7
 2077              		.cfi_def_cfa_register 13
 2078              		@ sp needed
 2079 0072 80BD     		pop	{r7, pc}
 2080              	.L155:
 2081              		.align	2
 2082              	.L154:
 2083 0074 0A430040 		.word	1073758986
 2084 0078 98460040 		.word	1073759896
 2085 007c 09430040 		.word	1073758985
 2086 0080 08430040 		.word	1073758984
 2087              		.cfi_endproc
 2088              	.LFE25:
ARM GAS  C:\Users\mjphi\AppData\Local\Temp\ccxjZhgg.s 			page 59


 2089              		.size	CyXTAL_32KHZ_Start, .-CyXTAL_32KHZ_Start
 2090              		.section	.text.CyXTAL_32KHZ_Stop,"ax",%progbits
 2091              		.align	2
 2092              		.global	CyXTAL_32KHZ_Stop
 2093              		.thumb
 2094              		.thumb_func
 2095              		.type	CyXTAL_32KHZ_Stop, %function
 2096              	CyXTAL_32KHZ_Stop:
 2097              	.LFB26:
1207:.\Generated_Source\PSoC5/CyLib.c **** 
1208:.\Generated_Source\PSoC5/CyLib.c **** 
1209:.\Generated_Source\PSoC5/CyLib.c **** /*******************************************************************************
1210:.\Generated_Source\PSoC5/CyLib.c **** * Function Name: CyXTAL_32KHZ_Stop
1211:.\Generated_Source\PSoC5/CyLib.c **** ********************************************************************************
1212:.\Generated_Source\PSoC5/CyLib.c **** *
1213:.\Generated_Source\PSoC5/CyLib.c **** * Summary:
1214:.\Generated_Source\PSoC5/CyLib.c **** *  Disables the 32KHz Crystal Oscillator.
1215:.\Generated_Source\PSoC5/CyLib.c **** *
1216:.\Generated_Source\PSoC5/CyLib.c **** * Parameters:
1217:.\Generated_Source\PSoC5/CyLib.c **** *  None
1218:.\Generated_Source\PSoC5/CyLib.c **** *
1219:.\Generated_Source\PSoC5/CyLib.c **** * Return:
1220:.\Generated_Source\PSoC5/CyLib.c **** *  None
1221:.\Generated_Source\PSoC5/CyLib.c **** *
1222:.\Generated_Source\PSoC5/CyLib.c **** *******************************************************************************/
1223:.\Generated_Source\PSoC5/CyLib.c **** void CyXTAL_32KHZ_Stop(void) 
1224:.\Generated_Source\PSoC5/CyLib.c **** {
 2098              		.loc 1 1224 0
 2099              		.cfi_startproc
 2100              		@ args = 0, pretend = 0, frame = 0
 2101              		@ frame_needed = 1, uses_anonymous_args = 0
 2102              		@ link register save eliminated.
 2103 0000 80B4     		push	{r7}
 2104              		.cfi_def_cfa_offset 4
 2105              		.cfi_offset 7, -4
 2106 0002 00AF     		add	r7, sp, #0
 2107              		.cfi_def_cfa_register 7
1225:.\Generated_Source\PSoC5/CyLib.c ****     CY_CLK_XTAL32_TST_REG  = CY_CLK_XTAL32_TST_DEFAULT;
 2108              		.loc 1 1225 0
 2109 0004 0E4B     		ldr	r3, .L157
 2110 0006 F322     		movs	r2, #243
 2111 0008 1A70     		strb	r2, [r3]
1226:.\Generated_Source\PSoC5/CyLib.c ****     CY_CLK_XTAL32_TR_REG   = CY_CLK_XTAL32_TR_POWERDOWN;
 2112              		.loc 1 1226 0
 2113 000a 0E4B     		ldr	r3, .L157+4
 2114 000c 0022     		movs	r2, #0
 2115 000e 1A70     		strb	r2, [r3]
1227:.\Generated_Source\PSoC5/CyLib.c ****     CY_CLK_XTAL32_CFG_REG = (CY_CLK_XTAL32_CFG_REG & ((uint8)(~CY_CLK_XTAL32_CFG_LP_MASK))) |
 2116              		.loc 1 1227 0
 2117 0010 0D4A     		ldr	r2, .L157+8
 2118 0012 0D4B     		ldr	r3, .L157+8
 2119 0014 1B78     		ldrb	r3, [r3]
 2120 0016 DBB2     		uxtb	r3, r3
 2121 0018 23F00C03 		bic	r3, r3, #12
 2122 001c DBB2     		uxtb	r3, r3
 2123 001e 43F00403 		orr	r3, r3, #4
 2124 0022 DBB2     		uxtb	r3, r3
ARM GAS  C:\Users\mjphi\AppData\Local\Temp\ccxjZhgg.s 			page 60


 2125 0024 1370     		strb	r3, [r2]
1228:.\Generated_Source\PSoC5/CyLib.c ****                              CY_CLK_XTAL32_CFG_LP_DEFAULT;
1229:.\Generated_Source\PSoC5/CyLib.c ****     CY_CLK_XTAL32_CR_REG &= ((uint8)(~(CY_CLK_XTAL32_CR_EN | CY_CLK_XTAL32_CR_LPM)));
 2126              		.loc 1 1229 0
 2127 0026 094A     		ldr	r2, .L157+12
 2128 0028 084B     		ldr	r3, .L157+12
 2129 002a 1B78     		ldrb	r3, [r3]
 2130 002c DBB2     		uxtb	r3, r3
 2131 002e 23F00303 		bic	r3, r3, #3
 2132 0032 DBB2     		uxtb	r3, r3
 2133 0034 1370     		strb	r3, [r2]
1230:.\Generated_Source\PSoC5/CyLib.c **** 
1231:.\Generated_Source\PSoC5/CyLib.c ****     #if(CY_PSOC3)
1232:.\Generated_Source\PSoC5/CyLib.c ****         CY_CLK_XTAL32_CR_REG &= ((uint8)(~CY_CLK_XTAL32_CR_PDBEN));
1233:.\Generated_Source\PSoC5/CyLib.c ****     #endif  /* (CY_PSOC3) */
1234:.\Generated_Source\PSoC5/CyLib.c **** }
 2134              		.loc 1 1234 0
 2135 0036 BD46     		mov	sp, r7
 2136              		.cfi_def_cfa_register 13
 2137              		@ sp needed
 2138 0038 5DF8047B 		ldr	r7, [sp], #4
 2139              		.cfi_restore 7
 2140              		.cfi_def_cfa_offset 0
 2141 003c 7047     		bx	lr
 2142              	.L158:
 2143 003e 00BF     		.align	2
 2144              	.L157:
 2145 0040 0A430040 		.word	1073758986
 2146 0044 98460040 		.word	1073759896
 2147 0048 09430040 		.word	1073758985
 2148 004c 08430040 		.word	1073758984
 2149              		.cfi_endproc
 2150              	.LFE26:
 2151              		.size	CyXTAL_32KHZ_Stop, .-CyXTAL_32KHZ_Stop
 2152              		.section	.text.CyXTAL_32KHZ_ReadStatus,"ax",%progbits
 2153              		.align	2
 2154              		.global	CyXTAL_32KHZ_ReadStatus
 2155              		.thumb
 2156              		.thumb_func
 2157              		.type	CyXTAL_32KHZ_ReadStatus, %function
 2158              	CyXTAL_32KHZ_ReadStatus:
 2159              	.LFB27:
1235:.\Generated_Source\PSoC5/CyLib.c **** 
1236:.\Generated_Source\PSoC5/CyLib.c **** 
1237:.\Generated_Source\PSoC5/CyLib.c **** /*******************************************************************************
1238:.\Generated_Source\PSoC5/CyLib.c **** * Function Name: CyXTAL_32KHZ_ReadStatus
1239:.\Generated_Source\PSoC5/CyLib.c **** ********************************************************************************
1240:.\Generated_Source\PSoC5/CyLib.c **** *
1241:.\Generated_Source\PSoC5/CyLib.c **** * Summary:
1242:.\Generated_Source\PSoC5/CyLib.c **** *  Returns status of the 32 KHz oscillator.
1243:.\Generated_Source\PSoC5/CyLib.c **** *
1244:.\Generated_Source\PSoC5/CyLib.c **** * Parameters:
1245:.\Generated_Source\PSoC5/CyLib.c **** *  None
1246:.\Generated_Source\PSoC5/CyLib.c **** *
1247:.\Generated_Source\PSoC5/CyLib.c **** * Return:
1248:.\Generated_Source\PSoC5/CyLib.c **** *  Value     Define                    Source
1249:.\Generated_Source\PSoC5/CyLib.c **** *  20        CY_XTAL32K_ANA_STAT       Analog measurement
ARM GAS  C:\Users\mjphi\AppData\Local\Temp\ccxjZhgg.s 			page 61


1250:.\Generated_Source\PSoC5/CyLib.c **** *                                       1: Stable
1251:.\Generated_Source\PSoC5/CyLib.c **** *                                       0: Not stable
1252:.\Generated_Source\PSoC5/CyLib.c **** *
1253:.\Generated_Source\PSoC5/CyLib.c **** *******************************************************************************/
1254:.\Generated_Source\PSoC5/CyLib.c **** uint8 CyXTAL_32KHZ_ReadStatus(void) 
1255:.\Generated_Source\PSoC5/CyLib.c **** {
 2160              		.loc 1 1255 0
 2161              		.cfi_startproc
 2162              		@ args = 0, pretend = 0, frame = 0
 2163              		@ frame_needed = 1, uses_anonymous_args = 0
 2164              		@ link register save eliminated.
 2165 0000 80B4     		push	{r7}
 2166              		.cfi_def_cfa_offset 4
 2167              		.cfi_offset 7, -4
 2168 0002 00AF     		add	r7, sp, #0
 2169              		.cfi_def_cfa_register 7
1256:.\Generated_Source\PSoC5/CyLib.c ****     return(CY_CLK_XTAL32_CR_REG & CY_XTAL32K_ANA_STAT);
 2170              		.loc 1 1256 0
 2171 0004 054B     		ldr	r3, .L161
 2172 0006 1B78     		ldrb	r3, [r3]
 2173 0008 DBB2     		uxtb	r3, r3
 2174 000a 03F02003 		and	r3, r3, #32
 2175 000e DBB2     		uxtb	r3, r3
1257:.\Generated_Source\PSoC5/CyLib.c **** }
 2176              		.loc 1 1257 0
 2177 0010 1846     		mov	r0, r3
 2178 0012 BD46     		mov	sp, r7
 2179              		.cfi_def_cfa_register 13
 2180              		@ sp needed
 2181 0014 5DF8047B 		ldr	r7, [sp], #4
 2182              		.cfi_restore 7
 2183              		.cfi_def_cfa_offset 0
 2184 0018 7047     		bx	lr
 2185              	.L162:
 2186 001a 00BF     		.align	2
 2187              	.L161:
 2188 001c 08430040 		.word	1073758984
 2189              		.cfi_endproc
 2190              	.LFE27:
 2191              		.size	CyXTAL_32KHZ_ReadStatus, .-CyXTAL_32KHZ_ReadStatus
 2192              		.section	.text.CyXTAL_32KHZ_SetPowerMode,"ax",%progbits
 2193              		.align	2
 2194              		.global	CyXTAL_32KHZ_SetPowerMode
 2195              		.thumb
 2196              		.thumb_func
 2197              		.type	CyXTAL_32KHZ_SetPowerMode, %function
 2198              	CyXTAL_32KHZ_SetPowerMode:
 2199              	.LFB28:
1258:.\Generated_Source\PSoC5/CyLib.c **** 
1259:.\Generated_Source\PSoC5/CyLib.c **** 
1260:.\Generated_Source\PSoC5/CyLib.c **** /*******************************************************************************
1261:.\Generated_Source\PSoC5/CyLib.c **** * Function Name: CyXTAL_32KHZ_SetPowerMode
1262:.\Generated_Source\PSoC5/CyLib.c **** ********************************************************************************
1263:.\Generated_Source\PSoC5/CyLib.c **** *
1264:.\Generated_Source\PSoC5/CyLib.c **** * Summary:
1265:.\Generated_Source\PSoC5/CyLib.c **** *  Sets the power mode for the 32 KHz oscillator used during the sleep mode.
1266:.\Generated_Source\PSoC5/CyLib.c **** *  Allows for lower power during sleep when there are fewer sources of noise.
ARM GAS  C:\Users\mjphi\AppData\Local\Temp\ccxjZhgg.s 			page 62


1267:.\Generated_Source\PSoC5/CyLib.c **** *  During the active mode the oscillator is always run in the high power mode.
1268:.\Generated_Source\PSoC5/CyLib.c **** *
1269:.\Generated_Source\PSoC5/CyLib.c **** * Parameters:
1270:.\Generated_Source\PSoC5/CyLib.c **** *  uint8 mode
1271:.\Generated_Source\PSoC5/CyLib.c **** *       0: High power mode
1272:.\Generated_Source\PSoC5/CyLib.c **** *       1: Low power mode during sleep
1273:.\Generated_Source\PSoC5/CyLib.c **** *
1274:.\Generated_Source\PSoC5/CyLib.c **** * Return:
1275:.\Generated_Source\PSoC5/CyLib.c **** *  Previous power mode.
1276:.\Generated_Source\PSoC5/CyLib.c **** *
1277:.\Generated_Source\PSoC5/CyLib.c **** *******************************************************************************/
1278:.\Generated_Source\PSoC5/CyLib.c **** uint8 CyXTAL_32KHZ_SetPowerMode(uint8 mode) 
1279:.\Generated_Source\PSoC5/CyLib.c **** {
 2200              		.loc 1 1279 0
 2201              		.cfi_startproc
 2202              		@ args = 0, pretend = 0, frame = 16
 2203              		@ frame_needed = 1, uses_anonymous_args = 0
 2204 0000 80B5     		push	{r7, lr}
 2205              		.cfi_def_cfa_offset 8
 2206              		.cfi_offset 7, -8
 2207              		.cfi_offset 14, -4
 2208 0002 84B0     		sub	sp, sp, #16
 2209              		.cfi_def_cfa_offset 24
 2210 0004 00AF     		add	r7, sp, #0
 2211              		.cfi_def_cfa_register 7
 2212 0006 0346     		mov	r3, r0
 2213 0008 FB71     		strb	r3, [r7, #7]
1280:.\Generated_Source\PSoC5/CyLib.c ****     uint8 state = (0u != (CY_CLK_XTAL32_CR_REG & CY_CLK_XTAL32_CR_LPM)) ? 1u : 0u;
 2214              		.loc 1 1280 0
 2215 000a 264B     		ldr	r3, .L169
 2216 000c 1B78     		ldrb	r3, [r3]
 2217 000e DBB2     		uxtb	r3, r3
 2218 0010 03F00203 		and	r3, r3, #2
 2219 0014 002B     		cmp	r3, #0
 2220 0016 01D0     		beq	.L164
 2221              		.loc 1 1280 0 is_stmt 0 discriminator 1
 2222 0018 0123     		movs	r3, #1
 2223 001a 00E0     		b	.L165
 2224              	.L164:
 2225              		.loc 1 1280 0 discriminator 2
 2226 001c 0023     		movs	r3, #0
 2227              	.L165:
 2228              		.loc 1 1280 0 discriminator 4
 2229 001e FB73     		strb	r3, [r7, #15]
1281:.\Generated_Source\PSoC5/CyLib.c **** 
1282:.\Generated_Source\PSoC5/CyLib.c ****     CY_CLK_XTAL32_TST_REG = CY_CLK_XTAL32_TST_DEFAULT;
 2230              		.loc 1 1282 0 is_stmt 1 discriminator 4
 2231 0020 214B     		ldr	r3, .L169+4
 2232 0022 F322     		movs	r2, #243
 2233 0024 1A70     		strb	r2, [r3]
1283:.\Generated_Source\PSoC5/CyLib.c **** 
1284:.\Generated_Source\PSoC5/CyLib.c ****     if(1u == mode)
 2234              		.loc 1 1284 0 discriminator 4
 2235 0026 FB79     		ldrb	r3, [r7, #7]	@ zero_extendqisi2
 2236 0028 012B     		cmp	r3, #1
 2237 002a 1CD1     		bne	.L166
1285:.\Generated_Source\PSoC5/CyLib.c ****     {
ARM GAS  C:\Users\mjphi\AppData\Local\Temp\ccxjZhgg.s 			page 63


1286:.\Generated_Source\PSoC5/CyLib.c ****         /* Low power mode during Sleep */
1287:.\Generated_Source\PSoC5/CyLib.c ****         CY_CLK_XTAL32_TR_REG  = CY_CLK_XTAL32_TR_LOW_POWER;
 2238              		.loc 1 1287 0
 2239 002c 1F4B     		ldr	r3, .L169+8
 2240 002e 0122     		movs	r2, #1
 2241 0030 1A70     		strb	r2, [r3]
1288:.\Generated_Source\PSoC5/CyLib.c ****         CyDelayUs(10u);
 2242              		.loc 1 1288 0
 2243 0032 0A20     		movs	r0, #10
 2244 0034 FFF7FEFF 		bl	CyDelayUs
1289:.\Generated_Source\PSoC5/CyLib.c ****         CY_CLK_XTAL32_CFG_REG = (CY_CLK_XTAL32_CFG_REG & ((uint8)(~CY_CLK_XTAL32_CFG_LP_MASK))) |
 2245              		.loc 1 1289 0
 2246 0038 1D4A     		ldr	r2, .L169+12
 2247 003a 1D4B     		ldr	r3, .L169+12
 2248 003c 1B78     		ldrb	r3, [r3]
 2249 003e DBB2     		uxtb	r3, r3
 2250 0040 23F00C03 		bic	r3, r3, #12
 2251 0044 DBB2     		uxtb	r3, r3
 2252 0046 43F00803 		orr	r3, r3, #8
 2253 004a DBB2     		uxtb	r3, r3
 2254 004c 1370     		strb	r3, [r2]
1290:.\Generated_Source\PSoC5/CyLib.c ****                                 CY_CLK_XTAL32_CFG_LP_LOWPOWER;
1291:.\Generated_Source\PSoC5/CyLib.c ****         CyDelayUs(20u);
 2255              		.loc 1 1291 0
 2256 004e 1420     		movs	r0, #20
 2257 0050 FFF7FEFF 		bl	CyDelayUs
1292:.\Generated_Source\PSoC5/CyLib.c ****         CY_CLK_XTAL32_CR_REG |= CY_CLK_XTAL32_CR_LPM;
 2258              		.loc 1 1292 0
 2259 0054 134A     		ldr	r2, .L169
 2260 0056 134B     		ldr	r3, .L169
 2261 0058 1B78     		ldrb	r3, [r3]
 2262 005a DBB2     		uxtb	r3, r3
 2263 005c 43F00203 		orr	r3, r3, #2
 2264 0060 DBB2     		uxtb	r3, r3
 2265 0062 1370     		strb	r3, [r2]
 2266 0064 18E0     		b	.L167
 2267              	.L166:
1293:.\Generated_Source\PSoC5/CyLib.c ****     }
1294:.\Generated_Source\PSoC5/CyLib.c ****     else
1295:.\Generated_Source\PSoC5/CyLib.c ****     {
1296:.\Generated_Source\PSoC5/CyLib.c ****         /* High power mode */
1297:.\Generated_Source\PSoC5/CyLib.c ****         CY_CLK_XTAL32_TR_REG  = CY_CLK_XTAL32_TR_HIGH_POWER;
 2268              		.loc 1 1297 0
 2269 0066 114B     		ldr	r3, .L169+8
 2270 0068 0622     		movs	r2, #6
 2271 006a 1A70     		strb	r2, [r3]
1298:.\Generated_Source\PSoC5/CyLib.c ****         CyDelayUs(10u);
 2272              		.loc 1 1298 0
 2273 006c 0A20     		movs	r0, #10
 2274 006e FFF7FEFF 		bl	CyDelayUs
1299:.\Generated_Source\PSoC5/CyLib.c ****         CY_CLK_XTAL32_CFG_REG = (CY_CLK_XTAL32_CFG_REG & ((uint8)(~CY_CLK_XTAL32_CFG_LP_MASK))) |
 2275              		.loc 1 1299 0
 2276 0072 0F4A     		ldr	r2, .L169+12
 2277 0074 0E4B     		ldr	r3, .L169+12
 2278 0076 1B78     		ldrb	r3, [r3]
 2279 0078 DBB2     		uxtb	r3, r3
 2280 007a 23F00C03 		bic	r3, r3, #12
ARM GAS  C:\Users\mjphi\AppData\Local\Temp\ccxjZhgg.s 			page 64


 2281 007e DBB2     		uxtb	r3, r3
 2282 0080 43F00403 		orr	r3, r3, #4
 2283 0084 DBB2     		uxtb	r3, r3
 2284 0086 1370     		strb	r3, [r2]
1300:.\Generated_Source\PSoC5/CyLib.c ****                                 CY_CLK_XTAL32_CFG_LP_DEFAULT;
1301:.\Generated_Source\PSoC5/CyLib.c ****         CY_CLK_XTAL32_CR_REG &= ((uint8)(~CY_CLK_XTAL32_CR_LPM));
 2285              		.loc 1 1301 0
 2286 0088 064A     		ldr	r2, .L169
 2287 008a 064B     		ldr	r3, .L169
 2288 008c 1B78     		ldrb	r3, [r3]
 2289 008e DBB2     		uxtb	r3, r3
 2290 0090 23F00203 		bic	r3, r3, #2
 2291 0094 DBB2     		uxtb	r3, r3
 2292 0096 1370     		strb	r3, [r2]
 2293              	.L167:
1302:.\Generated_Source\PSoC5/CyLib.c ****     }
1303:.\Generated_Source\PSoC5/CyLib.c **** 
1304:.\Generated_Source\PSoC5/CyLib.c ****     return(state);
 2294              		.loc 1 1304 0
 2295 0098 FB7B     		ldrb	r3, [r7, #15]	@ zero_extendqisi2
1305:.\Generated_Source\PSoC5/CyLib.c **** }
 2296              		.loc 1 1305 0
 2297 009a 1846     		mov	r0, r3
 2298 009c 1037     		adds	r7, r7, #16
 2299              		.cfi_def_cfa_offset 8
 2300 009e BD46     		mov	sp, r7
 2301              		.cfi_def_cfa_register 13
 2302              		@ sp needed
 2303 00a0 80BD     		pop	{r7, pc}
 2304              	.L170:
 2305 00a2 00BF     		.align	2
 2306              	.L169:
 2307 00a4 08430040 		.word	1073758984
 2308 00a8 0A430040 		.word	1073758986
 2309 00ac 98460040 		.word	1073759896
 2310 00b0 09430040 		.word	1073758985
 2311              		.cfi_endproc
 2312              	.LFE28:
 2313              		.size	CyXTAL_32KHZ_SetPowerMode, .-CyXTAL_32KHZ_SetPowerMode
 2314              		.section	.text.CyXTAL_Start,"ax",%progbits
 2315              		.align	2
 2316              		.global	CyXTAL_Start
 2317              		.thumb
 2318              		.thumb_func
 2319              		.type	CyXTAL_Start, %function
 2320              	CyXTAL_Start:
 2321              	.LFB29:
1306:.\Generated_Source\PSoC5/CyLib.c **** 
1307:.\Generated_Source\PSoC5/CyLib.c **** 
1308:.\Generated_Source\PSoC5/CyLib.c **** /*******************************************************************************
1309:.\Generated_Source\PSoC5/CyLib.c **** * Function Name: CyXTAL_Start
1310:.\Generated_Source\PSoC5/CyLib.c **** ********************************************************************************
1311:.\Generated_Source\PSoC5/CyLib.c **** *
1312:.\Generated_Source\PSoC5/CyLib.c **** * Summary:
1313:.\Generated_Source\PSoC5/CyLib.c **** *  Enables the megahertz crystal.
1314:.\Generated_Source\PSoC5/CyLib.c **** *
1315:.\Generated_Source\PSoC5/CyLib.c **** *  PSoC 3:
ARM GAS  C:\Users\mjphi\AppData\Local\Temp\ccxjZhgg.s 			page 65


1316:.\Generated_Source\PSoC5/CyLib.c **** *  Waits until the XERR bit is low (no error) for a millisecond or until the
1317:.\Generated_Source\PSoC5/CyLib.c **** *  number of milliseconds specified by the wait parameter has expired.
1318:.\Generated_Source\PSoC5/CyLib.c **** *
1319:.\Generated_Source\PSoC5/CyLib.c **** * Parameters:
1320:.\Generated_Source\PSoC5/CyLib.c **** *   wait: Valid range [0-255].
1321:.\Generated_Source\PSoC5/CyLib.c **** *   This is the timeout value in milliseconds.
1322:.\Generated_Source\PSoC5/CyLib.c **** *   The appropriate value is crystal specific.
1323:.\Generated_Source\PSoC5/CyLib.c **** *
1324:.\Generated_Source\PSoC5/CyLib.c **** * Return:
1325:.\Generated_Source\PSoC5/CyLib.c **** *   CYRET_SUCCESS - Completed successfully
1326:.\Generated_Source\PSoC5/CyLib.c **** *   CYRET_TIMEOUT - Timeout occurred without detecting a low value on XERR.
1327:.\Generated_Source\PSoC5/CyLib.c **** *
1328:.\Generated_Source\PSoC5/CyLib.c **** * Side Effects and Restrictions:
1329:.\Generated_Source\PSoC5/CyLib.c **** *  If wait is enabled (non-zero wait). Uses the Fast Timewheel to time the wait.
1330:.\Generated_Source\PSoC5/CyLib.c **** *  Any other use of the Fast Timewheel (FTW) will be stopped during the period
1331:.\Generated_Source\PSoC5/CyLib.c **** *  of this function and then restored.
1332:.\Generated_Source\PSoC5/CyLib.c **** *
1333:.\Generated_Source\PSoC5/CyLib.c **** *  Uses the 100KHz ILO.  If not enabled, this function will enable the 100KHz
1334:.\Generated_Source\PSoC5/CyLib.c **** *  ILO for the period of this function. No changes to the setup of the ILO,
1335:.\Generated_Source\PSoC5/CyLib.c **** *  Fast Timewheel, Central Timewheel or Once Per Second interrupt may be made
1336:.\Generated_Source\PSoC5/CyLib.c **** *  by interrupt routines during the period of this function.
1337:.\Generated_Source\PSoC5/CyLib.c **** *
1338:.\Generated_Source\PSoC5/CyLib.c **** *  The current operation of the ILO, Central Timewheel and Once Per Second
1339:.\Generated_Source\PSoC5/CyLib.c **** *  interrupt are maintained during the operation of this function provided the
1340:.\Generated_Source\PSoC5/CyLib.c **** *  reading of the Power Manager Interrupt Status Register is only done using the
1341:.\Generated_Source\PSoC5/CyLib.c **** *  CyPmReadStatus() function.
1342:.\Generated_Source\PSoC5/CyLib.c **** *
1343:.\Generated_Source\PSoC5/CyLib.c **** *******************************************************************************/
1344:.\Generated_Source\PSoC5/CyLib.c **** cystatus CyXTAL_Start(uint8 wait) 
1345:.\Generated_Source\PSoC5/CyLib.c **** {
 2322              		.loc 1 1345 0
 2323              		.cfi_startproc
 2324              		@ args = 0, pretend = 0, frame = 24
 2325              		@ frame_needed = 1, uses_anonymous_args = 0
 2326 0000 80B5     		push	{r7, lr}
 2327              		.cfi_def_cfa_offset 8
 2328              		.cfi_offset 7, -8
 2329              		.cfi_offset 14, -4
 2330 0002 86B0     		sub	sp, sp, #24
 2331              		.cfi_def_cfa_offset 32
 2332 0004 00AF     		add	r7, sp, #0
 2333              		.cfi_def_cfa_register 7
 2334 0006 0346     		mov	r3, r0
 2335 0008 FB71     		strb	r3, [r7, #7]
1346:.\Generated_Source\PSoC5/CyLib.c ****     cystatus status = CYRET_SUCCESS;
 2336              		.loc 1 1346 0
 2337 000a 0023     		movs	r3, #0
 2338 000c 7B61     		str	r3, [r7, #20]
1347:.\Generated_Source\PSoC5/CyLib.c ****     volatile uint8  timeout = wait;
 2339              		.loc 1 1347 0
 2340 000e FB79     		ldrb	r3, [r7, #7]
 2341 0010 3B74     		strb	r3, [r7, #16]
1348:.\Generated_Source\PSoC5/CyLib.c ****     volatile uint8 count;
1349:.\Generated_Source\PSoC5/CyLib.c ****     uint8 iloEnableState;
1350:.\Generated_Source\PSoC5/CyLib.c ****     uint8 pmTwCfg0Tmp;
1351:.\Generated_Source\PSoC5/CyLib.c ****     uint8 pmTwCfg2Tmp;
1352:.\Generated_Source\PSoC5/CyLib.c **** 
ARM GAS  C:\Users\mjphi\AppData\Local\Temp\ccxjZhgg.s 			page 66


1353:.\Generated_Source\PSoC5/CyLib.c **** 
1354:.\Generated_Source\PSoC5/CyLib.c ****     /* Enables MHz crystal oscillator circuit  */
1355:.\Generated_Source\PSoC5/CyLib.c ****     CY_CLK_XMHZ_CSR_REG |= CY_CLK_XMHZ_CSR_ENABLE;
 2342              		.loc 1 1355 0
 2343 0012 2B4A     		ldr	r2, .L182
 2344 0014 2A4B     		ldr	r3, .L182
 2345 0016 1B78     		ldrb	r3, [r3]
 2346 0018 DBB2     		uxtb	r3, r3
 2347 001a 43F00103 		orr	r3, r3, #1
 2348 001e DBB2     		uxtb	r3, r3
 2349 0020 1370     		strb	r3, [r2]
1356:.\Generated_Source\PSoC5/CyLib.c **** 
1357:.\Generated_Source\PSoC5/CyLib.c **** 
1358:.\Generated_Source\PSoC5/CyLib.c ****     if(wait > 0u)
 2350              		.loc 1 1358 0
 2351 0022 FB79     		ldrb	r3, [r7, #7]	@ zero_extendqisi2
 2352 0024 002B     		cmp	r3, #0
 2353 0026 46D0     		beq	.L172
1359:.\Generated_Source\PSoC5/CyLib.c ****     {
1360:.\Generated_Source\PSoC5/CyLib.c ****         /* Save 100 KHz ILO, FTW interval, enable and interrupt enable */
1361:.\Generated_Source\PSoC5/CyLib.c ****         iloEnableState = CY_LIB_SLOWCLK_ILO_CR0_REG;
 2354              		.loc 1 1361 0
 2355 0028 264B     		ldr	r3, .L182+4
 2356 002a 1B78     		ldrb	r3, [r3]
 2357 002c FB74     		strb	r3, [r7, #19]
1362:.\Generated_Source\PSoC5/CyLib.c ****         pmTwCfg0Tmp = CY_LIB_PM_TW_CFG0_REG;
 2358              		.loc 1 1362 0
 2359 002e 264B     		ldr	r3, .L182+8
 2360 0030 1B78     		ldrb	r3, [r3]
 2361 0032 BB74     		strb	r3, [r7, #18]
1363:.\Generated_Source\PSoC5/CyLib.c ****         pmTwCfg2Tmp = CY_LIB_PM_TW_CFG2_REG;
 2362              		.loc 1 1363 0
 2363 0034 254B     		ldr	r3, .L182+12
 2364 0036 1B78     		ldrb	r3, [r3]
 2365 0038 7B74     		strb	r3, [r7, #17]
1364:.\Generated_Source\PSoC5/CyLib.c **** 
1365:.\Generated_Source\PSoC5/CyLib.c ****         /* Set 250 us interval */
1366:.\Generated_Source\PSoC5/CyLib.c ****         CyPmFtwSetInterval(CY_CLK_XMHZ_FTW_INTERVAL);
 2366              		.loc 1 1366 0
 2367 003a 1820     		movs	r0, #24
 2368 003c FFF7FEFF 		bl	CyPmFtwSetInterval
1367:.\Generated_Source\PSoC5/CyLib.c ****         status = CYRET_TIMEOUT;
 2369              		.loc 1 1367 0
 2370 0040 1023     		movs	r3, #16
 2371 0042 7B61     		str	r3, [r7, #20]
1368:.\Generated_Source\PSoC5/CyLib.c **** 
1369:.\Generated_Source\PSoC5/CyLib.c **** 
1370:.\Generated_Source\PSoC5/CyLib.c ****         for( ; timeout > 0u; timeout--)
 2372              		.loc 1 1370 0
 2373 0044 26E0     		b	.L173
 2374              	.L179:
1371:.\Generated_Source\PSoC5/CyLib.c ****         {
1372:.\Generated_Source\PSoC5/CyLib.c ****             /* Read XERR bit to clear it */
1373:.\Generated_Source\PSoC5/CyLib.c ****             (void) CY_CLK_XMHZ_CSR_REG;
 2375              		.loc 1 1373 0
 2376 0046 1E4B     		ldr	r3, .L182
 2377 0048 1B78     		ldrb	r3, [r3]
ARM GAS  C:\Users\mjphi\AppData\Local\Temp\ccxjZhgg.s 			page 67


1374:.\Generated_Source\PSoC5/CyLib.c **** 
1375:.\Generated_Source\PSoC5/CyLib.c ****             /* Wait for 1 millisecond - 4 x 250 us */
1376:.\Generated_Source\PSoC5/CyLib.c ****             for(count = 4u; count > 0u; count--)
 2378              		.loc 1 1376 0
 2379 004a 0423     		movs	r3, #4
 2380 004c FB73     		strb	r3, [r7, #15]
 2381 004e 0EE0     		b	.L174
 2382              	.L176:
1377:.\Generated_Source\PSoC5/CyLib.c ****             {
1378:.\Generated_Source\PSoC5/CyLib.c ****                 while(0u == (CY_PM_FTW_INT & CyPmReadStatus(CY_PM_FTW_INT)))
 2383              		.loc 1 1378 0
 2384 0050 00BF     		nop
 2385              	.L175:
 2386              		.loc 1 1378 0 is_stmt 0 discriminator 1
 2387 0052 0120     		movs	r0, #1
 2388 0054 FFF7FEFF 		bl	CyPmReadStatus
 2389 0058 0346     		mov	r3, r0
 2390 005a 03F00103 		and	r3, r3, #1
 2391 005e DBB2     		uxtb	r3, r3
 2392 0060 002B     		cmp	r3, #0
 2393 0062 F6D0     		beq	.L175
1376:.\Generated_Source\PSoC5/CyLib.c ****             {
 2394              		.loc 1 1376 0 is_stmt 1 discriminator 2
 2395 0064 FB7B     		ldrb	r3, [r7, #15]
 2396 0066 DBB2     		uxtb	r3, r3
 2397 0068 013B     		subs	r3, r3, #1
 2398 006a DBB2     		uxtb	r3, r3
 2399 006c FB73     		strb	r3, [r7, #15]
 2400              	.L174:
1376:.\Generated_Source\PSoC5/CyLib.c ****             {
 2401              		.loc 1 1376 0 is_stmt 0 discriminator 1
 2402 006e FB7B     		ldrb	r3, [r7, #15]
 2403 0070 DBB2     		uxtb	r3, r3
 2404 0072 002B     		cmp	r3, #0
 2405 0074 ECD1     		bne	.L176
1379:.\Generated_Source\PSoC5/CyLib.c ****                 {
1380:.\Generated_Source\PSoC5/CyLib.c ****                     /* Wait for FTW interrupt event */
1381:.\Generated_Source\PSoC5/CyLib.c ****                 }
1382:.\Generated_Source\PSoC5/CyLib.c ****             }
1383:.\Generated_Source\PSoC5/CyLib.c **** 
1384:.\Generated_Source\PSoC5/CyLib.c **** 
1385:.\Generated_Source\PSoC5/CyLib.c ****             /*******************************************************************
1386:.\Generated_Source\PSoC5/CyLib.c ****             * High output indicates an oscillator failure.
1387:.\Generated_Source\PSoC5/CyLib.c ****             * Only can be used after a start-up interval (1 ms) is completed.
1388:.\Generated_Source\PSoC5/CyLib.c ****             *******************************************************************/
