ARM GAS  C:\Users\mjphi\AppData\Local\Temp\ccvmRHsw.s 			page 1


   1              		.syntax unified
   2              		.cpu cortex-m3
   3              		.fpu softvfp
   4              		.eabi_attribute 20, 1
   5              		.eabi_attribute 21, 1
   6              		.eabi_attribute 23, 3
   7              		.eabi_attribute 24, 1
   8              		.eabi_attribute 25, 1
   9              		.eabi_attribute 26, 1
  10              		.eabi_attribute 30, 6
  11              		.eabi_attribute 34, 1
  12              		.eabi_attribute 18, 4
  13              		.thumb
  14              		.file	"cymetadata.c"
  15              		.text
  16              	.Ltext0:
  17              		.cfi_sections	.debug_frame
  18              		.global	cy_meta_configecc
  19              		.section	.cyconfigecc,"a",%progbits
  20              		.align	2
  21              		.type	cy_meta_configecc, %object
  22              		.size	cy_meta_configecc, 152
  23              	cy_meta_configecc:
  24 0000 02       		.byte	2
  25 0001 52       		.byte	82
  26 0002 00       		.byte	0
  27 0003 40       		.byte	64
  28 0004 01       		.byte	1
  29 0005 09       		.byte	9
  30 0006 01       		.byte	1
  31 0007 40       		.byte	64
  32 0008 04       		.byte	4
  33 0009 0A       		.byte	10
  34 000a 01       		.byte	1
  35 000b 40       		.byte	64
  36 000c 01       		.byte	1
  37 000d 0B       		.byte	11
  38 000e 01       		.byte	1
  39 000f 40       		.byte	64
  40 0010 01       		.byte	1
  41 0011 15       		.byte	21
  42 0012 01       		.byte	1
  43 0013 40       		.byte	64
  44 0014 01       		.byte	1
  45 0015 1B       		.byte	27
  46 0016 01       		.byte	1
  47 0017 40       		.byte	64
  48 0018 02       		.byte	2
  49 0019 44       		.byte	68
  50 001a 01       		.byte	1
  51 001b 40       		.byte	64
  52 001c 01       		.byte	1
  53 001d 45       		.byte	69
  54 001e 01       		.byte	1
  55 001f 40       		.byte	64
  56 0020 03       		.byte	3
  57 0021 46       		.byte	70
ARM GAS  C:\Users\mjphi\AppData\Local\Temp\ccvmRHsw.s 			page 2


  58 0022 01       		.byte	1
  59 0023 40       		.byte	64
  60 0024 03       		.byte	3
  61 0025 47       		.byte	71
  62 0026 01       		.byte	1
  63 0027 40       		.byte	64
  64 0028 02       		.byte	2
  65 0029 48       		.byte	72
  66 002a 01       		.byte	1
  67 002b 40       		.byte	64
  68 002c 01       		.byte	1
  69 002d 49       		.byte	73
  70 002e 01       		.byte	1
  71 002f 40       		.byte	64
  72 0030 01       		.byte	1
  73 0031 4C       		.byte	76
  74 0032 01       		.byte	1
  75 0033 40       		.byte	64
  76 0034 02       		.byte	2
  77 0035 4D       		.byte	77
  78 0036 01       		.byte	1
  79 0037 40       		.byte	64
  80 0038 34       		.byte	52
  81 0039 30       		.byte	48
  82 003a 64       		.byte	100
  83 003b 30       		.byte	48
  84 003c B5       		.byte	-75
  85 003d 02       		.byte	2
  86 003e B8       		.byte	-72
  87 003f 02       		.byte	2
  88 0040 BE       		.byte	-66
  89 0041 01       		.byte	1
  90 0042 D8       		.byte	-40
  91 0043 04       		.byte	4
  92 0044 DF       		.byte	-33
  93 0045 01       		.byte	1
  94 0046 1D       		.byte	29
  95 0047 02       		.byte	2
  96 0048 EC       		.byte	-20
  97 0049 10       		.byte	16
  98 004a EC       		.byte	-20
  99 004b 10       		.byte	16
 100 004c 7C       		.byte	124
 101 004d 01       		.byte	1
 102 004e DE       		.byte	-34
 103 004f 01       		.byte	1
 104 0050 94       		.byte	-108
 105 0051 01       		.byte	1
 106 0052 45       		.byte	69
 107 0053 08       		.byte	8
 108 0054 94       		.byte	-108
 109 0055 01       		.byte	1
 110 0056 D0       		.byte	-48
 111 0057 01       		.byte	1
 112 0058 A5       		.byte	-91
 113 0059 08       		.byte	8
 114 005a B4       		.byte	-76
ARM GAS  C:\Users\mjphi\AppData\Local\Temp\ccvmRHsw.s 			page 3


 115 005b 01       		.byte	1
 116 005c EC       		.byte	-20
 117 005d 08       		.byte	8
 118 005e 25       		.byte	37
 119 005f 10       		.byte	16
 120 0060 C8       		.byte	-56
 121 0061 20       		.byte	32
 122 0062 B5       		.byte	-75
 123 0063 10       		.byte	16
 124 0064 A5       		.byte	-91
 125 0065 08       		.byte	8
 126 0066 B5       		.byte	-75
 127 0067 08       		.byte	8
 128 0068 EC       		.byte	-20
 129 0069 08       		.byte	8
 130 006a 00       		.byte	0
 131 006b 00       		.byte	0
 132 006c 20       		.byte	32
 133 006d 00       		.byte	0
 134 006e 00       		.byte	0
 135 006f 20       		.byte	32
 136 0070 10       		.byte	16
 137 0071 00       		.byte	0
 138 0072 00       		.byte	0
 139 0073 00       		.byte	0
 140 0074 00       		.byte	0
 141 0075 00       		.byte	0
 142 0076 00       		.byte	0
 143 0077 00       		.byte	0
 144 0078 00       		.byte	0
 145 0079 00       		.byte	0
 146 007a 00       		.byte	0
 147 007b 00       		.byte	0
 148 007c 00       		.byte	0
 149 007d 00       		.byte	0
 150 007e 10       		.byte	16
 151 007f 00       		.byte	0
 152 0080 00       		.byte	0
 153 0081 FC       		.byte	-4
 154 0082 FC       		.byte	-4
 155 0083 00       		.byte	0
 156 0084 00       		.byte	0
 157 0085 00       		.byte	0
 158 0086 00       		.byte	0
 159 0087 00       		.byte	0
 160 0088 30       		.byte	48
 161 0089 00       		.byte	0
 162 008a 00       		.byte	0
 163 008b 30       		.byte	48
 164 008c 00       		.byte	0
 165 008d 00       		.byte	0
 166 008e 00       		.byte	0
 167 008f 00       		.byte	0
 168 0090 00       		.byte	0
 169 0091 00       		.byte	0
 170 0092 00       		.byte	0
 171 0093 00       		.byte	0
ARM GAS  C:\Users\mjphi\AppData\Local\Temp\ccvmRHsw.s 			page 4


 172 0094 67       		.byte	103
 173 0095 00       		.byte	0
 174 0096 18       		.byte	24
 175 0097 01       		.byte	1
 176              		.global	cy_meta_custnvl
 177              		.section	.cycustnvl,"a",%progbits
 178              		.align	2
 179              		.type	cy_meta_custnvl, %object
 180              		.size	cy_meta_custnvl, 4
 181              	cy_meta_custnvl:
 182 0000 00       		.byte	0
 183 0001 00       		.byte	0
 184 0002 40       		.byte	64
 185 0003 05       		.byte	5
 186              		.global	cy_meta_wonvl
 187              		.section	.cywolatch,"a",%progbits
 188              		.align	2
 189              		.type	cy_meta_wonvl, %object
 190              		.size	cy_meta_wonvl, 4
 191              	cy_meta_wonvl:
 192 0000 BC       		.byte	-68
 193 0001 90       		.byte	-112
 194 0002 AC       		.byte	-84
 195 0003 AF       		.byte	-81
 196              		.global	cy_meta_flashprotect
 197              		.section	.cyflashprotect,"a",%progbits
 198              		.align	2
 199              		.type	cy_meta_flashprotect, %object
 200              		.size	cy_meta_flashprotect, 256
 201              	cy_meta_flashprotect:
 202 0000 00000000 		.space	256
 202      00000000 
 202      00000000 
 202      00000000 
 202      00000000 
 203              		.global	cy_metadata
 204              		.section	.cymeta,"a",%progbits
 205              		.align	2
 206              		.type	cy_metadata, %object
 207              		.size	cy_metadata, 12
 208              	cy_metadata:
 209 0000 00       		.byte	0
 210 0001 01       		.byte	1
 211 0002 2E       		.byte	46
 212 0003 16       		.byte	22
 213 0004 00       		.byte	0
 214 0005 69       		.byte	105
 215 0006 00       		.byte	0
 216 0007 01       		.byte	1
 217 0008 00       		.byte	0
 218 0009 00       		.byte	0
 219 000a 00       		.byte	0
 220 000b 00       		.byte	0
 221              		.text
 222              	.Letext0:
 223              		.file 1 ".\\Generated_Source\\PSoC5\\cymetadata.c"
 224              		.file 2 ".\\Generated_Source\\PSoC5\\cytypes.h"
ARM GAS  C:\Users\mjphi\AppData\Local\Temp\ccvmRHsw.s 			page 5


