ARM GAS  C:\Users\mjphi\AppData\Local\Temp\cco5j2jf.s 			page 1


   1              		.syntax unified
   2              		.cpu cortex-m3
   3              		.fpu softvfp
   4              		.eabi_attribute 20, 1
   5              		.eabi_attribute 21, 1
   6              		.eabi_attribute 23, 3
   7              		.eabi_attribute 24, 1
   8              		.eabi_attribute 25, 1
   9              		.eabi_attribute 26, 1
  10              		.eabi_attribute 30, 6
  11              		.eabi_attribute 34, 1
  12              		.eabi_attribute 18, 4
  13              		.thumb
  14              		.file	"main.c"
  15              		.text
  16              	.Ltext0:
  17              		.cfi_sections	.debug_frame
  18              		.comm	Cmd_SetData,1,1
  19              		.comm	Cmd_SetAddr,1,1
  20              		.comm	Cmd_DispCtrl,1,1
  21              		.comm	DisplayPointFlag,1,1
  22              		.comm	DisplayBrigtness,1,1
  23              		.comm	lightoutput,2,2
  24              		.global	mute
  25              		.bss
  26              		.type	mute, %object
  27              		.size	mute, 1
  28              	mute:
  29 0000 00       		.space	1
  30              		.section	.text.vApplicationMallocFailedHook,"ax",%progbits
  31              		.align	2
  32              		.global	vApplicationMallocFailedHook
  33              		.thumb
  34              		.thumb_func
  35              		.type	vApplicationMallocFailedHook, %function
  36              	vApplicationMallocFailedHook:
  37              	.LFB64:
  38              		.file 1 ".\\main.c"
   1:.\main.c      **** 
   2:.\main.c      **** #include "device.h"
   3:.\main.c      **** #include "FreeRTOS.h"
   4:.\main.c      **** #include "port.h"
   5:.\main.c      **** #include "task.h"
   6:.\main.c      **** #include "math.h"
   7:.\main.c      **** #include "stdlib.h"
   8:.\main.c      **** #include "complex.h"
   9:.\main.c      **** #include "TM1636.h"
  10:.\main.c      **** 
  11:.\main.c      **** //-Declare the resistance of the resistor that connects with the temperature sensor-//
  12:.\main.c      **** #define RESISTOR_CONNECT_THERMISTOR	10000//the resistance is 8k ohm
  13:.\main.c      **** 
  14:.\main.c      **** #define FOREVER (1 == 1)
  15:.\main.c      **** 
  16:.\main.c      **** /* Blink task parameters */
  17:.\main.c      **** #define BLINK_STACK_SIZE 64
  18:.\main.c      **** 
  19:.\main.c      **** int16_t lightoutput;
ARM GAS  C:\Users\mjphi\AppData\Local\Temp\cco5j2jf.s 			page 2


  20:.\main.c      **** int8_t mute = 0;
  21:.\main.c      **** 
  22:.\main.c      **** static void Check_Buttons_Task(void *parm);
  23:.\main.c      **** static void Update_Display_Task(void *parm);
  24:.\main.c      **** static void Light_Sensor_Task (void *parm);
  25:.\main.c      **** static void Alarm_Task(void *parm);
  26:.\main.c      **** 
  27:.\main.c      **** 
  28:.\main.c      **** /*
  29:.\main.c      ****  * Installs the RTOS interrupt handlers and starts the peripherals.
  30:.\main.c      ****  */
  31:.\main.c      **** static void prvHardwareSetup( void );
  32:.\main.c      **** /*---------------------------------------------------------------------------*/
  33:.\main.c      **** 
  34:.\main.c      **** 
  35:.\main.c      **** void vApplicationMallocFailedHook(void)
  36:.\main.c      **** {
  39              		.loc 1 36 0
  40              		.cfi_startproc
  41              		@ args = 0, pretend = 0, frame = 0
  42              		@ frame_needed = 1, uses_anonymous_args = 0
  43              		@ link register save eliminated.
  44 0000 80B4     		push	{r7}
  45              		.cfi_def_cfa_offset 4
  46              		.cfi_offset 7, -4
  47 0002 00AF     		add	r7, sp, #0
  48              		.cfi_def_cfa_register 7
  37:.\main.c      ****     /* The heap space has been execeeded. */
  38:.\main.c      **** }
  49              		.loc 1 38 0
  50 0004 BD46     		mov	sp, r7
  51              		.cfi_def_cfa_register 13
  52              		@ sp needed
  53 0006 5DF8047B 		ldr	r7, [sp], #4
  54              		.cfi_restore 7
  55              		.cfi_def_cfa_offset 0
  56 000a 7047     		bx	lr
  57              		.cfi_endproc
  58              	.LFE64:
  59              		.size	vApplicationMallocFailedHook, .-vApplicationMallocFailedHook
  60              		.section	.text.vApplicationStackOverflowHook,"ax",%progbits
  61              		.align	2
  62              		.global	vApplicationStackOverflowHook
  63              		.thumb
  64              		.thumb_func
  65              		.type	vApplicationStackOverflowHook, %function
  66              	vApplicationStackOverflowHook:
  67              	.LFB65:
  39:.\main.c      **** 
  40:.\main.c      **** void vApplicationStackOverflowHook(void)
  41:.\main.c      **** {
  68              		.loc 1 41 0
  69              		.cfi_startproc
  70              		@ args = 0, pretend = 0, frame = 0
  71              		@ frame_needed = 1, uses_anonymous_args = 0
  72              		@ link register save eliminated.
  73 0000 80B4     		push	{r7}
ARM GAS  C:\Users\mjphi\AppData\Local\Temp\cco5j2jf.s 			page 3


  74              		.cfi_def_cfa_offset 4
  75              		.cfi_offset 7, -4
  76 0002 00AF     		add	r7, sp, #0
  77              		.cfi_def_cfa_register 7
  42:.\main.c      ****     /* The stack space has been overflowed */
  43:.\main.c      **** }
  78              		.loc 1 43 0
  79 0004 BD46     		mov	sp, r7
  80              		.cfi_def_cfa_register 13
  81              		@ sp needed
  82 0006 5DF8047B 		ldr	r7, [sp], #4
  83              		.cfi_restore 7
  84              		.cfi_def_cfa_offset 0
  85 000a 7047     		bx	lr
  86              		.cfi_endproc
  87              	.LFE65:
  88              		.size	vApplicationStackOverflowHook, .-vApplicationStackOverflowHook
  89              		.section	.rodata
  90              		.align	2
  91              	.LC0:
  92 0000 42757474 		.ascii	"Buttons\000"
  92      6F6E7300 
  93              		.align	2
  94              	.LC1:
  95 0008 44697370 		.ascii	"Display\000"
  95      6C617900 
  96              		.align	2
  97              	.LC2:
  98 0010 53656E73 		.ascii	"Sensor\000"
  98      6F7200
  99 0017 00       		.align	2
 100              	.LC3:
 101 0018 416C6172 		.ascii	"Alarm\000"
 101      6D00
 102 001e 0000     		.section	.text.main,"ax",%progbits
 103              		.align	2
 104              		.global	main
 105              		.thumb
 106              		.thumb_func
 107              		.type	main, %function
 108              	main:
 109              	.LFB66:
  44:.\main.c      **** 
  45:.\main.c      **** 
  46:.\main.c      **** int main( void )
  47:.\main.c      **** {
 110              		.loc 1 47 0
 111              		.cfi_startproc
 112              		@ args = 0, pretend = 0, frame = 0
 113              		@ frame_needed = 1, uses_anonymous_args = 0
 114 0000 80B5     		push	{r7, lr}
 115              		.cfi_def_cfa_offset 8
 116              		.cfi_offset 7, -8
 117              		.cfi_offset 14, -4
 118 0002 84B0     		sub	sp, sp, #16
 119              		.cfi_def_cfa_offset 24
 120 0004 04AF     		add	r7, sp, #16
ARM GAS  C:\Users\mjphi\AppData\Local\Temp\cco5j2jf.s 			page 4


 121              		.cfi_def_cfa 7, 8
  48:.\main.c      ****     /* Place your initialization/startup code here (e.g. MyInst_Start()) */
  49:.\main.c      **** 	prvHardwareSetup();
 122              		.loc 1 49 0
 123 0006 FFF7FEFF 		bl	prvHardwareSetup
  50:.\main.c      ****        
  51:.\main.c      ****     /* Start ADC, AMux, OpAmp components */
  52:.\main.c      **** 	ADC_DelSig_1_Start();
 124              		.loc 1 52 0
 125 000a FFF7FEFF 		bl	ADC_DelSig_1_Start
  53:.\main.c      ****     
  54:.\main.c      ****     /* Start the ADC conversion */
  55:.\main.c      ****     ADC_DelSig_1_StartConvert();
 126              		.loc 1 55 0
 127 000e FFF7FEFF 		bl	ADC_DelSig_1_StartConvert
  56:.\main.c      ****     
  57:.\main.c      ****     /*Initialize Display*/
  58:.\main.c      ****     TM1636init();
 128              		.loc 1 58 0
 129 0012 FFF7FEFF 		bl	TM1636init
  59:.\main.c      ****     
  60:.\main.c      ****     /* Create the tasks */
  61:.\main.c      ****     ( void ) xTaskCreate( Check_Buttons_Task, "Buttons", BLINK_STACK_SIZE, NULL, 1, NULL );
 130              		.loc 1 61 0
 131 0016 0123     		movs	r3, #1
 132 0018 0093     		str	r3, [sp]
 133 001a 0023     		movs	r3, #0
 134 001c 0193     		str	r3, [sp, #4]
 135 001e 0023     		movs	r3, #0
 136 0020 0293     		str	r3, [sp, #8]
 137 0022 0023     		movs	r3, #0
 138 0024 0393     		str	r3, [sp, #12]
 139 0026 1948     		ldr	r0, .L5
 140 0028 1949     		ldr	r1, .L5+4
 141 002a 4022     		movs	r2, #64
 142 002c 0023     		movs	r3, #0
 143 002e FFF7FEFF 		bl	xTaskGenericCreate
  62:.\main.c      ****     ( void ) xTaskCreate( Update_Display_Task, "Display", BLINK_STACK_SIZE, NULL, 1, NULL );
 144              		.loc 1 62 0
 145 0032 0123     		movs	r3, #1
 146 0034 0093     		str	r3, [sp]
 147 0036 0023     		movs	r3, #0
 148 0038 0193     		str	r3, [sp, #4]
 149 003a 0023     		movs	r3, #0
 150 003c 0293     		str	r3, [sp, #8]
 151 003e 0023     		movs	r3, #0
 152 0040 0393     		str	r3, [sp, #12]
 153 0042 1448     		ldr	r0, .L5+8
 154 0044 1449     		ldr	r1, .L5+12
 155 0046 4022     		movs	r2, #64
 156 0048 0023     		movs	r3, #0
 157 004a FFF7FEFF 		bl	xTaskGenericCreate
  63:.\main.c      ****     ( void ) xTaskCreate( Light_Sensor_Task, "Sensor", BLINK_STACK_SIZE, NULL, 1, NULL );
 158              		.loc 1 63 0
 159 004e 0123     		movs	r3, #1
 160 0050 0093     		str	r3, [sp]
 161 0052 0023     		movs	r3, #0
ARM GAS  C:\Users\mjphi\AppData\Local\Temp\cco5j2jf.s 			page 5


 162 0054 0193     		str	r3, [sp, #4]
 163 0056 0023     		movs	r3, #0
 164 0058 0293     		str	r3, [sp, #8]
 165 005a 0023     		movs	r3, #0
 166 005c 0393     		str	r3, [sp, #12]
 167 005e 0F48     		ldr	r0, .L5+16
 168 0060 0F49     		ldr	r1, .L5+20
 169 0062 4022     		movs	r2, #64
 170 0064 0023     		movs	r3, #0
 171 0066 FFF7FEFF 		bl	xTaskGenericCreate
  64:.\main.c      ****     ( void ) xTaskCreate( Alarm_Task, "Alarm", BLINK_STACK_SIZE, NULL, 1, NULL );
 172              		.loc 1 64 0
 173 006a 0123     		movs	r3, #1
 174 006c 0093     		str	r3, [sp]
 175 006e 0023     		movs	r3, #0
 176 0070 0193     		str	r3, [sp, #4]
 177 0072 0023     		movs	r3, #0
 178 0074 0293     		str	r3, [sp, #8]
 179 0076 0023     		movs	r3, #0
 180 0078 0393     		str	r3, [sp, #12]
 181 007a 0A48     		ldr	r0, .L5+24
 182 007c 0A49     		ldr	r1, .L5+28
 183 007e 4022     		movs	r2, #64
 184 0080 0023     		movs	r3, #0
 185 0082 FFF7FEFF 		bl	xTaskGenericCreate
  65:.\main.c      ****     
  66:.\main.c      ****     /* Start the OS */
  67:.\main.c      ****     vTaskStartScheduler();
 186              		.loc 1 67 0
 187 0086 FFF7FEFF 		bl	vTaskStartScheduler
 188              	.L4:
  68:.\main.c      ****     
  69:.\main.c      ****     /*NOTREACHED*/
  70:.\main.c      ****     for(;;);
 189              		.loc 1 70 0 discriminator 1
 190 008a FEE7     		b	.L4
 191              	.L6:
 192              		.align	2
 193              	.L5:
 194 008c 00000000 		.word	Check_Buttons_Task
 195 0090 00000000 		.word	.LC0
 196 0094 00000000 		.word	Update_Display_Task
 197 0098 08000000 		.word	.LC1
 198 009c 00000000 		.word	Light_Sensor_Task
 199 00a0 10000000 		.word	.LC2
 200 00a4 00000000 		.word	Alarm_Task
 201 00a8 18000000 		.word	.LC3
 202              		.cfi_endproc
 203              	.LFE66:
 204              		.size	main, .-main
 205              		.section	.text.prvHardwareSetup,"ax",%progbits
 206              		.align	2
 207              		.thumb
 208              		.thumb_func
 209              		.type	prvHardwareSetup, %function
 210              	prvHardwareSetup:
 211              	.LFB67:
ARM GAS  C:\Users\mjphi\AppData\Local\Temp\cco5j2jf.s 			page 6


  71:.\main.c      **** }
  72:.\main.c      **** 
  73:.\main.c      **** void prvHardwareSetup( void )
  74:.\main.c      **** {
 212              		.loc 1 74 0
 213              		.cfi_startproc
 214              		@ args = 0, pretend = 0, frame = 0
 215              		@ frame_needed = 1, uses_anonymous_args = 0
 216              		@ link register save eliminated.
 217 0000 80B4     		push	{r7}
 218              		.cfi_def_cfa_offset 4
 219              		.cfi_offset 7, -4
 220 0002 00AF     		add	r7, sp, #0
 221              		.cfi_def_cfa_register 7
  75:.\main.c      ****     /* Port layer functions that need to be copied into the vector table. */
  76:.\main.c      ****     extern void xPortPendSVHandler( void );
  77:.\main.c      ****     extern void xPortSysTickHandler( void );
  78:.\main.c      ****     extern void vPortSVCHandler( void );
  79:.\main.c      ****     extern cyisraddress CyRamVectors[];
  80:.\main.c      **** 
  81:.\main.c      **** 	/* Install the OS Interrupt Handlers. */
  82:.\main.c      **** 	CyRamVectors[ 11 ] = ( cyisraddress ) vPortSVCHandler;
 222              		.loc 1 82 0
 223 0004 064B     		ldr	r3, .L8
 224 0006 074A     		ldr	r2, .L8+4
 225 0008 DA62     		str	r2, [r3, #44]
  83:.\main.c      **** 	CyRamVectors[ 14 ] = ( cyisraddress ) xPortPendSVHandler;
 226              		.loc 1 83 0
 227 000a 054B     		ldr	r3, .L8
 228 000c 064A     		ldr	r2, .L8+8
 229 000e 9A63     		str	r2, [r3, #56]
  84:.\main.c      **** 	CyRamVectors[ 15 ] = ( cyisraddress ) xPortSysTickHandler;
 230              		.loc 1 84 0
 231 0010 034B     		ldr	r3, .L8
 232 0012 064A     		ldr	r2, .L8+12
 233 0014 DA63     		str	r2, [r3, #60]
  85:.\main.c      **** 
  86:.\main.c      **** 	/* Start-up the peripherals. */
  87:.\main.c      **** }
 234              		.loc 1 87 0
 235 0016 BD46     		mov	sp, r7
 236              		.cfi_def_cfa_register 13
 237              		@ sp needed
 238 0018 5DF8047B 		ldr	r7, [sp], #4
 239              		.cfi_restore 7
 240              		.cfi_def_cfa_offset 0
 241 001c 7047     		bx	lr
 242              	.L9:
 243 001e 00BF     		.align	2
 244              	.L8:
 245 0020 00000000 		.word	CyRamVectors
 246 0024 00000000 		.word	vPortSVCHandler
 247 0028 00000000 		.word	xPortPendSVHandler
 248 002c 00000000 		.word	xPortSysTickHandler
 249              		.cfi_endproc
 250              	.LFE67:
 251              		.size	prvHardwareSetup, .-prvHardwareSetup
ARM GAS  C:\Users\mjphi\AppData\Local\Temp\cco5j2jf.s 			page 7


 252              		.section	.text.Check_Buttons_Task,"ax",%progbits
 253              		.align	2
 254              		.thumb
 255              		.thumb_func
 256              		.type	Check_Buttons_Task, %function
 257              	Check_Buttons_Task:
 258              	.LFB68:
  88:.\main.c      **** /*---------------------------------------------------------------------------*/
  89:.\main.c      **** 
  90:.\main.c      **** static void Check_Buttons_Task(void *parm){
 259              		.loc 1 90 0
 260              		.cfi_startproc
 261              		@ args = 0, pretend = 0, frame = 8
 262              		@ frame_needed = 1, uses_anonymous_args = 0
 263 0000 80B5     		push	{r7, lr}
 264              		.cfi_def_cfa_offset 8
 265              		.cfi_offset 7, -8
 266              		.cfi_offset 14, -4
 267 0002 82B0     		sub	sp, sp, #8
 268              		.cfi_def_cfa_offset 16
 269 0004 00AF     		add	r7, sp, #0
 270              		.cfi_def_cfa_register 7
 271 0006 7860     		str	r0, [r7, #4]
 272              	.L13:
  91:.\main.c      ****     (void) parm;
  92:.\main.c      ****     
  93:.\main.c      ****     while(FOREVER){
  94:.\main.c      ****         if(sw1_Read() == 0){
 273              		.loc 1 94 0
 274 0008 FFF7FEFF 		bl	sw1_Read
 275 000c 0346     		mov	r3, r0
 276 000e 002B     		cmp	r3, #0
 277 0010 10D1     		bne	.L11
  95:.\main.c      ****             mute = !mute;
 278              		.loc 1 95 0
 279 0012 0A4B     		ldr	r3, .L14
 280 0014 1B78     		ldrb	r3, [r3]	@ zero_extendqisi2
 281 0016 5BB2     		sxtb	r3, r3
 282 0018 002B     		cmp	r3, #0
 283 001a 0CBF     		ite	eq
 284 001c 0123     		moveq	r3, #1
 285 001e 0023     		movne	r3, #0
 286 0020 DBB2     		uxtb	r3, r3
 287 0022 DAB2     		uxtb	r2, r3
 288 0024 054B     		ldr	r3, .L14
 289 0026 1A70     		strb	r2, [r3]
  96:.\main.c      ****             while(sw1_Read() == 0);
 290              		.loc 1 96 0
 291 0028 00BF     		nop
 292              	.L12:
 293              		.loc 1 96 0 is_stmt 0 discriminator 1
 294 002a FFF7FEFF 		bl	sw1_Read
 295 002e 0346     		mov	r3, r0
 296 0030 002B     		cmp	r3, #0
 297 0032 FAD0     		beq	.L12
 298              	.L11:
  97:.\main.c      ****         }
ARM GAS  C:\Users\mjphi\AppData\Local\Temp\cco5j2jf.s 			page 8


  98:.\main.c      ****         vTaskDelay( 50 );
 299              		.loc 1 98 0 is_stmt 1
 300 0034 3220     		movs	r0, #50
 301 0036 FFF7FEFF 		bl	vTaskDelay
  99:.\main.c      ****     }
 302              		.loc 1 99 0
 303 003a E5E7     		b	.L13
 304              	.L15:
 305              		.align	2
 306              	.L14:
 307 003c 00000000 		.word	mute
 308              		.cfi_endproc
 309              	.LFE68:
 310              		.size	Check_Buttons_Task, .-Check_Buttons_Task
 311              		.section	.text.Update_Display_Task,"ax",%progbits
 312              		.align	2
 313              		.thumb
 314              		.thumb_func
 315              		.type	Update_Display_Task, %function
 316              	Update_Display_Task:
 317              	.LFB69:
 100:.\main.c      **** }
 101:.\main.c      **** 
 102:.\main.c      **** static void Update_Display_Task(void *parm){
 318              		.loc 1 102 0
 319              		.cfi_startproc
 320              		@ args = 0, pretend = 0, frame = 16
 321              		@ frame_needed = 1, uses_anonymous_args = 0
 322 0000 80B5     		push	{r7, lr}
 323              		.cfi_def_cfa_offset 8
 324              		.cfi_offset 7, -8
 325              		.cfi_offset 14, -4
 326 0002 84B0     		sub	sp, sp, #16
 327              		.cfi_def_cfa_offset 24
 328 0004 00AF     		add	r7, sp, #0
 329              		.cfi_def_cfa_register 7
 330 0006 7860     		str	r0, [r7, #4]
 331              	.L19:
 332              	.LBB2:
 103:.\main.c      ****     (void) parm;
 104:.\main.c      ****       
 105:.\main.c      ****     while( FOREVER ){
 106:.\main.c      ****         
 107:.\main.c      ****         int8_t temp[4];
 108:.\main.c      **** 
 109:.\main.c      ****         if(lightoutput < 1000)
 333              		.loc 1 109 0
 334 0008 314B     		ldr	r3, .L20
 335 000a 1B88     		ldrh	r3, [r3]
 336 000c 1BB2     		sxth	r3, r3
 337 000e B3F57A7F 		cmp	r3, #1000
 338 0012 02DA     		bge	.L17
 110:.\main.c      ****         {
 111:.\main.c      ****         	temp[0] = INDEX_BLANK;
 339              		.loc 1 111 0
 340 0014 1123     		movs	r3, #17
 341 0016 3B73     		strb	r3, [r7, #12]
ARM GAS  C:\Users\mjphi\AppData\Local\Temp\cco5j2jf.s 			page 9


 342 0018 0BE0     		b	.L18
 343              	.L17:
 112:.\main.c      ****         }
 113:.\main.c      ****         else
 114:.\main.c      ****         {
 115:.\main.c      ****         	temp[0] = lightoutput/1000;
 344              		.loc 1 115 0
 345 001a 2D4B     		ldr	r3, .L20
 346 001c 1B88     		ldrh	r3, [r3]
 347 001e 1BB2     		sxth	r3, r3
 348 0020 2C4A     		ldr	r2, .L20+4
 349 0022 82FB0312 		smull	r1, r2, r2, r3
 350 0026 9211     		asrs	r2, r2, #6
 351 0028 DB17     		asrs	r3, r3, #31
 352 002a D31A     		subs	r3, r2, r3
 353 002c 9BB2     		uxth	r3, r3
 354 002e DBB2     		uxtb	r3, r3
 355 0030 3B73     		strb	r3, [r7, #12]
 356              	.L18:
 116:.\main.c      ****         }
 117:.\main.c      ****         
 118:.\main.c      ****         lightoutput %= 1000;
 357              		.loc 1 118 0
 358 0032 274B     		ldr	r3, .L20
 359 0034 1B88     		ldrh	r3, [r3]
 360 0036 1BB2     		sxth	r3, r3
 361 0038 264A     		ldr	r2, .L20+4
 362 003a 82FB0312 		smull	r1, r2, r2, r3
 363 003e 9111     		asrs	r1, r2, #6
 364 0040 DA17     		asrs	r2, r3, #31
 365 0042 8A1A     		subs	r2, r1, r2
 366 0044 4FF47A71 		mov	r1, #1000
 367 0048 01FB02F2 		mul	r2, r1, r2
 368 004c 9B1A     		subs	r3, r3, r2
 369 004e 9AB2     		uxth	r2, r3
 370 0050 1F4B     		ldr	r3, .L20
 371 0052 1A80     		strh	r2, [r3]	@ movhi
 119:.\main.c      ****         temp[1] = lightoutput / 100; //index of second bit from left
 372              		.loc 1 119 0
 373 0054 1E4B     		ldr	r3, .L20
 374 0056 1B88     		ldrh	r3, [r3]
 375 0058 1BB2     		sxth	r3, r3
 376 005a 1F4A     		ldr	r2, .L20+8
 377 005c 82FB0312 		smull	r1, r2, r2, r3
 378 0060 5211     		asrs	r2, r2, #5
 379 0062 DB17     		asrs	r3, r3, #31
 380 0064 D31A     		subs	r3, r2, r3
 381 0066 9BB2     		uxth	r3, r3
 382 0068 DBB2     		uxtb	r3, r3
 383 006a 7B73     		strb	r3, [r7, #13]
 120:.\main.c      ****         temp[2] = (lightoutput/10) % (temp[1] * 10);//index of third bit from left
 384              		.loc 1 120 0
 385 006c 184B     		ldr	r3, .L20
 386 006e 1B88     		ldrh	r3, [r3]
 387 0070 1BB2     		sxth	r3, r3
 388 0072 1A4A     		ldr	r2, .L20+12
 389 0074 82FB0312 		smull	r1, r2, r2, r3
ARM GAS  C:\Users\mjphi\AppData\Local\Temp\cco5j2jf.s 			page 10


 390 0078 9210     		asrs	r2, r2, #2
 391 007a DB17     		asrs	r3, r3, #31
 392 007c D31A     		subs	r3, r2, r3
 393 007e 9BB2     		uxth	r3, r3
 394 0080 1AB2     		sxth	r2, r3
 395 0082 7B7B     		ldrb	r3, [r7, #13]	@ zero_extendqisi2
 396 0084 59B2     		sxtb	r1, r3
 397 0086 0B46     		mov	r3, r1
 398 0088 9B00     		lsls	r3, r3, #2
 399 008a 0B44     		add	r3, r3, r1
 400 008c 5B00     		lsls	r3, r3, #1
 401 008e 92FBF3F1 		sdiv	r1, r2, r3
 402 0092 03FB01F3 		mul	r3, r3, r1
 403 0096 D31A     		subs	r3, r2, r3
 404 0098 DBB2     		uxtb	r3, r3
 405 009a BB73     		strb	r3, [r7, #14]
 121:.\main.c      ****         temp[3] = lightoutput % 10;//index of the fourth bit from left
 406              		.loc 1 121 0
 407 009c 0C4B     		ldr	r3, .L20
 408 009e 1B88     		ldrh	r3, [r3]
 409 00a0 1AB2     		sxth	r2, r3
 410 00a2 0E4B     		ldr	r3, .L20+12
 411 00a4 83FB0213 		smull	r1, r3, r3, r2
 412 00a8 9910     		asrs	r1, r3, #2
 413 00aa D317     		asrs	r3, r2, #31
 414 00ac C91A     		subs	r1, r1, r3
 415 00ae 0B46     		mov	r3, r1
 416 00b0 9B00     		lsls	r3, r3, #2
 417 00b2 0B44     		add	r3, r3, r1
 418 00b4 5B00     		lsls	r3, r3, #1
 419 00b6 D31A     		subs	r3, r2, r3
 420 00b8 9BB2     		uxth	r3, r3
 421 00ba DBB2     		uxtb	r3, r3
 422 00bc FB73     		strb	r3, [r7, #15]
 122:.\main.c      ****         TM1636_Full_Screen(temp);
 423              		.loc 1 122 0
 424 00be 07F10C03 		add	r3, r7, #12
 425 00c2 1846     		mov	r0, r3
 426 00c4 FFF7FEFF 		bl	TM1636_Full_Screen
 123:.\main.c      ****         vTaskDelay( 50 );
 427              		.loc 1 123 0
 428 00c8 3220     		movs	r0, #50
 429 00ca FFF7FEFF 		bl	vTaskDelay
 430              	.LBE2:
 124:.\main.c      ****     }
 431              		.loc 1 124 0
 432 00ce 9BE7     		b	.L19
 433              	.L21:
 434              		.align	2
 435              	.L20:
 436 00d0 00000000 		.word	lightoutput
 437 00d4 D34D6210 		.word	274877907
 438 00d8 1F85EB51 		.word	1374389535
 439 00dc 67666666 		.word	1717986919
 440              		.cfi_endproc
 441              	.LFE69:
 442              		.size	Update_Display_Task, .-Update_Display_Task
ARM GAS  C:\Users\mjphi\AppData\Local\Temp\cco5j2jf.s 			page 11


 443              		.section	.text.Light_Sensor_Task,"ax",%progbits
 444              		.align	2
 445              		.thumb
 446              		.thumb_func
 447              		.type	Light_Sensor_Task, %function
 448              	Light_Sensor_Task:
 449              	.LFB70:
 125:.\main.c      **** }
 126:.\main.c      **** 
 127:.\main.c      **** static void Light_Sensor_Task (void *parm){
 450              		.loc 1 127 0
 451              		.cfi_startproc
 452              		@ args = 0, pretend = 0, frame = 8
 453              		@ frame_needed = 1, uses_anonymous_args = 0
 454 0000 80B5     		push	{r7, lr}
 455              		.cfi_def_cfa_offset 8
 456              		.cfi_offset 7, -8
 457              		.cfi_offset 14, -4
 458 0002 82B0     		sub	sp, sp, #8
 459              		.cfi_def_cfa_offset 16
 460 0004 00AF     		add	r7, sp, #0
 461              		.cfi_def_cfa_register 7
 462 0006 7860     		str	r0, [r7, #4]
 463              	.L24:
 128:.\main.c      ****     (void) parm;
 129:.\main.c      ****     
 130:.\main.c      ****     while( FOREVER ){
 131:.\main.c      ****         if(ADC_DelSig_1_IsEndConversion(ADC_DelSig_1_RETURN_STATUS))
 464              		.loc 1 131 0
 465 0008 0120     		movs	r0, #1
 466 000a FFF7FEFF 		bl	ADC_DelSig_1_IsEndConversion
 467 000e 0346     		mov	r3, r0
 468 0010 002B     		cmp	r3, #0
 469 0012 05D0     		beq	.L23
 132:.\main.c      ****         {
 133:.\main.c      ****             lightoutput = ADC_DelSig_1_GetResult16();
 470              		.loc 1 133 0
 471 0014 FFF7FEFF 		bl	ADC_DelSig_1_GetResult16
 472 0018 0346     		mov	r3, r0
 473 001a 1A46     		mov	r2, r3
 474 001c 024B     		ldr	r3, .L25
 475 001e 1A80     		strh	r2, [r3]	@ movhi
 476              	.L23:
 134:.\main.c      ****         }
 135:.\main.c      ****         vTaskDelay( 50 );
 477              		.loc 1 135 0
 478 0020 3220     		movs	r0, #50
 479 0022 FFF7FEFF 		bl	vTaskDelay
 136:.\main.c      ****     }
 480              		.loc 1 136 0
 481 0026 EFE7     		b	.L24
 482              	.L26:
 483              		.align	2
 484              	.L25:
 485 0028 00000000 		.word	lightoutput
 486              		.cfi_endproc
 487              	.LFE70:
ARM GAS  C:\Users\mjphi\AppData\Local\Temp\cco5j2jf.s 			page 12


 488              		.size	Light_Sensor_Task, .-Light_Sensor_Task
 489              		.section	.text.Alarm_Task,"ax",%progbits
 490              		.align	2
 491              		.thumb
 492              		.thumb_func
 493              		.type	Alarm_Task, %function
 494              	Alarm_Task:
 495              	.LFB71:
 137:.\main.c      **** }
 138:.\main.c      **** 
 139:.\main.c      **** static void Alarm_Task(void *parm){
 496              		.loc 1 139 0
 497              		.cfi_startproc
 498              		@ args = 0, pretend = 0, frame = 8
 499              		@ frame_needed = 1, uses_anonymous_args = 0
 500 0000 80B5     		push	{r7, lr}
 501              		.cfi_def_cfa_offset 8
 502              		.cfi_offset 7, -8
 503              		.cfi_offset 14, -4
 504 0002 82B0     		sub	sp, sp, #8
 505              		.cfi_def_cfa_offset 16
 506 0004 00AF     		add	r7, sp, #0
 507              		.cfi_def_cfa_register 7
 508 0006 7860     		str	r0, [r7, #4]
 509              	.L32:
 140:.\main.c      ****     (void) parm;
 141:.\main.c      ****     while( FOREVER ){
 142:.\main.c      ****         if(lightoutput > 600){
 510              		.loc 1 142 0
 511 0008 154B     		ldr	r3, .L33
 512 000a 1B88     		ldrh	r3, [r3]
 513 000c 1BB2     		sxth	r3, r3
 514 000e B3F5167F 		cmp	r3, #600
 515 0012 16DD     		ble	.L28
 143:.\main.c      ****             if(mute == 0){
 516              		.loc 1 143 0
 517 0014 134B     		ldr	r3, .L33+4
 518 0016 1B78     		ldrb	r3, [r3]	@ zero_extendqisi2
 519 0018 002B     		cmp	r3, #0
 520 001a 03D1     		bne	.L29
 144:.\main.c      ****                 Buzzer_Write(1);
 521              		.loc 1 144 0
 522 001c 0120     		movs	r0, #1
 523 001e FFF7FEFF 		bl	Buzzer_Write
 524 0022 17E0     		b	.L31
 525              	.L29:
 145:.\main.c      ****             }else{
 146:.\main.c      ****                 Buzzer_Write(0);
 526              		.loc 1 146 0
 527 0024 0020     		movs	r0, #0
 528 0026 FFF7FEFF 		bl	Buzzer_Write
 147:.\main.c      ****                 Red1_LED_pin_Write(!Red1_LED_pin_Read());
 529              		.loc 1 147 0
 530 002a FFF7FEFF 		bl	Red1_LED_pin_Read
 531 002e 0346     		mov	r3, r0
 532 0030 002B     		cmp	r3, #0
 533 0032 0CBF     		ite	eq
ARM GAS  C:\Users\mjphi\AppData\Local\Temp\cco5j2jf.s 			page 13


 534 0034 0123     		moveq	r3, #1
 535 0036 0023     		movne	r3, #0
 536 0038 DBB2     		uxtb	r3, r3
 537 003a 1846     		mov	r0, r3
 538 003c FFF7FEFF 		bl	Red1_LED_pin_Write
 539 0040 08E0     		b	.L31
 540              	.L28:
 148:.\main.c      ****             }
 149:.\main.c      ****         }else{
 150:.\main.c      ****             Buzzer_Write(0);
 541              		.loc 1 150 0
 542 0042 0020     		movs	r0, #0
 543 0044 FFF7FEFF 		bl	Buzzer_Write
 151:.\main.c      ****             Red1_LED_pin_Write(0);
 544              		.loc 1 151 0
 545 0048 0020     		movs	r0, #0
 546 004a FFF7FEFF 		bl	Red1_LED_pin_Write
 152:.\main.c      ****             mute = 0;
 547              		.loc 1 152 0
 548 004e 054B     		ldr	r3, .L33+4
 549 0050 0022     		movs	r2, #0
 550 0052 1A70     		strb	r2, [r3]
 551              	.L31:
 153:.\main.c      ****         }
 154:.\main.c      ****         vTaskDelay( 500 );
 552              		.loc 1 154 0
 553 0054 4FF4FA70 		mov	r0, #500
 554 0058 FFF7FEFF 		bl	vTaskDelay
 155:.\main.c      ****     }
 555              		.loc 1 155 0
 556 005c D4E7     		b	.L32
 557              	.L34:
 558 005e 00BF     		.align	2
 559              	.L33:
 560 0060 00000000 		.word	lightoutput
 561 0064 00000000 		.word	mute
 562              		.cfi_endproc
 563              	.LFE71:
 564              		.size	Alarm_Task, .-Alarm_Task
 565              		.text
 566              	.Letext0:
 567              		.file 2 "c:\\program files (x86)\\cypress\\psoc creator\\3.3\\psoc creator\\import\\gnu\\arm\\4.9.
 568              		.file 3 "c:\\program files (x86)\\cypress\\psoc creator\\3.3\\psoc creator\\import\\gnu\\arm\\4.9.
 569              		.file 4 "Generated_Source\\PSoC5/cytypes.h"
 570              		.file 5 "Generated_Source\\PSoC5/core_cm3.h"
 571              		.file 6 ".\\TM1636.h"
