ARM GAS  C:\Users\mjphi\AppData\Local\Temp\ccgjF1VN.s 			page 1


   1              		.syntax unified
   2              		.cpu cortex-m3
   3              		.fpu softvfp
   4              		.eabi_attribute 20, 1
   5              		.eabi_attribute 21, 1
   6              		.eabi_attribute 23, 3
   7              		.eabi_attribute 24, 1
   8              		.eabi_attribute 25, 1
   9              		.eabi_attribute 26, 1
  10              		.eabi_attribute 30, 6
  11              		.eabi_attribute 34, 1
  12              		.eabi_attribute 18, 4
  13              		.thumb
  14              		.file	"queue.c"
  15              		.text
  16              	.Ltext0:
  17              		.cfi_sections	.debug_frame
  18              		.comm	xQueueRegistry,80,4
  19              		.section	.text.xQueueGenericReset,"ax",%progbits
  20              		.align	2
  21              		.global	xQueueGenericReset
  22              		.thumb
  23              		.thumb_func
  24              		.type	xQueueGenericReset, %function
  25              	xQueueGenericReset:
  26              	.LFB64:
  27              		.file 1 ".\\queue.c"
   1:.\queue.c     **** /*
   2:.\queue.c     ****     FreeRTOS V8.2.1 - Copyright (C) 2015 Real Time Engineers Ltd.
   3:.\queue.c     ****     All rights reserved
   4:.\queue.c     **** 
   5:.\queue.c     ****     VISIT http://www.FreeRTOS.org TO ENSURE YOU ARE USING THE LATEST VERSION.
   6:.\queue.c     **** 
   7:.\queue.c     ****     This file is part of the FreeRTOS distribution.
   8:.\queue.c     **** 
   9:.\queue.c     ****     FreeRTOS is free software; you can redistribute it and/or modify it under
  10:.\queue.c     ****     the terms of the GNU General Public License (version 2) as published by the
  11:.\queue.c     ****     Free Software Foundation >>!AND MODIFIED BY!<< the FreeRTOS exception.
  12:.\queue.c     **** 
  13:.\queue.c     ****     ***************************************************************************
  14:.\queue.c     ****     >>!   NOTE: The modification to the GPL is included to allow you to     !<<
  15:.\queue.c     ****     >>!   distribute a combined work that includes FreeRTOS without being   !<<
  16:.\queue.c     ****     >>!   obliged to provide the source code for proprietary components     !<<
  17:.\queue.c     ****     >>!   outside of the FreeRTOS kernel.                                   !<<
  18:.\queue.c     ****     ***************************************************************************
  19:.\queue.c     **** 
  20:.\queue.c     ****     FreeRTOS is distributed in the hope that it will be useful, but WITHOUT ANY
  21:.\queue.c     ****     WARRANTY; without even the implied warranty of MERCHANTABILITY or FITNESS
  22:.\queue.c     ****     FOR A PARTICULAR PURPOSE.  Full license text is available on the following
  23:.\queue.c     ****     link: http://www.freertos.org/a00114.html
  24:.\queue.c     **** 
  25:.\queue.c     ****     ***************************************************************************
  26:.\queue.c     ****      *                                                                       *
  27:.\queue.c     ****      *    FreeRTOS provides completely free yet professionally developed,    *
  28:.\queue.c     ****      *    robust, strictly quality controlled, supported, and cross          *
  29:.\queue.c     ****      *    platform software that is more than just the market leader, it     *
  30:.\queue.c     ****      *    is the industry's de facto standard.                               *
ARM GAS  C:\Users\mjphi\AppData\Local\Temp\ccgjF1VN.s 			page 2


  31:.\queue.c     ****      *                                                                       *
  32:.\queue.c     ****      *    Help yourself get started quickly while simultaneously helping     *
  33:.\queue.c     ****      *    to support the FreeRTOS project by purchasing a FreeRTOS           *
  34:.\queue.c     ****      *    tutorial book, reference manual, or both:                          *
  35:.\queue.c     ****      *    http://www.FreeRTOS.org/Documentation                              *
  36:.\queue.c     ****      *                                                                       *
  37:.\queue.c     ****     ***************************************************************************
  38:.\queue.c     **** 
  39:.\queue.c     ****     http://www.FreeRTOS.org/FAQHelp.html - Having a problem?  Start by reading
  40:.\queue.c     ****     the FAQ page "My application does not run, what could be wrong?".  Have you
  41:.\queue.c     ****     defined configASSERT()?
  42:.\queue.c     **** 
  43:.\queue.c     ****     http://www.FreeRTOS.org/support - In return for receiving this top quality
  44:.\queue.c     ****     embedded software for free we request you assist our global community by
  45:.\queue.c     ****     participating in the support forum.
  46:.\queue.c     **** 
  47:.\queue.c     ****     http://www.FreeRTOS.org/training - Investing in training allows your team to
  48:.\queue.c     ****     be as productive as possible as early as possible.  Now you can receive
  49:.\queue.c     ****     FreeRTOS training directly from Richard Barry, CEO of Real Time Engineers
  50:.\queue.c     ****     Ltd, and the world's leading authority on the world's leading RTOS.
  51:.\queue.c     **** 
  52:.\queue.c     ****     http://www.FreeRTOS.org/plus - A selection of FreeRTOS ecosystem products,
  53:.\queue.c     ****     including FreeRTOS+Trace - an indispensable productivity tool, a DOS
  54:.\queue.c     ****     compatible FAT file system, and our tiny thread aware UDP/IP stack.
  55:.\queue.c     **** 
  56:.\queue.c     ****     http://www.FreeRTOS.org/labs - Where new FreeRTOS products go to incubate.
  57:.\queue.c     ****     Come and try FreeRTOS+TCP, our new open source TCP/IP stack for FreeRTOS.
  58:.\queue.c     **** 
  59:.\queue.c     ****     http://www.OpenRTOS.com - Real Time Engineers ltd. license FreeRTOS to High
  60:.\queue.c     ****     Integrity Systems ltd. to sell under the OpenRTOS brand.  Low cost OpenRTOS
  61:.\queue.c     ****     licenses offer ticketed support, indemnification and commercial middleware.
  62:.\queue.c     **** 
  63:.\queue.c     ****     http://www.SafeRTOS.com - High Integrity Systems also provide a safety
  64:.\queue.c     ****     engineered and independently SIL3 certified version for use in safety and
  65:.\queue.c     ****     mission critical applications that require provable dependability.
  66:.\queue.c     **** 
  67:.\queue.c     ****     1 tab == 4 spaces!
  68:.\queue.c     **** */
  69:.\queue.c     **** 
  70:.\queue.c     **** #include <stdlib.h>
  71:.\queue.c     **** #include <string.h>
  72:.\queue.c     **** 
  73:.\queue.c     **** /* Defining MPU_WRAPPERS_INCLUDED_FROM_API_FILE prevents task.h from redefining
  74:.\queue.c     **** all the API functions to use the MPU wrappers.  That should only be done when
  75:.\queue.c     **** task.h is included from an application file. */
  76:.\queue.c     **** #define MPU_WRAPPERS_INCLUDED_FROM_API_FILE
  77:.\queue.c     **** 
  78:.\queue.c     **** #include "FreeRTOS.h"
  79:.\queue.c     **** #include "task.h"
  80:.\queue.c     **** #include "queue.h"
  81:.\queue.c     **** 
  82:.\queue.c     **** #if ( configUSE_CO_ROUTINES == 1 )
  83:.\queue.c     **** 	#include "croutine.h"
  84:.\queue.c     **** #endif
  85:.\queue.c     **** 
  86:.\queue.c     **** /* Lint e961 and e750 are suppressed as a MISRA exception justified because the
  87:.\queue.c     **** MPU ports require MPU_WRAPPERS_INCLUDED_FROM_API_FILE to be defined for the
ARM GAS  C:\Users\mjphi\AppData\Local\Temp\ccgjF1VN.s 			page 3


  88:.\queue.c     **** header files above, but not in this file, in order to generate the correct
  89:.\queue.c     **** privileged Vs unprivileged linkage and placement. */
  90:.\queue.c     **** #undef MPU_WRAPPERS_INCLUDED_FROM_API_FILE /*lint !e961 !e750. */
  91:.\queue.c     **** 
  92:.\queue.c     **** 
  93:.\queue.c     **** /* Constants used with the xRxLock and xTxLock structure members. */
  94:.\queue.c     **** #define queueUNLOCKED					( ( BaseType_t ) -1 )
  95:.\queue.c     **** #define queueLOCKED_UNMODIFIED			( ( BaseType_t ) 0 )
  96:.\queue.c     **** 
  97:.\queue.c     **** /* When the Queue_t structure is used to represent a base queue its pcHead and
  98:.\queue.c     **** pcTail members are used as pointers into the queue storage area.  When the
  99:.\queue.c     **** Queue_t structure is used to represent a mutex pcHead and pcTail pointers are
 100:.\queue.c     **** not necessary, and the pcHead pointer is set to NULL to indicate that the
 101:.\queue.c     **** pcTail pointer actually points to the mutex holder (if any).  Map alternative
 102:.\queue.c     **** names to the pcHead and pcTail structure members to ensure the readability of
 103:.\queue.c     **** the code is maintained despite this dual use of two structure members.  An
 104:.\queue.c     **** alternative implementation would be to use a union, but use of a union is
 105:.\queue.c     **** against the coding standard (although an exception to the standard has been
 106:.\queue.c     **** permitted where the dual use also significantly changes the type of the
 107:.\queue.c     **** structure member). */
 108:.\queue.c     **** #define pxMutexHolder					pcTail
 109:.\queue.c     **** #define uxQueueType						pcHead
 110:.\queue.c     **** #define queueQUEUE_IS_MUTEX				NULL
 111:.\queue.c     **** 
 112:.\queue.c     **** /* Semaphores do not actually store or copy data, so have an item size of
 113:.\queue.c     **** zero. */
 114:.\queue.c     **** #define queueSEMAPHORE_QUEUE_ITEM_LENGTH ( ( UBaseType_t ) 0 )
 115:.\queue.c     **** #define queueMUTEX_GIVE_BLOCK_TIME		 ( ( TickType_t ) 0U )
 116:.\queue.c     **** 
 117:.\queue.c     **** #if( configUSE_PREEMPTION == 0 )
 118:.\queue.c     **** 	/* If the cooperative scheduler is being used then a yield should not be
 119:.\queue.c     **** 	performed just because a higher priority task has been woken. */
 120:.\queue.c     **** 	#define queueYIELD_IF_USING_PREEMPTION()
 121:.\queue.c     **** #else
 122:.\queue.c     **** 	#define queueYIELD_IF_USING_PREEMPTION() portYIELD_WITHIN_API()
 123:.\queue.c     **** #endif
 124:.\queue.c     **** 
 125:.\queue.c     **** /*
 126:.\queue.c     ****  * Definition of the queue used by the scheduler.
 127:.\queue.c     ****  * Items are queued by copy, not reference.  See the following link for the
 128:.\queue.c     ****  * rationale: http://www.freertos.org/Embedded-RTOS-Queues.html
 129:.\queue.c     ****  */
 130:.\queue.c     **** typedef struct QueueDefinition
 131:.\queue.c     **** {
 132:.\queue.c     **** 	int8_t *pcHead;					/*< Points to the beginning of the queue storage area. */
 133:.\queue.c     **** 	int8_t *pcTail;					/*< Points to the byte at the end of the queue storage area.  Once more byte i
 134:.\queue.c     **** 	int8_t *pcWriteTo;				/*< Points to the free next place in the storage area. */
 135:.\queue.c     **** 
 136:.\queue.c     **** 	union							/* Use of a union is an exception to the coding standard to ensure two mutually exclus
 137:.\queue.c     **** 	{
 138:.\queue.c     **** 		int8_t *pcReadFrom;			/*< Points to the last place that a queued item was read from when the stru
 139:.\queue.c     **** 		UBaseType_t uxRecursiveCallCount;/*< Maintains a count of the number of times a recursive mutex h
 140:.\queue.c     **** 	} u;
 141:.\queue.c     **** 
 142:.\queue.c     **** 	List_t xTasksWaitingToSend;		/*< List of tasks that are blocked waiting to post onto this queue.  
 143:.\queue.c     **** 	List_t xTasksWaitingToReceive;	/*< List of tasks that are blocked waiting to read from this queue.
 144:.\queue.c     **** 
ARM GAS  C:\Users\mjphi\AppData\Local\Temp\ccgjF1VN.s 			page 4


 145:.\queue.c     **** 	volatile UBaseType_t uxMessagesWaiting;/*< The number of items currently in the queue. */
 146:.\queue.c     **** 	UBaseType_t uxLength;			/*< The length of the queue defined as the number of items it will hold, n
 147:.\queue.c     **** 	UBaseType_t uxItemSize;			/*< The size of each items that the queue will hold. */
 148:.\queue.c     **** 
 149:.\queue.c     **** 	volatile BaseType_t xRxLock;	/*< Stores the number of items received from the queue (removed from 
 150:.\queue.c     **** 	volatile BaseType_t xTxLock;	/*< Stores the number of items transmitted to the queue (added to the
 151:.\queue.c     **** 
 152:.\queue.c     **** 	#if ( configUSE_TRACE_FACILITY == 1 )
 153:.\queue.c     **** 		UBaseType_t uxQueueNumber;
 154:.\queue.c     **** 		uint8_t ucQueueType;
 155:.\queue.c     **** 	#endif
 156:.\queue.c     **** 
 157:.\queue.c     **** 	#if ( configUSE_QUEUE_SETS == 1 )
 158:.\queue.c     **** 		struct QueueDefinition *pxQueueSetContainer;
 159:.\queue.c     **** 	#endif
 160:.\queue.c     **** 
 161:.\queue.c     **** } xQUEUE;
 162:.\queue.c     **** 
 163:.\queue.c     **** /* The old xQUEUE name is maintained above then typedefed to the new Queue_t
 164:.\queue.c     **** name below to enable the use of older kernel aware debuggers. */
 165:.\queue.c     **** typedef xQUEUE Queue_t;
 166:.\queue.c     **** 
 167:.\queue.c     **** /*-----------------------------------------------------------*/
 168:.\queue.c     **** 
 169:.\queue.c     **** /*
 170:.\queue.c     ****  * The queue registry is just a means for kernel aware debuggers to locate
 171:.\queue.c     ****  * queue structures.  It has no other purpose so is an optional component.
 172:.\queue.c     ****  */
 173:.\queue.c     **** #if ( configQUEUE_REGISTRY_SIZE > 0 )
 174:.\queue.c     **** 
 175:.\queue.c     **** 	/* The type stored within the queue registry array.  This allows a name
 176:.\queue.c     **** 	to be assigned to each queue making kernel aware debugging a little
 177:.\queue.c     **** 	more user friendly. */
 178:.\queue.c     **** 	typedef struct QUEUE_REGISTRY_ITEM
 179:.\queue.c     **** 	{
 180:.\queue.c     **** 		const char *pcQueueName; /*lint !e971 Unqualified char types are allowed for strings and single c
 181:.\queue.c     **** 		QueueHandle_t xHandle;
 182:.\queue.c     **** 	} xQueueRegistryItem;
 183:.\queue.c     **** 
 184:.\queue.c     **** 	/* The old xQueueRegistryItem name is maintained above then typedefed to the
 185:.\queue.c     **** 	new xQueueRegistryItem name below to enable the use of older kernel aware
 186:.\queue.c     **** 	debuggers. */
 187:.\queue.c     **** 	typedef xQueueRegistryItem QueueRegistryItem_t;
 188:.\queue.c     **** 
 189:.\queue.c     **** 	/* The queue registry is simply an array of QueueRegistryItem_t structures.
 190:.\queue.c     **** 	The pcQueueName member of a structure being NULL is indicative of the
 191:.\queue.c     **** 	array position being vacant. */
 192:.\queue.c     **** 	PRIVILEGED_DATA QueueRegistryItem_t xQueueRegistry[ configQUEUE_REGISTRY_SIZE ];
 193:.\queue.c     **** 
 194:.\queue.c     **** #endif /* configQUEUE_REGISTRY_SIZE */
 195:.\queue.c     **** 
 196:.\queue.c     **** /*
 197:.\queue.c     ****  * Unlocks a queue locked by a call to prvLockQueue.  Locking a queue does not
 198:.\queue.c     ****  * prevent an ISR from adding or removing items to the queue, but does prevent
 199:.\queue.c     ****  * an ISR from removing tasks from the queue event lists.  If an ISR finds a
 200:.\queue.c     ****  * queue is locked it will instead increment the appropriate queue lock count
 201:.\queue.c     ****  * to indicate that a task may require unblocking.  When the queue in unlocked
ARM GAS  C:\Users\mjphi\AppData\Local\Temp\ccgjF1VN.s 			page 5


 202:.\queue.c     ****  * these lock counts are inspected, and the appropriate action taken.
 203:.\queue.c     ****  */
 204:.\queue.c     **** static void prvUnlockQueue( Queue_t * const pxQueue ) PRIVILEGED_FUNCTION;
 205:.\queue.c     **** 
 206:.\queue.c     **** /*
 207:.\queue.c     ****  * Uses a critical section to determine if there is any data in a queue.
 208:.\queue.c     ****  *
 209:.\queue.c     ****  * @return pdTRUE if the queue contains no items, otherwise pdFALSE.
 210:.\queue.c     ****  */
 211:.\queue.c     **** static BaseType_t prvIsQueueEmpty( const Queue_t *pxQueue ) PRIVILEGED_FUNCTION;
 212:.\queue.c     **** 
 213:.\queue.c     **** /*
 214:.\queue.c     ****  * Uses a critical section to determine if there is any space in a queue.
 215:.\queue.c     ****  *
 216:.\queue.c     ****  * @return pdTRUE if there is no space, otherwise pdFALSE;
 217:.\queue.c     ****  */
 218:.\queue.c     **** static BaseType_t prvIsQueueFull( const Queue_t *pxQueue ) PRIVILEGED_FUNCTION;
 219:.\queue.c     **** 
 220:.\queue.c     **** /*
 221:.\queue.c     ****  * Copies an item into the queue, either at the front of the queue or the
 222:.\queue.c     ****  * back of the queue.
 223:.\queue.c     ****  */
 224:.\queue.c     **** static BaseType_t prvCopyDataToQueue( Queue_t * const pxQueue, const void *pvItemToQueue, const Bas
 225:.\queue.c     **** 
 226:.\queue.c     **** /*
 227:.\queue.c     ****  * Copies an item out of a queue.
 228:.\queue.c     ****  */
 229:.\queue.c     **** static void prvCopyDataFromQueue( Queue_t * const pxQueue, void * const pvBuffer ) PRIVILEGED_FUNCT
 230:.\queue.c     **** 
 231:.\queue.c     **** #if ( configUSE_QUEUE_SETS == 1 )
 232:.\queue.c     **** 	/*
 233:.\queue.c     **** 	 * Checks to see if a queue is a member of a queue set, and if so, notifies
 234:.\queue.c     **** 	 * the queue set that the queue contains data.
 235:.\queue.c     **** 	 */
 236:.\queue.c     **** 	static BaseType_t prvNotifyQueueSetContainer( const Queue_t * const pxQueue, const BaseType_t xCop
 237:.\queue.c     **** #endif
 238:.\queue.c     **** 
 239:.\queue.c     **** /*-----------------------------------------------------------*/
 240:.\queue.c     **** 
 241:.\queue.c     **** /*
 242:.\queue.c     ****  * Macro to mark a queue as locked.  Locking a queue prevents an ISR from
 243:.\queue.c     ****  * accessing the queue event lists.
 244:.\queue.c     ****  */
 245:.\queue.c     **** #define prvLockQueue( pxQueue )								\
 246:.\queue.c     **** 	taskENTER_CRITICAL();									\
 247:.\queue.c     **** 	{														\
 248:.\queue.c     **** 		if( ( pxQueue )->xRxLock == queueUNLOCKED )			\
 249:.\queue.c     **** 		{													\
 250:.\queue.c     **** 			( pxQueue )->xRxLock = queueLOCKED_UNMODIFIED;	\
 251:.\queue.c     **** 		}													\
 252:.\queue.c     **** 		if( ( pxQueue )->xTxLock == queueUNLOCKED )			\
 253:.\queue.c     **** 		{													\
 254:.\queue.c     **** 			( pxQueue )->xTxLock = queueLOCKED_UNMODIFIED;	\
 255:.\queue.c     **** 		}													\
 256:.\queue.c     **** 	}														\
 257:.\queue.c     **** 	taskEXIT_CRITICAL()
 258:.\queue.c     **** /*-----------------------------------------------------------*/
ARM GAS  C:\Users\mjphi\AppData\Local\Temp\ccgjF1VN.s 			page 6


 259:.\queue.c     **** 
 260:.\queue.c     **** BaseType_t xQueueGenericReset( QueueHandle_t xQueue, BaseType_t xNewQueue )
 261:.\queue.c     **** {
  28              		.loc 1 261 0
  29              		.cfi_startproc
  30              		@ args = 0, pretend = 0, frame = 16
  31              		@ frame_needed = 1, uses_anonymous_args = 0
  32 0000 80B5     		push	{r7, lr}
  33              		.cfi_def_cfa_offset 8
  34              		.cfi_offset 7, -8
  35              		.cfi_offset 14, -4
  36 0002 84B0     		sub	sp, sp, #16
  37              		.cfi_def_cfa_offset 24
  38 0004 00AF     		add	r7, sp, #0
  39              		.cfi_def_cfa_register 7
  40 0006 7860     		str	r0, [r7, #4]
  41 0008 3960     		str	r1, [r7]
 262:.\queue.c     **** Queue_t * const pxQueue = ( Queue_t * ) xQueue;
  42              		.loc 1 262 0
  43 000a 7B68     		ldr	r3, [r7, #4]
  44 000c FB60     		str	r3, [r7, #12]
 263:.\queue.c     **** 
 264:.\queue.c     **** 	configASSERT( pxQueue );
 265:.\queue.c     **** 
 266:.\queue.c     **** 	taskENTER_CRITICAL();
  45              		.loc 1 266 0
  46 000e FFF7FEFF 		bl	vPortEnterCritical
 267:.\queue.c     **** 	{
 268:.\queue.c     **** 		pxQueue->pcTail = pxQueue->pcHead + ( pxQueue->uxLength * pxQueue->uxItemSize );
  47              		.loc 1 268 0
  48 0012 FB68     		ldr	r3, [r7, #12]
  49 0014 1A68     		ldr	r2, [r3]
  50 0016 FB68     		ldr	r3, [r7, #12]
  51 0018 DB6B     		ldr	r3, [r3, #60]
  52 001a F968     		ldr	r1, [r7, #12]
  53 001c 096C     		ldr	r1, [r1, #64]
  54 001e 01FB03F3 		mul	r3, r1, r3
  55 0022 1A44     		add	r2, r2, r3
  56 0024 FB68     		ldr	r3, [r7, #12]
  57 0026 5A60     		str	r2, [r3, #4]
 269:.\queue.c     **** 		pxQueue->uxMessagesWaiting = ( UBaseType_t ) 0U;
  58              		.loc 1 269 0
  59 0028 FB68     		ldr	r3, [r7, #12]
  60 002a 0022     		movs	r2, #0
  61 002c 9A63     		str	r2, [r3, #56]
 270:.\queue.c     **** 		pxQueue->pcWriteTo = pxQueue->pcHead;
  62              		.loc 1 270 0
  63 002e FB68     		ldr	r3, [r7, #12]
  64 0030 1A68     		ldr	r2, [r3]
  65 0032 FB68     		ldr	r3, [r7, #12]
  66 0034 9A60     		str	r2, [r3, #8]
 271:.\queue.c     **** 		pxQueue->u.pcReadFrom = pxQueue->pcHead + ( ( pxQueue->uxLength - ( UBaseType_t ) 1U ) * pxQueue-
  67              		.loc 1 271 0
  68 0036 FB68     		ldr	r3, [r7, #12]
  69 0038 1A68     		ldr	r2, [r3]
  70 003a FB68     		ldr	r3, [r7, #12]
  71 003c DB6B     		ldr	r3, [r3, #60]
ARM GAS  C:\Users\mjphi\AppData\Local\Temp\ccgjF1VN.s 			page 7


  72 003e 013B     		subs	r3, r3, #1
  73 0040 F968     		ldr	r1, [r7, #12]
  74 0042 096C     		ldr	r1, [r1, #64]
  75 0044 01FB03F3 		mul	r3, r1, r3
  76 0048 1A44     		add	r2, r2, r3
  77 004a FB68     		ldr	r3, [r7, #12]
  78 004c DA60     		str	r2, [r3, #12]
 272:.\queue.c     **** 		pxQueue->xRxLock = queueUNLOCKED;
  79              		.loc 1 272 0
  80 004e FB68     		ldr	r3, [r7, #12]
  81 0050 4FF0FF32 		mov	r2, #-1
  82 0054 5A64     		str	r2, [r3, #68]
 273:.\queue.c     **** 		pxQueue->xTxLock = queueUNLOCKED;
  83              		.loc 1 273 0
  84 0056 FB68     		ldr	r3, [r7, #12]
  85 0058 4FF0FF32 		mov	r2, #-1
  86 005c 9A64     		str	r2, [r3, #72]
 274:.\queue.c     **** 
 275:.\queue.c     **** 		if( xNewQueue == pdFALSE )
  87              		.loc 1 275 0
  88 005e 3B68     		ldr	r3, [r7]
  89 0060 002B     		cmp	r3, #0
  90 0062 0ED1     		bne	.L2
 276:.\queue.c     **** 		{
 277:.\queue.c     **** 			/* If there are tasks blocked waiting to read from the queue, then
 278:.\queue.c     **** 			the tasks will remain blocked as after this function exits the queue
 279:.\queue.c     **** 			will still be empty.  If there are tasks blocked waiting to write to
 280:.\queue.c     **** 			the queue, then one should be unblocked as after this function exits
 281:.\queue.c     **** 			it will be possible to write to it. */
 282:.\queue.c     **** 			if( listLIST_IS_EMPTY( &( pxQueue->xTasksWaitingToSend ) ) == pdFALSE )
  91              		.loc 1 282 0
  92 0064 FB68     		ldr	r3, [r7, #12]
  93 0066 1B69     		ldr	r3, [r3, #16]
  94 0068 002B     		cmp	r3, #0
  95 006a 14D0     		beq	.L3
 283:.\queue.c     **** 			{
 284:.\queue.c     **** 				if( xTaskRemoveFromEventList( &( pxQueue->xTasksWaitingToSend ) ) == pdTRUE )
  96              		.loc 1 284 0
  97 006c FB68     		ldr	r3, [r7, #12]
  98 006e 1033     		adds	r3, r3, #16
  99 0070 1846     		mov	r0, r3
 100 0072 FFF7FEFF 		bl	xTaskRemoveFromEventList
 101 0076 0346     		mov	r3, r0
 102 0078 012B     		cmp	r3, #1
 103 007a 0CD1     		bne	.L3
 285:.\queue.c     **** 				{
 286:.\queue.c     **** 					queueYIELD_IF_USING_PREEMPTION();
 104              		.loc 1 286 0
 105 007c FFF7FEFF 		bl	vPortYield
 106 0080 09E0     		b	.L3
 107              	.L2:
 287:.\queue.c     **** 				}
 288:.\queue.c     **** 				else
 289:.\queue.c     **** 				{
 290:.\queue.c     **** 					mtCOVERAGE_TEST_MARKER();
 291:.\queue.c     **** 				}
 292:.\queue.c     **** 			}
ARM GAS  C:\Users\mjphi\AppData\Local\Temp\ccgjF1VN.s 			page 8


 293:.\queue.c     **** 			else
 294:.\queue.c     **** 			{
 295:.\queue.c     **** 				mtCOVERAGE_TEST_MARKER();
 296:.\queue.c     **** 			}
 297:.\queue.c     **** 		}
 298:.\queue.c     **** 		else
 299:.\queue.c     **** 		{
 300:.\queue.c     **** 			/* Ensure the event queues start in the correct state. */
 301:.\queue.c     **** 			vListInitialise( &( pxQueue->xTasksWaitingToSend ) );
 108              		.loc 1 301 0
 109 0082 FB68     		ldr	r3, [r7, #12]
 110 0084 1033     		adds	r3, r3, #16
 111 0086 1846     		mov	r0, r3
 112 0088 FFF7FEFF 		bl	vListInitialise
 302:.\queue.c     **** 			vListInitialise( &( pxQueue->xTasksWaitingToReceive ) );
 113              		.loc 1 302 0
 114 008c FB68     		ldr	r3, [r7, #12]
 115 008e 2433     		adds	r3, r3, #36
 116 0090 1846     		mov	r0, r3
 117 0092 FFF7FEFF 		bl	vListInitialise
 118              	.L3:
 303:.\queue.c     **** 		}
 304:.\queue.c     **** 	}
 305:.\queue.c     **** 	taskEXIT_CRITICAL();
 119              		.loc 1 305 0
 120 0096 FFF7FEFF 		bl	vPortExitCritical
 306:.\queue.c     **** 
 307:.\queue.c     **** 	/* A value is returned for calling semantic consistency with previous
 308:.\queue.c     **** 	versions. */
 309:.\queue.c     **** 	return pdPASS;
 121              		.loc 1 309 0
 122 009a 0123     		movs	r3, #1
 310:.\queue.c     **** }
 123              		.loc 1 310 0
 124 009c 1846     		mov	r0, r3
 125 009e 1037     		adds	r7, r7, #16
 126              		.cfi_def_cfa_offset 8
 127 00a0 BD46     		mov	sp, r7
 128              		.cfi_def_cfa_register 13
 129              		@ sp needed
 130 00a2 80BD     		pop	{r7, pc}
 131              		.cfi_endproc
 132              	.LFE64:
 133              		.size	xQueueGenericReset, .-xQueueGenericReset
 134              		.section	.text.xQueueGenericCreate,"ax",%progbits
 135              		.align	2
 136              		.global	xQueueGenericCreate
 137              		.thumb
 138              		.thumb_func
 139              		.type	xQueueGenericCreate, %function
 140              	xQueueGenericCreate:
 141              	.LFB65:
 311:.\queue.c     **** /*-----------------------------------------------------------*/
 312:.\queue.c     **** 
 313:.\queue.c     **** QueueHandle_t xQueueGenericCreate( const UBaseType_t uxQueueLength, const UBaseType_t uxItemSize, c
 314:.\queue.c     **** {
 142              		.loc 1 314 0
ARM GAS  C:\Users\mjphi\AppData\Local\Temp\ccgjF1VN.s 			page 9


 143              		.cfi_startproc
 144              		@ args = 0, pretend = 0, frame = 32
 145              		@ frame_needed = 1, uses_anonymous_args = 0
 146 0000 80B5     		push	{r7, lr}
 147              		.cfi_def_cfa_offset 8
 148              		.cfi_offset 7, -8
 149              		.cfi_offset 14, -4
 150 0002 88B0     		sub	sp, sp, #32
 151              		.cfi_def_cfa_offset 40
 152 0004 00AF     		add	r7, sp, #0
 153              		.cfi_def_cfa_register 7
 154 0006 F860     		str	r0, [r7, #12]
 155 0008 B960     		str	r1, [r7, #8]
 156 000a 1346     		mov	r3, r2
 157 000c FB71     		strb	r3, [r7, #7]
 315:.\queue.c     **** Queue_t *pxNewQueue;
 316:.\queue.c     **** size_t xQueueSizeInBytes;
 317:.\queue.c     **** QueueHandle_t xReturn = NULL;
 158              		.loc 1 317 0
 159 000e 0023     		movs	r3, #0
 160 0010 BB61     		str	r3, [r7, #24]
 318:.\queue.c     **** int8_t *pcAllocatedBuffer;
 319:.\queue.c     **** 
 320:.\queue.c     **** 	/* Remove compiler warnings about unused parameters should
 321:.\queue.c     **** 	configUSE_TRACE_FACILITY not be set to 1. */
 322:.\queue.c     **** 	( void ) ucQueueType;
 323:.\queue.c     **** 
 324:.\queue.c     **** 	configASSERT( uxQueueLength > ( UBaseType_t ) 0 );
 325:.\queue.c     **** 
 326:.\queue.c     **** 	if( uxItemSize == ( UBaseType_t ) 0 )
 161              		.loc 1 326 0
 162 0012 BB68     		ldr	r3, [r7, #8]
 163 0014 002B     		cmp	r3, #0
 164 0016 02D1     		bne	.L6
 327:.\queue.c     **** 	{
 328:.\queue.c     **** 		/* There is not going to be a queue storage area. */
 329:.\queue.c     **** 		xQueueSizeInBytes = ( size_t ) 0;
 165              		.loc 1 329 0
 166 0018 0023     		movs	r3, #0
 167 001a FB61     		str	r3, [r7, #28]
 168 001c 05E0     		b	.L7
 169              	.L6:
 330:.\queue.c     **** 	}
 331:.\queue.c     **** 	else
 332:.\queue.c     **** 	{
 333:.\queue.c     **** 		/* The queue is one byte longer than asked for to make wrap checking
 334:.\queue.c     **** 		easier/faster. */
 335:.\queue.c     **** 		xQueueSizeInBytes = ( size_t ) ( uxQueueLength * uxItemSize ) + ( size_t ) 1; /*lint !e961 MISRA 
 170              		.loc 1 335 0
 171 001e FB68     		ldr	r3, [r7, #12]
 172 0020 BA68     		ldr	r2, [r7, #8]
 173 0022 02FB03F3 		mul	r3, r2, r3
 174 0026 0133     		adds	r3, r3, #1
 175 0028 FB61     		str	r3, [r7, #28]
 176              	.L7:
 336:.\queue.c     **** 	}
 337:.\queue.c     **** 
ARM GAS  C:\Users\mjphi\AppData\Local\Temp\ccgjF1VN.s 			page 10


 338:.\queue.c     **** 	/* Allocate the new queue structure and storage area. */
 339:.\queue.c     **** 	pcAllocatedBuffer = ( int8_t * ) pvPortMalloc( sizeof( Queue_t ) + xQueueSizeInBytes );
 177              		.loc 1 339 0
 178 002a FB69     		ldr	r3, [r7, #28]
 179 002c 4C33     		adds	r3, r3, #76
 180 002e 1846     		mov	r0, r3
 181 0030 FFF7FEFF 		bl	pvPortMalloc
 182 0034 7861     		str	r0, [r7, #20]
 340:.\queue.c     **** 
 341:.\queue.c     **** 	if( pcAllocatedBuffer != NULL )
 183              		.loc 1 341 0
 184 0036 7B69     		ldr	r3, [r7, #20]
 185 0038 002B     		cmp	r3, #0
 186 003a 19D0     		beq	.L8
 342:.\queue.c     **** 	{
 343:.\queue.c     **** 		pxNewQueue = ( Queue_t * ) pcAllocatedBuffer; /*lint !e826 MISRA The buffer cannot be too small b
 187              		.loc 1 343 0
 188 003c 7B69     		ldr	r3, [r7, #20]
 189 003e 3B61     		str	r3, [r7, #16]
 344:.\queue.c     **** 
 345:.\queue.c     **** 		if( uxItemSize == ( UBaseType_t ) 0 )
 190              		.loc 1 345 0
 191 0040 BB68     		ldr	r3, [r7, #8]
 192 0042 002B     		cmp	r3, #0
 193 0044 03D1     		bne	.L9
 346:.\queue.c     **** 		{
 347:.\queue.c     **** 			/* No RAM was allocated for the queue storage area, but PC head
 348:.\queue.c     **** 			cannot be set to NULL because NULL is used as a key to say the queue
 349:.\queue.c     **** 			is used as a mutex.  Therefore just set pcHead to point to the queue
 350:.\queue.c     **** 			as a benign value that is known to be within the memory map. */
 351:.\queue.c     **** 			pxNewQueue->pcHead = ( int8_t * ) pxNewQueue;
 194              		.loc 1 351 0
 195 0046 3B69     		ldr	r3, [r7, #16]
 196 0048 3A69     		ldr	r2, [r7, #16]
 197 004a 1A60     		str	r2, [r3]
 198 004c 04E0     		b	.L10
 199              	.L9:
 352:.\queue.c     **** 		}
 353:.\queue.c     **** 		else
 354:.\queue.c     **** 		{
 355:.\queue.c     **** 			/* Jump past the queue structure to find the location of the queue
 356:.\queue.c     **** 			storage area - adding the padding bytes to get a better alignment. */
 357:.\queue.c     **** 			pxNewQueue->pcHead = pcAllocatedBuffer + sizeof( Queue_t );
 200              		.loc 1 357 0
 201 004e 7B69     		ldr	r3, [r7, #20]
 202 0050 03F14C02 		add	r2, r3, #76
 203 0054 3B69     		ldr	r3, [r7, #16]
 204 0056 1A60     		str	r2, [r3]
 205              	.L10:
 358:.\queue.c     **** 		}
 359:.\queue.c     **** 
 360:.\queue.c     **** 		/* Initialise the queue members as described above where the queue type
 361:.\queue.c     **** 		is defined. */
 362:.\queue.c     **** 		pxNewQueue->uxLength = uxQueueLength;
 206              		.loc 1 362 0
 207 0058 3B69     		ldr	r3, [r7, #16]
 208 005a FA68     		ldr	r2, [r7, #12]
ARM GAS  C:\Users\mjphi\AppData\Local\Temp\ccgjF1VN.s 			page 11


 209 005c DA63     		str	r2, [r3, #60]
 363:.\queue.c     **** 		pxNewQueue->uxItemSize = uxItemSize;
 210              		.loc 1 363 0
 211 005e 3B69     		ldr	r3, [r7, #16]
 212 0060 BA68     		ldr	r2, [r7, #8]
 213 0062 1A64     		str	r2, [r3, #64]
 364:.\queue.c     **** 		( void ) xQueueGenericReset( pxNewQueue, pdTRUE );
 214              		.loc 1 364 0
 215 0064 3869     		ldr	r0, [r7, #16]
 216 0066 0121     		movs	r1, #1
 217 0068 FFF7FEFF 		bl	xQueueGenericReset
 365:.\queue.c     **** 
 366:.\queue.c     **** 		#if ( configUSE_TRACE_FACILITY == 1 )
 367:.\queue.c     **** 		{
 368:.\queue.c     **** 			pxNewQueue->ucQueueType = ucQueueType;
 369:.\queue.c     **** 		}
 370:.\queue.c     **** 		#endif /* configUSE_TRACE_FACILITY */
 371:.\queue.c     **** 
 372:.\queue.c     **** 		#if( configUSE_QUEUE_SETS == 1 )
 373:.\queue.c     **** 		{
 374:.\queue.c     **** 			pxNewQueue->pxQueueSetContainer = NULL;
 375:.\queue.c     **** 		}
 376:.\queue.c     **** 		#endif /* configUSE_QUEUE_SETS */
 377:.\queue.c     **** 
 378:.\queue.c     **** 		traceQUEUE_CREATE( pxNewQueue );
 379:.\queue.c     **** 		xReturn = pxNewQueue;
 218              		.loc 1 379 0
 219 006c 3B69     		ldr	r3, [r7, #16]
 220 006e BB61     		str	r3, [r7, #24]
 221              	.L8:
 380:.\queue.c     **** 	}
 381:.\queue.c     **** 	else
 382:.\queue.c     **** 	{
 383:.\queue.c     **** 		mtCOVERAGE_TEST_MARKER();
 384:.\queue.c     **** 	}
 385:.\queue.c     **** 
 386:.\queue.c     **** 	configASSERT( xReturn );
 387:.\queue.c     **** 
 388:.\queue.c     **** 	return xReturn;
 222              		.loc 1 388 0
 223 0070 BB69     		ldr	r3, [r7, #24]
 389:.\queue.c     **** }
 224              		.loc 1 389 0
 225 0072 1846     		mov	r0, r3
 226 0074 2037     		adds	r7, r7, #32
 227              		.cfi_def_cfa_offset 8
 228 0076 BD46     		mov	sp, r7
 229              		.cfi_def_cfa_register 13
 230              		@ sp needed
 231 0078 80BD     		pop	{r7, pc}
 232              		.cfi_endproc
 233              	.LFE65:
 234              		.size	xQueueGenericCreate, .-xQueueGenericCreate
 235 007a 00BF     		.section	.text.xQueueCreateMutex,"ax",%progbits
 236              		.align	2
 237              		.global	xQueueCreateMutex
 238              		.thumb
ARM GAS  C:\Users\mjphi\AppData\Local\Temp\ccgjF1VN.s 			page 12


 239              		.thumb_func
 240              		.type	xQueueCreateMutex, %function
 241              	xQueueCreateMutex:
 242              	.LFB66:
 390:.\queue.c     **** /*-----------------------------------------------------------*/
 391:.\queue.c     **** 
 392:.\queue.c     **** #if ( configUSE_MUTEXES == 1 )
 393:.\queue.c     **** 
 394:.\queue.c     **** 	QueueHandle_t xQueueCreateMutex( const uint8_t ucQueueType )
 395:.\queue.c     **** 	{
 243              		.loc 1 395 0
 244              		.cfi_startproc
 245              		@ args = 0, pretend = 0, frame = 16
 246              		@ frame_needed = 1, uses_anonymous_args = 0
 247 0000 80B5     		push	{r7, lr}
 248              		.cfi_def_cfa_offset 8
 249              		.cfi_offset 7, -8
 250              		.cfi_offset 14, -4
 251 0002 84B0     		sub	sp, sp, #16
 252              		.cfi_def_cfa_offset 24
 253 0004 00AF     		add	r7, sp, #0
 254              		.cfi_def_cfa_register 7
 255 0006 0346     		mov	r3, r0
 256 0008 FB71     		strb	r3, [r7, #7]
 396:.\queue.c     **** 	Queue_t *pxNewQueue;
 397:.\queue.c     **** 
 398:.\queue.c     **** 		/* Prevent compiler warnings about unused parameters if
 399:.\queue.c     **** 		configUSE_TRACE_FACILITY does not equal 1. */
 400:.\queue.c     **** 		( void ) ucQueueType;
 401:.\queue.c     **** 
 402:.\queue.c     **** 		/* Allocate the new queue structure. */
 403:.\queue.c     **** 		pxNewQueue = ( Queue_t * ) pvPortMalloc( sizeof( Queue_t ) );
 257              		.loc 1 403 0
 258 000a 4C20     		movs	r0, #76
 259 000c FFF7FEFF 		bl	pvPortMalloc
 260 0010 F860     		str	r0, [r7, #12]
 404:.\queue.c     **** 		if( pxNewQueue != NULL )
 261              		.loc 1 404 0
 262 0012 FB68     		ldr	r3, [r7, #12]
 263 0014 002B     		cmp	r3, #0
 264 0016 2CD0     		beq	.L13
 405:.\queue.c     **** 		{
 406:.\queue.c     **** 			/* Information required for priority inheritance. */
 407:.\queue.c     **** 			pxNewQueue->pxMutexHolder = NULL;
 265              		.loc 1 407 0
 266 0018 FB68     		ldr	r3, [r7, #12]
 267 001a 0022     		movs	r2, #0
 268 001c 5A60     		str	r2, [r3, #4]
 408:.\queue.c     **** 			pxNewQueue->uxQueueType = queueQUEUE_IS_MUTEX;
 269              		.loc 1 408 0
 270 001e FB68     		ldr	r3, [r7, #12]
 271 0020 0022     		movs	r2, #0
 272 0022 1A60     		str	r2, [r3]
 409:.\queue.c     **** 
 410:.\queue.c     **** 			/* Queues used as a mutex no data is actually copied into or out
 411:.\queue.c     **** 			of the queue. */
 412:.\queue.c     **** 			pxNewQueue->pcWriteTo = NULL;
ARM GAS  C:\Users\mjphi\AppData\Local\Temp\ccgjF1VN.s 			page 13


 273              		.loc 1 412 0
 274 0024 FB68     		ldr	r3, [r7, #12]
 275 0026 0022     		movs	r2, #0
 276 0028 9A60     		str	r2, [r3, #8]
 413:.\queue.c     **** 			pxNewQueue->u.pcReadFrom = NULL;
 277              		.loc 1 413 0
 278 002a FB68     		ldr	r3, [r7, #12]
 279 002c 0022     		movs	r2, #0
 280 002e DA60     		str	r2, [r3, #12]
 414:.\queue.c     **** 
 415:.\queue.c     **** 			/* Each mutex has a length of 1 (like a binary semaphore) and
 416:.\queue.c     **** 			an item size of 0 as nothing is actually copied into or out
 417:.\queue.c     **** 			of the mutex. */
 418:.\queue.c     **** 			pxNewQueue->uxMessagesWaiting = ( UBaseType_t ) 0U;
 281              		.loc 1 418 0
 282 0030 FB68     		ldr	r3, [r7, #12]
 283 0032 0022     		movs	r2, #0
 284 0034 9A63     		str	r2, [r3, #56]
 419:.\queue.c     **** 			pxNewQueue->uxLength = ( UBaseType_t ) 1U;
 285              		.loc 1 419 0
 286 0036 FB68     		ldr	r3, [r7, #12]
 287 0038 0122     		movs	r2, #1
 288 003a DA63     		str	r2, [r3, #60]
 420:.\queue.c     **** 			pxNewQueue->uxItemSize = ( UBaseType_t ) 0U;
 289              		.loc 1 420 0
 290 003c FB68     		ldr	r3, [r7, #12]
 291 003e 0022     		movs	r2, #0
 292 0040 1A64     		str	r2, [r3, #64]
 421:.\queue.c     **** 			pxNewQueue->xRxLock = queueUNLOCKED;
 293              		.loc 1 421 0
 294 0042 FB68     		ldr	r3, [r7, #12]
 295 0044 4FF0FF32 		mov	r2, #-1
 296 0048 5A64     		str	r2, [r3, #68]
 422:.\queue.c     **** 			pxNewQueue->xTxLock = queueUNLOCKED;
 297              		.loc 1 422 0
 298 004a FB68     		ldr	r3, [r7, #12]
 299 004c 4FF0FF32 		mov	r2, #-1
 300 0050 9A64     		str	r2, [r3, #72]
 423:.\queue.c     **** 
 424:.\queue.c     **** 			#if ( configUSE_TRACE_FACILITY == 1 )
 425:.\queue.c     **** 			{
 426:.\queue.c     **** 				pxNewQueue->ucQueueType = ucQueueType;
 427:.\queue.c     **** 			}
 428:.\queue.c     **** 			#endif
 429:.\queue.c     **** 
 430:.\queue.c     **** 			#if ( configUSE_QUEUE_SETS == 1 )
 431:.\queue.c     **** 			{
 432:.\queue.c     **** 				pxNewQueue->pxQueueSetContainer = NULL;
 433:.\queue.c     **** 			}
 434:.\queue.c     **** 			#endif
 435:.\queue.c     **** 
 436:.\queue.c     **** 			/* Ensure the event queues start with the correct state. */
 437:.\queue.c     **** 			vListInitialise( &( pxNewQueue->xTasksWaitingToSend ) );
 301              		.loc 1 437 0
 302 0052 FB68     		ldr	r3, [r7, #12]
 303 0054 1033     		adds	r3, r3, #16
 304 0056 1846     		mov	r0, r3
ARM GAS  C:\Users\mjphi\AppData\Local\Temp\ccgjF1VN.s 			page 14


 305 0058 FFF7FEFF 		bl	vListInitialise
 438:.\queue.c     **** 			vListInitialise( &( pxNewQueue->xTasksWaitingToReceive ) );
 306              		.loc 1 438 0
 307 005c FB68     		ldr	r3, [r7, #12]
 308 005e 2433     		adds	r3, r3, #36
 309 0060 1846     		mov	r0, r3
 310 0062 FFF7FEFF 		bl	vListInitialise
 439:.\queue.c     **** 
 440:.\queue.c     **** 			traceCREATE_MUTEX( pxNewQueue );
 441:.\queue.c     **** 
 442:.\queue.c     **** 			/* Start with the semaphore in the expected state. */
 443:.\queue.c     **** 			( void ) xQueueGenericSend( pxNewQueue, NULL, ( TickType_t ) 0U, queueSEND_TO_BACK );
 311              		.loc 1 443 0
 312 0066 F868     		ldr	r0, [r7, #12]
 313 0068 0021     		movs	r1, #0
 314 006a 0022     		movs	r2, #0
 315 006c 0023     		movs	r3, #0
 316 006e FFF7FEFF 		bl	xQueueGenericSend
 317              	.L13:
 444:.\queue.c     **** 		}
 445:.\queue.c     **** 		else
 446:.\queue.c     **** 		{
 447:.\queue.c     **** 			traceCREATE_MUTEX_FAILED();
 448:.\queue.c     **** 		}
 449:.\queue.c     **** 
 450:.\queue.c     **** 		configASSERT( pxNewQueue );
 451:.\queue.c     **** 		return pxNewQueue;
 318              		.loc 1 451 0
 319 0072 FB68     		ldr	r3, [r7, #12]
 452:.\queue.c     **** 	}
 320              		.loc 1 452 0
 321 0074 1846     		mov	r0, r3
 322 0076 1037     		adds	r7, r7, #16
 323              		.cfi_def_cfa_offset 8
 324 0078 BD46     		mov	sp, r7
 325              		.cfi_def_cfa_register 13
 326              		@ sp needed
 327 007a 80BD     		pop	{r7, pc}
 328              		.cfi_endproc
 329              	.LFE66:
 330              		.size	xQueueCreateMutex, .-xQueueCreateMutex
 331              		.section	.text.xQueueGiveMutexRecursive,"ax",%progbits
 332              		.align	2
 333              		.global	xQueueGiveMutexRecursive
 334              		.thumb
 335              		.thumb_func
 336              		.type	xQueueGiveMutexRecursive, %function
 337              	xQueueGiveMutexRecursive:
 338              	.LFB67:
 453:.\queue.c     **** 
 454:.\queue.c     **** #endif /* configUSE_MUTEXES */
 455:.\queue.c     **** /*-----------------------------------------------------------*/
 456:.\queue.c     **** 
 457:.\queue.c     **** #if ( ( configUSE_MUTEXES == 1 ) && ( INCLUDE_xSemaphoreGetMutexHolder == 1 ) )
 458:.\queue.c     **** 
 459:.\queue.c     **** 	void* xQueueGetMutexHolder( QueueHandle_t xSemaphore )
 460:.\queue.c     **** 	{
ARM GAS  C:\Users\mjphi\AppData\Local\Temp\ccgjF1VN.s 			page 15


 461:.\queue.c     **** 	void *pxReturn;
 462:.\queue.c     **** 
 463:.\queue.c     **** 		/* This function is called by xSemaphoreGetMutexHolder(), and should not
 464:.\queue.c     **** 		be called directly.  Note:  This is a good way of determining if the
 465:.\queue.c     **** 		calling task is the mutex holder, but not a good way of determining the
 466:.\queue.c     **** 		identity of the mutex holder, as the holder may change between the
 467:.\queue.c     **** 		following critical section exiting and the function returning. */
 468:.\queue.c     **** 		taskENTER_CRITICAL();
 469:.\queue.c     **** 		{
 470:.\queue.c     **** 			if( ( ( Queue_t * ) xSemaphore )->uxQueueType == queueQUEUE_IS_MUTEX )
 471:.\queue.c     **** 			{
 472:.\queue.c     **** 				pxReturn = ( void * ) ( ( Queue_t * ) xSemaphore )->pxMutexHolder;
 473:.\queue.c     **** 			}
 474:.\queue.c     **** 			else
 475:.\queue.c     **** 			{
 476:.\queue.c     **** 				pxReturn = NULL;
 477:.\queue.c     **** 			}
 478:.\queue.c     **** 		}
 479:.\queue.c     **** 		taskEXIT_CRITICAL();
 480:.\queue.c     **** 
 481:.\queue.c     **** 		return pxReturn;
 482:.\queue.c     **** 	} /*lint !e818 xSemaphore cannot be a pointer to const because it is a typedef. */
 483:.\queue.c     **** 
 484:.\queue.c     **** #endif
 485:.\queue.c     **** /*-----------------------------------------------------------*/
 486:.\queue.c     **** 
 487:.\queue.c     **** #if ( configUSE_RECURSIVE_MUTEXES == 1 )
 488:.\queue.c     **** 
 489:.\queue.c     **** 	BaseType_t xQueueGiveMutexRecursive( QueueHandle_t xMutex )
 490:.\queue.c     **** 	{
 339              		.loc 1 490 0
 340              		.cfi_startproc
 341              		@ args = 0, pretend = 0, frame = 16
 342              		@ frame_needed = 1, uses_anonymous_args = 0
 343 0000 90B5     		push	{r4, r7, lr}
 344              		.cfi_def_cfa_offset 12
 345              		.cfi_offset 4, -12
 346              		.cfi_offset 7, -8
 347              		.cfi_offset 14, -4
 348 0002 85B0     		sub	sp, sp, #20
 349              		.cfi_def_cfa_offset 32
 350 0004 00AF     		add	r7, sp, #0
 351              		.cfi_def_cfa_register 7
 352 0006 7860     		str	r0, [r7, #4]
 491:.\queue.c     **** 	BaseType_t xReturn;
 492:.\queue.c     **** 	Queue_t * const pxMutex = ( Queue_t * ) xMutex;
 353              		.loc 1 492 0
 354 0008 7B68     		ldr	r3, [r7, #4]
 355 000a BB60     		str	r3, [r7, #8]
 493:.\queue.c     **** 
 494:.\queue.c     **** 		configASSERT( pxMutex );
 495:.\queue.c     **** 
 496:.\queue.c     **** 		/* If this is the task that holds the mutex then pxMutexHolder will not
 497:.\queue.c     **** 		change outside of this task.  If this task does not hold the mutex then
 498:.\queue.c     **** 		pxMutexHolder can never coincidentally equal the tasks handle, and as
 499:.\queue.c     **** 		this is the only condition we are interested in it does not matter if
 500:.\queue.c     **** 		pxMutexHolder is accessed simultaneously by another task.  Therefore no
ARM GAS  C:\Users\mjphi\AppData\Local\Temp\ccgjF1VN.s 			page 16


 501:.\queue.c     **** 		mutual exclusion is required to test the pxMutexHolder variable. */
 502:.\queue.c     **** 		if( pxMutex->pxMutexHolder == ( void * ) xTaskGetCurrentTaskHandle() ) /*lint !e961 Not a redunda
 356              		.loc 1 502 0
 357 000c BB68     		ldr	r3, [r7, #8]
 358 000e 5C68     		ldr	r4, [r3, #4]
 359 0010 FFF7FEFF 		bl	xTaskGetCurrentTaskHandle
 360 0014 0346     		mov	r3, r0
 361 0016 9C42     		cmp	r4, r3
 362 0018 11D1     		bne	.L16
 503:.\queue.c     **** 		{
 504:.\queue.c     **** 			traceGIVE_MUTEX_RECURSIVE( pxMutex );
 505:.\queue.c     **** 
 506:.\queue.c     **** 			/* uxRecursiveCallCount cannot be zero if pxMutexHolder is equal to
 507:.\queue.c     **** 			the task handle, therefore no underflow check is required.  Also,
 508:.\queue.c     **** 			uxRecursiveCallCount is only modified by the mutex holder, and as
 509:.\queue.c     **** 			there can only be one, no mutual exclusion is required to modify the
 510:.\queue.c     **** 			uxRecursiveCallCount member. */
 511:.\queue.c     **** 			( pxMutex->u.uxRecursiveCallCount )--;
 363              		.loc 1 511 0
 364 001a BB68     		ldr	r3, [r7, #8]
 365 001c DB68     		ldr	r3, [r3, #12]
 366 001e 5A1E     		subs	r2, r3, #1
 367 0020 BB68     		ldr	r3, [r7, #8]
 368 0022 DA60     		str	r2, [r3, #12]
 512:.\queue.c     **** 
 513:.\queue.c     **** 			/* Have we unwound the call count? */
 514:.\queue.c     **** 			if( pxMutex->u.uxRecursiveCallCount == ( UBaseType_t ) 0 )
 369              		.loc 1 514 0
 370 0024 BB68     		ldr	r3, [r7, #8]
 371 0026 DB68     		ldr	r3, [r3, #12]
 372 0028 002B     		cmp	r3, #0
 373 002a 05D1     		bne	.L17
 515:.\queue.c     **** 			{
 516:.\queue.c     **** 				/* Return the mutex.  This will automatically unblock any other
 517:.\queue.c     **** 				task that might be waiting to access the mutex. */
 518:.\queue.c     **** 				( void ) xQueueGenericSend( pxMutex, NULL, queueMUTEX_GIVE_BLOCK_TIME, queueSEND_TO_BACK );
 374              		.loc 1 518 0
 375 002c B868     		ldr	r0, [r7, #8]
 376 002e 0021     		movs	r1, #0
 377 0030 0022     		movs	r2, #0
 378 0032 0023     		movs	r3, #0
 379 0034 FFF7FEFF 		bl	xQueueGenericSend
 380              	.L17:
 519:.\queue.c     **** 			}
 520:.\queue.c     **** 			else
 521:.\queue.c     **** 			{
 522:.\queue.c     **** 				mtCOVERAGE_TEST_MARKER();
 523:.\queue.c     **** 			}
 524:.\queue.c     **** 
 525:.\queue.c     **** 			xReturn = pdPASS;
 381              		.loc 1 525 0
 382 0038 0123     		movs	r3, #1
 383 003a FB60     		str	r3, [r7, #12]
 384 003c 01E0     		b	.L18
 385              	.L16:
 526:.\queue.c     **** 		}
 527:.\queue.c     **** 		else
ARM GAS  C:\Users\mjphi\AppData\Local\Temp\ccgjF1VN.s 			page 17


 528:.\queue.c     **** 		{
 529:.\queue.c     **** 			/* The mutex cannot be given because the calling task is not the
 530:.\queue.c     **** 			holder. */
 531:.\queue.c     **** 			xReturn = pdFAIL;
 386              		.loc 1 531 0
 387 003e 0023     		movs	r3, #0
 388 0040 FB60     		str	r3, [r7, #12]
 389              	.L18:
 532:.\queue.c     **** 
 533:.\queue.c     **** 			traceGIVE_MUTEX_RECURSIVE_FAILED( pxMutex );
 534:.\queue.c     **** 		}
 535:.\queue.c     **** 
 536:.\queue.c     **** 		return xReturn;
 390              		.loc 1 536 0
 391 0042 FB68     		ldr	r3, [r7, #12]
 537:.\queue.c     **** 	}
 392              		.loc 1 537 0
 393 0044 1846     		mov	r0, r3
 394 0046 1437     		adds	r7, r7, #20
 395              		.cfi_def_cfa_offset 12
 396 0048 BD46     		mov	sp, r7
 397              		.cfi_def_cfa_register 13
 398              		@ sp needed
 399 004a 90BD     		pop	{r4, r7, pc}
 400              		.cfi_endproc
 401              	.LFE67:
 402              		.size	xQueueGiveMutexRecursive, .-xQueueGiveMutexRecursive
 403              		.section	.text.xQueueTakeMutexRecursive,"ax",%progbits
 404              		.align	2
 405              		.global	xQueueTakeMutexRecursive
 406              		.thumb
 407              		.thumb_func
 408              		.type	xQueueTakeMutexRecursive, %function
 409              	xQueueTakeMutexRecursive:
 410              	.LFB68:
 538:.\queue.c     **** 
 539:.\queue.c     **** #endif /* configUSE_RECURSIVE_MUTEXES */
 540:.\queue.c     **** /*-----------------------------------------------------------*/
 541:.\queue.c     **** 
 542:.\queue.c     **** #if ( configUSE_RECURSIVE_MUTEXES == 1 )
 543:.\queue.c     **** 
 544:.\queue.c     **** 	BaseType_t xQueueTakeMutexRecursive( QueueHandle_t xMutex, TickType_t xTicksToWait )
 545:.\queue.c     **** 	{
 411              		.loc 1 545 0
 412              		.cfi_startproc
 413              		@ args = 0, pretend = 0, frame = 16
 414              		@ frame_needed = 1, uses_anonymous_args = 0
 415 0000 90B5     		push	{r4, r7, lr}
 416              		.cfi_def_cfa_offset 12
 417              		.cfi_offset 4, -12
 418              		.cfi_offset 7, -8
 419              		.cfi_offset 14, -4
 420 0002 85B0     		sub	sp, sp, #20
 421              		.cfi_def_cfa_offset 32
 422 0004 00AF     		add	r7, sp, #0
 423              		.cfi_def_cfa_register 7
 424 0006 7860     		str	r0, [r7, #4]
ARM GAS  C:\Users\mjphi\AppData\Local\Temp\ccgjF1VN.s 			page 18


 425 0008 3960     		str	r1, [r7]
 546:.\queue.c     **** 	BaseType_t xReturn;
 547:.\queue.c     **** 	Queue_t * const pxMutex = ( Queue_t * ) xMutex;
 426              		.loc 1 547 0
 427 000a 7B68     		ldr	r3, [r7, #4]
 428 000c BB60     		str	r3, [r7, #8]
 548:.\queue.c     **** 
 549:.\queue.c     **** 		configASSERT( pxMutex );
 550:.\queue.c     **** 
 551:.\queue.c     **** 		/* Comments regarding mutual exclusion as per those within
 552:.\queue.c     **** 		xQueueGiveMutexRecursive(). */
 553:.\queue.c     **** 
 554:.\queue.c     **** 		traceTAKE_MUTEX_RECURSIVE( pxMutex );
 555:.\queue.c     **** 
 556:.\queue.c     **** 		if( pxMutex->pxMutexHolder == ( void * ) xTaskGetCurrentTaskHandle() ) /*lint !e961 Cast is not r
 429              		.loc 1 556 0
 430 000e BB68     		ldr	r3, [r7, #8]
 431 0010 5C68     		ldr	r4, [r3, #4]
 432 0012 FFF7FEFF 		bl	xTaskGetCurrentTaskHandle
 433 0016 0346     		mov	r3, r0
 434 0018 9C42     		cmp	r4, r3
 435 001a 07D1     		bne	.L21
 557:.\queue.c     **** 		{
 558:.\queue.c     **** 			( pxMutex->u.uxRecursiveCallCount )++;
 436              		.loc 1 558 0
 437 001c BB68     		ldr	r3, [r7, #8]
 438 001e DB68     		ldr	r3, [r3, #12]
 439 0020 5A1C     		adds	r2, r3, #1
 440 0022 BB68     		ldr	r3, [r7, #8]
 441 0024 DA60     		str	r2, [r3, #12]
 559:.\queue.c     **** 			xReturn = pdPASS;
 442              		.loc 1 559 0
 443 0026 0123     		movs	r3, #1
 444 0028 FB60     		str	r3, [r7, #12]
 445 002a 0EE0     		b	.L22
 446              	.L21:
 560:.\queue.c     **** 		}
 561:.\queue.c     **** 		else
 562:.\queue.c     **** 		{
 563:.\queue.c     **** 			xReturn = xQueueGenericReceive( pxMutex, NULL, xTicksToWait, pdFALSE );
 447              		.loc 1 563 0
 448 002c B868     		ldr	r0, [r7, #8]
 449 002e 0021     		movs	r1, #0
 450 0030 3A68     		ldr	r2, [r7]
 451 0032 0023     		movs	r3, #0
 452 0034 FFF7FEFF 		bl	xQueueGenericReceive
 453 0038 F860     		str	r0, [r7, #12]
 564:.\queue.c     **** 
 565:.\queue.c     **** 			/* pdPASS will only be returned if the mutex was successfully
 566:.\queue.c     **** 			obtained.  The calling task may have entered the Blocked state
 567:.\queue.c     **** 			before reaching here. */
 568:.\queue.c     **** 			if( xReturn == pdPASS )
 454              		.loc 1 568 0
 455 003a FB68     		ldr	r3, [r7, #12]
 456 003c 012B     		cmp	r3, #1
 457 003e 04D1     		bne	.L22
 569:.\queue.c     **** 			{
ARM GAS  C:\Users\mjphi\AppData\Local\Temp\ccgjF1VN.s 			page 19


 570:.\queue.c     **** 				( pxMutex->u.uxRecursiveCallCount )++;
 458              		.loc 1 570 0
 459 0040 BB68     		ldr	r3, [r7, #8]
 460 0042 DB68     		ldr	r3, [r3, #12]
 461 0044 5A1C     		adds	r2, r3, #1
 462 0046 BB68     		ldr	r3, [r7, #8]
 463 0048 DA60     		str	r2, [r3, #12]
 464              	.L22:
 571:.\queue.c     **** 			}
 572:.\queue.c     **** 			else
 573:.\queue.c     **** 			{
 574:.\queue.c     **** 				traceTAKE_MUTEX_RECURSIVE_FAILED( pxMutex );
 575:.\queue.c     **** 			}
 576:.\queue.c     **** 		}
 577:.\queue.c     **** 
 578:.\queue.c     **** 		return xReturn;
 465              		.loc 1 578 0
 466 004a FB68     		ldr	r3, [r7, #12]
 579:.\queue.c     **** 	}
 467              		.loc 1 579 0
 468 004c 1846     		mov	r0, r3
 469 004e 1437     		adds	r7, r7, #20
 470              		.cfi_def_cfa_offset 12
 471 0050 BD46     		mov	sp, r7
 472              		.cfi_def_cfa_register 13
 473              		@ sp needed
 474 0052 90BD     		pop	{r4, r7, pc}
 475              		.cfi_endproc
 476              	.LFE68:
 477              		.size	xQueueTakeMutexRecursive, .-xQueueTakeMutexRecursive
 478              		.section	.text.xQueueCreateCountingSemaphore,"ax",%progbits
 479              		.align	2
 480              		.global	xQueueCreateCountingSemaphore
 481              		.thumb
 482              		.thumb_func
 483              		.type	xQueueCreateCountingSemaphore, %function
 484              	xQueueCreateCountingSemaphore:
 485              	.LFB69:
 580:.\queue.c     **** 
 581:.\queue.c     **** #endif /* configUSE_RECURSIVE_MUTEXES */
 582:.\queue.c     **** /*-----------------------------------------------------------*/
 583:.\queue.c     **** 
 584:.\queue.c     **** #if ( configUSE_COUNTING_SEMAPHORES == 1 )
 585:.\queue.c     **** 
 586:.\queue.c     **** 	QueueHandle_t xQueueCreateCountingSemaphore( const UBaseType_t uxMaxCount, const UBaseType_t uxIni
 587:.\queue.c     **** 	{
 486              		.loc 1 587 0
 487              		.cfi_startproc
 488              		@ args = 0, pretend = 0, frame = 16
 489              		@ frame_needed = 1, uses_anonymous_args = 0
 490 0000 80B5     		push	{r7, lr}
 491              		.cfi_def_cfa_offset 8
 492              		.cfi_offset 7, -8
 493              		.cfi_offset 14, -4
 494 0002 84B0     		sub	sp, sp, #16
 495              		.cfi_def_cfa_offset 24
 496 0004 00AF     		add	r7, sp, #0
ARM GAS  C:\Users\mjphi\AppData\Local\Temp\ccgjF1VN.s 			page 20


 497              		.cfi_def_cfa_register 7
 498 0006 7860     		str	r0, [r7, #4]
 499 0008 3960     		str	r1, [r7]
 588:.\queue.c     **** 	QueueHandle_t xHandle;
 589:.\queue.c     **** 
 590:.\queue.c     **** 		configASSERT( uxMaxCount != 0 );
 591:.\queue.c     **** 		configASSERT( uxInitialCount <= uxMaxCount );
 592:.\queue.c     **** 
 593:.\queue.c     **** 		xHandle = xQueueGenericCreate( uxMaxCount, queueSEMAPHORE_QUEUE_ITEM_LENGTH, queueQUEUE_TYPE_COUN
 500              		.loc 1 593 0
 501 000a 7868     		ldr	r0, [r7, #4]
 502 000c 0021     		movs	r1, #0
 503 000e 0222     		movs	r2, #2
 504 0010 FFF7FEFF 		bl	xQueueGenericCreate
 505 0014 F860     		str	r0, [r7, #12]
 594:.\queue.c     **** 
 595:.\queue.c     **** 		if( xHandle != NULL )
 506              		.loc 1 595 0
 507 0016 FB68     		ldr	r3, [r7, #12]
 508 0018 002B     		cmp	r3, #0
 509 001a 02D0     		beq	.L25
 596:.\queue.c     **** 		{
 597:.\queue.c     **** 			( ( Queue_t * ) xHandle )->uxMessagesWaiting = uxInitialCount;
 510              		.loc 1 597 0
 511 001c FB68     		ldr	r3, [r7, #12]
 512 001e 3A68     		ldr	r2, [r7]
 513 0020 9A63     		str	r2, [r3, #56]
 514              	.L25:
 598:.\queue.c     **** 
 599:.\queue.c     **** 			traceCREATE_COUNTING_SEMAPHORE();
 600:.\queue.c     **** 		}
 601:.\queue.c     **** 		else
 602:.\queue.c     **** 		{
 603:.\queue.c     **** 			traceCREATE_COUNTING_SEMAPHORE_FAILED();
 604:.\queue.c     **** 		}
 605:.\queue.c     **** 
 606:.\queue.c     **** 		configASSERT( xHandle );
 607:.\queue.c     **** 		return xHandle;
 515              		.loc 1 607 0
 516 0022 FB68     		ldr	r3, [r7, #12]
 608:.\queue.c     **** 	}
 517              		.loc 1 608 0
 518 0024 1846     		mov	r0, r3
 519 0026 1037     		adds	r7, r7, #16
 520              		.cfi_def_cfa_offset 8
 521 0028 BD46     		mov	sp, r7
 522              		.cfi_def_cfa_register 13
 523              		@ sp needed
 524 002a 80BD     		pop	{r7, pc}
 525              		.cfi_endproc
 526              	.LFE69:
 527              		.size	xQueueCreateCountingSemaphore, .-xQueueCreateCountingSemaphore
 528              		.section	.text.xQueueGenericSend,"ax",%progbits
 529              		.align	2
 530              		.global	xQueueGenericSend
 531              		.thumb
 532              		.thumb_func
ARM GAS  C:\Users\mjphi\AppData\Local\Temp\ccgjF1VN.s 			page 21


 533              		.type	xQueueGenericSend, %function
 534              	xQueueGenericSend:
 535              	.LFB70:
 609:.\queue.c     **** 
 610:.\queue.c     **** #endif /* configUSE_COUNTING_SEMAPHORES */
 611:.\queue.c     **** /*-----------------------------------------------------------*/
 612:.\queue.c     **** 
 613:.\queue.c     **** BaseType_t xQueueGenericSend( QueueHandle_t xQueue, const void * const pvItemToQueue, TickType_t xT
 614:.\queue.c     **** {
 536              		.loc 1 614 0
 537              		.cfi_startproc
 538              		@ args = 0, pretend = 0, frame = 40
 539              		@ frame_needed = 1, uses_anonymous_args = 0
 540 0000 80B5     		push	{r7, lr}
 541              		.cfi_def_cfa_offset 8
 542              		.cfi_offset 7, -8
 543              		.cfi_offset 14, -4
 544 0002 8AB0     		sub	sp, sp, #40
 545              		.cfi_def_cfa_offset 48
 546 0004 00AF     		add	r7, sp, #0
 547              		.cfi_def_cfa_register 7
 548 0006 F860     		str	r0, [r7, #12]
 549 0008 B960     		str	r1, [r7, #8]
 550 000a 7A60     		str	r2, [r7, #4]
 551 000c 3B60     		str	r3, [r7]
 615:.\queue.c     **** BaseType_t xEntryTimeSet = pdFALSE, xYieldRequired;
 552              		.loc 1 615 0
 553 000e 0023     		movs	r3, #0
 554 0010 7B62     		str	r3, [r7, #36]
 616:.\queue.c     **** TimeOut_t xTimeOut;
 617:.\queue.c     **** Queue_t * const pxQueue = ( Queue_t * ) xQueue;
 555              		.loc 1 617 0
 556 0012 FB68     		ldr	r3, [r7, #12]
 557 0014 3B62     		str	r3, [r7, #32]
 558              	.L42:
 618:.\queue.c     **** 
 619:.\queue.c     **** 	configASSERT( pxQueue );
 620:.\queue.c     **** 	configASSERT( !( ( pvItemToQueue == NULL ) && ( pxQueue->uxItemSize != ( UBaseType_t ) 0U ) ) );
 621:.\queue.c     **** 	configASSERT( !( ( xCopyPosition == queueOVERWRITE ) && ( pxQueue->uxLength != 1 ) ) );
 622:.\queue.c     **** 	#if ( ( INCLUDE_xTaskGetSchedulerState == 1 ) || ( configUSE_TIMERS == 1 ) )
 623:.\queue.c     **** 	{
 624:.\queue.c     **** 		configASSERT( !( ( xTaskGetSchedulerState() == taskSCHEDULER_SUSPENDED ) && ( xTicksToWait != 0 )
 625:.\queue.c     **** 	}
 626:.\queue.c     **** 	#endif
 627:.\queue.c     **** 
 628:.\queue.c     **** 
 629:.\queue.c     **** 	/* This function relaxes the coding standard somewhat to allow return
 630:.\queue.c     **** 	statements within the function itself.  This is done in the interest
 631:.\queue.c     **** 	of execution time efficiency. */
 632:.\queue.c     **** 	for( ;; )
 633:.\queue.c     **** 	{
 634:.\queue.c     **** 		taskENTER_CRITICAL();
 559              		.loc 1 634 0
 560 0016 FFF7FEFF 		bl	vPortEnterCritical
 635:.\queue.c     **** 		{
 636:.\queue.c     **** 			/* Is there room on the queue now?  The running task must be the
 637:.\queue.c     **** 			highest priority task wanting to access the queue.  If the head item
ARM GAS  C:\Users\mjphi\AppData\Local\Temp\ccgjF1VN.s 			page 22


 638:.\queue.c     **** 			in the queue is to be overwritten then it does not matter if the
 639:.\queue.c     **** 			queue is full. */
 640:.\queue.c     **** 			if( ( pxQueue->uxMessagesWaiting < pxQueue->uxLength ) || ( xCopyPosition == queueOVERWRITE ) )
 561              		.loc 1 640 0
 562 001a 3B6A     		ldr	r3, [r7, #32]
 563 001c 9A6B     		ldr	r2, [r3, #56]
 564 001e 3B6A     		ldr	r3, [r7, #32]
 565 0020 DB6B     		ldr	r3, [r3, #60]
 566 0022 9A42     		cmp	r2, r3
 567 0024 02D3     		bcc	.L28
 568              		.loc 1 640 0 is_stmt 0 discriminator 1
 569 0026 3B68     		ldr	r3, [r7]
 570 0028 022B     		cmp	r3, #2
 571 002a 1DD1     		bne	.L29
 572              	.L28:
 641:.\queue.c     **** 			{
 642:.\queue.c     **** 				traceQUEUE_SEND( pxQueue );
 643:.\queue.c     **** 				xYieldRequired = prvCopyDataToQueue( pxQueue, pvItemToQueue, xCopyPosition );
 573              		.loc 1 643 0 is_stmt 1
 574 002c 386A     		ldr	r0, [r7, #32]
 575 002e B968     		ldr	r1, [r7, #8]
 576 0030 3A68     		ldr	r2, [r7]
 577 0032 FFF7FEFF 		bl	prvCopyDataToQueue
 578 0036 F861     		str	r0, [r7, #28]
 644:.\queue.c     **** 
 645:.\queue.c     **** 				#if ( configUSE_QUEUE_SETS == 1 )
 646:.\queue.c     **** 				{
 647:.\queue.c     **** 					if( pxQueue->pxQueueSetContainer != NULL )
 648:.\queue.c     **** 					{
 649:.\queue.c     **** 						if( prvNotifyQueueSetContainer( pxQueue, xCopyPosition ) == pdTRUE )
 650:.\queue.c     **** 						{
 651:.\queue.c     **** 							/* The queue is a member of a queue set, and posting
 652:.\queue.c     **** 							to the queue set caused a higher priority task to
 653:.\queue.c     **** 							unblock. A context switch is required. */
 654:.\queue.c     **** 							queueYIELD_IF_USING_PREEMPTION();
 655:.\queue.c     **** 						}
 656:.\queue.c     **** 						else
 657:.\queue.c     **** 						{
 658:.\queue.c     **** 							mtCOVERAGE_TEST_MARKER();
 659:.\queue.c     **** 						}
 660:.\queue.c     **** 					}
 661:.\queue.c     **** 					else
 662:.\queue.c     **** 					{
 663:.\queue.c     **** 						/* If there was a task waiting for data to arrive on the
 664:.\queue.c     **** 						queue then unblock it now. */
 665:.\queue.c     **** 						if( listLIST_IS_EMPTY( &( pxQueue->xTasksWaitingToReceive ) ) == pdFALSE )
 666:.\queue.c     **** 						{
 667:.\queue.c     **** 							if( xTaskRemoveFromEventList( &( pxQueue->xTasksWaitingToReceive ) ) == pdTRUE )
 668:.\queue.c     **** 							{
 669:.\queue.c     **** 								/* The unblocked task has a priority higher than
 670:.\queue.c     **** 								our own so yield immediately.  Yes it is ok to
 671:.\queue.c     **** 								do this from within the critical section - the
 672:.\queue.c     **** 								kernel takes care of that. */
 673:.\queue.c     **** 								queueYIELD_IF_USING_PREEMPTION();
 674:.\queue.c     **** 							}
 675:.\queue.c     **** 							else
 676:.\queue.c     **** 							{
ARM GAS  C:\Users\mjphi\AppData\Local\Temp\ccgjF1VN.s 			page 23


 677:.\queue.c     **** 								mtCOVERAGE_TEST_MARKER();
 678:.\queue.c     **** 							}
 679:.\queue.c     **** 						}
 680:.\queue.c     **** 						else if( xYieldRequired != pdFALSE )
 681:.\queue.c     **** 						{
 682:.\queue.c     **** 							/* This path is a special case that will only get
 683:.\queue.c     **** 							executed if the task was holding multiple mutexes
 684:.\queue.c     **** 							and the mutexes were given back in an order that is
 685:.\queue.c     **** 							different to that in which they were taken. */
 686:.\queue.c     **** 							queueYIELD_IF_USING_PREEMPTION();
 687:.\queue.c     **** 						}
 688:.\queue.c     **** 						else
 689:.\queue.c     **** 						{
 690:.\queue.c     **** 							mtCOVERAGE_TEST_MARKER();
 691:.\queue.c     **** 						}
 692:.\queue.c     **** 					}
 693:.\queue.c     **** 				}
 694:.\queue.c     **** 				#else /* configUSE_QUEUE_SETS */
 695:.\queue.c     **** 				{
 696:.\queue.c     **** 					/* If there was a task waiting for data to arrive on the
 697:.\queue.c     **** 					queue then unblock it now. */
 698:.\queue.c     **** 					if( listLIST_IS_EMPTY( &( pxQueue->xTasksWaitingToReceive ) ) == pdFALSE )
 579              		.loc 1 698 0
 580 0038 3B6A     		ldr	r3, [r7, #32]
 581 003a 5B6A     		ldr	r3, [r3, #36]
 582 003c 002B     		cmp	r3, #0
 583 003e 0AD0     		beq	.L30
 699:.\queue.c     **** 					{
 700:.\queue.c     **** 						if( xTaskRemoveFromEventList( &( pxQueue->xTasksWaitingToReceive ) ) == pdTRUE )
 584              		.loc 1 700 0
 585 0040 3B6A     		ldr	r3, [r7, #32]
 586 0042 2433     		adds	r3, r3, #36
 587 0044 1846     		mov	r0, r3
 588 0046 FFF7FEFF 		bl	xTaskRemoveFromEventList
 589 004a 0346     		mov	r3, r0
 590 004c 012B     		cmp	r3, #1
 591 004e 07D1     		bne	.L31
 701:.\queue.c     **** 						{
 702:.\queue.c     **** 							/* The unblocked task has a priority higher than
 703:.\queue.c     **** 							our own so yield immediately.  Yes it is ok to do
 704:.\queue.c     **** 							this from within the critical section - the kernel
 705:.\queue.c     **** 							takes care of that. */
 706:.\queue.c     **** 							queueYIELD_IF_USING_PREEMPTION();
 592              		.loc 1 706 0
 593 0050 FFF7FEFF 		bl	vPortYield
 594 0054 04E0     		b	.L31
 595              	.L30:
 707:.\queue.c     **** 						}
 708:.\queue.c     **** 						else
 709:.\queue.c     **** 						{
 710:.\queue.c     **** 							mtCOVERAGE_TEST_MARKER();
 711:.\queue.c     **** 						}
 712:.\queue.c     **** 					}
 713:.\queue.c     **** 					else if( xYieldRequired != pdFALSE )
 596              		.loc 1 713 0
 597 0056 FB69     		ldr	r3, [r7, #28]
 598 0058 002B     		cmp	r3, #0
ARM GAS  C:\Users\mjphi\AppData\Local\Temp\ccgjF1VN.s 			page 24


 599 005a 01D0     		beq	.L31
 714:.\queue.c     **** 					{
 715:.\queue.c     **** 						/* This path is a special case that will only get
 716:.\queue.c     **** 						executed if the task was holding multiple mutexes and
 717:.\queue.c     **** 						the mutexes were given back in an order that is
 718:.\queue.c     **** 						different to that in which they were taken. */
 719:.\queue.c     **** 						queueYIELD_IF_USING_PREEMPTION();
 600              		.loc 1 719 0
 601 005c FFF7FEFF 		bl	vPortYield
 602              	.L31:
 720:.\queue.c     **** 					}
 721:.\queue.c     **** 					else
 722:.\queue.c     **** 					{
 723:.\queue.c     **** 						mtCOVERAGE_TEST_MARKER();
 724:.\queue.c     **** 					}
 725:.\queue.c     **** 				}
 726:.\queue.c     **** 				#endif /* configUSE_QUEUE_SETS */
 727:.\queue.c     **** 
 728:.\queue.c     **** 				taskEXIT_CRITICAL();
 603              		.loc 1 728 0
 604 0060 FFF7FEFF 		bl	vPortExitCritical
 729:.\queue.c     **** 				return pdPASS;
 605              		.loc 1 729 0
 606 0064 0123     		movs	r3, #1
 607 0066 59E0     		b	.L43
 608              	.L29:
 730:.\queue.c     **** 			}
 731:.\queue.c     **** 			else
 732:.\queue.c     **** 			{
 733:.\queue.c     **** 				if( xTicksToWait == ( TickType_t ) 0 )
 609              		.loc 1 733 0
 610 0068 7B68     		ldr	r3, [r7, #4]
 611 006a 002B     		cmp	r3, #0
 612 006c 03D1     		bne	.L33
 734:.\queue.c     **** 				{
 735:.\queue.c     **** 					/* The queue was full and no block time is specified (or
 736:.\queue.c     **** 					the block time has expired) so leave now. */
 737:.\queue.c     **** 					taskEXIT_CRITICAL();
 613              		.loc 1 737 0
 614 006e FFF7FEFF 		bl	vPortExitCritical
 738:.\queue.c     **** 
 739:.\queue.c     **** 					/* Return to the original privilege level before exiting
 740:.\queue.c     **** 					the function. */
 741:.\queue.c     **** 					traceQUEUE_SEND_FAILED( pxQueue );
 742:.\queue.c     **** 					return errQUEUE_FULL;
 615              		.loc 1 742 0
 616 0072 0023     		movs	r3, #0
 617 0074 52E0     		b	.L43
 618              	.L33:
 743:.\queue.c     **** 				}
 744:.\queue.c     **** 				else if( xEntryTimeSet == pdFALSE )
 619              		.loc 1 744 0
 620 0076 7B6A     		ldr	r3, [r7, #36]
 621 0078 002B     		cmp	r3, #0
 622 007a 06D1     		bne	.L34
 745:.\queue.c     **** 				{
 746:.\queue.c     **** 					/* The queue was full and a block time was specified so
ARM GAS  C:\Users\mjphi\AppData\Local\Temp\ccgjF1VN.s 			page 25


 747:.\queue.c     **** 					configure the timeout structure. */
 748:.\queue.c     **** 					vTaskSetTimeOutState( &xTimeOut );
 623              		.loc 1 748 0
 624 007c 07F11403 		add	r3, r7, #20
 625 0080 1846     		mov	r0, r3
 626 0082 FFF7FEFF 		bl	vTaskSetTimeOutState
 749:.\queue.c     **** 					xEntryTimeSet = pdTRUE;
 627              		.loc 1 749 0
 628 0086 0123     		movs	r3, #1
 629 0088 7B62     		str	r3, [r7, #36]
 630              	.L34:
 750:.\queue.c     **** 				}
 751:.\queue.c     **** 				else
 752:.\queue.c     **** 				{
 753:.\queue.c     **** 					/* Entry time was already set. */
 754:.\queue.c     **** 					mtCOVERAGE_TEST_MARKER();
 755:.\queue.c     **** 				}
 756:.\queue.c     **** 			}
 757:.\queue.c     **** 		}
 758:.\queue.c     **** 		taskEXIT_CRITICAL();
 631              		.loc 1 758 0
 632 008a FFF7FEFF 		bl	vPortExitCritical
 759:.\queue.c     **** 
 760:.\queue.c     **** 		/* Interrupts and other tasks can send to and receive from the queue
 761:.\queue.c     **** 		now the critical section has been exited. */
 762:.\queue.c     **** 
 763:.\queue.c     **** 		vTaskSuspendAll();
 633              		.loc 1 763 0
 634 008e FFF7FEFF 		bl	vTaskSuspendAll
 764:.\queue.c     **** 		prvLockQueue( pxQueue );
 635              		.loc 1 764 0
 636 0092 FFF7FEFF 		bl	vPortEnterCritical
 637 0096 3B6A     		ldr	r3, [r7, #32]
 638 0098 5B6C     		ldr	r3, [r3, #68]
 639 009a B3F1FF3F 		cmp	r3, #-1
 640 009e 02D1     		bne	.L35
 641              		.loc 1 764 0 is_stmt 0 discriminator 1
 642 00a0 3B6A     		ldr	r3, [r7, #32]
 643 00a2 0022     		movs	r2, #0
 644 00a4 5A64     		str	r2, [r3, #68]
 645              	.L35:
 646              		.loc 1 764 0 discriminator 3
 647 00a6 3B6A     		ldr	r3, [r7, #32]
 648 00a8 9B6C     		ldr	r3, [r3, #72]
 649 00aa B3F1FF3F 		cmp	r3, #-1
 650 00ae 02D1     		bne	.L36
 651              		.loc 1 764 0 discriminator 4
 652 00b0 3B6A     		ldr	r3, [r7, #32]
 653 00b2 0022     		movs	r2, #0
 654 00b4 9A64     		str	r2, [r3, #72]
 655              	.L36:
 656              		.loc 1 764 0 discriminator 6
 657 00b6 FFF7FEFF 		bl	vPortExitCritical
 765:.\queue.c     **** 
 766:.\queue.c     **** 		/* Update the timeout state to see if it has expired yet. */
 767:.\queue.c     **** 		if( xTaskCheckForTimeOut( &xTimeOut, &xTicksToWait ) == pdFALSE )
 658              		.loc 1 767 0 is_stmt 1 discriminator 6
ARM GAS  C:\Users\mjphi\AppData\Local\Temp\ccgjF1VN.s 			page 26


 659 00ba 07F11402 		add	r2, r7, #20
 660 00be 3B1D     		adds	r3, r7, #4
 661 00c0 1046     		mov	r0, r2
 662 00c2 1946     		mov	r1, r3
 663 00c4 FFF7FEFF 		bl	xTaskCheckForTimeOut
 664 00c8 0346     		mov	r3, r0
 665 00ca 002B     		cmp	r3, #0
 666 00cc 1ED1     		bne	.L37
 768:.\queue.c     **** 		{
 769:.\queue.c     **** 			if( prvIsQueueFull( pxQueue ) != pdFALSE )
 667              		.loc 1 769 0
 668 00ce 386A     		ldr	r0, [r7, #32]
 669 00d0 FFF7FEFF 		bl	prvIsQueueFull
 670 00d4 0346     		mov	r3, r0
 671 00d6 002B     		cmp	r3, #0
 672 00d8 12D0     		beq	.L38
 770:.\queue.c     **** 			{
 771:.\queue.c     **** 				traceBLOCKING_ON_QUEUE_SEND( pxQueue );
 772:.\queue.c     **** 				vTaskPlaceOnEventList( &( pxQueue->xTasksWaitingToSend ), xTicksToWait );
 673              		.loc 1 772 0
 674 00da 3B6A     		ldr	r3, [r7, #32]
 675 00dc 03F11002 		add	r2, r3, #16
 676 00e0 7B68     		ldr	r3, [r7, #4]
 677 00e2 1046     		mov	r0, r2
 678 00e4 1946     		mov	r1, r3
 679 00e6 FFF7FEFF 		bl	vTaskPlaceOnEventList
 773:.\queue.c     **** 
 774:.\queue.c     **** 				/* Unlocking the queue means queue events can effect the
 775:.\queue.c     **** 				event list.  It is possible	that interrupts occurring now
 776:.\queue.c     **** 				remove this task from the event	list again - but as the
 777:.\queue.c     **** 				scheduler is suspended the task will go onto the pending
 778:.\queue.c     **** 				ready last instead of the actual ready list. */
 779:.\queue.c     **** 				prvUnlockQueue( pxQueue );
 680              		.loc 1 779 0
 681 00ea 386A     		ldr	r0, [r7, #32]
 682 00ec FFF7FEFF 		bl	prvUnlockQueue
 780:.\queue.c     **** 
 781:.\queue.c     **** 				/* Resuming the scheduler will move tasks from the pending
 782:.\queue.c     **** 				ready list into the ready list - so it is feasible that this
 783:.\queue.c     **** 				task is already in a ready list before it yields - in which
 784:.\queue.c     **** 				case the yield will not cause a context switch unless there
 785:.\queue.c     **** 				is also a higher priority task in the pending ready list. */
 786:.\queue.c     **** 				if( xTaskResumeAll() == pdFALSE )
 683              		.loc 1 786 0
 684 00f0 FFF7FEFF 		bl	xTaskResumeAll
 685 00f4 0346     		mov	r3, r0
 686 00f6 002B     		cmp	r3, #0
 687 00f8 0FD1     		bne	.L41
 787:.\queue.c     **** 				{
 788:.\queue.c     **** 					portYIELD_WITHIN_API();
 688              		.loc 1 788 0
 689 00fa FFF7FEFF 		bl	vPortYield
 690 00fe 0CE0     		b	.L41
 691              	.L38:
 789:.\queue.c     **** 				}
 790:.\queue.c     **** 			}
 791:.\queue.c     **** 			else
ARM GAS  C:\Users\mjphi\AppData\Local\Temp\ccgjF1VN.s 			page 27


 792:.\queue.c     **** 			{
 793:.\queue.c     **** 				/* Try again. */
 794:.\queue.c     **** 				prvUnlockQueue( pxQueue );
 692              		.loc 1 794 0
 693 0100 386A     		ldr	r0, [r7, #32]
 694 0102 FFF7FEFF 		bl	prvUnlockQueue
 795:.\queue.c     **** 				( void ) xTaskResumeAll();
 695              		.loc 1 795 0
 696 0106 FFF7FEFF 		bl	xTaskResumeAll
 697 010a 84E7     		b	.L42
 698              	.L37:
 796:.\queue.c     **** 			}
 797:.\queue.c     **** 		}
 798:.\queue.c     **** 		else
 799:.\queue.c     **** 		{
 800:.\queue.c     **** 			/* The timeout has expired. */
 801:.\queue.c     **** 			prvUnlockQueue( pxQueue );
 699              		.loc 1 801 0
 700 010c 386A     		ldr	r0, [r7, #32]
 701 010e FFF7FEFF 		bl	prvUnlockQueue
 802:.\queue.c     **** 			( void ) xTaskResumeAll();
 702              		.loc 1 802 0
 703 0112 FFF7FEFF 		bl	xTaskResumeAll
 803:.\queue.c     **** 
 804:.\queue.c     **** 			/* Return to the original privilege level before exiting the
 805:.\queue.c     **** 			function. */
 806:.\queue.c     **** 			traceQUEUE_SEND_FAILED( pxQueue );
 807:.\queue.c     **** 			return errQUEUE_FULL;
 704              		.loc 1 807 0
 705 0116 0023     		movs	r3, #0
 706 0118 00E0     		b	.L43
 707              	.L41:
 808:.\queue.c     **** 		}
 809:.\queue.c     **** 	}
 708              		.loc 1 809 0 discriminator 2
 709 011a 7CE7     		b	.L42
 710              	.L43:
 810:.\queue.c     **** }
 711              		.loc 1 810 0 discriminator 3
 712 011c 1846     		mov	r0, r3
 713 011e 2837     		adds	r7, r7, #40
 714              		.cfi_def_cfa_offset 8
 715 0120 BD46     		mov	sp, r7
 716              		.cfi_def_cfa_register 13
 717              		@ sp needed
 718 0122 80BD     		pop	{r7, pc}
 719              		.cfi_endproc
 720              	.LFE70:
 721              		.size	xQueueGenericSend, .-xQueueGenericSend
 722              		.section	.text.xQueueGenericSendFromISR,"ax",%progbits
 723              		.align	2
 724              		.global	xQueueGenericSendFromISR
 725              		.thumb
 726              		.thumb_func
 727              		.type	xQueueGenericSendFromISR, %function
 728              	xQueueGenericSendFromISR:
 729              	.LFB71:
ARM GAS  C:\Users\mjphi\AppData\Local\Temp\ccgjF1VN.s 			page 28


 811:.\queue.c     **** /*-----------------------------------------------------------*/
 812:.\queue.c     **** 
 813:.\queue.c     **** #if ( configUSE_ALTERNATIVE_API == 1 )
 814:.\queue.c     **** 
 815:.\queue.c     **** 	BaseType_t xQueueAltGenericSend( QueueHandle_t xQueue, const void * const pvItemToQueue, TickType_
 816:.\queue.c     **** 	{
 817:.\queue.c     **** 	BaseType_t xEntryTimeSet = pdFALSE;
 818:.\queue.c     **** 	TimeOut_t xTimeOut;
 819:.\queue.c     **** 	Queue_t * const pxQueue = ( Queue_t * ) xQueue;
 820:.\queue.c     **** 
 821:.\queue.c     **** 		configASSERT( pxQueue );
 822:.\queue.c     **** 		configASSERT( !( ( pvItemToQueue == NULL ) && ( pxQueue->uxItemSize != ( UBaseType_t ) 0U ) ) );
 823:.\queue.c     **** 
 824:.\queue.c     **** 		for( ;; )
 825:.\queue.c     **** 		{
 826:.\queue.c     **** 			taskENTER_CRITICAL();
 827:.\queue.c     **** 			{
 828:.\queue.c     **** 				/* Is there room on the queue now?  To be running we must be
 829:.\queue.c     **** 				the highest priority task wanting to access the queue. */
 830:.\queue.c     **** 				if( pxQueue->uxMessagesWaiting < pxQueue->uxLength )
 831:.\queue.c     **** 				{
 832:.\queue.c     **** 					traceQUEUE_SEND( pxQueue );
 833:.\queue.c     **** 					prvCopyDataToQueue( pxQueue, pvItemToQueue, xCopyPosition );
 834:.\queue.c     **** 
 835:.\queue.c     **** 					/* If there was a task waiting for data to arrive on the
 836:.\queue.c     **** 					queue then unblock it now. */
 837:.\queue.c     **** 					if( listLIST_IS_EMPTY( &( pxQueue->xTasksWaitingToReceive ) ) == pdFALSE )
 838:.\queue.c     **** 					{
 839:.\queue.c     **** 						if( xTaskRemoveFromEventList( &( pxQueue->xTasksWaitingToReceive ) ) == pdTRUE )
 840:.\queue.c     **** 						{
 841:.\queue.c     **** 							/* The unblocked task has a priority higher than
 842:.\queue.c     **** 							our own so yield immediately. */
 843:.\queue.c     **** 							portYIELD_WITHIN_API();
 844:.\queue.c     **** 						}
 845:.\queue.c     **** 						else
 846:.\queue.c     **** 						{
 847:.\queue.c     **** 							mtCOVERAGE_TEST_MARKER();
 848:.\queue.c     **** 						}
 849:.\queue.c     **** 					}
 850:.\queue.c     **** 					else
 851:.\queue.c     **** 					{
 852:.\queue.c     **** 						mtCOVERAGE_TEST_MARKER();
 853:.\queue.c     **** 					}
 854:.\queue.c     **** 
 855:.\queue.c     **** 					taskEXIT_CRITICAL();
 856:.\queue.c     **** 					return pdPASS;
 857:.\queue.c     **** 				}
 858:.\queue.c     **** 				else
 859:.\queue.c     **** 				{
 860:.\queue.c     **** 					if( xTicksToWait == ( TickType_t ) 0 )
 861:.\queue.c     **** 					{
 862:.\queue.c     **** 						taskEXIT_CRITICAL();
 863:.\queue.c     **** 						return errQUEUE_FULL;
 864:.\queue.c     **** 					}
 865:.\queue.c     **** 					else if( xEntryTimeSet == pdFALSE )
 866:.\queue.c     **** 					{
 867:.\queue.c     **** 						vTaskSetTimeOutState( &xTimeOut );
ARM GAS  C:\Users\mjphi\AppData\Local\Temp\ccgjF1VN.s 			page 29


 868:.\queue.c     **** 						xEntryTimeSet = pdTRUE;
 869:.\queue.c     **** 					}
 870:.\queue.c     **** 				}
 871:.\queue.c     **** 			}
 872:.\queue.c     **** 			taskEXIT_CRITICAL();
 873:.\queue.c     **** 
 874:.\queue.c     **** 			taskENTER_CRITICAL();
 875:.\queue.c     **** 			{
 876:.\queue.c     **** 				if( xTaskCheckForTimeOut( &xTimeOut, &xTicksToWait ) == pdFALSE )
 877:.\queue.c     **** 				{
 878:.\queue.c     **** 					if( prvIsQueueFull( pxQueue ) != pdFALSE )
 879:.\queue.c     **** 					{
 880:.\queue.c     **** 						traceBLOCKING_ON_QUEUE_SEND( pxQueue );
 881:.\queue.c     **** 						vTaskPlaceOnEventList( &( pxQueue->xTasksWaitingToSend ), xTicksToWait );
 882:.\queue.c     **** 						portYIELD_WITHIN_API();
 883:.\queue.c     **** 					}
 884:.\queue.c     **** 					else
 885:.\queue.c     **** 					{
 886:.\queue.c     **** 						mtCOVERAGE_TEST_MARKER();
 887:.\queue.c     **** 					}
 888:.\queue.c     **** 				}
 889:.\queue.c     **** 				else
 890:.\queue.c     **** 				{
 891:.\queue.c     **** 					taskEXIT_CRITICAL();
 892:.\queue.c     **** 					traceQUEUE_SEND_FAILED( pxQueue );
 893:.\queue.c     **** 					return errQUEUE_FULL;
 894:.\queue.c     **** 				}
 895:.\queue.c     **** 			}
 896:.\queue.c     **** 			taskEXIT_CRITICAL();
 897:.\queue.c     **** 		}
 898:.\queue.c     **** 	}
 899:.\queue.c     **** 
 900:.\queue.c     **** #endif /* configUSE_ALTERNATIVE_API */
 901:.\queue.c     **** /*-----------------------------------------------------------*/
 902:.\queue.c     **** 
 903:.\queue.c     **** #if ( configUSE_ALTERNATIVE_API == 1 )
 904:.\queue.c     **** 
 905:.\queue.c     **** 	BaseType_t xQueueAltGenericReceive( QueueHandle_t xQueue, void * const pvBuffer, TickType_t xTicks
 906:.\queue.c     **** 	{
 907:.\queue.c     **** 	BaseType_t xEntryTimeSet = pdFALSE;
 908:.\queue.c     **** 	TimeOut_t xTimeOut;
 909:.\queue.c     **** 	int8_t *pcOriginalReadPosition;
 910:.\queue.c     **** 	Queue_t * const pxQueue = ( Queue_t * ) xQueue;
 911:.\queue.c     **** 
 912:.\queue.c     **** 		configASSERT( pxQueue );
 913:.\queue.c     **** 		configASSERT( !( ( pvBuffer == NULL ) && ( pxQueue->uxItemSize != ( UBaseType_t ) 0U ) ) );
 914:.\queue.c     **** 
 915:.\queue.c     **** 		for( ;; )
 916:.\queue.c     **** 		{
 917:.\queue.c     **** 			taskENTER_CRITICAL();
 918:.\queue.c     **** 			{
 919:.\queue.c     **** 				if( pxQueue->uxMessagesWaiting > ( UBaseType_t ) 0 )
 920:.\queue.c     **** 				{
 921:.\queue.c     **** 					/* Remember our read position in case we are just peeking. */
 922:.\queue.c     **** 					pcOriginalReadPosition = pxQueue->u.pcReadFrom;
 923:.\queue.c     **** 
 924:.\queue.c     **** 					prvCopyDataFromQueue( pxQueue, pvBuffer );
ARM GAS  C:\Users\mjphi\AppData\Local\Temp\ccgjF1VN.s 			page 30


 925:.\queue.c     **** 
 926:.\queue.c     **** 					if( xJustPeeking == pdFALSE )
 927:.\queue.c     **** 					{
 928:.\queue.c     **** 						traceQUEUE_RECEIVE( pxQueue );
 929:.\queue.c     **** 
 930:.\queue.c     **** 						/* Data is actually being removed (not just peeked). */
 931:.\queue.c     **** 						--( pxQueue->uxMessagesWaiting );
 932:.\queue.c     **** 
 933:.\queue.c     **** 						#if ( configUSE_MUTEXES == 1 )
 934:.\queue.c     **** 						{
 935:.\queue.c     **** 							if( pxQueue->uxQueueType == queueQUEUE_IS_MUTEX )
 936:.\queue.c     **** 							{
 937:.\queue.c     **** 								/* Record the information required to implement
 938:.\queue.c     **** 								priority inheritance should it become necessary. */
 939:.\queue.c     **** 								pxQueue->pxMutexHolder = ( int8_t * ) xTaskGetCurrentTaskHandle();
 940:.\queue.c     **** 							}
 941:.\queue.c     **** 							else
 942:.\queue.c     **** 							{
 943:.\queue.c     **** 								mtCOVERAGE_TEST_MARKER();
 944:.\queue.c     **** 							}
 945:.\queue.c     **** 						}
 946:.\queue.c     **** 						#endif
 947:.\queue.c     **** 
 948:.\queue.c     **** 						if( listLIST_IS_EMPTY( &( pxQueue->xTasksWaitingToSend ) ) == pdFALSE )
 949:.\queue.c     **** 						{
 950:.\queue.c     **** 							if( xTaskRemoveFromEventList( &( pxQueue->xTasksWaitingToSend ) ) == pdTRUE )
 951:.\queue.c     **** 							{
 952:.\queue.c     **** 								portYIELD_WITHIN_API();
 953:.\queue.c     **** 							}
 954:.\queue.c     **** 							else
 955:.\queue.c     **** 							{
 956:.\queue.c     **** 								mtCOVERAGE_TEST_MARKER();
 957:.\queue.c     **** 							}
 958:.\queue.c     **** 						}
 959:.\queue.c     **** 					}
 960:.\queue.c     **** 					else
 961:.\queue.c     **** 					{
 962:.\queue.c     **** 						traceQUEUE_PEEK( pxQueue );
 963:.\queue.c     **** 
 964:.\queue.c     **** 						/* The data is not being removed, so reset our read
 965:.\queue.c     **** 						pointer. */
 966:.\queue.c     **** 						pxQueue->u.pcReadFrom = pcOriginalReadPosition;
 967:.\queue.c     **** 
 968:.\queue.c     **** 						/* The data is being left in the queue, so see if there are
 969:.\queue.c     **** 						any other tasks waiting for the data. */
 970:.\queue.c     **** 						if( listLIST_IS_EMPTY( &( pxQueue->xTasksWaitingToReceive ) ) == pdFALSE )
 971:.\queue.c     **** 						{
 972:.\queue.c     **** 							/* Tasks that are removed from the event list will get added to
 973:.\queue.c     **** 							the pending ready list as the scheduler is still suspended. */
 974:.\queue.c     **** 							if( xTaskRemoveFromEventList( &( pxQueue->xTasksWaitingToReceive ) ) != pdFALSE )
 975:.\queue.c     **** 							{
 976:.\queue.c     **** 								/* The task waiting has a higher priority than this task. */
 977:.\queue.c     **** 								portYIELD_WITHIN_API();
 978:.\queue.c     **** 							}
 979:.\queue.c     **** 							else
 980:.\queue.c     **** 							{
 981:.\queue.c     **** 								mtCOVERAGE_TEST_MARKER();
ARM GAS  C:\Users\mjphi\AppData\Local\Temp\ccgjF1VN.s 			page 31


 982:.\queue.c     **** 							}
 983:.\queue.c     **** 						}
 984:.\queue.c     **** 						else
 985:.\queue.c     **** 						{
 986:.\queue.c     **** 							mtCOVERAGE_TEST_MARKER();
 987:.\queue.c     **** 						}
 988:.\queue.c     **** 					}
 989:.\queue.c     **** 
 990:.\queue.c     **** 					taskEXIT_CRITICAL();
 991:.\queue.c     **** 					return pdPASS;
 992:.\queue.c     **** 				}
 993:.\queue.c     **** 				else
 994:.\queue.c     **** 				{
 995:.\queue.c     **** 					if( xTicksToWait == ( TickType_t ) 0 )
 996:.\queue.c     **** 					{
 997:.\queue.c     **** 						taskEXIT_CRITICAL();
 998:.\queue.c     **** 						traceQUEUE_RECEIVE_FAILED( pxQueue );
 999:.\queue.c     **** 						return errQUEUE_EMPTY;
1000:.\queue.c     **** 					}
1001:.\queue.c     **** 					else if( xEntryTimeSet == pdFALSE )
1002:.\queue.c     **** 					{
1003:.\queue.c     **** 						vTaskSetTimeOutState( &xTimeOut );
1004:.\queue.c     **** 						xEntryTimeSet = pdTRUE;
1005:.\queue.c     **** 					}
1006:.\queue.c     **** 				}
1007:.\queue.c     **** 			}
1008:.\queue.c     **** 			taskEXIT_CRITICAL();
1009:.\queue.c     **** 
1010:.\queue.c     **** 			taskENTER_CRITICAL();
1011:.\queue.c     **** 			{
1012:.\queue.c     **** 				if( xTaskCheckForTimeOut( &xTimeOut, &xTicksToWait ) == pdFALSE )
1013:.\queue.c     **** 				{
1014:.\queue.c     **** 					if( prvIsQueueEmpty( pxQueue ) != pdFALSE )
1015:.\queue.c     **** 					{
1016:.\queue.c     **** 						traceBLOCKING_ON_QUEUE_RECEIVE( pxQueue );
1017:.\queue.c     **** 
1018:.\queue.c     **** 						#if ( configUSE_MUTEXES == 1 )
1019:.\queue.c     **** 						{
1020:.\queue.c     **** 							if( pxQueue->uxQueueType == queueQUEUE_IS_MUTEX )
1021:.\queue.c     **** 							{
1022:.\queue.c     **** 								taskENTER_CRITICAL();
1023:.\queue.c     **** 								{
1024:.\queue.c     **** 									vTaskPriorityInherit( ( void * ) pxQueue->pxMutexHolder );
1025:.\queue.c     **** 								}
1026:.\queue.c     **** 								taskEXIT_CRITICAL();
1027:.\queue.c     **** 							}
1028:.\queue.c     **** 							else
1029:.\queue.c     **** 							{
1030:.\queue.c     **** 								mtCOVERAGE_TEST_MARKER();
1031:.\queue.c     **** 							}
1032:.\queue.c     **** 						}
1033:.\queue.c     **** 						#endif
1034:.\queue.c     **** 
1035:.\queue.c     **** 						vTaskPlaceOnEventList( &( pxQueue->xTasksWaitingToReceive ), xTicksToWait );
1036:.\queue.c     **** 						portYIELD_WITHIN_API();
1037:.\queue.c     **** 					}
1038:.\queue.c     **** 					else
ARM GAS  C:\Users\mjphi\AppData\Local\Temp\ccgjF1VN.s 			page 32


1039:.\queue.c     **** 					{
1040:.\queue.c     **** 						mtCOVERAGE_TEST_MARKER();
1041:.\queue.c     **** 					}
1042:.\queue.c     **** 				}
1043:.\queue.c     **** 				else
1044:.\queue.c     **** 				{
1045:.\queue.c     **** 					taskEXIT_CRITICAL();
1046:.\queue.c     **** 					traceQUEUE_RECEIVE_FAILED( pxQueue );
1047:.\queue.c     **** 					return errQUEUE_EMPTY;
1048:.\queue.c     **** 				}
1049:.\queue.c     **** 			}
1050:.\queue.c     **** 			taskEXIT_CRITICAL();
1051:.\queue.c     **** 		}
1052:.\queue.c     **** 	}
1053:.\queue.c     **** 
1054:.\queue.c     **** 
1055:.\queue.c     **** #endif /* configUSE_ALTERNATIVE_API */
1056:.\queue.c     **** /*-----------------------------------------------------------*/
1057:.\queue.c     **** 
1058:.\queue.c     **** BaseType_t xQueueGenericSendFromISR( QueueHandle_t xQueue, const void * const pvItemToQueue, BaseTy
1059:.\queue.c     **** {
 730              		.loc 1 1059 0
 731              		.cfi_startproc
 732              		@ args = 0, pretend = 0, frame = 32
 733              		@ frame_needed = 1, uses_anonymous_args = 0
 734 0000 80B5     		push	{r7, lr}
 735              		.cfi_def_cfa_offset 8
 736              		.cfi_offset 7, -8
 737              		.cfi_offset 14, -4
 738 0002 88B0     		sub	sp, sp, #32
 739              		.cfi_def_cfa_offset 40
 740 0004 00AF     		add	r7, sp, #0
 741              		.cfi_def_cfa_register 7
 742 0006 F860     		str	r0, [r7, #12]
 743 0008 B960     		str	r1, [r7, #8]
 744 000a 7A60     		str	r2, [r7, #4]
 745 000c 3B60     		str	r3, [r7]
1060:.\queue.c     **** BaseType_t xReturn;
1061:.\queue.c     **** UBaseType_t uxSavedInterruptStatus;
1062:.\queue.c     **** Queue_t * const pxQueue = ( Queue_t * ) xQueue;
 746              		.loc 1 1062 0
 747 000e FB68     		ldr	r3, [r7, #12]
 748 0010 BB61     		str	r3, [r7, #24]
1063:.\queue.c     **** 
1064:.\queue.c     **** 	configASSERT( pxQueue );
1065:.\queue.c     **** 	configASSERT( !( ( pvItemToQueue == NULL ) && ( pxQueue->uxItemSize != ( UBaseType_t ) 0U ) ) );
1066:.\queue.c     **** 	configASSERT( !( ( xCopyPosition == queueOVERWRITE ) && ( pxQueue->uxLength != 1 ) ) );
1067:.\queue.c     **** 
1068:.\queue.c     **** 	/* RTOS ports that support interrupt nesting have the concept of a maximum
1069:.\queue.c     **** 	system call (or maximum API call) interrupt priority.  Interrupts that are
1070:.\queue.c     **** 	above the maximum system call priority are kept permanently enabled, even
1071:.\queue.c     **** 	when the RTOS kernel is in a critical section, but cannot make any calls to
1072:.\queue.c     **** 	FreeRTOS API functions.  If configASSERT() is defined in FreeRTOSConfig.h
1073:.\queue.c     **** 	then portASSERT_IF_INTERRUPT_PRIORITY_INVALID() will result in an assertion
1074:.\queue.c     **** 	failure if a FreeRTOS API function is called from an interrupt that has been
1075:.\queue.c     **** 	assigned a priority above the configured maximum system call priority.
1076:.\queue.c     **** 	Only FreeRTOS functions that end in FromISR can be called from interrupts
ARM GAS  C:\Users\mjphi\AppData\Local\Temp\ccgjF1VN.s 			page 33


1077:.\queue.c     **** 	that have been assigned a priority at or (logically) below the maximum
1078:.\queue.c     **** 	system call	interrupt priority.  FreeRTOS maintains a separate interrupt
1079:.\queue.c     **** 	safe API to ensure interrupt entry is as fast and as simple as possible.
1080:.\queue.c     **** 	More information (albeit Cortex-M specific) is provided on the following
1081:.\queue.c     **** 	link: http://www.freertos.org/RTOS-Cortex-M3-M4.html */
1082:.\queue.c     **** 	portASSERT_IF_INTERRUPT_PRIORITY_INVALID();
1083:.\queue.c     **** 
1084:.\queue.c     **** 	/* Similar to xQueueGenericSend, except without blocking if there is no room
1085:.\queue.c     **** 	in the queue.  Also don't directly wake a task that was blocked on a queue
1086:.\queue.c     **** 	read, instead return a flag to say whether a context switch is required or
1087:.\queue.c     **** 	not (i.e. has a task with a higher priority than us been woken by this
1088:.\queue.c     **** 	post). */
1089:.\queue.c     **** 	uxSavedInterruptStatus = portSET_INTERRUPT_MASK_FROM_ISR();
 749              		.loc 1 1089 0
 750 0012 FFF7FEFF 		bl	ulPortSetInterruptMask
 751 0016 7861     		str	r0, [r7, #20]
1090:.\queue.c     **** 	{
1091:.\queue.c     **** 		if( ( pxQueue->uxMessagesWaiting < pxQueue->uxLength ) || ( xCopyPosition == queueOVERWRITE ) )
 752              		.loc 1 1091 0
 753 0018 BB69     		ldr	r3, [r7, #24]
 754 001a 9A6B     		ldr	r2, [r3, #56]
 755 001c BB69     		ldr	r3, [r7, #24]
 756 001e DB6B     		ldr	r3, [r3, #60]
 757 0020 9A42     		cmp	r2, r3
 758 0022 02D3     		bcc	.L45
 759              		.loc 1 1091 0 is_stmt 0 discriminator 1
 760 0024 3B68     		ldr	r3, [r7]
 761 0026 022B     		cmp	r3, #2
 762 0028 24D1     		bne	.L46
 763              	.L45:
1092:.\queue.c     **** 		{
1093:.\queue.c     **** 			traceQUEUE_SEND_FROM_ISR( pxQueue );
1094:.\queue.c     **** 
1095:.\queue.c     **** 			/* Semaphores use xQueueGiveFromISR(), so pxQueue will not be a
1096:.\queue.c     **** 			semaphore or mutex.  That means prvCopyDataToQueue() cannot result
1097:.\queue.c     **** 			in a task disinheriting a priority and prvCopyDataToQueue() can be
1098:.\queue.c     **** 			called here even though the disinherit function does not check if
1099:.\queue.c     **** 			the scheduler is suspended before accessing the ready lists. */
1100:.\queue.c     **** 			( void ) prvCopyDataToQueue( pxQueue, pvItemToQueue, xCopyPosition );
 764              		.loc 1 1100 0 is_stmt 1
 765 002a B869     		ldr	r0, [r7, #24]
 766 002c B968     		ldr	r1, [r7, #8]
 767 002e 3A68     		ldr	r2, [r7]
 768 0030 FFF7FEFF 		bl	prvCopyDataToQueue
1101:.\queue.c     **** 
1102:.\queue.c     **** 			/* The event list is not altered if the queue is locked.  This will
1103:.\queue.c     **** 			be done when the queue is unlocked later. */
1104:.\queue.c     **** 			if( pxQueue->xTxLock == queueUNLOCKED )
 769              		.loc 1 1104 0
 770 0034 BB69     		ldr	r3, [r7, #24]
 771 0036 9B6C     		ldr	r3, [r3, #72]
 772 0038 B3F1FF3F 		cmp	r3, #-1
 773 003c 12D1     		bne	.L47
1105:.\queue.c     **** 			{
1106:.\queue.c     **** 				#if ( configUSE_QUEUE_SETS == 1 )
1107:.\queue.c     **** 				{
1108:.\queue.c     **** 					if( pxQueue->pxQueueSetContainer != NULL )
ARM GAS  C:\Users\mjphi\AppData\Local\Temp\ccgjF1VN.s 			page 34


1109:.\queue.c     **** 					{
1110:.\queue.c     **** 						if( prvNotifyQueueSetContainer( pxQueue, xCopyPosition ) == pdTRUE )
1111:.\queue.c     **** 						{
1112:.\queue.c     **** 							/* The queue is a member of a queue set, and posting
1113:.\queue.c     **** 							to the queue set caused a higher priority task to
1114:.\queue.c     **** 							unblock.  A context switch is required. */
1115:.\queue.c     **** 							if( pxHigherPriorityTaskWoken != NULL )
1116:.\queue.c     **** 							{
1117:.\queue.c     **** 								*pxHigherPriorityTaskWoken = pdTRUE;
1118:.\queue.c     **** 							}
1119:.\queue.c     **** 							else
1120:.\queue.c     **** 							{
1121:.\queue.c     **** 								mtCOVERAGE_TEST_MARKER();
1122:.\queue.c     **** 							}
1123:.\queue.c     **** 						}
1124:.\queue.c     **** 						else
1125:.\queue.c     **** 						{
1126:.\queue.c     **** 							mtCOVERAGE_TEST_MARKER();
1127:.\queue.c     **** 						}
1128:.\queue.c     **** 					}
1129:.\queue.c     **** 					else
1130:.\queue.c     **** 					{
1131:.\queue.c     **** 						if( listLIST_IS_EMPTY( &( pxQueue->xTasksWaitingToReceive ) ) == pdFALSE )
1132:.\queue.c     **** 						{
1133:.\queue.c     **** 							if( xTaskRemoveFromEventList( &( pxQueue->xTasksWaitingToReceive ) ) != pdFALSE )
1134:.\queue.c     **** 							{
1135:.\queue.c     **** 								/* The task waiting has a higher priority so
1136:.\queue.c     **** 								record that a context switch is required. */
1137:.\queue.c     **** 								if( pxHigherPriorityTaskWoken != NULL )
1138:.\queue.c     **** 								{
1139:.\queue.c     **** 									*pxHigherPriorityTaskWoken = pdTRUE;
1140:.\queue.c     **** 								}
1141:.\queue.c     **** 								else
1142:.\queue.c     **** 								{
1143:.\queue.c     **** 									mtCOVERAGE_TEST_MARKER();
1144:.\queue.c     **** 								}
1145:.\queue.c     **** 							}
1146:.\queue.c     **** 							else
1147:.\queue.c     **** 							{
1148:.\queue.c     **** 								mtCOVERAGE_TEST_MARKER();
1149:.\queue.c     **** 							}
1150:.\queue.c     **** 						}
1151:.\queue.c     **** 						else
1152:.\queue.c     **** 						{
1153:.\queue.c     **** 							mtCOVERAGE_TEST_MARKER();
1154:.\queue.c     **** 						}
1155:.\queue.c     **** 					}
1156:.\queue.c     **** 				}
1157:.\queue.c     **** 				#else /* configUSE_QUEUE_SETS */
1158:.\queue.c     **** 				{
1159:.\queue.c     **** 					if( listLIST_IS_EMPTY( &( pxQueue->xTasksWaitingToReceive ) ) == pdFALSE )
 774              		.loc 1 1159 0
 775 003e BB69     		ldr	r3, [r7, #24]
 776 0040 5B6A     		ldr	r3, [r3, #36]
 777 0042 002B     		cmp	r3, #0
 778 0044 13D0     		beq	.L48
1160:.\queue.c     **** 					{
ARM GAS  C:\Users\mjphi\AppData\Local\Temp\ccgjF1VN.s 			page 35


1161:.\queue.c     **** 						if( xTaskRemoveFromEventList( &( pxQueue->xTasksWaitingToReceive ) ) != pdFALSE )
 779              		.loc 1 1161 0
 780 0046 BB69     		ldr	r3, [r7, #24]
 781 0048 2433     		adds	r3, r3, #36
 782 004a 1846     		mov	r0, r3
 783 004c FFF7FEFF 		bl	xTaskRemoveFromEventList
 784 0050 0346     		mov	r3, r0
 785 0052 002B     		cmp	r3, #0
 786 0054 0BD0     		beq	.L48
1162:.\queue.c     **** 						{
1163:.\queue.c     **** 							/* The task waiting has a higher priority so record that a
1164:.\queue.c     **** 							context	switch is required. */
1165:.\queue.c     **** 							if( pxHigherPriorityTaskWoken != NULL )
 787              		.loc 1 1165 0
 788 0056 7B68     		ldr	r3, [r7, #4]
 789 0058 002B     		cmp	r3, #0
 790 005a 08D0     		beq	.L48
1166:.\queue.c     **** 							{
1167:.\queue.c     **** 								*pxHigherPriorityTaskWoken = pdTRUE;
 791              		.loc 1 1167 0
 792 005c 7B68     		ldr	r3, [r7, #4]
 793 005e 0122     		movs	r2, #1
 794 0060 1A60     		str	r2, [r3]
 795 0062 04E0     		b	.L48
 796              	.L47:
1168:.\queue.c     **** 							}
1169:.\queue.c     **** 							else
1170:.\queue.c     **** 							{
1171:.\queue.c     **** 								mtCOVERAGE_TEST_MARKER();
1172:.\queue.c     **** 							}
1173:.\queue.c     **** 						}
1174:.\queue.c     **** 						else
1175:.\queue.c     **** 						{
1176:.\queue.c     **** 							mtCOVERAGE_TEST_MARKER();
1177:.\queue.c     **** 						}
1178:.\queue.c     **** 					}
1179:.\queue.c     **** 					else
1180:.\queue.c     **** 					{
1181:.\queue.c     **** 						mtCOVERAGE_TEST_MARKER();
1182:.\queue.c     **** 					}
1183:.\queue.c     **** 				}
1184:.\queue.c     **** 				#endif /* configUSE_QUEUE_SETS */
1185:.\queue.c     **** 			}
1186:.\queue.c     **** 			else
1187:.\queue.c     **** 			{
1188:.\queue.c     **** 				/* Increment the lock count so the task that unlocks the queue
1189:.\queue.c     **** 				knows that data was posted while it was locked. */
1190:.\queue.c     **** 				++( pxQueue->xTxLock );
 797              		.loc 1 1190 0
 798 0064 BB69     		ldr	r3, [r7, #24]
 799 0066 9B6C     		ldr	r3, [r3, #72]
 800 0068 5A1C     		adds	r2, r3, #1
 801 006a BB69     		ldr	r3, [r7, #24]
 802 006c 9A64     		str	r2, [r3, #72]
 803              	.L48:
1191:.\queue.c     **** 			}
1192:.\queue.c     **** 
ARM GAS  C:\Users\mjphi\AppData\Local\Temp\ccgjF1VN.s 			page 36


1193:.\queue.c     **** 			xReturn = pdPASS;
 804              		.loc 1 1193 0
 805 006e 0123     		movs	r3, #1
 806 0070 FB61     		str	r3, [r7, #28]
 807 0072 01E0     		b	.L49
 808              	.L46:
1194:.\queue.c     **** 		}
1195:.\queue.c     **** 		else
1196:.\queue.c     **** 		{
1197:.\queue.c     **** 			traceQUEUE_SEND_FROM_ISR_FAILED( pxQueue );
1198:.\queue.c     **** 			xReturn = errQUEUE_FULL;
 809              		.loc 1 1198 0
 810 0074 0023     		movs	r3, #0
 811 0076 FB61     		str	r3, [r7, #28]
 812              	.L49:
1199:.\queue.c     **** 		}
1200:.\queue.c     **** 	}
1201:.\queue.c     **** 	portCLEAR_INTERRUPT_MASK_FROM_ISR( uxSavedInterruptStatus );
 813              		.loc 1 1201 0
 814 0078 7869     		ldr	r0, [r7, #20]
 815 007a FFF7FEFF 		bl	vPortClearInterruptMask
1202:.\queue.c     **** 
1203:.\queue.c     **** 	return xReturn;
 816              		.loc 1 1203 0
 817 007e FB69     		ldr	r3, [r7, #28]
1204:.\queue.c     **** }
 818              		.loc 1 1204 0
 819 0080 1846     		mov	r0, r3
 820 0082 2037     		adds	r7, r7, #32
 821              		.cfi_def_cfa_offset 8
 822 0084 BD46     		mov	sp, r7
 823              		.cfi_def_cfa_register 13
 824              		@ sp needed
 825 0086 80BD     		pop	{r7, pc}
 826              		.cfi_endproc
 827              	.LFE71:
 828              		.size	xQueueGenericSendFromISR, .-xQueueGenericSendFromISR
 829              		.section	.text.xQueueGiveFromISR,"ax",%progbits
 830              		.align	2
 831              		.global	xQueueGiveFromISR
 832              		.thumb
 833              		.thumb_func
 834              		.type	xQueueGiveFromISR, %function
 835              	xQueueGiveFromISR:
 836              	.LFB72:
1205:.\queue.c     **** /*-----------------------------------------------------------*/
1206:.\queue.c     **** 
1207:.\queue.c     **** BaseType_t xQueueGiveFromISR( QueueHandle_t xQueue, BaseType_t * const pxHigherPriorityTaskWoken )
1208:.\queue.c     **** {
 837              		.loc 1 1208 0
 838              		.cfi_startproc
 839              		@ args = 0, pretend = 0, frame = 24
 840              		@ frame_needed = 1, uses_anonymous_args = 0
 841 0000 80B5     		push	{r7, lr}
 842              		.cfi_def_cfa_offset 8
 843              		.cfi_offset 7, -8
 844              		.cfi_offset 14, -4
ARM GAS  C:\Users\mjphi\AppData\Local\Temp\ccgjF1VN.s 			page 37


 845 0002 86B0     		sub	sp, sp, #24
 846              		.cfi_def_cfa_offset 32
 847 0004 00AF     		add	r7, sp, #0
 848              		.cfi_def_cfa_register 7
 849 0006 7860     		str	r0, [r7, #4]
 850 0008 3960     		str	r1, [r7]
1209:.\queue.c     **** BaseType_t xReturn;
1210:.\queue.c     **** UBaseType_t uxSavedInterruptStatus;
1211:.\queue.c     **** Queue_t * const pxQueue = ( Queue_t * ) xQueue;
 851              		.loc 1 1211 0
 852 000a 7B68     		ldr	r3, [r7, #4]
 853 000c 3B61     		str	r3, [r7, #16]
1212:.\queue.c     **** 
1213:.\queue.c     **** 	/* Similar to xQueueGenericSendFromISR() but used with semaphores where the
1214:.\queue.c     **** 	item size is 0.  Don't directly wake a task that was blocked on a queue
1215:.\queue.c     **** 	read, instead return a flag to say whether a context switch is required or
1216:.\queue.c     **** 	not (i.e. has a task with a higher priority than us been woken by this
1217:.\queue.c     **** 	post). */
1218:.\queue.c     **** 
1219:.\queue.c     **** 	configASSERT( pxQueue );
1220:.\queue.c     **** 
1221:.\queue.c     **** 	/* xQueueGenericSendFromISR() should be used instead of xQueueGiveFromISR()
1222:.\queue.c     **** 	if the item size is not 0. */
1223:.\queue.c     **** 	configASSERT( pxQueue->uxItemSize == 0 );
1224:.\queue.c     **** 
1225:.\queue.c     **** 	/* Normally a mutex would not be given from an interrupt, and doing so is
1226:.\queue.c     **** 	definitely wrong if there is a mutex holder as priority inheritance makes no
1227:.\queue.c     **** 	sense for an interrupts, only tasks. */
1228:.\queue.c     **** 	configASSERT( !( ( pxQueue->uxQueueType == queueQUEUE_IS_MUTEX ) && ( pxQueue->pxMutexHolder != NU
1229:.\queue.c     **** 
1230:.\queue.c     **** 	/* RTOS ports that support interrupt nesting have the concept of a maximum
1231:.\queue.c     **** 	system call (or maximum API call) interrupt priority.  Interrupts that are
1232:.\queue.c     **** 	above the maximum system call priority are kept permanently enabled, even
1233:.\queue.c     **** 	when the RTOS kernel is in a critical section, but cannot make any calls to
1234:.\queue.c     **** 	FreeRTOS API functions.  If configASSERT() is defined in FreeRTOSConfig.h
1235:.\queue.c     **** 	then portASSERT_IF_INTERRUPT_PRIORITY_INVALID() will result in an assertion
1236:.\queue.c     **** 	failure if a FreeRTOS API function is called from an interrupt that has been
1237:.\queue.c     **** 	assigned a priority above the configured maximum system call priority.
1238:.\queue.c     **** 	Only FreeRTOS functions that end in FromISR can be called from interrupts
1239:.\queue.c     **** 	that have been assigned a priority at or (logically) below the maximum
1240:.\queue.c     **** 	system call	interrupt priority.  FreeRTOS maintains a separate interrupt
1241:.\queue.c     **** 	safe API to ensure interrupt entry is as fast and as simple as possible.
1242:.\queue.c     **** 	More information (albeit Cortex-M specific) is provided on the following
1243:.\queue.c     **** 	link: http://www.freertos.org/RTOS-Cortex-M3-M4.html */
1244:.\queue.c     **** 	portASSERT_IF_INTERRUPT_PRIORITY_INVALID();
1245:.\queue.c     **** 
1246:.\queue.c     **** 	uxSavedInterruptStatus = portSET_INTERRUPT_MASK_FROM_ISR();
 854              		.loc 1 1246 0
 855 000e FFF7FEFF 		bl	ulPortSetInterruptMask
 856 0012 F860     		str	r0, [r7, #12]
1247:.\queue.c     **** 	{
1248:.\queue.c     **** 		/* When the queue is used to implement a semaphore no data is ever
1249:.\queue.c     **** 		moved through the queue but it is still valid to see if the queue 'has
1250:.\queue.c     **** 		space'. */
1251:.\queue.c     **** 		if( pxQueue->uxMessagesWaiting < pxQueue->uxLength )
 857              		.loc 1 1251 0
 858 0014 3B69     		ldr	r3, [r7, #16]
ARM GAS  C:\Users\mjphi\AppData\Local\Temp\ccgjF1VN.s 			page 38


 859 0016 9A6B     		ldr	r2, [r3, #56]
 860 0018 3B69     		ldr	r3, [r7, #16]
 861 001a DB6B     		ldr	r3, [r3, #60]
 862 001c 9A42     		cmp	r2, r3
 863 001e 24D2     		bcs	.L52
1252:.\queue.c     **** 		{
1253:.\queue.c     **** 			traceQUEUE_SEND_FROM_ISR( pxQueue );
1254:.\queue.c     **** 
1255:.\queue.c     **** 			/* A task can only have an inherited priority if it is a mutex
1256:.\queue.c     **** 			holder - and if there is a mutex holder then the mutex cannot be
1257:.\queue.c     **** 			given from an ISR.  As this is the ISR version of the function it
1258:.\queue.c     **** 			can be assumed there is no mutex holder and no need to determine if
1259:.\queue.c     **** 			priority disinheritance is needed.  Simply increase the count of
1260:.\queue.c     **** 			messages (semaphores) available. */
1261:.\queue.c     **** 			++( pxQueue->uxMessagesWaiting );
 864              		.loc 1 1261 0
 865 0020 3B69     		ldr	r3, [r7, #16]
 866 0022 9B6B     		ldr	r3, [r3, #56]
 867 0024 5A1C     		adds	r2, r3, #1
 868 0026 3B69     		ldr	r3, [r7, #16]
 869 0028 9A63     		str	r2, [r3, #56]
1262:.\queue.c     **** 
1263:.\queue.c     **** 			/* The event list is not altered if the queue is locked.  This will
1264:.\queue.c     **** 			be done when the queue is unlocked later. */
1265:.\queue.c     **** 			if( pxQueue->xTxLock == queueUNLOCKED )
 870              		.loc 1 1265 0
 871 002a 3B69     		ldr	r3, [r7, #16]
 872 002c 9B6C     		ldr	r3, [r3, #72]
 873 002e B3F1FF3F 		cmp	r3, #-1
 874 0032 12D1     		bne	.L53
1266:.\queue.c     **** 			{
1267:.\queue.c     **** 				#if ( configUSE_QUEUE_SETS == 1 )
1268:.\queue.c     **** 				{
1269:.\queue.c     **** 					if( pxQueue->pxQueueSetContainer != NULL )
1270:.\queue.c     **** 					{
1271:.\queue.c     **** 						if( prvNotifyQueueSetContainer( pxQueue, queueSEND_TO_BACK ) == pdTRUE )
1272:.\queue.c     **** 						{
1273:.\queue.c     **** 							/* The semaphore is a member of a queue set, and
1274:.\queue.c     **** 							posting	to the queue set caused a higher priority
1275:.\queue.c     **** 							task to	unblock.  A context switch is required. */
1276:.\queue.c     **** 							if( pxHigherPriorityTaskWoken != NULL )
1277:.\queue.c     **** 							{
1278:.\queue.c     **** 								*pxHigherPriorityTaskWoken = pdTRUE;
1279:.\queue.c     **** 							}
1280:.\queue.c     **** 							else
1281:.\queue.c     **** 							{
1282:.\queue.c     **** 								mtCOVERAGE_TEST_MARKER();
1283:.\queue.c     **** 							}
1284:.\queue.c     **** 						}
1285:.\queue.c     **** 						else
1286:.\queue.c     **** 						{
1287:.\queue.c     **** 							mtCOVERAGE_TEST_MARKER();
1288:.\queue.c     **** 						}
1289:.\queue.c     **** 					}
1290:.\queue.c     **** 					else
1291:.\queue.c     **** 					{
1292:.\queue.c     **** 						if( listLIST_IS_EMPTY( &( pxQueue->xTasksWaitingToReceive ) ) == pdFALSE )
ARM GAS  C:\Users\mjphi\AppData\Local\Temp\ccgjF1VN.s 			page 39


1293:.\queue.c     **** 						{
1294:.\queue.c     **** 							if( xTaskRemoveFromEventList( &( pxQueue->xTasksWaitingToReceive ) ) != pdFALSE )
1295:.\queue.c     **** 							{
1296:.\queue.c     **** 								/* The task waiting has a higher priority so
1297:.\queue.c     **** 								record that a context switch is required. */
1298:.\queue.c     **** 								if( pxHigherPriorityTaskWoken != NULL )
1299:.\queue.c     **** 								{
1300:.\queue.c     **** 									*pxHigherPriorityTaskWoken = pdTRUE;
1301:.\queue.c     **** 								}
1302:.\queue.c     **** 								else
1303:.\queue.c     **** 								{
1304:.\queue.c     **** 									mtCOVERAGE_TEST_MARKER();
1305:.\queue.c     **** 								}
1306:.\queue.c     **** 							}
1307:.\queue.c     **** 							else
1308:.\queue.c     **** 							{
1309:.\queue.c     **** 								mtCOVERAGE_TEST_MARKER();
1310:.\queue.c     **** 							}
1311:.\queue.c     **** 						}
1312:.\queue.c     **** 						else
1313:.\queue.c     **** 						{
1314:.\queue.c     **** 							mtCOVERAGE_TEST_MARKER();
1315:.\queue.c     **** 						}
1316:.\queue.c     **** 					}
1317:.\queue.c     **** 				}
1318:.\queue.c     **** 				#else /* configUSE_QUEUE_SETS */
1319:.\queue.c     **** 				{
1320:.\queue.c     **** 					if( listLIST_IS_EMPTY( &( pxQueue->xTasksWaitingToReceive ) ) == pdFALSE )
 875              		.loc 1 1320 0
 876 0034 3B69     		ldr	r3, [r7, #16]
 877 0036 5B6A     		ldr	r3, [r3, #36]
 878 0038 002B     		cmp	r3, #0
 879 003a 13D0     		beq	.L54
1321:.\queue.c     **** 					{
1322:.\queue.c     **** 						if( xTaskRemoveFromEventList( &( pxQueue->xTasksWaitingToReceive ) ) != pdFALSE )
 880              		.loc 1 1322 0
 881 003c 3B69     		ldr	r3, [r7, #16]
 882 003e 2433     		adds	r3, r3, #36
 883 0040 1846     		mov	r0, r3
 884 0042 FFF7FEFF 		bl	xTaskRemoveFromEventList
 885 0046 0346     		mov	r3, r0
 886 0048 002B     		cmp	r3, #0
 887 004a 0BD0     		beq	.L54
1323:.\queue.c     **** 						{
1324:.\queue.c     **** 							/* The task waiting has a higher priority so record that a
1325:.\queue.c     **** 							context	switch is required. */
1326:.\queue.c     **** 							if( pxHigherPriorityTaskWoken != NULL )
 888              		.loc 1 1326 0
 889 004c 3B68     		ldr	r3, [r7]
 890 004e 002B     		cmp	r3, #0
 891 0050 08D0     		beq	.L54
1327:.\queue.c     **** 							{
1328:.\queue.c     **** 								*pxHigherPriorityTaskWoken = pdTRUE;
 892              		.loc 1 1328 0
 893 0052 3B68     		ldr	r3, [r7]
 894 0054 0122     		movs	r2, #1
 895 0056 1A60     		str	r2, [r3]
ARM GAS  C:\Users\mjphi\AppData\Local\Temp\ccgjF1VN.s 			page 40


 896 0058 04E0     		b	.L54
 897              	.L53:
1329:.\queue.c     **** 							}
1330:.\queue.c     **** 							else
1331:.\queue.c     **** 							{
1332:.\queue.c     **** 								mtCOVERAGE_TEST_MARKER();
1333:.\queue.c     **** 							}
1334:.\queue.c     **** 						}
1335:.\queue.c     **** 						else
1336:.\queue.c     **** 						{
1337:.\queue.c     **** 							mtCOVERAGE_TEST_MARKER();
1338:.\queue.c     **** 						}
1339:.\queue.c     **** 					}
1340:.\queue.c     **** 					else
1341:.\queue.c     **** 					{
1342:.\queue.c     **** 						mtCOVERAGE_TEST_MARKER();
1343:.\queue.c     **** 					}
1344:.\queue.c     **** 				}
1345:.\queue.c     **** 				#endif /* configUSE_QUEUE_SETS */
1346:.\queue.c     **** 			}
1347:.\queue.c     **** 			else
1348:.\queue.c     **** 			{
1349:.\queue.c     **** 				/* Increment the lock count so the task that unlocks the queue
1350:.\queue.c     **** 				knows that data was posted while it was locked. */
1351:.\queue.c     **** 				++( pxQueue->xTxLock );
 898              		.loc 1 1351 0
 899 005a 3B69     		ldr	r3, [r7, #16]
 900 005c 9B6C     		ldr	r3, [r3, #72]
 901 005e 5A1C     		adds	r2, r3, #1
 902 0060 3B69     		ldr	r3, [r7, #16]
 903 0062 9A64     		str	r2, [r3, #72]
 904              	.L54:
1352:.\queue.c     **** 			}
1353:.\queue.c     **** 
1354:.\queue.c     **** 			xReturn = pdPASS;
 905              		.loc 1 1354 0
 906 0064 0123     		movs	r3, #1
 907 0066 7B61     		str	r3, [r7, #20]
 908 0068 01E0     		b	.L55
 909              	.L52:
1355:.\queue.c     **** 		}
1356:.\queue.c     **** 		else
1357:.\queue.c     **** 		{
1358:.\queue.c     **** 			traceQUEUE_SEND_FROM_ISR_FAILED( pxQueue );
1359:.\queue.c     **** 			xReturn = errQUEUE_FULL;
 910              		.loc 1 1359 0
 911 006a 0023     		movs	r3, #0
 912 006c 7B61     		str	r3, [r7, #20]
 913              	.L55:
1360:.\queue.c     **** 		}
1361:.\queue.c     **** 	}
1362:.\queue.c     **** 	portCLEAR_INTERRUPT_MASK_FROM_ISR( uxSavedInterruptStatus );
 914              		.loc 1 1362 0
 915 006e F868     		ldr	r0, [r7, #12]
 916 0070 FFF7FEFF 		bl	vPortClearInterruptMask
1363:.\queue.c     **** 
1364:.\queue.c     **** 	return xReturn;
ARM GAS  C:\Users\mjphi\AppData\Local\Temp\ccgjF1VN.s 			page 41


 917              		.loc 1 1364 0
 918 0074 7B69     		ldr	r3, [r7, #20]
1365:.\queue.c     **** }
 919              		.loc 1 1365 0
 920 0076 1846     		mov	r0, r3
 921 0078 1837     		adds	r7, r7, #24
 922              		.cfi_def_cfa_offset 8
 923 007a BD46     		mov	sp, r7
 924              		.cfi_def_cfa_register 13
 925              		@ sp needed
 926 007c 80BD     		pop	{r7, pc}
 927              		.cfi_endproc
 928              	.LFE72:
 929              		.size	xQueueGiveFromISR, .-xQueueGiveFromISR
 930 007e 00BF     		.section	.text.xQueueGenericReceive,"ax",%progbits
 931              		.align	2
 932              		.global	xQueueGenericReceive
 933              		.thumb
 934              		.thumb_func
 935              		.type	xQueueGenericReceive, %function
 936              	xQueueGenericReceive:
 937              	.LFB73:
1366:.\queue.c     **** /*-----------------------------------------------------------*/
1367:.\queue.c     **** 
1368:.\queue.c     **** BaseType_t xQueueGenericReceive( QueueHandle_t xQueue, void * const pvBuffer, TickType_t xTicksToWa
1369:.\queue.c     **** {
 938              		.loc 1 1369 0
 939              		.cfi_startproc
 940              		@ args = 0, pretend = 0, frame = 40
 941              		@ frame_needed = 1, uses_anonymous_args = 0
 942 0000 80B5     		push	{r7, lr}
 943              		.cfi_def_cfa_offset 8
 944              		.cfi_offset 7, -8
 945              		.cfi_offset 14, -4
 946 0002 8AB0     		sub	sp, sp, #40
 947              		.cfi_def_cfa_offset 48
 948 0004 00AF     		add	r7, sp, #0
 949              		.cfi_def_cfa_register 7
 950 0006 F860     		str	r0, [r7, #12]
 951 0008 B960     		str	r1, [r7, #8]
 952 000a 7A60     		str	r2, [r7, #4]
 953 000c 3B60     		str	r3, [r7]
1370:.\queue.c     **** BaseType_t xEntryTimeSet = pdFALSE;
 954              		.loc 1 1370 0
 955 000e 0023     		movs	r3, #0
 956 0010 7B62     		str	r3, [r7, #36]
1371:.\queue.c     **** TimeOut_t xTimeOut;
1372:.\queue.c     **** int8_t *pcOriginalReadPosition;
1373:.\queue.c     **** Queue_t * const pxQueue = ( Queue_t * ) xQueue;
 957              		.loc 1 1373 0
 958 0012 FB68     		ldr	r3, [r7, #12]
 959 0014 3B62     		str	r3, [r7, #32]
 960              	.L72:
1374:.\queue.c     **** 
1375:.\queue.c     **** 	configASSERT( pxQueue );
1376:.\queue.c     **** 	configASSERT( !( ( pvBuffer == NULL ) && ( pxQueue->uxItemSize != ( UBaseType_t ) 0U ) ) );
1377:.\queue.c     **** 	#if ( ( INCLUDE_xTaskGetSchedulerState == 1 ) || ( configUSE_TIMERS == 1 ) )
ARM GAS  C:\Users\mjphi\AppData\Local\Temp\ccgjF1VN.s 			page 42


1378:.\queue.c     **** 	{
1379:.\queue.c     **** 		configASSERT( !( ( xTaskGetSchedulerState() == taskSCHEDULER_SUSPENDED ) && ( xTicksToWait != 0 )
1380:.\queue.c     **** 	}
1381:.\queue.c     **** 	#endif
1382:.\queue.c     **** 
1383:.\queue.c     **** 	/* This function relaxes the coding standard somewhat to allow return
1384:.\queue.c     **** 	statements within the function itself.  This is done in the interest
1385:.\queue.c     **** 	of execution time efficiency. */
1386:.\queue.c     **** 
1387:.\queue.c     **** 	for( ;; )
1388:.\queue.c     **** 	{
1389:.\queue.c     **** 		taskENTER_CRITICAL();
 961              		.loc 1 1389 0
 962 0016 FFF7FEFF 		bl	vPortEnterCritical
1390:.\queue.c     **** 		{
1391:.\queue.c     **** 			/* Is there data in the queue now?  To be running the calling task
1392:.\queue.c     **** 			must be	the highest priority task wanting to access the queue. */
1393:.\queue.c     **** 			if( pxQueue->uxMessagesWaiting > ( UBaseType_t ) 0 )
 963              		.loc 1 1393 0
 964 001a 3B6A     		ldr	r3, [r7, #32]
 965 001c 9B6B     		ldr	r3, [r3, #56]
 966 001e 002B     		cmp	r3, #0
 967 0020 3BD0     		beq	.L58
1394:.\queue.c     **** 			{
1395:.\queue.c     **** 				/* Remember the read position in case the queue is only being
1396:.\queue.c     **** 				peeked. */
1397:.\queue.c     **** 				pcOriginalReadPosition = pxQueue->u.pcReadFrom;
 968              		.loc 1 1397 0
 969 0022 3B6A     		ldr	r3, [r7, #32]
 970 0024 DB68     		ldr	r3, [r3, #12]
 971 0026 FB61     		str	r3, [r7, #28]
1398:.\queue.c     **** 
1399:.\queue.c     **** 				prvCopyDataFromQueue( pxQueue, pvBuffer );
 972              		.loc 1 1399 0
 973 0028 386A     		ldr	r0, [r7, #32]
 974 002a B968     		ldr	r1, [r7, #8]
 975 002c FFF7FEFF 		bl	prvCopyDataFromQueue
1400:.\queue.c     **** 
1401:.\queue.c     **** 				if( xJustPeeking == pdFALSE )
 976              		.loc 1 1401 0
 977 0030 3B68     		ldr	r3, [r7]
 978 0032 002B     		cmp	r3, #0
 979 0034 1CD1     		bne	.L59
1402:.\queue.c     **** 				{
1403:.\queue.c     **** 					traceQUEUE_RECEIVE( pxQueue );
1404:.\queue.c     **** 
1405:.\queue.c     **** 					/* Actually removing data, not just peeking. */
1406:.\queue.c     **** 					--( pxQueue->uxMessagesWaiting );
 980              		.loc 1 1406 0
 981 0036 3B6A     		ldr	r3, [r7, #32]
 982 0038 9B6B     		ldr	r3, [r3, #56]
 983 003a 5A1E     		subs	r2, r3, #1
 984 003c 3B6A     		ldr	r3, [r7, #32]
 985 003e 9A63     		str	r2, [r3, #56]
1407:.\queue.c     **** 
1408:.\queue.c     **** 					#if ( configUSE_MUTEXES == 1 )
1409:.\queue.c     **** 					{
ARM GAS  C:\Users\mjphi\AppData\Local\Temp\ccgjF1VN.s 			page 43


1410:.\queue.c     **** 						if( pxQueue->uxQueueType == queueQUEUE_IS_MUTEX )
 986              		.loc 1 1410 0
 987 0040 3B6A     		ldr	r3, [r7, #32]
 988 0042 1B68     		ldr	r3, [r3]
 989 0044 002B     		cmp	r3, #0
 990 0046 04D1     		bne	.L60
1411:.\queue.c     **** 						{
1412:.\queue.c     **** 							/* Record the information required to implement
1413:.\queue.c     **** 							priority inheritance should it become necessary. */
1414:.\queue.c     **** 							pxQueue->pxMutexHolder = ( int8_t * ) pvTaskIncrementMutexHeldCount(); /*lint !e961 Cast is 
 991              		.loc 1 1414 0
 992 0048 FFF7FEFF 		bl	pvTaskIncrementMutexHeldCount
 993 004c 0246     		mov	r2, r0
 994 004e 3B6A     		ldr	r3, [r7, #32]
 995 0050 5A60     		str	r2, [r3, #4]
 996              	.L60:
1415:.\queue.c     **** 						}
1416:.\queue.c     **** 						else
1417:.\queue.c     **** 						{
1418:.\queue.c     **** 							mtCOVERAGE_TEST_MARKER();
1419:.\queue.c     **** 						}
1420:.\queue.c     **** 					}
1421:.\queue.c     **** 					#endif /* configUSE_MUTEXES */
1422:.\queue.c     **** 
1423:.\queue.c     **** 					if( listLIST_IS_EMPTY( &( pxQueue->xTasksWaitingToSend ) ) == pdFALSE )
 997              		.loc 1 1423 0
 998 0052 3B6A     		ldr	r3, [r7, #32]
 999 0054 1B69     		ldr	r3, [r3, #16]
 1000 0056 002B     		cmp	r3, #0
 1001 0058 1BD0     		beq	.L61
1424:.\queue.c     **** 					{
1425:.\queue.c     **** 						if( xTaskRemoveFromEventList( &( pxQueue->xTasksWaitingToSend ) ) == pdTRUE )
 1002              		.loc 1 1425 0
 1003 005a 3B6A     		ldr	r3, [r7, #32]
 1004 005c 1033     		adds	r3, r3, #16
 1005 005e 1846     		mov	r0, r3
 1006 0060 FFF7FEFF 		bl	xTaskRemoveFromEventList
 1007 0064 0346     		mov	r3, r0
 1008 0066 012B     		cmp	r3, #1
 1009 0068 13D1     		bne	.L61
1426:.\queue.c     **** 						{
1427:.\queue.c     **** 							queueYIELD_IF_USING_PREEMPTION();
 1010              		.loc 1 1427 0
 1011 006a FFF7FEFF 		bl	vPortYield
 1012 006e 10E0     		b	.L61
 1013              	.L59:
1428:.\queue.c     **** 						}
1429:.\queue.c     **** 						else
1430:.\queue.c     **** 						{
1431:.\queue.c     **** 							mtCOVERAGE_TEST_MARKER();
1432:.\queue.c     **** 						}
1433:.\queue.c     **** 					}
1434:.\queue.c     **** 					else
1435:.\queue.c     **** 					{
1436:.\queue.c     **** 						mtCOVERAGE_TEST_MARKER();
1437:.\queue.c     **** 					}
1438:.\queue.c     **** 				}
ARM GAS  C:\Users\mjphi\AppData\Local\Temp\ccgjF1VN.s 			page 44


1439:.\queue.c     **** 				else
1440:.\queue.c     **** 				{
1441:.\queue.c     **** 					traceQUEUE_PEEK( pxQueue );
1442:.\queue.c     **** 
1443:.\queue.c     **** 					/* The data is not being removed, so reset the read
1444:.\queue.c     **** 					pointer. */
1445:.\queue.c     **** 					pxQueue->u.pcReadFrom = pcOriginalReadPosition;
 1014              		.loc 1 1445 0
 1015 0070 3B6A     		ldr	r3, [r7, #32]
 1016 0072 FA69     		ldr	r2, [r7, #28]
 1017 0074 DA60     		str	r2, [r3, #12]
1446:.\queue.c     **** 
1447:.\queue.c     **** 					/* The data is being left in the queue, so see if there are
1448:.\queue.c     **** 					any other tasks waiting for the data. */
1449:.\queue.c     **** 					if( listLIST_IS_EMPTY( &( pxQueue->xTasksWaitingToReceive ) ) == pdFALSE )
 1018              		.loc 1 1449 0
 1019 0076 3B6A     		ldr	r3, [r7, #32]
 1020 0078 5B6A     		ldr	r3, [r3, #36]
 1021 007a 002B     		cmp	r3, #0
 1022 007c 09D0     		beq	.L61
1450:.\queue.c     **** 					{
1451:.\queue.c     **** 						if( xTaskRemoveFromEventList( &( pxQueue->xTasksWaitingToReceive ) ) != pdFALSE )
 1023              		.loc 1 1451 0
 1024 007e 3B6A     		ldr	r3, [r7, #32]
 1025 0080 2433     		adds	r3, r3, #36
 1026 0082 1846     		mov	r0, r3
 1027 0084 FFF7FEFF 		bl	xTaskRemoveFromEventList
 1028 0088 0346     		mov	r3, r0
 1029 008a 002B     		cmp	r3, #0
 1030 008c 01D0     		beq	.L61
1452:.\queue.c     **** 						{
1453:.\queue.c     **** 							/* The task waiting has a higher priority than this task. */
1454:.\queue.c     **** 							queueYIELD_IF_USING_PREEMPTION();
 1031              		.loc 1 1454 0
 1032 008e FFF7FEFF 		bl	vPortYield
 1033              	.L61:
1455:.\queue.c     **** 						}
1456:.\queue.c     **** 						else
1457:.\queue.c     **** 						{
1458:.\queue.c     **** 							mtCOVERAGE_TEST_MARKER();
1459:.\queue.c     **** 						}
1460:.\queue.c     **** 					}
1461:.\queue.c     **** 					else
1462:.\queue.c     **** 					{
1463:.\queue.c     **** 						mtCOVERAGE_TEST_MARKER();
1464:.\queue.c     **** 					}
1465:.\queue.c     **** 				}
1466:.\queue.c     **** 
1467:.\queue.c     **** 				taskEXIT_CRITICAL();
 1034              		.loc 1 1467 0
 1035 0092 FFF7FEFF 		bl	vPortExitCritical
1468:.\queue.c     **** 				return pdPASS;
 1036              		.loc 1 1468 0
 1037 0096 0123     		movs	r3, #1
 1038 0098 66E0     		b	.L73
 1039              	.L58:
1469:.\queue.c     **** 			}
ARM GAS  C:\Users\mjphi\AppData\Local\Temp\ccgjF1VN.s 			page 45


1470:.\queue.c     **** 			else
1471:.\queue.c     **** 			{
1472:.\queue.c     **** 				if( xTicksToWait == ( TickType_t ) 0 )
 1040              		.loc 1 1472 0
 1041 009a 7B68     		ldr	r3, [r7, #4]
 1042 009c 002B     		cmp	r3, #0
 1043 009e 03D1     		bne	.L63
1473:.\queue.c     **** 				{
1474:.\queue.c     **** 					/* The queue was empty and no block time is specified (or
1475:.\queue.c     **** 					the block time has expired) so leave now. */
1476:.\queue.c     **** 					taskEXIT_CRITICAL();
 1044              		.loc 1 1476 0
 1045 00a0 FFF7FEFF 		bl	vPortExitCritical
1477:.\queue.c     **** 					traceQUEUE_RECEIVE_FAILED( pxQueue );
1478:.\queue.c     **** 					return errQUEUE_EMPTY;
 1046              		.loc 1 1478 0
 1047 00a4 0023     		movs	r3, #0
 1048 00a6 5FE0     		b	.L73
 1049              	.L63:
1479:.\queue.c     **** 				}
1480:.\queue.c     **** 				else if( xEntryTimeSet == pdFALSE )
 1050              		.loc 1 1480 0
 1051 00a8 7B6A     		ldr	r3, [r7, #36]
 1052 00aa 002B     		cmp	r3, #0
 1053 00ac 06D1     		bne	.L64
1481:.\queue.c     **** 				{
1482:.\queue.c     **** 					/* The queue was empty and a block time was specified so
1483:.\queue.c     **** 					configure the timeout structure. */
1484:.\queue.c     **** 					vTaskSetTimeOutState( &xTimeOut );
 1054              		.loc 1 1484 0
 1055 00ae 07F11403 		add	r3, r7, #20
 1056 00b2 1846     		mov	r0, r3
 1057 00b4 FFF7FEFF 		bl	vTaskSetTimeOutState
1485:.\queue.c     **** 					xEntryTimeSet = pdTRUE;
 1058              		.loc 1 1485 0
 1059 00b8 0123     		movs	r3, #1
 1060 00ba 7B62     		str	r3, [r7, #36]
 1061              	.L64:
1486:.\queue.c     **** 				}
1487:.\queue.c     **** 				else
1488:.\queue.c     **** 				{
1489:.\queue.c     **** 					/* Entry time was already set. */
1490:.\queue.c     **** 					mtCOVERAGE_TEST_MARKER();
1491:.\queue.c     **** 				}
1492:.\queue.c     **** 			}
1493:.\queue.c     **** 		}
1494:.\queue.c     **** 		taskEXIT_CRITICAL();
 1062              		.loc 1 1494 0
 1063 00bc FFF7FEFF 		bl	vPortExitCritical
1495:.\queue.c     **** 
1496:.\queue.c     **** 		/* Interrupts and other tasks can send to and receive from the queue
1497:.\queue.c     **** 		now the critical section has been exited. */
1498:.\queue.c     **** 
1499:.\queue.c     **** 		vTaskSuspendAll();
 1064              		.loc 1 1499 0
 1065 00c0 FFF7FEFF 		bl	vTaskSuspendAll
1500:.\queue.c     **** 		prvLockQueue( pxQueue );
ARM GAS  C:\Users\mjphi\AppData\Local\Temp\ccgjF1VN.s 			page 46


 1066              		.loc 1 1500 0
 1067 00c4 FFF7FEFF 		bl	vPortEnterCritical
 1068 00c8 3B6A     		ldr	r3, [r7, #32]
 1069 00ca 5B6C     		ldr	r3, [r3, #68]
 1070 00cc B3F1FF3F 		cmp	r3, #-1
 1071 00d0 02D1     		bne	.L65
 1072              		.loc 1 1500 0 is_stmt 0 discriminator 1
 1073 00d2 3B6A     		ldr	r3, [r7, #32]
 1074 00d4 0022     		movs	r2, #0
 1075 00d6 5A64     		str	r2, [r3, #68]
 1076              	.L65:
 1077              		.loc 1 1500 0 discriminator 3
 1078 00d8 3B6A     		ldr	r3, [r7, #32]
 1079 00da 9B6C     		ldr	r3, [r3, #72]
 1080 00dc B3F1FF3F 		cmp	r3, #-1
 1081 00e0 02D1     		bne	.L66
 1082              		.loc 1 1500 0 discriminator 4
 1083 00e2 3B6A     		ldr	r3, [r7, #32]
 1084 00e4 0022     		movs	r2, #0
 1085 00e6 9A64     		str	r2, [r3, #72]
 1086              	.L66:
 1087              		.loc 1 1500 0 discriminator 6
 1088 00e8 FFF7FEFF 		bl	vPortExitCritical
1501:.\queue.c     **** 
1502:.\queue.c     **** 		/* Update the timeout state to see if it has expired yet. */
1503:.\queue.c     **** 		if( xTaskCheckForTimeOut( &xTimeOut, &xTicksToWait ) == pdFALSE )
 1089              		.loc 1 1503 0 is_stmt 1 discriminator 6
 1090 00ec 07F11402 		add	r2, r7, #20
 1091 00f0 3B1D     		adds	r3, r7, #4
 1092 00f2 1046     		mov	r0, r2
 1093 00f4 1946     		mov	r1, r3
 1094 00f6 FFF7FEFF 		bl	xTaskCheckForTimeOut
 1095 00fa 0346     		mov	r3, r0
 1096 00fc 002B     		cmp	r3, #0
 1097 00fe 2BD1     		bne	.L67
1504:.\queue.c     **** 		{
1505:.\queue.c     **** 			if( prvIsQueueEmpty( pxQueue ) != pdFALSE )
 1098              		.loc 1 1505 0
 1099 0100 386A     		ldr	r0, [r7, #32]
 1100 0102 FFF7FEFF 		bl	prvIsQueueEmpty
 1101 0106 0346     		mov	r3, r0
 1102 0108 002B     		cmp	r3, #0
 1103 010a 1FD0     		beq	.L68
1506:.\queue.c     **** 			{
1507:.\queue.c     **** 				traceBLOCKING_ON_QUEUE_RECEIVE( pxQueue );
1508:.\queue.c     **** 
1509:.\queue.c     **** 				#if ( configUSE_MUTEXES == 1 )
1510:.\queue.c     **** 				{
1511:.\queue.c     **** 					if( pxQueue->uxQueueType == queueQUEUE_IS_MUTEX )
 1104              		.loc 1 1511 0
 1105 010c 3B6A     		ldr	r3, [r7, #32]
 1106 010e 1B68     		ldr	r3, [r3]
 1107 0110 002B     		cmp	r3, #0
 1108 0112 08D1     		bne	.L69
1512:.\queue.c     **** 					{
1513:.\queue.c     **** 						taskENTER_CRITICAL();
 1109              		.loc 1 1513 0
ARM GAS  C:\Users\mjphi\AppData\Local\Temp\ccgjF1VN.s 			page 47


 1110 0114 FFF7FEFF 		bl	vPortEnterCritical
1514:.\queue.c     **** 						{
1515:.\queue.c     **** 							vTaskPriorityInherit( ( void * ) pxQueue->pxMutexHolder );
 1111              		.loc 1 1515 0
 1112 0118 3B6A     		ldr	r3, [r7, #32]
 1113 011a 5B68     		ldr	r3, [r3, #4]
 1114 011c 1846     		mov	r0, r3
 1115 011e FFF7FEFF 		bl	vTaskPriorityInherit
1516:.\queue.c     **** 						}
1517:.\queue.c     **** 						taskEXIT_CRITICAL();
 1116              		.loc 1 1517 0
 1117 0122 FFF7FEFF 		bl	vPortExitCritical
 1118              	.L69:
1518:.\queue.c     **** 					}
1519:.\queue.c     **** 					else
1520:.\queue.c     **** 					{
1521:.\queue.c     **** 						mtCOVERAGE_TEST_MARKER();
1522:.\queue.c     **** 					}
1523:.\queue.c     **** 				}
1524:.\queue.c     **** 				#endif
1525:.\queue.c     **** 
1526:.\queue.c     **** 				vTaskPlaceOnEventList( &( pxQueue->xTasksWaitingToReceive ), xTicksToWait );
 1119              		.loc 1 1526 0
 1120 0126 3B6A     		ldr	r3, [r7, #32]
 1121 0128 03F12402 		add	r2, r3, #36
 1122 012c 7B68     		ldr	r3, [r7, #4]
 1123 012e 1046     		mov	r0, r2
 1124 0130 1946     		mov	r1, r3
 1125 0132 FFF7FEFF 		bl	vTaskPlaceOnEventList
1527:.\queue.c     **** 				prvUnlockQueue( pxQueue );
 1126              		.loc 1 1527 0
 1127 0136 386A     		ldr	r0, [r7, #32]
 1128 0138 FFF7FEFF 		bl	prvUnlockQueue
1528:.\queue.c     **** 				if( xTaskResumeAll() == pdFALSE )
 1129              		.loc 1 1528 0
 1130 013c FFF7FEFF 		bl	xTaskResumeAll
 1131 0140 0346     		mov	r3, r0
 1132 0142 002B     		cmp	r3, #0
 1133 0144 0FD1     		bne	.L71
1529:.\queue.c     **** 				{
1530:.\queue.c     **** 					portYIELD_WITHIN_API();
 1134              		.loc 1 1530 0
 1135 0146 FFF7FEFF 		bl	vPortYield
 1136 014a 0CE0     		b	.L71
 1137              	.L68:
1531:.\queue.c     **** 				}
1532:.\queue.c     **** 				else
1533:.\queue.c     **** 				{
1534:.\queue.c     **** 					mtCOVERAGE_TEST_MARKER();
1535:.\queue.c     **** 				}
1536:.\queue.c     **** 			}
1537:.\queue.c     **** 			else
1538:.\queue.c     **** 			{
1539:.\queue.c     **** 				/* Try again. */
1540:.\queue.c     **** 				prvUnlockQueue( pxQueue );
 1138              		.loc 1 1540 0
 1139 014c 386A     		ldr	r0, [r7, #32]
ARM GAS  C:\Users\mjphi\AppData\Local\Temp\ccgjF1VN.s 			page 48


 1140 014e FFF7FEFF 		bl	prvUnlockQueue
1541:.\queue.c     **** 				( void ) xTaskResumeAll();
 1141              		.loc 1 1541 0
 1142 0152 FFF7FEFF 		bl	xTaskResumeAll
 1143 0156 5EE7     		b	.L72
 1144              	.L67:
1542:.\queue.c     **** 			}
1543:.\queue.c     **** 		}
1544:.\queue.c     **** 		else
1545:.\queue.c     **** 		{
1546:.\queue.c     **** 			prvUnlockQueue( pxQueue );
 1145              		.loc 1 1546 0
 1146 0158 386A     		ldr	r0, [r7, #32]
 1147 015a FFF7FEFF 		bl	prvUnlockQueue
1547:.\queue.c     **** 			( void ) xTaskResumeAll();
 1148              		.loc 1 1547 0
 1149 015e FFF7FEFF 		bl	xTaskResumeAll
1548:.\queue.c     **** 			traceQUEUE_RECEIVE_FAILED( pxQueue );
1549:.\queue.c     **** 			return errQUEUE_EMPTY;
 1150              		.loc 1 1549 0
 1151 0162 0023     		movs	r3, #0
 1152 0164 00E0     		b	.L73
 1153              	.L71:
1550:.\queue.c     **** 		}
1551:.\queue.c     **** 	}
 1154              		.loc 1 1551 0 discriminator 3
 1155 0166 56E7     		b	.L72
 1156              	.L73:
1552:.\queue.c     **** }
 1157              		.loc 1 1552 0 discriminator 4
 1158 0168 1846     		mov	r0, r3
 1159 016a 2837     		adds	r7, r7, #40
 1160              		.cfi_def_cfa_offset 8
 1161 016c BD46     		mov	sp, r7
 1162              		.cfi_def_cfa_register 13
 1163              		@ sp needed
 1164 016e 80BD     		pop	{r7, pc}
 1165              		.cfi_endproc
 1166              	.LFE73:
 1167              		.size	xQueueGenericReceive, .-xQueueGenericReceive
 1168              		.section	.text.xQueueReceiveFromISR,"ax",%progbits
 1169              		.align	2
 1170              		.global	xQueueReceiveFromISR
 1171              		.thumb
 1172              		.thumb_func
 1173              		.type	xQueueReceiveFromISR, %function
 1174              	xQueueReceiveFromISR:
 1175              	.LFB74:
1553:.\queue.c     **** /*-----------------------------------------------------------*/
1554:.\queue.c     **** 
1555:.\queue.c     **** BaseType_t xQueueReceiveFromISR( QueueHandle_t xQueue, void * const pvBuffer, BaseType_t * const px
1556:.\queue.c     **** {
 1176              		.loc 1 1556 0
 1177              		.cfi_startproc
 1178              		@ args = 0, pretend = 0, frame = 32
 1179              		@ frame_needed = 1, uses_anonymous_args = 0
 1180 0000 80B5     		push	{r7, lr}
ARM GAS  C:\Users\mjphi\AppData\Local\Temp\ccgjF1VN.s 			page 49


 1181              		.cfi_def_cfa_offset 8
 1182              		.cfi_offset 7, -8
 1183              		.cfi_offset 14, -4
 1184 0002 88B0     		sub	sp, sp, #32
 1185              		.cfi_def_cfa_offset 40
 1186 0004 00AF     		add	r7, sp, #0
 1187              		.cfi_def_cfa_register 7
 1188 0006 F860     		str	r0, [r7, #12]
 1189 0008 B960     		str	r1, [r7, #8]
 1190 000a 7A60     		str	r2, [r7, #4]
1557:.\queue.c     **** BaseType_t xReturn;
1558:.\queue.c     **** UBaseType_t uxSavedInterruptStatus;
1559:.\queue.c     **** Queue_t * const pxQueue = ( Queue_t * ) xQueue;
 1191              		.loc 1 1559 0
 1192 000c FB68     		ldr	r3, [r7, #12]
 1193 000e BB61     		str	r3, [r7, #24]
1560:.\queue.c     **** 
1561:.\queue.c     **** 	configASSERT( pxQueue );
1562:.\queue.c     **** 	configASSERT( !( ( pvBuffer == NULL ) && ( pxQueue->uxItemSize != ( UBaseType_t ) 0U ) ) );
1563:.\queue.c     **** 
1564:.\queue.c     **** 	/* RTOS ports that support interrupt nesting have the concept of a maximum
1565:.\queue.c     **** 	system call (or maximum API call) interrupt priority.  Interrupts that are
1566:.\queue.c     **** 	above the maximum system call priority are kept permanently enabled, even
1567:.\queue.c     **** 	when the RTOS kernel is in a critical section, but cannot make any calls to
1568:.\queue.c     **** 	FreeRTOS API functions.  If configASSERT() is defined in FreeRTOSConfig.h
1569:.\queue.c     **** 	then portASSERT_IF_INTERRUPT_PRIORITY_INVALID() will result in an assertion
1570:.\queue.c     **** 	failure if a FreeRTOS API function is called from an interrupt that has been
1571:.\queue.c     **** 	assigned a priority above the configured maximum system call priority.
1572:.\queue.c     **** 	Only FreeRTOS functions that end in FromISR can be called from interrupts
1573:.\queue.c     **** 	that have been assigned a priority at or (logically) below the maximum
1574:.\queue.c     **** 	system call	interrupt priority.  FreeRTOS maintains a separate interrupt
1575:.\queue.c     **** 	safe API to ensure interrupt entry is as fast and as simple as possible.
1576:.\queue.c     **** 	More information (albeit Cortex-M specific) is provided on the following
1577:.\queue.c     **** 	link: http://www.freertos.org/RTOS-Cortex-M3-M4.html */
1578:.\queue.c     **** 	portASSERT_IF_INTERRUPT_PRIORITY_INVALID();
1579:.\queue.c     **** 
1580:.\queue.c     **** 	uxSavedInterruptStatus = portSET_INTERRUPT_MASK_FROM_ISR();
 1194              		.loc 1 1580 0
 1195 0010 FFF7FEFF 		bl	ulPortSetInterruptMask
 1196 0014 7861     		str	r0, [r7, #20]
1581:.\queue.c     **** 	{
1582:.\queue.c     **** 		/* Cannot block in an ISR, so check there is data available. */
1583:.\queue.c     **** 		if( pxQueue->uxMessagesWaiting > ( UBaseType_t ) 0 )
 1197              		.loc 1 1583 0
 1198 0016 BB69     		ldr	r3, [r7, #24]
 1199 0018 9B6B     		ldr	r3, [r3, #56]
 1200 001a 002B     		cmp	r3, #0
 1201 001c 28D0     		beq	.L75
1584:.\queue.c     **** 		{
1585:.\queue.c     **** 			traceQUEUE_RECEIVE_FROM_ISR( pxQueue );
1586:.\queue.c     **** 
1587:.\queue.c     **** 			prvCopyDataFromQueue( pxQueue, pvBuffer );
 1202              		.loc 1 1587 0
 1203 001e B869     		ldr	r0, [r7, #24]
 1204 0020 B968     		ldr	r1, [r7, #8]
 1205 0022 FFF7FEFF 		bl	prvCopyDataFromQueue
1588:.\queue.c     **** 			--( pxQueue->uxMessagesWaiting );
ARM GAS  C:\Users\mjphi\AppData\Local\Temp\ccgjF1VN.s 			page 50


 1206              		.loc 1 1588 0
 1207 0026 BB69     		ldr	r3, [r7, #24]
 1208 0028 9B6B     		ldr	r3, [r3, #56]
 1209 002a 5A1E     		subs	r2, r3, #1
 1210 002c BB69     		ldr	r3, [r7, #24]
 1211 002e 9A63     		str	r2, [r3, #56]
1589:.\queue.c     **** 
1590:.\queue.c     **** 			/* If the queue is locked the event list will not be modified.
1591:.\queue.c     **** 			Instead update the lock count so the task that unlocks the queue
1592:.\queue.c     **** 			will know that an ISR has removed data while the queue was
1593:.\queue.c     **** 			locked. */
1594:.\queue.c     **** 			if( pxQueue->xRxLock == queueUNLOCKED )
 1212              		.loc 1 1594 0
 1213 0030 BB69     		ldr	r3, [r7, #24]
 1214 0032 5B6C     		ldr	r3, [r3, #68]
 1215 0034 B3F1FF3F 		cmp	r3, #-1
 1216 0038 12D1     		bne	.L76
1595:.\queue.c     **** 			{
1596:.\queue.c     **** 				if( listLIST_IS_EMPTY( &( pxQueue->xTasksWaitingToSend ) ) == pdFALSE )
 1217              		.loc 1 1596 0
 1218 003a BB69     		ldr	r3, [r7, #24]
 1219 003c 1B69     		ldr	r3, [r3, #16]
 1220 003e 002B     		cmp	r3, #0
 1221 0040 13D0     		beq	.L77
1597:.\queue.c     **** 				{
1598:.\queue.c     **** 					if( xTaskRemoveFromEventList( &( pxQueue->xTasksWaitingToSend ) ) != pdFALSE )
 1222              		.loc 1 1598 0
 1223 0042 BB69     		ldr	r3, [r7, #24]
 1224 0044 1033     		adds	r3, r3, #16
 1225 0046 1846     		mov	r0, r3
 1226 0048 FFF7FEFF 		bl	xTaskRemoveFromEventList
 1227 004c 0346     		mov	r3, r0
 1228 004e 002B     		cmp	r3, #0
 1229 0050 0BD0     		beq	.L77
1599:.\queue.c     **** 					{
1600:.\queue.c     **** 						/* The task waiting has a higher priority than us so
1601:.\queue.c     **** 						force a context switch. */
1602:.\queue.c     **** 						if( pxHigherPriorityTaskWoken != NULL )
 1230              		.loc 1 1602 0
 1231 0052 7B68     		ldr	r3, [r7, #4]
 1232 0054 002B     		cmp	r3, #0
 1233 0056 08D0     		beq	.L77
1603:.\queue.c     **** 						{
1604:.\queue.c     **** 							*pxHigherPriorityTaskWoken = pdTRUE;
 1234              		.loc 1 1604 0
 1235 0058 7B68     		ldr	r3, [r7, #4]
 1236 005a 0122     		movs	r2, #1
 1237 005c 1A60     		str	r2, [r3]
 1238 005e 04E0     		b	.L77
 1239              	.L76:
1605:.\queue.c     **** 						}
1606:.\queue.c     **** 						else
1607:.\queue.c     **** 						{
1608:.\queue.c     **** 							mtCOVERAGE_TEST_MARKER();
1609:.\queue.c     **** 						}
1610:.\queue.c     **** 					}
1611:.\queue.c     **** 					else
ARM GAS  C:\Users\mjphi\AppData\Local\Temp\ccgjF1VN.s 			page 51


1612:.\queue.c     **** 					{
1613:.\queue.c     **** 						mtCOVERAGE_TEST_MARKER();
1614:.\queue.c     **** 					}
1615:.\queue.c     **** 				}
1616:.\queue.c     **** 				else
1617:.\queue.c     **** 				{
1618:.\queue.c     **** 					mtCOVERAGE_TEST_MARKER();
1619:.\queue.c     **** 				}
1620:.\queue.c     **** 			}
1621:.\queue.c     **** 			else
1622:.\queue.c     **** 			{
1623:.\queue.c     **** 				/* Increment the lock count so the task that unlocks the queue
1624:.\queue.c     **** 				knows that data was removed while it was locked. */
1625:.\queue.c     **** 				++( pxQueue->xRxLock );
 1240              		.loc 1 1625 0
 1241 0060 BB69     		ldr	r3, [r7, #24]
 1242 0062 5B6C     		ldr	r3, [r3, #68]
 1243 0064 5A1C     		adds	r2, r3, #1
 1244 0066 BB69     		ldr	r3, [r7, #24]
 1245 0068 5A64     		str	r2, [r3, #68]
 1246              	.L77:
1626:.\queue.c     **** 			}
1627:.\queue.c     **** 
1628:.\queue.c     **** 			xReturn = pdPASS;
 1247              		.loc 1 1628 0
 1248 006a 0123     		movs	r3, #1
 1249 006c FB61     		str	r3, [r7, #28]
 1250 006e 01E0     		b	.L78
 1251              	.L75:
1629:.\queue.c     **** 		}
1630:.\queue.c     **** 		else
1631:.\queue.c     **** 		{
1632:.\queue.c     **** 			xReturn = pdFAIL;
 1252              		.loc 1 1632 0
 1253 0070 0023     		movs	r3, #0
 1254 0072 FB61     		str	r3, [r7, #28]
 1255              	.L78:
1633:.\queue.c     **** 			traceQUEUE_RECEIVE_FROM_ISR_FAILED( pxQueue );
1634:.\queue.c     **** 		}
1635:.\queue.c     **** 	}
1636:.\queue.c     **** 	portCLEAR_INTERRUPT_MASK_FROM_ISR( uxSavedInterruptStatus );
 1256              		.loc 1 1636 0
 1257 0074 7869     		ldr	r0, [r7, #20]
 1258 0076 FFF7FEFF 		bl	vPortClearInterruptMask
1637:.\queue.c     **** 
1638:.\queue.c     **** 	return xReturn;
 1259              		.loc 1 1638 0
 1260 007a FB69     		ldr	r3, [r7, #28]
1639:.\queue.c     **** }
 1261              		.loc 1 1639 0
 1262 007c 1846     		mov	r0, r3
 1263 007e 2037     		adds	r7, r7, #32
 1264              		.cfi_def_cfa_offset 8
 1265 0080 BD46     		mov	sp, r7
 1266              		.cfi_def_cfa_register 13
 1267              		@ sp needed
 1268 0082 80BD     		pop	{r7, pc}
ARM GAS  C:\Users\mjphi\AppData\Local\Temp\ccgjF1VN.s 			page 52


 1269              		.cfi_endproc
 1270              	.LFE74:
 1271              		.size	xQueueReceiveFromISR, .-xQueueReceiveFromISR
 1272              		.section	.text.xQueuePeekFromISR,"ax",%progbits
 1273              		.align	2
 1274              		.global	xQueuePeekFromISR
 1275              		.thumb
 1276              		.thumb_func
 1277              		.type	xQueuePeekFromISR, %function
 1278              	xQueuePeekFromISR:
 1279              	.LFB75:
1640:.\queue.c     **** /*-----------------------------------------------------------*/
1641:.\queue.c     **** 
1642:.\queue.c     **** BaseType_t xQueuePeekFromISR( QueueHandle_t xQueue,  void * const pvBuffer )
1643:.\queue.c     **** {
 1280              		.loc 1 1643 0
 1281              		.cfi_startproc
 1282              		@ args = 0, pretend = 0, frame = 24
 1283              		@ frame_needed = 1, uses_anonymous_args = 0
 1284 0000 80B5     		push	{r7, lr}
 1285              		.cfi_def_cfa_offset 8
 1286              		.cfi_offset 7, -8
 1287              		.cfi_offset 14, -4
 1288 0002 86B0     		sub	sp, sp, #24
 1289              		.cfi_def_cfa_offset 32
 1290 0004 00AF     		add	r7, sp, #0
 1291              		.cfi_def_cfa_register 7
 1292 0006 7860     		str	r0, [r7, #4]
 1293 0008 3960     		str	r1, [r7]
1644:.\queue.c     **** BaseType_t xReturn;
1645:.\queue.c     **** UBaseType_t uxSavedInterruptStatus;
1646:.\queue.c     **** int8_t *pcOriginalReadPosition;
1647:.\queue.c     **** Queue_t * const pxQueue = ( Queue_t * ) xQueue;
 1294              		.loc 1 1647 0
 1295 000a 7B68     		ldr	r3, [r7, #4]
 1296 000c 3B61     		str	r3, [r7, #16]
1648:.\queue.c     **** 
1649:.\queue.c     **** 	configASSERT( pxQueue );
1650:.\queue.c     **** 	configASSERT( !( ( pvBuffer == NULL ) && ( pxQueue->uxItemSize != ( UBaseType_t ) 0U ) ) );
1651:.\queue.c     **** 	configASSERT( pxQueue->uxItemSize != 0 ); /* Can't peek a semaphore. */
1652:.\queue.c     **** 
1653:.\queue.c     **** 	/* RTOS ports that support interrupt nesting have the concept of a maximum
1654:.\queue.c     **** 	system call (or maximum API call) interrupt priority.  Interrupts that are
1655:.\queue.c     **** 	above the maximum system call priority are kept permanently enabled, even
1656:.\queue.c     **** 	when the RTOS kernel is in a critical section, but cannot make any calls to
1657:.\queue.c     **** 	FreeRTOS API functions.  If configASSERT() is defined in FreeRTOSConfig.h
1658:.\queue.c     **** 	then portASSERT_IF_INTERRUPT_PRIORITY_INVALID() will result in an assertion
1659:.\queue.c     **** 	failure if a FreeRTOS API function is called from an interrupt that has been
1660:.\queue.c     **** 	assigned a priority above the configured maximum system call priority.
1661:.\queue.c     **** 	Only FreeRTOS functions that end in FromISR can be called from interrupts
1662:.\queue.c     **** 	that have been assigned a priority at or (logically) below the maximum
1663:.\queue.c     **** 	system call	interrupt priority.  FreeRTOS maintains a separate interrupt
1664:.\queue.c     **** 	safe API to ensure interrupt entry is as fast and as simple as possible.
1665:.\queue.c     **** 	More information (albeit Cortex-M specific) is provided on the following
1666:.\queue.c     **** 	link: http://www.freertos.org/RTOS-Cortex-M3-M4.html */
1667:.\queue.c     **** 	portASSERT_IF_INTERRUPT_PRIORITY_INVALID();
1668:.\queue.c     **** 
ARM GAS  C:\Users\mjphi\AppData\Local\Temp\ccgjF1VN.s 			page 53


1669:.\queue.c     **** 	uxSavedInterruptStatus = portSET_INTERRUPT_MASK_FROM_ISR();
 1297              		.loc 1 1669 0
 1298 000e FFF7FEFF 		bl	ulPortSetInterruptMask
 1299 0012 F860     		str	r0, [r7, #12]
1670:.\queue.c     **** 	{
1671:.\queue.c     **** 		/* Cannot block in an ISR, so check there is data available. */
1672:.\queue.c     **** 		if( pxQueue->uxMessagesWaiting > ( UBaseType_t ) 0 )
 1300              		.loc 1 1672 0
 1301 0014 3B69     		ldr	r3, [r7, #16]
 1302 0016 9B6B     		ldr	r3, [r3, #56]
 1303 0018 002B     		cmp	r3, #0
 1304 001a 0CD0     		beq	.L81
1673:.\queue.c     **** 		{
1674:.\queue.c     **** 			traceQUEUE_PEEK_FROM_ISR( pxQueue );
1675:.\queue.c     **** 
1676:.\queue.c     **** 			/* Remember the read position so it can be reset as nothing is
1677:.\queue.c     **** 			actually being removed from the queue. */
1678:.\queue.c     **** 			pcOriginalReadPosition = pxQueue->u.pcReadFrom;
 1305              		.loc 1 1678 0
 1306 001c 3B69     		ldr	r3, [r7, #16]
 1307 001e DB68     		ldr	r3, [r3, #12]
 1308 0020 BB60     		str	r3, [r7, #8]
1679:.\queue.c     **** 			prvCopyDataFromQueue( pxQueue, pvBuffer );
 1309              		.loc 1 1679 0
 1310 0022 3869     		ldr	r0, [r7, #16]
 1311 0024 3968     		ldr	r1, [r7]
 1312 0026 FFF7FEFF 		bl	prvCopyDataFromQueue
1680:.\queue.c     **** 			pxQueue->u.pcReadFrom = pcOriginalReadPosition;
 1313              		.loc 1 1680 0
 1314 002a 3B69     		ldr	r3, [r7, #16]
 1315 002c BA68     		ldr	r2, [r7, #8]
 1316 002e DA60     		str	r2, [r3, #12]
1681:.\queue.c     **** 
1682:.\queue.c     **** 			xReturn = pdPASS;
 1317              		.loc 1 1682 0
 1318 0030 0123     		movs	r3, #1
 1319 0032 7B61     		str	r3, [r7, #20]
 1320 0034 01E0     		b	.L82
 1321              	.L81:
1683:.\queue.c     **** 		}
1684:.\queue.c     **** 		else
1685:.\queue.c     **** 		{
1686:.\queue.c     **** 			xReturn = pdFAIL;
 1322              		.loc 1 1686 0
 1323 0036 0023     		movs	r3, #0
 1324 0038 7B61     		str	r3, [r7, #20]
 1325              	.L82:
1687:.\queue.c     **** 			traceQUEUE_PEEK_FROM_ISR_FAILED( pxQueue );
1688:.\queue.c     **** 		}
1689:.\queue.c     **** 	}
1690:.\queue.c     **** 	portCLEAR_INTERRUPT_MASK_FROM_ISR( uxSavedInterruptStatus );
 1326              		.loc 1 1690 0
 1327 003a F868     		ldr	r0, [r7, #12]
 1328 003c FFF7FEFF 		bl	vPortClearInterruptMask
1691:.\queue.c     **** 
1692:.\queue.c     **** 	return xReturn;
 1329              		.loc 1 1692 0
ARM GAS  C:\Users\mjphi\AppData\Local\Temp\ccgjF1VN.s 			page 54


 1330 0040 7B69     		ldr	r3, [r7, #20]
1693:.\queue.c     **** }
 1331              		.loc 1 1693 0
 1332 0042 1846     		mov	r0, r3
 1333 0044 1837     		adds	r7, r7, #24
 1334              		.cfi_def_cfa_offset 8
 1335 0046 BD46     		mov	sp, r7
 1336              		.cfi_def_cfa_register 13
 1337              		@ sp needed
 1338 0048 80BD     		pop	{r7, pc}
 1339              		.cfi_endproc
 1340              	.LFE75:
 1341              		.size	xQueuePeekFromISR, .-xQueuePeekFromISR
 1342 004a 00BF     		.section	.text.uxQueueMessagesWaiting,"ax",%progbits
 1343              		.align	2
 1344              		.global	uxQueueMessagesWaiting
 1345              		.thumb
 1346              		.thumb_func
 1347              		.type	uxQueueMessagesWaiting, %function
 1348              	uxQueueMessagesWaiting:
 1349              	.LFB76:
1694:.\queue.c     **** /*-----------------------------------------------------------*/
1695:.\queue.c     **** 
1696:.\queue.c     **** UBaseType_t uxQueueMessagesWaiting( const QueueHandle_t xQueue )
1697:.\queue.c     **** {
 1350              		.loc 1 1697 0
 1351              		.cfi_startproc
 1352              		@ args = 0, pretend = 0, frame = 16
 1353              		@ frame_needed = 1, uses_anonymous_args = 0
 1354 0000 80B5     		push	{r7, lr}
 1355              		.cfi_def_cfa_offset 8
 1356              		.cfi_offset 7, -8
 1357              		.cfi_offset 14, -4
 1358 0002 84B0     		sub	sp, sp, #16
 1359              		.cfi_def_cfa_offset 24
 1360 0004 00AF     		add	r7, sp, #0
 1361              		.cfi_def_cfa_register 7
 1362 0006 7860     		str	r0, [r7, #4]
1698:.\queue.c     **** UBaseType_t uxReturn;
1699:.\queue.c     **** 
1700:.\queue.c     **** 	configASSERT( xQueue );
1701:.\queue.c     **** 
1702:.\queue.c     **** 	taskENTER_CRITICAL();
 1363              		.loc 1 1702 0
 1364 0008 FFF7FEFF 		bl	vPortEnterCritical
1703:.\queue.c     **** 	{
1704:.\queue.c     **** 		uxReturn = ( ( Queue_t * ) xQueue )->uxMessagesWaiting;
 1365              		.loc 1 1704 0
 1366 000c 7B68     		ldr	r3, [r7, #4]
 1367 000e 9B6B     		ldr	r3, [r3, #56]
 1368 0010 FB60     		str	r3, [r7, #12]
1705:.\queue.c     **** 	}
1706:.\queue.c     **** 	taskEXIT_CRITICAL();
 1369              		.loc 1 1706 0
 1370 0012 FFF7FEFF 		bl	vPortExitCritical
1707:.\queue.c     **** 
1708:.\queue.c     **** 	return uxReturn;
ARM GAS  C:\Users\mjphi\AppData\Local\Temp\ccgjF1VN.s 			page 55


 1371              		.loc 1 1708 0
 1372 0016 FB68     		ldr	r3, [r7, #12]
1709:.\queue.c     **** } /*lint !e818 Pointer cannot be declared const as xQueue is a typedef not pointer. */
 1373              		.loc 1 1709 0
 1374 0018 1846     		mov	r0, r3
 1375 001a 1037     		adds	r7, r7, #16
 1376              		.cfi_def_cfa_offset 8
 1377 001c BD46     		mov	sp, r7
 1378              		.cfi_def_cfa_register 13
 1379              		@ sp needed
 1380 001e 80BD     		pop	{r7, pc}
 1381              		.cfi_endproc
 1382              	.LFE76:
 1383              		.size	uxQueueMessagesWaiting, .-uxQueueMessagesWaiting
 1384              		.section	.text.uxQueueSpacesAvailable,"ax",%progbits
 1385              		.align	2
 1386              		.global	uxQueueSpacesAvailable
 1387              		.thumb
 1388              		.thumb_func
 1389              		.type	uxQueueSpacesAvailable, %function
 1390              	uxQueueSpacesAvailable:
 1391              	.LFB77:
1710:.\queue.c     **** /*-----------------------------------------------------------*/
1711:.\queue.c     **** 
1712:.\queue.c     **** UBaseType_t uxQueueSpacesAvailable( const QueueHandle_t xQueue )
1713:.\queue.c     **** {
 1392              		.loc 1 1713 0
 1393              		.cfi_startproc
 1394              		@ args = 0, pretend = 0, frame = 16
 1395              		@ frame_needed = 1, uses_anonymous_args = 0
 1396 0000 80B5     		push	{r7, lr}
 1397              		.cfi_def_cfa_offset 8
 1398              		.cfi_offset 7, -8
 1399              		.cfi_offset 14, -4
 1400 0002 84B0     		sub	sp, sp, #16
 1401              		.cfi_def_cfa_offset 24
 1402 0004 00AF     		add	r7, sp, #0
 1403              		.cfi_def_cfa_register 7
 1404 0006 7860     		str	r0, [r7, #4]
1714:.\queue.c     **** UBaseType_t uxReturn;
1715:.\queue.c     **** Queue_t *pxQueue;
1716:.\queue.c     **** 
1717:.\queue.c     **** 	pxQueue = ( Queue_t * ) xQueue;
 1405              		.loc 1 1717 0
 1406 0008 7B68     		ldr	r3, [r7, #4]
 1407 000a FB60     		str	r3, [r7, #12]
1718:.\queue.c     **** 	configASSERT( pxQueue );
1719:.\queue.c     **** 
1720:.\queue.c     **** 	taskENTER_CRITICAL();
 1408              		.loc 1 1720 0
 1409 000c FFF7FEFF 		bl	vPortEnterCritical
1721:.\queue.c     **** 	{
1722:.\queue.c     **** 		uxReturn = pxQueue->uxLength - pxQueue->uxMessagesWaiting;
 1410              		.loc 1 1722 0
 1411 0010 FB68     		ldr	r3, [r7, #12]
 1412 0012 DA6B     		ldr	r2, [r3, #60]
 1413 0014 FB68     		ldr	r3, [r7, #12]
ARM GAS  C:\Users\mjphi\AppData\Local\Temp\ccgjF1VN.s 			page 56


 1414 0016 9B6B     		ldr	r3, [r3, #56]
 1415 0018 D31A     		subs	r3, r2, r3
 1416 001a BB60     		str	r3, [r7, #8]
1723:.\queue.c     **** 	}
1724:.\queue.c     **** 	taskEXIT_CRITICAL();
 1417              		.loc 1 1724 0
 1418 001c FFF7FEFF 		bl	vPortExitCritical
1725:.\queue.c     **** 
1726:.\queue.c     **** 	return uxReturn;
 1419              		.loc 1 1726 0
 1420 0020 BB68     		ldr	r3, [r7, #8]
1727:.\queue.c     **** } /*lint !e818 Pointer cannot be declared const as xQueue is a typedef not pointer. */
 1421              		.loc 1 1727 0
 1422 0022 1846     		mov	r0, r3
 1423 0024 1037     		adds	r7, r7, #16
 1424              		.cfi_def_cfa_offset 8
 1425 0026 BD46     		mov	sp, r7
 1426              		.cfi_def_cfa_register 13
 1427              		@ sp needed
 1428 0028 80BD     		pop	{r7, pc}
 1429              		.cfi_endproc
 1430              	.LFE77:
 1431              		.size	uxQueueSpacesAvailable, .-uxQueueSpacesAvailable
 1432 002a 00BF     		.section	.text.uxQueueMessagesWaitingFromISR,"ax",%progbits
 1433              		.align	2
 1434              		.global	uxQueueMessagesWaitingFromISR
 1435              		.thumb
 1436              		.thumb_func
 1437              		.type	uxQueueMessagesWaitingFromISR, %function
 1438              	uxQueueMessagesWaitingFromISR:
 1439              	.LFB78:
1728:.\queue.c     **** /*-----------------------------------------------------------*/
1729:.\queue.c     **** 
1730:.\queue.c     **** UBaseType_t uxQueueMessagesWaitingFromISR( const QueueHandle_t xQueue )
1731:.\queue.c     **** {
 1440              		.loc 1 1731 0
 1441              		.cfi_startproc
 1442              		@ args = 0, pretend = 0, frame = 16
 1443              		@ frame_needed = 1, uses_anonymous_args = 0
 1444              		@ link register save eliminated.
 1445 0000 80B4     		push	{r7}
 1446              		.cfi_def_cfa_offset 4
 1447              		.cfi_offset 7, -4
 1448 0002 85B0     		sub	sp, sp, #20
 1449              		.cfi_def_cfa_offset 24
 1450 0004 00AF     		add	r7, sp, #0
 1451              		.cfi_def_cfa_register 7
 1452 0006 7860     		str	r0, [r7, #4]
1732:.\queue.c     **** UBaseType_t uxReturn;
1733:.\queue.c     **** 
1734:.\queue.c     **** 	configASSERT( xQueue );
1735:.\queue.c     **** 
1736:.\queue.c     **** 	uxReturn = ( ( Queue_t * ) xQueue )->uxMessagesWaiting;
 1453              		.loc 1 1736 0
 1454 0008 7B68     		ldr	r3, [r7, #4]
 1455 000a 9B6B     		ldr	r3, [r3, #56]
 1456 000c FB60     		str	r3, [r7, #12]
ARM GAS  C:\Users\mjphi\AppData\Local\Temp\ccgjF1VN.s 			page 57


1737:.\queue.c     **** 
1738:.\queue.c     **** 	return uxReturn;
 1457              		.loc 1 1738 0
 1458 000e FB68     		ldr	r3, [r7, #12]
1739:.\queue.c     **** } /*lint !e818 Pointer cannot be declared const as xQueue is a typedef not pointer. */
 1459              		.loc 1 1739 0
 1460 0010 1846     		mov	r0, r3
 1461 0012 1437     		adds	r7, r7, #20
 1462              		.cfi_def_cfa_offset 4
 1463 0014 BD46     		mov	sp, r7
 1464              		.cfi_def_cfa_register 13
 1465              		@ sp needed
 1466 0016 5DF8047B 		ldr	r7, [sp], #4
 1467              		.cfi_restore 7
 1468              		.cfi_def_cfa_offset 0
 1469 001a 7047     		bx	lr
 1470              		.cfi_endproc
 1471              	.LFE78:
 1472              		.size	uxQueueMessagesWaitingFromISR, .-uxQueueMessagesWaitingFromISR
 1473              		.section	.text.vQueueDelete,"ax",%progbits
 1474              		.align	2
 1475              		.global	vQueueDelete
 1476              		.thumb
 1477              		.thumb_func
 1478              		.type	vQueueDelete, %function
 1479              	vQueueDelete:
 1480              	.LFB79:
1740:.\queue.c     **** /*-----------------------------------------------------------*/
1741:.\queue.c     **** 
1742:.\queue.c     **** void vQueueDelete( QueueHandle_t xQueue )
1743:.\queue.c     **** {
 1481              		.loc 1 1743 0
 1482              		.cfi_startproc
 1483              		@ args = 0, pretend = 0, frame = 16
 1484              		@ frame_needed = 1, uses_anonymous_args = 0
 1485 0000 80B5     		push	{r7, lr}
 1486              		.cfi_def_cfa_offset 8
 1487              		.cfi_offset 7, -8
 1488              		.cfi_offset 14, -4
 1489 0002 84B0     		sub	sp, sp, #16
 1490              		.cfi_def_cfa_offset 24
 1491 0004 00AF     		add	r7, sp, #0
 1492              		.cfi_def_cfa_register 7
 1493 0006 7860     		str	r0, [r7, #4]
1744:.\queue.c     **** Queue_t * const pxQueue = ( Queue_t * ) xQueue;
 1494              		.loc 1 1744 0
 1495 0008 7B68     		ldr	r3, [r7, #4]
 1496 000a FB60     		str	r3, [r7, #12]
1745:.\queue.c     **** 
1746:.\queue.c     **** 	configASSERT( pxQueue );
1747:.\queue.c     **** 
1748:.\queue.c     **** 	traceQUEUE_DELETE( pxQueue );
1749:.\queue.c     **** 	#if ( configQUEUE_REGISTRY_SIZE > 0 )
1750:.\queue.c     **** 	{
1751:.\queue.c     **** 		vQueueUnregisterQueue( pxQueue );
 1497              		.loc 1 1751 0
 1498 000c F868     		ldr	r0, [r7, #12]
ARM GAS  C:\Users\mjphi\AppData\Local\Temp\ccgjF1VN.s 			page 58


 1499 000e FFF7FEFF 		bl	vQueueUnregisterQueue
1752:.\queue.c     **** 	}
1753:.\queue.c     **** 	#endif
1754:.\queue.c     **** 	vPortFree( pxQueue );
 1500              		.loc 1 1754 0
 1501 0012 F868     		ldr	r0, [r7, #12]
 1502 0014 FFF7FEFF 		bl	vPortFree
1755:.\queue.c     **** }
 1503              		.loc 1 1755 0
 1504 0018 1037     		adds	r7, r7, #16
 1505              		.cfi_def_cfa_offset 8
 1506 001a BD46     		mov	sp, r7
 1507              		.cfi_def_cfa_register 13
 1508              		@ sp needed
 1509 001c 80BD     		pop	{r7, pc}
 1510              		.cfi_endproc
 1511              	.LFE79:
 1512              		.size	vQueueDelete, .-vQueueDelete
 1513 001e 00BF     		.section	.text.prvCopyDataToQueue,"ax",%progbits
 1514              		.align	2
 1515              		.thumb
 1516              		.thumb_func
 1517              		.type	prvCopyDataToQueue, %function
 1518              	prvCopyDataToQueue:
 1519              	.LFB80:
1756:.\queue.c     **** /*-----------------------------------------------------------*/
1757:.\queue.c     **** 
1758:.\queue.c     **** #if ( configUSE_TRACE_FACILITY == 1 )
1759:.\queue.c     **** 
1760:.\queue.c     **** 	UBaseType_t uxQueueGetQueueNumber( QueueHandle_t xQueue )
1761:.\queue.c     **** 	{
1762:.\queue.c     **** 		return ( ( Queue_t * ) xQueue )->uxQueueNumber;
1763:.\queue.c     **** 	}
1764:.\queue.c     **** 
1765:.\queue.c     **** #endif /* configUSE_TRACE_FACILITY */
1766:.\queue.c     **** /*-----------------------------------------------------------*/
1767:.\queue.c     **** 
1768:.\queue.c     **** #if ( configUSE_TRACE_FACILITY == 1 )
1769:.\queue.c     **** 
1770:.\queue.c     **** 	void vQueueSetQueueNumber( QueueHandle_t xQueue, UBaseType_t uxQueueNumber )
1771:.\queue.c     **** 	{
1772:.\queue.c     **** 		( ( Queue_t * ) xQueue )->uxQueueNumber = uxQueueNumber;
1773:.\queue.c     **** 	}
1774:.\queue.c     **** 
1775:.\queue.c     **** #endif /* configUSE_TRACE_FACILITY */
1776:.\queue.c     **** /*-----------------------------------------------------------*/
1777:.\queue.c     **** 
1778:.\queue.c     **** #if ( configUSE_TRACE_FACILITY == 1 )
1779:.\queue.c     **** 
1780:.\queue.c     **** 	uint8_t ucQueueGetQueueType( QueueHandle_t xQueue )
1781:.\queue.c     **** 	{
1782:.\queue.c     **** 		return ( ( Queue_t * ) xQueue )->ucQueueType;
1783:.\queue.c     **** 	}
1784:.\queue.c     **** 
1785:.\queue.c     **** #endif /* configUSE_TRACE_FACILITY */
1786:.\queue.c     **** /*-----------------------------------------------------------*/
1787:.\queue.c     **** 
ARM GAS  C:\Users\mjphi\AppData\Local\Temp\ccgjF1VN.s 			page 59


1788:.\queue.c     **** static BaseType_t prvCopyDataToQueue( Queue_t * const pxQueue, const void *pvItemToQueue, const Bas
1789:.\queue.c     **** {
 1520              		.loc 1 1789 0
 1521              		.cfi_startproc
 1522              		@ args = 0, pretend = 0, frame = 24
 1523              		@ frame_needed = 1, uses_anonymous_args = 0
 1524 0000 80B5     		push	{r7, lr}
 1525              		.cfi_def_cfa_offset 8
 1526              		.cfi_offset 7, -8
 1527              		.cfi_offset 14, -4
 1528 0002 86B0     		sub	sp, sp, #24
 1529              		.cfi_def_cfa_offset 32
 1530 0004 00AF     		add	r7, sp, #0
 1531              		.cfi_def_cfa_register 7
 1532 0006 F860     		str	r0, [r7, #12]
 1533 0008 B960     		str	r1, [r7, #8]
 1534 000a 7A60     		str	r2, [r7, #4]
1790:.\queue.c     **** BaseType_t xReturn = pdFALSE;
 1535              		.loc 1 1790 0
 1536 000c 0023     		movs	r3, #0
 1537 000e 7B61     		str	r3, [r7, #20]
1791:.\queue.c     **** 
1792:.\queue.c     **** 	if( pxQueue->uxItemSize == ( UBaseType_t ) 0 )
 1538              		.loc 1 1792 0
 1539 0010 FB68     		ldr	r3, [r7, #12]
 1540 0012 1B6C     		ldr	r3, [r3, #64]
 1541 0014 002B     		cmp	r3, #0
 1542 0016 0DD1     		bne	.L92
1793:.\queue.c     **** 	{
1794:.\queue.c     **** 		#if ( configUSE_MUTEXES == 1 )
1795:.\queue.c     **** 		{
1796:.\queue.c     **** 			if( pxQueue->uxQueueType == queueQUEUE_IS_MUTEX )
 1543              		.loc 1 1796 0
 1544 0018 FB68     		ldr	r3, [r7, #12]
 1545 001a 1B68     		ldr	r3, [r3]
 1546 001c 002B     		cmp	r3, #0
 1547 001e 52D1     		bne	.L93
1797:.\queue.c     **** 			{
1798:.\queue.c     **** 				/* The mutex is no longer being held. */
1799:.\queue.c     **** 				xReturn = xTaskPriorityDisinherit( ( void * ) pxQueue->pxMutexHolder );
 1548              		.loc 1 1799 0
 1549 0020 FB68     		ldr	r3, [r7, #12]
 1550 0022 5B68     		ldr	r3, [r3, #4]
 1551 0024 1846     		mov	r0, r3
 1552 0026 FFF7FEFF 		bl	xTaskPriorityDisinherit
 1553 002a 7861     		str	r0, [r7, #20]
1800:.\queue.c     **** 				pxQueue->pxMutexHolder = NULL;
 1554              		.loc 1 1800 0
 1555 002c FB68     		ldr	r3, [r7, #12]
 1556 002e 0022     		movs	r2, #0
 1557 0030 5A60     		str	r2, [r3, #4]
 1558 0032 48E0     		b	.L93
 1559              	.L92:
1801:.\queue.c     **** 			}
1802:.\queue.c     **** 			else
1803:.\queue.c     **** 			{
1804:.\queue.c     **** 				mtCOVERAGE_TEST_MARKER();
ARM GAS  C:\Users\mjphi\AppData\Local\Temp\ccgjF1VN.s 			page 60


1805:.\queue.c     **** 			}
1806:.\queue.c     **** 		}
1807:.\queue.c     **** 		#endif /* configUSE_MUTEXES */
1808:.\queue.c     **** 	}
1809:.\queue.c     **** 	else if( xPosition == queueSEND_TO_BACK )
 1560              		.loc 1 1809 0
 1561 0034 7B68     		ldr	r3, [r7, #4]
 1562 0036 002B     		cmp	r3, #0
 1563 0038 1AD1     		bne	.L94
1810:.\queue.c     **** 	{
1811:.\queue.c     **** 		( void ) memcpy( ( void * ) pxQueue->pcWriteTo, pvItemToQueue, ( size_t ) pxQueue->uxItemSize ); 
 1564              		.loc 1 1811 0
 1565 003a FB68     		ldr	r3, [r7, #12]
 1566 003c 9A68     		ldr	r2, [r3, #8]
 1567 003e FB68     		ldr	r3, [r7, #12]
 1568 0040 1B6C     		ldr	r3, [r3, #64]
 1569 0042 1046     		mov	r0, r2
 1570 0044 B968     		ldr	r1, [r7, #8]
 1571 0046 1A46     		mov	r2, r3
 1572 0048 FFF7FEFF 		bl	memcpy
1812:.\queue.c     **** 		pxQueue->pcWriteTo += pxQueue->uxItemSize;
 1573              		.loc 1 1812 0
 1574 004c FB68     		ldr	r3, [r7, #12]
 1575 004e 9A68     		ldr	r2, [r3, #8]
 1576 0050 FB68     		ldr	r3, [r7, #12]
 1577 0052 1B6C     		ldr	r3, [r3, #64]
 1578 0054 1A44     		add	r2, r2, r3
 1579 0056 FB68     		ldr	r3, [r7, #12]
 1580 0058 9A60     		str	r2, [r3, #8]
1813:.\queue.c     **** 		if( pxQueue->pcWriteTo >= pxQueue->pcTail ) /*lint !e946 MISRA exception justified as comparison 
 1581              		.loc 1 1813 0
 1582 005a FB68     		ldr	r3, [r7, #12]
 1583 005c 9A68     		ldr	r2, [r3, #8]
 1584 005e FB68     		ldr	r3, [r7, #12]
 1585 0060 5B68     		ldr	r3, [r3, #4]
 1586 0062 9A42     		cmp	r2, r3
 1587 0064 2FD3     		bcc	.L93
1814:.\queue.c     **** 		{
1815:.\queue.c     **** 			pxQueue->pcWriteTo = pxQueue->pcHead;
 1588              		.loc 1 1815 0
 1589 0066 FB68     		ldr	r3, [r7, #12]
 1590 0068 1A68     		ldr	r2, [r3]
 1591 006a FB68     		ldr	r3, [r7, #12]
 1592 006c 9A60     		str	r2, [r3, #8]
 1593 006e 2AE0     		b	.L93
 1594              	.L94:
1816:.\queue.c     **** 		}
1817:.\queue.c     **** 		else
1818:.\queue.c     **** 		{
1819:.\queue.c     **** 			mtCOVERAGE_TEST_MARKER();
1820:.\queue.c     **** 		}
1821:.\queue.c     **** 	}
1822:.\queue.c     **** 	else
1823:.\queue.c     **** 	{
1824:.\queue.c     **** 		( void ) memcpy( ( void * ) pxQueue->u.pcReadFrom, pvItemToQueue, ( size_t ) pxQueue->uxItemSize 
 1595              		.loc 1 1824 0
 1596 0070 FB68     		ldr	r3, [r7, #12]
ARM GAS  C:\Users\mjphi\AppData\Local\Temp\ccgjF1VN.s 			page 61


 1597 0072 DA68     		ldr	r2, [r3, #12]
 1598 0074 FB68     		ldr	r3, [r7, #12]
 1599 0076 1B6C     		ldr	r3, [r3, #64]
 1600 0078 1046     		mov	r0, r2
 1601 007a B968     		ldr	r1, [r7, #8]
 1602 007c 1A46     		mov	r2, r3
 1603 007e FFF7FEFF 		bl	memcpy
1825:.\queue.c     **** 		pxQueue->u.pcReadFrom -= pxQueue->uxItemSize;
 1604              		.loc 1 1825 0
 1605 0082 FB68     		ldr	r3, [r7, #12]
 1606 0084 DA68     		ldr	r2, [r3, #12]
 1607 0086 FB68     		ldr	r3, [r7, #12]
 1608 0088 1B6C     		ldr	r3, [r3, #64]
 1609 008a 5B42     		negs	r3, r3
 1610 008c 1A44     		add	r2, r2, r3
 1611 008e FB68     		ldr	r3, [r7, #12]
 1612 0090 DA60     		str	r2, [r3, #12]
1826:.\queue.c     **** 		if( pxQueue->u.pcReadFrom < pxQueue->pcHead ) /*lint !e946 MISRA exception justified as compariso
 1613              		.loc 1 1826 0
 1614 0092 FB68     		ldr	r3, [r7, #12]
 1615 0094 DA68     		ldr	r2, [r3, #12]
 1616 0096 FB68     		ldr	r3, [r7, #12]
 1617 0098 1B68     		ldr	r3, [r3]
 1618 009a 9A42     		cmp	r2, r3
 1619 009c 07D2     		bcs	.L95
1827:.\queue.c     **** 		{
1828:.\queue.c     **** 			pxQueue->u.pcReadFrom = ( pxQueue->pcTail - pxQueue->uxItemSize );
 1620              		.loc 1 1828 0
 1621 009e FB68     		ldr	r3, [r7, #12]
 1622 00a0 5A68     		ldr	r2, [r3, #4]
 1623 00a2 FB68     		ldr	r3, [r7, #12]
 1624 00a4 1B6C     		ldr	r3, [r3, #64]
 1625 00a6 5B42     		negs	r3, r3
 1626 00a8 1A44     		add	r2, r2, r3
 1627 00aa FB68     		ldr	r3, [r7, #12]
 1628 00ac DA60     		str	r2, [r3, #12]
 1629              	.L95:
1829:.\queue.c     **** 		}
1830:.\queue.c     **** 		else
1831:.\queue.c     **** 		{
1832:.\queue.c     **** 			mtCOVERAGE_TEST_MARKER();
1833:.\queue.c     **** 		}
1834:.\queue.c     **** 
1835:.\queue.c     **** 		if( xPosition == queueOVERWRITE )
 1630              		.loc 1 1835 0
 1631 00ae 7B68     		ldr	r3, [r7, #4]
 1632 00b0 022B     		cmp	r3, #2
 1633 00b2 08D1     		bne	.L93
1836:.\queue.c     **** 		{
1837:.\queue.c     **** 			if( pxQueue->uxMessagesWaiting > ( UBaseType_t ) 0 )
 1634              		.loc 1 1837 0
 1635 00b4 FB68     		ldr	r3, [r7, #12]
 1636 00b6 9B6B     		ldr	r3, [r3, #56]
 1637 00b8 002B     		cmp	r3, #0
 1638 00ba 04D0     		beq	.L93
1838:.\queue.c     **** 			{
1839:.\queue.c     **** 				/* An item is not being added but overwritten, so subtract
ARM GAS  C:\Users\mjphi\AppData\Local\Temp\ccgjF1VN.s 			page 62


1840:.\queue.c     **** 				one from the recorded number of items in the queue so when
1841:.\queue.c     **** 				one is added again below the number of recorded items remains
1842:.\queue.c     **** 				correct. */
1843:.\queue.c     **** 				--( pxQueue->uxMessagesWaiting );
 1639              		.loc 1 1843 0
 1640 00bc FB68     		ldr	r3, [r7, #12]
 1641 00be 9B6B     		ldr	r3, [r3, #56]
 1642 00c0 5A1E     		subs	r2, r3, #1
 1643 00c2 FB68     		ldr	r3, [r7, #12]
 1644 00c4 9A63     		str	r2, [r3, #56]
 1645              	.L93:
1844:.\queue.c     **** 			}
1845:.\queue.c     **** 			else
1846:.\queue.c     **** 			{
1847:.\queue.c     **** 				mtCOVERAGE_TEST_MARKER();
1848:.\queue.c     **** 			}
1849:.\queue.c     **** 		}
1850:.\queue.c     **** 		else
1851:.\queue.c     **** 		{
1852:.\queue.c     **** 			mtCOVERAGE_TEST_MARKER();
1853:.\queue.c     **** 		}
1854:.\queue.c     **** 	}
1855:.\queue.c     **** 
1856:.\queue.c     **** 	++( pxQueue->uxMessagesWaiting );
 1646              		.loc 1 1856 0
 1647 00c6 FB68     		ldr	r3, [r7, #12]
 1648 00c8 9B6B     		ldr	r3, [r3, #56]
 1649 00ca 5A1C     		adds	r2, r3, #1
 1650 00cc FB68     		ldr	r3, [r7, #12]
 1651 00ce 9A63     		str	r2, [r3, #56]
1857:.\queue.c     **** 
1858:.\queue.c     **** 	return xReturn;
 1652              		.loc 1 1858 0
 1653 00d0 7B69     		ldr	r3, [r7, #20]
1859:.\queue.c     **** }
 1654              		.loc 1 1859 0
 1655 00d2 1846     		mov	r0, r3
 1656 00d4 1837     		adds	r7, r7, #24
 1657              		.cfi_def_cfa_offset 8
 1658 00d6 BD46     		mov	sp, r7
 1659              		.cfi_def_cfa_register 13
 1660              		@ sp needed
 1661 00d8 80BD     		pop	{r7, pc}
 1662              		.cfi_endproc
 1663              	.LFE80:
 1664              		.size	prvCopyDataToQueue, .-prvCopyDataToQueue
 1665 00da 00BF     		.section	.text.prvCopyDataFromQueue,"ax",%progbits
 1666              		.align	2
 1667              		.thumb
 1668              		.thumb_func
 1669              		.type	prvCopyDataFromQueue, %function
 1670              	prvCopyDataFromQueue:
 1671              	.LFB81:
1860:.\queue.c     **** /*-----------------------------------------------------------*/
1861:.\queue.c     **** 
1862:.\queue.c     **** static void prvCopyDataFromQueue( Queue_t * const pxQueue, void * const pvBuffer )
1863:.\queue.c     **** {
ARM GAS  C:\Users\mjphi\AppData\Local\Temp\ccgjF1VN.s 			page 63


 1672              		.loc 1 1863 0
 1673              		.cfi_startproc
 1674              		@ args = 0, pretend = 0, frame = 8
 1675              		@ frame_needed = 1, uses_anonymous_args = 0
 1676 0000 80B5     		push	{r7, lr}
 1677              		.cfi_def_cfa_offset 8
 1678              		.cfi_offset 7, -8
 1679              		.cfi_offset 14, -4
 1680 0002 82B0     		sub	sp, sp, #8
 1681              		.cfi_def_cfa_offset 16
 1682 0004 00AF     		add	r7, sp, #0
 1683              		.cfi_def_cfa_register 7
 1684 0006 7860     		str	r0, [r7, #4]
 1685 0008 3960     		str	r1, [r7]
1864:.\queue.c     **** 	if( pxQueue->uxItemSize != ( UBaseType_t ) 0 )
 1686              		.loc 1 1864 0
 1687 000a 7B68     		ldr	r3, [r7, #4]
 1688 000c 1B6C     		ldr	r3, [r3, #64]
 1689 000e 002B     		cmp	r3, #0
 1690 0010 19D0     		beq	.L97
1865:.\queue.c     **** 	{
1866:.\queue.c     **** 		pxQueue->u.pcReadFrom += pxQueue->uxItemSize;
 1691              		.loc 1 1866 0
 1692 0012 7B68     		ldr	r3, [r7, #4]
 1693 0014 DA68     		ldr	r2, [r3, #12]
 1694 0016 7B68     		ldr	r3, [r7, #4]
 1695 0018 1B6C     		ldr	r3, [r3, #64]
 1696 001a 1A44     		add	r2, r2, r3
 1697 001c 7B68     		ldr	r3, [r7, #4]
 1698 001e DA60     		str	r2, [r3, #12]
1867:.\queue.c     **** 		if( pxQueue->u.pcReadFrom >= pxQueue->pcTail ) /*lint !e946 MISRA exception justified as use of t
 1699              		.loc 1 1867 0
 1700 0020 7B68     		ldr	r3, [r7, #4]
 1701 0022 DA68     		ldr	r2, [r3, #12]
 1702 0024 7B68     		ldr	r3, [r7, #4]
 1703 0026 5B68     		ldr	r3, [r3, #4]
 1704 0028 9A42     		cmp	r2, r3
 1705 002a 03D3     		bcc	.L99
1868:.\queue.c     **** 		{
1869:.\queue.c     **** 			pxQueue->u.pcReadFrom = pxQueue->pcHead;
 1706              		.loc 1 1869 0
 1707 002c 7B68     		ldr	r3, [r7, #4]
 1708 002e 1A68     		ldr	r2, [r3]
 1709 0030 7B68     		ldr	r3, [r7, #4]
 1710 0032 DA60     		str	r2, [r3, #12]
 1711              	.L99:
1870:.\queue.c     **** 		}
1871:.\queue.c     **** 		else
1872:.\queue.c     **** 		{
1873:.\queue.c     **** 			mtCOVERAGE_TEST_MARKER();
1874:.\queue.c     **** 		}
1875:.\queue.c     **** 		( void ) memcpy( ( void * ) pvBuffer, ( void * ) pxQueue->u.pcReadFrom, ( size_t ) pxQueue->uxIte
 1712              		.loc 1 1875 0
 1713 0034 7B68     		ldr	r3, [r7, #4]
 1714 0036 DA68     		ldr	r2, [r3, #12]
 1715 0038 7B68     		ldr	r3, [r7, #4]
 1716 003a 1B6C     		ldr	r3, [r3, #64]
ARM GAS  C:\Users\mjphi\AppData\Local\Temp\ccgjF1VN.s 			page 64


 1717 003c 3868     		ldr	r0, [r7]
 1718 003e 1146     		mov	r1, r2
 1719 0040 1A46     		mov	r2, r3
 1720 0042 FFF7FEFF 		bl	memcpy
 1721              	.L97:
1876:.\queue.c     **** 	}
1877:.\queue.c     **** }
 1722              		.loc 1 1877 0
 1723 0046 0837     		adds	r7, r7, #8
 1724              		.cfi_def_cfa_offset 8
 1725 0048 BD46     		mov	sp, r7
 1726              		.cfi_def_cfa_register 13
 1727              		@ sp needed
 1728 004a 80BD     		pop	{r7, pc}
 1729              		.cfi_endproc
 1730              	.LFE81:
 1731              		.size	prvCopyDataFromQueue, .-prvCopyDataFromQueue
 1732              		.section	.text.prvUnlockQueue,"ax",%progbits
 1733              		.align	2
 1734              		.thumb
 1735              		.thumb_func
 1736              		.type	prvUnlockQueue, %function
 1737              	prvUnlockQueue:
 1738              	.LFB82:
1878:.\queue.c     **** /*-----------------------------------------------------------*/
1879:.\queue.c     **** 
1880:.\queue.c     **** static void prvUnlockQueue( Queue_t * const pxQueue )
1881:.\queue.c     **** {
 1739              		.loc 1 1881 0
 1740              		.cfi_startproc
 1741              		@ args = 0, pretend = 0, frame = 8
 1742              		@ frame_needed = 1, uses_anonymous_args = 0
 1743 0000 80B5     		push	{r7, lr}
 1744              		.cfi_def_cfa_offset 8
 1745              		.cfi_offset 7, -8
 1746              		.cfi_offset 14, -4
 1747 0002 82B0     		sub	sp, sp, #8
 1748              		.cfi_def_cfa_offset 16
 1749 0004 00AF     		add	r7, sp, #0
 1750              		.cfi_def_cfa_register 7
 1751 0006 7860     		str	r0, [r7, #4]
1882:.\queue.c     **** 	/* THIS FUNCTION MUST BE CALLED WITH THE SCHEDULER SUSPENDED. */
1883:.\queue.c     **** 
1884:.\queue.c     **** 	/* The lock counts contains the number of extra data items placed or
1885:.\queue.c     **** 	removed from the queue while the queue was locked.  When a queue is
1886:.\queue.c     **** 	locked items can be added or removed, but the event lists cannot be
1887:.\queue.c     **** 	updated. */
1888:.\queue.c     **** 	taskENTER_CRITICAL();
 1752              		.loc 1 1888 0
 1753 0008 FFF7FEFF 		bl	vPortEnterCritical
1889:.\queue.c     **** 	{
1890:.\queue.c     **** 		/* See if data was added to the queue while it was locked. */
1891:.\queue.c     **** 		while( pxQueue->xTxLock > queueLOCKED_UNMODIFIED )
 1754              		.loc 1 1891 0
 1755 000c 14E0     		b	.L101
 1756              	.L105:
1892:.\queue.c     **** 		{
ARM GAS  C:\Users\mjphi\AppData\Local\Temp\ccgjF1VN.s 			page 65


1893:.\queue.c     **** 			/* Data was posted while the queue was locked.  Are any tasks
1894:.\queue.c     **** 			blocked waiting for data to become available? */
1895:.\queue.c     **** 			#if ( configUSE_QUEUE_SETS == 1 )
1896:.\queue.c     **** 			{
1897:.\queue.c     **** 				if( pxQueue->pxQueueSetContainer != NULL )
1898:.\queue.c     **** 				{
1899:.\queue.c     **** 					if( prvNotifyQueueSetContainer( pxQueue, queueSEND_TO_BACK ) == pdTRUE )
1900:.\queue.c     **** 					{
1901:.\queue.c     **** 						/* The queue is a member of a queue set, and posting to
1902:.\queue.c     **** 						the queue set caused a higher priority task to unblock.
1903:.\queue.c     **** 						A context switch is required. */
1904:.\queue.c     **** 						vTaskMissedYield();
1905:.\queue.c     **** 					}
1906:.\queue.c     **** 					else
1907:.\queue.c     **** 					{
1908:.\queue.c     **** 						mtCOVERAGE_TEST_MARKER();
1909:.\queue.c     **** 					}
1910:.\queue.c     **** 				}
1911:.\queue.c     **** 				else
1912:.\queue.c     **** 				{
1913:.\queue.c     **** 					/* Tasks that are removed from the event list will get added to
1914:.\queue.c     **** 					the pending ready list as the scheduler is still suspended. */
1915:.\queue.c     **** 					if( listLIST_IS_EMPTY( &( pxQueue->xTasksWaitingToReceive ) ) == pdFALSE )
1916:.\queue.c     **** 					{
1917:.\queue.c     **** 						if( xTaskRemoveFromEventList( &( pxQueue->xTasksWaitingToReceive ) ) != pdFALSE )
1918:.\queue.c     **** 						{
1919:.\queue.c     **** 							/* The task waiting has a higher priority so record that a
1920:.\queue.c     **** 							context	switch is required. */
1921:.\queue.c     **** 							vTaskMissedYield();
1922:.\queue.c     **** 						}
1923:.\queue.c     **** 						else
1924:.\queue.c     **** 						{
1925:.\queue.c     **** 							mtCOVERAGE_TEST_MARKER();
1926:.\queue.c     **** 						}
1927:.\queue.c     **** 					}
1928:.\queue.c     **** 					else
1929:.\queue.c     **** 					{
1930:.\queue.c     **** 						break;
1931:.\queue.c     **** 					}
1932:.\queue.c     **** 				}
1933:.\queue.c     **** 			}
1934:.\queue.c     **** 			#else /* configUSE_QUEUE_SETS */
1935:.\queue.c     **** 			{
1936:.\queue.c     **** 				/* Tasks that are removed from the event list will get added to
1937:.\queue.c     **** 				the pending ready list as the scheduler is still suspended. */
1938:.\queue.c     **** 				if( listLIST_IS_EMPTY( &( pxQueue->xTasksWaitingToReceive ) ) == pdFALSE )
 1757              		.loc 1 1938 0
 1758 000e 7B68     		ldr	r3, [r7, #4]
 1759 0010 5B6A     		ldr	r3, [r3, #36]
 1760 0012 002B     		cmp	r3, #0
 1761 0014 0AD0     		beq	.L102
1939:.\queue.c     **** 				{
1940:.\queue.c     **** 					if( xTaskRemoveFromEventList( &( pxQueue->xTasksWaitingToReceive ) ) != pdFALSE )
 1762              		.loc 1 1940 0
 1763 0016 7B68     		ldr	r3, [r7, #4]
 1764 0018 2433     		adds	r3, r3, #36
 1765 001a 1846     		mov	r0, r3
ARM GAS  C:\Users\mjphi\AppData\Local\Temp\ccgjF1VN.s 			page 66


 1766 001c FFF7FEFF 		bl	xTaskRemoveFromEventList
 1767 0020 0346     		mov	r3, r0
 1768 0022 002B     		cmp	r3, #0
 1769 0024 03D0     		beq	.L103
1941:.\queue.c     **** 					{
1942:.\queue.c     **** 						/* The task waiting has a higher priority so record that a
1943:.\queue.c     **** 						context	switch is required. */
1944:.\queue.c     **** 						vTaskMissedYield();
 1770              		.loc 1 1944 0
 1771 0026 FFF7FEFF 		bl	vTaskMissedYield
 1772 002a 00E0     		b	.L103
 1773              	.L102:
1945:.\queue.c     **** 					}
1946:.\queue.c     **** 					else
1947:.\queue.c     **** 					{
1948:.\queue.c     **** 						mtCOVERAGE_TEST_MARKER();
1949:.\queue.c     **** 					}
1950:.\queue.c     **** 				}
1951:.\queue.c     **** 				else
1952:.\queue.c     **** 				{
1953:.\queue.c     **** 					break;
 1774              		.loc 1 1953 0
 1775 002c 08E0     		b	.L104
 1776              	.L103:
1954:.\queue.c     **** 				}
1955:.\queue.c     **** 			}
1956:.\queue.c     **** 			#endif /* configUSE_QUEUE_SETS */
1957:.\queue.c     **** 
1958:.\queue.c     **** 			--( pxQueue->xTxLock );
 1777              		.loc 1 1958 0
 1778 002e 7B68     		ldr	r3, [r7, #4]
 1779 0030 9B6C     		ldr	r3, [r3, #72]
 1780 0032 5A1E     		subs	r2, r3, #1
 1781 0034 7B68     		ldr	r3, [r7, #4]
 1782 0036 9A64     		str	r2, [r3, #72]
 1783              	.L101:
1891:.\queue.c     **** 		{
 1784              		.loc 1 1891 0
 1785 0038 7B68     		ldr	r3, [r7, #4]
 1786 003a 9B6C     		ldr	r3, [r3, #72]
 1787 003c 002B     		cmp	r3, #0
 1788 003e E6DC     		bgt	.L105
 1789              	.L104:
1959:.\queue.c     **** 		}
1960:.\queue.c     **** 
1961:.\queue.c     **** 		pxQueue->xTxLock = queueUNLOCKED;
 1790              		.loc 1 1961 0
 1791 0040 7B68     		ldr	r3, [r7, #4]
 1792 0042 4FF0FF32 		mov	r2, #-1
 1793 0046 9A64     		str	r2, [r3, #72]
1962:.\queue.c     **** 	}
1963:.\queue.c     **** 	taskEXIT_CRITICAL();
 1794              		.loc 1 1963 0
 1795 0048 FFF7FEFF 		bl	vPortExitCritical
1964:.\queue.c     **** 
1965:.\queue.c     **** 	/* Do the same for the Rx lock. */
1966:.\queue.c     **** 	taskENTER_CRITICAL();
ARM GAS  C:\Users\mjphi\AppData\Local\Temp\ccgjF1VN.s 			page 67


 1796              		.loc 1 1966 0
 1797 004c FFF7FEFF 		bl	vPortEnterCritical
1967:.\queue.c     **** 	{
1968:.\queue.c     **** 		while( pxQueue->xRxLock > queueLOCKED_UNMODIFIED )
 1798              		.loc 1 1968 0
 1799 0050 14E0     		b	.L106
 1800              	.L110:
1969:.\queue.c     **** 		{
1970:.\queue.c     **** 			if( listLIST_IS_EMPTY( &( pxQueue->xTasksWaitingToSend ) ) == pdFALSE )
 1801              		.loc 1 1970 0
 1802 0052 7B68     		ldr	r3, [r7, #4]
 1803 0054 1B69     		ldr	r3, [r3, #16]
 1804 0056 002B     		cmp	r3, #0
 1805 0058 0FD0     		beq	.L107
1971:.\queue.c     **** 			{
1972:.\queue.c     **** 				if( xTaskRemoveFromEventList( &( pxQueue->xTasksWaitingToSend ) ) != pdFALSE )
 1806              		.loc 1 1972 0
 1807 005a 7B68     		ldr	r3, [r7, #4]
 1808 005c 1033     		adds	r3, r3, #16
 1809 005e 1846     		mov	r0, r3
 1810 0060 FFF7FEFF 		bl	xTaskRemoveFromEventList
 1811 0064 0346     		mov	r3, r0
 1812 0066 002B     		cmp	r3, #0
 1813 0068 01D0     		beq	.L108
1973:.\queue.c     **** 				{
1974:.\queue.c     **** 					vTaskMissedYield();
 1814              		.loc 1 1974 0
 1815 006a FFF7FEFF 		bl	vTaskMissedYield
 1816              	.L108:
1975:.\queue.c     **** 				}
1976:.\queue.c     **** 				else
1977:.\queue.c     **** 				{
1978:.\queue.c     **** 					mtCOVERAGE_TEST_MARKER();
1979:.\queue.c     **** 				}
1980:.\queue.c     **** 
1981:.\queue.c     **** 				--( pxQueue->xRxLock );
 1817              		.loc 1 1981 0
 1818 006e 7B68     		ldr	r3, [r7, #4]
 1819 0070 5B6C     		ldr	r3, [r3, #68]
 1820 0072 5A1E     		subs	r2, r3, #1
 1821 0074 7B68     		ldr	r3, [r7, #4]
 1822 0076 5A64     		str	r2, [r3, #68]
 1823 0078 00E0     		b	.L106
 1824              	.L107:
1982:.\queue.c     **** 			}
1983:.\queue.c     **** 			else
1984:.\queue.c     **** 			{
1985:.\queue.c     **** 				break;
 1825              		.loc 1 1985 0
 1826 007a 03E0     		b	.L109
 1827              	.L106:
1968:.\queue.c     **** 		{
 1828              		.loc 1 1968 0
 1829 007c 7B68     		ldr	r3, [r7, #4]
 1830 007e 5B6C     		ldr	r3, [r3, #68]
 1831 0080 002B     		cmp	r3, #0
 1832 0082 E6DC     		bgt	.L110
ARM GAS  C:\Users\mjphi\AppData\Local\Temp\ccgjF1VN.s 			page 68


 1833              	.L109:
1986:.\queue.c     **** 			}
1987:.\queue.c     **** 		}
1988:.\queue.c     **** 
1989:.\queue.c     **** 		pxQueue->xRxLock = queueUNLOCKED;
 1834              		.loc 1 1989 0
 1835 0084 7B68     		ldr	r3, [r7, #4]
 1836 0086 4FF0FF32 		mov	r2, #-1
 1837 008a 5A64     		str	r2, [r3, #68]
1990:.\queue.c     **** 	}
1991:.\queue.c     **** 	taskEXIT_CRITICAL();
 1838              		.loc 1 1991 0
 1839 008c FFF7FEFF 		bl	vPortExitCritical
1992:.\queue.c     **** }
 1840              		.loc 1 1992 0
 1841 0090 0837     		adds	r7, r7, #8
 1842              		.cfi_def_cfa_offset 8
 1843 0092 BD46     		mov	sp, r7
 1844              		.cfi_def_cfa_register 13
 1845              		@ sp needed
 1846 0094 80BD     		pop	{r7, pc}
 1847              		.cfi_endproc
 1848              	.LFE82:
 1849              		.size	prvUnlockQueue, .-prvUnlockQueue
 1850 0096 00BF     		.section	.text.prvIsQueueEmpty,"ax",%progbits
 1851              		.align	2
 1852              		.thumb
 1853              		.thumb_func
 1854              		.type	prvIsQueueEmpty, %function
 1855              	prvIsQueueEmpty:
 1856              	.LFB83:
1993:.\queue.c     **** /*-----------------------------------------------------------*/
1994:.\queue.c     **** 
1995:.\queue.c     **** static BaseType_t prvIsQueueEmpty( const Queue_t *pxQueue )
1996:.\queue.c     **** {
 1857              		.loc 1 1996 0
 1858              		.cfi_startproc
 1859              		@ args = 0, pretend = 0, frame = 16
 1860              		@ frame_needed = 1, uses_anonymous_args = 0
 1861 0000 80B5     		push	{r7, lr}
 1862              		.cfi_def_cfa_offset 8
 1863              		.cfi_offset 7, -8
 1864              		.cfi_offset 14, -4
 1865 0002 84B0     		sub	sp, sp, #16
 1866              		.cfi_def_cfa_offset 24
 1867 0004 00AF     		add	r7, sp, #0
 1868              		.cfi_def_cfa_register 7
 1869 0006 7860     		str	r0, [r7, #4]
1997:.\queue.c     **** BaseType_t xReturn;
1998:.\queue.c     **** 
1999:.\queue.c     **** 	taskENTER_CRITICAL();
 1870              		.loc 1 1999 0
 1871 0008 FFF7FEFF 		bl	vPortEnterCritical
2000:.\queue.c     **** 	{
2001:.\queue.c     **** 		if( pxQueue->uxMessagesWaiting == ( UBaseType_t )  0 )
 1872              		.loc 1 2001 0
 1873 000c 7B68     		ldr	r3, [r7, #4]
ARM GAS  C:\Users\mjphi\AppData\Local\Temp\ccgjF1VN.s 			page 69


 1874 000e 9B6B     		ldr	r3, [r3, #56]
 1875 0010 002B     		cmp	r3, #0
 1876 0012 02D1     		bne	.L112
2002:.\queue.c     **** 		{
2003:.\queue.c     **** 			xReturn = pdTRUE;
 1877              		.loc 1 2003 0
 1878 0014 0123     		movs	r3, #1
 1879 0016 FB60     		str	r3, [r7, #12]
 1880 0018 01E0     		b	.L113
 1881              	.L112:
2004:.\queue.c     **** 		}
2005:.\queue.c     **** 		else
2006:.\queue.c     **** 		{
2007:.\queue.c     **** 			xReturn = pdFALSE;
 1882              		.loc 1 2007 0
 1883 001a 0023     		movs	r3, #0
 1884 001c FB60     		str	r3, [r7, #12]
 1885              	.L113:
2008:.\queue.c     **** 		}
2009:.\queue.c     **** 	}
2010:.\queue.c     **** 	taskEXIT_CRITICAL();
 1886              		.loc 1 2010 0
 1887 001e FFF7FEFF 		bl	vPortExitCritical
2011:.\queue.c     **** 
2012:.\queue.c     **** 	return xReturn;
 1888              		.loc 1 2012 0
 1889 0022 FB68     		ldr	r3, [r7, #12]
2013:.\queue.c     **** }
 1890              		.loc 1 2013 0
 1891 0024 1846     		mov	r0, r3
 1892 0026 1037     		adds	r7, r7, #16
 1893              		.cfi_def_cfa_offset 8
 1894 0028 BD46     		mov	sp, r7
 1895              		.cfi_def_cfa_register 13
 1896              		@ sp needed
 1897 002a 80BD     		pop	{r7, pc}
 1898              		.cfi_endproc
 1899              	.LFE83:
 1900              		.size	prvIsQueueEmpty, .-prvIsQueueEmpty
 1901              		.section	.text.xQueueIsQueueEmptyFromISR,"ax",%progbits
 1902              		.align	2
 1903              		.global	xQueueIsQueueEmptyFromISR
 1904              		.thumb
 1905              		.thumb_func
 1906              		.type	xQueueIsQueueEmptyFromISR, %function
 1907              	xQueueIsQueueEmptyFromISR:
 1908              	.LFB84:
2014:.\queue.c     **** /*-----------------------------------------------------------*/
2015:.\queue.c     **** 
2016:.\queue.c     **** BaseType_t xQueueIsQueueEmptyFromISR( const QueueHandle_t xQueue )
2017:.\queue.c     **** {
 1909              		.loc 1 2017 0
 1910              		.cfi_startproc
 1911              		@ args = 0, pretend = 0, frame = 16
 1912              		@ frame_needed = 1, uses_anonymous_args = 0
 1913              		@ link register save eliminated.
 1914 0000 80B4     		push	{r7}
ARM GAS  C:\Users\mjphi\AppData\Local\Temp\ccgjF1VN.s 			page 70


 1915              		.cfi_def_cfa_offset 4
 1916              		.cfi_offset 7, -4
 1917 0002 85B0     		sub	sp, sp, #20
 1918              		.cfi_def_cfa_offset 24
 1919 0004 00AF     		add	r7, sp, #0
 1920              		.cfi_def_cfa_register 7
 1921 0006 7860     		str	r0, [r7, #4]
2018:.\queue.c     **** BaseType_t xReturn;
2019:.\queue.c     **** 
2020:.\queue.c     **** 	configASSERT( xQueue );
2021:.\queue.c     **** 	if( ( ( Queue_t * ) xQueue )->uxMessagesWaiting == ( UBaseType_t ) 0 )
 1922              		.loc 1 2021 0
 1923 0008 7B68     		ldr	r3, [r7, #4]
 1924 000a 9B6B     		ldr	r3, [r3, #56]
 1925 000c 002B     		cmp	r3, #0
 1926 000e 02D1     		bne	.L116
2022:.\queue.c     **** 	{
2023:.\queue.c     **** 		xReturn = pdTRUE;
 1927              		.loc 1 2023 0
 1928 0010 0123     		movs	r3, #1
 1929 0012 FB60     		str	r3, [r7, #12]
 1930 0014 01E0     		b	.L117
 1931              	.L116:
2024:.\queue.c     **** 	}
2025:.\queue.c     **** 	else
2026:.\queue.c     **** 	{
2027:.\queue.c     **** 		xReturn = pdFALSE;
 1932              		.loc 1 2027 0
 1933 0016 0023     		movs	r3, #0
 1934 0018 FB60     		str	r3, [r7, #12]
 1935              	.L117:
2028:.\queue.c     **** 	}
2029:.\queue.c     **** 
2030:.\queue.c     **** 	return xReturn;
 1936              		.loc 1 2030 0
 1937 001a FB68     		ldr	r3, [r7, #12]
2031:.\queue.c     **** } /*lint !e818 xQueue could not be pointer to const because it is a typedef. */
 1938              		.loc 1 2031 0
 1939 001c 1846     		mov	r0, r3
 1940 001e 1437     		adds	r7, r7, #20
 1941              		.cfi_def_cfa_offset 4
 1942 0020 BD46     		mov	sp, r7
 1943              		.cfi_def_cfa_register 13
 1944              		@ sp needed
 1945 0022 5DF8047B 		ldr	r7, [sp], #4
 1946              		.cfi_restore 7
 1947              		.cfi_def_cfa_offset 0
 1948 0026 7047     		bx	lr
 1949              		.cfi_endproc
 1950              	.LFE84:
 1951              		.size	xQueueIsQueueEmptyFromISR, .-xQueueIsQueueEmptyFromISR
 1952              		.section	.text.prvIsQueueFull,"ax",%progbits
 1953              		.align	2
 1954              		.thumb
 1955              		.thumb_func
 1956              		.type	prvIsQueueFull, %function
 1957              	prvIsQueueFull:
ARM GAS  C:\Users\mjphi\AppData\Local\Temp\ccgjF1VN.s 			page 71


 1958              	.LFB85:
2032:.\queue.c     **** /*-----------------------------------------------------------*/
2033:.\queue.c     **** 
2034:.\queue.c     **** static BaseType_t prvIsQueueFull( const Queue_t *pxQueue )
2035:.\queue.c     **** {
 1959              		.loc 1 2035 0
 1960              		.cfi_startproc
 1961              		@ args = 0, pretend = 0, frame = 16
 1962              		@ frame_needed = 1, uses_anonymous_args = 0
 1963 0000 80B5     		push	{r7, lr}
 1964              		.cfi_def_cfa_offset 8
 1965              		.cfi_offset 7, -8
 1966              		.cfi_offset 14, -4
 1967 0002 84B0     		sub	sp, sp, #16
 1968              		.cfi_def_cfa_offset 24
 1969 0004 00AF     		add	r7, sp, #0
 1970              		.cfi_def_cfa_register 7
 1971 0006 7860     		str	r0, [r7, #4]
2036:.\queue.c     **** BaseType_t xReturn;
2037:.\queue.c     **** 
2038:.\queue.c     **** 	taskENTER_CRITICAL();
 1972              		.loc 1 2038 0
 1973 0008 FFF7FEFF 		bl	vPortEnterCritical
2039:.\queue.c     **** 	{
2040:.\queue.c     **** 		if( pxQueue->uxMessagesWaiting == pxQueue->uxLength )
 1974              		.loc 1 2040 0
 1975 000c 7B68     		ldr	r3, [r7, #4]
 1976 000e 9A6B     		ldr	r2, [r3, #56]
 1977 0010 7B68     		ldr	r3, [r7, #4]
 1978 0012 DB6B     		ldr	r3, [r3, #60]
 1979 0014 9A42     		cmp	r2, r3
 1980 0016 02D1     		bne	.L120
2041:.\queue.c     **** 		{
2042:.\queue.c     **** 			xReturn = pdTRUE;
 1981              		.loc 1 2042 0
 1982 0018 0123     		movs	r3, #1
 1983 001a FB60     		str	r3, [r7, #12]
 1984 001c 01E0     		b	.L121
 1985              	.L120:
2043:.\queue.c     **** 		}
2044:.\queue.c     **** 		else
2045:.\queue.c     **** 		{
2046:.\queue.c     **** 			xReturn = pdFALSE;
 1986              		.loc 1 2046 0
 1987 001e 0023     		movs	r3, #0
 1988 0020 FB60     		str	r3, [r7, #12]
 1989              	.L121:
2047:.\queue.c     **** 		}
2048:.\queue.c     **** 	}
2049:.\queue.c     **** 	taskEXIT_CRITICAL();
 1990              		.loc 1 2049 0
 1991 0022 FFF7FEFF 		bl	vPortExitCritical
2050:.\queue.c     **** 
2051:.\queue.c     **** 	return xReturn;
 1992              		.loc 1 2051 0
 1993 0026 FB68     		ldr	r3, [r7, #12]
2052:.\queue.c     **** }
ARM GAS  C:\Users\mjphi\AppData\Local\Temp\ccgjF1VN.s 			page 72


 1994              		.loc 1 2052 0
 1995 0028 1846     		mov	r0, r3
 1996 002a 1037     		adds	r7, r7, #16
 1997              		.cfi_def_cfa_offset 8
 1998 002c BD46     		mov	sp, r7
 1999              		.cfi_def_cfa_register 13
 2000              		@ sp needed
 2001 002e 80BD     		pop	{r7, pc}
 2002              		.cfi_endproc
 2003              	.LFE85:
 2004              		.size	prvIsQueueFull, .-prvIsQueueFull
 2005              		.section	.text.xQueueIsQueueFullFromISR,"ax",%progbits
 2006              		.align	2
 2007              		.global	xQueueIsQueueFullFromISR
 2008              		.thumb
 2009              		.thumb_func
 2010              		.type	xQueueIsQueueFullFromISR, %function
 2011              	xQueueIsQueueFullFromISR:
 2012              	.LFB86:
2053:.\queue.c     **** /*-----------------------------------------------------------*/
2054:.\queue.c     **** 
2055:.\queue.c     **** BaseType_t xQueueIsQueueFullFromISR( const QueueHandle_t xQueue )
2056:.\queue.c     **** {
 2013              		.loc 1 2056 0
 2014              		.cfi_startproc
 2015              		@ args = 0, pretend = 0, frame = 16
 2016              		@ frame_needed = 1, uses_anonymous_args = 0
 2017              		@ link register save eliminated.
 2018 0000 80B4     		push	{r7}
 2019              		.cfi_def_cfa_offset 4
 2020              		.cfi_offset 7, -4
 2021 0002 85B0     		sub	sp, sp, #20
 2022              		.cfi_def_cfa_offset 24
 2023 0004 00AF     		add	r7, sp, #0
 2024              		.cfi_def_cfa_register 7
 2025 0006 7860     		str	r0, [r7, #4]
2057:.\queue.c     **** BaseType_t xReturn;
2058:.\queue.c     **** 
2059:.\queue.c     **** 	configASSERT( xQueue );
2060:.\queue.c     **** 	if( ( ( Queue_t * ) xQueue )->uxMessagesWaiting == ( ( Queue_t * ) xQueue )->uxLength )
 2026              		.loc 1 2060 0
 2027 0008 7B68     		ldr	r3, [r7, #4]
 2028 000a 9A6B     		ldr	r2, [r3, #56]
 2029 000c 7B68     		ldr	r3, [r7, #4]
 2030 000e DB6B     		ldr	r3, [r3, #60]
 2031 0010 9A42     		cmp	r2, r3
 2032 0012 02D1     		bne	.L124
2061:.\queue.c     **** 	{
2062:.\queue.c     **** 		xReturn = pdTRUE;
 2033              		.loc 1 2062 0
 2034 0014 0123     		movs	r3, #1
 2035 0016 FB60     		str	r3, [r7, #12]
 2036 0018 01E0     		b	.L125
 2037              	.L124:
2063:.\queue.c     **** 	}
2064:.\queue.c     **** 	else
2065:.\queue.c     **** 	{
ARM GAS  C:\Users\mjphi\AppData\Local\Temp\ccgjF1VN.s 			page 73


2066:.\queue.c     **** 		xReturn = pdFALSE;
 2038              		.loc 1 2066 0
 2039 001a 0023     		movs	r3, #0
 2040 001c FB60     		str	r3, [r7, #12]
 2041              	.L125:
2067:.\queue.c     **** 	}
2068:.\queue.c     **** 
2069:.\queue.c     **** 	return xReturn;
 2042              		.loc 1 2069 0
 2043 001e FB68     		ldr	r3, [r7, #12]
2070:.\queue.c     **** } /*lint !e818 xQueue could not be pointer to const because it is a typedef. */
 2044              		.loc 1 2070 0
 2045 0020 1846     		mov	r0, r3
 2046 0022 1437     		adds	r7, r7, #20
 2047              		.cfi_def_cfa_offset 4
 2048 0024 BD46     		mov	sp, r7
 2049              		.cfi_def_cfa_register 13
 2050              		@ sp needed
 2051 0026 5DF8047B 		ldr	r7, [sp], #4
 2052              		.cfi_restore 7
 2053              		.cfi_def_cfa_offset 0
 2054 002a 7047     		bx	lr
 2055              		.cfi_endproc
 2056              	.LFE86:
 2057              		.size	xQueueIsQueueFullFromISR, .-xQueueIsQueueFullFromISR
 2058              		.section	.text.vQueueAddToRegistry,"ax",%progbits
 2059              		.align	2
 2060              		.global	vQueueAddToRegistry
 2061              		.thumb
 2062              		.thumb_func
 2063              		.type	vQueueAddToRegistry, %function
 2064              	vQueueAddToRegistry:
 2065              	.LFB87:
2071:.\queue.c     **** /*-----------------------------------------------------------*/
2072:.\queue.c     **** 
2073:.\queue.c     **** #if ( configUSE_CO_ROUTINES == 1 )
2074:.\queue.c     **** 
2075:.\queue.c     **** 	BaseType_t xQueueCRSend( QueueHandle_t xQueue, const void *pvItemToQueue, TickType_t xTicksToWait 
2076:.\queue.c     **** 	{
2077:.\queue.c     **** 	BaseType_t xReturn;
2078:.\queue.c     **** 	Queue_t * const pxQueue = ( Queue_t * ) xQueue;
2079:.\queue.c     **** 
2080:.\queue.c     **** 		/* If the queue is already full we may have to block.  A critical section
2081:.\queue.c     **** 		is required to prevent an interrupt removing something from the queue
2082:.\queue.c     **** 		between the check to see if the queue is full and blocking on the queue. */
2083:.\queue.c     **** 		portDISABLE_INTERRUPTS();
2084:.\queue.c     **** 		{
2085:.\queue.c     **** 			if( prvIsQueueFull( pxQueue ) != pdFALSE )
2086:.\queue.c     **** 			{
2087:.\queue.c     **** 				/* The queue is full - do we want to block or just leave without
2088:.\queue.c     **** 				posting? */
2089:.\queue.c     **** 				if( xTicksToWait > ( TickType_t ) 0 )
2090:.\queue.c     **** 				{
2091:.\queue.c     **** 					/* As this is called from a coroutine we cannot block directly, but
2092:.\queue.c     **** 					return indicating that we need to block. */
2093:.\queue.c     **** 					vCoRoutineAddToDelayedList( xTicksToWait, &( pxQueue->xTasksWaitingToSend ) );
2094:.\queue.c     **** 					portENABLE_INTERRUPTS();
ARM GAS  C:\Users\mjphi\AppData\Local\Temp\ccgjF1VN.s 			page 74


2095:.\queue.c     **** 					return errQUEUE_BLOCKED;
2096:.\queue.c     **** 				}
2097:.\queue.c     **** 				else
2098:.\queue.c     **** 				{
2099:.\queue.c     **** 					portENABLE_INTERRUPTS();
2100:.\queue.c     **** 					return errQUEUE_FULL;
2101:.\queue.c     **** 				}
2102:.\queue.c     **** 			}
2103:.\queue.c     **** 		}
2104:.\queue.c     **** 		portENABLE_INTERRUPTS();
2105:.\queue.c     **** 
2106:.\queue.c     **** 		portDISABLE_INTERRUPTS();
2107:.\queue.c     **** 		{
2108:.\queue.c     **** 			if( pxQueue->uxMessagesWaiting < pxQueue->uxLength )
2109:.\queue.c     **** 			{
2110:.\queue.c     **** 				/* There is room in the queue, copy the data into the queue. */
2111:.\queue.c     **** 				prvCopyDataToQueue( pxQueue, pvItemToQueue, queueSEND_TO_BACK );
2112:.\queue.c     **** 				xReturn = pdPASS;
2113:.\queue.c     **** 
2114:.\queue.c     **** 				/* Were any co-routines waiting for data to become available? */
2115:.\queue.c     **** 				if( listLIST_IS_EMPTY( &( pxQueue->xTasksWaitingToReceive ) ) == pdFALSE )
2116:.\queue.c     **** 				{
2117:.\queue.c     **** 					/* In this instance the co-routine could be placed directly
2118:.\queue.c     **** 					into the ready list as we are within a critical section.
2119:.\queue.c     **** 					Instead the same pending ready list mechanism is used as if
2120:.\queue.c     **** 					the event were caused from within an interrupt. */
2121:.\queue.c     **** 					if( xCoRoutineRemoveFromEventList( &( pxQueue->xTasksWaitingToReceive ) ) != pdFALSE )
2122:.\queue.c     **** 					{
2123:.\queue.c     **** 						/* The co-routine waiting has a higher priority so record
2124:.\queue.c     **** 						that a yield might be appropriate. */
2125:.\queue.c     **** 						xReturn = errQUEUE_YIELD;
2126:.\queue.c     **** 					}
2127:.\queue.c     **** 					else
2128:.\queue.c     **** 					{
2129:.\queue.c     **** 						mtCOVERAGE_TEST_MARKER();
2130:.\queue.c     **** 					}
2131:.\queue.c     **** 				}
2132:.\queue.c     **** 				else
2133:.\queue.c     **** 				{
2134:.\queue.c     **** 					mtCOVERAGE_TEST_MARKER();
2135:.\queue.c     **** 				}
2136:.\queue.c     **** 			}
2137:.\queue.c     **** 			else
2138:.\queue.c     **** 			{
