ARM GAS  C:\Users\mjphi\AppData\Local\Temp\cchQ0ezp.s 			page 1


   1              		.syntax unified
   2              		.cpu cortex-m3
   3              		.fpu softvfp
   4              		.eabi_attribute 20, 1
   5              		.eabi_attribute 21, 1
   6              		.eabi_attribute 23, 3
   7              		.eabi_attribute 24, 1
   8              		.eabi_attribute 25, 1
   9              		.eabi_attribute 26, 1
  10              		.eabi_attribute 30, 6
  11              		.eabi_attribute 34, 1
  12              		.eabi_attribute 18, 4
  13              		.thumb
  14              		.file	"sw1.c"
  15              		.text
  16              	.Ltext0:
  17              		.cfi_sections	.debug_frame
  18              		.section	.text.sw1_Write,"ax",%progbits
  19              		.align	2
  20              		.global	sw1_Write
  21              		.thumb
  22              		.thumb_func
  23              		.type	sw1_Write, %function
  24              	sw1_Write:
  25              	.LFB0:
  26              		.file 1 ".\\Generated_Source\\PSoC5\\sw1.c"
   1:.\Generated_Source\PSoC5/sw1.c **** /*******************************************************************************
   2:.\Generated_Source\PSoC5/sw1.c **** * File Name: sw1.c  
   3:.\Generated_Source\PSoC5/sw1.c **** * Version 2.10
   4:.\Generated_Source\PSoC5/sw1.c **** *
   5:.\Generated_Source\PSoC5/sw1.c **** * Description:
   6:.\Generated_Source\PSoC5/sw1.c **** *  This file contains API to enable firmware control of a Pins component.
   7:.\Generated_Source\PSoC5/sw1.c **** *
   8:.\Generated_Source\PSoC5/sw1.c **** * Note:
   9:.\Generated_Source\PSoC5/sw1.c **** *
  10:.\Generated_Source\PSoC5/sw1.c **** ********************************************************************************
  11:.\Generated_Source\PSoC5/sw1.c **** * Copyright 2008-2014, Cypress Semiconductor Corporation.  All rights reserved.
  12:.\Generated_Source\PSoC5/sw1.c **** * You may use this file only in accordance with the license, terms, conditions, 
  13:.\Generated_Source\PSoC5/sw1.c **** * disclaimers, and limitations in the end user license agreement accompanying 
  14:.\Generated_Source\PSoC5/sw1.c **** * the software package with which this file was provided.
  15:.\Generated_Source\PSoC5/sw1.c **** *******************************************************************************/
  16:.\Generated_Source\PSoC5/sw1.c **** 
  17:.\Generated_Source\PSoC5/sw1.c **** #include "cytypes.h"
  18:.\Generated_Source\PSoC5/sw1.c **** #include "sw1.h"
  19:.\Generated_Source\PSoC5/sw1.c **** 
  20:.\Generated_Source\PSoC5/sw1.c **** /* APIs are not generated for P15[7:6] on PSoC 5 */
  21:.\Generated_Source\PSoC5/sw1.c **** #if !(CY_PSOC5A &&\
  22:.\Generated_Source\PSoC5/sw1.c **** 	 sw1__PORT == 15 && ((sw1__MASK & 0xC0) != 0))
  23:.\Generated_Source\PSoC5/sw1.c **** 
  24:.\Generated_Source\PSoC5/sw1.c **** 
  25:.\Generated_Source\PSoC5/sw1.c **** /*******************************************************************************
  26:.\Generated_Source\PSoC5/sw1.c **** * Function Name: sw1_Write
  27:.\Generated_Source\PSoC5/sw1.c **** ********************************************************************************
  28:.\Generated_Source\PSoC5/sw1.c **** *
  29:.\Generated_Source\PSoC5/sw1.c **** * Summary:
  30:.\Generated_Source\PSoC5/sw1.c **** *  Assign a new value to the digital port's data output register.  
  31:.\Generated_Source\PSoC5/sw1.c **** *
ARM GAS  C:\Users\mjphi\AppData\Local\Temp\cchQ0ezp.s 			page 2


  32:.\Generated_Source\PSoC5/sw1.c **** * Parameters:  
  33:.\Generated_Source\PSoC5/sw1.c **** *  prtValue:  The value to be assigned to the Digital Port. 
  34:.\Generated_Source\PSoC5/sw1.c **** *
  35:.\Generated_Source\PSoC5/sw1.c **** * Return: 
  36:.\Generated_Source\PSoC5/sw1.c **** *  None
  37:.\Generated_Source\PSoC5/sw1.c **** *  
  38:.\Generated_Source\PSoC5/sw1.c **** *******************************************************************************/
  39:.\Generated_Source\PSoC5/sw1.c **** void sw1_Write(uint8 value) 
  40:.\Generated_Source\PSoC5/sw1.c **** {
  27              		.loc 1 40 0
  28              		.cfi_startproc
  29              		@ args = 0, pretend = 0, frame = 16
  30              		@ frame_needed = 1, uses_anonymous_args = 0
  31              		@ link register save eliminated.
  32 0000 80B4     		push	{r7}
  33              		.cfi_def_cfa_offset 4
  34              		.cfi_offset 7, -4
  35 0002 85B0     		sub	sp, sp, #20
  36              		.cfi_def_cfa_offset 24
  37 0004 00AF     		add	r7, sp, #0
  38              		.cfi_def_cfa_register 7
  39 0006 0346     		mov	r3, r0
  40 0008 FB71     		strb	r3, [r7, #7]
  41:.\Generated_Source\PSoC5/sw1.c ****     uint8 staticBits = (sw1_DR & (uint8)(~sw1_MASK));
  41              		.loc 1 41 0
  42 000a 0B4B     		ldr	r3, .L2
  43 000c 1B78     		ldrb	r3, [r3]
  44 000e DBB2     		uxtb	r3, r3
  45 0010 23F02003 		bic	r3, r3, #32
  46 0014 FB73     		strb	r3, [r7, #15]
  42:.\Generated_Source\PSoC5/sw1.c ****     sw1_DR = staticBits | ((uint8)(value << sw1_SHIFT) & sw1_MASK);
  47              		.loc 1 42 0
  48 0016 0849     		ldr	r1, .L2
  49 0018 FB79     		ldrb	r3, [r7, #7]
  50 001a 5B01     		lsls	r3, r3, #5
  51 001c DBB2     		uxtb	r3, r3
  52 001e 03F02003 		and	r3, r3, #32
  53 0022 DAB2     		uxtb	r2, r3
  54 0024 FB7B     		ldrb	r3, [r7, #15]
  55 0026 1343     		orrs	r3, r3, r2
  56 0028 DBB2     		uxtb	r3, r3
  57 002a 0B70     		strb	r3, [r1]
  43:.\Generated_Source\PSoC5/sw1.c **** }
  58              		.loc 1 43 0
  59 002c 1437     		adds	r7, r7, #20
  60              		.cfi_def_cfa_offset 4
  61 002e BD46     		mov	sp, r7
  62              		.cfi_def_cfa_register 13
  63              		@ sp needed
  64 0030 5DF8047B 		ldr	r7, [sp], #4
  65              		.cfi_restore 7
  66              		.cfi_def_cfa_offset 0
  67 0034 7047     		bx	lr
  68              	.L3:
  69 0036 00BF     		.align	2
  70              	.L2:
  71 0038 C0510040 		.word	1073762752
ARM GAS  C:\Users\mjphi\AppData\Local\Temp\cchQ0ezp.s 			page 3


  72              		.cfi_endproc
  73              	.LFE0:
  74              		.size	sw1_Write, .-sw1_Write
  75              		.section	.text.sw1_SetDriveMode,"ax",%progbits
  76              		.align	2
  77              		.global	sw1_SetDriveMode
  78              		.thumb
  79              		.thumb_func
  80              		.type	sw1_SetDriveMode, %function
  81              	sw1_SetDriveMode:
  82              	.LFB1:
  44:.\Generated_Source\PSoC5/sw1.c **** 
  45:.\Generated_Source\PSoC5/sw1.c **** 
  46:.\Generated_Source\PSoC5/sw1.c **** /*******************************************************************************
  47:.\Generated_Source\PSoC5/sw1.c **** * Function Name: sw1_SetDriveMode
  48:.\Generated_Source\PSoC5/sw1.c **** ********************************************************************************
  49:.\Generated_Source\PSoC5/sw1.c **** *
  50:.\Generated_Source\PSoC5/sw1.c **** * Summary:
  51:.\Generated_Source\PSoC5/sw1.c **** *  Change the drive mode on the pins of the port.
  52:.\Generated_Source\PSoC5/sw1.c **** * 
  53:.\Generated_Source\PSoC5/sw1.c **** * Parameters:  
  54:.\Generated_Source\PSoC5/sw1.c **** *  mode:  Change the pins to one of the following drive modes.
  55:.\Generated_Source\PSoC5/sw1.c **** *
  56:.\Generated_Source\PSoC5/sw1.c **** *  sw1_DM_STRONG     Strong Drive 
  57:.\Generated_Source\PSoC5/sw1.c **** *  sw1_DM_OD_HI      Open Drain, Drives High 
  58:.\Generated_Source\PSoC5/sw1.c **** *  sw1_DM_OD_LO      Open Drain, Drives Low 
  59:.\Generated_Source\PSoC5/sw1.c **** *  sw1_DM_RES_UP     Resistive Pull Up 
  60:.\Generated_Source\PSoC5/sw1.c **** *  sw1_DM_RES_DWN    Resistive Pull Down 
  61:.\Generated_Source\PSoC5/sw1.c **** *  sw1_DM_RES_UPDWN  Resistive Pull Up/Down 
  62:.\Generated_Source\PSoC5/sw1.c **** *  sw1_DM_DIG_HIZ    High Impedance Digital 
  63:.\Generated_Source\PSoC5/sw1.c **** *  sw1_DM_ALG_HIZ    High Impedance Analog 
  64:.\Generated_Source\PSoC5/sw1.c **** *
  65:.\Generated_Source\PSoC5/sw1.c **** * Return: 
  66:.\Generated_Source\PSoC5/sw1.c **** *  None
  67:.\Generated_Source\PSoC5/sw1.c **** *
  68:.\Generated_Source\PSoC5/sw1.c **** *******************************************************************************/
  69:.\Generated_Source\PSoC5/sw1.c **** void sw1_SetDriveMode(uint8 mode) 
  70:.\Generated_Source\PSoC5/sw1.c **** {
  83              		.loc 1 70 0
  84              		.cfi_startproc
  85              		@ args = 0, pretend = 0, frame = 8
  86              		@ frame_needed = 1, uses_anonymous_args = 0
  87              		@ link register save eliminated.
  88 0000 80B4     		push	{r7}
  89              		.cfi_def_cfa_offset 4
  90              		.cfi_offset 7, -4
  91 0002 83B0     		sub	sp, sp, #12
  92              		.cfi_def_cfa_offset 16
  93 0004 00AF     		add	r7, sp, #0
  94              		.cfi_def_cfa_register 7
  95 0006 0346     		mov	r3, r0
  96 0008 FB71     		strb	r3, [r7, #7]
  71:.\Generated_Source\PSoC5/sw1.c **** 	CyPins_SetPinDriveMode(sw1_0, mode);
  97              		.loc 1 71 0
  98 000a 0A4B     		ldr	r3, .L5
  99 000c 094A     		ldr	r2, .L5
 100 000e 1278     		ldrb	r2, [r2]
ARM GAS  C:\Users\mjphi\AppData\Local\Temp\cchQ0ezp.s 			page 4


 101 0010 D2B2     		uxtb	r2, r2
 102 0012 D2B2     		uxtb	r2, r2
 103 0014 22F00E02 		bic	r2, r2, #14
 104 0018 D1B2     		uxtb	r1, r2
 105 001a FA79     		ldrb	r2, [r7, #7]	@ zero_extendqisi2
 106 001c 02F00E02 		and	r2, r2, #14
 107 0020 D2B2     		uxtb	r2, r2
 108 0022 0A43     		orrs	r2, r2, r1
 109 0024 D2B2     		uxtb	r2, r2
 110 0026 D2B2     		uxtb	r2, r2
 111 0028 1A70     		strb	r2, [r3]
  72:.\Generated_Source\PSoC5/sw1.c **** }
 112              		.loc 1 72 0
 113 002a 0C37     		adds	r7, r7, #12
 114              		.cfi_def_cfa_offset 4
 115 002c BD46     		mov	sp, r7
 116              		.cfi_def_cfa_register 13
 117              		@ sp needed
 118 002e 5DF8047B 		ldr	r7, [sp], #4
 119              		.cfi_restore 7
 120              		.cfi_def_cfa_offset 0
 121 0032 7047     		bx	lr
 122              	.L6:
 123              		.align	2
 124              	.L5:
 125 0034 65500040 		.word	1073762405
 126              		.cfi_endproc
 127              	.LFE1:
 128              		.size	sw1_SetDriveMode, .-sw1_SetDriveMode
 129              		.section	.text.sw1_Read,"ax",%progbits
 130              		.align	2
 131              		.global	sw1_Read
 132              		.thumb
 133              		.thumb_func
 134              		.type	sw1_Read, %function
 135              	sw1_Read:
 136              	.LFB2:
  73:.\Generated_Source\PSoC5/sw1.c **** 
  74:.\Generated_Source\PSoC5/sw1.c **** 
  75:.\Generated_Source\PSoC5/sw1.c **** /*******************************************************************************
  76:.\Generated_Source\PSoC5/sw1.c **** * Function Name: sw1_Read
  77:.\Generated_Source\PSoC5/sw1.c **** ********************************************************************************
  78:.\Generated_Source\PSoC5/sw1.c **** *
  79:.\Generated_Source\PSoC5/sw1.c **** * Summary:
  80:.\Generated_Source\PSoC5/sw1.c **** *  Read the current value on the pins of the Digital Port in right justified 
  81:.\Generated_Source\PSoC5/sw1.c **** *  form.
  82:.\Generated_Source\PSoC5/sw1.c **** *
  83:.\Generated_Source\PSoC5/sw1.c **** * Parameters:  
  84:.\Generated_Source\PSoC5/sw1.c **** *  None
  85:.\Generated_Source\PSoC5/sw1.c **** *
  86:.\Generated_Source\PSoC5/sw1.c **** * Return: 
  87:.\Generated_Source\PSoC5/sw1.c **** *  Returns the current value of the Digital Port as a right justified number
  88:.\Generated_Source\PSoC5/sw1.c **** *  
  89:.\Generated_Source\PSoC5/sw1.c **** * Note:
  90:.\Generated_Source\PSoC5/sw1.c **** *  Macro sw1_ReadPS calls this function. 
  91:.\Generated_Source\PSoC5/sw1.c **** *  
  92:.\Generated_Source\PSoC5/sw1.c **** *******************************************************************************/
ARM GAS  C:\Users\mjphi\AppData\Local\Temp\cchQ0ezp.s 			page 5


  93:.\Generated_Source\PSoC5/sw1.c **** uint8 sw1_Read(void) 
  94:.\Generated_Source\PSoC5/sw1.c **** {
 137              		.loc 1 94 0
 138              		.cfi_startproc
 139              		@ args = 0, pretend = 0, frame = 0
 140              		@ frame_needed = 1, uses_anonymous_args = 0
 141              		@ link register save eliminated.
 142 0000 80B4     		push	{r7}
 143              		.cfi_def_cfa_offset 4
 144              		.cfi_offset 7, -4
 145 0002 00AF     		add	r7, sp, #0
 146              		.cfi_def_cfa_register 7
  95:.\Generated_Source\PSoC5/sw1.c ****     return (sw1_PS & sw1_MASK) >> sw1_SHIFT;
 147              		.loc 1 95 0
 148 0004 054B     		ldr	r3, .L9
 149 0006 1B78     		ldrb	r3, [r3]
 150 0008 DBB2     		uxtb	r3, r3
 151 000a 03F02003 		and	r3, r3, #32
 152 000e 5B09     		lsrs	r3, r3, #5
 153 0010 DBB2     		uxtb	r3, r3
  96:.\Generated_Source\PSoC5/sw1.c **** }
 154              		.loc 1 96 0
 155 0012 1846     		mov	r0, r3
 156 0014 BD46     		mov	sp, r7
 157              		.cfi_def_cfa_register 13
 158              		@ sp needed
 159 0016 5DF8047B 		ldr	r7, [sp], #4
 160              		.cfi_restore 7
 161              		.cfi_def_cfa_offset 0
 162 001a 7047     		bx	lr
 163              	.L10:
 164              		.align	2
 165              	.L9:
 166 001c C1510040 		.word	1073762753
 167              		.cfi_endproc
 168              	.LFE2:
 169              		.size	sw1_Read, .-sw1_Read
 170              		.section	.text.sw1_ReadDataReg,"ax",%progbits
 171              		.align	2
 172              		.global	sw1_ReadDataReg
 173              		.thumb
 174              		.thumb_func
 175              		.type	sw1_ReadDataReg, %function
 176              	sw1_ReadDataReg:
 177              	.LFB3:
  97:.\Generated_Source\PSoC5/sw1.c **** 
  98:.\Generated_Source\PSoC5/sw1.c **** 
  99:.\Generated_Source\PSoC5/sw1.c **** /*******************************************************************************
 100:.\Generated_Source\PSoC5/sw1.c **** * Function Name: sw1_ReadDataReg
 101:.\Generated_Source\PSoC5/sw1.c **** ********************************************************************************
 102:.\Generated_Source\PSoC5/sw1.c **** *
 103:.\Generated_Source\PSoC5/sw1.c **** * Summary:
 104:.\Generated_Source\PSoC5/sw1.c **** *  Read the current value assigned to a Digital Port's data output register
 105:.\Generated_Source\PSoC5/sw1.c **** *
 106:.\Generated_Source\PSoC5/sw1.c **** * Parameters:  
 107:.\Generated_Source\PSoC5/sw1.c **** *  None 
 108:.\Generated_Source\PSoC5/sw1.c **** *
ARM GAS  C:\Users\mjphi\AppData\Local\Temp\cchQ0ezp.s 			page 6


 109:.\Generated_Source\PSoC5/sw1.c **** * Return: 
 110:.\Generated_Source\PSoC5/sw1.c **** *  Returns the current value assigned to the Digital Port's data output register
 111:.\Generated_Source\PSoC5/sw1.c **** *  
 112:.\Generated_Source\PSoC5/sw1.c **** *******************************************************************************/
 113:.\Generated_Source\PSoC5/sw1.c **** uint8 sw1_ReadDataReg(void) 
 114:.\Generated_Source\PSoC5/sw1.c **** {
 178              		.loc 1 114 0
 179              		.cfi_startproc
 180              		@ args = 0, pretend = 0, frame = 0
 181              		@ frame_needed = 1, uses_anonymous_args = 0
 182              		@ link register save eliminated.
 183 0000 80B4     		push	{r7}
 184              		.cfi_def_cfa_offset 4
 185              		.cfi_offset 7, -4
 186 0002 00AF     		add	r7, sp, #0
 187              		.cfi_def_cfa_register 7
 115:.\Generated_Source\PSoC5/sw1.c ****     return (sw1_DR & sw1_MASK) >> sw1_SHIFT;
 188              		.loc 1 115 0
 189 0004 054B     		ldr	r3, .L13
 190 0006 1B78     		ldrb	r3, [r3]
 191 0008 DBB2     		uxtb	r3, r3
 192 000a 03F02003 		and	r3, r3, #32
 193 000e 5B09     		lsrs	r3, r3, #5
 194 0010 DBB2     		uxtb	r3, r3
 116:.\Generated_Source\PSoC5/sw1.c **** }
 195              		.loc 1 116 0
 196 0012 1846     		mov	r0, r3
 197 0014 BD46     		mov	sp, r7
 198              		.cfi_def_cfa_register 13
 199              		@ sp needed
 200 0016 5DF8047B 		ldr	r7, [sp], #4
 201              		.cfi_restore 7
 202              		.cfi_def_cfa_offset 0
 203 001a 7047     		bx	lr
 204              	.L14:
 205              		.align	2
 206              	.L13:
 207 001c C0510040 		.word	1073762752
 208              		.cfi_endproc
 209              	.LFE3:
 210              		.size	sw1_ReadDataReg, .-sw1_ReadDataReg
 211              		.text
 212              	.Letext0:
 213              		.file 2 ".\\Generated_Source\\PSoC5\\cytypes.h"
